{
  "contractName": "CourtClerk",
  "abi": [
    {
      "inputs": [
        {
          "internalType": "address",
          "name": "_addressManagerAddress",
          "type": "address"
        }
      ],
      "stateMutability": "nonpayable",
      "type": "constructor"
    },
    {
      "inputs": [],
      "name": "AddressManagerAddress",
      "outputs": [
        {
          "internalType": "address",
          "name": "",
          "type": "address"
        }
      ],
      "stateMutability": "view",
      "type": "function"
    },
    {
      "inputs": [],
      "name": "JuryDAOAddress",
      "outputs": [
        {
          "internalType": "address",
          "name": "",
          "type": "address"
        }
      ],
      "stateMutability": "view",
      "type": "function"
    },
    {
      "inputs": [],
      "name": "JuryDAOAgent",
      "outputs": [
        {
          "internalType": "address",
          "name": "",
          "type": "address"
        }
      ],
      "stateMutability": "view",
      "type": "function"
    },
    {
      "inputs": [],
      "name": "addressManager",
      "outputs": [
        {
          "internalType": "contract AddressManager",
          "name": "",
          "type": "address"
        }
      ],
      "stateMutability": "view",
      "type": "function"
    },
    {
      "inputs": [],
      "name": "updateAddressManager",
      "outputs": [],
      "stateMutability": "nonpayable",
      "type": "function"
    },
    {
      "inputs": [],
      "name": "updateAllAddresses",
      "outputs": [],
      "stateMutability": "nonpayable",
      "type": "function"
    },
    {
      "inputs": [],
      "name": "updateDAOAddresses",
      "outputs": [],
      "stateMutability": "nonpayable",
      "type": "function"
    },
    {
      "inputs": [],
      "name": "updateDAOAgents",
      "outputs": [],
      "stateMutability": "nonpayable",
      "type": "function"
    },
    {
      "inputs": [
        {
          "internalType": "uint256",
          "name": "_tokenId",
          "type": "uint256"
        },
        {
          "internalType": "address",
          "name": "_badgeAddress",
          "type": "address"
        },
        {
          "internalType": "bytes",
          "name": "_minionCallData",
          "type": "bytes"
        }
      ],
      "name": "submitDispute",
      "outputs": [
        {
          "internalType": "bytes",
          "name": "proposalIdBytes",
          "type": "bytes"
        }
      ],
      "stateMutability": "nonpayable",
      "type": "function"
    }
  ],
  "bytecode": "0x608060405234801561001057600080fd5b506040516108ed3803806108ed83398101604081905261002f916101ca565b600080546001600160a01b0383166001600160a01b03199182168117909255600380549091169091179055610062610068565b506101fa565b61007061007a565b610078610122565b565b600360009054906101000a90046001600160a01b03166001600160a01b031663a99b27356040518163ffffffff1660e01b815260040160206040518083038186803b1580156100c857600080fd5b505afa1580156100dc573d6000803e3d6000fd5b505050506040513d601f19601f8201168201806040525081019061010091906101ca565b600180546001600160a01b0319166001600160a01b0392909216919091179055565b600360009054906101000a90046001600160a01b03166001600160a01b031663024bebe96040518163ffffffff1660e01b815260040160206040518083038186803b15801561017057600080fd5b505afa158015610184573d6000803e3d6000fd5b505050506040513d601f19601f820116820180604052508101906101a891906101ca565b600280546001600160a01b0319166001600160a01b0392909216919091179055565b6000602082840312156101dc57600080fd5b81516001600160a01b03811681146101f357600080fd5b9392505050565b6106e4806102096000396000f3fe608060405234801561001057600080fd5b50600436106100935760003560e01c8063a99b273511610066578063a99b2735146100ed578063afc068e514610100578063b6085bf514610120578063e78c266c14610128578063f1132b301461013b57600080fd5b8063024bebe914610098578063326a55e0146100c85780633ab76e9f146100d257806349b5e105146100e5575b600080fd5b6002546100ab906001600160a01b031681565b6040516001600160a01b0390911681526020015b60405180910390f35b6100d0610143565b005b6003546100ab906001600160a01b031681565b6100d0610155565b6001546100ab906001600160a01b031681565b61011361010e3660046105a8565b61015d565b6040516100bf9190610641565b6100d061014b565b6000546100ab906001600160a01b031681565b6100d061020b565b61014b610213565b6101536102bb565b565b610153610213565b6040516331a9108f60e11b81526004810185905260609084906001600160a01b03821690636352211e9060240160206040518083038186803b1580156101a257600080fd5b505afa1580156101b6573d6000803e3d6000fd5b505050506040513d601f19601f820116820180604052508101906101da9190610562565b6001600160a01b0316336001600160a01b0316146101f757600080fd5b6102018484610363565b9695505050505050565b61015361042b565b600360009054906101000a90046001600160a01b03166001600160a01b031663a99b27356040518163ffffffff1660e01b815260040160206040518083038186803b15801561026157600080fd5b505afa158015610275573d6000803e3d6000fd5b505050506040513d601f19601f820116820180604052508101906102999190610562565b600180546001600160a01b0319166001600160a01b0392909216919091179055565b600360009054906101000a90046001600160a01b03166001600160a01b031663024bebe96040518163ffffffff1660e01b815260040160206040518083038186803b15801561030957600080fd5b505afa15801561031d573d6000803e3d6000fd5b505050506040513d601f19601f820116820180604052508101906103419190610562565b600280546001600160a01b0319166001600160a01b0392909216919091179055565b60015460405160609160009182916001600160a01b0316906103889087908790610631565b6000604051808303816000865af19150503d80600081146103c5576040519150601f19603f3d011682016040523d82523d6000602084013e6103ca565b606091505b5091509150809250816104235760405162461bcd60e51b815260206004820152601a60248201527f5478206e6f74207375626d697474656420746f206d696e696f6e000000000000604482015260640160405180910390fd5b505092915050565b600360009054906101000a90046001600160a01b03166001600160a01b031663a44b93256040518163ffffffff1660e01b815260040160206040518083038186803b15801561047957600080fd5b505afa15801561048d573d6000803e3d6000fd5b505050506040513d601f19601f820116820180604052508101906104b19190610586565b6104ba57600080fd5b600360009054906101000a90046001600160a01b03166001600160a01b031663ac7cfac36040518163ffffffff1660e01b815260040160206040518083038186803b15801561050857600080fd5b505afa15801561051c573d6000803e3d6000fd5b505050506040513d601f19601f820116820180604052508101906105409190610562565b600080546001600160a01b0319166001600160a01b0392909216919091179055565b60006020828403121561057457600080fd5b815161057f81610696565b9392505050565b60006020828403121561059857600080fd5b8151801515811461057f57600080fd5b600080600080606085870312156105be57600080fd5b8435935060208501356105d081610696565b9250604085013567ffffffffffffffff808211156105ed57600080fd5b818701915087601f83011261060157600080fd5b81358181111561061057600080fd5b88602082850101111561062257600080fd5b95989497505060200194505050565b8183823760009101908152919050565b600060208083528351808285015260005b8181101561066e57858101830151858201604001528201610652565b81811115610680576000604083870101525b50601f01601f1916929092016040019392505050565b6001600160a01b03811681146106ab57600080fd5b5056fea2646970667358221220398f4a1aa67af10bf6d132a33210f4b90cfc3d6f5fbee3d21daac27f7de29b3064736f6c63430008060033",
  "immutableReferences": {},
  "source": "pragma solidity ^0.8.0;\n\nimport '../src/AddressManagerRecieverMini.sol';\nimport \"@openzeppelin/contracts/token/ERC721/ERC721.sol\";\n\n\n// This contract enables anyone to be able to submit dispute proposals, regardless of thier membership status.\n\ncontract CourtClerk is AddressManagerRecieverMini {\n\n    constructor(address _addressManagerAddress) AddressManagerRecieverMini(_addressManagerAddress) {\n        updateAllAddresses();\n    }\n\n    function submitDispute(uint _tokenId, address _badgeAddress, bytes calldata _minionCallData) public returns (bytes memory proposalIdBytes) {\n        ERC721 badge = ERC721(_badgeAddress);\n        require(msg.sender == badge.ownerOf(_tokenId));\n        proposalIdBytes = _sendMinionTransaction(_minionCallData);\n        //require(proposalId > 0, \"Check proposalId\");\n        return proposalIdBytes;\n    }\n\n    function _sendMinionTransaction(bytes calldata _minionCallData)internal returns (bytes memory proposalIdBytes) {\n\n        (bool success, bytes memory toReturn) = JuryDAOAddress.call(_minionCallData);\n        proposalIdBytes = toReturn;\n        //require (proposalId >= 1, \"Error sending tx to minion\");\n        require(success, \"Tx not submitted to minion\");\n        return proposalIdBytes;\n\n    }\n\n    function requestMembership() internal returns (bool) {\n        require(_requestMembership(), \"error\");\n        return true;\n    }\n\n    function _requestMembership() internal returns (bool) {\n\n        bytes memory txEncoded = abi.encodeWithSignature(\n            \"submitProposal(address, uint256, uint256, uint256, address, uint256, address, string)\",\n            address(this), 1, 0, 0, 0xe78AC7E8d309C749EBC80F55A78B3b397625421C, 0, 0xe78AC7E8d309C749EBC80F55A78B3b397625421C,\n            \"hire the clerk\"\n        );\n\n        JuryDAOAddress.call(txEncoded);\n        return true;\n    }\n\n}",
  "sourcePath": "/home/n/Desktop/PinkSlips_FrontEnd_REFORMAT/contracts/juryAndAppeals/CourtClerk.sol",
  "compiler": {
    "name": "solc",
    "version": "0.8.6+commit.11564f7e.Emscripten.clang"
  },
  "schemaVersion": "3.4.1",
  "updatedAt": "2021-08-06T05:30:42.256Z",
  "devdoc": {
    "kind": "dev",
    "methods": {},
    "version": 1
  },
  "userdoc": {
    "kind": "user",
    "methods": {},
    "version": 1
  }
}