{
  "contractName": "AddressManager",
  "abi": [
    {
      "inputs": [
        {
          "internalType": "address",
          "name": "juryDAOAgent",
          "type": "address"
        },
        {
          "internalType": "address",
          "name": "gavelDAOAgent",
          "type": "address"
        },
        {
          "internalType": "address",
          "name": "treasuryAddress",
          "type": "address"
        },
        {
          "internalType": "address",
          "name": "theCourtAddress",
          "type": "address"
        },
        {
          "internalType": "address",
          "name": "_MiniBailiff",
          "type": "address"
        }
      ],
      "stateMutability": "nonpayable",
      "type": "constructor"
    },
    {
      "anonymous": false,
      "inputs": [
        {
          "indexed": false,
          "internalType": "address",
          "name": "",
          "type": "address"
        },
        {
          "indexed": false,
          "internalType": "string",
          "name": "",
          "type": "string"
        }
      ],
      "name": "AddressUpdated",
      "type": "event"
    },
    {
      "anonymous": false,
      "inputs": [
        {
          "indexed": true,
          "internalType": "bytes32",
          "name": "role",
          "type": "bytes32"
        },
        {
          "indexed": true,
          "internalType": "bytes32",
          "name": "previousAdminRole",
          "type": "bytes32"
        },
        {
          "indexed": true,
          "internalType": "bytes32",
          "name": "newAdminRole",
          "type": "bytes32"
        }
      ],
      "name": "RoleAdminChanged",
      "type": "event"
    },
    {
      "anonymous": false,
      "inputs": [
        {
          "indexed": true,
          "internalType": "bytes32",
          "name": "role",
          "type": "bytes32"
        },
        {
          "indexed": true,
          "internalType": "address",
          "name": "account",
          "type": "address"
        },
        {
          "indexed": true,
          "internalType": "address",
          "name": "sender",
          "type": "address"
        }
      ],
      "name": "RoleGranted",
      "type": "event"
    },
    {
      "anonymous": false,
      "inputs": [
        {
          "indexed": true,
          "internalType": "bytes32",
          "name": "role",
          "type": "bytes32"
        },
        {
          "indexed": true,
          "internalType": "address",
          "name": "account",
          "type": "address"
        },
        {
          "indexed": true,
          "internalType": "address",
          "name": "sender",
          "type": "address"
        }
      ],
      "name": "RoleRevoked",
      "type": "event"
    },
    {
      "inputs": [],
      "name": "ChadBadgeAddress",
      "outputs": [
        {
          "internalType": "address",
          "name": "",
          "type": "address"
        }
      ],
      "stateMutability": "view",
      "type": "function",
      "constant": true
    },
    {
      "inputs": [],
      "name": "DEFAULT_ADMIN_ROLE",
      "outputs": [
        {
          "internalType": "bytes32",
          "name": "",
          "type": "bytes32"
        }
      ],
      "stateMutability": "view",
      "type": "function",
      "constant": true
    },
    {
      "inputs": [],
      "name": "GAVELS_BAILIFF",
      "outputs": [
        {
          "internalType": "bytes32",
          "name": "",
          "type": "bytes32"
        }
      ],
      "stateMutability": "view",
      "type": "function",
      "constant": true
    },
    {
      "inputs": [],
      "name": "GavelDAOAddress",
      "outputs": [
        {
          "internalType": "address",
          "name": "",
          "type": "address"
        }
      ],
      "stateMutability": "view",
      "type": "function",
      "constant": true
    },
    {
      "inputs": [],
      "name": "GavelDAOAgent",
      "outputs": [
        {
          "internalType": "address",
          "name": "",
          "type": "address"
        }
      ],
      "stateMutability": "view",
      "type": "function",
      "constant": true
    },
    {
      "inputs": [],
      "name": "GavelTokenAddress",
      "outputs": [
        {
          "internalType": "address",
          "name": "",
          "type": "address"
        }
      ],
      "stateMutability": "view",
      "type": "function",
      "constant": true
    },
    {
      "inputs": [],
      "name": "GavelVote",
      "outputs": [
        {
          "internalType": "bool",
          "name": "",
          "type": "bool"
        }
      ],
      "stateMutability": "view",
      "type": "function",
      "constant": true
    },
    {
      "inputs": [],
      "name": "GoldStarAddress",
      "outputs": [
        {
          "internalType": "address",
          "name": "",
          "type": "address"
        }
      ],
      "stateMutability": "view",
      "type": "function",
      "constant": true
    },
    {
      "inputs": [],
      "name": "JERK_ROLE",
      "outputs": [
        {
          "internalType": "bytes32",
          "name": "",
          "type": "bytes32"
        }
      ],
      "stateMutability": "view",
      "type": "function",
      "constant": true
    },
    {
      "inputs": [],
      "name": "JURY_BAILIFF",
      "outputs": [
        {
          "internalType": "bytes32",
          "name": "",
          "type": "bytes32"
        }
      ],
      "stateMutability": "view",
      "type": "function",
      "constant": true
    },
    {
      "inputs": [],
      "name": "JuryDAOAddress",
      "outputs": [
        {
          "internalType": "address",
          "name": "",
          "type": "address"
        }
      ],
      "stateMutability": "view",
      "type": "function",
      "constant": true
    },
    {
      "inputs": [],
      "name": "JuryDAOAgent",
      "outputs": [
        {
          "internalType": "address",
          "name": "",
          "type": "address"
        }
      ],
      "stateMutability": "view",
      "type": "function",
      "constant": true
    },
    {
      "inputs": [],
      "name": "JuryPoolAddress",
      "outputs": [
        {
          "internalType": "address",
          "name": "",
          "type": "address"
        }
      ],
      "stateMutability": "view",
      "type": "function",
      "constant": true
    },
    {
      "inputs": [],
      "name": "JuryVote",
      "outputs": [
        {
          "internalType": "bool",
          "name": "",
          "type": "bool"
        }
      ],
      "stateMutability": "view",
      "type": "function",
      "constant": true
    },
    {
      "inputs": [],
      "name": "MINI_BAILIFF_ROLE",
      "outputs": [
        {
          "internalType": "bytes32",
          "name": "",
          "type": "bytes32"
        }
      ],
      "stateMutability": "view",
      "type": "function",
      "constant": true
    },
    {
      "inputs": [],
      "name": "MiniBailiff",
      "outputs": [
        {
          "internalType": "address",
          "name": "",
          "type": "address"
        }
      ],
      "stateMutability": "view",
      "type": "function",
      "constant": true
    },
    {
      "inputs": [],
      "name": "PinkSlipAddress",
      "outputs": [
        {
          "internalType": "address",
          "name": "",
          "type": "address"
        }
      ],
      "stateMutability": "view",
      "type": "function",
      "constant": true
    },
    {
      "inputs": [],
      "name": "RedPenTokenAddress",
      "outputs": [
        {
          "internalType": "address",
          "name": "",
          "type": "address"
        }
      ],
      "stateMutability": "view",
      "type": "function",
      "constant": true
    },
    {
      "inputs": [],
      "name": "THE_COURT_ROLE",
      "outputs": [
        {
          "internalType": "bytes32",
          "name": "",
          "type": "bytes32"
        }
      ],
      "stateMutability": "view",
      "type": "function",
      "constant": true
    },
    {
      "inputs": [],
      "name": "TheCourtDAOAddress",
      "outputs": [
        {
          "internalType": "address",
          "name": "",
          "type": "address"
        }
      ],
      "stateMutability": "view",
      "type": "function",
      "constant": true
    },
    {
      "inputs": [],
      "name": "TheCourtDAOAgent",
      "outputs": [
        {
          "internalType": "address",
          "name": "",
          "type": "address"
        }
      ],
      "stateMutability": "view",
      "type": "function",
      "constant": true
    },
    {
      "inputs": [],
      "name": "TreasuryAddress",
      "outputs": [
        {
          "internalType": "address",
          "name": "",
          "type": "address"
        }
      ],
      "stateMutability": "view",
      "type": "function",
      "constant": true
    },
    {
      "inputs": [
        {
          "internalType": "bytes32",
          "name": "role",
          "type": "bytes32"
        }
      ],
      "name": "getRoleAdmin",
      "outputs": [
        {
          "internalType": "bytes32",
          "name": "",
          "type": "bytes32"
        }
      ],
      "stateMutability": "view",
      "type": "function",
      "constant": true
    },
    {
      "inputs": [
        {
          "internalType": "bytes32",
          "name": "role",
          "type": "bytes32"
        },
        {
          "internalType": "uint256",
          "name": "index",
          "type": "uint256"
        }
      ],
      "name": "getRoleMember",
      "outputs": [
        {
          "internalType": "address",
          "name": "",
          "type": "address"
        }
      ],
      "stateMutability": "view",
      "type": "function",
      "constant": true
    },
    {
      "inputs": [
        {
          "internalType": "bytes32",
          "name": "role",
          "type": "bytes32"
        }
      ],
      "name": "getRoleMemberCount",
      "outputs": [
        {
          "internalType": "uint256",
          "name": "",
          "type": "uint256"
        }
      ],
      "stateMutability": "view",
      "type": "function",
      "constant": true
    },
    {
      "inputs": [
        {
          "internalType": "bytes32",
          "name": "role",
          "type": "bytes32"
        },
        {
          "internalType": "address",
          "name": "account",
          "type": "address"
        }
      ],
      "name": "grantRole",
      "outputs": [],
      "stateMutability": "nonpayable",
      "type": "function"
    },
    {
      "inputs": [],
      "name": "hasMovedToNewAddress",
      "outputs": [
        {
          "internalType": "bool",
          "name": "",
          "type": "bool"
        }
      ],
      "stateMutability": "view",
      "type": "function",
      "constant": true
    },
    {
      "inputs": [
        {
          "internalType": "bytes32",
          "name": "role",
          "type": "bytes32"
        },
        {
          "internalType": "address",
          "name": "account",
          "type": "address"
        }
      ],
      "name": "hasRole",
      "outputs": [
        {
          "internalType": "bool",
          "name": "",
          "type": "bool"
        }
      ],
      "stateMutability": "view",
      "type": "function",
      "constant": true
    },
    {
      "inputs": [],
      "name": "jerkSanctions",
      "outputs": [
        {
          "internalType": "bool",
          "name": "",
          "type": "bool"
        }
      ],
      "stateMutability": "view",
      "type": "function",
      "constant": true
    },
    {
      "inputs": [],
      "name": "newAddressManager",
      "outputs": [
        {
          "internalType": "address",
          "name": "",
          "type": "address"
        }
      ],
      "stateMutability": "view",
      "type": "function",
      "constant": true
    },
    {
      "inputs": [
        {
          "internalType": "bool",
          "name": "areYouSure",
          "type": "bool"
        }
      ],
      "name": "purgeSelf",
      "outputs": [
        {
          "internalType": "bool",
          "name": "",
          "type": "bool"
        }
      ],
      "stateMutability": "nonpayable",
      "type": "function"
    },
    {
      "inputs": [
        {
          "internalType": "address",
          "name": "addressToPurge",
          "type": "address"
        }
      ],
      "name": "purgeUser",
      "outputs": [],
      "stateMutability": "nonpayable",
      "type": "function"
    },
    {
      "inputs": [
        {
          "internalType": "bytes32",
          "name": "role",
          "type": "bytes32"
        },
        {
          "internalType": "address",
          "name": "account",
          "type": "address"
        }
      ],
      "name": "renounceRole",
      "outputs": [],
      "stateMutability": "nonpayable",
      "type": "function"
    },
    {
      "inputs": [
        {
          "internalType": "bytes32",
          "name": "ROLE_TO_UPDATE",
          "type": "bytes32"
        },
        {
          "internalType": "address",
          "name": "newRoleHolder",
          "type": "address"
        }
      ],
      "name": "resetSingleRole",
      "outputs": [],
      "stateMutability": "nonpayable",
      "type": "function"
    },
    {
      "inputs": [],
      "name": "resetVote",
      "outputs": [],
      "stateMutability": "nonpayable",
      "type": "function"
    },
    {
      "inputs": [
        {
          "internalType": "bytes32",
          "name": "role",
          "type": "bytes32"
        },
        {
          "internalType": "address",
          "name": "account",
          "type": "address"
        }
      ],
      "name": "revokeRole",
      "outputs": [],
      "stateMutability": "nonpayable",
      "type": "function"
    },
    {
      "inputs": [
        {
          "internalType": "bytes4",
          "name": "interfaceId",
          "type": "bytes4"
        }
      ],
      "name": "supportsInterface",
      "outputs": [
        {
          "internalType": "bool",
          "name": "",
          "type": "bool"
        }
      ],
      "stateMutability": "view",
      "type": "function",
      "constant": true
    },
    {
      "inputs": [],
      "name": "toggleJerkSanctions",
      "outputs": [],
      "stateMutability": "nonpayable",
      "type": "function"
    },
    {
      "inputs": [
        {
          "internalType": "bool",
          "name": "_vote",
          "type": "bool"
        }
      ],
      "name": "vote",
      "outputs": [],
      "stateMutability": "nonpayable",
      "type": "function"
    },
    {
      "inputs": [
        {
          "internalType": "address",
          "name": "newAddressManagerAddress",
          "type": "address"
        }
      ],
      "name": "setnewAddressManager",
      "outputs": [],
      "stateMutability": "nonpayable",
      "type": "function"
    },
    {
      "inputs": [
        {
          "internalType": "address",
          "name": "newDAOAddress",
          "type": "address"
        }
      ],
      "name": "switchGavelDAOAddress",
      "outputs": [],
      "stateMutability": "nonpayable",
      "type": "function"
    },
    {
      "inputs": [
        {
          "internalType": "address",
          "name": "newDAOAddress",
          "type": "address"
        }
      ],
      "name": "switchJuryDAOAddress",
      "outputs": [],
      "stateMutability": "nonpayable",
      "type": "function"
    },
    {
      "inputs": [
        {
          "internalType": "address",
          "name": "newDAOAddress",
          "type": "address"
        }
      ],
      "name": "switchTheCourtDAOAddress",
      "outputs": [],
      "stateMutability": "nonpayable",
      "type": "function"
    },
    {
      "inputs": [
        {
          "internalType": "address",
          "name": "newAgentAddress",
          "type": "address"
        }
      ],
      "name": "switchGavelAgent",
      "outputs": [],
      "stateMutability": "nonpayable",
      "type": "function"
    },
    {
      "inputs": [
        {
          "internalType": "address",
          "name": "newAgentAddress",
          "type": "address"
        }
      ],
      "name": "switchJuryAgent",
      "outputs": [],
      "stateMutability": "nonpayable",
      "type": "function"
    },
    {
      "inputs": [
        {
          "internalType": "address",
          "name": "newAgentAddress",
          "type": "address"
        }
      ],
      "name": "switchTheCourtAgent",
      "outputs": [],
      "stateMutability": "nonpayable",
      "type": "function"
    },
    {
      "inputs": [
        {
          "internalType": "address",
          "name": "newAgentAddress",
          "type": "address"
        }
      ],
      "name": "addMiniBailiff",
      "outputs": [],
      "stateMutability": "nonpayable",
      "type": "function"
    },
    {
      "inputs": [
        {
          "internalType": "address",
          "name": "newTreasuryAddress",
          "type": "address"
        }
      ],
      "name": "setTreasuryAddress",
      "outputs": [],
      "stateMutability": "nonpayable",
      "type": "function"
    },
    {
      "inputs": [
        {
          "internalType": "address",
          "name": "newGavelTokenAddress",
          "type": "address"
        }
      ],
      "name": "setGavelTokenAddress",
      "outputs": [],
      "stateMutability": "nonpayable",
      "type": "function"
    },
    {
      "inputs": [
        {
          "internalType": "address",
          "name": "newRedPenTokenAddress",
          "type": "address"
        }
      ],
      "name": "setRedPenTokenAddress",
      "outputs": [],
      "stateMutability": "nonpayable",
      "type": "function"
    },
    {
      "inputs": [
        {
          "internalType": "address",
          "name": "newJuryPoolAddress",
          "type": "address"
        }
      ],
      "name": "setJuryPoolAddress",
      "outputs": [],
      "stateMutability": "nonpayable",
      "type": "function"
    },
    {
      "inputs": [
        {
          "internalType": "address",
          "name": "newGoldStarAddress",
          "type": "address"
        }
      ],
      "name": "setGoldStarAddress",
      "outputs": [],
      "stateMutability": "nonpayable",
      "type": "function"
    },
    {
      "inputs": [
        {
          "internalType": "address",
          "name": "newPinkSlipAddress",
          "type": "address"
        }
      ],
      "name": "setPinkSlipAddress",
      "outputs": [],
      "stateMutability": "nonpayable",
      "type": "function"
    },
    {
      "inputs": [
        {
          "internalType": "address",
          "name": "newChadBadgeAddress",
          "type": "address"
        }
      ],
      "name": "setChadBadgeAddress",
      "outputs": [],
      "stateMutability": "nonpayable",
      "type": "function"
    }
  ],
  "bytecode": "0x6002805462ffffff191690556010805460ff60a01b1916905560c0604052601d60808190527f7468652068656c6c2061726520796f7520646f696e673f2043276d6f6e00000060a09081526200005991601191906200036e565b50604080518082019091526005808252642193b6b7b760d91b602090920191825262000088916012916200036e565b503480156200009657600080fd5b50604051620032a4380380620032a4833981016040819052620000b99162000431565b848483620000c960008262000209565b620000f57f0538d24a8b7882d7b2e36af243d4af61c23e86e3daa6cb8c887b53220b2f57208262000209565b620001217f048bc71fa1cb2c119c339cf9cf00a97996a19a9d991ce5fe049f2fa5459e79908362000209565b6200014d7ffa8e4989e1d689f7bc5c4b25b87efb51fecdecb19ba62847e29c759e12a89acd8462000209565b620001797ff0f4b159a6e2a4815eb3ca3df080bfa70c9270662c59bcaa4479a456220183e68262000209565b620001a67f7c9d7f6f02908185bffb3f7fc9afb29fd7bf93675af8fd4b655ee05c2cee1e0e600062000209565b5050600c80546001600160a01b03199081166001600160a01b0397881617909155600d80548216978716979097179096555060078054861693851693909317909255600b80548516918416919091179055600f80549093169116179055620004de565b6200022082826200024c60201b62001f2b1760201c565b60008281526001602090815260409091206200024791839062001f356200025c821b17901c565b505050565b6200025882826200027c565b5050565b600062000273836001600160a01b0384166200031c565b90505b92915050565b6000828152602081815260408083206001600160a01b038516845290915290205460ff1662000258576000828152602081815260408083206001600160a01b03851684529091529020805460ff19166001179055620002d83390565b6001600160a01b0316816001600160a01b0316837f2f8788117e7eff1d82e926ec794901d17c78024a50270940304540a733656f0d60405160405180910390a45050565b6000818152600183016020526040812054620003655750815460018181018455600084815260208082209093018490558454848252828601909352604090209190915562000276565b50600062000276565b8280546200037c90620004a1565b90600052602060002090601f016020900481019282620003a05760008555620003eb565b82601f10620003bb57805160ff1916838001178555620003eb565b82800160010185558215620003eb579182015b82811115620003eb578251825591602001919060010190620003ce565b50620003f9929150620003fd565b5090565b5b80821115620003f95760008155600101620003fe565b80516001600160a01b03811681146200042c57600080fd5b919050565b600080600080600060a086880312156200044a57600080fd5b620004558662000414565b9450620004656020870162000414565b9350620004756040870162000414565b9250620004856060870162000414565b9150620004956080870162000414565b90509295509295909350565b600181811c90821680620004b657607f821691505b60208210811415620004d857634e487b7160e01b600052602260045260246000fd5b50919050565b612db680620004ee6000396000f3fe608060405234801561001057600080fd5b50600436106103425760003560e01c80639010d07c116101b8578063cb6d557411610104578063e6217e3a116100a2578063f98447ac1161007c578063f98447ac14610759578063fdeffc321461076c578063fe525a6c1461077f578063ff7e88ec1461079257600080fd5b8063e6217e3a1461071e578063e9a5323014610731578063f592d0dc1461074657600080fd5b8063d547741f116100de578063d547741f146106d2578063d5f58f38146106e5578063da6cb606146106f8578063dadf56ac1461070b57600080fd5b8063cb6d557414610671578063cce8439214610684578063cf4ece15146106ab57600080fd5b8063a44b932511610171578063ac7cfac31161014b578063ac7cfac314610625578063bfb7dc9914610638578063ca15c8731461064b578063caed23021461065e57600080fd5b8063a44b9325146105f1578063a78e746f14610605578063a99b27351461061257600080fd5b80639010d07c1461058857806391d148541461059b57806394532462146105ae57806396c4f405146105c1578063a217fddf146105d4578063a32c5e59146105dc57600080fd5b806336e969a211610292578063641451f21161023057806372a8cbed1161020a57806372a8cbed1461053c578063762ddb591461054f5780637dad1ad5146105625780637e253e0a1461057557600080fd5b8063641451f2146105035780636605bfda146105165780636b5847751461052957600080fd5b80634b9f5c981161026c5780634b9f5c98146104b75780635b5c251f146104ca5780635be78997146104dd5780635f88b566146104f057600080fd5b806336e969a2146104895780633f86ea7c146104915780634a6d4244146104a457600080fd5b806321d7f008116102ff5780632f2ff15d116102d95780632f2ff15d146104485780632fb565851461045b578063329a8cfa1461046e57806336568abe1461047657600080fd5b806321d7f008146103e85780632436329d14610402578063248a9ca31461042557600080fd5b806301ffc9a714610347578063024bebe91461036f57806304d306251461039a5780630757b067146103af5780630a726d14146103c2578063104c0f1f146103d5575b600080fd5b61035a610355366004612929565b6107a4565b60405190151581526020015b60405180910390f35b600d54610382906001600160a01b031681565b6040516001600160a01b039091168152602001610366565b6103ad6103a8366004612862565b6107cf565b005b6103ad6103bd366004612862565b6108be565b6103ad6103d0366004612862565b610a18565b6103ad6103e3366004612862565b610af7565b60025461038290630100000090046001600160a01b031681565b610417600080516020612d0183398151915281565b604051908152602001610366565b6104176104333660046128be565b60009081526020819052604090206001015490565b6103ad6104563660046128d7565b610bf5565b60025461035a9062010000900460ff1681565b6103ad610c1c565b6103ad6104843660046128d7565b610c96565b6103ad610cb8565b600654610382906001600160a01b031681565b6103ad6104b2366004612862565b610d32565b6103ad6104c536600461289c565b610ed8565b600754610382906001600160a01b031681565b6103ad6104eb366004612862565b61100d565b61035a6104fe36600461289c565b611133565b600e54610382906001600160a01b031681565b6103ad610524366004612862565b61115f565b600854610382906001600160a01b031681565b6103ad61054a366004612862565b6112b5565b600354610382906001600160a01b031681565b600954610382906001600160a01b031681565b6103ad610583366004612862565b611394565b610382610596366004612907565b6114b5565b61035a6105a93660046128d7565b6114d4565b6103ad6105bc366004612862565b6114fd565b6103ad6105cf366004612862565b611658565b610417600081565b610417600080516020612d6183398151915281565b60105461035a90600160a01b900460ff1681565b60025461035a9060ff1681565b600a54610382906001600160a01b031681565b601054610382906001600160a01b031681565b600454610382906001600160a01b031681565b6104176106593660046128be565b6117fe565b6103ad61066c366004612862565b611815565b6103ad61067f3660046128d7565b61192e565b6104177f7c9d7f6f02908185bffb3f7fc9afb29fd7bf93675af8fd4b655ee05c2cee1e0e81565b6104177ff0f4b159a6e2a4815eb3ca3df080bfa70c9270662c59bcaa4479a456220183e681565b6103ad6106e03660046128d7565b611a58565b6103ad6106f3366004612862565b611a62565b6103ad610706366004612862565b611b42565b600c54610382906001600160a01b031681565b600f54610382906001600160a01b031681565b610417600080516020612d2183398151915281565b6103ad610754366004612862565b611ce7565b600554610382906001600160a01b031681565b600b54610382906001600160a01b031681565b6103ad61078d366004612862565b611dc6565b60025461035a90610100900460ff1681565b60006001600160e01b03198216635a05180f60e01b14806107c957506107c982611f4a565b92915050565b6107e7600080516020612d01833981519152336114d4565b806108055750610805600080516020612d61833981519152336114d4565b61082a5760405162461bcd60e51b815260040161082190612b16565b60405180910390fd5b6000610844600080516020612d0183398151915283611f7f565b905060018115151461085557600080fd5b600d80546001600160a01b0319166001600160a01b0384169081179091556040805191825260208201819052600e908201526d13995dc8129d5c9e481059d95b9d60921b6060820152600080516020612d41833981519152906080015b60405180910390a15050565b6108d6600080516020612d21833981519152336114d4565b806108f457506108f4600080516020612d01833981519152336114d4565b806109125750610912600080516020612d61833981519152336114d4565b61091b57600080fd5b600254610100810460ff90811615156201000090920416151514600114806109565750610956600080516020612d61833981519152336114d4565b6109725760405162461bcd60e51b815260040161082190612abc565b60126001600160a01b03821661099b5760405162461bcd60e51b81526004016108219190612a14565b50600a80546001600160a01b0319166001600160a01b0383161790556109bf612093565b604080516001600160a01b038316815260208101829052601191810191909152704e657720436f757274204164647265737360781b6060820152600080516020612d41833981519152906080015b60405180910390a150565b610a30600080516020612d21833981519152336114d4565b80610a4e5750610a4e600080516020612d01833981519152336114d4565b80610a6c5750610a6c600080516020612d61833981519152336114d4565b610a7557600080fd5b600254610100810460ff9081161515620100009092041615151460011480610ab05750610ab0600080516020612d61833981519152336114d4565b610acc5760405162461bcd60e51b815260040161082190612abc565b6001600160a01b038116331415610ae257600080fd5b610aeb816120a1565b50610af4612093565b50565b610b0f600080516020612d61833981519152336114d4565b80610b2d5750610b2d600080516020612d21833981519152336114d4565b80610b4b5750610b4b600080516020612d01833981519152336114d4565b610b675760405162461bcd60e51b815260040161082190612ae6565b6000610b937ff0f4b159a6e2a4815eb3ca3df080bfa70c9270662c59bcaa4479a456220183e683611f7f565b9050600181151514610ba457600080fd5b604080516001600160a01b0384168152602081018290526010918101919091526f2732bb9026b4b734902130b4b634b33360811b6060820152600080516020612d41833981519152906080016108b2565b610bff82826120f6565b6000828152600160205260409020610c179082611f35565b505050565b610c34600080516020612d61833981519152336114d4565b80610c525750610c52600080516020612d21833981519152336114d4565b80610c705750610c70600080516020612d01833981519152336114d4565b610c8c5760405162461bcd60e51b815260040161082190612ae6565b610c94612093565b565b610ca0828261211c565b6000828152600160205260409020610c179082612196565b610cd0600080516020612d01833981519152336114d4565b80610cee5750610cee600080516020612d61833981519152336114d4565b610d0a5760405162461bcd60e51b815260040161082190612b16565b60025460ff16151560011415610d26576002805460ff19169055565b6002805460ff19169055565b610d4a600080516020612d21833981519152336114d4565b80610d685750610d68600080516020612d01833981519152336114d4565b80610d865750610d86600080516020612d61833981519152336114d4565b610d8f57600080fd5b600254610100810460ff9081161515620100009092041615151460011480610dca5750610dca600080516020612d61833981519152336114d4565b610de65760405162461bcd60e51b815260040161082190612abc565b60126001600160a01b038216610e0f5760405162461bcd60e51b81526004016108219190612a14565b506002546001600160a01b0382811663010000009092041614801590610e4357506003546001600160a01b03828116911614155b610e5f5760405162461bcd60e51b815260040161082190612b43565b600680546001600160a01b0319166001600160a01b038316179055610e82612093565b604080516001600160a01b038316815260208101829052601591810191909152744e657720436861644261646765204164647265737360581b6060820152600080516020612d4183398151915290608001610a0d565b610ef0600080516020612d61833981519152336114d4565b80610f0e5750610f0e600080516020612d21833981519152336114d4565b80610f2c5750610f2c600080516020612d01833981519152336114d4565b610f485760405162461bcd60e51b815260040161082190612ae6565b610f60600080516020612d61833981519152336114d4565b15610fa15760028054610100831515810261ff0019831681179190910460ff161515620100000262ff00001990911662ffff00199092169190911717905550565b610fb9600080516020612d21833981519152336114d4565b15610fd657600280548215156101000261ff001990911617905550565b610fee600080516020612d01833981519152336114d4565b15610af45760028054821515620100000262ff00001990911617905550565b611025600080516020612d21833981519152336114d4565b806110435750611043600080516020612d61833981519152336114d4565b61105f5760405162461bcd60e51b815260040161082190612b70565b60126001600160a01b0382166110885760405162461bcd60e51b81526004016108219190612a14565b506003546001600160a01b03828116911614156110b75760405162461bcd60e51b815260040161082190612b9f565b600280546301000000600160b81b03191663010000006001600160a01b0384169081029190911790915560408051918252602082018190526017908201527f4e657720476176656c20546f6b656e20416464726573730000000000000000006060820152600080516020612d4183398151915290608001610a0d565b60006001821515141561115257611149336121ab565b50600192915050565b506000919050565b919050565b611177600080516020612d21833981519152336114d4565b806111955750611195600080516020612d01833981519152336114d4565b806111b357506111b3600080516020612d61833981519152336114d4565b6111bc57600080fd5b600254610100810460ff90811615156201000090920416151514600114806111f757506111f7600080516020612d61833981519152336114d4565b6112135760405162461bcd60e51b815260040161082190612abc565b60116001600160a01b03821661123c5760405162461bcd60e51b81526004016108219190612a14565b50600780546001600160a01b0319166001600160a01b038316179055611260612093565b604080516001600160a01b038316815260208101829052601491810191909152734e6577205472656173757279204164647265737360601b6060820152600080516020612d4183398151915290608001610a0d565b6112cd600080516020612d21833981519152336114d4565b806112eb57506112eb600080516020612d61833981519152336114d4565b6113075760405162461bcd60e51b815260040161082190612b70565b6000611321600080516020612d2183398151915283611f7f565b905060018115151461133257600080fd5b600c80546001600160a01b0319166001600160a01b0384169081179091556040805191825260208201819052600f908201526e13995dc811d85d995b081059d95b9d608a1b6060820152600080516020612d41833981519152906080016108b2565b6113ac600080516020612d01833981519152336114d4565b806113ca57506113ca600080516020612d61833981519152336114d4565b6113e65760405162461bcd60e51b815260040161082190612b16565b60126001600160a01b03821661140f5760405162461bcd60e51b81526004016108219190612a14565b506002546001600160a01b0382811663010000009092041614156114455760405162461bcd60e51b815260040161082190612b9f565b600380546001600160a01b0319166001600160a01b03831690811790915560408051918252602082018190526019908201527f4e6577205265642050656e20546f6b656e2041646472657373000000000000006060820152600080516020612d4183398151915290608001610a0d565b60008281526001602052604081206114cd9083612200565b9392505050565b6000918252602082815260408084206001600160a01b0393909316845291905290205460ff1690565b611515600080516020612d21833981519152336114d4565b806115335750611533600080516020612d01833981519152336114d4565b806115515750611551600080516020612d61833981519152336114d4565b61155a57600080fd5b600254610100810460ff90811615156201000090920416151514600114806115955750611595600080516020612d61833981519152336114d4565b6115b15760405162461bcd60e51b815260040161082190612abc565b60006115cb600080516020612d6183398151915283611f7f565b90506001811515146115dc57600080fd5b600e54600d80546001600160a01b0319166001600160a01b03909216919091179055611606612093565b604080516001600160a01b0384168152602081018290526011918101919091527013995dc810dbdd5c9d08115b1958dd1959607a1b6060820152600080516020612d41833981519152906080016108b2565b611670600080516020612d21833981519152336114d4565b8061168e575061168e600080516020612d01833981519152336114d4565b806116ac57506116ac600080516020612d61833981519152336114d4565b6116b557600080fd5b600254610100810460ff90811615156201000090920416151514600114806116f057506116f0600080516020612d61833981519152336114d4565b61170c5760405162461bcd60e51b815260040161082190612abc565b60126001600160a01b0382166117355760405162461bcd60e51b81526004016108219190612a14565b506002546001600160a01b038281166301000000909204161480159061176957506003546001600160a01b03828116911614155b6117855760405162461bcd60e51b815260040161082190612b43565b600480546001600160a01b0319166001600160a01b0383161790556117a8612093565b604080516001600160a01b038316815260208101829052601591810191909152744e657720476f6c642053746172204164647265737360581b6060820152600080516020612d4183398151915290608001610a0d565b60008181526001602052604081206107c99061220c565b61182d600080516020612d01833981519152336114d4565b8061184b575061184b600080516020612d61833981519152336114d4565b6118675760405162461bcd60e51b815260040161082190612b16565b60126001600160a01b0382166118905760405162461bcd60e51b81526004016108219190612a14565b506002546001600160a01b0382811663010000009092041614156118c65760405162461bcd60e51b815260040161082190612b9f565b600880546001600160a01b0319166001600160a01b0383169081179091556040805191825260208201819052601590820152744e6577204a75727920506f6f6c204164647265737360581b6060820152600080516020612d4183398151915290608001610a0d565b611946600080516020612d21833981519152336114d4565b806119645750611964600080516020612d01833981519152336114d4565b806119825750611982600080516020612d61833981519152336114d4565b61198b57600080fd5b600254610100810460ff90811615156201000090920416151514600114806119c657506119c6600080516020612d61833981519152336114d4565b6119e25760405162461bcd60e51b815260040161082190612abc565b6119eb82612216565b50604051632f2ff15d60e01b8152600481018390526001600160a01b03821660248201523090632f2ff15d90604401600060405180830381600087803b158015611a3457600080fd5b505af1158015611a48573d6000803e3d6000fd5b50505050611a54612093565b5050565b610ca08282612391565b611a7a600080516020612d21833981519152336114d4565b80611a985750611a98600080516020612d61833981519152336114d4565b611ab45760405162461bcd60e51b815260040161082190612b70565b60126001600160a01b038216611add5760405162461bcd60e51b81526004016108219190612a14565b50600980546001600160a01b0319166001600160a01b0383169081179091556040805191825260208201819052601190820152704e657720476176656c204164647265737360781b6060820152600080516020612d4183398151915290608001610a0d565b611b5a600080516020612d21833981519152336114d4565b80611b785750611b78600080516020612d01833981519152336114d4565b80611b965750611b96600080516020612d61833981519152336114d4565b611b9f57600080fd5b600254610100810460ff9081161515620100009092041615151460011480611bda5750611bda600080516020612d61833981519152336114d4565b611bf65760405162461bcd60e51b815260040161082190612abc565b60126001600160a01b038216611c1f5760405162461bcd60e51b81526004016108219190612a14565b506002546001600160a01b0382811663010000009092041614801590611c5357506003546001600160a01b03828116911614155b611c6f5760405162461bcd60e51b815260040161082190612b43565b600580546001600160a01b0319166001600160a01b038316179055611c92612093565b604080516001600160a01b038316815260208101829052601491810191909152734e65772050696e6b536c6970204164647265737360601b6060820152600080516020612d4183398151915290608001610a0d565b611cff600080516020612d01833981519152336114d4565b80611d1d5750611d1d600080516020612d61833981519152336114d4565b611d395760405162461bcd60e51b815260040161082190612b16565b60126001600160a01b038216611d625760405162461bcd60e51b81526004016108219190612a14565b50600a80546001600160a01b0319166001600160a01b03831690811790915560408051918252602082018190526010908201526f4e6577204a757279204164647265737360801b6060820152600080516020612d4183398151915290608001610a0d565b611dde600080516020612d21833981519152336114d4565b80611dfc5750611dfc600080516020612d01833981519152336114d4565b80611e1a5750611e1a600080516020612d61833981519152336114d4565b611e2357600080fd5b600254610100810460ff9081161515620100009092041615151460011480611e5e5750611e5e600080516020612d61833981519152336114d4565b611e7a5760405162461bcd60e51b815260040161082190612abc565b60116001600160a01b038216611ea35760405162461bcd60e51b81526004016108219190612a14565b50601080546001600160a81b0319166001600160a01b03831617600160a01b179055611ecd612093565b604080516001600160a01b0383168152602081018290526019918101919091527f4e657720416464726573734d616e6167657241646472657373000000000000006060820152600080516020612d4183398151915290608001610a0d565b611a5482826123b7565b60006114cd836001600160a01b03841661243b565b60006001600160e01b03198216637965db0b60e01b14806107c957506301ffc9a760e01b6001600160e01b03198316146107c9565b6000611f99600080516020612d61833981519152336114d4565b80611fb75750611fb7600080516020612d21833981519152336114d4565b80611fd55750611fd5600080516020612d01833981519152336114d4565b611ff15760405162461bcd60e51b815260040161082190612ae6565b60116001600160a01b03831661201a5760405162461bcd60e51b81526004016108219190612a14565b5061202583836114d4565b1561202f57600080fd5b6120398383610bf5565b604080516001600160a01b03841681526020810182905260118183015270436865636b20526f6c65204576656e747360781b60608201529051600080516020612d418339815191529181900360800190a150600192915050565b6002805462ffff0019169055565b60006120bb600080516020612d0183398151915283611a58565b6120d3600080516020612d2183398151915283611a58565b6120eb600080516020612d6183398151915283611a58565b61115a600083611a58565b600082815260208190526040902060010154612112813361248a565b610c1783836123b7565b6001600160a01b038116331461218c5760405162461bcd60e51b815260206004820152602f60248201527f416363657373436f6e74726f6c3a2063616e206f6e6c792072656e6f756e636560448201526e103937b632b9903337b91039b2b63360891b6064820152608401610821565b611a5482826124ee565b60006114cd836001600160a01b038416612553565b60006121c5600080516020612d0183398151915283610c96565b6121dd600080516020612d2183398151915283610c96565b6121f5600080516020612d6183398151915283610c96565b61115a600083610c96565b60006114cd8383612640565b60006107c9825490565b60405163ca15c87360e01b8152600481018290526000908190309063ca15c8739060240160206040518083038186803b15801561225257600080fd5b505afa158015612266573d6000803e3d6000fd5b505050506040513d601f19601f8201168201806040525081019061228a9190612953565b905060005b8181101561238757604051632404341f60e21b815260048101859052602481018290526000903090639010d07c9060440160206040518083038186803b1580156122d857600080fd5b505afa1580156122ec573d6000803e3d6000fd5b505050506040513d601f19601f82011682018060405250810190612310919061287f565b60405163d547741f60e01b8152600481018790526001600160a01b0382166024820152909150309063d547741f90604401600060405180830381600087803b15801561235b57600080fd5b505af115801561236f573d6000803e3d6000fd5b5050505050808061237f90612c78565b91505061228f565b5060019392505050565b6000828152602081905260409020600101546123ad813361248a565b610c1783836124ee565b6123c182826114d4565b611a54576000828152602081815260408083206001600160a01b03851684529091529020805460ff191660011790556123f73390565b6001600160a01b0316816001600160a01b0316837f2f8788117e7eff1d82e926ec794901d17c78024a50270940304540a733656f0d60405160405180910390a45050565b6000818152600183016020526040812054612482575081546001818101845560008481526020808220909301849055845484825282860190935260409020919091556107c9565b5060006107c9565b61249482826114d4565b611a54576124ac816001600160a01b031660146126c6565b6124b78360206126c6565b6040516020016124c892919061296c565b60408051601f198184030181529082905262461bcd60e51b8252610821916004016129e1565b6124f882826114d4565b15611a54576000828152602081815260408083206001600160a01b0385168085529252808320805460ff1916905551339285917ff6391f5c32d9c69d2a47ea670b442974b53935d1edc7fd64eb21e047a839171b9190a45050565b60008181526001830160205260408120548015612636576000612577600183612c1a565b855490915060009061258b90600190612c1a565b905060008660000182815481106125a4576125a4612cbf565b90600052602060002001549050808760000184815481106125c7576125c7612cbf565b6000918252602080832090910192909255828152600189019091526040902084905586548790806125fa576125fa612ca9565b600190038181906000526020600020016000905590558660010160008781526020019081526020016000206000905560019450505050506107c9565b60009150506107c9565b8154600090821061269e5760405162461bcd60e51b815260206004820152602260248201527f456e756d657261626c655365743a20696e646578206f7574206f6620626f756e604482015261647360f01b6064820152608401610821565b8260000182815481106126b3576126b3612cbf565b9060005260206000200154905092915050565b606060006126d5836002612bfb565b6126e0906002612be3565b67ffffffffffffffff8111156126f8576126f8612cd5565b6040519080825280601f01601f191660200182016040528015612722576020820181803683370190505b509050600360fc1b8160008151811061273d5761273d612cbf565b60200101906001600160f81b031916908160001a905350600f60fb1b8160018151811061276c5761276c612cbf565b60200101906001600160f81b031916908160001a9053506000612790846002612bfb565b61279b906001612be3565b90505b6001811115612813576f181899199a1a9b1b9c1cb0b131b232b360811b85600f16601081106127cf576127cf612cbf565b1a60f81b8282815181106127e5576127e5612cbf565b60200101906001600160f81b031916908160001a90535060049490941c9361280c81612c61565b905061279e565b5083156114cd5760405162461bcd60e51b815260206004820181905260248201527f537472696e67733a20686578206c656e67746820696e73756666696369656e746044820152606401610821565b60006020828403121561287457600080fd5b81356114cd81612ceb565b60006020828403121561289157600080fd5b81516114cd81612ceb565b6000602082840312156128ae57600080fd5b813580151581146114cd57600080fd5b6000602082840312156128d057600080fd5b5035919050565b600080604083850312156128ea57600080fd5b8235915060208301356128fc81612ceb565b809150509250929050565b6000806040838503121561291a57600080fd5b50508035926020909101359150565b60006020828403121561293b57600080fd5b81356001600160e01b0319811681146114cd57600080fd5b60006020828403121561296557600080fd5b5051919050565b7f416363657373436f6e74726f6c3a206163636f756e74200000000000000000008152600083516129a4816017850160208801612c31565b7001034b99036b4b9b9b4b733903937b6329607d1b60179184019182015283516129d5816028840160208801612c31565b01602801949350505050565b6020815260008251806020840152612a00816040850160208701612c31565b601f01601f19169190910160400192915050565b600060208083526000845481600182811c915080831680612a3657607f831692505b858310811415612a5457634e487b7160e01b85526022600452602485fd5b878601838152602001818015612a715760018114612a8257612aad565b60ff19861682528782019650612aad565b60008b81526020902060005b86811015612aa757815484820152908501908901612a8e565b83019750505b50949998505050505050505050565b60208082526010908201526f436f757274204d75737420416772656560801b604082015260600190565b6020808252601690820152752cb7ba93b932903737ba103a3432903130b4b634b33360511b604082015260600190565b602080825260139082015272596f75277265206e6f7420746865204a75727960681b604082015260600190565b602080825260139082015272576861742061726520796f7520646f696e673f60681b604082015260600190565b602080825260159082015274596f75277265206e6f742074686520476176656c7360581b604082015260600190565b60208082526024908201527f446f6e2774206d6573732077697468207468652062616c616e6365206f66207060408201526337bbb2b960e11b606082015260800190565b60008219821115612bf657612bf6612c93565b500190565b6000816000190483118215151615612c1557612c15612c93565b500290565b600082821015612c2c57612c2c612c93565b500390565b60005b83811015612c4c578181015183820152602001612c34565b83811115612c5b576000848401525b50505050565b600081612c7057612c70612c93565b506000190190565b6000600019821415612c8c57612c8c612c93565b5060010190565b634e487b7160e01b600052601160045260246000fd5b634e487b7160e01b600052603160045260246000fd5b634e487b7160e01b600052603260045260246000fd5b634e487b7160e01b600052604160045260246000fd5b6001600160a01b0381168114610af457600080fdfefa8e4989e1d689f7bc5c4b25b87efb51fecdecb19ba62847e29c759e12a89acd048bc71fa1cb2c119c339cf9cf00a97996a19a9d991ce5fe049f2fa5459e79907e8c379daaa14042eac528cc8c0cbb33194c8a3a2197c997f7220e8c057038340538d24a8b7882d7b2e36af243d4af61c23e86e3daa6cb8c887b53220b2f5720a2646970667358221220c9baede24803f13c5bd5a578bd28124ef428839d21830a0ab91ea4be5e2076f964736f6c63430008060033",
  "immutableReferences": {},
  "source": "    pragma solidity ^0.8.0;\n\n    import './ConsensusMachine.sol';\n   \n    contract AddressManager is ConsensusMachine {/// Change the Gavels Agent Address\n        \n        // Token Addresses\n        address public GavelTokenAddress;\n        address public RedPenTokenAddress;\n\n        // Badge Addresses\n        address public GoldStarAddress;\n        address public PinkSlipAddress;\n        address public ChadBadgeAddress;\n\n        // Bank Addresses\n        address public TreasuryAddress;\n        address public JuryPoolAddress;\n        \n        // DAO addresses\n        address public GavelDAOAddress;\n        address public JuryDAOAddress;\n        address public TheCourtDAOAddress;\n\n        // Agent Addresses\n        address public GavelDAOAgent;\n        address public JuryDAOAgent;\n        address public TheCourtDAOAgent;\n        address public MiniBailiff;\n\n        address public newAddressManager; // For the ability to upgrade if neccesary.\n        bool public hasMovedToNewAddress = false;\n\n        string private errorMessage = \"the hell are you doing? C'mon\";\n        string private zeroAddressWarning = \"C'mon\";\n\n\n        event AddressUpdated(address, string);\n\n        constructor(address juryDAOAgent, address gavelDAOAgent, address treasuryAddress,\n                    address theCourtAddress, address _MiniBailiff)\n                    ConsensusMachine(juryDAOAgent, gavelDAOAgent, theCourtAddress) {\n\n            GavelDAOAgent = gavelDAOAgent;\n            JuryDAOAgent = juryDAOAgent;\n            TreasuryAddress = treasuryAddress;\n            TheCourtDAOAddress = theCourtAddress;\n            MiniBailiff = _MiniBailiff;\n\n        }\n\n    /////////////////////////////////////////////////////////////////////////////////////////////////\n    /////////////////////////////////////////////////////////////////////////////////////////////////\n    /// @dev                                                                                     ////\n    /// Address Setters                                                                          ////\n    /////////////////////////////////////////////////////////////////////////////////////////////////\n    /////////////////////////////////////////////////////////////////////////////////////////////////\n\n        function setnewAddressManager(address newAddressManagerAddress) public THE_COURT {\n            require(newAddressManagerAddress != address(0), errorMessage);\n            newAddressManager = newAddressManagerAddress;\n            hasMovedToNewAddress = true;\n            _resetVote();\n\n            emit AddressUpdated(newAddressManagerAddress, \"New AddressManagerAddress\");\n        }\n\n        /// Change the Gavel DAO Address\n        function switchGavelDAOAddress(address newDAOAddress) public GAVELS {\n            require(newDAOAddress != address(0), zeroAddressWarning);\n            GavelDAOAddress = newDAOAddress;\n            emit AddressUpdated(newDAOAddress, \"New Gavel Address\");\n        }\n\n\n        /// Change the Jury DAO Address\n        function switchJuryDAOAddress(address newDAOAddress) public JURY {\n            require(newDAOAddress != address(0), zeroAddressWarning);\n            JuryDAOAddress = newDAOAddress;\n            emit AddressUpdated(newDAOAddress, \"New Jury Address\");\n\n        }\n        /// Change the Court DAO Address\n        function switchTheCourtDAOAddress(address newDAOAddress) public THE_COURT {\n            require(newDAOAddress != address(0), zeroAddressWarning);\n            JuryDAOAddress = newDAOAddress;\n            _resetVote();\n            emit AddressUpdated(newDAOAddress, \"New Court Address\");\n        }\n\n        /// Change the Gavel Agent Address\n        function switchGavelAgent(address newAgentAddress) public GAVELS {\n            bool success = _setAgent(GAVELS_BAILIFF, newAgentAddress);\n            require(success == true);\n            GavelDAOAgent = newAgentAddress;\n            emit AddressUpdated(newAgentAddress, \"New Gavel Agent\");\n        }\n\n\n        /// Change the Jury Agent Address\n        function switchJuryAgent(address newAgentAddress) public JURY {\n            bool success = _setAgent(JURY_BAILIFF, newAgentAddress);\n            require(success == true);\n            JuryDAOAgent = newAgentAddress;\n            emit AddressUpdated(newAgentAddress, \"New Jury Agent\");\n\n        }\n        /// Change the Court Agent Address\n        function switchTheCourtAgent(address newAgentAddress) public THE_COURT {\n            bool success = _setAgent(THE_COURT_ROLE, newAgentAddress);\n            require(success == true);\n            JuryDAOAgent = TheCourtDAOAgent;\n            _resetVote();\n            emit AddressUpdated(newAgentAddress, \"New Court Elected\");\n        }\n\n\n        function addMiniBailiff(address newAgentAddress) public BAILIFF {\n            bool success = _setAgent(MINI_BAILIFF_ROLE, newAgentAddress);\n            require(success == true);\n            emit AddressUpdated(newAgentAddress, \"New Mini Bailiff\");\n        }\n        \n       function _setAgent( bytes32 ROLE , address newAgentAddress) internal BAILIFF returns (bool) {\n            require(newAgentAddress != address(0), errorMessage);\n            require(!hasRole(ROLE, newAgentAddress));\n            grantRole(ROLE, newAgentAddress);\n            emit AddressUpdated(newAgentAddress, \"Check Role Events\" );\n            return true;\n        }\n\n\n\n\n\n\n\n        /// Change the Treasury Address\n        function setTreasuryAddress(address newTreasuryAddress) public THE_COURT {\n            require(newTreasuryAddress != address(0), errorMessage);\n            TreasuryAddress = newTreasuryAddress;\n            _resetVote();\n            emit AddressUpdated(newTreasuryAddress, \"New Treasury Address\");\n        }\n\n        function setGavelTokenAddress(address newGavelTokenAddress) public GAVELS {\n            require(newGavelTokenAddress != address(0), zeroAddressWarning);\n            require(newGavelTokenAddress != RedPenTokenAddress, \"Don't mess with the balance of power\");\n            GavelTokenAddress = newGavelTokenAddress;\n    \n            emit AddressUpdated(newGavelTokenAddress, \"New Gavel Token Address\");            \n        }\n\n        function setRedPenTokenAddress(address newRedPenTokenAddress) public JURY  {\n            require(newRedPenTokenAddress != address(0), zeroAddressWarning);\n            require(newRedPenTokenAddress != GavelTokenAddress, \"Don't mess with the balance of power\");\n            RedPenTokenAddress = newRedPenTokenAddress;\n\n            emit AddressUpdated(newRedPenTokenAddress, \"New Red Pen Token Address\"); \n        }\n\n        function setJuryPoolAddress(address newJuryPoolAddress) public JURY  {\n            require(newJuryPoolAddress != address(0), zeroAddressWarning);\n            require(newJuryPoolAddress != GavelTokenAddress, \"Don't mess with the balance of power\");\n            JuryPoolAddress = newJuryPoolAddress;\n     \n            emit AddressUpdated(newJuryPoolAddress, \"New Jury Pool Address\"); \n        }\n\n        function setGoldStarAddress(address newGoldStarAddress) public THE_COURT {\n            require(newGoldStarAddress != address(0), zeroAddressWarning);\n            require(newGoldStarAddress != GavelTokenAddress && newGoldStarAddress != RedPenTokenAddress, \"What are you doing?\");\n            GoldStarAddress = newGoldStarAddress;\n            _resetVote();\n            emit AddressUpdated(newGoldStarAddress, \"New Gold Star Address\"); \n        }\n\n        function setPinkSlipAddress(address newPinkSlipAddress) public THE_COURT {\n            require(newPinkSlipAddress != address(0), zeroAddressWarning);\n            require(newPinkSlipAddress != GavelTokenAddress && newPinkSlipAddress != RedPenTokenAddress, \"What are you doing?\");\n            PinkSlipAddress = newPinkSlipAddress;\n            _resetVote();\n            emit AddressUpdated(newPinkSlipAddress, \"New PinkSlip Address\");\n        }\n\n        function setChadBadgeAddress(address newChadBadgeAddress) public THE_COURT {\n            require(newChadBadgeAddress != address(0), zeroAddressWarning);\n            require(newChadBadgeAddress != GavelTokenAddress && newChadBadgeAddress != RedPenTokenAddress, \"What are you doing?\");\n            ChadBadgeAddress = newChadBadgeAddress;\n            _resetVote();\n            emit AddressUpdated(newChadBadgeAddress, \"New ChadBadge Address\");\n        }\n\n\n\n    /////////////////////////////////////////////////////////////////////////////////////////////////\n    /////////////////////////////////////////////////////////////////////////////////////////////////\n    /// @dev  END                                                                                ////\n    /////////////////////////////////////////////////////////////////////////////////////////////////\n    /////////////////////////////////////////////////////////////////////////////////////////////////\n    }\n\n\n    /////////////////////////////////////////////////////////////////////////////////////////////////\n    /////////////////////////////////////////////////////////////////////////////////////////////////\n    /// @dev                                                                                     ////\n    /// @dev                                                                                     ////\n    /// @dev                                                                                     ////\n    /////////////////////////////////////////////////////////////////////////////////////////////////\n    /////////////////////////////////////////////////////////////////////////////////////////////////\n\n    /////////////////////////////////////////////////////////////////////////////////////////////////\n    /////////////////////////////////////////////////////////////////////////////////////////////////\n    /// @dev                                                                                     ////\n    /// @dev                                                                                     ////\n    /////////////////////////////////////////////////////////////////////////////////////////////////\n    /////////////////////////////////////////////////////////////////////////////////////////////////",
  "sourcePath": "/home/n/Desktop/PinkSlips_FrontEnd_REFORMAT/contracts/src/AddressManager.sol",
  "compiler": {
    "name": "solc",
    "version": "0.8.6+commit.11564f7e.Emscripten.clang"
  },
  "schemaVersion": "3.4.1",
  "updatedAt": "2021-08-06T05:30:52.709Z",
  "networkType": "ethereum",
  "devdoc": {
    "kind": "dev",
    "methods": {
      "getRoleAdmin(bytes32)": {
        "details": "Returns the admin role that controls `role`. See {grantRole} and {revokeRole}. To change a role's admin, use {_setRoleAdmin}."
      },
      "getRoleMember(bytes32,uint256)": {
        "details": "Returns one of the accounts that have `role`. `index` must be a value between 0 and {getRoleMemberCount}, non-inclusive. Role bearers are not sorted in any particular way, and their ordering may change at any point. WARNING: When using {getRoleMember} and {getRoleMemberCount}, make sure you perform all queries on the same block. See the following https://forum.openzeppelin.com/t/iterating-over-elements-on-enumerableset-in-openzeppelin-contracts/2296[forum post] for more information."
      },
      "getRoleMemberCount(bytes32)": {
        "details": "Returns the number of accounts that have `role`. Can be used together with {getRoleMember} to enumerate all bearers of a role."
      },
      "grantRole(bytes32,address)": {
        "details": "Overload {grantRole} to track enumerable memberships"
      },
      "hasRole(bytes32,address)": {
        "details": "Returns `true` if `account` has been granted `role`."
      },
      "renounceRole(bytes32,address)": {
        "details": "Overload {renounceRole} to track enumerable memberships"
      },
      "revokeRole(bytes32,address)": {
        "details": "Overload {revokeRole} to track enumerable memberships"
      },
      "setnewAddressManager(address)": {
        "details": "//// Address Setters                                                                          ////"
      },
      "supportsInterface(bytes4)": {
        "details": "See {IERC165-supportsInterface}."
      },
      "vote(bool)": {
        "details": "//// Consensus Machine                                                                        ////"
      }
    },
    "version": 1
  },
  "userdoc": {
    "kind": "user",
    "methods": {
      "GavelTokenAddress()": {
        "notice": "Change the Gavels Agent Address"
      },
      "setTreasuryAddress(address)": {
        "notice": "Change the Treasury Address"
      },
      "switchGavelAgent(address)": {
        "notice": "Change the Gavel Agent Address"
      },
      "switchGavelDAOAddress(address)": {
        "notice": "Change the Gavel DAO Address"
      },
      "switchJuryAgent(address)": {
        "notice": "Change the Jury Agent Address"
      },
      "switchJuryDAOAddress(address)": {
        "notice": "Change the Jury DAO Address"
      },
      "switchTheCourtAgent(address)": {
        "notice": "Change the Court Agent Address"
      },
      "switchTheCourtDAOAddress(address)": {
        "notice": "Change the Court DAO Address"
      }
    },
    "version": 1
  }
}