{
  "contractName": "AddressManagerReciever",
  "abi": [
    {
      "inputs": [
        {
          "internalType": "address",
          "name": "_AddressManagerAddress",
          "type": "address"
        }
      ],
      "stateMutability": "nonpayable",
      "type": "constructor"
    },
    {
      "inputs": [],
      "name": "AddressManagerAddress",
      "outputs": [
        {
          "internalType": "address",
          "name": "",
          "type": "address"
        }
      ],
      "stateMutability": "view",
      "type": "function"
    },
    {
      "inputs": [],
      "name": "ChadBadgeAddress",
      "outputs": [
        {
          "internalType": "address",
          "name": "",
          "type": "address"
        }
      ],
      "stateMutability": "view",
      "type": "function"
    },
    {
      "inputs": [],
      "name": "GavelDAOAgent",
      "outputs": [
        {
          "internalType": "address",
          "name": "",
          "type": "address"
        }
      ],
      "stateMutability": "view",
      "type": "function"
    },
    {
      "inputs": [],
      "name": "GavelTokenAddress",
      "outputs": [
        {
          "internalType": "address",
          "name": "",
          "type": "address"
        }
      ],
      "stateMutability": "view",
      "type": "function"
    },
    {
      "inputs": [],
      "name": "GoldStarAddress",
      "outputs": [
        {
          "internalType": "address",
          "name": "",
          "type": "address"
        }
      ],
      "stateMutability": "view",
      "type": "function"
    },
    {
      "inputs": [],
      "name": "JuryDAOAgent",
      "outputs": [
        {
          "internalType": "address",
          "name": "",
          "type": "address"
        }
      ],
      "stateMutability": "view",
      "type": "function"
    },
    {
      "inputs": [],
      "name": "JuryPoolAddress",
      "outputs": [
        {
          "internalType": "address",
          "name": "",
          "type": "address"
        }
      ],
      "stateMutability": "view",
      "type": "function"
    },
    {
      "inputs": [],
      "name": "MiniBailiff",
      "outputs": [
        {
          "internalType": "address",
          "name": "",
          "type": "address"
        }
      ],
      "stateMutability": "view",
      "type": "function"
    },
    {
      "inputs": [],
      "name": "PinkSlipAddress",
      "outputs": [
        {
          "internalType": "address",
          "name": "",
          "type": "address"
        }
      ],
      "stateMutability": "view",
      "type": "function"
    },
    {
      "inputs": [],
      "name": "RedPenTokenAddress",
      "outputs": [
        {
          "internalType": "address",
          "name": "",
          "type": "address"
        }
      ],
      "stateMutability": "view",
      "type": "function"
    },
    {
      "inputs": [],
      "name": "TheCourtAddress",
      "outputs": [
        {
          "internalType": "address",
          "name": "",
          "type": "address"
        }
      ],
      "stateMutability": "view",
      "type": "function"
    },
    {
      "inputs": [],
      "name": "TreasuryAddress",
      "outputs": [
        {
          "internalType": "address",
          "name": "",
          "type": "address"
        }
      ],
      "stateMutability": "view",
      "type": "function"
    },
    {
      "inputs": [],
      "name": "addressManager",
      "outputs": [
        {
          "internalType": "contract AddressManager",
          "name": "",
          "type": "address"
        }
      ],
      "stateMutability": "view",
      "type": "function"
    },
    {
      "inputs": [],
      "name": "updateAllAddresses",
      "outputs": [],
      "stateMutability": "nonpayable",
      "type": "function"
    },
    {
      "inputs": [],
      "name": "updateAddressManager",
      "outputs": [],
      "stateMutability": "nonpayable",
      "type": "function"
    },
    {
      "inputs": [],
      "name": "updateTokenAddresses",
      "outputs": [],
      "stateMutability": "nonpayable",
      "type": "function"
    },
    {
      "inputs": [],
      "name": "updateDAOAddresses",
      "outputs": [],
      "stateMutability": "nonpayable",
      "type": "function"
    }
  ],
  "bytecode": "0x608060405234801561001057600080fd5b50604051610a9a380380610a9a83398101604081905261002f9161005e565b600080546001600160a01b039092166001600160a01b03199283168117909155600c805490921617905561008e565b60006020828403121561007057600080fd5b81516001600160a01b038116811461008757600080fd5b9392505050565b6109fd8061009d6000396000f3fe608060405234801561001057600080fd5b506004361061010b5760003560e01c80635f413466116100a2578063dadf56ac11610071578063dadf56ac146101f1578063e6217e3a14610204578063e78c266c14610217578063f1132b301461022a578063f98447ac1461023257600080fd5b80635f413466146101a55780636b584775146101b8578063762ddb59146101cb578063bfb7dc99146101de57600080fd5b80633f86ea7c116100de5780633f86ea7c1461016f57806349b5e105146101825780634d84c6d81461018a5780635b5c251f1461019257600080fd5b8063024bebe91461011057806321d7f0081461013f578063326a55e0146101525780633ab76e9f1461015c575b600080fd5b600854610123906001600160a01b031681565b6040516001600160a01b03909116815260200160405180910390f35b600154610123906001600160a01b031681565b61015a610245565b005b600c54610123906001600160a01b031681565b600554610123906001600160a01b031681565b61015a610257565b61015a61024d565b600954610123906001600160a01b031681565b600a54610123906001600160a01b031681565b600654610123906001600160a01b031681565b600254610123906001600160a01b031681565b600354610123906001600160a01b031681565b600754610123906001600160a01b031681565b600b54610123906001600160a01b031681565b600054610123906001600160a01b031681565b61015a61025f565b600454610123906001600160a01b031681565b61024d610267565b6102556104c2565b565b610255610267565b61025561083e565b600c60009054906101000a90046001600160a01b03166001600160a01b031663dadf56ac6040518163ffffffff1660e01b815260040160206040518083038186803b1580156102b557600080fd5b505afa1580156102c9573d6000803e3d6000fd5b505050506040513d601f19601f820116820180604052508101906102ed9190610975565b600780546001600160a01b0319166001600160a01b03928316179055600c546040805163024bebe960e01b81529051919092169163024bebe9916004808301926020929190829003018186803b15801561034657600080fd5b505afa15801561035a573d6000803e3d6000fd5b505050506040513d601f19601f8201168201806040525081019061037e9190610975565b600880546001600160a01b0319166001600160a01b03928316179055600c5460408051635b5c251f60e01b815290519190921691635b5c251f916004808301926020929190829003018186803b1580156103d757600080fd5b505afa1580156103eb573d6000803e3d6000fd5b505050506040513d601f19601f8201168201806040525081019061040f9190610975565b600980546001600160a01b0319166001600160a01b03928316179055600c5460408051637310bf1d60e11b81529051919092169163e6217e3a916004808301926020929190829003018186803b15801561046857600080fd5b505afa15801561047c573d6000803e3d6000fd5b505050506040513d601f19601f820116820180604052508101906104a09190610975565b600b80546001600160a01b0319166001600160a01b0392909216919091179055565b600c60009054906101000a90046001600160a01b03166001600160a01b03166321d7f0086040518163ffffffff1660e01b815260040160206040518083038186803b15801561051057600080fd5b505afa158015610524573d6000803e3d6000fd5b505050506040513d601f19601f820116820180604052508101906105489190610975565b600180546001600160a01b0319166001600160a01b03928316179055600c546040805163762ddb5960e01b81529051919092169163762ddb59916004808301926020929190829003018186803b1580156105a157600080fd5b505afa1580156105b5573d6000803e3d6000fd5b505050506040513d601f19601f820116820180604052508101906105d99190610975565b600280546001600160a01b0319166001600160a01b03928316179055600c546040805163bfb7dc9960e01b81529051919092169163bfb7dc99916004808301926020929190829003018186803b15801561063257600080fd5b505afa158015610646573d6000803e3d6000fd5b505050506040513d601f19601f8201168201806040525081019061066a9190610975565b600380546001600160a01b0319166001600160a01b03928316179055600c5460408051633e6111eb60e21b81529051919092169163f98447ac916004808301926020929190829003018186803b1580156106c357600080fd5b505afa1580156106d7573d6000803e3d6000fd5b505050506040513d601f19601f820116820180604052508101906106fb9190610975565b600480546001600160a01b0319166001600160a01b03928316178155600c5460408051630fe1ba9f60e21b815290519190931692633f86ea7c9281810192602092909190829003018186803b15801561075357600080fd5b505afa158015610767573d6000803e3d6000fd5b505050506040513d601f19601f8201168201806040525081019061078b9190610975565b600580546001600160a01b0319166001600160a01b03928316179055600c5460408051636b58477560e01b815290519190921691636b584775916004808301926020929190829003018186803b1580156107e457600080fd5b505afa1580156107f8573d6000803e3d6000fd5b505050506040513d601f19601f8201168201806040525081019061081c9190610975565b600680546001600160a01b0319166001600160a01b0392909216919091179055565b600c60009054906101000a90046001600160a01b03166001600160a01b031663a44b93256040518163ffffffff1660e01b815260040160206040518083038186803b15801561088c57600080fd5b505afa1580156108a0573d6000803e3d6000fd5b505050506040513d601f19601f820116820180604052508101906108c491906109a5565b6108cd57600080fd5b600c60009054906101000a90046001600160a01b03166001600160a01b031663ac7cfac36040518163ffffffff1660e01b815260040160206040518083038186803b15801561091b57600080fd5b505afa15801561092f573d6000803e3d6000fd5b505050506040513d601f19601f820116820180604052508101906109539190610975565b600080546001600160a01b0319166001600160a01b0392909216919091179055565b60006020828403121561098757600080fd5b81516001600160a01b038116811461099e57600080fd5b9392505050565b6000602082840312156109b757600080fd5b8151801515811461099e57600080fdfea2646970667358221220c0f126a6379228e63b52f8930b9a7c5a4db3fd6aea768eb6667b1ca6841fae4964736f6c63430008060033",
  "immutableReferences": {},
  "source": "pragma solidity ^0.8.0;\n\nimport './AddressManager.sol';\n\n\ncontract AddressManagerReciever {\n\n    \n\n    address public AddressManagerAddress;\n\n    address public GavelTokenAddress;\n    address public RedPenTokenAddress;\n\n    address public GoldStarAddress;\n    address public PinkSlipAddress;\n    address public ChadBadgeAddress;\n\n    address public  JuryPoolAddress;\n    \n    address public GavelDAOAgent;\n    address public JuryDAOAgent;\n    address public TreasuryAddress;\n    address public TheCourtAddress;\n\n    address public MiniBailiff;\n    \n    AddressManager public addressManager;\n    \n    constructor (address _AddressManagerAddress) {\n\n        AddressManagerAddress = _AddressManagerAddress;\n        addressManager = AddressManager(AddressManagerAddress);\n     \n    }\n\n\n    function _updateDAOAddresses() internal {\n        // Set these from the Address Manager Contract\n        GavelDAOAgent = addressManager.GavelDAOAgent();\n        JuryDAOAgent = addressManager.JuryDAOAgent();\n        TreasuryAddress = addressManager.TreasuryAddress();\n        MiniBailiff = addressManager.MiniBailiff();\n    }\n\n    function _updateTokenAddresses() internal virtual {\n        // Set these from the Address Manager Contract\n        GavelTokenAddress = addressManager.GavelTokenAddress();\n        RedPenTokenAddress = addressManager.RedPenTokenAddress();\n        \n        GoldStarAddress = addressManager.GoldStarAddress();\n        PinkSlipAddress = addressManager.PinkSlipAddress();\n        ChadBadgeAddress = addressManager.ChadBadgeAddress();\n\n        JuryPoolAddress = addressManager.JuryPoolAddress();\n        \n    }\n\n    function _updateAddressManager() internal {\n        // Set these from the Address Manager Contract\n        require(addressManager.hasMovedToNewAddress());\n        AddressManagerAddress = addressManager.newAddressManager();\n    \n    }\n    \n    \n\n    function updateAllAddresses() public {\n        _updateDAOAddresses();\n        _updateTokenAddresses();\n    }\n\n    function updateAddressManager() public {\n        _updateAddressManager();\n    }\n\n    function updateTokenAddresses() public {\n        _updateTokenAddresses();\n    }\n\n    function updateDAOAddresses() public {\n        _updateDAOAddresses();\n    }\n\n\n\n}",
  "sourcePath": "/home/n/Desktop/PinkSlips_FrontEnd_REFORMAT (copy)/contracts/src/AddressManagerReciever.sol",
  "compiler": {
    "name": "solc",
    "version": "0.8.6+commit.11564f7e.Emscripten.clang"
  },
  "schemaVersion": "3.4.1",
  "updatedAt": "2021-08-08T00:16:26.677Z",
  "devdoc": {
    "kind": "dev",
    "methods": {},
    "version": 1
  },
  "userdoc": {
    "kind": "user",
    "methods": {},
    "version": 1
  }
}