{
  "contractName": "AddressManager",
  "abi": [
    {
      "inputs": [
        {
          "internalType": "address",
          "name": "juryDAOAgent",
          "type": "address"
        },
        {
          "internalType": "address",
          "name": "gavelDAOAgent",
          "type": "address"
        },
        {
          "internalType": "address",
          "name": "treasuryAddress",
          "type": "address"
        },
        {
          "internalType": "address",
          "name": "theCourtAddress",
          "type": "address"
        },
        {
          "internalType": "address",
          "name": "_MiniBailiff",
          "type": "address"
        }
      ],
      "stateMutability": "nonpayable",
      "type": "constructor"
    },
    {
      "anonymous": false,
      "inputs": [
        {
          "indexed": false,
          "internalType": "address",
          "name": "",
          "type": "address"
        },
        {
          "indexed": false,
          "internalType": "string",
          "name": "",
          "type": "string"
        }
      ],
      "name": "AddressUpdated",
      "type": "event"
    },
    {
      "anonymous": false,
      "inputs": [
        {
          "indexed": true,
          "internalType": "bytes32",
          "name": "role",
          "type": "bytes32"
        },
        {
          "indexed": true,
          "internalType": "bytes32",
          "name": "previousAdminRole",
          "type": "bytes32"
        },
        {
          "indexed": true,
          "internalType": "bytes32",
          "name": "newAdminRole",
          "type": "bytes32"
        }
      ],
      "name": "RoleAdminChanged",
      "type": "event"
    },
    {
      "anonymous": false,
      "inputs": [
        {
          "indexed": true,
          "internalType": "bytes32",
          "name": "role",
          "type": "bytes32"
        },
        {
          "indexed": true,
          "internalType": "address",
          "name": "account",
          "type": "address"
        },
        {
          "indexed": true,
          "internalType": "address",
          "name": "sender",
          "type": "address"
        }
      ],
      "name": "RoleGranted",
      "type": "event"
    },
    {
      "anonymous": false,
      "inputs": [
        {
          "indexed": true,
          "internalType": "bytes32",
          "name": "role",
          "type": "bytes32"
        },
        {
          "indexed": true,
          "internalType": "address",
          "name": "account",
          "type": "address"
        },
        {
          "indexed": true,
          "internalType": "address",
          "name": "sender",
          "type": "address"
        }
      ],
      "name": "RoleRevoked",
      "type": "event"
    },
    {
      "inputs": [],
      "name": "ChadBadgeAddress",
      "outputs": [
        {
          "internalType": "address",
          "name": "",
          "type": "address"
        }
      ],
      "stateMutability": "view",
      "type": "function",
      "constant": true
    },
    {
      "inputs": [],
      "name": "DEFAULT_ADMIN_ROLE",
      "outputs": [
        {
          "internalType": "bytes32",
          "name": "",
          "type": "bytes32"
        }
      ],
      "stateMutability": "view",
      "type": "function",
      "constant": true
    },
    {
      "inputs": [],
      "name": "GAVELS_BAILIFF",
      "outputs": [
        {
          "internalType": "bytes32",
          "name": "",
          "type": "bytes32"
        }
      ],
      "stateMutability": "view",
      "type": "function",
      "constant": true
    },
    {
      "inputs": [],
      "name": "GavelDAOAgent",
      "outputs": [
        {
          "internalType": "address",
          "name": "",
          "type": "address"
        }
      ],
      "stateMutability": "view",
      "type": "function",
      "constant": true
    },
    {
      "inputs": [],
      "name": "GavelTokenAddress",
      "outputs": [
        {
          "internalType": "address",
          "name": "",
          "type": "address"
        }
      ],
      "stateMutability": "view",
      "type": "function",
      "constant": true
    },
    {
      "inputs": [],
      "name": "GavelVote",
      "outputs": [
        {
          "internalType": "bool",
          "name": "",
          "type": "bool"
        }
      ],
      "stateMutability": "view",
      "type": "function",
      "constant": true
    },
    {
      "inputs": [],
      "name": "GoldStarAddress",
      "outputs": [
        {
          "internalType": "address",
          "name": "",
          "type": "address"
        }
      ],
      "stateMutability": "view",
      "type": "function",
      "constant": true
    },
    {
      "inputs": [],
      "name": "JERK_ROLE",
      "outputs": [
        {
          "internalType": "bytes32",
          "name": "",
          "type": "bytes32"
        }
      ],
      "stateMutability": "view",
      "type": "function",
      "constant": true
    },
    {
      "inputs": [],
      "name": "JURY_BAILIFF",
      "outputs": [
        {
          "internalType": "bytes32",
          "name": "",
          "type": "bytes32"
        }
      ],
      "stateMutability": "view",
      "type": "function",
      "constant": true
    },
    {
      "inputs": [],
      "name": "JuryDAOAgent",
      "outputs": [
        {
          "internalType": "address",
          "name": "",
          "type": "address"
        }
      ],
      "stateMutability": "view",
      "type": "function",
      "constant": true
    },
    {
      "inputs": [],
      "name": "JuryPoolAddress",
      "outputs": [
        {
          "internalType": "address",
          "name": "",
          "type": "address"
        }
      ],
      "stateMutability": "view",
      "type": "function",
      "constant": true
    },
    {
      "inputs": [],
      "name": "JuryVote",
      "outputs": [
        {
          "internalType": "bool",
          "name": "",
          "type": "bool"
        }
      ],
      "stateMutability": "view",
      "type": "function",
      "constant": true
    },
    {
      "inputs": [],
      "name": "MINI_BAILIFF_ROLE",
      "outputs": [
        {
          "internalType": "bytes32",
          "name": "",
          "type": "bytes32"
        }
      ],
      "stateMutability": "view",
      "type": "function",
      "constant": true
    },
    {
      "inputs": [],
      "name": "MiniBailiff",
      "outputs": [
        {
          "internalType": "address",
          "name": "",
          "type": "address"
        }
      ],
      "stateMutability": "view",
      "type": "function",
      "constant": true
    },
    {
      "inputs": [],
      "name": "PinkSlipAddress",
      "outputs": [
        {
          "internalType": "address",
          "name": "",
          "type": "address"
        }
      ],
      "stateMutability": "view",
      "type": "function",
      "constant": true
    },
    {
      "inputs": [],
      "name": "RedPenTokenAddress",
      "outputs": [
        {
          "internalType": "address",
          "name": "",
          "type": "address"
        }
      ],
      "stateMutability": "view",
      "type": "function",
      "constant": true
    },
    {
      "inputs": [],
      "name": "THE_COURT_ROLE",
      "outputs": [
        {
          "internalType": "bytes32",
          "name": "",
          "type": "bytes32"
        }
      ],
      "stateMutability": "view",
      "type": "function",
      "constant": true
    },
    {
      "inputs": [],
      "name": "TheCourtAddress",
      "outputs": [
        {
          "internalType": "address",
          "name": "",
          "type": "address"
        }
      ],
      "stateMutability": "view",
      "type": "function",
      "constant": true
    },
    {
      "inputs": [],
      "name": "TreasuryAddress",
      "outputs": [
        {
          "internalType": "address",
          "name": "",
          "type": "address"
        }
      ],
      "stateMutability": "view",
      "type": "function",
      "constant": true
    },
    {
      "inputs": [],
      "name": "badgeCount",
      "outputs": [
        {
          "internalType": "uint256",
          "name": "",
          "type": "uint256"
        }
      ],
      "stateMutability": "view",
      "type": "function",
      "constant": true
    },
    {
      "inputs": [
        {
          "internalType": "bytes32",
          "name": "role",
          "type": "bytes32"
        }
      ],
      "name": "getRoleAdmin",
      "outputs": [
        {
          "internalType": "bytes32",
          "name": "",
          "type": "bytes32"
        }
      ],
      "stateMutability": "view",
      "type": "function",
      "constant": true
    },
    {
      "inputs": [
        {
          "internalType": "bytes32",
          "name": "role",
          "type": "bytes32"
        },
        {
          "internalType": "uint256",
          "name": "index",
          "type": "uint256"
        }
      ],
      "name": "getRoleMember",
      "outputs": [
        {
          "internalType": "address",
          "name": "",
          "type": "address"
        }
      ],
      "stateMutability": "view",
      "type": "function",
      "constant": true
    },
    {
      "inputs": [
        {
          "internalType": "bytes32",
          "name": "role",
          "type": "bytes32"
        }
      ],
      "name": "getRoleMemberCount",
      "outputs": [
        {
          "internalType": "uint256",
          "name": "",
          "type": "uint256"
        }
      ],
      "stateMutability": "view",
      "type": "function",
      "constant": true
    },
    {
      "inputs": [
        {
          "internalType": "bytes32",
          "name": "role",
          "type": "bytes32"
        },
        {
          "internalType": "address",
          "name": "account",
          "type": "address"
        }
      ],
      "name": "grantRole",
      "outputs": [],
      "stateMutability": "nonpayable",
      "type": "function"
    },
    {
      "inputs": [],
      "name": "hasMovedToNewAddress",
      "outputs": [
        {
          "internalType": "bool",
          "name": "",
          "type": "bool"
        }
      ],
      "stateMutability": "view",
      "type": "function",
      "constant": true
    },
    {
      "inputs": [
        {
          "internalType": "bytes32",
          "name": "role",
          "type": "bytes32"
        },
        {
          "internalType": "address",
          "name": "account",
          "type": "address"
        }
      ],
      "name": "hasRole",
      "outputs": [
        {
          "internalType": "bool",
          "name": "",
          "type": "bool"
        }
      ],
      "stateMutability": "view",
      "type": "function",
      "constant": true
    },
    {
      "inputs": [],
      "name": "jerkSanctions",
      "outputs": [
        {
          "internalType": "bool",
          "name": "",
          "type": "bool"
        }
      ],
      "stateMutability": "view",
      "type": "function",
      "constant": true
    },
    {
      "inputs": [],
      "name": "newAddressManager",
      "outputs": [
        {
          "internalType": "address",
          "name": "",
          "type": "address"
        }
      ],
      "stateMutability": "view",
      "type": "function",
      "constant": true
    },
    {
      "inputs": [
        {
          "internalType": "bool",
          "name": "areYouSure",
          "type": "bool"
        }
      ],
      "name": "purgeSelf",
      "outputs": [
        {
          "internalType": "bool",
          "name": "",
          "type": "bool"
        }
      ],
      "stateMutability": "nonpayable",
      "type": "function"
    },
    {
      "inputs": [
        {
          "internalType": "address",
          "name": "addressToPurge",
          "type": "address"
        }
      ],
      "name": "purgeUser",
      "outputs": [],
      "stateMutability": "nonpayable",
      "type": "function"
    },
    {
      "inputs": [
        {
          "internalType": "bytes32",
          "name": "role",
          "type": "bytes32"
        },
        {
          "internalType": "address",
          "name": "account",
          "type": "address"
        }
      ],
      "name": "renounceRole",
      "outputs": [],
      "stateMutability": "nonpayable",
      "type": "function"
    },
    {
      "inputs": [
        {
          "internalType": "bytes32",
          "name": "ROLE_TO_UPDATE",
          "type": "bytes32"
        },
        {
          "internalType": "address",
          "name": "newRoleHolder",
          "type": "address"
        }
      ],
      "name": "resetSingleRole",
      "outputs": [],
      "stateMutability": "nonpayable",
      "type": "function"
    },
    {
      "inputs": [],
      "name": "resetVote",
      "outputs": [],
      "stateMutability": "nonpayable",
      "type": "function"
    },
    {
      "inputs": [
        {
          "internalType": "bytes32",
          "name": "role",
          "type": "bytes32"
        },
        {
          "internalType": "address",
          "name": "account",
          "type": "address"
        }
      ],
      "name": "revokeRole",
      "outputs": [],
      "stateMutability": "nonpayable",
      "type": "function"
    },
    {
      "inputs": [
        {
          "internalType": "bytes4",
          "name": "interfaceId",
          "type": "bytes4"
        }
      ],
      "name": "supportsInterface",
      "outputs": [
        {
          "internalType": "bool",
          "name": "",
          "type": "bool"
        }
      ],
      "stateMutability": "view",
      "type": "function",
      "constant": true
    },
    {
      "inputs": [],
      "name": "toggleJerkSanctions",
      "outputs": [],
      "stateMutability": "nonpayable",
      "type": "function"
    },
    {
      "inputs": [
        {
          "internalType": "bool",
          "name": "_vote",
          "type": "bool"
        }
      ],
      "name": "vote",
      "outputs": [],
      "stateMutability": "nonpayable",
      "type": "function"
    },
    {
      "inputs": [
        {
          "internalType": "address",
          "name": "newAddressManagerAddress",
          "type": "address"
        }
      ],
      "name": "setnewAddressManager",
      "outputs": [],
      "stateMutability": "nonpayable",
      "type": "function"
    },
    {
      "inputs": [
        {
          "internalType": "address",
          "name": "newAgentAddress",
          "type": "address"
        }
      ],
      "name": "addGavelAgent",
      "outputs": [],
      "stateMutability": "nonpayable",
      "type": "function"
    },
    {
      "inputs": [
        {
          "internalType": "address",
          "name": "newAgentAddress",
          "type": "address"
        }
      ],
      "name": "addJuryAgent",
      "outputs": [],
      "stateMutability": "nonpayable",
      "type": "function"
    },
    {
      "inputs": [
        {
          "internalType": "address",
          "name": "newAgentAddress",
          "type": "address"
        }
      ],
      "name": "addMiniBailiff",
      "outputs": [],
      "stateMutability": "nonpayable",
      "type": "function"
    },
    {
      "inputs": [
        {
          "internalType": "address",
          "name": "newAgentAddress",
          "type": "address"
        }
      ],
      "name": "setTheCourtAgent",
      "outputs": [],
      "stateMutability": "nonpayable",
      "type": "function"
    },
    {
      "inputs": [
        {
          "internalType": "address",
          "name": "newTreasuryAddress",
          "type": "address"
        }
      ],
      "name": "setTreasuryAddress",
      "outputs": [],
      "stateMutability": "nonpayable",
      "type": "function"
    },
    {
      "inputs": [
        {
          "internalType": "address",
          "name": "newCourtAddress",
          "type": "address"
        }
      ],
      "name": "setCourtAddress",
      "outputs": [],
      "stateMutability": "nonpayable",
      "type": "function"
    },
    {
      "inputs": [
        {
          "internalType": "address",
          "name": "newGavelTokenAddress",
          "type": "address"
        }
      ],
      "name": "setGavelTokenAddress",
      "outputs": [],
      "stateMutability": "nonpayable",
      "type": "function"
    },
    {
      "inputs": [
        {
          "internalType": "address",
          "name": "newJuryPoolAddress",
          "type": "address"
        }
      ],
      "name": "setJuryPoolAddress",
      "outputs": [],
      "stateMutability": "nonpayable",
      "type": "function"
    },
    {
      "inputs": [
        {
          "internalType": "address",
          "name": "newRedPenTokenAddress",
          "type": "address"
        }
      ],
      "name": "setRedPenTokenAddress",
      "outputs": [],
      "stateMutability": "nonpayable",
      "type": "function"
    },
    {
      "inputs": [
        {
          "internalType": "address",
          "name": "newGoldStarAddress",
          "type": "address"
        }
      ],
      "name": "setGoldStarAddress",
      "outputs": [],
      "stateMutability": "nonpayable",
      "type": "function"
    },
    {
      "inputs": [
        {
          "internalType": "address",
          "name": "newPinkSlipAddress",
          "type": "address"
        }
      ],
      "name": "setPinkSlipAddress",
      "outputs": [],
      "stateMutability": "nonpayable",
      "type": "function"
    },
    {
      "inputs": [
        {
          "internalType": "address",
          "name": "newChadBadgeAddress",
          "type": "address"
        }
      ],
      "name": "setChadBadgeAddress",
      "outputs": [],
      "stateMutability": "nonpayable",
      "type": "function"
    }
  ],
  "bytecode": "0x6000805460ff191690556003805462ffffff19169055600e805460ff60a01b1916905560c0604052601d60808190527f7468652068656c6c2061726520796f7520646f696e673f2043276d6f6e00000060a09081526200006391600f919062000365565b50604080518082019091526005808252642193b6b7b760d91b6020909201918252620000929160109162000365565b506000601155348015620000a557600080fd5b5060405162002f8138038062002f81833981016040819052620000c89162000428565b848483620000d860008262000218565b620001047f0538d24a8b7882d7b2e36af243d4af61c23e86e3daa6cb8c887b53220b2f57208262000218565b620001307f048bc71fa1cb2c119c339cf9cf00a97996a19a9d991ce5fe049f2fa5459e79908362000218565b6200015c7ffa8e4989e1d689f7bc5c4b25b87efb51fecdecb19ba62847e29c759e12a89acd8462000218565b620001887ff0f4b159a6e2a4815eb3ca3df080bfa70c9270662c59bcaa4479a456220183e68262000218565b620001b57f7c9d7f6f02908185bffb3f7fc9afb29fd7bf93675af8fd4b655ee05c2cee1e0e600062000218565b5050600980546001600160a01b03199081166001600160a01b0397881617909155600a805482169787169790971790965550600b8054861693851693909317909255600c80548516918416919091179055600d80549093169116179055620004d5565b6200022f82826200025b60201b62001c681760201c565b60008281526002602090815260409091206200025691839062001c726200026b821b17901c565b505050565b6200026782826200028b565b5050565b600062000282836001600160a01b03841662000313565b90505b92915050565b60008281526001602090815260408083206001600160a01b038516845290915290205460ff16620002675760008281526001602081815260408084206001600160a01b0386168086529252808420805460ff19169093179092559051339285917f2f8788117e7eff1d82e926ec794901d17c78024a50270940304540a733656f0d9190a45050565b60008181526001830160205260408120546200035c5750815460018181018455600084815260208082209093018490558454848252828601909352604090209190915562000285565b50600062000285565b828054620003739062000498565b90600052602060002090601f016020900481019282620003975760008555620003e2565b82601f10620003b257805160ff1916838001178555620003e2565b82800160010185558215620003e2579182015b82811115620003e2578251825591602001919060010190620003c5565b50620003f0929150620003f4565b5090565b5b80821115620003f05760008155600101620003f5565b80516001600160a01b03811681146200042357600080fd5b919050565b600080600080600060a086880312156200044157600080fd5b6200044c866200040b565b94506200045c602087016200040b565b93506200046c604087016200040b565b92506200047c606087016200040b565b91506200048c608087016200040b565b90509295509295909350565b600181811c90821680620004ad57607f821691505b60208210811415620004cf57634e487b7160e01b600052602260045260246000fd5b50919050565b612a9c80620004e56000396000f3fe608060405234801561001057600080fd5b50600436106102d65760003560e01c80639010d07c11610182578063caed2302116100e9578063dadf56ac116100a2578063ef75cbc21161007c578063ef75cbc214610698578063f98447ac146106ab578063fe525a6c146106be578063ff7e88ec146106d157600080fd5b8063dadf56ac1461065d578063e6217e3a14610670578063e9a532301461068357600080fd5b8063caed2302146105c3578063cb6d5574146105d6578063cce84392146105e9578063cf4ece1514610610578063d547741f14610637578063da6cb6061461064a57600080fd5b8063a78e746f1161013b578063a78e746f14610557578063a7b9ee5a14610564578063ac7cfac314610577578063bfb7dc991461058a578063c0f647ab1461059d578063ca15c873146105b057600080fd5b80639010d07c146104ed57806391d148541461050057806396c4f40514610513578063a217fddf14610526578063a32c5e591461052e578063a44b93251461054357600080fd5b80633f86ea7c116102415780635f413466116101fa5780636b584775116101d45780636b584775146104a1578063762ddb59146104b45780637e253e0a146104c75780638c838d6f146104da57600080fd5b80635f413466146104685780635f88b5661461047b5780636605bfda1461048e57600080fd5b80633f86ea7c146104005780634a6d4244146104135780634b9f5c98146104265780635b5c251f146104395780635b8066451461044c5780635be789971461045557600080fd5b8063248a9ca311610293578063248a9ca3146103935780632f2ff15d146103b75780632fb56585146103ca578063329a8cfa146103dd57806336568abe146103e557806336e969a2146103f857600080fd5b806301ffc9a7146102db578063024bebe9146103035780630a726d141461032e578063104c0f1f1461034357806321d7f008146103565780632436329d14610370575b600080fd5b6102ee6102e936600461260f565b6106e3565b60405190151581526020015b60405180910390f35b600a54610316906001600160a01b031681565b6040516001600160a01b0390911681526020016102fa565b61034161033c366004612548565b61070e565b005b610341610351366004612548565b6107f6565b60035461031690630100000090046001600160a01b031681565b6103856000805160206129e783398151915281565b6040519081526020016102fa565b6103856103a13660046125a4565b6000908152600160208190526040909120015490565b6103416103c53660046125bd565b6108fc565b6003546102ee9062010000900460ff1681565b610341610923565b6103416103f33660046125bd565b61099d565b6103416109bf565b600754610316906001600160a01b031681565b610341610421366004612548565b610a39565b610341610434366004612582565b610be6565b600b54610316906001600160a01b031681565b61038560115481565b610341610463366004612548565b610d1b565b600c54610316906001600160a01b031681565b6102ee610489366004612582565b610e41565b61034161049c366004612548565b610e68565b600854610316906001600160a01b031681565b600454610316906001600160a01b031681565b6103416104d5366004612548565b610fbe565b6103416104e8366004612548565b6110df565b6103166104fb3660046125ed565b611232565b6102ee61050e3660046125bd565b611251565b610341610521366004612548565b61127c565b610385600081565b610385600080516020612a4783398151915281565b600e546102ee90600160a01b900460ff1681565b6003546102ee9060ff1681565b610341610572366004612548565b611422565b600e54610316906001600160a01b031681565b600554610316906001600160a01b031681565b6103416105ab366004612548565b6114f1565b6103856105be3660046125a4565b6115bd565b6103416105d1366004612548565b6115d4565b6103416105e43660046125bd565b6116ed565b6103857f7c9d7f6f02908185bffb3f7fc9afb29fd7bf93675af8fd4b655ee05c2cee1e0e81565b6103857ff0f4b159a6e2a4815eb3ca3df080bfa70c9270662c59bcaa4479a456220183e681565b6103416106453660046125bd565b611817565b610341610658366004612548565b611821565b600954610316906001600160a01b031681565b600d54610316906001600160a01b031681565b610385600080516020612a0783398151915281565b6103416106a6366004612548565b6119c6565b600654610316906001600160a01b031681565b6103416106cc366004612548565b611a93565b6003546102ee90610100900460ff1681565b60006001600160e01b03198216635a05180f60e01b1480610708575061070882611c87565b92915050565b610726600080516020612a0783398151915233611251565b8061074457506107446000805160206129e783398151915233611251565b806107625750610762600080516020612a4783398151915233611251565b61076b57600080fd5b600354610100810460ff90811615156201000090920416151514600114806107a657506107a6600080516020612a4783398151915233611251565b6107cb5760405162461bcd60e51b81526004016107c2906127a2565b60405180910390fd5b6001600160a01b0381163314156107e157600080fd5b6107ea81611cbc565b506107f3611d19565b50565b61080e600080516020612a4783398151915233611251565b8061082c575061082c600080516020612a0783398151915233611251565b8061084a575061084a6000805160206129e783398151915233611251565b6108665760405162461bcd60e51b81526004016107c2906127cc565b60006108927ff0f4b159a6e2a4815eb3ca3df080bfa70c9270662c59bcaa4479a456220183e683611d27565b90506001811515146108a357600080fd5b604080516001600160a01b0384168152602081018290526010918101919091526f2732bb9026b4b734902130b4b634b33360811b6060820152600080516020612a27833981519152906080015b60405180910390a15050565b6109068282611dcb565b600082815260026020526040902061091e9082611c72565b505050565b61093b600080516020612a4783398151915233611251565b806109595750610959600080516020612a0783398151915233611251565b8061097757506109776000805160206129e783398151915233611251565b6109935760405162461bcd60e51b81526004016107c2906127cc565b61099b611d19565b565b6109a78282611e05565b600082815260026020526040902061091e9082611e7f565b6109d76000805160206129e783398151915233611251565b806109f557506109f5600080516020612a4783398151915233611251565b610a115760405162461bcd60e51b81526004016107c2906127fc565b60035460ff16151560011415610a2d576003805460ff19169055565b6003805460ff19169055565b610a51600080516020612a0783398151915233611251565b80610a6f5750610a6f6000805160206129e783398151915233611251565b80610a8d5750610a8d600080516020612a4783398151915233611251565b610a9657600080fd5b600354610100810460ff9081161515620100009092041615151460011480610ad15750610ad1600080516020612a4783398151915233611251565b610aed5760405162461bcd60e51b81526004016107c2906127a2565b60106001600160a01b038216610b165760405162461bcd60e51b81526004016107c291906126fa565b506003546001600160a01b0382811663010000009092041614801590610b4a57506004546001600160a01b03828116911614155b610b665760405162461bcd60e51b81526004016107c290612829565b600780546001600160a01b0319166001600160a01b038316179055610b89611d19565b604080516001600160a01b038316815260208101829052601591810191909152744e657720436861644261646765204164647265737360581b6060820152600080516020612a27833981519152906080015b60405180910390a150565b610bfe600080516020612a4783398151915233611251565b80610c1c5750610c1c600080516020612a0783398151915233611251565b80610c3a5750610c3a6000805160206129e783398151915233611251565b610c565760405162461bcd60e51b81526004016107c2906127cc565b610c6e600080516020612a4783398151915233611251565b15610caf5760038054610100831515810261ff0019831681179190910460ff161515620100000262ff00001990911662ffff00199092169190911717905550565b610cc7600080516020612a0783398151915233611251565b15610ce457600380548215156101000261ff001990911617905550565b610cfc6000805160206129e783398151915233611251565b156107f35760038054821515620100000262ff00001990911617905550565b610d33600080516020612a0783398151915233611251565b80610d515750610d51600080516020612a4783398151915233611251565b610d6d5760405162461bcd60e51b81526004016107c290612856565b60106001600160a01b038216610d965760405162461bcd60e51b81526004016107c291906126fa565b506004546001600160a01b0382811691161415610dc55760405162461bcd60e51b81526004016107c290612885565b600380546301000000600160b81b03191663010000006001600160a01b0384169081029190911790915560408051918252602082018190526017908201527f4e657720476176656c20546f6b656e20416464726573730000000000000000006060820152600080516020612a2783398151915290608001610bdb565b600060018215151415610e6057610e5733611e94565b50600192915050565b506000919050565b610e80600080516020612a0783398151915233611251565b80610e9e5750610e9e6000805160206129e783398151915233611251565b80610ebc5750610ebc600080516020612a4783398151915233611251565b610ec557600080fd5b600354610100810460ff9081161515620100009092041615151460011480610f005750610f00600080516020612a4783398151915233611251565b610f1c5760405162461bcd60e51b81526004016107c2906127a2565b600f6001600160a01b038216610f455760405162461bcd60e51b81526004016107c291906126fa565b50600b80546001600160a01b0319166001600160a01b038316179055610f69611d19565b604080516001600160a01b038316815260208101829052601491810191909152734e6577205472656173757279204164647265737360601b6060820152600080516020612a2783398151915290608001610bdb565b610fd66000805160206129e783398151915233611251565b80610ff45750610ff4600080516020612a4783398151915233611251565b6110105760405162461bcd60e51b81526004016107c2906127fc565b60106001600160a01b0382166110395760405162461bcd60e51b81526004016107c291906126fa565b506003546001600160a01b03828116630100000090920416141561106f5760405162461bcd60e51b81526004016107c290612885565b600480546001600160a01b0319166001600160a01b03831690811790915560408051918252602082018190526019908201527f4e6577205265642050656e20546f6b656e2041646472657373000000000000006060820152600080516020612a2783398151915290608001610bdb565b6110f7600080516020612a0783398151915233611251565b8061111557506111156000805160206129e783398151915233611251565b806111335750611133600080516020612a4783398151915233611251565b61113c57600080fd5b600354610100810460ff90811615156201000090920416151514600114806111775750611177600080516020612a4783398151915233611251565b6111935760405162461bcd60e51b81526004016107c2906127a2565b60106001600160a01b0382166111bc5760405162461bcd60e51b81526004016107c291906126fa565b50600c80546001600160a01b0319166001600160a01b0383161790556111e0611d19565b604080516001600160a01b038316815260208101829052601191810191909152704e657720436f757274204164647265737360781b6060820152600080516020612a2783398151915290608001610bdb565b600082815260026020526040812061124a9083611ee9565b9392505050565b60009182526001602090815260408084206001600160a01b0393909316845291905290205460ff1690565b611294600080516020612a0783398151915233611251565b806112b257506112b26000805160206129e783398151915233611251565b806112d057506112d0600080516020612a4783398151915233611251565b6112d957600080fd5b600354610100810460ff90811615156201000090920416151514600114806113145750611314600080516020612a4783398151915233611251565b6113305760405162461bcd60e51b81526004016107c2906127a2565b60106001600160a01b0382166113595760405162461bcd60e51b81526004016107c291906126fa565b506003546001600160a01b038281166301000000909204161480159061138d57506004546001600160a01b03828116911614155b6113a95760405162461bcd60e51b81526004016107c290612829565b600580546001600160a01b0319166001600160a01b0383161790556113cc611d19565b604080516001600160a01b038316815260208101829052601591810191909152744e657720476f6c642053746172204164647265737360581b6060820152600080516020612a2783398151915290608001610bdb565b61143a600080516020612a0783398151915233611251565b806114585750611458600080516020612a4783398151915233611251565b6114745760405162461bcd60e51b81526004016107c290612856565b600061148e600080516020612a4783398151915283611d27565b905060018115151461149f57600080fd5b604080516001600160a01b0384168152602081018290526011918101919091527013995dc810dbdd5c9d08115b1958dd1959607a1b6060820152600080516020612a27833981519152906080016108f0565b611509600080516020612a0783398151915233611251565b806115275750611527600080516020612a4783398151915233611251565b6115435760405162461bcd60e51b81526004016107c290612856565b600061155d6000805160206129e783398151915283611d27565b905060018115151461156e57600080fd5b604080516001600160a01b038416815260208101829052600e918101919091526d13995dc8129d5c9e481059d95b9d60921b6060820152600080516020612a27833981519152906080016108f0565b600081815260026020526040812061070890611ef5565b6115ec6000805160206129e783398151915233611251565b8061160a575061160a600080516020612a4783398151915233611251565b6116265760405162461bcd60e51b81526004016107c2906127fc565b60106001600160a01b03821661164f5760405162461bcd60e51b81526004016107c291906126fa565b506003546001600160a01b0382811663010000009092041614156116855760405162461bcd60e51b81526004016107c290612885565b600880546001600160a01b0319166001600160a01b0383169081179091556040805191825260208201819052601590820152744e6577204a75727920506f6f6c204164647265737360581b6060820152600080516020612a2783398151915290608001610bdb565b611705600080516020612a0783398151915233611251565b8061172357506117236000805160206129e783398151915233611251565b806117415750611741600080516020612a4783398151915233611251565b61174a57600080fd5b600354610100810460ff90811615156201000090920416151514600114806117855750611785600080516020612a4783398151915233611251565b6117a15760405162461bcd60e51b81526004016107c2906127a2565b6117aa82611eff565b50604051632f2ff15d60e01b8152600481018390526001600160a01b03821660248201523090632f2ff15d90604401600060405180830381600087803b1580156117f357600080fd5b505af1158015611807573d6000803e3d6000fd5b50505050611813611d19565b5050565b6109a7828261207a565b611839600080516020612a0783398151915233611251565b8061185757506118576000805160206129e783398151915233611251565b806118755750611875600080516020612a4783398151915233611251565b61187e57600080fd5b600354610100810460ff90811615156201000090920416151514600114806118b957506118b9600080516020612a4783398151915233611251565b6118d55760405162461bcd60e51b81526004016107c2906127a2565b60106001600160a01b0382166118fe5760405162461bcd60e51b81526004016107c291906126fa565b506003546001600160a01b038281166301000000909204161480159061193257506004546001600160a01b03828116911614155b61194e5760405162461bcd60e51b81526004016107c290612829565b600680546001600160a01b0319166001600160a01b038316179055611971611d19565b604080516001600160a01b038316815260208101829052601491810191909152734e65772050696e6b536c6970204164647265737360601b6060820152600080516020612a2783398151915290608001610bdb565b6119de600080516020612a0783398151915233611251565b806119fc57506119fc600080516020612a4783398151915233611251565b611a185760405162461bcd60e51b81526004016107c290612856565b6000611a32600080516020612a0783398151915283611d27565b9050600181151514611a4357600080fd5b604080516001600160a01b038416815260208101829052600f918101919091526e13995dc811d85d995b081059d95b9d608a1b6060820152600080516020612a27833981519152906080016108f0565b611aab600080516020612a0783398151915233611251565b80611ac95750611ac96000805160206129e783398151915233611251565b80611ae75750611ae7600080516020612a4783398151915233611251565b611af057600080fd5b600354610100810460ff9081161515620100009092041615151460011480611b2b5750611b2b600080516020612a4783398151915233611251565b611b475760405162461bcd60e51b81526004016107c2906127a2565b611b5f600080516020612a4783398151915233611251565b80611b7d5750611b7d600080516020612a0783398151915233611251565b80611b9b5750611b9b6000805160206129e783398151915233611251565b611bb75760405162461bcd60e51b81526004016107c2906127cc565b600f6001600160a01b038216611be05760405162461bcd60e51b81526004016107c291906126fa565b50600e80546001600160a81b0319166001600160a01b03831617600160a01b179055611c0a611d19565b604080516001600160a01b0383168152602081018290526019918101919091527f4e657720416464726573734d616e6167657241646472657373000000000000006060820152600080516020612a2783398151915290608001610bdb565b61181382826120b4565b600061124a836001600160a01b03841661211f565b60006001600160e01b03198216637965db0b60e01b148061070857506301ffc9a760e01b6001600160e01b0319831614610708565b6000611cd66000805160206129e783398151915283611817565b611cee600080516020612a0783398151915283611817565b611d06600080516020612a4783398151915283611817565b611d11600083611817565b506001919050565b6003805462ffff0019169055565b6000600f6001600160a01b038316611d525760405162461bcd60e51b81526004016107c291906126fa565b50611d5d8383611251565b15611d6757600080fd5b611d7183836108fc565b604080516001600160a01b03841681526020810182905260118183015270436865636b20526f6c65204576656e747360781b60608201529051600080516020612a278339815191529181900360800190a150600192915050565b600082815260016020819052604082200154905460ff1615611df15761091e83836120b4565b611dfb813361216e565b61091e83836120b4565b6001600160a01b0381163314611e755760405162461bcd60e51b815260206004820152602f60248201527f416363657373436f6e74726f6c3a2063616e206f6e6c792072656e6f756e636560448201526e103937b632b9903337b91039b2b63360891b60648201526084016107c2565b61181382826121d2565b600061124a836001600160a01b038416612239565b6000611eae6000805160206129e78339815191528361099d565b611ec6600080516020612a078339815191528361099d565b611ede600080516020612a478339815191528361099d565b611d1160008361099d565b600061124a8383612326565b6000610708825490565b60405163ca15c87360e01b8152600481018290526000908190309063ca15c8739060240160206040518083038186803b158015611f3b57600080fd5b505afa158015611f4f573d6000803e3d6000fd5b505050506040513d601f19601f82011682018060405250810190611f739190612639565b905060005b8181101561207057604051632404341f60e21b815260048101859052602481018290526000903090639010d07c9060440160206040518083038186803b158015611fc157600080fd5b505afa158015611fd5573d6000803e3d6000fd5b505050506040513d601f19601f82011682018060405250810190611ff99190612565565b60405163d547741f60e01b8152600481018790526001600160a01b0382166024820152909150309063d547741f90604401600060405180830381600087803b15801561204457600080fd5b505af1158015612058573d6000803e3d6000fd5b505050505080806120689061295e565b915050611f78565b5060019392505050565b600082815260016020819052604082200154905460ff16156120a05761091e83836121d2565b6120aa813361216e565b61091e83836121d2565b6120be8282611251565b6118135760008281526001602081815260408084206001600160a01b0386168086529252808420805460ff19169093179092559051339285917f2f8788117e7eff1d82e926ec794901d17c78024a50270940304540a733656f0d9190a45050565b600081815260018301602052604081205461216657508154600181810184556000848152602080822090930184905584548482528286019093526040902091909155610708565b506000610708565b6121788282611251565b61181357612190816001600160a01b031660146123ac565b61219b8360206123ac565b6040516020016121ac929190612652565b60408051601f198184030181529082905262461bcd60e51b82526107c2916004016126c7565b6121dc8282611251565b156118135760008281526001602090815260408083206001600160a01b0385168085529252808320805460ff1916905551339285917ff6391f5c32d9c69d2a47ea670b442974b53935d1edc7fd64eb21e047a839171b9190a45050565b6000818152600183016020526040812054801561231c57600061225d600183612900565b855490915060009061227190600190612900565b9050600086600001828154811061228a5761228a6129a5565b90600052602060002001549050808760000184815481106122ad576122ad6129a5565b6000918252602080832090910192909255828152600189019091526040902084905586548790806122e0576122e061298f565b60019003818190600052602060002001600090559055866001016000878152602001908152602001600020600090556001945050505050610708565b6000915050610708565b815460009082106123845760405162461bcd60e51b815260206004820152602260248201527f456e756d657261626c655365743a20696e646578206f7574206f6620626f756e604482015261647360f01b60648201526084016107c2565b826000018281548110612399576123996129a5565b9060005260206000200154905092915050565b606060006123bb8360026128e1565b6123c69060026128c9565b67ffffffffffffffff8111156123de576123de6129bb565b6040519080825280601f01601f191660200182016040528015612408576020820181803683370190505b509050600360fc1b81600081518110612423576124236129a5565b60200101906001600160f81b031916908160001a905350600f60fb1b81600181518110612452576124526129a5565b60200101906001600160f81b031916908160001a90535060006124768460026128e1565b6124819060016128c9565b90505b60018111156124f9576f181899199a1a9b1b9c1cb0b131b232b360811b85600f16601081106124b5576124b56129a5565b1a60f81b8282815181106124cb576124cb6129a5565b60200101906001600160f81b031916908160001a90535060049490941c936124f281612947565b9050612484565b50831561124a5760405162461bcd60e51b815260206004820181905260248201527f537472696e67733a20686578206c656e67746820696e73756666696369656e7460448201526064016107c2565b60006020828403121561255a57600080fd5b813561124a816129d1565b60006020828403121561257757600080fd5b815161124a816129d1565b60006020828403121561259457600080fd5b8135801515811461124a57600080fd5b6000602082840312156125b657600080fd5b5035919050565b600080604083850312156125d057600080fd5b8235915060208301356125e2816129d1565b809150509250929050565b6000806040838503121561260057600080fd5b50508035926020909101359150565b60006020828403121561262157600080fd5b81356001600160e01b03198116811461124a57600080fd5b60006020828403121561264b57600080fd5b5051919050565b7f416363657373436f6e74726f6c3a206163636f756e742000000000000000000081526000835161268a816017850160208801612917565b7001034b99036b4b9b9b4b733903937b6329607d1b60179184019182015283516126bb816028840160208801612917565b01602801949350505050565b60208152600082518060208401526126e6816040850160208701612917565b601f01601f19169190910160400192915050565b600060208083526000845481600182811c91508083168061271c57607f831692505b85831081141561273a57634e487b7160e01b85526022600452602485fd5b878601838152602001818015612757576001811461276857612793565b60ff19861682528782019650612793565b60008b81526020902060005b8681101561278d57815484820152908501908901612774565b83019750505b50949998505050505050505050565b60208082526010908201526f436f757274204d75737420416772656560801b604082015260600190565b6020808252601690820152752cb7ba93b932903737ba103a3432903130b4b634b33360511b604082015260600190565b602080825260139082015272596f75277265206e6f7420746865204a75727960681b604082015260600190565b602080825260139082015272576861742061726520796f7520646f696e673f60681b604082015260600190565b602080825260159082015274596f75277265206e6f742074686520476176656c7360581b604082015260600190565b60208082526024908201527f446f6e2774206d6573732077697468207468652062616c616e6365206f66207060408201526337bbb2b960e11b606082015260800190565b600082198211156128dc576128dc612979565b500190565b60008160001904831182151516156128fb576128fb612979565b500290565b60008282101561291257612912612979565b500390565b60005b8381101561293257818101518382015260200161291a565b83811115612941576000848401525b50505050565b60008161295657612956612979565b506000190190565b600060001982141561297257612972612979565b5060010190565b634e487b7160e01b600052601160045260246000fd5b634e487b7160e01b600052603160045260246000fd5b634e487b7160e01b600052603260045260246000fd5b634e487b7160e01b600052604160045260246000fd5b6001600160a01b03811681146107f357600080fdfefa8e4989e1d689f7bc5c4b25b87efb51fecdecb19ba62847e29c759e12a89acd048bc71fa1cb2c119c339cf9cf00a97996a19a9d991ce5fe049f2fa5459e79907e8c379daaa14042eac528cc8c0cbb33194c8a3a2197c997f7220e8c057038340538d24a8b7882d7b2e36af243d4af61c23e86e3daa6cb8c887b53220b2f5720a26469706673582212208d7539c573a6672142ba2697fe4bce832bb3a13fd1eb447ecb66470735a1382c64736f6c63430008060033",
  "immutableReferences": {},
  "source": "    pragma solidity ^0.8.0;\n\n    import './ConsensusMachine.sol';\n   \n    contract AddressManager is ConsensusMachine {/// Change the Gavels Agent Address\n        \n        address public GavelTokenAddress;\n        address public RedPenTokenAddress;\n\n        address public GoldStarAddress;\n        address public PinkSlipAddress;\n        address public ChadBadgeAddress;\n\n        \n        address public  JuryPoolAddress;\n\n        address public GavelDAOAgent;\n        address public JuryDAOAgent;\n        address public TreasuryAddress;\n        address public TheCourtAddress;\n\n        address public MiniBailiff;\n\n        address public newAddressManager; // For the ability to upgrade if neccesary.\n        bool public hasMovedToNewAddress = false;\n\n        string private errorMessage = \"the hell are you doing? C'mon\";\n        string private zeroAddressWarning = \"C'mon\";\n\n        uint public badgeCount = 0;\n\n        event AddressUpdated(address, string);\n\n        constructor(address juryDAOAgent, address gavelDAOAgent, address treasuryAddress,\n                    address theCourtAddress, address _MiniBailiff)\n                    ConsensusMachine(juryDAOAgent, gavelDAOAgent, theCourtAddress) {\n\n            GavelDAOAgent = gavelDAOAgent;\n            JuryDAOAgent = juryDAOAgent;\n            TreasuryAddress = treasuryAddress;\n            TheCourtAddress = theCourtAddress;\n            MiniBailiff = _MiniBailiff;\n\n        }\n\n    \n\n\n    /////////////////////////////////////////////////////////////////////////////////////////////////\n    /////////////////////////////////////////////////////////////////////////////////////////////////\n    /// @dev                                                                                     ////\n    /// Address Setters                                                                          ////\n    /////////////////////////////////////////////////////////////////////////////////////////////////\n    /////////////////////////////////////////////////////////////////////////////////////////////////\n\n        function setnewAddressManager(address newAddressManagerAddress) public THE_COURT BAILIFF {\n            require(newAddressManagerAddress != address(0), errorMessage);\n            newAddressManager = newAddressManagerAddress;\n            hasMovedToNewAddress = true;\n            _resetVote();\n\n            emit AddressUpdated(newAddressManagerAddress, \"New AddressManagerAddress\");\n        }\n\n\n        function _setAgent( bytes32 ROLE , address newAgentAddress) internal returns (bool) {\n            require(newAgentAddress != address(0), errorMessage);\n            require(!hasRole(ROLE, newAgentAddress));\n            grantRole(ROLE, newAgentAddress);\n            emit AddressUpdated(newAgentAddress, \"Check Role Events\" );\n            return true;\n        }\n\n        /// Change the Gavel Agent Address\n        function addGavelAgent(address newAgentAddress) public GAVELS {\n            bool success = _setAgent(GAVELS_BAILIFF, newAgentAddress);\n            require(success == true);\n            emit AddressUpdated(newAgentAddress, \"New Gavel Agent\");\n        }\n\n\n        /// Change the Jury Agent Address\n        function addJuryAgent(address newAgentAddress) public GAVELS {\n            bool success = _setAgent(JURY_BAILIFF, newAgentAddress);\n            require(success == true);\n            emit AddressUpdated(newAgentAddress, \"New Jury Agent\");\n\n        }\n\n        function addMiniBailiff(address newAgentAddress) public BAILIFF {\n            bool success = _setAgent(MINI_BAILIFF_ROLE, newAgentAddress);\n            require(success == true);\n            emit AddressUpdated(newAgentAddress, \"New Mini Bailiff\");\n        }\n\n        /// Change the Court Agent Address\n        function setTheCourtAgent(address newAgentAddress) public GAVELS {\n            bool success = _setAgent(THE_COURT_ROLE, newAgentAddress);\n            require(success == true);\n            emit AddressUpdated(newAgentAddress, \"New Court Elected\");\n        }\n\n        /// Change the Treasury Address\n        function setTreasuryAddress(address newTreasuryAddress) public THE_COURT {\n            require(newTreasuryAddress != address(0), errorMessage);\n            TreasuryAddress = newTreasuryAddress;\n            _resetVote();\n            emit AddressUpdated(newTreasuryAddress, \"New Treasury Address\");\n        }\n\n        function setCourtAddress(address newCourtAddress) public THE_COURT {\n            require(newCourtAddress != address(0), zeroAddressWarning);\n            TheCourtAddress = newCourtAddress;\n            _resetVote();\n            emit AddressUpdated(newCourtAddress, \"New Court Address\");\n            \n        }\n\n        function setGavelTokenAddress(address newGavelTokenAddress) public GAVELS {\n            require(newGavelTokenAddress != address(0), zeroAddressWarning);\n            require(newGavelTokenAddress != RedPenTokenAddress, \"Don't mess with the balance of power\");\n            GavelTokenAddress = newGavelTokenAddress;\n    \n            emit AddressUpdated(newGavelTokenAddress, \"New Gavel Token Address\");            \n        }\n\n        function setJuryPoolAddress(address newJuryPoolAddress) public JURY  {\n            require(newJuryPoolAddress != address(0), zeroAddressWarning);\n            require(newJuryPoolAddress != GavelTokenAddress, \"Don't mess with the balance of power\");\n            JuryPoolAddress = newJuryPoolAddress;\n     \n            emit AddressUpdated(newJuryPoolAddress, \"New Jury Pool Address\"); \n        }\n\n        function setRedPenTokenAddress(address newRedPenTokenAddress) public JURY  {\n            require(newRedPenTokenAddress != address(0), zeroAddressWarning);\n            require(newRedPenTokenAddress != GavelTokenAddress, \"Don't mess with the balance of power\");\n            RedPenTokenAddress = newRedPenTokenAddress;\n\n            emit AddressUpdated(newRedPenTokenAddress, \"New Red Pen Token Address\"); \n        }\n\n        function setGoldStarAddress(address newGoldStarAddress) public THE_COURT {\n            require(newGoldStarAddress != address(0), zeroAddressWarning);\n            require(newGoldStarAddress != GavelTokenAddress && newGoldStarAddress != RedPenTokenAddress, \"What are you doing?\");\n            GoldStarAddress = newGoldStarAddress;\n            _resetVote();\n            emit AddressUpdated(newGoldStarAddress, \"New Gold Star Address\"); \n        }\n\n        function setPinkSlipAddress(address newPinkSlipAddress) public THE_COURT {\n            require(newPinkSlipAddress != address(0), zeroAddressWarning);\n            require(newPinkSlipAddress != GavelTokenAddress && newPinkSlipAddress != RedPenTokenAddress, \"What are you doing?\");\n            PinkSlipAddress = newPinkSlipAddress;\n            _resetVote();\n            emit AddressUpdated(newPinkSlipAddress, \"New PinkSlip Address\");\n        }\n\n        function setChadBadgeAddress(address newChadBadgeAddress) public THE_COURT {\n            require(newChadBadgeAddress != address(0), zeroAddressWarning);\n            require(newChadBadgeAddress != GavelTokenAddress && newChadBadgeAddress != RedPenTokenAddress, \"What are you doing?\");\n            ChadBadgeAddress = newChadBadgeAddress;\n            _resetVote();\n            emit AddressUpdated(newChadBadgeAddress, \"New ChadBadge Address\");\n        }\n\n\n\n    /////////////////////////////////////////////////////////////////////////////////////////////////\n    /////////////////////////////////////////////////////////////////////////////////////////////////\n    /// @dev  END                                                                                ////\n    /////////////////////////////////////////////////////////////////////////////////////////////////\n    /////////////////////////////////////////////////////////////////////////////////////////////////\n    }\n\n\n    /////////////////////////////////////////////////////////////////////////////////////////////////\n    /////////////////////////////////////////////////////////////////////////////////////////////////\n    /// @dev                                                                                     ////\n    /// @dev                                                                                     ////\n    /// @dev                                                                                     ////\n    /////////////////////////////////////////////////////////////////////////////////////////////////\n    /////////////////////////////////////////////////////////////////////////////////////////////////\n\n    /////////////////////////////////////////////////////////////////////////////////////////////////\n    /////////////////////////////////////////////////////////////////////////////////////////////////\n    /// @dev                                                                                     ////\n    /// @dev                                                                                     ////\n    /////////////////////////////////////////////////////////////////////////////////////////////////\n    /////////////////////////////////////////////////////////////////////////////////////////////////",
  "sourcePath": "/home/n/Desktop/PinkSlips_FrontEnd_REFORMAT (copy)/contracts/src/AddressManager.sol",
  "compiler": {
    "name": "solc",
    "version": "0.8.6+commit.11564f7e.Emscripten.clang"
  },
  "schemaVersion": "3.4.1",
  "updatedAt": "2021-08-08T03:03:57.421Z",
  "networkType": "ethereum",
  "devdoc": {
    "kind": "dev",
    "methods": {
      "getRoleAdmin(bytes32)": {
        "details": "Returns the admin role that controls `role`. See {grantRole} and {revokeRole}. To change a role's admin, use {_setRoleAdmin}."
      },
      "getRoleMember(bytes32,uint256)": {
        "details": "Returns one of the accounts that have `role`. `index` must be a value between 0 and {getRoleMemberCount}, non-inclusive. Role bearers are not sorted in any particular way, and their ordering may change at any point. WARNING: When using {getRoleMember} and {getRoleMemberCount}, make sure you perform all queries on the same block. See the following https://forum.openzeppelin.com/t/iterating-over-elements-on-enumerableset-in-openzeppelin-contracts/2296[forum post] for more information."
      },
      "getRoleMemberCount(bytes32)": {
        "details": "Returns the number of accounts that have `role`. Can be used together with {getRoleMember} to enumerate all bearers of a role."
      },
      "grantRole(bytes32,address)": {
        "details": "Overload {grantRole} to track enumerable memberships"
      },
      "hasRole(bytes32,address)": {
        "details": "Returns `true` if `account` has been granted `role`."
      },
      "renounceRole(bytes32,address)": {
        "details": "Overload {renounceRole} to track enumerable memberships"
      },
      "revokeRole(bytes32,address)": {
        "details": "Overload {revokeRole} to track enumerable memberships"
      },
      "setnewAddressManager(address)": {
        "details": "//// Address Setters                                                                          ////"
      },
      "supportsInterface(bytes4)": {
        "details": "See {IERC165-supportsInterface}."
      },
      "vote(bool)": {
        "details": "//// Consensus Machine                                                                        ////"
      }
    },
    "version": 1
  },
  "userdoc": {
    "kind": "user",
    "methods": {
      "GavelTokenAddress()": {
        "notice": "Change the Gavels Agent Address"
      },
      "addGavelAgent(address)": {
        "notice": "Change the Gavel Agent Address"
      },
      "addJuryAgent(address)": {
        "notice": "Change the Jury Agent Address"
      },
      "setTheCourtAgent(address)": {
        "notice": "Change the Court Agent Address"
      },
      "setTreasuryAddress(address)": {
        "notice": "Change the Treasury Address"
      }
    },
    "version": 1
  }
}