{
  "contractName": "AddressManager",
  "abi": [
    {
      "inputs": [
        {
          "internalType": "address",
          "name": "juryDAOAgent",
          "type": "address"
        },
        {
          "internalType": "address",
          "name": "gavelDAOAgent",
          "type": "address"
        },
        {
          "internalType": "address",
          "name": "treasuryAddress",
          "type": "address"
        },
        {
          "internalType": "address",
          "name": "theCourtAddress",
          "type": "address"
        },
        {
          "internalType": "address",
          "name": "_MiniBailiff",
          "type": "address"
        }
      ],
      "stateMutability": "nonpayable",
      "type": "constructor"
    },
    {
      "anonymous": false,
      "inputs": [
        {
          "indexed": false,
          "internalType": "address",
          "name": "",
          "type": "address"
        },
        {
          "indexed": false,
          "internalType": "string",
          "name": "",
          "type": "string"
        }
      ],
      "name": "AddressUpdated",
      "type": "event"
    },
    {
      "anonymous": false,
      "inputs": [
        {
          "indexed": true,
          "internalType": "bytes32",
          "name": "role",
          "type": "bytes32"
        },
        {
          "indexed": true,
          "internalType": "bytes32",
          "name": "previousAdminRole",
          "type": "bytes32"
        },
        {
          "indexed": true,
          "internalType": "bytes32",
          "name": "newAdminRole",
          "type": "bytes32"
        }
      ],
      "name": "RoleAdminChanged",
      "type": "event"
    },
    {
      "anonymous": false,
      "inputs": [
        {
          "indexed": true,
          "internalType": "bytes32",
          "name": "role",
          "type": "bytes32"
        },
        {
          "indexed": true,
          "internalType": "address",
          "name": "account",
          "type": "address"
        },
        {
          "indexed": true,
          "internalType": "address",
          "name": "sender",
          "type": "address"
        }
      ],
      "name": "RoleGranted",
      "type": "event"
    },
    {
      "anonymous": false,
      "inputs": [
        {
          "indexed": true,
          "internalType": "bytes32",
          "name": "role",
          "type": "bytes32"
        },
        {
          "indexed": true,
          "internalType": "address",
          "name": "account",
          "type": "address"
        },
        {
          "indexed": true,
          "internalType": "address",
          "name": "sender",
          "type": "address"
        }
      ],
      "name": "RoleRevoked",
      "type": "event"
    },
    {
      "inputs": [],
      "name": "ChadBadgeAddress",
      "outputs": [
        {
          "internalType": "address",
          "name": "",
          "type": "address"
        }
      ],
      "stateMutability": "view",
      "type": "function",
      "constant": true
    },
    {
      "inputs": [],
      "name": "DEFAULT_ADMIN_ROLE",
      "outputs": [
        {
          "internalType": "bytes32",
          "name": "",
          "type": "bytes32"
        }
      ],
      "stateMutability": "view",
      "type": "function",
      "constant": true
    },
    {
      "inputs": [],
      "name": "GAVELS_BAILIFF",
      "outputs": [
        {
          "internalType": "bytes32",
          "name": "",
          "type": "bytes32"
        }
      ],
      "stateMutability": "view",
      "type": "function",
      "constant": true
    },
    {
      "inputs": [],
      "name": "GavelDAOAgent",
      "outputs": [
        {
          "internalType": "address",
          "name": "",
          "type": "address"
        }
      ],
      "stateMutability": "view",
      "type": "function",
      "constant": true
    },
    {
      "inputs": [],
      "name": "GavelTokenAddress",
      "outputs": [
        {
          "internalType": "address",
          "name": "",
          "type": "address"
        }
      ],
      "stateMutability": "view",
      "type": "function",
      "constant": true
    },
    {
      "inputs": [],
      "name": "GavelVote",
      "outputs": [
        {
          "internalType": "bool",
          "name": "",
          "type": "bool"
        }
      ],
      "stateMutability": "view",
      "type": "function",
      "constant": true
    },
    {
      "inputs": [],
      "name": "GoldStarAddress",
      "outputs": [
        {
          "internalType": "address",
          "name": "",
          "type": "address"
        }
      ],
      "stateMutability": "view",
      "type": "function",
      "constant": true
    },
    {
      "inputs": [],
      "name": "JERK_ROLE",
      "outputs": [
        {
          "internalType": "bytes32",
          "name": "",
          "type": "bytes32"
        }
      ],
      "stateMutability": "view",
      "type": "function",
      "constant": true
    },
    {
      "inputs": [],
      "name": "JURY_BAILIFF",
      "outputs": [
        {
          "internalType": "bytes32",
          "name": "",
          "type": "bytes32"
        }
      ],
      "stateMutability": "view",
      "type": "function",
      "constant": true
    },
    {
      "inputs": [],
      "name": "JuryDAOAgent",
      "outputs": [
        {
          "internalType": "address",
          "name": "",
          "type": "address"
        }
      ],
      "stateMutability": "view",
      "type": "function",
      "constant": true
    },
    {
      "inputs": [],
      "name": "JuryPoolAddress",
      "outputs": [
        {
          "internalType": "address",
          "name": "",
          "type": "address"
        }
      ],
      "stateMutability": "view",
      "type": "function",
      "constant": true
    },
    {
      "inputs": [],
      "name": "JuryVote",
      "outputs": [
        {
          "internalType": "bool",
          "name": "",
          "type": "bool"
        }
      ],
      "stateMutability": "view",
      "type": "function",
      "constant": true
    },
    {
      "inputs": [],
      "name": "MINI_BAILIFF_ROLE",
      "outputs": [
        {
          "internalType": "bytes32",
          "name": "",
          "type": "bytes32"
        }
      ],
      "stateMutability": "view",
      "type": "function",
      "constant": true
    },
    {
      "inputs": [],
      "name": "MiniBailiff",
      "outputs": [
        {
          "internalType": "address",
          "name": "",
          "type": "address"
        }
      ],
      "stateMutability": "view",
      "type": "function",
      "constant": true
    },
    {
      "inputs": [],
      "name": "PinkSlipAddress",
      "outputs": [
        {
          "internalType": "address",
          "name": "",
          "type": "address"
        }
      ],
      "stateMutability": "view",
      "type": "function",
      "constant": true
    },
    {
      "inputs": [],
      "name": "RedPenTokenAddress",
      "outputs": [
        {
          "internalType": "address",
          "name": "",
          "type": "address"
        }
      ],
      "stateMutability": "view",
      "type": "function",
      "constant": true
    },
    {
      "inputs": [],
      "name": "THE_COURT_ROLE",
      "outputs": [
        {
          "internalType": "bytes32",
          "name": "",
          "type": "bytes32"
        }
      ],
      "stateMutability": "view",
      "type": "function",
      "constant": true
    },
    {
      "inputs": [],
      "name": "TheCourtAddress",
      "outputs": [
        {
          "internalType": "address",
          "name": "",
          "type": "address"
        }
      ],
      "stateMutability": "view",
      "type": "function",
      "constant": true
    },
    {
      "inputs": [],
      "name": "TreasuryAddress",
      "outputs": [
        {
          "internalType": "address",
          "name": "",
          "type": "address"
        }
      ],
      "stateMutability": "view",
      "type": "function",
      "constant": true
    },
    {
      "inputs": [
        {
          "internalType": "bytes32",
          "name": "role",
          "type": "bytes32"
        }
      ],
      "name": "getRoleAdmin",
      "outputs": [
        {
          "internalType": "bytes32",
          "name": "",
          "type": "bytes32"
        }
      ],
      "stateMutability": "view",
      "type": "function",
      "constant": true
    },
    {
      "inputs": [
        {
          "internalType": "bytes32",
          "name": "role",
          "type": "bytes32"
        },
        {
          "internalType": "uint256",
          "name": "index",
          "type": "uint256"
        }
      ],
      "name": "getRoleMember",
      "outputs": [
        {
          "internalType": "address",
          "name": "",
          "type": "address"
        }
      ],
      "stateMutability": "view",
      "type": "function",
      "constant": true
    },
    {
      "inputs": [
        {
          "internalType": "bytes32",
          "name": "role",
          "type": "bytes32"
        }
      ],
      "name": "getRoleMemberCount",
      "outputs": [
        {
          "internalType": "uint256",
          "name": "",
          "type": "uint256"
        }
      ],
      "stateMutability": "view",
      "type": "function",
      "constant": true
    },
    {
      "inputs": [
        {
          "internalType": "bytes32",
          "name": "role",
          "type": "bytes32"
        },
        {
          "internalType": "address",
          "name": "account",
          "type": "address"
        }
      ],
      "name": "grantRole",
      "outputs": [],
      "stateMutability": "nonpayable",
      "type": "function"
    },
    {
      "inputs": [],
      "name": "hasMovedToNewAddress",
      "outputs": [
        {
          "internalType": "bool",
          "name": "",
          "type": "bool"
        }
      ],
      "stateMutability": "view",
      "type": "function",
      "constant": true
    },
    {
      "inputs": [
        {
          "internalType": "bytes32",
          "name": "role",
          "type": "bytes32"
        },
        {
          "internalType": "address",
          "name": "account",
          "type": "address"
        }
      ],
      "name": "hasRole",
      "outputs": [
        {
          "internalType": "bool",
          "name": "",
          "type": "bool"
        }
      ],
      "stateMutability": "view",
      "type": "function",
      "constant": true
    },
    {
      "inputs": [],
      "name": "jerkSanctions",
      "outputs": [
        {
          "internalType": "bool",
          "name": "",
          "type": "bool"
        }
      ],
      "stateMutability": "view",
      "type": "function",
      "constant": true
    },
    {
      "inputs": [],
      "name": "newAddressManager",
      "outputs": [
        {
          "internalType": "address",
          "name": "",
          "type": "address"
        }
      ],
      "stateMutability": "view",
      "type": "function",
      "constant": true
    },
    {
      "inputs": [
        {
          "internalType": "bool",
          "name": "areYouSure",
          "type": "bool"
        }
      ],
      "name": "purgeSelf",
      "outputs": [
        {
          "internalType": "bool",
          "name": "",
          "type": "bool"
        }
      ],
      "stateMutability": "nonpayable",
      "type": "function"
    },
    {
      "inputs": [
        {
          "internalType": "address",
          "name": "addressToPurge",
          "type": "address"
        }
      ],
      "name": "purgeUser",
      "outputs": [],
      "stateMutability": "nonpayable",
      "type": "function"
    },
    {
      "inputs": [
        {
          "internalType": "bytes32",
          "name": "role",
          "type": "bytes32"
        },
        {
          "internalType": "address",
          "name": "account",
          "type": "address"
        }
      ],
      "name": "renounceRole",
      "outputs": [],
      "stateMutability": "nonpayable",
      "type": "function"
    },
    {
      "inputs": [
        {
          "internalType": "bytes32",
          "name": "ROLE_TO_UPDATE",
          "type": "bytes32"
        },
        {
          "internalType": "address",
          "name": "newRoleHolder",
          "type": "address"
        }
      ],
      "name": "resetSingleRole",
      "outputs": [],
      "stateMutability": "nonpayable",
      "type": "function"
    },
    {
      "inputs": [],
      "name": "resetVote",
      "outputs": [],
      "stateMutability": "nonpayable",
      "type": "function"
    },
    {
      "inputs": [
        {
          "internalType": "bytes32",
          "name": "role",
          "type": "bytes32"
        },
        {
          "internalType": "address",
          "name": "account",
          "type": "address"
        }
      ],
      "name": "revokeRole",
      "outputs": [],
      "stateMutability": "nonpayable",
      "type": "function"
    },
    {
      "inputs": [
        {
          "internalType": "bytes4",
          "name": "interfaceId",
          "type": "bytes4"
        }
      ],
      "name": "supportsInterface",
      "outputs": [
        {
          "internalType": "bool",
          "name": "",
          "type": "bool"
        }
      ],
      "stateMutability": "view",
      "type": "function",
      "constant": true
    },
    {
      "inputs": [],
      "name": "toggleJerkSanctions",
      "outputs": [],
      "stateMutability": "nonpayable",
      "type": "function"
    },
    {
      "inputs": [
        {
          "internalType": "bool",
          "name": "_vote",
          "type": "bool"
        }
      ],
      "name": "vote",
      "outputs": [],
      "stateMutability": "nonpayable",
      "type": "function"
    },
    {
      "inputs": [
        {
          "internalType": "address",
          "name": "newAddressManagerAddress",
          "type": "address"
        }
      ],
      "name": "setnewAddressManager",
      "outputs": [],
      "stateMutability": "nonpayable",
      "type": "function"
    },
    {
      "inputs": [
        {
          "internalType": "address",
          "name": "newAgentAddress",
          "type": "address"
        }
      ],
      "name": "addGavelAgent",
      "outputs": [],
      "stateMutability": "nonpayable",
      "type": "function"
    },
    {
      "inputs": [
        {
          "internalType": "address",
          "name": "newAgentAddress",
          "type": "address"
        }
      ],
      "name": "addJuryAgent",
      "outputs": [],
      "stateMutability": "nonpayable",
      "type": "function"
    },
    {
      "inputs": [
        {
          "internalType": "address",
          "name": "newAgentAddress",
          "type": "address"
        }
      ],
      "name": "addMiniBailiff",
      "outputs": [],
      "stateMutability": "nonpayable",
      "type": "function"
    },
    {
      "inputs": [
        {
          "internalType": "address",
          "name": "newAgentAddress",
          "type": "address"
        }
      ],
      "name": "setTheCourtAgent",
      "outputs": [],
      "stateMutability": "nonpayable",
      "type": "function"
    },
    {
      "inputs": [
        {
          "internalType": "address",
          "name": "newTreasuryAddress",
          "type": "address"
        }
      ],
      "name": "setTreasuryAddress",
      "outputs": [],
      "stateMutability": "nonpayable",
      "type": "function"
    },
    {
      "inputs": [
        {
          "internalType": "address",
          "name": "newCourtAddress",
          "type": "address"
        }
      ],
      "name": "setCourtAddress",
      "outputs": [],
      "stateMutability": "nonpayable",
      "type": "function"
    },
    {
      "inputs": [
        {
          "internalType": "address",
          "name": "newGavelTokenAddress",
          "type": "address"
        }
      ],
      "name": "setGavelTokenAddress",
      "outputs": [],
      "stateMutability": "nonpayable",
      "type": "function"
    },
    {
      "inputs": [
        {
          "internalType": "address",
          "name": "newJuryPoolAddress",
          "type": "address"
        }
      ],
      "name": "setJuryPoolAddress",
      "outputs": [],
      "stateMutability": "nonpayable",
      "type": "function"
    },
    {
      "inputs": [
        {
          "internalType": "address",
          "name": "newRedPenTokenAddress",
          "type": "address"
        }
      ],
      "name": "setRedPenTokenAddress",
      "outputs": [],
      "stateMutability": "nonpayable",
      "type": "function"
    },
    {
      "inputs": [
        {
          "internalType": "address",
          "name": "newGoldStarAddress",
          "type": "address"
        }
      ],
      "name": "setGoldStarAddress",
      "outputs": [],
      "stateMutability": "nonpayable",
      "type": "function"
    },
    {
      "inputs": [
        {
          "internalType": "address",
          "name": "newPinkSlipAddress",
          "type": "address"
        }
      ],
      "name": "setPinkSlipAddress",
      "outputs": [],
      "stateMutability": "nonpayable",
      "type": "function"
    },
    {
      "inputs": [
        {
          "internalType": "address",
          "name": "newChadBadgeAddress",
          "type": "address"
        }
      ],
      "name": "setChadBadgeAddress",
      "outputs": [],
      "stateMutability": "nonpayable",
      "type": "function"
    }
  ],
  "bytecode": "0x6002805462ffffff19169055600d805460ff60a01b1916905560c0604052601d60808190527f7468652068656c6c2061726520796f7520646f696e673f2043276d6f6e00000060a09081526200005991600e91906200039a565b50604080518082019091526005808252642193b6b7b760d91b60209092019182526200008891600f916200039a565b503480156200009657600080fd5b506040516200314e3803806200314e833981016040819052620000b9916200045d565b848483620000c960008262000209565b620000f57f0538d24a8b7882d7b2e36af243d4af61c23e86e3daa6cb8c887b53220b2f57208262000209565b620001217f048bc71fa1cb2c119c339cf9cf00a97996a19a9d991ce5fe049f2fa5459e79908362000209565b6200014d7ffa8e4989e1d689f7bc5c4b25b87efb51fecdecb19ba62847e29c759e12a89acd8462000209565b620001797ff0f4b159a6e2a4815eb3ca3df080bfa70c9270662c59bcaa4479a456220183e68262000209565b620001a67f7c9d7f6f02908185bffb3f7fc9afb29fd7bf93675af8fd4b655ee05c2cee1e0e600062000209565b5050600880546001600160a01b03199081166001600160a01b03978816179091556009805482169787169790971790965550600a8054861693851693909317909255600b80548516918416919091179055600c8054909316911617905562000509565b6200022082826200024c60201b620019db1760201c565b600082815260016020908152604090912062000247918390620019e56200025c821b17901c565b505050565b6200025882826200027c565b5050565b600062000273836001600160a01b03841662000306565b90505b92915050565b62000288828262000355565b62000258576000828152602081815260408083206001600160a01b03851684529091529020805460ff19166001179055620002c26200037e565b6001600160a01b0316816001600160a01b0316837f2f8788117e7eff1d82e926ec794901d17c78024a50270940304540a733656f0d60405160405180910390a45050565b600062000314838362000382565b6200034c5750815460018181018455600084815260208082209093018490558454848252828601909352604090209190915562000276565b50600062000276565b6000918252602082815260408084206001600160a01b0393909316845291905290205460ff1690565b3390565b60009081526001919091016020526040902054151590565b828054620003a890620004cc565b90600052602060002090601f016020900481019282620003cc576000855562000417565b82601f10620003e757805160ff191683800117855562000417565b8280016001018555821562000417579182015b8281111562000417578251825591602001919060010190620003fa565b506200042592915062000429565b5090565b5b808211156200042557600081556001016200042a565b80516001600160a01b03811681146200045857600080fd5b919050565b600080600080600060a0868803121562000475578081fd5b620004808662000440565b9450620004906020870162000440565b9350620004a06040870162000440565b9250620004b06060870162000440565b9150620004c06080870162000440565b90509295509295909350565b600281046001821680620004e157607f821691505b602082108114156200050357634e487b7160e01b600052602260045260246000fd5b50919050565b612c3580620005196000396000f3fe608060405234801561001057600080fd5b50600436106102bb5760003560e01c80639010d07c11610182578063caed2302116100e9578063dadf56ac116100a2578063ef75cbc21161007c578063ef75cbc214610557578063f98447ac1461056a578063fe525a6c14610572578063ff7e88ec14610585576102bb565b8063dadf56ac1461053f578063e6217e3a14610547578063e9a532301461054f576102bb565b8063caed2302146104e3578063cb6d5574146104f6578063cce8439214610509578063cf4ece1514610511578063d547741f14610519578063da6cb6061461052c576102bb565b8063a78e746f1161013b578063a78e746f14610492578063a7b9ee5a1461049a578063ac7cfac3146104ad578063bfb7dc99146104b5578063c0f647ab146104bd578063ca15c873146104d0576102bb565b80639010d07c1461044157806391d148541461045457806396c4f40514610467578063a217fddf1461047a578063a32c5e5914610482578063a44b93251461048a576102bb565b80633f86ea7c116102265780635f88b566116101df5780635f88b566146103e55780636605bfda146103f85780636b5847751461040b578063762ddb59146104135780637e253e0a1461041b5780638c838d6f1461042e576102bb565b80633f86ea7c146103945780634a6d42441461039c5780634b9f5c98146103af5780635b5c251f146103c25780635be78997146103ca5780635f413466146103dd576102bb565b8063248a9ca311610278578063248a9ca3146103435780632f2ff15d146103565780632fb5658514610369578063329a8cfa1461037157806336568abe1461037957806336e969a21461038c576102bb565b806301ffc9a7146102c0578063024bebe9146102e95780630a726d14146102fe578063104c0f1f1461031357806321d7f008146103265780632436329d1461032e575b600080fd5b6102d36102ce366004612346565b61058d565b6040516102e09190612795565b60405180910390f35b6102f16105ba565b6040516102e091906123fb565b61031161030c366004612286565b6105c9565b005b610311610321366004612286565b6106b1565b6102f1610787565b61033661079d565b6040516102e091906127a0565b6103366103513660046122de565b6107af565b6103116103643660046122f6565b6107c4565b6102d36107eb565b6103116107fa565b6103116103873660046122f6565b610874565b610311610896565b6102f1610913565b6103116103aa366004612286565b610922565b6103116103bd3660046122be565b610a9a565b6102f1610bc7565b6103116103d8366004612286565b610bd6565b6102f1610cc2565b6102d36103f33660046122be565b610cd1565b610311610406366004612286565b610cf9565b6102f1610e17565b6102f1610e26565b610311610429366004612286565b610e35565b61031161043c366004612286565b610f1f565b6102f161044f366004612325565b61103d565b6102d36104623660046122f6565b61105e565b610311610475366004612286565b611087565b6103366111f4565b6103366111f9565b6102d361120b565b6102d361121b565b6103116104a8366004612286565b611224565b6102f16112be565b6102f16112cd565b6103116104cb366004612286565b6112dc565b6103366104de3660046122de565b611376565b6103116104f1366004612286565b61138d565b6103116105043660046122f6565b611477565b610336611598565b6103366115bc565b6103116105273660046122f6565b6115e0565b61031161053a366004612286565b6115ea565b6102f1611757565b6102f1611766565b610336611775565b610311610565366004612286565b611787565b6102f1611821565b610311610580366004612286565b611830565b6102d36119cd565b60006001600160e01b03198216635a05180f60e01b14806105b257506105b2826119fa565b90505b919050565b6009546001600160a01b031681565b6105e1600080516020612ba08339815191523361105e565b806105ff57506105ff600080516020612b808339815191523361105e565b8061061d575061061d600080516020612be08339815191523361105e565b61062657600080fd5b600254610100810460ff90811615156201000090920416151514600114806106615750610661600080516020612be08339815191523361105e565b6106865760405162461bcd60e51b815260040161067d90612922565b60405180910390fd5b6001600160a01b03811633141561069c57600080fd5b6106a581611a1f565b506106ae611a74565b50565b6106c9600080516020612be08339815191523361105e565b806106e757506106e7600080516020612ba08339815191523361105e565b806107055750610705600080516020612b808339815191523361105e565b6107215760405162461bcd60e51b815260040161067d9061294c565b600061074d7ff0f4b159a6e2a4815eb3ca3df080bfa70c9270662c59bcaa4479a456220183e683611a82565b905060018115151461075e57600080fd5b600080516020612bc08339815191528260405161077b91906124d5565b60405180910390a15050565b600254630100000090046001600160a01b031681565b600080516020612b8083398151915281565b60009081526020819052604090206001015490565b6107ce8282611afa565b60008281526001602052604090206107e690826119e5565b505050565b60025462010000900460ff1681565b610812600080516020612be08339815191523361105e565b806108305750610830600080516020612ba08339815191523361105e565b8061084e575061084e600080516020612b808339815191523361105e565b61086a5760405162461bcd60e51b815260040161067d9061294c565b610872611a74565b565b61087e8282611b1e565b60008281526001602052604090206107e69082611b60565b6108ae600080516020612b808339815191523361105e565b806108cc57506108cc600080516020612be08339815191523361105e565b6108e85760405162461bcd60e51b815260040161067d9061297c565b60025460ff16151560011415610907576002805460ff19169055610872565b6002805460ff19169055565b6006546001600160a01b031681565b61093a600080516020612ba08339815191523361105e565b806109585750610958600080516020612b808339815191523361105e565b806109765750610976600080516020612be08339815191523361105e565b61097f57600080fd5b600254610100810460ff90811615156201000090920416151514600114806109ba57506109ba600080516020612be08339815191523361105e565b6109d65760405162461bcd60e51b815260040161067d90612922565b600f6001600160a01b0382166109ff5760405162461bcd60e51b815260040161067d9190612801565b506002546001600160a01b0382811663010000009092041614801590610a3357506003546001600160a01b03828116911614155b610a4f5760405162461bcd60e51b815260040161067d906129a9565b600680546001600160a01b0319166001600160a01b038316179055610a72611a74565b600080516020612bc083398151915281604051610a8f919061271a565b60405180910390a150565b610ab2600080516020612be08339815191523361105e565b80610ad05750610ad0600080516020612ba08339815191523361105e565b80610aee5750610aee600080516020612b808339815191523361105e565b610b0a5760405162461bcd60e51b815260040161067d9061294c565b610b22600080516020612be08339815191523361105e565b15610b5b5760028054610100831515810261ff00199092169190911790810460ff161515620100000262ff0000199091161790556106ae565b610b73600080516020612ba08339815191523361105e565b15610b90576002805461ff001916610100831515021790556106ae565b610ba8600080516020612b808339815191523361105e565b156106ae5760028054821515620100000262ff00001990911617905550565b600a546001600160a01b031681565b610bee600080516020612ba08339815191523361105e565b80610c0c5750610c0c600080516020612be08339815191523361105e565b610c285760405162461bcd60e51b815260040161067d906129d6565b600f6001600160a01b038216610c515760405162461bcd60e51b815260040161067d9190612801565b506003546001600160a01b0382811691161415610c805760405162461bcd60e51b815260040161067d90612a05565b600280546301000000600160b81b03191663010000006001600160a01b03841602179055604051600080516020612bc083398151915290610a8f908390612696565b600b546001600160a01b031681565b600060018215151415610cf157610ce733611b75565b50600190506105b5565b5060006105b5565b610d11600080516020612ba08339815191523361105e565b80610d2f5750610d2f600080516020612b808339815191523361105e565b80610d4d5750610d4d600080516020612be08339815191523361105e565b610d5657600080fd5b600254610100810460ff9081161515620100009092041615151460011480610d915750610d91600080516020612be08339815191523361105e565b610dad5760405162461bcd60e51b815260040161067d90612922565b600e6001600160a01b038216610dd65760405162461bcd60e51b815260040161067d9190612801565b50600a80546001600160a01b0319166001600160a01b038316179055610dfa611a74565b600080516020612bc083398151915281604051610a8f9190612495565b6007546001600160a01b031681565b6003546001600160a01b031681565b610e4d600080516020612b808339815191523361105e565b80610e6b5750610e6b600080516020612be08339815191523361105e565b610e875760405162461bcd60e51b815260040161067d9061297c565b600f6001600160a01b038216610eb05760405162461bcd60e51b815260040161067d9190612801565b506002546001600160a01b038281166301000000909204161415610ee65760405162461bcd60e51b815260040161067d90612a05565b600380546001600160a01b0319166001600160a01b038316179055604051600080516020612bc083398151915290610a8f90839061244c565b610f37600080516020612ba08339815191523361105e565b80610f555750610f55600080516020612b808339815191523361105e565b80610f735750610f73600080516020612be08339815191523361105e565b610f7c57600080fd5b600254610100810460ff9081161515620100009092041615151460011480610fb75750610fb7600080516020612be08339815191523361105e565b610fd35760405162461bcd60e51b815260040161067d90612922565b600f6001600160a01b038216610ffc5760405162461bcd60e51b815260040161067d9190612801565b50600b80546001600160a01b0319166001600160a01b038316179055611020611a74565b600080516020612bc083398151915281604051610a8f9190612659565b60008281526001602052604081206110559083611bca565b90505b92915050565b6000918252602082815260408084206001600160a01b0393909316845291905290205460ff1690565b61109f600080516020612ba08339815191523361105e565b806110bd57506110bd600080516020612b808339815191523361105e565b806110db57506110db600080516020612be08339815191523361105e565b6110e457600080fd5b600254610100810460ff908116151562010000909204161515146001148061111f575061111f600080516020612be08339815191523361105e565b61113b5760405162461bcd60e51b815260040161067d90612922565b600f6001600160a01b0382166111645760405162461bcd60e51b815260040161067d9190612801565b506002546001600160a01b038281166301000000909204161480159061119857506003546001600160a01b03828116911614155b6111b45760405162461bcd60e51b815260040161067d906129a9565b600480546001600160a01b0319166001600160a01b0383161790556111d7611a74565b600080516020612bc083398151915281604051610a8f91906125cf565b600081565b600080516020612be083398151915281565b600d54600160a01b900460ff1681565b60025460ff1681565b61123c600080516020612ba08339815191523361105e565b8061125a575061125a600080516020612be08339815191523361105e565b6112765760405162461bcd60e51b815260040161067d906129d6565b6000611290600080516020612be083398151915283611a82565b90506001811515146112a157600080fd5b600080516020612bc08339815191528260405161077b9190612592565b600d546001600160a01b031681565b6004546001600160a01b031681565b6112f4600080516020612ba08339815191523361105e565b806113125750611312600080516020612be08339815191523361105e565b61132e5760405162461bcd60e51b815260040161067d906129d6565b6000611348600080516020612b8083398151915283611a82565b905060018115151461135957600080fd5b600080516020612bc08339815191528260405161077b919061275b565b60008181526001602052604081206105b290611bd6565b6113a5600080516020612b808339815191523361105e565b806113c357506113c3600080516020612be08339815191523361105e565b6113df5760405162461bcd60e51b815260040161067d9061297c565b600f6001600160a01b0382166114085760405162461bcd60e51b815260040161067d9190612801565b506002546001600160a01b03828116630100000090920416141561143e5760405162461bcd60e51b815260040161067d90612a05565b600780546001600160a01b0319166001600160a01b038316179055604051600080516020612bc083398151915290610a8f908390612551565b61148f600080516020612ba08339815191523361105e565b806114ad57506114ad600080516020612b808339815191523361105e565b806114cb57506114cb600080516020612be08339815191523361105e565b6114d457600080fd5b600254610100810460ff908116151562010000909204161515146001148061150f575061150f600080516020612be08339815191523361105e565b61152b5760405162461bcd60e51b815260040161067d90612922565b61153482611be1565b50604051632f2ff15d60e01b81523090632f2ff15d9061155a90859085906004016127a9565b600060405180830381600087803b15801561157457600080fd5b505af1158015611588573d6000803e3d6000fd5b50505050611594611a74565b5050565b7f7c9d7f6f02908185bffb3f7fc9afb29fd7bf93675af8fd4b655ee05c2cee1e0e81565b7ff0f4b159a6e2a4815eb3ca3df080bfa70c9270662c59bcaa4479a456220183e681565b61087e8282611d56565b611602600080516020612ba08339815191523361105e565b806116205750611620600080516020612b808339815191523361105e565b8061163e575061163e600080516020612be08339815191523361105e565b61164757600080fd5b600254610100810460ff90811615156201000090920416151514600114806116825750611682600080516020612be08339815191523361105e565b61169e5760405162461bcd60e51b815260040161067d90612922565b600f6001600160a01b0382166116c75760405162461bcd60e51b815260040161067d9190612801565b506002546001600160a01b03828116630100000090920416148015906116fb57506003546001600160a01b03828116911614155b6117175760405162461bcd60e51b815260040161067d906129a9565b600580546001600160a01b0319166001600160a01b03831617905561173a611a74565b600080516020612bc083398151915281604051610a8f9190612511565b6008546001600160a01b031681565b600c546001600160a01b031681565b600080516020612ba083398151915281565b61179f600080516020612ba08339815191523361105e565b806117bd57506117bd600080516020612be08339815191523361105e565b6117d95760405162461bcd60e51b815260040161067d906129d6565b60006117f3600080516020612ba083398151915283611a82565b905060018115151461180457600080fd5b600080516020612bc08339815191528260405161077b91906126df565b6005546001600160a01b031681565b611848600080516020612ba08339815191523361105e565b806118665750611866600080516020612b808339815191523361105e565b806118845750611884600080516020612be08339815191523361105e565b61188d57600080fd5b600254610100810460ff90811615156201000090920416151514600114806118c857506118c8600080516020612be08339815191523361105e565b6118e45760405162461bcd60e51b815260040161067d90612922565b6118fc600080516020612be08339815191523361105e565b8061191a575061191a600080516020612ba08339815191523361105e565b806119385750611938600080516020612b808339815191523361105e565b6119545760405162461bcd60e51b815260040161067d9061294c565b600e6001600160a01b03821661197d5760405162461bcd60e51b815260040161067d9190612801565b50600d8054600160a01b6001600160a01b03199091166001600160a01b0384161760ff60a01b19161790556119b0611a74565b600080516020612bc083398151915281604051610a8f9190612610565b600254610100900460ff1681565b6115948282611d75565b6000611055836001600160a01b038416611dfa565b60006001600160e01b03198216637965db0b60e01b14806105b257506105b282611e44565b6000611a39600080516020612b80833981519152836115e0565b611a51600080516020612ba0833981519152836115e0565b611a69600080516020612be0833981519152836115e0565b6105b56000836115e0565b6002805462ffff0019169055565b6000600e6001600160a01b038316611aad5760405162461bcd60e51b815260040161067d9190612801565b50611ab8838361105e565b15611ac257600080fd5b611acc83836107c4565b600080516020612bc083398151915282604051611ae9919061240f565b60405180910390a150600192915050565b611b03826107af565b611b1481611b0f611e5d565b611e61565b6107e68383611d75565b611b26611e5d565b6001600160a01b0316816001600160a01b031614611b565760405162461bcd60e51b815260040161067d90612a49565b6115948282611ec5565b6000611055836001600160a01b038416611f48565b6000611b8f600080516020612b8083398151915283610874565b611ba7600080516020612ba083398151915283610874565b611bbf600080516020612be083398151915283610874565b6105b5600083610874565b6000611055838361205f565b60006105b2826120b8565b60405163ca15c87360e01b81526000908190309063ca15c87390611c099086906004016127a0565b60206040518083038186803b158015611c2157600080fd5b505afa158015611c35573d6000803e3d6000fd5b505050506040513d601f19601f82011682018060405250810190611c59919061236e565b905060005b81811015611d4c57604051632404341f60e21b81526000903090639010d07c90611c8e90889086906004016127c0565b60206040518083038186803b158015611ca657600080fd5b505afa158015611cba573d6000803e3d6000fd5b505050506040513d601f19601f82011682018060405250810190611cde91906122a2565b60405163d547741f60e01b8152909150309063d547741f90611d0690889085906004016127a9565b600060405180830381600087803b158015611d2057600080fd5b505af1158015611d34573d6000803e3d6000fd5b50505050508080611d4490612b39565b915050611c5e565b5060019392505050565b611d5f826107af565b611d6b81611b0f611e5d565b6107e68383611ec5565b611d7f828261105e565b611594576000828152602081815260408083206001600160a01b03851684529091529020805460ff19166001179055611db6611e5d565b6001600160a01b0316816001600160a01b0316837f2f8788117e7eff1d82e926ec794901d17c78024a50270940304540a733656f0d60405160405180910390a45050565b6000611e0683836120bc565b611e3c57508154600181810184556000848152602080822090930184905584548482528286019093526040902091909155611058565b506000611058565b6001600160e01b031981166301ffc9a760e01b14919050565b3390565b611e6b828261105e565b61159457611e83816001600160a01b031660146120d4565b611e8e8360206120d4565b604051602001611e9f929190612386565b60408051601f198184030181529082905262461bcd60e51b825261067d916004016127ce565b611ecf828261105e565b15611594576000828152602081815260408083206001600160a01b03851684529091529020805460ff19169055611f04611e5d565b6001600160a01b0316816001600160a01b0316837ff6391f5c32d9c69d2a47ea670b442974b53935d1edc7fd64eb21e047a839171b60405160405180910390a45050565b60008181526001830160205260408120548015612055576000611f6c600183612adb565b8554909150600090611f8090600190612adb565b90506000866000018281548110611fa757634e487b7160e01b600052603260045260246000fd5b9060005260206000200154905080876000018481548110611fd857634e487b7160e01b600052603260045260246000fd5b60009182526020808320909101929092558281526001890190915260409020849055865487908061201957634e487b7160e01b600052603160045260246000fd5b60019003818190600052602060002001600090559055866001016000878152602001908152602001600020600090556001945050505050611058565b6000915050611058565b815460009082106120825760405162461bcd60e51b815260040161067d906128ab565b8260000182815481106120a557634e487b7160e01b600052603260045260246000fd5b9060005260206000200154905092915050565b5490565b60009081526001919091016020526040902054151590565b606060006120e3836002612abc565b6120ee906002612aa4565b67ffffffffffffffff81111561211457634e487b7160e01b600052604160045260246000fd5b6040519080825280601f01601f19166020018201604052801561213e576020820181803683370190505b509050600360fc1b8160008151811061216757634e487b7160e01b600052603260045260246000fd5b60200101906001600160f81b031916908160001a905350600f60fb1b816001815181106121a457634e487b7160e01b600052603260045260246000fd5b60200101906001600160f81b031916908160001a90535060006121c8846002612abc565b6121d3906001612aa4565b90505b6001811115612267576f181899199a1a9b1b9c1cb0b131b232b360811b85600f166010811061221557634e487b7160e01b600052603260045260246000fd5b1a60f81b82828151811061223957634e487b7160e01b600052603260045260246000fd5b60200101906001600160f81b031916908160001a90535060049490941c9361226081612b22565b90506121d6565b5083156110555760405162461bcd60e51b815260040161067d906128ed565b600060208284031215612297578081fd5b813561105581612b6a565b6000602082840312156122b3578081fd5b815161105581612b6a565b6000602082840312156122cf578081fd5b81358015158114611055578182fd5b6000602082840312156122ef578081fd5b5035919050565b60008060408385031215612308578081fd5b82359150602083013561231a81612b6a565b809150509250929050565b60008060408385031215612337578182fd5b50508035926020909101359150565b600060208284031215612357578081fd5b81356001600160e01b031981168114611055578182fd5b60006020828403121561237f578081fd5b5051919050565b60007f416363657373436f6e74726f6c3a206163636f756e7420000000000000000000825283516123be816017850160208801612af2565b7001034b99036b4b9b9b4b733903937b6329607d1b60179184019182015283516123ef816028840160208801612af2565b01602801949350505050565b6001600160a01b0391909116815260200190565b6001600160a01b0391909116815260406020820181905260119082015270436865636b20526f6c65204576656e747360781b606082015260800190565b6001600160a01b039190911681526040602082018190526019908201527f4e6577205265642050656e20546f6b656e204164647265737300000000000000606082015260800190565b6001600160a01b03919091168152604060208201819052601490820152734e6577205472656173757279204164647265737360601b606082015260800190565b6001600160a01b039190911681526040602082018190526010908201526f2732bb9026b4b734902130b4b634b33360811b606082015260800190565b6001600160a01b03919091168152604060208201819052601490820152734e65772050696e6b536c6970204164647265737360601b606082015260800190565b6001600160a01b03919091168152604060208201819052601590820152744e6577204a75727920506f6f6c204164647265737360581b606082015260800190565b6001600160a01b039190911681526040602082018190526011908201527013995dc810dbdd5c9d08115b1958dd1959607a1b606082015260800190565b6001600160a01b03919091168152604060208201819052601590820152744e657720476f6c642053746172204164647265737360581b606082015260800190565b6001600160a01b039190911681526040602082018190526019908201527f4e657720416464726573734d616e616765724164647265737300000000000000606082015260800190565b6001600160a01b03919091168152604060208201819052601190820152704e657720436f757274204164647265737360781b606082015260800190565b6001600160a01b039190911681526040602082018190526017908201527f4e657720476176656c20546f6b656e2041646472657373000000000000000000606082015260800190565b6001600160a01b03919091168152604060208201819052600f908201526e13995dc811d85d995b081059d95b9d608a1b606082015260800190565b6001600160a01b03919091168152604060208201819052601590820152744e657720436861644261646765204164647265737360581b606082015260800190565b6001600160a01b03919091168152604060208201819052600e908201526d13995dc8129d5c9e481059d95b9d60921b606082015260800190565b901515815260200190565b90815260200190565b9182526001600160a01b0316602082015260400190565b918252602082015260400190565b60006020825282518060208401526127ed816040850160208701612af2565b601f01601f19169190910160400192915050565b600060208083528184548360028204905060018083168061282357607f831692505b85831081141561284157634e487b7160e01b87526022600452602487fd5b61284d83878a016127a0565b81801561286157600181146128725761289c565b60ff1986168252878201965061289c565b61287b8b612a98565b895b868110156128965781548482015290850190890161287d565b83019750505b50949998505050505050505050565b60208082526022908201527f456e756d657261626c655365743a20696e646578206f7574206f6620626f756e604082015261647360f01b606082015260800190565b6020808252818101527f537472696e67733a20686578206c656e67746820696e73756666696369656e74604082015260600190565b60208082526010908201526f436f757274204d75737420416772656560801b604082015260600190565b6020808252601690820152752cb7ba93b932903737ba103a3432903130b4b634b33360511b604082015260600190565b602080825260139082015272596f75277265206e6f7420746865204a75727960681b604082015260600190565b602080825260139082015272576861742061726520796f7520646f696e673f60681b604082015260600190565b602080825260159082015274596f75277265206e6f742074686520476176656c7360581b604082015260600190565b60208082526024908201527f446f6e2774206d6573732077697468207468652062616c616e6365206f66207060408201526337bbb2b960e11b606082015260800190565b6020808252602f908201527f416363657373436f6e74726f6c3a2063616e206f6e6c792072656e6f756e636560408201526e103937b632b9903337b91039b2b63360891b606082015260800190565b60009081526020902090565b60008219821115612ab757612ab7612b54565b500190565b6000816000190483118215151615612ad657612ad6612b54565b500290565b600082821015612aed57612aed612b54565b500390565b60005b83811015612b0d578181015183820152602001612af5565b83811115612b1c576000848401525b50505050565b600081612b3157612b31612b54565b506000190190565b6000600019821415612b4d57612b4d612b54565b5060010190565b634e487b7160e01b600052601160045260246000fd5b6001600160a01b03811681146106ae57600080fdfefa8e4989e1d689f7bc5c4b25b87efb51fecdecb19ba62847e29c759e12a89acd048bc71fa1cb2c119c339cf9cf00a97996a19a9d991ce5fe049f2fa5459e79907e8c379daaa14042eac528cc8c0cbb33194c8a3a2197c997f7220e8c057038340538d24a8b7882d7b2e36af243d4af61c23e86e3daa6cb8c887b53220b2f5720a26469706673582212202736a7a51c5aecf58fbb31692229e6feef947d6be6dcfbf27d33113f95f3e5d364736f6c63430008000033",
  "immutableReferences": {},
  "source": "    pragma solidity ^0.8.0;\n\n    import './ConsensusMachine.sol';\n   \n    contract AddressManager is ConsensusMachine {/// Change the Gavels Agent Address\n        \n        address public GavelTokenAddress;\n        address public RedPenTokenAddress;\n\n        address public GoldStarAddress;\n        address public PinkSlipAddress;\n        address public ChadBadgeAddress;\n\n        address public  JuryPoolAddress;\n\n        address public GavelDAOAgent;\n        address public JuryDAOAgent;\n        address public TreasuryAddress;\n        address public TheCourtAddress;\n\n        address public MiniBailiff;\n\n        address public newAddressManager; // For the ability to upgrade if neccesary.\n        bool public hasMovedToNewAddress = false;\n\n        string private errorMessage = \"the hell are you doing? C'mon\";\n        string private zeroAddressWarning = \"C'mon\";\n\n\n        event AddressUpdated(address, string);\n\n        constructor(address juryDAOAgent, address gavelDAOAgent, address treasuryAddress,\n                    address theCourtAddress, address _MiniBailiff)\n                    ConsensusMachine(juryDAOAgent, gavelDAOAgent, theCourtAddress) {\n\n            GavelDAOAgent = gavelDAOAgent;\n            JuryDAOAgent = juryDAOAgent;\n            TreasuryAddress = treasuryAddress;\n            TheCourtAddress = theCourtAddress;\n            MiniBailiff = _MiniBailiff;\n\n        }\n\n    /////////////////////////////////////////////////////////////////////////////////////////////////\n    /////////////////////////////////////////////////////////////////////////////////////////////////\n    /// @dev                                                                                     ////\n    /// Address Setters                                                                          ////\n    /////////////////////////////////////////////////////////////////////////////////////////////////\n    /////////////////////////////////////////////////////////////////////////////////////////////////\n\n        function setnewAddressManager(address newAddressManagerAddress) public THE_COURT BAILIFF {\n            require(newAddressManagerAddress != address(0), errorMessage);\n            newAddressManager = newAddressManagerAddress;\n            hasMovedToNewAddress = true;\n            _resetVote();\n\n            emit AddressUpdated(newAddressManagerAddress, \"New AddressManagerAddress\");\n        }\n\n\n        function _setAgent( bytes32 ROLE , address newAgentAddress) internal returns (bool) {\n            require(newAgentAddress != address(0), errorMessage);\n            require(!hasRole(ROLE, newAgentAddress));\n            grantRole(ROLE, newAgentAddress);\n            emit AddressUpdated(newAgentAddress, \"Check Role Events\" );\n            return true;\n        }\n\n        /// Change the Gavel Agent Address\n        function addGavelAgent(address newAgentAddress) public GAVELS {\n            bool success = _setAgent(GAVELS_BAILIFF, newAgentAddress);\n            require(success == true);\n            emit AddressUpdated(newAgentAddress, \"New Gavel Agent\");\n        }\n\n\n        /// Change the Jury Agent Address\n        function addJuryAgent(address newAgentAddress) public GAVELS {\n            bool success = _setAgent(JURY_BAILIFF, newAgentAddress);\n            require(success == true);\n            emit AddressUpdated(newAgentAddress, \"New Jury Agent\");\n\n        }\n\n        function addMiniBailiff(address newAgentAddress) public BAILIFF {\n            bool success = _setAgent(MINI_BAILIFF_ROLE, newAgentAddress);\n            require(success == true);\n            emit AddressUpdated(newAgentAddress, \"New Mini Bailiff\");\n        }\n\n        /// Change the Court Agent Address\n        function setTheCourtAgent(address newAgentAddress) public GAVELS {\n            bool success = _setAgent(THE_COURT_ROLE, newAgentAddress);\n            require(success == true);\n            emit AddressUpdated(newAgentAddress, \"New Court Elected\");\n        }\n\n\n\n\n\n        /// Change the Treasury Address\n        function setTreasuryAddress(address newTreasuryAddress) public THE_COURT {\n            require(newTreasuryAddress != address(0), errorMessage);\n            TreasuryAddress = newTreasuryAddress;\n            _resetVote();\n            emit AddressUpdated(newTreasuryAddress, \"New Treasury Address\");\n        }\n\n        function setCourtAddress(address newCourtAddress) public THE_COURT {\n            require(newCourtAddress != address(0), zeroAddressWarning);\n            TheCourtAddress = newCourtAddress;\n            _resetVote();\n            emit AddressUpdated(newCourtAddress, \"New Court Address\");\n            \n        }\n\n        function setGavelTokenAddress(address newGavelTokenAddress) public GAVELS {\n            require(newGavelTokenAddress != address(0), zeroAddressWarning);\n            require(newGavelTokenAddress != RedPenTokenAddress, \"Don't mess with the balance of power\");\n            GavelTokenAddress = newGavelTokenAddress;\n    \n            emit AddressUpdated(newGavelTokenAddress, \"New Gavel Token Address\");            \n        }\n\n        function setJuryPoolAddress(address newJuryPoolAddress) public JURY  {\n            require(newJuryPoolAddress != address(0), zeroAddressWarning);\n            require(newJuryPoolAddress != GavelTokenAddress, \"Don't mess with the balance of power\");\n            JuryPoolAddress = newJuryPoolAddress;\n     \n            emit AddressUpdated(newJuryPoolAddress, \"New Jury Pool Address\"); \n        }\n\n        function setRedPenTokenAddress(address newRedPenTokenAddress) public JURY  {\n            require(newRedPenTokenAddress != address(0), zeroAddressWarning);\n            require(newRedPenTokenAddress != GavelTokenAddress, \"Don't mess with the balance of power\");\n            RedPenTokenAddress = newRedPenTokenAddress;\n\n            emit AddressUpdated(newRedPenTokenAddress, \"New Red Pen Token Address\"); \n        }\n\n        function setGoldStarAddress(address newGoldStarAddress) public THE_COURT {\n            require(newGoldStarAddress != address(0), zeroAddressWarning);\n            require(newGoldStarAddress != GavelTokenAddress && newGoldStarAddress != RedPenTokenAddress, \"What are you doing?\");\n            GoldStarAddress = newGoldStarAddress;\n            _resetVote();\n            emit AddressUpdated(newGoldStarAddress, \"New Gold Star Address\"); \n        }\n\n        function setPinkSlipAddress(address newPinkSlipAddress) public THE_COURT {\n            require(newPinkSlipAddress != address(0), zeroAddressWarning);\n            require(newPinkSlipAddress != GavelTokenAddress && newPinkSlipAddress != RedPenTokenAddress, \"What are you doing?\");\n            PinkSlipAddress = newPinkSlipAddress;\n            _resetVote();\n            emit AddressUpdated(newPinkSlipAddress, \"New PinkSlip Address\");\n        }\n\n        function setChadBadgeAddress(address newChadBadgeAddress) public THE_COURT {\n            require(newChadBadgeAddress != address(0), zeroAddressWarning);\n            require(newChadBadgeAddress != GavelTokenAddress && newChadBadgeAddress != RedPenTokenAddress, \"What are you doing?\");\n            ChadBadgeAddress = newChadBadgeAddress;\n            _resetVote();\n            emit AddressUpdated(newChadBadgeAddress, \"New ChadBadge Address\");\n        }\n\n\n\n    /////////////////////////////////////////////////////////////////////////////////////////////////\n    /////////////////////////////////////////////////////////////////////////////////////////////////\n    /// @dev  END                                                                                ////\n    /////////////////////////////////////////////////////////////////////////////////////////////////\n    /////////////////////////////////////////////////////////////////////////////////////////////////\n    }\n\n\n    /////////////////////////////////////////////////////////////////////////////////////////////////\n    /////////////////////////////////////////////////////////////////////////////////////////////////\n    /// @dev                                                                                     ////\n    /// @dev                                                                                     ////\n    /// @dev                                                                                     ////\n    /////////////////////////////////////////////////////////////////////////////////////////////////\n    /////////////////////////////////////////////////////////////////////////////////////////////////\n\n    /////////////////////////////////////////////////////////////////////////////////////////////////\n    /////////////////////////////////////////////////////////////////////////////////////////////////\n    /// @dev                                                                                     ////\n    /// @dev                                                                                     ////\n    /////////////////////////////////////////////////////////////////////////////////////////////////\n    /////////////////////////////////////////////////////////////////////////////////////////////////",
  "sourcePath": "/home/n/Desktop/PinkSlips_FrontEnd_REFORMAT/contracts/src/AddressManager.sol",
  "compiler": {
    "name": "solc",
    "version": "0.8.0+commit.c7dfd78e.Emscripten.clang"
  },
  "schemaVersion": "3.4.1",
  "updatedAt": "2021-07-29T07:01:32.403Z",
  "networkType": "ethereum",
  "devdoc": {
    "kind": "dev",
    "methods": {
      "getRoleAdmin(bytes32)": {
        "details": "Returns the admin role that controls `role`. See {grantRole} and {revokeRole}. To change a role's admin, use {_setRoleAdmin}."
      },
      "getRoleMember(bytes32,uint256)": {
        "details": "Returns one of the accounts that have `role`. `index` must be a value between 0 and {getRoleMemberCount}, non-inclusive. Role bearers are not sorted in any particular way, and their ordering may change at any point. WARNING: When using {getRoleMember} and {getRoleMemberCount}, make sure you perform all queries on the same block. See the following https://forum.openzeppelin.com/t/iterating-over-elements-on-enumerableset-in-openzeppelin-contracts/2296[forum post] for more information."
      },
      "getRoleMemberCount(bytes32)": {
        "details": "Returns the number of accounts that have `role`. Can be used together with {getRoleMember} to enumerate all bearers of a role."
      },
      "grantRole(bytes32,address)": {
        "details": "Overload {grantRole} to track enumerable memberships"
      },
      "hasRole(bytes32,address)": {
        "details": "Returns `true` if `account` has been granted `role`."
      },
      "renounceRole(bytes32,address)": {
        "details": "Overload {renounceRole} to track enumerable memberships"
      },
      "revokeRole(bytes32,address)": {
        "details": "Overload {revokeRole} to track enumerable memberships"
      },
      "setnewAddressManager(address)": {
        "details": "//// Address Setters                                                                          ////"
      },
      "supportsInterface(bytes4)": {
        "details": "See {IERC165-supportsInterface}."
      },
      "vote(bool)": {
        "details": "//// Consensus Machine                                                                        ////"
      }
    },
    "version": 1
  },
  "userdoc": {
    "kind": "user",
    "methods": {
      "GavelTokenAddress()": {
        "notice": "Change the Gavels Agent Address"
      },
      "addGavelAgent(address)": {
        "notice": "Change the Gavel Agent Address"
      },
      "addJuryAgent(address)": {
        "notice": "Change the Jury Agent Address"
      },
      "setTheCourtAgent(address)": {
        "notice": "Change the Court Agent Address"
      },
      "setTreasuryAddress(address)": {
        "notice": "Change the Treasury Address"
      }
    },
    "version": 1
  }
}