{
  "contractName": "AddressManagerReciever",
  "abi": [
    {
      "inputs": [
        {
          "internalType": "address",
          "name": "_AddressManagerAddress",
          "type": "address"
        }
      ],
      "stateMutability": "nonpayable",
      "type": "constructor"
    },
    {
      "inputs": [],
      "name": "AddressManagerAddress",
      "outputs": [
        {
          "internalType": "address",
          "name": "",
          "type": "address"
        }
      ],
      "stateMutability": "view",
      "type": "function"
    },
    {
      "inputs": [],
      "name": "ChadBadgeAddress",
      "outputs": [
        {
          "internalType": "address",
          "name": "",
          "type": "address"
        }
      ],
      "stateMutability": "view",
      "type": "function"
    },
    {
      "inputs": [],
      "name": "GavelDAOAddress",
      "outputs": [
        {
          "internalType": "address",
          "name": "",
          "type": "address"
        }
      ],
      "stateMutability": "view",
      "type": "function"
    },
    {
      "inputs": [],
      "name": "GavelDAOAgent",
      "outputs": [
        {
          "internalType": "address",
          "name": "",
          "type": "address"
        }
      ],
      "stateMutability": "view",
      "type": "function"
    },
    {
      "inputs": [],
      "name": "GavelTokenAddress",
      "outputs": [
        {
          "internalType": "address",
          "name": "",
          "type": "address"
        }
      ],
      "stateMutability": "view",
      "type": "function"
    },
    {
      "inputs": [],
      "name": "GoldStarAddress",
      "outputs": [
        {
          "internalType": "address",
          "name": "",
          "type": "address"
        }
      ],
      "stateMutability": "view",
      "type": "function"
    },
    {
      "inputs": [],
      "name": "JuryDAOAddress",
      "outputs": [
        {
          "internalType": "address",
          "name": "",
          "type": "address"
        }
      ],
      "stateMutability": "view",
      "type": "function"
    },
    {
      "inputs": [],
      "name": "JuryDAOAgent",
      "outputs": [
        {
          "internalType": "address",
          "name": "",
          "type": "address"
        }
      ],
      "stateMutability": "view",
      "type": "function"
    },
    {
      "inputs": [],
      "name": "JuryPoolAddress",
      "outputs": [
        {
          "internalType": "address",
          "name": "",
          "type": "address"
        }
      ],
      "stateMutability": "view",
      "type": "function"
    },
    {
      "inputs": [],
      "name": "MiniBailiff",
      "outputs": [
        {
          "internalType": "address",
          "name": "",
          "type": "address"
        }
      ],
      "stateMutability": "view",
      "type": "function"
    },
    {
      "inputs": [],
      "name": "PinkSlipAddress",
      "outputs": [
        {
          "internalType": "address",
          "name": "",
          "type": "address"
        }
      ],
      "stateMutability": "view",
      "type": "function"
    },
    {
      "inputs": [],
      "name": "RedPenTokenAddress",
      "outputs": [
        {
          "internalType": "address",
          "name": "",
          "type": "address"
        }
      ],
      "stateMutability": "view",
      "type": "function"
    },
    {
      "inputs": [],
      "name": "TheCourtDAOAddress",
      "outputs": [
        {
          "internalType": "address",
          "name": "",
          "type": "address"
        }
      ],
      "stateMutability": "view",
      "type": "function"
    },
    {
      "inputs": [],
      "name": "TheCourtDAOAgent",
      "outputs": [
        {
          "internalType": "address",
          "name": "",
          "type": "address"
        }
      ],
      "stateMutability": "view",
      "type": "function"
    },
    {
      "inputs": [],
      "name": "TreasuryAddress",
      "outputs": [
        {
          "internalType": "address",
          "name": "",
          "type": "address"
        }
      ],
      "stateMutability": "view",
      "type": "function"
    },
    {
      "inputs": [],
      "name": "addressManager",
      "outputs": [
        {
          "internalType": "contract AddressManager",
          "name": "",
          "type": "address"
        }
      ],
      "stateMutability": "view",
      "type": "function"
    },
    {
      "inputs": [],
      "name": "updateAllAddresses",
      "outputs": [],
      "stateMutability": "nonpayable",
      "type": "function"
    },
    {
      "inputs": [],
      "name": "updateAddressManager",
      "outputs": [],
      "stateMutability": "nonpayable",
      "type": "function"
    },
    {
      "inputs": [],
      "name": "updateTokenAddresses",
      "outputs": [],
      "stateMutability": "nonpayable",
      "type": "function"
    },
    {
      "inputs": [],
      "name": "updateDAOAddresses",
      "outputs": [],
      "stateMutability": "nonpayable",
      "type": "function"
    },
    {
      "inputs": [],
      "name": "updateDAOAgents",
      "outputs": [],
      "stateMutability": "nonpayable",
      "type": "function"
    }
  ],
  "bytecode": "0x608060405234801561001057600080fd5b50604051610d72380380610d7283398101604081905261002f9161005e565b600080546001600160a01b039092166001600160a01b03199283168117909155600f805490921617905561008e565b60006020828403121561007057600080fd5b81516001600160a01b038116811461008757600080fd5b9392505050565b610cd58061009d6000396000f3fe608060405234801561001057600080fd5b50600436106101375760003560e01c8063762ddb59116100b8578063dadf56ac1161007c578063dadf56ac1461024b578063e6217e3a1461025e578063e78c266c14610271578063f1132b3014610284578063f98447ac1461028c578063fdeffc321461029f57600080fd5b8063762ddb59146101f75780637dad1ad51461020a578063a99b27351461021d578063b6085bf514610230578063bfb7dc991461023857600080fd5b806349b5e105116100ff57806349b5e105146101ae5780634d84c6d8146101b65780635b5c251f146101be578063641451f2146101d15780636b584775146101e457600080fd5b8063024bebe91461013c57806321d7f0081461016b578063326a55e01461017e5780633ab76e9f146101885780633f86ea7c1461019b575b600080fd5b600c5461014f906001600160a01b031681565b6040516001600160a01b03909116815260200160405180910390f35b60015461014f906001600160a01b031681565b6101866102b2565b005b600f5461014f906001600160a01b031681565b60055461014f906001600160a01b031681565b6101866102cc565b6101866102c2565b60065461014f906001600160a01b031681565b600d5461014f906001600160a01b031681565b60075461014f906001600160a01b031681565b60025461014f906001600160a01b031681565b60085461014f906001600160a01b031681565b60095461014f906001600160a01b031681565b6101866102d4565b60035461014f906001600160a01b031681565b600b5461014f906001600160a01b031681565b600e5461014f906001600160a01b031681565b60005461014f906001600160a01b031681565b6101866102dc565b60045461014f906001600160a01b031681565b600a5461014f906001600160a01b031681565b6102ba6102e4565b6102c26105d0565b6102ca61082b565b565b6102ca6102e4565b6102ca6105d0565b6102ca610b16565b600f60009054906101000a90046001600160a01b03166001600160a01b0316637dad1ad56040518163ffffffff1660e01b815260040160206040518083038186803b15801561033257600080fd5b505afa158015610346573d6000803e3d6000fd5b505050506040513d601f19601f8201168201806040525081019061036a9190610c4d565b600880546001600160a01b0319166001600160a01b03928316179055600f546040805163a99b273560e01b81529051919092169163a99b2735916004808301926020929190829003018186803b1580156103c357600080fd5b505afa1580156103d7573d6000803e3d6000fd5b505050506040513d601f19601f820116820180604052508101906103fb9190610c4d565b600980546001600160a01b0319166001600160a01b03928316179055600f5460408051637ef7fe1960e11b81529051919092169163fdeffc32916004808301926020929190829003018186803b15801561045457600080fd5b505afa158015610468573d6000803e3d6000fd5b505050506040513d601f19601f8201168201806040525081019061048c9190610c4d565b600a80546001600160a01b0319166001600160a01b03928316179055600f5460408051635b5c251f60e01b815290519190921691635b5c251f916004808301926020929190829003018186803b1580156104e557600080fd5b505afa1580156104f9573d6000803e3d6000fd5b505050506040513d601f19601f8201168201806040525081019061051d9190610c4d565b600680546001600160a01b0319166001600160a01b03928316179055600f5460408051636b58477560e01b815290519190921691636b584775916004808301926020929190829003018186803b15801561057657600080fd5b505afa15801561058a573d6000803e3d6000fd5b505050506040513d601f19601f820116820180604052508101906105ae9190610c4d565b600780546001600160a01b0319166001600160a01b0392909216919091179055565b600f60009054906101000a90046001600160a01b03166001600160a01b031663dadf56ac6040518163ffffffff1660e01b815260040160206040518083038186803b15801561061e57600080fd5b505afa158015610632573d6000803e3d6000fd5b505050506040513d601f19601f820116820180604052508101906106569190610c4d565b600b80546001600160a01b0319166001600160a01b03928316179055600f546040805163024bebe960e01b81529051919092169163024bebe9916004808301926020929190829003018186803b1580156106af57600080fd5b505afa1580156106c3573d6000803e3d6000fd5b505050506040513d601f19601f820116820180604052508101906106e79190610c4d565b600c80546001600160a01b0319166001600160a01b03928316179055600f546040805163320a28f960e11b81529051919092169163641451f2916004808301926020929190829003018186803b15801561074057600080fd5b505afa158015610754573d6000803e3d6000fd5b505050506040513d601f19601f820116820180604052508101906107789190610c4d565b600d80546001600160a01b0319166001600160a01b03928316179055600f5460408051637310bf1d60e11b81529051919092169163e6217e3a916004808301926020929190829003018186803b1580156107d157600080fd5b505afa1580156107e5573d6000803e3d6000fd5b505050506040513d601f19601f820116820180604052508101906108099190610c4d565b600e80546001600160a01b0319166001600160a01b0392909216919091179055565b600f60009054906101000a90046001600160a01b03166001600160a01b03166321d7f0086040518163ffffffff1660e01b815260040160206040518083038186803b15801561087957600080fd5b505afa15801561088d573d6000803e3d6000fd5b505050506040513d601f19601f820116820180604052508101906108b19190610c4d565b600180546001600160a01b0319166001600160a01b03928316179055600f546040805163762ddb5960e01b81529051919092169163762ddb59916004808301926020929190829003018186803b15801561090a57600080fd5b505afa15801561091e573d6000803e3d6000fd5b505050506040513d601f19601f820116820180604052508101906109429190610c4d565b600280546001600160a01b0319166001600160a01b03928316179055600f546040805163bfb7dc9960e01b81529051919092169163bfb7dc99916004808301926020929190829003018186803b15801561099b57600080fd5b505afa1580156109af573d6000803e3d6000fd5b505050506040513d601f19601f820116820180604052508101906109d39190610c4d565b600380546001600160a01b0319166001600160a01b03928316179055600f5460408051633e6111eb60e21b81529051919092169163f98447ac916004808301926020929190829003018186803b158015610a2c57600080fd5b505afa158015610a40573d6000803e3d6000fd5b505050506040513d601f19601f82011682018060405250810190610a649190610c4d565b600480546001600160a01b0319166001600160a01b03928316178155600f5460408051630fe1ba9f60e21b815290519190931692633f86ea7c9281810192602092909190829003018186803b158015610abc57600080fd5b505afa158015610ad0573d6000803e3d6000fd5b505050506040513d601f19601f82011682018060405250810190610af49190610c4d565b600580546001600160a01b0319166001600160a01b0392909216919091179055565b600f60009054906101000a90046001600160a01b03166001600160a01b031663a44b93256040518163ffffffff1660e01b815260040160206040518083038186803b158015610b6457600080fd5b505afa158015610b78573d6000803e3d6000fd5b505050506040513d601f19601f82011682018060405250810190610b9c9190610c7d565b610ba557600080fd5b600f60009054906101000a90046001600160a01b03166001600160a01b031663ac7cfac36040518163ffffffff1660e01b815260040160206040518083038186803b158015610bf357600080fd5b505afa158015610c07573d6000803e3d6000fd5b505050506040513d601f19601f82011682018060405250810190610c2b9190610c4d565b600080546001600160a01b0319166001600160a01b0392909216919091179055565b600060208284031215610c5f57600080fd5b81516001600160a01b0381168114610c7657600080fd5b9392505050565b600060208284031215610c8f57600080fd5b81518015158114610c7657600080fdfea264697066735822122038488c0024c4bc51fff833f5573f8d6535ca7c7d694c540454467f4651b95db764736f6c63430008060033",
  "immutableReferences": {},
  "source": "pragma solidity ^0.8.0;\n\nimport './AddressManager.sol';\n\n\ncontract AddressManagerReciever {\n\n    // Master Address Manager Address\n    address public AddressManagerAddress;\n\n    // Token Addresses\n    address public GavelTokenAddress;\n    address public RedPenTokenAddress;\n\n    // Badge Addresses\n    address public GoldStarAddress;\n    address public PinkSlipAddress;\n    address public ChadBadgeAddress;\n\n    // Bank Addresses\n    address public TreasuryAddress;\n    address public JuryPoolAddress;\n    \n    // DAO addresses\n    address public GavelDAOAddress;\n    address public JuryDAOAddress;\n    address public TheCourtDAOAddress;\n\n    // Agent Addresses\n    address public GavelDAOAgent;\n    address public JuryDAOAgent;\n    address public TheCourtDAOAgent;\n    address public MiniBailiff;\n    \n    AddressManager public addressManager;\n    \n    constructor (address _AddressManagerAddress) {\n\n        AddressManagerAddress = _AddressManagerAddress;\n        addressManager = AddressManager(AddressManagerAddress);\n     \n    }\n\n\n    function _updateDAOAddresses() internal {\n        // Set these from the Address Manager Contract\n        GavelDAOAddress = addressManager.GavelDAOAddress();\n        JuryDAOAddress = addressManager.JuryDAOAddress();\n        TheCourtDAOAddress = addressManager.TheCourtDAOAddress();\n        TreasuryAddress = addressManager.TreasuryAddress();\n        JuryPoolAddress = addressManager.JuryPoolAddress();\n    }\n\n    function _updateDAOAgents() internal {\n        // Set these from the Address Manager Contract\n        GavelDAOAgent = addressManager.GavelDAOAgent();\n        JuryDAOAgent = addressManager.JuryDAOAgent();\n        TheCourtDAOAgent = addressManager.TheCourtDAOAgent();\n        MiniBailiff = addressManager.MiniBailiff();\n    }\n\n    function _updateTokenAddresses() internal virtual {\n        // Set these from the Address Manager Contract\n        GavelTokenAddress = addressManager.GavelTokenAddress();\n        RedPenTokenAddress = addressManager.RedPenTokenAddress();\n        \n        GoldStarAddress = addressManager.GoldStarAddress();\n        PinkSlipAddress = addressManager.PinkSlipAddress();\n        ChadBadgeAddress = addressManager.ChadBadgeAddress();\n\n    }\n\n    function _updateAddressManager() internal {\n        // Set these from the Address Manager Contract\n        require(addressManager.hasMovedToNewAddress());\n        AddressManagerAddress = addressManager.newAddressManager();\n    \n    }\n    \n    \n\n    function updateAllAddresses() public {\n        _updateDAOAddresses();\n        _updateDAOAgents();\n        _updateTokenAddresses();\n    }\n\n    function updateAddressManager() public {\n        _updateAddressManager();\n    }\n\n    function updateTokenAddresses() public {\n        _updateTokenAddresses();\n    }\n\n    function updateDAOAddresses() public {\n        _updateDAOAddresses();\n    }\n\n    function updateDAOAgents() public {\n        _updateDAOAgents();\n    }\n\n\n\n}",
  "sourcePath": "/home/n/Desktop/PinkSlips_FrontEnd_REFORMAT/contracts/src/AddressManagerReciever.sol",
  "compiler": {
    "name": "solc",
    "version": "0.8.6+commit.11564f7e.Emscripten.clang"
  },
  "schemaVersion": "3.4.1",
  "updatedAt": "2021-08-05T06:59:35.332Z",
  "devdoc": {
    "kind": "dev",
    "methods": {},
    "version": 1
  },
  "userdoc": {
    "kind": "user",
    "methods": {},
    "version": 1
  }
}