{
  "contractName": "AddressManagerReciever",
  "abi": [
    {
      "inputs": [
        {
          "internalType": "address",
          "name": "_AddressManagerAddress",
          "type": "address"
        }
      ],
      "stateMutability": "nonpayable",
      "type": "constructor"
    },
    {
      "inputs": [],
      "name": "AddressManagerAddress",
      "outputs": [
        {
          "internalType": "address",
          "name": "",
          "type": "address"
        }
      ],
      "stateMutability": "view",
      "type": "function"
    },
    {
      "inputs": [],
      "name": "ChadBadgeAddress",
      "outputs": [
        {
          "internalType": "address",
          "name": "",
          "type": "address"
        }
      ],
      "stateMutability": "view",
      "type": "function"
    },
    {
      "inputs": [],
      "name": "ColoredIDAddress",
      "outputs": [
        {
          "internalType": "address",
          "name": "",
          "type": "address"
        }
      ],
      "stateMutability": "view",
      "type": "function"
    },
    {
      "inputs": [],
      "name": "CourtClerk",
      "outputs": [
        {
          "internalType": "address",
          "name": "",
          "type": "address"
        }
      ],
      "stateMutability": "view",
      "type": "function"
    },
    {
      "inputs": [],
      "name": "GavelDAOAgent",
      "outputs": [
        {
          "internalType": "address",
          "name": "",
          "type": "address"
        }
      ],
      "stateMutability": "view",
      "type": "function"
    },
    {
      "inputs": [],
      "name": "GavelTokenAddress",
      "outputs": [
        {
          "internalType": "address",
          "name": "",
          "type": "address"
        }
      ],
      "stateMutability": "view",
      "type": "function"
    },
    {
      "inputs": [],
      "name": "GoldStarAddress",
      "outputs": [
        {
          "internalType": "address",
          "name": "",
          "type": "address"
        }
      ],
      "stateMutability": "view",
      "type": "function"
    },
    {
      "inputs": [],
      "name": "JuryDAOAgent",
      "outputs": [
        {
          "internalType": "address",
          "name": "",
          "type": "address"
        }
      ],
      "stateMutability": "view",
      "type": "function"
    },
    {
      "inputs": [],
      "name": "JuryPoolAddress",
      "outputs": [
        {
          "internalType": "address",
          "name": "",
          "type": "address"
        }
      ],
      "stateMutability": "view",
      "type": "function"
    },
    {
      "inputs": [],
      "name": "MiniBailiff",
      "outputs": [
        {
          "internalType": "address",
          "name": "",
          "type": "address"
        }
      ],
      "stateMutability": "view",
      "type": "function"
    },
    {
      "inputs": [],
      "name": "PinkSlipAddress",
      "outputs": [
        {
          "internalType": "address",
          "name": "",
          "type": "address"
        }
      ],
      "stateMutability": "view",
      "type": "function"
    },
    {
      "inputs": [],
      "name": "RedPenTokenAddress",
      "outputs": [
        {
          "internalType": "address",
          "name": "",
          "type": "address"
        }
      ],
      "stateMutability": "view",
      "type": "function"
    },
    {
      "inputs": [],
      "name": "TheCourtAddress",
      "outputs": [
        {
          "internalType": "address",
          "name": "",
          "type": "address"
        }
      ],
      "stateMutability": "view",
      "type": "function"
    },
    {
      "inputs": [],
      "name": "TreasuryAddress",
      "outputs": [
        {
          "internalType": "address",
          "name": "",
          "type": "address"
        }
      ],
      "stateMutability": "view",
      "type": "function"
    },
    {
      "inputs": [],
      "name": "addressManager",
      "outputs": [
        {
          "internalType": "contract AddressManager",
          "name": "",
          "type": "address"
        }
      ],
      "stateMutability": "view",
      "type": "function"
    },
    {
      "inputs": [],
      "name": "updateAllAddresses",
      "outputs": [],
      "stateMutability": "nonpayable",
      "type": "function"
    },
    {
      "inputs": [],
      "name": "updateAddressManager",
      "outputs": [],
      "stateMutability": "nonpayable",
      "type": "function"
    },
    {
      "inputs": [],
      "name": "updateTokenAddresses",
      "outputs": [],
      "stateMutability": "nonpayable",
      "type": "function"
    },
    {
      "inputs": [],
      "name": "updateDAOAddresses",
      "outputs": [],
      "stateMutability": "nonpayable",
      "type": "function"
    }
  ],
  "bytecode": "0x608060405234801561001057600080fd5b50604051610bf8380380610bf883398101604081905261002f9161005e565b600080546001600160a01b039092166001600160a01b03199283168117909155600e805490921617905561008e565b60006020828403121561007057600080fd5b81516001600160a01b038116811461008757600080fd5b9392505050565b610b5b8061009d6000396000f3fe608060405234801561001057600080fd5b50600436106101215760003560e01c80635f413466116100ad578063dadf56ac11610071578063dadf56ac1461022d578063e6217e3a14610240578063e78c266c14610253578063f1132b3014610266578063f98447ac1461026e57600080fd5b80635f413466146101ce5780636b584775146101e1578063762ddb59146101f4578063bfb7dc9914610207578063d88127a11461021a57600080fd5b80633f86ea7c116100f45780633f86ea7c1461018557806349b5e105146101985780634d84c6d8146101a057806357200482146101a85780635b5c251f146101bb57600080fd5b8063024bebe91461012657806321d7f00814610155578063326a55e0146101685780633ab76e9f14610172575b600080fd5b600a54610139906001600160a01b031681565b6040516001600160a01b03909116815260200160405180910390f35b600154610139906001600160a01b031681565b610170610281565b005b600e54610139906001600160a01b031681565b600554610139906001600160a01b031681565b610170610293565b610170610289565b600654610139906001600160a01b031681565b600b54610139906001600160a01b031681565b600c54610139906001600160a01b031681565b600754610139906001600160a01b031681565b600254610139906001600160a01b031681565b600354610139906001600160a01b031681565b600854610139906001600160a01b031681565b600954610139906001600160a01b031681565b600d54610139906001600160a01b031681565b600054610139906001600160a01b031681565b61017061029b565b600454610139906001600160a01b031681565b6102896102a3565b61029161058f565b565b6102916102a3565b61029161099c565b600e60009054906101000a90046001600160a01b03166001600160a01b031663dadf56ac6040518163ffffffff1660e01b815260040160206040518083038186803b1580156102f157600080fd5b505afa158015610305573d6000803e3d6000fd5b505050506040513d601f19601f820116820180604052508101906103299190610ad3565b600980546001600160a01b0319166001600160a01b03928316179055600e546040805163024bebe960e01b81529051919092169163024bebe9916004808301926020929190829003018186803b15801561038257600080fd5b505afa158015610396573d6000803e3d6000fd5b505050506040513d601f19601f820116820180604052508101906103ba9190610ad3565b600a80546001600160a01b0319166001600160a01b03928316179055600e5460408051635b5c251f60e01b815290519190921691635b5c251f916004808301926020929190829003018186803b15801561041357600080fd5b505afa158015610427573d6000803e3d6000fd5b505050506040513d601f19601f8201168201806040525081019061044b9190610ad3565b600b80546001600160a01b0319166001600160a01b03928316179055600e5460408051637310bf1d60e11b81529051919092169163e6217e3a916004808301926020929190829003018186803b1580156104a457600080fd5b505afa1580156104b8573d6000803e3d6000fd5b505050506040513d601f19601f820116820180604052508101906104dc9190610ad3565b600d80546001600160a01b0319166001600160a01b03928316179055600e546040805163d88127a160e01b81529051919092169163d88127a1916004808301926020929190829003018186803b15801561053557600080fd5b505afa158015610549573d6000803e3d6000fd5b505050506040513d601f19601f8201168201806040525081019061056d9190610ad3565b600880546001600160a01b0319166001600160a01b0392909216919091179055565b600e60009054906101000a90046001600160a01b03166001600160a01b03166321d7f0086040518163ffffffff1660e01b815260040160206040518083038186803b1580156105dd57600080fd5b505afa1580156105f1573d6000803e3d6000fd5b505050506040513d601f19601f820116820180604052508101906106159190610ad3565b600180546001600160a01b0319166001600160a01b03928316179055600e546040805163762ddb5960e01b81529051919092169163762ddb59916004808301926020929190829003018186803b15801561066e57600080fd5b505afa158015610682573d6000803e3d6000fd5b505050506040513d601f19601f820116820180604052508101906106a69190610ad3565b600280546001600160a01b0319166001600160a01b03928316179055600e546040805163bfb7dc9960e01b81529051919092169163bfb7dc99916004808301926020929190829003018186803b1580156106ff57600080fd5b505afa158015610713573d6000803e3d6000fd5b505050506040513d601f19601f820116820180604052508101906107379190610ad3565b600380546001600160a01b0319166001600160a01b03928316179055600e5460408051633e6111eb60e21b81529051919092169163f98447ac916004808301926020929190829003018186803b15801561079057600080fd5b505afa1580156107a4573d6000803e3d6000fd5b505050506040513d601f19601f820116820180604052508101906107c89190610ad3565b600480546001600160a01b0319166001600160a01b03928316178155600e5460408051630fe1ba9f60e21b815290519190931692633f86ea7c9281810192602092909190829003018186803b15801561082057600080fd5b505afa158015610834573d6000803e3d6000fd5b505050506040513d601f19601f820116820180604052508101906108589190610ad3565b600580546001600160a01b0319166001600160a01b03928316179055600e5460408051632b90024160e11b8152905191909216916357200482916004808301926020929190829003018186803b1580156108b157600080fd5b505afa1580156108c5573d6000803e3d6000fd5b505050506040513d601f19601f820116820180604052508101906108e99190610ad3565b600680546001600160a01b0319166001600160a01b03928316179055600e5460408051636b58477560e01b815290519190921691636b584775916004808301926020929190829003018186803b15801561094257600080fd5b505afa158015610956573d6000803e3d6000fd5b505050506040513d601f19601f8201168201806040525081019061097a9190610ad3565b600780546001600160a01b0319166001600160a01b0392909216919091179055565b600e60009054906101000a90046001600160a01b03166001600160a01b031663a44b93256040518163ffffffff1660e01b815260040160206040518083038186803b1580156109ea57600080fd5b505afa1580156109fe573d6000803e3d6000fd5b505050506040513d601f19601f82011682018060405250810190610a229190610b03565b610a2b57600080fd5b600e60009054906101000a90046001600160a01b03166001600160a01b031663ac7cfac36040518163ffffffff1660e01b815260040160206040518083038186803b158015610a7957600080fd5b505afa158015610a8d573d6000803e3d6000fd5b505050506040513d601f19601f82011682018060405250810190610ab19190610ad3565b600080546001600160a01b0319166001600160a01b0392909216919091179055565b600060208284031215610ae557600080fd5b81516001600160a01b0381168114610afc57600080fd5b9392505050565b600060208284031215610b1557600080fd5b81518015158114610afc57600080fdfea2646970667358221220ee05c9022b351779485ae2e32650cbf6dd8c3c1a0d823c1a6b8dc72226d7636564736f6c63430008060033",
  "immutableReferences": {},
  "source": "pragma solidity ^0.8.0;\n\nimport './AddressManager.sol';\n\n\ncontract AddressManagerReciever {\n\n    \n\n    address public AddressManagerAddress;\n\n    address public GavelTokenAddress;\n    address public RedPenTokenAddress;\n\n    address public GoldStarAddress;\n    address public PinkSlipAddress;\n    address public ChadBadgeAddress;\n    address public ColoredIDAddress;\n    \n\n    address public  JuryPoolAddress;\n\n    address public CourtClerk;\n    address public GavelDAOAgent;\n    address public JuryDAOAgent;\n    address public TreasuryAddress;\n    address public TheCourtAddress;\n\n    address public MiniBailiff;\n    \n    AddressManager public addressManager;\n    \n    constructor (address _AddressManagerAddress) {\n\n        AddressManagerAddress = _AddressManagerAddress;\n        addressManager = AddressManager(AddressManagerAddress);\n     \n    }\n\n\n    function _updateDAOAddresses() internal {\n        // Set these from the Address Manager Contract\n        GavelDAOAgent = addressManager.GavelDAOAgent();\n        JuryDAOAgent = addressManager.JuryDAOAgent();\n        TreasuryAddress = addressManager.TreasuryAddress();\n        MiniBailiff = addressManager.MiniBailiff();\n        CourtClerk = addressManager.CourtClerk();\n    }\n\n    function _updateTokenAddresses() internal virtual {\n        // Set these from the Address Manager Contract\n        GavelTokenAddress = addressManager.GavelTokenAddress();\n        RedPenTokenAddress = addressManager.RedPenTokenAddress();\n        \n        GoldStarAddress = addressManager.GoldStarAddress();\n        PinkSlipAddress = addressManager.PinkSlipAddress();\n        ChadBadgeAddress = addressManager.ChadBadgeAddress();\n        ColoredIDAddress = addressManager.ColoredIDAddress();\n\n        JuryPoolAddress = addressManager.JuryPoolAddress();\n        \n    }\n\n    function _updateAddressManager() internal {\n        // Set these from the Address Manager Contract\n        require(addressManager.hasMovedToNewAddress());\n        AddressManagerAddress = addressManager.newAddressManager();\n    \n    }\n    \n    \n\n    function updateAllAddresses() public {\n        _updateDAOAddresses();\n        _updateTokenAddresses();\n    }\n\n    function updateAddressManager() public {\n        _updateAddressManager();\n    }\n\n    function updateTokenAddresses() public {\n        _updateTokenAddresses();\n    }\n\n    function updateDAOAddresses() public {\n        _updateDAOAddresses();\n    }\n\n\n\n}",
  "sourcePath": "/home/n/Desktop/PinkSlips_FrontEnd_REFORMAT/contracts/src/AddressManagerReciever.sol",
  "compiler": {
    "name": "solc",
    "version": "0.8.6+commit.11564f7e.Emscripten.clang"
  },
  "schemaVersion": "3.4.1",
  "updatedAt": "2021-08-09T08:59:15.408Z",
  "devdoc": {
    "kind": "dev",
    "methods": {},
    "version": 1
  },
  "userdoc": {
    "kind": "user",
    "methods": {},
    "version": 1
  }
}