{
  "contractName": "AddressManager",
  "abi": [
    {
      "inputs": [
        {
          "internalType": "address",
          "name": "juryDAOAgent",
          "type": "address"
        },
        {
          "internalType": "address",
          "name": "gavelDAOAgent",
          "type": "address"
        },
        {
          "internalType": "address",
          "name": "treasuryAddress",
          "type": "address"
        },
        {
          "internalType": "address",
          "name": "theCourtAddress",
          "type": "address"
        },
        {
          "internalType": "address",
          "name": "_MiniBailiff",
          "type": "address"
        }
      ],
      "stateMutability": "nonpayable",
      "type": "constructor"
    },
    {
      "anonymous": false,
      "inputs": [
        {
          "indexed": false,
          "internalType": "address",
          "name": "",
          "type": "address"
        },
        {
          "indexed": false,
          "internalType": "string",
          "name": "",
          "type": "string"
        }
      ],
      "name": "AddressUpdated",
      "type": "event"
    },
    {
      "anonymous": false,
      "inputs": [
        {
          "indexed": true,
          "internalType": "bytes32",
          "name": "role",
          "type": "bytes32"
        },
        {
          "indexed": true,
          "internalType": "bytes32",
          "name": "previousAdminRole",
          "type": "bytes32"
        },
        {
          "indexed": true,
          "internalType": "bytes32",
          "name": "newAdminRole",
          "type": "bytes32"
        }
      ],
      "name": "RoleAdminChanged",
      "type": "event"
    },
    {
      "anonymous": false,
      "inputs": [
        {
          "indexed": true,
          "internalType": "bytes32",
          "name": "role",
          "type": "bytes32"
        },
        {
          "indexed": true,
          "internalType": "address",
          "name": "account",
          "type": "address"
        },
        {
          "indexed": true,
          "internalType": "address",
          "name": "sender",
          "type": "address"
        }
      ],
      "name": "RoleGranted",
      "type": "event"
    },
    {
      "anonymous": false,
      "inputs": [
        {
          "indexed": true,
          "internalType": "bytes32",
          "name": "role",
          "type": "bytes32"
        },
        {
          "indexed": true,
          "internalType": "address",
          "name": "account",
          "type": "address"
        },
        {
          "indexed": true,
          "internalType": "address",
          "name": "sender",
          "type": "address"
        }
      ],
      "name": "RoleRevoked",
      "type": "event"
    },
    {
      "inputs": [],
      "name": "ChadBadgeAddress",
      "outputs": [
        {
          "internalType": "address",
          "name": "",
          "type": "address"
        }
      ],
      "stateMutability": "view",
      "type": "function",
      "constant": true
    },
    {
      "inputs": [],
      "name": "ColoredIDAddress",
      "outputs": [
        {
          "internalType": "address",
          "name": "",
          "type": "address"
        }
      ],
      "stateMutability": "view",
      "type": "function",
      "constant": true
    },
    {
      "inputs": [],
      "name": "CourtClerk",
      "outputs": [
        {
          "internalType": "address",
          "name": "",
          "type": "address"
        }
      ],
      "stateMutability": "view",
      "type": "function",
      "constant": true
    },
    {
      "inputs": [],
      "name": "DEFAULT_ADMIN_ROLE",
      "outputs": [
        {
          "internalType": "bytes32",
          "name": "",
          "type": "bytes32"
        }
      ],
      "stateMutability": "view",
      "type": "function",
      "constant": true
    },
    {
      "inputs": [],
      "name": "GAVELS_BAILIFF",
      "outputs": [
        {
          "internalType": "bytes32",
          "name": "",
          "type": "bytes32"
        }
      ],
      "stateMutability": "view",
      "type": "function",
      "constant": true
    },
    {
      "inputs": [],
      "name": "GavelDAOAgent",
      "outputs": [
        {
          "internalType": "address",
          "name": "",
          "type": "address"
        }
      ],
      "stateMutability": "view",
      "type": "function",
      "constant": true
    },
    {
      "inputs": [],
      "name": "GavelTokenAddress",
      "outputs": [
        {
          "internalType": "address",
          "name": "",
          "type": "address"
        }
      ],
      "stateMutability": "view",
      "type": "function",
      "constant": true
    },
    {
      "inputs": [],
      "name": "GavelVote",
      "outputs": [
        {
          "internalType": "bool",
          "name": "",
          "type": "bool"
        }
      ],
      "stateMutability": "view",
      "type": "function",
      "constant": true
    },
    {
      "inputs": [],
      "name": "GoldStarAddress",
      "outputs": [
        {
          "internalType": "address",
          "name": "",
          "type": "address"
        }
      ],
      "stateMutability": "view",
      "type": "function",
      "constant": true
    },
    {
      "inputs": [],
      "name": "JERK_ROLE",
      "outputs": [
        {
          "internalType": "bytes32",
          "name": "",
          "type": "bytes32"
        }
      ],
      "stateMutability": "view",
      "type": "function",
      "constant": true
    },
    {
      "inputs": [],
      "name": "JURY_BAILIFF",
      "outputs": [
        {
          "internalType": "bytes32",
          "name": "",
          "type": "bytes32"
        }
      ],
      "stateMutability": "view",
      "type": "function",
      "constant": true
    },
    {
      "inputs": [],
      "name": "JuryDAOAgent",
      "outputs": [
        {
          "internalType": "address",
          "name": "",
          "type": "address"
        }
      ],
      "stateMutability": "view",
      "type": "function",
      "constant": true
    },
    {
      "inputs": [],
      "name": "JuryPoolAddress",
      "outputs": [
        {
          "internalType": "address",
          "name": "",
          "type": "address"
        }
      ],
      "stateMutability": "view",
      "type": "function",
      "constant": true
    },
    {
      "inputs": [],
      "name": "JuryVote",
      "outputs": [
        {
          "internalType": "bool",
          "name": "",
          "type": "bool"
        }
      ],
      "stateMutability": "view",
      "type": "function",
      "constant": true
    },
    {
      "inputs": [],
      "name": "MINI_BAILIFF_ROLE",
      "outputs": [
        {
          "internalType": "bytes32",
          "name": "",
          "type": "bytes32"
        }
      ],
      "stateMutability": "view",
      "type": "function",
      "constant": true
    },
    {
      "inputs": [],
      "name": "MiniBailiff",
      "outputs": [
        {
          "internalType": "address",
          "name": "",
          "type": "address"
        }
      ],
      "stateMutability": "view",
      "type": "function",
      "constant": true
    },
    {
      "inputs": [],
      "name": "PinkSlipAddress",
      "outputs": [
        {
          "internalType": "address",
          "name": "",
          "type": "address"
        }
      ],
      "stateMutability": "view",
      "type": "function",
      "constant": true
    },
    {
      "inputs": [],
      "name": "RedPenTokenAddress",
      "outputs": [
        {
          "internalType": "address",
          "name": "",
          "type": "address"
        }
      ],
      "stateMutability": "view",
      "type": "function",
      "constant": true
    },
    {
      "inputs": [],
      "name": "THE_COURT_ROLE",
      "outputs": [
        {
          "internalType": "bytes32",
          "name": "",
          "type": "bytes32"
        }
      ],
      "stateMutability": "view",
      "type": "function",
      "constant": true
    },
    {
      "inputs": [],
      "name": "TheCourtAddress",
      "outputs": [
        {
          "internalType": "address",
          "name": "",
          "type": "address"
        }
      ],
      "stateMutability": "view",
      "type": "function",
      "constant": true
    },
    {
      "inputs": [],
      "name": "TreasuryAddress",
      "outputs": [
        {
          "internalType": "address",
          "name": "",
          "type": "address"
        }
      ],
      "stateMutability": "view",
      "type": "function",
      "constant": true
    },
    {
      "inputs": [],
      "name": "badgeCount",
      "outputs": [
        {
          "internalType": "uint256",
          "name": "",
          "type": "uint256"
        }
      ],
      "stateMutability": "view",
      "type": "function",
      "constant": true
    },
    {
      "inputs": [
        {
          "internalType": "bytes32",
          "name": "role",
          "type": "bytes32"
        }
      ],
      "name": "getRoleAdmin",
      "outputs": [
        {
          "internalType": "bytes32",
          "name": "",
          "type": "bytes32"
        }
      ],
      "stateMutability": "view",
      "type": "function",
      "constant": true
    },
    {
      "inputs": [
        {
          "internalType": "bytes32",
          "name": "role",
          "type": "bytes32"
        },
        {
          "internalType": "uint256",
          "name": "index",
          "type": "uint256"
        }
      ],
      "name": "getRoleMember",
      "outputs": [
        {
          "internalType": "address",
          "name": "",
          "type": "address"
        }
      ],
      "stateMutability": "view",
      "type": "function",
      "constant": true
    },
    {
      "inputs": [
        {
          "internalType": "bytes32",
          "name": "role",
          "type": "bytes32"
        }
      ],
      "name": "getRoleMemberCount",
      "outputs": [
        {
          "internalType": "uint256",
          "name": "",
          "type": "uint256"
        }
      ],
      "stateMutability": "view",
      "type": "function",
      "constant": true
    },
    {
      "inputs": [
        {
          "internalType": "bytes32",
          "name": "role",
          "type": "bytes32"
        },
        {
          "internalType": "address",
          "name": "account",
          "type": "address"
        }
      ],
      "name": "grantRole",
      "outputs": [],
      "stateMutability": "nonpayable",
      "type": "function"
    },
    {
      "inputs": [],
      "name": "hasMovedToNewAddress",
      "outputs": [
        {
          "internalType": "bool",
          "name": "",
          "type": "bool"
        }
      ],
      "stateMutability": "view",
      "type": "function",
      "constant": true
    },
    {
      "inputs": [
        {
          "internalType": "bytes32",
          "name": "role",
          "type": "bytes32"
        },
        {
          "internalType": "address",
          "name": "account",
          "type": "address"
        }
      ],
      "name": "hasRole",
      "outputs": [
        {
          "internalType": "bool",
          "name": "",
          "type": "bool"
        }
      ],
      "stateMutability": "view",
      "type": "function",
      "constant": true
    },
    {
      "inputs": [],
      "name": "jerkSanctions",
      "outputs": [
        {
          "internalType": "bool",
          "name": "",
          "type": "bool"
        }
      ],
      "stateMutability": "view",
      "type": "function",
      "constant": true
    },
    {
      "inputs": [],
      "name": "newAddressManager",
      "outputs": [
        {
          "internalType": "address",
          "name": "",
          "type": "address"
        }
      ],
      "stateMutability": "view",
      "type": "function",
      "constant": true
    },
    {
      "inputs": [
        {
          "internalType": "bool",
          "name": "areYouSure",
          "type": "bool"
        }
      ],
      "name": "purgeSelf",
      "outputs": [
        {
          "internalType": "bool",
          "name": "",
          "type": "bool"
        }
      ],
      "stateMutability": "nonpayable",
      "type": "function"
    },
    {
      "inputs": [
        {
          "internalType": "address",
          "name": "addressToPurge",
          "type": "address"
        }
      ],
      "name": "purgeUser",
      "outputs": [],
      "stateMutability": "nonpayable",
      "type": "function"
    },
    {
      "inputs": [
        {
          "internalType": "bytes32",
          "name": "role",
          "type": "bytes32"
        },
        {
          "internalType": "address",
          "name": "account",
          "type": "address"
        }
      ],
      "name": "renounceRole",
      "outputs": [],
      "stateMutability": "nonpayable",
      "type": "function"
    },
    {
      "inputs": [
        {
          "internalType": "bytes32",
          "name": "ROLE_TO_UPDATE",
          "type": "bytes32"
        },
        {
          "internalType": "address",
          "name": "newRoleHolder",
          "type": "address"
        }
      ],
      "name": "resetSingleRole",
      "outputs": [],
      "stateMutability": "nonpayable",
      "type": "function"
    },
    {
      "inputs": [],
      "name": "resetVote",
      "outputs": [],
      "stateMutability": "nonpayable",
      "type": "function"
    },
    {
      "inputs": [
        {
          "internalType": "bytes32",
          "name": "role",
          "type": "bytes32"
        },
        {
          "internalType": "address",
          "name": "account",
          "type": "address"
        }
      ],
      "name": "revokeRole",
      "outputs": [],
      "stateMutability": "nonpayable",
      "type": "function"
    },
    {
      "inputs": [
        {
          "internalType": "bytes4",
          "name": "interfaceId",
          "type": "bytes4"
        }
      ],
      "name": "supportsInterface",
      "outputs": [
        {
          "internalType": "bool",
          "name": "",
          "type": "bool"
        }
      ],
      "stateMutability": "view",
      "type": "function",
      "constant": true
    },
    {
      "inputs": [],
      "name": "toggleJerkSanctions",
      "outputs": [],
      "stateMutability": "nonpayable",
      "type": "function"
    },
    {
      "inputs": [
        {
          "internalType": "bool",
          "name": "_vote",
          "type": "bool"
        }
      ],
      "name": "vote",
      "outputs": [],
      "stateMutability": "nonpayable",
      "type": "function"
    },
    {
      "inputs": [
        {
          "internalType": "address",
          "name": "newAddressManagerAddress",
          "type": "address"
        }
      ],
      "name": "setnewAddressManager",
      "outputs": [],
      "stateMutability": "nonpayable",
      "type": "function"
    },
    {
      "inputs": [
        {
          "internalType": "address",
          "name": "newAgentAddress",
          "type": "address"
        }
      ],
      "name": "addGavelAgent",
      "outputs": [],
      "stateMutability": "nonpayable",
      "type": "function"
    },
    {
      "inputs": [
        {
          "internalType": "address",
          "name": "newAgentAddress",
          "type": "address"
        }
      ],
      "name": "addJuryAgent",
      "outputs": [],
      "stateMutability": "nonpayable",
      "type": "function"
    },
    {
      "inputs": [
        {
          "internalType": "address",
          "name": "newAgentAddress",
          "type": "address"
        }
      ],
      "name": "addMiniBailiff",
      "outputs": [],
      "stateMutability": "nonpayable",
      "type": "function"
    },
    {
      "inputs": [
        {
          "internalType": "address",
          "name": "newAgentAddress",
          "type": "address"
        }
      ],
      "name": "setTheCourtAgent",
      "outputs": [],
      "stateMutability": "nonpayable",
      "type": "function"
    },
    {
      "inputs": [
        {
          "internalType": "address",
          "name": "newTreasuryAddress",
          "type": "address"
        }
      ],
      "name": "setTreasuryAddress",
      "outputs": [],
      "stateMutability": "nonpayable",
      "type": "function"
    },
    {
      "inputs": [
        {
          "internalType": "address",
          "name": "newCourtAddress",
          "type": "address"
        }
      ],
      "name": "setCourtAddress",
      "outputs": [],
      "stateMutability": "nonpayable",
      "type": "function"
    },
    {
      "inputs": [
        {
          "internalType": "address",
          "name": "_newCourtClerkAddress",
          "type": "address"
        }
      ],
      "name": "setCourtClerk",
      "outputs": [],
      "stateMutability": "nonpayable",
      "type": "function"
    },
    {
      "inputs": [
        {
          "internalType": "address",
          "name": "newGavelTokenAddress",
          "type": "address"
        }
      ],
      "name": "setGavelTokenAddress",
      "outputs": [],
      "stateMutability": "nonpayable",
      "type": "function"
    },
    {
      "inputs": [
        {
          "internalType": "address",
          "name": "newJuryPoolAddress",
          "type": "address"
        }
      ],
      "name": "setJuryPoolAddress",
      "outputs": [],
      "stateMutability": "nonpayable",
      "type": "function"
    },
    {
      "inputs": [
        {
          "internalType": "address",
          "name": "newRedPenTokenAddress",
          "type": "address"
        }
      ],
      "name": "setRedPenTokenAddress",
      "outputs": [],
      "stateMutability": "nonpayable",
      "type": "function"
    },
    {
      "inputs": [
        {
          "internalType": "address",
          "name": "newGoldStarAddress",
          "type": "address"
        }
      ],
      "name": "setGoldStarAddress",
      "outputs": [],
      "stateMutability": "nonpayable",
      "type": "function"
    },
    {
      "inputs": [
        {
          "internalType": "address",
          "name": "newPinkSlipAddress",
          "type": "address"
        }
      ],
      "name": "setPinkSlipAddress",
      "outputs": [],
      "stateMutability": "nonpayable",
      "type": "function"
    },
    {
      "inputs": [
        {
          "internalType": "address",
          "name": "newChadBadgeAddress",
          "type": "address"
        }
      ],
      "name": "setChadBadgeAddress",
      "outputs": [],
      "stateMutability": "nonpayable",
      "type": "function"
    },
    {
      "inputs": [
        {
          "internalType": "address",
          "name": "newColoredIDAddress",
          "type": "address"
        }
      ],
      "name": "setColoredIDAddress",
      "outputs": [],
      "stateMutability": "nonpayable",
      "type": "function"
    }
  ],
  "bytecode": "0x6000805460ff191690556003805462ffffff191690556010805460ff60a01b1916905560c0604052601d60808190527f7468652068656c6c2061726520796f7520646f696e673f2043276d6f6e00000060a090815262000063916011919062000365565b50604080518082019091526005808252642193b6b7b760d91b6020909201918252620000929160129162000365565b506000601355348015620000a557600080fd5b50604051620032db380380620032db833981016040819052620000c89162000428565b848483620000d860008262000218565b620001047f0538d24a8b7882d7b2e36af243d4af61c23e86e3daa6cb8c887b53220b2f57208262000218565b620001307f048bc71fa1cb2c119c339cf9cf00a97996a19a9d991ce5fe049f2fa5459e79908362000218565b6200015c7ffa8e4989e1d689f7bc5c4b25b87efb51fecdecb19ba62847e29c759e12a89acd8462000218565b620001887ff0f4b159a6e2a4815eb3ca3df080bfa70c9270662c59bcaa4479a456220183e68262000218565b620001b57f7c9d7f6f02908185bffb3f7fc9afb29fd7bf93675af8fd4b655ee05c2cee1e0e600062000218565b5050600b80546001600160a01b03199081166001600160a01b0397881617909155600c805482169787169790971790965550600d8054861693851693909317909255600e80548516918416919091179055600f80549093169116179055620004d5565b6200022f82826200025b60201b62001fc21760201c565b60008281526002602090815260409091206200025691839062001fcc6200026b821b17901c565b505050565b6200026782826200028b565b5050565b600062000282836001600160a01b03841662000313565b90505b92915050565b60008281526001602090815260408083206001600160a01b038516845290915290205460ff16620002675760008281526001602081815260408084206001600160a01b0386168086529252808420805460ff19169093179092559051339285917f2f8788117e7eff1d82e926ec794901d17c78024a50270940304540a733656f0d9190a45050565b60008181526001830160205260408120546200035c5750815460018181018455600084815260208082209093018490558454848252828601909352604090209190915562000285565b50600062000285565b828054620003739062000498565b90600052602060002090601f016020900481019282620003975760008555620003e2565b82601f10620003b257805160ff1916838001178555620003e2565b82800160010185558215620003e2579182015b82811115620003e2578251825591602001919060010190620003c5565b50620003f0929150620003f4565b5090565b5b80821115620003f05760008155600101620003f5565b80516001600160a01b03811681146200042357600080fd5b919050565b600080600080600060a086880312156200044157600080fd5b6200044c866200040b565b94506200045c602087016200040b565b93506200046c604087016200040b565b92506200047c606087016200040b565b91506200048c608087016200040b565b90509295509295909350565b600181811c90821680620004ad57607f821691505b60208210811415620004cf57634e487b7160e01b600052602260045260246000fd5b50919050565b612df680620004e56000396000f3fe608060405234801561001057600080fd5b50600436106103425760003560e01c80638ea5ad61116101b8578063caed230211610104578063dadf56ac116100a2578063ef75cbc21161007c578063ef75cbc214610750578063f98447ac14610763578063fe525a6c14610776578063ff7e88ec1461078957600080fd5b8063dadf56ac14610715578063e6217e3a14610728578063e9a532301461073b57600080fd5b8063cf4ece15116100de578063cf4ece15146106b5578063d547741f146106dc578063d88127a1146106ef578063da6cb6061461070257600080fd5b8063caed230214610668578063cb6d55741461067b578063cce843921461068e57600080fd5b8063a44b932511610171578063ac7cfac31161014b578063ac7cfac31461061c578063bfb7dc991461062f578063c0f647ab14610642578063ca15c8731461065557600080fd5b8063a44b9325146105e8578063a78e746f146105fc578063a7b9ee5a1461060957600080fd5b80638ea5ad611461057f5780639010d07c1461059257806391d14854146105a557806396c4f405146105b8578063a217fddf146105cb578063a32c5e59146105d357600080fd5b80634a6d4244116102925780635f88b56611610230578063762ddb591161020a578063762ddb59146105335780637e253e0a146105465780637ecf4a89146105595780638c838d6f1461056c57600080fd5b80635f88b566146104fa5780636605bfda1461050d5780636b5847751461052057600080fd5b80635b5c251f1161026c5780635b5c251f146104b85780635b806645146104cb5780635be78997146104d45780635f413466146104e757600080fd5b80634a6d42441461047f5780634b9f5c981461049257806357200482146104a557600080fd5b8063248a9ca3116102ff578063329a8cfa116102d9578063329a8cfa1461044957806336568abe1461045157806336e969a2146104645780633f86ea7c1461046c57600080fd5b8063248a9ca3146103ff5780632f2ff15d146104235780632fb565851461043657600080fd5b806301ffc9a714610347578063024bebe91461036f5780630a726d141461039a578063104c0f1f146103af57806321d7f008146103c25780632436329d146103dc575b600080fd5b61035a610355366004612969565b61079b565b60405190151581526020015b60405180910390f35b600c54610382906001600160a01b031681565b6040516001600160a01b039091168152602001610366565b6103ad6103a83660046128a2565b6107c6565b005b6103ad6103bd3660046128a2565b6108ae565b60035461038290630100000090046001600160a01b031681565b6103f1600080516020612d4183398151915281565b604051908152602001610366565b6103f161040d3660046128fe565b6000908152600160208190526040909120015490565b6103ad610431366004612917565b6109b4565b60035461035a9062010000900460ff1681565b6103ad6109db565b6103ad61045f366004612917565b610a55565b6103ad610a77565b600754610382906001600160a01b031681565b6103ad61048d3660046128a2565b610af1565b6103ad6104a03660046128dc565b610c9e565b600854610382906001600160a01b031681565b600d54610382906001600160a01b031681565b6103f160135481565b6103ad6104e23660046128a2565b610dd3565b600e54610382906001600160a01b031681565b61035a6105083660046128dc565b610ef9565b6103ad61051b3660046128a2565b610f20565b600954610382906001600160a01b031681565b600454610382906001600160a01b031681565b6103ad6105543660046128a2565b611076565b6103ad6105673660046128a2565b611197565b6103ad61057a3660046128a2565b611293565b6103ad61058d3660046128a2565b6113e6565b6103826105a0366004612947565b61158c565b61035a6105b3366004612917565b6115ab565b6103ad6105c63660046128a2565b6115d6565b6103f1600081565b6103f1600080516020612da183398151915281565b60105461035a90600160a01b900460ff1681565b60035461035a9060ff1681565b6103ad6106173660046128a2565b61177c565b601054610382906001600160a01b031681565b600554610382906001600160a01b031681565b6103ad6106503660046128a2565b61184b565b6103f16106633660046128fe565b611917565b6103ad6106763660046128a2565b61192e565b6103ad610689366004612917565b611a47565b6103f17f7c9d7f6f02908185bffb3f7fc9afb29fd7bf93675af8fd4b655ee05c2cee1e0e81565b6103f17ff0f4b159a6e2a4815eb3ca3df080bfa70c9270662c59bcaa4479a456220183e681565b6103ad6106ea366004612917565b611b71565b600a54610382906001600160a01b031681565b6103ad6107103660046128a2565b611b7b565b600b54610382906001600160a01b031681565b600f54610382906001600160a01b031681565b6103f1600080516020612d6183398151915281565b6103ad61075e3660046128a2565b611d20565b600654610382906001600160a01b031681565b6103ad6107843660046128a2565b611ded565b60035461035a90610100900460ff1681565b60006001600160e01b03198216635a05180f60e01b14806107c057506107c082611fe1565b92915050565b6107de600080516020612d61833981519152336115ab565b806107fc57506107fc600080516020612d41833981519152336115ab565b8061081a575061081a600080516020612da1833981519152336115ab565b61082357600080fd5b600354610100810460ff908116151562010000909204161515146001148061085e575061085e600080516020612da1833981519152336115ab565b6108835760405162461bcd60e51b815260040161087a90612afc565b60405180910390fd5b6001600160a01b03811633141561089957600080fd5b6108a281612016565b506108ab612073565b50565b6108c6600080516020612da1833981519152336115ab565b806108e457506108e4600080516020612d61833981519152336115ab565b806109025750610902600080516020612d41833981519152336115ab565b61091e5760405162461bcd60e51b815260040161087a90612b26565b600061094a7ff0f4b159a6e2a4815eb3ca3df080bfa70c9270662c59bcaa4479a456220183e683612081565b905060018115151461095b57600080fd5b604080516001600160a01b0384168152602081018290526010918101919091526f2732bb9026b4b734902130b4b634b33360811b6060820152600080516020612d81833981519152906080015b60405180910390a15050565b6109be8282612125565b60008281526002602052604090206109d69082611fcc565b505050565b6109f3600080516020612da1833981519152336115ab565b80610a115750610a11600080516020612d61833981519152336115ab565b80610a2f5750610a2f600080516020612d41833981519152336115ab565b610a4b5760405162461bcd60e51b815260040161087a90612b26565b610a53612073565b565b610a5f828261215f565b60008281526002602052604090206109d690826121d9565b610a8f600080516020612d41833981519152336115ab565b80610aad5750610aad600080516020612da1833981519152336115ab565b610ac95760405162461bcd60e51b815260040161087a90612b56565b60035460ff16151560011415610ae5576003805460ff19169055565b6003805460ff19169055565b610b09600080516020612d61833981519152336115ab565b80610b275750610b27600080516020612d41833981519152336115ab565b80610b455750610b45600080516020612da1833981519152336115ab565b610b4e57600080fd5b600354610100810460ff9081161515620100009092041615151460011480610b895750610b89600080516020612da1833981519152336115ab565b610ba55760405162461bcd60e51b815260040161087a90612afc565b60126001600160a01b038216610bce5760405162461bcd60e51b815260040161087a9190612a54565b506003546001600160a01b0382811663010000009092041614801590610c0257506004546001600160a01b03828116911614155b610c1e5760405162461bcd60e51b815260040161087a90612b83565b600780546001600160a01b0319166001600160a01b038316179055610c41612073565b604080516001600160a01b038316815260208101829052601591810191909152744e657720436861644261646765204164647265737360581b6060820152600080516020612d81833981519152906080015b60405180910390a150565b610cb6600080516020612da1833981519152336115ab565b80610cd45750610cd4600080516020612d61833981519152336115ab565b80610cf25750610cf2600080516020612d41833981519152336115ab565b610d0e5760405162461bcd60e51b815260040161087a90612b26565b610d26600080516020612da1833981519152336115ab565b15610d675760038054610100831515810261ff0019831681179190910460ff161515620100000262ff00001990911662ffff00199092169190911717905550565b610d7f600080516020612d61833981519152336115ab565b15610d9c57600380548215156101000261ff001990911617905550565b610db4600080516020612d41833981519152336115ab565b156108ab5760038054821515620100000262ff00001990911617905550565b610deb600080516020612d61833981519152336115ab565b80610e095750610e09600080516020612da1833981519152336115ab565b610e255760405162461bcd60e51b815260040161087a90612bb0565b60126001600160a01b038216610e4e5760405162461bcd60e51b815260040161087a9190612a54565b506004546001600160a01b0382811691161415610e7d5760405162461bcd60e51b815260040161087a90612bdf565b600380546301000000600160b81b03191663010000006001600160a01b0384169081029190911790915560408051918252602082018190526017908201527f4e657720476176656c20546f6b656e20416464726573730000000000000000006060820152600080516020612d8183398151915290608001610c93565b600060018215151415610f1857610f0f336121ee565b50600192915050565b506000919050565b610f38600080516020612d61833981519152336115ab565b80610f565750610f56600080516020612d41833981519152336115ab565b80610f745750610f74600080516020612da1833981519152336115ab565b610f7d57600080fd5b600354610100810460ff9081161515620100009092041615151460011480610fb85750610fb8600080516020612da1833981519152336115ab565b610fd45760405162461bcd60e51b815260040161087a90612afc565b60116001600160a01b038216610ffd5760405162461bcd60e51b815260040161087a9190612a54565b50600d80546001600160a01b0319166001600160a01b038316179055611021612073565b604080516001600160a01b038316815260208101829052601491810191909152734e6577205472656173757279204164647265737360601b6060820152600080516020612d8183398151915290608001610c93565b61108e600080516020612d41833981519152336115ab565b806110ac57506110ac600080516020612da1833981519152336115ab565b6110c85760405162461bcd60e51b815260040161087a90612b56565b60126001600160a01b0382166110f15760405162461bcd60e51b815260040161087a9190612a54565b506003546001600160a01b0382811663010000009092041614156111275760405162461bcd60e51b815260040161087a90612bdf565b600480546001600160a01b0319166001600160a01b03831690811790915560408051918252602082018190526019908201527f4e6577205265642050656e20546f6b656e2041646472657373000000000000006060820152600080516020612d8183398151915290608001610c93565b6111af600080516020612da1833981519152336115ab565b806111cd57506111cd600080516020612d61833981519152336115ab565b806111eb57506111eb600080516020612d41833981519152336115ab565b6112075760405162461bcd60e51b815260040161087a90612b26565b60126001600160a01b0382166112305760405162461bcd60e51b815260040161087a9190612a54565b50600a80546001600160a01b0319166001600160a01b0383169081179091556040805191825260208201819052600f908201526e4e657720436f75727420436c65726b60881b6060820152600080516020612d8183398151915290608001610c93565b6112ab600080516020612d61833981519152336115ab565b806112c957506112c9600080516020612d41833981519152336115ab565b806112e757506112e7600080516020612da1833981519152336115ab565b6112f057600080fd5b600354610100810460ff908116151562010000909204161515146001148061132b575061132b600080516020612da1833981519152336115ab565b6113475760405162461bcd60e51b815260040161087a90612afc565b60126001600160a01b0382166113705760405162461bcd60e51b815260040161087a9190612a54565b50600e80546001600160a01b0319166001600160a01b038316179055611394612073565b604080516001600160a01b038316815260208101829052601191810191909152704e657720436f757274204164647265737360781b6060820152600080516020612d8183398151915290608001610c93565b6113fe600080516020612d61833981519152336115ab565b8061141c575061141c600080516020612d41833981519152336115ab565b8061143a575061143a600080516020612da1833981519152336115ab565b61144357600080fd5b600354610100810460ff908116151562010000909204161515146001148061147e575061147e600080516020612da1833981519152336115ab565b61149a5760405162461bcd60e51b815260040161087a90612afc565b60126001600160a01b0382166114c35760405162461bcd60e51b815260040161087a9190612a54565b506003546001600160a01b03828116630100000090920416148015906114f757506004546001600160a01b03828116911614155b6115135760405162461bcd60e51b815260040161087a90612b83565b600880546001600160a01b0319166001600160a01b038316179055611536612073565b604080516001600160a01b038316815260208101829052601591810191909152744e657720436f6c6f7265644944204164647265737360581b6060820152600080516020612d8183398151915290608001610c93565b60008281526002602052604081206115a49083612243565b9392505050565b60009182526001602090815260408084206001600160a01b0393909316845291905290205460ff1690565b6115ee600080516020612d61833981519152336115ab565b8061160c575061160c600080516020612d41833981519152336115ab565b8061162a575061162a600080516020612da1833981519152336115ab565b61163357600080fd5b600354610100810460ff908116151562010000909204161515146001148061166e575061166e600080516020612da1833981519152336115ab565b61168a5760405162461bcd60e51b815260040161087a90612afc565b60126001600160a01b0382166116b35760405162461bcd60e51b815260040161087a9190612a54565b506003546001600160a01b03828116630100000090920416148015906116e757506004546001600160a01b03828116911614155b6117035760405162461bcd60e51b815260040161087a90612b83565b600580546001600160a01b0319166001600160a01b038316179055611726612073565b604080516001600160a01b038316815260208101829052601591810191909152744e657720476f6c642053746172204164647265737360581b6060820152600080516020612d8183398151915290608001610c93565b611794600080516020612d61833981519152336115ab565b806117b257506117b2600080516020612da1833981519152336115ab565b6117ce5760405162461bcd60e51b815260040161087a90612bb0565b60006117e8600080516020612da183398151915283612081565b90506001811515146117f957600080fd5b604080516001600160a01b0384168152602081018290526011918101919091527013995dc810dbdd5c9d08115b1958dd1959607a1b6060820152600080516020612d81833981519152906080016109a8565b611863600080516020612d61833981519152336115ab565b806118815750611881600080516020612da1833981519152336115ab565b61189d5760405162461bcd60e51b815260040161087a90612bb0565b60006118b7600080516020612d4183398151915283612081565b90506001811515146118c857600080fd5b604080516001600160a01b038416815260208101829052600e918101919091526d13995dc8129d5c9e481059d95b9d60921b6060820152600080516020612d81833981519152906080016109a8565b60008181526002602052604081206107c09061224f565b611946600080516020612d41833981519152336115ab565b806119645750611964600080516020612da1833981519152336115ab565b6119805760405162461bcd60e51b815260040161087a90612b56565b60126001600160a01b0382166119a95760405162461bcd60e51b815260040161087a9190612a54565b506003546001600160a01b0382811663010000009092041614156119df5760405162461bcd60e51b815260040161087a90612bdf565b600980546001600160a01b0319166001600160a01b0383169081179091556040805191825260208201819052601590820152744e6577204a75727920506f6f6c204164647265737360581b6060820152600080516020612d8183398151915290608001610c93565b611a5f600080516020612d61833981519152336115ab565b80611a7d5750611a7d600080516020612d41833981519152336115ab565b80611a9b5750611a9b600080516020612da1833981519152336115ab565b611aa457600080fd5b600354610100810460ff9081161515620100009092041615151460011480611adf5750611adf600080516020612da1833981519152336115ab565b611afb5760405162461bcd60e51b815260040161087a90612afc565b611b0482612259565b50604051632f2ff15d60e01b8152600481018390526001600160a01b03821660248201523090632f2ff15d90604401600060405180830381600087803b158015611b4d57600080fd5b505af1158015611b61573d6000803e3d6000fd5b50505050611b6d612073565b5050565b610a5f82826123d4565b611b93600080516020612d61833981519152336115ab565b80611bb15750611bb1600080516020612d41833981519152336115ab565b80611bcf5750611bcf600080516020612da1833981519152336115ab565b611bd857600080fd5b600354610100810460ff9081161515620100009092041615151460011480611c135750611c13600080516020612da1833981519152336115ab565b611c2f5760405162461bcd60e51b815260040161087a90612afc565b60126001600160a01b038216611c585760405162461bcd60e51b815260040161087a9190612a54565b506003546001600160a01b0382811663010000009092041614801590611c8c57506004546001600160a01b03828116911614155b611ca85760405162461bcd60e51b815260040161087a90612b83565b600680546001600160a01b0319166001600160a01b038316179055611ccb612073565b604080516001600160a01b038316815260208101829052601491810191909152734e65772050696e6b536c6970204164647265737360601b6060820152600080516020612d8183398151915290608001610c93565b611d38600080516020612d61833981519152336115ab565b80611d565750611d56600080516020612da1833981519152336115ab565b611d725760405162461bcd60e51b815260040161087a90612bb0565b6000611d8c600080516020612d6183398151915283612081565b9050600181151514611d9d57600080fd5b604080516001600160a01b038416815260208101829052600f918101919091526e13995dc811d85d995b081059d95b9d608a1b6060820152600080516020612d81833981519152906080016109a8565b611e05600080516020612d61833981519152336115ab565b80611e235750611e23600080516020612d41833981519152336115ab565b80611e415750611e41600080516020612da1833981519152336115ab565b611e4a57600080fd5b600354610100810460ff9081161515620100009092041615151460011480611e855750611e85600080516020612da1833981519152336115ab565b611ea15760405162461bcd60e51b815260040161087a90612afc565b611eb9600080516020612da1833981519152336115ab565b80611ed75750611ed7600080516020612d61833981519152336115ab565b80611ef55750611ef5600080516020612d41833981519152336115ab565b611f115760405162461bcd60e51b815260040161087a90612b26565b60116001600160a01b038216611f3a5760405162461bcd60e51b815260040161087a9190612a54565b50601080546001600160a81b0319166001600160a01b03831617600160a01b179055611f64612073565b604080516001600160a01b0383168152602081018290526019918101919091527f4e657720416464726573734d616e6167657241646472657373000000000000006060820152600080516020612d8183398151915290608001610c93565b611b6d828261240e565b60006115a4836001600160a01b038416612479565b60006001600160e01b03198216637965db0b60e01b14806107c057506301ffc9a760e01b6001600160e01b03198316146107c0565b6000612030600080516020612d4183398151915283611b71565b612048600080516020612d6183398151915283611b71565b612060600080516020612da183398151915283611b71565b61206b600083611b71565b506001919050565b6003805462ffff0019169055565b600060116001600160a01b0383166120ac5760405162461bcd60e51b815260040161087a9190612a54565b506120b783836115ab565b156120c157600080fd5b6120cb83836109b4565b604080516001600160a01b03841681526020810182905260118183015270436865636b20526f6c65204576656e747360781b60608201529051600080516020612d818339815191529181900360800190a150600192915050565b600082815260016020819052604082200154905460ff161561214b576109d6838361240e565b61215581336124c8565b6109d6838361240e565b6001600160a01b03811633146121cf5760405162461bcd60e51b815260206004820152602f60248201527f416363657373436f6e74726f6c3a2063616e206f6e6c792072656e6f756e636560448201526e103937b632b9903337b91039b2b63360891b606482015260840161087a565b611b6d828261252c565b60006115a4836001600160a01b038416612593565b6000612208600080516020612d4183398151915283610a55565b612220600080516020612d6183398151915283610a55565b612238600080516020612da183398151915283610a55565b61206b600083610a55565b60006115a48383612680565b60006107c0825490565b60405163ca15c87360e01b8152600481018290526000908190309063ca15c8739060240160206040518083038186803b15801561229557600080fd5b505afa1580156122a9573d6000803e3d6000fd5b505050506040513d601f19601f820116820180604052508101906122cd9190612993565b905060005b818110156123ca57604051632404341f60e21b815260048101859052602481018290526000903090639010d07c9060440160206040518083038186803b15801561231b57600080fd5b505afa15801561232f573d6000803e3d6000fd5b505050506040513d601f19601f8201168201806040525081019061235391906128bf565b60405163d547741f60e01b8152600481018790526001600160a01b0382166024820152909150309063d547741f90604401600060405180830381600087803b15801561239e57600080fd5b505af11580156123b2573d6000803e3d6000fd5b505050505080806123c290612cb8565b9150506122d2565b5060019392505050565b600082815260016020819052604082200154905460ff16156123fa576109d6838361252c565b61240481336124c8565b6109d6838361252c565b61241882826115ab565b611b6d5760008281526001602081815260408084206001600160a01b0386168086529252808420805460ff19169093179092559051339285917f2f8788117e7eff1d82e926ec794901d17c78024a50270940304540a733656f0d9190a45050565b60008181526001830160205260408120546124c0575081546001818101845560008481526020808220909301849055845484825282860190935260409020919091556107c0565b5060006107c0565b6124d282826115ab565b611b6d576124ea816001600160a01b03166014612706565b6124f5836020612706565b6040516020016125069291906129ac565b60408051601f198184030181529082905262461bcd60e51b825261087a91600401612a21565b61253682826115ab565b15611b6d5760008281526001602090815260408083206001600160a01b0385168085529252808320805460ff1916905551339285917ff6391f5c32d9c69d2a47ea670b442974b53935d1edc7fd64eb21e047a839171b9190a45050565b600081815260018301602052604081205480156126765760006125b7600183612c5a565b85549091506000906125cb90600190612c5a565b905060008660000182815481106125e4576125e4612cff565b906000526020600020015490508087600001848154811061260757612607612cff565b60009182526020808320909101929092558281526001890190915260409020849055865487908061263a5761263a612ce9565b600190038181906000526020600020016000905590558660010160008781526020019081526020016000206000905560019450505050506107c0565b60009150506107c0565b815460009082106126de5760405162461bcd60e51b815260206004820152602260248201527f456e756d657261626c655365743a20696e646578206f7574206f6620626f756e604482015261647360f01b606482015260840161087a565b8260000182815481106126f3576126f3612cff565b9060005260206000200154905092915050565b60606000612715836002612c3b565b612720906002612c23565b67ffffffffffffffff81111561273857612738612d15565b6040519080825280601f01601f191660200182016040528015612762576020820181803683370190505b509050600360fc1b8160008151811061277d5761277d612cff565b60200101906001600160f81b031916908160001a905350600f60fb1b816001815181106127ac576127ac612cff565b60200101906001600160f81b031916908160001a90535060006127d0846002612c3b565b6127db906001612c23565b90505b6001811115612853576f181899199a1a9b1b9c1cb0b131b232b360811b85600f166010811061280f5761280f612cff565b1a60f81b82828151811061282557612825612cff565b60200101906001600160f81b031916908160001a90535060049490941c9361284c81612ca1565b90506127de565b5083156115a45760405162461bcd60e51b815260206004820181905260248201527f537472696e67733a20686578206c656e67746820696e73756666696369656e74604482015260640161087a565b6000602082840312156128b457600080fd5b81356115a481612d2b565b6000602082840312156128d157600080fd5b81516115a481612d2b565b6000602082840312156128ee57600080fd5b813580151581146115a457600080fd5b60006020828403121561291057600080fd5b5035919050565b6000806040838503121561292a57600080fd5b82359150602083013561293c81612d2b565b809150509250929050565b6000806040838503121561295a57600080fd5b50508035926020909101359150565b60006020828403121561297b57600080fd5b81356001600160e01b0319811681146115a457600080fd5b6000602082840312156129a557600080fd5b5051919050565b7f416363657373436f6e74726f6c3a206163636f756e74200000000000000000008152600083516129e4816017850160208801612c71565b7001034b99036b4b9b9b4b733903937b6329607d1b6017918401918201528351612a15816028840160208801612c71565b01602801949350505050565b6020815260008251806020840152612a40816040850160208701612c71565b601f01601f19169190910160400192915050565b600060208083526000845481600182811c915080831680612a7657607f831692505b858310811415612a9457634e487b7160e01b85526022600452602485fd5b878601838152602001818015612ab15760018114612ac257612aed565b60ff19861682528782019650612aed565b60008b81526020902060005b86811015612ae757815484820152908501908901612ace565b83019750505b50949998505050505050505050565b60208082526010908201526f436f757274204d75737420416772656560801b604082015260600190565b6020808252601690820152752cb7ba93b932903737ba103a3432903130b4b634b33360511b604082015260600190565b602080825260139082015272596f75277265206e6f7420746865204a75727960681b604082015260600190565b602080825260139082015272576861742061726520796f7520646f696e673f60681b604082015260600190565b602080825260159082015274596f75277265206e6f742074686520476176656c7360581b604082015260600190565b60208082526024908201527f446f6e2774206d6573732077697468207468652062616c616e6365206f66207060408201526337bbb2b960e11b606082015260800190565b60008219821115612c3657612c36612cd3565b500190565b6000816000190483118215151615612c5557612c55612cd3565b500290565b600082821015612c6c57612c6c612cd3565b500390565b60005b83811015612c8c578181015183820152602001612c74565b83811115612c9b576000848401525b50505050565b600081612cb057612cb0612cd3565b506000190190565b6000600019821415612ccc57612ccc612cd3565b5060010190565b634e487b7160e01b600052601160045260246000fd5b634e487b7160e01b600052603160045260246000fd5b634e487b7160e01b600052603260045260246000fd5b634e487b7160e01b600052604160045260246000fd5b6001600160a01b03811681146108ab57600080fdfefa8e4989e1d689f7bc5c4b25b87efb51fecdecb19ba62847e29c759e12a89acd048bc71fa1cb2c119c339cf9cf00a97996a19a9d991ce5fe049f2fa5459e79907e8c379daaa14042eac528cc8c0cbb33194c8a3a2197c997f7220e8c057038340538d24a8b7882d7b2e36af243d4af61c23e86e3daa6cb8c887b53220b2f5720a26469706673582212209951e5b51a92fa2ce9eb645fcb474718b26fd271d942990f7396760fd3a64c0264736f6c63430008060033",
  "immutableReferences": {},
  "source": "    pragma solidity ^0.8.0;\n\n    import './ConsensusMachine.sol';\n   \n    contract AddressManager is ConsensusMachine {/// Change the Gavels Agent Address\n        \n        address public GavelTokenAddress;\n        address public RedPenTokenAddress;\n\n        address public GoldStarAddress;\n        address public PinkSlipAddress;\n        address public ChadBadgeAddress;\n        address public ColoredIDAddress;\n\n        \n        address public  JuryPoolAddress;\n\n        address public CourtClerk;\n        address public GavelDAOAgent;\n        address public JuryDAOAgent;\n        address public TreasuryAddress;\n        address public TheCourtAddress;\n\n        address public MiniBailiff;\n\n        address public newAddressManager; // For the ability to upgrade if neccesary.\n        bool public hasMovedToNewAddress = false;\n\n        string private errorMessage = \"the hell are you doing? C'mon\";\n        string private zeroAddressWarning = \"C'mon\";\n\n        uint public badgeCount = 0;\n\n        event AddressUpdated(address, string);\n\n        constructor(address juryDAOAgent, address gavelDAOAgent, address treasuryAddress,\n                    address theCourtAddress, address _MiniBailiff)\n                    ConsensusMachine(juryDAOAgent, gavelDAOAgent, theCourtAddress) {\n\n            GavelDAOAgent = gavelDAOAgent;\n            JuryDAOAgent = juryDAOAgent;\n            TreasuryAddress = treasuryAddress;\n            TheCourtAddress = theCourtAddress;\n            MiniBailiff = _MiniBailiff;\n\n        }\n\n    \n\n\n    /////////////////////////////////////////////////////////////////////////////////////////////////\n    /////////////////////////////////////////////////////////////////////////////////////////////////\n    /// @dev                                                                                     ////\n    /// Address Setters                                                                          ////\n    /////////////////////////////////////////////////////////////////////////////////////////////////\n    /////////////////////////////////////////////////////////////////////////////////////////////////\n\n        function setnewAddressManager(address newAddressManagerAddress) public THE_COURT BAILIFF {\n            require(newAddressManagerAddress != address(0), errorMessage);\n            newAddressManager = newAddressManagerAddress;\n            hasMovedToNewAddress = true;\n            _resetVote();\n\n            emit AddressUpdated(newAddressManagerAddress, \"New AddressManagerAddress\");\n        }\n\n\n        function _setAgent( bytes32 ROLE , address newAgentAddress) internal returns (bool) {\n            require(newAgentAddress != address(0), errorMessage);\n            require(!hasRole(ROLE, newAgentAddress));\n            grantRole(ROLE, newAgentAddress);\n            emit AddressUpdated(newAgentAddress, \"Check Role Events\" );\n            return true;\n        }\n\n        /// Change the Gavel Agent Address\n        function addGavelAgent(address newAgentAddress) public GAVELS {\n            bool success = _setAgent(GAVELS_BAILIFF, newAgentAddress);\n            require(success == true);\n            emit AddressUpdated(newAgentAddress, \"New Gavel Agent\");\n        }\n\n\n        /// Change the Jury Agent Address\n        function addJuryAgent(address newAgentAddress) public GAVELS {\n            bool success = _setAgent(JURY_BAILIFF, newAgentAddress);\n            require(success == true);\n            emit AddressUpdated(newAgentAddress, \"New Jury Agent\");\n\n        }\n\n        function addMiniBailiff(address newAgentAddress) public BAILIFF {\n            bool success = _setAgent(MINI_BAILIFF_ROLE, newAgentAddress);\n            require(success == true);\n            emit AddressUpdated(newAgentAddress, \"New Mini Bailiff\");\n        }\n\n        /// Change the Court Agent Address\n        function setTheCourtAgent(address newAgentAddress) public GAVELS {\n            bool success = _setAgent(THE_COURT_ROLE, newAgentAddress);\n            require(success == true);\n            emit AddressUpdated(newAgentAddress, \"New Court Elected\");\n        }\n\n        /// Change the Treasury Address\n        function setTreasuryAddress(address newTreasuryAddress) public THE_COURT {\n            require(newTreasuryAddress != address(0), errorMessage);\n            TreasuryAddress = newTreasuryAddress;\n            _resetVote();\n            emit AddressUpdated(newTreasuryAddress, \"New Treasury Address\");\n        }\n\n        function setCourtAddress(address newCourtAddress) public THE_COURT {\n            require(newCourtAddress != address(0), zeroAddressWarning);\n            TheCourtAddress = newCourtAddress;\n            _resetVote();\n            emit AddressUpdated(newCourtAddress, \"New Court Address\");\n            \n        }\n\n        function setCourtClerk(address _newCourtClerkAddress) public BAILIFF {\n            require(_newCourtClerkAddress != address(0), zeroAddressWarning);\n            CourtClerk = _newCourtClerkAddress;\n            emit AddressUpdated(CourtClerk, \"New Court Clerk\");\n            \n        }\n\n        function setGavelTokenAddress(address newGavelTokenAddress) public GAVELS {\n            require(newGavelTokenAddress != address(0), zeroAddressWarning);\n            require(newGavelTokenAddress != RedPenTokenAddress, \"Don't mess with the balance of power\");\n            GavelTokenAddress = newGavelTokenAddress;\n    \n            emit AddressUpdated(newGavelTokenAddress, \"New Gavel Token Address\");            \n        }\n\n        function setJuryPoolAddress(address newJuryPoolAddress) public JURY  {\n            require(newJuryPoolAddress != address(0), zeroAddressWarning);\n            require(newJuryPoolAddress != GavelTokenAddress, \"Don't mess with the balance of power\");\n            JuryPoolAddress = newJuryPoolAddress;\n     \n            emit AddressUpdated(newJuryPoolAddress, \"New Jury Pool Address\"); \n        }\n\n        function setRedPenTokenAddress(address newRedPenTokenAddress) public JURY  {\n            require(newRedPenTokenAddress != address(0), zeroAddressWarning);\n            require(newRedPenTokenAddress != GavelTokenAddress, \"Don't mess with the balance of power\");\n            RedPenTokenAddress = newRedPenTokenAddress;\n\n            emit AddressUpdated(newRedPenTokenAddress, \"New Red Pen Token Address\"); \n        }\n\n        function setGoldStarAddress(address newGoldStarAddress) public THE_COURT {\n            require(newGoldStarAddress != address(0), zeroAddressWarning);\n            require(newGoldStarAddress != GavelTokenAddress && newGoldStarAddress != RedPenTokenAddress, \"What are you doing?\");\n            GoldStarAddress = newGoldStarAddress;\n            _resetVote();\n            emit AddressUpdated(newGoldStarAddress, \"New Gold Star Address\"); \n        }\n\n        function setPinkSlipAddress(address newPinkSlipAddress) public THE_COURT {\n            require(newPinkSlipAddress != address(0), zeroAddressWarning);\n            require(newPinkSlipAddress != GavelTokenAddress && newPinkSlipAddress != RedPenTokenAddress, \"What are you doing?\");\n            PinkSlipAddress = newPinkSlipAddress;\n            _resetVote();\n            emit AddressUpdated(newPinkSlipAddress, \"New PinkSlip Address\");\n        }\n\n        function setChadBadgeAddress(address newChadBadgeAddress) public THE_COURT {\n            require(newChadBadgeAddress != address(0), zeroAddressWarning);\n            require(newChadBadgeAddress != GavelTokenAddress && newChadBadgeAddress != RedPenTokenAddress, \"What are you doing?\");\n            ChadBadgeAddress = newChadBadgeAddress;\n            _resetVote();\n            emit AddressUpdated(newChadBadgeAddress, \"New ChadBadge Address\");\n        }\n\n        function setColoredIDAddress(address newColoredIDAddress) public THE_COURT {\n            require(newColoredIDAddress != address(0), zeroAddressWarning);\n            require(newColoredIDAddress != GavelTokenAddress && newColoredIDAddress != RedPenTokenAddress, \"What are you doing?\");\n            ColoredIDAddress = newColoredIDAddress;\n            _resetVote();\n            emit AddressUpdated(newColoredIDAddress, \"New ColoredID Address\");\n        }\n\n\n\n\n    /////////////////////////////////////////////////////////////////////////////////////////////////\n    /////////////////////////////////////////////////////////////////////////////////////////////////\n    /// @dev  END                                                                                ////\n    /////////////////////////////////////////////////////////////////////////////////////////////////\n    /////////////////////////////////////////////////////////////////////////////////////////////////\n    }\n\n\n    /////////////////////////////////////////////////////////////////////////////////////////////////\n    /////////////////////////////////////////////////////////////////////////////////////////////////\n    /// @dev                                                                                     ////\n    /// @dev                                                                                     ////\n    /// @dev                                                                                     ////\n    /////////////////////////////////////////////////////////////////////////////////////////////////\n    /////////////////////////////////////////////////////////////////////////////////////////////////\n\n    /////////////////////////////////////////////////////////////////////////////////////////////////\n    /////////////////////////////////////////////////////////////////////////////////////////////////\n    /// @dev                                                                                     ////\n    /// @dev                                                                                     ////\n    /////////////////////////////////////////////////////////////////////////////////////////////////\n    /////////////////////////////////////////////////////////////////////////////////////////////////",
  "sourcePath": "/home/n/Desktop/PinkSlips_FrontEnd_REFORMAT/contracts/src/AddressManager.sol",
  "compiler": {
    "name": "solc",
    "version": "0.8.6+commit.11564f7e.Emscripten.clang"
  },
  "schemaVersion": "3.4.1",
  "updatedAt": "2021-08-12T06:31:46.096Z",
  "networkType": "ethereum",
  "devdoc": {
    "kind": "dev",
    "methods": {
      "getRoleAdmin(bytes32)": {
        "details": "Returns the admin role that controls `role`. See {grantRole} and {revokeRole}. To change a role's admin, use {_setRoleAdmin}."
      },
      "getRoleMember(bytes32,uint256)": {
        "details": "Returns one of the accounts that have `role`. `index` must be a value between 0 and {getRoleMemberCount}, non-inclusive. Role bearers are not sorted in any particular way, and their ordering may change at any point. WARNING: When using {getRoleMember} and {getRoleMemberCount}, make sure you perform all queries on the same block. See the following https://forum.openzeppelin.com/t/iterating-over-elements-on-enumerableset-in-openzeppelin-contracts/2296[forum post] for more information."
      },
      "getRoleMemberCount(bytes32)": {
        "details": "Returns the number of accounts that have `role`. Can be used together with {getRoleMember} to enumerate all bearers of a role."
      },
      "grantRole(bytes32,address)": {
        "details": "Overload {grantRole} to track enumerable memberships"
      },
      "hasRole(bytes32,address)": {
        "details": "Returns `true` if `account` has been granted `role`."
      },
      "renounceRole(bytes32,address)": {
        "details": "Overload {renounceRole} to track enumerable memberships"
      },
      "revokeRole(bytes32,address)": {
        "details": "Overload {revokeRole} to track enumerable memberships"
      },
      "setnewAddressManager(address)": {
        "details": "//// Address Setters                                                                          ////"
      },
      "supportsInterface(bytes4)": {
        "details": "See {IERC165-supportsInterface}."
      },
      "vote(bool)": {
        "details": "//// Consensus Machine                                                                        ////"
      }
    },
    "version": 1
  },
  "userdoc": {
    "kind": "user",
    "methods": {
      "GavelTokenAddress()": {
        "notice": "Change the Gavels Agent Address"
      },
      "addGavelAgent(address)": {
        "notice": "Change the Gavel Agent Address"
      },
      "addJuryAgent(address)": {
        "notice": "Change the Jury Agent Address"
      },
      "setTheCourtAgent(address)": {
        "notice": "Change the Court Agent Address"
      },
      "setTreasuryAddress(address)": {
        "notice": "Change the Treasury Address"
      }
    },
    "version": 1
  }
}