{
  "contractName": "AddressManagerRecieverMini",
  "abi": [
    {
      "inputs": [
        {
          "internalType": "address",
          "name": "_AddressManagerAddress",
          "type": "address"
        }
      ],
      "stateMutability": "nonpayable",
      "type": "constructor"
    },
    {
      "inputs": [],
      "name": "AddressManagerAddress",
      "outputs": [
        {
          "internalType": "address",
          "name": "",
          "type": "address"
        }
      ],
      "stateMutability": "view",
      "type": "function"
    },
    {
      "inputs": [],
      "name": "JuryDAOAddress",
      "outputs": [
        {
          "internalType": "address",
          "name": "",
          "type": "address"
        }
      ],
      "stateMutability": "view",
      "type": "function"
    },
    {
      "inputs": [],
      "name": "JuryDAOAgent",
      "outputs": [
        {
          "internalType": "address",
          "name": "",
          "type": "address"
        }
      ],
      "stateMutability": "view",
      "type": "function"
    },
    {
      "inputs": [],
      "name": "addressManager",
      "outputs": [
        {
          "internalType": "contract AddressManager",
          "name": "",
          "type": "address"
        }
      ],
      "stateMutability": "view",
      "type": "function"
    },
    {
      "inputs": [],
      "name": "updateAllAddresses",
      "outputs": [],
      "stateMutability": "nonpayable",
      "type": "function"
    },
    {
      "inputs": [],
      "name": "updateAddressManager",
      "outputs": [],
      "stateMutability": "nonpayable",
      "type": "function"
    },
    {
      "inputs": [],
      "name": "updateDAOAddresses",
      "outputs": [],
      "stateMutability": "nonpayable",
      "type": "function"
    },
    {
      "inputs": [],
      "name": "updateDAOAgents",
      "outputs": [],
      "stateMutability": "nonpayable",
      "type": "function"
    }
  ],
  "bytecode": "0x608060405234801561001057600080fd5b506040516104e53803806104e583398101604081905261002f9161005e565b600080546001600160a01b039092166001600160a01b031992831681179091556003805490921617905561008e565b60006020828403121561007057600080fd5b81516001600160a01b038116811461008757600080fd5b9392505050565b6104488061009d6000396000f3fe608060405234801561001057600080fd5b50600436106100885760003560e01c8063a99b27351161005b578063a99b2735146100e1578063b6085bf5146100f4578063e78c266c146100fc578063f1132b301461010f57600080fd5b8063024bebe91461008d578063326a55e0146100bc5780633ab76e9f146100c657806349b5e105146100d9575b600080fd5b6002546100a0906001600160a01b031681565b6040516001600160a01b03909116815260200160405180910390f35b6100c4610117565b005b6003546100a0906001600160a01b031681565b6100c4610129565b6001546100a0906001600160a01b031681565b6100c461011f565b6000546100a0906001600160a01b031681565b6100c4610131565b61011f610139565b6101276101e1565b565b610127610139565b610127610289565b600360009054906101000a90046001600160a01b03166001600160a01b031663a99b27356040518163ffffffff1660e01b815260040160206040518083038186803b15801561018757600080fd5b505afa15801561019b573d6000803e3d6000fd5b505050506040513d601f19601f820116820180604052508101906101bf91906103c0565b600180546001600160a01b0319166001600160a01b0392909216919091179055565b600360009054906101000a90046001600160a01b03166001600160a01b031663024bebe96040518163ffffffff1660e01b815260040160206040518083038186803b15801561022f57600080fd5b505afa158015610243573d6000803e3d6000fd5b505050506040513d601f19601f8201168201806040525081019061026791906103c0565b600280546001600160a01b0319166001600160a01b0392909216919091179055565b600360009054906101000a90046001600160a01b03166001600160a01b031663a44b93256040518163ffffffff1660e01b815260040160206040518083038186803b1580156102d757600080fd5b505afa1580156102eb573d6000803e3d6000fd5b505050506040513d601f19601f8201168201806040525081019061030f91906103f0565b61031857600080fd5b600360009054906101000a90046001600160a01b03166001600160a01b031663ac7cfac36040518163ffffffff1660e01b815260040160206040518083038186803b15801561036657600080fd5b505afa15801561037a573d6000803e3d6000fd5b505050506040513d601f19601f8201168201806040525081019061039e91906103c0565b600080546001600160a01b0319166001600160a01b0392909216919091179055565b6000602082840312156103d257600080fd5b81516001600160a01b03811681146103e957600080fd5b9392505050565b60006020828403121561040257600080fd5b815180151581146103e957600080fdfea26469706673582212208bcd550a1612b43d862bbd9a92c17ba4ab13375072e6f3b4b7414324d8efdcd664736f6c63430008060033",
  "immutableReferences": {},
  "source": "pragma solidity ^0.8.0;\n\nimport './AddressManager.sol';\n\n\ncontract AddressManagerRecieverMini {\n\n    // Master Address Manager Address\n    address public AddressManagerAddress;\n\n    // DAO addresses\n    address public JuryDAOAddress;\n\n    // Agent Addresses\n    address public JuryDAOAgent;\n\n\n    AddressManager public addressManager;\n    \n    constructor (address _AddressManagerAddress) {\n\n        AddressManagerAddress = _AddressManagerAddress;\n        addressManager = AddressManager(AddressManagerAddress);\n     \n    }\n\n\n    function _updateDAOAddresses() internal {\n        // Set these from the Address Manager Contract\n        JuryDAOAddress = addressManager.JuryDAOAddress();\n    \n    }\n\n    function _updateDAOAgents() internal {\n        // Set these from the Address Manager Contract\n        JuryDAOAgent = addressManager.JuryDAOAgent();\n    }\n\n\n    function _updateAddressManager() internal {\n        // Set these from the Address Manager Contract\n        require(addressManager.hasMovedToNewAddress());\n        AddressManagerAddress = addressManager.newAddressManager();\n    \n    }\n    \n    \n\n    function updateAllAddresses() public {\n        _updateDAOAddresses();\n        _updateDAOAgents();\n    }\n\n    function updateAddressManager() public {\n        _updateAddressManager();\n    }\n\n    function updateDAOAddresses() public {\n        _updateDAOAddresses();\n    }\n\n    function updateDAOAgents() public {\n        _updateDAOAgents();\n    }\n\n\n\n}",
  "sourcePath": "/home/n/Desktop/PinkSlips_FrontEnd_REFORMAT/contracts/src/AddressManagerRecieverMini.sol",
  "compiler": {
    "name": "solc",
    "version": "0.8.6+commit.11564f7e.Emscripten.clang"
  },
  "schemaVersion": "3.4.1",
  "updatedAt": "2021-08-06T08:13:48.976Z",
  "devdoc": {
    "kind": "dev",
    "methods": {},
    "version": 1
  },
  "userdoc": {
    "kind": "user",
    "methods": {},
    "version": 1
  }
}