{
  "contractName": "AddressManagerReciever",
  "abi": [
    {
      "inputs": [
        {
          "internalType": "address",
          "name": "_AddressManagerAddress",
          "type": "address"
        }
      ],
      "stateMutability": "nonpayable",
      "type": "constructor"
    },
    {
      "inputs": [],
      "name": "AddressManagerAddress",
      "outputs": [
        {
          "internalType": "address",
          "name": "",
          "type": "address"
        }
      ],
      "stateMutability": "view",
      "type": "function"
    },
    {
      "inputs": [],
      "name": "ChadBadgeAddress",
      "outputs": [
        {
          "internalType": "address",
          "name": "",
          "type": "address"
        }
      ],
      "stateMutability": "view",
      "type": "function"
    },
    {
      "inputs": [],
      "name": "GavelDAOAgent",
      "outputs": [
        {
          "internalType": "address",
          "name": "",
          "type": "address"
        }
      ],
      "stateMutability": "view",
      "type": "function"
    },
    {
      "inputs": [],
      "name": "GavelTokenAddress",
      "outputs": [
        {
          "internalType": "address",
          "name": "",
          "type": "address"
        }
      ],
      "stateMutability": "view",
      "type": "function"
    },
    {
      "inputs": [],
      "name": "GoldStarAddress",
      "outputs": [
        {
          "internalType": "address",
          "name": "",
          "type": "address"
        }
      ],
      "stateMutability": "view",
      "type": "function"
    },
    {
      "inputs": [],
      "name": "JuryDAOAgent",
      "outputs": [
        {
          "internalType": "address",
          "name": "",
          "type": "address"
        }
      ],
      "stateMutability": "view",
      "type": "function"
    },
    {
      "inputs": [],
      "name": "JuryPoolAddress",
      "outputs": [
        {
          "internalType": "address",
          "name": "",
          "type": "address"
        }
      ],
      "stateMutability": "view",
      "type": "function"
    },
    {
      "inputs": [],
      "name": "MiniBailiff",
      "outputs": [
        {
          "internalType": "address",
          "name": "",
          "type": "address"
        }
      ],
      "stateMutability": "view",
      "type": "function"
    },
    {
      "inputs": [],
      "name": "PinkSlipAddress",
      "outputs": [
        {
          "internalType": "address",
          "name": "",
          "type": "address"
        }
      ],
      "stateMutability": "view",
      "type": "function"
    },
    {
      "inputs": [],
      "name": "RedPenTokenAddress",
      "outputs": [
        {
          "internalType": "address",
          "name": "",
          "type": "address"
        }
      ],
      "stateMutability": "view",
      "type": "function"
    },
    {
      "inputs": [],
      "name": "TheCourtAddress",
      "outputs": [
        {
          "internalType": "address",
          "name": "",
          "type": "address"
        }
      ],
      "stateMutability": "view",
      "type": "function"
    },
    {
      "inputs": [],
      "name": "TreasuryAddress",
      "outputs": [
        {
          "internalType": "address",
          "name": "",
          "type": "address"
        }
      ],
      "stateMutability": "view",
      "type": "function"
    },
    {
      "inputs": [],
      "name": "addressManager",
      "outputs": [
        {
          "internalType": "contract AddressManager",
          "name": "",
          "type": "address"
        }
      ],
      "stateMutability": "view",
      "type": "function"
    },
    {
      "inputs": [],
      "name": "updateAllAddresses",
      "outputs": [],
      "stateMutability": "nonpayable",
      "type": "function"
    },
    {
      "inputs": [],
      "name": "updateAddressManager",
      "outputs": [],
      "stateMutability": "nonpayable",
      "type": "function"
    },
    {
      "inputs": [],
      "name": "updateTokenAddresses",
      "outputs": [],
      "stateMutability": "nonpayable",
      "type": "function"
    },
    {
      "inputs": [],
      "name": "updateDAOAddresses",
      "outputs": [],
      "stateMutability": "nonpayable",
      "type": "function"
    }
  ],
  "bytecode": "0x608060405234801561001057600080fd5b50604051610ad9380380610ad983398101604081905261002f91610061565b600080546001600160a01b03199081166001600160a01b039384161791829055600c805492909316911617905561008f565b600060208284031215610072578081fd5b81516001600160a01b0381168114610088578182fd5b9392505050565b610a3b8061009e6000396000f3fe608060405234801561001057600080fd5b506004361061010b5760003560e01c80635f413466116100a2578063dadf56ac11610071578063dadf56ac14610188578063e6217e3a14610190578063e78c266c14610198578063f1132b30146101a0578063f98447ac146101a85761010b565b80635f413466146101685780636b58477514610170578063762ddb5914610178578063bfb7dc99146101805761010b565b80633f86ea7c116100de5780633f86ea7c1461014857806349b5e105146101505780634d84c6d8146101585780635b5c251f146101605761010b565b8063024bebe91461011057806321d7f0081461012e578063326a55e0146101365780633ab76e9f14610140575b600080fd5b6101186101b0565b60405161012591906109f1565b60405180910390f35b6101186101bf565b61013e6101ce565b005b6101186101e0565b6101186101ef565b61013e6101fe565b61013e6101d6565b610118610206565b610118610215565b610118610224565b610118610233565b610118610242565b610118610251565b610118610260565b61011861026f565b61013e61027e565b610118610286565b6008546001600160a01b031681565b6001546001600160a01b031681565b6101d6610295565b6101de6104f0565b565b600c546001600160a01b031681565b6005546001600160a01b031681565b6101de610295565b6009546001600160a01b031681565b600a546001600160a01b031681565b6006546001600160a01b031681565b6002546001600160a01b031681565b6003546001600160a01b031681565b6007546001600160a01b031681565b600b546001600160a01b031681565b6000546001600160a01b031681565b6101de61086c565b6004546001600160a01b031681565b600c60009054906101000a90046001600160a01b03166001600160a01b031663dadf56ac6040518163ffffffff1660e01b815260040160206040518083038186803b1580156102e357600080fd5b505afa1580156102f7573d6000803e3d6000fd5b505050506040513d601f19601f8201168201806040525081019061031b91906109a3565b600780546001600160a01b0319166001600160a01b03928316179055600c546040805163024bebe960e01b81529051919092169163024bebe9916004808301926020929190829003018186803b15801561037457600080fd5b505afa158015610388573d6000803e3d6000fd5b505050506040513d601f19601f820116820180604052508101906103ac91906109a3565b600880546001600160a01b0319166001600160a01b03928316179055600c5460408051635b5c251f60e01b815290519190921691635b5c251f916004808301926020929190829003018186803b15801561040557600080fd5b505afa158015610419573d6000803e3d6000fd5b505050506040513d601f19601f8201168201806040525081019061043d91906109a3565b600980546001600160a01b0319166001600160a01b03928316179055600c5460408051637310bf1d60e11b81529051919092169163e6217e3a916004808301926020929190829003018186803b15801561049657600080fd5b505afa1580156104aa573d6000803e3d6000fd5b505050506040513d601f19601f820116820180604052508101906104ce91906109a3565b600b80546001600160a01b0319166001600160a01b0392909216919091179055565b600c60009054906101000a90046001600160a01b03166001600160a01b03166321d7f0086040518163ffffffff1660e01b815260040160206040518083038186803b15801561053e57600080fd5b505afa158015610552573d6000803e3d6000fd5b505050506040513d601f19601f8201168201806040525081019061057691906109a3565b600180546001600160a01b0319166001600160a01b03928316179055600c546040805163762ddb5960e01b81529051919092169163762ddb59916004808301926020929190829003018186803b1580156105cf57600080fd5b505afa1580156105e3573d6000803e3d6000fd5b505050506040513d601f19601f8201168201806040525081019061060791906109a3565b600280546001600160a01b0319166001600160a01b03928316179055600c546040805163bfb7dc9960e01b81529051919092169163bfb7dc99916004808301926020929190829003018186803b15801561066057600080fd5b505afa158015610674573d6000803e3d6000fd5b505050506040513d601f19601f8201168201806040525081019061069891906109a3565b600380546001600160a01b0319166001600160a01b03928316179055600c5460408051633e6111eb60e21b81529051919092169163f98447ac916004808301926020929190829003018186803b1580156106f157600080fd5b505afa158015610705573d6000803e3d6000fd5b505050506040513d601f19601f8201168201806040525081019061072991906109a3565b600480546001600160a01b0319166001600160a01b03928316178155600c5460408051630fe1ba9f60e21b815290519190931692633f86ea7c9281810192602092909190829003018186803b15801561078157600080fd5b505afa158015610795573d6000803e3d6000fd5b505050506040513d601f19601f820116820180604052508101906107b991906109a3565b600580546001600160a01b0319166001600160a01b03928316179055600c5460408051636b58477560e01b815290519190921691636b584775916004808301926020929190829003018186803b15801561081257600080fd5b505afa158015610826573d6000803e3d6000fd5b505050506040513d601f19601f8201168201806040525081019061084a91906109a3565b600680546001600160a01b0319166001600160a01b0392909216919091179055565b600c60009054906101000a90046001600160a01b03166001600160a01b031663a44b93256040518163ffffffff1660e01b815260040160206040518083038186803b1580156108ba57600080fd5b505afa1580156108ce573d6000803e3d6000fd5b505050506040513d601f19601f820116820180604052508101906108f291906109d1565b6108fb57600080fd5b600c60009054906101000a90046001600160a01b03166001600160a01b031663ac7cfac36040518163ffffffff1660e01b815260040160206040518083038186803b15801561094957600080fd5b505afa15801561095d573d6000803e3d6000fd5b505050506040513d601f19601f8201168201806040525081019061098191906109a3565b600080546001600160a01b0319166001600160a01b0392909216919091179055565b6000602082840312156109b4578081fd5b81516001600160a01b03811681146109ca578182fd5b9392505050565b6000602082840312156109e2578081fd5b815180151581146109ca578182fd5b6001600160a01b039190911681526020019056fea264697066735822122086494a8b121777a02d02781e00df4dce0dd7bddca9899e95b0d154acd0db690c64736f6c63430008000033",
  "immutableReferences": {},
  "source": "pragma solidity ^0.8.0;\n\nimport './AddressManager.sol';\n\n\ncontract AddressManagerReciever {\n\n    \n\n    address public AddressManagerAddress;\n\n    address public GavelTokenAddress;\n    address public RedPenTokenAddress;\n\n    address public GoldStarAddress;\n    address public PinkSlipAddress;\n    address public ChadBadgeAddress;\n\n    address public  JuryPoolAddress;\n    \n    address public GavelDAOAgent;\n    address public JuryDAOAgent;\n    address public TreasuryAddress;\n    address public TheCourtAddress;\n\n    address public MiniBailiff;\n    \n    AddressManager public addressManager;\n    \n    constructor (address _AddressManagerAddress) {\n\n        AddressManagerAddress = _AddressManagerAddress;\n        addressManager = AddressManager(AddressManagerAddress);\n     \n    }\n\n\n    function _updateDAOAddresses() internal {\n        // Set these from the Address Manager Contract\n        GavelDAOAgent = addressManager.GavelDAOAgent();\n        JuryDAOAgent = addressManager.JuryDAOAgent();\n        TreasuryAddress = addressManager.TreasuryAddress();\n        MiniBailiff = addressManager.MiniBailiff();\n    }\n\n    function _updateTokenAddresses() internal virtual {\n        // Set these from the Address Manager Contract\n        GavelTokenAddress = addressManager.GavelTokenAddress();\n        RedPenTokenAddress = addressManager.RedPenTokenAddress();\n        \n        GoldStarAddress = addressManager.GoldStarAddress();\n        PinkSlipAddress = addressManager.PinkSlipAddress();\n        ChadBadgeAddress = addressManager.ChadBadgeAddress();\n\n        JuryPoolAddress = addressManager.JuryPoolAddress();\n        \n    }\n\n    function _updateAddressManager() internal {\n        // Set these from the Address Manager Contract\n        require(addressManager.hasMovedToNewAddress());\n        AddressManagerAddress = addressManager.newAddressManager();\n    \n    }\n    \n    \n\n    function updateAllAddresses() public {\n        _updateDAOAddresses();\n        _updateTokenAddresses();\n    }\n\n    function updateAddressManager() public {\n        _updateAddressManager();\n    }\n\n    function updateTokenAddresses() public {\n        _updateTokenAddresses();\n    }\n\n    function updateDAOAddresses() public {\n        _updateDAOAddresses();\n    }\n\n\n\n}",
  "sourcePath": "/home/n/Desktop/PinkSlips_FrontEnd_REFORMAT/contracts/src/AddressManagerReciever.sol",
  "compiler": {
    "name": "solc",
    "version": "0.8.0+commit.c7dfd78e.Emscripten.clang"
  },
  "schemaVersion": "3.4.1",
  "updatedAt": "2021-07-29T07:01:15.764Z",
  "devdoc": {
    "kind": "dev",
    "methods": {},
    "version": 1
  },
  "userdoc": {
    "kind": "user",
    "methods": {},
    "version": 1
  }
}