{
  "contractName": "AddressManager",
  "abi": [
    {
      "inputs": [
        {
          "internalType": "address",
          "name": "juryDAOAgent",
          "type": "address"
        },
        {
          "internalType": "address",
          "name": "gavelDAOAgent",
          "type": "address"
        },
        {
          "internalType": "address",
          "name": "treasuryAddress",
          "type": "address"
        },
        {
          "internalType": "address",
          "name": "theCourtAddress",
          "type": "address"
        },
        {
          "internalType": "address",
          "name": "_MiniBailiff",
          "type": "address"
        }
      ],
      "stateMutability": "nonpayable",
      "type": "constructor"
    },
    {
      "anonymous": false,
      "inputs": [
        {
          "indexed": false,
          "internalType": "address",
          "name": "",
          "type": "address"
        },
        {
          "indexed": false,
          "internalType": "string",
          "name": "",
          "type": "string"
        }
      ],
      "name": "AddressUpdated",
      "type": "event"
    },
    {
      "anonymous": false,
      "inputs": [
        {
          "indexed": true,
          "internalType": "bytes32",
          "name": "role",
          "type": "bytes32"
        },
        {
          "indexed": true,
          "internalType": "bytes32",
          "name": "previousAdminRole",
          "type": "bytes32"
        },
        {
          "indexed": true,
          "internalType": "bytes32",
          "name": "newAdminRole",
          "type": "bytes32"
        }
      ],
      "name": "RoleAdminChanged",
      "type": "event"
    },
    {
      "anonymous": false,
      "inputs": [
        {
          "indexed": true,
          "internalType": "bytes32",
          "name": "role",
          "type": "bytes32"
        },
        {
          "indexed": true,
          "internalType": "address",
          "name": "account",
          "type": "address"
        },
        {
          "indexed": true,
          "internalType": "address",
          "name": "sender",
          "type": "address"
        }
      ],
      "name": "RoleGranted",
      "type": "event"
    },
    {
      "anonymous": false,
      "inputs": [
        {
          "indexed": true,
          "internalType": "bytes32",
          "name": "role",
          "type": "bytes32"
        },
        {
          "indexed": true,
          "internalType": "address",
          "name": "account",
          "type": "address"
        },
        {
          "indexed": true,
          "internalType": "address",
          "name": "sender",
          "type": "address"
        }
      ],
      "name": "RoleRevoked",
      "type": "event"
    },
    {
      "inputs": [],
      "name": "ChadBadgeAddress",
      "outputs": [
        {
          "internalType": "address",
          "name": "",
          "type": "address"
        }
      ],
      "stateMutability": "view",
      "type": "function",
      "constant": true
    },
    {
      "inputs": [],
      "name": "ColoredIDAddress",
      "outputs": [
        {
          "internalType": "address",
          "name": "",
          "type": "address"
        }
      ],
      "stateMutability": "view",
      "type": "function",
      "constant": true
    },
    {
      "inputs": [],
      "name": "CourtClerk",
      "outputs": [
        {
          "internalType": "address",
          "name": "",
          "type": "address"
        }
      ],
      "stateMutability": "view",
      "type": "function",
      "constant": true
    },
    {
      "inputs": [],
      "name": "DEFAULT_ADMIN_ROLE",
      "outputs": [
        {
          "internalType": "bytes32",
          "name": "",
          "type": "bytes32"
        }
      ],
      "stateMutability": "view",
      "type": "function",
      "constant": true
    },
    {
      "inputs": [],
      "name": "GAVELS_BAILIFF",
      "outputs": [
        {
          "internalType": "bytes32",
          "name": "",
          "type": "bytes32"
        }
      ],
      "stateMutability": "view",
      "type": "function",
      "constant": true
    },
    {
      "inputs": [],
      "name": "GavelDAOAgent",
      "outputs": [
        {
          "internalType": "address",
          "name": "",
          "type": "address"
        }
      ],
      "stateMutability": "view",
      "type": "function",
      "constant": true
    },
    {
      "inputs": [],
      "name": "GavelTokenAddress",
      "outputs": [
        {
          "internalType": "address",
          "name": "",
          "type": "address"
        }
      ],
      "stateMutability": "view",
      "type": "function",
      "constant": true
    },
    {
      "inputs": [],
      "name": "GavelVote",
      "outputs": [
        {
          "internalType": "bool",
          "name": "",
          "type": "bool"
        }
      ],
      "stateMutability": "view",
      "type": "function",
      "constant": true
    },
    {
      "inputs": [],
      "name": "GoldStarAddress",
      "outputs": [
        {
          "internalType": "address",
          "name": "",
          "type": "address"
        }
      ],
      "stateMutability": "view",
      "type": "function",
      "constant": true
    },
    {
      "inputs": [],
      "name": "JERK_ROLE",
      "outputs": [
        {
          "internalType": "bytes32",
          "name": "",
          "type": "bytes32"
        }
      ],
      "stateMutability": "view",
      "type": "function",
      "constant": true
    },
    {
      "inputs": [],
      "name": "JURY_BAILIFF",
      "outputs": [
        {
          "internalType": "bytes32",
          "name": "",
          "type": "bytes32"
        }
      ],
      "stateMutability": "view",
      "type": "function",
      "constant": true
    },
    {
      "inputs": [],
      "name": "JuryDAOAgent",
      "outputs": [
        {
          "internalType": "address",
          "name": "",
          "type": "address"
        }
      ],
      "stateMutability": "view",
      "type": "function",
      "constant": true
    },
    {
      "inputs": [],
      "name": "JuryPoolAddress",
      "outputs": [
        {
          "internalType": "address",
          "name": "",
          "type": "address"
        }
      ],
      "stateMutability": "view",
      "type": "function",
      "constant": true
    },
    {
      "inputs": [],
      "name": "JuryVote",
      "outputs": [
        {
          "internalType": "bool",
          "name": "",
          "type": "bool"
        }
      ],
      "stateMutability": "view",
      "type": "function",
      "constant": true
    },
    {
      "inputs": [],
      "name": "MINI_BAILIFF_ROLE",
      "outputs": [
        {
          "internalType": "bytes32",
          "name": "",
          "type": "bytes32"
        }
      ],
      "stateMutability": "view",
      "type": "function",
      "constant": true
    },
    {
      "inputs": [],
      "name": "MiniBailiff",
      "outputs": [
        {
          "internalType": "address",
          "name": "",
          "type": "address"
        }
      ],
      "stateMutability": "view",
      "type": "function",
      "constant": true
    },
    {
      "inputs": [],
      "name": "PinkSlipAddress",
      "outputs": [
        {
          "internalType": "address",
          "name": "",
          "type": "address"
        }
      ],
      "stateMutability": "view",
      "type": "function",
      "constant": true
    },
    {
      "inputs": [],
      "name": "RedPenTokenAddress",
      "outputs": [
        {
          "internalType": "address",
          "name": "",
          "type": "address"
        }
      ],
      "stateMutability": "view",
      "type": "function",
      "constant": true
    },
    {
      "inputs": [],
      "name": "THE_COURT_ROLE",
      "outputs": [
        {
          "internalType": "bytes32",
          "name": "",
          "type": "bytes32"
        }
      ],
      "stateMutability": "view",
      "type": "function",
      "constant": true
    },
    {
      "inputs": [],
      "name": "TheCourtAddress",
      "outputs": [
        {
          "internalType": "address",
          "name": "",
          "type": "address"
        }
      ],
      "stateMutability": "view",
      "type": "function",
      "constant": true
    },
    {
      "inputs": [],
      "name": "TreasuryAddress",
      "outputs": [
        {
          "internalType": "address",
          "name": "",
          "type": "address"
        }
      ],
      "stateMutability": "view",
      "type": "function",
      "constant": true
    },
    {
      "inputs": [],
      "name": "badgeCount",
      "outputs": [
        {
          "internalType": "uint256",
          "name": "",
          "type": "uint256"
        }
      ],
      "stateMutability": "view",
      "type": "function",
      "constant": true
    },
    {
      "inputs": [],
      "name": "frontEnd",
      "outputs": [
        {
          "internalType": "string",
          "name": "",
          "type": "string"
        }
      ],
      "stateMutability": "view",
      "type": "function",
      "constant": true
    },
    {
      "inputs": [
        {
          "internalType": "bytes32",
          "name": "role",
          "type": "bytes32"
        }
      ],
      "name": "getRoleAdmin",
      "outputs": [
        {
          "internalType": "bytes32",
          "name": "",
          "type": "bytes32"
        }
      ],
      "stateMutability": "view",
      "type": "function",
      "constant": true
    },
    {
      "inputs": [
        {
          "internalType": "bytes32",
          "name": "role",
          "type": "bytes32"
        },
        {
          "internalType": "uint256",
          "name": "index",
          "type": "uint256"
        }
      ],
      "name": "getRoleMember",
      "outputs": [
        {
          "internalType": "address",
          "name": "",
          "type": "address"
        }
      ],
      "stateMutability": "view",
      "type": "function",
      "constant": true
    },
    {
      "inputs": [
        {
          "internalType": "bytes32",
          "name": "role",
          "type": "bytes32"
        }
      ],
      "name": "getRoleMemberCount",
      "outputs": [
        {
          "internalType": "uint256",
          "name": "",
          "type": "uint256"
        }
      ],
      "stateMutability": "view",
      "type": "function",
      "constant": true
    },
    {
      "inputs": [
        {
          "internalType": "bytes32",
          "name": "role",
          "type": "bytes32"
        },
        {
          "internalType": "address",
          "name": "account",
          "type": "address"
        }
      ],
      "name": "grantRole",
      "outputs": [],
      "stateMutability": "nonpayable",
      "type": "function"
    },
    {
      "inputs": [],
      "name": "hasMovedToNewAddress",
      "outputs": [
        {
          "internalType": "bool",
          "name": "",
          "type": "bool"
        }
      ],
      "stateMutability": "view",
      "type": "function",
      "constant": true
    },
    {
      "inputs": [
        {
          "internalType": "bytes32",
          "name": "role",
          "type": "bytes32"
        },
        {
          "internalType": "address",
          "name": "account",
          "type": "address"
        }
      ],
      "name": "hasRole",
      "outputs": [
        {
          "internalType": "bool",
          "name": "",
          "type": "bool"
        }
      ],
      "stateMutability": "view",
      "type": "function",
      "constant": true
    },
    {
      "inputs": [],
      "name": "jerkSanctions",
      "outputs": [
        {
          "internalType": "bool",
          "name": "",
          "type": "bool"
        }
      ],
      "stateMutability": "view",
      "type": "function",
      "constant": true
    },
    {
      "inputs": [],
      "name": "newAddressManager",
      "outputs": [
        {
          "internalType": "address",
          "name": "",
          "type": "address"
        }
      ],
      "stateMutability": "view",
      "type": "function",
      "constant": true
    },
    {
      "inputs": [
        {
          "internalType": "bool",
          "name": "areYouSure",
          "type": "bool"
        }
      ],
      "name": "purgeSelf",
      "outputs": [
        {
          "internalType": "bool",
          "name": "",
          "type": "bool"
        }
      ],
      "stateMutability": "nonpayable",
      "type": "function"
    },
    {
      "inputs": [
        {
          "internalType": "address",
          "name": "addressToPurge",
          "type": "address"
        }
      ],
      "name": "purgeUser",
      "outputs": [],
      "stateMutability": "nonpayable",
      "type": "function"
    },
    {
      "inputs": [
        {
          "internalType": "bytes32",
          "name": "role",
          "type": "bytes32"
        },
        {
          "internalType": "address",
          "name": "account",
          "type": "address"
        }
      ],
      "name": "renounceRole",
      "outputs": [],
      "stateMutability": "nonpayable",
      "type": "function"
    },
    {
      "inputs": [
        {
          "internalType": "bytes32",
          "name": "ROLE_TO_UPDATE",
          "type": "bytes32"
        },
        {
          "internalType": "address",
          "name": "newRoleHolder",
          "type": "address"
        }
      ],
      "name": "resetSingleRole",
      "outputs": [],
      "stateMutability": "nonpayable",
      "type": "function"
    },
    {
      "inputs": [],
      "name": "resetVote",
      "outputs": [],
      "stateMutability": "nonpayable",
      "type": "function"
    },
    {
      "inputs": [
        {
          "internalType": "bytes32",
          "name": "role",
          "type": "bytes32"
        },
        {
          "internalType": "address",
          "name": "account",
          "type": "address"
        }
      ],
      "name": "revokeRole",
      "outputs": [],
      "stateMutability": "nonpayable",
      "type": "function"
    },
    {
      "inputs": [
        {
          "internalType": "bytes4",
          "name": "interfaceId",
          "type": "bytes4"
        }
      ],
      "name": "supportsInterface",
      "outputs": [
        {
          "internalType": "bool",
          "name": "",
          "type": "bool"
        }
      ],
      "stateMutability": "view",
      "type": "function",
      "constant": true
    },
    {
      "inputs": [],
      "name": "toggleJerkSanctions",
      "outputs": [],
      "stateMutability": "nonpayable",
      "type": "function"
    },
    {
      "inputs": [
        {
          "internalType": "bool",
          "name": "_vote",
          "type": "bool"
        }
      ],
      "name": "vote",
      "outputs": [],
      "stateMutability": "nonpayable",
      "type": "function"
    },
    {
      "inputs": [
        {
          "internalType": "address",
          "name": "newAddressManagerAddress",
          "type": "address"
        }
      ],
      "name": "setnewAddressManager",
      "outputs": [],
      "stateMutability": "nonpayable",
      "type": "function"
    },
    {
      "inputs": [
        {
          "internalType": "address",
          "name": "newAgentAddress",
          "type": "address"
        }
      ],
      "name": "addGavelAgent",
      "outputs": [],
      "stateMutability": "nonpayable",
      "type": "function"
    },
    {
      "inputs": [
        {
          "internalType": "address",
          "name": "newAgentAddress",
          "type": "address"
        }
      ],
      "name": "addJuryAgent",
      "outputs": [],
      "stateMutability": "nonpayable",
      "type": "function"
    },
    {
      "inputs": [
        {
          "internalType": "address",
          "name": "newAgentAddress",
          "type": "address"
        }
      ],
      "name": "addMiniBailiff",
      "outputs": [],
      "stateMutability": "nonpayable",
      "type": "function"
    },
    {
      "inputs": [
        {
          "internalType": "address",
          "name": "newAgentAddress",
          "type": "address"
        }
      ],
      "name": "setTheCourtAgent",
      "outputs": [],
      "stateMutability": "nonpayable",
      "type": "function"
    },
    {
      "inputs": [
        {
          "internalType": "address",
          "name": "newTreasuryAddress",
          "type": "address"
        }
      ],
      "name": "setTreasuryAddress",
      "outputs": [],
      "stateMutability": "nonpayable",
      "type": "function"
    },
    {
      "inputs": [
        {
          "internalType": "address",
          "name": "newCourtAddress",
          "type": "address"
        }
      ],
      "name": "setCourtAddress",
      "outputs": [],
      "stateMutability": "nonpayable",
      "type": "function"
    },
    {
      "inputs": [
        {
          "internalType": "address",
          "name": "_newCourtClerkAddress",
          "type": "address"
        }
      ],
      "name": "setCourtClerk",
      "outputs": [],
      "stateMutability": "nonpayable",
      "type": "function"
    },
    {
      "inputs": [
        {
          "internalType": "address",
          "name": "newGavelTokenAddress",
          "type": "address"
        }
      ],
      "name": "setGavelTokenAddress",
      "outputs": [],
      "stateMutability": "nonpayable",
      "type": "function"
    },
    {
      "inputs": [
        {
          "internalType": "address",
          "name": "newJuryPoolAddress",
          "type": "address"
        }
      ],
      "name": "setJuryPoolAddress",
      "outputs": [],
      "stateMutability": "nonpayable",
      "type": "function"
    },
    {
      "inputs": [
        {
          "internalType": "address",
          "name": "newRedPenTokenAddress",
          "type": "address"
        }
      ],
      "name": "setRedPenTokenAddress",
      "outputs": [],
      "stateMutability": "nonpayable",
      "type": "function"
    },
    {
      "inputs": [
        {
          "internalType": "address",
          "name": "newGoldStarAddress",
          "type": "address"
        }
      ],
      "name": "setGoldStarAddress",
      "outputs": [],
      "stateMutability": "nonpayable",
      "type": "function"
    },
    {
      "inputs": [
        {
          "internalType": "address",
          "name": "newPinkSlipAddress",
          "type": "address"
        }
      ],
      "name": "setPinkSlipAddress",
      "outputs": [],
      "stateMutability": "nonpayable",
      "type": "function"
    },
    {
      "inputs": [
        {
          "internalType": "address",
          "name": "newChadBadgeAddress",
          "type": "address"
        }
      ],
      "name": "setChadBadgeAddress",
      "outputs": [],
      "stateMutability": "nonpayable",
      "type": "function"
    },
    {
      "inputs": [
        {
          "internalType": "address",
          "name": "newColoredIDAddress",
          "type": "address"
        }
      ],
      "name": "setColoredIDAddress",
      "outputs": [],
      "stateMutability": "nonpayable",
      "type": "function"
    }
  ],
  "bytecode": "0x6000805460ff191690556003805462ffffff191690556010805460ff60a01b1916905560c0604052601d60808190527f7468652068656c6c2061726520796f7520646f696e673f2043276d6f6e00000060a090815262000063916011919062000396565b50604080518082019091526005808252642193b6b7b760d91b6020909201918252620000929160129162000396565b5060405180606001604052806027815260200162003405602791398051620000c39160139160209091019062000396565b506000601455348015620000d657600080fd5b506040516200342c3803806200342c833981016040819052620000f99162000459565b8484836200010960008262000249565b620001357f0538d24a8b7882d7b2e36af243d4af61c23e86e3daa6cb8c887b53220b2f57208262000249565b620001617f048bc71fa1cb2c119c339cf9cf00a97996a19a9d991ce5fe049f2fa5459e79908362000249565b6200018d7ffa8e4989e1d689f7bc5c4b25b87efb51fecdecb19ba62847e29c759e12a89acd8462000249565b620001b97ff0f4b159a6e2a4815eb3ca3df080bfa70c9270662c59bcaa4479a456220183e68262000249565b620001e67f7c9d7f6f02908185bffb3f7fc9afb29fd7bf93675af8fd4b655ee05c2cee1e0e600062000249565b5050600b80546001600160a01b03199081166001600160a01b0397881617909155600c805482169787169790971790965550600d8054861693851693909317909255600e80548516918416919091179055600f8054909316911617905562000506565b6200026082826200028c60201b620020801760201c565b6000828152600260209081526040909120620002879183906200208a6200029c821b17901c565b505050565b620002988282620002bc565b5050565b6000620002b3836001600160a01b03841662000344565b90505b92915050565b60008281526001602090815260408083206001600160a01b038516845290915290205460ff16620002985760008281526001602081815260408084206001600160a01b0386168086529252808420805460ff19169093179092559051339285917f2f8788117e7eff1d82e926ec794901d17c78024a50270940304540a733656f0d9190a45050565b60008181526001830160205260408120546200038d57508154600181810184556000848152602080822090930184905584548482528286019093526040902091909155620002b6565b506000620002b6565b828054620003a490620004c9565b90600052602060002090601f016020900481019282620003c8576000855562000413565b82601f10620003e357805160ff191683800117855562000413565b8280016001018555821562000413579182015b8281111562000413578251825591602001919060010190620003f6565b506200042192915062000425565b5090565b5b8082111562000421576000815560010162000426565b80516001600160a01b03811681146200045457600080fd5b919050565b600080600080600060a086880312156200047257600080fd5b6200047d866200043c565b94506200048d602087016200043c565b93506200049d604087016200043c565b9250620004ad606087016200043c565b9150620004bd608087016200043c565b90509295509295909350565b600181811c90821680620004de57607f821691505b602082108114156200050057634e487b7160e01b600052602260045260246000fd5b50919050565b612eef80620005166000396000f3fe608060405234801561001057600080fd5b506004361061035d5760003560e01c80638ea5ad61116101d3578063cb6d557411610104578063e6217e3a116100a2578063ef75cbc21161007c578063ef75cbc214610780578063f98447ac14610793578063fe525a6c146107a6578063ff7e88ec146107b957600080fd5b8063e6217e3a14610743578063e7514c9a14610756578063e9a532301461076b57600080fd5b8063d547741f116100de578063d547741f146106f7578063d88127a11461070a578063da6cb6061461071d578063dadf56ac1461073057600080fd5b8063cb6d557414610696578063cce84392146106a9578063cf4ece15146106d057600080fd5b8063a78e746f11610171578063bfb7dc991161014b578063bfb7dc991461064a578063c0f647ab1461065d578063ca15c87314610670578063caed23021461068357600080fd5b8063a78e746f14610617578063a7b9ee5a14610624578063ac7cfac31461063757600080fd5b806396c4f405116101ad57806396c4f405146105d3578063a217fddf146105e6578063a32c5e59146105ee578063a44b93251461060357600080fd5b80638ea5ad611461059a5780639010d07c146105ad57806391d14854146105c057600080fd5b80634a6d4244116102ad5780635f88b5661161024b578063762ddb5911610225578063762ddb591461054e5780637e253e0a146105615780637ecf4a89146105745780638c838d6f1461058757600080fd5b80635f88b566146105155780636605bfda146105285780636b5847751461053b57600080fd5b80635b5c251f116102875780635b5c251f146104d35780635b806645146104e65780635be78997146104ef5780635f4134661461050257600080fd5b80634a6d42441461049a5780634b9f5c98146104ad57806357200482146104c057600080fd5b8063248a9ca31161031a578063329a8cfa116102f4578063329a8cfa1461046457806336568abe1461046c57806336e969a21461047f5780633f86ea7c1461048757600080fd5b8063248a9ca31461041a5780632f2ff15d1461043e5780632fb565851461045157600080fd5b806301ffc9a714610362578063024bebe91461038a5780630a726d14146103b5578063104c0f1f146103ca57806321d7f008146103dd5780632436329d146103f7575b600080fd5b610375610370366004612a27565b6107cb565b60405190151581526020015b60405180910390f35b600c5461039d906001600160a01b031681565b6040516001600160a01b039091168152602001610381565b6103c86103c3366004612960565b6107f6565b005b6103c86103d8366004612960565b6108de565b60035461039d90630100000090046001600160a01b031681565b61040c600080516020612e3a83398151915281565b604051908152602001610381565b61040c6104283660046129bc565b6000908152600160208190526040909120015490565b6103c861044c3660046129d5565b6109e4565b6003546103759062010000900460ff1681565b6103c8610a0b565b6103c861047a3660046129d5565b610a85565b6103c8610aa7565b60075461039d906001600160a01b031681565b6103c86104a8366004612960565b610b21565b6103c86104bb36600461299a565b610cce565b60085461039d906001600160a01b031681565b600d5461039d906001600160a01b031681565b61040c60145481565b6103c86104fd366004612960565b610e03565b600e5461039d906001600160a01b031681565b61037561052336600461299a565b610f29565b6103c8610536366004612960565b610f50565b60095461039d906001600160a01b031681565b60045461039d906001600160a01b031681565b6103c861056f366004612960565b6110a6565b6103c8610582366004612960565b6111c7565b6103c8610595366004612960565b6112c3565b6103c86105a8366004612960565b611416565b61039d6105bb366004612a05565b6115bc565b6103756105ce3660046129d5565b6115db565b6103c86105e1366004612960565b611606565b61040c600081565b61040c600080516020612e9a83398151915281565b60105461037590600160a01b900460ff1681565b6003546103759060ff1681565b6103c8610632366004612960565b6117ac565b60105461039d906001600160a01b031681565b60055461039d906001600160a01b031681565b6103c861066b366004612960565b61187b565b61040c61067e3660046129bc565b611947565b6103c8610691366004612960565b61195e565b6103c86106a43660046129d5565b611a77565b61040c7f7c9d7f6f02908185bffb3f7fc9afb29fd7bf93675af8fd4b655ee05c2cee1e0e81565b61040c7ff0f4b159a6e2a4815eb3ca3df080bfa70c9270662c59bcaa4479a456220183e681565b6103c86107053660046129d5565b611ba1565b600a5461039d906001600160a01b031681565b6103c861072b366004612960565b611bab565b600b5461039d906001600160a01b031681565b600f5461039d906001600160a01b031681565b61075e611d50565b6040516103819190612adf565b61040c600080516020612e5a83398151915281565b6103c861078e366004612960565b611dde565b60065461039d906001600160a01b031681565b6103c86107b4366004612960565b611eab565b60035461037590610100900460ff1681565b60006001600160e01b03198216635a05180f60e01b14806107f057506107f08261209f565b92915050565b61080e600080516020612e5a833981519152336115db565b8061082c575061082c600080516020612e3a833981519152336115db565b8061084a575061084a600080516020612e9a833981519152336115db565b61085357600080fd5b600354610100810460ff908116151562010000909204161515146001148061088e575061088e600080516020612e9a833981519152336115db565b6108b35760405162461bcd60e51b81526004016108aa90612bba565b60405180910390fd5b6001600160a01b0381163314156108c957600080fd5b6108d2816120d4565b506108db612131565b50565b6108f6600080516020612e9a833981519152336115db565b806109145750610914600080516020612e5a833981519152336115db565b806109325750610932600080516020612e3a833981519152336115db565b61094e5760405162461bcd60e51b81526004016108aa90612be4565b600061097a7ff0f4b159a6e2a4815eb3ca3df080bfa70c9270662c59bcaa4479a456220183e68361213f565b905060018115151461098b57600080fd5b604080516001600160a01b0384168152602081018290526010918101919091526f2732bb9026b4b734902130b4b634b33360811b6060820152600080516020612e7a833981519152906080015b60405180910390a15050565b6109ee82826121e3565b6000828152600260205260409020610a06908261208a565b505050565b610a23600080516020612e9a833981519152336115db565b80610a415750610a41600080516020612e5a833981519152336115db565b80610a5f5750610a5f600080516020612e3a833981519152336115db565b610a7b5760405162461bcd60e51b81526004016108aa90612be4565b610a83612131565b565b610a8f828261221d565b6000828152600260205260409020610a069082612297565b610abf600080516020612e3a833981519152336115db565b80610add5750610add600080516020612e9a833981519152336115db565b610af95760405162461bcd60e51b81526004016108aa90612c14565b60035460ff16151560011415610b15576003805460ff19169055565b6003805460ff19169055565b610b39600080516020612e5a833981519152336115db565b80610b575750610b57600080516020612e3a833981519152336115db565b80610b755750610b75600080516020612e9a833981519152336115db565b610b7e57600080fd5b600354610100810460ff9081161515620100009092041615151460011480610bb95750610bb9600080516020612e9a833981519152336115db565b610bd55760405162461bcd60e51b81526004016108aa90612bba565b60126001600160a01b038216610bfe5760405162461bcd60e51b81526004016108aa9190612b12565b506003546001600160a01b0382811663010000009092041614801590610c3257506004546001600160a01b03828116911614155b610c4e5760405162461bcd60e51b81526004016108aa90612c41565b600780546001600160a01b0319166001600160a01b038316179055610c71612131565b604080516001600160a01b038316815260208101829052601591810191909152744e657720436861644261646765204164647265737360581b6060820152600080516020612e7a833981519152906080015b60405180910390a150565b610ce6600080516020612e9a833981519152336115db565b80610d045750610d04600080516020612e5a833981519152336115db565b80610d225750610d22600080516020612e3a833981519152336115db565b610d3e5760405162461bcd60e51b81526004016108aa90612be4565b610d56600080516020612e9a833981519152336115db565b15610d975760038054610100831515810261ff0019831681179190910460ff161515620100000262ff00001990911662ffff00199092169190911717905550565b610daf600080516020612e5a833981519152336115db565b15610dcc57600380548215156101000261ff001990911617905550565b610de4600080516020612e3a833981519152336115db565b156108db5760038054821515620100000262ff00001990911617905550565b610e1b600080516020612e5a833981519152336115db565b80610e395750610e39600080516020612e9a833981519152336115db565b610e555760405162461bcd60e51b81526004016108aa90612c6e565b60126001600160a01b038216610e7e5760405162461bcd60e51b81526004016108aa9190612b12565b506004546001600160a01b0382811691161415610ead5760405162461bcd60e51b81526004016108aa90612c9d565b600380546301000000600160b81b03191663010000006001600160a01b0384169081029190911790915560408051918252602082018190526017908201527f4e657720476176656c20546f6b656e20416464726573730000000000000000006060820152600080516020612e7a83398151915290608001610cc3565b600060018215151415610f4857610f3f336122ac565b50600192915050565b506000919050565b610f68600080516020612e5a833981519152336115db565b80610f865750610f86600080516020612e3a833981519152336115db565b80610fa45750610fa4600080516020612e9a833981519152336115db565b610fad57600080fd5b600354610100810460ff9081161515620100009092041615151460011480610fe85750610fe8600080516020612e9a833981519152336115db565b6110045760405162461bcd60e51b81526004016108aa90612bba565b60116001600160a01b03821661102d5760405162461bcd60e51b81526004016108aa9190612b12565b50600d80546001600160a01b0319166001600160a01b038316179055611051612131565b604080516001600160a01b038316815260208101829052601491810191909152734e6577205472656173757279204164647265737360601b6060820152600080516020612e7a83398151915290608001610cc3565b6110be600080516020612e3a833981519152336115db565b806110dc57506110dc600080516020612e9a833981519152336115db565b6110f85760405162461bcd60e51b81526004016108aa90612c14565b60126001600160a01b0382166111215760405162461bcd60e51b81526004016108aa9190612b12565b506003546001600160a01b0382811663010000009092041614156111575760405162461bcd60e51b81526004016108aa90612c9d565b600480546001600160a01b0319166001600160a01b03831690811790915560408051918252602082018190526019908201527f4e6577205265642050656e20546f6b656e2041646472657373000000000000006060820152600080516020612e7a83398151915290608001610cc3565b6111df600080516020612e9a833981519152336115db565b806111fd57506111fd600080516020612e5a833981519152336115db565b8061121b575061121b600080516020612e3a833981519152336115db565b6112375760405162461bcd60e51b81526004016108aa90612be4565b60126001600160a01b0382166112605760405162461bcd60e51b81526004016108aa9190612b12565b50600a80546001600160a01b0319166001600160a01b0383169081179091556040805191825260208201819052600f908201526e4e657720436f75727420436c65726b60881b6060820152600080516020612e7a83398151915290608001610cc3565b6112db600080516020612e5a833981519152336115db565b806112f957506112f9600080516020612e3a833981519152336115db565b806113175750611317600080516020612e9a833981519152336115db565b61132057600080fd5b600354610100810460ff908116151562010000909204161515146001148061135b575061135b600080516020612e9a833981519152336115db565b6113775760405162461bcd60e51b81526004016108aa90612bba565b60126001600160a01b0382166113a05760405162461bcd60e51b81526004016108aa9190612b12565b50600e80546001600160a01b0319166001600160a01b0383161790556113c4612131565b604080516001600160a01b038316815260208101829052601191810191909152704e657720436f757274204164647265737360781b6060820152600080516020612e7a83398151915290608001610cc3565b61142e600080516020612e5a833981519152336115db565b8061144c575061144c600080516020612e3a833981519152336115db565b8061146a575061146a600080516020612e9a833981519152336115db565b61147357600080fd5b600354610100810460ff90811615156201000090920416151514600114806114ae57506114ae600080516020612e9a833981519152336115db565b6114ca5760405162461bcd60e51b81526004016108aa90612bba565b60126001600160a01b0382166114f35760405162461bcd60e51b81526004016108aa9190612b12565b506003546001600160a01b038281166301000000909204161480159061152757506004546001600160a01b03828116911614155b6115435760405162461bcd60e51b81526004016108aa90612c41565b600880546001600160a01b0319166001600160a01b038316179055611566612131565b604080516001600160a01b038316815260208101829052601591810191909152744e657720436f6c6f7265644944204164647265737360581b6060820152600080516020612e7a83398151915290608001610cc3565b60008281526002602052604081206115d49083612301565b9392505050565b60009182526001602090815260408084206001600160a01b0393909316845291905290205460ff1690565b61161e600080516020612e5a833981519152336115db565b8061163c575061163c600080516020612e3a833981519152336115db565b8061165a575061165a600080516020612e9a833981519152336115db565b61166357600080fd5b600354610100810460ff908116151562010000909204161515146001148061169e575061169e600080516020612e9a833981519152336115db565b6116ba5760405162461bcd60e51b81526004016108aa90612bba565b60126001600160a01b0382166116e35760405162461bcd60e51b81526004016108aa9190612b12565b506003546001600160a01b038281166301000000909204161480159061171757506004546001600160a01b03828116911614155b6117335760405162461bcd60e51b81526004016108aa90612c41565b600580546001600160a01b0319166001600160a01b038316179055611756612131565b604080516001600160a01b038316815260208101829052601591810191909152744e657720476f6c642053746172204164647265737360581b6060820152600080516020612e7a83398151915290608001610cc3565b6117c4600080516020612e5a833981519152336115db565b806117e257506117e2600080516020612e9a833981519152336115db565b6117fe5760405162461bcd60e51b81526004016108aa90612c6e565b6000611818600080516020612e9a8339815191528361213f565b905060018115151461182957600080fd5b604080516001600160a01b0384168152602081018290526011918101919091527013995dc810dbdd5c9d08115b1958dd1959607a1b6060820152600080516020612e7a833981519152906080016109d8565b611893600080516020612e5a833981519152336115db565b806118b157506118b1600080516020612e9a833981519152336115db565b6118cd5760405162461bcd60e51b81526004016108aa90612c6e565b60006118e7600080516020612e3a8339815191528361213f565b90506001811515146118f857600080fd5b604080516001600160a01b038416815260208101829052600e918101919091526d13995dc8129d5c9e481059d95b9d60921b6060820152600080516020612e7a833981519152906080016109d8565b60008181526002602052604081206107f09061230d565b611976600080516020612e3a833981519152336115db565b806119945750611994600080516020612e9a833981519152336115db565b6119b05760405162461bcd60e51b81526004016108aa90612c14565b60126001600160a01b0382166119d95760405162461bcd60e51b81526004016108aa9190612b12565b506003546001600160a01b038281166301000000909204161415611a0f5760405162461bcd60e51b81526004016108aa90612c9d565b600980546001600160a01b0319166001600160a01b0383169081179091556040805191825260208201819052601590820152744e6577204a75727920506f6f6c204164647265737360581b6060820152600080516020612e7a83398151915290608001610cc3565b611a8f600080516020612e5a833981519152336115db565b80611aad5750611aad600080516020612e3a833981519152336115db565b80611acb5750611acb600080516020612e9a833981519152336115db565b611ad457600080fd5b600354610100810460ff9081161515620100009092041615151460011480611b0f5750611b0f600080516020612e9a833981519152336115db565b611b2b5760405162461bcd60e51b81526004016108aa90612bba565b611b3482612317565b50604051632f2ff15d60e01b8152600481018390526001600160a01b03821660248201523090632f2ff15d90604401600060405180830381600087803b158015611b7d57600080fd5b505af1158015611b91573d6000803e3d6000fd5b50505050611b9d612131565b5050565b610a8f8282612492565b611bc3600080516020612e5a833981519152336115db565b80611be15750611be1600080516020612e3a833981519152336115db565b80611bff5750611bff600080516020612e9a833981519152336115db565b611c0857600080fd5b600354610100810460ff9081161515620100009092041615151460011480611c435750611c43600080516020612e9a833981519152336115db565b611c5f5760405162461bcd60e51b81526004016108aa90612bba565b60126001600160a01b038216611c885760405162461bcd60e51b81526004016108aa9190612b12565b506003546001600160a01b0382811663010000009092041614801590611cbc57506004546001600160a01b03828116911614155b611cd85760405162461bcd60e51b81526004016108aa90612c41565b600680546001600160a01b0319166001600160a01b038316179055611cfb612131565b604080516001600160a01b038316815260208101829052601491810191909152734e65772050696e6b536c6970204164647265737360601b6060820152600080516020612e7a83398151915290608001610cc3565b60138054611d5d90612d76565b80601f0160208091040260200160405190810160405280929190818152602001828054611d8990612d76565b8015611dd65780601f10611dab57610100808354040283529160200191611dd6565b820191906000526020600020905b815481529060010190602001808311611db957829003601f168201915b505050505081565b611df6600080516020612e5a833981519152336115db565b80611e145750611e14600080516020612e9a833981519152336115db565b611e305760405162461bcd60e51b81526004016108aa90612c6e565b6000611e4a600080516020612e5a8339815191528361213f565b9050600181151514611e5b57600080fd5b604080516001600160a01b038416815260208101829052600f918101919091526e13995dc811d85d995b081059d95b9d608a1b6060820152600080516020612e7a833981519152906080016109d8565b611ec3600080516020612e5a833981519152336115db565b80611ee15750611ee1600080516020612e3a833981519152336115db565b80611eff5750611eff600080516020612e9a833981519152336115db565b611f0857600080fd5b600354610100810460ff9081161515620100009092041615151460011480611f435750611f43600080516020612e9a833981519152336115db565b611f5f5760405162461bcd60e51b81526004016108aa90612bba565b611f77600080516020612e9a833981519152336115db565b80611f955750611f95600080516020612e5a833981519152336115db565b80611fb35750611fb3600080516020612e3a833981519152336115db565b611fcf5760405162461bcd60e51b81526004016108aa90612be4565b60116001600160a01b038216611ff85760405162461bcd60e51b81526004016108aa9190612b12565b50601080546001600160a81b0319166001600160a01b03831617600160a01b179055612022612131565b604080516001600160a01b0383168152602081018290526019918101919091527f4e657720416464726573734d616e6167657241646472657373000000000000006060820152600080516020612e7a83398151915290608001610cc3565b611b9d82826124cc565b60006115d4836001600160a01b038416612537565b60006001600160e01b03198216637965db0b60e01b14806107f057506301ffc9a760e01b6001600160e01b03198316146107f0565b60006120ee600080516020612e3a83398151915283611ba1565b612106600080516020612e5a83398151915283611ba1565b61211e600080516020612e9a83398151915283611ba1565b612129600083611ba1565b506001919050565b6003805462ffff0019169055565b600060116001600160a01b03831661216a5760405162461bcd60e51b81526004016108aa9190612b12565b5061217583836115db565b1561217f57600080fd5b61218983836109e4565b604080516001600160a01b03841681526020810182905260118183015270436865636b20526f6c65204576656e747360781b60608201529051600080516020612e7a8339815191529181900360800190a150600192915050565b600082815260016020819052604082200154905460ff161561220957610a0683836124cc565b6122138133612586565b610a0683836124cc565b6001600160a01b038116331461228d5760405162461bcd60e51b815260206004820152602f60248201527f416363657373436f6e74726f6c3a2063616e206f6e6c792072656e6f756e636560448201526e103937b632b9903337b91039b2b63360891b60648201526084016108aa565b611b9d82826125ea565b60006115d4836001600160a01b038416612651565b60006122c6600080516020612e3a83398151915283610a85565b6122de600080516020612e5a83398151915283610a85565b6122f6600080516020612e9a83398151915283610a85565b612129600083610a85565b60006115d4838361273e565b60006107f0825490565b60405163ca15c87360e01b8152600481018290526000908190309063ca15c8739060240160206040518083038186803b15801561235357600080fd5b505afa158015612367573d6000803e3d6000fd5b505050506040513d601f19601f8201168201806040525081019061238b9190612a51565b905060005b8181101561248857604051632404341f60e21b815260048101859052602481018290526000903090639010d07c9060440160206040518083038186803b1580156123d957600080fd5b505afa1580156123ed573d6000803e3d6000fd5b505050506040513d601f19601f82011682018060405250810190612411919061297d565b60405163d547741f60e01b8152600481018790526001600160a01b0382166024820152909150309063d547741f90604401600060405180830381600087803b15801561245c57600080fd5b505af1158015612470573d6000803e3d6000fd5b5050505050808061248090612db1565b915050612390565b5060019392505050565b600082815260016020819052604082200154905460ff16156124b857610a0683836125ea565b6124c28133612586565b610a0683836125ea565b6124d682826115db565b611b9d5760008281526001602081815260408084206001600160a01b0386168086529252808420805460ff19169093179092559051339285917f2f8788117e7eff1d82e926ec794901d17c78024a50270940304540a733656f0d9190a45050565b600081815260018301602052604081205461257e575081546001818101845560008481526020808220909301849055845484825282860190935260409020919091556107f0565b5060006107f0565b61259082826115db565b611b9d576125a8816001600160a01b031660146127c4565b6125b38360206127c4565b6040516020016125c4929190612a6a565b60408051601f198184030181529082905262461bcd60e51b82526108aa91600401612adf565b6125f482826115db565b15611b9d5760008281526001602090815260408083206001600160a01b0385168085529252808320805460ff1916905551339285917ff6391f5c32d9c69d2a47ea670b442974b53935d1edc7fd64eb21e047a839171b9190a45050565b60008181526001830160205260408120548015612734576000612675600183612d18565b855490915060009061268990600190612d18565b905060008660000182815481106126a2576126a2612df8565b90600052602060002001549050808760000184815481106126c5576126c5612df8565b6000918252602080832090910192909255828152600189019091526040902084905586548790806126f8576126f8612de2565b600190038181906000526020600020016000905590558660010160008781526020019081526020016000206000905560019450505050506107f0565b60009150506107f0565b8154600090821061279c5760405162461bcd60e51b815260206004820152602260248201527f456e756d657261626c655365743a20696e646578206f7574206f6620626f756e604482015261647360f01b60648201526084016108aa565b8260000182815481106127b1576127b1612df8565b9060005260206000200154905092915050565b606060006127d3836002612cf9565b6127de906002612ce1565b67ffffffffffffffff8111156127f6576127f6612e0e565b6040519080825280601f01601f191660200182016040528015612820576020820181803683370190505b509050600360fc1b8160008151811061283b5761283b612df8565b60200101906001600160f81b031916908160001a905350600f60fb1b8160018151811061286a5761286a612df8565b60200101906001600160f81b031916908160001a905350600061288e846002612cf9565b612899906001612ce1565b90505b6001811115612911576f181899199a1a9b1b9c1cb0b131b232b360811b85600f16601081106128cd576128cd612df8565b1a60f81b8282815181106128e3576128e3612df8565b60200101906001600160f81b031916908160001a90535060049490941c9361290a81612d5f565b905061289c565b5083156115d45760405162461bcd60e51b815260206004820181905260248201527f537472696e67733a20686578206c656e67746820696e73756666696369656e7460448201526064016108aa565b60006020828403121561297257600080fd5b81356115d481612e24565b60006020828403121561298f57600080fd5b81516115d481612e24565b6000602082840312156129ac57600080fd5b813580151581146115d457600080fd5b6000602082840312156129ce57600080fd5b5035919050565b600080604083850312156129e857600080fd5b8235915060208301356129fa81612e24565b809150509250929050565b60008060408385031215612a1857600080fd5b50508035926020909101359150565b600060208284031215612a3957600080fd5b81356001600160e01b0319811681146115d457600080fd5b600060208284031215612a6357600080fd5b5051919050565b7f416363657373436f6e74726f6c3a206163636f756e7420000000000000000000815260008351612aa2816017850160208801612d2f565b7001034b99036b4b9b9b4b733903937b6329607d1b6017918401918201528351612ad3816028840160208801612d2f565b01602801949350505050565b6020815260008251806020840152612afe816040850160208701612d2f565b601f01601f19169190910160400192915050565b600060208083526000845481600182811c915080831680612b3457607f831692505b858310811415612b5257634e487b7160e01b85526022600452602485fd5b878601838152602001818015612b6f5760018114612b8057612bab565b60ff19861682528782019650612bab565b60008b81526020902060005b86811015612ba557815484820152908501908901612b8c565b83019750505b50949998505050505050505050565b60208082526010908201526f436f757274204d75737420416772656560801b604082015260600190565b6020808252601690820152752cb7ba93b932903737ba103a3432903130b4b634b33360511b604082015260600190565b602080825260139082015272596f75277265206e6f7420746865204a75727960681b604082015260600190565b602080825260139082015272576861742061726520796f7520646f696e673f60681b604082015260600190565b602080825260159082015274596f75277265206e6f742074686520476176656c7360581b604082015260600190565b60208082526024908201527f446f6e2774206d6573732077697468207468652062616c616e6365206f66207060408201526337bbb2b960e11b606082015260800190565b60008219821115612cf457612cf4612dcc565b500190565b6000816000190483118215151615612d1357612d13612dcc565b500290565b600082821015612d2a57612d2a612dcc565b500390565b60005b83811015612d4a578181015183820152602001612d32565b83811115612d59576000848401525b50505050565b600081612d6e57612d6e612dcc565b506000190190565b600181811c90821680612d8a57607f821691505b60208210811415612dab57634e487b7160e01b600052602260045260246000fd5b50919050565b6000600019821415612dc557612dc5612dcc565b5060010190565b634e487b7160e01b600052601160045260246000fd5b634e487b7160e01b600052603160045260246000fd5b634e487b7160e01b600052603260045260246000fd5b634e487b7160e01b600052604160045260246000fd5b6001600160a01b03811681146108db57600080fdfefa8e4989e1d689f7bc5c4b25b87efb51fecdecb19ba62847e29c759e12a89acd048bc71fa1cb2c119c339cf9cf00a97996a19a9d991ce5fe049f2fa5459e79907e8c379daaa14042eac528cc8c0cbb33194c8a3a2197c997f7220e8c057038340538d24a8b7882d7b2e36af243d4af61c23e86e3daa6cb8c887b53220b2f5720a2646970667358221220ba146b0c32961519f796e34b590591e74513421a4bce4a5d8f70150c901c0c9064736f6c63430008070033636f6e74656e7420686173682073746f726564204020636f6c6f7265646261646765732e657468",
  "immutableReferences": {},
  "source": "    pragma solidity ^0.8.0;\n\n    import './ConsensusMachine.sol';\n   \n    contract AddressManager is ConsensusMachine {/// Change the Gavels Agent Address\n        \n        address public GavelTokenAddress;\n        address public RedPenTokenAddress;\n\n        address public GoldStarAddress;\n        address public PinkSlipAddress;\n        address public ChadBadgeAddress;\n        address public ColoredIDAddress;\n\n        \n        address public  JuryPoolAddress;\n\n        address public CourtClerk;\n        address public GavelDAOAgent;\n        address public JuryDAOAgent;\n        address public TreasuryAddress;\n        address public TheCourtAddress;\n\n        address public MiniBailiff;\n\n        address public newAddressManager; // For the ability to upgrade if neccesary.\n        bool public hasMovedToNewAddress = false;\n\n        string private errorMessage = \"the hell are you doing? C'mon\";\n        string private zeroAddressWarning = \"C'mon\";\n\n        string public frontEnd = \"content hash stored @ coloredbadges.eth\";\n\n        uint public badgeCount = 0;\n\n        event AddressUpdated(address, string);\n\n        constructor(address juryDAOAgent, address gavelDAOAgent, address treasuryAddress,\n                    address theCourtAddress, address _MiniBailiff)\n                    ConsensusMachine(juryDAOAgent, gavelDAOAgent, theCourtAddress) {\n\n            GavelDAOAgent = gavelDAOAgent;\n            JuryDAOAgent = juryDAOAgent;\n            TreasuryAddress = treasuryAddress;\n            TheCourtAddress = theCourtAddress;\n            MiniBailiff = _MiniBailiff;\n\n        }\n\n    \n\n\n    /////////////////////////////////////////////////////////////////////////////////////////////////\n    /////////////////////////////////////////////////////////////////////////////////////////////////\n    /// @dev                                                                                     ////\n    /// Address Setters                                                                          ////\n    /////////////////////////////////////////////////////////////////////////////////////////////////\n    /////////////////////////////////////////////////////////////////////////////////////////////////\n\n        function setnewAddressManager(address newAddressManagerAddress) public THE_COURT BAILIFF {\n            require(newAddressManagerAddress != address(0), errorMessage);\n            newAddressManager = newAddressManagerAddress;\n            hasMovedToNewAddress = true;\n            _resetVote();\n\n            emit AddressUpdated(newAddressManagerAddress, \"New AddressManagerAddress\");\n        }\n\n\n        function _setAgent( bytes32 ROLE , address newAgentAddress) internal returns (bool) {\n            require(newAgentAddress != address(0), errorMessage);\n            require(!hasRole(ROLE, newAgentAddress));\n            grantRole(ROLE, newAgentAddress);\n            emit AddressUpdated(newAgentAddress, \"Check Role Events\" );\n            return true;\n        }\n\n        /// Change the Gavel Agent Address\n        function addGavelAgent(address newAgentAddress) public GAVELS {\n            bool success = _setAgent(GAVELS_BAILIFF, newAgentAddress);\n            require(success == true);\n            emit AddressUpdated(newAgentAddress, \"New Gavel Agent\");\n        }\n\n\n        /// Change the Jury Agent Address\n        function addJuryAgent(address newAgentAddress) public GAVELS {\n            bool success = _setAgent(JURY_BAILIFF, newAgentAddress);\n            require(success == true);\n            emit AddressUpdated(newAgentAddress, \"New Jury Agent\");\n\n        }\n\n        function addMiniBailiff(address newAgentAddress) public BAILIFF {\n            bool success = _setAgent(MINI_BAILIFF_ROLE, newAgentAddress);\n            require(success == true);\n            emit AddressUpdated(newAgentAddress, \"New Mini Bailiff\");\n        }\n\n        /// Change the Court Agent Address\n        function setTheCourtAgent(address newAgentAddress) public GAVELS {\n            bool success = _setAgent(THE_COURT_ROLE, newAgentAddress);\n            require(success == true);\n            emit AddressUpdated(newAgentAddress, \"New Court Elected\");\n        }\n\n        /// Change the Treasury Address\n        function setTreasuryAddress(address newTreasuryAddress) public THE_COURT {\n            require(newTreasuryAddress != address(0), errorMessage);\n            TreasuryAddress = newTreasuryAddress;\n            _resetVote();\n            emit AddressUpdated(newTreasuryAddress, \"New Treasury Address\");\n        }\n\n        function setCourtAddress(address newCourtAddress) public THE_COURT {\n            require(newCourtAddress != address(0), zeroAddressWarning);\n            TheCourtAddress = newCourtAddress;\n            _resetVote();\n            emit AddressUpdated(newCourtAddress, \"New Court Address\");\n            \n        }\n\n        function setCourtClerk(address _newCourtClerkAddress) public BAILIFF {\n            require(_newCourtClerkAddress != address(0), zeroAddressWarning);\n            CourtClerk = _newCourtClerkAddress;\n            emit AddressUpdated(CourtClerk, \"New Court Clerk\");\n            \n        }\n\n        function setGavelTokenAddress(address newGavelTokenAddress) public GAVELS {\n            require(newGavelTokenAddress != address(0), zeroAddressWarning);\n            require(newGavelTokenAddress != RedPenTokenAddress, \"Don't mess with the balance of power\");\n            GavelTokenAddress = newGavelTokenAddress;\n    \n            emit AddressUpdated(newGavelTokenAddress, \"New Gavel Token Address\");            \n        }\n\n        function setJuryPoolAddress(address newJuryPoolAddress) public JURY  {\n            require(newJuryPoolAddress != address(0), zeroAddressWarning);\n            require(newJuryPoolAddress != GavelTokenAddress, \"Don't mess with the balance of power\");\n            JuryPoolAddress = newJuryPoolAddress;\n     \n            emit AddressUpdated(newJuryPoolAddress, \"New Jury Pool Address\"); \n        }\n\n        function setRedPenTokenAddress(address newRedPenTokenAddress) public JURY  {\n            require(newRedPenTokenAddress != address(0), zeroAddressWarning);\n            require(newRedPenTokenAddress != GavelTokenAddress, \"Don't mess with the balance of power\");\n            RedPenTokenAddress = newRedPenTokenAddress;\n\n            emit AddressUpdated(newRedPenTokenAddress, \"New Red Pen Token Address\"); \n        }\n\n        function setGoldStarAddress(address newGoldStarAddress) public THE_COURT {\n            require(newGoldStarAddress != address(0), zeroAddressWarning);\n            require(newGoldStarAddress != GavelTokenAddress && newGoldStarAddress != RedPenTokenAddress, \"What are you doing?\");\n            GoldStarAddress = newGoldStarAddress;\n            _resetVote();\n            emit AddressUpdated(newGoldStarAddress, \"New Gold Star Address\"); \n        }\n\n        function setPinkSlipAddress(address newPinkSlipAddress) public THE_COURT {\n            require(newPinkSlipAddress != address(0), zeroAddressWarning);\n            require(newPinkSlipAddress != GavelTokenAddress && newPinkSlipAddress != RedPenTokenAddress, \"What are you doing?\");\n            PinkSlipAddress = newPinkSlipAddress;\n            _resetVote();\n            emit AddressUpdated(newPinkSlipAddress, \"New PinkSlip Address\");\n        }\n\n        function setChadBadgeAddress(address newChadBadgeAddress) public THE_COURT {\n            require(newChadBadgeAddress != address(0), zeroAddressWarning);\n            require(newChadBadgeAddress != GavelTokenAddress && newChadBadgeAddress != RedPenTokenAddress, \"What are you doing?\");\n            ChadBadgeAddress = newChadBadgeAddress;\n            _resetVote();\n            emit AddressUpdated(newChadBadgeAddress, \"New ChadBadge Address\");\n        }\n\n        function setColoredIDAddress(address newColoredIDAddress) public THE_COURT {\n            require(newColoredIDAddress != address(0), zeroAddressWarning);\n            require(newColoredIDAddress != GavelTokenAddress && newColoredIDAddress != RedPenTokenAddress, \"What are you doing?\");\n            ColoredIDAddress = newColoredIDAddress;\n            _resetVote();\n            emit AddressUpdated(newColoredIDAddress, \"New ColoredID Address\");\n        }\n\n\n\n\n    /////////////////////////////////////////////////////////////////////////////////////////////////\n    /////////////////////////////////////////////////////////////////////////////////////////////////\n    /// @dev  END                                                                                ////\n    /////////////////////////////////////////////////////////////////////////////////////////////////\n    /////////////////////////////////////////////////////////////////////////////////////////////////\n    }\n\n\n    /////////////////////////////////////////////////////////////////////////////////////////////////\n    /////////////////////////////////////////////////////////////////////////////////////////////////\n    /// @dev                                                                                     ////\n    /// @dev                                                                                     ////\n    /// @dev                                                                                     ////\n    /////////////////////////////////////////////////////////////////////////////////////////////////\n    /////////////////////////////////////////////////////////////////////////////////////////////////\n\n    /////////////////////////////////////////////////////////////////////////////////////////////////\n    /////////////////////////////////////////////////////////////////////////////////////////////////\n    /// @dev                                                                                     ////\n    /// @dev                                                                                     ////\n    /////////////////////////////////////////////////////////////////////////////////////////////////\n    /////////////////////////////////////////////////////////////////////////////////////////////////",
  "sourcePath": "/home/n/Desktop/PinkSlips_FrontEnd_REFORMAT/contracts/src/AddressManager.sol",
  "compiler": {
    "name": "solc",
    "version": "0.8.7+commit.e28d00a7.Emscripten.clang"
  },
  "schemaVersion": "3.4.1",
  "updatedAt": "2021-09-06T23:19:47.706Z",
  "networkType": "ethereum",
  "devdoc": {
    "kind": "dev",
    "methods": {
      "getRoleAdmin(bytes32)": {
        "details": "Returns the admin role that controls `role`. See {grantRole} and {revokeRole}. To change a role's admin, use {_setRoleAdmin}."
      },
      "getRoleMember(bytes32,uint256)": {
        "details": "Returns one of the accounts that have `role`. `index` must be a value between 0 and {getRoleMemberCount}, non-inclusive. Role bearers are not sorted in any particular way, and their ordering may change at any point. WARNING: When using {getRoleMember} and {getRoleMemberCount}, make sure you perform all queries on the same block. See the following https://forum.openzeppelin.com/t/iterating-over-elements-on-enumerableset-in-openzeppelin-contracts/2296[forum post] for more information."
      },
      "getRoleMemberCount(bytes32)": {
        "details": "Returns the number of accounts that have `role`. Can be used together with {getRoleMember} to enumerate all bearers of a role."
      },
      "grantRole(bytes32,address)": {
        "details": "Overload {grantRole} to track enumerable memberships"
      },
      "hasRole(bytes32,address)": {
        "details": "Returns `true` if `account` has been granted `role`."
      },
      "renounceRole(bytes32,address)": {
        "details": "Overload {renounceRole} to track enumerable memberships"
      },
      "revokeRole(bytes32,address)": {
        "details": "Overload {revokeRole} to track enumerable memberships"
      },
      "setnewAddressManager(address)": {
        "details": "//// Address Setters                                                                          ////"
      },
      "supportsInterface(bytes4)": {
        "details": "See {IERC165-supportsInterface}."
      },
      "vote(bool)": {
        "details": "//// Consensus Machine                                                                        ////"
      }
    },
    "version": 1
  },
  "userdoc": {
    "kind": "user",
    "methods": {
      "GavelTokenAddress()": {
        "notice": "Change the Gavels Agent Address"
      },
      "addGavelAgent(address)": {
        "notice": "Change the Gavel Agent Address"
      },
      "addJuryAgent(address)": {
        "notice": "Change the Jury Agent Address"
      },
      "setTheCourtAgent(address)": {
        "notice": "Change the Court Agent Address"
      },
      "setTreasuryAddress(address)": {
        "notice": "Change the Treasury Address"
      }
    },
    "version": 1
  }
}