{
  "contractName": "BlueBadge",
  "abi": [
    {
      "inputs": [
        {
          "internalType": "string",
          "name": "badgeName",
          "type": "string"
        },
        {
          "internalType": "string",
          "name": "badgeSymbol",
          "type": "string"
        },
        {
          "internalType": "address",
          "name": "_AddressManagerAddress",
          "type": "address"
        }
      ],
      "stateMutability": "nonpayable",
      "type": "constructor"
    },
    {
      "anonymous": false,
      "inputs": [
        {
          "indexed": true,
          "internalType": "address",
          "name": "owner",
          "type": "address"
        },
        {
          "indexed": true,
          "internalType": "address",
          "name": "approved",
          "type": "address"
        },
        {
          "indexed": true,
          "internalType": "uint256",
          "name": "tokenId",
          "type": "uint256"
        }
      ],
      "name": "Approval",
      "type": "event"
    },
    {
      "anonymous": false,
      "inputs": [
        {
          "indexed": true,
          "internalType": "address",
          "name": "owner",
          "type": "address"
        },
        {
          "indexed": true,
          "internalType": "address",
          "name": "operator",
          "type": "address"
        },
        {
          "indexed": false,
          "internalType": "bool",
          "name": "approved",
          "type": "bool"
        }
      ],
      "name": "ApprovalForAll",
      "type": "event"
    },
    {
      "anonymous": false,
      "inputs": [
        {
          "indexed": false,
          "internalType": "address",
          "name": "account",
          "type": "address"
        }
      ],
      "name": "Paused",
      "type": "event"
    },
    {
      "anonymous": false,
      "inputs": [
        {
          "indexed": true,
          "internalType": "bytes32",
          "name": "role",
          "type": "bytes32"
        },
        {
          "indexed": true,
          "internalType": "bytes32",
          "name": "previousAdminRole",
          "type": "bytes32"
        },
        {
          "indexed": true,
          "internalType": "bytes32",
          "name": "newAdminRole",
          "type": "bytes32"
        }
      ],
      "name": "RoleAdminChanged",
      "type": "event"
    },
    {
      "anonymous": false,
      "inputs": [
        {
          "indexed": true,
          "internalType": "bytes32",
          "name": "role",
          "type": "bytes32"
        },
        {
          "indexed": true,
          "internalType": "address",
          "name": "account",
          "type": "address"
        },
        {
          "indexed": true,
          "internalType": "address",
          "name": "sender",
          "type": "address"
        }
      ],
      "name": "RoleGranted",
      "type": "event"
    },
    {
      "anonymous": false,
      "inputs": [
        {
          "indexed": true,
          "internalType": "bytes32",
          "name": "role",
          "type": "bytes32"
        },
        {
          "indexed": true,
          "internalType": "address",
          "name": "account",
          "type": "address"
        },
        {
          "indexed": true,
          "internalType": "address",
          "name": "sender",
          "type": "address"
        }
      ],
      "name": "RoleRevoked",
      "type": "event"
    },
    {
      "anonymous": false,
      "inputs": [
        {
          "indexed": true,
          "internalType": "address",
          "name": "from",
          "type": "address"
        },
        {
          "indexed": true,
          "internalType": "address",
          "name": "to",
          "type": "address"
        },
        {
          "indexed": true,
          "internalType": "uint256",
          "name": "tokenId",
          "type": "uint256"
        }
      ],
      "name": "Transfer",
      "type": "event"
    },
    {
      "anonymous": false,
      "inputs": [
        {
          "indexed": false,
          "internalType": "address",
          "name": "account",
          "type": "address"
        }
      ],
      "name": "Unpaused",
      "type": "event"
    },
    {
      "inputs": [],
      "name": "AddressManagerAddress",
      "outputs": [
        {
          "internalType": "address",
          "name": "",
          "type": "address"
        }
      ],
      "stateMutability": "view",
      "type": "function"
    },
    {
      "inputs": [
        {
          "internalType": "uint256",
          "name": "",
          "type": "uint256"
        }
      ],
      "name": "BadgeInfo",
      "outputs": [
        {
          "internalType": "address",
          "name": "gifter",
          "type": "address"
        },
        {
          "internalType": "string",
          "name": "reason",
          "type": "string"
        }
      ],
      "stateMutability": "view",
      "type": "function"
    },
    {
      "inputs": [
        {
          "internalType": "address",
          "name": "",
          "type": "address"
        },
        {
          "internalType": "uint256",
          "name": "",
          "type": "uint256"
        }
      ],
      "name": "BadgesSent",
      "outputs": [
        {
          "internalType": "uint256",
          "name": "",
          "type": "uint256"
        }
      ],
      "stateMutability": "view",
      "type": "function"
    },
    {
      "inputs": [],
      "name": "ChadBadgeAddress",
      "outputs": [
        {
          "internalType": "address",
          "name": "",
          "type": "address"
        }
      ],
      "stateMutability": "view",
      "type": "function"
    },
    {
      "inputs": [],
      "name": "ColoredIDAddress",
      "outputs": [
        {
          "internalType": "address",
          "name": "",
          "type": "address"
        }
      ],
      "stateMutability": "view",
      "type": "function"
    },
    {
      "inputs": [],
      "name": "CourtClerk",
      "outputs": [
        {
          "internalType": "address",
          "name": "",
          "type": "address"
        }
      ],
      "stateMutability": "view",
      "type": "function"
    },
    {
      "inputs": [],
      "name": "DEFAULT_ADMIN_ROLE",
      "outputs": [
        {
          "internalType": "bytes32",
          "name": "",
          "type": "bytes32"
        }
      ],
      "stateMutability": "view",
      "type": "function"
    },
    {
      "inputs": [],
      "name": "GAVELS_BAILIFF",
      "outputs": [
        {
          "internalType": "bytes32",
          "name": "",
          "type": "bytes32"
        }
      ],
      "stateMutability": "view",
      "type": "function"
    },
    {
      "inputs": [],
      "name": "GavelDAOAgent",
      "outputs": [
        {
          "internalType": "address",
          "name": "",
          "type": "address"
        }
      ],
      "stateMutability": "view",
      "type": "function"
    },
    {
      "inputs": [],
      "name": "GavelTokenAddress",
      "outputs": [
        {
          "internalType": "address",
          "name": "",
          "type": "address"
        }
      ],
      "stateMutability": "view",
      "type": "function"
    },
    {
      "inputs": [],
      "name": "GavelVote",
      "outputs": [
        {
          "internalType": "bool",
          "name": "",
          "type": "bool"
        }
      ],
      "stateMutability": "view",
      "type": "function"
    },
    {
      "inputs": [],
      "name": "GoldStarAddress",
      "outputs": [
        {
          "internalType": "address",
          "name": "",
          "type": "address"
        }
      ],
      "stateMutability": "view",
      "type": "function"
    },
    {
      "inputs": [],
      "name": "JERK_ROLE",
      "outputs": [
        {
          "internalType": "bytes32",
          "name": "",
          "type": "bytes32"
        }
      ],
      "stateMutability": "view",
      "type": "function"
    },
    {
      "inputs": [],
      "name": "JURY_BAILIFF",
      "outputs": [
        {
          "internalType": "bytes32",
          "name": "",
          "type": "bytes32"
        }
      ],
      "stateMutability": "view",
      "type": "function"
    },
    {
      "inputs": [],
      "name": "JuryDAOAgent",
      "outputs": [
        {
          "internalType": "address",
          "name": "",
          "type": "address"
        }
      ],
      "stateMutability": "view",
      "type": "function"
    },
    {
      "inputs": [],
      "name": "JuryPoolAddress",
      "outputs": [
        {
          "internalType": "address",
          "name": "",
          "type": "address"
        }
      ],
      "stateMutability": "view",
      "type": "function"
    },
    {
      "inputs": [],
      "name": "JuryVote",
      "outputs": [
        {
          "internalType": "bool",
          "name": "",
          "type": "bool"
        }
      ],
      "stateMutability": "view",
      "type": "function"
    },
    {
      "inputs": [],
      "name": "MINI_BAILIFF_ROLE",
      "outputs": [
        {
          "internalType": "bytes32",
          "name": "",
          "type": "bytes32"
        }
      ],
      "stateMutability": "view",
      "type": "function"
    },
    {
      "inputs": [],
      "name": "MiniBailiff",
      "outputs": [
        {
          "internalType": "address",
          "name": "",
          "type": "address"
        }
      ],
      "stateMutability": "view",
      "type": "function"
    },
    {
      "inputs": [],
      "name": "PinkSlipAddress",
      "outputs": [
        {
          "internalType": "address",
          "name": "",
          "type": "address"
        }
      ],
      "stateMutability": "view",
      "type": "function"
    },
    {
      "inputs": [],
      "name": "RedPenTokenAddress",
      "outputs": [
        {
          "internalType": "address",
          "name": "",
          "type": "address"
        }
      ],
      "stateMutability": "view",
      "type": "function"
    },
    {
      "inputs": [],
      "name": "THE_COURT_ROLE",
      "outputs": [
        {
          "internalType": "bytes32",
          "name": "",
          "type": "bytes32"
        }
      ],
      "stateMutability": "view",
      "type": "function"
    },
    {
      "inputs": [],
      "name": "TheCourtAddress",
      "outputs": [
        {
          "internalType": "address",
          "name": "",
          "type": "address"
        }
      ],
      "stateMutability": "view",
      "type": "function"
    },
    {
      "inputs": [],
      "name": "TreasuryAddress",
      "outputs": [
        {
          "internalType": "address",
          "name": "",
          "type": "address"
        }
      ],
      "stateMutability": "view",
      "type": "function"
    },
    {
      "inputs": [],
      "name": "addressManager",
      "outputs": [
        {
          "internalType": "contract AddressManager",
          "name": "",
          "type": "address"
        }
      ],
      "stateMutability": "view",
      "type": "function"
    },
    {
      "inputs": [
        {
          "internalType": "address",
          "name": "to",
          "type": "address"
        },
        {
          "internalType": "uint256",
          "name": "tokenId",
          "type": "uint256"
        }
      ],
      "name": "approve",
      "outputs": [],
      "stateMutability": "nonpayable",
      "type": "function"
    },
    {
      "inputs": [],
      "name": "badgeColor",
      "outputs": [
        {
          "internalType": "string",
          "name": "",
          "type": "string"
        }
      ],
      "stateMutability": "view",
      "type": "function"
    },
    {
      "inputs": [],
      "name": "badgeName",
      "outputs": [
        {
          "internalType": "string",
          "name": "",
          "type": "string"
        }
      ],
      "stateMutability": "view",
      "type": "function"
    },
    {
      "inputs": [
        {
          "internalType": "address",
          "name": "owner",
          "type": "address"
        }
      ],
      "name": "balanceOf",
      "outputs": [
        {
          "internalType": "uint256",
          "name": "",
          "type": "uint256"
        }
      ],
      "stateMutability": "view",
      "type": "function"
    },
    {
      "inputs": [],
      "name": "baseURI_",
      "outputs": [
        {
          "internalType": "string",
          "name": "",
          "type": "string"
        }
      ],
      "stateMutability": "view",
      "type": "function"
    },
    {
      "inputs": [
        {
          "internalType": "uint256",
          "name": "valueMustBe69",
          "type": "uint256"
        }
      ],
      "name": "destroyAndLockContract",
      "outputs": [
        {
          "internalType": "bool",
          "name": "",
          "type": "bool"
        }
      ],
      "stateMutability": "nonpayable",
      "type": "function"
    },
    {
      "inputs": [
        {
          "internalType": "uint256",
          "name": "tokenId",
          "type": "uint256"
        }
      ],
      "name": "getApproved",
      "outputs": [
        {
          "internalType": "address",
          "name": "",
          "type": "address"
        }
      ],
      "stateMutability": "view",
      "type": "function"
    },
    {
      "inputs": [
        {
          "internalType": "uint256",
          "name": "_tokenId",
          "type": "uint256"
        }
      ],
      "name": "getBadgeReason",
      "outputs": [
        {
          "internalType": "string",
          "name": "_theReason",
          "type": "string"
        }
      ],
      "stateMutability": "view",
      "type": "function"
    },
    {
      "inputs": [
        {
          "internalType": "uint256",
          "name": "_tokenId",
          "type": "uint256"
        }
      ],
      "name": "getBadgeSender",
      "outputs": [
        {
          "internalType": "address",
          "name": "_theGifter",
          "type": "address"
        }
      ],
      "stateMutability": "view",
      "type": "function"
    },
    {
      "inputs": [
        {
          "internalType": "address",
          "name": "_gifter",
          "type": "address"
        }
      ],
      "name": "getBadgesSent",
      "outputs": [
        {
          "internalType": "uint256[]",
          "name": "_BadgesSent",
          "type": "uint256[]"
        }
      ],
      "stateMutability": "view",
      "type": "function"
    },
    {
      "inputs": [
        {
          "internalType": "bytes32",
          "name": "role",
          "type": "bytes32"
        }
      ],
      "name": "getRoleAdmin",
      "outputs": [
        {
          "internalType": "bytes32",
          "name": "",
          "type": "bytes32"
        }
      ],
      "stateMutability": "view",
      "type": "function"
    },
    {
      "inputs": [
        {
          "internalType": "bytes32",
          "name": "role",
          "type": "bytes32"
        },
        {
          "internalType": "uint256",
          "name": "index",
          "type": "uint256"
        }
      ],
      "name": "getRoleMember",
      "outputs": [
        {
          "internalType": "address",
          "name": "",
          "type": "address"
        }
      ],
      "stateMutability": "view",
      "type": "function"
    },
    {
      "inputs": [
        {
          "internalType": "bytes32",
          "name": "role",
          "type": "bytes32"
        }
      ],
      "name": "getRoleMemberCount",
      "outputs": [
        {
          "internalType": "uint256",
          "name": "",
          "type": "uint256"
        }
      ],
      "stateMutability": "view",
      "type": "function"
    },
    {
      "inputs": [
        {
          "internalType": "bytes32",
          "name": "role",
          "type": "bytes32"
        },
        {
          "internalType": "address",
          "name": "account",
          "type": "address"
        }
      ],
      "name": "grantRole",
      "outputs": [],
      "stateMutability": "nonpayable",
      "type": "function"
    },
    {
      "inputs": [
        {
          "internalType": "bytes32",
          "name": "role",
          "type": "bytes32"
        },
        {
          "internalType": "address",
          "name": "account",
          "type": "address"
        }
      ],
      "name": "hasRole",
      "outputs": [
        {
          "internalType": "bool",
          "name": "",
          "type": "bool"
        }
      ],
      "stateMutability": "view",
      "type": "function"
    },
    {
      "inputs": [
        {
          "internalType": "address",
          "name": "owner",
          "type": "address"
        },
        {
          "internalType": "address",
          "name": "operator",
          "type": "address"
        }
      ],
      "name": "isApprovedForAll",
      "outputs": [
        {
          "internalType": "bool",
          "name": "",
          "type": "bool"
        }
      ],
      "stateMutability": "view",
      "type": "function"
    },
    {
      "inputs": [
        {
          "internalType": "address",
          "name": "addressToCheck",
          "type": "address"
        },
        {
          "internalType": "uint256",
          "name": "badgeTokenID",
          "type": "uint256"
        }
      ],
      "name": "isBadgeSender",
      "outputs": [
        {
          "internalType": "bool",
          "name": "",
          "type": "bool"
        }
      ],
      "stateMutability": "view",
      "type": "function"
    },
    {
      "inputs": [],
      "name": "isForeverLocked",
      "outputs": [
        {
          "internalType": "bool",
          "name": "",
          "type": "bool"
        }
      ],
      "stateMutability": "view",
      "type": "function"
    },
    {
      "inputs": [
        {
          "internalType": "address",
          "name": "receivingAddress",
          "type": "address"
        },
        {
          "internalType": "string",
          "name": "_reason",
          "type": "string"
        }
      ],
      "name": "issueBadge",
      "outputs": [
        {
          "internalType": "uint256",
          "name": "newId",
          "type": "uint256"
        }
      ],
      "stateMutability": "nonpayable",
      "type": "function"
    },
    {
      "inputs": [
        {
          "internalType": "address",
          "name": "receivingAddress",
          "type": "address"
        },
        {
          "internalType": "string",
          "name": "_reason",
          "type": "string"
        },
        {
          "internalType": "string",
          "name": "_tokenURI",
          "type": "string"
        }
      ],
      "name": "issueBadge",
      "outputs": [
        {
          "internalType": "uint256",
          "name": "newId",
          "type": "uint256"
        }
      ],
      "stateMutability": "nonpayable",
      "type": "function"
    },
    {
      "inputs": [],
      "name": "jerkSanctions",
      "outputs": [
        {
          "internalType": "bool",
          "name": "",
          "type": "bool"
        }
      ],
      "stateMutability": "view",
      "type": "function"
    },
    {
      "inputs": [],
      "name": "name",
      "outputs": [
        {
          "internalType": "string",
          "name": "",
          "type": "string"
        }
      ],
      "stateMutability": "view",
      "type": "function"
    },
    {
      "inputs": [],
      "name": "nextTokenId",
      "outputs": [
        {
          "internalType": "uint256",
          "name": "_nextTokenId",
          "type": "uint256"
        }
      ],
      "stateMutability": "view",
      "type": "function"
    },
    {
      "inputs": [
        {
          "internalType": "uint256",
          "name": "tokenId",
          "type": "uint256"
        }
      ],
      "name": "ownerOf",
      "outputs": [
        {
          "internalType": "address",
          "name": "",
          "type": "address"
        }
      ],
      "stateMutability": "view",
      "type": "function"
    },
    {
      "inputs": [],
      "name": "pause",
      "outputs": [],
      "stateMutability": "nonpayable",
      "type": "function"
    },
    {
      "inputs": [],
      "name": "paused",
      "outputs": [
        {
          "internalType": "bool",
          "name": "",
          "type": "bool"
        }
      ],
      "stateMutability": "view",
      "type": "function"
    },
    {
      "inputs": [
        {
          "internalType": "bool",
          "name": "thisIsNotReversible",
          "type": "bool"
        }
      ],
      "name": "refreshBadges",
      "outputs": [
        {
          "internalType": "bool",
          "name": "",
          "type": "bool"
        }
      ],
      "stateMutability": "nonpayable",
      "type": "function"
    },
    {
      "inputs": [
        {
          "internalType": "bytes32",
          "name": "role",
          "type": "bytes32"
        },
        {
          "internalType": "address",
          "name": "account",
          "type": "address"
        }
      ],
      "name": "renounceRole",
      "outputs": [],
      "stateMutability": "nonpayable",
      "type": "function"
    },
    {
      "inputs": [],
      "name": "resetVote",
      "outputs": [],
      "stateMutability": "nonpayable",
      "type": "function"
    },
    {
      "inputs": [
        {
          "internalType": "uint256",
          "name": "tokenId",
          "type": "uint256"
        }
      ],
      "name": "revokeBadge",
      "outputs": [],
      "stateMutability": "nonpayable",
      "type": "function"
    },
    {
      "inputs": [
        {
          "internalType": "bytes32",
          "name": "role",
          "type": "bytes32"
        },
        {
          "internalType": "address",
          "name": "account",
          "type": "address"
        }
      ],
      "name": "revokeRole",
      "outputs": [],
      "stateMutability": "nonpayable",
      "type": "function"
    },
    {
      "inputs": [
        {
          "internalType": "address",
          "name": "from",
          "type": "address"
        },
        {
          "internalType": "address",
          "name": "to",
          "type": "address"
        },
        {
          "internalType": "uint256",
          "name": "tokenId",
          "type": "uint256"
        }
      ],
      "name": "safeTransferFrom",
      "outputs": [],
      "stateMutability": "nonpayable",
      "type": "function"
    },
    {
      "inputs": [
        {
          "internalType": "address",
          "name": "from",
          "type": "address"
        },
        {
          "internalType": "address",
          "name": "to",
          "type": "address"
        },
        {
          "internalType": "uint256",
          "name": "tokenId",
          "type": "uint256"
        },
        {
          "internalType": "bytes",
          "name": "_data",
          "type": "bytes"
        }
      ],
      "name": "safeTransferFrom",
      "outputs": [],
      "stateMutability": "nonpayable",
      "type": "function"
    },
    {
      "inputs": [
        {
          "internalType": "address",
          "name": "operator",
          "type": "address"
        },
        {
          "internalType": "bool",
          "name": "approved",
          "type": "bool"
        }
      ],
      "name": "setApprovalForAll",
      "outputs": [],
      "stateMutability": "nonpayable",
      "type": "function"
    },
    {
      "inputs": [
        {
          "internalType": "string",
          "name": "_baseURIString",
          "type": "string"
        }
      ],
      "name": "setBaseURI",
      "outputs": [
        {
          "internalType": "bool",
          "name": "",
          "type": "bool"
        }
      ],
      "stateMutability": "nonpayable",
      "type": "function"
    },
    {
      "inputs": [
        {
          "internalType": "bytes4",
          "name": "interfaceId",
          "type": "bytes4"
        }
      ],
      "name": "supportsInterface",
      "outputs": [
        {
          "internalType": "bool",
          "name": "",
          "type": "bool"
        }
      ],
      "stateMutability": "view",
      "type": "function"
    },
    {
      "inputs": [],
      "name": "symbol",
      "outputs": [
        {
          "internalType": "string",
          "name": "",
          "type": "string"
        }
      ],
      "stateMutability": "view",
      "type": "function"
    },
    {
      "inputs": [],
      "name": "syncAllRoles",
      "outputs": [],
      "stateMutability": "nonpayable",
      "type": "function"
    },
    {
      "inputs": [
        {
          "internalType": "bytes32",
          "name": "ROLE_TO_SYNC",
          "type": "bytes32"
        }
      ],
      "name": "syncSingleRole",
      "outputs": [],
      "stateMutability": "nonpayable",
      "type": "function"
    },
    {
      "inputs": [],
      "name": "syncVotes",
      "outputs": [],
      "stateMutability": "nonpayable",
      "type": "function"
    },
    {
      "inputs": [
        {
          "internalType": "uint256",
          "name": "index",
          "type": "uint256"
        }
      ],
      "name": "tokenByIndex",
      "outputs": [
        {
          "internalType": "uint256",
          "name": "",
          "type": "uint256"
        }
      ],
      "stateMutability": "view",
      "type": "function"
    },
    {
      "inputs": [
        {
          "internalType": "address",
          "name": "owner",
          "type": "address"
        },
        {
          "internalType": "uint256",
          "name": "index",
          "type": "uint256"
        }
      ],
      "name": "tokenOfOwnerByIndex",
      "outputs": [
        {
          "internalType": "uint256",
          "name": "",
          "type": "uint256"
        }
      ],
      "stateMutability": "view",
      "type": "function"
    },
    {
      "inputs": [
        {
          "internalType": "uint256",
          "name": "_tokenId",
          "type": "uint256"
        }
      ],
      "name": "tokenURI",
      "outputs": [
        {
          "internalType": "string",
          "name": "_URI",
          "type": "string"
        }
      ],
      "stateMutability": "view",
      "type": "function"
    },
    {
      "inputs": [],
      "name": "totalSupply",
      "outputs": [
        {
          "internalType": "uint256",
          "name": "",
          "type": "uint256"
        }
      ],
      "stateMutability": "view",
      "type": "function"
    },
    {
      "inputs": [
        {
          "internalType": "address",
          "name": "from",
          "type": "address"
        },
        {
          "internalType": "address",
          "name": "to",
          "type": "address"
        },
        {
          "internalType": "uint256",
          "name": "tokenId",
          "type": "uint256"
        }
      ],
      "name": "transferFrom",
      "outputs": [],
      "stateMutability": "nonpayable",
      "type": "function"
    },
    {
      "inputs": [],
      "name": "unpause",
      "outputs": [],
      "stateMutability": "nonpayable",
      "type": "function"
    },
    {
      "inputs": [],
      "name": "updateAddressManager",
      "outputs": [],
      "stateMutability": "nonpayable",
      "type": "function"
    },
    {
      "inputs": [],
      "name": "updateAllAddresses",
      "outputs": [],
      "stateMutability": "nonpayable",
      "type": "function"
    },
    {
      "inputs": [],
      "name": "updateAllRoles",
      "outputs": [],
      "stateMutability": "nonpayable",
      "type": "function"
    },
    {
      "inputs": [],
      "name": "updateDAOAddresses",
      "outputs": [],
      "stateMutability": "nonpayable",
      "type": "function"
    },
    {
      "inputs": [
        {
          "internalType": "bytes32",
          "name": "ROLE_TO_UPDATE",
          "type": "bytes32"
        }
      ],
      "name": "updateSingleRole",
      "outputs": [],
      "stateMutability": "nonpayable",
      "type": "function"
    },
    {
      "inputs": [],
      "name": "updateTokenAddresses",
      "outputs": [],
      "stateMutability": "nonpayable",
      "type": "function"
    }
  ],
  "bytecode": "0x6000805460ff1990811682556011805463ffffffff60a01b19169055601e91909155601f80549091169055636970667360e01b60a0908152601d60f91b60a452602f60f81b60a581905260a6526007608081905260a7604052620000669160229162000c4e565b503480156200007457600080fd5b5060405162005b3638038062005b36833981016040819052620000979162000e11565b600380546001600160a01b0383166001600160a01b03199182168117909255601180549091169091179055828282828282620000d262000277565b620000dc6200028d565b600f54620000f6906000906001600160a01b0316620003d8565b600f546200012f907f0538d24a8b7882d7b2e36af243d4af61c23e86e3daa6cb8c887b53220b2f5720906001600160a01b0316620003d8565b600c5462000168907f048bc71fa1cb2c119c339cf9cf00a97996a19a9d991ce5fe049f2fa5459e7990906001600160a01b0316620003d8565b600d54620001a1907ffa8e4989e1d689f7bc5c4b25b87efb51fecdecb19ba62847e29c759e12a89acd906001600160a01b0316620003d8565b601054620001da907ff0f4b159a6e2a4815eb3ca3df080bfa70c9270662c59bcaa4479a456220183e6906001600160a01b0316620003d8565b620002077f7c9d7f6f02908185bffb3f7fc9afb29fd7bf93675af8fd4b655ee05c2cee1e0e6000620003d8565b5081516200021d90601290602085019062000c4e565b5080516200023390601390602084019062000c4e565b50506018805460ff1916905550815162000254906020908185019062000c4e565b5082516200026a90602190602086019062000c4e565b5050505050505062000ee0565b620002816200041b565b6200028b6200071b565b565b601160009054906101000a90046001600160a01b03166001600160a01b031663ff7e88ec6040518163ffffffff1660e01b815260040160206040518083038186803b158015620002dc57600080fd5b505afa158015620002f1573d6000803e3d6000fd5b505050506040513d601f19601f8201168201806040525081019062000317919062000de6565b601160156101000a81548160ff021916908315150217905550601160009054906101000a90046001600160a01b03166001600160a01b0316632fb565856040518163ffffffff1660e01b815260040160206040518083038186803b1580156200037f57600080fd5b505afa15801562000394573d6000803e3d6000fd5b505050506040513d601f19601f82011682018060405250810190620003ba919062000de6565b60118054911515600160b01b0260ff60b01b19909216919091179055565b620003ef828262000b4460201b62001aaf1760201c565b60008281526002602090815260409091206200041691839062001ab962000b54821b17901c565b505050565b601160009054906101000a90046001600160a01b03166001600160a01b031663dadf56ac6040518163ffffffff1660e01b815260040160206040518083038186803b1580156200046a57600080fd5b505afa1580156200047f573d6000803e3d6000fd5b505050506040513d601f19601f82011682018060405250810190620004a5919062000dc8565b600c80546001600160a01b0319166001600160a01b039283161790556011546040805163024bebe960e01b81529051919092169163024bebe9916004808301926020929190829003018186803b158015620004ff57600080fd5b505afa15801562000514573d6000803e3d6000fd5b505050506040513d601f19601f820116820180604052508101906200053a919062000dc8565b600d80546001600160a01b0319166001600160a01b0392831617905560115460408051635b5c251f60e01b815290519190921691635b5c251f916004808301926020929190829003018186803b1580156200059457600080fd5b505afa158015620005a9573d6000803e3d6000fd5b505050506040513d601f19601f82011682018060405250810190620005cf919062000dc8565b600e80546001600160a01b0319166001600160a01b0392831617905560115460408051637310bf1d60e11b81529051919092169163e6217e3a916004808301926020929190829003018186803b1580156200062957600080fd5b505afa1580156200063e573d6000803e3d6000fd5b505050506040513d601f19601f8201168201806040525081019062000664919062000dc8565b601080546001600160a01b0319166001600160a01b039283161790556011546040805163d88127a160e01b81529051919092169163d88127a1916004808301926020929190829003018186803b158015620006be57600080fd5b505afa158015620006d3573d6000803e3d6000fd5b505050506040513d601f19601f82011682018060405250810190620006f9919062000dc8565b600b80546001600160a01b0319166001600160a01b0392909216919091179055565b601160009054906101000a90046001600160a01b03166001600160a01b03166321d7f0086040518163ffffffff1660e01b815260040160206040518083038186803b1580156200076a57600080fd5b505afa1580156200077f573d6000803e3d6000fd5b505050506040513d601f19601f82011682018060405250810190620007a5919062000dc8565b600480546001600160a01b0319166001600160a01b039283161781556011546040805163762ddb5960e01b81529051919093169263762ddb599281810192602092909190829003018186803b158015620007fe57600080fd5b505afa15801562000813573d6000803e3d6000fd5b505050506040513d601f19601f8201168201806040525081019062000839919062000dc8565b600580546001600160a01b0319166001600160a01b039283161790556011546040805163bfb7dc9960e01b81529051919092169163bfb7dc99916004808301926020929190829003018186803b1580156200089357600080fd5b505afa158015620008a8573d6000803e3d6000fd5b505050506040513d601f19601f82011682018060405250810190620008ce919062000dc8565b600680546001600160a01b0319166001600160a01b0392831617905560115460408051633e6111eb60e21b81529051919092169163f98447ac916004808301926020929190829003018186803b1580156200092857600080fd5b505afa1580156200093d573d6000803e3d6000fd5b505050506040513d601f19601f8201168201806040525081019062000963919062000dc8565b600780546001600160a01b0319166001600160a01b0392831617905560115460408051630fe1ba9f60e21b815290519190921691633f86ea7c916004808301926020929190829003018186803b158015620009bd57600080fd5b505afa158015620009d2573d6000803e3d6000fd5b505050506040513d601f19601f82011682018060405250810190620009f8919062000dc8565b600880546001600160a01b0319166001600160a01b0392831617905560115460408051632b90024160e11b8152905191909216916357200482916004808301926020929190829003018186803b15801562000a5257600080fd5b505afa15801562000a67573d6000803e3d6000fd5b505050506040513d601f19601f8201168201806040525081019062000a8d919062000dc8565b600980546001600160a01b0319166001600160a01b0392831617905560115460408051636b58477560e01b815290519190921691636b584775916004808301926020929190829003018186803b15801562000ae757600080fd5b505afa15801562000afc573d6000803e3d6000fd5b505050506040513d601f19601f8201168201806040525081019062000b22919062000dc8565b600a80546001600160a01b0319166001600160a01b0392909216919091179055565b62000b50828262000b74565b5050565b600062000b6b836001600160a01b03841662000bfc565b90505b92915050565b60008281526001602090815260408083206001600160a01b038516845290915290205460ff1662000b505760008281526001602081815260408084206001600160a01b0386168086529252808420805460ff19169093179092559051339285917f2f8788117e7eff1d82e926ec794901d17c78024a50270940304540a733656f0d9190a45050565b600081815260018301602052604081205462000c455750815460018181018455600084815260208082209093018490558454848252828601909352604090209190915562000b6e565b50600062000b6e565b82805462000c5c9062000e8d565b90600052602060002090601f01602090048101928262000c80576000855562000ccb565b82601f1062000c9b57805160ff191683800117855562000ccb565b8280016001018555821562000ccb579182015b8281111562000ccb57825182559160200191906001019062000cae565b5062000cd992915062000cdd565b5090565b5b8082111562000cd9576000815560010162000cde565b80516001600160a01b038116811462000d0c57600080fd5b919050565b600082601f83011262000d2357600080fd5b81516001600160401b038082111562000d405762000d4062000eca565b604051601f8301601f19908116603f0116810190828211818310171562000d6b5762000d6b62000eca565b8160405283815260209250868385880101111562000d8857600080fd5b600091505b8382101562000dac578582018301518183018401529082019062000d8d565b8382111562000dbe5760008385830101525b9695505050505050565b60006020828403121562000ddb57600080fd5b62000b6b8262000cf4565b60006020828403121562000df957600080fd5b8151801515811462000e0a57600080fd5b9392505050565b60008060006060848603121562000e2757600080fd5b83516001600160401b038082111562000e3f57600080fd5b62000e4d8783880162000d11565b9450602086015191508082111562000e6457600080fd5b5062000e738682870162000d11565b92505062000e846040850162000cf4565b90509250925092565b600181811c9082168062000ea257607f821691505b6020821081141562000ec457634e487b7160e01b600052602260045260246000fd5b50919050565b634e487b7160e01b600052604160045260246000fd5b614c468062000ef06000396000f3fe608060405234801561001057600080fd5b506004361061045f5760003560e01c806370a082311161024c578063c62b28e811610146578063e6217e3a116100c3578063f259a29e11610087578063f259a29e14610996578063f7d92d861461099e578063f98447ac146109a6578063f98db253146109b9578063ff7e88ec146109cc57600080fd5b8063e6217e3a14610940578063e78c266c14610953578063e985e9c514610966578063e9a5323014610979578063f1132b301461098e57600080fd5b8063d547741f1161010a578063d547741f146108ec578063d88127a1146108ff578063dadf56ac14610912578063de2cff0314610925578063dea6f9c81461093857600080fd5b8063c62b28e814610889578063c87b56dd1461089c578063ca15c873146108af578063cce84392146108c2578063cf4ece15146108d757600080fd5b806395d89b41116101d4578063a32c5e5911610198578063a32c5e5914610819578063a78e746f1461082e578063b88d4fde14610842578063bfb7dc9914610855578063c04e17e31461086857600080fd5b806395d89b41146107d657806396ac6bf0146107de5780639ac3eaa7146107f1578063a217fddf146107fe578063a22cb4651461080657600080fd5b8063765160781161021b5780637651607814610782578063794ccf6c146107955780638456cb59146107a85780639010d07c146107b057806391d14854146107c357600080fd5b806370a082311461072b57806373c898221461073e57806375794a3c14610767578063762ddb591461076f57600080fd5b80633ab76e9f1161035d57806357f276ff116102e55780635f413466116102a95780635f413466146106ca578063610c3009146106dd5780636352211e146106e557806363ebc677146106f85780636b5847751461071857600080fd5b806357f276ff1461067e57806359e6f787146106915780635b5c251f146106a45780635c975abb146106b75780635db531a1146106c257600080fd5b806349b5e1051161032c57806349b5e105146106355780634d84c6d81461063d5780634f6ccce71461064557806355f804b314610658578063572004821461066b57600080fd5b80633ab76e9f146105f45780633f4ba83a146106075780633f86ea7c1461060f57806342842e0e1461062257600080fd5b806321d7f008116103eb5780632f745c59116103af5780632f745c59146105aa5780632fb56585146105bd578063326a55e0146105d1578063329a8cfa146105d957806336568abe146105e157600080fd5b806321d7f0081461053857806323b872dd1461054b5780632436329d1461055e578063248a9ca3146105735780632f2ff15d1461059757600080fd5b8063095ea7b311610432578063095ea7b3146104df5780630ad17f8f146104f4578063130f63201461051557806317314d5a1461052857806318160ddd1461053057600080fd5b806301ffc9a714610464578063024bebe91461048c57806306fdde03146104b7578063081812fc146104cc575b600080fd5b6104776104723660046146ba565b6109e0565b60405190151581526020015b60405180910390f35b600d5461049f906001600160a01b031681565b6040516001600160a01b039091168152602001610483565b6104bf6109f1565b60405161048391906148b7565b61049f6104da36600461465a565b610a83565b6104f26104ed3660046145f4565b610b10565b005b6105076105023660046145f4565b610c26565b604051908152602001610483565b6104f261052336600461465a565b610c57565b6104f2610c8c565b601c54610507565b60045461049f906001600160a01b031681565b6104f261055936600461443f565b610cb5565b610507600080516020614b7183398151915281565b61050761058136600461465a565b6000908152600160208190526040909120015490565b6104f26105a5366004614673565b610ce6565b6105076105b83660046145f4565b610d08565b60115461047790600160b01b900460ff1681565b6104f2610d9e565b6104f2610dae565b6104f26105ef366004614673565b610eb7565b60115461049f906001600160a01b031681565b6104f2610ed9565b60085461049f906001600160a01b031681565b6104f261063036600461443f565b610f6b565b6104f2610f9c565b6104f2610da6565b61050761065336600461465a565b610fa4565b6104776106663660046146f4565b611037565b60095461049f906001600160a01b031681565b6104f261068c36600461465a565b6110e4565b61047761069f3660046145f4565b6110f8565b600e5461049f906001600160a01b031681565b60185460ff16610477565b6104f261112a565b600f5461049f906001600160a01b031681565b6104bf611132565b61049f6106f336600461465a565b6111c0565b61070b6107063660046143cc565b611237565b6040516104839190614873565b600a5461049f906001600160a01b031681565b6105076107393660046143cc565b6112a3565b61049f61074c36600461465a565b6000908152602360205260409020546001600160a01b031690565b601e54610507565b60055461049f906001600160a01b031681565b610477610790366004614620565b61132a565b6105076107a336600461452e565b611421565b6104f26114ac565b61049f6107be366004614698565b61152e565b6104776107d1366004614673565b611546565b6104bf611571565b6104776107ec36600461465a565b611580565b601f546104779060ff1681565b610507600081565b6104f2610814366004614500565b61168c565b610507600080516020614bd183398151915281565b60115461047790600160a01b900460ff1681565b6104f2610850366004614480565b61170a565b60065461049f906001600160a01b031681565b61087b61087636600461465a565b611742565b60405161048392919061484f565b6104f261089736600461465a565b6117f1565b6104bf6108aa36600461465a565b611842565b6105076108bd36600461465a565b61184d565b610507600080516020614bf183398151915281565b610507600080516020614bb183398151915281565b6104f26108fa366004614673565b611864565b600b5461049f906001600160a01b031681565b600c5461049f906001600160a01b031681565b61050761093336600461457e565b61186e565b6104bf6118fb565b60105461049f906001600160a01b031681565b60035461049f906001600160a01b031681565b610477610974366004614406565b611908565b610507600080516020614b9183398151915281565b6104f261195f565b6104bf611967565b6104f2611974565b60075461049f906001600160a01b031681565b6104bf6109c736600461465a565b611a14565b60115461047790600160a81b900460ff1681565b60006109eb82611ace565b92915050565b606060128054610a0090614a5f565b80601f0160208091040260200160405190810160405280929190818152602001828054610a2c90614a5f565b8015610a795780601f10610a4e57610100808354040283529160200191610a79565b820191906000526020600020905b815481529060010190602001808311610a5c57829003601f168201915b5050505050905090565b6000610a8e82611af3565b610af45760405162461bcd60e51b815260206004820152602c60248201527f4552433732313a20617070726f76656420717565727920666f72206e6f6e657860448201526b34b9ba32b73a103a37b5b2b760a11b60648201526084015b60405180910390fd5b506000908152601660205260409020546001600160a01b031690565b6000610b1b826111c0565b9050806001600160a01b0316836001600160a01b03161415610b895760405162461bcd60e51b815260206004820152602160248201527f4552433732313a20617070726f76616c20746f2063757272656e74206f776e656044820152603960f91b6064820152608401610aeb565b336001600160a01b0382161480610ba55750610ba58133611908565b610c175760405162461bcd60e51b815260206004820152603860248201527f4552433732313a20617070726f76652063616c6c6572206973206e6f74206f7760448201527f6e6572206e6f7220617070726f76656420666f7220616c6c00000000000000006064820152608401610aeb565b610c218383611b10565b505050565b60246020528160005260406000208181548110610c4257600080fd5b90600052602060002001600091509150505481565b610c616001611b37565b50610c6b81611be9565b50610c7581611d64565b50610c806000611b37565b610c8957600080fd5b50565b610c966001611b37565b50610c9f611eed565b50610caa6000611b37565b610cb357600080fd5b565b610cbf3382612033565b610cdb5760405162461bcd60e51b8152600401610aeb9061491c565b610c218383836120b6565b610cf082826120e7565b6000828152600260205260409020610c219082611ab9565b6000610d13836112a3565b8210610d755760405162461bcd60e51b815260206004820152602b60248201527f455243373231456e756d657261626c653a206f776e657220696e646578206f7560448201526a74206f6620626f756e647360a81b6064820152608401610aeb565b506001600160a01b03919091166000908152601a60209081526040808320938352929052205490565b610da6612121565b610cb361240d565b610dc6600080516020614bd183398151915233611546565b80610de45750610de4600080516020614b9183398151915233611546565b80610e025750610e02600080516020614b7183398151915233611546565b610e475760405162461bcd60e51b81526020600482015260166024820152752cb7ba93b932903737ba103a3432903130b4b634b33360511b6044820152606401610aeb565b601160009054906101000a90046001600160a01b03166001600160a01b031663329a8cfa6040518163ffffffff1660e01b8152600401600060405180830381600087803b158015610e9757600080fd5b505af1158015610eab573d6000803e3d6000fd5b50505050610cb361112a565b610ec1828261281a565b6000828152600260205260409020610c219082612894565b610ef1600080516020614b9183398151915233611546565b80610f0f5750610f0f600080516020614bd183398151915233611546565b610f535760405162461bcd60e51b8152602060048201526015602482015274596f75277265206e6f742074686520476176656c7360581b6044820152606401610aeb565b601f5460ff1615610f6357600080fd5b610cb36128a9565b610f753382612033565b610f915760405162461bcd60e51b8152600401610aeb9061491c565b610c2183838361293c565b610cb3612121565b6000610faf601c5490565b82106110125760405162461bcd60e51b815260206004820152602c60248201527f455243373231456e756d657261626c653a20676c6f62616c20696e646578206f60448201526b7574206f6620626f756e647360a01b6064820152608401610aeb565b601c828154811061102557611025614b0b565b90600052602060002001549050919050565b6000611051600080516020614bd183398151915233611546565b8061106f575061106f600080516020614b9183398151915233611546565b8061108d575061108d600080516020614b7183398151915233611546565b6110d25760405162461bcd60e51b81526020600482015260166024820152752cb7ba93b932903737ba103a3432903130b4b634b33360511b6044820152606401610aeb565b6110db82612957565b50600192915050565b6110ee6001611b37565b50610c758161296d565b6000818152602360205260408120546001600160a01b0384811691161415611122575060016109eb565b5060006109eb565b610cb3612bc8565b6021805461113f90614a5f565b80601f016020809104026020016040519081016040528092919081815260200182805461116b90614a5f565b80156111b85780601f1061118d576101008083540402835291602001916111b8565b820191906000526020600020905b81548152906001019060200180831161119b57829003601f168201915b505050505081565b6000818152601460205260408120546001600160a01b0316806109eb5760405162461bcd60e51b815260206004820152602960248201527f4552433732313a206f776e657220717565727920666f72206e6f6e657869737460448201526832b73a103a37b5b2b760b91b6064820152608401610aeb565b6001600160a01b03811660009081526024602090815260409182902080548351818402810184019094528084526060939283018282801561129757602002820191906000526020600020905b815481526020019060010190808311611283575b50505050509050919050565b60006001600160a01b03821661130e5760405162461bcd60e51b815260206004820152602a60248201527f4552433732313a2062616c616e636520717565727920666f7220746865207a65604482015269726f206164647265737360b01b6064820152608401610aeb565b506001600160a01b031660009081526015602052604090205490565b6000611344600080516020614b9183398151915233611546565b806113625750611362600080516020614b7183398151915233611546565b806113805750611380600080516020614bd183398151915233611546565b61138957600080fd5b601154600160b01b810460ff9081161515600160a81b90920416151514600114806113c757506113c7600080516020614bd183398151915233611546565b6114065760405162461bcd60e51b815260206004820152601060248201526f436f757274204d75737420416772656560801b6044820152606401610aeb565b60018215151415611419576110db612d0b565b506000919050565b600061143b600080516020614b7183398151915233611546565b806114595750611459600080516020614bd183398151915233611546565b61149b5760405162461bcd60e51b8152602060048201526013602482015272596f75277265206e6f7420746865204a75727960681b6044820152606401610aeb565b6114a58383612d4e565b9392505050565b6114c4600080516020614b9183398151915233611546565b806114e257506114e2600080516020614bd183398151915233611546565b6115265760405162461bcd60e51b8152602060048201526015602482015274596f75277265206e6f742074686520476176656c7360581b6044820152606401610aeb565b610cb3612db1565b60008281526002602052604081206114a59083612e2c565b60009182526001602090815260408084206001600160a01b0393909316845291905290205460ff1690565b606060138054610a0090614a5f565b600061159a600080516020614b9183398151915233611546565b806115b857506115b8600080516020614b7183398151915233611546565b806115d657506115d6600080516020614bd183398151915233611546565b6115df57600080fd5b601154600160b01b810460ff9081161515600160a81b909204161515146001148061161d575061161d600080516020614bd183398151915233611546565b61165c5760405162461bcd60e51b815260206004820152601060248201526f436f757274204d75737420416772656560801b6044820152606401610aeb565b81604514156114195761166d612d0b565b50611676612db1565b50601f805460ff19166001908117909155919050565b6116a4600080516020614bd183398151915233611546565b806116c257506116c2600080516020614b9183398151915233611546565b806116e057506116e0600080516020614b7183398151915233611546565b6116fc5760405162461bcd60e51b8152600401610aeb9061491c565b6117068282612e38565b5050565b6117143383612033565b6117305760405162461bcd60e51b8152600401610aeb90614969565b61173c84848484612efd565b50505050565b602360205260009081526040902080546001820180546001600160a01b03909216929161176e90614a5f565b80601f016020809104026020016040519081016040528092919081815260200182805461179a90614a5f565b80156117e75780601f106117bc576101008083540402835291602001916117e7565b820191906000526020600020905b8154815290600101906020018083116117ca57829003601f168201915b5050505050905082565b6117fb3382612033565b6118395760405162461bcd60e51b815260206004820152600f60248201526e4e696365205472792c204275636b6f60881b6044820152606401610aeb565b610c8981612f30565b60606109eb82612f39565b60008181526002602052604081206109eb9061309b565b610ec182826130a5565b6000611888600080516020614b7183398151915233611546565b806118a657506118a6600080516020614bd183398151915233611546565b6118e85760405162461bcd60e51b8152602060048201526013602482015272596f75277265206e6f7420746865204a75727960681b6044820152606401610aeb565b6118f38484846130df565b949350505050565b6020805461113f90614a5f565b600080611923600080516020614bd183398151915284611546565b806119415750611941600080516020614b9183398151915284611546565b806118f357506118f3600080516020614b7183398151915284611546565b610cb361314d565b6022805461113f90614a5f565b61197e6001611b37565b50611996600080516020614bd183398151915261296d565b506119ae600080516020614b9183398151915261296d565b506119c6600080516020614b7183398151915261296d565b506119de600080516020614bb183398151915261296d565b506119f6600080516020614bf183398151915261296d565b50611a01600061296d565b50611a0a612bc8565b610caa6000611b37565b6000818152602360205260409020600101805460609190611a3490614a5f565b80601f0160208091040260200160405190810160405280929190818152602001828054611a6090614a5f565b80156112975780601f10611a8257610100808354040283529160200191611297565b820191906000526020600020905b815481529060010190602001808311611a905750939695505050505050565b6117068282613284565b60006114a5836001600160a01b0384166132ef565b60006001600160e01b0319821663780e9d6360e01b14806109eb57506109eb82613336565b6000908152601460205260409020546001600160a01b0316151590565b611b28600080516020614bd183398151915233611546565b15611706576117068282613376565b6000805460ff168215158115151415611b925760405162461bcd60e51b815260206004820152601960248201527f416c72656164792053657420746f20746861742076616c7565000000000000006044820152606401610aeb565b6000805484151560ff19909116811790915560ff16151581151514156110db5760405162461bcd60e51b815260206004820152600c60248201526b29b0b33a32bc9022b93937b960a11b6044820152606401610aeb565b60405163ca15c87360e01b8152600481018290526000908190309063ca15c8739060240160206040518083038186803b158015611c2557600080fd5b505afa158015611c39573d6000803e3d6000fd5b505050506040513d601f19601f82011682018060405250810190611c5d9190614729565b905060005b81811015611d5a57604051632404341f60e21b815260048101859052602481018290526000903090639010d07c9060440160206040518083038186803b158015611cab57600080fd5b505afa158015611cbf573d6000803e3d6000fd5b505050506040513d601f19601f82011682018060405250810190611ce391906143e9565b60405163d547741f60e01b8152600481018790526001600160a01b0382166024820152909150309063d547741f90604401600060405180830381600087803b158015611d2e57600080fd5b505af1158015611d42573d6000803e3d6000fd5b50505050508080611d5290614a9a565b915050611c62565b5060019392505050565b60115460405163ca15c87360e01b81526004810183905260009182916001600160a01b039091169063ca15c8739060240160206040518083038186803b158015611dad57600080fd5b505afa158015611dc1573d6000803e3d6000fd5b505050506040513d601f19601f82011682018060405250810190611de59190614729565b905060005b81811015611d5a57601154604051632404341f60e21b815260048101869052602481018390526000916001600160a01b031690639010d07c9060440160206040518083038186803b158015611e3e57600080fd5b505afa158015611e52573d6000803e3d6000fd5b505050506040513d601f19601f82011682018060405250810190611e7691906143e9565b604051632f2ff15d60e01b8152600481018790526001600160a01b03821660248201529091503090632f2ff15d90604401600060405180830381600087803b158015611ec157600080fd5b505af1158015611ed5573d6000803e3d6000fd5b50505050508080611ee590614a9a565b915050611dea565b6000611f06600080516020614bd1833981519152611be9565b50611f1e600080516020614bd1833981519152611d64565b611f2757600080fd5b611f3e600080516020614b91833981519152611be9565b50611f56600080516020614b91833981519152611d64565b611f5f57600080fd5b611f76600080516020614b71833981519152611be9565b50611f8e600080516020614b71833981519152611d64565b611f9757600080fd5b611fae600080516020614bb1833981519152611be9565b50611fc6600080516020614bb1833981519152611d64565b611fcf57600080fd5b611fe6600080516020614bf1833981519152611be9565b50611ffe600080516020614bf1833981519152611d64565b61200757600080fd5b6120116000611be9565b5061201c6000611d64565b61202557600080fd5b61202d612bc8565b50600190565b600061203e82611af3565b61209f5760405162461bcd60e51b815260206004820152602c60248201527f4552433732313a206f70657261746f7220717565727920666f72206e6f6e657860448201526b34b9ba32b73a103a37b5b2b760a11b6064820152608401610aeb565b60006120aa836111c0565b90506118f38185611908565b6120c03382612033565b6120dc5760405162461bcd60e51b8152600401610aeb90614969565b610c218383836133e4565b600082815260016020819052604082200154905460ff161561210d57610c218383613284565b612117813361358f565b610c218383613284565b601160009054906101000a90046001600160a01b03166001600160a01b031663dadf56ac6040518163ffffffff1660e01b815260040160206040518083038186803b15801561216f57600080fd5b505afa158015612183573d6000803e3d6000fd5b505050506040513d601f19601f820116820180604052508101906121a791906143e9565b600c80546001600160a01b0319166001600160a01b039283161790556011546040805163024bebe960e01b81529051919092169163024bebe9916004808301926020929190829003018186803b15801561220057600080fd5b505afa158015612214573d6000803e3d6000fd5b505050506040513d601f19601f8201168201806040525081019061223891906143e9565b600d80546001600160a01b0319166001600160a01b0392831617905560115460408051635b5c251f60e01b815290519190921691635b5c251f916004808301926020929190829003018186803b15801561229157600080fd5b505afa1580156122a5573d6000803e3d6000fd5b505050506040513d601f19601f820116820180604052508101906122c991906143e9565b600e80546001600160a01b0319166001600160a01b0392831617905560115460408051637310bf1d60e11b81529051919092169163e6217e3a916004808301926020929190829003018186803b15801561232257600080fd5b505afa158015612336573d6000803e3d6000fd5b505050506040513d601f19601f8201168201806040525081019061235a91906143e9565b601080546001600160a01b0319166001600160a01b039283161790556011546040805163d88127a160e01b81529051919092169163d88127a1916004808301926020929190829003018186803b1580156123b357600080fd5b505afa1580156123c7573d6000803e3d6000fd5b505050506040513d601f19601f820116820180604052508101906123eb91906143e9565b600b80546001600160a01b0319166001600160a01b0392909216919091179055565b601160009054906101000a90046001600160a01b03166001600160a01b03166321d7f0086040518163ffffffff1660e01b815260040160206040518083038186803b15801561245b57600080fd5b505afa15801561246f573d6000803e3d6000fd5b505050506040513d601f19601f8201168201806040525081019061249391906143e9565b600480546001600160a01b0319166001600160a01b039283161781556011546040805163762ddb5960e01b81529051919093169263762ddb599281810192602092909190829003018186803b1580156124eb57600080fd5b505afa1580156124ff573d6000803e3d6000fd5b505050506040513d601f19601f8201168201806040525081019061252391906143e9565b600580546001600160a01b0319166001600160a01b039283161790556011546040805163bfb7dc9960e01b81529051919092169163bfb7dc99916004808301926020929190829003018186803b15801561257c57600080fd5b505afa158015612590573d6000803e3d6000fd5b505050506040513d601f19601f820116820180604052508101906125b491906143e9565b600680546001600160a01b0319166001600160a01b0392831617905560115460408051633e6111eb60e21b81529051919092169163f98447ac916004808301926020929190829003018186803b15801561260d57600080fd5b505afa158015612621573d6000803e3d6000fd5b505050506040513d601f19601f8201168201806040525081019061264591906143e9565b600780546001600160a01b0319166001600160a01b0392831617905560115460408051630fe1ba9f60e21b815290519190921691633f86ea7c916004808301926020929190829003018186803b15801561269e57600080fd5b505afa1580156126b2573d6000803e3d6000fd5b505050506040513d601f19601f820116820180604052508101906126d691906143e9565b600880546001600160a01b0319166001600160a01b0392831617905560115460408051632b90024160e11b8152905191909216916357200482916004808301926020929190829003018186803b15801561272f57600080fd5b505afa158015612743573d6000803e3d6000fd5b505050506040513d601f19601f8201168201806040525081019061276791906143e9565b600980546001600160a01b0319166001600160a01b0392831617905560115460408051636b58477560e01b815290519190921691636b584775916004808301926020929190829003018186803b1580156127c057600080fd5b505afa1580156127d4573d6000803e3d6000fd5b505050506040513d601f19601f820116820180604052508101906127f891906143e9565b600a80546001600160a01b0319166001600160a01b0392909216919091179055565b6001600160a01b038116331461288a5760405162461bcd60e51b815260206004820152602f60248201527f416363657373436f6e74726f6c3a2063616e206f6e6c792072656e6f756e636560448201526e103937b632b9903337b91039b2b63360891b6064820152608401610aeb565b61170682826135f3565b60006114a5836001600160a01b03841661365a565b60185460ff166128f25760405162461bcd60e51b815260206004820152601460248201527314185d5cd8589b194e881b9bdd081c185d5cd95960621b6044820152606401610aeb565b6018805460ff191690557f5db9ee0a495bf2e6ff9c91a7834c1ba4fdd244a5e8aa4e537bd38aeae4b073aa335b6040516001600160a01b03909116815260200160405180910390a1565b610c218383836040518060200160405280600081525061170a565b80516000906110db906022906020850190614267565b60115460405163ca15c87360e01b81526004810183905260009182916001600160a01b039091169063ca15c8739060240160206040518083038186803b1580156129b657600080fd5b505afa1580156129ca573d6000803e3d6000fd5b505050506040513d601f19601f820116820180604052508101906129ee9190614729565b60405163ca15c87360e01b815260048101859052909150600090309063ca15c8739060240160206040518083038186803b158015612a2b57600080fd5b505afa158015612a3f573d6000803e3d6000fd5b505050506040513d601f19601f82011682018060405250810190612a639190614729565b90506000612a718284614a05565b905060008111612ab65760405162461bcd60e51b815260206004820152601060248201526f4e6f7468696e6720746f2073796e632160801b6044820152606401610aeb565b60005b81811015612bbc57601154604051632404341f60e21b815260048101889052602481018390526000916001600160a01b031690639010d07c9060440160206040518083038186803b158015612b0d57600080fd5b505afa158015612b21573d6000803e3d6000fd5b505050506040513d601f19601f82011682018060405250810190612b4591906143e9565b604051632f2ff15d60e01b8152600481018990526001600160a01b03821660248201529091503090632f2ff15d90604401600060405180830381600087803b158015612b9057600080fd5b505af1158015612ba4573d6000803e3d6000fd5b50505050508080612bb490614a9a565b915050612ab9565b50600195945050505050565b601160009054906101000a90046001600160a01b03166001600160a01b031663ff7e88ec6040518163ffffffff1660e01b815260040160206040518083038186803b158015612c1657600080fd5b505afa158015612c2a573d6000803e3d6000fd5b505050506040513d601f19601f82011682018060405250810190612c4e919061463d565b601160156101000a81548160ff021916908315150217905550601160009054906101000a90046001600160a01b03166001600160a01b0316632fb565856040518163ffffffff1660e01b815260040160206040518083038186803b158015612cb557600080fd5b505afa158015612cc9573d6000803e3d6000fd5b505050506040513d601f19601f82011682018060405250810190612ced919061463d565b60118054911515600160b01b0260ff60b01b19909216919091179055565b6000805b601e54811015612d4257612d2281611af3565b15612d3057612d3081612f30565b80612d3a81614a9a565b915050612d0f565b50506000601e55600190565b60006001600160a01b0383163314801590612d7157506001600160a01b03831615155b612d7a57600080fd5b50601e54612d89338383613747565b612d9383826137b6565b6001601e6000828254612da691906149ba565b909155505092915050565b60185460ff1615612df75760405162461bcd60e51b815260206004820152601060248201526f14185d5cd8589b194e881c185d5cd95960821b6044820152606401610aeb565b6018805460ff191660011790557f62e78cea01bee320cd4e420270b5ea74000d11b0c9f74754ebdbfc544b05a25861291f3390565b60006114a583836137d0565b6001600160a01b038216331415612e915760405162461bcd60e51b815260206004820152601960248201527f4552433732313a20617070726f766520746f2063616c6c6572000000000000006044820152606401610aeb565b3360008181526017602090815260408083206001600160a01b03871680855290835292819020805460ff191686151590811790915590519081529192917f17307eab39ab6107e8899845ad3d59bd9653f200f220920489ca2b5937696c31910160405180910390a35050565b612f088484846133e4565b612f1484848484613856565b61173c5760405162461bcd60e51b8152600401610aeb906148ca565b610c8981613963565b6060612f4482611af3565b612faa5760405162461bcd60e51b815260206004820152603160248201527f45524337323155524953746f726167653a2055524920717565727920666f72206044820152703737b732bc34b9ba32b73a103a37b5b2b760791b6064820152608401610aeb565b60008281526019602052604081208054612fc390614a5f565b80601f0160208091040260200160405190810160405280929190818152602001828054612fef90614a5f565b801561303c5780601f106130115761010080835404028352916020019161303c565b820191906000526020600020905b81548152906001019060200180831161301f57829003601f168201915b50505050509050600061304d6139a3565b9050805160001415613060575092915050565b81511561309257808260405160200161307a92919061476e565b60405160208183030381529060405292505050919050565b6118f3846139b2565b60006109eb825490565b600082815260016020819052604082200154905460ff16156130cb57610c2183836135f3565b6130d5813361358f565b610c2183836135f3565b60006001600160a01b038416331480159061310257506001600160a01b03841615155b61310b57600080fd5b50601e5461311a338483613747565b61312484826137b6565b61312e8183613a7c565b6001601e600082825461314191906149ba565b90915550509392505050565b601160009054906101000a90046001600160a01b03166001600160a01b031663a44b93256040518163ffffffff1660e01b815260040160206040518083038186803b15801561319b57600080fd5b505afa1580156131af573d6000803e3d6000fd5b505050506040513d601f19601f820116820180604052508101906131d3919061463d565b6131dc57600080fd5b601160009054906101000a90046001600160a01b03166001600160a01b031663ac7cfac36040518163ffffffff1660e01b815260040160206040518083038186803b15801561322a57600080fd5b505afa15801561323e573d6000803e3d6000fd5b505050506040513d601f19601f8201168201806040525081019061326291906143e9565b600380546001600160a01b0319166001600160a01b0392909216919091179055565b61328e8282611546565b6117065760008281526001602081815260408084206001600160a01b0386168086529252808420805460ff19169093179092559051339285917f2f8788117e7eff1d82e926ec794901d17c78024a50270940304540a733656f0d9190a45050565b6000818152600183016020526040812054611122575081546001818101845560008481526020808220909301849055845484825282860190935260409020919091556109eb565b60006001600160e01b031982166380ac58cd60e01b148061336757506001600160e01b03198216635b5e139f60e01b145b806109eb57506109eb82613b07565b600081815260166020526040902080546001600160a01b0319166001600160a01b03841690811790915581906133ab826111c0565b6001600160a01b03167f8c5be1e5ebec7d5bd14f71427d1e84f3dd0314c0f7b2291e5b200ac8c7c3b92560405160405180910390a45050565b826001600160a01b03166133f7826111c0565b6001600160a01b03161461345f5760405162461bcd60e51b815260206004820152602960248201527f4552433732313a207472616e73666572206f6620746f6b656e2074686174206960448201526839903737ba1037bbb760b91b6064820152608401610aeb565b6001600160a01b0382166134c15760405162461bcd60e51b8152602060048201526024808201527f4552433732313a207472616e7366657220746f20746865207a65726f206164646044820152637265737360e01b6064820152608401610aeb565b6134cc838383613b2c565b6134d7600082611b10565b6001600160a01b0383166000908152601560205260408120805460019290613500908490614a05565b90915550506001600160a01b038216600090815260156020526040812080546001929061352e9084906149ba565b909155505060008181526014602052604080822080546001600160a01b0319166001600160a01b0386811691821790925591518493918716917fddf252ad1be2c89b69c2b068fc378daa952ba7f163c4a11628f55a4df523b3ef91a4505050565b6135998282611546565b611706576135b1816001600160a01b03166014613b37565b6135bc836020613b37565b6040516020016135cd92919061479d565b60408051601f198184030181529082905262461bcd60e51b8252610aeb916004016148b7565b6135fd8282611546565b156117065760008281526001602090815260408083206001600160a01b0385168085529252808320805460ff1916905551339285917ff6391f5c32d9c69d2a47ea670b442974b53935d1edc7fd64eb21e047a839171b9190a45050565b6000818152600183016020526040812054801561373d57600061367e600183614a05565b855490915060009061369290600190614a05565b905060008660000182815481106136ab576136ab614b0b565b90600052602060002001549050808760000184815481106136ce576136ce614b0b565b60009182526020808320909101929092558281526001890190915260409020849055865487908061370157613701614af5565b600190038181906000526020600020016000905590558660010160008781526020019081526020016000206000905560019450505050506109eb565b60009150506109eb565b600081815260236020908152604090912080546001600160a01b0319166001600160a01b038616178155835161378592600190920191850190614267565b506001600160a01b039092166000908152602460209081526040822080546001810182559083529120019190915550565b611706828260405180602001604052806000815250613cd3565b8154600090821061382e5760405162461bcd60e51b815260206004820152602260248201527f456e756d657261626c655365743a20696e646578206f7574206f6620626f756e604482015261647360f01b6064820152608401610aeb565b82600001828154811061384357613843614b0b565b9060005260206000200154905092915050565b60006001600160a01b0384163b1561395857604051630a85bd0160e11b81526001600160a01b0385169063150b7a029061389a903390899088908890600401614812565b602060405180830381600087803b1580156138b457600080fd5b505af19250505080156138e4575060408051601f3d908101601f191682019092526138e1918101906146d7565b60015b61393e573d808015613912576040519150601f19603f3d011682016040523d82523d6000602084013e613917565b606091505b5080516139365760405162461bcd60e51b8152600401610aeb906148ca565b805181602001fd5b6001600160e01b031916630a85bd0160e11b1490506118f3565b506001949350505050565b61396c81613d06565b6000818152601960205260409020805461398590614a5f565b159050610c89576000818152601960205260408120610c89916142eb565b606060228054610a0090614a5f565b60606139bd82611af3565b613a215760405162461bcd60e51b815260206004820152602f60248201527f4552433732314d657461646174613a2055524920717565727920666f72206e6f60448201526e3732bc34b9ba32b73a103a37b5b2b760891b6064820152608401610aeb565b6000613a2b6139a3565b90506000815111613a4b57604051806020016040528060008152506114a5565b80613a5584613dad565b604051602001613a6692919061476e565b6040516020818303038152906040529392505050565b613a8582611af3565b613ae85760405162461bcd60e51b815260206004820152602e60248201527f45524337323155524953746f726167653a2055524920736574206f66206e6f6e60448201526d32bc34b9ba32b73a103a37b5b2b760911b6064820152608401610aeb565b60008281526019602090815260409091208251610c2192840190614267565b60006001600160e01b03198216635a05180f60e01b14806109eb57506109eb82613eab565b610c21838383613ee0565b60606000613b468360026149e6565b613b519060026149ba565b67ffffffffffffffff811115613b6957613b69614b21565b6040519080825280601f01601f191660200182016040528015613b93576020820181803683370190505b509050600360fc1b81600081518110613bae57613bae614b0b565b60200101906001600160f81b031916908160001a905350600f60fb1b81600181518110613bdd57613bdd614b0b565b60200101906001600160f81b031916908160001a9053506000613c018460026149e6565b613c0c9060016149ba565b90505b6001811115613c84576f181899199a1a9b1b9c1cb0b131b232b360811b85600f1660108110613c4057613c40614b0b565b1a60f81b828281518110613c5657613c56614b0b565b60200101906001600160f81b031916908160001a90535060049490941c93613c7d81614a48565b9050613c0f565b5083156114a55760405162461bcd60e51b815260206004820181905260248201527f537472696e67733a20686578206c656e67746820696e73756666696369656e746044820152606401610aeb565b613cdd8383613f98565b613cea6000848484613856565b610c215760405162461bcd60e51b8152600401610aeb906148ca565b6000613d11826111c0565b9050613d1f81600084613b2c565b613d2a600083611b10565b6001600160a01b0381166000908152601560205260408120805460019290613d53908490614a05565b909155505060008281526014602052604080822080546001600160a01b0319169055518391906001600160a01b038416907fddf252ad1be2c89b69c2b068fc378daa952ba7f163c4a11628f55a4df523b3ef908390a45050565b606081613dd15750506040805180820190915260018152600360fc1b602082015290565b8160005b8115613dfb5780613de581614a9a565b9150613df49050600a836149d2565b9150613dd5565b60008167ffffffffffffffff811115613e1657613e16614b21565b6040519080825280601f01601f191660200182016040528015613e40576020820181803683370190505b5090505b84156118f357613e55600183614a05565b9150613e62600a86614ab5565b613e6d9060306149ba565b60f81b818381518110613e8257613e82614b0b565b60200101906001600160f81b031916908160001a905350613ea4600a866149d2565b9450613e44565b60006001600160e01b03198216637965db0b60e01b14806109eb57506301ffc9a760e01b6001600160e01b03198316146109eb565b6001600160a01b038316613f3b57613f3681601c80546000838152601d60205260408120829055600182018355919091527f0e4562a10381dec21b205ed72637e6b1b523bdd0e4d4d50af5cd23dd4500a2110155565b613f5e565b816001600160a01b0316836001600160a01b031614613f5e57613f5e83826140d7565b6001600160a01b038216613f7557610c2181614174565b826001600160a01b0316826001600160a01b031614610c2157610c218282614223565b6001600160a01b038216613fee5760405162461bcd60e51b815260206004820181905260248201527f4552433732313a206d696e7420746f20746865207a65726f20616464726573736044820152606401610aeb565b613ff781611af3565b156140445760405162461bcd60e51b815260206004820152601c60248201527f4552433732313a20746f6b656e20616c7265616479206d696e746564000000006044820152606401610aeb565b61405060008383613b2c565b6001600160a01b03821660009081526015602052604081208054600192906140799084906149ba565b909155505060008181526014602052604080822080546001600160a01b0319166001600160a01b03861690811790915590518392907fddf252ad1be2c89b69c2b068fc378daa952ba7f163c4a11628f55a4df523b3ef908290a45050565b600060016140e4846112a3565b6140ee9190614a05565b6000838152601b6020526040902054909150808214614141576001600160a01b0384166000908152601a602090815260408083208584528252808320548484528184208190558352601b90915290208190555b506000918252601b602090815260408084208490556001600160a01b039094168352601a81528383209183525290812055565b601c5460009061418690600190614a05565b6000838152601d6020526040812054601c80549394509092849081106141ae576141ae614b0b565b9060005260206000200154905080601c83815481106141cf576141cf614b0b565b6000918252602080832090910192909255828152601d9091526040808220849055858252812055601c80548061420757614207614af5565b6001900381819060005260206000200160009055905550505050565b600061422e836112a3565b6001600160a01b039093166000908152601a602090815260408083208684528252808320859055938252601b9052919091209190915550565b82805461427390614a5f565b90600052602060002090601f01602090048101928261429557600085556142db565b82601f106142ae57805160ff19168380011785556142db565b828001600101855582156142db579182015b828111156142db5782518255916020019190600101906142c0565b506142e7929150614321565b5090565b5080546142f790614a5f565b6000825580601f10614307575050565b601f016020900490600052602060002090810190610c8991905b5b808211156142e75760008155600101614322565b600067ffffffffffffffff8084111561435157614351614b21565b604051601f8501601f19908116603f0116810190828211818310171561437957614379614b21565b8160405280935085815286868601111561439257600080fd5b858560208301376000602087830101525050509392505050565b600082601f8301126143bd57600080fd5b6114a583833560208501614336565b6000602082840312156143de57600080fd5b81356114a581614b37565b6000602082840312156143fb57600080fd5b81516114a581614b37565b6000806040838503121561441957600080fd5b823561442481614b37565b9150602083013561443481614b37565b809150509250929050565b60008060006060848603121561445457600080fd5b833561445f81614b37565b9250602084013561446f81614b37565b929592945050506040919091013590565b6000806000806080858703121561449657600080fd5b84356144a181614b37565b935060208501356144b181614b37565b925060408501359150606085013567ffffffffffffffff8111156144d457600080fd5b8501601f810187136144e557600080fd5b6144f487823560208401614336565b91505092959194509250565b6000806040838503121561451357600080fd5b823561451e81614b37565b9150602083013561443481614b4c565b6000806040838503121561454157600080fd5b823561454c81614b37565b9150602083013567ffffffffffffffff81111561456857600080fd5b614574858286016143ac565b9150509250929050565b60008060006060848603121561459357600080fd5b833561459e81614b37565b9250602084013567ffffffffffffffff808211156145bb57600080fd5b6145c7878388016143ac565b935060408601359150808211156145dd57600080fd5b506145ea868287016143ac565b9150509250925092565b6000806040838503121561460757600080fd5b823561461281614b37565b946020939093013593505050565b60006020828403121561463257600080fd5b81356114a581614b4c565b60006020828403121561464f57600080fd5b81516114a581614b4c565b60006020828403121561466c57600080fd5b5035919050565b6000806040838503121561468657600080fd5b82359150602083013561443481614b37565b600080604083850312156146ab57600080fd5b50508035926020909101359150565b6000602082840312156146cc57600080fd5b81356114a581614b5a565b6000602082840312156146e957600080fd5b81516114a581614b5a565b60006020828403121561470657600080fd5b813567ffffffffffffffff81111561471d57600080fd5b6118f3848285016143ac565b60006020828403121561473b57600080fd5b5051919050565b6000815180845261475a816020860160208601614a1c565b601f01601f19169290920160200192915050565b60008351614780818460208801614a1c565b835190830190614794818360208801614a1c565b01949350505050565b7f416363657373436f6e74726f6c3a206163636f756e74200000000000000000008152600083516147d5816017850160208801614a1c565b7001034b99036b4b9b9b4b733903937b6329607d1b6017918401918201528351614806816028840160208801614a1c565b01602801949350505050565b6001600160a01b038581168252841660208201526040810183905260806060820181905260009061484590830184614742565b9695505050505050565b6001600160a01b03831681526040602082018190526000906118f390830184614742565b6020808252825182820181905260009190848201906040850190845b818110156148ab5783518352928401929184019160010161488f565b50909695505050505050565b6020815260006114a56020830184614742565b60208082526032908201527f4552433732313a207472616e7366657220746f206e6f6e20455243373231526560408201527131b2b4bb32b91034b6b83632b6b2b73a32b960711b606082015260800190565b6020808252602d908201527f596f7520646f206e6f742068617665207065726d697373696f6e20746f206d6f60408201526c7665207468697320626164676560981b606082015260800190565b60208082526031908201527f4552433732313a207472616e736665722063616c6c6572206973206e6f74206f6040820152701ddb995c881b9bdc88185c1c1c9bdd9959607a1b606082015260800190565b600082198211156149cd576149cd614ac9565b500190565b6000826149e1576149e1614adf565b500490565b6000816000190483118215151615614a0057614a00614ac9565b500290565b600082821015614a1757614a17614ac9565b500390565b60005b83811015614a37578181015183820152602001614a1f565b8381111561173c5750506000910152565b600081614a5757614a57614ac9565b506000190190565b600181811c90821680614a7357607f821691505b60208210811415614a9457634e487b7160e01b600052602260045260246000fd5b50919050565b6000600019821415614aae57614aae614ac9565b5060010190565b600082614ac457614ac4614adf565b500690565b634e487b7160e01b600052601160045260246000fd5b634e487b7160e01b600052601260045260246000fd5b634e487b7160e01b600052603160045260246000fd5b634e487b7160e01b600052603260045260246000fd5b634e487b7160e01b600052604160045260246000fd5b6001600160a01b0381168114610c8957600080fd5b8015158114610c8957600080fd5b6001600160e01b031981168114610c8957600080fdfefa8e4989e1d689f7bc5c4b25b87efb51fecdecb19ba62847e29c759e12a89acd048bc71fa1cb2c119c339cf9cf00a97996a19a9d991ce5fe049f2fa5459e7990f0f4b159a6e2a4815eb3ca3df080bfa70c9270662c59bcaa4479a456220183e60538d24a8b7882d7b2e36af243d4af61c23e86e3daa6cb8c887b53220b2f57207c9d7f6f02908185bffb3f7fc9afb29fd7bf93675af8fd4b655ee05c2cee1e0ea26469706673582212205cd5efb1d3a494ae238a62d9c79814ed9b52bbfebd190f26850b5b867886b3b764736f6c63430008070033",
  "immutableReferences": {},
  "source": "pragma solidity ^0.8.0;\n\nimport \"../src/ERC721/GenericBadge.sol\";\n\n\ncontract BlueBadge is GenericBadge {\n\n\n     constructor(string memory badgeName, string memory badgeSymbol, address _AddressManagerAddress)\n        GenericBadge(badgeName, badgeSymbol, _AddressManagerAddress)\n    {\n    }      \n\n}",
  "sourcePath": "/home/n/Desktop/PinkSlips_FrontEnd_REFORMAT/contracts/badges/BlueBadge.sol",
  "compiler": {
    "name": "solc",
    "version": "0.8.7+commit.e28d00a7.Emscripten.clang"
  },
  "schemaVersion": "3.4.1",
  "updatedAt": "2021-08-15T22:03:16.613Z",
  "devdoc": {
    "kind": "dev",
    "methods": {
      "approve(address,uint256)": {
        "details": "See {IERC721-approve}."
      },
      "balanceOf(address)": {
        "details": "See {IERC721-balanceOf}."
      },
      "getApproved(uint256)": {
        "details": "See {IERC721-getApproved}."
      },
      "getRoleAdmin(bytes32)": {
        "details": "Returns the admin role that controls `role`. See {grantRole} and {revokeRole}. To change a role's admin, use {_setRoleAdmin}."
      },
      "getRoleMember(bytes32,uint256)": {
        "details": "Returns one of the accounts that have `role`. `index` must be a value between 0 and {getRoleMemberCount}, non-inclusive. Role bearers are not sorted in any particular way, and their ordering may change at any point. WARNING: When using {getRoleMember} and {getRoleMemberCount}, make sure you perform all queries on the same block. See the following https://forum.openzeppelin.com/t/iterating-over-elements-on-enumerableset-in-openzeppelin-contracts/2296[forum post] for more information."
      },
      "getRoleMemberCount(bytes32)": {
        "details": "Returns the number of accounts that have `role`. Can be used together with {getRoleMember} to enumerate all bearers of a role."
      },
      "grantRole(bytes32,address)": {
        "details": "Overload {grantRole} to track enumerable memberships"
      },
      "hasRole(bytes32,address)": {
        "details": "Returns `true` if `account` has been granted `role`."
      },
      "isApprovedForAll(address,address)": {
        "details": "See {IERC721-isApprovedForAll}."
      },
      "issueBadge(address,string)": {
        "details": "//// Issuance Desk                                                                            ////"
      },
      "name()": {
        "details": "See {IERC721Metadata-name}."
      },
      "ownerOf(uint256)": {
        "details": "See {IERC721-ownerOf}."
      },
      "pause()": {
        "details": "//// Maintanence\\\\\\\\\\\\\\\\\\\\\\\\\\\\\\\\\\\\\\\\\\\\\\\\\\\\\\                                                   ////"
      },
      "paused()": {
        "details": "Returns true if the contract is paused, and false otherwise."
      },
      "renounceRole(bytes32,address)": {
        "details": "Overload {renounceRole} to track enumerable memberships"
      },
      "revokeRole(bytes32,address)": {
        "details": "Overload {revokeRole} to track enumerable memberships"
      },
      "safeTransferFrom(address,address,uint256)": {
        "details": "See {IERC721-safeTransferFrom}."
      },
      "safeTransferFrom(address,address,uint256,bytes)": {
        "details": "See {IERC721-safeTransferFrom}."
      },
      "setApprovalForAll(address,bool)": {
        "details": "See {IERC721-setApprovalForAll}."
      },
      "symbol()": {
        "details": "See {IERC721Metadata-symbol}."
      },
      "tokenByIndex(uint256)": {
        "details": "See {IERC721Enumerable-tokenByIndex}."
      },
      "tokenOfOwnerByIndex(address,uint256)": {
        "details": "See {IERC721Enumerable-tokenOfOwnerByIndex}."
      },
      "totalSupply()": {
        "details": "See {IERC721Enumerable-totalSupply}."
      },
      "transferFrom(address,address,uint256)": {
        "details": "See {IERC721-transferFrom}."
      }
    },
    "version": 1
  },
  "userdoc": {
    "kind": "user",
    "methods": {},
    "version": 1
  }
}