{
  "contractName": "BlueBadge",
  "abi": [
    {
      "inputs": [
        {
          "internalType": "string",
          "name": "badgeName",
          "type": "string"
        },
        {
          "internalType": "string",
          "name": "badgeSymbol",
          "type": "string"
        },
        {
          "internalType": "bool",
          "name": "doPayReciever",
          "type": "bool"
        },
        {
          "internalType": "address",
          "name": "_AddressManagerAddress",
          "type": "address"
        }
      ],
      "stateMutability": "nonpayable",
      "type": "constructor"
    },
    {
      "anonymous": false,
      "inputs": [
        {
          "indexed": true,
          "internalType": "address",
          "name": "owner",
          "type": "address"
        },
        {
          "indexed": true,
          "internalType": "address",
          "name": "approved",
          "type": "address"
        },
        {
          "indexed": true,
          "internalType": "uint256",
          "name": "tokenId",
          "type": "uint256"
        }
      ],
      "name": "Approval",
      "type": "event"
    },
    {
      "anonymous": false,
      "inputs": [
        {
          "indexed": true,
          "internalType": "address",
          "name": "owner",
          "type": "address"
        },
        {
          "indexed": true,
          "internalType": "address",
          "name": "operator",
          "type": "address"
        },
        {
          "indexed": false,
          "internalType": "bool",
          "name": "approved",
          "type": "bool"
        }
      ],
      "name": "ApprovalForAll",
      "type": "event"
    },
    {
      "anonymous": false,
      "inputs": [
        {
          "indexed": false,
          "internalType": "address",
          "name": "account",
          "type": "address"
        }
      ],
      "name": "Paused",
      "type": "event"
    },
    {
      "anonymous": false,
      "inputs": [
        {
          "indexed": true,
          "internalType": "bytes32",
          "name": "role",
          "type": "bytes32"
        },
        {
          "indexed": true,
          "internalType": "bytes32",
          "name": "previousAdminRole",
          "type": "bytes32"
        },
        {
          "indexed": true,
          "internalType": "bytes32",
          "name": "newAdminRole",
          "type": "bytes32"
        }
      ],
      "name": "RoleAdminChanged",
      "type": "event"
    },
    {
      "anonymous": false,
      "inputs": [
        {
          "indexed": true,
          "internalType": "bytes32",
          "name": "role",
          "type": "bytes32"
        },
        {
          "indexed": true,
          "internalType": "address",
          "name": "account",
          "type": "address"
        },
        {
          "indexed": true,
          "internalType": "address",
          "name": "sender",
          "type": "address"
        }
      ],
      "name": "RoleGranted",
      "type": "event"
    },
    {
      "anonymous": false,
      "inputs": [
        {
          "indexed": true,
          "internalType": "bytes32",
          "name": "role",
          "type": "bytes32"
        },
        {
          "indexed": true,
          "internalType": "address",
          "name": "account",
          "type": "address"
        },
        {
          "indexed": true,
          "internalType": "address",
          "name": "sender",
          "type": "address"
        }
      ],
      "name": "RoleRevoked",
      "type": "event"
    },
    {
      "anonymous": false,
      "inputs": [
        {
          "indexed": true,
          "internalType": "address",
          "name": "from",
          "type": "address"
        },
        {
          "indexed": true,
          "internalType": "address",
          "name": "to",
          "type": "address"
        },
        {
          "indexed": true,
          "internalType": "uint256",
          "name": "tokenId",
          "type": "uint256"
        }
      ],
      "name": "Transfer",
      "type": "event"
    },
    {
      "anonymous": false,
      "inputs": [
        {
          "indexed": false,
          "internalType": "address",
          "name": "account",
          "type": "address"
        }
      ],
      "name": "Unpaused",
      "type": "event"
    },
    {
      "inputs": [],
      "name": "AddressManagerAddress",
      "outputs": [
        {
          "internalType": "address",
          "name": "",
          "type": "address"
        }
      ],
      "stateMutability": "view",
      "type": "function"
    },
    {
      "inputs": [
        {
          "internalType": "uint256",
          "name": "",
          "type": "uint256"
        }
      ],
      "name": "BadgeInfo",
      "outputs": [
        {
          "internalType": "address",
          "name": "gifter",
          "type": "address"
        },
        {
          "internalType": "string",
          "name": "reason",
          "type": "string"
        }
      ],
      "stateMutability": "view",
      "type": "function"
    },
    {
      "inputs": [
        {
          "internalType": "address",
          "name": "",
          "type": "address"
        },
        {
          "internalType": "uint256",
          "name": "",
          "type": "uint256"
        }
      ],
      "name": "BadgesSent",
      "outputs": [
        {
          "internalType": "uint256",
          "name": "",
          "type": "uint256"
        }
      ],
      "stateMutability": "view",
      "type": "function"
    },
    {
      "inputs": [],
      "name": "ChadBadgeAddress",
      "outputs": [
        {
          "internalType": "address",
          "name": "",
          "type": "address"
        }
      ],
      "stateMutability": "view",
      "type": "function"
    },
    {
      "inputs": [],
      "name": "DEFAULT_ADMIN_ROLE",
      "outputs": [
        {
          "internalType": "bytes32",
          "name": "",
          "type": "bytes32"
        }
      ],
      "stateMutability": "view",
      "type": "function"
    },
    {
      "inputs": [],
      "name": "GAVELS_BAILIFF",
      "outputs": [
        {
          "internalType": "bytes32",
          "name": "",
          "type": "bytes32"
        }
      ],
      "stateMutability": "view",
      "type": "function"
    },
    {
      "inputs": [],
      "name": "GavelDAOAddress",
      "outputs": [
        {
          "internalType": "address",
          "name": "",
          "type": "address"
        }
      ],
      "stateMutability": "view",
      "type": "function"
    },
    {
      "inputs": [],
      "name": "GavelDAOAgent",
      "outputs": [
        {
          "internalType": "address",
          "name": "",
          "type": "address"
        }
      ],
      "stateMutability": "view",
      "type": "function"
    },
    {
      "inputs": [],
      "name": "GavelTokenAddress",
      "outputs": [
        {
          "internalType": "address",
          "name": "",
          "type": "address"
        }
      ],
      "stateMutability": "view",
      "type": "function"
    },
    {
      "inputs": [],
      "name": "GavelVote",
      "outputs": [
        {
          "internalType": "bool",
          "name": "",
          "type": "bool"
        }
      ],
      "stateMutability": "view",
      "type": "function"
    },
    {
      "inputs": [],
      "name": "GoldStarAddress",
      "outputs": [
        {
          "internalType": "address",
          "name": "",
          "type": "address"
        }
      ],
      "stateMutability": "view",
      "type": "function"
    },
    {
      "inputs": [],
      "name": "JERK_ROLE",
      "outputs": [
        {
          "internalType": "bytes32",
          "name": "",
          "type": "bytes32"
        }
      ],
      "stateMutability": "view",
      "type": "function"
    },
    {
      "inputs": [],
      "name": "JURY_BAILIFF",
      "outputs": [
        {
          "internalType": "bytes32",
          "name": "",
          "type": "bytes32"
        }
      ],
      "stateMutability": "view",
      "type": "function"
    },
    {
      "inputs": [],
      "name": "JuryDAOAddress",
      "outputs": [
        {
          "internalType": "address",
          "name": "",
          "type": "address"
        }
      ],
      "stateMutability": "view",
      "type": "function"
    },
    {
      "inputs": [],
      "name": "JuryDAOAgent",
      "outputs": [
        {
          "internalType": "address",
          "name": "",
          "type": "address"
        }
      ],
      "stateMutability": "view",
      "type": "function"
    },
    {
      "inputs": [],
      "name": "JuryPoolAddress",
      "outputs": [
        {
          "internalType": "address",
          "name": "",
          "type": "address"
        }
      ],
      "stateMutability": "view",
      "type": "function"
    },
    {
      "inputs": [],
      "name": "JuryVote",
      "outputs": [
        {
          "internalType": "bool",
          "name": "",
          "type": "bool"
        }
      ],
      "stateMutability": "view",
      "type": "function"
    },
    {
      "inputs": [],
      "name": "MINI_BAILIFF_ROLE",
      "outputs": [
        {
          "internalType": "bytes32",
          "name": "",
          "type": "bytes32"
        }
      ],
      "stateMutability": "view",
      "type": "function"
    },
    {
      "inputs": [],
      "name": "MiniBailiff",
      "outputs": [
        {
          "internalType": "address",
          "name": "",
          "type": "address"
        }
      ],
      "stateMutability": "view",
      "type": "function"
    },
    {
      "inputs": [],
      "name": "PinkSlipAddress",
      "outputs": [
        {
          "internalType": "address",
          "name": "",
          "type": "address"
        }
      ],
      "stateMutability": "view",
      "type": "function"
    },
    {
      "inputs": [],
      "name": "RedPenTokenAddress",
      "outputs": [
        {
          "internalType": "address",
          "name": "",
          "type": "address"
        }
      ],
      "stateMutability": "view",
      "type": "function"
    },
    {
      "inputs": [],
      "name": "THE_COURT_ROLE",
      "outputs": [
        {
          "internalType": "bytes32",
          "name": "",
          "type": "bytes32"
        }
      ],
      "stateMutability": "view",
      "type": "function"
    },
    {
      "inputs": [],
      "name": "TheCourtDAOAddress",
      "outputs": [
        {
          "internalType": "address",
          "name": "",
          "type": "address"
        }
      ],
      "stateMutability": "view",
      "type": "function"
    },
    {
      "inputs": [],
      "name": "TheCourtDAOAgent",
      "outputs": [
        {
          "internalType": "address",
          "name": "",
          "type": "address"
        }
      ],
      "stateMutability": "view",
      "type": "function"
    },
    {
      "inputs": [],
      "name": "TreasuryAddress",
      "outputs": [
        {
          "internalType": "address",
          "name": "",
          "type": "address"
        }
      ],
      "stateMutability": "view",
      "type": "function"
    },
    {
      "inputs": [],
      "name": "addressManager",
      "outputs": [
        {
          "internalType": "contract AddressManager",
          "name": "",
          "type": "address"
        }
      ],
      "stateMutability": "view",
      "type": "function"
    },
    {
      "inputs": [
        {
          "internalType": "address",
          "name": "to",
          "type": "address"
        },
        {
          "internalType": "uint256",
          "name": "tokenId",
          "type": "uint256"
        }
      ],
      "name": "approve",
      "outputs": [],
      "stateMutability": "nonpayable",
      "type": "function"
    },
    {
      "inputs": [],
      "name": "badgeColor",
      "outputs": [
        {
          "internalType": "string",
          "name": "",
          "type": "string"
        }
      ],
      "stateMutability": "view",
      "type": "function"
    },
    {
      "inputs": [],
      "name": "badgeName",
      "outputs": [
        {
          "internalType": "string",
          "name": "",
          "type": "string"
        }
      ],
      "stateMutability": "view",
      "type": "function"
    },
    {
      "inputs": [
        {
          "internalType": "address",
          "name": "owner",
          "type": "address"
        }
      ],
      "name": "balanceOf",
      "outputs": [
        {
          "internalType": "uint256",
          "name": "",
          "type": "uint256"
        }
      ],
      "stateMutability": "view",
      "type": "function"
    },
    {
      "inputs": [
        {
          "internalType": "uint256",
          "name": "valueMustBe69",
          "type": "uint256"
        }
      ],
      "name": "destroyAndLockContract",
      "outputs": [
        {
          "internalType": "bool",
          "name": "",
          "type": "bool"
        }
      ],
      "stateMutability": "nonpayable",
      "type": "function"
    },
    {
      "inputs": [
        {
          "internalType": "uint256",
          "name": "tokenId",
          "type": "uint256"
        }
      ],
      "name": "getApproved",
      "outputs": [
        {
          "internalType": "address",
          "name": "",
          "type": "address"
        }
      ],
      "stateMutability": "view",
      "type": "function"
    },
    {
      "inputs": [
        {
          "internalType": "uint256",
          "name": "_tokenId",
          "type": "uint256"
        }
      ],
      "name": "getBadgeReason",
      "outputs": [
        {
          "internalType": "string",
          "name": "_theReason",
          "type": "string"
        }
      ],
      "stateMutability": "view",
      "type": "function"
    },
    {
      "inputs": [
        {
          "internalType": "uint256",
          "name": "_tokenId",
          "type": "uint256"
        }
      ],
      "name": "getBadgeSender",
      "outputs": [
        {
          "internalType": "address",
          "name": "_theGifter",
          "type": "address"
        }
      ],
      "stateMutability": "view",
      "type": "function"
    },
    {
      "inputs": [
        {
          "internalType": "address",
          "name": "_gifter",
          "type": "address"
        }
      ],
      "name": "getBadgesSent",
      "outputs": [
        {
          "internalType": "uint256[]",
          "name": "_BadgesSent",
          "type": "uint256[]"
        }
      ],
      "stateMutability": "view",
      "type": "function"
    },
    {
      "inputs": [
        {
          "internalType": "bytes32",
          "name": "role",
          "type": "bytes32"
        }
      ],
      "name": "getRoleAdmin",
      "outputs": [
        {
          "internalType": "bytes32",
          "name": "",
          "type": "bytes32"
        }
      ],
      "stateMutability": "view",
      "type": "function"
    },
    {
      "inputs": [
        {
          "internalType": "bytes32",
          "name": "role",
          "type": "bytes32"
        },
        {
          "internalType": "uint256",
          "name": "index",
          "type": "uint256"
        }
      ],
      "name": "getRoleMember",
      "outputs": [
        {
          "internalType": "address",
          "name": "",
          "type": "address"
        }
      ],
      "stateMutability": "view",
      "type": "function"
    },
    {
      "inputs": [
        {
          "internalType": "bytes32",
          "name": "role",
          "type": "bytes32"
        }
      ],
      "name": "getRoleMemberCount",
      "outputs": [
        {
          "internalType": "uint256",
          "name": "",
          "type": "uint256"
        }
      ],
      "stateMutability": "view",
      "type": "function"
    },
    {
      "inputs": [
        {
          "internalType": "bytes32",
          "name": "role",
          "type": "bytes32"
        },
        {
          "internalType": "address",
          "name": "account",
          "type": "address"
        }
      ],
      "name": "grantRole",
      "outputs": [],
      "stateMutability": "nonpayable",
      "type": "function"
    },
    {
      "inputs": [
        {
          "internalType": "bytes32",
          "name": "role",
          "type": "bytes32"
        },
        {
          "internalType": "address",
          "name": "account",
          "type": "address"
        }
      ],
      "name": "hasRole",
      "outputs": [
        {
          "internalType": "bool",
          "name": "",
          "type": "bool"
        }
      ],
      "stateMutability": "view",
      "type": "function"
    },
    {
      "inputs": [
        {
          "internalType": "address",
          "name": "owner",
          "type": "address"
        },
        {
          "internalType": "address",
          "name": "operator",
          "type": "address"
        }
      ],
      "name": "isApprovedForAll",
      "outputs": [
        {
          "internalType": "bool",
          "name": "",
          "type": "bool"
        }
      ],
      "stateMutability": "view",
      "type": "function"
    },
    {
      "inputs": [
        {
          "internalType": "address",
          "name": "addressToCheck",
          "type": "address"
        },
        {
          "internalType": "uint256",
          "name": "badgeTokenID",
          "type": "uint256"
        }
      ],
      "name": "isBadgeSender",
      "outputs": [
        {
          "internalType": "bool",
          "name": "",
          "type": "bool"
        }
      ],
      "stateMutability": "nonpayable",
      "type": "function"
    },
    {
      "inputs": [],
      "name": "isForeverLocked",
      "outputs": [
        {
          "internalType": "bool",
          "name": "",
          "type": "bool"
        }
      ],
      "stateMutability": "view",
      "type": "function"
    },
    {
      "inputs": [
        {
          "internalType": "address",
          "name": "receivingAddress",
          "type": "address"
        },
        {
          "internalType": "string",
          "name": "_reason",
          "type": "string"
        }
      ],
      "name": "issueBadge",
      "outputs": [
        {
          "internalType": "uint256",
          "name": "newId",
          "type": "uint256"
        }
      ],
      "stateMutability": "nonpayable",
      "type": "function"
    },
    {
      "inputs": [],
      "name": "jerkSanctions",
      "outputs": [
        {
          "internalType": "bool",
          "name": "",
          "type": "bool"
        }
      ],
      "stateMutability": "view",
      "type": "function"
    },
    {
      "inputs": [],
      "name": "mintingCost",
      "outputs": [
        {
          "internalType": "uint256",
          "name": "",
          "type": "uint256"
        }
      ],
      "stateMutability": "view",
      "type": "function"
    },
    {
      "inputs": [],
      "name": "mintingCostFloor",
      "outputs": [
        {
          "internalType": "uint256",
          "name": "",
          "type": "uint256"
        }
      ],
      "stateMutability": "view",
      "type": "function"
    },
    {
      "inputs": [],
      "name": "name",
      "outputs": [
        {
          "internalType": "string",
          "name": "",
          "type": "string"
        }
      ],
      "stateMutability": "view",
      "type": "function"
    },
    {
      "inputs": [
        {
          "internalType": "uint256",
          "name": "tokenId",
          "type": "uint256"
        }
      ],
      "name": "ownerOf",
      "outputs": [
        {
          "internalType": "address",
          "name": "",
          "type": "address"
        }
      ],
      "stateMutability": "view",
      "type": "function"
    },
    {
      "inputs": [],
      "name": "pause",
      "outputs": [],
      "stateMutability": "nonpayable",
      "type": "function"
    },
    {
      "inputs": [],
      "name": "paused",
      "outputs": [
        {
          "internalType": "bool",
          "name": "",
          "type": "bool"
        }
      ],
      "stateMutability": "view",
      "type": "function"
    },
    {
      "inputs": [],
      "name": "payItForwardTreasuryRatio_Divisor",
      "outputs": [
        {
          "internalType": "uint256",
          "name": "",
          "type": "uint256"
        }
      ],
      "stateMutability": "view",
      "type": "function"
    },
    {
      "inputs": [],
      "name": "payItForwardTreasuryRatio_Numerator",
      "outputs": [
        {
          "internalType": "uint256",
          "name": "",
          "type": "uint256"
        }
      ],
      "stateMutability": "view",
      "type": "function"
    },
    {
      "inputs": [],
      "name": "payReciver",
      "outputs": [
        {
          "internalType": "bool",
          "name": "",
          "type": "bool"
        }
      ],
      "stateMutability": "view",
      "type": "function"
    },
    {
      "inputs": [],
      "name": "redPens",
      "outputs": [
        {
          "internalType": "contract ERC20",
          "name": "",
          "type": "address"
        }
      ],
      "stateMutability": "view",
      "type": "function"
    },
    {
      "inputs": [
        {
          "internalType": "bool",
          "name": "thisIsNotReversible",
          "type": "bool"
        }
      ],
      "name": "refreshBadges",
      "outputs": [
        {
          "internalType": "bool",
          "name": "",
          "type": "bool"
        }
      ],
      "stateMutability": "nonpayable",
      "type": "function"
    },
    {
      "inputs": [
        {
          "internalType": "bytes32",
          "name": "role",
          "type": "bytes32"
        },
        {
          "internalType": "address",
          "name": "account",
          "type": "address"
        }
      ],
      "name": "renounceRole",
      "outputs": [],
      "stateMutability": "nonpayable",
      "type": "function"
    },
    {
      "inputs": [],
      "name": "resetVote",
      "outputs": [],
      "stateMutability": "nonpayable",
      "type": "function"
    },
    {
      "inputs": [
        {
          "internalType": "uint256",
          "name": "tokenId",
          "type": "uint256"
        }
      ],
      "name": "revokeBadge",
      "outputs": [],
      "stateMutability": "nonpayable",
      "type": "function"
    },
    {
      "inputs": [
        {
          "internalType": "bytes32",
          "name": "role",
          "type": "bytes32"
        },
        {
          "internalType": "address",
          "name": "account",
          "type": "address"
        }
      ],
      "name": "revokeRole",
      "outputs": [],
      "stateMutability": "nonpayable",
      "type": "function"
    },
    {
      "inputs": [
        {
          "internalType": "address",
          "name": "from",
          "type": "address"
        },
        {
          "internalType": "address",
          "name": "to",
          "type": "address"
        },
        {
          "internalType": "uint256",
          "name": "tokenId",
          "type": "uint256"
        }
      ],
      "name": "safeTransferFrom",
      "outputs": [],
      "stateMutability": "nonpayable",
      "type": "function"
    },
    {
      "inputs": [
        {
          "internalType": "address",
          "name": "from",
          "type": "address"
        },
        {
          "internalType": "address",
          "name": "to",
          "type": "address"
        },
        {
          "internalType": "uint256",
          "name": "tokenId",
          "type": "uint256"
        },
        {
          "internalType": "bytes",
          "name": "_data",
          "type": "bytes"
        }
      ],
      "name": "safeTransferFrom",
      "outputs": [],
      "stateMutability": "nonpayable",
      "type": "function"
    },
    {
      "inputs": [
        {
          "internalType": "address",
          "name": "operator",
          "type": "address"
        },
        {
          "internalType": "bool",
          "name": "approved",
          "type": "bool"
        }
      ],
      "name": "setApprovalForAll",
      "outputs": [],
      "stateMutability": "nonpayable",
      "type": "function"
    },
    {
      "inputs": [
        {
          "internalType": "uint256",
          "name": "costInWei",
          "type": "uint256"
        }
      ],
      "name": "setMintingCost",
      "outputs": [
        {
          "internalType": "bool",
          "name": "",
          "type": "bool"
        }
      ],
      "stateMutability": "nonpayable",
      "type": "function"
    },
    {
      "inputs": [
        {
          "internalType": "uint256",
          "name": "costFloorInWei",
          "type": "uint256"
        }
      ],
      "name": "setMintingCostFloor",
      "outputs": [
        {
          "internalType": "bool",
          "name": "",
          "type": "bool"
        }
      ],
      "stateMutability": "nonpayable",
      "type": "function"
    },
    {
      "inputs": [
        {
          "internalType": "bytes4",
          "name": "interfaceId",
          "type": "bytes4"
        }
      ],
      "name": "supportsInterface",
      "outputs": [
        {
          "internalType": "bool",
          "name": "",
          "type": "bool"
        }
      ],
      "stateMutability": "view",
      "type": "function"
    },
    {
      "inputs": [],
      "name": "symbol",
      "outputs": [
        {
          "internalType": "string",
          "name": "",
          "type": "string"
        }
      ],
      "stateMutability": "view",
      "type": "function"
    },
    {
      "inputs": [],
      "name": "syncAllRoles",
      "outputs": [],
      "stateMutability": "nonpayable",
      "type": "function"
    },
    {
      "inputs": [
        {
          "internalType": "bytes32",
          "name": "ROLE_TO_SYNC",
          "type": "bytes32"
        }
      ],
      "name": "syncSingleRole",
      "outputs": [],
      "stateMutability": "nonpayable",
      "type": "function"
    },
    {
      "inputs": [],
      "name": "syncVotes",
      "outputs": [],
      "stateMutability": "nonpayable",
      "type": "function"
    },
    {
      "inputs": [
        {
          "internalType": "uint256",
          "name": "index",
          "type": "uint256"
        }
      ],
      "name": "tokenByIndex",
      "outputs": [
        {
          "internalType": "uint256",
          "name": "",
          "type": "uint256"
        }
      ],
      "stateMutability": "view",
      "type": "function"
    },
    {
      "inputs": [
        {
          "internalType": "address",
          "name": "owner",
          "type": "address"
        },
        {
          "internalType": "uint256",
          "name": "index",
          "type": "uint256"
        }
      ],
      "name": "tokenOfOwnerByIndex",
      "outputs": [
        {
          "internalType": "uint256",
          "name": "",
          "type": "uint256"
        }
      ],
      "stateMutability": "view",
      "type": "function"
    },
    {
      "inputs": [
        {
          "internalType": "uint256",
          "name": "tokenId",
          "type": "uint256"
        }
      ],
      "name": "tokenURI",
      "outputs": [
        {
          "internalType": "string",
          "name": "",
          "type": "string"
        }
      ],
      "stateMutability": "view",
      "type": "function"
    },
    {
      "inputs": [],
      "name": "totalSupply",
      "outputs": [
        {
          "internalType": "uint256",
          "name": "",
          "type": "uint256"
        }
      ],
      "stateMutability": "view",
      "type": "function"
    },
    {
      "inputs": [
        {
          "internalType": "address",
          "name": "from",
          "type": "address"
        },
        {
          "internalType": "address",
          "name": "to",
          "type": "address"
        },
        {
          "internalType": "uint256",
          "name": "tokenId",
          "type": "uint256"
        }
      ],
      "name": "transferFrom",
      "outputs": [],
      "stateMutability": "nonpayable",
      "type": "function"
    },
    {
      "inputs": [],
      "name": "unpause",
      "outputs": [],
      "stateMutability": "nonpayable",
      "type": "function"
    },
    {
      "inputs": [],
      "name": "updateAddressManager",
      "outputs": [],
      "stateMutability": "nonpayable",
      "type": "function"
    },
    {
      "inputs": [],
      "name": "updateAllAddresses",
      "outputs": [],
      "stateMutability": "nonpayable",
      "type": "function"
    },
    {
      "inputs": [],
      "name": "updateAllRoles",
      "outputs": [],
      "stateMutability": "nonpayable",
      "type": "function"
    },
    {
      "inputs": [],
      "name": "updateDAOAddresses",
      "outputs": [],
      "stateMutability": "nonpayable",
      "type": "function"
    },
    {
      "inputs": [],
      "name": "updateDAOAgents",
      "outputs": [],
      "stateMutability": "nonpayable",
      "type": "function"
    },
    {
      "inputs": [],
      "name": "updatePaymentToken",
      "outputs": [],
      "stateMutability": "nonpayable",
      "type": "function"
    },
    {
      "inputs": [
        {
          "internalType": "bytes32",
          "name": "ROLE_TO_UPDATE",
          "type": "bytes32"
        }
      ],
      "name": "updateSingleRole",
      "outputs": [],
      "stateMutability": "nonpayable",
      "type": "function"
    },
    {
      "inputs": [],
      "name": "updateTokenAddresses",
      "outputs": [],
      "stateMutability": "nonpayable",
      "type": "function"
    }
  ],
  "bytecode": "0x60806040526011805463ffffffff60a01b191690556729a2241af62c0000601d5567016345785d8a0000601e556002601f55600360205560006021556022805460ff19169055600454602580546001600160a01b0319166001600160a01b039092169190911790553480156200007457600080fd5b5060405162005f8d38038062005f8d833981016040819052620000979162000fb6565b600280546001600160a01b0383166001600160a01b0319918216811790925560118054909116909117905583838383838382620000d3620002b5565b620000dd620002d5565b600c54620000f7906000906001600160a01b031662000420565b600c5462000130907f0538d24a8b7882d7b2e36af243d4af61c23e86e3daa6cb8c887b53220b2f5720906001600160a01b031662000420565b600d5462000169907f048bc71fa1cb2c119c339cf9cf00a97996a19a9d991ce5fe049f2fa5459e7990906001600160a01b031662000420565b600e54620001a2907ffa8e4989e1d689f7bc5c4b25b87efb51fecdecb19ba62847e29c759e12a89acd906001600160a01b031662000420565b601054620001db907ff0f4b159a6e2a4815eb3ca3df080bfa70c9270662c59bcaa4479a456220183e6906001600160a01b031662000420565b620002087f7c9d7f6f02908185bffb3f7fc9afb29fd7bf93675af8fd4b655ee05c2cee1e0e600062000420565b5081516200021e90601290602085019062000def565b5080516200023490601390602084019062000def565b50506018805460ff191690555082516200025690602390602086019062000def565b5083516200026c90602490602087019062000def565b5050602280549115156101000261ff00199092169190911790555050600454602580546001600160a01b0319166001600160a01b03909216919091179055506200109892505050565b620002bf62000463565b620002c962000763565b620002d3620009ce565b565b601160009054906101000a90046001600160a01b03166001600160a01b031663ff7e88ec6040518163ffffffff1660e01b815260040160206040518083038186803b1580156200032457600080fd5b505afa15801562000339573d6000803e3d6000fd5b505050506040513d601f19601f820116820180604052508101906200035f919062000f98565b601160156101000a81548160ff021916908315150217905550601160009054906101000a90046001600160a01b03166001600160a01b0316632fb565856040518163ffffffff1660e01b815260040160206040518083038186803b158015620003c757600080fd5b505afa158015620003dc573d6000803e3d6000fd5b505050506040513d601f19601f8201168201806040525081019062000402919062000f98565b60118054911515600160b01b0260ff60b01b19909216919091179055565b62000437828262000ccd60201b6200211e1760201c565b60008281526001602090815260409091206200045e9183906200212862000cdd821b17901c565b505050565b601160009054906101000a90046001600160a01b03166001600160a01b0316637dad1ad56040518163ffffffff1660e01b815260040160206040518083038186803b158015620004b257600080fd5b505afa158015620004c7573d6000803e3d6000fd5b505050506040513d601f19601f82011682018060405250810190620004ed919062000f7a565b600a80546001600160a01b0319166001600160a01b039283161790556011546040805163a99b273560e01b81529051919092169163a99b2735916004808301926020929190829003018186803b1580156200054757600080fd5b505afa1580156200055c573d6000803e3d6000fd5b505050506040513d601f19601f8201168201806040525081019062000582919062000f7a565b600b80546001600160a01b0319166001600160a01b0392831617905560115460408051637ef7fe1960e11b81529051919092169163fdeffc32916004808301926020929190829003018186803b158015620005dc57600080fd5b505afa158015620005f1573d6000803e3d6000fd5b505050506040513d601f19601f8201168201806040525081019062000617919062000f7a565b600c80546001600160a01b0319166001600160a01b0392831617905560115460408051635b5c251f60e01b815290519190921691635b5c251f916004808301926020929190829003018186803b1580156200067157600080fd5b505afa15801562000686573d6000803e3d6000fd5b505050506040513d601f19601f82011682018060405250810190620006ac919062000f7a565b600880546001600160a01b0319166001600160a01b0392831617905560115460408051636b58477560e01b815290519190921691636b584775916004808301926020929190829003018186803b1580156200070657600080fd5b505afa1580156200071b573d6000803e3d6000fd5b505050506040513d601f19601f8201168201806040525081019062000741919062000f7a565b600980546001600160a01b0319166001600160a01b0392909216919091179055565b601160009054906101000a90046001600160a01b03166001600160a01b031663dadf56ac6040518163ffffffff1660e01b815260040160206040518083038186803b158015620007b257600080fd5b505afa158015620007c7573d6000803e3d6000fd5b505050506040513d601f19601f82011682018060405250810190620007ed919062000f7a565b600d80546001600160a01b0319166001600160a01b039283161790556011546040805163024bebe960e01b81529051919092169163024bebe9916004808301926020929190829003018186803b1580156200084757600080fd5b505afa1580156200085c573d6000803e3d6000fd5b505050506040513d601f19601f8201168201806040525081019062000882919062000f7a565b600e80546001600160a01b0319166001600160a01b039283161790556011546040805163320a28f960e11b81529051919092169163641451f2916004808301926020929190829003018186803b158015620008dc57600080fd5b505afa158015620008f1573d6000803e3d6000fd5b505050506040513d601f19601f8201168201806040525081019062000917919062000f7a565b600f80546001600160a01b0319166001600160a01b0392831617905560115460408051637310bf1d60e11b81529051919092169163e6217e3a916004808301926020929190829003018186803b1580156200097157600080fd5b505afa15801562000986573d6000803e3d6000fd5b505050506040513d601f19601f82011682018060405250810190620009ac919062000f7a565b601080546001600160a01b0319166001600160a01b0392909216919091179055565b601160009054906101000a90046001600160a01b03166001600160a01b03166321d7f0086040518163ffffffff1660e01b815260040160206040518083038186803b15801562000a1d57600080fd5b505afa15801562000a32573d6000803e3d6000fd5b505050506040513d601f19601f8201168201806040525081019062000a58919062000f7a565b600380546001600160a01b0319166001600160a01b039283161790556011546040805163762ddb5960e01b81529051919092169163762ddb59916004808301926020929190829003018186803b15801562000ab257600080fd5b505afa15801562000ac7573d6000803e3d6000fd5b505050506040513d601f19601f8201168201806040525081019062000aed919062000f7a565b600480546001600160a01b0319166001600160a01b039283161781556011546040805163bfb7dc9960e01b81529051919093169263bfb7dc999281810192602092909190829003018186803b15801562000b4657600080fd5b505afa15801562000b5b573d6000803e3d6000fd5b505050506040513d601f19601f8201168201806040525081019062000b81919062000f7a565b600580546001600160a01b0319166001600160a01b0392831617905560115460408051633e6111eb60e21b81529051919092169163f98447ac916004808301926020929190829003018186803b15801562000bdb57600080fd5b505afa15801562000bf0573d6000803e3d6000fd5b505050506040513d601f19601f8201168201806040525081019062000c16919062000f7a565b600680546001600160a01b0319166001600160a01b0392831617905560115460408051630fe1ba9f60e21b815290519190921691633f86ea7c916004808301926020929190829003018186803b15801562000c7057600080fd5b505afa15801562000c85573d6000803e3d6000fd5b505050506040513d601f19601f8201168201806040525081019062000cab919062000f7a565b600780546001600160a01b0319166001600160a01b0392909216919091179055565b62000cd9828262000cfd565b5050565b600062000cf4836001600160a01b03841662000d9d565b90505b92915050565b6000828152602081815260408083206001600160a01b038516845290915290205460ff1662000cd9576000828152602081815260408083206001600160a01b03851684529091529020805460ff1916600117905562000d593390565b6001600160a01b0316816001600160a01b0316837f2f8788117e7eff1d82e926ec794901d17c78024a50270940304540a733656f0d60405160405180910390a45050565b600081815260018301602052604081205462000de65750815460018181018455600084815260208082209093018490558454848252828601909352604090209190915562000cf7565b50600062000cf7565b82805462000dfd9062001045565b90600052602060002090601f01602090048101928262000e21576000855562000e6c565b82601f1062000e3c57805160ff191683800117855562000e6c565b8280016001018555821562000e6c579182015b8281111562000e6c57825182559160200191906001019062000e4f565b5062000e7a92915062000e7e565b5090565b5b8082111562000e7a576000815560010162000e7f565b80516001600160a01b038116811462000ead57600080fd5b919050565b8051801515811462000ead57600080fd5b600082601f83011262000ed557600080fd5b81516001600160401b038082111562000ef25762000ef262001082565b604051601f8301601f19908116603f0116810190828211818310171562000f1d5762000f1d62001082565b8160405283815260209250868385880101111562000f3a57600080fd5b600091505b8382101562000f5e578582018301518183018401529082019062000f3f565b8382111562000f705760008385830101525b9695505050505050565b60006020828403121562000f8d57600080fd5b62000cf48262000e95565b60006020828403121562000fab57600080fd5b62000cf48262000eb2565b6000806000806080858703121562000fcd57600080fd5b84516001600160401b038082111562000fe557600080fd5b62000ff38883890162000ec3565b955060208701519150808211156200100a57600080fd5b50620010198782880162000ec3565b9350506200102a6040860162000eb2565b91506200103a6060860162000e95565b905092959194509250565b600181811c908216806200105a57607f821691505b602082108114156200107c57634e487b7160e01b600052602260045260246000fd5b50919050565b634e487b7160e01b600052604160045260246000fd5b614ee580620010a86000396000f3fe608060405234801561001057600080fd5b50600436106104ac5760003560e01c806370a082311161026d578063c04e17e311610151578063e78c266c116100ce578063f1132b3011610092578063f1132b3014610a2b578063f7d92d8614610a33578063f98447ac14610a3b578063f98db25314610a4e578063fdeffc3214610a61578063ff7e88ec14610a7457600080fd5b8063e78c266c146109d4578063e985e9c5146109e7578063e9a53230146109fa578063ebf98abf14610a0f578063ee0b4c3514610a1857600080fd5b8063cf4ece1511610115578063cf4ece151461097e578063d547741f14610993578063dadf56ac146109a6578063dea6f9c8146109b9578063e6217e3a146109c157600080fd5b8063c04e17e31461090f578063c62b28e814610930578063c87b56dd14610943578063ca15c87314610956578063cce843921461096957600080fd5b806395d89b41116101ea578063a32c5e59116101ae578063a32c5e59146108a5578063a78e746f146108ba578063a99b2735146108ce578063b6085bf5146108e1578063b88d4fde146108e9578063bfb7dc99146108fc57600080fd5b806395d89b411461086257806396ac6bf01461086a5780639ac3eaa71461087d578063a217fddf1461088a578063a22cb4651461089257600080fd5b80637dad1ad5116102315780637dad1ad5146108185780638456cb591461082b57806387e9152d146108335780639010d07c1461083c57806391d148541461084f57600080fd5b806370a08231146107a357806373c89822146107b6578063762ddb59146107df57806376516078146107f2578063794ccf6c1461080557600080fd5b806336568abe1161039457806359e6f787116103115780636352211e116102d55780636352211e1461072f57806363ebc67714610742578063641451f21461076257806367a14f06146107755780636b584775146107885780636c353e341461079b57600080fd5b806359e6f787146106ee5780635b5c251f146107015780635c975abb146107145780635db531a11461071f578063610c30091461072757600080fd5b806342842e0e1161035857806342842e0e146106a557806349b5e105146106b85780634d84c6d8146106c05780634f6ccce7146106c857806357f276ff146106db57600080fd5b806336568abe146106525780633ab76e9f146106655780633f4ba83a146106785780633f86ea7c1461068057806340005bb91461069357600080fd5b806321d670e91161042d57806329e63f35116103f157806329e63f35146105f55780632f2ff15d146106085780632f745c591461061b5780632fb565851461062e578063326a55e014610642578063329a8cfa1461064a57600080fd5b806321d670e91461058e57806321d7f0081461059757806323b872dd146105aa5780632436329d146105bd578063248a9ca3146105d257600080fd5b80630ad17f8f116104745780630ad17f8f1461054157806310a83fcb14610562578063130f63201461056b57806317314d5a1461057e57806318160ddd1461058657600080fd5b806301ffc9a7146104b1578063024bebe9146104d957806306fdde0314610504578063081812fc14610519578063095ea7b31461052c575b600080fd5b6104c46104bf36600461498e565b610a88565b60405190151581526020015b60405180910390f35b600e546104ec906001600160a01b031681565b6040516001600160a01b0390911681526020016104d0565b61050c610a99565b6040516104d09190614b56565b6104ec61052736600461492e565b610b2b565b61053f61053a3660046148c8565b610bc5565b005b61055461054f3660046148c8565b610cdb565b6040519081526020016104d0565b610554601e5481565b61053f61057936600461492e565b610d0c565b61053f610d23565b601b54610554565b610554601f5481565b6003546104ec906001600160a01b031681565b61053f6105b8366004614775565b610d2e565b610554600080516020614e1083398151915281565b6105546105e036600461492e565b60009081526020819052604090206001015490565b6104c461060336600461492e565b610d86565b61053f610616366004614947565b610e93565b6105546106293660046148c8565b610eb5565b6011546104c490600160b01b900460ff1681565b61053f610f4b565b61053f610f65565b61053f610660366004614947565b61106e565b6011546104ec906001600160a01b031681565b61053f611090565b6007546104ec906001600160a01b031681565b6022546104c490610100900460ff1681565b61053f6106b3366004614775565b611122565b61053f611189565b61053f610f5b565b6105546106d636600461492e565b611191565b61053f6106e936600461492e565b611224565b6104c46106fc3660046148c8565b61122d565b6008546104ec906001600160a01b031681565b60185460ff166104c4565b61053f61125f565b61050c611267565b6104ec61073d36600461492e565b6112f5565b610755610750366004614702565b61136c565b6040516104d09190614b12565b600f546104ec906001600160a01b031681565b6025546104ec906001600160a01b031681565b6009546104ec906001600160a01b031681565b61053f6113d8565b6105546107b1366004614702565b611404565b6104ec6107c436600461492e565b6000908152602660205260409020546001600160a01b031690565b6004546104ec906001600160a01b031681565b6104c46108003660046148f4565b61148b565b610554610813366004614864565b611582565b600a546104ec906001600160a01b031681565b61053f6119f7565b61055460205481565b6104ec61084a36600461496c565b611a79565b6104c461085d366004614947565b611a98565b61050c611ac1565b6104c461087836600461492e565b611ad0565b6022546104c49060ff1681565b610554600081565b61053f6108a0366004614836565b611bdc565b610554600080516020614e7083398151915281565b6011546104c490600160a01b900460ff1681565b600b546104ec906001600160a01b031681565b61053f611c56565b61053f6108f73660046147b6565b611c5e565b6005546104ec906001600160a01b031681565b61092261091d36600461492e565b611c90565b6040516104d0929190614aee565b61053f61093e36600461492e565b611d3f565b61050c61095136600461492e565b611d90565b61055461096436600461492e565b611e77565b610554600080516020614e9083398151915281565b610554600080516020614e5083398151915281565b61053f6109a1366004614947565b611e8e565b600d546104ec906001600160a01b031681565b61050c611e98565b6010546104ec906001600160a01b031681565b6002546104ec906001600160a01b031681565b6104c46109f536600461473c565b611ea5565b610554600080516020614e3083398151915281565b610554601d5481565b6104c4610a2636600461492e565b611f04565b61053f611ff0565b61053f611ff8565b6006546104ec906001600160a01b031681565b61050c610a5c36600461492e565b612083565b600c546104ec906001600160a01b031681565b6011546104c490600160a81b900460ff1681565b6000610a938261213d565b92915050565b606060128054610aa890614cfe565b80601f0160208091040260200160405190810160405280929190818152602001828054610ad490614cfe565b8015610b215780601f10610af657610100808354040283529160200191610b21565b820191906000526020600020905b815481529060010190602001808311610b0457829003601f168201915b5050505050905090565b6000818152601460205260408120546001600160a01b0316610ba95760405162461bcd60e51b815260206004820152602c60248201527f4552433732313a20617070726f76656420717565727920666f72206e6f6e657860448201526b34b9ba32b73a103a37b5b2b760a11b60648201526084015b60405180910390fd5b506000908152601660205260409020546001600160a01b031690565b6000610bd0826112f5565b9050806001600160a01b0316836001600160a01b03161415610c3e5760405162461bcd60e51b815260206004820152602160248201527f4552433732313a20617070726f76616c20746f2063757272656e74206f776e656044820152603960f91b6064820152608401610ba0565b336001600160a01b0382161480610c5a5750610c5a8133611ea5565b610ccc5760405162461bcd60e51b815260206004820152603860248201527f4552433732313a20617070726f76652063616c6c6572206973206e6f74206f7760448201527f6e6572206e6f7220617070726f76656420666f7220616c6c00000000000000006064820152608401610ba0565b610cd68383612162565b505050565b60276020528160005260406000208181548110610cf757600080fd5b90600052602060002001600091509150505481565b610d15816121e9565b50610d1f81612364565b5050565b610d2b6124ed565b50565b6000818152602660205260409020546001600160a01b031633811480610d595750610d598433611ea5565b610d755760405162461bcd60e51b8152600401610ba090614bbb565b610d80848484612633565b50505050565b6000610da0600080516020614e7083398151915233611a98565b80610dbe5750610dbe600080516020614e3083398151915233611a98565b80610ddc5750610ddc600080516020614e1083398151915233611a98565b610e215760405162461bcd60e51b81526020600482015260166024820152752cb7ba93b932903737ba103a3432903130b4b634b33360511b6044820152606401610ba0565b601e548210610e7e5760405162461bcd60e51b8152602060048201526024808201527f536f7272792120596f752063616e206f6e6c79206c6f7765722074686520666c6044820152636f6f722160e01b6064820152608401610ba0565b610e8a82601e55600190565b50600192915050565b610e9d8282612664565b6000828152600160205260409020610cd69082612128565b6000610ec083611404565b8210610f225760405162461bcd60e51b815260206004820152602b60248201527f455243373231456e756d657261626c653a206f776e657220696e646578206f7560448201526a74206f6620626f756e647360a81b6064820152608401610ba0565b506001600160a01b03919091166000908152601960209081526040808320938352929052205490565b610f5361268a565b610f5b612976565b610f63612bd1565b565b610f7d600080516020614e7083398151915233611a98565b80610f9b5750610f9b600080516020614e3083398151915233611a98565b80610fb95750610fb9600080516020614e1083398151915233611a98565b610ffe5760405162461bcd60e51b81526020600482015260166024820152752cb7ba93b932903737ba103a3432903130b4b634b33360511b6044820152606401610ba0565b601160009054906101000a90046001600160a01b03166001600160a01b031663329a8cfa6040518163ffffffff1660e01b8152600401600060405180830381600087803b15801561104e57600080fd5b505af1158015611062573d6000803e3d6000fd5b50505050610f6361125f565b6110788282612ebc565b6000828152600160205260409020610cd69082612f36565b6110a8600080516020614e3083398151915233611a98565b806110c657506110c6600080516020614e7083398151915233611a98565b61110a5760405162461bcd60e51b8152602060048201526015602482015274596f75277265206e6f742074686520476176656c7360581b6044820152606401610ba0565b60225460ff161561111a57600080fd5b610f63612f4b565b600061112d826112f5565b6000838152602660205260409020549091506001600160a01b03163381148061115b575061115b8533611ea5565b6111775760405162461bcd60e51b8152600401610ba090614bbb565b611182858585612fde565b5050505050565b610f6361268a565b600061119c601b5490565b82106111ff5760405162461bcd60e51b815260206004820152602c60248201527f455243373231456e756d657261626c653a20676c6f62616c20696e646578206f60448201526b7574206f6620626f756e647360a01b6064820152608401610ba0565b601b828154811061121257611212614daa565b90600052602060002001549050919050565b610d1f81612ff9565b6000818152602660205260408120546001600160a01b038481169116141561125757506001610a93565b506000610a93565b610f63613254565b6024805461127490614cfe565b80601f01602080910402602001604051908101604052809291908181526020018280546112a090614cfe565b80156112ed5780601f106112c2576101008083540402835291602001916112ed565b820191906000526020600020905b8154815290600101906020018083116112d057829003601f168201915b505050505081565b6000818152601460205260408120546001600160a01b031680610a935760405162461bcd60e51b815260206004820152602960248201527f4552433732313a206f776e657220717565727920666f72206e6f6e657869737460448201526832b73a103a37b5b2b760b91b6064820152608401610ba0565b6001600160a01b0381166000908152602760209081526040918290208054835181840281018401909452808452606093928301828280156113cc57602002820191906000526020600020905b8154815260200190600101908083116113b8575b50505050509050919050565b6113e0612bd1565b600454602580546001600160a01b0319166001600160a01b03909216919091179055565b60006001600160a01b03821661146f5760405162461bcd60e51b815260206004820152602a60248201527f4552433732313a2062616c616e636520717565727920666f7220746865207a65604482015269726f206164647265737360b01b6064820152608401610ba0565b506001600160a01b031660009081526015602052604090205490565b60006114a5600080516020614e3083398151915233611a98565b806114c357506114c3600080516020614e1083398151915233611a98565b806114e157506114e1600080516020614e7083398151915233611a98565b6114ea57600080fd5b601154600160b01b810460ff9081161515600160a81b90920416151514600114806115285750611528600080516020614e7083398151915233611a98565b6115675760405162461bcd60e51b815260206004820152601060248201526f436f757274204d75737420416772656560801b6044820152606401610ba0565b6001821515141561157a57610e8a613397565b506000919050565b6022546000908390829060ff610100909104161515600114156117b6576000602054601d546115b19190614c71565b905080601f546115c19190614c85565b6025546040516370a0823160e01b81523060048201526001600160a01b03909116906370a082319060240160206040518083038186803b15801561160457600080fd5b505afa158015611618573d6000803e3d6000fd5b505050506040513d601f19601f8201168201806040525081019061163c91906149c8565b6116469190614c59565b602554601f549193506001600160a01b0316906323b872dd903390309061166e908690614c85565b6040516001600160e01b031960e086901b1681526001600160a01b0393841660048201529290911660248301526044820152606401602060405180830381600087803b1580156116bd57600080fd5b505af11580156116d1573d6000803e3d6000fd5b505050506040513d601f19601f820116820180604052508101906116f59190614911565b50602554601f546020546001600160a01b03909216916323b872dd913391879161171e91614ca4565b6117289086614c85565b6040516001600160e01b031960e086901b1681526001600160a01b0393841660048201529290911660248301526044820152606401602060405180830381600087803b15801561177757600080fd5b505af115801561178b573d6000803e3d6000fd5b505050506040513d601f19601f820116820180604052508101906117af9190614911565b50506118cf565b601d546025546040516370a0823160e01b81523060048201526001600160a01b03909116906370a082319060240160206040518083038186803b1580156117fc57600080fd5b505afa158015611810573d6000803e3d6000fd5b505050506040513d601f19601f8201168201806040525081019061183491906149c8565b61183e9190614c59565b602554601d546040516323b872dd60e01b815233600482015230602482015260448101919091529192506001600160a01b0316906323b872dd90606401602060405180830381600087803b15801561189557600080fd5b505af11580156118a9573d6000803e3d6000fd5b505050506040513d601f19601f820116820180604052508101906118cd9190614911565b505b6025546040516370a0823160e01b815230600482015282916001600160a01b0316906370a082319060240160206040518083038186803b15801561191257600080fd5b505afa158015611926573d6000803e3d6000fd5b505050506040513d601f19601f8201168201806040525081019061194a91906149c8565b146119905760405162461bcd60e51b8152602060048201526016602482015275115c9c9bdc88151c985b9cd9995c9a5b99c80854915160521b6044820152606401610ba0565b6001600160a01b03851633148015906119b157506001600160a01b03851615155b6119ba57600080fd5b60215492506119ca3385856133e9565b6119d685602154613458565b6001602160008282546119e99190614c59565b909155509295945050505050565b611a0f600080516020614e3083398151915233611a98565b80611a2d5750611a2d600080516020614e7083398151915233611a98565b611a715760405162461bcd60e51b8152602060048201526015602482015274596f75277265206e6f742074686520476176656c7360581b6044820152606401610ba0565b610f63613472565b6000828152600160205260408120611a9190836134ed565b9392505050565b6000918252602082815260408084206001600160a01b0393909316845291905290205460ff1690565b606060138054610aa890614cfe565b6000611aea600080516020614e3083398151915233611a98565b80611b085750611b08600080516020614e1083398151915233611a98565b80611b265750611b26600080516020614e7083398151915233611a98565b611b2f57600080fd5b601154600160b01b810460ff9081161515600160a81b9092041615151460011480611b6d5750611b6d600080516020614e7083398151915233611a98565b611bac5760405162461bcd60e51b815260206004820152601060248201526f436f757274204d75737420416772656560801b6044820152606401610ba0565b816045141561157a57611bbd613397565b50611bc6613472565b506022805460ff19166001908117909155919050565b611bf4600080516020614e7083398151915233611a98565b80611c125750611c12600080516020614e3083398151915233611a98565b80611c305750611c30600080516020614e1083398151915233611a98565b611c4c5760405162461bcd60e51b8152600401610ba090614bbb565b610d1f82826134f9565b610f63612976565b611c6833836135be565b611c845760405162461bcd60e51b8152600401610ba090614c08565b610d808484848461367d565b602660205260009081526040902080546001820180546001600160a01b039092169291611cbc90614cfe565b80601f0160208091040260200160405190810160405280929190818152602001828054611ce890614cfe565b8015611d355780601f10611d0a57610100808354040283529160200191611d35565b820191906000526020600020905b815481529060010190602001808311611d1857829003601f168201915b5050505050905082565b611d4933826135be565b611d875760405162461bcd60e51b815260206004820152600f60248201526e4e696365205472792c204275636b6f60881b6044820152606401610ba0565b610d2b816136b0565b6000818152601460205260409020546060906001600160a01b0316611e0f5760405162461bcd60e51b815260206004820152602f60248201527f4552433732314d657461646174613a2055524920717565727920666f72206e6f60448201526e3732bc34b9ba32b73a103a37b5b2b760891b6064820152608401610ba0565b6000611e2660408051602081019091526000815290565b90506000815111611e465760405180602001604052806000815250611a91565b80611e5084613757565b604051602001611e61929190614a0d565b6040516020818303038152906040529392505050565b6000818152600160205260408120610a9390613855565b611078828261385f565b6023805461127490614cfe565b600080611ec0600080516020614e7083398151915284611a98565b80611ede5750611ede600080516020614e3083398151915284611a98565b80611efc5750611efc600080516020614e1083398151915284611a98565b949350505050565b6000611f1e600080516020614e1083398151915233611a98565b80611f3c5750611f3c600080516020614e7083398151915233611a98565b611f7e5760405162461bcd60e51b8152602060048201526013602482015272596f75277265206e6f7420746865204a75727960681b6044820152606401610ba0565b601e54821015611fe45760405162461bcd60e51b815260206004820152602b60248201527f536f7272792120436f7374206d7573742062652067726561746572207468616e60448201526a10181718902932b22832b760a91b6064820152608401610ba0565b610e8a82601d55600190565b610f63613885565b61200f600080516020614e70833981519152612ff9565b50612027600080516020614e30833981519152612ff9565b5061203f600080516020614e10833981519152612ff9565b50612057600080516020614e50833981519152612ff9565b5061206f600080516020614e90833981519152612ff9565b5061207a6000612ff9565b50610f63613254565b60008181526026602052604090206001018054606091906120a390614cfe565b80601f01602080910402602001604051908101604052809291908181526020018280546120cf90614cfe565b80156113cc5780601f106120f1576101008083540402835291602001916113cc565b820191906000526020600020905b8154815290600101906020018083116120ff5750939695505050505050565b610d1f82826139bc565b6000611a91836001600160a01b038416613a40565b60006001600160e01b0319821663780e9d6360e01b1480610a935750610a9382613a87565b61217a600080516020614e7083398151915233611a98565b6121df5760405162461bcd60e51b815260206004820152603060248201527f596f7520646f206e6f742068617665207065726d697373696f6e20746f20617060448201526f70726f7665207468697320626164676560801b6064820152608401610ba0565b610d1f8282613ac7565b60405163ca15c87360e01b8152600481018290526000908190309063ca15c8739060240160206040518083038186803b15801561222557600080fd5b505afa158015612239573d6000803e3d6000fd5b505050506040513d601f19601f8201168201806040525081019061225d91906149c8565b905060005b8181101561235a57604051632404341f60e21b815260048101859052602481018290526000903090639010d07c9060440160206040518083038186803b1580156122ab57600080fd5b505afa1580156122bf573d6000803e3d6000fd5b505050506040513d601f19601f820116820180604052508101906122e3919061471f565b60405163d547741f60e01b8152600481018790526001600160a01b0382166024820152909150309063d547741f90604401600060405180830381600087803b15801561232e57600080fd5b505af1158015612342573d6000803e3d6000fd5b5050505050808061235290614d39565b915050612262565b5060019392505050565b60115460405163ca15c87360e01b81526004810183905260009182916001600160a01b039091169063ca15c8739060240160206040518083038186803b1580156123ad57600080fd5b505afa1580156123c1573d6000803e3d6000fd5b505050506040513d601f19601f820116820180604052508101906123e591906149c8565b905060005b8181101561235a57601154604051632404341f60e21b815260048101869052602481018390526000916001600160a01b031690639010d07c9060440160206040518083038186803b15801561243e57600080fd5b505afa158015612452573d6000803e3d6000fd5b505050506040513d601f19601f82011682018060405250810190612476919061471f565b604051632f2ff15d60e01b8152600481018790526001600160a01b03821660248201529091503090632f2ff15d90604401600060405180830381600087803b1580156124c157600080fd5b505af11580156124d5573d6000803e3d6000fd5b505050505080806124e590614d39565b9150506123ea565b6000612506600080516020614e708339815191526121e9565b5061251e600080516020614e70833981519152612364565b61252757600080fd5b61253e600080516020614e308339815191526121e9565b50612556600080516020614e30833981519152612364565b61255f57600080fd5b612576600080516020614e108339815191526121e9565b5061258e600080516020614e10833981519152612364565b61259757600080fd5b6125ae600080516020614e508339815191526121e9565b506125c6600080516020614e50833981519152612364565b6125cf57600080fd5b6125e6600080516020614e908339815191526121e9565b506125fe600080516020614e90833981519152612364565b61260757600080fd5b61261160006121e9565b5061261c6000612364565b61262557600080fd5b61262d613254565b50600190565b61263d33826135be565b6126595760405162461bcd60e51b8152600401610ba090614c08565b610cd6838383613b35565b6000828152602081905260409020600101546126808133613ce0565b610cd683836139bc565b601160009054906101000a90046001600160a01b03166001600160a01b0316637dad1ad56040518163ffffffff1660e01b815260040160206040518083038186803b1580156126d857600080fd5b505afa1580156126ec573d6000803e3d6000fd5b505050506040513d601f19601f82011682018060405250810190612710919061471f565b600a80546001600160a01b0319166001600160a01b039283161790556011546040805163a99b273560e01b81529051919092169163a99b2735916004808301926020929190829003018186803b15801561276957600080fd5b505afa15801561277d573d6000803e3d6000fd5b505050506040513d601f19601f820116820180604052508101906127a1919061471f565b600b80546001600160a01b0319166001600160a01b0392831617905560115460408051637ef7fe1960e11b81529051919092169163fdeffc32916004808301926020929190829003018186803b1580156127fa57600080fd5b505afa15801561280e573d6000803e3d6000fd5b505050506040513d601f19601f82011682018060405250810190612832919061471f565b600c80546001600160a01b0319166001600160a01b0392831617905560115460408051635b5c251f60e01b815290519190921691635b5c251f916004808301926020929190829003018186803b15801561288b57600080fd5b505afa15801561289f573d6000803e3d6000fd5b505050506040513d601f19601f820116820180604052508101906128c3919061471f565b600880546001600160a01b0319166001600160a01b0392831617905560115460408051636b58477560e01b815290519190921691636b584775916004808301926020929190829003018186803b15801561291c57600080fd5b505afa158015612930573d6000803e3d6000fd5b505050506040513d601f19601f82011682018060405250810190612954919061471f565b600980546001600160a01b0319166001600160a01b0392909216919091179055565b601160009054906101000a90046001600160a01b03166001600160a01b031663dadf56ac6040518163ffffffff1660e01b815260040160206040518083038186803b1580156129c457600080fd5b505afa1580156129d8573d6000803e3d6000fd5b505050506040513d601f19601f820116820180604052508101906129fc919061471f565b600d80546001600160a01b0319166001600160a01b039283161790556011546040805163024bebe960e01b81529051919092169163024bebe9916004808301926020929190829003018186803b158015612a5557600080fd5b505afa158015612a69573d6000803e3d6000fd5b505050506040513d601f19601f82011682018060405250810190612a8d919061471f565b600e80546001600160a01b0319166001600160a01b039283161790556011546040805163320a28f960e11b81529051919092169163641451f2916004808301926020929190829003018186803b158015612ae657600080fd5b505afa158015612afa573d6000803e3d6000fd5b505050506040513d601f19601f82011682018060405250810190612b1e919061471f565b600f80546001600160a01b0319166001600160a01b0392831617905560115460408051637310bf1d60e11b81529051919092169163e6217e3a916004808301926020929190829003018186803b158015612b7757600080fd5b505afa158015612b8b573d6000803e3d6000fd5b505050506040513d601f19601f82011682018060405250810190612baf919061471f565b601080546001600160a01b0319166001600160a01b0392909216919091179055565b601160009054906101000a90046001600160a01b03166001600160a01b03166321d7f0086040518163ffffffff1660e01b815260040160206040518083038186803b158015612c1f57600080fd5b505afa158015612c33573d6000803e3d6000fd5b505050506040513d601f19601f82011682018060405250810190612c57919061471f565b600380546001600160a01b0319166001600160a01b039283161790556011546040805163762ddb5960e01b81529051919092169163762ddb59916004808301926020929190829003018186803b158015612cb057600080fd5b505afa158015612cc4573d6000803e3d6000fd5b505050506040513d601f19601f82011682018060405250810190612ce8919061471f565b600480546001600160a01b0319166001600160a01b039283161781556011546040805163bfb7dc9960e01b81529051919093169263bfb7dc999281810192602092909190829003018186803b158015612d4057600080fd5b505afa158015612d54573d6000803e3d6000fd5b505050506040513d601f19601f82011682018060405250810190612d78919061471f565b600580546001600160a01b0319166001600160a01b0392831617905560115460408051633e6111eb60e21b81529051919092169163f98447ac916004808301926020929190829003018186803b158015612dd157600080fd5b505afa158015612de5573d6000803e3d6000fd5b505050506040513d601f19601f82011682018060405250810190612e09919061471f565b600680546001600160a01b0319166001600160a01b0392831617905560115460408051630fe1ba9f60e21b815290519190921691633f86ea7c916004808301926020929190829003018186803b158015612e6257600080fd5b505afa158015612e76573d6000803e3d6000fd5b505050506040513d601f19601f82011682018060405250810190612e9a919061471f565b600780546001600160a01b0319166001600160a01b0392909216919091179055565b6001600160a01b0381163314612f2c5760405162461bcd60e51b815260206004820152602f60248201527f416363657373436f6e74726f6c3a2063616e206f6e6c792072656e6f756e636560448201526e103937b632b9903337b91039b2b63360891b6064820152608401610ba0565b610d1f8282613d44565b6000611a91836001600160a01b038416613da9565b60185460ff16612f945760405162461bcd60e51b815260206004820152601460248201527314185d5cd8589b194e881b9bdd081c185d5cd95960621b6044820152606401610ba0565b6018805460ff191690557f5db9ee0a495bf2e6ff9c91a7834c1ba4fdd244a5e8aa4e537bd38aeae4b073aa335b6040516001600160a01b03909116815260200160405180910390a1565b610cd683838360405180602001604052806000815250611c5e565b60115460405163ca15c87360e01b81526004810183905260009182916001600160a01b039091169063ca15c8739060240160206040518083038186803b15801561304257600080fd5b505afa158015613056573d6000803e3d6000fd5b505050506040513d601f19601f8201168201806040525081019061307a91906149c8565b60405163ca15c87360e01b815260048101859052909150600090309063ca15c8739060240160206040518083038186803b1580156130b757600080fd5b505afa1580156130cb573d6000803e3d6000fd5b505050506040513d601f19601f820116820180604052508101906130ef91906149c8565b905060006130fd8284614ca4565b9050600081116131425760405162461bcd60e51b815260206004820152601060248201526f4e6f7468696e6720746f2073796e632160801b6044820152606401610ba0565b60005b8181101561324857601154604051632404341f60e21b815260048101889052602481018390526000916001600160a01b031690639010d07c9060440160206040518083038186803b15801561319957600080fd5b505afa1580156131ad573d6000803e3d6000fd5b505050506040513d601f19601f820116820180604052508101906131d1919061471f565b604051632f2ff15d60e01b8152600481018990526001600160a01b03821660248201529091503090632f2ff15d90604401600060405180830381600087803b15801561321c57600080fd5b505af1158015613230573d6000803e3d6000fd5b5050505050808061324090614d39565b915050613145565b50600195945050505050565b601160009054906101000a90046001600160a01b03166001600160a01b031663ff7e88ec6040518163ffffffff1660e01b815260040160206040518083038186803b1580156132a257600080fd5b505afa1580156132b6573d6000803e3d6000fd5b505050506040513d601f19601f820116820180604052508101906132da9190614911565b601160156101000a81548160ff021916908315150217905550601160009054906101000a90046001600160a01b03166001600160a01b0316632fb565856040518163ffffffff1660e01b815260040160206040518083038186803b15801561334157600080fd5b505afa158015613355573d6000803e3d6000fd5b505050506040513d601f19601f820116820180604052508101906133799190614911565b60118054911515600160b01b0260ff60b01b19909216919091179055565b6000805b6021548110156133dd576000818152601460205260409020546001600160a01b0316156133cb576133cb816136b0565b806133d581614d39565b91505061339b565b50506000602155600190565b600081815260266020908152604090912080546001600160a01b0319166001600160a01b0386161781558351613427926001909201918501906145f3565b506001600160a01b039092166000908152602760209081526040822080546001810182559083529120019190915550565b610d1f828260405180602001604052806000815250613e96565b60185460ff16156134b85760405162461bcd60e51b815260206004820152601060248201526f14185d5cd8589b194e881c185d5cd95960821b6044820152606401610ba0565b6018805460ff191660011790557f62e78cea01bee320cd4e420270b5ea74000d11b0c9f74754ebdbfc544b05a258612fc13390565b6000611a918383613ec9565b6001600160a01b0382163314156135525760405162461bcd60e51b815260206004820152601960248201527f4552433732313a20617070726f766520746f2063616c6c6572000000000000006044820152606401610ba0565b3360008181526017602090815260408083206001600160a01b03871680855290835292819020805460ff191686151590811790915590519081529192917f17307eab39ab6107e8899845ad3d59bd9653f200f220920489ca2b5937696c31910160405180910390a35050565b6000818152601460205260408120546001600160a01b03166136375760405162461bcd60e51b815260206004820152602c60248201527f4552433732313a206f70657261746f7220717565727920666f72206e6f6e657860448201526b34b9ba32b73a103a37b5b2b760a11b6064820152608401610ba0565b6000613642836112f5565b6000848152602660205260409020549091506001600160a01b0390811690851681148061367457506136748286611ea5565b95945050505050565b613688848484613b35565b61369484848484613f4f565b610d805760405162461bcd60e51b8152600401610ba090614b69565b60006136bb826112f5565b90506136c98160008461405c565b6136d4600083612162565b6001600160a01b03811660009081526015602052604081208054600192906136fd908490614ca4565b909155505060008281526014602052604080822080546001600160a01b0319169055518391906001600160a01b038416907fddf252ad1be2c89b69c2b068fc378daa952ba7f163c4a11628f55a4df523b3ef908390a45050565b60608161377b5750506040805180820190915260018152600360fc1b602082015290565b8160005b81156137a5578061378f81614d39565b915061379e9050600a83614c71565b915061377f565b60008167ffffffffffffffff8111156137c0576137c0614dc0565b6040519080825280601f01601f1916602001820160405280156137ea576020820181803683370190505b5090505b8415611efc576137ff600183614ca4565b915061380c600a86614d54565b613817906030614c59565b60f81b81838151811061382c5761382c614daa565b60200101906001600160f81b031916908160001a90535061384e600a86614c71565b94506137ee565b6000610a93825490565b60008281526020819052604090206001015461387b8133613ce0565b610cd68383613d44565b601160009054906101000a90046001600160a01b03166001600160a01b031663a44b93256040518163ffffffff1660e01b815260040160206040518083038186803b1580156138d357600080fd5b505afa1580156138e7573d6000803e3d6000fd5b505050506040513d601f19601f8201168201806040525081019061390b9190614911565b61391457600080fd5b601160009054906101000a90046001600160a01b03166001600160a01b031663ac7cfac36040518163ffffffff1660e01b815260040160206040518083038186803b15801561396257600080fd5b505afa158015613976573d6000803e3d6000fd5b505050506040513d601f19601f8201168201806040525081019061399a919061471f565b600280546001600160a01b0319166001600160a01b0392909216919091179055565b6139c68282611a98565b610d1f576000828152602081815260408083206001600160a01b03851684529091529020805460ff191660011790556139fc3390565b6001600160a01b0316816001600160a01b0316837f2f8788117e7eff1d82e926ec794901d17c78024a50270940304540a733656f0d60405160405180910390a45050565b600081815260018301602052604081205461125757508154600181810184556000848152602080822090930184905584548482528286019093526040902091909155610a93565b60006001600160e01b031982166380ac58cd60e01b1480613ab857506001600160e01b03198216635b5e139f60e01b145b80610a935750610a9382614067565b600081815260166020526040902080546001600160a01b0319166001600160a01b0384169081179091558190613afc826112f5565b6001600160a01b03167f8c5be1e5ebec7d5bd14f71427d1e84f3dd0314c0f7b2291e5b200ac8c7c3b92560405160405180910390a45050565b826001600160a01b0316613b48826112f5565b6001600160a01b031614613bb05760405162461bcd60e51b815260206004820152602960248201527f4552433732313a207472616e73666572206f6620746f6b656e2074686174206960448201526839903737ba1037bbb760b91b6064820152608401610ba0565b6001600160a01b038216613c125760405162461bcd60e51b8152602060048201526024808201527f4552433732313a207472616e7366657220746f20746865207a65726f206164646044820152637265737360e01b6064820152608401610ba0565b613c1d83838361405c565b613c28600082612162565b6001600160a01b0383166000908152601560205260408120805460019290613c51908490614ca4565b90915550506001600160a01b0382166000908152601560205260408120805460019290613c7f908490614c59565b909155505060008181526014602052604080822080546001600160a01b0319166001600160a01b0386811691821790925591518493918716917fddf252ad1be2c89b69c2b068fc378daa952ba7f163c4a11628f55a4df523b3ef91a4505050565b613cea8282611a98565b610d1f57613d02816001600160a01b0316601461408c565b613d0d83602061408c565b604051602001613d1e929190614a3c565b60408051601f198184030181529082905262461bcd60e51b8252610ba091600401614b56565b613d4e8282611a98565b15610d1f576000828152602081815260408083206001600160a01b0385168085529252808320805460ff1916905551339285917ff6391f5c32d9c69d2a47ea670b442974b53935d1edc7fd64eb21e047a839171b9190a45050565b60008181526001830160205260408120548015613e8c576000613dcd600183614ca4565b8554909150600090613de190600190614ca4565b90506000866000018281548110613dfa57613dfa614daa565b9060005260206000200154905080876000018481548110613e1d57613e1d614daa565b600091825260208083209091019290925582815260018901909152604090208490558654879080613e5057613e50614d94565b60019003818190600052602060002001600090559055866001016000878152602001908152602001600020600090556001945050505050610a93565b6000915050610a93565b613ea08383614228565b613ead6000848484613f4f565b610cd65760405162461bcd60e51b8152600401610ba090614b69565b81546000908210613f275760405162461bcd60e51b815260206004820152602260248201527f456e756d657261626c655365743a20696e646578206f7574206f6620626f756e604482015261647360f01b6064820152608401610ba0565b826000018281548110613f3c57613f3c614daa565b9060005260206000200154905092915050565b60006001600160a01b0384163b1561405157604051630a85bd0160e11b81526001600160a01b0385169063150b7a0290613f93903390899088908890600401614ab1565b602060405180830381600087803b158015613fad57600080fd5b505af1925050508015613fdd575060408051601f3d908101601f19168201909252613fda918101906149ab565b60015b614037573d80801561400b576040519150601f19603f3d011682016040523d82523d6000602084013e614010565b606091505b50805161402f5760405162461bcd60e51b8152600401610ba090614b69565b805181602001fd5b6001600160e01b031916630a85bd0160e11b149050611efc565b506001949350505050565b610cd6838383614376565b60006001600160e01b03198216635a05180f60e01b1480610a935750610a938261442e565b6060600061409b836002614c85565b6140a6906002614c59565b67ffffffffffffffff8111156140be576140be614dc0565b6040519080825280601f01601f1916602001820160405280156140e8576020820181803683370190505b509050600360fc1b8160008151811061410357614103614daa565b60200101906001600160f81b031916908160001a905350600f60fb1b8160018151811061413257614132614daa565b60200101906001600160f81b031916908160001a9053506000614156846002614c85565b614161906001614c59565b90505b60018111156141d9576f181899199a1a9b1b9c1cb0b131b232b360811b85600f166010811061419557614195614daa565b1a60f81b8282815181106141ab576141ab614daa565b60200101906001600160f81b031916908160001a90535060049490941c936141d281614ce7565b9050614164565b508315611a915760405162461bcd60e51b815260206004820181905260248201527f537472696e67733a20686578206c656e67746820696e73756666696369656e746044820152606401610ba0565b6001600160a01b03821661427e5760405162461bcd60e51b815260206004820181905260248201527f4552433732313a206d696e7420746f20746865207a65726f20616464726573736044820152606401610ba0565b6000818152601460205260409020546001600160a01b0316156142e35760405162461bcd60e51b815260206004820152601c60248201527f4552433732313a20746f6b656e20616c7265616479206d696e746564000000006044820152606401610ba0565b6142ef6000838361405c565b6001600160a01b0382166000908152601560205260408120805460019290614318908490614c59565b909155505060008181526014602052604080822080546001600160a01b0319166001600160a01b03861690811790915590518392907fddf252ad1be2c89b69c2b068fc378daa952ba7f163c4a11628f55a4df523b3ef908290a45050565b6001600160a01b0383166143d1576143cc81601b80546000838152601c60205260408120829055600182018355919091527f3ad8aa4f87544323a9d1e5dd902f40c356527a7955687113db5f9a85ad579dc10155565b6143f4565b816001600160a01b0316836001600160a01b0316146143f4576143f48382614463565b6001600160a01b03821661440b57610cd681614500565b826001600160a01b0316826001600160a01b031614610cd657610cd682826145af565b60006001600160e01b03198216637965db0b60e01b1480610a9357506301ffc9a760e01b6001600160e01b0319831614610a93565b6000600161447084611404565b61447a9190614ca4565b6000838152601a60205260409020549091508082146144cd576001600160a01b03841660009081526019602090815260408083208584528252808320548484528184208190558352601a90915290208190555b506000918252601a602090815260408084208490556001600160a01b039094168352601981528383209183525290812055565b601b5460009061451290600190614ca4565b6000838152601c6020526040812054601b805493945090928490811061453a5761453a614daa565b9060005260206000200154905080601b838154811061455b5761455b614daa565b6000918252602080832090910192909255828152601c9091526040808220849055858252812055601b80548061459357614593614d94565b6001900381819060005260206000200160009055905550505050565b60006145ba83611404565b6001600160a01b0390931660009081526019602090815260408083208684528252808320859055938252601a9052919091209190915550565b8280546145ff90614cfe565b90600052602060002090601f0160209004810192826146215760008555614667565b82601f1061463a57805160ff1916838001178555614667565b82800160010185558215614667579182015b8281111561466757825182559160200191906001019061464c565b50614673929150614677565b5090565b5b808211156146735760008155600101614678565b600067ffffffffffffffff808411156146a7576146a7614dc0565b604051601f8501601f19908116603f011681019082821181831017156146cf576146cf614dc0565b816040528093508581528686860111156146e857600080fd5b858560208301376000602087830101525050509392505050565b60006020828403121561471457600080fd5b8135611a9181614dd6565b60006020828403121561473157600080fd5b8151611a9181614dd6565b6000806040838503121561474f57600080fd5b823561475a81614dd6565b9150602083013561476a81614dd6565b809150509250929050565b60008060006060848603121561478a57600080fd5b833561479581614dd6565b925060208401356147a581614dd6565b929592945050506040919091013590565b600080600080608085870312156147cc57600080fd5b84356147d781614dd6565b935060208501356147e781614dd6565b925060408501359150606085013567ffffffffffffffff81111561480a57600080fd5b8501601f8101871361481b57600080fd5b61482a8782356020840161468c565b91505092959194509250565b6000806040838503121561484957600080fd5b823561485481614dd6565b9150602083013561476a81614deb565b6000806040838503121561487757600080fd5b823561488281614dd6565b9150602083013567ffffffffffffffff81111561489e57600080fd5b8301601f810185136148af57600080fd5b6148be8582356020840161468c565b9150509250929050565b600080604083850312156148db57600080fd5b82356148e681614dd6565b946020939093013593505050565b60006020828403121561490657600080fd5b8135611a9181614deb565b60006020828403121561492357600080fd5b8151611a9181614deb565b60006020828403121561494057600080fd5b5035919050565b6000806040838503121561495a57600080fd5b82359150602083013561476a81614dd6565b6000806040838503121561497f57600080fd5b50508035926020909101359150565b6000602082840312156149a057600080fd5b8135611a9181614df9565b6000602082840312156149bd57600080fd5b8151611a9181614df9565b6000602082840312156149da57600080fd5b5051919050565b600081518084526149f9816020860160208601614cbb565b601f01601f19169290920160200192915050565b60008351614a1f818460208801614cbb565b835190830190614a33818360208801614cbb565b01949350505050565b7f416363657373436f6e74726f6c3a206163636f756e7420000000000000000000815260008351614a74816017850160208801614cbb565b7001034b99036b4b9b9b4b733903937b6329607d1b6017918401918201528351614aa5816028840160208801614cbb565b01602801949350505050565b6001600160a01b0385811682528416602082015260408101839052608060608201819052600090614ae4908301846149e1565b9695505050505050565b6001600160a01b0383168152604060208201819052600090611efc908301846149e1565b6020808252825182820181905260009190848201906040850190845b81811015614b4a57835183529284019291840191600101614b2e565b50909695505050505050565b602081526000611a9160208301846149e1565b60208082526032908201527f4552433732313a207472616e7366657220746f206e6f6e20455243373231526560408201527131b2b4bb32b91034b6b83632b6b2b73a32b960711b606082015260800190565b6020808252602d908201527f596f7520646f206e6f742068617665207065726d697373696f6e20746f206d6f60408201526c7665207468697320626164676560981b606082015260800190565b60208082526031908201527f4552433732313a207472616e736665722063616c6c6572206973206e6f74206f6040820152701ddb995c881b9bdc88185c1c1c9bdd9959607a1b606082015260800190565b60008219821115614c6c57614c6c614d68565b500190565b600082614c8057614c80614d7e565b500490565b6000816000190483118215151615614c9f57614c9f614d68565b500290565b600082821015614cb657614cb6614d68565b500390565b60005b83811015614cd6578181015183820152602001614cbe565b83811115610d805750506000910152565b600081614cf657614cf6614d68565b506000190190565b600181811c90821680614d1257607f821691505b60208210811415614d3357634e487b7160e01b600052602260045260246000fd5b50919050565b6000600019821415614d4d57614d4d614d68565b5060010190565b600082614d6357614d63614d7e565b500690565b634e487b7160e01b600052601160045260246000fd5b634e487b7160e01b600052601260045260246000fd5b634e487b7160e01b600052603160045260246000fd5b634e487b7160e01b600052603260045260246000fd5b634e487b7160e01b600052604160045260246000fd5b6001600160a01b0381168114610d2b57600080fd5b8015158114610d2b57600080fd5b6001600160e01b031981168114610d2b57600080fdfefa8e4989e1d689f7bc5c4b25b87efb51fecdecb19ba62847e29c759e12a89acd048bc71fa1cb2c119c339cf9cf00a97996a19a9d991ce5fe049f2fa5459e7990f0f4b159a6e2a4815eb3ca3df080bfa70c9270662c59bcaa4479a456220183e60538d24a8b7882d7b2e36af243d4af61c23e86e3daa6cb8c887b53220b2f57207c9d7f6f02908185bffb3f7fc9afb29fd7bf93675af8fd4b655ee05c2cee1e0ea2646970667358221220e470d88db1a359bbf0da18399690e6f8078209d483c0c990f5a501484598166964736f6c63430008060033",
  "immutableReferences": {},
  "source": "pragma solidity ^0.8.0;\n\nimport \"../src/GenericBadge.sol\";\n\n\ncontract BlueBadge is GenericBadge {\n\n\n     constructor(string memory badgeName, string memory badgeSymbol, bool doPayReciever, address _AddressManagerAddress)\n        GenericBadge(badgeName, badgeSymbol, doPayReciever, _AddressManagerAddress)\n    {\n    }      \n\n}",
  "sourcePath": "/home/n/Desktop/PinkSlips_FrontEnd_REFORMAT/contracts/badges/BlueBadge.sol",
  "compiler": {
    "name": "solc",
    "version": "0.8.6+commit.11564f7e.Emscripten.clang"
  },
  "schemaVersion": "3.4.1",
  "updatedAt": "2021-08-05T06:59:35.160Z",
  "devdoc": {
    "kind": "dev",
    "methods": {
      "approve(address,uint256)": {
        "details": "See {IERC721-approve}."
      },
      "balanceOf(address)": {
        "details": "See {IERC721-balanceOf}."
      },
      "getApproved(uint256)": {
        "details": "See {IERC721-getApproved}."
      },
      "getRoleAdmin(bytes32)": {
        "details": "Returns the admin role that controls `role`. See {grantRole} and {revokeRole}. To change a role's admin, use {_setRoleAdmin}."
      },
      "getRoleMember(bytes32,uint256)": {
        "details": "Returns one of the accounts that have `role`. `index` must be a value between 0 and {getRoleMemberCount}, non-inclusive. Role bearers are not sorted in any particular way, and their ordering may change at any point. WARNING: When using {getRoleMember} and {getRoleMemberCount}, make sure you perform all queries on the same block. See the following https://forum.openzeppelin.com/t/iterating-over-elements-on-enumerableset-in-openzeppelin-contracts/2296[forum post] for more information."
      },
      "getRoleMemberCount(bytes32)": {
        "details": "Returns the number of accounts that have `role`. Can be used together with {getRoleMember} to enumerate all bearers of a role."
      },
      "grantRole(bytes32,address)": {
        "details": "Overload {grantRole} to track enumerable memberships"
      },
      "hasRole(bytes32,address)": {
        "details": "Returns `true` if `account` has been granted `role`."
      },
      "isApprovedForAll(address,address)": {
        "details": "See {IERC721-isApprovedForAll}."
      },
      "issueBadge(address,string)": {
        "details": "//// Issuance Desk                                                                            ////"
      },
      "name()": {
        "details": "See {IERC721Metadata-name}."
      },
      "ownerOf(uint256)": {
        "details": "See {IERC721-ownerOf}."
      },
      "pause()": {
        "details": "//// Maintanence\\\\\\\\\\\\\\\\\\\\\\\\\\\\\\\\\\\\\\\\\\\\\\\\\\\\\\                                                   ////"
      },
      "paused()": {
        "details": "Returns true if the contract is paused, and false otherwise."
      },
      "renounceRole(bytes32,address)": {
        "details": "Overload {renounceRole} to track enumerable memberships"
      },
      "revokeRole(bytes32,address)": {
        "details": "Overload {revokeRole} to track enumerable memberships"
      },
      "safeTransferFrom(address,address,uint256)": {
        "details": "See {IERC721-safeTransferFrom}."
      },
      "safeTransferFrom(address,address,uint256,bytes)": {
        "details": "See {IERC721-safeTransferFrom}."
      },
      "setApprovalForAll(address,bool)": {
        "details": "See {IERC721-setApprovalForAll}."
      },
      "setMintingCost(uint256)": {
        "details": "//// Set Minting Costs                                                                        ////"
      },
      "symbol()": {
        "details": "See {IERC721Metadata-symbol}."
      },
      "tokenByIndex(uint256)": {
        "details": "See {IERC721Enumerable-tokenByIndex}."
      },
      "tokenOfOwnerByIndex(address,uint256)": {
        "details": "See {IERC721Enumerable-tokenOfOwnerByIndex}."
      },
      "tokenURI(uint256)": {
        "details": "See {IERC721Metadata-tokenURI}."
      },
      "totalSupply()": {
        "details": "See {IERC721Enumerable-totalSupply}."
      },
      "transferFrom(address,address,uint256)": {
        "details": "See {IERC721-transferFrom}."
      }
    },
    "version": 1
  },
  "userdoc": {
    "kind": "user",
    "methods": {},
    "version": 1
  }
}