{
  "contractName": "ChadBadges",
  "abi": [
    {
      "inputs": [
        {
          "internalType": "bool",
          "name": "doPayReciever",
          "type": "bool"
        },
        {
          "internalType": "address",
          "name": "_AddressManagerAddress",
          "type": "address"
        }
      ],
      "stateMutability": "nonpayable",
      "type": "constructor"
    },
    {
      "anonymous": false,
      "inputs": [
        {
          "indexed": true,
          "internalType": "address",
          "name": "owner",
          "type": "address"
        },
        {
          "indexed": true,
          "internalType": "address",
          "name": "approved",
          "type": "address"
        },
        {
          "indexed": true,
          "internalType": "uint256",
          "name": "tokenId",
          "type": "uint256"
        }
      ],
      "name": "Approval",
      "type": "event"
    },
    {
      "anonymous": false,
      "inputs": [
        {
          "indexed": true,
          "internalType": "address",
          "name": "owner",
          "type": "address"
        },
        {
          "indexed": true,
          "internalType": "address",
          "name": "operator",
          "type": "address"
        },
        {
          "indexed": false,
          "internalType": "bool",
          "name": "approved",
          "type": "bool"
        }
      ],
      "name": "ApprovalForAll",
      "type": "event"
    },
    {
      "anonymous": false,
      "inputs": [
        {
          "indexed": false,
          "internalType": "address",
          "name": "account",
          "type": "address"
        }
      ],
      "name": "Paused",
      "type": "event"
    },
    {
      "anonymous": false,
      "inputs": [
        {
          "indexed": true,
          "internalType": "bytes32",
          "name": "role",
          "type": "bytes32"
        },
        {
          "indexed": true,
          "internalType": "bytes32",
          "name": "previousAdminRole",
          "type": "bytes32"
        },
        {
          "indexed": true,
          "internalType": "bytes32",
          "name": "newAdminRole",
          "type": "bytes32"
        }
      ],
      "name": "RoleAdminChanged",
      "type": "event"
    },
    {
      "anonymous": false,
      "inputs": [
        {
          "indexed": true,
          "internalType": "bytes32",
          "name": "role",
          "type": "bytes32"
        },
        {
          "indexed": true,
          "internalType": "address",
          "name": "account",
          "type": "address"
        },
        {
          "indexed": true,
          "internalType": "address",
          "name": "sender",
          "type": "address"
        }
      ],
      "name": "RoleGranted",
      "type": "event"
    },
    {
      "anonymous": false,
      "inputs": [
        {
          "indexed": true,
          "internalType": "bytes32",
          "name": "role",
          "type": "bytes32"
        },
        {
          "indexed": true,
          "internalType": "address",
          "name": "account",
          "type": "address"
        },
        {
          "indexed": true,
          "internalType": "address",
          "name": "sender",
          "type": "address"
        }
      ],
      "name": "RoleRevoked",
      "type": "event"
    },
    {
      "anonymous": false,
      "inputs": [
        {
          "indexed": true,
          "internalType": "address",
          "name": "from",
          "type": "address"
        },
        {
          "indexed": true,
          "internalType": "address",
          "name": "to",
          "type": "address"
        },
        {
          "indexed": true,
          "internalType": "uint256",
          "name": "tokenId",
          "type": "uint256"
        }
      ],
      "name": "Transfer",
      "type": "event"
    },
    {
      "anonymous": false,
      "inputs": [
        {
          "indexed": false,
          "internalType": "address",
          "name": "account",
          "type": "address"
        }
      ],
      "name": "Unpaused",
      "type": "event"
    },
    {
      "inputs": [],
      "name": "AddressManagerAddress",
      "outputs": [
        {
          "internalType": "address",
          "name": "",
          "type": "address"
        }
      ],
      "stateMutability": "view",
      "type": "function",
      "constant": true
    },
    {
      "inputs": [
        {
          "internalType": "uint256",
          "name": "",
          "type": "uint256"
        }
      ],
      "name": "BadgeInfo",
      "outputs": [
        {
          "internalType": "address",
          "name": "gifter",
          "type": "address"
        },
        {
          "internalType": "string",
          "name": "reason",
          "type": "string"
        }
      ],
      "stateMutability": "view",
      "type": "function",
      "constant": true
    },
    {
      "inputs": [
        {
          "internalType": "address",
          "name": "",
          "type": "address"
        },
        {
          "internalType": "uint256",
          "name": "",
          "type": "uint256"
        }
      ],
      "name": "BadgesSent",
      "outputs": [
        {
          "internalType": "uint256",
          "name": "",
          "type": "uint256"
        }
      ],
      "stateMutability": "view",
      "type": "function",
      "constant": true
    },
    {
      "inputs": [],
      "name": "ChadBadgeAddress",
      "outputs": [
        {
          "internalType": "address",
          "name": "",
          "type": "address"
        }
      ],
      "stateMutability": "view",
      "type": "function",
      "constant": true
    },
    {
      "inputs": [],
      "name": "DEFAULT_ADMIN_ROLE",
      "outputs": [
        {
          "internalType": "bytes32",
          "name": "",
          "type": "bytes32"
        }
      ],
      "stateMutability": "view",
      "type": "function",
      "constant": true
    },
    {
      "inputs": [],
      "name": "GAVELS_BAILIFF",
      "outputs": [
        {
          "internalType": "bytes32",
          "name": "",
          "type": "bytes32"
        }
      ],
      "stateMutability": "view",
      "type": "function",
      "constant": true
    },
    {
      "inputs": [],
      "name": "GavelDAOAgent",
      "outputs": [
        {
          "internalType": "address",
          "name": "",
          "type": "address"
        }
      ],
      "stateMutability": "view",
      "type": "function",
      "constant": true
    },
    {
      "inputs": [],
      "name": "GavelTokenAddress",
      "outputs": [
        {
          "internalType": "address",
          "name": "",
          "type": "address"
        }
      ],
      "stateMutability": "view",
      "type": "function",
      "constant": true
    },
    {
      "inputs": [],
      "name": "GavelVote",
      "outputs": [
        {
          "internalType": "bool",
          "name": "",
          "type": "bool"
        }
      ],
      "stateMutability": "view",
      "type": "function",
      "constant": true
    },
    {
      "inputs": [],
      "name": "GoldStarAddress",
      "outputs": [
        {
          "internalType": "address",
          "name": "",
          "type": "address"
        }
      ],
      "stateMutability": "view",
      "type": "function",
      "constant": true
    },
    {
      "inputs": [],
      "name": "JERK_ROLE",
      "outputs": [
        {
          "internalType": "bytes32",
          "name": "",
          "type": "bytes32"
        }
      ],
      "stateMutability": "view",
      "type": "function",
      "constant": true
    },
    {
      "inputs": [],
      "name": "JURY_BAILIFF",
      "outputs": [
        {
          "internalType": "bytes32",
          "name": "",
          "type": "bytes32"
        }
      ],
      "stateMutability": "view",
      "type": "function",
      "constant": true
    },
    {
      "inputs": [],
      "name": "JuryDAOAgent",
      "outputs": [
        {
          "internalType": "address",
          "name": "",
          "type": "address"
        }
      ],
      "stateMutability": "view",
      "type": "function",
      "constant": true
    },
    {
      "inputs": [],
      "name": "JuryPoolAddress",
      "outputs": [
        {
          "internalType": "address",
          "name": "",
          "type": "address"
        }
      ],
      "stateMutability": "view",
      "type": "function",
      "constant": true
    },
    {
      "inputs": [],
      "name": "JuryVote",
      "outputs": [
        {
          "internalType": "bool",
          "name": "",
          "type": "bool"
        }
      ],
      "stateMutability": "view",
      "type": "function",
      "constant": true
    },
    {
      "inputs": [],
      "name": "MINI_BAILIFF_ROLE",
      "outputs": [
        {
          "internalType": "bytes32",
          "name": "",
          "type": "bytes32"
        }
      ],
      "stateMutability": "view",
      "type": "function",
      "constant": true
    },
    {
      "inputs": [],
      "name": "MiniBailiff",
      "outputs": [
        {
          "internalType": "address",
          "name": "",
          "type": "address"
        }
      ],
      "stateMutability": "view",
      "type": "function",
      "constant": true
    },
    {
      "inputs": [],
      "name": "PinkSlipAddress",
      "outputs": [
        {
          "internalType": "address",
          "name": "",
          "type": "address"
        }
      ],
      "stateMutability": "view",
      "type": "function",
      "constant": true
    },
    {
      "inputs": [],
      "name": "RedPenTokenAddress",
      "outputs": [
        {
          "internalType": "address",
          "name": "",
          "type": "address"
        }
      ],
      "stateMutability": "view",
      "type": "function",
      "constant": true
    },
    {
      "inputs": [],
      "name": "THE_COURT_ROLE",
      "outputs": [
        {
          "internalType": "bytes32",
          "name": "",
          "type": "bytes32"
        }
      ],
      "stateMutability": "view",
      "type": "function",
      "constant": true
    },
    {
      "inputs": [],
      "name": "TheCourtAddress",
      "outputs": [
        {
          "internalType": "address",
          "name": "",
          "type": "address"
        }
      ],
      "stateMutability": "view",
      "type": "function",
      "constant": true
    },
    {
      "inputs": [],
      "name": "TreasuryAddress",
      "outputs": [
        {
          "internalType": "address",
          "name": "",
          "type": "address"
        }
      ],
      "stateMutability": "view",
      "type": "function",
      "constant": true
    },
    {
      "inputs": [],
      "name": "addressManager",
      "outputs": [
        {
          "internalType": "contract AddressManager",
          "name": "",
          "type": "address"
        }
      ],
      "stateMutability": "view",
      "type": "function",
      "constant": true
    },
    {
      "inputs": [
        {
          "internalType": "address",
          "name": "to",
          "type": "address"
        },
        {
          "internalType": "uint256",
          "name": "tokenId",
          "type": "uint256"
        }
      ],
      "name": "approve",
      "outputs": [],
      "stateMutability": "nonpayable",
      "type": "function"
    },
    {
      "inputs": [],
      "name": "badgeColor",
      "outputs": [
        {
          "internalType": "string",
          "name": "",
          "type": "string"
        }
      ],
      "stateMutability": "view",
      "type": "function",
      "constant": true
    },
    {
      "inputs": [],
      "name": "badgeName",
      "outputs": [
        {
          "internalType": "string",
          "name": "",
          "type": "string"
        }
      ],
      "stateMutability": "view",
      "type": "function",
      "constant": true
    },
    {
      "inputs": [
        {
          "internalType": "address",
          "name": "owner",
          "type": "address"
        }
      ],
      "name": "balanceOf",
      "outputs": [
        {
          "internalType": "uint256",
          "name": "",
          "type": "uint256"
        }
      ],
      "stateMutability": "view",
      "type": "function",
      "constant": true
    },
    {
      "inputs": [
        {
          "internalType": "uint256",
          "name": "valueMustBe69",
          "type": "uint256"
        }
      ],
      "name": "destroyAndLockContract",
      "outputs": [
        {
          "internalType": "bool",
          "name": "",
          "type": "bool"
        }
      ],
      "stateMutability": "nonpayable",
      "type": "function"
    },
    {
      "inputs": [
        {
          "internalType": "uint256",
          "name": "tokenId",
          "type": "uint256"
        }
      ],
      "name": "getApproved",
      "outputs": [
        {
          "internalType": "address",
          "name": "",
          "type": "address"
        }
      ],
      "stateMutability": "view",
      "type": "function",
      "constant": true
    },
    {
      "inputs": [
        {
          "internalType": "uint256",
          "name": "_tokenId",
          "type": "uint256"
        }
      ],
      "name": "getBadgeReason",
      "outputs": [
        {
          "internalType": "string",
          "name": "_theReason",
          "type": "string"
        }
      ],
      "stateMutability": "view",
      "type": "function",
      "constant": true
    },
    {
      "inputs": [
        {
          "internalType": "uint256",
          "name": "_tokenId",
          "type": "uint256"
        }
      ],
      "name": "getBadgeSender",
      "outputs": [
        {
          "internalType": "address",
          "name": "_theGifter",
          "type": "address"
        }
      ],
      "stateMutability": "view",
      "type": "function",
      "constant": true
    },
    {
      "inputs": [
        {
          "internalType": "address",
          "name": "_gifter",
          "type": "address"
        }
      ],
      "name": "getBadgesSent",
      "outputs": [
        {
          "internalType": "uint256[]",
          "name": "_BadgesSent",
          "type": "uint256[]"
        }
      ],
      "stateMutability": "view",
      "type": "function",
      "constant": true
    },
    {
      "inputs": [
        {
          "internalType": "bytes32",
          "name": "role",
          "type": "bytes32"
        }
      ],
      "name": "getRoleAdmin",
      "outputs": [
        {
          "internalType": "bytes32",
          "name": "",
          "type": "bytes32"
        }
      ],
      "stateMutability": "view",
      "type": "function",
      "constant": true
    },
    {
      "inputs": [
        {
          "internalType": "bytes32",
          "name": "role",
          "type": "bytes32"
        },
        {
          "internalType": "uint256",
          "name": "index",
          "type": "uint256"
        }
      ],
      "name": "getRoleMember",
      "outputs": [
        {
          "internalType": "address",
          "name": "",
          "type": "address"
        }
      ],
      "stateMutability": "view",
      "type": "function",
      "constant": true
    },
    {
      "inputs": [
        {
          "internalType": "bytes32",
          "name": "role",
          "type": "bytes32"
        }
      ],
      "name": "getRoleMemberCount",
      "outputs": [
        {
          "internalType": "uint256",
          "name": "",
          "type": "uint256"
        }
      ],
      "stateMutability": "view",
      "type": "function",
      "constant": true
    },
    {
      "inputs": [
        {
          "internalType": "bytes32",
          "name": "role",
          "type": "bytes32"
        },
        {
          "internalType": "address",
          "name": "account",
          "type": "address"
        }
      ],
      "name": "grantRole",
      "outputs": [],
      "stateMutability": "nonpayable",
      "type": "function"
    },
    {
      "inputs": [
        {
          "internalType": "bytes32",
          "name": "role",
          "type": "bytes32"
        },
        {
          "internalType": "address",
          "name": "account",
          "type": "address"
        }
      ],
      "name": "hasRole",
      "outputs": [
        {
          "internalType": "bool",
          "name": "",
          "type": "bool"
        }
      ],
      "stateMutability": "view",
      "type": "function",
      "constant": true
    },
    {
      "inputs": [
        {
          "internalType": "address",
          "name": "owner",
          "type": "address"
        },
        {
          "internalType": "address",
          "name": "operator",
          "type": "address"
        }
      ],
      "name": "isApprovedForAll",
      "outputs": [
        {
          "internalType": "bool",
          "name": "",
          "type": "bool"
        }
      ],
      "stateMutability": "view",
      "type": "function",
      "constant": true
    },
    {
      "inputs": [
        {
          "internalType": "address",
          "name": "addressToCheck",
          "type": "address"
        },
        {
          "internalType": "uint256",
          "name": "badgeTokenID",
          "type": "uint256"
        }
      ],
      "name": "isBadgeSender",
      "outputs": [
        {
          "internalType": "bool",
          "name": "",
          "type": "bool"
        }
      ],
      "stateMutability": "nonpayable",
      "type": "function"
    },
    {
      "inputs": [],
      "name": "isForeverLocked",
      "outputs": [
        {
          "internalType": "bool",
          "name": "",
          "type": "bool"
        }
      ],
      "stateMutability": "view",
      "type": "function",
      "constant": true
    },
    {
      "inputs": [
        {
          "internalType": "address",
          "name": "receivingAddress",
          "type": "address"
        },
        {
          "internalType": "string",
          "name": "_reason",
          "type": "string"
        }
      ],
      "name": "issueBadge",
      "outputs": [
        {
          "internalType": "uint256",
          "name": "newId",
          "type": "uint256"
        }
      ],
      "stateMutability": "nonpayable",
      "type": "function"
    },
    {
      "inputs": [],
      "name": "jerkSanctions",
      "outputs": [
        {
          "internalType": "bool",
          "name": "",
          "type": "bool"
        }
      ],
      "stateMutability": "view",
      "type": "function",
      "constant": true
    },
    {
      "inputs": [],
      "name": "mintingCost",
      "outputs": [
        {
          "internalType": "uint256",
          "name": "",
          "type": "uint256"
        }
      ],
      "stateMutability": "view",
      "type": "function",
      "constant": true
    },
    {
      "inputs": [],
      "name": "mintingCostFloor",
      "outputs": [
        {
          "internalType": "uint256",
          "name": "",
          "type": "uint256"
        }
      ],
      "stateMutability": "view",
      "type": "function",
      "constant": true
    },
    {
      "inputs": [],
      "name": "name",
      "outputs": [
        {
          "internalType": "string",
          "name": "",
          "type": "string"
        }
      ],
      "stateMutability": "view",
      "type": "function",
      "constant": true
    },
    {
      "inputs": [
        {
          "internalType": "uint256",
          "name": "tokenId",
          "type": "uint256"
        }
      ],
      "name": "ownerOf",
      "outputs": [
        {
          "internalType": "address",
          "name": "",
          "type": "address"
        }
      ],
      "stateMutability": "view",
      "type": "function",
      "constant": true
    },
    {
      "inputs": [],
      "name": "pause",
      "outputs": [],
      "stateMutability": "nonpayable",
      "type": "function"
    },
    {
      "inputs": [],
      "name": "paused",
      "outputs": [
        {
          "internalType": "bool",
          "name": "",
          "type": "bool"
        }
      ],
      "stateMutability": "view",
      "type": "function",
      "constant": true
    },
    {
      "inputs": [],
      "name": "payItForwardTreasuryRatio_Divisor",
      "outputs": [
        {
          "internalType": "uint256",
          "name": "",
          "type": "uint256"
        }
      ],
      "stateMutability": "view",
      "type": "function",
      "constant": true
    },
    {
      "inputs": [],
      "name": "payItForwardTreasuryRatio_Numerator",
      "outputs": [
        {
          "internalType": "uint256",
          "name": "",
          "type": "uint256"
        }
      ],
      "stateMutability": "view",
      "type": "function",
      "constant": true
    },
    {
      "inputs": [],
      "name": "payReciver",
      "outputs": [
        {
          "internalType": "bool",
          "name": "",
          "type": "bool"
        }
      ],
      "stateMutability": "view",
      "type": "function",
      "constant": true
    },
    {
      "inputs": [],
      "name": "redPens",
      "outputs": [
        {
          "internalType": "contract ERC20",
          "name": "",
          "type": "address"
        }
      ],
      "stateMutability": "view",
      "type": "function",
      "constant": true
    },
    {
      "inputs": [
        {
          "internalType": "bool",
          "name": "thisIsNotReversible",
          "type": "bool"
        }
      ],
      "name": "refreshBadges",
      "outputs": [
        {
          "internalType": "bool",
          "name": "",
          "type": "bool"
        }
      ],
      "stateMutability": "nonpayable",
      "type": "function"
    },
    {
      "inputs": [
        {
          "internalType": "bytes32",
          "name": "role",
          "type": "bytes32"
        },
        {
          "internalType": "address",
          "name": "account",
          "type": "address"
        }
      ],
      "name": "renounceRole",
      "outputs": [],
      "stateMutability": "nonpayable",
      "type": "function"
    },
    {
      "inputs": [],
      "name": "resetVote",
      "outputs": [],
      "stateMutability": "nonpayable",
      "type": "function"
    },
    {
      "inputs": [
        {
          "internalType": "uint256",
          "name": "tokenId",
          "type": "uint256"
        }
      ],
      "name": "revokeBadge",
      "outputs": [],
      "stateMutability": "nonpayable",
      "type": "function"
    },
    {
      "inputs": [
        {
          "internalType": "bytes32",
          "name": "role",
          "type": "bytes32"
        },
        {
          "internalType": "address",
          "name": "account",
          "type": "address"
        }
      ],
      "name": "revokeRole",
      "outputs": [],
      "stateMutability": "nonpayable",
      "type": "function"
    },
    {
      "inputs": [
        {
          "internalType": "address",
          "name": "from",
          "type": "address"
        },
        {
          "internalType": "address",
          "name": "to",
          "type": "address"
        },
        {
          "internalType": "uint256",
          "name": "tokenId",
          "type": "uint256"
        }
      ],
      "name": "safeTransferFrom",
      "outputs": [],
      "stateMutability": "nonpayable",
      "type": "function"
    },
    {
      "inputs": [
        {
          "internalType": "address",
          "name": "from",
          "type": "address"
        },
        {
          "internalType": "address",
          "name": "to",
          "type": "address"
        },
        {
          "internalType": "uint256",
          "name": "tokenId",
          "type": "uint256"
        },
        {
          "internalType": "bytes",
          "name": "_data",
          "type": "bytes"
        }
      ],
      "name": "safeTransferFrom",
      "outputs": [],
      "stateMutability": "nonpayable",
      "type": "function"
    },
    {
      "inputs": [
        {
          "internalType": "address",
          "name": "operator",
          "type": "address"
        },
        {
          "internalType": "bool",
          "name": "approved",
          "type": "bool"
        }
      ],
      "name": "setApprovalForAll",
      "outputs": [],
      "stateMutability": "nonpayable",
      "type": "function"
    },
    {
      "inputs": [
        {
          "internalType": "uint256",
          "name": "costInWei",
          "type": "uint256"
        }
      ],
      "name": "setMintingCost",
      "outputs": [
        {
          "internalType": "bool",
          "name": "",
          "type": "bool"
        }
      ],
      "stateMutability": "nonpayable",
      "type": "function"
    },
    {
      "inputs": [
        {
          "internalType": "uint256",
          "name": "costFloorInWei",
          "type": "uint256"
        }
      ],
      "name": "setMintingCostFloor",
      "outputs": [
        {
          "internalType": "bool",
          "name": "",
          "type": "bool"
        }
      ],
      "stateMutability": "nonpayable",
      "type": "function"
    },
    {
      "inputs": [
        {
          "internalType": "bytes4",
          "name": "interfaceId",
          "type": "bytes4"
        }
      ],
      "name": "supportsInterface",
      "outputs": [
        {
          "internalType": "bool",
          "name": "",
          "type": "bool"
        }
      ],
      "stateMutability": "view",
      "type": "function",
      "constant": true
    },
    {
      "inputs": [],
      "name": "symbol",
      "outputs": [
        {
          "internalType": "string",
          "name": "",
          "type": "string"
        }
      ],
      "stateMutability": "view",
      "type": "function",
      "constant": true
    },
    {
      "inputs": [],
      "name": "syncAllRoles",
      "outputs": [],
      "stateMutability": "nonpayable",
      "type": "function"
    },
    {
      "inputs": [
        {
          "internalType": "bytes32",
          "name": "ROLE_TO_SYNC",
          "type": "bytes32"
        }
      ],
      "name": "syncSingleRole",
      "outputs": [],
      "stateMutability": "nonpayable",
      "type": "function"
    },
    {
      "inputs": [],
      "name": "syncVotes",
      "outputs": [],
      "stateMutability": "nonpayable",
      "type": "function"
    },
    {
      "inputs": [
        {
          "internalType": "uint256",
          "name": "index",
          "type": "uint256"
        }
      ],
      "name": "tokenByIndex",
      "outputs": [
        {
          "internalType": "uint256",
          "name": "",
          "type": "uint256"
        }
      ],
      "stateMutability": "view",
      "type": "function",
      "constant": true
    },
    {
      "inputs": [
        {
          "internalType": "address",
          "name": "owner",
          "type": "address"
        },
        {
          "internalType": "uint256",
          "name": "index",
          "type": "uint256"
        }
      ],
      "name": "tokenOfOwnerByIndex",
      "outputs": [
        {
          "internalType": "uint256",
          "name": "",
          "type": "uint256"
        }
      ],
      "stateMutability": "view",
      "type": "function",
      "constant": true
    },
    {
      "inputs": [
        {
          "internalType": "uint256",
          "name": "tokenId",
          "type": "uint256"
        }
      ],
      "name": "tokenURI",
      "outputs": [
        {
          "internalType": "string",
          "name": "",
          "type": "string"
        }
      ],
      "stateMutability": "view",
      "type": "function",
      "constant": true
    },
    {
      "inputs": [],
      "name": "totalSupply",
      "outputs": [
        {
          "internalType": "uint256",
          "name": "",
          "type": "uint256"
        }
      ],
      "stateMutability": "view",
      "type": "function",
      "constant": true
    },
    {
      "inputs": [
        {
          "internalType": "address",
          "name": "from",
          "type": "address"
        },
        {
          "internalType": "address",
          "name": "to",
          "type": "address"
        },
        {
          "internalType": "uint256",
          "name": "tokenId",
          "type": "uint256"
        }
      ],
      "name": "transferFrom",
      "outputs": [],
      "stateMutability": "nonpayable",
      "type": "function"
    },
    {
      "inputs": [],
      "name": "unpause",
      "outputs": [],
      "stateMutability": "nonpayable",
      "type": "function"
    },
    {
      "inputs": [],
      "name": "updateAddressManager",
      "outputs": [],
      "stateMutability": "nonpayable",
      "type": "function"
    },
    {
      "inputs": [],
      "name": "updateAllAddresses",
      "outputs": [],
      "stateMutability": "nonpayable",
      "type": "function"
    },
    {
      "inputs": [],
      "name": "updateAllRoles",
      "outputs": [],
      "stateMutability": "nonpayable",
      "type": "function"
    },
    {
      "inputs": [],
      "name": "updateDAOAddresses",
      "outputs": [],
      "stateMutability": "nonpayable",
      "type": "function"
    },
    {
      "inputs": [],
      "name": "updatePaymentToken",
      "outputs": [],
      "stateMutability": "nonpayable",
      "type": "function"
    },
    {
      "inputs": [
        {
          "internalType": "bytes32",
          "name": "ROLE_TO_UPDATE",
          "type": "bytes32"
        }
      ],
      "name": "updateSingleRole",
      "outputs": [],
      "stateMutability": "nonpayable",
      "type": "function"
    },
    {
      "inputs": [],
      "name": "updateTokenAddresses",
      "outputs": [],
      "stateMutability": "nonpayable",
      "type": "function"
    }
  ],
  "bytecode": "0x6080604052600e805463ffffffff60a01b191690556729a2241af62c0000601a5567016345785d8a0000601b556002601c556003601d556000601e55601f805460ff19169055600454602280546001600160a01b0319166001600160a01b039092169190911790553480156200007457600080fd5b5060405162005bc938038062005bc9833981016040819052620000979162000ce8565b604080518082018252600981526843686164426164676560b81b6020808301919091528251808401909352600483526310da185960e21b90830152600280546001600160a01b038086166001600160a01b03199283161792839055600e8054909216921691909117905590838383838262000111620002f0565b6200011b62000306565b600c5462000135906000906001600160a01b03166200044a565b600c546200016e907f0538d24a8b7882d7b2e36af243d4af61c23e86e3daa6cb8c887b53220b2f5720906001600160a01b03166200044a565b600954620001a7907f048bc71fa1cb2c119c339cf9cf00a97996a19a9d991ce5fe049f2fa5459e7990906001600160a01b03166200044a565b600a54620001e0907ffa8e4989e1d689f7bc5c4b25b87efb51fecdecb19ba62847e29c759e12a89acd906001600160a01b03166200044a565b600d5462000219907ff0f4b159a6e2a4815eb3ca3df080bfa70c9270662c59bcaa4479a456220183e6906001600160a01b03166200044a565b620002467f7c9d7f6f02908185bffb3f7fc9afb29fd7bf93675af8fd4b655ee05c2cee1e0e60006200044a565b5081516200025c90600f90602085019062000bda565b5080516200027290601090602084019062000bda565b50506015805460ff1916905550825162000293906020908186019062000bda565b508351620002a990602190602087019062000bda565b5050601f80549115156101000261ff00199092169190911790555050600454602280546001600160a01b0319166001600160a01b039092169190911790555062000d5c9050565b620002fa6200048d565b62000304620006f8565b565b600e60009054906101000a90046001600160a01b03166001600160a01b031663ff7e88ec6040518163ffffffff1660e01b815260040160206040518083038186803b1580156200035557600080fd5b505afa1580156200036a573d6000803e3d6000fd5b505050506040513d601f19601f8201168201806040525081019062000390919062000ccb565b600e8054911515600160a81b0260ff60a81b19909216919091179081905560408051632fb5658560e01b815290516001600160a01b0390921691632fb5658591600480820192602092909190829003018186803b158015620003f157600080fd5b505afa15801562000406573d6000803e3d6000fd5b505050506040513d601f19601f820116820180604052508101906200042c919062000ccb565b600e8054911515600160b01b0260ff60b01b19909216919091179055565b62000461828262000a8c60201b62001d2b1760201c565b60008281526001602090815260409091206200048891839062001d3562000a9c821b17901c565b505050565b600e60009054906101000a90046001600160a01b03166001600160a01b031663dadf56ac6040518163ffffffff1660e01b815260040160206040518083038186803b158015620004dc57600080fd5b505afa158015620004f1573d6000803e3d6000fd5b505050506040513d601f19601f8201168201806040525081019062000517919062000cae565b600980546001600160a01b0319166001600160a01b03928316179055600e546040805163024bebe960e01b81529051919092169163024bebe9916004808301926020929190829003018186803b1580156200057157600080fd5b505afa15801562000586573d6000803e3d6000fd5b505050506040513d601f19601f82011682018060405250810190620005ac919062000cae565b600a80546001600160a01b0319166001600160a01b03928316179055600e5460408051635b5c251f60e01b815290519190921691635b5c251f916004808301926020929190829003018186803b1580156200060657600080fd5b505afa1580156200061b573d6000803e3d6000fd5b505050506040513d601f19601f8201168201806040525081019062000641919062000cae565b600b80546001600160a01b0319166001600160a01b03928316179055600e5460408051637310bf1d60e11b81529051919092169163e6217e3a916004808301926020929190829003018186803b1580156200069b57600080fd5b505afa158015620006b0573d6000803e3d6000fd5b505050506040513d601f19601f82011682018060405250810190620006d6919062000cae565b600d80546001600160a01b0319166001600160a01b0392909216919091179055565b600e60009054906101000a90046001600160a01b03166001600160a01b03166321d7f0086040518163ffffffff1660e01b815260040160206040518083038186803b1580156200074757600080fd5b505afa1580156200075c573d6000803e3d6000fd5b505050506040513d601f19601f8201168201806040525081019062000782919062000cae565b600380546001600160a01b0319166001600160a01b03928316179055600e546040805163762ddb5960e01b81529051919092169163762ddb59916004808301926020929190829003018186803b158015620007dc57600080fd5b505afa158015620007f1573d6000803e3d6000fd5b505050506040513d601f19601f8201168201806040525081019062000817919062000cae565b600480546001600160a01b0319166001600160a01b03928316178155600e546040805163bfb7dc9960e01b81529051919093169263bfb7dc999281810192602092909190829003018186803b1580156200087057600080fd5b505afa15801562000885573d6000803e3d6000fd5b505050506040513d601f19601f82011682018060405250810190620008ab919062000cae565b600580546001600160a01b0319166001600160a01b03928316179055600e5460408051633e6111eb60e21b81529051919092169163f98447ac916004808301926020929190829003018186803b1580156200090557600080fd5b505afa1580156200091a573d6000803e3d6000fd5b505050506040513d601f19601f8201168201806040525081019062000940919062000cae565b600680546001600160a01b0319166001600160a01b03928316179055600e5460408051630fe1ba9f60e21b815290519190921691633f86ea7c916004808301926020929190829003018186803b1580156200099a57600080fd5b505afa158015620009af573d6000803e3d6000fd5b505050506040513d601f19601f82011682018060405250810190620009d5919062000cae565b600780546001600160a01b0319166001600160a01b03928316179055600e5460408051636b58477560e01b815290519190921691636b584775916004808301926020929190829003018186803b15801562000a2f57600080fd5b505afa15801562000a44573d6000803e3d6000fd5b505050506040513d601f19601f8201168201806040525081019062000a6a919062000cae565b600880546001600160a01b0319166001600160a01b0392909216919091179055565b62000a98828262000abc565b5050565b600062000ab3836001600160a01b03841662000b46565b90505b92915050565b62000ac8828262000b95565b62000a98576000828152602081815260408083206001600160a01b03851684529091529020805460ff1916600117905562000b0262000bbe565b6001600160a01b0316816001600160a01b0316837f2f8788117e7eff1d82e926ec794901d17c78024a50270940304540a733656f0d60405160405180910390a45050565b600062000b54838362000bc2565b62000b8c5750815460018181018455600084815260208082209093018490558454848252828601909352604090209190915562000ab6565b50600062000ab6565b6000918252602082815260408084206001600160a01b0393909316845291905290205460ff1690565b3390565b60009081526001919091016020526040902054151590565b82805462000be89062000d1f565b90600052602060002090601f01602090048101928262000c0c576000855562000c57565b82601f1062000c2757805160ff191683800117855562000c57565b8280016001018555821562000c57579182015b8281111562000c5757825182559160200191906001019062000c3a565b5062000c6592915062000c69565b5090565b5b8082111562000c65576000815560010162000c6a565b80516001600160a01b038116811462000c9857600080fd5b919050565b8051801515811462000c9857600080fd5b60006020828403121562000cc0578081fd5b62000ab38262000c80565b60006020828403121562000cdd578081fd5b62000ab38262000c9d565b6000806040838503121562000cfb578081fd5b62000d068362000c9d565b915062000d166020840162000c80565b90509250929050565b60028104600182168062000d3457607f821691505b6020821081141562000d5657634e487b7160e01b600052602260045260246000fd5b50919050565b614e5d8062000d6c6000396000f3fe608060405234801561001057600080fd5b50600436106104805760003560e01c80636b58477511610257578063c04e17e311610146578063e78c266c116100c3578063f1132b3011610087578063f1132b30146108a2578063f7d92d86146108aa578063f98447ac146108b2578063f98db253146108ba578063ff7e88ec146108cd57610480565b8063e78c266c14610864578063e985e9c51461086c578063e9a532301461087f578063ebf98abf14610887578063ee0b4c351461088f57610480565b8063cf4ece151161010a578063cf4ece1514610831578063d547741f14610839578063dadf56ac1461084c578063dea6f9c814610854578063e6217e3a1461085c57610480565b8063c04e17e3146107cf578063c62b28e8146107f0578063c87b56dd14610803578063ca15c87314610816578063cce843921461082957610480565b806391d14854116101d4578063a22cb46511610198578063a22cb46514610791578063a32c5e59146107a4578063a78e746f146107ac578063b88d4fde146107b4578063bfb7dc99146107c757610480565b806391d148541461075357806395d89b411461076657806396ac6bf01461076e5780639ac3eaa714610781578063a217fddf1461078957610480565b8063765160781161021b578063765160781461070a578063794ccf6c1461071d5780638456cb591461073057806387e9152d146107385780639010d07c1461074057610480565b80636b584775146106cc5780636c353e34146106d457806370a08231146106dc57806373c89822146106ef578063762ddb591461070257610480565b8063329a8cfa1161037357806357f276ff116102f05780635f413466116102b45780635f41346614610681578063610c3009146106895780636352211e1461069157806363ebc677146106a457806367a14f06146106c457610480565b806357f276ff1461064357806359e6f787146106565780635b5c251f146106695780635c975abb146106715780635db531a11461067957610480565b806340005bb91161033757806340005bb91461060557806342842e0e1461060d57806349b5e105146106205780634d84c6d8146106285780634f6ccce71461063057610480565b8063329a8cfa146105d257806336568abe146105da5780633ab76e9f146105ed5780633f4ba83a146105f55780633f86ea7c146105fd57610480565b806321d670e91161040157806329e63f35116103c557806329e63f35146105895780632f2ff15d1461059c5780632f745c59146105af5780632fb56585146105c2578063326a55e0146105ca57610480565b806321d670e91461054b57806321d7f0081461055357806323b872dd1461055b5780632436329d1461056e578063248a9ca31461057657610480565b80630ad17f8f116104485780630ad17f8f1461050057806310a83fcb14610520578063130f63201461052857806317314d5a1461053b57806318160ddd1461054357610480565b806301ffc9a714610485578063024bebe9146104ae57806306fdde03146104c3578063081812fc146104d8578063095ea7b3146104eb575b600080fd5b6104986104933660046141dc565b6108d5565b6040516104a591906143d9565b60405180910390f35b6104b66108e8565b6040516104a591906142fc565b6104cb6108f7565b6040516104a59190614412565b6104b66104e636600461417f565b610989565b6104fe6104f936600461411c565b6109d5565b005b61051361050e36600461411c565b610a6d565b6040516104a591906143e4565b610513610a9e565b6104fe61053636600461417f565b610aa4565b6104fe610abb565b610513610ac6565b610513610acc565b6104b6610ad2565b6104fe610569366004613fd1565b610ae1565b610513610b39565b61051361058436600461417f565b610b4b565b61049861059736600461417f565b610b60565b6104fe6105aa366004614197565b610c05565b6105136105bd36600461411c565b610c27565b610498610c7c565b6104fe610c8c565b6104fe610c9e565b6104fe6105e8366004614197565b610d7e565b6104b6610da0565b6104fe610daf565b6104b6610e19565b610498610e28565b6104fe61061b366004613fd1565b610e36565b6104fe610e9d565b6104fe610c94565b61051361063e36600461417f565b610ea5565b6104fe61065136600461417f565b610f00565b61049861066436600461411c565b610f09565b6104b6610f3b565b610498610f4a565b6104fe610f53565b6104b6610f5b565b6104cb610f6a565b6104b661069f36600461417f565b610ff8565b6106b76106b2366004613f61565b61102d565b6040516104a59190614395565b6104b6611099565b6104b66110a8565b6104fe6110b7565b6105136106ea366004613f61565b6110e3565b6104b66106fd36600461417f565b611127565b6104b6611142565b610498610718366004614147565b611151565b61051361072b3660046140bb565b61122f565b6104fe611657565b6105136116b1565b6104b661074e3660046141bb565b6116b7565b610498610761366004614197565b6116d6565b6104cb6116ff565b61049861077c36600461417f565b61170e565b6104986117f9565b610513611802565b6104fe61079f36600461408e565b611807565b610513611881565b610498611893565b6104fe6107c2366004614011565b6118a3565b6104b66118dc565b6107e26107dd36600461417f565b6118eb565b6040516104a5929190614371565b6104fe6107fe36600461417f565b61199a565b6104cb61081136600461417f565b6119c9565b61051361082436600461417f565b611a4b565b610513611a62565b610513611a74565b6104fe610847366004614197565b611a86565b6104b6611a90565b6104cb611a9f565b6104b6611aac565b6104b6611abb565b61049861087a366004613f99565b611aca565b610513611b29565b610513611b3b565b61049861089d36600461417f565b611b41565b6104fe611bde565b6104fe611be6565b6104b6611c71565b6104cb6108c836600461417f565b611c80565b610498611d1b565b60006108e082611d4a565b90505b919050565b600a546001600160a01b031681565b6060600f805461090690614ca2565b80601f016020809104026020016040519081016040528092919081815260200182805461093290614ca2565b801561097f5780601f106109545761010080835404028352916020019161097f565b820191906000526020600020905b81548152906001019060200180831161096257829003601f168201915b5050505050905090565b600061099482611d6f565b6109b95760405162461bcd60e51b81526004016109b090614929565b60405180910390fd5b506000908152601360205260409020546001600160a01b031690565b60006109e082610ff8565b9050806001600160a01b0316836001600160a01b03161415610a145760405162461bcd60e51b81526004016109b090614a5d565b806001600160a01b0316610a26611d8c565b6001600160a01b03161480610a425750610a428161087a611d8c565b610a5e5760405162461bcd60e51b81526004016109b0906147b9565b610a688383611d90565b505050565b60246020528160005260406000208181548110610a8957600080fd5b90600052602060002001600091509150505481565b601b5481565b610aad81611dce565b50610ab781611f43565b5050565b610ac36120c6565b50565b60185490565b601c5481565b6003546001600160a01b031681565b6000818152602360205260409020546001600160a01b031633811480610b0c5750610b0c8433611aca565b610b285760405162461bcd60e51b81526004016109b090614718565b610b3384848461220c565b50505050565b600080516020614d8883398151915281565b60009081526020819052604090206001015490565b6000610b7a600080516020614de8833981519152336116d6565b80610b985750610b98600080516020614da8833981519152336116d6565b80610bb65750610bb6600080516020614d88833981519152336116d6565b610bd25760405162461bcd60e51b81526004016109b0906144f4565b601b548210610bf35760405162461bcd60e51b81526004016109b090614aef565b610bfc82612244565b50600192915050565b610c0f828261224c565b6000828152600160205260409020610a689082611d35565b6000610c32836110e3565b8210610c505760405162461bcd60e51b81526004016109b09061454d565b506001600160a01b03821660009081526016602090815260408083208484529091529020545b92915050565b600e54600160b01b900460ff1681565b610c94612270565b610c9c6124cb565b565b610cb6600080516020614de8833981519152336116d6565b80610cd45750610cd4600080516020614da8833981519152336116d6565b80610cf25750610cf2600080516020614d88833981519152336116d6565b610d0e5760405162461bcd60e51b81526004016109b0906144f4565b600e60009054906101000a90046001600160a01b03166001600160a01b031663329a8cfa6040518163ffffffff1660e01b8152600401600060405180830381600087803b158015610d5e57600080fd5b505af1158015610d72573d6000803e3d6000fd5b50505050610c9c610f53565b610d888282612847565b6000828152600160205260409020610a689082612889565b600e546001600160a01b031681565b610dc7600080516020614da8833981519152336116d6565b80610de55750610de5600080516020614de8833981519152336116d6565b610e015760405162461bcd60e51b81526004016109b090614b7f565b601f5460ff1615610e1157600080fd5b610c9c61289e565b6007546001600160a01b031681565b601f54610100900460ff1681565b6000610e4182610ff8565b6000838152602360205260409020549091506001600160a01b031633811480610e6f5750610e6f8533611aca565b610e8b5760405162461bcd60e51b81526004016109b090614718565b610e9685858561290c565b5050505050565b610c9c612270565b6000610eaf610ac6565b8210610ecd5760405162461bcd60e51b81526004016109b090614b33565b60188281548110610eee57634e487b7160e01b600052603260045260246000fd5b90600052602060002001549050919050565b610ab781612927565b6000818152602360205260408120546001600160a01b0384811691161415610f3357506001610c76565b506000610c76565b600b546001600160a01b031681565b60155460ff1690565b610c9c612b5d565b600c546001600160a01b031681565b60218054610f7790614ca2565b80601f0160208091040260200160405190810160405280929190818152602001828054610fa390614ca2565b8015610ff05780601f10610fc557610100808354040283529160200191610ff0565b820191906000526020600020905b815481529060010190602001808311610fd357829003601f168201915b505050505081565b6000818152601160205260408120546001600160a01b0316806108e05760405162461bcd60e51b81526004016109b090614860565b6001600160a01b03811660009081526024602090815260409182902080548351818402810184019094528084526060939283018282801561108d57602002820191906000526020600020905b815481526020019060010190808311611079575b50505050509050919050565b6022546001600160a01b031681565b6008546001600160a01b031681565b6110bf6124cb565b600454602280546001600160a01b0319166001600160a01b03909216919091179055565b60006001600160a01b03821661110b5760405162461bcd60e51b81526004016109b090614816565b506001600160a01b031660009081526012602052604090205490565b6000908152602360205260409020546001600160a01b031690565b6004546001600160a01b031681565b600061116b600080516020614da8833981519152336116d6565b806111895750611189600080516020614d88833981519152336116d6565b806111a757506111a7600080516020614de8833981519152336116d6565b6111b057600080fd5b600e54600160b01b810460ff9081161515600160a81b90920416151514600114806111ee57506111ee600080516020614de8833981519152336116d6565b61120a5760405162461bcd60e51b81526004016109b0906144ca565b600182151514156112275761121d612c99565b50600190506108e3565b5060006108e3565b601f546000908390829060ff6101009091041615156001141561143a576000601d54601a5461125e9190614c15565b905080601c5461126e9190614c29565b6022546040516370a0823160e01b81526001600160a01b03909116906370a082319061129e9030906004016142fc565b60206040518083038186803b1580156112b657600080fd5b505afa1580156112ca573d6000803e3d6000fd5b505050506040513d601f19601f820116820180604052508101906112ee9190614214565b6112f89190614bfd565b602254601c549193506001600160a01b0316906323b872dd9033903090611320908690614c29565b6040518463ffffffff1660e01b815260040161133e93929190614310565b602060405180830381600087803b15801561135857600080fd5b505af115801561136c573d6000803e3d6000fd5b505050506040513d601f19601f820116820180604052508101906113909190614163565b50602254601c54601d546001600160a01b03909216916323b872dd91339187916113b991614c48565b6113c39086614c29565b6040518463ffffffff1660e01b81526004016113e193929190614310565b602060405180830381600087803b1580156113fb57600080fd5b505af115801561140f573d6000803e3d6000fd5b505050506040513d601f19601f820116820180604052508101906114339190614163565b5050611553565b601a546022546040516370a0823160e01b81526001600160a01b03909116906370a082319061146d9030906004016142fc565b60206040518083038186803b15801561148557600080fd5b505afa158015611499573d6000803e3d6000fd5b505050506040513d601f19601f820116820180604052508101906114bd9190614214565b6114c79190614bfd565b602254601a546040516323b872dd60e01b81529293506001600160a01b03909116916323b872dd916114ff9133913091600401614310565b602060405180830381600087803b15801561151957600080fd5b505af115801561152d573d6000803e3d6000fd5b505050506040513d601f19601f820116820180604052508101906115519190614163565b505b6022546040516370a0823160e01b815282916001600160a01b0316906370a08231906115839030906004016142fc565b60206040518083038186803b15801561159b57600080fd5b505afa1580156115af573d6000803e3d6000fd5b505050506040513d601f19601f820116820180604052508101906115d39190614214565b146115f05760405162461bcd60e51b81526004016109b090614621565b6001600160a01b038516331480159061161157506001600160a01b03851615155b61161a57600080fd5b601e54925061162a338585612cce565b61163685601e54612d3d565b6001601e60008282546116499190614bfd565b909155509295945050505050565b61166f600080516020614da8833981519152336116d6565b8061168d575061168d600080516020614de8833981519152336116d6565b6116a95760405162461bcd60e51b81526004016109b090614b7f565b610c9c612d57565b601d5481565b60008281526001602052604081206116cf9083612db2565b9392505050565b6000918252602082815260408084206001600160a01b0393909316845291905290205460ff1690565b60606010805461090690614ca2565b6000611728600080516020614da8833981519152336116d6565b806117465750611746600080516020614d88833981519152336116d6565b806117645750611764600080516020614de8833981519152336116d6565b61176d57600080fd5b600e54600160b01b810460ff9081161515600160a81b90920416151514600114806117ab57506117ab600080516020614de8833981519152336116d6565b6117c75760405162461bcd60e51b81526004016109b0906144ca565b8160451415611227576117d8612c99565b506117e1612d57565b50601f805460ff19166001179081905560ff166108e3565b601f5460ff1681565b600081565b61181f600080516020614de8833981519152336116d6565b8061183d575061183d600080516020614da8833981519152336116d6565b8061185b575061185b600080516020614d88833981519152336116d6565b6118775760405162461bcd60e51b81526004016109b090614718565b610ab78282612dbe565b600080516020614de883398151915281565b600e54600160a01b900460ff1681565b6118b46118ae611d8c565b83612e8c565b6118d05760405162461bcd60e51b81526004016109b090614a9e565b610b3384848484612ef9565b6005546001600160a01b031681565b602360205260009081526040902080546001820180546001600160a01b03909216929161191790614ca2565b80601f016020809104026020016040519081016040528092919081815260200182805461194390614ca2565b80156119905780601f1061196557610100808354040283529160200191611990565b820191906000526020600020905b81548152906001019060200180831161197357829003601f168201915b5050505050905082565b6119a43382612e8c565b6119c05760405162461bcd60e51b81526004016109b090614524565b610ac381612f2c565b60606119d482611d6f565b6119f05760405162461bcd60e51b81526004016109b0906149be565b60006119fa612fd3565b90506000815111611a1a57604051806020016040528060008152506116cf565b80611a2484612fe5565b604051602001611a35929190614258565b6040516020818303038152906040529392505050565b60008181526001602052604081206108e090613100565b600080516020614e0883398151915281565b600080516020614dc883398151915281565b610d88828261310b565b6009546001600160a01b031681565b60208054610f7790614ca2565b600d546001600160a01b031681565b6002546001600160a01b031681565b600080611ae5600080516020614de8833981519152846116d6565b80611b035750611b03600080516020614da8833981519152846116d6565b80611b215750611b21600080516020614d88833981519152846116d6565b949350505050565b600080516020614da883398151915281565b601a5481565b6000611b5b600080516020614de8833981519152336116d6565b80611b795750611b79600080516020614da8833981519152336116d6565b80611b975750611b97600080516020614d88833981519152336116d6565b611bb35760405162461bcd60e51b81526004016109b0906144f4565b601b54821015611bd55760405162461bcd60e51b81526004016109b0906148a9565b610bfc8261312a565b610c9c613132565b611bfd600080516020614de8833981519152612927565b50611c15600080516020614da8833981519152612927565b50611c2d600080516020614d88833981519152612927565b50611c45600080516020614dc8833981519152612927565b50611c5d600080516020614e08833981519152612927565b50611c686000612927565b50610c9c612b5d565b6006546001600160a01b031681565b6000818152602360205260409020600101805460609190611ca090614ca2565b80601f0160208091040260200160405190810160405280929190818152602001828054611ccc90614ca2565b801561108d5780601f10611cee5761010080835404028352916020019161108d565b820191906000526020600020905b815481529060010190602001808311611cfc5750939695505050505050565b600e54600160a81b900460ff1681565b610ab78282613269565b60006116cf836001600160a01b0384166132ee565b60006001600160e01b0319821663780e9d6360e01b14806108e057506108e082613330565b6000908152601160205260409020546001600160a01b0316151590565b3390565b611da8600080516020614de8833981519152336116d6565b611dc45760405162461bcd60e51b81526004016109b090614a0d565b610ab78282613370565b60405163ca15c87360e01b81526000908190309063ca15c87390611df69086906004016143e4565b60206040518083038186803b158015611e0e57600080fd5b505afa158015611e22573d6000803e3d6000fd5b505050506040513d601f19601f82011682018060405250810190611e469190614214565b905060005b81811015611f3957604051632404341f60e21b81526000903090639010d07c90611e7b9088908690600401614404565b60206040518083038186803b158015611e9357600080fd5b505afa158015611ea7573d6000803e3d6000fd5b505050506040513d601f19601f82011682018060405250810190611ecb9190613f7d565b60405163d547741f60e01b8152909150309063d547741f90611ef390889085906004016143ed565b600060405180830381600087803b158015611f0d57600080fd5b505af1158015611f21573d6000803e3d6000fd5b50505050508080611f3190614cdd565b915050611e4b565b5060019392505050565b600e5460405163ca15c87360e01b815260009182916001600160a01b039091169063ca15c87390611f789086906004016143e4565b60206040518083038186803b158015611f9057600080fd5b505afa158015611fa4573d6000803e3d6000fd5b505050506040513d601f19601f82011682018060405250810190611fc89190614214565b905060005b81811015611f3957600e54604051632404341f60e21b81526000916001600160a01b031690639010d07c906120089088908690600401614404565b60206040518083038186803b15801561202057600080fd5b505afa158015612034573d6000803e3d6000fd5b505050506040513d601f19601f820116820180604052508101906120589190613f7d565b604051632f2ff15d60e01b81529091503090632f2ff15d9061208090889085906004016143ed565b600060405180830381600087803b15801561209a57600080fd5b505af11580156120ae573d6000803e3d6000fd5b505050505080806120be90614cdd565b915050611fcd565b60006120df600080516020614de8833981519152611dce565b506120f7600080516020614de8833981519152611f43565b61210057600080fd5b612117600080516020614da8833981519152611dce565b5061212f600080516020614da8833981519152611f43565b61213857600080fd5b61214f600080516020614d88833981519152611dce565b50612167600080516020614d88833981519152611f43565b61217057600080fd5b612187600080516020614dc8833981519152611dce565b5061219f600080516020614dc8833981519152611f43565b6121a857600080fd5b6121bf600080516020614e08833981519152611dce565b506121d7600080516020614e08833981519152611f43565b6121e057600080fd5b6121ea6000611dce565b506121f56000611f43565b6121fe57600080fd5b612206612b5d565b50600190565b61221d612217611d8c565b82612e8c565b6122395760405162461bcd60e51b81526004016109b090614a9e565b610a688383836133de565b601b55600190565b61225582610b4b565b61226681612261611d8c565b61350b565b610a688383613269565b600e60009054906101000a90046001600160a01b03166001600160a01b031663dadf56ac6040518163ffffffff1660e01b815260040160206040518083038186803b1580156122be57600080fd5b505afa1580156122d2573d6000803e3d6000fd5b505050506040513d601f19601f820116820180604052508101906122f69190613f7d565b600980546001600160a01b0319166001600160a01b03928316179055600e546040805163024bebe960e01b81529051919092169163024bebe9916004808301926020929190829003018186803b15801561234f57600080fd5b505afa158015612363573d6000803e3d6000fd5b505050506040513d601f19601f820116820180604052508101906123879190613f7d565b600a80546001600160a01b0319166001600160a01b03928316179055600e5460408051635b5c251f60e01b815290519190921691635b5c251f916004808301926020929190829003018186803b1580156123e057600080fd5b505afa1580156123f4573d6000803e3d6000fd5b505050506040513d601f19601f820116820180604052508101906124189190613f7d565b600b80546001600160a01b0319166001600160a01b03928316179055600e5460408051637310bf1d60e11b81529051919092169163e6217e3a916004808301926020929190829003018186803b15801561247157600080fd5b505afa158015612485573d6000803e3d6000fd5b505050506040513d601f19601f820116820180604052508101906124a99190613f7d565b600d80546001600160a01b0319166001600160a01b0392909216919091179055565b600e60009054906101000a90046001600160a01b03166001600160a01b03166321d7f0086040518163ffffffff1660e01b815260040160206040518083038186803b15801561251957600080fd5b505afa15801561252d573d6000803e3d6000fd5b505050506040513d601f19601f820116820180604052508101906125519190613f7d565b600380546001600160a01b0319166001600160a01b03928316179055600e546040805163762ddb5960e01b81529051919092169163762ddb59916004808301926020929190829003018186803b1580156125aa57600080fd5b505afa1580156125be573d6000803e3d6000fd5b505050506040513d601f19601f820116820180604052508101906125e29190613f7d565b600480546001600160a01b0319166001600160a01b03928316178155600e546040805163bfb7dc9960e01b81529051919093169263bfb7dc999281810192602092909190829003018186803b15801561263a57600080fd5b505afa15801561264e573d6000803e3d6000fd5b505050506040513d601f19601f820116820180604052508101906126729190613f7d565b600580546001600160a01b0319166001600160a01b03928316179055600e5460408051633e6111eb60e21b81529051919092169163f98447ac916004808301926020929190829003018186803b1580156126cb57600080fd5b505afa1580156126df573d6000803e3d6000fd5b505050506040513d601f19601f820116820180604052508101906127039190613f7d565b600680546001600160a01b0319166001600160a01b03928316179055600e5460408051630fe1ba9f60e21b815290519190921691633f86ea7c916004808301926020929190829003018186803b15801561275c57600080fd5b505afa158015612770573d6000803e3d6000fd5b505050506040513d601f19601f820116820180604052508101906127949190613f7d565b600780546001600160a01b0319166001600160a01b03928316179055600e5460408051636b58477560e01b815290519190921691636b584775916004808301926020929190829003018186803b1580156127ed57600080fd5b505afa158015612801573d6000803e3d6000fd5b505050506040513d601f19601f820116820180604052508101906128259190613f7d565b600880546001600160a01b0319166001600160a01b0392909216919091179055565b61284f611d8c565b6001600160a01b0316816001600160a01b03161461287f5760405162461bcd60e51b81526004016109b090614bae565b610ab7828261356f565b60006116cf836001600160a01b0384166135f2565b6128a6610f4a565b6128c25760405162461bcd60e51b81526004016109b09061449c565b6015805460ff191690557f5db9ee0a495bf2e6ff9c91a7834c1ba4fdd244a5e8aa4e537bd38aeae4b073aa6128f5611d8c565b60405161290291906142fc565b60405180910390a1565b610a68838383604051806020016040528060008152506118a3565b600e5460405163ca15c87360e01b815260009182916001600160a01b039091169063ca15c8739061295c9086906004016143e4565b60206040518083038186803b15801561297457600080fd5b505afa158015612988573d6000803e3d6000fd5b505050506040513d601f19601f820116820180604052508101906129ac9190614214565b60405163ca15c87360e01b8152909150600090309063ca15c873906129d59087906004016143e4565b60206040518083038186803b1580156129ed57600080fd5b505afa158015612a01573d6000803e3d6000fd5b505050506040513d601f19601f82011682018060405250810190612a259190614214565b90506000612a338284614c48565b905060008111612a555760405162461bcd60e51b81526004016109b090614765565b60005b81811015612b5157600e54604051632404341f60e21b81526000916001600160a01b031690639010d07c90612a93908a908690600401614404565b60206040518083038186803b158015612aab57600080fd5b505afa158015612abf573d6000803e3d6000fd5b505050506040513d601f19601f82011682018060405250810190612ae39190613f7d565b604051632f2ff15d60e01b81529091503090632f2ff15d90612b0b908a9085906004016143ed565b600060405180830381600087803b158015612b2557600080fd5b505af1158015612b39573d6000803e3d6000fd5b50505050508080612b4990614cdd565b915050612a58565b50600195945050505050565b600e60009054906101000a90046001600160a01b03166001600160a01b031663ff7e88ec6040518163ffffffff1660e01b815260040160206040518083038186803b158015612bab57600080fd5b505afa158015612bbf573d6000803e3d6000fd5b505050506040513d601f19601f82011682018060405250810190612be39190614163565b600e8054911515600160a81b0260ff60a81b19909216919091179081905560408051632fb5658560e01b815290516001600160a01b0390921691632fb5658591600480820192602092909190829003018186803b158015612c4357600080fd5b505afa158015612c57573d6000803e3d6000fd5b505050506040513d601f19601f82011682018060405250810190612c7b9190614163565b600e8054911515600160b01b0260ff60b01b19909216919091179055565b6000805b601e54811015612cc257612cb081612f2c565b80612cba81614cdd565b915050612c9d565b50506000601e55600190565b600081815260236020908152604090912080546001600160a01b0319166001600160a01b0386161781558351612d0c92600190920191850190613e58565b506001600160a01b039092166000908152602460209081526040822080546001810182559083529120019190915550565b610ab7828260405180602001604052806000815250613709565b612d5f610f4a565b15612d7c5760405162461bcd60e51b81526004016109b09061478f565b6015805460ff191660011790557f62e78cea01bee320cd4e420270b5ea74000d11b0c9f74754ebdbfc544b05a2586128f5611d8c565b60006116cf838361373c565b612dc6611d8c565b6001600160a01b0316826001600160a01b03161415612df75760405162461bcd60e51b81526004016109b090614695565b8060146000612e04611d8c565b6001600160a01b03908116825260208083019390935260409182016000908120918716808252919093529120805460ff191692151592909217909155612e48611d8c565b6001600160a01b03167f17307eab39ab6107e8899845ad3d59bd9653f200f220920489ca2b5937696c3183604051612e8091906143d9565b60405180910390a35050565b6000612e9782611d6f565b612eb35760405162461bcd60e51b81526004016109b0906146cc565b6000612ebe83610ff8565b6000848152602360205260409020549091506001600160a01b03908116908516811480612ef05750612ef08286611aca565b95945050505050565b612f048484846133de565b612f1084848484613795565b610b335760405162461bcd60e51b81526004016109b090614598565b6000612f3782610ff8565b9050612f45816000846138b0565b612f50600083611d90565b6001600160a01b0381166000908152601260205260408120805460019290612f79908490614c48565b909155505060008281526011602052604080822080546001600160a01b0319169055518391906001600160a01b038416907fddf252ad1be2c89b69c2b068fc378daa952ba7f163c4a11628f55a4df523b3ef908390a45050565b60408051602081019091526000815290565b60608161300a57506040805180820190915260018152600360fc1b60208201526108e3565b8160005b8115613034578061301e81614cdd565b915061302d9050600a83614c15565b915061300e565b60008167ffffffffffffffff81111561305d57634e487b7160e01b600052604160045260246000fd5b6040519080825280601f01601f191660200182016040528015613087576020820181803683370190505b5090505b8415611b215761309c600183614c48565b91506130a9600a86614cf8565b6130b4906030614bfd565b60f81b8183815181106130d757634e487b7160e01b600052603260045260246000fd5b60200101906001600160f81b031916908160001a9053506130f9600a86614c15565b945061308b565b60006108e0826138bb565b61311482610b4b565b61312081612261611d8c565b610a68838361356f565b601a55600190565b600e60009054906101000a90046001600160a01b03166001600160a01b031663a44b93256040518163ffffffff1660e01b815260040160206040518083038186803b15801561318057600080fd5b505afa158015613194573d6000803e3d6000fd5b505050506040513d601f19601f820116820180604052508101906131b89190614163565b6131c157600080fd5b600e60009054906101000a90046001600160a01b03166001600160a01b031663ac7cfac36040518163ffffffff1660e01b815260040160206040518083038186803b15801561320f57600080fd5b505afa158015613223573d6000803e3d6000fd5b505050506040513d601f19601f820116820180604052508101906132479190613f7d565b600280546001600160a01b0319166001600160a01b0392909216919091179055565b61327382826116d6565b610ab7576000828152602081815260408083206001600160a01b03851684529091529020805460ff191660011790556132aa611d8c565b6001600160a01b0316816001600160a01b0316837f2f8788117e7eff1d82e926ec794901d17c78024a50270940304540a733656f0d60405160405180910390a45050565b60006132fa83836138bf565b610f3357508154600181810184556000848152602080822090930184905584548482528286019093526040902091909155610c76565b60006001600160e01b031982166380ac58cd60e01b148061336157506001600160e01b03198216635b5e139f60e01b145b806108e057506108e0826138d7565b600081815260136020526040902080546001600160a01b0319166001600160a01b03841690811790915581906133a582610ff8565b6001600160a01b03167f8c5be1e5ebec7d5bd14f71427d1e84f3dd0314c0f7b2291e5b200ac8c7c3b92560405160405180910390a45050565b826001600160a01b03166133f182610ff8565b6001600160a01b0316146134175760405162461bcd60e51b81526004016109b090614975565b6001600160a01b03821661343d5760405162461bcd60e51b81526004016109b090614651565b6134488383836138b0565b613453600082611d90565b6001600160a01b038316600090815260126020526040812080546001929061347c908490614c48565b90915550506001600160a01b03821660009081526012602052604081208054600192906134aa908490614bfd565b909155505060008181526011602052604080822080546001600160a01b0319166001600160a01b0386811691821790925591518493918716917fddf252ad1be2c89b69c2b068fc378daa952ba7f163c4a11628f55a4df523b3ef91a4505050565b61351582826116d6565b610ab75761352d816001600160a01b031660146138fc565b6135388360206138fc565b604051602001613549929190614287565b60408051601f198184030181529082905262461bcd60e51b82526109b091600401614412565b61357982826116d6565b15610ab7576000828152602081815260408083206001600160a01b03851684529091529020805460ff191690556135ae611d8c565b6001600160a01b0316816001600160a01b0316837ff6391f5c32d9c69d2a47ea670b442974b53935d1edc7fd64eb21e047a839171b60405160405180910390a45050565b600081815260018301602052604081205480156136ff576000613616600183614c48565b855490915060009061362a90600190614c48565b9050600086600001828154811061365157634e487b7160e01b600052603260045260246000fd5b906000526020600020015490508087600001848154811061368257634e487b7160e01b600052603260045260246000fd5b6000918252602080832090910192909255828152600189019091526040902084905586548790806136c357634e487b7160e01b600052603160045260246000fd5b60019003818190600052602060002001600090559055866001016000878152602001908152602001600020600090556001945050505050610c76565b6000915050610c76565b6137138383613aae565b6137206000848484613795565b610a685760405162461bcd60e51b81526004016109b090614598565b8154600090821061375f5760405162461bcd60e51b81526004016109b090614425565b82600001828154811061378257634e487b7160e01b600052603260045260246000fd5b9060005260206000200154905092915050565b60006137a9846001600160a01b0316613b8d565b156138a557836001600160a01b031663150b7a026137c5611d8c565b8786866040518563ffffffff1660e01b81526004016137e79493929190614334565b602060405180830381600087803b15801561380157600080fd5b505af1925050508015613831575060408051601f3d908101601f1916820190925261382e918101906141f8565b60015b61388b573d80801561385f576040519150601f19603f3d011682016040523d82523d6000602084013e613864565b606091505b5080516138835760405162461bcd60e51b81526004016109b090614598565b805181602001fd5b6001600160e01b031916630a85bd0160e11b149050611b21565b506001949350505050565b610a68838383613b93565b5490565b60009081526001919091016020526040902054151590565b60006001600160e01b03198216635a05180f60e01b14806108e057506108e082613c1c565b6060600061390b836002614c29565b613916906002614bfd565b67ffffffffffffffff81111561393c57634e487b7160e01b600052604160045260246000fd5b6040519080825280601f01601f191660200182016040528015613966576020820181803683370190505b509050600360fc1b8160008151811061398f57634e487b7160e01b600052603260045260246000fd5b60200101906001600160f81b031916908160001a905350600f60fb1b816001815181106139cc57634e487b7160e01b600052603260045260246000fd5b60200101906001600160f81b031916908160001a90535060006139f0846002614c29565b6139fb906001614bfd565b90505b6001811115613a8f576f181899199a1a9b1b9c1cb0b131b232b360811b85600f1660108110613a3d57634e487b7160e01b600052603260045260246000fd5b1a60f81b828281518110613a6157634e487b7160e01b600052603260045260246000fd5b60200101906001600160f81b031916908160001a90535060049490941c93613a8881614c8b565b90506139fe565b5083156116cf5760405162461bcd60e51b81526004016109b090614467565b6001600160a01b038216613ad45760405162461bcd60e51b81526004016109b0906148f4565b613add81611d6f565b15613afa5760405162461bcd60e51b81526004016109b0906145ea565b613b06600083836138b0565b6001600160a01b0382166000908152601260205260408120805460019290613b2f908490614bfd565b909155505060008181526011602052604080822080546001600160a01b0319166001600160a01b03861690811790915590518392907fddf252ad1be2c89b69c2b068fc378daa952ba7f163c4a11628f55a4df523b3ef908290a45050565b3b151590565b613b9e838383610a68565b6001600160a01b038316613bba57613bb581613c41565b613bdd565b816001600160a01b0316836001600160a01b031614613bdd57613bdd8382613c85565b6001600160a01b038216613bf957613bf481613d22565b610a68565b826001600160a01b0316826001600160a01b031614610a6857610a688282613dfb565b60006001600160e01b03198216637965db0b60e01b14806108e057506108e082613e3f565b601880546000838152601960205260408120829055600182018355919091527fb13d2d76d1f4b7be834882e410b3e3a8afaf69f83600ae24db354391d2378d2e0155565b60006001613c92846110e3565b613c9c9190614c48565b600083815260176020526040902054909150808214613cef576001600160a01b03841660009081526016602090815260408083208584528252808320548484528184208190558352601790915290208190555b5060009182526017602090815260408084208490556001600160a01b039094168352601681528383209183525290812055565b601854600090613d3490600190614c48565b60008381526019602052604081205460188054939450909284908110613d6a57634e487b7160e01b600052603260045260246000fd5b906000526020600020015490508060188381548110613d9957634e487b7160e01b600052603260045260246000fd5b6000918252602080832090910192909255828152601990915260408082208490558582528120556018805480613ddf57634e487b7160e01b600052603160045260246000fd5b6001900381819060005260206000200160009055905550505050565b6000613e06836110e3565b6001600160a01b039093166000908152601660209081526040808320868452825280832085905593825260179052919091209190915550565b6001600160e01b031981166301ffc9a760e01b14919050565b828054613e6490614ca2565b90600052602060002090601f016020900481019282613e865760008555613ecc565b82601f10613e9f57805160ff1916838001178555613ecc565b82800160010185558215613ecc579182015b82811115613ecc578251825591602001919060010190613eb1565b50613ed8929150613edc565b5090565b5b80821115613ed85760008155600101613edd565b600067ffffffffffffffff80841115613f0c57613f0c614d38565b604051601f8501601f191681016020018281118282101715613f3057613f30614d38565b604052848152915081838501861015613f4857600080fd5b8484602083013760006020868301015250509392505050565b600060208284031215613f72578081fd5b81356116cf81614d4e565b600060208284031215613f8e578081fd5b81516116cf81614d4e565b60008060408385031215613fab578081fd5b8235613fb681614d4e565b91506020830135613fc681614d4e565b809150509250929050565b600080600060608486031215613fe5578081fd5b8335613ff081614d4e565b9250602084013561400081614d4e565b929592945050506040919091013590565b60008060008060808587031215614026578081fd5b843561403181614d4e565b9350602085013561404181614d4e565b925060408501359150606085013567ffffffffffffffff811115614063578182fd5b8501601f81018713614073578182fd5b61408287823560208401613ef1565b91505092959194509250565b600080604083850312156140a0578182fd5b82356140ab81614d4e565b91506020830135613fc681614d63565b600080604083850312156140cd578182fd5b82356140d881614d4e565b9150602083013567ffffffffffffffff8111156140f3578182fd5b8301601f81018513614103578182fd5b61411285823560208401613ef1565b9150509250929050565b6000806040838503121561412e578182fd5b823561413981614d4e565b946020939093013593505050565b600060208284031215614158578081fd5b81356116cf81614d63565b600060208284031215614174578081fd5b81516116cf81614d63565b600060208284031215614190578081fd5b5035919050565b600080604083850312156141a9578182fd5b823591506020830135613fc681614d4e565b600080604083850312156141cd578182fd5b50508035926020909101359150565b6000602082840312156141ed578081fd5b81356116cf81614d71565b600060208284031215614209578081fd5b81516116cf81614d71565b600060208284031215614225578081fd5b5051919050565b60008151808452614244816020860160208601614c5f565b601f01601f19169290920160200192915050565b6000835161426a818460208801614c5f565b83519083019061427e818360208801614c5f565b01949350505050565b60007f416363657373436f6e74726f6c3a206163636f756e7420000000000000000000825283516142bf816017850160208801614c5f565b7001034b99036b4b9b9b4b733903937b6329607d1b60179184019182015283516142f0816028840160208801614c5f565b01602801949350505050565b6001600160a01b0391909116815260200190565b6001600160a01b039384168152919092166020820152604081019190915260600190565b6001600160a01b03858116825284166020820152604081018390526080606082018190526000906143679083018461422c565b9695505050505050565b6001600160a01b0383168152604060208201819052600090611b219083018461422c565b6020808252825182820181905260009190848201906040850190845b818110156143cd578351835292840192918401916001016143b1565b50909695505050505050565b901515815260200190565b90815260200190565b9182526001600160a01b0316602082015260400190565b918252602082015260400190565b6000602082526116cf602083018461422c565b60208082526022908201527f456e756d657261626c655365743a20696e646578206f7574206f6620626f756e604082015261647360f01b606082015260800190565b6020808252818101527f537472696e67733a20686578206c656e67746820696e73756666696369656e74604082015260600190565b60208082526014908201527314185d5cd8589b194e881b9bdd081c185d5cd95960621b604082015260600190565b60208082526010908201526f436f757274204d75737420416772656560801b604082015260600190565b6020808252601690820152752cb7ba93b932903737ba103a3432903130b4b634b33360511b604082015260600190565b6020808252600f908201526e4e696365205472792c204275636b6f60881b604082015260600190565b6020808252602b908201527f455243373231456e756d657261626c653a206f776e657220696e646578206f7560408201526a74206f6620626f756e647360a81b606082015260800190565b60208082526032908201527f4552433732313a207472616e7366657220746f206e6f6e20455243373231526560408201527131b2b4bb32b91034b6b83632b6b2b73a32b960711b606082015260800190565b6020808252601c908201527f4552433732313a20746f6b656e20616c7265616479206d696e74656400000000604082015260600190565b602080825260169082015275115c9c9bdc88151c985b9cd9995c9a5b99c80854915160521b604082015260600190565b60208082526024908201527f4552433732313a207472616e7366657220746f20746865207a65726f206164646040820152637265737360e01b606082015260800190565b60208082526019908201527f4552433732313a20617070726f766520746f2063616c6c657200000000000000604082015260600190565b6020808252602c908201527f4552433732313a206f70657261746f7220717565727920666f72206e6f6e657860408201526b34b9ba32b73a103a37b5b2b760a11b606082015260800190565b6020808252602d908201527f596f7520646f206e6f742068617665207065726d697373696f6e20746f206d6f60408201526c7665207468697320626164676560981b606082015260800190565b60208082526010908201526f4e6f7468696e6720746f2073796e632160801b604082015260600190565b60208082526010908201526f14185d5cd8589b194e881c185d5cd95960821b604082015260600190565b60208082526038908201527f4552433732313a20617070726f76652063616c6c6572206973206e6f74206f7760408201527f6e6572206e6f7220617070726f76656420666f7220616c6c0000000000000000606082015260800190565b6020808252602a908201527f4552433732313a2062616c616e636520717565727920666f7220746865207a65604082015269726f206164647265737360b01b606082015260800190565b60208082526029908201527f4552433732313a206f776e657220717565727920666f72206e6f6e657869737460408201526832b73a103a37b5b2b760b91b606082015260800190565b6020808252602b908201527f536f7272792120436f7374206d7573742062652067726561746572207468616e60408201526a10181718902932b22832b760a91b606082015260800190565b6020808252818101527f4552433732313a206d696e7420746f20746865207a65726f2061646472657373604082015260600190565b6020808252602c908201527f4552433732313a20617070726f76656420717565727920666f72206e6f6e657860408201526b34b9ba32b73a103a37b5b2b760a11b606082015260800190565b60208082526029908201527f4552433732313a207472616e73666572206f6620746f6b656e2074686174206960408201526839903737ba1037bbb760b91b606082015260800190565b6020808252602f908201527f4552433732314d657461646174613a2055524920717565727920666f72206e6f60408201526e3732bc34b9ba32b73a103a37b5b2b760891b606082015260800190565b60208082526030908201527f596f7520646f206e6f742068617665207065726d697373696f6e20746f20617060408201526f70726f7665207468697320626164676560801b606082015260800190565b60208082526021908201527f4552433732313a20617070726f76616c20746f2063757272656e74206f776e656040820152603960f91b606082015260800190565b60208082526031908201527f4552433732313a207472616e736665722063616c6c6572206973206e6f74206f6040820152701ddb995c881b9bdc88185c1c1c9bdd9959607a1b606082015260800190565b60208082526024908201527f536f7272792120596f752063616e206f6e6c79206c6f7765722074686520666c6040820152636f6f722160e01b606082015260800190565b6020808252602c908201527f455243373231456e756d657261626c653a20676c6f62616c20696e646578206f60408201526b7574206f6620626f756e647360a01b606082015260800190565b602080825260159082015274596f75277265206e6f742074686520476176656c7360581b604082015260600190565b6020808252602f908201527f416363657373436f6e74726f6c3a2063616e206f6e6c792072656e6f756e636560408201526e103937b632b9903337b91039b2b63360891b606082015260800190565b60008219821115614c1057614c10614d0c565b500190565b600082614c2457614c24614d22565b500490565b6000816000190483118215151615614c4357614c43614d0c565b500290565b600082821015614c5a57614c5a614d0c565b500390565b60005b83811015614c7a578181015183820152602001614c62565b83811115610b335750506000910152565b600081614c9a57614c9a614d0c565b506000190190565b600281046001821680614cb657607f821691505b60208210811415614cd757634e487b7160e01b600052602260045260246000fd5b50919050565b6000600019821415614cf157614cf1614d0c565b5060010190565b600082614d0757614d07614d22565b500690565b634e487b7160e01b600052601160045260246000fd5b634e487b7160e01b600052601260045260246000fd5b634e487b7160e01b600052604160045260246000fd5b6001600160a01b0381168114610ac357600080fd5b8015158114610ac357600080fd5b6001600160e01b031981168114610ac357600080fdfefa8e4989e1d689f7bc5c4b25b87efb51fecdecb19ba62847e29c759e12a89acd048bc71fa1cb2c119c339cf9cf00a97996a19a9d991ce5fe049f2fa5459e7990f0f4b159a6e2a4815eb3ca3df080bfa70c9270662c59bcaa4479a456220183e60538d24a8b7882d7b2e36af243d4af61c23e86e3daa6cb8c887b53220b2f57207c9d7f6f02908185bffb3f7fc9afb29fd7bf93675af8fd4b655ee05c2cee1e0ea264697066735822122098b3eb3c4d9454a55e4e18311e49fde3dc94724496f846bec81aed067047b80b64736f6c63430008000033",
  "immutableReferences": {},
  "source": "pragma solidity ^0.8.0;\n\nimport \"../src/GenericBadge.sol\";\n\n\ncontract ChadBadges is GenericBadge {\n\n\n     constructor( bool doPayReciever, address _AddressManagerAddress)\n        GenericBadge(\"ChadBadge\", \"Chad\", doPayReciever, _AddressManagerAddress)\n    {\n    }      \n\n}",
  "sourcePath": "/home/n/Desktop/v3_fronternd/PinkSlips_FrontEnd_ROUGH/contracts/badges/ChadBadges.sol",
  "compiler": {
    "name": "solc",
    "version": "0.8.0+commit.c7dfd78e.Emscripten.clang"
  },
  "schemaVersion": "3.4.1",
  "updatedAt": "2021-07-05T09:25:31.548Z",
  "networkType": "ethereum",
  "devdoc": {
    "kind": "dev",
    "methods": {
      "approve(address,uint256)": {
        "details": "See {IERC721-approve}."
      },
      "balanceOf(address)": {
        "details": "See {IERC721-balanceOf}."
      },
      "getApproved(uint256)": {
        "details": "See {IERC721-getApproved}."
      },
      "getRoleAdmin(bytes32)": {
        "details": "Returns the admin role that controls `role`. See {grantRole} and {revokeRole}. To change a role's admin, use {_setRoleAdmin}."
      },
      "getRoleMember(bytes32,uint256)": {
        "details": "Returns one of the accounts that have `role`. `index` must be a value between 0 and {getRoleMemberCount}, non-inclusive. Role bearers are not sorted in any particular way, and their ordering may change at any point. WARNING: When using {getRoleMember} and {getRoleMemberCount}, make sure you perform all queries on the same block. See the following https://forum.openzeppelin.com/t/iterating-over-elements-on-enumerableset-in-openzeppelin-contracts/2296[forum post] for more information."
      },
      "getRoleMemberCount(bytes32)": {
        "details": "Returns the number of accounts that have `role`. Can be used together with {getRoleMember} to enumerate all bearers of a role."
      },
      "grantRole(bytes32,address)": {
        "details": "Overload {grantRole} to track enumerable memberships"
      },
      "hasRole(bytes32,address)": {
        "details": "Returns `true` if `account` has been granted `role`."
      },
      "isApprovedForAll(address,address)": {
        "details": "See {IERC721-isApprovedForAll}."
      },
      "issueBadge(address,string)": {
        "details": "//// Issuance Desk                                                                            ////"
      },
      "name()": {
        "details": "See {IERC721Metadata-name}."
      },
      "ownerOf(uint256)": {
        "details": "See {IERC721-ownerOf}."
      },
      "pause()": {
        "details": "//// Maintanence\\\\\\\\\\\\\\\\\\\\\\\\\\\\\\\\\\\\\\\\\\\\\\\\\\\\\\                                                   ////"
      },
      "paused()": {
        "details": "Returns true if the contract is paused, and false otherwise."
      },
      "renounceRole(bytes32,address)": {
        "details": "Overload {renounceRole} to track enumerable memberships"
      },
      "revokeRole(bytes32,address)": {
        "details": "Overload {revokeRole} to track enumerable memberships"
      },
      "safeTransferFrom(address,address,uint256)": {
        "details": "See {IERC721-safeTransferFrom}."
      },
      "safeTransferFrom(address,address,uint256,bytes)": {
        "details": "See {IERC721-safeTransferFrom}."
      },
      "setApprovalForAll(address,bool)": {
        "details": "See {IERC721-setApprovalForAll}."
      },
      "setMintingCost(uint256)": {
        "details": "//// Set Minting Costs                                                                        ////"
      },
      "symbol()": {
        "details": "See {IERC721Metadata-symbol}."
      },
      "tokenByIndex(uint256)": {
        "details": "See {IERC721Enumerable-tokenByIndex}."
      },
      "tokenOfOwnerByIndex(address,uint256)": {
        "details": "See {IERC721Enumerable-tokenOfOwnerByIndex}."
      },
      "tokenURI(uint256)": {
        "details": "See {IERC721Metadata-tokenURI}."
      },
      "totalSupply()": {
        "details": "See {IERC721Enumerable-totalSupply}."
      },
      "transferFrom(address,address,uint256)": {
        "details": "See {IERC721-transferFrom}."
      }
    },
    "version": 1
  },
  "userdoc": {
    "kind": "user",
    "methods": {},
    "version": 1
  }
}