{
  "contractName": "ChadBadges",
  "abi": [
    {
      "inputs": [
        {
          "internalType": "address",
          "name": "_AddressManagerAddress",
          "type": "address"
        }
      ],
      "stateMutability": "nonpayable",
      "type": "constructor"
    },
    {
      "anonymous": false,
      "inputs": [
        {
          "indexed": true,
          "internalType": "address",
          "name": "owner",
          "type": "address"
        },
        {
          "indexed": true,
          "internalType": "address",
          "name": "approved",
          "type": "address"
        },
        {
          "indexed": true,
          "internalType": "uint256",
          "name": "tokenId",
          "type": "uint256"
        }
      ],
      "name": "Approval",
      "type": "event"
    },
    {
      "anonymous": false,
      "inputs": [
        {
          "indexed": true,
          "internalType": "address",
          "name": "owner",
          "type": "address"
        },
        {
          "indexed": true,
          "internalType": "address",
          "name": "operator",
          "type": "address"
        },
        {
          "indexed": false,
          "internalType": "bool",
          "name": "approved",
          "type": "bool"
        }
      ],
      "name": "ApprovalForAll",
      "type": "event"
    },
    {
      "anonymous": false,
      "inputs": [
        {
          "indexed": false,
          "internalType": "address",
          "name": "account",
          "type": "address"
        }
      ],
      "name": "Paused",
      "type": "event"
    },
    {
      "anonymous": false,
      "inputs": [
        {
          "indexed": true,
          "internalType": "bytes32",
          "name": "role",
          "type": "bytes32"
        },
        {
          "indexed": true,
          "internalType": "bytes32",
          "name": "previousAdminRole",
          "type": "bytes32"
        },
        {
          "indexed": true,
          "internalType": "bytes32",
          "name": "newAdminRole",
          "type": "bytes32"
        }
      ],
      "name": "RoleAdminChanged",
      "type": "event"
    },
    {
      "anonymous": false,
      "inputs": [
        {
          "indexed": true,
          "internalType": "bytes32",
          "name": "role",
          "type": "bytes32"
        },
        {
          "indexed": true,
          "internalType": "address",
          "name": "account",
          "type": "address"
        },
        {
          "indexed": true,
          "internalType": "address",
          "name": "sender",
          "type": "address"
        }
      ],
      "name": "RoleGranted",
      "type": "event"
    },
    {
      "anonymous": false,
      "inputs": [
        {
          "indexed": true,
          "internalType": "bytes32",
          "name": "role",
          "type": "bytes32"
        },
        {
          "indexed": true,
          "internalType": "address",
          "name": "account",
          "type": "address"
        },
        {
          "indexed": true,
          "internalType": "address",
          "name": "sender",
          "type": "address"
        }
      ],
      "name": "RoleRevoked",
      "type": "event"
    },
    {
      "anonymous": false,
      "inputs": [
        {
          "indexed": true,
          "internalType": "address",
          "name": "from",
          "type": "address"
        },
        {
          "indexed": true,
          "internalType": "address",
          "name": "to",
          "type": "address"
        },
        {
          "indexed": true,
          "internalType": "uint256",
          "name": "tokenId",
          "type": "uint256"
        }
      ],
      "name": "Transfer",
      "type": "event"
    },
    {
      "anonymous": false,
      "inputs": [
        {
          "indexed": false,
          "internalType": "address",
          "name": "account",
          "type": "address"
        }
      ],
      "name": "Unpaused",
      "type": "event"
    },
    {
      "inputs": [],
      "name": "AddressManagerAddress",
      "outputs": [
        {
          "internalType": "address",
          "name": "",
          "type": "address"
        }
      ],
      "stateMutability": "view",
      "type": "function",
      "constant": true
    },
    {
      "inputs": [
        {
          "internalType": "uint256",
          "name": "",
          "type": "uint256"
        }
      ],
      "name": "BadgeInfo",
      "outputs": [
        {
          "internalType": "address",
          "name": "gifter",
          "type": "address"
        },
        {
          "internalType": "string",
          "name": "reason",
          "type": "string"
        }
      ],
      "stateMutability": "view",
      "type": "function",
      "constant": true
    },
    {
      "inputs": [
        {
          "internalType": "address",
          "name": "",
          "type": "address"
        },
        {
          "internalType": "uint256",
          "name": "",
          "type": "uint256"
        }
      ],
      "name": "BadgesSent",
      "outputs": [
        {
          "internalType": "uint256",
          "name": "",
          "type": "uint256"
        }
      ],
      "stateMutability": "view",
      "type": "function",
      "constant": true
    },
    {
      "inputs": [],
      "name": "ChadBadgeAddress",
      "outputs": [
        {
          "internalType": "address",
          "name": "",
          "type": "address"
        }
      ],
      "stateMutability": "view",
      "type": "function",
      "constant": true
    },
    {
      "inputs": [],
      "name": "ColoredIDAddress",
      "outputs": [
        {
          "internalType": "address",
          "name": "",
          "type": "address"
        }
      ],
      "stateMutability": "view",
      "type": "function",
      "constant": true
    },
    {
      "inputs": [],
      "name": "CourtClerk",
      "outputs": [
        {
          "internalType": "address",
          "name": "",
          "type": "address"
        }
      ],
      "stateMutability": "view",
      "type": "function",
      "constant": true
    },
    {
      "inputs": [],
      "name": "DEFAULT_ADMIN_ROLE",
      "outputs": [
        {
          "internalType": "bytes32",
          "name": "",
          "type": "bytes32"
        }
      ],
      "stateMutability": "view",
      "type": "function",
      "constant": true
    },
    {
      "inputs": [],
      "name": "GAVELS_BAILIFF",
      "outputs": [
        {
          "internalType": "bytes32",
          "name": "",
          "type": "bytes32"
        }
      ],
      "stateMutability": "view",
      "type": "function",
      "constant": true
    },
    {
      "inputs": [],
      "name": "GavelDAOAgent",
      "outputs": [
        {
          "internalType": "address",
          "name": "",
          "type": "address"
        }
      ],
      "stateMutability": "view",
      "type": "function",
      "constant": true
    },
    {
      "inputs": [],
      "name": "GavelTokenAddress",
      "outputs": [
        {
          "internalType": "address",
          "name": "",
          "type": "address"
        }
      ],
      "stateMutability": "view",
      "type": "function",
      "constant": true
    },
    {
      "inputs": [],
      "name": "GavelVote",
      "outputs": [
        {
          "internalType": "bool",
          "name": "",
          "type": "bool"
        }
      ],
      "stateMutability": "view",
      "type": "function",
      "constant": true
    },
    {
      "inputs": [],
      "name": "GoldStarAddress",
      "outputs": [
        {
          "internalType": "address",
          "name": "",
          "type": "address"
        }
      ],
      "stateMutability": "view",
      "type": "function",
      "constant": true
    },
    {
      "inputs": [],
      "name": "JERK_ROLE",
      "outputs": [
        {
          "internalType": "bytes32",
          "name": "",
          "type": "bytes32"
        }
      ],
      "stateMutability": "view",
      "type": "function",
      "constant": true
    },
    {
      "inputs": [],
      "name": "JURY_BAILIFF",
      "outputs": [
        {
          "internalType": "bytes32",
          "name": "",
          "type": "bytes32"
        }
      ],
      "stateMutability": "view",
      "type": "function",
      "constant": true
    },
    {
      "inputs": [],
      "name": "JuryDAOAgent",
      "outputs": [
        {
          "internalType": "address",
          "name": "",
          "type": "address"
        }
      ],
      "stateMutability": "view",
      "type": "function",
      "constant": true
    },
    {
      "inputs": [],
      "name": "JuryPoolAddress",
      "outputs": [
        {
          "internalType": "address",
          "name": "",
          "type": "address"
        }
      ],
      "stateMutability": "view",
      "type": "function",
      "constant": true
    },
    {
      "inputs": [],
      "name": "JuryVote",
      "outputs": [
        {
          "internalType": "bool",
          "name": "",
          "type": "bool"
        }
      ],
      "stateMutability": "view",
      "type": "function",
      "constant": true
    },
    {
      "inputs": [],
      "name": "MINI_BAILIFF_ROLE",
      "outputs": [
        {
          "internalType": "bytes32",
          "name": "",
          "type": "bytes32"
        }
      ],
      "stateMutability": "view",
      "type": "function",
      "constant": true
    },
    {
      "inputs": [],
      "name": "MiniBailiff",
      "outputs": [
        {
          "internalType": "address",
          "name": "",
          "type": "address"
        }
      ],
      "stateMutability": "view",
      "type": "function",
      "constant": true
    },
    {
      "inputs": [],
      "name": "PinkSlipAddress",
      "outputs": [
        {
          "internalType": "address",
          "name": "",
          "type": "address"
        }
      ],
      "stateMutability": "view",
      "type": "function",
      "constant": true
    },
    {
      "inputs": [],
      "name": "RedPenTokenAddress",
      "outputs": [
        {
          "internalType": "address",
          "name": "",
          "type": "address"
        }
      ],
      "stateMutability": "view",
      "type": "function",
      "constant": true
    },
    {
      "inputs": [],
      "name": "THE_COURT_ROLE",
      "outputs": [
        {
          "internalType": "bytes32",
          "name": "",
          "type": "bytes32"
        }
      ],
      "stateMutability": "view",
      "type": "function",
      "constant": true
    },
    {
      "inputs": [],
      "name": "TheCourtAddress",
      "outputs": [
        {
          "internalType": "address",
          "name": "",
          "type": "address"
        }
      ],
      "stateMutability": "view",
      "type": "function",
      "constant": true
    },
    {
      "inputs": [],
      "name": "TreasuryAddress",
      "outputs": [
        {
          "internalType": "address",
          "name": "",
          "type": "address"
        }
      ],
      "stateMutability": "view",
      "type": "function",
      "constant": true
    },
    {
      "inputs": [],
      "name": "addressManager",
      "outputs": [
        {
          "internalType": "contract AddressManager",
          "name": "",
          "type": "address"
        }
      ],
      "stateMutability": "view",
      "type": "function",
      "constant": true
    },
    {
      "inputs": [
        {
          "internalType": "address",
          "name": "to",
          "type": "address"
        },
        {
          "internalType": "uint256",
          "name": "tokenId",
          "type": "uint256"
        }
      ],
      "name": "approve",
      "outputs": [],
      "stateMutability": "nonpayable",
      "type": "function"
    },
    {
      "inputs": [],
      "name": "badgeColor",
      "outputs": [
        {
          "internalType": "string",
          "name": "",
          "type": "string"
        }
      ],
      "stateMutability": "view",
      "type": "function",
      "constant": true
    },
    {
      "inputs": [],
      "name": "badgeName",
      "outputs": [
        {
          "internalType": "string",
          "name": "",
          "type": "string"
        }
      ],
      "stateMutability": "view",
      "type": "function",
      "constant": true
    },
    {
      "inputs": [
        {
          "internalType": "address",
          "name": "owner",
          "type": "address"
        }
      ],
      "name": "balanceOf",
      "outputs": [
        {
          "internalType": "uint256",
          "name": "",
          "type": "uint256"
        }
      ],
      "stateMutability": "view",
      "type": "function",
      "constant": true
    },
    {
      "inputs": [],
      "name": "baseURI_",
      "outputs": [
        {
          "internalType": "string",
          "name": "",
          "type": "string"
        }
      ],
      "stateMutability": "view",
      "type": "function",
      "constant": true
    },
    {
      "inputs": [
        {
          "internalType": "address",
          "name": "",
          "type": "address"
        }
      ],
      "name": "chadVoteBalance",
      "outputs": [
        {
          "internalType": "uint256",
          "name": "",
          "type": "uint256"
        }
      ],
      "stateMutability": "view",
      "type": "function",
      "constant": true
    },
    {
      "inputs": [
        {
          "internalType": "uint256",
          "name": "valueMustBe69",
          "type": "uint256"
        }
      ],
      "name": "destroyAndLockContract",
      "outputs": [
        {
          "internalType": "bool",
          "name": "",
          "type": "bool"
        }
      ],
      "stateMutability": "nonpayable",
      "type": "function"
    },
    {
      "inputs": [
        {
          "internalType": "address",
          "name": "receivingAddress",
          "type": "address"
        },
        {
          "internalType": "string",
          "name": "_reason",
          "type": "string"
        },
        {
          "internalType": "uint256",
          "name": "_voteValue",
          "type": "uint256"
        },
        {
          "internalType": "string",
          "name": "_tokenURI",
          "type": "string"
        }
      ],
      "name": "electAChad",
      "outputs": [
        {
          "internalType": "uint256",
          "name": "_newId_or_votesRemaining",
          "type": "uint256"
        }
      ],
      "stateMutability": "nonpayable",
      "type": "function"
    },
    {
      "inputs": [
        {
          "internalType": "address",
          "name": "receivingAddress",
          "type": "address"
        },
        {
          "internalType": "uint256",
          "name": "_voteValue",
          "type": "uint256"
        }
      ],
      "name": "electAChad",
      "outputs": [
        {
          "internalType": "uint256",
          "name": "votesRemaining",
          "type": "uint256"
        }
      ],
      "stateMutability": "nonpayable",
      "type": "function"
    },
    {
      "inputs": [
        {
          "internalType": "uint256",
          "name": "tokenId",
          "type": "uint256"
        }
      ],
      "name": "getApproved",
      "outputs": [
        {
          "internalType": "address",
          "name": "",
          "type": "address"
        }
      ],
      "stateMutability": "view",
      "type": "function",
      "constant": true
    },
    {
      "inputs": [
        {
          "internalType": "uint256",
          "name": "_tokenId",
          "type": "uint256"
        }
      ],
      "name": "getBadgeReason",
      "outputs": [
        {
          "internalType": "string",
          "name": "_theReason",
          "type": "string"
        }
      ],
      "stateMutability": "view",
      "type": "function",
      "constant": true
    },
    {
      "inputs": [
        {
          "internalType": "uint256",
          "name": "_tokenId",
          "type": "uint256"
        }
      ],
      "name": "getBadgeSender",
      "outputs": [
        {
          "internalType": "address",
          "name": "_theGifter",
          "type": "address"
        }
      ],
      "stateMutability": "view",
      "type": "function",
      "constant": true
    },
    {
      "inputs": [
        {
          "internalType": "address",
          "name": "_gifter",
          "type": "address"
        }
      ],
      "name": "getBadgesSent",
      "outputs": [
        {
          "internalType": "uint256[]",
          "name": "_BadgesSent",
          "type": "uint256[]"
        }
      ],
      "stateMutability": "view",
      "type": "function",
      "constant": true
    },
    {
      "inputs": [
        {
          "internalType": "bytes32",
          "name": "role",
          "type": "bytes32"
        }
      ],
      "name": "getRoleAdmin",
      "outputs": [
        {
          "internalType": "bytes32",
          "name": "",
          "type": "bytes32"
        }
      ],
      "stateMutability": "view",
      "type": "function",
      "constant": true
    },
    {
      "inputs": [
        {
          "internalType": "bytes32",
          "name": "role",
          "type": "bytes32"
        },
        {
          "internalType": "uint256",
          "name": "index",
          "type": "uint256"
        }
      ],
      "name": "getRoleMember",
      "outputs": [
        {
          "internalType": "address",
          "name": "",
          "type": "address"
        }
      ],
      "stateMutability": "view",
      "type": "function",
      "constant": true
    },
    {
      "inputs": [
        {
          "internalType": "bytes32",
          "name": "role",
          "type": "bytes32"
        }
      ],
      "name": "getRoleMemberCount",
      "outputs": [
        {
          "internalType": "uint256",
          "name": "",
          "type": "uint256"
        }
      ],
      "stateMutability": "view",
      "type": "function",
      "constant": true
    },
    {
      "inputs": [
        {
          "internalType": "address",
          "name": "_nominatedAddress",
          "type": "address"
        }
      ],
      "name": "getVotesNeeded",
      "outputs": [
        {
          "internalType": "uint256",
          "name": "_votesNeeded",
          "type": "uint256"
        }
      ],
      "stateMutability": "view",
      "type": "function",
      "constant": true
    },
    {
      "inputs": [
        {
          "internalType": "bytes32",
          "name": "role",
          "type": "bytes32"
        },
        {
          "internalType": "address",
          "name": "account",
          "type": "address"
        }
      ],
      "name": "grantRole",
      "outputs": [],
      "stateMutability": "nonpayable",
      "type": "function"
    },
    {
      "inputs": [
        {
          "internalType": "bytes32",
          "name": "role",
          "type": "bytes32"
        },
        {
          "internalType": "address",
          "name": "account",
          "type": "address"
        }
      ],
      "name": "hasRole",
      "outputs": [
        {
          "internalType": "bool",
          "name": "",
          "type": "bool"
        }
      ],
      "stateMutability": "view",
      "type": "function",
      "constant": true
    },
    {
      "inputs": [
        {
          "internalType": "address",
          "name": "owner",
          "type": "address"
        },
        {
          "internalType": "address",
          "name": "operator",
          "type": "address"
        }
      ],
      "name": "isApprovedForAll",
      "outputs": [
        {
          "internalType": "bool",
          "name": "",
          "type": "bool"
        }
      ],
      "stateMutability": "view",
      "type": "function",
      "constant": true
    },
    {
      "inputs": [
        {
          "internalType": "address",
          "name": "addressToCheck",
          "type": "address"
        },
        {
          "internalType": "uint256",
          "name": "badgeTokenID",
          "type": "uint256"
        }
      ],
      "name": "isBadgeSender",
      "outputs": [
        {
          "internalType": "bool",
          "name": "",
          "type": "bool"
        }
      ],
      "stateMutability": "view",
      "type": "function",
      "constant": true
    },
    {
      "inputs": [],
      "name": "isForeverLocked",
      "outputs": [
        {
          "internalType": "bool",
          "name": "",
          "type": "bool"
        }
      ],
      "stateMutability": "view",
      "type": "function",
      "constant": true
    },
    {
      "inputs": [
        {
          "internalType": "address",
          "name": "receivingAddress",
          "type": "address"
        },
        {
          "internalType": "string",
          "name": "_reason",
          "type": "string"
        }
      ],
      "name": "issueBadge",
      "outputs": [
        {
          "internalType": "uint256",
          "name": "newId",
          "type": "uint256"
        }
      ],
      "stateMutability": "nonpayable",
      "type": "function"
    },
    {
      "inputs": [
        {
          "internalType": "address",
          "name": "receivingAddress",
          "type": "address"
        },
        {
          "internalType": "string",
          "name": "_reason",
          "type": "string"
        },
        {
          "internalType": "string",
          "name": "_tokenURI",
          "type": "string"
        }
      ],
      "name": "issueBadge",
      "outputs": [
        {
          "internalType": "uint256",
          "name": "newId",
          "type": "uint256"
        }
      ],
      "stateMutability": "nonpayable",
      "type": "function"
    },
    {
      "inputs": [],
      "name": "jerkSanctions",
      "outputs": [
        {
          "internalType": "bool",
          "name": "",
          "type": "bool"
        }
      ],
      "stateMutability": "view",
      "type": "function",
      "constant": true
    },
    {
      "inputs": [],
      "name": "mintingCost",
      "outputs": [
        {
          "internalType": "uint256",
          "name": "",
          "type": "uint256"
        }
      ],
      "stateMutability": "view",
      "type": "function",
      "constant": true
    },
    {
      "inputs": [],
      "name": "mintingCostFloor",
      "outputs": [
        {
          "internalType": "uint256",
          "name": "",
          "type": "uint256"
        }
      ],
      "stateMutability": "view",
      "type": "function",
      "constant": true
    },
    {
      "inputs": [],
      "name": "name",
      "outputs": [
        {
          "internalType": "string",
          "name": "",
          "type": "string"
        }
      ],
      "stateMutability": "view",
      "type": "function",
      "constant": true
    },
    {
      "inputs": [],
      "name": "nextTokenId",
      "outputs": [
        {
          "internalType": "uint256",
          "name": "_nextTokenId",
          "type": "uint256"
        }
      ],
      "stateMutability": "view",
      "type": "function",
      "constant": true
    },
    {
      "inputs": [
        {
          "internalType": "uint256",
          "name": "tokenId",
          "type": "uint256"
        }
      ],
      "name": "ownerOf",
      "outputs": [
        {
          "internalType": "address",
          "name": "",
          "type": "address"
        }
      ],
      "stateMutability": "view",
      "type": "function",
      "constant": true
    },
    {
      "inputs": [],
      "name": "pause",
      "outputs": [],
      "stateMutability": "nonpayable",
      "type": "function"
    },
    {
      "inputs": [],
      "name": "paused",
      "outputs": [
        {
          "internalType": "bool",
          "name": "",
          "type": "bool"
        }
      ],
      "stateMutability": "view",
      "type": "function",
      "constant": true
    },
    {
      "inputs": [],
      "name": "redPens",
      "outputs": [
        {
          "internalType": "contract ERC20Burnable",
          "name": "",
          "type": "address"
        }
      ],
      "stateMutability": "view",
      "type": "function",
      "constant": true
    },
    {
      "inputs": [
        {
          "internalType": "bool",
          "name": "thisIsNotReversible",
          "type": "bool"
        }
      ],
      "name": "refreshBadges",
      "outputs": [
        {
          "internalType": "bool",
          "name": "",
          "type": "bool"
        }
      ],
      "stateMutability": "nonpayable",
      "type": "function"
    },
    {
      "inputs": [
        {
          "internalType": "bytes32",
          "name": "role",
          "type": "bytes32"
        },
        {
          "internalType": "address",
          "name": "account",
          "type": "address"
        }
      ],
      "name": "renounceRole",
      "outputs": [],
      "stateMutability": "nonpayable",
      "type": "function"
    },
    {
      "inputs": [],
      "name": "resetVote",
      "outputs": [],
      "stateMutability": "nonpayable",
      "type": "function"
    },
    {
      "inputs": [
        {
          "internalType": "uint256",
          "name": "tokenId",
          "type": "uint256"
        }
      ],
      "name": "revokeBadge",
      "outputs": [],
      "stateMutability": "nonpayable",
      "type": "function"
    },
    {
      "inputs": [
        {
          "internalType": "bytes32",
          "name": "role",
          "type": "bytes32"
        },
        {
          "internalType": "address",
          "name": "account",
          "type": "address"
        }
      ],
      "name": "revokeRole",
      "outputs": [],
      "stateMutability": "nonpayable",
      "type": "function"
    },
    {
      "inputs": [
        {
          "internalType": "address",
          "name": "from",
          "type": "address"
        },
        {
          "internalType": "address",
          "name": "to",
          "type": "address"
        },
        {
          "internalType": "uint256",
          "name": "tokenId",
          "type": "uint256"
        }
      ],
      "name": "safeTransferFrom",
      "outputs": [],
      "stateMutability": "nonpayable",
      "type": "function"
    },
    {
      "inputs": [
        {
          "internalType": "address",
          "name": "from",
          "type": "address"
        },
        {
          "internalType": "address",
          "name": "to",
          "type": "address"
        },
        {
          "internalType": "uint256",
          "name": "tokenId",
          "type": "uint256"
        },
        {
          "internalType": "bytes",
          "name": "_data",
          "type": "bytes"
        }
      ],
      "name": "safeTransferFrom",
      "outputs": [],
      "stateMutability": "nonpayable",
      "type": "function"
    },
    {
      "inputs": [
        {
          "internalType": "address",
          "name": "operator",
          "type": "address"
        },
        {
          "internalType": "bool",
          "name": "approved",
          "type": "bool"
        }
      ],
      "name": "setApprovalForAll",
      "outputs": [],
      "stateMutability": "nonpayable",
      "type": "function"
    },
    {
      "inputs": [
        {
          "internalType": "string",
          "name": "_baseURIString",
          "type": "string"
        }
      ],
      "name": "setBaseURI",
      "outputs": [
        {
          "internalType": "bool",
          "name": "",
          "type": "bool"
        }
      ],
      "stateMutability": "nonpayable",
      "type": "function"
    },
    {
      "inputs": [
        {
          "internalType": "uint256",
          "name": "costInWei",
          "type": "uint256"
        }
      ],
      "name": "setMintingCost",
      "outputs": [
        {
          "internalType": "bool",
          "name": "",
          "type": "bool"
        }
      ],
      "stateMutability": "nonpayable",
      "type": "function"
    },
    {
      "inputs": [
        {
          "internalType": "uint256",
          "name": "costFloorInWei",
          "type": "uint256"
        }
      ],
      "name": "setMintingCostFloor",
      "outputs": [
        {
          "internalType": "bool",
          "name": "",
          "type": "bool"
        }
      ],
      "stateMutability": "nonpayable",
      "type": "function"
    },
    {
      "inputs": [
        {
          "internalType": "bytes4",
          "name": "interfaceId",
          "type": "bytes4"
        }
      ],
      "name": "supportsInterface",
      "outputs": [
        {
          "internalType": "bool",
          "name": "",
          "type": "bool"
        }
      ],
      "stateMutability": "view",
      "type": "function",
      "constant": true
    },
    {
      "inputs": [],
      "name": "symbol",
      "outputs": [
        {
          "internalType": "string",
          "name": "",
          "type": "string"
        }
      ],
      "stateMutability": "view",
      "type": "function",
      "constant": true
    },
    {
      "inputs": [],
      "name": "syncAllRoles",
      "outputs": [],
      "stateMutability": "nonpayable",
      "type": "function"
    },
    {
      "inputs": [
        {
          "internalType": "bytes32",
          "name": "ROLE_TO_SYNC",
          "type": "bytes32"
        }
      ],
      "name": "syncSingleRole",
      "outputs": [],
      "stateMutability": "nonpayable",
      "type": "function"
    },
    {
      "inputs": [],
      "name": "syncVotes",
      "outputs": [],
      "stateMutability": "nonpayable",
      "type": "function"
    },
    {
      "inputs": [
        {
          "internalType": "uint256",
          "name": "index",
          "type": "uint256"
        }
      ],
      "name": "tokenByIndex",
      "outputs": [
        {
          "internalType": "uint256",
          "name": "",
          "type": "uint256"
        }
      ],
      "stateMutability": "view",
      "type": "function",
      "constant": true
    },
    {
      "inputs": [
        {
          "internalType": "address",
          "name": "owner",
          "type": "address"
        },
        {
          "internalType": "uint256",
          "name": "index",
          "type": "uint256"
        }
      ],
      "name": "tokenOfOwnerByIndex",
      "outputs": [
        {
          "internalType": "uint256",
          "name": "",
          "type": "uint256"
        }
      ],
      "stateMutability": "view",
      "type": "function",
      "constant": true
    },
    {
      "inputs": [
        {
          "internalType": "uint256",
          "name": "_tokenId",
          "type": "uint256"
        }
      ],
      "name": "tokenURI",
      "outputs": [
        {
          "internalType": "string",
          "name": "_URI",
          "type": "string"
        }
      ],
      "stateMutability": "view",
      "type": "function",
      "constant": true
    },
    {
      "inputs": [],
      "name": "totalSupply",
      "outputs": [
        {
          "internalType": "uint256",
          "name": "",
          "type": "uint256"
        }
      ],
      "stateMutability": "view",
      "type": "function",
      "constant": true
    },
    {
      "inputs": [
        {
          "internalType": "address",
          "name": "from",
          "type": "address"
        },
        {
          "internalType": "address",
          "name": "to",
          "type": "address"
        },
        {
          "internalType": "uint256",
          "name": "tokenId",
          "type": "uint256"
        }
      ],
      "name": "transferFrom",
      "outputs": [],
      "stateMutability": "nonpayable",
      "type": "function"
    },
    {
      "inputs": [],
      "name": "unpause",
      "outputs": [],
      "stateMutability": "nonpayable",
      "type": "function"
    },
    {
      "inputs": [],
      "name": "updateAddressManager",
      "outputs": [],
      "stateMutability": "nonpayable",
      "type": "function"
    },
    {
      "inputs": [],
      "name": "updateAllAddresses",
      "outputs": [],
      "stateMutability": "nonpayable",
      "type": "function"
    },
    {
      "inputs": [],
      "name": "updateAllRoles",
      "outputs": [],
      "stateMutability": "nonpayable",
      "type": "function"
    },
    {
      "inputs": [],
      "name": "updateDAOAddresses",
      "outputs": [],
      "stateMutability": "nonpayable",
      "type": "function"
    },
    {
      "inputs": [],
      "name": "updatePaymentToken",
      "outputs": [],
      "stateMutability": "nonpayable",
      "type": "function"
    },
    {
      "inputs": [
        {
          "internalType": "bytes32",
          "name": "ROLE_TO_UPDATE",
          "type": "bytes32"
        }
      ],
      "name": "updateSingleRole",
      "outputs": [],
      "stateMutability": "nonpayable",
      "type": "function"
    },
    {
      "inputs": [],
      "name": "updateTokenAddresses",
      "outputs": [],
      "stateMutability": "nonpayable",
      "type": "function"
    }
  ],
  "bytecode": "0x6000805460ff1990811682556011805463ffffffff60a01b19169055601e91909155601f80549091169055636970667360e01b60a0908152601d60f91b60a452602f60f81b60a581905260a6526007608081905260a7604052620000669160229162000cea565b50681043561a8829300000602555678ac7230489e80000602655600554602780546001600160a01b0319166001600160a01b03909216919091179055348015620000af57600080fd5b506040516200626938038062006269833981016040819052620000d29162000d90565b604080518082018252600981526843686164426164676560b81b6020808301919091528251808401909352600483526310da185960e21b90830152600380546001600160a01b0385166001600160a01b0319918216811790925560118054909116909117905590828282828282826200014a62000313565b6200015462000329565b600f546200016e906000906001600160a01b031662000474565b600f54620001a7907f0538d24a8b7882d7b2e36af243d4af61c23e86e3daa6cb8c887b53220b2f5720906001600160a01b031662000474565b600c54620001e0907f048bc71fa1cb2c119c339cf9cf00a97996a19a9d991ce5fe049f2fa5459e7990906001600160a01b031662000474565b600d5462000219907ffa8e4989e1d689f7bc5c4b25b87efb51fecdecb19ba62847e29c759e12a89acd906001600160a01b031662000474565b60105462000252907ff0f4b159a6e2a4815eb3ca3df080bfa70c9270662c59bcaa4479a456220183e6906001600160a01b031662000474565b6200027f7f7c9d7f6f02908185bffb3f7fc9afb29fd7bf93675af8fd4b655ee05c2cee1e0e600062000474565b5081516200029590601290602085019062000cea565b508051620002ab90601390602084019062000cea565b50506018805460ff19169055508151620002cc906020908185019062000cea565b508251620002e290602190602086019062000cea565b5050600554602780546001600160a01b0319166001600160a01b039092169190911790555062000e23945050505050565b6200031d620004b7565b62000327620007b7565b565b601160009054906101000a90046001600160a01b03166001600160a01b031663ff7e88ec6040518163ffffffff1660e01b815260040160206040518083038186803b1580156200037857600080fd5b505afa1580156200038d573d6000803e3d6000fd5b505050506040513d601f19601f82011682018060405250810190620003b3919062000dc2565b601160156101000a81548160ff021916908315150217905550601160009054906101000a90046001600160a01b03166001600160a01b0316632fb565856040518163ffffffff1660e01b815260040160206040518083038186803b1580156200041b57600080fd5b505afa15801562000430573d6000803e3d6000fd5b505050506040513d601f19601f8201168201806040525081019062000456919062000dc2565b60118054911515600160b01b0260ff60b01b19909216919091179055565b6200048b828262000be060201b620021da1760201c565b6000828152600260209081526040909120620004b2918390620021e462000bf0821b17901c565b505050565b601160009054906101000a90046001600160a01b03166001600160a01b031663dadf56ac6040518163ffffffff1660e01b815260040160206040518083038186803b1580156200050657600080fd5b505afa1580156200051b573d6000803e3d6000fd5b505050506040513d601f19601f8201168201806040525081019062000541919062000d90565b600c80546001600160a01b0319166001600160a01b039283161790556011546040805163024bebe960e01b81529051919092169163024bebe9916004808301926020929190829003018186803b1580156200059b57600080fd5b505afa158015620005b0573d6000803e3d6000fd5b505050506040513d601f19601f82011682018060405250810190620005d6919062000d90565b600d80546001600160a01b0319166001600160a01b0392831617905560115460408051635b5c251f60e01b815290519190921691635b5c251f916004808301926020929190829003018186803b1580156200063057600080fd5b505afa15801562000645573d6000803e3d6000fd5b505050506040513d601f19601f820116820180604052508101906200066b919062000d90565b600e80546001600160a01b0319166001600160a01b0392831617905560115460408051637310bf1d60e11b81529051919092169163e6217e3a916004808301926020929190829003018186803b158015620006c557600080fd5b505afa158015620006da573d6000803e3d6000fd5b505050506040513d601f19601f8201168201806040525081019062000700919062000d90565b601080546001600160a01b0319166001600160a01b039283161790556011546040805163d88127a160e01b81529051919092169163d88127a1916004808301926020929190829003018186803b1580156200075a57600080fd5b505afa1580156200076f573d6000803e3d6000fd5b505050506040513d601f19601f8201168201806040525081019062000795919062000d90565b600b80546001600160a01b0319166001600160a01b0392909216919091179055565b601160009054906101000a90046001600160a01b03166001600160a01b03166321d7f0086040518163ffffffff1660e01b815260040160206040518083038186803b1580156200080657600080fd5b505afa1580156200081b573d6000803e3d6000fd5b505050506040513d601f19601f8201168201806040525081019062000841919062000d90565b600480546001600160a01b0319166001600160a01b039283161781556011546040805163762ddb5960e01b81529051919093169263762ddb599281810192602092909190829003018186803b1580156200089a57600080fd5b505afa158015620008af573d6000803e3d6000fd5b505050506040513d601f19601f82011682018060405250810190620008d5919062000d90565b600580546001600160a01b0319166001600160a01b039283161790556011546040805163bfb7dc9960e01b81529051919092169163bfb7dc99916004808301926020929190829003018186803b1580156200092f57600080fd5b505afa15801562000944573d6000803e3d6000fd5b505050506040513d601f19601f820116820180604052508101906200096a919062000d90565b600680546001600160a01b0319166001600160a01b0392831617905560115460408051633e6111eb60e21b81529051919092169163f98447ac916004808301926020929190829003018186803b158015620009c457600080fd5b505afa158015620009d9573d6000803e3d6000fd5b505050506040513d601f19601f82011682018060405250810190620009ff919062000d90565b600780546001600160a01b0319166001600160a01b0392831617905560115460408051630fe1ba9f60e21b815290519190921691633f86ea7c916004808301926020929190829003018186803b15801562000a5957600080fd5b505afa15801562000a6e573d6000803e3d6000fd5b505050506040513d601f19601f8201168201806040525081019062000a94919062000d90565b600880546001600160a01b0319166001600160a01b0392831617905560115460408051632b90024160e11b8152905191909216916357200482916004808301926020929190829003018186803b15801562000aee57600080fd5b505afa15801562000b03573d6000803e3d6000fd5b505050506040513d601f19601f8201168201806040525081019062000b29919062000d90565b600980546001600160a01b0319166001600160a01b0392831617905560115460408051636b58477560e01b815290519190921691636b584775916004808301926020929190829003018186803b15801562000b8357600080fd5b505afa15801562000b98573d6000803e3d6000fd5b505050506040513d601f19601f8201168201806040525081019062000bbe919062000d90565b600a80546001600160a01b0319166001600160a01b0392909216919091179055565b62000bec828262000c10565b5050565b600062000c07836001600160a01b03841662000c98565b90505b92915050565b60008281526001602090815260408083206001600160a01b038516845290915290205460ff1662000bec5760008281526001602081815260408084206001600160a01b0386168086529252808420805460ff19169093179092559051339285917f2f8788117e7eff1d82e926ec794901d17c78024a50270940304540a733656f0d9190a45050565b600081815260018301602052604081205462000ce15750815460018181018455600084815260208082209093018490558454848252828601909352604090209190915562000c0a565b50600062000c0a565b82805462000cf89062000de6565b90600052602060002090601f01602090048101928262000d1c576000855562000d67565b82601f1062000d3757805160ff191683800117855562000d67565b8280016001018555821562000d67579182015b8281111562000d6757825182559160200191906001019062000d4a565b5062000d7592915062000d79565b5090565b5b8082111562000d75576000815560010162000d7a565b60006020828403121562000da357600080fd5b81516001600160a01b038116811462000dbb57600080fd5b9392505050565b60006020828403121562000dd557600080fd5b8151801515811462000dbb57600080fd5b600181811c9082168062000dfb57607f821691505b6020821081141562000e1d57634e487b7160e01b600052602260045260246000fd5b50919050565b6154368062000e336000396000f3fe608060405234801561001057600080fd5b50600436106104cd5760003560e01c80636c353e3411610283578063c62b28e81161015c578063e78c266c116100ce578063f1132b3011610092578063f1132b3014610aa8578063f259a29e14610ab0578063f7d92d8614610ab8578063f98447ac14610ac0578063f98db25314610ad3578063ff7e88ec14610ae657600080fd5b8063e78c266c14610a51578063e985e9c514610a64578063e9a5323014610a77578063ebf98abf14610a8c578063ee0b4c3514610a9557600080fd5b8063d547741f11610120578063d547741f146109ea578063d88127a1146109fd578063dadf56ac14610a10578063de2cff0314610a23578063dea6f9c814610a36578063e6217e3a14610a3e57600080fd5b8063c62b28e814610987578063c87b56dd1461099a578063ca15c873146109ad578063cce84392146109c0578063cf4ece15146109d557600080fd5b806396ac6bf0116101f5578063a78e746f116101b9578063a78e746f146108f9578063b7044f151461090d578063b8720c2f1461092d578063b88d4fde14610940578063bfb7dc9914610953578063c04e17e31461096657600080fd5b806396ac6bf0146108a95780639ac3eaa7146108bc578063a217fddf146108c9578063a22cb465146108d1578063a32c5e59146108e457600080fd5b80637651607811610247578063765160781461084d578063794ccf6c146108605780638456cb59146108735780639010d07c1461087b57806391d148541461088e57806395d89b41146108a157600080fd5b80636c353e34146107ee57806370a08231146107f657806373c898221461080957806375794a3c14610832578063762ddb591461083a57600080fd5b806336568abe116103b557806357f276ff116103275780635f413466116102eb5780635f4134661461077a578063610c30091461078d5780636352211e1461079557806363ebc677146107a857806367a14f06146107c85780636b584775146107db57600080fd5b806357f276ff1461072e57806359e6f787146107415780635b5c251f146107545780635c975abb146107675780635db531a11461077257600080fd5b806349b5e1051161037957806349b5e105146106d25780634d84c6d8146106da5780634e04a654146106e25780634f6ccce7146106f557806355f804b314610708578063572004821461071b57600080fd5b806336568abe1461067e5780633ab76e9f146106915780633f4ba83a146106a45780633f86ea7c146106ac57806342842e0e146106bf57600080fd5b806321d7f0081161044e5780632c584d2a116104125780632c584d2a146106215780632f2ff15d146106345780632f745c59146106475780632fb565851461065a578063326a55e01461066e578063329a8cfa1461067657600080fd5b806321d7f008146105af57806323b872dd146105c25780632436329d146105d5578063248a9ca3146105ea57806329e63f351461060e57600080fd5b80630ad17f8f116104955780630ad17f8f1461056257806310a83fcb14610583578063130f63201461058c57806317314d5a1461059f57806318160ddd146105a757600080fd5b806301ffc9a7146104d2578063024bebe9146104fa57806306fdde0314610525578063081812fc1461053a578063095ea7b31461054d575b600080fd5b6104e56104e0366004614e59565b610afa565b60405190151581526020015b60405180910390f35b600d5461050d906001600160a01b031681565b6040516001600160a01b0390911681526020016104f1565b61052d610b0b565b6040516104f19190615056565b61050d610548366004614df9565b610b9d565b61056061055b366004614d93565b610c2a565b005b610575610570366004614d93565b610d40565b6040519081526020016104f1565b61057560265481565b61056061059a366004614df9565b610d71565b610560610dde565b601c54610575565b60045461050d906001600160a01b031681565b6105606105d0366004614b6a565b610e3f565b61057560008051602061536183398151915281565b6105756105f8366004614df9565b6000908152600160208190526040909120015490565b6104e561061c366004614df9565b610e70565b61057561062f366004614af7565b610f5e565b610560610642366004614e12565b610faa565b610575610655366004614d93565b610fcc565b6011546104e590600160b01b900460ff1681565b610560611062565b610560611072565b61056061068c366004614e12565b61117b565b60115461050d906001600160a01b031681565b61056061119d565b60085461050d906001600160a01b031681565b6105606106cd366004614b6a565b61122f565b610560611260565b61056061106a565b6105756106f0366004614d1f565b611268565b610575610703366004614df9565b611495565b6104e5610716366004614e93565b611528565b60095461050d906001600160a01b031681565b61056061073c366004614df9565b6115d5565b6104e561074f366004614d93565b6115e9565b600e5461050d906001600160a01b031681565b60185460ff166104e5565b61056061161b565b600f5461050d906001600160a01b031681565b61052d611623565b61050d6107a3366004614df9565b6116b1565b6107bb6107b6366004614af7565b611728565b6040516104f19190615012565b60275461050d906001600160a01b031681565b600a5461050d906001600160a01b031681565b610560611794565b610575610804366004614af7565b6117c0565b61050d610817366004614df9565b6000908152602360205260409020546001600160a01b031690565b601e54610575565b60055461050d906001600160a01b031681565b6104e561085b366004614dbf565b611847565b61057561086e366004614c59565b61191b565b610560611980565b61050d610889366004614e37565b611a02565b6104e561089c366004614e12565b611a1a565b61052d611a45565b6104e56108b7366004614df9565b611a54565b601f546104e59060ff1681565b610575600081565b6105606108df366004614c2b565b611b3d565b6105756000805160206153c183398151915281565b6011546104e590600160a01b900460ff1681565b61057561091b366004614af7565b60286020526000908152604090205481565b61057561093b366004614d93565b611bbb565b61056061094e366004614bab565b611d95565b60065461050d906001600160a01b031681565b610979610974366004614df9565b611dcd565b6040516104f1929190614fee565b610560610995366004614df9565b611e7c565b61052d6109a8366004614df9565b611ecd565b6105756109bb366004614df9565b611ed8565b6105756000805160206153e183398151915281565b6105756000805160206153a183398151915281565b6105606109f8366004614e12565b611eef565b600b5461050d906001600160a01b031681565b600c5461050d906001600160a01b031681565b610575610a31366004614ca9565b611ef9565b61052d611f60565b60105461050d906001600160a01b031681565b60035461050d906001600160a01b031681565b6104e5610a72366004614b31565b611f6d565b61057560008051602061538183398151915281565b61057560255481565b6104e5610aa3366004614df9565b611fc4565b61056061208a565b61052d612092565b61056061209f565b60075461050d906001600160a01b031681565b61052d610ae1366004614df9565b61213f565b6011546104e590600160a81b900460ff1681565b6000610b05826121f9565b92915050565b606060128054610b1a90615255565b80601f0160208091040260200160405190810160405280929190818152602001828054610b4690615255565b8015610b935780601f10610b6857610100808354040283529160200191610b93565b820191906000526020600020905b815481529060010190602001808311610b7657829003601f168201915b5050505050905090565b6000610ba88261221e565b610c0e5760405162461bcd60e51b815260206004820152602c60248201527f4552433732313a20617070726f76656420717565727920666f72206e6f6e657860448201526b34b9ba32b73a103a37b5b2b760a11b60648201526084015b60405180910390fd5b506000908152601660205260409020546001600160a01b031690565b6000610c35826116b1565b9050806001600160a01b0316836001600160a01b03161415610ca35760405162461bcd60e51b815260206004820152602160248201527f4552433732313a20617070726f76616c20746f2063757272656e74206f776e656044820152603960f91b6064820152608401610c05565b336001600160a01b0382161480610cbf5750610cbf8133611f6d565b610d315760405162461bcd60e51b815260206004820152603860248201527f4552433732313a20617070726f76652063616c6c6572206973206e6f74206f7760448201527f6e6572206e6f7220617070726f76656420666f7220616c6c00000000000000006064820152608401610c05565b610d3b838361223b565b505050565b60246020528160005260406000208181548110610d5c57600080fd5b90600052602060002001600091509150505481565b610d7b6001612262565b50610d8581612314565b50610d8f8161248f565b50610d9a6000612262565b610ddb5760405162461bcd60e51b81526020600482015260126024820152711cd8599d195e481b9bdd08199b1a5c1c195960721b6044820152606401610c05565b50565b610de86001612262565b50610df1612618565b50610dfc6000612262565b610e3d5760405162461bcd60e51b81526020600482015260126024820152711cd8599d195e481b9bdd08199b1a5c1c195960721b6044820152606401610c05565b565b610e49338261275e565b610e655760405162461bcd60e51b8152600401610c05906150e5565b610d3b8383836127e1565b6000610e8a60008051602061538183398151915233611a1a565b80610ea85750610ea860008051602061536183398151915233611a1a565b80610ec65750610ec66000805160206153c183398151915233611a1a565b610ecf57600080fd5b601154600160b01b810460ff9081161515600160a81b9092041615151460011480610f0d5750610f0d6000805160206153c183398151915233611a1a565b610f295760405162461bcd60e51b8152600401610c0590615069565b60a08211610f3657600080fd5b610f4282602655600190565b506025546026541115610f56576026546025555b506001919050565b6001600160a01b038116600090815260286020526040812054602554811015610f965780602554610f8f91906151fb565b9150610fa4565b8060255411610fa457600091505b50919050565b610fb48282612812565b6000828152600260205260409020610d3b90826121e4565b6000610fd7836117c0565b82106110395760405162461bcd60e51b815260206004820152602b60248201527f455243373231456e756d657261626c653a206f776e657220696e646578206f7560448201526a74206f6620626f756e647360a81b6064820152608401610c05565b506001600160a01b03919091166000908152601a60209081526040808320938352929052205490565b61106a61284c565b610e3d612b38565b61108a6000805160206153c183398151915233611a1a565b806110a857506110a860008051602061538183398151915233611a1a565b806110c657506110c660008051602061536183398151915233611a1a565b61110b5760405162461bcd60e51b81526020600482015260166024820152752cb7ba93b932903737ba103a3432903130b4b634b33360511b6044820152606401610c05565b601160009054906101000a90046001600160a01b03166001600160a01b031663329a8cfa6040518163ffffffff1660e01b8152600401600060405180830381600087803b15801561115b57600080fd5b505af115801561116f573d6000803e3d6000fd5b50505050610e3d61161b565b6111858282612f45565b6000828152600260205260409020610d3b9082612fbf565b6111b560008051602061538183398151915233611a1a565b806111d357506111d36000805160206153c183398151915233611a1a565b6112175760405162461bcd60e51b8152602060048201526015602482015274596f75277265206e6f742074686520476176656c7360581b6044820152606401610c05565b601f5460ff161561122757600080fd5b610e3d612fd4565b611239338261275e565b6112555760405162461bcd60e51b8152600401610c05906150e5565b610d3b838383613067565b610e3d61284c565b60008483826112786002836151c8565b602754600e546040516370a0823160e01b81526001600160a01b039182166004820152929350600092849291909116906370a082319060240160206040518083038186803b1580156112c957600080fd5b505afa1580156112dd573d6000803e3d6000fd5b505050506040513d601f19601f820116820180604052508101906113019190614ec8565b61130b91906151b0565b602754600e546040516323b872dd60e01b81523360048201526001600160a01b0391821660248201526044810186905292935016906323b872dd90606401602060405180830381600087803b15801561136357600080fd5b505af1158015611377573d6000803e3d6000fd5b505050506040513d601f19601f8201168201806040525081019061139b9190614ddc565b5060275460405163079cc67960e41b8152336004820152602481018490526001600160a01b03909116906379cc679090604401600060405180830381600087803b1580156113e857600080fd5b505af11580156113fc573d6000803e3d6000fd5b505050506001600160a01b038416600090815260286020526040812080548592906114289084906151b0565b90915550506025546001600160a01b038a166000908152602860205260409020541061147d576001600160a01b03891660009081526028602052604081208190556114748a8a89613082565b95506114899050565b61148689610f5e565b94505b50505050949350505050565b60006114a0601c5490565b82106115035760405162461bcd60e51b815260206004820152602c60248201527f455243373231456e756d657261626c653a20676c6f62616c20696e646578206f60448201526b7574206f6620626f756e647360a01b6064820152608401610c05565b601c8281548110611516576115166152fb565b90600052602060002001549050919050565b60006115426000805160206153c183398151915233611a1a565b80611560575061156060008051602061538183398151915233611a1a565b8061157e575061157e60008051602061536183398151915233611a1a565b6115c35760405162461bcd60e51b81526020600482015260166024820152752cb7ba93b932903737ba103a3432903130b4b634b33360511b6044820152606401610c05565b6115cc826130f0565b50600192915050565b6115df6001612262565b50610d8f81613106565b6000818152602360205260408120546001600160a01b038481169116141561161357506001610b05565b506000610b05565b610e3d613361565b6021805461163090615255565b80601f016020809104026020016040519081016040528092919081815260200182805461165c90615255565b80156116a95780601f1061167e576101008083540402835291602001916116a9565b820191906000526020600020905b81548152906001019060200180831161168c57829003601f168201915b505050505081565b6000818152601460205260408120546001600160a01b031680610b055760405162461bcd60e51b815260206004820152602960248201527f4552433732313a206f776e657220717565727920666f72206e6f6e657869737460448201526832b73a103a37b5b2b760b91b6064820152608401610c05565b6001600160a01b03811660009081526024602090815260409182902080548351818402810184019094528084526060939283018282801561178857602002820191906000526020600020905b815481526020019060010190808311611774575b50505050509050919050565b61179c612b38565b600554602780546001600160a01b0319166001600160a01b03909216919091179055565b60006001600160a01b03821661182b5760405162461bcd60e51b815260206004820152602a60248201527f4552433732313a2062616c616e636520717565727920666f7220746865207a65604482015269726f206164647265737360b01b6064820152608401610c05565b506001600160a01b031660009081526015602052604090205490565b600061186160008051602061538183398151915233611a1a565b8061187f575061187f60008051602061536183398151915233611a1a565b8061189d575061189d6000805160206153c183398151915233611a1a565b6118a657600080fd5b601154600160b01b810460ff9081161515600160a81b90920416151514600114806118e457506118e46000805160206153c183398151915233611a1a565b6119005760405162461bcd60e51b8152600401610c0590615069565b60018215151415611913576115cc6134a4565b506000919050565b600061193560008051602061536183398151915233611a1a565b8061195357506119536000805160206153c183398151915233611a1a565b61196f5760405162461bcd60e51b8152600401610c0590615132565b61197983836134e7565b9392505050565b61199860008051602061538183398151915233611a1a565b806119b657506119b66000805160206153c183398151915233611a1a565b6119fa5760405162461bcd60e51b8152602060048201526015602482015274596f75277265206e6f742074686520476176656c7360581b6044820152606401610c05565b610e3d61354a565b600082815260026020526040812061197990836135c5565b60009182526001602090815260408084206001600160a01b0393909316845291905290205460ff1690565b606060138054610b1a90615255565b6000611a6e60008051602061538183398151915233611a1a565b80611a8c5750611a8c60008051602061536183398151915233611a1a565b80611aaa5750611aaa6000805160206153c183398151915233611a1a565b611ab357600080fd5b601154600160b01b810460ff9081161515600160a81b9092041615151460011480611af15750611af16000805160206153c183398151915233611a1a565b611b0d5760405162461bcd60e51b8152600401610c0590615069565b816045141561191357611b1e6134a4565b50611b2761354a565b50601f805460ff19166001908117909155919050565b611b556000805160206153c183398151915233611a1a565b80611b735750611b7360008051602061538183398151915233611a1a565b80611b915750611b9160008051602061536183398151915233611a1a565b611bad5760405162461bcd60e51b8152600401610c05906150e5565b611bb782826135d1565b5050565b6000828282611bcb6002836151c8565b602754600e546040516370a0823160e01b81526001600160a01b039182166004820152929350600092849291909116906370a082319060240160206040518083038186803b158015611c1c57600080fd5b505afa158015611c30573d6000803e3d6000fd5b505050506040513d601f19601f82011682018060405250810190611c549190614ec8565b611c5e91906151b0565b602754600e546040516323b872dd60e01b81523360048201526001600160a01b0391821660248201526044810186905292935016906323b872dd90606401602060405180830381600087803b158015611cb657600080fd5b505af1158015611cca573d6000803e3d6000fd5b505050506040513d601f19601f82011682018060405250810190611cee9190614ddc565b5060275460405163079cc67960e41b8152336004820152602481018490526001600160a01b03909116906379cc679090604401600060405180830381600087803b158015611d3b57600080fd5b505af1158015611d4f573d6000803e3d6000fd5b505050506001600160a01b03841660009081526028602052604081208054859290611d7b9084906151b0565b90915550611d8a905087610f5e565b979650505050505050565b611d9f338361275e565b611dbb5760405162461bcd60e51b8152600401610c059061515f565b611dc784848484613696565b50505050565b602360205260009081526040902080546001820180546001600160a01b039092169291611df990615255565b80601f0160208091040260200160405190810160405280929190818152602001828054611e2590615255565b8015611e725780601f10611e4757610100808354040283529160200191611e72565b820191906000526020600020905b815481529060010190602001808311611e5557829003601f168201915b5050505050905082565b611e86338261275e565b611ec45760405162461bcd60e51b815260206004820152600f60248201526e4e696365205472792c204275636b6f60881b6044820152606401610c05565b610ddb816136c9565b6060610b05826136d2565b6000818152600260205260408120610b0590613834565b611185828261383e565b6000611f1360008051602061536183398151915233611a1a565b80611f315750611f316000805160206153c183398151915233611a1a565b611f4d5760405162461bcd60e51b8152600401610c0590615132565b611f58848484613082565b949350505050565b6020805461163090615255565b600080611f886000805160206153c183398151915284611a1a565b80611fa65750611fa660008051602061538183398151915284611a1a565b80611f585750611f5860008051602061536183398151915284611a1a565b6000611fde60008051602061536183398151915233611a1a565b80611ffc5750611ffc6000805160206153c183398151915233611a1a565b6120185760405162461bcd60e51b8152600401610c0590615132565b60265482101561207e5760405162461bcd60e51b815260206004820152602b60248201527f536f7272792120436f7374206d7573742062652067726561746572207468616e60448201526a10181718902932b22832b760a91b6064820152608401610c05565b6115cc82602555600190565b610e3d613878565b6022805461163090615255565b6120a96001612262565b506120c16000805160206153c1833981519152613106565b506120d9600080516020615381833981519152613106565b506120f1600080516020615361833981519152613106565b506121096000805160206153a1833981519152613106565b506121216000805160206153e1833981519152613106565b5061212c6000613106565b50612135613361565b610dfc6000612262565b600081815260236020526040902060010180546060919061215f90615255565b80601f016020809104026020016040519081016040528092919081815260200182805461218b90615255565b80156117885780601f106121ad57610100808354040283529160200191611788565b820191906000526020600020905b8154815290600101906020018083116121bb5750939695505050505050565b611bb782826139af565b6000611979836001600160a01b038416613a1a565b60006001600160e01b0319821663780e9d6360e01b1480610b055750610b0582613a61565b6000908152601460205260409020546001600160a01b0316151590565b6122536000805160206153c183398151915233611a1a565b15611bb757611bb78282613aa1565b6000805460ff1682151581151514156122bd5760405162461bcd60e51b815260206004820152601960248201527f416c72656164792053657420746f20746861742076616c7565000000000000006044820152606401610c05565b6000805484151560ff19909116811790915560ff16151581151514156115cc5760405162461bcd60e51b815260206004820152600c60248201526b29b0b33a32bc9022b93937b960a11b6044820152606401610c05565b60405163ca15c87360e01b8152600481018290526000908190309063ca15c8739060240160206040518083038186803b15801561235057600080fd5b505afa158015612364573d6000803e3d6000fd5b505050506040513d601f19601f820116820180604052508101906123889190614ec8565b905060005b8181101561248557604051632404341f60e21b815260048101859052602481018290526000903090639010d07c9060440160206040518083038186803b1580156123d657600080fd5b505afa1580156123ea573d6000803e3d6000fd5b505050506040513d601f19601f8201168201806040525081019061240e9190614b14565b60405163d547741f60e01b8152600481018790526001600160a01b0382166024820152909150309063d547741f90604401600060405180830381600087803b15801561245957600080fd5b505af115801561246d573d6000803e3d6000fd5b5050505050808061247d9061528a565b91505061238d565b5060019392505050565b60115460405163ca15c87360e01b81526004810183905260009182916001600160a01b039091169063ca15c8739060240160206040518083038186803b1580156124d857600080fd5b505afa1580156124ec573d6000803e3d6000fd5b505050506040513d601f19601f820116820180604052508101906125109190614ec8565b905060005b8181101561248557601154604051632404341f60e21b815260048101869052602481018390526000916001600160a01b031690639010d07c9060440160206040518083038186803b15801561256957600080fd5b505afa15801561257d573d6000803e3d6000fd5b505050506040513d601f19601f820116820180604052508101906125a19190614b14565b604051632f2ff15d60e01b8152600481018790526001600160a01b03821660248201529091503090632f2ff15d90604401600060405180830381600087803b1580156125ec57600080fd5b505af1158015612600573d6000803e3d6000fd5b505050505080806126109061528a565b915050612515565b60006126316000805160206153c1833981519152612314565b506126496000805160206153c183398151915261248f565b61265257600080fd5b612669600080516020615381833981519152612314565b5061268160008051602061538183398151915261248f565b61268a57600080fd5b6126a1600080516020615361833981519152612314565b506126b960008051602061536183398151915261248f565b6126c257600080fd5b6126d96000805160206153a1833981519152612314565b506126f16000805160206153a183398151915261248f565b6126fa57600080fd5b6127116000805160206153e1833981519152612314565b506127296000805160206153e183398151915261248f565b61273257600080fd5b61273c6000612314565b50612747600061248f565b61275057600080fd5b612758613361565b50600190565b60006127698261221e565b6127ca5760405162461bcd60e51b815260206004820152602c60248201527f4552433732313a206f70657261746f7220717565727920666f72206e6f6e657860448201526b34b9ba32b73a103a37b5b2b760a11b6064820152608401610c05565b60006127d5836116b1565b9050611f588185611f6d565b6127eb338261275e565b6128075760405162461bcd60e51b8152600401610c059061515f565b610d3b838383613b0f565b600082815260016020819052604082200154905460ff161561283857610d3b83836139af565b6128428133613cba565b610d3b83836139af565b601160009054906101000a90046001600160a01b03166001600160a01b031663dadf56ac6040518163ffffffff1660e01b815260040160206040518083038186803b15801561289a57600080fd5b505afa1580156128ae573d6000803e3d6000fd5b505050506040513d601f19601f820116820180604052508101906128d29190614b14565b600c80546001600160a01b0319166001600160a01b039283161790556011546040805163024bebe960e01b81529051919092169163024bebe9916004808301926020929190829003018186803b15801561292b57600080fd5b505afa15801561293f573d6000803e3d6000fd5b505050506040513d601f19601f820116820180604052508101906129639190614b14565b600d80546001600160a01b0319166001600160a01b0392831617905560115460408051635b5c251f60e01b815290519190921691635b5c251f916004808301926020929190829003018186803b1580156129bc57600080fd5b505afa1580156129d0573d6000803e3d6000fd5b505050506040513d601f19601f820116820180604052508101906129f49190614b14565b600e80546001600160a01b0319166001600160a01b0392831617905560115460408051637310bf1d60e11b81529051919092169163e6217e3a916004808301926020929190829003018186803b158015612a4d57600080fd5b505afa158015612a61573d6000803e3d6000fd5b505050506040513d601f19601f82011682018060405250810190612a859190614b14565b601080546001600160a01b0319166001600160a01b039283161790556011546040805163d88127a160e01b81529051919092169163d88127a1916004808301926020929190829003018186803b158015612ade57600080fd5b505afa158015612af2573d6000803e3d6000fd5b505050506040513d601f19601f82011682018060405250810190612b169190614b14565b600b80546001600160a01b0319166001600160a01b0392909216919091179055565b601160009054906101000a90046001600160a01b03166001600160a01b03166321d7f0086040518163ffffffff1660e01b815260040160206040518083038186803b158015612b8657600080fd5b505afa158015612b9a573d6000803e3d6000fd5b505050506040513d601f19601f82011682018060405250810190612bbe9190614b14565b600480546001600160a01b0319166001600160a01b039283161781556011546040805163762ddb5960e01b81529051919093169263762ddb599281810192602092909190829003018186803b158015612c1657600080fd5b505afa158015612c2a573d6000803e3d6000fd5b505050506040513d601f19601f82011682018060405250810190612c4e9190614b14565b600580546001600160a01b0319166001600160a01b039283161790556011546040805163bfb7dc9960e01b81529051919092169163bfb7dc99916004808301926020929190829003018186803b158015612ca757600080fd5b505afa158015612cbb573d6000803e3d6000fd5b505050506040513d601f19601f82011682018060405250810190612cdf9190614b14565b600680546001600160a01b0319166001600160a01b0392831617905560115460408051633e6111eb60e21b81529051919092169163f98447ac916004808301926020929190829003018186803b158015612d3857600080fd5b505afa158015612d4c573d6000803e3d6000fd5b505050506040513d601f19601f82011682018060405250810190612d709190614b14565b600780546001600160a01b0319166001600160a01b0392831617905560115460408051630fe1ba9f60e21b815290519190921691633f86ea7c916004808301926020929190829003018186803b158015612dc957600080fd5b505afa158015612ddd573d6000803e3d6000fd5b505050506040513d601f19601f82011682018060405250810190612e019190614b14565b600880546001600160a01b0319166001600160a01b0392831617905560115460408051632b90024160e11b8152905191909216916357200482916004808301926020929190829003018186803b158015612e5a57600080fd5b505afa158015612e6e573d6000803e3d6000fd5b505050506040513d601f19601f82011682018060405250810190612e929190614b14565b600980546001600160a01b0319166001600160a01b0392831617905560115460408051636b58477560e01b815290519190921691636b584775916004808301926020929190829003018186803b158015612eeb57600080fd5b505afa158015612eff573d6000803e3d6000fd5b505050506040513d601f19601f82011682018060405250810190612f239190614b14565b600a80546001600160a01b0319166001600160a01b0392909216919091179055565b6001600160a01b0381163314612fb55760405162461bcd60e51b815260206004820152602f60248201527f416363657373436f6e74726f6c3a2063616e206f6e6c792072656e6f756e636560448201526e103937b632b9903337b91039b2b63360891b6064820152608401610c05565b611bb78282613d1e565b6000611979836001600160a01b038416613d85565b60185460ff1661301d5760405162461bcd60e51b815260206004820152601460248201527314185d5cd8589b194e881b9bdd081c185d5cd95960621b6044820152606401610c05565b6018805460ff191690557f5db9ee0a495bf2e6ff9c91a7834c1ba4fdd244a5e8aa4e537bd38aeae4b073aa335b6040516001600160a01b03909116815260200160405180910390a1565b610d3b83838360405180602001604052806000815250611d95565b60006001600160a01b03841633148015906130a557506001600160a01b03841615155b6130ae57600080fd5b50601e546130bd338483613e72565b6130c78482613ee1565b6130d18183613efb565b6001601e60008282546130e491906151b0565b90915550509392505050565b80516000906115cc906022906020850190614992565b60115460405163ca15c87360e01b81526004810183905260009182916001600160a01b039091169063ca15c8739060240160206040518083038186803b15801561314f57600080fd5b505afa158015613163573d6000803e3d6000fd5b505050506040513d601f19601f820116820180604052508101906131879190614ec8565b60405163ca15c87360e01b815260048101859052909150600090309063ca15c8739060240160206040518083038186803b1580156131c457600080fd5b505afa1580156131d8573d6000803e3d6000fd5b505050506040513d601f19601f820116820180604052508101906131fc9190614ec8565b9050600061320a82846151fb565b90506000811161324f5760405162461bcd60e51b815260206004820152601060248201526f4e6f7468696e6720746f2073796e632160801b6044820152606401610c05565b60005b8181101561335557601154604051632404341f60e21b815260048101889052602481018390526000916001600160a01b031690639010d07c9060440160206040518083038186803b1580156132a657600080fd5b505afa1580156132ba573d6000803e3d6000fd5b505050506040513d601f19601f820116820180604052508101906132de9190614b14565b604051632f2ff15d60e01b8152600481018990526001600160a01b03821660248201529091503090632f2ff15d90604401600060405180830381600087803b15801561332957600080fd5b505af115801561333d573d6000803e3d6000fd5b5050505050808061334d9061528a565b915050613252565b50600195945050505050565b601160009054906101000a90046001600160a01b03166001600160a01b031663ff7e88ec6040518163ffffffff1660e01b815260040160206040518083038186803b1580156133af57600080fd5b505afa1580156133c3573d6000803e3d6000fd5b505050506040513d601f19601f820116820180604052508101906133e79190614ddc565b601160156101000a81548160ff021916908315150217905550601160009054906101000a90046001600160a01b03166001600160a01b0316632fb565856040518163ffffffff1660e01b815260040160206040518083038186803b15801561344e57600080fd5b505afa158015613462573d6000803e3d6000fd5b505050506040513d601f19601f820116820180604052508101906134869190614ddc565b60118054911515600160b01b0260ff60b01b19909216919091179055565b6000805b601e548110156134db576134bb8161221e565b156134c9576134c9816136c9565b806134d38161528a565b9150506134a8565b50506000601e55600190565b60006001600160a01b038316331480159061350a57506001600160a01b03831615155b61351357600080fd5b50601e54613522338383613e72565b61352c8382613ee1565b6001601e600082825461353f91906151b0565b909155505092915050565b60185460ff16156135905760405162461bcd60e51b815260206004820152601060248201526f14185d5cd8589b194e881c185d5cd95960821b6044820152606401610c05565b6018805460ff191660011790557f62e78cea01bee320cd4e420270b5ea74000d11b0c9f74754ebdbfc544b05a25861304a3390565b60006119798383613f86565b6001600160a01b03821633141561362a5760405162461bcd60e51b815260206004820152601960248201527f4552433732313a20617070726f766520746f2063616c6c6572000000000000006044820152606401610c05565b3360008181526017602090815260408083206001600160a01b03871680855290835292819020805460ff191686151590811790915590519081529192917f17307eab39ab6107e8899845ad3d59bd9653f200f220920489ca2b5937696c31910160405180910390a35050565b6136a1848484613b0f565b6136ad8484848461400c565b611dc75760405162461bcd60e51b8152600401610c0590615093565b610ddb81614119565b60606136dd8261221e565b6137435760405162461bcd60e51b815260206004820152603160248201527f45524337323155524953746f726167653a2055524920717565727920666f72206044820152703737b732bc34b9ba32b73a103a37b5b2b760791b6064820152608401610c05565b6000828152601960205260408120805461375c90615255565b80601f016020809104026020016040519081016040528092919081815260200182805461378890615255565b80156137d55780601f106137aa576101008083540402835291602001916137d5565b820191906000526020600020905b8154815290600101906020018083116137b857829003601f168201915b5050505050905060006137e6614159565b90508051600014156137f9575092915050565b81511561382b578082604051602001613813929190614f0d565b60405160208183030381529060405292505050919050565b611f5884614168565b6000610b05825490565b600082815260016020819052604082200154905460ff161561386457610d3b8383613d1e565b61386e8133613cba565b610d3b8383613d1e565b601160009054906101000a90046001600160a01b03166001600160a01b031663a44b93256040518163ffffffff1660e01b815260040160206040518083038186803b1580156138c657600080fd5b505afa1580156138da573d6000803e3d6000fd5b505050506040513d601f19601f820116820180604052508101906138fe9190614ddc565b61390757600080fd5b601160009054906101000a90046001600160a01b03166001600160a01b031663ac7cfac36040518163ffffffff1660e01b815260040160206040518083038186803b15801561395557600080fd5b505afa158015613969573d6000803e3d6000fd5b505050506040513d601f19601f8201168201806040525081019061398d9190614b14565b600380546001600160a01b0319166001600160a01b0392909216919091179055565b6139b98282611a1a565b611bb75760008281526001602081815260408084206001600160a01b0386168086529252808420805460ff19169093179092559051339285917f2f8788117e7eff1d82e926ec794901d17c78024a50270940304540a733656f0d9190a45050565b600081815260018301602052604081205461161357508154600181810184556000848152602080822090930184905584548482528286019093526040902091909155610b05565b60006001600160e01b031982166380ac58cd60e01b1480613a9257506001600160e01b03198216635b5e139f60e01b145b80610b055750610b0582614232565b600081815260166020526040902080546001600160a01b0319166001600160a01b0384169081179091558190613ad6826116b1565b6001600160a01b03167f8c5be1e5ebec7d5bd14f71427d1e84f3dd0314c0f7b2291e5b200ac8c7c3b92560405160405180910390a45050565b826001600160a01b0316613b22826116b1565b6001600160a01b031614613b8a5760405162461bcd60e51b815260206004820152602960248201527f4552433732313a207472616e73666572206f6620746f6b656e2074686174206960448201526839903737ba1037bbb760b91b6064820152608401610c05565b6001600160a01b038216613bec5760405162461bcd60e51b8152602060048201526024808201527f4552433732313a207472616e7366657220746f20746865207a65726f206164646044820152637265737360e01b6064820152608401610c05565b613bf7838383614257565b613c0260008261223b565b6001600160a01b0383166000908152601560205260408120805460019290613c2b9084906151fb565b90915550506001600160a01b0382166000908152601560205260408120805460019290613c599084906151b0565b909155505060008181526014602052604080822080546001600160a01b0319166001600160a01b0386811691821790925591518493918716917fddf252ad1be2c89b69c2b068fc378daa952ba7f163c4a11628f55a4df523b3ef91a4505050565b613cc48282611a1a565b611bb757613cdc816001600160a01b03166014614262565b613ce7836020614262565b604051602001613cf8929190614f3c565b60408051601f198184030181529082905262461bcd60e51b8252610c0591600401615056565b613d288282611a1a565b15611bb75760008281526001602090815260408083206001600160a01b0385168085529252808320805460ff1916905551339285917ff6391f5c32d9c69d2a47ea670b442974b53935d1edc7fd64eb21e047a839171b9190a45050565b60008181526001830160205260408120548015613e68576000613da96001836151fb565b8554909150600090613dbd906001906151fb565b90506000866000018281548110613dd657613dd66152fb565b9060005260206000200154905080876000018481548110613df957613df96152fb565b600091825260208083209091019290925582815260018901909152604090208490558654879080613e2c57613e2c6152e5565b60019003818190600052602060002001600090559055866001016000878152602001908152602001600020600090556001945050505050610b05565b6000915050610b05565b600081815260236020908152604090912080546001600160a01b0319166001600160a01b0386161781558351613eb092600190920191850190614992565b506001600160a01b039092166000908152602460209081526040822080546001810182559083529120019190915550565b611bb78282604051806020016040528060008152506143fe565b613f048261221e565b613f675760405162461bcd60e51b815260206004820152602e60248201527f45524337323155524953746f726167653a2055524920736574206f66206e6f6e60448201526d32bc34b9ba32b73a103a37b5b2b760911b6064820152608401610c05565b60008281526019602090815260409091208251610d3b92840190614992565b81546000908210613fe45760405162461bcd60e51b815260206004820152602260248201527f456e756d657261626c655365743a20696e646578206f7574206f6620626f756e604482015261647360f01b6064820152608401610c05565b826000018281548110613ff957613ff96152fb565b9060005260206000200154905092915050565b60006001600160a01b0384163b1561410e57604051630a85bd0160e11b81526001600160a01b0385169063150b7a0290614050903390899088908890600401614fb1565b602060405180830381600087803b15801561406a57600080fd5b505af192505050801561409a575060408051601f3d908101601f1916820190925261409791810190614e76565b60015b6140f4573d8080156140c8576040519150601f19603f3d011682016040523d82523d6000602084013e6140cd565b606091505b5080516140ec5760405162461bcd60e51b8152600401610c0590615093565b805181602001fd5b6001600160e01b031916630a85bd0160e11b149050611f58565b506001949350505050565b61412281614431565b6000818152601960205260409020805461413b90615255565b159050610ddb576000818152601960205260408120610ddb91614a16565b606060228054610b1a90615255565b60606141738261221e565b6141d75760405162461bcd60e51b815260206004820152602f60248201527f4552433732314d657461646174613a2055524920717565727920666f72206e6f60448201526e3732bc34b9ba32b73a103a37b5b2b760891b6064820152608401610c05565b60006141e1614159565b905060008151116142015760405180602001604052806000815250611979565b8061420b846144d8565b60405160200161421c929190614f0d565b6040516020818303038152906040529392505050565b60006001600160e01b03198216635a05180f60e01b1480610b055750610b05826145d6565b610d3b83838361460b565b606060006142718360026151dc565b61427c9060026151b0565b67ffffffffffffffff81111561429457614294615311565b6040519080825280601f01601f1916602001820160405280156142be576020820181803683370190505b509050600360fc1b816000815181106142d9576142d96152fb565b60200101906001600160f81b031916908160001a905350600f60fb1b81600181518110614308576143086152fb565b60200101906001600160f81b031916908160001a905350600061432c8460026151dc565b6143379060016151b0565b90505b60018111156143af576f181899199a1a9b1b9c1cb0b131b232b360811b85600f166010811061436b5761436b6152fb565b1a60f81b828281518110614381576143816152fb565b60200101906001600160f81b031916908160001a90535060049490941c936143a88161523e565b905061433a565b5083156119795760405162461bcd60e51b815260206004820181905260248201527f537472696e67733a20686578206c656e67746820696e73756666696369656e746044820152606401610c05565b61440883836146c3565b614415600084848461400c565b610d3b5760405162461bcd60e51b8152600401610c0590615093565b600061443c826116b1565b905061444a81600084614257565b61445560008361223b565b6001600160a01b038116600090815260156020526040812080546001929061447e9084906151fb565b909155505060008281526014602052604080822080546001600160a01b0319169055518391906001600160a01b038416907fddf252ad1be2c89b69c2b068fc378daa952ba7f163c4a11628f55a4df523b3ef908390a45050565b6060816144fc5750506040805180820190915260018152600360fc1b602082015290565b8160005b811561452657806145108161528a565b915061451f9050600a836151c8565b9150614500565b60008167ffffffffffffffff81111561454157614541615311565b6040519080825280601f01601f19166020018201604052801561456b576020820181803683370190505b5090505b8415611f58576145806001836151fb565b915061458d600a866152a5565b6145989060306151b0565b60f81b8183815181106145ad576145ad6152fb565b60200101906001600160f81b031916908160001a9053506145cf600a866151c8565b945061456f565b60006001600160e01b03198216637965db0b60e01b1480610b0557506301ffc9a760e01b6001600160e01b0319831614610b05565b6001600160a01b0383166146665761466181601c80546000838152601d60205260408120829055600182018355919091527f0e4562a10381dec21b205ed72637e6b1b523bdd0e4d4d50af5cd23dd4500a2110155565b614689565b816001600160a01b0316836001600160a01b031614614689576146898382614802565b6001600160a01b0382166146a057610d3b8161489f565b826001600160a01b0316826001600160a01b031614610d3b57610d3b828261494e565b6001600160a01b0382166147195760405162461bcd60e51b815260206004820181905260248201527f4552433732313a206d696e7420746f20746865207a65726f20616464726573736044820152606401610c05565b6147228161221e565b1561476f5760405162461bcd60e51b815260206004820152601c60248201527f4552433732313a20746f6b656e20616c7265616479206d696e746564000000006044820152606401610c05565b61477b60008383614257565b6001600160a01b03821660009081526015602052604081208054600192906147a49084906151b0565b909155505060008181526014602052604080822080546001600160a01b0319166001600160a01b03861690811790915590518392907fddf252ad1be2c89b69c2b068fc378daa952ba7f163c4a11628f55a4df523b3ef908290a45050565b6000600161480f846117c0565b61481991906151fb565b6000838152601b602052604090205490915080821461486c576001600160a01b0384166000908152601a602090815260408083208584528252808320548484528184208190558352601b90915290208190555b506000918252601b602090815260408084208490556001600160a01b039094168352601a81528383209183525290812055565b601c546000906148b1906001906151fb565b6000838152601d6020526040812054601c80549394509092849081106148d9576148d96152fb565b9060005260206000200154905080601c83815481106148fa576148fa6152fb565b6000918252602080832090910192909255828152601d9091526040808220849055858252812055601c805480614932576149326152e5565b6001900381819060005260206000200160009055905550505050565b6000614959836117c0565b6001600160a01b039093166000908152601a602090815260408083208684528252808320859055938252601b9052919091209190915550565b82805461499e90615255565b90600052602060002090601f0160209004810192826149c05760008555614a06565b82601f106149d957805160ff1916838001178555614a06565b82800160010185558215614a06579182015b82811115614a065782518255916020019190600101906149eb565b50614a12929150614a4c565b5090565b508054614a2290615255565b6000825580601f10614a32575050565b601f016020900490600052602060002090810190610ddb91905b5b80821115614a125760008155600101614a4d565b600067ffffffffffffffff80841115614a7c57614a7c615311565b604051601f8501601f19908116603f01168101908282118183101715614aa457614aa4615311565b81604052809350858152868686011115614abd57600080fd5b858560208301376000602087830101525050509392505050565b600082601f830112614ae857600080fd5b61197983833560208501614a61565b600060208284031215614b0957600080fd5b813561197981615327565b600060208284031215614b2657600080fd5b815161197981615327565b60008060408385031215614b4457600080fd5b8235614b4f81615327565b91506020830135614b5f81615327565b809150509250929050565b600080600060608486031215614b7f57600080fd5b8335614b8a81615327565b92506020840135614b9a81615327565b929592945050506040919091013590565b60008060008060808587031215614bc157600080fd5b8435614bcc81615327565b93506020850135614bdc81615327565b925060408501359150606085013567ffffffffffffffff811115614bff57600080fd5b8501601f81018713614c1057600080fd5b614c1f87823560208401614a61565b91505092959194509250565b60008060408385031215614c3e57600080fd5b8235614c4981615327565b91506020830135614b5f8161533c565b60008060408385031215614c6c57600080fd5b8235614c7781615327565b9150602083013567ffffffffffffffff811115614c9357600080fd5b614c9f85828601614ad7565b9150509250929050565b600080600060608486031215614cbe57600080fd5b8335614cc981615327565b9250602084013567ffffffffffffffff80821115614ce657600080fd5b614cf287838801614ad7565b93506040860135915080821115614d0857600080fd5b50614d1586828701614ad7565b9150509250925092565b60008060008060808587031215614d3557600080fd5b8435614d4081615327565b9350602085013567ffffffffffffffff80821115614d5d57600080fd5b614d6988838901614ad7565b9450604087013593506060870135915080821115614d8657600080fd5b50614c1f87828801614ad7565b60008060408385031215614da657600080fd5b8235614db181615327565b946020939093013593505050565b600060208284031215614dd157600080fd5b81356119798161533c565b600060208284031215614dee57600080fd5b81516119798161533c565b600060208284031215614e0b57600080fd5b5035919050565b60008060408385031215614e2557600080fd5b823591506020830135614b5f81615327565b60008060408385031215614e4a57600080fd5b50508035926020909101359150565b600060208284031215614e6b57600080fd5b81356119798161534a565b600060208284031215614e8857600080fd5b81516119798161534a565b600060208284031215614ea557600080fd5b813567ffffffffffffffff811115614ebc57600080fd5b611f5884828501614ad7565b600060208284031215614eda57600080fd5b5051919050565b60008151808452614ef9816020860160208601615212565b601f01601f19169290920160200192915050565b60008351614f1f818460208801615212565b835190830190614f33818360208801615212565b01949350505050565b7f416363657373436f6e74726f6c3a206163636f756e7420000000000000000000815260008351614f74816017850160208801615212565b7001034b99036b4b9b9b4b733903937b6329607d1b6017918401918201528351614fa5816028840160208801615212565b01602801949350505050565b6001600160a01b0385811682528416602082015260408101839052608060608201819052600090614fe490830184614ee1565b9695505050505050565b6001600160a01b0383168152604060208201819052600090611f5890830184614ee1565b6020808252825182820181905260009190848201906040850190845b8181101561504a5783518352928401929184019160010161502e565b50909695505050505050565b6020815260006119796020830184614ee1565b60208082526010908201526f436f757274204d75737420416772656560801b604082015260600190565b60208082526032908201527f4552433732313a207472616e7366657220746f206e6f6e20455243373231526560408201527131b2b4bb32b91034b6b83632b6b2b73a32b960711b606082015260800190565b6020808252602d908201527f596f7520646f206e6f742068617665207065726d697373696f6e20746f206d6f60408201526c7665207468697320626164676560981b606082015260800190565b602080825260139082015272596f75277265206e6f7420746865204a75727960681b604082015260600190565b60208082526031908201527f4552433732313a207472616e736665722063616c6c6572206973206e6f74206f6040820152701ddb995c881b9bdc88185c1c1c9bdd9959607a1b606082015260800190565b600082198211156151c3576151c36152b9565b500190565b6000826151d7576151d76152cf565b500490565b60008160001904831182151516156151f6576151f66152b9565b500290565b60008282101561520d5761520d6152b9565b500390565b60005b8381101561522d578181015183820152602001615215565b83811115611dc75750506000910152565b60008161524d5761524d6152b9565b506000190190565b600181811c9082168061526957607f821691505b60208210811415610fa457634e487b7160e01b600052602260045260246000fd5b600060001982141561529e5761529e6152b9565b5060010190565b6000826152b4576152b46152cf565b500690565b634e487b7160e01b600052601160045260246000fd5b634e487b7160e01b600052601260045260246000fd5b634e487b7160e01b600052603160045260246000fd5b634e487b7160e01b600052603260045260246000fd5b634e487b7160e01b600052604160045260246000fd5b6001600160a01b0381168114610ddb57600080fd5b8015158114610ddb57600080fd5b6001600160e01b031981168114610ddb57600080fdfefa8e4989e1d689f7bc5c4b25b87efb51fecdecb19ba62847e29c759e12a89acd048bc71fa1cb2c119c339cf9cf00a97996a19a9d991ce5fe049f2fa5459e7990f0f4b159a6e2a4815eb3ca3df080bfa70c9270662c59bcaa4479a456220183e60538d24a8b7882d7b2e36af243d4af61c23e86e3daa6cb8c887b53220b2f57207c9d7f6f02908185bffb3f7fc9afb29fd7bf93675af8fd4b655ee05c2cee1e0ea26469706673582212208019b4273461c4c033cba07360217d27d6c07b3d774376556eb8c7b9d568127564736f6c63430008070033",
  "immutableReferences": {},
  "source": "pragma solidity ^0.8.0;\n\nimport \"../src/ERC721/ElectedBadge.sol\";\n\n\ncontract ChadBadges is ElectedBadge {\n\n     constructor( address _AddressManagerAddress)\n        ElectedBadge(\"ChadBadge\", \"Chad\", _AddressManagerAddress)\n    {\n    }      \n\n}",
  "sourcePath": "/home/n/Desktop/PinkSlips_FrontEnd_REFORMAT/contracts/badges/ChadBadges.sol",
  "compiler": {
    "name": "solc",
    "version": "0.8.7+commit.e28d00a7.Emscripten.clang"
  },
  "schemaVersion": "3.4.1",
  "updatedAt": "2021-08-19T06:45:05.507Z",
  "networkType": "ethereum",
  "devdoc": {
    "kind": "dev",
    "methods": {
      "approve(address,uint256)": {
        "details": "See {IERC721-approve}."
      },
      "balanceOf(address)": {
        "details": "See {IERC721-balanceOf}."
      },
      "getApproved(uint256)": {
        "details": "See {IERC721-getApproved}."
      },
      "getRoleAdmin(bytes32)": {
        "details": "Returns the admin role that controls `role`. See {grantRole} and {revokeRole}. To change a role's admin, use {_setRoleAdmin}."
      },
      "getRoleMember(bytes32,uint256)": {
        "details": "Returns one of the accounts that have `role`. `index` must be a value between 0 and {getRoleMemberCount}, non-inclusive. Role bearers are not sorted in any particular way, and their ordering may change at any point. WARNING: When using {getRoleMember} and {getRoleMemberCount}, make sure you perform all queries on the same block. See the following https://forum.openzeppelin.com/t/iterating-over-elements-on-enumerableset-in-openzeppelin-contracts/2296[forum post] for more information."
      },
      "getRoleMemberCount(bytes32)": {
        "details": "Returns the number of accounts that have `role`. Can be used together with {getRoleMember} to enumerate all bearers of a role."
      },
      "grantRole(bytes32,address)": {
        "details": "Overload {grantRole} to track enumerable memberships"
      },
      "hasRole(bytes32,address)": {
        "details": "Returns `true` if `account` has been granted `role`."
      },
      "isApprovedForAll(address,address)": {
        "details": "See {IERC721-isApprovedForAll}."
      },
      "issueBadge(address,string)": {
        "details": "//// Issuance Desk                                                                            ////"
      },
      "name()": {
        "details": "See {IERC721Metadata-name}."
      },
      "ownerOf(uint256)": {
        "details": "See {IERC721-ownerOf}."
      },
      "pause()": {
        "details": "//// Maintanence\\\\\\\\\\\\\\\\\\\\\\\\\\\\\\\\\\\\\\\\\\\\\\\\\\\\\\                                                   ////"
      },
      "paused()": {
        "details": "Returns true if the contract is paused, and false otherwise."
      },
      "renounceRole(bytes32,address)": {
        "details": "Overload {renounceRole} to track enumerable memberships"
      },
      "revokeRole(bytes32,address)": {
        "details": "Overload {revokeRole} to track enumerable memberships"
      },
      "safeTransferFrom(address,address,uint256)": {
        "details": "See {IERC721-safeTransferFrom}."
      },
      "safeTransferFrom(address,address,uint256,bytes)": {
        "details": "See {IERC721-safeTransferFrom}."
      },
      "setApprovalForAll(address,bool)": {
        "details": "See {IERC721-setApprovalForAll}."
      },
      "setMintingCost(uint256)": {
        "details": "//// Set Minting Costs                                                                        ////"
      },
      "symbol()": {
        "details": "See {IERC721Metadata-symbol}."
      },
      "tokenByIndex(uint256)": {
        "details": "See {IERC721Enumerable-tokenByIndex}."
      },
      "tokenOfOwnerByIndex(address,uint256)": {
        "details": "See {IERC721Enumerable-tokenOfOwnerByIndex}."
      },
      "totalSupply()": {
        "details": "See {IERC721Enumerable-totalSupply}."
      },
      "transferFrom(address,address,uint256)": {
        "details": "See {IERC721-transferFrom}."
      }
    },
    "version": 1
  },
  "userdoc": {
    "kind": "user",
    "methods": {},
    "version": 1
  }
}