{
  "contractName": "ChadBadges",
  "abi": [
    {
      "inputs": [
        {
          "internalType": "address",
          "name": "_AddressManagerAddress",
          "type": "address"
        }
      ],
      "stateMutability": "nonpayable",
      "type": "constructor"
    },
    {
      "anonymous": false,
      "inputs": [
        {
          "indexed": true,
          "internalType": "address",
          "name": "owner",
          "type": "address"
        },
        {
          "indexed": true,
          "internalType": "address",
          "name": "approved",
          "type": "address"
        },
        {
          "indexed": true,
          "internalType": "uint256",
          "name": "tokenId",
          "type": "uint256"
        }
      ],
      "name": "Approval",
      "type": "event"
    },
    {
      "anonymous": false,
      "inputs": [
        {
          "indexed": true,
          "internalType": "address",
          "name": "owner",
          "type": "address"
        },
        {
          "indexed": true,
          "internalType": "address",
          "name": "operator",
          "type": "address"
        },
        {
          "indexed": false,
          "internalType": "bool",
          "name": "approved",
          "type": "bool"
        }
      ],
      "name": "ApprovalForAll",
      "type": "event"
    },
    {
      "anonymous": false,
      "inputs": [
        {
          "indexed": false,
          "internalType": "address",
          "name": "account",
          "type": "address"
        }
      ],
      "name": "Paused",
      "type": "event"
    },
    {
      "anonymous": false,
      "inputs": [
        {
          "indexed": true,
          "internalType": "bytes32",
          "name": "role",
          "type": "bytes32"
        },
        {
          "indexed": true,
          "internalType": "bytes32",
          "name": "previousAdminRole",
          "type": "bytes32"
        },
        {
          "indexed": true,
          "internalType": "bytes32",
          "name": "newAdminRole",
          "type": "bytes32"
        }
      ],
      "name": "RoleAdminChanged",
      "type": "event"
    },
    {
      "anonymous": false,
      "inputs": [
        {
          "indexed": true,
          "internalType": "bytes32",
          "name": "role",
          "type": "bytes32"
        },
        {
          "indexed": true,
          "internalType": "address",
          "name": "account",
          "type": "address"
        },
        {
          "indexed": true,
          "internalType": "address",
          "name": "sender",
          "type": "address"
        }
      ],
      "name": "RoleGranted",
      "type": "event"
    },
    {
      "anonymous": false,
      "inputs": [
        {
          "indexed": true,
          "internalType": "bytes32",
          "name": "role",
          "type": "bytes32"
        },
        {
          "indexed": true,
          "internalType": "address",
          "name": "account",
          "type": "address"
        },
        {
          "indexed": true,
          "internalType": "address",
          "name": "sender",
          "type": "address"
        }
      ],
      "name": "RoleRevoked",
      "type": "event"
    },
    {
      "anonymous": false,
      "inputs": [
        {
          "indexed": true,
          "internalType": "address",
          "name": "from",
          "type": "address"
        },
        {
          "indexed": true,
          "internalType": "address",
          "name": "to",
          "type": "address"
        },
        {
          "indexed": true,
          "internalType": "uint256",
          "name": "tokenId",
          "type": "uint256"
        }
      ],
      "name": "Transfer",
      "type": "event"
    },
    {
      "anonymous": false,
      "inputs": [
        {
          "indexed": false,
          "internalType": "address",
          "name": "account",
          "type": "address"
        }
      ],
      "name": "Unpaused",
      "type": "event"
    },
    {
      "inputs": [],
      "name": "AddressManagerAddress",
      "outputs": [
        {
          "internalType": "address",
          "name": "",
          "type": "address"
        }
      ],
      "stateMutability": "view",
      "type": "function",
      "constant": true
    },
    {
      "inputs": [
        {
          "internalType": "uint256",
          "name": "",
          "type": "uint256"
        }
      ],
      "name": "BadgeInfo",
      "outputs": [
        {
          "internalType": "address",
          "name": "gifter",
          "type": "address"
        },
        {
          "internalType": "string",
          "name": "reason",
          "type": "string"
        }
      ],
      "stateMutability": "view",
      "type": "function",
      "constant": true
    },
    {
      "inputs": [
        {
          "internalType": "address",
          "name": "",
          "type": "address"
        },
        {
          "internalType": "uint256",
          "name": "",
          "type": "uint256"
        }
      ],
      "name": "BadgesSent",
      "outputs": [
        {
          "internalType": "uint256",
          "name": "",
          "type": "uint256"
        }
      ],
      "stateMutability": "view",
      "type": "function",
      "constant": true
    },
    {
      "inputs": [],
      "name": "ChadBadgeAddress",
      "outputs": [
        {
          "internalType": "address",
          "name": "",
          "type": "address"
        }
      ],
      "stateMutability": "view",
      "type": "function",
      "constant": true
    },
    {
      "inputs": [],
      "name": "ColoredIDAddress",
      "outputs": [
        {
          "internalType": "address",
          "name": "",
          "type": "address"
        }
      ],
      "stateMutability": "view",
      "type": "function",
      "constant": true
    },
    {
      "inputs": [],
      "name": "CourtClerk",
      "outputs": [
        {
          "internalType": "address",
          "name": "",
          "type": "address"
        }
      ],
      "stateMutability": "view",
      "type": "function",
      "constant": true
    },
    {
      "inputs": [],
      "name": "DEFAULT_ADMIN_ROLE",
      "outputs": [
        {
          "internalType": "bytes32",
          "name": "",
          "type": "bytes32"
        }
      ],
      "stateMutability": "view",
      "type": "function",
      "constant": true
    },
    {
      "inputs": [],
      "name": "GAVELS_BAILIFF",
      "outputs": [
        {
          "internalType": "bytes32",
          "name": "",
          "type": "bytes32"
        }
      ],
      "stateMutability": "view",
      "type": "function",
      "constant": true
    },
    {
      "inputs": [],
      "name": "GavelDAOAgent",
      "outputs": [
        {
          "internalType": "address",
          "name": "",
          "type": "address"
        }
      ],
      "stateMutability": "view",
      "type": "function",
      "constant": true
    },
    {
      "inputs": [],
      "name": "GavelTokenAddress",
      "outputs": [
        {
          "internalType": "address",
          "name": "",
          "type": "address"
        }
      ],
      "stateMutability": "view",
      "type": "function",
      "constant": true
    },
    {
      "inputs": [],
      "name": "GavelVote",
      "outputs": [
        {
          "internalType": "bool",
          "name": "",
          "type": "bool"
        }
      ],
      "stateMutability": "view",
      "type": "function",
      "constant": true
    },
    {
      "inputs": [],
      "name": "GoldStarAddress",
      "outputs": [
        {
          "internalType": "address",
          "name": "",
          "type": "address"
        }
      ],
      "stateMutability": "view",
      "type": "function",
      "constant": true
    },
    {
      "inputs": [],
      "name": "JERK_ROLE",
      "outputs": [
        {
          "internalType": "bytes32",
          "name": "",
          "type": "bytes32"
        }
      ],
      "stateMutability": "view",
      "type": "function",
      "constant": true
    },
    {
      "inputs": [],
      "name": "JURY_BAILIFF",
      "outputs": [
        {
          "internalType": "bytes32",
          "name": "",
          "type": "bytes32"
        }
      ],
      "stateMutability": "view",
      "type": "function",
      "constant": true
    },
    {
      "inputs": [],
      "name": "JuryDAOAgent",
      "outputs": [
        {
          "internalType": "address",
          "name": "",
          "type": "address"
        }
      ],
      "stateMutability": "view",
      "type": "function",
      "constant": true
    },
    {
      "inputs": [],
      "name": "JuryPoolAddress",
      "outputs": [
        {
          "internalType": "address",
          "name": "",
          "type": "address"
        }
      ],
      "stateMutability": "view",
      "type": "function",
      "constant": true
    },
    {
      "inputs": [],
      "name": "JuryVote",
      "outputs": [
        {
          "internalType": "bool",
          "name": "",
          "type": "bool"
        }
      ],
      "stateMutability": "view",
      "type": "function",
      "constant": true
    },
    {
      "inputs": [],
      "name": "MINI_BAILIFF_ROLE",
      "outputs": [
        {
          "internalType": "bytes32",
          "name": "",
          "type": "bytes32"
        }
      ],
      "stateMutability": "view",
      "type": "function",
      "constant": true
    },
    {
      "inputs": [],
      "name": "MiniBailiff",
      "outputs": [
        {
          "internalType": "address",
          "name": "",
          "type": "address"
        }
      ],
      "stateMutability": "view",
      "type": "function",
      "constant": true
    },
    {
      "inputs": [],
      "name": "PinkSlipAddress",
      "outputs": [
        {
          "internalType": "address",
          "name": "",
          "type": "address"
        }
      ],
      "stateMutability": "view",
      "type": "function",
      "constant": true
    },
    {
      "inputs": [],
      "name": "RedPenTokenAddress",
      "outputs": [
        {
          "internalType": "address",
          "name": "",
          "type": "address"
        }
      ],
      "stateMutability": "view",
      "type": "function",
      "constant": true
    },
    {
      "inputs": [],
      "name": "THE_COURT_ROLE",
      "outputs": [
        {
          "internalType": "bytes32",
          "name": "",
          "type": "bytes32"
        }
      ],
      "stateMutability": "view",
      "type": "function",
      "constant": true
    },
    {
      "inputs": [],
      "name": "TheCourtAddress",
      "outputs": [
        {
          "internalType": "address",
          "name": "",
          "type": "address"
        }
      ],
      "stateMutability": "view",
      "type": "function",
      "constant": true
    },
    {
      "inputs": [],
      "name": "TreasuryAddress",
      "outputs": [
        {
          "internalType": "address",
          "name": "",
          "type": "address"
        }
      ],
      "stateMutability": "view",
      "type": "function",
      "constant": true
    },
    {
      "inputs": [],
      "name": "addressManager",
      "outputs": [
        {
          "internalType": "contract AddressManager",
          "name": "",
          "type": "address"
        }
      ],
      "stateMutability": "view",
      "type": "function",
      "constant": true
    },
    {
      "inputs": [
        {
          "internalType": "address",
          "name": "to",
          "type": "address"
        },
        {
          "internalType": "uint256",
          "name": "tokenId",
          "type": "uint256"
        }
      ],
      "name": "approve",
      "outputs": [],
      "stateMutability": "nonpayable",
      "type": "function"
    },
    {
      "inputs": [],
      "name": "badgeColor",
      "outputs": [
        {
          "internalType": "string",
          "name": "",
          "type": "string"
        }
      ],
      "stateMutability": "view",
      "type": "function",
      "constant": true
    },
    {
      "inputs": [],
      "name": "badgeName",
      "outputs": [
        {
          "internalType": "string",
          "name": "",
          "type": "string"
        }
      ],
      "stateMutability": "view",
      "type": "function",
      "constant": true
    },
    {
      "inputs": [
        {
          "internalType": "address",
          "name": "owner",
          "type": "address"
        }
      ],
      "name": "balanceOf",
      "outputs": [
        {
          "internalType": "uint256",
          "name": "",
          "type": "uint256"
        }
      ],
      "stateMutability": "view",
      "type": "function",
      "constant": true
    },
    {
      "inputs": [],
      "name": "baseURI_",
      "outputs": [
        {
          "internalType": "string",
          "name": "",
          "type": "string"
        }
      ],
      "stateMutability": "view",
      "type": "function",
      "constant": true
    },
    {
      "inputs": [
        {
          "internalType": "address",
          "name": "",
          "type": "address"
        }
      ],
      "name": "chadVoteBalance",
      "outputs": [
        {
          "internalType": "uint256",
          "name": "",
          "type": "uint256"
        }
      ],
      "stateMutability": "view",
      "type": "function",
      "constant": true
    },
    {
      "inputs": [
        {
          "internalType": "uint256",
          "name": "valueMustBe69",
          "type": "uint256"
        }
      ],
      "name": "destroyAndLockContract",
      "outputs": [
        {
          "internalType": "bool",
          "name": "",
          "type": "bool"
        }
      ],
      "stateMutability": "nonpayable",
      "type": "function"
    },
    {
      "inputs": [
        {
          "internalType": "address",
          "name": "receivingAddress",
          "type": "address"
        },
        {
          "internalType": "string",
          "name": "_reason",
          "type": "string"
        },
        {
          "internalType": "uint256",
          "name": "_voteValue",
          "type": "uint256"
        },
        {
          "internalType": "string",
          "name": "_tokenURI",
          "type": "string"
        }
      ],
      "name": "electAChad",
      "outputs": [
        {
          "internalType": "uint256",
          "name": "_newId_or_votesRemaining",
          "type": "uint256"
        }
      ],
      "stateMutability": "nonpayable",
      "type": "function"
    },
    {
      "inputs": [
        {
          "internalType": "address",
          "name": "receivingAddress",
          "type": "address"
        },
        {
          "internalType": "uint256",
          "name": "_voteValue",
          "type": "uint256"
        }
      ],
      "name": "electAChad",
      "outputs": [
        {
          "internalType": "uint256",
          "name": "votesRemaining",
          "type": "uint256"
        }
      ],
      "stateMutability": "nonpayable",
      "type": "function"
    },
    {
      "inputs": [
        {
          "internalType": "uint256",
          "name": "tokenId",
          "type": "uint256"
        }
      ],
      "name": "getApproved",
      "outputs": [
        {
          "internalType": "address",
          "name": "",
          "type": "address"
        }
      ],
      "stateMutability": "view",
      "type": "function",
      "constant": true
    },
    {
      "inputs": [
        {
          "internalType": "uint256",
          "name": "_tokenId",
          "type": "uint256"
        }
      ],
      "name": "getBadgeReason",
      "outputs": [
        {
          "internalType": "string",
          "name": "_theReason",
          "type": "string"
        }
      ],
      "stateMutability": "view",
      "type": "function",
      "constant": true
    },
    {
      "inputs": [
        {
          "internalType": "uint256",
          "name": "_tokenId",
          "type": "uint256"
        }
      ],
      "name": "getBadgeSender",
      "outputs": [
        {
          "internalType": "address",
          "name": "_theGifter",
          "type": "address"
        }
      ],
      "stateMutability": "view",
      "type": "function",
      "constant": true
    },
    {
      "inputs": [
        {
          "internalType": "address",
          "name": "_gifter",
          "type": "address"
        }
      ],
      "name": "getBadgesSent",
      "outputs": [
        {
          "internalType": "uint256[]",
          "name": "_BadgesSent",
          "type": "uint256[]"
        }
      ],
      "stateMutability": "view",
      "type": "function",
      "constant": true
    },
    {
      "inputs": [
        {
          "internalType": "bytes32",
          "name": "role",
          "type": "bytes32"
        }
      ],
      "name": "getRoleAdmin",
      "outputs": [
        {
          "internalType": "bytes32",
          "name": "",
          "type": "bytes32"
        }
      ],
      "stateMutability": "view",
      "type": "function",
      "constant": true
    },
    {
      "inputs": [
        {
          "internalType": "bytes32",
          "name": "role",
          "type": "bytes32"
        },
        {
          "internalType": "uint256",
          "name": "index",
          "type": "uint256"
        }
      ],
      "name": "getRoleMember",
      "outputs": [
        {
          "internalType": "address",
          "name": "",
          "type": "address"
        }
      ],
      "stateMutability": "view",
      "type": "function",
      "constant": true
    },
    {
      "inputs": [
        {
          "internalType": "bytes32",
          "name": "role",
          "type": "bytes32"
        }
      ],
      "name": "getRoleMemberCount",
      "outputs": [
        {
          "internalType": "uint256",
          "name": "",
          "type": "uint256"
        }
      ],
      "stateMutability": "view",
      "type": "function",
      "constant": true
    },
    {
      "inputs": [
        {
          "internalType": "address",
          "name": "_nominatedAddress",
          "type": "address"
        }
      ],
      "name": "getVotesNeeded",
      "outputs": [
        {
          "internalType": "uint256",
          "name": "_votesNeeded",
          "type": "uint256"
        }
      ],
      "stateMutability": "view",
      "type": "function",
      "constant": true
    },
    {
      "inputs": [
        {
          "internalType": "bytes32",
          "name": "role",
          "type": "bytes32"
        },
        {
          "internalType": "address",
          "name": "account",
          "type": "address"
        }
      ],
      "name": "grantRole",
      "outputs": [],
      "stateMutability": "nonpayable",
      "type": "function"
    },
    {
      "inputs": [
        {
          "internalType": "bytes32",
          "name": "role",
          "type": "bytes32"
        },
        {
          "internalType": "address",
          "name": "account",
          "type": "address"
        }
      ],
      "name": "hasRole",
      "outputs": [
        {
          "internalType": "bool",
          "name": "",
          "type": "bool"
        }
      ],
      "stateMutability": "view",
      "type": "function",
      "constant": true
    },
    {
      "inputs": [
        {
          "internalType": "address",
          "name": "owner",
          "type": "address"
        },
        {
          "internalType": "address",
          "name": "operator",
          "type": "address"
        }
      ],
      "name": "isApprovedForAll",
      "outputs": [
        {
          "internalType": "bool",
          "name": "",
          "type": "bool"
        }
      ],
      "stateMutability": "view",
      "type": "function",
      "constant": true
    },
    {
      "inputs": [
        {
          "internalType": "address",
          "name": "addressToCheck",
          "type": "address"
        },
        {
          "internalType": "uint256",
          "name": "badgeTokenID",
          "type": "uint256"
        }
      ],
      "name": "isBadgeSender",
      "outputs": [
        {
          "internalType": "bool",
          "name": "",
          "type": "bool"
        }
      ],
      "stateMutability": "view",
      "type": "function",
      "constant": true
    },
    {
      "inputs": [],
      "name": "isForeverLocked",
      "outputs": [
        {
          "internalType": "bool",
          "name": "",
          "type": "bool"
        }
      ],
      "stateMutability": "view",
      "type": "function",
      "constant": true
    },
    {
      "inputs": [
        {
          "internalType": "address",
          "name": "receivingAddress",
          "type": "address"
        },
        {
          "internalType": "string",
          "name": "_reason",
          "type": "string"
        }
      ],
      "name": "issueBadge",
      "outputs": [
        {
          "internalType": "uint256",
          "name": "newId",
          "type": "uint256"
        }
      ],
      "stateMutability": "nonpayable",
      "type": "function"
    },
    {
      "inputs": [
        {
          "internalType": "address",
          "name": "receivingAddress",
          "type": "address"
        },
        {
          "internalType": "string",
          "name": "_reason",
          "type": "string"
        },
        {
          "internalType": "string",
          "name": "_tokenURI",
          "type": "string"
        }
      ],
      "name": "issueBadge",
      "outputs": [
        {
          "internalType": "uint256",
          "name": "newId",
          "type": "uint256"
        }
      ],
      "stateMutability": "nonpayable",
      "type": "function"
    },
    {
      "inputs": [],
      "name": "jerkSanctions",
      "outputs": [
        {
          "internalType": "bool",
          "name": "",
          "type": "bool"
        }
      ],
      "stateMutability": "view",
      "type": "function",
      "constant": true
    },
    {
      "inputs": [],
      "name": "mintingCost",
      "outputs": [
        {
          "internalType": "uint256",
          "name": "",
          "type": "uint256"
        }
      ],
      "stateMutability": "view",
      "type": "function",
      "constant": true
    },
    {
      "inputs": [],
      "name": "mintingCostFloor",
      "outputs": [
        {
          "internalType": "uint256",
          "name": "",
          "type": "uint256"
        }
      ],
      "stateMutability": "view",
      "type": "function",
      "constant": true
    },
    {
      "inputs": [],
      "name": "name",
      "outputs": [
        {
          "internalType": "string",
          "name": "",
          "type": "string"
        }
      ],
      "stateMutability": "view",
      "type": "function",
      "constant": true
    },
    {
      "inputs": [],
      "name": "nextTokenId",
      "outputs": [
        {
          "internalType": "uint256",
          "name": "_nextTokenId",
          "type": "uint256"
        }
      ],
      "stateMutability": "view",
      "type": "function",
      "constant": true
    },
    {
      "inputs": [
        {
          "internalType": "uint256",
          "name": "tokenId",
          "type": "uint256"
        }
      ],
      "name": "ownerOf",
      "outputs": [
        {
          "internalType": "address",
          "name": "",
          "type": "address"
        }
      ],
      "stateMutability": "view",
      "type": "function",
      "constant": true
    },
    {
      "inputs": [],
      "name": "pause",
      "outputs": [],
      "stateMutability": "nonpayable",
      "type": "function"
    },
    {
      "inputs": [],
      "name": "paused",
      "outputs": [
        {
          "internalType": "bool",
          "name": "",
          "type": "bool"
        }
      ],
      "stateMutability": "view",
      "type": "function",
      "constant": true
    },
    {
      "inputs": [],
      "name": "redPens",
      "outputs": [
        {
          "internalType": "contract ERC20Burnable",
          "name": "",
          "type": "address"
        }
      ],
      "stateMutability": "view",
      "type": "function",
      "constant": true
    },
    {
      "inputs": [
        {
          "internalType": "bool",
          "name": "thisIsNotReversible",
          "type": "bool"
        }
      ],
      "name": "refreshBadges",
      "outputs": [
        {
          "internalType": "bool",
          "name": "",
          "type": "bool"
        }
      ],
      "stateMutability": "nonpayable",
      "type": "function"
    },
    {
      "inputs": [
        {
          "internalType": "bytes32",
          "name": "role",
          "type": "bytes32"
        },
        {
          "internalType": "address",
          "name": "account",
          "type": "address"
        }
      ],
      "name": "renounceRole",
      "outputs": [],
      "stateMutability": "nonpayable",
      "type": "function"
    },
    {
      "inputs": [],
      "name": "resetVote",
      "outputs": [],
      "stateMutability": "nonpayable",
      "type": "function"
    },
    {
      "inputs": [
        {
          "internalType": "uint256",
          "name": "tokenId",
          "type": "uint256"
        }
      ],
      "name": "revokeBadge",
      "outputs": [],
      "stateMutability": "nonpayable",
      "type": "function"
    },
    {
      "inputs": [
        {
          "internalType": "bytes32",
          "name": "role",
          "type": "bytes32"
        },
        {
          "internalType": "address",
          "name": "account",
          "type": "address"
        }
      ],
      "name": "revokeRole",
      "outputs": [],
      "stateMutability": "nonpayable",
      "type": "function"
    },
    {
      "inputs": [
        {
          "internalType": "address",
          "name": "from",
          "type": "address"
        },
        {
          "internalType": "address",
          "name": "to",
          "type": "address"
        },
        {
          "internalType": "uint256",
          "name": "tokenId",
          "type": "uint256"
        }
      ],
      "name": "safeTransferFrom",
      "outputs": [],
      "stateMutability": "nonpayable",
      "type": "function"
    },
    {
      "inputs": [
        {
          "internalType": "address",
          "name": "from",
          "type": "address"
        },
        {
          "internalType": "address",
          "name": "to",
          "type": "address"
        },
        {
          "internalType": "uint256",
          "name": "tokenId",
          "type": "uint256"
        },
        {
          "internalType": "bytes",
          "name": "_data",
          "type": "bytes"
        }
      ],
      "name": "safeTransferFrom",
      "outputs": [],
      "stateMutability": "nonpayable",
      "type": "function"
    },
    {
      "inputs": [
        {
          "internalType": "address",
          "name": "operator",
          "type": "address"
        },
        {
          "internalType": "bool",
          "name": "approved",
          "type": "bool"
        }
      ],
      "name": "setApprovalForAll",
      "outputs": [],
      "stateMutability": "nonpayable",
      "type": "function"
    },
    {
      "inputs": [
        {
          "internalType": "string",
          "name": "_baseURIString",
          "type": "string"
        }
      ],
      "name": "setBaseURI",
      "outputs": [
        {
          "internalType": "bool",
          "name": "",
          "type": "bool"
        }
      ],
      "stateMutability": "nonpayable",
      "type": "function"
    },
    {
      "inputs": [
        {
          "internalType": "uint256",
          "name": "costInWei",
          "type": "uint256"
        }
      ],
      "name": "setMintingCost",
      "outputs": [
        {
          "internalType": "bool",
          "name": "",
          "type": "bool"
        }
      ],
      "stateMutability": "nonpayable",
      "type": "function"
    },
    {
      "inputs": [
        {
          "internalType": "uint256",
          "name": "costFloorInWei",
          "type": "uint256"
        }
      ],
      "name": "setMintingCostFloor",
      "outputs": [
        {
          "internalType": "bool",
          "name": "",
          "type": "bool"
        }
      ],
      "stateMutability": "nonpayable",
      "type": "function"
    },
    {
      "inputs": [
        {
          "internalType": "bytes4",
          "name": "interfaceId",
          "type": "bytes4"
        }
      ],
      "name": "supportsInterface",
      "outputs": [
        {
          "internalType": "bool",
          "name": "",
          "type": "bool"
        }
      ],
      "stateMutability": "view",
      "type": "function",
      "constant": true
    },
    {
      "inputs": [],
      "name": "symbol",
      "outputs": [
        {
          "internalType": "string",
          "name": "",
          "type": "string"
        }
      ],
      "stateMutability": "view",
      "type": "function",
      "constant": true
    },
    {
      "inputs": [],
      "name": "syncAllRoles",
      "outputs": [],
      "stateMutability": "nonpayable",
      "type": "function"
    },
    {
      "inputs": [
        {
          "internalType": "bytes32",
          "name": "ROLE_TO_SYNC",
          "type": "bytes32"
        }
      ],
      "name": "syncSingleRole",
      "outputs": [],
      "stateMutability": "nonpayable",
      "type": "function"
    },
    {
      "inputs": [],
      "name": "syncVotes",
      "outputs": [],
      "stateMutability": "nonpayable",
      "type": "function"
    },
    {
      "inputs": [
        {
          "internalType": "uint256",
          "name": "index",
          "type": "uint256"
        }
      ],
      "name": "tokenByIndex",
      "outputs": [
        {
          "internalType": "uint256",
          "name": "",
          "type": "uint256"
        }
      ],
      "stateMutability": "view",
      "type": "function",
      "constant": true
    },
    {
      "inputs": [
        {
          "internalType": "address",
          "name": "owner",
          "type": "address"
        },
        {
          "internalType": "uint256",
          "name": "index",
          "type": "uint256"
        }
      ],
      "name": "tokenOfOwnerByIndex",
      "outputs": [
        {
          "internalType": "uint256",
          "name": "",
          "type": "uint256"
        }
      ],
      "stateMutability": "view",
      "type": "function",
      "constant": true
    },
    {
      "inputs": [
        {
          "internalType": "uint256",
          "name": "_tokenId",
          "type": "uint256"
        }
      ],
      "name": "tokenURI",
      "outputs": [
        {
          "internalType": "string",
          "name": "_URI",
          "type": "string"
        }
      ],
      "stateMutability": "view",
      "type": "function",
      "constant": true
    },
    {
      "inputs": [],
      "name": "totalSupply",
      "outputs": [
        {
          "internalType": "uint256",
          "name": "",
          "type": "uint256"
        }
      ],
      "stateMutability": "view",
      "type": "function",
      "constant": true
    },
    {
      "inputs": [
        {
          "internalType": "address",
          "name": "from",
          "type": "address"
        },
        {
          "internalType": "address",
          "name": "to",
          "type": "address"
        },
        {
          "internalType": "uint256",
          "name": "tokenId",
          "type": "uint256"
        }
      ],
      "name": "transferFrom",
      "outputs": [],
      "stateMutability": "nonpayable",
      "type": "function"
    },
    {
      "inputs": [],
      "name": "unpause",
      "outputs": [],
      "stateMutability": "nonpayable",
      "type": "function"
    },
    {
      "inputs": [],
      "name": "updateAddressManager",
      "outputs": [],
      "stateMutability": "nonpayable",
      "type": "function"
    },
    {
      "inputs": [],
      "name": "updateAllAddresses",
      "outputs": [],
      "stateMutability": "nonpayable",
      "type": "function"
    },
    {
      "inputs": [],
      "name": "updateAllRoles",
      "outputs": [],
      "stateMutability": "nonpayable",
      "type": "function"
    },
    {
      "inputs": [],
      "name": "updateDAOAddresses",
      "outputs": [],
      "stateMutability": "nonpayable",
      "type": "function"
    },
    {
      "inputs": [],
      "name": "updatePaymentToken",
      "outputs": [],
      "stateMutability": "nonpayable",
      "type": "function"
    },
    {
      "inputs": [
        {
          "internalType": "bytes32",
          "name": "ROLE_TO_UPDATE",
          "type": "bytes32"
        }
      ],
      "name": "updateSingleRole",
      "outputs": [],
      "stateMutability": "nonpayable",
      "type": "function"
    },
    {
      "inputs": [],
      "name": "updateTokenAddresses",
      "outputs": [],
      "stateMutability": "nonpayable",
      "type": "function"
    }
  ],
  "bytecode": "0x6000805460ff1990811682556011805463ffffffff60a01b19169055601e91909155601f80549091169055636970667360e01b60a0908152601d60f91b60a452602f60f81b60a581905260a6526007608081905260a7604052620000669160229162000cea565b50681043561a8829300000602555678ac7230489e80000602655600554602780546001600160a01b0319166001600160a01b03909216919091179055348015620000af57600080fd5b50604051620061f9380380620061f9833981016040819052620000d29162000d90565b604080518082018252600981526843686164426164676560b81b6020808301919091528251808401909352600483526310da185960e21b90830152600380546001600160a01b0385166001600160a01b0319918216811790925560118054909116909117905590828282828282826200014a62000313565b6200015462000329565b600f546200016e906000906001600160a01b031662000474565b600f54620001a7907f0538d24a8b7882d7b2e36af243d4af61c23e86e3daa6cb8c887b53220b2f5720906001600160a01b031662000474565b600c54620001e0907f048bc71fa1cb2c119c339cf9cf00a97996a19a9d991ce5fe049f2fa5459e7990906001600160a01b031662000474565b600d5462000219907ffa8e4989e1d689f7bc5c4b25b87efb51fecdecb19ba62847e29c759e12a89acd906001600160a01b031662000474565b60105462000252907ff0f4b159a6e2a4815eb3ca3df080bfa70c9270662c59bcaa4479a456220183e6906001600160a01b031662000474565b6200027f7f7c9d7f6f02908185bffb3f7fc9afb29fd7bf93675af8fd4b655ee05c2cee1e0e600062000474565b5081516200029590601290602085019062000cea565b508051620002ab90601390602084019062000cea565b50506018805460ff19169055508151620002cc906020908185019062000cea565b508251620002e290602190602086019062000cea565b5050600554602780546001600160a01b0319166001600160a01b039092169190911790555062000e23945050505050565b6200031d620004b7565b62000327620007b7565b565b601160009054906101000a90046001600160a01b03166001600160a01b031663ff7e88ec6040518163ffffffff1660e01b815260040160206040518083038186803b1580156200037857600080fd5b505afa1580156200038d573d6000803e3d6000fd5b505050506040513d601f19601f82011682018060405250810190620003b3919062000dc2565b601160156101000a81548160ff021916908315150217905550601160009054906101000a90046001600160a01b03166001600160a01b0316632fb565856040518163ffffffff1660e01b815260040160206040518083038186803b1580156200041b57600080fd5b505afa15801562000430573d6000803e3d6000fd5b505050506040513d601f19601f8201168201806040525081019062000456919062000dc2565b60118054911515600160b01b0260ff60b01b19909216919091179055565b6200048b828262000be060201b6200216a1760201c565b6000828152600260209081526040909120620004b29183906200217462000bf0821b17901c565b505050565b601160009054906101000a90046001600160a01b03166001600160a01b031663dadf56ac6040518163ffffffff1660e01b815260040160206040518083038186803b1580156200050657600080fd5b505afa1580156200051b573d6000803e3d6000fd5b505050506040513d601f19601f8201168201806040525081019062000541919062000d90565b600c80546001600160a01b0319166001600160a01b039283161790556011546040805163024bebe960e01b81529051919092169163024bebe9916004808301926020929190829003018186803b1580156200059b57600080fd5b505afa158015620005b0573d6000803e3d6000fd5b505050506040513d601f19601f82011682018060405250810190620005d6919062000d90565b600d80546001600160a01b0319166001600160a01b0392831617905560115460408051635b5c251f60e01b815290519190921691635b5c251f916004808301926020929190829003018186803b1580156200063057600080fd5b505afa15801562000645573d6000803e3d6000fd5b505050506040513d601f19601f820116820180604052508101906200066b919062000d90565b600e80546001600160a01b0319166001600160a01b0392831617905560115460408051637310bf1d60e11b81529051919092169163e6217e3a916004808301926020929190829003018186803b158015620006c557600080fd5b505afa158015620006da573d6000803e3d6000fd5b505050506040513d601f19601f8201168201806040525081019062000700919062000d90565b601080546001600160a01b0319166001600160a01b039283161790556011546040805163d88127a160e01b81529051919092169163d88127a1916004808301926020929190829003018186803b1580156200075a57600080fd5b505afa1580156200076f573d6000803e3d6000fd5b505050506040513d601f19601f8201168201806040525081019062000795919062000d90565b600b80546001600160a01b0319166001600160a01b0392909216919091179055565b601160009054906101000a90046001600160a01b03166001600160a01b03166321d7f0086040518163ffffffff1660e01b815260040160206040518083038186803b1580156200080657600080fd5b505afa1580156200081b573d6000803e3d6000fd5b505050506040513d601f19601f8201168201806040525081019062000841919062000d90565b600480546001600160a01b0319166001600160a01b039283161781556011546040805163762ddb5960e01b81529051919093169263762ddb599281810192602092909190829003018186803b1580156200089a57600080fd5b505afa158015620008af573d6000803e3d6000fd5b505050506040513d601f19601f82011682018060405250810190620008d5919062000d90565b600580546001600160a01b0319166001600160a01b039283161790556011546040805163bfb7dc9960e01b81529051919092169163bfb7dc99916004808301926020929190829003018186803b1580156200092f57600080fd5b505afa15801562000944573d6000803e3d6000fd5b505050506040513d601f19601f820116820180604052508101906200096a919062000d90565b600680546001600160a01b0319166001600160a01b0392831617905560115460408051633e6111eb60e21b81529051919092169163f98447ac916004808301926020929190829003018186803b158015620009c457600080fd5b505afa158015620009d9573d6000803e3d6000fd5b505050506040513d601f19601f82011682018060405250810190620009ff919062000d90565b600780546001600160a01b0319166001600160a01b0392831617905560115460408051630fe1ba9f60e21b815290519190921691633f86ea7c916004808301926020929190829003018186803b15801562000a5957600080fd5b505afa15801562000a6e573d6000803e3d6000fd5b505050506040513d601f19601f8201168201806040525081019062000a94919062000d90565b600880546001600160a01b0319166001600160a01b0392831617905560115460408051632b90024160e11b8152905191909216916357200482916004808301926020929190829003018186803b15801562000aee57600080fd5b505afa15801562000b03573d6000803e3d6000fd5b505050506040513d601f19601f8201168201806040525081019062000b29919062000d90565b600980546001600160a01b0319166001600160a01b0392831617905560115460408051636b58477560e01b815290519190921691636b584775916004808301926020929190829003018186803b15801562000b8357600080fd5b505afa15801562000b98573d6000803e3d6000fd5b505050506040513d601f19601f8201168201806040525081019062000bbe919062000d90565b600a80546001600160a01b0319166001600160a01b0392909216919091179055565b62000bec828262000c10565b5050565b600062000c07836001600160a01b03841662000c98565b90505b92915050565b60008281526001602090815260408083206001600160a01b038516845290915290205460ff1662000bec5760008281526001602081815260408084206001600160a01b0386168086529252808420805460ff19169093179092559051339285917f2f8788117e7eff1d82e926ec794901d17c78024a50270940304540a733656f0d9190a45050565b600081815260018301602052604081205462000ce15750815460018181018455600084815260208082209093018490558454848252828601909352604090209190915562000c0a565b50600062000c0a565b82805462000cf89062000de6565b90600052602060002090601f01602090048101928262000d1c576000855562000d67565b82601f1062000d3757805160ff191683800117855562000d67565b8280016001018555821562000d67579182015b8281111562000d6757825182559160200191906001019062000d4a565b5062000d7592915062000d79565b5090565b5b8082111562000d75576000815560010162000d7a565b60006020828403121562000da357600080fd5b81516001600160a01b038116811462000dbb57600080fd5b9392505050565b60006020828403121562000dd557600080fd5b8151801515811462000dbb57600080fd5b600181811c9082168062000dfb57607f821691505b6020821081141562000e1d57634e487b7160e01b600052602260045260246000fd5b50919050565b6153c68062000e336000396000f3fe608060405234801561001057600080fd5b50600436106104cd5760003560e01c80636c353e3411610283578063c62b28e81161015c578063e78c266c116100ce578063f1132b3011610092578063f1132b3014610aa8578063f259a29e14610ab0578063f7d92d8614610ab8578063f98447ac14610ac0578063f98db25314610ad3578063ff7e88ec14610ae657600080fd5b8063e78c266c14610a51578063e985e9c514610a64578063e9a5323014610a77578063ebf98abf14610a8c578063ee0b4c3514610a9557600080fd5b8063d547741f11610120578063d547741f146109ea578063d88127a1146109fd578063dadf56ac14610a10578063de2cff0314610a23578063dea6f9c814610a36578063e6217e3a14610a3e57600080fd5b8063c62b28e814610987578063c87b56dd1461099a578063ca15c873146109ad578063cce84392146109c0578063cf4ece15146109d557600080fd5b806396ac6bf0116101f5578063a78e746f116101b9578063a78e746f146108f9578063b7044f151461090d578063b8720c2f1461092d578063b88d4fde14610940578063bfb7dc9914610953578063c04e17e31461096657600080fd5b806396ac6bf0146108a95780639ac3eaa7146108bc578063a217fddf146108c9578063a22cb465146108d1578063a32c5e59146108e457600080fd5b80637651607811610247578063765160781461084d578063794ccf6c146108605780638456cb59146108735780639010d07c1461087b57806391d148541461088e57806395d89b41146108a157600080fd5b80636c353e34146107ee57806370a08231146107f657806373c898221461080957806375794a3c14610832578063762ddb591461083a57600080fd5b806336568abe116103b557806357f276ff116103275780635f413466116102eb5780635f4134661461077a578063610c30091461078d5780636352211e1461079557806363ebc677146107a857806367a14f06146107c85780636b584775146107db57600080fd5b806357f276ff1461072e57806359e6f787146107415780635b5c251f146107545780635c975abb146107675780635db531a11461077257600080fd5b806349b5e1051161037957806349b5e105146106d25780634d84c6d8146106da5780634e04a654146106e25780634f6ccce7146106f557806355f804b314610708578063572004821461071b57600080fd5b806336568abe1461067e5780633ab76e9f146106915780633f4ba83a146106a45780633f86ea7c146106ac57806342842e0e146106bf57600080fd5b806321d7f0081161044e5780632c584d2a116104125780632c584d2a146106215780632f2ff15d146106345780632f745c59146106475780632fb565851461065a578063326a55e01461066e578063329a8cfa1461067657600080fd5b806321d7f008146105af57806323b872dd146105c25780632436329d146105d5578063248a9ca3146105ea57806329e63f351461060e57600080fd5b80630ad17f8f116104955780630ad17f8f1461056257806310a83fcb14610583578063130f63201461058c57806317314d5a1461059f57806318160ddd146105a757600080fd5b806301ffc9a7146104d2578063024bebe9146104fa57806306fdde0314610525578063081812fc1461053a578063095ea7b31461054d575b600080fd5b6104e56104e0366004614de9565b610afa565b60405190151581526020015b60405180910390f35b600d5461050d906001600160a01b031681565b6040516001600160a01b0390911681526020016104f1565b61052d610b0b565b6040516104f19190614fe6565b61050d610548366004614d89565b610b9d565b61056061055b366004614d23565b610c2a565b005b610575610570366004614d23565b610d40565b6040519081526020016104f1565b61057560265481565b61056061059a366004614d89565b610d71565b610560610da6565b601c54610575565b60045461050d906001600160a01b031681565b6105606105d0366004614afa565b610dcf565b6105756000805160206152f183398151915281565b6105756105f8366004614d89565b6000908152600160208190526040909120015490565b6104e561061c366004614d89565b610e00565b61057561062f366004614a87565b610eee565b610560610642366004614da2565b610f3a565b610575610655366004614d23565b610f5c565b6011546104e590600160b01b900460ff1681565b610560610ff2565b610560611002565b61056061068c366004614da2565b61110b565b60115461050d906001600160a01b031681565b61056061112d565b60085461050d906001600160a01b031681565b6105606106cd366004614afa565b6111bf565b6105606111f0565b610560610ffa565b6105756106f0366004614caf565b6111f8565b610575610703366004614d89565b611425565b6104e5610716366004614e23565b6114b8565b60095461050d906001600160a01b031681565b61056061073c366004614d89565b611565565b6104e561074f366004614d23565b611579565b600e5461050d906001600160a01b031681565b60185460ff166104e5565b6105606115ab565b600f5461050d906001600160a01b031681565b61052d6115b3565b61050d6107a3366004614d89565b611641565b6107bb6107b6366004614a87565b6116b8565b6040516104f19190614fa2565b60275461050d906001600160a01b031681565b600a5461050d906001600160a01b031681565b610560611724565b610575610804366004614a87565b611750565b61050d610817366004614d89565b6000908152602360205260409020546001600160a01b031690565b601e54610575565b60055461050d906001600160a01b031681565b6104e561085b366004614d4f565b6117d7565b61057561086e366004614be9565b6118ab565b610560611910565b61050d610889366004614dc7565b611992565b6104e561089c366004614da2565b6119aa565b61052d6119d5565b6104e56108b7366004614d89565b6119e4565b601f546104e59060ff1681565b610575600081565b6105606108df366004614bbb565b611acd565b61057560008051602061535183398151915281565b6011546104e590600160a01b900460ff1681565b61057561091b366004614a87565b60286020526000908152604090205481565b61057561093b366004614d23565b611b4b565b61056061094e366004614b3b565b611d25565b60065461050d906001600160a01b031681565b610979610974366004614d89565b611d5d565b6040516104f1929190614f7e565b610560610995366004614d89565b611e0c565b61052d6109a8366004614d89565b611e5d565b6105756109bb366004614d89565b611e68565b61057560008051602061537183398151915281565b61057560008051602061533183398151915281565b6105606109f8366004614da2565b611e7f565b600b5461050d906001600160a01b031681565b600c5461050d906001600160a01b031681565b610575610a31366004614c39565b611e89565b61052d611ef0565b60105461050d906001600160a01b031681565b60035461050d906001600160a01b031681565b6104e5610a72366004614ac1565b611efd565b61057560008051602061531183398151915281565b61057560255481565b6104e5610aa3366004614d89565b611f54565b61056061201a565b61052d612022565b61056061202f565b60075461050d906001600160a01b031681565b61052d610ae1366004614d89565b6120cf565b6011546104e590600160a81b900460ff1681565b6000610b0582612189565b92915050565b606060128054610b1a906151e5565b80601f0160208091040260200160405190810160405280929190818152602001828054610b46906151e5565b8015610b935780601f10610b6857610100808354040283529160200191610b93565b820191906000526020600020905b815481529060010190602001808311610b7657829003601f168201915b5050505050905090565b6000610ba8826121ae565b610c0e5760405162461bcd60e51b815260206004820152602c60248201527f4552433732313a20617070726f76656420717565727920666f72206e6f6e657860448201526b34b9ba32b73a103a37b5b2b760a11b60648201526084015b60405180910390fd5b506000908152601660205260409020546001600160a01b031690565b6000610c3582611641565b9050806001600160a01b0316836001600160a01b03161415610ca35760405162461bcd60e51b815260206004820152602160248201527f4552433732313a20617070726f76616c20746f2063757272656e74206f776e656044820152603960f91b6064820152608401610c05565b336001600160a01b0382161480610cbf5750610cbf8133611efd565b610d315760405162461bcd60e51b815260206004820152603860248201527f4552433732313a20617070726f76652063616c6c6572206973206e6f74206f7760448201527f6e6572206e6f7220617070726f76656420666f7220616c6c00000000000000006064820152608401610c05565b610d3b83836121cb565b505050565b60246020528160005260406000208181548110610d5c57600080fd5b90600052602060002001600091509150505481565b610d7b60016121f2565b50610d85816122a4565b50610d8f8161241f565b50610d9a60006121f2565b610da357600080fd5b50565b610db060016121f2565b50610db96125a8565b50610dc460006121f2565b610dcd57600080fd5b565b610dd933826126ee565b610df55760405162461bcd60e51b8152600401610c0590615075565b610d3b838383612771565b6000610e1a600080516020615311833981519152336119aa565b80610e385750610e386000805160206152f1833981519152336119aa565b80610e565750610e56600080516020615351833981519152336119aa565b610e5f57600080fd5b601154600160b01b810460ff9081161515600160a81b9092041615151460011480610e9d5750610e9d600080516020615351833981519152336119aa565b610eb95760405162461bcd60e51b8152600401610c0590614ff9565b60a08211610ec657600080fd5b610ed282602655600190565b506025546026541115610ee6576026546025555b506001919050565b6001600160a01b038116600090815260286020526040812054602554811015610f265780602554610f1f919061518b565b9150610f34565b8060255411610f3457600091505b50919050565b610f4482826127a2565b6000828152600260205260409020610d3b9082612174565b6000610f6783611750565b8210610fc95760405162461bcd60e51b815260206004820152602b60248201527f455243373231456e756d657261626c653a206f776e657220696e646578206f7560448201526a74206f6620626f756e647360a81b6064820152608401610c05565b506001600160a01b03919091166000908152601a60209081526040808320938352929052205490565b610ffa6127dc565b610dcd612ac8565b61101a600080516020615351833981519152336119aa565b806110385750611038600080516020615311833981519152336119aa565b8061105657506110566000805160206152f1833981519152336119aa565b61109b5760405162461bcd60e51b81526020600482015260166024820152752cb7ba93b932903737ba103a3432903130b4b634b33360511b6044820152606401610c05565b601160009054906101000a90046001600160a01b03166001600160a01b031663329a8cfa6040518163ffffffff1660e01b8152600401600060405180830381600087803b1580156110eb57600080fd5b505af11580156110ff573d6000803e3d6000fd5b50505050610dcd6115ab565b6111158282612ed5565b6000828152600260205260409020610d3b9082612f4f565b611145600080516020615311833981519152336119aa565b806111635750611163600080516020615351833981519152336119aa565b6111a75760405162461bcd60e51b8152602060048201526015602482015274596f75277265206e6f742074686520476176656c7360581b6044820152606401610c05565b601f5460ff16156111b757600080fd5b610dcd612f64565b6111c933826126ee565b6111e55760405162461bcd60e51b8152600401610c0590615075565b610d3b838383612ff7565b610dcd6127dc565b6000848382611208600283615158565b602754600e546040516370a0823160e01b81526001600160a01b039182166004820152929350600092849291909116906370a082319060240160206040518083038186803b15801561125957600080fd5b505afa15801561126d573d6000803e3d6000fd5b505050506040513d601f19601f820116820180604052508101906112919190614e58565b61129b9190615140565b602754600e546040516323b872dd60e01b81523360048201526001600160a01b0391821660248201526044810186905292935016906323b872dd90606401602060405180830381600087803b1580156112f357600080fd5b505af1158015611307573d6000803e3d6000fd5b505050506040513d601f19601f8201168201806040525081019061132b9190614d6c565b5060275460405163079cc67960e41b8152336004820152602481018490526001600160a01b03909116906379cc679090604401600060405180830381600087803b15801561137857600080fd5b505af115801561138c573d6000803e3d6000fd5b505050506001600160a01b038416600090815260286020526040812080548592906113b8908490615140565b90915550506025546001600160a01b038a166000908152602860205260409020541061140d576001600160a01b03891660009081526028602052604081208190556114048a8a89613012565b95506114199050565b61141689610eee565b94505b50505050949350505050565b6000611430601c5490565b82106114935760405162461bcd60e51b815260206004820152602c60248201527f455243373231456e756d657261626c653a20676c6f62616c20696e646578206f60448201526b7574206f6620626f756e647360a01b6064820152608401610c05565b601c82815481106114a6576114a661528b565b90600052602060002001549050919050565b60006114d2600080516020615351833981519152336119aa565b806114f057506114f0600080516020615311833981519152336119aa565b8061150e575061150e6000805160206152f1833981519152336119aa565b6115535760405162461bcd60e51b81526020600482015260166024820152752cb7ba93b932903737ba103a3432903130b4b634b33360511b6044820152606401610c05565b61155c82613080565b50600192915050565b61156f60016121f2565b50610d8f81613096565b6000818152602360205260408120546001600160a01b03848116911614156115a357506001610b05565b506000610b05565b610dcd6132f1565b602180546115c0906151e5565b80601f01602080910402602001604051908101604052809291908181526020018280546115ec906151e5565b80156116395780601f1061160e57610100808354040283529160200191611639565b820191906000526020600020905b81548152906001019060200180831161161c57829003601f168201915b505050505081565b6000818152601460205260408120546001600160a01b031680610b055760405162461bcd60e51b815260206004820152602960248201527f4552433732313a206f776e657220717565727920666f72206e6f6e657869737460448201526832b73a103a37b5b2b760b91b6064820152608401610c05565b6001600160a01b03811660009081526024602090815260409182902080548351818402810184019094528084526060939283018282801561171857602002820191906000526020600020905b815481526020019060010190808311611704575b50505050509050919050565b61172c612ac8565b600554602780546001600160a01b0319166001600160a01b03909216919091179055565b60006001600160a01b0382166117bb5760405162461bcd60e51b815260206004820152602a60248201527f4552433732313a2062616c616e636520717565727920666f7220746865207a65604482015269726f206164647265737360b01b6064820152608401610c05565b506001600160a01b031660009081526015602052604090205490565b60006117f1600080516020615311833981519152336119aa565b8061180f575061180f6000805160206152f1833981519152336119aa565b8061182d575061182d600080516020615351833981519152336119aa565b61183657600080fd5b601154600160b01b810460ff9081161515600160a81b90920416151514600114806118745750611874600080516020615351833981519152336119aa565b6118905760405162461bcd60e51b8152600401610c0590614ff9565b600182151514156118a35761155c613434565b506000919050565b60006118c56000805160206152f1833981519152336119aa565b806118e357506118e3600080516020615351833981519152336119aa565b6118ff5760405162461bcd60e51b8152600401610c05906150c2565b6119098383613477565b9392505050565b611928600080516020615311833981519152336119aa565b806119465750611946600080516020615351833981519152336119aa565b61198a5760405162461bcd60e51b8152602060048201526015602482015274596f75277265206e6f742074686520476176656c7360581b6044820152606401610c05565b610dcd6134da565b60008281526002602052604081206119099083613555565b60009182526001602090815260408084206001600160a01b0393909316845291905290205460ff1690565b606060138054610b1a906151e5565b60006119fe600080516020615311833981519152336119aa565b80611a1c5750611a1c6000805160206152f1833981519152336119aa565b80611a3a5750611a3a600080516020615351833981519152336119aa565b611a4357600080fd5b601154600160b01b810460ff9081161515600160a81b9092041615151460011480611a815750611a81600080516020615351833981519152336119aa565b611a9d5760405162461bcd60e51b8152600401610c0590614ff9565b81604514156118a357611aae613434565b50611ab76134da565b50601f805460ff19166001908117909155919050565b611ae5600080516020615351833981519152336119aa565b80611b035750611b03600080516020615311833981519152336119aa565b80611b215750611b216000805160206152f1833981519152336119aa565b611b3d5760405162461bcd60e51b8152600401610c0590615075565b611b478282613561565b5050565b6000828282611b5b600283615158565b602754600e546040516370a0823160e01b81526001600160a01b039182166004820152929350600092849291909116906370a082319060240160206040518083038186803b158015611bac57600080fd5b505afa158015611bc0573d6000803e3d6000fd5b505050506040513d601f19601f82011682018060405250810190611be49190614e58565b611bee9190615140565b602754600e546040516323b872dd60e01b81523360048201526001600160a01b0391821660248201526044810186905292935016906323b872dd90606401602060405180830381600087803b158015611c4657600080fd5b505af1158015611c5a573d6000803e3d6000fd5b505050506040513d601f19601f82011682018060405250810190611c7e9190614d6c565b5060275460405163079cc67960e41b8152336004820152602481018490526001600160a01b03909116906379cc679090604401600060405180830381600087803b158015611ccb57600080fd5b505af1158015611cdf573d6000803e3d6000fd5b505050506001600160a01b03841660009081526028602052604081208054859290611d0b908490615140565b90915550611d1a905087610eee565b979650505050505050565b611d2f33836126ee565b611d4b5760405162461bcd60e51b8152600401610c05906150ef565b611d5784848484613626565b50505050565b602360205260009081526040902080546001820180546001600160a01b039092169291611d89906151e5565b80601f0160208091040260200160405190810160405280929190818152602001828054611db5906151e5565b8015611e025780601f10611dd757610100808354040283529160200191611e02565b820191906000526020600020905b815481529060010190602001808311611de557829003601f168201915b5050505050905082565b611e1633826126ee565b611e545760405162461bcd60e51b815260206004820152600f60248201526e4e696365205472792c204275636b6f60881b6044820152606401610c05565b610da381613659565b6060610b0582613662565b6000818152600260205260408120610b05906137c4565b61111582826137ce565b6000611ea36000805160206152f1833981519152336119aa565b80611ec15750611ec1600080516020615351833981519152336119aa565b611edd5760405162461bcd60e51b8152600401610c05906150c2565b611ee8848484613012565b949350505050565b602080546115c0906151e5565b600080611f18600080516020615351833981519152846119aa565b80611f365750611f36600080516020615311833981519152846119aa565b80611ee85750611ee86000805160206152f1833981519152846119aa565b6000611f6e6000805160206152f1833981519152336119aa565b80611f8c5750611f8c600080516020615351833981519152336119aa565b611fa85760405162461bcd60e51b8152600401610c05906150c2565b60265482101561200e5760405162461bcd60e51b815260206004820152602b60248201527f536f7272792120436f7374206d7573742062652067726561746572207468616e60448201526a10181718902932b22832b760a91b6064820152608401610c05565b61155c82602555600190565b610dcd613808565b602280546115c0906151e5565b61203960016121f2565b50612051600080516020615351833981519152613096565b50612069600080516020615311833981519152613096565b506120816000805160206152f1833981519152613096565b50612099600080516020615331833981519152613096565b506120b1600080516020615371833981519152613096565b506120bc6000613096565b506120c56132f1565b610dc460006121f2565b60008181526023602052604090206001018054606091906120ef906151e5565b80601f016020809104026020016040519081016040528092919081815260200182805461211b906151e5565b80156117185780601f1061213d57610100808354040283529160200191611718565b820191906000526020600020905b81548152906001019060200180831161214b5750939695505050505050565b611b47828261393f565b6000611909836001600160a01b0384166139aa565b60006001600160e01b0319821663780e9d6360e01b1480610b055750610b05826139f1565b6000908152601460205260409020546001600160a01b0316151590565b6121e3600080516020615351833981519152336119aa565b15611b4757611b478282613a31565b6000805460ff16821515811515141561224d5760405162461bcd60e51b815260206004820152601960248201527f416c72656164792053657420746f20746861742076616c7565000000000000006044820152606401610c05565b6000805484151560ff19909116811790915560ff161515811515141561155c5760405162461bcd60e51b815260206004820152600c60248201526b29b0b33a32bc9022b93937b960a11b6044820152606401610c05565b60405163ca15c87360e01b8152600481018290526000908190309063ca15c8739060240160206040518083038186803b1580156122e057600080fd5b505afa1580156122f4573d6000803e3d6000fd5b505050506040513d601f19601f820116820180604052508101906123189190614e58565b905060005b8181101561241557604051632404341f60e21b815260048101859052602481018290526000903090639010d07c9060440160206040518083038186803b15801561236657600080fd5b505afa15801561237a573d6000803e3d6000fd5b505050506040513d601f19601f8201168201806040525081019061239e9190614aa4565b60405163d547741f60e01b8152600481018790526001600160a01b0382166024820152909150309063d547741f90604401600060405180830381600087803b1580156123e957600080fd5b505af11580156123fd573d6000803e3d6000fd5b5050505050808061240d9061521a565b91505061231d565b5060019392505050565b60115460405163ca15c87360e01b81526004810183905260009182916001600160a01b039091169063ca15c8739060240160206040518083038186803b15801561246857600080fd5b505afa15801561247c573d6000803e3d6000fd5b505050506040513d601f19601f820116820180604052508101906124a09190614e58565b905060005b8181101561241557601154604051632404341f60e21b815260048101869052602481018390526000916001600160a01b031690639010d07c9060440160206040518083038186803b1580156124f957600080fd5b505afa15801561250d573d6000803e3d6000fd5b505050506040513d601f19601f820116820180604052508101906125319190614aa4565b604051632f2ff15d60e01b8152600481018790526001600160a01b03821660248201529091503090632f2ff15d90604401600060405180830381600087803b15801561257c57600080fd5b505af1158015612590573d6000803e3d6000fd5b505050505080806125a09061521a565b9150506124a5565b60006125c16000805160206153518339815191526122a4565b506125d960008051602061535183398151915261241f565b6125e257600080fd5b6125f96000805160206153118339815191526122a4565b5061261160008051602061531183398151915261241f565b61261a57600080fd5b6126316000805160206152f18339815191526122a4565b506126496000805160206152f183398151915261241f565b61265257600080fd5b6126696000805160206153318339815191526122a4565b5061268160008051602061533183398151915261241f565b61268a57600080fd5b6126a16000805160206153718339815191526122a4565b506126b960008051602061537183398151915261241f565b6126c257600080fd5b6126cc60006122a4565b506126d7600061241f565b6126e057600080fd5b6126e86132f1565b50600190565b60006126f9826121ae565b61275a5760405162461bcd60e51b815260206004820152602c60248201527f4552433732313a206f70657261746f7220717565727920666f72206e6f6e657860448201526b34b9ba32b73a103a37b5b2b760a11b6064820152608401610c05565b600061276583611641565b9050611ee88185611efd565b61277b33826126ee565b6127975760405162461bcd60e51b8152600401610c05906150ef565b610d3b838383613a9f565b600082815260016020819052604082200154905460ff16156127c857610d3b838361393f565b6127d28133613c4a565b610d3b838361393f565b601160009054906101000a90046001600160a01b03166001600160a01b031663dadf56ac6040518163ffffffff1660e01b815260040160206040518083038186803b15801561282a57600080fd5b505afa15801561283e573d6000803e3d6000fd5b505050506040513d601f19601f820116820180604052508101906128629190614aa4565b600c80546001600160a01b0319166001600160a01b039283161790556011546040805163024bebe960e01b81529051919092169163024bebe9916004808301926020929190829003018186803b1580156128bb57600080fd5b505afa1580156128cf573d6000803e3d6000fd5b505050506040513d601f19601f820116820180604052508101906128f39190614aa4565b600d80546001600160a01b0319166001600160a01b0392831617905560115460408051635b5c251f60e01b815290519190921691635b5c251f916004808301926020929190829003018186803b15801561294c57600080fd5b505afa158015612960573d6000803e3d6000fd5b505050506040513d601f19601f820116820180604052508101906129849190614aa4565b600e80546001600160a01b0319166001600160a01b0392831617905560115460408051637310bf1d60e11b81529051919092169163e6217e3a916004808301926020929190829003018186803b1580156129dd57600080fd5b505afa1580156129f1573d6000803e3d6000fd5b505050506040513d601f19601f82011682018060405250810190612a159190614aa4565b601080546001600160a01b0319166001600160a01b039283161790556011546040805163d88127a160e01b81529051919092169163d88127a1916004808301926020929190829003018186803b158015612a6e57600080fd5b505afa158015612a82573d6000803e3d6000fd5b505050506040513d601f19601f82011682018060405250810190612aa69190614aa4565b600b80546001600160a01b0319166001600160a01b0392909216919091179055565b601160009054906101000a90046001600160a01b03166001600160a01b03166321d7f0086040518163ffffffff1660e01b815260040160206040518083038186803b158015612b1657600080fd5b505afa158015612b2a573d6000803e3d6000fd5b505050506040513d601f19601f82011682018060405250810190612b4e9190614aa4565b600480546001600160a01b0319166001600160a01b039283161781556011546040805163762ddb5960e01b81529051919093169263762ddb599281810192602092909190829003018186803b158015612ba657600080fd5b505afa158015612bba573d6000803e3d6000fd5b505050506040513d601f19601f82011682018060405250810190612bde9190614aa4565b600580546001600160a01b0319166001600160a01b039283161790556011546040805163bfb7dc9960e01b81529051919092169163bfb7dc99916004808301926020929190829003018186803b158015612c3757600080fd5b505afa158015612c4b573d6000803e3d6000fd5b505050506040513d601f19601f82011682018060405250810190612c6f9190614aa4565b600680546001600160a01b0319166001600160a01b0392831617905560115460408051633e6111eb60e21b81529051919092169163f98447ac916004808301926020929190829003018186803b158015612cc857600080fd5b505afa158015612cdc573d6000803e3d6000fd5b505050506040513d601f19601f82011682018060405250810190612d009190614aa4565b600780546001600160a01b0319166001600160a01b0392831617905560115460408051630fe1ba9f60e21b815290519190921691633f86ea7c916004808301926020929190829003018186803b158015612d5957600080fd5b505afa158015612d6d573d6000803e3d6000fd5b505050506040513d601f19601f82011682018060405250810190612d919190614aa4565b600880546001600160a01b0319166001600160a01b0392831617905560115460408051632b90024160e11b8152905191909216916357200482916004808301926020929190829003018186803b158015612dea57600080fd5b505afa158015612dfe573d6000803e3d6000fd5b505050506040513d601f19601f82011682018060405250810190612e229190614aa4565b600980546001600160a01b0319166001600160a01b0392831617905560115460408051636b58477560e01b815290519190921691636b584775916004808301926020929190829003018186803b158015612e7b57600080fd5b505afa158015612e8f573d6000803e3d6000fd5b505050506040513d601f19601f82011682018060405250810190612eb39190614aa4565b600a80546001600160a01b0319166001600160a01b0392909216919091179055565b6001600160a01b0381163314612f455760405162461bcd60e51b815260206004820152602f60248201527f416363657373436f6e74726f6c3a2063616e206f6e6c792072656e6f756e636560448201526e103937b632b9903337b91039b2b63360891b6064820152608401610c05565b611b478282613cae565b6000611909836001600160a01b038416613d15565b60185460ff16612fad5760405162461bcd60e51b815260206004820152601460248201527314185d5cd8589b194e881b9bdd081c185d5cd95960621b6044820152606401610c05565b6018805460ff191690557f5db9ee0a495bf2e6ff9c91a7834c1ba4fdd244a5e8aa4e537bd38aeae4b073aa335b6040516001600160a01b03909116815260200160405180910390a1565b610d3b83838360405180602001604052806000815250611d25565b60006001600160a01b038416331480159061303557506001600160a01b03841615155b61303e57600080fd5b50601e5461304d338483613e02565b6130578482613e71565b6130618183613e8b565b6001601e60008282546130749190615140565b90915550509392505050565b805160009061155c906022906020850190614922565b60115460405163ca15c87360e01b81526004810183905260009182916001600160a01b039091169063ca15c8739060240160206040518083038186803b1580156130df57600080fd5b505afa1580156130f3573d6000803e3d6000fd5b505050506040513d601f19601f820116820180604052508101906131179190614e58565b60405163ca15c87360e01b815260048101859052909150600090309063ca15c8739060240160206040518083038186803b15801561315457600080fd5b505afa158015613168573d6000803e3d6000fd5b505050506040513d601f19601f8201168201806040525081019061318c9190614e58565b9050600061319a828461518b565b9050600081116131df5760405162461bcd60e51b815260206004820152601060248201526f4e6f7468696e6720746f2073796e632160801b6044820152606401610c05565b60005b818110156132e557601154604051632404341f60e21b815260048101889052602481018390526000916001600160a01b031690639010d07c9060440160206040518083038186803b15801561323657600080fd5b505afa15801561324a573d6000803e3d6000fd5b505050506040513d601f19601f8201168201806040525081019061326e9190614aa4565b604051632f2ff15d60e01b8152600481018990526001600160a01b03821660248201529091503090632f2ff15d90604401600060405180830381600087803b1580156132b957600080fd5b505af11580156132cd573d6000803e3d6000fd5b505050505080806132dd9061521a565b9150506131e2565b50600195945050505050565b601160009054906101000a90046001600160a01b03166001600160a01b031663ff7e88ec6040518163ffffffff1660e01b815260040160206040518083038186803b15801561333f57600080fd5b505afa158015613353573d6000803e3d6000fd5b505050506040513d601f19601f820116820180604052508101906133779190614d6c565b601160156101000a81548160ff021916908315150217905550601160009054906101000a90046001600160a01b03166001600160a01b0316632fb565856040518163ffffffff1660e01b815260040160206040518083038186803b1580156133de57600080fd5b505afa1580156133f2573d6000803e3d6000fd5b505050506040513d601f19601f820116820180604052508101906134169190614d6c565b60118054911515600160b01b0260ff60b01b19909216919091179055565b6000805b601e5481101561346b5761344b816121ae565b156134595761345981613659565b806134638161521a565b915050613438565b50506000601e55600190565b60006001600160a01b038316331480159061349a57506001600160a01b03831615155b6134a357600080fd5b50601e546134b2338383613e02565b6134bc8382613e71565b6001601e60008282546134cf9190615140565b909155505092915050565b60185460ff16156135205760405162461bcd60e51b815260206004820152601060248201526f14185d5cd8589b194e881c185d5cd95960821b6044820152606401610c05565b6018805460ff191660011790557f62e78cea01bee320cd4e420270b5ea74000d11b0c9f74754ebdbfc544b05a258612fda3390565b60006119098383613f16565b6001600160a01b0382163314156135ba5760405162461bcd60e51b815260206004820152601960248201527f4552433732313a20617070726f766520746f2063616c6c6572000000000000006044820152606401610c05565b3360008181526017602090815260408083206001600160a01b03871680855290835292819020805460ff191686151590811790915590519081529192917f17307eab39ab6107e8899845ad3d59bd9653f200f220920489ca2b5937696c31910160405180910390a35050565b613631848484613a9f565b61363d84848484613f9c565b611d575760405162461bcd60e51b8152600401610c0590615023565b610da3816140a9565b606061366d826121ae565b6136d35760405162461bcd60e51b815260206004820152603160248201527f45524337323155524953746f726167653a2055524920717565727920666f72206044820152703737b732bc34b9ba32b73a103a37b5b2b760791b6064820152608401610c05565b600082815260196020526040812080546136ec906151e5565b80601f0160208091040260200160405190810160405280929190818152602001828054613718906151e5565b80156137655780601f1061373a57610100808354040283529160200191613765565b820191906000526020600020905b81548152906001019060200180831161374857829003601f168201915b5050505050905060006137766140e9565b9050805160001415613789575092915050565b8151156137bb5780826040516020016137a3929190614e9d565b60405160208183030381529060405292505050919050565b611ee8846140f8565b6000610b05825490565b600082815260016020819052604082200154905460ff16156137f457610d3b8383613cae565b6137fe8133613c4a565b610d3b8383613cae565b601160009054906101000a90046001600160a01b03166001600160a01b031663a44b93256040518163ffffffff1660e01b815260040160206040518083038186803b15801561385657600080fd5b505afa15801561386a573d6000803e3d6000fd5b505050506040513d601f19601f8201168201806040525081019061388e9190614d6c565b61389757600080fd5b601160009054906101000a90046001600160a01b03166001600160a01b031663ac7cfac36040518163ffffffff1660e01b815260040160206040518083038186803b1580156138e557600080fd5b505afa1580156138f9573d6000803e3d6000fd5b505050506040513d601f19601f8201168201806040525081019061391d9190614aa4565b600380546001600160a01b0319166001600160a01b0392909216919091179055565b61394982826119aa565b611b475760008281526001602081815260408084206001600160a01b0386168086529252808420805460ff19169093179092559051339285917f2f8788117e7eff1d82e926ec794901d17c78024a50270940304540a733656f0d9190a45050565b60008181526001830160205260408120546115a357508154600181810184556000848152602080822090930184905584548482528286019093526040902091909155610b05565b60006001600160e01b031982166380ac58cd60e01b1480613a2257506001600160e01b03198216635b5e139f60e01b145b80610b055750610b05826141c2565b600081815260166020526040902080546001600160a01b0319166001600160a01b0384169081179091558190613a6682611641565b6001600160a01b03167f8c5be1e5ebec7d5bd14f71427d1e84f3dd0314c0f7b2291e5b200ac8c7c3b92560405160405180910390a45050565b826001600160a01b0316613ab282611641565b6001600160a01b031614613b1a5760405162461bcd60e51b815260206004820152602960248201527f4552433732313a207472616e73666572206f6620746f6b656e2074686174206960448201526839903737ba1037bbb760b91b6064820152608401610c05565b6001600160a01b038216613b7c5760405162461bcd60e51b8152602060048201526024808201527f4552433732313a207472616e7366657220746f20746865207a65726f206164646044820152637265737360e01b6064820152608401610c05565b613b878383836141e7565b613b926000826121cb565b6001600160a01b0383166000908152601560205260408120805460019290613bbb90849061518b565b90915550506001600160a01b0382166000908152601560205260408120805460019290613be9908490615140565b909155505060008181526014602052604080822080546001600160a01b0319166001600160a01b0386811691821790925591518493918716917fddf252ad1be2c89b69c2b068fc378daa952ba7f163c4a11628f55a4df523b3ef91a4505050565b613c5482826119aa565b611b4757613c6c816001600160a01b031660146141f2565b613c778360206141f2565b604051602001613c88929190614ecc565b60408051601f198184030181529082905262461bcd60e51b8252610c0591600401614fe6565b613cb882826119aa565b15611b475760008281526001602090815260408083206001600160a01b0385168085529252808320805460ff1916905551339285917ff6391f5c32d9c69d2a47ea670b442974b53935d1edc7fd64eb21e047a839171b9190a45050565b60008181526001830160205260408120548015613df8576000613d3960018361518b565b8554909150600090613d4d9060019061518b565b90506000866000018281548110613d6657613d6661528b565b9060005260206000200154905080876000018481548110613d8957613d8961528b565b600091825260208083209091019290925582815260018901909152604090208490558654879080613dbc57613dbc615275565b60019003818190600052602060002001600090559055866001016000878152602001908152602001600020600090556001945050505050610b05565b6000915050610b05565b600081815260236020908152604090912080546001600160a01b0319166001600160a01b0386161781558351613e4092600190920191850190614922565b506001600160a01b039092166000908152602460209081526040822080546001810182559083529120019190915550565b611b4782826040518060200160405280600081525061438e565b613e94826121ae565b613ef75760405162461bcd60e51b815260206004820152602e60248201527f45524337323155524953746f726167653a2055524920736574206f66206e6f6e60448201526d32bc34b9ba32b73a103a37b5b2b760911b6064820152608401610c05565b60008281526019602090815260409091208251610d3b92840190614922565b81546000908210613f745760405162461bcd60e51b815260206004820152602260248201527f456e756d657261626c655365743a20696e646578206f7574206f6620626f756e604482015261647360f01b6064820152608401610c05565b826000018281548110613f8957613f8961528b565b9060005260206000200154905092915050565b60006001600160a01b0384163b1561409e57604051630a85bd0160e11b81526001600160a01b0385169063150b7a0290613fe0903390899088908890600401614f41565b602060405180830381600087803b158015613ffa57600080fd5b505af192505050801561402a575060408051601f3d908101601f1916820190925261402791810190614e06565b60015b614084573d808015614058576040519150601f19603f3d011682016040523d82523d6000602084013e61405d565b606091505b50805161407c5760405162461bcd60e51b8152600401610c0590615023565b805181602001fd5b6001600160e01b031916630a85bd0160e11b149050611ee8565b506001949350505050565b6140b2816143c1565b600081815260196020526040902080546140cb906151e5565b159050610da3576000818152601960205260408120610da3916149a6565b606060228054610b1a906151e5565b6060614103826121ae565b6141675760405162461bcd60e51b815260206004820152602f60248201527f4552433732314d657461646174613a2055524920717565727920666f72206e6f60448201526e3732bc34b9ba32b73a103a37b5b2b760891b6064820152608401610c05565b60006141716140e9565b905060008151116141915760405180602001604052806000815250611909565b8061419b84614468565b6040516020016141ac929190614e9d565b6040516020818303038152906040529392505050565b60006001600160e01b03198216635a05180f60e01b1480610b055750610b0582614566565b610d3b83838361459b565b6060600061420183600261516c565b61420c906002615140565b67ffffffffffffffff811115614224576142246152a1565b6040519080825280601f01601f19166020018201604052801561424e576020820181803683370190505b509050600360fc1b816000815181106142695761426961528b565b60200101906001600160f81b031916908160001a905350600f60fb1b816001815181106142985761429861528b565b60200101906001600160f81b031916908160001a90535060006142bc84600261516c565b6142c7906001615140565b90505b600181111561433f576f181899199a1a9b1b9c1cb0b131b232b360811b85600f16601081106142fb576142fb61528b565b1a60f81b8282815181106143115761431161528b565b60200101906001600160f81b031916908160001a90535060049490941c93614338816151ce565b90506142ca565b5083156119095760405162461bcd60e51b815260206004820181905260248201527f537472696e67733a20686578206c656e67746820696e73756666696369656e746044820152606401610c05565b6143988383614653565b6143a56000848484613f9c565b610d3b5760405162461bcd60e51b8152600401610c0590615023565b60006143cc82611641565b90506143da816000846141e7565b6143e56000836121cb565b6001600160a01b038116600090815260156020526040812080546001929061440e90849061518b565b909155505060008281526014602052604080822080546001600160a01b0319169055518391906001600160a01b038416907fddf252ad1be2c89b69c2b068fc378daa952ba7f163c4a11628f55a4df523b3ef908390a45050565b60608161448c5750506040805180820190915260018152600360fc1b602082015290565b8160005b81156144b657806144a08161521a565b91506144af9050600a83615158565b9150614490565b60008167ffffffffffffffff8111156144d1576144d16152a1565b6040519080825280601f01601f1916602001820160405280156144fb576020820181803683370190505b5090505b8415611ee85761451060018361518b565b915061451d600a86615235565b614528906030615140565b60f81b81838151811061453d5761453d61528b565b60200101906001600160f81b031916908160001a90535061455f600a86615158565b94506144ff565b60006001600160e01b03198216637965db0b60e01b1480610b0557506301ffc9a760e01b6001600160e01b0319831614610b05565b6001600160a01b0383166145f6576145f181601c80546000838152601d60205260408120829055600182018355919091527f0e4562a10381dec21b205ed72637e6b1b523bdd0e4d4d50af5cd23dd4500a2110155565b614619565b816001600160a01b0316836001600160a01b031614614619576146198382614792565b6001600160a01b03821661463057610d3b8161482f565b826001600160a01b0316826001600160a01b031614610d3b57610d3b82826148de565b6001600160a01b0382166146a95760405162461bcd60e51b815260206004820181905260248201527f4552433732313a206d696e7420746f20746865207a65726f20616464726573736044820152606401610c05565b6146b2816121ae565b156146ff5760405162461bcd60e51b815260206004820152601c60248201527f4552433732313a20746f6b656e20616c7265616479206d696e746564000000006044820152606401610c05565b61470b600083836141e7565b6001600160a01b0382166000908152601560205260408120805460019290614734908490615140565b909155505060008181526014602052604080822080546001600160a01b0319166001600160a01b03861690811790915590518392907fddf252ad1be2c89b69c2b068fc378daa952ba7f163c4a11628f55a4df523b3ef908290a45050565b6000600161479f84611750565b6147a9919061518b565b6000838152601b60205260409020549091508082146147fc576001600160a01b0384166000908152601a602090815260408083208584528252808320548484528184208190558352601b90915290208190555b506000918252601b602090815260408084208490556001600160a01b039094168352601a81528383209183525290812055565b601c546000906148419060019061518b565b6000838152601d6020526040812054601c80549394509092849081106148695761486961528b565b9060005260206000200154905080601c838154811061488a5761488a61528b565b6000918252602080832090910192909255828152601d9091526040808220849055858252812055601c8054806148c2576148c2615275565b6001900381819060005260206000200160009055905550505050565b60006148e983611750565b6001600160a01b039093166000908152601a602090815260408083208684528252808320859055938252601b9052919091209190915550565b82805461492e906151e5565b90600052602060002090601f0160209004810192826149505760008555614996565b82601f1061496957805160ff1916838001178555614996565b82800160010185558215614996579182015b8281111561499657825182559160200191906001019061497b565b506149a29291506149dc565b5090565b5080546149b2906151e5565b6000825580601f106149c2575050565b601f016020900490600052602060002090810190610da391905b5b808211156149a257600081556001016149dd565b600067ffffffffffffffff80841115614a0c57614a0c6152a1565b604051601f8501601f19908116603f01168101908282118183101715614a3457614a346152a1565b81604052809350858152868686011115614a4d57600080fd5b858560208301376000602087830101525050509392505050565b600082601f830112614a7857600080fd5b611909838335602085016149f1565b600060208284031215614a9957600080fd5b8135611909816152b7565b600060208284031215614ab657600080fd5b8151611909816152b7565b60008060408385031215614ad457600080fd5b8235614adf816152b7565b91506020830135614aef816152b7565b809150509250929050565b600080600060608486031215614b0f57600080fd5b8335614b1a816152b7565b92506020840135614b2a816152b7565b929592945050506040919091013590565b60008060008060808587031215614b5157600080fd5b8435614b5c816152b7565b93506020850135614b6c816152b7565b925060408501359150606085013567ffffffffffffffff811115614b8f57600080fd5b8501601f81018713614ba057600080fd5b614baf878235602084016149f1565b91505092959194509250565b60008060408385031215614bce57600080fd5b8235614bd9816152b7565b91506020830135614aef816152cc565b60008060408385031215614bfc57600080fd5b8235614c07816152b7565b9150602083013567ffffffffffffffff811115614c2357600080fd5b614c2f85828601614a67565b9150509250929050565b600080600060608486031215614c4e57600080fd5b8335614c59816152b7565b9250602084013567ffffffffffffffff80821115614c7657600080fd5b614c8287838801614a67565b93506040860135915080821115614c9857600080fd5b50614ca586828701614a67565b9150509250925092565b60008060008060808587031215614cc557600080fd5b8435614cd0816152b7565b9350602085013567ffffffffffffffff80821115614ced57600080fd5b614cf988838901614a67565b9450604087013593506060870135915080821115614d1657600080fd5b50614baf87828801614a67565b60008060408385031215614d3657600080fd5b8235614d41816152b7565b946020939093013593505050565b600060208284031215614d6157600080fd5b8135611909816152cc565b600060208284031215614d7e57600080fd5b8151611909816152cc565b600060208284031215614d9b57600080fd5b5035919050565b60008060408385031215614db557600080fd5b823591506020830135614aef816152b7565b60008060408385031215614dda57600080fd5b50508035926020909101359150565b600060208284031215614dfb57600080fd5b8135611909816152da565b600060208284031215614e1857600080fd5b8151611909816152da565b600060208284031215614e3557600080fd5b813567ffffffffffffffff811115614e4c57600080fd5b611ee884828501614a67565b600060208284031215614e6a57600080fd5b5051919050565b60008151808452614e898160208601602086016151a2565b601f01601f19169290920160200192915050565b60008351614eaf8184602088016151a2565b835190830190614ec38183602088016151a2565b01949350505050565b7f416363657373436f6e74726f6c3a206163636f756e7420000000000000000000815260008351614f048160178501602088016151a2565b7001034b99036b4b9b9b4b733903937b6329607d1b6017918401918201528351614f358160288401602088016151a2565b01602801949350505050565b6001600160a01b0385811682528416602082015260408101839052608060608201819052600090614f7490830184614e71565b9695505050505050565b6001600160a01b0383168152604060208201819052600090611ee890830184614e71565b6020808252825182820181905260009190848201906040850190845b81811015614fda57835183529284019291840191600101614fbe565b50909695505050505050565b6020815260006119096020830184614e71565b60208082526010908201526f436f757274204d75737420416772656560801b604082015260600190565b60208082526032908201527f4552433732313a207472616e7366657220746f206e6f6e20455243373231526560408201527131b2b4bb32b91034b6b83632b6b2b73a32b960711b606082015260800190565b6020808252602d908201527f596f7520646f206e6f742068617665207065726d697373696f6e20746f206d6f60408201526c7665207468697320626164676560981b606082015260800190565b602080825260139082015272596f75277265206e6f7420746865204a75727960681b604082015260600190565b60208082526031908201527f4552433732313a207472616e736665722063616c6c6572206973206e6f74206f6040820152701ddb995c881b9bdc88185c1c1c9bdd9959607a1b606082015260800190565b6000821982111561515357615153615249565b500190565b6000826151675761516761525f565b500490565b600081600019048311821515161561518657615186615249565b500290565b60008282101561519d5761519d615249565b500390565b60005b838110156151bd5781810151838201526020016151a5565b83811115611d575750506000910152565b6000816151dd576151dd615249565b506000190190565b600181811c908216806151f957607f821691505b60208210811415610f3457634e487b7160e01b600052602260045260246000fd5b600060001982141561522e5761522e615249565b5060010190565b6000826152445761524461525f565b500690565b634e487b7160e01b600052601160045260246000fd5b634e487b7160e01b600052601260045260246000fd5b634e487b7160e01b600052603160045260246000fd5b634e487b7160e01b600052603260045260246000fd5b634e487b7160e01b600052604160045260246000fd5b6001600160a01b0381168114610da357600080fd5b8015158114610da357600080fd5b6001600160e01b031981168114610da357600080fdfefa8e4989e1d689f7bc5c4b25b87efb51fecdecb19ba62847e29c759e12a89acd048bc71fa1cb2c119c339cf9cf00a97996a19a9d991ce5fe049f2fa5459e7990f0f4b159a6e2a4815eb3ca3df080bfa70c9270662c59bcaa4479a456220183e60538d24a8b7882d7b2e36af243d4af61c23e86e3daa6cb8c887b53220b2f57207c9d7f6f02908185bffb3f7fc9afb29fd7bf93675af8fd4b655ee05c2cee1e0ea26469706673582212206bfd12d5b2d882c227666cd2791bfb59f1881950c629ab4861ba275b2cb82e2164736f6c63430008070033",
  "immutableReferences": {},
  "source": "pragma solidity ^0.8.0;\n\nimport \"../src/ERC721/ElectedBadge.sol\";\n\n\ncontract ChadBadges is ElectedBadge {\n\n     constructor( address _AddressManagerAddress)\n        ElectedBadge(\"ChadBadge\", \"Chad\", _AddressManagerAddress)\n    {\n    }      \n\n}",
  "sourcePath": "/home/n/Desktop/PinkSlips_FrontEnd_REFORMAT/contracts/badges/ChadBadges.sol",
  "compiler": {
    "name": "solc",
    "version": "0.8.7+commit.e28d00a7.Emscripten.clang"
  },
  "schemaVersion": "3.4.1",
  "updatedAt": "2021-08-18T01:04:55.733Z",
  "networkType": "ethereum",
  "devdoc": {
    "kind": "dev",
    "methods": {
      "approve(address,uint256)": {
        "details": "See {IERC721-approve}."
      },
      "balanceOf(address)": {
        "details": "See {IERC721-balanceOf}."
      },
      "getApproved(uint256)": {
        "details": "See {IERC721-getApproved}."
      },
      "getRoleAdmin(bytes32)": {
        "details": "Returns the admin role that controls `role`. See {grantRole} and {revokeRole}. To change a role's admin, use {_setRoleAdmin}."
      },
      "getRoleMember(bytes32,uint256)": {
        "details": "Returns one of the accounts that have `role`. `index` must be a value between 0 and {getRoleMemberCount}, non-inclusive. Role bearers are not sorted in any particular way, and their ordering may change at any point. WARNING: When using {getRoleMember} and {getRoleMemberCount}, make sure you perform all queries on the same block. See the following https://forum.openzeppelin.com/t/iterating-over-elements-on-enumerableset-in-openzeppelin-contracts/2296[forum post] for more information."
      },
      "getRoleMemberCount(bytes32)": {
        "details": "Returns the number of accounts that have `role`. Can be used together with {getRoleMember} to enumerate all bearers of a role."
      },
      "grantRole(bytes32,address)": {
        "details": "Overload {grantRole} to track enumerable memberships"
      },
      "hasRole(bytes32,address)": {
        "details": "Returns `true` if `account` has been granted `role`."
      },
      "isApprovedForAll(address,address)": {
        "details": "See {IERC721-isApprovedForAll}."
      },
      "issueBadge(address,string)": {
        "details": "//// Issuance Desk                                                                            ////"
      },
      "name()": {
        "details": "See {IERC721Metadata-name}."
      },
      "ownerOf(uint256)": {
        "details": "See {IERC721-ownerOf}."
      },
      "pause()": {
        "details": "//// Maintanence\\\\\\\\\\\\\\\\\\\\\\\\\\\\\\\\\\\\\\\\\\\\\\\\\\\\\\                                                   ////"
      },
      "paused()": {
        "details": "Returns true if the contract is paused, and false otherwise."
      },
      "renounceRole(bytes32,address)": {
        "details": "Overload {renounceRole} to track enumerable memberships"
      },
      "revokeRole(bytes32,address)": {
        "details": "Overload {revokeRole} to track enumerable memberships"
      },
      "safeTransferFrom(address,address,uint256)": {
        "details": "See {IERC721-safeTransferFrom}."
      },
      "safeTransferFrom(address,address,uint256,bytes)": {
        "details": "See {IERC721-safeTransferFrom}."
      },
      "setApprovalForAll(address,bool)": {
        "details": "See {IERC721-setApprovalForAll}."
      },
      "setMintingCost(uint256)": {
        "details": "//// Set Minting Costs                                                                        ////"
      },
      "symbol()": {
        "details": "See {IERC721Metadata-symbol}."
      },
      "tokenByIndex(uint256)": {
        "details": "See {IERC721Enumerable-tokenByIndex}."
      },
      "tokenOfOwnerByIndex(address,uint256)": {
        "details": "See {IERC721Enumerable-tokenOfOwnerByIndex}."
      },
      "totalSupply()": {
        "details": "See {IERC721Enumerable-totalSupply}."
      },
      "transferFrom(address,address,uint256)": {
        "details": "See {IERC721-transferFrom}."
      }
    },
    "version": 1
  },
  "userdoc": {
    "kind": "user",
    "methods": {},
    "version": 1
  }
}