{
  "contractName": "ColoredID",
  "abi": [
    {
      "inputs": [
        {
          "internalType": "address",
          "name": "_AddressManagerAddress",
          "type": "address"
        }
      ],
      "stateMutability": "nonpayable",
      "type": "constructor"
    },
    {
      "anonymous": false,
      "inputs": [
        {
          "indexed": true,
          "internalType": "address",
          "name": "owner",
          "type": "address"
        },
        {
          "indexed": true,
          "internalType": "address",
          "name": "approved",
          "type": "address"
        },
        {
          "indexed": true,
          "internalType": "uint256",
          "name": "tokenId",
          "type": "uint256"
        }
      ],
      "name": "Approval",
      "type": "event"
    },
    {
      "anonymous": false,
      "inputs": [
        {
          "indexed": true,
          "internalType": "address",
          "name": "owner",
          "type": "address"
        },
        {
          "indexed": true,
          "internalType": "address",
          "name": "operator",
          "type": "address"
        },
        {
          "indexed": false,
          "internalType": "bool",
          "name": "approved",
          "type": "bool"
        }
      ],
      "name": "ApprovalForAll",
      "type": "event"
    },
    {
      "anonymous": false,
      "inputs": [
        {
          "indexed": false,
          "internalType": "address",
          "name": "account",
          "type": "address"
        }
      ],
      "name": "Paused",
      "type": "event"
    },
    {
      "anonymous": false,
      "inputs": [
        {
          "indexed": true,
          "internalType": "bytes32",
          "name": "role",
          "type": "bytes32"
        },
        {
          "indexed": true,
          "internalType": "bytes32",
          "name": "previousAdminRole",
          "type": "bytes32"
        },
        {
          "indexed": true,
          "internalType": "bytes32",
          "name": "newAdminRole",
          "type": "bytes32"
        }
      ],
      "name": "RoleAdminChanged",
      "type": "event"
    },
    {
      "anonymous": false,
      "inputs": [
        {
          "indexed": true,
          "internalType": "bytes32",
          "name": "role",
          "type": "bytes32"
        },
        {
          "indexed": true,
          "internalType": "address",
          "name": "account",
          "type": "address"
        },
        {
          "indexed": true,
          "internalType": "address",
          "name": "sender",
          "type": "address"
        }
      ],
      "name": "RoleGranted",
      "type": "event"
    },
    {
      "anonymous": false,
      "inputs": [
        {
          "indexed": true,
          "internalType": "bytes32",
          "name": "role",
          "type": "bytes32"
        },
        {
          "indexed": true,
          "internalType": "address",
          "name": "account",
          "type": "address"
        },
        {
          "indexed": true,
          "internalType": "address",
          "name": "sender",
          "type": "address"
        }
      ],
      "name": "RoleRevoked",
      "type": "event"
    },
    {
      "anonymous": false,
      "inputs": [
        {
          "indexed": true,
          "internalType": "address",
          "name": "from",
          "type": "address"
        },
        {
          "indexed": true,
          "internalType": "address",
          "name": "to",
          "type": "address"
        },
        {
          "indexed": true,
          "internalType": "uint256",
          "name": "tokenId",
          "type": "uint256"
        }
      ],
      "name": "Transfer",
      "type": "event"
    },
    {
      "anonymous": false,
      "inputs": [
        {
          "indexed": false,
          "internalType": "address",
          "name": "account",
          "type": "address"
        }
      ],
      "name": "Unpaused",
      "type": "event"
    },
    {
      "inputs": [],
      "name": "AddressManagerAddress",
      "outputs": [
        {
          "internalType": "address",
          "name": "",
          "type": "address"
        }
      ],
      "stateMutability": "view",
      "type": "function",
      "constant": true
    },
    {
      "inputs": [],
      "name": "ChadBadgeAddress",
      "outputs": [
        {
          "internalType": "address",
          "name": "",
          "type": "address"
        }
      ],
      "stateMutability": "view",
      "type": "function",
      "constant": true
    },
    {
      "inputs": [],
      "name": "ColoredIDAddress",
      "outputs": [
        {
          "internalType": "address",
          "name": "",
          "type": "address"
        }
      ],
      "stateMutability": "view",
      "type": "function",
      "constant": true
    },
    {
      "inputs": [],
      "name": "CourtClerk",
      "outputs": [
        {
          "internalType": "address",
          "name": "",
          "type": "address"
        }
      ],
      "stateMutability": "view",
      "type": "function",
      "constant": true
    },
    {
      "inputs": [],
      "name": "DEFAULT_ADMIN_ROLE",
      "outputs": [
        {
          "internalType": "bytes32",
          "name": "",
          "type": "bytes32"
        }
      ],
      "stateMutability": "view",
      "type": "function",
      "constant": true
    },
    {
      "inputs": [],
      "name": "GAVELS_BAILIFF",
      "outputs": [
        {
          "internalType": "bytes32",
          "name": "",
          "type": "bytes32"
        }
      ],
      "stateMutability": "view",
      "type": "function",
      "constant": true
    },
    {
      "inputs": [],
      "name": "GavelDAOAgent",
      "outputs": [
        {
          "internalType": "address",
          "name": "",
          "type": "address"
        }
      ],
      "stateMutability": "view",
      "type": "function",
      "constant": true
    },
    {
      "inputs": [],
      "name": "GavelTokenAddress",
      "outputs": [
        {
          "internalType": "address",
          "name": "",
          "type": "address"
        }
      ],
      "stateMutability": "view",
      "type": "function",
      "constant": true
    },
    {
      "inputs": [],
      "name": "GavelVote",
      "outputs": [
        {
          "internalType": "bool",
          "name": "",
          "type": "bool"
        }
      ],
      "stateMutability": "view",
      "type": "function",
      "constant": true
    },
    {
      "inputs": [],
      "name": "GoldStarAddress",
      "outputs": [
        {
          "internalType": "address",
          "name": "",
          "type": "address"
        }
      ],
      "stateMutability": "view",
      "type": "function",
      "constant": true
    },
    {
      "inputs": [
        {
          "internalType": "uint256",
          "name": "",
          "type": "uint256"
        }
      ],
      "name": "IDCardInfo",
      "outputs": [
        {
          "internalType": "string",
          "name": "pseudonym",
          "type": "string"
        },
        {
          "internalType": "string",
          "name": "socialHandle",
          "type": "string"
        },
        {
          "internalType": "address",
          "name": "avatarTokenAddress",
          "type": "address"
        },
        {
          "internalType": "uint256",
          "name": "avatarTokenId",
          "type": "uint256"
        },
        {
          "internalType": "uint256",
          "name": "avatarNetworkId",
          "type": "uint256"
        }
      ],
      "stateMutability": "view",
      "type": "function",
      "constant": true
    },
    {
      "inputs": [],
      "name": "JERK_ROLE",
      "outputs": [
        {
          "internalType": "bytes32",
          "name": "",
          "type": "bytes32"
        }
      ],
      "stateMutability": "view",
      "type": "function",
      "constant": true
    },
    {
      "inputs": [],
      "name": "JURY_BAILIFF",
      "outputs": [
        {
          "internalType": "bytes32",
          "name": "",
          "type": "bytes32"
        }
      ],
      "stateMutability": "view",
      "type": "function",
      "constant": true
    },
    {
      "inputs": [],
      "name": "JuryDAOAgent",
      "outputs": [
        {
          "internalType": "address",
          "name": "",
          "type": "address"
        }
      ],
      "stateMutability": "view",
      "type": "function",
      "constant": true
    },
    {
      "inputs": [],
      "name": "JuryPoolAddress",
      "outputs": [
        {
          "internalType": "address",
          "name": "",
          "type": "address"
        }
      ],
      "stateMutability": "view",
      "type": "function",
      "constant": true
    },
    {
      "inputs": [],
      "name": "JuryVote",
      "outputs": [
        {
          "internalType": "bool",
          "name": "",
          "type": "bool"
        }
      ],
      "stateMutability": "view",
      "type": "function",
      "constant": true
    },
    {
      "inputs": [],
      "name": "MINI_BAILIFF_ROLE",
      "outputs": [
        {
          "internalType": "bytes32",
          "name": "",
          "type": "bytes32"
        }
      ],
      "stateMutability": "view",
      "type": "function",
      "constant": true
    },
    {
      "inputs": [],
      "name": "MiniBailiff",
      "outputs": [
        {
          "internalType": "address",
          "name": "",
          "type": "address"
        }
      ],
      "stateMutability": "view",
      "type": "function",
      "constant": true
    },
    {
      "inputs": [],
      "name": "PinkSlipAddress",
      "outputs": [
        {
          "internalType": "address",
          "name": "",
          "type": "address"
        }
      ],
      "stateMutability": "view",
      "type": "function",
      "constant": true
    },
    {
      "inputs": [
        {
          "internalType": "string",
          "name": "",
          "type": "string"
        }
      ],
      "name": "Pseudonym",
      "outputs": [
        {
          "internalType": "uint256",
          "name": "",
          "type": "uint256"
        }
      ],
      "stateMutability": "view",
      "type": "function",
      "constant": true
    },
    {
      "inputs": [],
      "name": "RedPenTokenAddress",
      "outputs": [
        {
          "internalType": "address",
          "name": "",
          "type": "address"
        }
      ],
      "stateMutability": "view",
      "type": "function",
      "constant": true
    },
    {
      "inputs": [
        {
          "internalType": "string",
          "name": "",
          "type": "string"
        }
      ],
      "name": "SocialHandle",
      "outputs": [
        {
          "internalType": "uint256",
          "name": "",
          "type": "uint256"
        }
      ],
      "stateMutability": "view",
      "type": "function",
      "constant": true
    },
    {
      "inputs": [],
      "name": "THE_COURT_ROLE",
      "outputs": [
        {
          "internalType": "bytes32",
          "name": "",
          "type": "bytes32"
        }
      ],
      "stateMutability": "view",
      "type": "function",
      "constant": true
    },
    {
      "inputs": [],
      "name": "TheCourtAddress",
      "outputs": [
        {
          "internalType": "address",
          "name": "",
          "type": "address"
        }
      ],
      "stateMutability": "view",
      "type": "function",
      "constant": true
    },
    {
      "inputs": [],
      "name": "TreasuryAddress",
      "outputs": [
        {
          "internalType": "address",
          "name": "",
          "type": "address"
        }
      ],
      "stateMutability": "view",
      "type": "function",
      "constant": true
    },
    {
      "inputs": [
        {
          "internalType": "uint256",
          "name": "",
          "type": "uint256"
        }
      ],
      "name": "UserTransferApproved",
      "outputs": [
        {
          "internalType": "bool",
          "name": "",
          "type": "bool"
        }
      ],
      "stateMutability": "view",
      "type": "function",
      "constant": true
    },
    {
      "inputs": [],
      "name": "addressManager",
      "outputs": [
        {
          "internalType": "contract AddressManager",
          "name": "",
          "type": "address"
        }
      ],
      "stateMutability": "view",
      "type": "function",
      "constant": true
    },
    {
      "inputs": [
        {
          "internalType": "address",
          "name": "to",
          "type": "address"
        },
        {
          "internalType": "uint256",
          "name": "tokenId",
          "type": "uint256"
        }
      ],
      "name": "approve",
      "outputs": [],
      "stateMutability": "nonpayable",
      "type": "function"
    },
    {
      "inputs": [
        {
          "internalType": "uint256",
          "name": "_tokenId",
          "type": "uint256"
        }
      ],
      "name": "approveUserTransfer",
      "outputs": [],
      "stateMutability": "nonpayable",
      "type": "function"
    },
    {
      "inputs": [],
      "name": "badgeColor",
      "outputs": [
        {
          "internalType": "string",
          "name": "",
          "type": "string"
        }
      ],
      "stateMutability": "view",
      "type": "function",
      "constant": true
    },
    {
      "inputs": [],
      "name": "badgeName",
      "outputs": [
        {
          "internalType": "string",
          "name": "",
          "type": "string"
        }
      ],
      "stateMutability": "view",
      "type": "function",
      "constant": true
    },
    {
      "inputs": [
        {
          "internalType": "address",
          "name": "owner",
          "type": "address"
        }
      ],
      "name": "balanceOf",
      "outputs": [
        {
          "internalType": "uint256",
          "name": "",
          "type": "uint256"
        }
      ],
      "stateMutability": "view",
      "type": "function",
      "constant": true
    },
    {
      "inputs": [
        {
          "internalType": "uint256",
          "name": "_valueMustBe69",
          "type": "uint256"
        }
      ],
      "name": "destroyAndLockContract",
      "outputs": [
        {
          "internalType": "bool",
          "name": "",
          "type": "bool"
        }
      ],
      "stateMutability": "nonpayable",
      "type": "function"
    },
    {
      "inputs": [
        {
          "internalType": "uint256",
          "name": "tokenId",
          "type": "uint256"
        }
      ],
      "name": "getApproved",
      "outputs": [
        {
          "internalType": "address",
          "name": "",
          "type": "address"
        }
      ],
      "stateMutability": "view",
      "type": "function",
      "constant": true
    },
    {
      "inputs": [
        {
          "internalType": "uint256",
          "name": "_tokenId",
          "type": "uint256"
        }
      ],
      "name": "getBadgeInfo",
      "outputs": [
        {
          "internalType": "string",
          "name": "_pseudonym",
          "type": "string"
        },
        {
          "internalType": "string",
          "name": "_socialHandle",
          "type": "string"
        },
        {
          "internalType": "address",
          "name": "_avatarTokenAddress",
          "type": "address"
        },
        {
          "internalType": "uint256",
          "name": "_avatarTokenId",
          "type": "uint256"
        }
      ],
      "stateMutability": "view",
      "type": "function",
      "constant": true
    },
    {
      "inputs": [
        {
          "internalType": "string",
          "name": "_SocialHandle",
          "type": "string"
        }
      ],
      "name": "getIDFromHandle",
      "outputs": [
        {
          "internalType": "uint256",
          "name": "_tokenId",
          "type": "uint256"
        }
      ],
      "stateMutability": "view",
      "type": "function",
      "constant": true
    },
    {
      "inputs": [
        {
          "internalType": "bytes32",
          "name": "role",
          "type": "bytes32"
        }
      ],
      "name": "getRoleAdmin",
      "outputs": [
        {
          "internalType": "bytes32",
          "name": "",
          "type": "bytes32"
        }
      ],
      "stateMutability": "view",
      "type": "function",
      "constant": true
    },
    {
      "inputs": [
        {
          "internalType": "bytes32",
          "name": "role",
          "type": "bytes32"
        },
        {
          "internalType": "uint256",
          "name": "index",
          "type": "uint256"
        }
      ],
      "name": "getRoleMember",
      "outputs": [
        {
          "internalType": "address",
          "name": "",
          "type": "address"
        }
      ],
      "stateMutability": "view",
      "type": "function",
      "constant": true
    },
    {
      "inputs": [
        {
          "internalType": "bytes32",
          "name": "role",
          "type": "bytes32"
        }
      ],
      "name": "getRoleMemberCount",
      "outputs": [
        {
          "internalType": "uint256",
          "name": "",
          "type": "uint256"
        }
      ],
      "stateMutability": "view",
      "type": "function",
      "constant": true
    },
    {
      "inputs": [
        {
          "internalType": "bytes32",
          "name": "role",
          "type": "bytes32"
        },
        {
          "internalType": "address",
          "name": "account",
          "type": "address"
        }
      ],
      "name": "grantRole",
      "outputs": [],
      "stateMutability": "nonpayable",
      "type": "function"
    },
    {
      "inputs": [
        {
          "internalType": "bytes32",
          "name": "role",
          "type": "bytes32"
        },
        {
          "internalType": "address",
          "name": "account",
          "type": "address"
        }
      ],
      "name": "hasRole",
      "outputs": [
        {
          "internalType": "bool",
          "name": "",
          "type": "bool"
        }
      ],
      "stateMutability": "view",
      "type": "function",
      "constant": true
    },
    {
      "inputs": [
        {
          "internalType": "address",
          "name": "owner",
          "type": "address"
        },
        {
          "internalType": "address",
          "name": "operator",
          "type": "address"
        }
      ],
      "name": "isApprovedForAll",
      "outputs": [
        {
          "internalType": "bool",
          "name": "",
          "type": "bool"
        }
      ],
      "stateMutability": "view",
      "type": "function",
      "constant": true
    },
    {
      "inputs": [],
      "name": "isForeverLocked",
      "outputs": [
        {
          "internalType": "bool",
          "name": "",
          "type": "bool"
        }
      ],
      "stateMutability": "view",
      "type": "function",
      "constant": true
    },
    {
      "inputs": [
        {
          "internalType": "address",
          "name": "receivingAddress",
          "type": "address"
        },
        {
          "internalType": "string",
          "name": "_pseudonym",
          "type": "string"
        },
        {
          "internalType": "string",
          "name": "_socialHandle",
          "type": "string"
        },
        {
          "internalType": "address",
          "name": "_avatarTokenAddress",
          "type": "address"
        },
        {
          "internalType": "uint256",
          "name": "_avatarTokenId",
          "type": "uint256"
        },
        {
          "internalType": "uint256",
          "name": "_tokenId",
          "type": "uint256"
        }
      ],
      "name": "issueBadge",
      "outputs": [
        {
          "internalType": "uint256",
          "name": "newId",
          "type": "uint256"
        }
      ],
      "stateMutability": "nonpayable",
      "type": "function"
    },
    {
      "inputs": [
        {
          "internalType": "address",
          "name": "receivingAddress",
          "type": "address"
        },
        {
          "internalType": "string",
          "name": "_pseudonym",
          "type": "string"
        },
        {
          "internalType": "string",
          "name": "_socialHandle",
          "type": "string"
        },
        {
          "internalType": "address",
          "name": "_avatarTokenAddress",
          "type": "address"
        },
        {
          "internalType": "uint256",
          "name": "_avatarTokenId",
          "type": "uint256"
        },
        {
          "internalType": "uint256",
          "name": "_avatarNetworkId",
          "type": "uint256"
        },
        {
          "internalType": "uint256",
          "name": "_tokenId",
          "type": "uint256"
        }
      ],
      "name": "issueBadge",
      "outputs": [
        {
          "internalType": "uint256",
          "name": "newId",
          "type": "uint256"
        }
      ],
      "stateMutability": "nonpayable",
      "type": "function"
    },
    {
      "inputs": [
        {
          "internalType": "address",
          "name": "receivingAddress",
          "type": "address"
        },
        {
          "internalType": "string",
          "name": "_pseudonym",
          "type": "string"
        },
        {
          "internalType": "string",
          "name": "_socialHandle",
          "type": "string"
        },
        {
          "internalType": "address",
          "name": "_avatarTokenAddress",
          "type": "address"
        },
        {
          "internalType": "uint256",
          "name": "_avatarTokenId",
          "type": "uint256"
        },
        {
          "internalType": "uint256",
          "name": "_avatarNetworkId",
          "type": "uint256"
        },
        {
          "internalType": "uint256",
          "name": "_tokenId",
          "type": "uint256"
        },
        {
          "internalType": "string",
          "name": "_tokenURI",
          "type": "string"
        }
      ],
      "name": "issueBadge",
      "outputs": [
        {
          "internalType": "uint256",
          "name": "newId",
          "type": "uint256"
        }
      ],
      "stateMutability": "nonpayable",
      "type": "function"
    },
    {
      "inputs": [],
      "name": "jerkSanctions",
      "outputs": [
        {
          "internalType": "bool",
          "name": "",
          "type": "bool"
        }
      ],
      "stateMutability": "view",
      "type": "function",
      "constant": true
    },
    {
      "inputs": [],
      "name": "name",
      "outputs": [
        {
          "internalType": "string",
          "name": "",
          "type": "string"
        }
      ],
      "stateMutability": "view",
      "type": "function",
      "constant": true
    },
    {
      "inputs": [
        {
          "internalType": "uint256",
          "name": "tokenId",
          "type": "uint256"
        }
      ],
      "name": "ownerOf",
      "outputs": [
        {
          "internalType": "address",
          "name": "",
          "type": "address"
        }
      ],
      "stateMutability": "view",
      "type": "function",
      "constant": true
    },
    {
      "inputs": [],
      "name": "pause",
      "outputs": [],
      "stateMutability": "nonpayable",
      "type": "function"
    },
    {
      "inputs": [],
      "name": "paused",
      "outputs": [
        {
          "internalType": "bool",
          "name": "",
          "type": "bool"
        }
      ],
      "stateMutability": "view",
      "type": "function",
      "constant": true
    },
    {
      "inputs": [
        {
          "internalType": "bool",
          "name": "_thisIsNotReversible",
          "type": "bool"
        }
      ],
      "name": "refreshBadges",
      "outputs": [
        {
          "internalType": "bool",
          "name": "",
          "type": "bool"
        }
      ],
      "stateMutability": "nonpayable",
      "type": "function"
    },
    {
      "inputs": [
        {
          "internalType": "bytes32",
          "name": "role",
          "type": "bytes32"
        },
        {
          "internalType": "address",
          "name": "account",
          "type": "address"
        }
      ],
      "name": "renounceRole",
      "outputs": [],
      "stateMutability": "nonpayable",
      "type": "function"
    },
    {
      "inputs": [],
      "name": "resetVote",
      "outputs": [],
      "stateMutability": "nonpayable",
      "type": "function"
    },
    {
      "inputs": [
        {
          "internalType": "uint256",
          "name": "_tokenId",
          "type": "uint256"
        }
      ],
      "name": "revokeBadge",
      "outputs": [],
      "stateMutability": "nonpayable",
      "type": "function"
    },
    {
      "inputs": [
        {
          "internalType": "bytes32",
          "name": "role",
          "type": "bytes32"
        },
        {
          "internalType": "address",
          "name": "account",
          "type": "address"
        }
      ],
      "name": "revokeRole",
      "outputs": [],
      "stateMutability": "nonpayable",
      "type": "function"
    },
    {
      "inputs": [
        {
          "internalType": "address",
          "name": "from",
          "type": "address"
        },
        {
          "internalType": "address",
          "name": "to",
          "type": "address"
        },
        {
          "internalType": "uint256",
          "name": "tokenId",
          "type": "uint256"
        }
      ],
      "name": "safeTransferFrom",
      "outputs": [],
      "stateMutability": "nonpayable",
      "type": "function"
    },
    {
      "inputs": [
        {
          "internalType": "address",
          "name": "from",
          "type": "address"
        },
        {
          "internalType": "address",
          "name": "to",
          "type": "address"
        },
        {
          "internalType": "uint256",
          "name": "tokenId",
          "type": "uint256"
        },
        {
          "internalType": "bytes",
          "name": "_data",
          "type": "bytes"
        }
      ],
      "name": "safeTransferFrom",
      "outputs": [],
      "stateMutability": "nonpayable",
      "type": "function"
    },
    {
      "inputs": [
        {
          "internalType": "address",
          "name": "operator",
          "type": "address"
        },
        {
          "internalType": "bool",
          "name": "approved",
          "type": "bool"
        }
      ],
      "name": "setApprovalForAll",
      "outputs": [],
      "stateMutability": "nonpayable",
      "type": "function"
    },
    {
      "inputs": [],
      "name": "socialPlatform",
      "outputs": [
        {
          "internalType": "string",
          "name": "",
          "type": "string"
        }
      ],
      "stateMutability": "view",
      "type": "function",
      "constant": true
    },
    {
      "inputs": [
        {
          "internalType": "bytes4",
          "name": "interfaceId",
          "type": "bytes4"
        }
      ],
      "name": "supportsInterface",
      "outputs": [
        {
          "internalType": "bool",
          "name": "",
          "type": "bool"
        }
      ],
      "stateMutability": "view",
      "type": "function",
      "constant": true
    },
    {
      "inputs": [],
      "name": "symbol",
      "outputs": [
        {
          "internalType": "string",
          "name": "",
          "type": "string"
        }
      ],
      "stateMutability": "view",
      "type": "function",
      "constant": true
    },
    {
      "inputs": [],
      "name": "syncAllRoles",
      "outputs": [],
      "stateMutability": "nonpayable",
      "type": "function"
    },
    {
      "inputs": [
        {
          "internalType": "bytes32",
          "name": "ROLE_TO_SYNC",
          "type": "bytes32"
        }
      ],
      "name": "syncSingleRole",
      "outputs": [],
      "stateMutability": "nonpayable",
      "type": "function"
    },
    {
      "inputs": [],
      "name": "syncVotes",
      "outputs": [],
      "stateMutability": "nonpayable",
      "type": "function"
    },
    {
      "inputs": [
        {
          "internalType": "uint256",
          "name": "index",
          "type": "uint256"
        }
      ],
      "name": "tokenByIndex",
      "outputs": [
        {
          "internalType": "uint256",
          "name": "",
          "type": "uint256"
        }
      ],
      "stateMutability": "view",
      "type": "function",
      "constant": true
    },
    {
      "inputs": [
        {
          "internalType": "address",
          "name": "owner",
          "type": "address"
        },
        {
          "internalType": "uint256",
          "name": "index",
          "type": "uint256"
        }
      ],
      "name": "tokenOfOwnerByIndex",
      "outputs": [
        {
          "internalType": "uint256",
          "name": "",
          "type": "uint256"
        }
      ],
      "stateMutability": "view",
      "type": "function",
      "constant": true
    },
    {
      "inputs": [
        {
          "internalType": "uint256",
          "name": "_tokenId",
          "type": "uint256"
        }
      ],
      "name": "tokenURI",
      "outputs": [
        {
          "internalType": "string",
          "name": "_URI",
          "type": "string"
        }
      ],
      "stateMutability": "view",
      "type": "function",
      "constant": true
    },
    {
      "inputs": [],
      "name": "totalSupply",
      "outputs": [
        {
          "internalType": "uint256",
          "name": "",
          "type": "uint256"
        }
      ],
      "stateMutability": "view",
      "type": "function",
      "constant": true
    },
    {
      "inputs": [
        {
          "internalType": "address",
          "name": "from",
          "type": "address"
        },
        {
          "internalType": "address",
          "name": "to",
          "type": "address"
        },
        {
          "internalType": "uint256",
          "name": "tokenId",
          "type": "uint256"
        }
      ],
      "name": "transferFrom",
      "outputs": [],
      "stateMutability": "nonpayable",
      "type": "function"
    },
    {
      "inputs": [],
      "name": "unpause",
      "outputs": [],
      "stateMutability": "nonpayable",
      "type": "function"
    },
    {
      "inputs": [],
      "name": "updateAddressManager",
      "outputs": [],
      "stateMutability": "nonpayable",
      "type": "function"
    },
    {
      "inputs": [],
      "name": "updateAllAddresses",
      "outputs": [],
      "stateMutability": "nonpayable",
      "type": "function"
    },
    {
      "inputs": [],
      "name": "updateAllRoles",
      "outputs": [],
      "stateMutability": "nonpayable",
      "type": "function"
    },
    {
      "inputs": [
        {
          "internalType": "address",
          "name": "_avatarTokenAddress",
          "type": "address"
        },
        {
          "internalType": "uint256",
          "name": "_avatarTokenId",
          "type": "uint256"
        }
      ],
      "name": "updateAvatar",
      "outputs": [],
      "stateMutability": "nonpayable",
      "type": "function"
    },
    {
      "inputs": [
        {
          "internalType": "uint256",
          "name": "_tokenId",
          "type": "uint256"
        },
        {
          "internalType": "address",
          "name": "_avatarTokenAddress",
          "type": "address"
        },
        {
          "internalType": "uint256",
          "name": "_avatarTokenId",
          "type": "uint256"
        },
        {
          "internalType": "uint256",
          "name": "_avatarNetworkId",
          "type": "uint256"
        }
      ],
      "name": "updateAvatar",
      "outputs": [],
      "stateMutability": "nonpayable",
      "type": "function"
    },
    {
      "inputs": [
        {
          "internalType": "uint256",
          "name": "_tokenId",
          "type": "uint256"
        },
        {
          "internalType": "address",
          "name": "_avatarTokenAddress",
          "type": "address"
        },
        {
          "internalType": "uint256",
          "name": "_avatarTokenId",
          "type": "uint256"
        }
      ],
      "name": "updateAvatar",
      "outputs": [],
      "stateMutability": "nonpayable",
      "type": "function"
    },
    {
      "inputs": [],
      "name": "updateDAOAddresses",
      "outputs": [],
      "stateMutability": "nonpayable",
      "type": "function"
    },
    {
      "inputs": [
        {
          "internalType": "uint256",
          "name": "_tokenId",
          "type": "uint256"
        },
        {
          "internalType": "string",
          "name": "_imageHash",
          "type": "string"
        }
      ],
      "name": "updateImageHash",
      "outputs": [],
      "stateMutability": "nonpayable",
      "type": "function"
    },
    {
      "inputs": [
        {
          "internalType": "bytes32",
          "name": "ROLE_TO_UPDATE",
          "type": "bytes32"
        }
      ],
      "name": "updateSingleRole",
      "outputs": [],
      "stateMutability": "nonpayable",
      "type": "function"
    },
    {
      "inputs": [],
      "name": "updateTokenAddresses",
      "outputs": [],
      "stateMutability": "nonpayable",
      "type": "function"
    },
    {
      "inputs": [
        {
          "internalType": "string",
          "name": "_baseURI",
          "type": "string"
        }
      ],
      "name": "setBaseURI",
      "outputs": [],
      "stateMutability": "nonpayable",
      "type": "function"
    }
  ],
  "bytecode": "0x60806040526000805460ff199081169091556011805463ffffffff60a01b191690556001601e55601f805490911690553480156200003c57600080fd5b50604051620063e0380380620063e08339810160408190526200005f9162000f1f565b604080518082018252600a81526910dbdb1bdc995908125160b21b602080830191909152825180840184526002815261125160f21b81830152835180850190945260078452663a3bb4ba3a32b960c91b91840191909152600380546001600160a01b0386166001600160a01b03199182168117909255601180549091169091179055909183838382620000f162000304565b620000fb6200031a565b600f5462000115906000906001600160a01b031662000465565b600f546200014e907f0538d24a8b7882d7b2e36af243d4af61c23e86e3daa6cb8c887b53220b2f5720906001600160a01b031662000465565b600c5462000187907f048bc71fa1cb2c119c339cf9cf00a97996a19a9d991ce5fe049f2fa5459e7990906001600160a01b031662000465565b600d54620001c0907ffa8e4989e1d689f7bc5c4b25b87efb51fecdecb19ba62847e29c759e12a89acd906001600160a01b031662000465565b601054620001f9907ff0f4b159a6e2a4815eb3ca3df080bfa70c9270662c59bcaa4479a456220183e6906001600160a01b031662000465565b620002267f7c9d7f6f02908185bffb3f7fc9afb29fd7bf93675af8fd4b655ee05c2cee1e0e600062000465565b5081516200023c90601290602085019062000df5565b5080516200025290601390602084019062000df5565b50506018805460ff19169055506200026962000304565b82516200027e90602190602086019062000df5565b5083516200029490602290602087019062000df5565b506020808054620002a59062000f75565b620002b292919062000e84565b5050505050620002fd6040518060400160405280601c81526020017f68747470733a2f2f636f6c6f7265646261646765732e66756e2f232f00000000815250620004a860201b60201c565b5062000fb2565b6200030e620005ad565b62000318620008ad565b565b601160009054906101000a90046001600160a01b03166001600160a01b031663ff7e88ec6040518163ffffffff1660e01b815260040160206040518083038186803b1580156200036957600080fd5b505afa1580156200037e573d6000803e3d6000fd5b505050506040513d601f19601f82011682018060405250810190620003a4919062000f51565b601160156101000a81548160ff021916908315150217905550601160009054906101000a90046001600160a01b03166001600160a01b0316632fb565856040518163ffffffff1660e01b815260040160206040518083038186803b1580156200040c57600080fd5b505afa15801562000421573d6000803e3d6000fd5b505050506040513d601f19601f8201168201806040525081019062000447919062000f51565b60118054911515600160b01b0260ff60b01b19909216919091179055565b6200047c828262000cd660201b62001e021760201c565b6000828152600260209081526040909120620004a391839062001e0c62000ce6821b17901c565b505050565b3360009081527f4b7f6d1325e6fe884a3a215807f316a12205c2f3148f0103d52694e5cd6e932b602052604090205460ff16806200051457503360009081527f53d27e724d800b8d671146b45452a6cd65bae6da77cd1ec44309a48bcce1e9d5602052604090205460ff165b806200054e57503360009081527f3e7a5fe2057c147ef19a00ceb94123dabbcab5a2cc4e295137a14baca3d4af6b602052604090205460ff165b6200059f5760405162461bcd60e51b815260206004820152601660248201527f596f75277265206e6f7420746865206261696c69666600000000000000000000604482015260640160405180910390fd5b620005aa8162000d06565b50565b601160009054906101000a90046001600160a01b03166001600160a01b031663dadf56ac6040518163ffffffff1660e01b815260040160206040518083038186803b158015620005fc57600080fd5b505afa15801562000611573d6000803e3d6000fd5b505050506040513d601f19601f8201168201806040525081019062000637919062000f1f565b600c80546001600160a01b0319166001600160a01b039283161790556011546040805163024bebe960e01b81529051919092169163024bebe9916004808301926020929190829003018186803b1580156200069157600080fd5b505afa158015620006a6573d6000803e3d6000fd5b505050506040513d601f19601f82011682018060405250810190620006cc919062000f1f565b600d80546001600160a01b0319166001600160a01b0392831617905560115460408051635b5c251f60e01b815290519190921691635b5c251f916004808301926020929190829003018186803b1580156200072657600080fd5b505afa1580156200073b573d6000803e3d6000fd5b505050506040513d601f19601f8201168201806040525081019062000761919062000f1f565b600e80546001600160a01b0319166001600160a01b0392831617905560115460408051637310bf1d60e11b81529051919092169163e6217e3a916004808301926020929190829003018186803b158015620007bb57600080fd5b505afa158015620007d0573d6000803e3d6000fd5b505050506040513d601f19601f82011682018060405250810190620007f6919062000f1f565b601080546001600160a01b0319166001600160a01b039283161790556011546040805163d88127a160e01b81529051919092169163d88127a1916004808301926020929190829003018186803b1580156200085057600080fd5b505afa15801562000865573d6000803e3d6000fd5b505050506040513d601f19601f820116820180604052508101906200088b919062000f1f565b600b80546001600160a01b0319166001600160a01b0392909216919091179055565b601160009054906101000a90046001600160a01b03166001600160a01b03166321d7f0086040518163ffffffff1660e01b815260040160206040518083038186803b158015620008fc57600080fd5b505afa15801562000911573d6000803e3d6000fd5b505050506040513d601f19601f8201168201806040525081019062000937919062000f1f565b600480546001600160a01b0319166001600160a01b039283161781556011546040805163762ddb5960e01b81529051919093169263762ddb599281810192602092909190829003018186803b1580156200099057600080fd5b505afa158015620009a5573d6000803e3d6000fd5b505050506040513d601f19601f82011682018060405250810190620009cb919062000f1f565b600580546001600160a01b0319166001600160a01b039283161790556011546040805163bfb7dc9960e01b81529051919092169163bfb7dc99916004808301926020929190829003018186803b15801562000a2557600080fd5b505afa15801562000a3a573d6000803e3d6000fd5b505050506040513d601f19601f8201168201806040525081019062000a60919062000f1f565b600680546001600160a01b0319166001600160a01b0392831617905560115460408051633e6111eb60e21b81529051919092169163f98447ac916004808301926020929190829003018186803b15801562000aba57600080fd5b505afa15801562000acf573d6000803e3d6000fd5b505050506040513d601f19601f8201168201806040525081019062000af5919062000f1f565b600780546001600160a01b0319166001600160a01b0392831617905560115460408051630fe1ba9f60e21b815290519190921691633f86ea7c916004808301926020929190829003018186803b15801562000b4f57600080fd5b505afa15801562000b64573d6000803e3d6000fd5b505050506040513d601f19601f8201168201806040525081019062000b8a919062000f1f565b600880546001600160a01b0319166001600160a01b0392831617905560115460408051632b90024160e11b8152905191909216916357200482916004808301926020929190829003018186803b15801562000be457600080fd5b505afa15801562000bf9573d6000803e3d6000fd5b505050506040513d601f19601f8201168201806040525081019062000c1f919062000f1f565b600980546001600160a01b0319166001600160a01b0392831617905560115460408051636b58477560e01b815290519190921691636b584775916004808301926020929190829003018186803b15801562000c7957600080fd5b505afa15801562000c8e573d6000803e3d6000fd5b505050506040513d601f19601f8201168201806040525081019062000cb4919062000f1f565b600a80546001600160a01b0319166001600160a01b0392909216919091179055565b62000ce2828262000d1b565b5050565b600062000cfd836001600160a01b03841662000da3565b90505b92915050565b805162000ce290602790602084019062000df5565b60008281526001602090815260408083206001600160a01b038516845290915290205460ff1662000ce25760008281526001602081815260408084206001600160a01b0386168086529252808420805460ff19169093179092559051339285917f2f8788117e7eff1d82e926ec794901d17c78024a50270940304540a733656f0d9190a45050565b600081815260018301602052604081205462000dec5750815460018181018455600084815260208082209093018490558454848252828601909352604090209190915562000d00565b50600062000d00565b82805462000e039062000f75565b90600052602060002090601f01602090048101928262000e27576000855562000e72565b82601f1062000e4257805160ff191683800117855562000e72565b8280016001018555821562000e72579182015b8281111562000e7257825182559160200191906001019062000e55565b5062000e8092915062000f08565b5090565b82805462000e929062000f75565b90600052602060002090601f01602090048101928262000eb6576000855562000e72565b82601f1062000ec9578054855562000e72565b8280016001018555821562000e7257600052602060002091601f016020900482015b8281111562000e7257825482559160010191906001019062000eeb565b5b8082111562000e80576000815560010162000f09565b60006020828403121562000f3257600080fd5b81516001600160a01b038116811462000f4a57600080fd5b9392505050565b60006020828403121562000f6457600080fd5b8151801515811462000f4a57600080fd5b600181811c9082168062000f8a57607f821691505b6020821081141562000fac57634e487b7160e01b600052602260045260246000fd5b50919050565b61541e8062000fc26000396000f3fe608060405234801561001057600080fd5b50600436106104965760003560e01c80635f41346611610262578063bfb7dc9911610151578063dea6f9c8116100ce578063e985e9c511610092578063e985e9c514610a4e578063e9a5323014610a61578063f1132b3014610a76578063f7d92d8614610a7e578063f98447ac14610a86578063ff7e88ec14610a9957600080fd5b8063dea6f9c8146109d2578063e2045b5e146109da578063e346195a146109fd578063e6217e3a14610a28578063e78c266c14610a3b57600080fd5b8063cce8439211610115578063cce843921461096f578063cf4ece1514610984578063d547741f14610999578063d88127a1146109ac578063dadf56ac146109bf57600080fd5b8063bfb7dc9914610910578063c62b28e814610923578063c87b56dd14610936578063c963e4d614610949578063ca15c8731461095c57600080fd5b806391d14854116101df578063a22cb465116101a3578063a22cb465146108ae578063a32c5e59146108c1578063a4369b71146108d6578063a78e746f146108e9578063b88d4fde146108fd57600080fd5b806391d148541461086b57806395d89b411461087e57806396ac6bf0146108865780639ac3eaa714610899578063a217fddf146108a657600080fd5b806370a082311161022657806370a0823114610817578063762ddb591461082a578063765160781461083d5780638456cb59146108505780639010d07c1461085857600080fd5b80635f413466146107c3578063610c3009146107d6578063625a5800146107de5780636352211e146107f15780636b5847751461080457600080fd5b80632fb565851161038957806349b5e1051161030657806355f804b3116102ca57806355f804b314610764578063572004821461077757806357f276ff1461078a5780635b5c251f1461079d5780635c975abb146107b05780635db531a1146107bb57600080fd5b806349b5e105146107265780634a47f1471461072e5780634d84c6d8146107415780634e0ba968146107495780634f6ccce71461075157600080fd5b80633ab76e9f1161034d5780633ab76e9f146106d25780633f4ba83a146106e55780633f86ea7c146106ed578063422d68e91461070057806342842e0e1461071357600080fd5b80632fb5658514610688578063326a55e01461069c578063329a8cfa146106a457806335ea18e8146106ac57806336568abe146106bf57600080fd5b80631fb4f43b11610417578063248a9ca3116103db578063248a9ca3146105f05780632be48d34146106145780632f2e8fda1461063f5780632f2ff15d146106625780632f745c591461067557600080fd5b80631fb4f43b1461057e5780631fb58ad9146105a257806321d7f008146105b557806323b872dd146105c85780632436329d146105db57600080fd5b80630cf8e42f1161045e5780630cf8e42f1461052b5780630e957b0b1461053e578063130f63201461055157806317314d5a1461056457806318160ddd1461056c57600080fd5b806301ffc9a71461049b578063024bebe9146104c357806306fdde03146104ee578063081812fc14610503578063095ea7b314610516575b600080fd5b6104ae6104a9366004614dc2565b610aad565b60405190151581526020015b60405180910390f35b600d546104d6906001600160a01b031681565b6040516001600160a01b0390911681526020016104ba565b6104f6610abe565b6040516104ba919061501e565b6104d6610511366004614d62565b610b50565b610529610524366004614cfc565b610bdd565b005b610529610539366004614cfc565b610cf3565b61052961054c366004614e71565b610d22565b61052961055f366004614d62565b610d74565b610529610da9565b601c545b6040519081526020016104ba565b61059161058c366004614d62565b610dd2565b6040516104ba959493929190615073565b6105296105b0366004614d62565b610f1c565b6004546104d6906001600160a01b031681565b6105296105d6366004614a07565b610fad565b61057060008051602061534983398151915281565b6105706105fe366004614d62565b6000908152600160208190526040909120015490565b610570610622366004614dfc565b805160208183018101805160268252928201919093012091525481565b6104ae61064d366004614d62565b60236020526000908152604090205460ff1681565b610529610670366004614d7b565b610fde565b610570610683366004614cfc565b611000565b6011546104ae90600160b01b900460ff1681565b610529611096565b6105296110a6565b6105706106ba366004614af6565b611186565b6105296106cd366004614d7b565b611226565b6011546104d6906001600160a01b031681565b610529611248565b6008546104d6906001600160a01b031681565b61052961070e366004614e4a565b6112da565b610529610721366004614a07565b6112f8565b610529611313565b61052961073c366004614eae565b61131b565b61052961109e565b6104f6611344565b61057061075f366004614d62565b6113d2565b610529610772366004614dfc565b611465565b6009546104d6906001600160a01b031681565b610529610798366004614d62565b6114de565b600e546104d6906001600160a01b031681565b60185460ff166104ae565b6105296114f2565b600f546104d6906001600160a01b031681565b6104f66114fa565b6105706107ec366004614b91565b611507565b6104d66107ff366004614d62565b611597565b600a546104d6906001600160a01b031681565b610570610825366004614994565b61160e565b6005546104d6906001600160a01b031681565b6104ae61084b366004614d28565b611695565b610529611796565b6104d6610866366004614da0565b611818565b6104ae610879366004614d7b565b611837565b6104f6611862565b6104ae610894366004614d62565b611871565b601f546104ae9060ff1681565b610570600081565b6105296108bc366004614ac8565b61197d565b6105706000805160206153a983398151915281565b6105706108e4366004614dfc565b611a24565b6011546104ae90600160a01b900460ff1681565b61052961090b366004614a48565b611a4c565b6006546104d6906001600160a01b031681565b610529610931366004614d62565b611a7e565b6104f6610944366004614d62565b611afa565b610570610957366004614c35565b611b05565b61057061096a366004614d62565b611b86565b6105706000805160206153c983398151915281565b61057060008051602061538983398151915281565b6105296109a7366004614d7b565b611b9d565b600b546104d6906001600160a01b031681565b600c546104d6906001600160a01b031681565b6104f6611ba7565b6109ed6109e8366004614d62565b611bb4565b6040516104ba9493929190615031565b610570610a0b366004614dfc565b805160208183018101805160258252928201919093012091525481565b6010546104d6906001600160a01b031681565b6003546104d6906001600160a01b031681565b6104ae610a5c3660046149ce565b611d19565b61057060008051602061536983398151915281565b610529611d5a565b610529611d62565b6007546104d6906001600160a01b031681565b6011546104ae90600160a81b900460ff1681565b6000610ab882611e21565b92915050565b606060128054610acd90615237565b80601f0160208091040260200160405190810160405280929190818152602001828054610af990615237565b8015610b465780601f10610b1b57610100808354040283529160200191610b46565b820191906000526020600020905b815481529060010190602001808311610b2957829003601f168201915b5050505050905090565b6000610b5b82611e46565b610bc15760405162461bcd60e51b815260206004820152602c60248201527f4552433732313a20617070726f76656420717565727920666f72206e6f6e657860448201526b34b9ba32b73a103a37b5b2b760a11b60648201526084015b60405180910390fd5b506000908152601660205260409020546001600160a01b031690565b6000610be882611597565b9050806001600160a01b0316836001600160a01b03161415610c565760405162461bcd60e51b815260206004820152602160248201527f4552433732313a20617070726f76616c20746f2063757272656e74206f776e656044820152603960f91b6064820152608401610bb8565b336001600160a01b0382161480610c725750610c728133611d19565b610ce45760405162461bcd60e51b815260206004820152603860248201527f4552433732313a20617070726f76652063616c6c6572206973206e6f74206f7760448201527f6e6572206e6f7220617070726f76656420666f7220616c6c00000000000000006064820152608401610bb8565b610cee8383611e63565b505050565b6000610cfe3361160e565b11610d0857600080fd5b6000610d15336000611000565b9050610cee818484611ed1565b610d2c3385611f09565b610d3557600080fd5b60008481526024602052604090206002810180546001600160a01b0319166001600160a01b038616179055600381018390556004018190555b50505050565b610d7e6001611fcb565b50610d888161207d565b50610d92816121f8565b50610d9d6000611fcb565b610da657600080fd5b50565b610db36001611fcb565b50610dbc612381565b50610dc76000611fcb565b610dd057600080fd5b565b602460205260009081526040902080548190610ded90615237565b80601f0160208091040260200160405190810160405280929190818152602001828054610e1990615237565b8015610e665780601f10610e3b57610100808354040283529160200191610e66565b820191906000526020600020905b815481529060010190602001808311610e4957829003601f168201915b505050505090806001018054610e7b90615237565b80601f0160208091040260200160405190810160405280929190818152602001828054610ea790615237565b8015610ef45780601f10610ec957610100808354040283529160200191610ef4565b820191906000526020600020905b815481529060010190602001808311610ed757829003601f168201915b505050506002830154600384015460049094015492936001600160a01b039091169290915085565b610f346000805160206153a983398151915233611837565b80610f525750610f5260008051602061536983398151915233611837565b80610f705750610f7060008051602061534983398151915233611837565b610f8c5760405162461bcd60e51b8152600401610bb8906150bf565b6000818152602360205260409020805460ff19166001908117909155610d9d565b610fb73382611f09565b610fd35760405162461bcd60e51b8152600401610bb890615141565b610cee8383836124c7565b610fe88282612672565b6000828152600260205260409020610cee9082611e0c565b600061100b8361160e565b821061106d5760405162461bcd60e51b815260206004820152602b60248201527f455243373231456e756d657261626c653a206f776e657220696e646578206f7560448201526a74206f6620626f756e647360a81b6064820152608401610bb8565b506001600160a01b03919091166000908152601a60209081526040808320938352929052205490565b61109e6126ac565b610dd0612998565b6110be6000805160206153a983398151915233611837565b806110dc57506110dc60008051602061536983398151915233611837565b806110fa57506110fa60008051602061534983398151915233611837565b6111165760405162461bcd60e51b8152600401610bb8906150bf565b601160009054906101000a90046001600160a01b03166001600160a01b031663329a8cfa6040518163ffffffff1660e01b8152600401600060405180830381600087803b15801561116657600080fd5b505af115801561117a573d6000803e3d6000fd5b50505050610dd06114f2565b60006111a06000805160206153a983398151915233611837565b806111be57506111be60008051602061536983398151915233611837565b806111dc57506111dc60008051602061534983398151915233611837565b6111f85760405162461bcd60e51b8152600401610bb8906150bf565b60408051602081019091526000815260019061121989898989898787612da5565b9998505050505050505050565b6112308282612e6d565b6000828152600260205260409020610cee9082612ee7565b61126060008051602061536983398151915233611837565b8061127e575061127e6000805160206153a983398151915233611837565b6112c25760405162461bcd60e51b8152602060048201526015602482015274596f75277265206e6f742074686520476176656c7360581b6044820152606401610bb8565b601f5460ff16156112d257600080fd5b610dd0612efc565b6112e43384611f09565b6112ed57600080fd5b610cee838383611ed1565b610cee83838360405180602001604052806000815250611a4c565b610dd06126ac565b61132d61132783611597565b33611d19565b61133657600080fd5b6113408282612f8f565b5050565b6020805461135190615237565b80601f016020809104026020016040519081016040528092919081815260200182805461137d90615237565b80156113ca5780601f1061139f576101008083540402835291602001916113ca565b820191906000526020600020905b8154815290600101906020018083116113ad57829003601f168201915b505050505081565b60006113dd601c5490565b82106114405760405162461bcd60e51b815260206004820152602c60248201527f455243373231456e756d657261626c653a20676c6f62616c20696e646578206f60448201526b7574206f6620626f756e647360a01b6064820152608401610bb8565b601c8281548110611453576114536152e3565b90600052602060002001549050919050565b61147d6000805160206153a983398151915233611837565b8061149b575061149b60008051602061536983398151915233611837565b806114b957506114b960008051602061534983398151915233611837565b6114d55760405162461bcd60e51b8152600401610bb8906150bf565b610da68161301a565b6114e86001611fcb565b50610d928161302d565b610dd0613288565b6022805461135190615237565b60006115216000805160206153a983398151915233611837565b8061153f575061153f60008051602061536983398151915233611837565b8061155d575061155d60008051602061534983398151915233611837565b6115795760405162461bcd60e51b8152600401610bb8906150bf565b60408051602081019091526000815261121989898989898987612da5565b6000818152601460205260408120546001600160a01b031680610ab85760405162461bcd60e51b815260206004820152602960248201527f4552433732313a206f776e657220717565727920666f72206e6f6e657869737460448201526832b73a103a37b5b2b760b91b6064820152608401610bb8565b60006001600160a01b0382166116795760405162461bcd60e51b815260206004820152602a60248201527f4552433732313a2062616c616e636520717565727920666f7220746865207a65604482015269726f206164647265737360b01b6064820152608401610bb8565b506001600160a01b031660009081526015602052604090205490565b60006116af60008051602061536983398151915233611837565b806116cd57506116cd60008051602061534983398151915233611837565b806116eb57506116eb6000805160206153a983398151915233611837565b6116f457600080fd5b601154600160b01b810460ff9081161515600160a81b909204161515146001148061173257506117326000805160206153a983398151915233611837565b6117715760405162461bcd60e51b815260206004820152601060248201526f436f757274204d75737420416772656560801b6044820152606401610bb8565b6001821515141561178d576117846133cb565b50600192915050565b5060005b919050565b6117ae60008051602061536983398151915233611837565b806117cc57506117cc6000805160206153a983398151915233611837565b6118105760405162461bcd60e51b8152602060048201526015602482015274596f75277265206e6f742074686520476176656c7360581b6044820152606401610bb8565b610dd061340e565b60008281526002602052604081206118309083613489565b9392505050565b60009182526001602090815260408084206001600160a01b0393909316845291905290205460ff1690565b606060138054610acd90615237565b600061188b60008051602061536983398151915233611837565b806118a957506118a960008051602061534983398151915233611837565b806118c757506118c76000805160206153a983398151915233611837565b6118d057600080fd5b601154600160b01b810460ff9081161515600160a81b909204161515146001148061190e575061190e6000805160206153a983398151915233611837565b61194d5760405162461bcd60e51b815260206004820152601060248201526f436f757274204d75737420416772656560801b6044820152606401610bb8565b816045141561178d5761195e6133cb565b5061196761340e565b50601f805460ff19166001908117909155919050565b6119956000805160206153a983398151915233611837565b806119b357506119b360008051602061534983398151915233611837565b611a1a5760405162461bcd60e51b815260206004820152603260248201527f596f7520646f206e6f742068617665207065726d697373696f6e20746f2073656044820152711d08185c1c1c9bdd985b08199bdc88185b1b60721b6064820152608401610bb8565b6113408282613495565b6000602582604051611a369190614f21565b9081526020016040518091039020549050919050565b611a563383611f09565b611a725760405162461bcd60e51b8152600401610bb890615141565b610d6e8484848461355a565b611a8a61132782611597565b611af15760405162461bcd60e51b815260206004820152603260248201527f506c65617365207669736974207468652044414f20746f2072656e6f756e636560448201527120796f757220636974697a656e736869702160701b6064820152608401610bb8565b610da68161358d565b6060610ab882613596565b6000611b1f6000805160206153a983398151915233611837565b80611b3d5750611b3d60008051602061536983398151915233611837565b80611b5b5750611b5b60008051602061534983398151915233611837565b611b775760405162461bcd60e51b8152600401610bb8906150bf565b61121989898989898988612da5565b6000818152600260205260408120610ab890613705565b611230828261370f565b6021805461135190615237565b6000818152602460205260408120805460609283929091829190611bd790615237565b80601f0160208091040260200160405190810160405280929190818152602001828054611c0390615237565b8015611c505780601f10611c2557610100808354040283529160200191611c50565b820191906000526020600020905b815481529060010190602001808311611c3357829003601f168201915b505050600088815260246020526040902060028101546003820154600190920180549599506001600160a01b03909116965090945092611c9292509050615237565b80601f0160208091040260200160405190810160405280929190818152602001828054611cbe90615237565b8015611d0b5780601f10611ce057610100808354040283529160200191611d0b565b820191906000526020600020905b815481529060010190602001808311611cee57829003601f168201915b505050505092509193509193565b600080611d346000805160206153a983398151915284611837565b80611d525750611d5260008051602061534983398151915284611837565b949350505050565b610dd0613749565b611d6c6001611fcb565b50611d846000805160206153a983398151915261302d565b50611d9c60008051602061536983398151915261302d565b50611db460008051602061534983398151915261302d565b50611dcc60008051602061538983398151915261302d565b50611de46000805160206153c983398151915261302d565b50611def600061302d565b50611df8613288565b610dc76000611fcb565b6113408282613880565b6000611830836001600160a01b0384166138eb565b60006001600160e01b0319821663780e9d6360e01b1480610ab85750610ab88261393a565b6000908152601460205260409020546001600160a01b0316151590565b600081815260166020526040902080546001600160a01b0319166001600160a01b0384169081179091558190611e9882611597565b6001600160a01b03167f8c5be1e5ebec7d5bd14f71427d1e84f3dd0314c0f7b2291e5b200ac8c7c3b92560405160405180910390a45050565b6000928352602460205260409092206002810180546001600160a01b0319166001600160a01b03939093169290921790915560030155565b6000611f1482611e46565b611f755760405162461bcd60e51b815260206004820152602c60248201527f4552433732313a206f70657261746f7220717565727920666f72206e6f6e657860448201526b34b9ba32b73a103a37b5b2b760a11b6064820152608401610bb8565b6000611f8083611597565b9050806001600160a01b0316846001600160a01b03161480611fbb5750836001600160a01b0316611fb084610b50565b6001600160a01b0316145b80611d525750611d528185611d19565b6000805460ff1682151581151514156120265760405162461bcd60e51b815260206004820152601960248201527f416c72656164792053657420746f20746861742076616c7565000000000000006044820152606401610bb8565b6000805484151560ff19909116811790915560ff16151581151514156117845760405162461bcd60e51b815260206004820152600c60248201526b29b0b33a32bc9022b93937b960a11b6044820152606401610bb8565b60405163ca15c87360e01b8152600481018290526000908190309063ca15c8739060240160206040518083038186803b1580156120b957600080fd5b505afa1580156120cd573d6000803e3d6000fd5b505050506040513d601f19601f820116820180604052508101906120f19190614e31565b905060005b818110156121ee57604051632404341f60e21b815260048101859052602481018290526000903090639010d07c9060440160206040518083038186803b15801561213f57600080fd5b505afa158015612153573d6000803e3d6000fd5b505050506040513d601f19601f8201168201806040525081019061217791906149b1565b60405163d547741f60e01b8152600481018790526001600160a01b0382166024820152909150309063d547741f90604401600060405180830381600087803b1580156121c257600080fd5b505af11580156121d6573d6000803e3d6000fd5b505050505080806121e690615272565b9150506120f6565b5060019392505050565b60115460405163ca15c87360e01b81526004810183905260009182916001600160a01b039091169063ca15c8739060240160206040518083038186803b15801561224157600080fd5b505afa158015612255573d6000803e3d6000fd5b505050506040513d601f19601f820116820180604052508101906122799190614e31565b905060005b818110156121ee57601154604051632404341f60e21b815260048101869052602481018390526000916001600160a01b031690639010d07c9060440160206040518083038186803b1580156122d257600080fd5b505afa1580156122e6573d6000803e3d6000fd5b505050506040513d601f19601f8201168201806040525081019061230a91906149b1565b604051632f2ff15d60e01b8152600481018790526001600160a01b03821660248201529091503090632f2ff15d90604401600060405180830381600087803b15801561235557600080fd5b505af1158015612369573d6000803e3d6000fd5b5050505050808061237990615272565b91505061227e565b600061239a6000805160206153a983398151915261207d565b506123b26000805160206153a98339815191526121f8565b6123bb57600080fd5b6123d260008051602061536983398151915261207d565b506123ea6000805160206153698339815191526121f8565b6123f357600080fd5b61240a60008051602061534983398151915261207d565b506124226000805160206153498339815191526121f8565b61242b57600080fd5b61244260008051602061538983398151915261207d565b5061245a6000805160206153898339815191526121f8565b61246357600080fd5b61247a6000805160206153c983398151915261207d565b506124926000805160206153c98339815191526121f8565b61249b57600080fd5b6124a5600061207d565b506124b060006121f8565b6124b957600080fd5b6124c1613288565b50600190565b826001600160a01b03166124da82611597565b6001600160a01b0316146125425760405162461bcd60e51b815260206004820152602960248201527f4552433732313a207472616e73666572206f6620746f6b656e2074686174206960448201526839903737ba1037bbb760b91b6064820152608401610bb8565b6001600160a01b0382166125a45760405162461bcd60e51b8152602060048201526024808201527f4552433732313a207472616e7366657220746f20746865207a65726f206164646044820152637265737360e01b6064820152608401610bb8565b6125af83838361397a565b6125ba600082611e63565b6001600160a01b03831660009081526015602052604081208054600192906125e39084906151dd565b90915550506001600160a01b0382166000908152601560205260408120805460019290612611908490615192565b909155505060008181526014602052604080822080546001600160a01b0319166001600160a01b0386811691821790925591518493918716917fddf252ad1be2c89b69c2b068fc378daa952ba7f163c4a11628f55a4df523b3ef91a4505050565b600082815260016020819052604082200154905460ff161561269857610cee8383613880565b6126a28133613a65565b610cee8383613880565b601160009054906101000a90046001600160a01b03166001600160a01b031663dadf56ac6040518163ffffffff1660e01b815260040160206040518083038186803b1580156126fa57600080fd5b505afa15801561270e573d6000803e3d6000fd5b505050506040513d601f19601f8201168201806040525081019061273291906149b1565b600c80546001600160a01b0319166001600160a01b039283161790556011546040805163024bebe960e01b81529051919092169163024bebe9916004808301926020929190829003018186803b15801561278b57600080fd5b505afa15801561279f573d6000803e3d6000fd5b505050506040513d601f19601f820116820180604052508101906127c391906149b1565b600d80546001600160a01b0319166001600160a01b0392831617905560115460408051635b5c251f60e01b815290519190921691635b5c251f916004808301926020929190829003018186803b15801561281c57600080fd5b505afa158015612830573d6000803e3d6000fd5b505050506040513d601f19601f8201168201806040525081019061285491906149b1565b600e80546001600160a01b0319166001600160a01b0392831617905560115460408051637310bf1d60e11b81529051919092169163e6217e3a916004808301926020929190829003018186803b1580156128ad57600080fd5b505afa1580156128c1573d6000803e3d6000fd5b505050506040513d601f19601f820116820180604052508101906128e591906149b1565b601080546001600160a01b0319166001600160a01b039283161790556011546040805163d88127a160e01b81529051919092169163d88127a1916004808301926020929190829003018186803b15801561293e57600080fd5b505afa158015612952573d6000803e3d6000fd5b505050506040513d601f19601f8201168201806040525081019061297691906149b1565b600b80546001600160a01b0319166001600160a01b0392909216919091179055565b601160009054906101000a90046001600160a01b03166001600160a01b03166321d7f0086040518163ffffffff1660e01b815260040160206040518083038186803b1580156129e657600080fd5b505afa1580156129fa573d6000803e3d6000fd5b505050506040513d601f19601f82011682018060405250810190612a1e91906149b1565b600480546001600160a01b0319166001600160a01b039283161781556011546040805163762ddb5960e01b81529051919093169263762ddb599281810192602092909190829003018186803b158015612a7657600080fd5b505afa158015612a8a573d6000803e3d6000fd5b505050506040513d601f19601f82011682018060405250810190612aae91906149b1565b600580546001600160a01b0319166001600160a01b039283161790556011546040805163bfb7dc9960e01b81529051919092169163bfb7dc99916004808301926020929190829003018186803b158015612b0757600080fd5b505afa158015612b1b573d6000803e3d6000fd5b505050506040513d601f19601f82011682018060405250810190612b3f91906149b1565b600680546001600160a01b0319166001600160a01b0392831617905560115460408051633e6111eb60e21b81529051919092169163f98447ac916004808301926020929190829003018186803b158015612b9857600080fd5b505afa158015612bac573d6000803e3d6000fd5b505050506040513d601f19601f82011682018060405250810190612bd091906149b1565b600780546001600160a01b0319166001600160a01b0392831617905560115460408051630fe1ba9f60e21b815290519190921691633f86ea7c916004808301926020929190829003018186803b158015612c2957600080fd5b505afa158015612c3d573d6000803e3d6000fd5b505050506040513d601f19601f82011682018060405250810190612c6191906149b1565b600880546001600160a01b0319166001600160a01b0392831617905560115460408051632b90024160e11b8152905191909216916357200482916004808301926020929190829003018186803b158015612cba57600080fd5b505afa158015612cce573d6000803e3d6000fd5b505050506040513d601f19601f82011682018060405250810190612cf291906149b1565b600980546001600160a01b0319166001600160a01b0392831617905560115460408051636b58477560e01b815290519190921691636b584775916004808301926020929190829003018186803b158015612d4b57600080fd5b505afa158015612d5f573d6000803e3d6000fd5b505050506040513d601f19601f82011682018060405250810190612d8391906149b1565b600a80546001600160a01b0319166001600160a01b0392909216919091179055565b60006001600160a01b0388163314801590612dc857506001600160a01b03881615155b612dd157600080fd5b6000612ddc8961160e565b1115612e235760405162461bcd60e51b815260206004820152601660248201527513db9b1e481bdb99481251081c195c881dd85b1b195d60521b6044820152606401610bb8565b50601e54612e35878787878786613ac9565b612e3f8882613ba8565b612e498183612f8f565b6001601e6000828254612e5c9190615192565b909155509098975050505050505050565b6001600160a01b0381163314612edd5760405162461bcd60e51b815260206004820152602f60248201527f416363657373436f6e74726f6c3a2063616e206f6e6c792072656e6f756e636560448201526e103937b632b9903337b91039b2b63360891b6064820152608401610bb8565b6113408282613bc2565b6000611830836001600160a01b038416613c29565b60185460ff16612f455760405162461bcd60e51b815260206004820152601460248201527314185d5cd8589b194e881b9bdd081c185d5cd95960621b6044820152606401610bb8565b6018805460ff191690557f5db9ee0a495bf2e6ff9c91a7834c1ba4fdd244a5e8aa4e537bd38aeae4b073aa335b6040516001600160a01b03909116815260200160405180910390a1565b612f9882611e46565b612ffb5760405162461bcd60e51b815260206004820152602e60248201527f45524337323155524953746f726167653a2055524920736574206f66206e6f6e60448201526d32bc34b9ba32b73a103a37b5b2b760911b6064820152608401610bb8565b60008281526019602090815260409091208251610cee92840190614824565b8051611340906027906020840190614824565b60115460405163ca15c87360e01b81526004810183905260009182916001600160a01b039091169063ca15c8739060240160206040518083038186803b15801561307657600080fd5b505afa15801561308a573d6000803e3d6000fd5b505050506040513d601f19601f820116820180604052508101906130ae9190614e31565b60405163ca15c87360e01b815260048101859052909150600090309063ca15c8739060240160206040518083038186803b1580156130eb57600080fd5b505afa1580156130ff573d6000803e3d6000fd5b505050506040513d601f19601f820116820180604052508101906131239190614e31565b9050600061313182846151dd565b9050600081116131765760405162461bcd60e51b815260206004820152601060248201526f4e6f7468696e6720746f2073796e632160801b6044820152606401610bb8565b60005b8181101561327c57601154604051632404341f60e21b815260048101889052602481018390526000916001600160a01b031690639010d07c9060440160206040518083038186803b1580156131cd57600080fd5b505afa1580156131e1573d6000803e3d6000fd5b505050506040513d601f19601f8201168201806040525081019061320591906149b1565b604051632f2ff15d60e01b8152600481018990526001600160a01b03821660248201529091503090632f2ff15d90604401600060405180830381600087803b15801561325057600080fd5b505af1158015613264573d6000803e3d6000fd5b5050505050808061327490615272565b915050613179565b50600195945050505050565b601160009054906101000a90046001600160a01b03166001600160a01b031663ff7e88ec6040518163ffffffff1660e01b815260040160206040518083038186803b1580156132d657600080fd5b505afa1580156132ea573d6000803e3d6000fd5b505050506040513d601f19601f8201168201806040525081019061330e9190614d45565b601160156101000a81548160ff021916908315150217905550601160009054906101000a90046001600160a01b03166001600160a01b0316632fb565856040518163ffffffff1660e01b815260040160206040518083038186803b15801561337557600080fd5b505afa158015613389573d6000803e3d6000fd5b505050506040513d601f19601f820116820180604052508101906133ad9190614d45565b60118054911515600160b01b0260ff60b01b19909216919091179055565b6000805b601e54811015613402576133e281611e46565b156133f0576133f08161358d565b806133fa81615272565b9150506133cf565b50506000601e55600190565b60185460ff16156134545760405162461bcd60e51b815260206004820152601060248201526f14185d5cd8589b194e881c185d5cd95960821b6044820152606401610bb8565b6018805460ff191660011790557f62e78cea01bee320cd4e420270b5ea74000d11b0c9f74754ebdbfc544b05a258612f723390565b60006118308383613d16565b6001600160a01b0382163314156134ee5760405162461bcd60e51b815260206004820152601960248201527f4552433732313a20617070726f766520746f2063616c6c6572000000000000006044820152606401610bb8565b3360008181526017602090815260408083206001600160a01b03871680855290835292819020805460ff191686151590811790915590519081529192917f17307eab39ab6107e8899845ad3d59bd9653f200f220920489ca2b5937696c31910160405180910390a35050565b6135658484846124c7565b61357184848484613d9c565b610d6e5760405162461bcd60e51b8152600401610bb8906150ef565b610da681613ea9565b60606135a182611e46565b6136075760405162461bcd60e51b815260206004820152603160248201527f45524337323155524953746f726167653a2055524920717565727920666f72206044820152703737b732bc34b9ba32b73a103a37b5b2b760791b6064820152608401610bb8565b6000828152601960205260408120805461362090615237565b80601f016020809104026020016040519081016040528092919081815260200182805461364c90615237565b80156136995780601f1061366e57610100808354040283529160200191613699565b820191906000526020600020905b81548152906001019060200180831161367c57829003601f168201915b5050505050905060006136b760408051602081019091526000815290565b90508051600014156136ca575092915050565b8151156136fc5780826040516020016136e4929190614f3d565b60405160208183030381529060405292505050919050565b611d5284613ee9565b6000610ab8825490565b600082815260016020819052604082200154905460ff161561373557610cee8383613bc2565b61373f8133613a65565b610cee8383613bc2565b601160009054906101000a90046001600160a01b03166001600160a01b031663a44b93256040518163ffffffff1660e01b815260040160206040518083038186803b15801561379757600080fd5b505afa1580156137ab573d6000803e3d6000fd5b505050506040513d601f19601f820116820180604052508101906137cf9190614d45565b6137d857600080fd5b601160009054906101000a90046001600160a01b03166001600160a01b031663ac7cfac36040518163ffffffff1660e01b815260040160206040518083038186803b15801561382657600080fd5b505afa15801561383a573d6000803e3d6000fd5b505050506040513d601f19601f8201168201806040525081019061385e91906149b1565b600380546001600160a01b0319166001600160a01b0392909216919091179055565b61388a8282611837565b6113405760008281526001602081815260408084206001600160a01b0386168086529252808420805460ff19169093179092559051339285917f2f8788117e7eff1d82e926ec794901d17c78024a50270940304540a733656f0d9190a45050565b600081815260018301602052604081205461393257508154600181810184556000848152602080822090930184905584548482528286019093526040902091909155610ab8565b506000610ab8565b60006001600160e01b031982166380ac58cd60e01b148061396b57506001600160e01b03198216635b5e139f60e01b145b80610ab85750610ab882613fc0565b6139848333611d19565b8061399d575060008181526023602052604090205460ff165b6139fe5760405162461bcd60e51b815260206004820152602c60248201527f506c65617365207669736974207468652044414f20746f206368616e6765207960448201526b6f757220616464726573732160a01b6064820152608401610bb8565b60008181526023602052604090205460ff168015613a215750613a213382611f09565b15613a5a5760008181526023602052604090205460ff16613a4157600080fd5b6000818152602360205260408120805460ff1916905580fd5b610cee838383613fe5565b613a6f8282611837565b61134057613a87816001600160a01b0316601461409d565b613a9283602061409d565b604051602001613aa3929190614f6c565b60408051601f198184030181529082905262461bcd60e51b8252610bb89160040161501e565b613ad38587614239565b613adc57600080fd5b60008181526024602090815260409091208651613b0192600190920191880190614824565b5060008181526024602090815260409091206002810180546001600160a01b0319166001600160a01b038816179055600381018590558751613b4592890190614824565b5060008181526024602052604090819020600401839055518190602590613b6d908890614f21565b90815260200160405180910390208190555080602687604051613b909190614f21565b90815260405190819003602001902055505050505050565b611340828260405180602001604052806000815250614348565b613bcc8282611837565b156113405760008281526001602090815260408083206001600160a01b0385168085529252808320805460ff1916905551339285917ff6391f5c32d9c69d2a47ea670b442974b53935d1edc7fd64eb21e047a839171b9190a45050565b60008181526001830160205260408120548015613d0c576000613c4d6001836151dd565b8554909150600090613c61906001906151dd565b90506000866000018281548110613c7a57613c7a6152e3565b9060005260206000200154905080876000018481548110613c9d57613c9d6152e3565b600091825260208083209091019290925582815260018901909152604090208490558654879080613cd057613cd06152cd565b60019003818190600052602060002001600090559055866001016000878152602001908152602001600020600090556001945050505050610ab8565b6000915050610ab8565b81546000908210613d745760405162461bcd60e51b815260206004820152602260248201527f456e756d657261626c655365743a20696e646578206f7574206f6620626f756e604482015261647360f01b6064820152608401610bb8565b826000018281548110613d8957613d896152e3565b9060005260206000200154905092915050565b60006001600160a01b0384163b15613e9e57604051630a85bd0160e11b81526001600160a01b0385169063150b7a0290613de0903390899088908890600401614fe1565b602060405180830381600087803b158015613dfa57600080fd5b505af1925050508015613e2a575060408051601f3d908101601f19168201909252613e2791810190614ddf565b60015b613e84573d808015613e58576040519150601f19603f3d011682016040523d82523d6000602084013e613e5d565b606091505b508051613e7c5760405162461bcd60e51b8152600401610bb8906150ef565b805181602001fd5b6001600160e01b031916630a85bd0160e11b149050611d52565b506001949350505050565b613eb28161437b565b60008181526019602052604090208054613ecb90615237565b159050610da6576000818152601960205260408120610da6916148a8565b6060613ef482611e46565b613f585760405162461bcd60e51b815260206004820152602f60248201527f4552433732314d657461646174613a2055524920717565727920666f72206e6f60448201526e3732bc34b9ba32b73a103a37b5b2b760891b6064820152608401610bb8565b6000613f6f60408051602081019091526000815290565b90506000815111613f8f5760405180602001604052806000815250611830565b80613f9984614422565b604051602001613faa929190614f3d565b6040516020818303038152906040529392505050565b60006001600160e01b03198216635a05180f60e01b1480610ab85750610ab882614520565b6001600160a01b0383166140405761403b81601c80546000838152601d60205260408120829055600182018355919091527f0e4562a10381dec21b205ed72637e6b1b523bdd0e4d4d50af5cd23dd4500a2110155565b614063565b816001600160a01b0316836001600160a01b031614614063576140638382614555565b6001600160a01b03821661407a57610cee816145f2565b826001600160a01b0316826001600160a01b031614610cee57610cee82826146a1565b606060006140ac8360026151be565b6140b7906002615192565b67ffffffffffffffff8111156140cf576140cf6152f9565b6040519080825280601f01601f1916602001820160405280156140f9576020820181803683370190505b509050600360fc1b81600081518110614114576141146152e3565b60200101906001600160f81b031916908160001a905350600f60fb1b81600181518110614143576141436152e3565b60200101906001600160f81b031916908160001a90535060006141678460026151be565b614172906001615192565b90505b60018111156141ea576f181899199a1a9b1b9c1cb0b131b232b360811b85600f16601081106141a6576141a66152e3565b1a60f81b8282815181106141bc576141bc6152e3565b60200101906001600160f81b031916908160001a90535060049490941c936141e381615220565b9050614175565b5083156118305760405162461bcd60e51b815260206004820181905260248201527f537472696e67733a20686578206c656e67746820696e73756666696369656e746044820152606401610bb8565b6000600160258460405161424d9190614f21565b90815260200160405180910390205411156142c45760405162461bcd60e51b815260206004820152603160248201527f416c726561647920616e204944206173736f63696174656420776974682074686044820152701a5cc81cdbd8da585b081858d8dbdd5b9d607a1b6064820152608401610bb8565b60016026836040516142d69190614f21565b90815260200160405180910390205411156117845760405162461bcd60e51b815260206004820152602c60248201527f416c726561647920616e204944206173736f636961746564207769746820746860448201526b69732070736575646f6e796d60a01b6064820152608401610bb8565b61435283836146e5565b61435f6000848484613d9c565b610cee5760405162461bcd60e51b8152600401610bb8906150ef565b600061438682611597565b90506143948160008461397a565b61439f600083611e63565b6001600160a01b03811660009081526015602052604081208054600192906143c89084906151dd565b909155505060008281526014602052604080822080546001600160a01b0319169055518391906001600160a01b038416907fddf252ad1be2c89b69c2b068fc378daa952ba7f163c4a11628f55a4df523b3ef908390a45050565b6060816144465750506040805180820190915260018152600360fc1b602082015290565b8160005b8115614470578061445a81615272565b91506144699050600a836151aa565b915061444a565b60008167ffffffffffffffff81111561448b5761448b6152f9565b6040519080825280601f01601f1916602001820160405280156144b5576020820181803683370190505b5090505b8415611d52576144ca6001836151dd565b91506144d7600a8661528d565b6144e2906030615192565b60f81b8183815181106144f7576144f76152e3565b60200101906001600160f81b031916908160001a905350614519600a866151aa565b94506144b9565b60006001600160e01b03198216637965db0b60e01b1480610ab857506301ffc9a760e01b6001600160e01b0319831614610ab8565b600060016145628461160e565b61456c91906151dd565b6000838152601b60205260409020549091508082146145bf576001600160a01b0384166000908152601a602090815260408083208584528252808320548484528184208190558352601b90915290208190555b506000918252601b602090815260408084208490556001600160a01b039094168352601a81528383209183525290812055565b601c54600090614604906001906151dd565b6000838152601d6020526040812054601c805493945090928490811061462c5761462c6152e3565b9060005260206000200154905080601c838154811061464d5761464d6152e3565b6000918252602080832090910192909255828152601d9091526040808220849055858252812055601c805480614685576146856152cd565b6001900381819060005260206000200160009055905550505050565b60006146ac8361160e565b6001600160a01b039093166000908152601a602090815260408083208684528252808320859055938252601b9052919091209190915550565b6001600160a01b03821661473b5760405162461bcd60e51b815260206004820181905260248201527f4552433732313a206d696e7420746f20746865207a65726f20616464726573736044820152606401610bb8565b61474481611e46565b156147915760405162461bcd60e51b815260206004820152601c60248201527f4552433732313a20746f6b656e20616c7265616479206d696e746564000000006044820152606401610bb8565b61479d6000838361397a565b6001600160a01b03821660009081526015602052604081208054600192906147c6908490615192565b909155505060008181526014602052604080822080546001600160a01b0319166001600160a01b03861690811790915590518392907fddf252ad1be2c89b69c2b068fc378daa952ba7f163c4a11628f55a4df523b3ef908290a45050565b82805461483090615237565b90600052602060002090601f0160209004810192826148525760008555614898565b82601f1061486b57805160ff1916838001178555614898565b82800160010185558215614898579182015b8281111561489857825182559160200191906001019061487d565b506148a49291506148de565b5090565b5080546148b490615237565b6000825580601f106148c4575050565b601f016020900490600052602060002090810190610da691905b5b808211156148a457600081556001016148df565b600067ffffffffffffffff8084111561490e5761490e6152f9565b604051601f8501601f19908116603f01168101908282118183101715614936576149366152f9565b8160405280935085815286868601111561494f57600080fd5b858560208301376000602087830101525050509392505050565b80356117918161530f565b600082601f83011261498557600080fd5b611830838335602085016148f3565b6000602082840312156149a657600080fd5b81356118308161530f565b6000602082840312156149c357600080fd5b81516118308161530f565b600080604083850312156149e157600080fd5b82356149ec8161530f565b915060208301356149fc8161530f565b809150509250929050565b600080600060608486031215614a1c57600080fd5b8335614a278161530f565b92506020840135614a378161530f565b929592945050506040919091013590565b60008060008060808587031215614a5e57600080fd5b8435614a698161530f565b93506020850135614a798161530f565b925060408501359150606085013567ffffffffffffffff811115614a9c57600080fd5b8501601f81018713614aad57600080fd5b614abc878235602084016148f3565b91505092959194509250565b60008060408385031215614adb57600080fd5b8235614ae68161530f565b915060208301356149fc81615324565b60008060008060008060c08789031215614b0f57600080fd5b8635614b1a8161530f565b9550602087013567ffffffffffffffff80821115614b3757600080fd5b614b438a838b01614974565b96506040890135915080821115614b5957600080fd5b50614b6689828a01614974565b9450506060870135614b778161530f565b9598949750929560808101359460a0909101359350915050565b600080600080600080600060e0888a031215614bac57600080fd5b8735614bb78161530f565b9650602088013567ffffffffffffffff80821115614bd457600080fd5b614be08b838c01614974565b975060408a0135915080821115614bf657600080fd5b50614c038a828b01614974565b9550506060880135614c148161530f565b9699959850939660808101359560a0820135955060c0909101359350915050565b600080600080600080600080610100898b031215614c5257600080fd5b614c5b89614969565b9750602089013567ffffffffffffffff80821115614c7857600080fd5b614c848c838d01614974565b985060408b0135915080821115614c9a57600080fd5b614ca68c838d01614974565b9750614cb460608c01614969565b965060808b0135955060a08b0135945060c08b0135935060e08b0135915080821115614cdf57600080fd5b50614cec8b828c01614974565b9150509295985092959890939650565b60008060408385031215614d0f57600080fd5b8235614d1a8161530f565b946020939093013593505050565b600060208284031215614d3a57600080fd5b813561183081615324565b600060208284031215614d5757600080fd5b815161183081615324565b600060208284031215614d7457600080fd5b5035919050565b60008060408385031215614d8e57600080fd5b8235915060208301356149fc8161530f565b60008060408385031215614db357600080fd5b50508035926020909101359150565b600060208284031215614dd457600080fd5b813561183081615332565b600060208284031215614df157600080fd5b815161183081615332565b600060208284031215614e0e57600080fd5b813567ffffffffffffffff811115614e2557600080fd5b611d5284828501614974565b600060208284031215614e4357600080fd5b5051919050565b600080600060608486031215614e5f57600080fd5b833592506020840135614a378161530f565b60008060008060808587031215614e8757600080fd5b843593506020850135614e998161530f565b93969395505050506040820135916060013590565b60008060408385031215614ec157600080fd5b82359150602083013567ffffffffffffffff811115614edf57600080fd5b614eeb85828601614974565b9150509250929050565b60008151808452614f0d8160208601602086016151f4565b601f01601f19169290920160200192915050565b60008251614f338184602087016151f4565b9190910192915050565b60008351614f4f8184602088016151f4565b835190830190614f638183602088016151f4565b01949350505050565b7f416363657373436f6e74726f6c3a206163636f756e7420000000000000000000815260008351614fa48160178501602088016151f4565b7001034b99036b4b9b9b4b733903937b6329607d1b6017918401918201528351614fd58160288401602088016151f4565b01602801949350505050565b6001600160a01b038581168252841660208201526040810183905260806060820181905260009061501490830184614ef5565b9695505050505050565b6020815260006118306020830184614ef5565b6080815260006150446080830187614ef5565b82810360208401526150568187614ef5565b6001600160a01b0395909516604084015250506060015292915050565b60a08152600061508660a0830188614ef5565b82810360208401526150988188614ef5565b6001600160a01b039690961660408401525050606081019290925260809091015292915050565b6020808252601690820152752cb7ba93b932903737ba103a3432903130b4b634b33360511b604082015260600190565b60208082526032908201527f4552433732313a207472616e7366657220746f206e6f6e20455243373231526560408201527131b2b4bb32b91034b6b83632b6b2b73a32b960711b606082015260800190565b60208082526031908201527f4552433732313a207472616e736665722063616c6c6572206973206e6f74206f6040820152701ddb995c881b9bdc88185c1c1c9bdd9959607a1b606082015260800190565b600082198211156151a5576151a56152a1565b500190565b6000826151b9576151b96152b7565b500490565b60008160001904831182151516156151d8576151d86152a1565b500290565b6000828210156151ef576151ef6152a1565b500390565b60005b8381101561520f5781810151838201526020016151f7565b83811115610d6e5750506000910152565b60008161522f5761522f6152a1565b506000190190565b600181811c9082168061524b57607f821691505b6020821081141561526c57634e487b7160e01b600052602260045260246000fd5b50919050565b6000600019821415615286576152866152a1565b5060010190565b60008261529c5761529c6152b7565b500690565b634e487b7160e01b600052601160045260246000fd5b634e487b7160e01b600052601260045260246000fd5b634e487b7160e01b600052603160045260246000fd5b634e487b7160e01b600052603260045260246000fd5b634e487b7160e01b600052604160045260246000fd5b6001600160a01b0381168114610da657600080fd5b8015158114610da657600080fd5b6001600160e01b031981168114610da657600080fdfefa8e4989e1d689f7bc5c4b25b87efb51fecdecb19ba62847e29c759e12a89acd048bc71fa1cb2c119c339cf9cf00a97996a19a9d991ce5fe049f2fa5459e7990f0f4b159a6e2a4815eb3ca3df080bfa70c9270662c59bcaa4479a456220183e60538d24a8b7882d7b2e36af243d4af61c23e86e3daa6cb8c887b53220b2f57207c9d7f6f02908185bffb3f7fc9afb29fd7bf93675af8fd4b655ee05c2cee1e0ea2646970667358221220cc9d9a927383b58815761824ef2f2bca20c05e2fb4958f5e8017e4765e1f5d5664736f6c63430008060033",
  "immutableReferences": {},
  "source": "pragma solidity ^0.8.0;\n\nimport \"../src/ERC721/IdentityBadge.sol\";\n\n\ncontract ColoredID is IdentityBadge {\n\n    string internal baseURI;\n\n    constructor(address _AddressManagerAddress)\n        IdentityBadge(\"Colored ID\", \"ID\", \"twitter\", _AddressManagerAddress)\n    {\n        setBaseURI(\"https://coloredbadges.fun/#/\");\n    }\n\n    function setBaseURI(string memory _baseURI) public BAILIFF {\n\n        _setBaseURI(_baseURI);\n\n    }\n\n\n    function _setBaseURI(string memory _baseURI) internal {\n        baseURI = _baseURI;\n    }\n\n}\n",
  "sourcePath": "/home/n/Desktop/PinkSlips_FrontEnd_REFORMAT/contracts/badges/ColoredID.sol",
  "compiler": {
    "name": "solc",
    "version": "0.8.6+commit.11564f7e.Emscripten.clang"
  },
  "schemaVersion": "3.4.1",
  "updatedAt": "2021-08-09T09:06:52.934Z",
  "networkType": "ethereum",
  "devdoc": {
    "kind": "dev",
    "methods": {
      "approve(address,uint256)": {
        "details": "See {IERC721-approve}."
      },
      "approveUserTransfer(uint256)": {
        "details": "//// Transfer rules                                                                           ////"
      },
      "balanceOf(address)": {
        "details": "See {IERC721-balanceOf}."
      },
      "getApproved(uint256)": {
        "details": "See {IERC721-getApproved}."
      },
      "getRoleAdmin(bytes32)": {
        "details": "Returns the admin role that controls `role`. See {grantRole} and {revokeRole}. To change a role's admin, use {_setRoleAdmin}."
      },
      "getRoleMember(bytes32,uint256)": {
        "details": "Returns one of the accounts that have `role`. `index` must be a value between 0 and {getRoleMemberCount}, non-inclusive. Role bearers are not sorted in any particular way, and their ordering may change at any point. WARNING: When using {getRoleMember} and {getRoleMemberCount}, make sure you perform all queries on the same block. See the following https://forum.openzeppelin.com/t/iterating-over-elements-on-enumerableset-in-openzeppelin-contracts/2296[forum post] for more information."
      },
      "getRoleMemberCount(bytes32)": {
        "details": "Returns the number of accounts that have `role`. Can be used together with {getRoleMember} to enumerate all bearers of a role."
      },
      "grantRole(bytes32,address)": {
        "details": "Overload {grantRole} to track enumerable memberships"
      },
      "hasRole(bytes32,address)": {
        "details": "Returns `true` if `account` has been granted `role`."
      },
      "isApprovedForAll(address,address)": {
        "details": "See {IERC721-isApprovedForAll}."
      },
      "issueBadge(address,string,string,address,uint256,uint256)": {
        "details": "//// Issuance Desk                                                                            ////"
      },
      "name()": {
        "details": "See {IERC721Metadata-name}."
      },
      "ownerOf(uint256)": {
        "details": "See {IERC721-ownerOf}."
      },
      "pause()": {
        "details": "//// Maintanence\\\\\\\\\\\\\\\\\\\\\\\\\\\\\\\\\\\\\\\\\\\\\\\\\\\\\\                                                   ////"
      },
      "paused()": {
        "details": "Returns true if the contract is paused, and false otherwise."
      },
      "renounceRole(bytes32,address)": {
        "details": "Overload {renounceRole} to track enumerable memberships"
      },
      "revokeRole(bytes32,address)": {
        "details": "Overload {revokeRole} to track enumerable memberships"
      },
      "safeTransferFrom(address,address,uint256)": {
        "details": "See {IERC721-safeTransferFrom}."
      },
      "safeTransferFrom(address,address,uint256,bytes)": {
        "details": "See {IERC721-safeTransferFrom}."
      },
      "setApprovalForAll(address,bool)": {
        "details": "See {IERC721-setApprovalForAll}."
      },
      "symbol()": {
        "details": "See {IERC721Metadata-symbol}."
      },
      "tokenByIndex(uint256)": {
        "details": "See {IERC721Enumerable-tokenByIndex}."
      },
      "tokenOfOwnerByIndex(address,uint256)": {
        "details": "See {IERC721Enumerable-tokenOfOwnerByIndex}."
      },
      "totalSupply()": {
        "details": "See {IERC721Enumerable-totalSupply}."
      },
      "transferFrom(address,address,uint256)": {
        "details": "See {IERC721-transferFrom}."
      }
    },
    "version": 1
  },
  "userdoc": {
    "kind": "user",
    "methods": {},
    "version": 1
  }
}