{
  "contractName": "ColoredID",
  "abi": [
    {
      "inputs": [
        {
          "internalType": "address",
          "name": "_AddressManagerAddress",
          "type": "address"
        },
        {
          "internalType": "address",
          "name": "_subsidyToken",
          "type": "address"
        }
      ],
      "stateMutability": "nonpayable",
      "type": "constructor"
    },
    {
      "anonymous": false,
      "inputs": [
        {
          "indexed": true,
          "internalType": "address",
          "name": "owner",
          "type": "address"
        },
        {
          "indexed": true,
          "internalType": "address",
          "name": "approved",
          "type": "address"
        },
        {
          "indexed": true,
          "internalType": "uint256",
          "name": "tokenId",
          "type": "uint256"
        }
      ],
      "name": "Approval",
      "type": "event"
    },
    {
      "anonymous": false,
      "inputs": [
        {
          "indexed": true,
          "internalType": "address",
          "name": "owner",
          "type": "address"
        },
        {
          "indexed": true,
          "internalType": "address",
          "name": "operator",
          "type": "address"
        },
        {
          "indexed": false,
          "internalType": "bool",
          "name": "approved",
          "type": "bool"
        }
      ],
      "name": "ApprovalForAll",
      "type": "event"
    },
    {
      "anonymous": false,
      "inputs": [
        {
          "indexed": false,
          "internalType": "address",
          "name": "account",
          "type": "address"
        }
      ],
      "name": "Paused",
      "type": "event"
    },
    {
      "anonymous": false,
      "inputs": [
        {
          "indexed": true,
          "internalType": "bytes32",
          "name": "role",
          "type": "bytes32"
        },
        {
          "indexed": true,
          "internalType": "bytes32",
          "name": "previousAdminRole",
          "type": "bytes32"
        },
        {
          "indexed": true,
          "internalType": "bytes32",
          "name": "newAdminRole",
          "type": "bytes32"
        }
      ],
      "name": "RoleAdminChanged",
      "type": "event"
    },
    {
      "anonymous": false,
      "inputs": [
        {
          "indexed": true,
          "internalType": "bytes32",
          "name": "role",
          "type": "bytes32"
        },
        {
          "indexed": true,
          "internalType": "address",
          "name": "account",
          "type": "address"
        },
        {
          "indexed": true,
          "internalType": "address",
          "name": "sender",
          "type": "address"
        }
      ],
      "name": "RoleGranted",
      "type": "event"
    },
    {
      "anonymous": false,
      "inputs": [
        {
          "indexed": true,
          "internalType": "bytes32",
          "name": "role",
          "type": "bytes32"
        },
        {
          "indexed": true,
          "internalType": "address",
          "name": "account",
          "type": "address"
        },
        {
          "indexed": true,
          "internalType": "address",
          "name": "sender",
          "type": "address"
        }
      ],
      "name": "RoleRevoked",
      "type": "event"
    },
    {
      "anonymous": false,
      "inputs": [
        {
          "indexed": true,
          "internalType": "address",
          "name": "from",
          "type": "address"
        },
        {
          "indexed": true,
          "internalType": "address",
          "name": "to",
          "type": "address"
        },
        {
          "indexed": true,
          "internalType": "uint256",
          "name": "tokenId",
          "type": "uint256"
        }
      ],
      "name": "Transfer",
      "type": "event"
    },
    {
      "anonymous": false,
      "inputs": [
        {
          "indexed": false,
          "internalType": "address",
          "name": "account",
          "type": "address"
        }
      ],
      "name": "Unpaused",
      "type": "event"
    },
    {
      "inputs": [],
      "name": "AddressManagerAddress",
      "outputs": [
        {
          "internalType": "address",
          "name": "",
          "type": "address"
        }
      ],
      "stateMutability": "view",
      "type": "function",
      "constant": true
    },
    {
      "inputs": [],
      "name": "ChadBadgeAddress",
      "outputs": [
        {
          "internalType": "address",
          "name": "",
          "type": "address"
        }
      ],
      "stateMutability": "view",
      "type": "function",
      "constant": true
    },
    {
      "inputs": [],
      "name": "ColoredIDAddress",
      "outputs": [
        {
          "internalType": "address",
          "name": "",
          "type": "address"
        }
      ],
      "stateMutability": "view",
      "type": "function",
      "constant": true
    },
    {
      "inputs": [],
      "name": "CourtClerk",
      "outputs": [
        {
          "internalType": "address",
          "name": "",
          "type": "address"
        }
      ],
      "stateMutability": "view",
      "type": "function",
      "constant": true
    },
    {
      "inputs": [],
      "name": "DEFAULT_ADMIN_ROLE",
      "outputs": [
        {
          "internalType": "bytes32",
          "name": "",
          "type": "bytes32"
        }
      ],
      "stateMutability": "view",
      "type": "function",
      "constant": true
    },
    {
      "inputs": [],
      "name": "GAVELS_BAILIFF",
      "outputs": [
        {
          "internalType": "bytes32",
          "name": "",
          "type": "bytes32"
        }
      ],
      "stateMutability": "view",
      "type": "function",
      "constant": true
    },
    {
      "inputs": [],
      "name": "GavelDAOAgent",
      "outputs": [
        {
          "internalType": "address",
          "name": "",
          "type": "address"
        }
      ],
      "stateMutability": "view",
      "type": "function",
      "constant": true
    },
    {
      "inputs": [],
      "name": "GavelTokenAddress",
      "outputs": [
        {
          "internalType": "address",
          "name": "",
          "type": "address"
        }
      ],
      "stateMutability": "view",
      "type": "function",
      "constant": true
    },
    {
      "inputs": [],
      "name": "GavelVote",
      "outputs": [
        {
          "internalType": "bool",
          "name": "",
          "type": "bool"
        }
      ],
      "stateMutability": "view",
      "type": "function",
      "constant": true
    },
    {
      "inputs": [],
      "name": "GoldStarAddress",
      "outputs": [
        {
          "internalType": "address",
          "name": "",
          "type": "address"
        }
      ],
      "stateMutability": "view",
      "type": "function",
      "constant": true
    },
    {
      "inputs": [
        {
          "internalType": "uint256",
          "name": "",
          "type": "uint256"
        }
      ],
      "name": "IDCardInfo",
      "outputs": [
        {
          "internalType": "string",
          "name": "pseudonym",
          "type": "string"
        },
        {
          "internalType": "string",
          "name": "socialHandle",
          "type": "string"
        },
        {
          "internalType": "address",
          "name": "avatarTokenAddress",
          "type": "address"
        },
        {
          "internalType": "uint256",
          "name": "avatarTokenId",
          "type": "uint256"
        },
        {
          "internalType": "uint256",
          "name": "avatarNetworkId",
          "type": "uint256"
        }
      ],
      "stateMutability": "view",
      "type": "function",
      "constant": true
    },
    {
      "inputs": [],
      "name": "JERK_ROLE",
      "outputs": [
        {
          "internalType": "bytes32",
          "name": "",
          "type": "bytes32"
        }
      ],
      "stateMutability": "view",
      "type": "function",
      "constant": true
    },
    {
      "inputs": [],
      "name": "JURY_BAILIFF",
      "outputs": [
        {
          "internalType": "bytes32",
          "name": "",
          "type": "bytes32"
        }
      ],
      "stateMutability": "view",
      "type": "function",
      "constant": true
    },
    {
      "inputs": [],
      "name": "JuryDAOAgent",
      "outputs": [
        {
          "internalType": "address",
          "name": "",
          "type": "address"
        }
      ],
      "stateMutability": "view",
      "type": "function",
      "constant": true
    },
    {
      "inputs": [],
      "name": "JuryPoolAddress",
      "outputs": [
        {
          "internalType": "address",
          "name": "",
          "type": "address"
        }
      ],
      "stateMutability": "view",
      "type": "function",
      "constant": true
    },
    {
      "inputs": [],
      "name": "JuryVote",
      "outputs": [
        {
          "internalType": "bool",
          "name": "",
          "type": "bool"
        }
      ],
      "stateMutability": "view",
      "type": "function",
      "constant": true
    },
    {
      "inputs": [],
      "name": "MINI_BAILIFF_ROLE",
      "outputs": [
        {
          "internalType": "bytes32",
          "name": "",
          "type": "bytes32"
        }
      ],
      "stateMutability": "view",
      "type": "function",
      "constant": true
    },
    {
      "inputs": [],
      "name": "MiniBailiff",
      "outputs": [
        {
          "internalType": "address",
          "name": "",
          "type": "address"
        }
      ],
      "stateMutability": "view",
      "type": "function",
      "constant": true
    },
    {
      "inputs": [],
      "name": "PinkSlipAddress",
      "outputs": [
        {
          "internalType": "address",
          "name": "",
          "type": "address"
        }
      ],
      "stateMutability": "view",
      "type": "function",
      "constant": true
    },
    {
      "inputs": [
        {
          "internalType": "string",
          "name": "",
          "type": "string"
        }
      ],
      "name": "Pseudonym",
      "outputs": [
        {
          "internalType": "uint256",
          "name": "",
          "type": "uint256"
        }
      ],
      "stateMutability": "view",
      "type": "function",
      "constant": true
    },
    {
      "inputs": [],
      "name": "RedPenTokenAddress",
      "outputs": [
        {
          "internalType": "address",
          "name": "",
          "type": "address"
        }
      ],
      "stateMutability": "view",
      "type": "function",
      "constant": true
    },
    {
      "inputs": [
        {
          "internalType": "string",
          "name": "",
          "type": "string"
        }
      ],
      "name": "SocialHandle",
      "outputs": [
        {
          "internalType": "uint256",
          "name": "",
          "type": "uint256"
        }
      ],
      "stateMutability": "view",
      "type": "function",
      "constant": true
    },
    {
      "inputs": [],
      "name": "THE_COURT_ROLE",
      "outputs": [
        {
          "internalType": "bytes32",
          "name": "",
          "type": "bytes32"
        }
      ],
      "stateMutability": "view",
      "type": "function",
      "constant": true
    },
    {
      "inputs": [],
      "name": "TheCourtAddress",
      "outputs": [
        {
          "internalType": "address",
          "name": "",
          "type": "address"
        }
      ],
      "stateMutability": "view",
      "type": "function",
      "constant": true
    },
    {
      "inputs": [],
      "name": "TreasuryAddress",
      "outputs": [
        {
          "internalType": "address",
          "name": "",
          "type": "address"
        }
      ],
      "stateMutability": "view",
      "type": "function",
      "constant": true
    },
    {
      "inputs": [
        {
          "internalType": "uint256",
          "name": "",
          "type": "uint256"
        }
      ],
      "name": "UserTransferApproved",
      "outputs": [
        {
          "internalType": "bool",
          "name": "",
          "type": "bool"
        }
      ],
      "stateMutability": "view",
      "type": "function",
      "constant": true
    },
    {
      "inputs": [],
      "name": "addressManager",
      "outputs": [
        {
          "internalType": "contract AddressManager",
          "name": "",
          "type": "address"
        }
      ],
      "stateMutability": "view",
      "type": "function",
      "constant": true
    },
    {
      "inputs": [
        {
          "internalType": "address",
          "name": "to",
          "type": "address"
        },
        {
          "internalType": "uint256",
          "name": "tokenId",
          "type": "uint256"
        }
      ],
      "name": "approve",
      "outputs": [],
      "stateMutability": "nonpayable",
      "type": "function"
    },
    {
      "inputs": [
        {
          "internalType": "uint256",
          "name": "_tokenId",
          "type": "uint256"
        }
      ],
      "name": "approveUserTransfer",
      "outputs": [],
      "stateMutability": "nonpayable",
      "type": "function"
    },
    {
      "inputs": [],
      "name": "badgeColor",
      "outputs": [
        {
          "internalType": "string",
          "name": "",
          "type": "string"
        }
      ],
      "stateMutability": "view",
      "type": "function",
      "constant": true
    },
    {
      "inputs": [],
      "name": "badgeName",
      "outputs": [
        {
          "internalType": "string",
          "name": "",
          "type": "string"
        }
      ],
      "stateMutability": "view",
      "type": "function",
      "constant": true
    },
    {
      "inputs": [
        {
          "internalType": "address",
          "name": "owner",
          "type": "address"
        }
      ],
      "name": "balanceOf",
      "outputs": [
        {
          "internalType": "uint256",
          "name": "",
          "type": "uint256"
        }
      ],
      "stateMutability": "view",
      "type": "function",
      "constant": true
    },
    {
      "inputs": [],
      "name": "baseURI_",
      "outputs": [
        {
          "internalType": "string",
          "name": "",
          "type": "string"
        }
      ],
      "stateMutability": "view",
      "type": "function",
      "constant": true
    },
    {
      "inputs": [
        {
          "internalType": "uint256",
          "name": "_valueMustBe69",
          "type": "uint256"
        }
      ],
      "name": "destroyAndLockContract",
      "outputs": [
        {
          "internalType": "bool",
          "name": "",
          "type": "bool"
        }
      ],
      "stateMutability": "nonpayable",
      "type": "function"
    },
    {
      "inputs": [],
      "name": "fairnessFactor",
      "outputs": [
        {
          "internalType": "uint256",
          "name": "",
          "type": "uint256"
        }
      ],
      "stateMutability": "view",
      "type": "function",
      "constant": true
    },
    {
      "inputs": [
        {
          "internalType": "uint256",
          "name": "tokenId",
          "type": "uint256"
        }
      ],
      "name": "getApproved",
      "outputs": [
        {
          "internalType": "address",
          "name": "",
          "type": "address"
        }
      ],
      "stateMutability": "view",
      "type": "function",
      "constant": true
    },
    {
      "inputs": [
        {
          "internalType": "uint256",
          "name": "_tokenId",
          "type": "uint256"
        }
      ],
      "name": "getBadgeInfo",
      "outputs": [
        {
          "internalType": "string",
          "name": "_pseudonym",
          "type": "string"
        },
        {
          "internalType": "string",
          "name": "_socialHandle",
          "type": "string"
        },
        {
          "internalType": "address",
          "name": "_avatarTokenAddress",
          "type": "address"
        },
        {
          "internalType": "uint256",
          "name": "_avatarTokenId",
          "type": "uint256"
        }
      ],
      "stateMutability": "view",
      "type": "function",
      "constant": true
    },
    {
      "inputs": [
        {
          "internalType": "string",
          "name": "_SocialHandle",
          "type": "string"
        }
      ],
      "name": "getIDFromHandle",
      "outputs": [
        {
          "internalType": "uint256",
          "name": "_tokenId",
          "type": "uint256"
        }
      ],
      "stateMutability": "view",
      "type": "function",
      "constant": true
    },
    {
      "inputs": [
        {
          "internalType": "bytes32",
          "name": "role",
          "type": "bytes32"
        }
      ],
      "name": "getRoleAdmin",
      "outputs": [
        {
          "internalType": "bytes32",
          "name": "",
          "type": "bytes32"
        }
      ],
      "stateMutability": "view",
      "type": "function",
      "constant": true
    },
    {
      "inputs": [
        {
          "internalType": "bytes32",
          "name": "role",
          "type": "bytes32"
        },
        {
          "internalType": "uint256",
          "name": "index",
          "type": "uint256"
        }
      ],
      "name": "getRoleMember",
      "outputs": [
        {
          "internalType": "address",
          "name": "",
          "type": "address"
        }
      ],
      "stateMutability": "view",
      "type": "function",
      "constant": true
    },
    {
      "inputs": [
        {
          "internalType": "bytes32",
          "name": "role",
          "type": "bytes32"
        }
      ],
      "name": "getRoleMemberCount",
      "outputs": [
        {
          "internalType": "uint256",
          "name": "",
          "type": "uint256"
        }
      ],
      "stateMutability": "view",
      "type": "function",
      "constant": true
    },
    {
      "inputs": [
        {
          "internalType": "bytes32",
          "name": "role",
          "type": "bytes32"
        },
        {
          "internalType": "address",
          "name": "account",
          "type": "address"
        }
      ],
      "name": "grantRole",
      "outputs": [],
      "stateMutability": "nonpayable",
      "type": "function"
    },
    {
      "inputs": [
        {
          "internalType": "bytes32",
          "name": "role",
          "type": "bytes32"
        },
        {
          "internalType": "address",
          "name": "account",
          "type": "address"
        }
      ],
      "name": "hasRole",
      "outputs": [
        {
          "internalType": "bool",
          "name": "",
          "type": "bool"
        }
      ],
      "stateMutability": "view",
      "type": "function",
      "constant": true
    },
    {
      "inputs": [
        {
          "internalType": "address",
          "name": "owner",
          "type": "address"
        },
        {
          "internalType": "address",
          "name": "operator",
          "type": "address"
        }
      ],
      "name": "isApprovedForAll",
      "outputs": [
        {
          "internalType": "bool",
          "name": "",
          "type": "bool"
        }
      ],
      "stateMutability": "view",
      "type": "function",
      "constant": true
    },
    {
      "inputs": [],
      "name": "isForeverLocked",
      "outputs": [
        {
          "internalType": "bool",
          "name": "",
          "type": "bool"
        }
      ],
      "stateMutability": "view",
      "type": "function",
      "constant": true
    },
    {
      "inputs": [
        {
          "internalType": "address",
          "name": "receivingAddress",
          "type": "address"
        },
        {
          "internalType": "string",
          "name": "_pseudonym",
          "type": "string"
        },
        {
          "internalType": "string",
          "name": "_socialHandle",
          "type": "string"
        },
        {
          "internalType": "address",
          "name": "_avatarTokenAddress",
          "type": "address"
        },
        {
          "internalType": "uint256",
          "name": "_avatarTokenId",
          "type": "uint256"
        },
        {
          "internalType": "uint256",
          "name": "_avatarNetworkId",
          "type": "uint256"
        },
        {
          "internalType": "string",
          "name": "_tokenURI",
          "type": "string"
        }
      ],
      "name": "issueBadge",
      "outputs": [
        {
          "internalType": "uint256",
          "name": "newId",
          "type": "uint256"
        }
      ],
      "stateMutability": "nonpayable",
      "type": "function"
    },
    {
      "inputs": [
        {
          "internalType": "address",
          "name": "receivingAddress",
          "type": "address"
        },
        {
          "internalType": "string",
          "name": "_pseudonym",
          "type": "string"
        },
        {
          "internalType": "string",
          "name": "_socialHandle",
          "type": "string"
        },
        {
          "internalType": "address",
          "name": "_avatarTokenAddress",
          "type": "address"
        },
        {
          "internalType": "uint256",
          "name": "_avatarTokenId",
          "type": "uint256"
        }
      ],
      "name": "issueBadge",
      "outputs": [
        {
          "internalType": "uint256",
          "name": "newId",
          "type": "uint256"
        }
      ],
      "stateMutability": "nonpayable",
      "type": "function"
    },
    {
      "inputs": [
        {
          "internalType": "address",
          "name": "receivingAddress",
          "type": "address"
        },
        {
          "internalType": "string",
          "name": "_pseudonym",
          "type": "string"
        },
        {
          "internalType": "string",
          "name": "_socialHandle",
          "type": "string"
        },
        {
          "internalType": "address",
          "name": "_avatarTokenAddress",
          "type": "address"
        },
        {
          "internalType": "uint256",
          "name": "_avatarTokenId",
          "type": "uint256"
        },
        {
          "internalType": "string",
          "name": "_tokenURI",
          "type": "string"
        }
      ],
      "name": "issueBadge",
      "outputs": [
        {
          "internalType": "uint256",
          "name": "newId",
          "type": "uint256"
        }
      ],
      "stateMutability": "nonpayable",
      "type": "function"
    },
    {
      "inputs": [],
      "name": "jerkSanctions",
      "outputs": [
        {
          "internalType": "bool",
          "name": "",
          "type": "bool"
        }
      ],
      "stateMutability": "view",
      "type": "function",
      "constant": true
    },
    {
      "inputs": [],
      "name": "mintingCost",
      "outputs": [
        {
          "internalType": "uint256",
          "name": "",
          "type": "uint256"
        }
      ],
      "stateMutability": "view",
      "type": "function",
      "constant": true
    },
    {
      "inputs": [],
      "name": "name",
      "outputs": [
        {
          "internalType": "string",
          "name": "",
          "type": "string"
        }
      ],
      "stateMutability": "view",
      "type": "function",
      "constant": true
    },
    {
      "inputs": [
        {
          "internalType": "address",
          "name": "operator",
          "type": "address"
        },
        {
          "internalType": "address",
          "name": "from",
          "type": "address"
        },
        {
          "internalType": "uint256",
          "name": "tokenId",
          "type": "uint256"
        },
        {
          "internalType": "bytes",
          "name": "data",
          "type": "bytes"
        }
      ],
      "name": "onERC721Received",
      "outputs": [
        {
          "internalType": "bytes4",
          "name": "",
          "type": "bytes4"
        }
      ],
      "stateMutability": "nonpayable",
      "type": "function"
    },
    {
      "inputs": [
        {
          "internalType": "uint256",
          "name": "tokenId",
          "type": "uint256"
        }
      ],
      "name": "ownerOf",
      "outputs": [
        {
          "internalType": "address",
          "name": "",
          "type": "address"
        }
      ],
      "stateMutability": "view",
      "type": "function",
      "constant": true
    },
    {
      "inputs": [],
      "name": "pause",
      "outputs": [],
      "stateMutability": "nonpayable",
      "type": "function"
    },
    {
      "inputs": [],
      "name": "paused",
      "outputs": [
        {
          "internalType": "bool",
          "name": "",
          "type": "bool"
        }
      ],
      "stateMutability": "view",
      "type": "function",
      "constant": true
    },
    {
      "inputs": [],
      "name": "paymentId",
      "outputs": [
        {
          "internalType": "uint256",
          "name": "",
          "type": "uint256"
        }
      ],
      "stateMutability": "view",
      "type": "function",
      "constant": true
    },
    {
      "inputs": [],
      "name": "pensBalance",
      "outputs": [
        {
          "internalType": "uint256",
          "name": "",
          "type": "uint256"
        }
      ],
      "stateMutability": "view",
      "type": "function",
      "constant": true
    },
    {
      "inputs": [
        {
          "internalType": "bool",
          "name": "_thisIsNotReversible",
          "type": "bool"
        }
      ],
      "name": "refreshBadges",
      "outputs": [
        {
          "internalType": "bool",
          "name": "",
          "type": "bool"
        }
      ],
      "stateMutability": "nonpayable",
      "type": "function"
    },
    {
      "inputs": [
        {
          "internalType": "bytes32",
          "name": "role",
          "type": "bytes32"
        },
        {
          "internalType": "address",
          "name": "account",
          "type": "address"
        }
      ],
      "name": "renounceRole",
      "outputs": [],
      "stateMutability": "nonpayable",
      "type": "function"
    },
    {
      "inputs": [],
      "name": "resetVote",
      "outputs": [],
      "stateMutability": "nonpayable",
      "type": "function"
    },
    {
      "inputs": [
        {
          "internalType": "uint256",
          "name": "_tokenId",
          "type": "uint256"
        }
      ],
      "name": "revokeBadge",
      "outputs": [],
      "stateMutability": "nonpayable",
      "type": "function"
    },
    {
      "inputs": [
        {
          "internalType": "bytes32",
          "name": "role",
          "type": "bytes32"
        },
        {
          "internalType": "address",
          "name": "account",
          "type": "address"
        }
      ],
      "name": "revokeRole",
      "outputs": [],
      "stateMutability": "nonpayable",
      "type": "function"
    },
    {
      "inputs": [
        {
          "internalType": "address",
          "name": "from",
          "type": "address"
        },
        {
          "internalType": "address",
          "name": "to",
          "type": "address"
        },
        {
          "internalType": "uint256",
          "name": "tokenId",
          "type": "uint256"
        }
      ],
      "name": "safeTransferFrom",
      "outputs": [],
      "stateMutability": "nonpayable",
      "type": "function"
    },
    {
      "inputs": [
        {
          "internalType": "address",
          "name": "from",
          "type": "address"
        },
        {
          "internalType": "address",
          "name": "to",
          "type": "address"
        },
        {
          "internalType": "uint256",
          "name": "tokenId",
          "type": "uint256"
        },
        {
          "internalType": "bytes",
          "name": "_data",
          "type": "bytes"
        }
      ],
      "name": "safeTransferFrom",
      "outputs": [],
      "stateMutability": "nonpayable",
      "type": "function"
    },
    {
      "inputs": [
        {
          "internalType": "address",
          "name": "operator",
          "type": "address"
        },
        {
          "internalType": "bool",
          "name": "approved",
          "type": "bool"
        }
      ],
      "name": "setApprovalForAll",
      "outputs": [],
      "stateMutability": "nonpayable",
      "type": "function"
    },
    {
      "inputs": [
        {
          "internalType": "string",
          "name": "_baseURIString",
          "type": "string"
        }
      ],
      "name": "setBaseURI",
      "outputs": [
        {
          "internalType": "bool",
          "name": "",
          "type": "bool"
        }
      ],
      "stateMutability": "nonpayable",
      "type": "function"
    },
    {
      "inputs": [],
      "name": "socialPlatform",
      "outputs": [
        {
          "internalType": "string",
          "name": "",
          "type": "string"
        }
      ],
      "stateMutability": "view",
      "type": "function",
      "constant": true
    },
    {
      "inputs": [],
      "name": "subsidyFloor",
      "outputs": [
        {
          "internalType": "uint256",
          "name": "",
          "type": "uint256"
        }
      ],
      "stateMutability": "view",
      "type": "function",
      "constant": true
    },
    {
      "inputs": [],
      "name": "subsidyInitialValue",
      "outputs": [
        {
          "internalType": "uint256",
          "name": "",
          "type": "uint256"
        }
      ],
      "stateMutability": "view",
      "type": "function",
      "constant": true
    },
    {
      "inputs": [],
      "name": "subsidyToken",
      "outputs": [
        {
          "internalType": "contract IERC20",
          "name": "",
          "type": "address"
        }
      ],
      "stateMutability": "view",
      "type": "function",
      "constant": true
    },
    {
      "inputs": [
        {
          "internalType": "bytes4",
          "name": "interfaceId",
          "type": "bytes4"
        }
      ],
      "name": "supportsInterface",
      "outputs": [
        {
          "internalType": "bool",
          "name": "",
          "type": "bool"
        }
      ],
      "stateMutability": "view",
      "type": "function",
      "constant": true
    },
    {
      "inputs": [],
      "name": "symbol",
      "outputs": [
        {
          "internalType": "string",
          "name": "",
          "type": "string"
        }
      ],
      "stateMutability": "view",
      "type": "function",
      "constant": true
    },
    {
      "inputs": [],
      "name": "syncAllRoles",
      "outputs": [],
      "stateMutability": "nonpayable",
      "type": "function"
    },
    {
      "inputs": [
        {
          "internalType": "bytes32",
          "name": "ROLE_TO_SYNC",
          "type": "bytes32"
        }
      ],
      "name": "syncSingleRole",
      "outputs": [],
      "stateMutability": "nonpayable",
      "type": "function"
    },
    {
      "inputs": [],
      "name": "syncVotes",
      "outputs": [],
      "stateMutability": "nonpayable",
      "type": "function"
    },
    {
      "inputs": [
        {
          "internalType": "uint256",
          "name": "index",
          "type": "uint256"
        }
      ],
      "name": "tokenByIndex",
      "outputs": [
        {
          "internalType": "uint256",
          "name": "",
          "type": "uint256"
        }
      ],
      "stateMutability": "view",
      "type": "function",
      "constant": true
    },
    {
      "inputs": [
        {
          "internalType": "address",
          "name": "owner",
          "type": "address"
        },
        {
          "internalType": "uint256",
          "name": "index",
          "type": "uint256"
        }
      ],
      "name": "tokenOfOwnerByIndex",
      "outputs": [
        {
          "internalType": "uint256",
          "name": "",
          "type": "uint256"
        }
      ],
      "stateMutability": "view",
      "type": "function",
      "constant": true
    },
    {
      "inputs": [
        {
          "internalType": "uint256",
          "name": "_tokenId",
          "type": "uint256"
        }
      ],
      "name": "tokenURI",
      "outputs": [
        {
          "internalType": "string",
          "name": "_URI",
          "type": "string"
        }
      ],
      "stateMutability": "view",
      "type": "function",
      "constant": true
    },
    {
      "inputs": [],
      "name": "totalSupply",
      "outputs": [
        {
          "internalType": "uint256",
          "name": "",
          "type": "uint256"
        }
      ],
      "stateMutability": "view",
      "type": "function",
      "constant": true
    },
    {
      "inputs": [
        {
          "internalType": "address",
          "name": "from",
          "type": "address"
        },
        {
          "internalType": "address",
          "name": "to",
          "type": "address"
        },
        {
          "internalType": "uint256",
          "name": "tokenId",
          "type": "uint256"
        }
      ],
      "name": "transferFrom",
      "outputs": [],
      "stateMutability": "nonpayable",
      "type": "function"
    },
    {
      "inputs": [],
      "name": "unpause",
      "outputs": [],
      "stateMutability": "nonpayable",
      "type": "function"
    },
    {
      "inputs": [],
      "name": "updateAddressManager",
      "outputs": [],
      "stateMutability": "nonpayable",
      "type": "function"
    },
    {
      "inputs": [],
      "name": "updateAllAddresses",
      "outputs": [],
      "stateMutability": "nonpayable",
      "type": "function"
    },
    {
      "inputs": [],
      "name": "updateAllRoles",
      "outputs": [],
      "stateMutability": "nonpayable",
      "type": "function"
    },
    {
      "inputs": [
        {
          "internalType": "address",
          "name": "_avatarTokenAddress",
          "type": "address"
        },
        {
          "internalType": "uint256",
          "name": "_avatarTokenId",
          "type": "uint256"
        }
      ],
      "name": "updateAvatar",
      "outputs": [],
      "stateMutability": "nonpayable",
      "type": "function"
    },
    {
      "inputs": [
        {
          "internalType": "uint256",
          "name": "_tokenId",
          "type": "uint256"
        },
        {
          "internalType": "address",
          "name": "_avatarTokenAddress",
          "type": "address"
        },
        {
          "internalType": "uint256",
          "name": "_avatarTokenId",
          "type": "uint256"
        },
        {
          "internalType": "uint256",
          "name": "_avatarNetworkId",
          "type": "uint256"
        }
      ],
      "name": "updateAvatar",
      "outputs": [],
      "stateMutability": "nonpayable",
      "type": "function"
    },
    {
      "inputs": [
        {
          "internalType": "uint256",
          "name": "_tokenId",
          "type": "uint256"
        },
        {
          "internalType": "address",
          "name": "_avatarTokenAddress",
          "type": "address"
        },
        {
          "internalType": "uint256",
          "name": "_avatarTokenId",
          "type": "uint256"
        }
      ],
      "name": "updateAvatar",
      "outputs": [],
      "stateMutability": "nonpayable",
      "type": "function"
    },
    {
      "inputs": [],
      "name": "updateDAOAddresses",
      "outputs": [],
      "stateMutability": "nonpayable",
      "type": "function"
    },
    {
      "inputs": [
        {
          "internalType": "uint256",
          "name": "_tokenId",
          "type": "uint256"
        },
        {
          "internalType": "string",
          "name": "_contentHash",
          "type": "string"
        }
      ],
      "name": "updateImageHash",
      "outputs": [],
      "stateMutability": "nonpayable",
      "type": "function"
    },
    {
      "inputs": [
        {
          "internalType": "bytes32",
          "name": "ROLE_TO_UPDATE",
          "type": "bytes32"
        }
      ],
      "name": "updateSingleRole",
      "outputs": [],
      "stateMutability": "nonpayable",
      "type": "function"
    },
    {
      "inputs": [],
      "name": "updateTokenAddresses",
      "outputs": [],
      "stateMutability": "nonpayable",
      "type": "function"
    }
  ],
  "bytecode": "0x6000805460ff199081169091556011805463ffffffff60a01b191690556001601e5560b4601f55602080549091169055636970667360e01b60a0908152601d60f91b60a452602f60f81b60a581905260a6526007608081905260a76040526200006b9160249162001142565b5060006029553480156200007e57600080fd5b506040516200740738038062007407833981016040819052620000a191620012a7565b604080518082018252600a81526910dbdb1bdc995908125160b21b602080830191909152825180840184526002815261125160f21b81830152835180850190945260078452663a3bb4ba3a32b960c91b91840191909152600380546001600160a01b0387166001600160a01b031991821681179092556011805490911690911790556103e8926045926000928692888383826200013d62000407565b620001476200041d565b600f5462000161906000906001600160a01b031662000568565b600f546200019a907f0538d24a8b7882d7b2e36af243d4af61c23e86e3daa6cb8c887b53220b2f5720906001600160a01b031662000568565b600c54620001d3907f048bc71fa1cb2c119c339cf9cf00a97996a19a9d991ce5fe049f2fa5459e7990906001600160a01b031662000568565b600d546200020c907ffa8e4989e1d689f7bc5c4b25b87efb51fecdecb19ba62847e29c759e12a89acd906001600160a01b031662000568565b60105462000245907ff0f4b159a6e2a4815eb3ca3df080bfa70c9270662c59bcaa4479a456220183e6906001600160a01b031662000568565b620002727f7c9d7f6f02908185bffb3f7fc9afb29fd7bf93675af8fd4b655ee05c2cee1e0e600062000568565b5081516200028890601290602085019062001142565b5080516200029e90601390602084019062001142565b50506018805460ff1916905550620002b562000407565b8251620002ca90602290602086019062001142565b508351620002e090602390602087019062001142565b506021808054620002f190620013dc565b620002fe929190620011d1565b505050505083670de0b6b3a76400006200031991906200138b565b602b55602c8390556200033582670de0b6b3a76400006200138b565b602a55602e80546001600160a01b0319166001600160a01b0383169081179091556040516370a0823160e01b81523060048201526370a082319060240160206040518083038186803b1580156200038b57600080fd5b505afa158015620003a0573d6000803e3d6000fd5b505050506040513d601f19601f82011682018060405250810190620003c6919062001303565b602d55602e54620003fb906001600160a01b0316306c0c9f2c9cd04674edea40000000620005ab602090811b620020fd17901c565b5050505050506200142f565b62000411620006a1565b6200041b620009a1565b565b601160009054906101000a90046001600160a01b03166001600160a01b031663ff7e88ec6040518163ffffffff1660e01b815260040160206040518083038186803b1580156200046c57600080fd5b505afa15801562000481573d6000803e3d6000fd5b505050506040513d601f19601f82011682018060405250810190620004a79190620012df565b601160156101000a81548160ff021916908315150217905550601160009054906101000a90046001600160a01b03166001600160a01b0316632fb565856040518163ffffffff1660e01b815260040160206040518083038186803b1580156200050f57600080fd5b505afa15801562000524573d6000803e3d6000fd5b505050506040513d601f19601f820116820180604052508101906200054a9190620012df565b60118054911515600160b01b0260ff60b01b19909216919091179055565b6200057f828262000dca60201b620021f11760201c565b6000828152600260209081526040909120620005a6918390620021fb62000dda821b17901c565b505050565b604051636eb1769f60e11b81523060048201526001600160a01b038381166024830152600091839186169063dd62ed3e9060440160206040518083038186803b158015620005f857600080fd5b505afa1580156200060d573d6000803e3d6000fd5b505050506040513d601f19601f8201168201806040525081019062000633919062001303565b6200063f919062001370565b604080516001600160a01b038616602482015260448082018490528251808303909101815260649091019091526020810180516001600160e01b0390811663095ea7b360e01b179091529192506200069b9186919062000dfa16565b50505050565b601160009054906101000a90046001600160a01b03166001600160a01b031663dadf56ac6040518163ffffffff1660e01b815260040160206040518083038186803b158015620006f057600080fd5b505afa15801562000705573d6000803e3d6000fd5b505050506040513d601f19601f820116820180604052508101906200072b919062001289565b600c80546001600160a01b0319166001600160a01b039283161790556011546040805163024bebe960e01b81529051919092169163024bebe9916004808301926020929190829003018186803b1580156200078557600080fd5b505afa1580156200079a573d6000803e3d6000fd5b505050506040513d601f19601f82011682018060405250810190620007c0919062001289565b600d80546001600160a01b0319166001600160a01b0392831617905560115460408051635b5c251f60e01b815290519190921691635b5c251f916004808301926020929190829003018186803b1580156200081a57600080fd5b505afa1580156200082f573d6000803e3d6000fd5b505050506040513d601f19601f8201168201806040525081019062000855919062001289565b600e80546001600160a01b0319166001600160a01b0392831617905560115460408051637310bf1d60e11b81529051919092169163e6217e3a916004808301926020929190829003018186803b158015620008af57600080fd5b505afa158015620008c4573d6000803e3d6000fd5b505050506040513d601f19601f82011682018060405250810190620008ea919062001289565b601080546001600160a01b0319166001600160a01b039283161790556011546040805163d88127a160e01b81529051919092169163d88127a1916004808301926020929190829003018186803b1580156200094457600080fd5b505afa15801562000959573d6000803e3d6000fd5b505050506040513d601f19601f820116820180604052508101906200097f919062001289565b600b80546001600160a01b0319166001600160a01b0392909216919091179055565b601160009054906101000a90046001600160a01b03166001600160a01b03166321d7f0086040518163ffffffff1660e01b815260040160206040518083038186803b158015620009f057600080fd5b505afa15801562000a05573d6000803e3d6000fd5b505050506040513d601f19601f8201168201806040525081019062000a2b919062001289565b600480546001600160a01b0319166001600160a01b039283161781556011546040805163762ddb5960e01b81529051919093169263762ddb599281810192602092909190829003018186803b15801562000a8457600080fd5b505afa15801562000a99573d6000803e3d6000fd5b505050506040513d601f19601f8201168201806040525081019062000abf919062001289565b600580546001600160a01b0319166001600160a01b039283161790556011546040805163bfb7dc9960e01b81529051919092169163bfb7dc99916004808301926020929190829003018186803b15801562000b1957600080fd5b505afa15801562000b2e573d6000803e3d6000fd5b505050506040513d601f19601f8201168201806040525081019062000b54919062001289565b600680546001600160a01b0319166001600160a01b0392831617905560115460408051633e6111eb60e21b81529051919092169163f98447ac916004808301926020929190829003018186803b15801562000bae57600080fd5b505afa15801562000bc3573d6000803e3d6000fd5b505050506040513d601f19601f8201168201806040525081019062000be9919062001289565b600780546001600160a01b0319166001600160a01b0392831617905560115460408051630fe1ba9f60e21b815290519190921691633f86ea7c916004808301926020929190829003018186803b15801562000c4357600080fd5b505afa15801562000c58573d6000803e3d6000fd5b505050506040513d601f19601f8201168201806040525081019062000c7e919062001289565b600880546001600160a01b0319166001600160a01b0392831617905560115460408051632b90024160e11b8152905191909216916357200482916004808301926020929190829003018186803b15801562000cd857600080fd5b505afa15801562000ced573d6000803e3d6000fd5b505050506040513d601f19601f8201168201806040525081019062000d13919062001289565b600980546001600160a01b0319166001600160a01b0392831617905560115460408051636b58477560e01b815290519190921691636b584775916004808301926020929190829003018186803b15801562000d6d57600080fd5b505afa15801562000d82573d6000803e3d6000fd5b505050506040513d601f19601f8201168201806040525081019062000da8919062001289565b600a80546001600160a01b0319166001600160a01b0392909216919091179055565b62000dd6828262000edc565b5050565b600062000df1836001600160a01b03841662000f64565b90505b92915050565b600062000e56826040518060400160405280602081526020017f5361666545524332303a206c6f772d6c6576656c2063616c6c206661696c6564815250856001600160a01b031662000fb660201b62002210179092919060201c565b805190915015620005a6578080602001905181019062000e779190620012df565b620005a65760405162461bcd60e51b815260206004820152602a60248201527f5361666545524332303a204552433230206f7065726174696f6e20646964206e6044820152691bdd081cdd58d8d9595960b21b60648201526084015b60405180910390fd5b60008281526001602090815260408083206001600160a01b038516845290915290205460ff1662000dd65760008281526001602081815260408084206001600160a01b0386168086529252808420805460ff19169093179092559051339285917f2f8788117e7eff1d82e926ec794901d17c78024a50270940304540a733656f0d9190a45050565b600081815260018301602052604081205462000fad5750815460018181018455600084815260208082209093018490558454848252828601909352604090209190915562000df4565b50600062000df4565b606062000fc7848460008562000fd1565b90505b9392505050565b606082471015620010345760405162461bcd60e51b815260206004820152602660248201527f416464726573733a20696e73756666696369656e742062616c616e636520666f6044820152651c8818d85b1b60d21b606482015260840162000ed3565b843b620010845760405162461bcd60e51b815260206004820152601d60248201527f416464726573733a2063616c6c20746f206e6f6e2d636f6e7472616374000000604482015260640162000ed3565b600080866001600160a01b03168587604051620010a291906200131d565b60006040518083038185875af1925050503d8060008114620010e1576040519150601f19603f3d011682016040523d82523d6000602084013e620010e6565b606091505b509092509050620010f982828662001104565b979650505050505050565b606083156200111557508162000fca565b825115620011265782518084602001fd5b8160405162461bcd60e51b815260040162000ed391906200133b565b8280546200115090620013dc565b90600052602060002090601f016020900481019282620011745760008555620011bf565b82601f106200118f57805160ff1916838001178555620011bf565b82800160010185558215620011bf579182015b82811115620011bf578251825591602001919060010190620011a2565b50620011cd92915062001255565b5090565b828054620011df90620013dc565b90600052602060002090601f016020900481019282620012035760008555620011bf565b82601f10620012165780548555620011bf565b82800160010185558215620011bf57600052602060002091601f016020900482015b82811115620011bf57825482559160010191906001019062001238565b5b80821115620011cd576000815560010162001256565b80516001600160a01b03811681146200128457600080fd5b919050565b6000602082840312156200129c57600080fd5b62000df1826200126c565b60008060408385031215620012bb57600080fd5b620012c6836200126c565b9150620012d6602084016200126c565b90509250929050565b600060208284031215620012f257600080fd5b8151801515811462000fca57600080fd5b6000602082840312156200131657600080fd5b5051919050565b6000825162001331818460208701620013ad565b9190910192915050565b60208152600082518060208401526200135c816040850160208701620013ad565b601f01601f19169190910160400192915050565b6000821982111562001386576200138662001419565b500190565b6000816000190483118215151615620013a857620013a862001419565b500290565b60005b83811015620013ca578181015183820152602001620013b0565b838111156200069b5750506000910152565b600181811c90821680620013f157607f821691505b602082108114156200141357634e487b7160e01b600052602260045260246000fd5b50919050565b634e487b7160e01b600052601160045260246000fd5b615fc8806200143f6000396000f3fe608060405234801561001057600080fd5b50600436106104f95760003560e01c8063610c300911610299578063c46459d311610167578063e346195a116100d9578063f1132b3011610092578063f1132b3014610b49578063f259a29e14610b51578063f491beb814610b59578063f7d92d8614610b62578063f98447ac14610b6a578063ff7e88ec14610b7d57600080fd5b8063e346195a14610ac7578063e6217e3a14610af2578063e78c266c14610b05578063e985e9c514610b18578063e9a5323014610b2b578063ebf98abf14610b4057600080fd5b8063cf4ece151161012b578063cf4ece1514610a4e578063d547741f14610a63578063d88127a114610a76578063dadf56ac14610a89578063dea6f9c814610a9c578063e2045b5e14610aa457600080fd5b8063c46459d3146109ed578063c62b28e814610a00578063c87b56dd14610a13578063ca15c87314610a26578063cce8439214610a3957600080fd5b806391d148541161020b578063a32c5e59116101c4578063a32c5e5914610978578063a4369b711461098d578063a78e746f146109a0578063a933939f146109b4578063b88d4fde146109c7578063bfb7dc99146109da57600080fd5b806391d148541461092257806395d89b411461093557806396ac6bf01461093d5780639ac3eaa714610950578063a217fddf1461095d578063a22cb4651461096557600080fd5b8063762ddb591161025d578063762ddb59146108c557806376516078146108d8578063822dc85e146108eb5780638456cb59146108fe5780639010d07c146109065780639155a1e01461091957600080fd5b8063610c3009146108715780636352211e146108795780636b5847751461088c5780636de9b54f1461089f57806370a08231146108b257600080fd5b80632f745c59116103d65780634a47f1471161034857806357f276ff1161030157806357f276ff1461081c5780635b5c251f1461082f5780635c975abb146108425780635ca1b7f11461084d5780635db531a1146108565780635f4134661461085e57600080fd5b80634a47f147146107c05780634d84c6d8146107d35780634e0ba968146107db5780634f6ccce7146107e357806355f804b3146107f6578063572004821461080957600080fd5b80633ab76e9f1161039a5780633ab76e9f146107645780633f4ba83a146107775780633f86ea7c1461077f578063422d68e91461079257806342842e0e146107a557806349b5e105146107b857600080fd5b80632f745c591461071a5780632fb565851461072d578063326a55e014610741578063329a8cfa1461074957806336568abe1461075157600080fd5b806318160ddd1161046f5780632436329d116104335780632436329d14610677578063248a9ca31461068c57806325bd4639146106b05780632be48d34146106b95780632f2e8fda146106e45780632f2ff15d1461070757600080fd5b806318160ddd146106125780631fb4f43b1461061a5780631fb58ad91461063e57806321d7f0081461065157806323b872dd1461066457600080fd5b80630cf8e42f116104c15780630cf8e42f1461058e5780630e957b0b146105a15780630f8bb7cd146105b4578063130f6320146105cb578063150b7a02146105de57806317314d5a1461060a57600080fd5b806301ffc9a7146104fe578063024bebe91461052657806306fdde0314610551578063081812fc14610566578063095ea7b314610579575b600080fd5b61051161050c36600461596c565b610b91565b60405190151581526020015b60405180910390f35b600d54610539906001600160a01b031681565b6040516001600160a01b03909116815260200161051d565b610559610ba2565b60405161051d9190615bc8565b61053961057436600461590c565b610c34565b61058c6105873660046158a6565b610cc1565b005b61058c61059c3660046158a6565b610dd7565b61058c6105af366004615a1b565b610e06565b6105bd602d5481565b60405190815260200161051d565b61058c6105d936600461590c565b610e58565b6105f16105ec36600461554d565b610ec5565b6040516001600160e01b0319909116815260200161051d565b61058c611075565b601c546105bd565b61062d61062836600461590c565b6110d6565b60405161051d959493929190615c1d565b61058c61064c36600461590c565b611220565b600454610539906001600160a01b031681565b61058c61067236600461550c565b6112ab565b6105bd600080516020615ef383398151915281565b6105bd61069a36600461590c565b6000908152600160208190526040909120015490565b6105bd60295481565b6105bd6106c73660046159a6565b805160208183018101805160288252928201919093012091525481565b6105116106f236600461590c565b60256020526000908152604090205460ff1681565b61058c610715366004615925565b6112dc565b6105bd6107283660046158a6565b6112fe565b60115461051190600160b01b900460ff1681565b61058c611394565b61058c6113a4565b61058c61075f366004615925565b611484565b601154610539906001600160a01b031681565b61058c6114a6565b600854610539906001600160a01b031681565b61058c6107a03660046159f4565b611538565b61058c6107b336600461550c565b611556565b61058c611571565b61058c6107ce366004615a58565b611579565b61058c61139c565b61055961159a565b6105bd6107f136600461590c565b611628565b6105116108043660046159a6565b6116bb565b600954610539906001600160a01b031681565b61058c61082a36600461590c565b61173f565b600e54610539906001600160a01b031681565b60185460ff16610511565b6105bd602c5481565b61058c611753565b600f54610539906001600160a01b031681565b61055961175b565b61053961088736600461590c565b611768565b600a54610539906001600160a01b031681565b6105bd6108ad3660046157e3565b6117df565b6105bd6108c0366004615499565b61186c565b600554610539906001600160a01b031681565b6105116108e63660046158d2565b6118f3565b6105bd6108f936600461569a565b6119ea565b61058c611a7c565b61053961091436600461594a565b611afe565b6105bd602a5481565b610511610930366004615925565b611b1d565b610559611b48565b61051161094b36600461590c565b611b57565b6020546105119060ff1681565b6105bd600081565b61058c61097336600461566c565b611c63565b6105bd600080516020615f5383398151915281565b6105bd61099b3660046159a6565b611d0a565b60115461051190600160a01b900460ff1681565b602e54610539906001600160a01b031681565b61058c6109d53660046155ec565b611d32565b600654610539906001600160a01b031681565b6105bd6109fb36600461572b565b611d64565b61058c610a0e36600461590c565b611de7565b610559610a2136600461590c565b611e69565b6105bd610a3436600461590c565b611e74565b6105bd600080516020615f7383398151915281565b6105bd600080516020615f3383398151915281565b61058c610a71366004615925565b611e8b565b600b54610539906001600160a01b031681565b600c54610539906001600160a01b031681565b610559611e95565b610ab7610ab236600461590c565b611ea2565b60405161051d9493929190615bdb565b6105bd610ad53660046159a6565b805160208183018101805160278252928201919093012091525481565b601054610539906001600160a01b031681565b600354610539906001600160a01b031681565b610511610b263660046154d3565b612007565b6105bd600080516020615f1383398151915281565b6105bd601f5481565b61058c612048565b610559612050565b6105bd602b5481565b61058c61205d565b600754610539906001600160a01b031681565b60115461051190600160a81b900460ff1681565b6000610b9c8261221f565b92915050565b606060128054610bb190615de1565b80601f0160208091040260200160405190810160405280929190818152602001828054610bdd90615de1565b8015610c2a5780601f10610bff57610100808354040283529160200191610c2a565b820191906000526020600020905b815481529060010190602001808311610c0d57829003601f168201915b5050505050905090565b6000610c3f82612244565b610ca55760405162461bcd60e51b815260206004820152602c60248201527f4552433732313a20617070726f76656420717565727920666f72206e6f6e657860448201526b34b9ba32b73a103a37b5b2b760a11b60648201526084015b60405180910390fd5b506000908152601660205260409020546001600160a01b031690565b6000610ccc82611768565b9050806001600160a01b0316836001600160a01b03161415610d3a5760405162461bcd60e51b815260206004820152602160248201527f4552433732313a20617070726f76616c20746f2063757272656e74206f776e656044820152603960f91b6064820152608401610c9c565b336001600160a01b0382161480610d565750610d568133612007565b610dc85760405162461bcd60e51b815260206004820152603860248201527f4552433732313a20617070726f76652063616c6c6572206973206e6f74206f7760448201527f6e6572206e6f7220617070726f76656420666f7220616c6c00000000000000006064820152608401610c9c565b610dd28383612261565b505050565b6000610de23361186c565b11610dec57600080fd5b6000610df93360006112fe565b9050610dd28184846122cf565b610e103385612307565b610e1957600080fd5b60008481526026602052604090206002810180546001600160a01b0319166001600160a01b038616179055600381018390556004018190555b50505050565b610e6260016123c9565b50610e6c8161247b565b50610e76816125f6565b50610e8160006123c9565b610ec25760405162461bcd60e51b81526020600482015260126024820152711cd8599d195e481b9bdd08199b1a5c1c195960721b6044820152606401610c9c565b50565b6040516370a0823160e01b81526001600160a01b038516600482015260009060019030906370a082319060240160206040518083038186803b158015610f0a57600080fd5b505afa158015610f1e573d6000803e3d6000fd5b505050506040513d601f19601f82011682018060405250810190610f4291906159db565b1015610f4d57600080fd5b6000610f5a8660016112fe565b60405163095ea7b360e01b81526001600160a01b0388166004820152602481018790529091503390819063095ea7b390604401600060405180830381600087803b158015610fa757600080fd5b505af1158015610fbb573d6000803e3d6000fd5b50505050610fc88261277f565b506040516331a9108f60e11b81526004810187905230906001600160a01b03831690636352211e9060240160206040518083038186803b15801561100b57600080fd5b505afa15801561101f573d6000803e3d6000fd5b505050506040513d601f19601f8201168201806040525081019061104391906154b6565b6001600160a01b03161461105657600080fd5b6110618233886122cf565b50630a85bd0160e11b979650505050505050565b61107f60016123c9565b506110886128a9565b5061109360006123c9565b6110d45760405162461bcd60e51b81526020600482015260126024820152711cd8599d195e481b9bdd08199b1a5c1c195960721b6044820152606401610c9c565b565b6026602052600090815260409020805481906110f190615de1565b80601f016020809104026020016040519081016040528092919081815260200182805461111d90615de1565b801561116a5780601f1061113f5761010080835404028352916020019161116a565b820191906000526020600020905b81548152906001019060200180831161114d57829003601f168201915b50505050509080600101805461117f90615de1565b80601f01602080910402602001604051908101604052809291908181526020018280546111ab90615de1565b80156111f85780601f106111cd576101008083540402835291602001916111f8565b820191906000526020600020905b8154815290600101906020018083116111db57829003601f168201915b505050506002830154600384015460049094015492936001600160a01b039091169290915085565b611238600080516020615f5383398151915233611b1d565b806112565750611256600080516020615f1383398151915233611b1d565b806112745750611274600080516020615ef383398151915233611b1d565b6112905760405162461bcd60e51b8152600401610c9c90615c69565b6000908152602560205260409020805460ff19166001179055565b6112b53382612307565b6112d15760405162461bcd60e51b8152600401610c9c90615ceb565b610dd28383836129ef565b6112e68282612b9a565b6000828152600260205260409020610dd290826121fb565b60006113098361186c565b821061136b5760405162461bcd60e51b815260206004820152602b60248201527f455243373231456e756d657261626c653a206f776e657220696e646578206f7560448201526a74206f6620626f756e647360a81b6064820152608401610c9c565b506001600160a01b03919091166000908152601a60209081526040808320938352929052205490565b61139c612bd4565b6110d4612ec0565b6113bc600080516020615f5383398151915233611b1d565b806113da57506113da600080516020615f1383398151915233611b1d565b806113f857506113f8600080516020615ef383398151915233611b1d565b6114145760405162461bcd60e51b8152600401610c9c90615c69565b601160009054906101000a90046001600160a01b03166001600160a01b031663329a8cfa6040518163ffffffff1660e01b8152600401600060405180830381600087803b15801561146457600080fd5b505af1158015611478573d6000803e3d6000fd5b505050506110d4611753565b61148e82826132cd565b6000828152600260205260409020610dd29082613347565b6114be600080516020615f1383398151915233611b1d565b806114dc57506114dc600080516020615f5383398151915233611b1d565b6115205760405162461bcd60e51b8152602060048201526015602482015274596f75277265206e6f742074686520476176656c7360581b6044820152606401610c9c565b60205460ff161561153057600080fd5b6110d461335c565b6115423384612307565b61154b57600080fd5b610dd28383836122cf565b610dd283838360405180602001604052806000815250611d32565b6110d4612bd4565b6115833383612307565b61158c57600080fd5b61159682826133ef565b5050565b602180546115a790615de1565b80601f01602080910402602001604051908101604052809291908181526020018280546115d390615de1565b80156116205780601f106115f557610100808354040283529160200191611620565b820191906000526020600020905b81548152906001019060200180831161160357829003601f168201915b505050505081565b6000611633601c5490565b82106116965760405162461bcd60e51b815260206004820152602c60248201527f455243373231456e756d657261626c653a20676c6f62616c20696e646578206f60448201526b7574206f6620626f756e647360a01b6064820152608401610c9c565b601c82815481106116a9576116a9615e8d565b90600052602060002001549050919050565b60006116d5600080516020615f5383398151915233611b1d565b806116f357506116f3600080516020615f1383398151915233611b1d565b806117115750611711600080516020615ef383398151915233611b1d565b61172d5760405162461bcd60e51b8152600401610c9c90615c69565b6117368261347a565b50600192915050565b61174960016123c9565b50610e7681613490565b6110d46136df565b602380546115a790615de1565b6000818152601460205260408120546001600160a01b031680610b9c5760405162461bcd60e51b815260206004820152602960248201527f4552433732313a206f776e657220717565727920666f72206e6f6e657869737460448201526832b73a103a37b5b2b760b91b6064820152608401610c9c565b60006117f9600080516020615f5383398151915233611b1d565b806118175750611817600080516020615f1383398151915233611b1d565b806118355750611835600080516020615ef383398151915233611b1d565b6118515760405162461bcd60e51b8152600401610c9c90615c69565b61186088888888888888613822565b98975050505050505050565b60006001600160a01b0382166118d75760405162461bcd60e51b815260206004820152602a60248201527f4552433732313a2062616c616e636520717565727920666f7220746865207a65604482015269726f206164647265737360b01b6064820152608401610c9c565b506001600160a01b031660009081526015602052604090205490565b600061190d600080516020615f1383398151915233611b1d565b8061192b575061192b600080516020615ef383398151915233611b1d565b806119495750611949600080516020615f5383398151915233611b1d565b61195257600080fd5b601154600160b01b810460ff9081161515600160a81b90920416151514600114806119905750611990600080516020615f5383398151915233611b1d565b6119cf5760405162461bcd60e51b815260206004820152601060248201526f436f757274204d75737420416772656560801b6044820152606401610c9c565b600182151514156119e25761173661384a565b506000919050565b6000611a04600080516020615f5383398151915233611b1d565b80611a225750611a22600080516020615f1383398151915233611b1d565b80611a405750611a40600080516020615ef383398151915233611b1d565b611a5c5760405162461bcd60e51b8152600401610c9c90615c69565b604080516020810190915260008152600161186088888888888688613822565b611a94600080516020615f1383398151915233611b1d565b80611ab25750611ab2600080516020615f5383398151915233611b1d565b611af65760405162461bcd60e51b8152602060048201526015602482015274596f75277265206e6f742074686520476176656c7360581b6044820152606401610c9c565b6110d461388d565b6000828152600260205260408120611b169083613908565b9392505050565b60009182526001602090815260408084206001600160a01b0393909316845291905290205460ff1690565b606060138054610bb190615de1565b6000611b71600080516020615f1383398151915233611b1d565b80611b8f5750611b8f600080516020615ef383398151915233611b1d565b80611bad5750611bad600080516020615f5383398151915233611b1d565b611bb657600080fd5b601154600160b01b810460ff9081161515600160a81b9092041615151460011480611bf45750611bf4600080516020615f5383398151915233611b1d565b611c335760405162461bcd60e51b815260206004820152601060248201526f436f757274204d75737420416772656560801b6044820152606401610c9c565b81604514156119e257611c4461384a565b50611c4d61388d565b506020805460ff19166001908117909155919050565b611c7b600080516020615f5383398151915233611b1d565b80611c995750611c99600080516020615ef383398151915233611b1d565b611d005760405162461bcd60e51b815260206004820152603260248201527f596f7520646f206e6f742068617665207065726d697373696f6e20746f2073656044820152711d08185c1c1c9bdd985b08199bdc88185b1b60721b6064820152608401610c9c565b6115968282613914565b6000602782604051611d1c9190615acb565b9081526020016040518091039020549050919050565b611d3c3383612307565b611d585760405162461bcd60e51b8152600401610c9c90615ceb565b610e52848484846139d9565b6000611d7e600080516020615f5383398151915233611b1d565b80611d9c5750611d9c600080516020615f1383398151915233611b1d565b80611dba5750611dba600080516020615ef383398151915233611b1d565b611dd65760405162461bcd60e51b8152600401610c9c90615c69565b600161186088888888888689613822565b611df9611df382611768565b33612007565b611e605760405162461bcd60e51b815260206004820152603260248201527f506c65617365207669736974207468652044414f20746f2072656e6f756e636560448201527120796f757220636974697a656e736869702160701b6064820152608401610c9c565b610ec281613a0c565b6060610b9c82613a15565b6000818152600260205260408120610b9c90613b77565b61148e8282613b81565b602280546115a790615de1565b6000818152602660205260408120805460609283929091829190611ec590615de1565b80601f0160208091040260200160405190810160405280929190818152602001828054611ef190615de1565b8015611f3e5780601f10611f1357610100808354040283529160200191611f3e565b820191906000526020600020905b815481529060010190602001808311611f2157829003601f168201915b505050600088815260266020526040902060028101546003820154600190920180549599506001600160a01b03909116965090945092611f8092509050615de1565b80601f0160208091040260200160405190810160405280929190818152602001828054611fac90615de1565b8015611ff95780601f10611fce57610100808354040283529160200191611ff9565b820191906000526020600020905b815481529060010190602001808311611fdc57829003601f168201915b505050505092509193509193565b600080612022600080516020615f5383398151915284611b1d565b806120405750612040600080516020615ef383398151915284611b1d565b949350505050565b6110d4613bbb565b602480546115a790615de1565b61206760016123c9565b5061207f600080516020615f53833981519152613490565b50612097600080516020615f13833981519152613490565b506120af600080516020615ef3833981519152613490565b506120c7600080516020615f33833981519152613490565b506120df600080516020615f73833981519152613490565b506120ea6000613490565b506120f36136df565b61109360006123c9565b604051636eb1769f60e11b81523060048201526001600160a01b038381166024830152600091839186169063dd62ed3e9060440160206040518083038186803b15801561214957600080fd5b505afa15801561215d573d6000803e3d6000fd5b505050506040513d601f19601f8201168201806040525081019061218191906159db565b61218b9190615d3c565b6040516001600160a01b038516602482015260448101829052909150610e5290859063095ea7b360e01b906064015b60408051601f198184030181529190526020810180516001600160e01b03166001600160e01b031990931692909217909152613cf2565b6115968282613dc4565b6000611b16836001600160a01b038416613e2f565b60606120408484600085613e7e565b60006001600160e01b0319821663780e9d6360e01b1480610b9c5750610b9c82613fa6565b6000908152601460205260409020546001600160a01b0316151590565b600081815260166020526040902080546001600160a01b0319166001600160a01b038416908117909155819061229682611768565b6001600160a01b03167f8c5be1e5ebec7d5bd14f71427d1e84f3dd0314c0f7b2291e5b200ac8c7c3b92560405160405180910390a45050565b6000928352602660205260409092206002810180546001600160a01b0319166001600160a01b03939093169290921790915560030155565b600061231282612244565b6123735760405162461bcd60e51b815260206004820152602c60248201527f4552433732313a206f70657261746f7220717565727920666f72206e6f6e657860448201526b34b9ba32b73a103a37b5b2b760a11b6064820152608401610c9c565b600061237e83611768565b9050806001600160a01b0316846001600160a01b031614806123b95750836001600160a01b03166123ae84610c34565b6001600160a01b0316145b8061204057506120408185612007565b6000805460ff1682151581151514156124245760405162461bcd60e51b815260206004820152601960248201527f416c72656164792053657420746f20746861742076616c7565000000000000006044820152606401610c9c565b6000805484151560ff19909116811790915560ff16151581151514156117365760405162461bcd60e51b815260206004820152600c60248201526b29b0b33a32bc9022b93937b960a11b6044820152606401610c9c565b60405163ca15c87360e01b8152600481018290526000908190309063ca15c8739060240160206040518083038186803b1580156124b757600080fd5b505afa1580156124cb573d6000803e3d6000fd5b505050506040513d601f19601f820116820180604052508101906124ef91906159db565b905060005b818110156125ec57604051632404341f60e21b815260048101859052602481018290526000903090639010d07c9060440160206040518083038186803b15801561253d57600080fd5b505afa158015612551573d6000803e3d6000fd5b505050506040513d601f19601f8201168201806040525081019061257591906154b6565b60405163d547741f60e01b8152600481018790526001600160a01b0382166024820152909150309063d547741f90604401600060405180830381600087803b1580156125c057600080fd5b505af11580156125d4573d6000803e3d6000fd5b505050505080806125e490615e1c565b9150506124f4565b5060019392505050565b60115460405163ca15c87360e01b81526004810183905260009182916001600160a01b039091169063ca15c8739060240160206040518083038186803b15801561263f57600080fd5b505afa158015612653573d6000803e3d6000fd5b505050506040513d601f19601f8201168201806040525081019061267791906159db565b905060005b818110156125ec57601154604051632404341f60e21b815260048101869052602481018390526000916001600160a01b031690639010d07c9060440160206040518083038186803b1580156126d057600080fd5b505afa1580156126e4573d6000803e3d6000fd5b505050506040513d601f19601f8201168201806040525081019061270891906154b6565b604051632f2ff15d60e01b8152600481018790526001600160a01b03821660248201529091503090632f2ff15d90604401600060405180830381600087803b15801561275357600080fd5b505af1158015612767573d6000803e3d6000fd5b5050505050808061277790615e1c565b91505061267c565b60008061278b83611768565b60008481526026602052604090819020600281015460039091015491516331a9108f60e11b8152600481018390529293506001600160a01b031691829030908290636352211e9060240160206040518083038186803b1580156127ed57600080fd5b505afa158015612801573d6000803e3d6000fd5b505050506040513d601f19601f8201168201806040525081019061282591906154b6565b6001600160a01b0316141561289d57604051632142170760e11b81523060048201526001600160a01b038581166024830152604482018490528416906342842e0e90606401600060405180830381600087803b15801561288457600080fd5b505af1158015612898573d6000803e3d6000fd5b505050505b50600195945050505050565b60006128c2600080516020615f5383398151915261247b565b506128da600080516020615f538339815191526125f6565b6128e357600080fd5b6128fa600080516020615f1383398151915261247b565b50612912600080516020615f138339815191526125f6565b61291b57600080fd5b612932600080516020615ef383398151915261247b565b5061294a600080516020615ef38339815191526125f6565b61295357600080fd5b61296a600080516020615f3383398151915261247b565b50612982600080516020615f338339815191526125f6565b61298b57600080fd5b6129a2600080516020615f7383398151915261247b565b506129ba600080516020615f738339815191526125f6565b6129c357600080fd5b6129cd600061247b565b506129d860006125f6565b6129e157600080fd5b6129e96136df565b50600190565b826001600160a01b0316612a0282611768565b6001600160a01b031614612a6a5760405162461bcd60e51b815260206004820152602960248201527f4552433732313a207472616e73666572206f6620746f6b656e2074686174206960448201526839903737ba1037bbb760b91b6064820152608401610c9c565b6001600160a01b038216612acc5760405162461bcd60e51b8152602060048201526024808201527f4552433732313a207472616e7366657220746f20746865207a65726f206164646044820152637265737360e01b6064820152608401610c9c565b612ad7838383613fe6565b612ae2600082612261565b6001600160a01b0383166000908152601560205260408120805460019290612b0b908490615d87565b90915550506001600160a01b0382166000908152601560205260408120805460019290612b39908490615d3c565b909155505060008181526014602052604080822080546001600160a01b0319166001600160a01b0386811691821790925591518493918716917fddf252ad1be2c89b69c2b068fc378daa952ba7f163c4a11628f55a4df523b3ef91a4505050565b600082815260016020819052604082200154905460ff1615612bc057610dd28383613dc4565b612bca813361417b565b610dd28383613dc4565b601160009054906101000a90046001600160a01b03166001600160a01b031663dadf56ac6040518163ffffffff1660e01b815260040160206040518083038186803b158015612c2257600080fd5b505afa158015612c36573d6000803e3d6000fd5b505050506040513d601f19601f82011682018060405250810190612c5a91906154b6565b600c80546001600160a01b0319166001600160a01b039283161790556011546040805163024bebe960e01b81529051919092169163024bebe9916004808301926020929190829003018186803b158015612cb357600080fd5b505afa158015612cc7573d6000803e3d6000fd5b505050506040513d601f19601f82011682018060405250810190612ceb91906154b6565b600d80546001600160a01b0319166001600160a01b0392831617905560115460408051635b5c251f60e01b815290519190921691635b5c251f916004808301926020929190829003018186803b158015612d4457600080fd5b505afa158015612d58573d6000803e3d6000fd5b505050506040513d601f19601f82011682018060405250810190612d7c91906154b6565b600e80546001600160a01b0319166001600160a01b0392831617905560115460408051637310bf1d60e11b81529051919092169163e6217e3a916004808301926020929190829003018186803b158015612dd557600080fd5b505afa158015612de9573d6000803e3d6000fd5b505050506040513d601f19601f82011682018060405250810190612e0d91906154b6565b601080546001600160a01b0319166001600160a01b039283161790556011546040805163d88127a160e01b81529051919092169163d88127a1916004808301926020929190829003018186803b158015612e6657600080fd5b505afa158015612e7a573d6000803e3d6000fd5b505050506040513d601f19601f82011682018060405250810190612e9e91906154b6565b600b80546001600160a01b0319166001600160a01b0392909216919091179055565b601160009054906101000a90046001600160a01b03166001600160a01b03166321d7f0086040518163ffffffff1660e01b815260040160206040518083038186803b158015612f0e57600080fd5b505afa158015612f22573d6000803e3d6000fd5b505050506040513d601f19601f82011682018060405250810190612f4691906154b6565b600480546001600160a01b0319166001600160a01b039283161781556011546040805163762ddb5960e01b81529051919093169263762ddb599281810192602092909190829003018186803b158015612f9e57600080fd5b505afa158015612fb2573d6000803e3d6000fd5b505050506040513d601f19601f82011682018060405250810190612fd691906154b6565b600580546001600160a01b0319166001600160a01b039283161790556011546040805163bfb7dc9960e01b81529051919092169163bfb7dc99916004808301926020929190829003018186803b15801561302f57600080fd5b505afa158015613043573d6000803e3d6000fd5b505050506040513d601f19601f8201168201806040525081019061306791906154b6565b600680546001600160a01b0319166001600160a01b0392831617905560115460408051633e6111eb60e21b81529051919092169163f98447ac916004808301926020929190829003018186803b1580156130c057600080fd5b505afa1580156130d4573d6000803e3d6000fd5b505050506040513d601f19601f820116820180604052508101906130f891906154b6565b600780546001600160a01b0319166001600160a01b0392831617905560115460408051630fe1ba9f60e21b815290519190921691633f86ea7c916004808301926020929190829003018186803b15801561315157600080fd5b505afa158015613165573d6000803e3d6000fd5b505050506040513d601f19601f8201168201806040525081019061318991906154b6565b600880546001600160a01b0319166001600160a01b0392831617905560115460408051632b90024160e11b8152905191909216916357200482916004808301926020929190829003018186803b1580156131e257600080fd5b505afa1580156131f6573d6000803e3d6000fd5b505050506040513d601f19601f8201168201806040525081019061321a91906154b6565b600980546001600160a01b0319166001600160a01b0392831617905560115460408051636b58477560e01b815290519190921691636b584775916004808301926020929190829003018186803b15801561327357600080fd5b505afa158015613287573d6000803e3d6000fd5b505050506040513d601f19601f820116820180604052508101906132ab91906154b6565b600a80546001600160a01b0319166001600160a01b0392909216919091179055565b6001600160a01b038116331461333d5760405162461bcd60e51b815260206004820152602f60248201527f416363657373436f6e74726f6c3a2063616e206f6e6c792072656e6f756e636560448201526e103937b632b9903337b91039b2b63360891b6064820152608401610c9c565b61159682826141df565b6000611b16836001600160a01b038416614246565b60185460ff166133a55760405162461bcd60e51b815260206004820152601460248201527314185d5cd8589b194e881b9bdd081c185d5cd95960621b6044820152606401610c9c565b6018805460ff191690557f5db9ee0a495bf2e6ff9c91a7834c1ba4fdd244a5e8aa4e537bd38aeae4b073aa335b6040516001600160a01b03909116815260200160405180910390a1565b6133f882612244565b61345b5760405162461bcd60e51b815260206004820152602e60248201527f45524337323155524953746f726167653a2055524920736574206f66206e6f6e60448201526d32bc34b9ba32b73a103a37b5b2b760911b6064820152608401610c9c565b60008281526019602090815260409091208251610dd292840190615334565b8051600090611736906024906020850190615334565b60115460405163ca15c87360e01b81526004810183905260009182916001600160a01b039091169063ca15c8739060240160206040518083038186803b1580156134d957600080fd5b505afa1580156134ed573d6000803e3d6000fd5b505050506040513d601f19601f8201168201806040525081019061351191906159db565b60405163ca15c87360e01b815260048101859052909150600090309063ca15c8739060240160206040518083038186803b15801561354e57600080fd5b505afa158015613562573d6000803e3d6000fd5b505050506040513d601f19601f8201168201806040525081019061358691906159db565b905060006135948284615d87565b9050600081116135d95760405162461bcd60e51b815260206004820152601060248201526f4e6f7468696e6720746f2073796e632160801b6044820152606401610c9c565b60005b8181101561289d57601154604051632404341f60e21b815260048101889052602481018390526000916001600160a01b031690639010d07c9060440160206040518083038186803b15801561363057600080fd5b505afa158015613644573d6000803e3d6000fd5b505050506040513d601f19601f8201168201806040525081019061366891906154b6565b604051632f2ff15d60e01b8152600481018990526001600160a01b03821660248201529091503090632f2ff15d90604401600060405180830381600087803b1580156136b357600080fd5b505af11580156136c7573d6000803e3d6000fd5b505050505080806136d790615e1c565b9150506135dc565b601160009054906101000a90046001600160a01b03166001600160a01b031663ff7e88ec6040518163ffffffff1660e01b815260040160206040518083038186803b15801561372d57600080fd5b505afa158015613741573d6000803e3d6000fd5b505050506040513d601f19601f8201168201806040525081019061376591906158ef565b601160156101000a81548160ff021916908315150217905550601160009054906101000a90046001600160a01b03166001600160a01b0316632fb565856040518163ffffffff1660e01b815260040160206040518083038186803b1580156137cc57600080fd5b505afa1580156137e0573d6000803e3d6000fd5b505050506040513d601f19601f8201168201806040525081019061380491906158ef565b60118054911515600160b01b0260ff60b01b19909216919091179055565b600061383388888888888888614333565b905061383e88614431565b50979650505050505050565b6000805b601e548110156138815761386181612244565b1561386f5761386f81613a0c565b8061387981615e1c565b91505061384e565b50506000601e55600190565b60185460ff16156138d35760405162461bcd60e51b815260206004820152601060248201526f14185d5cd8589b194e881c185d5cd95960821b6044820152606401610c9c565b6018805460ff191660011790557f62e78cea01bee320cd4e420270b5ea74000d11b0c9f74754ebdbfc544b05a2586133d23390565b6000611b16838361467c565b6001600160a01b03821633141561396d5760405162461bcd60e51b815260206004820152601960248201527f4552433732313a20617070726f766520746f2063616c6c6572000000000000006044820152606401610c9c565b3360008181526017602090815260408083206001600160a01b03871680855290835292819020805460ff191686151590811790915590519081529192917f17307eab39ab6107e8899845ad3d59bd9653f200f220920489ca2b5937696c31910160405180910390a35050565b6139e48484846129ef565b6139f084848484614702565b610e525760405162461bcd60e51b8152600401610c9c90615c99565b610ec28161480c565b6060613a2082612244565b613a865760405162461bcd60e51b815260206004820152603160248201527f45524337323155524953746f726167653a2055524920717565727920666f72206044820152703737b732bc34b9ba32b73a103a37b5b2b760791b6064820152608401610c9c565b60008281526019602052604081208054613a9f90615de1565b80601f0160208091040260200160405190810160405280929190818152602001828054613acb90615de1565b8015613b185780601f10613aed57610100808354040283529160200191613b18565b820191906000526020600020905b815481529060010190602001808311613afb57829003601f168201915b505050505090506000613b2961484c565b9050805160001415613b3c575092915050565b815115613b6e578082604051602001613b56929190615ae7565b60405160208183030381529060405292505050919050565b6120408461485b565b6000610b9c825490565b600082815260016020819052604082200154905460ff1615613ba757610dd283836141df565b613bb1813361417b565b610dd283836141df565b601160009054906101000a90046001600160a01b03166001600160a01b031663a44b93256040518163ffffffff1660e01b815260040160206040518083038186803b158015613c0957600080fd5b505afa158015613c1d573d6000803e3d6000fd5b505050506040513d601f19601f82011682018060405250810190613c4191906158ef565b613c4a57600080fd5b601160009054906101000a90046001600160a01b03166001600160a01b031663ac7cfac36040518163ffffffff1660e01b815260040160206040518083038186803b158015613c9857600080fd5b505afa158015613cac573d6000803e3d6000fd5b505050506040513d601f19601f82011682018060405250810190613cd091906154b6565b600380546001600160a01b0319166001600160a01b0392909216919091179055565b6000613d47826040518060400160405280602081526020017f5361666545524332303a206c6f772d6c6576656c2063616c6c206661696c6564815250856001600160a01b03166122109092919063ffffffff16565b805190915015610dd25780806020019051810190613d6591906158ef565b610dd25760405162461bcd60e51b815260206004820152602a60248201527f5361666545524332303a204552433230206f7065726174696f6e20646964206e6044820152691bdd081cdd58d8d9595960b21b6064820152608401610c9c565b613dce8282611b1d565b6115965760008281526001602081815260408084206001600160a01b0386168086529252808420805460ff19169093179092559051339285917f2f8788117e7eff1d82e926ec794901d17c78024a50270940304540a733656f0d9190a45050565b6000818152600183016020526040812054613e7657508154600181810184556000848152602080822090930184905584548482528286019093526040902091909155610b9c565b506000610b9c565b606082471015613edf5760405162461bcd60e51b815260206004820152602660248201527f416464726573733a20696e73756666696369656e742062616c616e636520666f6044820152651c8818d85b1b60d21b6064820152608401610c9c565b843b613f2d5760405162461bcd60e51b815260206004820152601d60248201527f416464726573733a2063616c6c20746f206e6f6e2d636f6e74726163740000006044820152606401610c9c565b600080866001600160a01b03168587604051613f499190615acb565b60006040518083038185875af1925050503d8060008114613f86576040519150601f19603f3d011682016040523d82523d6000602084013e613f8b565b606091505b5091509150613f9b828286614925565b979650505050505050565b60006001600160e01b031982166380ac58cd60e01b1480613fd757506001600160e01b03198216635b5e139f60e01b145b80610b9c5750610b9c8261495e565b613ff08333612007565b80614009575060008181526025602052604090205460ff165b61406a5760405162461bcd60e51b815260206004820152602c60248201527f506c65617365207669736974207468652044414f20746f206368616e6765207960448201526b6f757220616464726573732160a01b6064820152608401610c9c565b60008181526025602052604090205460ff16801561408d575061408d3382612307565b156141705760008181526025602052604090205460ff166141015760405162461bcd60e51b815260206004820152602860248201527f7265717569726528557365725472616e73666572417070726f7665645b5f746f6044820152676b656e49645d293b60c01b6064820152608401610c9c565b6000818152602560205260409020805460ff1916905560405162461bcd60e51b815260206004820152602860248201527f72657175697265285f756e646f417070726f76655472616e73666572285f746f6044820152676b656e496429293b60c01b6064820152608401610c9c565b610dd2838383614983565b6141858282611b1d565b6115965761419d816001600160a01b03166014614a3b565b6141a8836020614a3b565b6040516020016141b9929190615b16565b60408051601f198184030181529082905262461bcd60e51b8252610c9c91600401615bc8565b6141e98282611b1d565b156115965760008281526001602090815260408083206001600160a01b0385168085529252808320805460ff1916905551339285917ff6391f5c32d9c69d2a47ea670b442974b53935d1edc7fd64eb21e047a839171b9190a45050565b6000818152600183016020526040812054801561432957600061426a600183615d87565b855490915060009061427e90600190615d87565b9050600086600001828154811061429757614297615e8d565b90600052602060002001549050808760000184815481106142ba576142ba615e8d565b6000918252602080832090910192909255828152600189019091526040902084905586548790806142ed576142ed615e77565b60019003818190600052602060002001600090559055866001016000878152602001908152602001600020600090556001945050505050610b9c565b6000915050610b9c565b60006001600160a01b038816331480159061435657506001600160a01b03881615155b6143955760405162461bcd60e51b815260206004820152601060248201526f4e6f2053656c662049737375616e636560801b6044820152606401610c9c565b60006143a08961186c565b11156143e75760405162461bcd60e51b815260206004820152601660248201527513db9b1e481bdb99481251081c195c881dd85b1b195d60521b6044820152606401610c9c565b50601e546143f9878787878786614bd7565b6144038882614cf9565b61440d81836133ef565b6001601e60008282546144209190615d3c565b909155509098975050505050505050565b602a54602b54600091670de0b6b3a764000091839161444f91615d87565b90506000602c546029546144639190615d3c565b90506000602c5484836144769190615d68565b6144809190615d54565b905060008161448f8686615d68565b6144999190615d54565b90506000602a54826144ab9190615d3c565b602e546040516370a0823160e01b81523060048201529192506000916001600160a01b03909116906370a082319060240160206040518083038186803b1580156144f457600080fd5b505afa158015614508573d6000803e3d6000fd5b505050506040513d601f19601f8201168201806040525081019061452c91906159db565b90508181101561457e5760405162461bcd60e51b815260206004820152601960248201527f436f6e74726163742062616c616e636520746f6f206c6f7721000000000000006044820152606401610c9c565b60295461458c906001615d3c565b602955602e546145a7906001600160a01b0316308b85614d13565b602e546040516370a0823160e01b81523060048201526000916001600160a01b0316906370a082319060240160206040518083038186803b1580156145eb57600080fd5b505afa1580156145ff573d6000803e3d6000fd5b505050506040513d601f19601f8201168201806040525081019061462391906159db565b905061462f8383615d87565b811461466f5760405162461bcd60e51b815260206004820152600f60248201526e5472616e73666572204572726f723f60881b6044820152606401610c9c565b5050505050505050919050565b815460009082106146da5760405162461bcd60e51b815260206004820152602260248201527f456e756d657261626c655365743a20696e646578206f7574206f6620626f756e604482015261647360f01b6064820152608401610c9c565b8260000182815481106146ef576146ef615e8d565b9060005260206000200154905092915050565b60006001600160a01b0384163b1561480457604051630a85bd0160e11b81526001600160a01b0385169063150b7a0290614746903390899088908890600401615b8b565b602060405180830381600087803b15801561476057600080fd5b505af1925050508015614790575060408051601f3d908101601f1916820190925261478d91810190615989565b60015b6147ea573d8080156147be576040519150601f19603f3d011682016040523d82523d6000602084013e6147c3565b606091505b5080516147e25760405162461bcd60e51b8152600401610c9c90615c99565b805181602001fd5b6001600160e01b031916630a85bd0160e11b149050612040565b506001612040565b61481581614d4b565b6000818152601960205260409020805461482e90615de1565b159050610ec2576000818152601960205260408120610ec2916153b8565b606060248054610bb190615de1565b606061486682612244565b6148ca5760405162461bcd60e51b815260206004820152602f60248201527f4552433732314d657461646174613a2055524920717565727920666f72206e6f60448201526e3732bc34b9ba32b73a103a37b5b2b760891b6064820152608401610c9c565b60006148d461484c565b905060008151116148f45760405180602001604052806000815250611b16565b806148fe84614df2565b60405160200161490f929190615ae7565b6040516020818303038152906040529392505050565b60608315614934575081611b16565b8251156149445782518084602001fd5b8160405162461bcd60e51b8152600401610c9c9190615bc8565b60006001600160e01b03198216635a05180f60e01b1480610b9c5750610b9c82614ef0565b6001600160a01b0383166149de576149d981601c80546000838152601d60205260408120829055600182018355919091527f0e4562a10381dec21b205ed72637e6b1b523bdd0e4d4d50af5cd23dd4500a2110155565b614a01565b816001600160a01b0316836001600160a01b031614614a0157614a018382614f25565b6001600160a01b038216614a1857610dd281614fc2565b826001600160a01b0316826001600160a01b031614610dd257610dd28282615071565b60606000614a4a836002615d68565b614a55906002615d3c565b67ffffffffffffffff811115614a6d57614a6d615ea3565b6040519080825280601f01601f191660200182016040528015614a97576020820181803683370190505b509050600360fc1b81600081518110614ab257614ab2615e8d565b60200101906001600160f81b031916908160001a905350600f60fb1b81600181518110614ae157614ae1615e8d565b60200101906001600160f81b031916908160001a9053506000614b05846002615d68565b614b10906001615d3c565b90505b6001811115614b88576f181899199a1a9b1b9c1cb0b131b232b360811b85600f1660108110614b4457614b44615e8d565b1a60f81b828281518110614b5a57614b5a615e8d565b60200101906001600160f81b031916908160001a90535060049490941c93614b8181615dca565b9050614b13565b508315611b165760405162461bcd60e51b815260206004820181905260248201527f537472696e67733a20686578206c656e67746820696e73756666696369656e746044820152606401610c9c565b614be185876150b5565b614c2d5760405162461bcd60e51b815260206004820152601a60248201527f446f20796f7520616c7265616479206861766520616e2049443f0000000000006044820152606401610c9c565b60008181526026602090815260409091208651614c5292600190920191880190615334565b5060008181526026602090815260409091206002810180546001600160a01b0319166001600160a01b038816179055600381018590558751614c9692890190615334565b5060008181526026602052604090819020600401839055518190602790614cbe908890615acb565b90815260200160405180910390208190555080602887604051614ce19190615acb565b90815260405190819003602001902055505050505050565b6115968282604051806020016040528060008152506151c2565b6040516001600160a01b0380851660248301528316604482015260648101829052610e529085906323b872dd60e01b906084016121ba565b6000614d5682611768565b9050614d6481600084613fe6565b614d6f600083612261565b6001600160a01b0381166000908152601560205260408120805460019290614d98908490615d87565b909155505060008281526014602052604080822080546001600160a01b0319169055518391906001600160a01b038416907fddf252ad1be2c89b69c2b068fc378daa952ba7f163c4a11628f55a4df523b3ef908390a45050565b606081614e165750506040805180820190915260018152600360fc1b602082015290565b8160005b8115614e405780614e2a81615e1c565b9150614e399050600a83615d54565b9150614e1a565b60008167ffffffffffffffff811115614e5b57614e5b615ea3565b6040519080825280601f01601f191660200182016040528015614e85576020820181803683370190505b5090505b841561204057614e9a600183615d87565b9150614ea7600a86615e37565b614eb2906030615d3c565b60f81b818381518110614ec757614ec7615e8d565b60200101906001600160f81b031916908160001a905350614ee9600a86615d54565b9450614e89565b60006001600160e01b03198216637965db0b60e01b1480610b9c57506301ffc9a760e01b6001600160e01b0319831614610b9c565b60006001614f328461186c565b614f3c9190615d87565b6000838152601b6020526040902054909150808214614f8f576001600160a01b0384166000908152601a602090815260408083208584528252808320548484528184208190558352601b90915290208190555b506000918252601b602090815260408084208490556001600160a01b039094168352601a81528383209183525290812055565b601c54600090614fd490600190615d87565b6000838152601d6020526040812054601c8054939450909284908110614ffc57614ffc615e8d565b9060005260206000200154905080601c838154811061501d5761501d615e8d565b6000918252602080832090910192909255828152601d9091526040808220849055858252812055601c80548061505557615055615e77565b6001900381819060005260206000200160009055905550505050565b600061507c8361186c565b6001600160a01b039093166000908152601a602090815260408083208684528252808320859055938252601b9052919091209190915550565b600060016027846040516150c99190615acb565b9081526020016040518091039020541061513f5760405162461bcd60e51b815260206004820152603160248201527f416c726561647920616e204944206173736f63696174656420776974682074686044820152701a5cc81cdbd8da585b081858d8dbdd5b9d607a1b6064820152608401610c9c565b60016028836040516151519190615acb565b908152602001604051809103902054106117365760405162461bcd60e51b815260206004820152602c60248201527f416c726561647920616e204944206173736f636961746564207769746820746860448201526b69732070736575646f6e796d60a01b6064820152608401610c9c565b6151cc83836151f5565b6151d96000848484614702565b610dd25760405162461bcd60e51b8152600401610c9c90615c99565b6001600160a01b03821661524b5760405162461bcd60e51b815260206004820181905260248201527f4552433732313a206d696e7420746f20746865207a65726f20616464726573736044820152606401610c9c565b61525481612244565b156152a15760405162461bcd60e51b815260206004820152601c60248201527f4552433732313a20746f6b656e20616c7265616479206d696e746564000000006044820152606401610c9c565b6152ad60008383613fe6565b6001600160a01b03821660009081526015602052604081208054600192906152d6908490615d3c565b909155505060008181526014602052604080822080546001600160a01b0319166001600160a01b03861690811790915590518392907fddf252ad1be2c89b69c2b068fc378daa952ba7f163c4a11628f55a4df523b3ef908290a45050565b82805461534090615de1565b90600052602060002090601f01602090048101928261536257600085556153a8565b82601f1061537b57805160ff19168380011785556153a8565b828001600101855582156153a8579182015b828111156153a857825182559160200191906001019061538d565b506153b49291506153ee565b5090565b5080546153c490615de1565b6000825580601f106153d4575050565b601f016020900490600052602060002090810190610ec291905b5b808211156153b457600081556001016153ef565b600067ffffffffffffffff8084111561541e5761541e615ea3565b604051601f8501601f19908116603f0116810190828211818310171561544657615446615ea3565b8160405280935085815286868601111561545f57600080fd5b858560208301376000602087830101525050509392505050565b600082601f83011261548a57600080fd5b611b1683833560208501615403565b6000602082840312156154ab57600080fd5b8135611b1681615eb9565b6000602082840312156154c857600080fd5b8151611b1681615eb9565b600080604083850312156154e657600080fd5b82356154f181615eb9565b9150602083013561550181615eb9565b809150509250929050565b60008060006060848603121561552157600080fd5b833561552c81615eb9565b9250602084013561553c81615eb9565b929592945050506040919091013590565b60008060008060006080868803121561556557600080fd5b853561557081615eb9565b9450602086013561558081615eb9565b935060408601359250606086013567ffffffffffffffff808211156155a457600080fd5b818801915088601f8301126155b857600080fd5b8135818111156155c757600080fd5b8960208285010111156155d957600080fd5b9699959850939650602001949392505050565b6000806000806080858703121561560257600080fd5b843561560d81615eb9565b9350602085013561561d81615eb9565b925060408501359150606085013567ffffffffffffffff81111561564057600080fd5b8501601f8101871361565157600080fd5b61566087823560208401615403565b91505092959194509250565b6000806040838503121561567f57600080fd5b823561568a81615eb9565b9150602083013561550181615ece565b600080600080600060a086880312156156b257600080fd5b85356156bd81615eb9565b9450602086013567ffffffffffffffff808211156156da57600080fd5b6156e689838a01615479565b955060408801359150808211156156fc57600080fd5b5061570988828901615479565b935050606086013561571a81615eb9565b949793965091946080013592915050565b60008060008060008060c0878903121561574457600080fd5b863561574f81615eb9565b9550602087013567ffffffffffffffff8082111561576c57600080fd5b6157788a838b01615479565b9650604089013591508082111561578e57600080fd5b61579a8a838b01615479565b9550606089013591506157ac82615eb9565b9093506080880135925060a088013590808211156157c957600080fd5b506157d689828a01615479565b9150509295509295509295565b600080600080600080600060e0888a0312156157fe57600080fd5b873561580981615eb9565b9650602088013567ffffffffffffffff8082111561582657600080fd5b6158328b838c01615479565b975060408a013591508082111561584857600080fd5b6158548b838c01615479565b965060608a0135915061586682615eb9565b9094506080890135935060a0890135925060c0890135908082111561588a57600080fd5b506158978a828b01615479565b91505092959891949750929550565b600080604083850312156158b957600080fd5b82356158c481615eb9565b946020939093013593505050565b6000602082840312156158e457600080fd5b8135611b1681615ece565b60006020828403121561590157600080fd5b8151611b1681615ece565b60006020828403121561591e57600080fd5b5035919050565b6000806040838503121561593857600080fd5b82359150602083013561550181615eb9565b6000806040838503121561595d57600080fd5b50508035926020909101359150565b60006020828403121561597e57600080fd5b8135611b1681615edc565b60006020828403121561599b57600080fd5b8151611b1681615edc565b6000602082840312156159b857600080fd5b813567ffffffffffffffff8111156159cf57600080fd5b61204084828501615479565b6000602082840312156159ed57600080fd5b5051919050565b600080600060608486031215615a0957600080fd5b83359250602084013561553c81615eb9565b60008060008060808587031215615a3157600080fd5b843593506020850135615a4381615eb9565b93969395505050506040820135916060013590565b60008060408385031215615a6b57600080fd5b82359150602083013567ffffffffffffffff811115615a8957600080fd5b615a9585828601615479565b9150509250929050565b60008151808452615ab7816020860160208601615d9e565b601f01601f19169290920160200192915050565b60008251615add818460208701615d9e565b9190910192915050565b60008351615af9818460208801615d9e565b835190830190615b0d818360208801615d9e565b01949350505050565b7f416363657373436f6e74726f6c3a206163636f756e7420000000000000000000815260008351615b4e816017850160208801615d9e565b7001034b99036b4b9b9b4b733903937b6329607d1b6017918401918201528351615b7f816028840160208801615d9e565b01602801949350505050565b6001600160a01b0385811682528416602082015260408101839052608060608201819052600090615bbe90830184615a9f565b9695505050505050565b602081526000611b166020830184615a9f565b608081526000615bee6080830187615a9f565b8281036020840152615c008187615a9f565b6001600160a01b0395909516604084015250506060015292915050565b60a081526000615c3060a0830188615a9f565b8281036020840152615c428188615a9f565b6001600160a01b039690961660408401525050606081019290925260809091015292915050565b6020808252601690820152752cb7ba93b932903737ba103a3432903130b4b634b33360511b604082015260600190565b60208082526032908201527f4552433732313a207472616e7366657220746f206e6f6e20455243373231526560408201527131b2b4bb32b91034b6b83632b6b2b73a32b960711b606082015260800190565b60208082526031908201527f4552433732313a207472616e736665722063616c6c6572206973206e6f74206f6040820152701ddb995c881b9bdc88185c1c1c9bdd9959607a1b606082015260800190565b60008219821115615d4f57615d4f615e4b565b500190565b600082615d6357615d63615e61565b500490565b6000816000190483118215151615615d8257615d82615e4b565b500290565b600082821015615d9957615d99615e4b565b500390565b60005b83811015615db9578181015183820152602001615da1565b83811115610e525750506000910152565b600081615dd957615dd9615e4b565b506000190190565b600181811c90821680615df557607f821691505b60208210811415615e1657634e487b7160e01b600052602260045260246000fd5b50919050565b6000600019821415615e3057615e30615e4b565b5060010190565b600082615e4657615e46615e61565b500690565b634e487b7160e01b600052601160045260246000fd5b634e487b7160e01b600052601260045260246000fd5b634e487b7160e01b600052603160045260246000fd5b634e487b7160e01b600052603260045260246000fd5b634e487b7160e01b600052604160045260246000fd5b6001600160a01b0381168114610ec257600080fd5b8015158114610ec257600080fd5b6001600160e01b031981168114610ec257600080fdfefa8e4989e1d689f7bc5c4b25b87efb51fecdecb19ba62847e29c759e12a89acd048bc71fa1cb2c119c339cf9cf00a97996a19a9d991ce5fe049f2fa5459e7990f0f4b159a6e2a4815eb3ca3df080bfa70c9270662c59bcaa4479a456220183e60538d24a8b7882d7b2e36af243d4af61c23e86e3daa6cb8c887b53220b2f57207c9d7f6f02908185bffb3f7fc9afb29fd7bf93675af8fd4b655ee05c2cee1e0ea264697066735822122088c80c7d66996a967b105f695c407b05e82dcd06aa8e249d804d49fc185b503c64736f6c63430008070033",
  "immutableReferences": {},
  "source": "pragma solidity ^0.8.0;\n\nimport \"../src/ERC721/IdentityBadge.sol\";\nimport \"../src/ERC721/DistributionBadge.sol\";\n\n\ncontract ColoredID is IdentityBadge, DistributionBadge {\n\n\n    constructor(address _AddressManagerAddress, address _subsidyToken) \n        IdentityBadge(\"Colored ID\", \"ID\", \"twitter\", _AddressManagerAddress)\n        DistributionBadge(1000, 69, 0, _subsidyToken)\n    {\n    }\n\n    function _issueBadge(address _receivingAddress, string memory _pseudonym, string memory _socialHandle, address _avatarTokenAddress,\n                            uint _avatarTokenId, uint _avatarNetworkId, string memory _tokenURI)\n        internal virtual override returns(uint newId)\n        {\n       newId = super._issueBadge(_receivingAddress, _pseudonym, _socialHandle, _avatarTokenAddress,\n                            _avatarTokenId, _avatarNetworkId, _tokenURI);\n        _paySubsidy(_receivingAddress);\n        return newId;       \n     }\n\n\n}\n",
  "sourcePath": "/home/n/Desktop/PinkSlips_FrontEnd_REFORMAT/contracts/badges/ColoredID.sol",
  "compiler": {
    "name": "solc",
    "version": "0.8.7+commit.e28d00a7.Emscripten.clang"
  },
  "schemaVersion": "3.4.1",
  "updatedAt": "2021-08-19T06:45:05.525Z",
  "networkType": "ethereum",
  "devdoc": {
    "kind": "dev",
    "methods": {
      "approve(address,uint256)": {
        "details": "See {IERC721-approve}."
      },
      "approveUserTransfer(uint256)": {
        "details": "//// Transfer rules                                                                           ////"
      },
      "balanceOf(address)": {
        "details": "See {IERC721-balanceOf}."
      },
      "getApproved(uint256)": {
        "details": "See {IERC721-getApproved}."
      },
      "getRoleAdmin(bytes32)": {
        "details": "Returns the admin role that controls `role`. See {grantRole} and {revokeRole}. To change a role's admin, use {_setRoleAdmin}."
      },
      "getRoleMember(bytes32,uint256)": {
        "details": "Returns one of the accounts that have `role`. `index` must be a value between 0 and {getRoleMemberCount}, non-inclusive. Role bearers are not sorted in any particular way, and their ordering may change at any point. WARNING: When using {getRoleMember} and {getRoleMemberCount}, make sure you perform all queries on the same block. See the following https://forum.openzeppelin.com/t/iterating-over-elements-on-enumerableset-in-openzeppelin-contracts/2296[forum post] for more information."
      },
      "getRoleMemberCount(bytes32)": {
        "details": "Returns the number of accounts that have `role`. Can be used together with {getRoleMember} to enumerate all bearers of a role."
      },
      "grantRole(bytes32,address)": {
        "details": "Overload {grantRole} to track enumerable memberships"
      },
      "hasRole(bytes32,address)": {
        "details": "Returns `true` if `account` has been granted `role`."
      },
      "isApprovedForAll(address,address)": {
        "details": "See {IERC721-isApprovedForAll}."
      },
      "issueBadge(address,string,string,address,uint256,string)": {
        "details": "//// Issuance Desk                                                                            ////"
      },
      "name()": {
        "details": "See {IERC721Metadata-name}."
      },
      "ownerOf(uint256)": {
        "details": "See {IERC721-ownerOf}."
      },
      "pause()": {
        "details": "//// Maintanence\\\\\\\\\\\\\\\\\\\\\\\\\\\\\\\\\\\\\\\\\\\\\\\\\\\\\\                                                   ////"
      },
      "paused()": {
        "details": "Returns true if the contract is paused, and false otherwise."
      },
      "renounceRole(bytes32,address)": {
        "details": "Overload {renounceRole} to track enumerable memberships"
      },
      "revokeRole(bytes32,address)": {
        "details": "Overload {revokeRole} to track enumerable memberships"
      },
      "safeTransferFrom(address,address,uint256)": {
        "details": "See {IERC721-safeTransferFrom}."
      },
      "safeTransferFrom(address,address,uint256,bytes)": {
        "details": "See {IERC721-safeTransferFrom}."
      },
      "setApprovalForAll(address,bool)": {
        "details": "See {IERC721-setApprovalForAll}."
      },
      "symbol()": {
        "details": "See {IERC721Metadata-symbol}."
      },
      "tokenByIndex(uint256)": {
        "details": "See {IERC721Enumerable-tokenByIndex}."
      },
      "tokenOfOwnerByIndex(address,uint256)": {
        "details": "See {IERC721Enumerable-tokenOfOwnerByIndex}."
      },
      "totalSupply()": {
        "details": "See {IERC721Enumerable-totalSupply}."
      },
      "transferFrom(address,address,uint256)": {
        "details": "See {IERC721-transferFrom}."
      }
    },
    "version": 1
  },
  "userdoc": {
    "kind": "user",
    "methods": {},
    "version": 1
  }
}