{
  "contractName": "ConsensusMachine",
  "abi": [
    {
      "inputs": [
        {
          "internalType": "address",
          "name": "juryDAOAgent",
          "type": "address"
        },
        {
          "internalType": "address",
          "name": "gavelDAOAgent",
          "type": "address"
        },
        {
          "internalType": "address",
          "name": "theCourtAddress",
          "type": "address"
        }
      ],
      "stateMutability": "nonpayable",
      "type": "constructor"
    },
    {
      "anonymous": false,
      "inputs": [
        {
          "indexed": true,
          "internalType": "bytes32",
          "name": "role",
          "type": "bytes32"
        },
        {
          "indexed": true,
          "internalType": "bytes32",
          "name": "previousAdminRole",
          "type": "bytes32"
        },
        {
          "indexed": true,
          "internalType": "bytes32",
          "name": "newAdminRole",
          "type": "bytes32"
        }
      ],
      "name": "RoleAdminChanged",
      "type": "event"
    },
    {
      "anonymous": false,
      "inputs": [
        {
          "indexed": true,
          "internalType": "bytes32",
          "name": "role",
          "type": "bytes32"
        },
        {
          "indexed": true,
          "internalType": "address",
          "name": "account",
          "type": "address"
        },
        {
          "indexed": true,
          "internalType": "address",
          "name": "sender",
          "type": "address"
        }
      ],
      "name": "RoleGranted",
      "type": "event"
    },
    {
      "anonymous": false,
      "inputs": [
        {
          "indexed": true,
          "internalType": "bytes32",
          "name": "role",
          "type": "bytes32"
        },
        {
          "indexed": true,
          "internalType": "address",
          "name": "account",
          "type": "address"
        },
        {
          "indexed": true,
          "internalType": "address",
          "name": "sender",
          "type": "address"
        }
      ],
      "name": "RoleRevoked",
      "type": "event"
    },
    {
      "inputs": [],
      "name": "DEFAULT_ADMIN_ROLE",
      "outputs": [
        {
          "internalType": "bytes32",
          "name": "",
          "type": "bytes32"
        }
      ],
      "stateMutability": "view",
      "type": "function"
    },
    {
      "inputs": [],
      "name": "GAVELS_BAILIFF",
      "outputs": [
        {
          "internalType": "bytes32",
          "name": "",
          "type": "bytes32"
        }
      ],
      "stateMutability": "view",
      "type": "function"
    },
    {
      "inputs": [],
      "name": "GavelVote",
      "outputs": [
        {
          "internalType": "bool",
          "name": "",
          "type": "bool"
        }
      ],
      "stateMutability": "view",
      "type": "function"
    },
    {
      "inputs": [],
      "name": "JERK_ROLE",
      "outputs": [
        {
          "internalType": "bytes32",
          "name": "",
          "type": "bytes32"
        }
      ],
      "stateMutability": "view",
      "type": "function"
    },
    {
      "inputs": [],
      "name": "JURY_BAILIFF",
      "outputs": [
        {
          "internalType": "bytes32",
          "name": "",
          "type": "bytes32"
        }
      ],
      "stateMutability": "view",
      "type": "function"
    },
    {
      "inputs": [],
      "name": "JuryVote",
      "outputs": [
        {
          "internalType": "bool",
          "name": "",
          "type": "bool"
        }
      ],
      "stateMutability": "view",
      "type": "function"
    },
    {
      "inputs": [],
      "name": "MINI_BAILIFF_ROLE",
      "outputs": [
        {
          "internalType": "bytes32",
          "name": "",
          "type": "bytes32"
        }
      ],
      "stateMutability": "view",
      "type": "function"
    },
    {
      "inputs": [],
      "name": "THE_COURT_ROLE",
      "outputs": [
        {
          "internalType": "bytes32",
          "name": "",
          "type": "bytes32"
        }
      ],
      "stateMutability": "view",
      "type": "function"
    },
    {
      "inputs": [
        {
          "internalType": "bytes32",
          "name": "role",
          "type": "bytes32"
        }
      ],
      "name": "getRoleAdmin",
      "outputs": [
        {
          "internalType": "bytes32",
          "name": "",
          "type": "bytes32"
        }
      ],
      "stateMutability": "view",
      "type": "function"
    },
    {
      "inputs": [
        {
          "internalType": "bytes32",
          "name": "role",
          "type": "bytes32"
        },
        {
          "internalType": "uint256",
          "name": "index",
          "type": "uint256"
        }
      ],
      "name": "getRoleMember",
      "outputs": [
        {
          "internalType": "address",
          "name": "",
          "type": "address"
        }
      ],
      "stateMutability": "view",
      "type": "function"
    },
    {
      "inputs": [
        {
          "internalType": "bytes32",
          "name": "role",
          "type": "bytes32"
        }
      ],
      "name": "getRoleMemberCount",
      "outputs": [
        {
          "internalType": "uint256",
          "name": "",
          "type": "uint256"
        }
      ],
      "stateMutability": "view",
      "type": "function"
    },
    {
      "inputs": [
        {
          "internalType": "bytes32",
          "name": "role",
          "type": "bytes32"
        },
        {
          "internalType": "address",
          "name": "account",
          "type": "address"
        }
      ],
      "name": "grantRole",
      "outputs": [],
      "stateMutability": "nonpayable",
      "type": "function"
    },
    {
      "inputs": [
        {
          "internalType": "bytes32",
          "name": "role",
          "type": "bytes32"
        },
        {
          "internalType": "address",
          "name": "account",
          "type": "address"
        }
      ],
      "name": "hasRole",
      "outputs": [
        {
          "internalType": "bool",
          "name": "",
          "type": "bool"
        }
      ],
      "stateMutability": "view",
      "type": "function"
    },
    {
      "inputs": [],
      "name": "jerkSanctions",
      "outputs": [
        {
          "internalType": "bool",
          "name": "",
          "type": "bool"
        }
      ],
      "stateMutability": "view",
      "type": "function"
    },
    {
      "inputs": [
        {
          "internalType": "bytes32",
          "name": "role",
          "type": "bytes32"
        },
        {
          "internalType": "address",
          "name": "account",
          "type": "address"
        }
      ],
      "name": "renounceRole",
      "outputs": [],
      "stateMutability": "nonpayable",
      "type": "function"
    },
    {
      "inputs": [
        {
          "internalType": "bytes32",
          "name": "role",
          "type": "bytes32"
        },
        {
          "internalType": "address",
          "name": "account",
          "type": "address"
        }
      ],
      "name": "revokeRole",
      "outputs": [],
      "stateMutability": "nonpayable",
      "type": "function"
    },
    {
      "inputs": [
        {
          "internalType": "bytes4",
          "name": "interfaceId",
          "type": "bytes4"
        }
      ],
      "name": "supportsInterface",
      "outputs": [
        {
          "internalType": "bool",
          "name": "",
          "type": "bool"
        }
      ],
      "stateMutability": "view",
      "type": "function"
    },
    {
      "inputs": [
        {
          "internalType": "bool",
          "name": "_vote",
          "type": "bool"
        }
      ],
      "name": "vote",
      "outputs": [],
      "stateMutability": "nonpayable",
      "type": "function"
    },
    {
      "inputs": [],
      "name": "resetVote",
      "outputs": [],
      "stateMutability": "nonpayable",
      "type": "function"
    },
    {
      "inputs": [
        {
          "internalType": "bytes32",
          "name": "ROLE_TO_UPDATE",
          "type": "bytes32"
        },
        {
          "internalType": "address",
          "name": "newRoleHolder",
          "type": "address"
        }
      ],
      "name": "resetSingleRole",
      "outputs": [],
      "stateMutability": "nonpayable",
      "type": "function"
    },
    {
      "inputs": [
        {
          "internalType": "address",
          "name": "addressToPurge",
          "type": "address"
        }
      ],
      "name": "purgeUser",
      "outputs": [],
      "stateMutability": "nonpayable",
      "type": "function"
    },
    {
      "inputs": [
        {
          "internalType": "bool",
          "name": "areYouSure",
          "type": "bool"
        }
      ],
      "name": "purgeSelf",
      "outputs": [
        {
          "internalType": "bool",
          "name": "",
          "type": "bool"
        }
      ],
      "stateMutability": "nonpayable",
      "type": "function"
    },
    {
      "inputs": [],
      "name": "toggleJerkSanctions",
      "outputs": [],
      "stateMutability": "nonpayable",
      "type": "function"
    }
  ],
  "bytecode": "0x60806040526002805462ffffff191690553480156200001d57600080fd5b50604051620018d4380380620018d48339810160408190526200004091620002e1565b6200004d60008262000133565b620000797f0538d24a8b7882d7b2e36af243d4af61c23e86e3daa6cb8c887b53220b2f57208262000133565b620000a57f048bc71fa1cb2c119c339cf9cf00a97996a19a9d991ce5fe049f2fa5459e79908362000133565b620000d17ffa8e4989e1d689f7bc5c4b25b87efb51fecdecb19ba62847e29c759e12a89acd8462000133565b620000fd7ff0f4b159a6e2a4815eb3ca3df080bfa70c9270662c59bcaa4479a456220183e68262000133565b6200012a7f7c9d7f6f02908185bffb3f7fc9afb29fd7bf93675af8fd4b655ee05c2cee1e0e600062000133565b5050506200032a565b6200014a82826200017660201b620008b41760201c565b600082815260016020908152604090912062000171918390620008be62000186821b17901c565b505050565b620001828282620001a6565b5050565b60006200019d836001600160a01b03841662000230565b90505b92915050565b620001b282826200027f565b62000182576000828152602081815260408083206001600160a01b03851684529091529020805460ff19166001179055620001ec620002a8565b6001600160a01b0316816001600160a01b0316837f2f8788117e7eff1d82e926ec794901d17c78024a50270940304540a733656f0d60405160405180910390a45050565b60006200023e8383620002ac565b6200027657508154600181810184556000848152602080822090930184905584548482528286019093526040902091909155620001a0565b506000620001a0565b6000918252602082815260408084206001600160a01b0393909316845291905290205460ff1690565b3390565b60009081526001919091016020526040902054151590565b80516001600160a01b0381168114620002dc57600080fd5b919050565b600080600060608486031215620002f6578283fd5b6200030184620002c4565b92506200031160208501620002c4565b91506200032160408501620002c4565b90509250925092565b61159a806200033a6000396000f3fe608060405234801561001057600080fd5b506004361061014d5760003560e01c80639010d07c116100c3578063cb6d55741161007c578063cb6d55741461027a578063cce843921461028d578063cf4ece1514610295578063d547741f1461029d578063e9a53230146102b0578063ff7e88ec146102b85761014d565b80639010d07c1461021c57806391d148541461023c578063a217fddf1461024f578063a32c5e5914610257578063a78e746f1461025f578063ca15c873146102675761014d565b80632fb56585116101155780632fb56585146101cb578063329a8cfa146101d357806336568abe146101db57806336e969a2146101ee5780634b9f5c98146101f65780635f88b566146102095761014d565b806301ffc9a7146101525780630a726d141461017b5780632436329d14610190578063248a9ca3146101a55780632f2ff15d146101b8575b600080fd5b6101656101603660046111a7565b6102c0565b6040516101729190611270565b60405180910390f35b61018e6101893660046110e7565b6102ed565b005b6101986103d5565b604051610172919061127b565b6101986101b336600461113f565b6103e7565b61018e6101c6366004611157565b6103fc565b610165610423565b61018e610432565b61018e6101e9366004611157565b6104ac565b61018e6104ce565b61018e61020436600461111f565b61054b565b61016561021736600461111f565b610678565b61022f61022a366004611186565b6106a0565b604051610172919061125c565b61016561024a366004611157565b6106c1565b6101986106ea565b6101986106ef565b610165610701565b61019861027536600461113f565b61070a565b61018e610288366004611157565b610721565b610198610842565b610198610866565b61018e6102ab366004611157565b61088a565b610198610894565b6101656108a6565b60006001600160e01b03198216635a05180f60e01b14806102e557506102e5826108d3565b90505b919050565b610305600080516020611525833981519152336106c1565b806103235750610323600080516020611505833981519152336106c1565b806103415750610341600080516020611545833981519152336106c1565b61034a57600080fd5b600254610100810460ff90811615156201000090920416151514600114806103855750610385600080516020611545833981519152336106c1565b6103aa5760405162461bcd60e51b81526004016103a190611353565b60405180910390fd5b6001600160a01b0381163314156103c057600080fd5b6103c9816108f8565b506103d261094d565b50565b60008051602061150583398151915281565b60009081526020819052604090206001015490565b610406828261095b565b600082815260016020526040902061041e90826108be565b505050565b60025462010000900460ff1681565b61044a600080516020611545833981519152336106c1565b806104685750610468600080516020611525833981519152336106c1565b806104865750610486600080516020611505833981519152336106c1565b6104a25760405162461bcd60e51b81526004016103a19061137d565b6104aa61094d565b565b6104b6828261097f565b600082815260016020526040902061041e90826109c1565b6104e6600080516020611505833981519152336106c1565b806105045750610504600080516020611545833981519152336106c1565b6105205760405162461bcd60e51b81526004016103a1906113ad565b60025460ff1615156001141561053f576002805460ff191690556104aa565b6002805460ff19169055565b610563600080516020611545833981519152336106c1565b806105815750610581600080516020611525833981519152336106c1565b8061059f575061059f600080516020611505833981519152336106c1565b6105bb5760405162461bcd60e51b81526004016103a19061137d565b6105d3600080516020611545833981519152336106c1565b1561060c5760028054610100831515810261ff00199092169190911790810460ff161515620100000262ff0000199091161790556103d2565b610624600080516020611525833981519152336106c1565b15610641576002805461ff001916610100831515021790556103d2565b610659600080516020611505833981519152336106c1565b156103d25760028054821515620100000262ff00001990911617905550565b6000600182151514156106985761068e336109d6565b50600190506102e8565b5060006102e8565b60008281526001602052604081206106b89083610a2b565b90505b92915050565b6000918252602082815260408084206001600160a01b0393909316845291905290205460ff1690565b600081565b60008051602061154583398151915281565b60025460ff1681565b60008181526001602052604081206102e590610a37565b610739600080516020611525833981519152336106c1565b806107575750610757600080516020611505833981519152336106c1565b806107755750610775600080516020611545833981519152336106c1565b61077e57600080fd5b600254610100810460ff90811615156201000090920416151514600114806107b957506107b9600080516020611545833981519152336106c1565b6107d55760405162461bcd60e51b81526004016103a190611353565b6107de82610a42565b50604051632f2ff15d60e01b81523090632f2ff15d906108049085908590600401611284565b600060405180830381600087803b15801561081e57600080fd5b505af1158015610832573d6000803e3d6000fd5b5050505061083e61094d565b5050565b7f7c9d7f6f02908185bffb3f7fc9afb29fd7bf93675af8fd4b655ee05c2cee1e0e81565b7ff0f4b159a6e2a4815eb3ca3df080bfa70c9270662c59bcaa4479a456220183e681565b6104b68282610bb7565b60008051602061152583398151915281565b600254610100900460ff1681565b61083e8282610bd6565b60006106b8836001600160a01b038416610c5b565b60006001600160e01b03198216637965db0b60e01b14806102e557506102e582610ca5565b60006109126000805160206115058339815191528361088a565b61092a6000805160206115258339815191528361088a565b6109426000805160206115458339815191528361088a565b6102e860008361088a565b6002805462ffff0019169055565b610964826103e7565b61097581610970610cbe565b610cc2565b61041e8383610bd6565b610987610cbe565b6001600160a01b0316816001600160a01b0316146109b75760405162461bcd60e51b81526004016103a1906113da565b61083e8282610d26565b60006106b8836001600160a01b038416610da9565b60006109f0600080516020611505833981519152836104ac565b610a08600080516020611525833981519152836104ac565b610a20600080516020611545833981519152836104ac565b6102e86000836104ac565b60006106b88383610ec0565b60006102e582610f19565b60405163ca15c87360e01b81526000908190309063ca15c87390610a6a90869060040161127b565b60206040518083038186803b158015610a8257600080fd5b505afa158015610a96573d6000803e3d6000fd5b505050506040513d601f19601f82011682018060405250810190610aba91906111cf565b905060005b81811015610bad57604051632404341f60e21b81526000903090639010d07c90610aef908890869060040161129b565b60206040518083038186803b158015610b0757600080fd5b505afa158015610b1b573d6000803e3d6000fd5b505050506040513d601f19601f82011682018060405250810190610b3f9190611103565b60405163d547741f60e01b8152909150309063d547741f90610b679088908590600401611284565b600060405180830381600087803b158015610b8157600080fd5b505af1158015610b95573d6000803e3d6000fd5b50505050508080610ba5906114be565b915050610abf565b5060019392505050565b610bc0826103e7565b610bcc81610970610cbe565b61041e8383610d26565b610be082826106c1565b61083e576000828152602081815260408083206001600160a01b03851684529091529020805460ff19166001179055610c17610cbe565b6001600160a01b0316816001600160a01b0316837f2f8788117e7eff1d82e926ec794901d17c78024a50270940304540a733656f0d60405160405180910390a45050565b6000610c678383610f1d565b610c9d575081546001818101845560008481526020808220909301849055845484825282860190935260409020919091556106bb565b5060006106bb565b6001600160e01b031981166301ffc9a760e01b14919050565b3390565b610ccc82826106c1565b61083e57610ce4816001600160a01b03166014610f35565b610cef836020610f35565b604051602001610d009291906111e7565b60408051601f198184030181529082905262461bcd60e51b82526103a1916004016112a9565b610d3082826106c1565b1561083e576000828152602081815260408083206001600160a01b03851684529091529020805460ff19169055610d65610cbe565b6001600160a01b0316816001600160a01b0316837ff6391f5c32d9c69d2a47ea670b442974b53935d1edc7fd64eb21e047a839171b60405160405180910390a45050565b60008181526001830160205260408120548015610eb6576000610dcd600183611460565b8554909150600090610de190600190611460565b90506000866000018281548110610e0857634e487b7160e01b600052603260045260246000fd5b9060005260206000200154905080876000018481548110610e3957634e487b7160e01b600052603260045260246000fd5b600091825260208083209091019290925582815260018901909152604090208490558654879080610e7a57634e487b7160e01b600052603160045260246000fd5b600190038181906000526020600020016000905590558660010160008781526020019081526020016000206000905560019450505050506106bb565b60009150506106bb565b81546000908210610ee35760405162461bcd60e51b81526004016103a1906112dc565b826000018281548110610f0657634e487b7160e01b600052603260045260246000fd5b9060005260206000200154905092915050565b5490565b60009081526001919091016020526040902054151590565b60606000610f44836002611441565b610f4f906002611429565b67ffffffffffffffff811115610f7557634e487b7160e01b600052604160045260246000fd5b6040519080825280601f01601f191660200182016040528015610f9f576020820181803683370190505b509050600360fc1b81600081518110610fc857634e487b7160e01b600052603260045260246000fd5b60200101906001600160f81b031916908160001a905350600f60fb1b8160018151811061100557634e487b7160e01b600052603260045260246000fd5b60200101906001600160f81b031916908160001a9053506000611029846002611441565b611034906001611429565b90505b60018111156110c8576f181899199a1a9b1b9c1cb0b131b232b360811b85600f166010811061107657634e487b7160e01b600052603260045260246000fd5b1a60f81b82828151811061109a57634e487b7160e01b600052603260045260246000fd5b60200101906001600160f81b031916908160001a90535060049490941c936110c1816114a7565b9050611037565b5083156106b85760405162461bcd60e51b81526004016103a19061131e565b6000602082840312156110f8578081fd5b81356106b8816114ef565b600060208284031215611114578081fd5b81516106b8816114ef565b600060208284031215611130578081fd5b813580151581146106b8578182fd5b600060208284031215611150578081fd5b5035919050565b60008060408385031215611169578081fd5b82359150602083013561117b816114ef565b809150509250929050565b60008060408385031215611198578182fd5b50508035926020909101359150565b6000602082840312156111b8578081fd5b81356001600160e01b0319811681146106b8578182fd5b6000602082840312156111e0578081fd5b5051919050565b60007f416363657373436f6e74726f6c3a206163636f756e74200000000000000000008252835161121f816017850160208801611477565b7001034b99036b4b9b9b4b733903937b6329607d1b6017918401918201528351611250816028840160208801611477565b01602801949350505050565b6001600160a01b0391909116815260200190565b901515815260200190565b90815260200190565b9182526001600160a01b0316602082015260400190565b918252602082015260400190565b60006020825282518060208401526112c8816040850160208701611477565b601f01601f19169190910160400192915050565b60208082526022908201527f456e756d657261626c655365743a20696e646578206f7574206f6620626f756e604082015261647360f01b606082015260800190565b6020808252818101527f537472696e67733a20686578206c656e67746820696e73756666696369656e74604082015260600190565b60208082526010908201526f436f757274204d75737420416772656560801b604082015260600190565b6020808252601690820152752cb7ba93b932903737ba103a3432903130b4b634b33360511b604082015260600190565b602080825260139082015272596f75277265206e6f7420746865204a75727960681b604082015260600190565b6020808252602f908201527f416363657373436f6e74726f6c3a2063616e206f6e6c792072656e6f756e636560408201526e103937b632b9903337b91039b2b63360891b606082015260800190565b6000821982111561143c5761143c6114d9565b500190565b600081600019048311821515161561145b5761145b6114d9565b500290565b600082821015611472576114726114d9565b500390565b60005b8381101561149257818101518382015260200161147a565b838111156114a1576000848401525b50505050565b6000816114b6576114b66114d9565b506000190190565b60006000198214156114d2576114d26114d9565b5060010190565b634e487b7160e01b600052601160045260246000fd5b6001600160a01b03811681146103d257600080fdfefa8e4989e1d689f7bc5c4b25b87efb51fecdecb19ba62847e29c759e12a89acd048bc71fa1cb2c119c339cf9cf00a97996a19a9d991ce5fe049f2fa5459e79900538d24a8b7882d7b2e36af243d4af61c23e86e3daa6cb8c887b53220b2f5720a2646970667358221220d57a847a182e87ac1dab3c79b63e3e2d30e40fc43f2b6820061b43c23bb76fbd64736f6c63430008000033",
  "immutableReferences": {},
  "source": "    pragma solidity ^0.8.0;\n\n    import \"@openzeppelin/contracts/access/AccessControlEnumerable.sol\";\n   \n    contract ConsensusMachine is AccessControlEnumerable {\n       \n        bytes32 public constant THE_COURT_ROLE = keccak256(\"THE_COURT_ROLE\");\n        bytes32 public constant GAVELS_BAILIFF = keccak256(\"GAVELS_BAILIFF\");\n        bytes32 public constant JURY_BAILIFF = keccak256(\"JURY_BAILIFF\");\n        bytes32 public constant MINI_BAILIFF_ROLE = keccak256(\"MINI_BAILIFF_ROLE\");\n        bytes32 public constant JERK_ROLE = keccak256(\"JERK_ROLE\");\n\n        //To generate Consensus (false by default)\n        bool public jerkSanctions = false;\n\n        bool public GavelVote = false;\n        bool public JuryVote = false;\n\n        constructor(address juryDAOAgent, address gavelDAOAgent, address theCourtAddress) {\n            _setupRole(DEFAULT_ADMIN_ROLE, theCourtAddress);\n            _setupRole(THE_COURT_ROLE, theCourtAddress);\n            _setupRole(GAVELS_BAILIFF, gavelDAOAgent);\n            _setupRole(JURY_BAILIFF, juryDAOAgent);\n            _setupRole(MINI_BAILIFF_ROLE, theCourtAddress);\n            _setupRole(JERK_ROLE, address(0));\n            \n        }\n    /////////////////////////////////////////////////////////////////////////////////////////////////\n    /////////////////////////////////////////////////////////////////////////////////////////////////\n    /// @dev                                                                                     ////\n    /// Permission Modifiers                                                                     ////\n    /////////////////////////////////////////////////////////////////////////////////////////////////\n    /////////////////////////////////////////////////////////////////////////////////////////////////\n\n        modifier BAILIFF {\n            require(hasRole(THE_COURT_ROLE, msg.sender)\n                    || hasRole(GAVELS_BAILIFF, msg.sender)\n                    || hasRole(JURY_BAILIFF, msg.sender),\n                    \"You're not the bailiff\");\n            _;\n        }\n\n        modifier NOT_JERK {\n            if (jerkSanctions == true) {\n                require(!hasRole(JERK_ROLE, msg.sender));\n            }\n            _;\n        }\n\n        modifier MINI_BAILIFF {\n            require(hasRole(THE_COURT_ROLE, msg.sender)\n                    || hasRole(GAVELS_BAILIFF, msg.sender)\n                    || hasRole(JURY_BAILIFF, msg.sender)\n                    || hasRole(MINI_BAILIFF_ROLE, msg.sender),\n                    \"You're not the bailiff\");\n            _;\n        }\n\n        modifier GAVELS {\n            require(hasRole(GAVELS_BAILIFF, msg.sender)\n                    || hasRole(THE_COURT_ROLE, msg.sender)\n                    , \"You're not the Gavels\");\n            _;\n        }\n\n        modifier JURY {\n            require(hasRole(JURY_BAILIFF, msg.sender)\n                    || hasRole(THE_COURT_ROLE, msg.sender), \"You're not the Jury\");\n            _;\n        }\n\n        // Requires a YES vote from both DAOs\n        modifier THE_COURT {\n            require(hasRole(GAVELS_BAILIFF, msg.sender)\n                    || hasRole(JURY_BAILIFF, msg.sender)\n                    || hasRole(THE_COURT_ROLE, msg.sender));\n            require((GavelVote == JuryVote == true)\n                    || hasRole(THE_COURT_ROLE, msg.sender)\n                    , \"Court Must Agree\");\n            _;\n        }\n\n\n    /////////////////////////////////////////////////////////////////////////////////////////////////\n    /////////////////////////////////////////////////////////////////////////////////////////////////\n    /// @dev                                                                                     ////\n    /// Consensus Machine                                                                        ////\n    /////////////////////////////////////////////////////////////////////////////////////////////////\n    /////////////////////////////////////////////////////////////////////////////////////////////////\n\n        function vote(bool _vote) public BAILIFF {\n\n            if (hasRole(THE_COURT_ROLE, msg.sender)) {\n                \n                GavelVote = _vote;\n                JuryVote = GavelVote;\n            \n            } else if (hasRole(GAVELS_BAILIFF, msg.sender)) {\n                GavelVote = _vote;\n            } else if (hasRole(JURY_BAILIFF, msg.sender)) {\n                JuryVote = _vote;\n            }\n        \n        }\n\n        function resetVote() public BAILIFF { \n            _resetVote();\n        }\n\n\n        function _resetVote() internal { \n            GavelVote = false;\n            JuryVote = false;\n        }\n\n    /////////////////////////////////////////////////////////////////////////////////////////////////\n    /////////////////////////////////////////////////////////////////////////////////////////////////\n    /// @dev  CLEAR ROLES                                                                        ////\n    /////////////////////////////////////////////////////////////////////////////////////////////////\n    /////////////////////////////////////////////////////////////////////////////////////////////////\n\n        function _clearRole(bytes32 ROLE_TO_CLEAR) internal returns(bool) {\n            // Clear Roles\n            uint numberOfRoleHodlers = this.getRoleMemberCount(ROLE_TO_CLEAR);\n            uint index = 0;\n            for (index = 0; index < numberOfRoleHodlers; index++) {\n                address roleHolder = this.getRoleMember(ROLE_TO_CLEAR, index);\n                this.revokeRole(ROLE_TO_CLEAR, roleHolder);\n            }\n            return true;\n\n            \n        }\n\n        function _purgeUser(address addressToPurge) internal returns(bool) {\n\n            revokeRole(JURY_BAILIFF, addressToPurge);\n            revokeRole(GAVELS_BAILIFF, addressToPurge);\n            revokeRole(THE_COURT_ROLE, addressToPurge);\n            revokeRole(DEFAULT_ADMIN_ROLE, addressToPurge);\n        }\n\n\n        function _purgeSelf(address addressToPurge) internal returns(bool) {\n\n            renounceRole(JURY_BAILIFF, addressToPurge);\n            renounceRole(GAVELS_BAILIFF, addressToPurge);\n            renounceRole(THE_COURT_ROLE, addressToPurge);\n            renounceRole(DEFAULT_ADMIN_ROLE, addressToPurge);\n        }\n\n        function resetSingleRole(bytes32 ROLE_TO_UPDATE, address newRoleHolder) public THE_COURT {\n            _clearRole(ROLE_TO_UPDATE);\n            this.grantRole(ROLE_TO_UPDATE, newRoleHolder);\n            _resetVote();\n        }\n\n        function purgeUser(address addressToPurge) public THE_COURT {\n            require(addressToPurge != msg.sender);\n            _purgeUser(addressToPurge);\n            _resetVote();\n        }\n\n        function purgeSelf(bool areYouSure) public returns (bool){\n            if (areYouSure == true) {\n                _purgeSelf(msg.sender);\n                return true;\n            } else {return false;}\n        }\n\n        function toggleJerkSanctions() public JURY {\n            if(jerkSanctions == true) {\n                jerkSanctions = false;\n            } else { jerkSanctions = false; }\n        }\n\n    /////////////////////////////////////////////////////////////////////////////////////////////////\n    /////////////////////////////////////////////////////////////////////////////////////////////////\n    /// @dev  END                                                                                ////\n    /////////////////////////////////////////////////////////////////////////////////////////////////\n    /////////////////////////////////////////////////////////////////////////////////////////////////\n    }\n\n\n    /////////////////////////////////////////////////////////////////////////////////////////////////\n    /////////////////////////////////////////////////////////////////////////////////////////////////\n    /// @dev                                                                                     ////\n    /// @dev                                                                                     ////\n    /// @dev                                                                                     ////\n    /////////////////////////////////////////////////////////////////////////////////////////////////\n    /////////////////////////////////////////////////////////////////////////////////////////////////\n\n    /////////////////////////////////////////////////////////////////////////////////////////////////\n    /////////////////////////////////////////////////////////////////////////////////////////////////\n    /// @dev                                                                                     ////\n    /// @dev                                                                                     ////\n    /////////////////////////////////////////////////////////////////////////////////////////////////\n    /////////////////////////////////////////////////////////////////////////////////////////////////",
  "sourcePath": "/home/n/Desktop/PinkSlips_FrontEnd_REFORMAT/contracts/src/ConsensusMachine.sol",
  "compiler": {
    "name": "solc",
    "version": "0.8.0+commit.c7dfd78e.Emscripten.clang"
  },
  "schemaVersion": "3.4.1",
  "updatedAt": "2021-07-29T07:01:15.772Z",
  "devdoc": {
    "kind": "dev",
    "methods": {
      "getRoleAdmin(bytes32)": {
        "details": "Returns the admin role that controls `role`. See {grantRole} and {revokeRole}. To change a role's admin, use {_setRoleAdmin}."
      },
      "getRoleMember(bytes32,uint256)": {
        "details": "Returns one of the accounts that have `role`. `index` must be a value between 0 and {getRoleMemberCount}, non-inclusive. Role bearers are not sorted in any particular way, and their ordering may change at any point. WARNING: When using {getRoleMember} and {getRoleMemberCount}, make sure you perform all queries on the same block. See the following https://forum.openzeppelin.com/t/iterating-over-elements-on-enumerableset-in-openzeppelin-contracts/2296[forum post] for more information."
      },
      "getRoleMemberCount(bytes32)": {
        "details": "Returns the number of accounts that have `role`. Can be used together with {getRoleMember} to enumerate all bearers of a role."
      },
      "grantRole(bytes32,address)": {
        "details": "Overload {grantRole} to track enumerable memberships"
      },
      "hasRole(bytes32,address)": {
        "details": "Returns `true` if `account` has been granted `role`."
      },
      "renounceRole(bytes32,address)": {
        "details": "Overload {renounceRole} to track enumerable memberships"
      },
      "revokeRole(bytes32,address)": {
        "details": "Overload {revokeRole} to track enumerable memberships"
      },
      "supportsInterface(bytes4)": {
        "details": "See {IERC165-supportsInterface}."
      },
      "vote(bool)": {
        "details": "//// Consensus Machine                                                                        ////"
      }
    },
    "version": 1
  },
  "userdoc": {
    "kind": "user",
    "methods": {},
    "version": 1
  }
}