{
  "contractName": "ConsensusMachine",
  "abi": [
    {
      "inputs": [
        {
          "internalType": "address",
          "name": "juryDAOAgent",
          "type": "address"
        },
        {
          "internalType": "address",
          "name": "gavelDAOAgent",
          "type": "address"
        },
        {
          "internalType": "address",
          "name": "theCourtAddress",
          "type": "address"
        }
      ],
      "stateMutability": "nonpayable",
      "type": "constructor"
    },
    {
      "anonymous": false,
      "inputs": [
        {
          "indexed": true,
          "internalType": "bytes32",
          "name": "role",
          "type": "bytes32"
        },
        {
          "indexed": true,
          "internalType": "bytes32",
          "name": "previousAdminRole",
          "type": "bytes32"
        },
        {
          "indexed": true,
          "internalType": "bytes32",
          "name": "newAdminRole",
          "type": "bytes32"
        }
      ],
      "name": "RoleAdminChanged",
      "type": "event"
    },
    {
      "anonymous": false,
      "inputs": [
        {
          "indexed": true,
          "internalType": "bytes32",
          "name": "role",
          "type": "bytes32"
        },
        {
          "indexed": true,
          "internalType": "address",
          "name": "account",
          "type": "address"
        },
        {
          "indexed": true,
          "internalType": "address",
          "name": "sender",
          "type": "address"
        }
      ],
      "name": "RoleGranted",
      "type": "event"
    },
    {
      "anonymous": false,
      "inputs": [
        {
          "indexed": true,
          "internalType": "bytes32",
          "name": "role",
          "type": "bytes32"
        },
        {
          "indexed": true,
          "internalType": "address",
          "name": "account",
          "type": "address"
        },
        {
          "indexed": true,
          "internalType": "address",
          "name": "sender",
          "type": "address"
        }
      ],
      "name": "RoleRevoked",
      "type": "event"
    },
    {
      "inputs": [],
      "name": "DEFAULT_ADMIN_ROLE",
      "outputs": [
        {
          "internalType": "bytes32",
          "name": "",
          "type": "bytes32"
        }
      ],
      "stateMutability": "view",
      "type": "function"
    },
    {
      "inputs": [],
      "name": "GAVELS_BAILIFF",
      "outputs": [
        {
          "internalType": "bytes32",
          "name": "",
          "type": "bytes32"
        }
      ],
      "stateMutability": "view",
      "type": "function"
    },
    {
      "inputs": [],
      "name": "GavelVote",
      "outputs": [
        {
          "internalType": "bool",
          "name": "",
          "type": "bool"
        }
      ],
      "stateMutability": "view",
      "type": "function"
    },
    {
      "inputs": [],
      "name": "JERK_ROLE",
      "outputs": [
        {
          "internalType": "bytes32",
          "name": "",
          "type": "bytes32"
        }
      ],
      "stateMutability": "view",
      "type": "function"
    },
    {
      "inputs": [],
      "name": "JURY_BAILIFF",
      "outputs": [
        {
          "internalType": "bytes32",
          "name": "",
          "type": "bytes32"
        }
      ],
      "stateMutability": "view",
      "type": "function"
    },
    {
      "inputs": [],
      "name": "JuryVote",
      "outputs": [
        {
          "internalType": "bool",
          "name": "",
          "type": "bool"
        }
      ],
      "stateMutability": "view",
      "type": "function"
    },
    {
      "inputs": [],
      "name": "MINI_BAILIFF_ROLE",
      "outputs": [
        {
          "internalType": "bytes32",
          "name": "",
          "type": "bytes32"
        }
      ],
      "stateMutability": "view",
      "type": "function"
    },
    {
      "inputs": [],
      "name": "THE_COURT_ROLE",
      "outputs": [
        {
          "internalType": "bytes32",
          "name": "",
          "type": "bytes32"
        }
      ],
      "stateMutability": "view",
      "type": "function"
    },
    {
      "inputs": [
        {
          "internalType": "bytes32",
          "name": "role",
          "type": "bytes32"
        }
      ],
      "name": "getRoleAdmin",
      "outputs": [
        {
          "internalType": "bytes32",
          "name": "",
          "type": "bytes32"
        }
      ],
      "stateMutability": "view",
      "type": "function"
    },
    {
      "inputs": [
        {
          "internalType": "bytes32",
          "name": "role",
          "type": "bytes32"
        },
        {
          "internalType": "uint256",
          "name": "index",
          "type": "uint256"
        }
      ],
      "name": "getRoleMember",
      "outputs": [
        {
          "internalType": "address",
          "name": "",
          "type": "address"
        }
      ],
      "stateMutability": "view",
      "type": "function"
    },
    {
      "inputs": [
        {
          "internalType": "bytes32",
          "name": "role",
          "type": "bytes32"
        }
      ],
      "name": "getRoleMemberCount",
      "outputs": [
        {
          "internalType": "uint256",
          "name": "",
          "type": "uint256"
        }
      ],
      "stateMutability": "view",
      "type": "function"
    },
    {
      "inputs": [
        {
          "internalType": "bytes32",
          "name": "role",
          "type": "bytes32"
        },
        {
          "internalType": "address",
          "name": "account",
          "type": "address"
        }
      ],
      "name": "grantRole",
      "outputs": [],
      "stateMutability": "nonpayable",
      "type": "function"
    },
    {
      "inputs": [
        {
          "internalType": "bytes32",
          "name": "role",
          "type": "bytes32"
        },
        {
          "internalType": "address",
          "name": "account",
          "type": "address"
        }
      ],
      "name": "hasRole",
      "outputs": [
        {
          "internalType": "bool",
          "name": "",
          "type": "bool"
        }
      ],
      "stateMutability": "view",
      "type": "function"
    },
    {
      "inputs": [],
      "name": "jerkSanctions",
      "outputs": [
        {
          "internalType": "bool",
          "name": "",
          "type": "bool"
        }
      ],
      "stateMutability": "view",
      "type": "function"
    },
    {
      "inputs": [
        {
          "internalType": "bytes32",
          "name": "role",
          "type": "bytes32"
        },
        {
          "internalType": "address",
          "name": "account",
          "type": "address"
        }
      ],
      "name": "renounceRole",
      "outputs": [],
      "stateMutability": "nonpayable",
      "type": "function"
    },
    {
      "inputs": [
        {
          "internalType": "bytes32",
          "name": "role",
          "type": "bytes32"
        },
        {
          "internalType": "address",
          "name": "account",
          "type": "address"
        }
      ],
      "name": "revokeRole",
      "outputs": [],
      "stateMutability": "nonpayable",
      "type": "function"
    },
    {
      "inputs": [
        {
          "internalType": "bytes4",
          "name": "interfaceId",
          "type": "bytes4"
        }
      ],
      "name": "supportsInterface",
      "outputs": [
        {
          "internalType": "bool",
          "name": "",
          "type": "bool"
        }
      ],
      "stateMutability": "view",
      "type": "function"
    },
    {
      "inputs": [
        {
          "internalType": "bool",
          "name": "_vote",
          "type": "bool"
        }
      ],
      "name": "vote",
      "outputs": [],
      "stateMutability": "nonpayable",
      "type": "function"
    },
    {
      "inputs": [],
      "name": "resetVote",
      "outputs": [],
      "stateMutability": "nonpayable",
      "type": "function"
    },
    {
      "inputs": [
        {
          "internalType": "bytes32",
          "name": "ROLE_TO_UPDATE",
          "type": "bytes32"
        },
        {
          "internalType": "address",
          "name": "newRoleHolder",
          "type": "address"
        }
      ],
      "name": "resetSingleRole",
      "outputs": [],
      "stateMutability": "nonpayable",
      "type": "function"
    },
    {
      "inputs": [
        {
          "internalType": "address",
          "name": "addressToPurge",
          "type": "address"
        }
      ],
      "name": "purgeUser",
      "outputs": [],
      "stateMutability": "nonpayable",
      "type": "function"
    },
    {
      "inputs": [
        {
          "internalType": "bool",
          "name": "areYouSure",
          "type": "bool"
        }
      ],
      "name": "purgeSelf",
      "outputs": [
        {
          "internalType": "bool",
          "name": "",
          "type": "bool"
        }
      ],
      "stateMutability": "nonpayable",
      "type": "function"
    },
    {
      "inputs": [],
      "name": "toggleJerkSanctions",
      "outputs": [],
      "stateMutability": "nonpayable",
      "type": "function"
    }
  ],
  "bytecode": "0x60806040526000805460ff191690556003805462ffffff191690553480156200002757600080fd5b5060405162001805380380620018058339810160408190526200004a91620002a7565b620000576000826200013d565b620000837f0538d24a8b7882d7b2e36af243d4af61c23e86e3daa6cb8c887b53220b2f5720826200013d565b620000af7f048bc71fa1cb2c119c339cf9cf00a97996a19a9d991ce5fe049f2fa5459e7990836200013d565b620000db7ffa8e4989e1d689f7bc5c4b25b87efb51fecdecb19ba62847e29c759e12a89acd846200013d565b620001077ff0f4b159a6e2a4815eb3ca3df080bfa70c9270662c59bcaa4479a456220183e6826200013d565b620001347f7c9d7f6f02908185bffb3f7fc9afb29fd7bf93675af8fd4b655ee05c2cee1e0e60006200013d565b505050620002f1565b6200015482826200018060201b620009711760201c565b60008281526002602090815260409091206200017b9183906200097b62000190821b17901c565b505050565b6200018c8282620001b0565b5050565b6000620001a7836001600160a01b03841662000238565b90505b92915050565b60008281526001602090815260408083206001600160a01b038516845290915290205460ff166200018c5760008281526001602081815260408084206001600160a01b0386168086529252808420805460ff19169093179092559051339285917f2f8788117e7eff1d82e926ec794901d17c78024a50270940304540a733656f0d9190a45050565b60008181526001830160205260408120546200028157508154600181810184556000848152602080822090930184905584548482528286019093526040902091909155620001aa565b506000620001aa565b80516001600160a01b0381168114620002a257600080fd5b919050565b600080600060608486031215620002bd57600080fd5b620002c8846200028a565b9250620002d8602085016200028a565b9150620002e8604085016200028a565b90509250925092565b61150480620003016000396000f3fe608060405234801561001057600080fd5b506004361061014d5760003560e01c80639010d07c116100c3578063cb6d55741161007c578063cb6d5574146102c0578063cce84392146102d3578063cf4ece15146102fa578063d547741f14610321578063e9a5323014610334578063ff7e88ec1461034957600080fd5b80639010d07c1461024557806391d1485414610270578063a217fddf14610283578063a32c5e591461028b578063a78e746f146102a0578063ca15c873146102ad57600080fd5b80632fb56585116101155780632fb56585146101e9578063329a8cfa146101fc57806336568abe1461020457806336e969a2146102175780634b9f5c981461021f5780635f88b5661461023257600080fd5b806301ffc9a7146101525780630a726d141461017a5780632436329d1461018f578063248a9ca3146101b25780632f2ff15d146101d6575b600080fd5b610165610160366004611266565b61035b565b60405190151581526020015b60405180910390f35b61018d61018836600461119f565b610386565b005b6101a460008051602061146f83398151915281565b604051908152602001610171565b6101a46101c03660046111fb565b6000908152600160208190526040909120015490565b61018d6101e4366004611214565b610496565b6003546101659062010000900460ff1681565b61018d6104bd565b61018d610212366004611214565b610569565b61018d61058b565b61018d61022d3660046111d9565b61062b565b6101656102403660046111d9565b610789565b610258610253366004611244565b6107b0565b6040516001600160a01b039091168152602001610171565b61016561027e366004611214565b6107cf565b6101a4600081565b6101a46000805160206114af83398151915281565b6003546101659060ff1681565b6101a46102bb3660046111fb565b6107fa565b61018d6102ce366004611214565b610811565b6101a47f7c9d7f6f02908185bffb3f7fc9afb29fd7bf93675af8fd4b655ee05c2cee1e0e81565b6101a47ff0f4b159a6e2a4815eb3ca3df080bfa70c9270662c59bcaa4479a456220183e681565b61018d61032f366004611214565b610967565b6101a460008051602061148f83398151915281565b60035461016590610100900460ff1681565b60006001600160e01b03198216635a05180f60e01b1480610380575061038082610990565b92915050565b61039e60008051602061148f833981519152336107cf565b806103bc57506103bc60008051602061146f833981519152336107cf565b806103da57506103da6000805160206114af833981519152336107cf565b6103e357600080fd5b600354610100810460ff908116151562010000909204161515146001148061041e575061041e6000805160206114af833981519152336107cf565b6104625760405162461bcd60e51b815260206004820152601060248201526f436f757274204d75737420416772656560801b60448201526064015b60405180910390fd5b6001600160a01b03811633141561047857600080fd5b610481816109c5565b506104936003805462ffff0019169055565b50565b6104a08282610a22565b60008281526002602052604090206104b8908261097b565b505050565b6104d56000805160206114af833981519152336107cf565b806104f357506104f360008051602061148f833981519152336107cf565b80610511575061051160008051602061146f833981519152336107cf565b6105565760405162461bcd60e51b81526020600482015260166024820152752cb7ba93b932903737ba103a3432903130b4b634b33360511b6044820152606401610459565b6105676003805462ffff0019169055565b565b6105738282610a5c565b60008281526002602052604090206104b89082610ad6565b6105a360008051602061146f833981519152336107cf565b806105c157506105c16000805160206114af833981519152336107cf565b6106035760405162461bcd60e51b8152602060048201526013602482015272596f75277265206e6f7420746865204a75727960681b6044820152606401610459565b60035460ff1615156001141561061f576003805460ff19169055565b6003805460ff19169055565b6106436000805160206114af833981519152336107cf565b80610661575061066160008051602061148f833981519152336107cf565b8061067f575061067f60008051602061146f833981519152336107cf565b6106c45760405162461bcd60e51b81526020600482015260166024820152752cb7ba93b932903737ba103a3432903130b4b634b33360511b6044820152606401610459565b6106dc6000805160206114af833981519152336107cf565b1561071d5760038054610100831515810261ff0019831681179190910460ff161515620100000262ff00001990911662ffff00199092169190911717905550565b61073560008051602061148f833981519152336107cf565b1561075257600380548215156101000261ff001990911617905550565b61076a60008051602061146f833981519152336107cf565b156104935760038054821515620100000262ff00001990911617905550565b6000600182151514156107a85761079f33610aeb565b50600192915050565b506000919050565b60008281526002602052604081206107c89083610b40565b9392505050565b60009182526001602090815260408084206001600160a01b0393909316845291905290205460ff1690565b600081815260026020526040812061038090610b4c565b61082960008051602061148f833981519152336107cf565b80610847575061084760008051602061146f833981519152336107cf565b8061086557506108656000805160206114af833981519152336107cf565b61086e57600080fd5b600354610100810460ff90811615156201000090920416151514600114806108a957506108a96000805160206114af833981519152336107cf565b6108e85760405162461bcd60e51b815260206004820152601060248201526f436f757274204d75737420416772656560801b6044820152606401610459565b6108f182610b56565b50604051632f2ff15d60e01b8152600481018390526001600160a01b03821660248201523090632f2ff15d90604401600060405180830381600087803b15801561093a57600080fd5b505af115801561094e573d6000803e3d6000fd5b505050506109636003805462ffff0019169055565b5050565b6105738282610cd1565b6109638282610d0b565b60006107c8836001600160a01b038416610d76565b60006001600160e01b03198216637965db0b60e01b148061038057506301ffc9a760e01b6001600160e01b0319831614610380565b60006109df60008051602061146f83398151915283610967565b6109f760008051602061148f83398151915283610967565b610a0f6000805160206114af83398151915283610967565b610a1a600083610967565b506001919050565b600082815260016020819052604082200154905460ff1615610a48576104b88383610d0b565b610a528133610dc5565b6104b88383610d0b565b6001600160a01b0381163314610acc5760405162461bcd60e51b815260206004820152602f60248201527f416363657373436f6e74726f6c3a2063616e206f6e6c792072656e6f756e636560448201526e103937b632b9903337b91039b2b63360891b6064820152608401610459565b6109638282610e29565b60006107c8836001600160a01b038416610e90565b6000610b0560008051602061146f83398151915283610569565b610b1d60008051602061148f83398151915283610569565b610b356000805160206114af83398151915283610569565b610a1a600083610569565b60006107c88383610f7d565b6000610380825490565b60405163ca15c87360e01b8152600481018290526000908190309063ca15c8739060240160206040518083038186803b158015610b9257600080fd5b505afa158015610ba6573d6000803e3d6000fd5b505050506040513d601f19601f82011682018060405250810190610bca9190611290565b905060005b81811015610cc757604051632404341f60e21b815260048101859052602481018290526000903090639010d07c9060440160206040518083038186803b158015610c1857600080fd5b505afa158015610c2c573d6000803e3d6000fd5b505050506040513d601f19601f82011682018060405250810190610c5091906111bc565b60405163d547741f60e01b8152600481018790526001600160a01b0382166024820152909150309063d547741f90604401600060405180830381600087803b158015610c9b57600080fd5b505af1158015610caf573d6000803e3d6000fd5b50505050508080610cbf906113e6565b915050610bcf565b5060019392505050565b600082815260016020819052604082200154905460ff1615610cf7576104b88383610e29565b610d018133610dc5565b6104b88383610e29565b610d1582826107cf565b6109635760008281526001602081815260408084206001600160a01b0386168086529252808420805460ff19169093179092559051339285917f2f8788117e7eff1d82e926ec794901d17c78024a50270940304540a733656f0d9190a45050565b6000818152600183016020526040812054610dbd57508154600181810184556000848152602080822090930184905584548482528286019093526040902091909155610380565b506000610380565b610dcf82826107cf565b61096357610de7816001600160a01b03166014611003565b610df2836020611003565b604051602001610e039291906112a9565b60408051601f198184030181529082905262461bcd60e51b82526104599160040161131e565b610e3382826107cf565b156109635760008281526001602090815260408083206001600160a01b0385168085529252808320805460ff1916905551339285917ff6391f5c32d9c69d2a47ea670b442974b53935d1edc7fd64eb21e047a839171b9190a45050565b60008181526001830160205260408120548015610f73576000610eb4600183611388565b8554909150600090610ec890600190611388565b90506000866000018281548110610ee157610ee161142d565b9060005260206000200154905080876000018481548110610f0457610f0461142d565b600091825260208083209091019290925582815260018901909152604090208490558654879080610f3757610f37611417565b60019003818190600052602060002001600090559055866001016000878152602001908152602001600020600090556001945050505050610380565b6000915050610380565b81546000908210610fdb5760405162461bcd60e51b815260206004820152602260248201527f456e756d657261626c655365743a20696e646578206f7574206f6620626f756e604482015261647360f01b6064820152608401610459565b826000018281548110610ff057610ff061142d565b9060005260206000200154905092915050565b60606000611012836002611369565b61101d906002611351565b67ffffffffffffffff81111561103557611035611443565b6040519080825280601f01601f19166020018201604052801561105f576020820181803683370190505b509050600360fc1b8160008151811061107a5761107a61142d565b60200101906001600160f81b031916908160001a905350600f60fb1b816001815181106110a9576110a961142d565b60200101906001600160f81b031916908160001a90535060006110cd846002611369565b6110d8906001611351565b90505b6001811115611150576f181899199a1a9b1b9c1cb0b131b232b360811b85600f166010811061110c5761110c61142d565b1a60f81b8282815181106111225761112261142d565b60200101906001600160f81b031916908160001a90535060049490941c93611149816113cf565b90506110db565b5083156107c85760405162461bcd60e51b815260206004820181905260248201527f537472696e67733a20686578206c656e67746820696e73756666696369656e746044820152606401610459565b6000602082840312156111b157600080fd5b81356107c881611459565b6000602082840312156111ce57600080fd5b81516107c881611459565b6000602082840312156111eb57600080fd5b813580151581146107c857600080fd5b60006020828403121561120d57600080fd5b5035919050565b6000806040838503121561122757600080fd5b82359150602083013561123981611459565b809150509250929050565b6000806040838503121561125757600080fd5b50508035926020909101359150565b60006020828403121561127857600080fd5b81356001600160e01b0319811681146107c857600080fd5b6000602082840312156112a257600080fd5b5051919050565b7f416363657373436f6e74726f6c3a206163636f756e74200000000000000000008152600083516112e181601785016020880161139f565b7001034b99036b4b9b9b4b733903937b6329607d1b601791840191820152835161131281602884016020880161139f565b01602801949350505050565b602081526000825180602084015261133d81604085016020870161139f565b601f01601f19169190910160400192915050565b6000821982111561136457611364611401565b500190565b600081600019048311821515161561138357611383611401565b500290565b60008282101561139a5761139a611401565b500390565b60005b838110156113ba5781810151838201526020016113a2565b838111156113c9576000848401525b50505050565b6000816113de576113de611401565b506000190190565b60006000198214156113fa576113fa611401565b5060010190565b634e487b7160e01b600052601160045260246000fd5b634e487b7160e01b600052603160045260246000fd5b634e487b7160e01b600052603260045260246000fd5b634e487b7160e01b600052604160045260246000fd5b6001600160a01b038116811461049357600080fdfefa8e4989e1d689f7bc5c4b25b87efb51fecdecb19ba62847e29c759e12a89acd048bc71fa1cb2c119c339cf9cf00a97996a19a9d991ce5fe049f2fa5459e79900538d24a8b7882d7b2e36af243d4af61c23e86e3daa6cb8c887b53220b2f5720a2646970667358221220ca63a7b0cb5eddba618f17c1b51bd4f909cc3dc942337a68c6ae2c4f12b6910c64736f6c63430008060033",
  "immutableReferences": {},
  "source": "    pragma solidity ^0.8.0;\n\n    import \"./forked/AccessControlEnumerable.sol\";\n   \n    contract ConsensusMachine is AccessControlEnumerable {\n       \n        bytes32 public constant THE_COURT_ROLE = keccak256(\"THE_COURT_ROLE\");\n        bytes32 public constant GAVELS_BAILIFF = keccak256(\"GAVELS_BAILIFF\");\n        bytes32 public constant JURY_BAILIFF = keccak256(\"JURY_BAILIFF\");\n        bytes32 public constant MINI_BAILIFF_ROLE = keccak256(\"MINI_BAILIFF_ROLE\");\n        bytes32 public constant JERK_ROLE = keccak256(\"JERK_ROLE\");\n\n        //To generate Consensus (false by default)\n        bool public jerkSanctions = false;\n\n        bool public GavelVote = false;\n        bool public JuryVote = false;\n\n        constructor(address juryDAOAgent, address gavelDAOAgent, address theCourtAddress) {\n            _setupRole(DEFAULT_ADMIN_ROLE, theCourtAddress);\n            _setupRole(THE_COURT_ROLE, theCourtAddress);\n            _setupRole(GAVELS_BAILIFF, gavelDAOAgent);\n            _setupRole(JURY_BAILIFF, juryDAOAgent);\n            _setupRole(MINI_BAILIFF_ROLE, theCourtAddress);\n            _setupRole(JERK_ROLE, address(0));\n            \n        }\n    /////////////////////////////////////////////////////////////////////////////////////////////////\n    /////////////////////////////////////////////////////////////////////////////////////////////////\n    /// @dev                                                                                     ////\n    /// Permission Modifiers                                                                     ////\n    /////////////////////////////////////////////////////////////////////////////////////////////////\n    /////////////////////////////////////////////////////////////////////////////////////////////////\n\n        modifier BAILIFF {\n            require(hasRole(THE_COURT_ROLE, msg.sender)\n                    || hasRole(GAVELS_BAILIFF, msg.sender)\n                    || hasRole(JURY_BAILIFF, msg.sender),\n                    \"You're not the bailiff\");\n            _;\n        }\n\n        modifier NOT_JERK {\n            if (jerkSanctions == true) {\n                require(!hasRole(JERK_ROLE, msg.sender));\n            }\n            _;\n        }\n\n        modifier MINI_BAILIFF {\n            require(hasRole(THE_COURT_ROLE, msg.sender)\n                    || hasRole(GAVELS_BAILIFF, msg.sender)\n                    || hasRole(JURY_BAILIFF, msg.sender)\n                    || hasRole(MINI_BAILIFF_ROLE, msg.sender),\n                    \"You're not the bailiff\");\n            _;\n        }\n\n        modifier GAVELS {\n            require(hasRole(GAVELS_BAILIFF, msg.sender)\n                    || hasRole(THE_COURT_ROLE, msg.sender)\n                    , \"You're not the Gavels\");\n            _;\n        }\n\n        modifier JURY {\n            require(hasRole(JURY_BAILIFF, msg.sender)\n                    || hasRole(THE_COURT_ROLE, msg.sender), \"You're not the Jury\");\n            _;\n        }\n\n        // Requires a YES vote from both DAOs\n        modifier THE_COURT {\n            require(hasRole(GAVELS_BAILIFF, msg.sender)\n                    || hasRole(JURY_BAILIFF, msg.sender)\n                    || hasRole(THE_COURT_ROLE, msg.sender));\n            require((GavelVote == JuryVote == true)\n                    || hasRole(THE_COURT_ROLE, msg.sender)\n                    , \"Court Must Agree\");\n            _;\n        }\n\n\n    /////////////////////////////////////////////////////////////////////////////////////////////////\n    /////////////////////////////////////////////////////////////////////////////////////////////////\n    /// @dev                                                                                     ////\n    /// Consensus Machine                                                                        ////\n    /////////////////////////////////////////////////////////////////////////////////////////////////\n    /////////////////////////////////////////////////////////////////////////////////////////////////\n\n        function vote(bool _vote) public BAILIFF {\n\n            if (hasRole(THE_COURT_ROLE, msg.sender)) {\n                \n                GavelVote = _vote;\n                JuryVote = GavelVote;\n            \n            } else if (hasRole(GAVELS_BAILIFF, msg.sender)) {\n                GavelVote = _vote;\n            } else if (hasRole(JURY_BAILIFF, msg.sender)) {\n                JuryVote = _vote;\n            }\n        \n        }\n\n        function resetVote() public BAILIFF { \n            _resetVote();\n        }\n\n\n        function _resetVote() internal { \n            GavelVote = false;\n            JuryVote = false;\n        }\n\n    /////////////////////////////////////////////////////////////////////////////////////////////////\n    /////////////////////////////////////////////////////////////////////////////////////////////////\n    /// @dev  CLEAR ROLES                                                                        ////\n    /////////////////////////////////////////////////////////////////////////////////////////////////\n    /////////////////////////////////////////////////////////////////////////////////////////////////\n\n        function _clearRole(bytes32 ROLE_TO_CLEAR) internal returns(bool) {\n            // Clear Roles\n            uint numberOfRoleHodlers = this.getRoleMemberCount(ROLE_TO_CLEAR);\n            uint index = 0;\n            for (index = 0; index < numberOfRoleHodlers; index++) {\n                address roleHolder = this.getRoleMember(ROLE_TO_CLEAR, index);\n                this.revokeRole(ROLE_TO_CLEAR, roleHolder);\n            }\n            return true;\n\n            \n        }\n\n        function _purgeUser(address addressToPurge) internal returns(bool) {\n\n            revokeRole(JURY_BAILIFF, addressToPurge);\n            revokeRole(GAVELS_BAILIFF, addressToPurge);\n            revokeRole(THE_COURT_ROLE, addressToPurge);\n            revokeRole(DEFAULT_ADMIN_ROLE, addressToPurge);\n            return true;\n        }\n\n\n        function _purgeSelf(address addressToPurge) internal returns(bool) {\n\n            renounceRole(JURY_BAILIFF, addressToPurge);\n            renounceRole(GAVELS_BAILIFF, addressToPurge);\n            renounceRole(THE_COURT_ROLE, addressToPurge);\n            renounceRole(DEFAULT_ADMIN_ROLE, addressToPurge);\n            return true;\n        }\n\n        function resetSingleRole(bytes32 ROLE_TO_UPDATE, address newRoleHolder) public THE_COURT {\n            _clearRole(ROLE_TO_UPDATE);\n            this.grantRole(ROLE_TO_UPDATE, newRoleHolder);\n            _resetVote();\n        }\n\n        function purgeUser(address addressToPurge) public THE_COURT {\n            require(addressToPurge != msg.sender);\n            _purgeUser(addressToPurge);\n            _resetVote();\n        }\n\n        function purgeSelf(bool areYouSure) public returns (bool){\n            if (areYouSure == true) {\n                _purgeSelf(msg.sender);\n                return true;\n            } else {return false;}\n        }\n\n        function toggleJerkSanctions() public JURY {\n            if(jerkSanctions == true) {\n                jerkSanctions = false;\n            } else { jerkSanctions = false; }\n        }\n\n    /////////////////////////////////////////////////////////////////////////////////////////////////\n    /////////////////////////////////////////////////////////////////////////////////////////////////\n    /// @dev  END                                                                                ////\n    /////////////////////////////////////////////////////////////////////////////////////////////////\n    /////////////////////////////////////////////////////////////////////////////////////////////////\n    }\n",
  "sourcePath": "/home/n/Desktop/PinkSlips_FrontEnd_REFORMAT/contracts/src/ConsensusMachine.sol",
  "compiler": {
    "name": "solc",
    "version": "0.8.6+commit.11564f7e.Emscripten.clang"
  },
  "schemaVersion": "3.4.1",
  "updatedAt": "2021-08-09T08:59:15.414Z",
  "devdoc": {
    "kind": "dev",
    "methods": {
      "getRoleAdmin(bytes32)": {
        "details": "Returns the admin role that controls `role`. See {grantRole} and {revokeRole}. To change a role's admin, use {_setRoleAdmin}."
      },
      "getRoleMember(bytes32,uint256)": {
        "details": "Returns one of the accounts that have `role`. `index` must be a value between 0 and {getRoleMemberCount}, non-inclusive. Role bearers are not sorted in any particular way, and their ordering may change at any point. WARNING: When using {getRoleMember} and {getRoleMemberCount}, make sure you perform all queries on the same block. See the following https://forum.openzeppelin.com/t/iterating-over-elements-on-enumerableset-in-openzeppelin-contracts/2296[forum post] for more information."
      },
      "getRoleMemberCount(bytes32)": {
        "details": "Returns the number of accounts that have `role`. Can be used together with {getRoleMember} to enumerate all bearers of a role."
      },
      "grantRole(bytes32,address)": {
        "details": "Overload {grantRole} to track enumerable memberships"
      },
      "hasRole(bytes32,address)": {
        "details": "Returns `true` if `account` has been granted `role`."
      },
      "renounceRole(bytes32,address)": {
        "details": "Overload {renounceRole} to track enumerable memberships"
      },
      "revokeRole(bytes32,address)": {
        "details": "Overload {revokeRole} to track enumerable memberships"
      },
      "supportsInterface(bytes4)": {
        "details": "See {IERC165-supportsInterface}."
      },
      "vote(bool)": {
        "details": "//// Consensus Machine                                                                        ////"
      }
    },
    "version": 1
  },
  "userdoc": {
    "kind": "user",
    "methods": {},
    "version": 1
  }
}