{
  "contractName": "CourtClerk",
  "abi": [
    {
      "inputs": [
        {
          "internalType": "uint256",
          "name": "_tokenId",
          "type": "uint256"
        },
        {
          "internalType": "address",
          "name": "_badgeAddress",
          "type": "address"
        },
        {
          "internalType": "bytes",
          "name": "_minionCallData",
          "type": "bytes"
        }
      ],
      "name": "submitDispute",
      "outputs": [
        {
          "internalType": "bytes",
          "name": "proposalIdBytes",
          "type": "bytes"
        }
      ],
      "stateMutability": "nonpayable",
      "type": "function"
    }
  ],
  "bytecode": "0x6080604052600080546001600160a01b031990811673333edad0fa6822c3faf4819b2d887570fdbc29bf17909155600180548216732fc321c703f06893b4c3e872fbd66dc2d7c91f721790556002805490911673e78ac7e8d309c749ebc80f55a78b3b397625421c17905534801561007657600080fd5b5061039e806100866000396000f3fe608060405234801561001057600080fd5b506004361061002b5760003560e01c8063afc068e514610030575b600080fd5b61004361003e3660046101ee565b610059565b60405161005091906102d7565b60405180910390f35b6040516331a9108f60e11b81526004810184905260609083906001600160a01b03821690636352211e9060240160206040518083038186803b15801561009e57600080fd5b505afa1580156100b2573d6000803e3d6000fd5b505050506040513d601f19601f820116820180604052508101906100d691906101ca565b6001600160a01b0316336001600160a01b0316146100f357600080fd5b6100fc83610105565b95945050505050565b60015460405160609160009182916001600160a01b0316906101289086906102bb565b6000604051808303816000865af19150503d8060008114610165576040519150601f19603f3d011682016040523d82523d6000602084013e61016a565b606091505b5091509150809250816101c35760405162461bcd60e51b815260206004820152601a60248201527f5478206e6f74207375626d697474656420746f206d696e696f6e000000000000604482015260640160405180910390fd5b5050919050565b6000602082840312156101dc57600080fd5b81516101e781610350565b9392505050565b60008060006060848603121561020357600080fd5b83359250602084013561021581610350565b9150604084013567ffffffffffffffff8082111561023257600080fd5b818601915086601f83011261024657600080fd5b8135818111156102585761025861033a565b604051601f8201601f19908116603f011681019083821181831017156102805761028061033a565b8160405282815289602084870101111561029957600080fd5b8260208601602083013760006020848301015280955050505050509250925092565b600082516102cd81846020870161030a565b9190910192915050565b60208152600082518060208401526102f681604085016020870161030a565b601f01601f19169190910160400192915050565b60005b8381101561032557818101518382015260200161030d565b83811115610334576000848401525b50505050565b634e487b7160e01b600052604160045260246000fd5b6001600160a01b038116811461036557600080fd5b5056fea2646970667358221220815c26a6746b6025245e6906f5d8377b9794f5e77b748e99c206dbf62fe8b96064736f6c63430008070033",
  "immutableReferences": {},
  "source": "pragma solidity ^0.8.0;\n\nimport \"@openzeppelin/contracts/token/ERC721/ERC721.sol\";\n\n\n// This contract enables anyone to be able to submit dispute proposals, regardless of thier membership status.\n\ncontract CourtClerk {\n    \n    address daoAddress = 0x333Edad0FA6822C3FaF4819B2D887570fdbC29BF;\n    address daoMinionAddress = 0x2fc321C703f06893b4C3E872FBd66DC2D7c91f72;\n    address pensAddress = 0xe78AC7E8d309C749EBC80F55A78B3b397625421C;\n    \n\n    // should probably just generate minion call data here, for best security.Will Do that Later\n    function submitDispute(uint _tokenId, address _badgeAddress, bytes memory _minionCallData) public returns (bytes memory proposalIdBytes) {\n        ERC721 badge = ERC721(_badgeAddress);\n        require(msg.sender == badge.ownerOf(_tokenId));\n        proposalIdBytes = _sendMinionTransaction(_minionCallData);\n        //require(proposalId > 0, \"Check proposalId\");\n        return proposalIdBytes;\n    }\n\n    function _sendMinionTransaction(bytes memory _minionCallData)internal returns (bytes memory proposalIdBytes) {\n\n        (bool success, bytes memory toReturn) = daoMinionAddress.call(_minionCallData);\n        proposalIdBytes = toReturn;\n        //require (proposalId >= 1, \"Error sending tx to minion\");\n        require(success, \"Tx not submitted to minion\");\n        return proposalIdBytes;\n\n    }\n\n}",
  "sourcePath": "/home/n/Desktop/PinkSlips_FrontEnd_REFORMAT/contracts/juryAndAppeals/CourtClerk.sol",
  "compiler": {
    "name": "solc",
    "version": "0.8.7+commit.e28d00a7.Emscripten.clang"
  },
  "schemaVersion": "3.4.1",
  "updatedAt": "2021-08-15T22:28:42.720Z",
  "devdoc": {
    "kind": "dev",
    "methods": {},
    "version": 1
  },
  "userdoc": {
    "kind": "user",
    "methods": {},
    "version": 1
  }
}