{
  "contractName": "DisputeMachine",
  "abi": [
    {
      "inputs": [
        {
          "internalType": "address",
          "name": "_AddressManagerAddress",
          "type": "address"
        }
      ],
      "stateMutability": "nonpayable",
      "type": "constructor"
    },
    {
      "anonymous": false,
      "inputs": [
        {
          "indexed": true,
          "internalType": "bytes32",
          "name": "role",
          "type": "bytes32"
        },
        {
          "indexed": true,
          "internalType": "bytes32",
          "name": "previousAdminRole",
          "type": "bytes32"
        },
        {
          "indexed": true,
          "internalType": "bytes32",
          "name": "newAdminRole",
          "type": "bytes32"
        }
      ],
      "name": "RoleAdminChanged",
      "type": "event"
    },
    {
      "anonymous": false,
      "inputs": [
        {
          "indexed": true,
          "internalType": "bytes32",
          "name": "role",
          "type": "bytes32"
        },
        {
          "indexed": true,
          "internalType": "address",
          "name": "account",
          "type": "address"
        },
        {
          "indexed": true,
          "internalType": "address",
          "name": "sender",
          "type": "address"
        }
      ],
      "name": "RoleGranted",
      "type": "event"
    },
    {
      "anonymous": false,
      "inputs": [
        {
          "indexed": true,
          "internalType": "bytes32",
          "name": "role",
          "type": "bytes32"
        },
        {
          "indexed": true,
          "internalType": "address",
          "name": "account",
          "type": "address"
        },
        {
          "indexed": true,
          "internalType": "address",
          "name": "sender",
          "type": "address"
        }
      ],
      "name": "RoleRevoked",
      "type": "event"
    },
    {
      "inputs": [],
      "name": "AddressManagerAddress",
      "outputs": [
        {
          "internalType": "address",
          "name": "",
          "type": "address"
        }
      ],
      "stateMutability": "view",
      "type": "function",
      "constant": true
    },
    {
      "inputs": [],
      "name": "ChadBadgeAddress",
      "outputs": [
        {
          "internalType": "address",
          "name": "",
          "type": "address"
        }
      ],
      "stateMutability": "view",
      "type": "function",
      "constant": true
    },
    {
      "inputs": [],
      "name": "DEFAULT_ADMIN_ROLE",
      "outputs": [
        {
          "internalType": "bytes32",
          "name": "",
          "type": "bytes32"
        }
      ],
      "stateMutability": "view",
      "type": "function",
      "constant": true
    },
    {
      "inputs": [],
      "name": "GAVELS_BAILIFF",
      "outputs": [
        {
          "internalType": "bytes32",
          "name": "",
          "type": "bytes32"
        }
      ],
      "stateMutability": "view",
      "type": "function",
      "constant": true
    },
    {
      "inputs": [],
      "name": "GavelDAOAgent",
      "outputs": [
        {
          "internalType": "address",
          "name": "",
          "type": "address"
        }
      ],
      "stateMutability": "view",
      "type": "function",
      "constant": true
    },
    {
      "inputs": [],
      "name": "GavelTokenAddress",
      "outputs": [
        {
          "internalType": "address",
          "name": "",
          "type": "address"
        }
      ],
      "stateMutability": "view",
      "type": "function",
      "constant": true
    },
    {
      "inputs": [],
      "name": "GavelVote",
      "outputs": [
        {
          "internalType": "bool",
          "name": "",
          "type": "bool"
        }
      ],
      "stateMutability": "view",
      "type": "function",
      "constant": true
    },
    {
      "inputs": [],
      "name": "GoldStarAddress",
      "outputs": [
        {
          "internalType": "address",
          "name": "",
          "type": "address"
        }
      ],
      "stateMutability": "view",
      "type": "function",
      "constant": true
    },
    {
      "inputs": [],
      "name": "JERK_ROLE",
      "outputs": [
        {
          "internalType": "bytes32",
          "name": "",
          "type": "bytes32"
        }
      ],
      "stateMutability": "view",
      "type": "function",
      "constant": true
    },
    {
      "inputs": [],
      "name": "JURY_BAILIFF",
      "outputs": [
        {
          "internalType": "bytes32",
          "name": "",
          "type": "bytes32"
        }
      ],
      "stateMutability": "view",
      "type": "function",
      "constant": true
    },
    {
      "inputs": [],
      "name": "JuryDAOAgent",
      "outputs": [
        {
          "internalType": "address",
          "name": "",
          "type": "address"
        }
      ],
      "stateMutability": "view",
      "type": "function",
      "constant": true
    },
    {
      "inputs": [],
      "name": "JuryPoolAddress",
      "outputs": [
        {
          "internalType": "address",
          "name": "",
          "type": "address"
        }
      ],
      "stateMutability": "view",
      "type": "function",
      "constant": true
    },
    {
      "inputs": [],
      "name": "JuryVote",
      "outputs": [
        {
          "internalType": "bool",
          "name": "",
          "type": "bool"
        }
      ],
      "stateMutability": "view",
      "type": "function",
      "constant": true
    },
    {
      "inputs": [],
      "name": "MINI_BAILIFF_ROLE",
      "outputs": [
        {
          "internalType": "bytes32",
          "name": "",
          "type": "bytes32"
        }
      ],
      "stateMutability": "view",
      "type": "function",
      "constant": true
    },
    {
      "inputs": [],
      "name": "MiniBailiff",
      "outputs": [
        {
          "internalType": "address",
          "name": "",
          "type": "address"
        }
      ],
      "stateMutability": "view",
      "type": "function",
      "constant": true
    },
    {
      "inputs": [],
      "name": "PinkSlipAddress",
      "outputs": [
        {
          "internalType": "address",
          "name": "",
          "type": "address"
        }
      ],
      "stateMutability": "view",
      "type": "function",
      "constant": true
    },
    {
      "inputs": [],
      "name": "RedPenTokenAddress",
      "outputs": [
        {
          "internalType": "address",
          "name": "",
          "type": "address"
        }
      ],
      "stateMutability": "view",
      "type": "function",
      "constant": true
    },
    {
      "inputs": [],
      "name": "THE_COURT_ROLE",
      "outputs": [
        {
          "internalType": "bytes32",
          "name": "",
          "type": "bytes32"
        }
      ],
      "stateMutability": "view",
      "type": "function",
      "constant": true
    },
    {
      "inputs": [],
      "name": "TheCourtAddress",
      "outputs": [
        {
          "internalType": "address",
          "name": "",
          "type": "address"
        }
      ],
      "stateMutability": "view",
      "type": "function",
      "constant": true
    },
    {
      "inputs": [],
      "name": "TreasuryAddress",
      "outputs": [
        {
          "internalType": "address",
          "name": "",
          "type": "address"
        }
      ],
      "stateMutability": "view",
      "type": "function",
      "constant": true
    },
    {
      "inputs": [],
      "name": "addressManager",
      "outputs": [
        {
          "internalType": "contract AddressManager",
          "name": "",
          "type": "address"
        }
      ],
      "stateMutability": "view",
      "type": "function",
      "constant": true
    },
    {
      "inputs": [
        {
          "internalType": "bytes32",
          "name": "role",
          "type": "bytes32"
        }
      ],
      "name": "getRoleAdmin",
      "outputs": [
        {
          "internalType": "bytes32",
          "name": "",
          "type": "bytes32"
        }
      ],
      "stateMutability": "view",
      "type": "function",
      "constant": true
    },
    {
      "inputs": [
        {
          "internalType": "bytes32",
          "name": "role",
          "type": "bytes32"
        },
        {
          "internalType": "uint256",
          "name": "index",
          "type": "uint256"
        }
      ],
      "name": "getRoleMember",
      "outputs": [
        {
          "internalType": "address",
          "name": "",
          "type": "address"
        }
      ],
      "stateMutability": "view",
      "type": "function",
      "constant": true
    },
    {
      "inputs": [
        {
          "internalType": "bytes32",
          "name": "role",
          "type": "bytes32"
        }
      ],
      "name": "getRoleMemberCount",
      "outputs": [
        {
          "internalType": "uint256",
          "name": "",
          "type": "uint256"
        }
      ],
      "stateMutability": "view",
      "type": "function",
      "constant": true
    },
    {
      "inputs": [
        {
          "internalType": "bytes32",
          "name": "role",
          "type": "bytes32"
        },
        {
          "internalType": "address",
          "name": "account",
          "type": "address"
        }
      ],
      "name": "grantRole",
      "outputs": [],
      "stateMutability": "nonpayable",
      "type": "function"
    },
    {
      "inputs": [
        {
          "internalType": "bytes32",
          "name": "role",
          "type": "bytes32"
        },
        {
          "internalType": "address",
          "name": "account",
          "type": "address"
        }
      ],
      "name": "hasRole",
      "outputs": [
        {
          "internalType": "bool",
          "name": "",
          "type": "bool"
        }
      ],
      "stateMutability": "view",
      "type": "function",
      "constant": true
    },
    {
      "inputs": [],
      "name": "jerkSanctions",
      "outputs": [
        {
          "internalType": "bool",
          "name": "",
          "type": "bool"
        }
      ],
      "stateMutability": "view",
      "type": "function",
      "constant": true
    },
    {
      "inputs": [],
      "name": "juryHats",
      "outputs": [
        {
          "internalType": "contract JuryPool",
          "name": "",
          "type": "address"
        }
      ],
      "stateMutability": "view",
      "type": "function",
      "constant": true
    },
    {
      "inputs": [],
      "name": "redPens",
      "outputs": [
        {
          "internalType": "contract ERC20",
          "name": "",
          "type": "address"
        }
      ],
      "stateMutability": "view",
      "type": "function",
      "constant": true
    },
    {
      "inputs": [
        {
          "internalType": "bytes32",
          "name": "role",
          "type": "bytes32"
        },
        {
          "internalType": "address",
          "name": "account",
          "type": "address"
        }
      ],
      "name": "renounceRole",
      "outputs": [],
      "stateMutability": "nonpayable",
      "type": "function"
    },
    {
      "inputs": [],
      "name": "resetVote",
      "outputs": [],
      "stateMutability": "nonpayable",
      "type": "function"
    },
    {
      "inputs": [
        {
          "internalType": "bytes32",
          "name": "role",
          "type": "bytes32"
        },
        {
          "internalType": "address",
          "name": "account",
          "type": "address"
        }
      ],
      "name": "revokeRole",
      "outputs": [],
      "stateMutability": "nonpayable",
      "type": "function"
    },
    {
      "inputs": [],
      "name": "slashPercentageInWholeNumber",
      "outputs": [
        {
          "internalType": "uint256",
          "name": "",
          "type": "uint256"
        }
      ],
      "stateMutability": "view",
      "type": "function",
      "constant": true
    },
    {
      "inputs": [
        {
          "internalType": "bytes4",
          "name": "interfaceId",
          "type": "bytes4"
        }
      ],
      "name": "supportsInterface",
      "outputs": [
        {
          "internalType": "bool",
          "name": "",
          "type": "bool"
        }
      ],
      "stateMutability": "view",
      "type": "function",
      "constant": true
    },
    {
      "inputs": [],
      "name": "syncAllRoles",
      "outputs": [],
      "stateMutability": "nonpayable",
      "type": "function"
    },
    {
      "inputs": [
        {
          "internalType": "bytes32",
          "name": "ROLE_TO_SYNC",
          "type": "bytes32"
        }
      ],
      "name": "syncSingleRole",
      "outputs": [],
      "stateMutability": "nonpayable",
      "type": "function"
    },
    {
      "inputs": [],
      "name": "syncVotes",
      "outputs": [],
      "stateMutability": "nonpayable",
      "type": "function"
    },
    {
      "inputs": [],
      "name": "updateAddressManager",
      "outputs": [],
      "stateMutability": "nonpayable",
      "type": "function"
    },
    {
      "inputs": [],
      "name": "updateAllAddresses",
      "outputs": [],
      "stateMutability": "nonpayable",
      "type": "function"
    },
    {
      "inputs": [],
      "name": "updateAllRoles",
      "outputs": [],
      "stateMutability": "nonpayable",
      "type": "function"
    },
    {
      "inputs": [],
      "name": "updateDAOAddresses",
      "outputs": [],
      "stateMutability": "nonpayable",
      "type": "function"
    },
    {
      "inputs": [
        {
          "internalType": "bytes32",
          "name": "ROLE_TO_UPDATE",
          "type": "bytes32"
        }
      ],
      "name": "updateSingleRole",
      "outputs": [],
      "stateMutability": "nonpayable",
      "type": "function"
    },
    {
      "inputs": [],
      "name": "updateTokenAddresses",
      "outputs": [],
      "stateMutability": "nonpayable",
      "type": "function"
    },
    {
      "inputs": [
        {
          "internalType": "uint256",
          "name": "_slashPercentageInWholeNumber",
          "type": "uint256"
        }
      ],
      "name": "setSlashPercent",
      "outputs": [],
      "stateMutability": "nonpayable",
      "type": "function"
    }
  ],
  "bytecode": "0x60806040526000805460ff19168155600f805463ffffffff60a01b19169055601255601e6013553480156200003357600080fd5b5060405162002de538038062002de5833981016040819052620000569162000abf565b600380546001600160a01b0383166001600160a01b03199182168117909255600f80549091169091179055806200008c620001c9565b62000096620001df565b600d54620000b0906000906001600160a01b03166200032a565b600d54620000e9907f0538d24a8b7882d7b2e36af243d4af61c23e86e3daa6cb8c887b53220b2f5720906001600160a01b03166200032a565b600a5462000122907f048bc71fa1cb2c119c339cf9cf00a97996a19a9d991ce5fe049f2fa5459e7990906001600160a01b03166200032a565b600b546200015b907ffa8e4989e1d689f7bc5c4b25b87efb51fecdecb19ba62847e29c759e12a89acd906001600160a01b03166200032a565b600e5462000194907ff0f4b159a6e2a4815eb3ca3df080bfa70c9270662c59bcaa4479a456220183e6906001600160a01b03166200032a565b620001c17f7c9d7f6f02908185bffb3f7fc9afb29fd7bf93675af8fd4b655ee05c2cee1e0e60006200032a565b505062000b15565b620001d36200036d565b620001dd620005d8565b565b600f60009054906101000a90046001600160a01b03166001600160a01b031663ff7e88ec6040518163ffffffff1660e01b815260040160206040518083038186803b1580156200022e57600080fd5b505afa15801562000243573d6000803e3d6000fd5b505050506040513d601f19601f8201168201806040525081019062000269919062000af1565b600f60156101000a81548160ff021916908315150217905550600f60009054906101000a90046001600160a01b03166001600160a01b0316632fb565856040518163ffffffff1660e01b815260040160206040518083038186803b158015620002d157600080fd5b505afa158015620002e6573d6000803e3d6000fd5b505050506040513d601f19601f820116820180604052508101906200030c919062000af1565b600f8054911515600160b01b0260ff60b01b19909216919091179055565b6200034182826200062160201b6200094a1760201c565b6000828152600260209081526040909120620003689183906200095462000631821b17901c565b505050565b600f60009054906101000a90046001600160a01b03166001600160a01b031663dadf56ac6040518163ffffffff1660e01b815260040160206040518083038186803b158015620003bc57600080fd5b505afa158015620003d1573d6000803e3d6000fd5b505050506040513d601f19601f82011682018060405250810190620003f7919062000abf565b600a80546001600160a01b0319166001600160a01b03928316179055600f546040805163024bebe960e01b81529051919092169163024bebe9916004808301926020929190829003018186803b1580156200045157600080fd5b505afa15801562000466573d6000803e3d6000fd5b505050506040513d601f19601f820116820180604052508101906200048c919062000abf565b600b80546001600160a01b0319166001600160a01b03928316179055600f5460408051635b5c251f60e01b815290519190921691635b5c251f916004808301926020929190829003018186803b158015620004e657600080fd5b505afa158015620004fb573d6000803e3d6000fd5b505050506040513d601f19601f8201168201806040525081019062000521919062000abf565b600c80546001600160a01b0319166001600160a01b03928316179055600f5460408051637310bf1d60e11b81529051919092169163e6217e3a916004808301926020929190829003018186803b1580156200057b57600080fd5b505afa15801562000590573d6000803e3d6000fd5b505050506040513d601f19601f82011682018060405250810190620005b6919062000abf565b600e80546001600160a01b0319166001600160a01b0392909216919091179055565b620005ed6200065160201b620009691760201c565b600554601080546001600160a01b039283166001600160a01b03199182161790915560095460118054919093169116179055565b6200062d8282620009e5565b5050565b600062000648836001600160a01b03841662000a6d565b90505b92915050565b600f60009054906101000a90046001600160a01b03166001600160a01b03166321d7f0086040518163ffffffff1660e01b815260040160206040518083038186803b158015620006a057600080fd5b505afa158015620006b5573d6000803e3d6000fd5b505050506040513d601f19601f82011682018060405250810190620006db919062000abf565b600480546001600160a01b0319166001600160a01b03928316178155600f546040805163762ddb5960e01b81529051919093169263762ddb599281810192602092909190829003018186803b1580156200073457600080fd5b505afa15801562000749573d6000803e3d6000fd5b505050506040513d601f19601f820116820180604052508101906200076f919062000abf565b600580546001600160a01b0319166001600160a01b03928316179055600f546040805163bfb7dc9960e01b81529051919092169163bfb7dc99916004808301926020929190829003018186803b158015620007c957600080fd5b505afa158015620007de573d6000803e3d6000fd5b505050506040513d601f19601f8201168201806040525081019062000804919062000abf565b600680546001600160a01b0319166001600160a01b03928316179055600f5460408051633e6111eb60e21b81529051919092169163f98447ac916004808301926020929190829003018186803b1580156200085e57600080fd5b505afa15801562000873573d6000803e3d6000fd5b505050506040513d601f19601f8201168201806040525081019062000899919062000abf565b600780546001600160a01b0319166001600160a01b03928316179055600f5460408051630fe1ba9f60e21b815290519190921691633f86ea7c916004808301926020929190829003018186803b158015620008f357600080fd5b505afa15801562000908573d6000803e3d6000fd5b505050506040513d601f19601f820116820180604052508101906200092e919062000abf565b600880546001600160a01b0319166001600160a01b03928316179055600f5460408051636b58477560e01b815290519190921691636b584775916004808301926020929190829003018186803b1580156200098857600080fd5b505afa1580156200099d573d6000803e3d6000fd5b505050506040513d601f19601f82011682018060405250810190620009c3919062000abf565b600980546001600160a01b0319166001600160a01b0392909216919091179055565b60008281526001602090815260408083206001600160a01b038516845290915290205460ff166200062d5760008281526001602081815260408084206001600160a01b0386168086529252808420805460ff19169093179092559051339285917f2f8788117e7eff1d82e926ec794901d17c78024a50270940304540a733656f0d9190a45050565b600081815260018301602052604081205462000ab6575081546001818101845560008481526020808220909301849055845484825282860190935260409020919091556200064b565b5060006200064b565b60006020828403121562000ad257600080fd5b81516001600160a01b038116811462000aea57600080fd5b9392505050565b60006020828403121562000b0457600080fd5b8151801515811462000aea57600080fd5b6122c08062000b256000396000f3fe608060405234801561001057600080fd5b50600436106102745760003560e01c806367a14f0611610151578063cce84392116100c3578063e78c266c11610087578063e78c266c1461054c578063e9a532301461055f578063f1132b3014610574578063f7d92d861461057c578063f98447ac14610584578063ff7e88ec1461059757600080fd5b8063cce84392146104e9578063cf4ece15146104fe578063d547741f14610513578063dadf56ac14610526578063e6217e3a1461053957600080fd5b8063a217fddf11610115578063a217fddf1461047f578063a32c5e5914610487578063a78e746f1461049c578063b6f928be146104b0578063bfb7dc99146104c3578063ca15c873146104d657600080fd5b806367a14f06146104205780636b58477514610433578063762ddb59146104465780639010d07c1461045957806391d148541461046c57600080fd5b806336568abe116101ea5780635261ad5a116101ae5780635261ad5a146103c357806357f276ff146103cc5780635b5c251f146103df5780635db531a1146103f25780635f413466146103fa578063645d2c411461040d57600080fd5b806336568abe1461037a5780633ab76e9f1461038d5780633f86ea7c146103a057806349b5e105146103b35780634d84c6d8146103bb57600080fd5b80632436329d1161023c5780632436329d146102fc578063248a9ca31461031f5780632f2ff15d146103435780632fb5658514610356578063326a55e01461036a578063329a8cfa1461037257600080fd5b806301ffc9a714610279578063024bebe9146102a1578063130f6320146102cc57806317314d5a146102e157806321d7f008146102e9575b600080fd5b61028c610287366004611fe2565b6105ab565b60405190151581526020015b60405180910390f35b600b546102b4906001600160a01b031681565b6040516001600160a01b039091168152602001610298565b6102df6102da366004611f77565b6105d6565b005b6102df610603565b6004546102b4906001600160a01b031681565b6103116000805160206121eb83398151915281565b604051908152602001610298565b61031161032d366004611f77565b6000908152600160208190526040909120015490565b6102df610351366004611f90565b610624565b600f5461028c90600160b01b900460ff1681565b6102df61064b565b6102df61065d565b6102df610388366004611f90565b61076b565b600f546102b4906001600160a01b031681565b6008546102b4906001600160a01b031681565b6102df61078d565b6102df610653565b61031160135481565b6102df6103da366004611f77565b610795565b600c546102b4906001600160a01b031681565b6102df6107a9565b600d546102b4906001600160a01b031681565b6102df61041b366004611f77565b6107b1565b6010546102b4906001600160a01b031681565b6009546102b4906001600160a01b031681565b6005546102b4906001600160a01b031681565b6102b4610467366004611fc0565b61082e565b61028c61047a366004611f90565b61084d565b610311600081565b61031160008051602061224b83398151915281565b600f5461028c90600160a01b900460ff1681565b6011546102b4906001600160a01b031681565b6006546102b4906001600160a01b031681565b6103116104e4366004611f77565b610878565b61031160008051602061226b83398151915281565b61031160008051602061222b83398151915281565b6102df610521366004611f90565b61088f565b600a546102b4906001600160a01b031681565b600e546102b4906001600160a01b031681565b6003546102b4906001600160a01b031681565b61031160008051602061220b83398151915281565b6102df610899565b6102df6108a1565b6007546102b4906001600160a01b031681565b600f5461028c90600160a81b900460ff1681565b60006001600160e01b03198216635a05180f60e01b14806105d057506105d082610ce5565b92915050565b6105e06001610d1a565b506105ea81610dd5565b506105f481610f50565b506105ff6000610d1a565b5050565b61060d6001610d1a565b506106166110d9565b506106216000610d1a565b50565b61062e828261121f565b60008281526002602052604090206106469082610954565b505050565b610653611259565b61065b6114b4565b565b61067560008051602061224b8339815191523361084d565b80610693575061069360008051602061220b8339815191523361084d565b806106b157506106b16000805160206121eb8339815191523361084d565b6106fb5760405162461bcd60e51b81526020600482015260166024820152752cb7ba93b932903737ba103a3432903130b4b634b33360511b60448201526064015b60405180910390fd5b600f60009054906101000a90046001600160a01b03166001600160a01b031663329a8cfa6040518163ffffffff1660e01b8152600401600060405180830381600087803b15801561074b57600080fd5b505af115801561075f573d6000803e3d6000fd5b5050505061065b6107a9565b61077582826114f0565b6000828152600260205260409020610646908261156a565b61065b611259565b61079f6001610d1a565b506105f48161157f565b61065b6117da565b6107c96000805160206121eb8339815191523361084d565b806107e757506107e760008051602061224b8339815191523361084d565b6108295760405162461bcd60e51b8152602060048201526013602482015272596f75277265206e6f7420746865204a75727960681b60448201526064016106f2565b601355565b6000828152600260205260408120610846908361191d565b9392505050565b60009182526001602090815260408084206001600160a01b0393909316845291905290205460ff1690565b60008181526002602052604081206105d090611929565b6107758282611933565b61065b61196d565b6108ab6001610d1a565b506108c360008051602061224b83398151915261157f565b506108db60008051602061220b83398151915261157f565b506108f36000805160206121eb83398151915261157f565b5061090b60008051602061222b83398151915261157f565b5061092360008051602061226b83398151915261157f565b5061092e600061157f565b506109376117da565b6109416000610d1a565b61065b57600080fd5b6105ff8282611aa4565b6000610846836001600160a01b038416611b0f565b600f60009054906101000a90046001600160a01b03166001600160a01b03166321d7f0086040518163ffffffff1660e01b815260040160206040518083038186803b1580156109b757600080fd5b505afa1580156109cb573d6000803e3d6000fd5b505050506040513d601f19601f820116820180604052508101906109ef9190611f38565b600480546001600160a01b0319166001600160a01b03928316178155600f546040805163762ddb5960e01b81529051919093169263762ddb599281810192602092909190829003018186803b158015610a4757600080fd5b505afa158015610a5b573d6000803e3d6000fd5b505050506040513d601f19601f82011682018060405250810190610a7f9190611f38565b600580546001600160a01b0319166001600160a01b03928316179055600f546040805163bfb7dc9960e01b81529051919092169163bfb7dc99916004808301926020929190829003018186803b158015610ad857600080fd5b505afa158015610aec573d6000803e3d6000fd5b505050506040513d601f19601f82011682018060405250810190610b109190611f38565b600680546001600160a01b0319166001600160a01b03928316179055600f5460408051633e6111eb60e21b81529051919092169163f98447ac916004808301926020929190829003018186803b158015610b6957600080fd5b505afa158015610b7d573d6000803e3d6000fd5b505050506040513d601f19601f82011682018060405250810190610ba19190611f38565b600780546001600160a01b0319166001600160a01b03928316179055600f5460408051630fe1ba9f60e21b815290519190921691633f86ea7c916004808301926020929190829003018186803b158015610bfa57600080fd5b505afa158015610c0e573d6000803e3d6000fd5b505050506040513d601f19601f82011682018060405250810190610c329190611f38565b600880546001600160a01b0319166001600160a01b03928316179055600f5460408051636b58477560e01b815290519190921691636b584775916004808301926020929190829003018186803b158015610c8b57600080fd5b505afa158015610c9f573d6000803e3d6000fd5b505050506040513d601f19601f82011682018060405250810190610cc39190611f38565b600980546001600160a01b0319166001600160a01b0392909216919091179055565b60006001600160e01b03198216637965db0b60e01b14806105d057506301ffc9a760e01b6001600160e01b03198316146105d0565b6000805460ff168215158115151415610d755760405162461bcd60e51b815260206004820152601960248201527f416c72656164792053657420746f20746861742076616c75650000000000000060448201526064016106f2565b6000805484151560ff19909116811790915560ff1615158115151415610dcc5760405162461bcd60e51b815260206004820152600c60248201526b29b0b33a32bc9022b93937b960a11b60448201526064016106f2565b50600192915050565b60405163ca15c87360e01b8152600481018290526000908190309063ca15c8739060240160206040518083038186803b158015610e1157600080fd5b505afa158015610e25573d6000803e3d6000fd5b505050506040513d601f19601f82011682018060405250810190610e49919061200c565b905060005b81811015610f4657604051632404341f60e21b815260048101859052602481018290526000903090639010d07c9060440160206040518083038186803b158015610e9757600080fd5b505afa158015610eab573d6000803e3d6000fd5b505050506040513d601f19601f82011682018060405250810190610ecf9190611f38565b60405163d547741f60e01b8152600481018790526001600160a01b0382166024820152909150309063d547741f90604401600060405180830381600087803b158015610f1a57600080fd5b505af1158015610f2e573d6000803e3d6000fd5b50505050508080610f3e90612162565b915050610e4e565b5060019392505050565b600f5460405163ca15c87360e01b81526004810183905260009182916001600160a01b039091169063ca15c8739060240160206040518083038186803b158015610f9957600080fd5b505afa158015610fad573d6000803e3d6000fd5b505050506040513d601f19601f82011682018060405250810190610fd1919061200c565b905060005b81811015610f4657600f54604051632404341f60e21b815260048101869052602481018390526000916001600160a01b031690639010d07c9060440160206040518083038186803b15801561102a57600080fd5b505afa15801561103e573d6000803e3d6000fd5b505050506040513d601f19601f820116820180604052508101906110629190611f38565b604051632f2ff15d60e01b8152600481018790526001600160a01b03821660248201529091503090632f2ff15d90604401600060405180830381600087803b1580156110ad57600080fd5b505af11580156110c1573d6000803e3d6000fd5b505050505080806110d190612162565b915050610fd6565b60006110f260008051602061224b833981519152610dd5565b5061110a60008051602061224b833981519152610f50565b61111357600080fd5b61112a60008051602061220b833981519152610dd5565b5061114260008051602061220b833981519152610f50565b61114b57600080fd5b6111626000805160206121eb833981519152610dd5565b5061117a6000805160206121eb833981519152610f50565b61118357600080fd5b61119a60008051602061222b833981519152610dd5565b506111b260008051602061222b833981519152610f50565b6111bb57600080fd5b6111d260008051602061226b833981519152610dd5565b506111ea60008051602061226b833981519152610f50565b6111f357600080fd5b6111fd6000610dd5565b506112086000610f50565b61121157600080fd5b6112196117da565b50600190565b600082815260016020819052604082200154905460ff1615611245576106468383611aa4565b61124f8133611b5e565b6106468383611aa4565b600f60009054906101000a90046001600160a01b03166001600160a01b031663dadf56ac6040518163ffffffff1660e01b815260040160206040518083038186803b1580156112a757600080fd5b505afa1580156112bb573d6000803e3d6000fd5b505050506040513d601f19601f820116820180604052508101906112df9190611f38565b600a80546001600160a01b0319166001600160a01b03928316179055600f546040805163024bebe960e01b81529051919092169163024bebe9916004808301926020929190829003018186803b15801561133857600080fd5b505afa15801561134c573d6000803e3d6000fd5b505050506040513d601f19601f820116820180604052508101906113709190611f38565b600b80546001600160a01b0319166001600160a01b03928316179055600f5460408051635b5c251f60e01b815290519190921691635b5c251f916004808301926020929190829003018186803b1580156113c957600080fd5b505afa1580156113dd573d6000803e3d6000fd5b505050506040513d601f19601f820116820180604052508101906114019190611f38565b600c80546001600160a01b0319166001600160a01b03928316179055600f5460408051637310bf1d60e11b81529051919092169163e6217e3a916004808301926020929190829003018186803b15801561145a57600080fd5b505afa15801561146e573d6000803e3d6000fd5b505050506040513d601f19601f820116820180604052508101906114929190611f38565b600e80546001600160a01b0319166001600160a01b0392909216919091179055565b6114bc610969565b600554601080546001600160a01b039283166001600160a01b03199182161790915560095460118054919093169116179055565b6001600160a01b03811633146115605760405162461bcd60e51b815260206004820152602f60248201527f416363657373436f6e74726f6c3a2063616e206f6e6c792072656e6f756e636560448201526e103937b632b9903337b91039b2b63360891b60648201526084016106f2565b6105ff8282611bc2565b6000610846836001600160a01b038416611c29565b600f5460405163ca15c87360e01b81526004810183905260009182916001600160a01b039091169063ca15c8739060240160206040518083038186803b1580156115c857600080fd5b505afa1580156115dc573d6000803e3d6000fd5b505050506040513d601f19601f82011682018060405250810190611600919061200c565b60405163ca15c87360e01b815260048101859052909150600090309063ca15c8739060240160206040518083038186803b15801561163d57600080fd5b505afa158015611651573d6000803e3d6000fd5b505050506040513d601f19601f82011682018060405250810190611675919061200c565b905060006116838284612104565b9050600081116116c85760405162461bcd60e51b815260206004820152601060248201526f4e6f7468696e6720746f2073796e632160801b60448201526064016106f2565b60005b818110156117ce57600f54604051632404341f60e21b815260048101889052602481018390526000916001600160a01b031690639010d07c9060440160206040518083038186803b15801561171f57600080fd5b505afa158015611733573d6000803e3d6000fd5b505050506040513d601f19601f820116820180604052508101906117579190611f38565b604051632f2ff15d60e01b8152600481018990526001600160a01b03821660248201529091503090632f2ff15d90604401600060405180830381600087803b1580156117a257600080fd5b505af11580156117b6573d6000803e3d6000fd5b505050505080806117c690612162565b9150506116cb565b50600195945050505050565b600f60009054906101000a90046001600160a01b03166001600160a01b031663ff7e88ec6040518163ffffffff1660e01b815260040160206040518083038186803b15801561182857600080fd5b505afa15801561183c573d6000803e3d6000fd5b505050506040513d601f19601f820116820180604052508101906118609190611f55565b600f60156101000a81548160ff021916908315150217905550600f60009054906101000a90046001600160a01b03166001600160a01b0316632fb565856040518163ffffffff1660e01b815260040160206040518083038186803b1580156118c757600080fd5b505afa1580156118db573d6000803e3d6000fd5b505050506040513d601f19601f820116820180604052508101906118ff9190611f55565b600f8054911515600160b01b0260ff60b01b19909216919091179055565b60006108468383611d16565b60006105d0825490565b600082815260016020819052604082200154905460ff1615611959576106468383611bc2565b6119638133611b5e565b6106468383611bc2565b600f60009054906101000a90046001600160a01b03166001600160a01b031663a44b93256040518163ffffffff1660e01b815260040160206040518083038186803b1580156119bb57600080fd5b505afa1580156119cf573d6000803e3d6000fd5b505050506040513d601f19601f820116820180604052508101906119f39190611f55565b6119fc57600080fd5b600f60009054906101000a90046001600160a01b03166001600160a01b031663ac7cfac36040518163ffffffff1660e01b815260040160206040518083038186803b158015611a4a57600080fd5b505afa158015611a5e573d6000803e3d6000fd5b505050506040513d601f19601f82011682018060405250810190611a829190611f38565b600380546001600160a01b0319166001600160a01b0392909216919091179055565b611aae828261084d565b6105ff5760008281526001602081815260408084206001600160a01b0386168086529252808420805460ff19169093179092559051339285917f2f8788117e7eff1d82e926ec794901d17c78024a50270940304540a733656f0d9190a45050565b6000818152600183016020526040812054611b56575081546001818101845560008481526020808220909301849055845484825282860190935260409020919091556105d0565b5060006105d0565b611b68828261084d565b6105ff57611b80816001600160a01b03166014611d9c565b611b8b836020611d9c565b604051602001611b9c929190612025565b60408051601f198184030181529082905262461bcd60e51b82526106f29160040161209a565b611bcc828261084d565b156105ff5760008281526001602090815260408083206001600160a01b0385168085529252808320805460ff1916905551339285917ff6391f5c32d9c69d2a47ea670b442974b53935d1edc7fd64eb21e047a839171b9190a45050565b60008181526001830160205260408120548015611d0c576000611c4d600183612104565b8554909150600090611c6190600190612104565b90506000866000018281548110611c7a57611c7a6121a9565b9060005260206000200154905080876000018481548110611c9d57611c9d6121a9565b600091825260208083209091019290925582815260018901909152604090208490558654879080611cd057611cd0612193565b600190038181906000526020600020016000905590558660010160008781526020019081526020016000206000905560019450505050506105d0565b60009150506105d0565b81546000908210611d745760405162461bcd60e51b815260206004820152602260248201527f456e756d657261626c655365743a20696e646578206f7574206f6620626f756e604482015261647360f01b60648201526084016106f2565b826000018281548110611d8957611d896121a9565b9060005260206000200154905092915050565b60606000611dab8360026120e5565b611db69060026120cd565b67ffffffffffffffff811115611dce57611dce6121bf565b6040519080825280601f01601f191660200182016040528015611df8576020820181803683370190505b509050600360fc1b81600081518110611e1357611e136121a9565b60200101906001600160f81b031916908160001a905350600f60fb1b81600181518110611e4257611e426121a9565b60200101906001600160f81b031916908160001a9053506000611e668460026120e5565b611e719060016120cd565b90505b6001811115611ee9576f181899199a1a9b1b9c1cb0b131b232b360811b85600f1660108110611ea557611ea56121a9565b1a60f81b828281518110611ebb57611ebb6121a9565b60200101906001600160f81b031916908160001a90535060049490941c93611ee28161214b565b9050611e74565b5083156108465760405162461bcd60e51b815260206004820181905260248201527f537472696e67733a20686578206c656e67746820696e73756666696369656e7460448201526064016106f2565b600060208284031215611f4a57600080fd5b8151610846816121d5565b600060208284031215611f6757600080fd5b8151801515811461084657600080fd5b600060208284031215611f8957600080fd5b5035919050565b60008060408385031215611fa357600080fd5b823591506020830135611fb5816121d5565b809150509250929050565b60008060408385031215611fd357600080fd5b50508035926020909101359150565b600060208284031215611ff457600080fd5b81356001600160e01b03198116811461084657600080fd5b60006020828403121561201e57600080fd5b5051919050565b7f416363657373436f6e74726f6c3a206163636f756e742000000000000000000081526000835161205d81601785016020880161211b565b7001034b99036b4b9b9b4b733903937b6329607d1b601791840191820152835161208e81602884016020880161211b565b01602801949350505050565b60208152600082518060208401526120b981604085016020870161211b565b601f01601f19169190910160400192915050565b600082198211156120e0576120e061217d565b500190565b60008160001904831182151516156120ff576120ff61217d565b500290565b6000828210156121165761211661217d565b500390565b60005b8381101561213657818101518382015260200161211e565b83811115612145576000848401525b50505050565b60008161215a5761215a61217d565b506000190190565b60006000198214156121765761217661217d565b5060010190565b634e487b7160e01b600052601160045260246000fd5b634e487b7160e01b600052603160045260246000fd5b634e487b7160e01b600052603260045260246000fd5b634e487b7160e01b600052604160045260246000fd5b6001600160a01b038116811461062157600080fdfefa8e4989e1d689f7bc5c4b25b87efb51fecdecb19ba62847e29c759e12a89acd048bc71fa1cb2c119c339cf9cf00a97996a19a9d991ce5fe049f2fa5459e7990f0f4b159a6e2a4815eb3ca3df080bfa70c9270662c59bcaa4479a456220183e60538d24a8b7882d7b2e36af243d4af61c23e86e3daa6cb8c887b53220b2f57207c9d7f6f02908185bffb3f7fc9afb29fd7bf93675af8fd4b655ee05c2cee1e0ea2646970667358221220822c38e7b010a63ef9ba7006ea95a19728e095fe9f8b5a03ad1e592fac5ed6fa64736f6c63430008060033",
  "immutableReferences": {},
  "source": "// SPDX-License-Identifier: MIT\n//  I have not really implemented anything yet. This is just a placeholder.\n//  I have not really implemented anything yet. This is just a placeholder.\n//  I have not really implemented anything yet. This is just a placeholder.\n//  I have not really implemented anything yet. This is just a placeholder.\n//  I have not really implemented anything yet. This is just a placeholder.\n//  I have not really implemented anything yet. This is just a placeholder.\n//  I have not really implemented anything yet. This is just a placeholder.\n//  I have not really implemented anything yet. This is just a placeholder.\n//  I have not really implemented anything yet. This is just a placeholder.\n//  I have not really implemented anything yet. This is just a placeholder.\n//  I have not really implemented anything yet. This is just a placeholder.\n//  I have not really implemented anything yet. This is just a placeholder.\n//  I have not really implemented anything yet. This is just a placeholder.\n//  I have not really implemented anything yet. This is just a placeholder.\n//  I have not really implemented anything yet. This is just a placeholder.\n//  I have not really implemented anything yet. This is just a placeholder.\n//  I have not really implemented anything yet. This is just a placeholder.\n//  I have not really implemented anything yet. This is just a placeholder.\n//  I have not really implemented anything yet. This is just a placeholder.\n//  I have not really implemented anything yet. This is just a placeholder.\n//  I have not really implemented anything yet. This is just a placeholder.\n//  I have not really implemented anything yet. This is just a placeholder.\n\n//  I have not really implemented anything yet. This is just a placeholder.\n//  I have not really implemented anything yet. This is just a placeholder.\n//  I have not really implemented anything yet. This is just a placeholder.\n//  I have not really implemented anything yet. This is just a placeholder.\n//  I have not really implemented anything yet. This is just a placeholder.\n//  I have not really implemented anything yet. This is just a placeholder.\n\n//  I have not really implemented anything yet. This is just a placeholder.\n//  I have not really implemented anything yet. This is just a placeholder.\npragma solidity ^0.8.0;\n\nimport \"../src/SmartConsensusMachine.sol\";\nimport \"./JuryPool.sol\";\n\nimport \"@openzeppelin/contracts/token/ERC20/IERC20.sol\";\nimport \"@openzeppelin/contracts/token/ERC20/ERC20.sol\";\nimport \"@openzeppelin/contracts/token/ERC20/extensions/ERC20Snapshot.sol\";\n\n\ncontract DisputeMachine is SmartConsensusMachine {\n\n    ERC20 public redPens;\n    JuryPool public juryHats;\n\n    uint private slashIndex = 0;\n    uint public slashPercentageInWholeNumber = 30;\n\n    uint[] private slashList;\n\n\n    constructor(address _AddressManagerAddress) SmartConsensusMachine(_AddressManagerAddress)  {\n\n    }\n\n\n    function drawJurors() internal {\n        // emit events to summon jurrors based on their token IDs        \n    }\n\n    function _slash() internal {\n\n        for (uint i = 0; i < slashIndex; i++) {\n            juryHats.slashToken(slashList[i], slashPercentageInWholeNumber);\n            slashList[i] = 0;\n        }\n        slashIndex = 0;\n\n    }\n\n    function setSlashPercent(uint _slashPercentageInWholeNumber) public JURY {\n        slashPercentageInWholeNumber = _slashPercentageInWholeNumber;\n    }\n\n    function _updateTokenAddresses() internal override {\n        // Set these from the Address Manager Contract\n        \n        super._updateTokenAddresses();\n        redPens = ERC20(RedPenTokenAddress);\n        juryHats = JuryPool(JuryPoolAddress);\n    }\n\n}",
  "sourcePath": "/home/n/Desktop/PinkSlips_FrontEnd_REFORMAT (copy)/contracts/juryAndAppeals/DisputeMachine.sol",
  "compiler": {
    "name": "solc",
    "version": "0.8.6+commit.11564f7e.Emscripten.clang"
  },
  "schemaVersion": "3.4.1",
  "updatedAt": "2021-08-08T03:03:57.686Z",
  "networkType": "ethereum",
  "devdoc": {
    "kind": "dev",
    "methods": {
      "getRoleAdmin(bytes32)": {
        "details": "Returns the admin role that controls `role`. See {grantRole} and {revokeRole}. To change a role's admin, use {_setRoleAdmin}."
      },
      "getRoleMember(bytes32,uint256)": {
        "details": "Returns one of the accounts that have `role`. `index` must be a value between 0 and {getRoleMemberCount}, non-inclusive. Role bearers are not sorted in any particular way, and their ordering may change at any point. WARNING: When using {getRoleMember} and {getRoleMemberCount}, make sure you perform all queries on the same block. See the following https://forum.openzeppelin.com/t/iterating-over-elements-on-enumerableset-in-openzeppelin-contracts/2296[forum post] for more information."
      },
      "getRoleMemberCount(bytes32)": {
        "details": "Returns the number of accounts that have `role`. Can be used together with {getRoleMember} to enumerate all bearers of a role."
      },
      "grantRole(bytes32,address)": {
        "details": "Overload {grantRole} to track enumerable memberships"
      },
      "hasRole(bytes32,address)": {
        "details": "Returns `true` if `account` has been granted `role`."
      },
      "renounceRole(bytes32,address)": {
        "details": "Overload {renounceRole} to track enumerable memberships"
      },
      "revokeRole(bytes32,address)": {
        "details": "Overload {revokeRole} to track enumerable memberships"
      },
      "supportsInterface(bytes4)": {
        "details": "See {IERC165-supportsInterface}."
      }
    },
    "version": 1
  },
  "userdoc": {
    "kind": "user",
    "methods": {},
    "version": 1
  }
}