{
  "contractName": "DisputeMachine",
  "abi": [
    {
      "inputs": [
        {
          "internalType": "address",
          "name": "_AddressManagerAddress",
          "type": "address"
        }
      ],
      "stateMutability": "nonpayable",
      "type": "constructor"
    },
    {
      "anonymous": false,
      "inputs": [
        {
          "indexed": true,
          "internalType": "bytes32",
          "name": "role",
          "type": "bytes32"
        },
        {
          "indexed": true,
          "internalType": "bytes32",
          "name": "previousAdminRole",
          "type": "bytes32"
        },
        {
          "indexed": true,
          "internalType": "bytes32",
          "name": "newAdminRole",
          "type": "bytes32"
        }
      ],
      "name": "RoleAdminChanged",
      "type": "event"
    },
    {
      "anonymous": false,
      "inputs": [
        {
          "indexed": true,
          "internalType": "bytes32",
          "name": "role",
          "type": "bytes32"
        },
        {
          "indexed": true,
          "internalType": "address",
          "name": "account",
          "type": "address"
        },
        {
          "indexed": true,
          "internalType": "address",
          "name": "sender",
          "type": "address"
        }
      ],
      "name": "RoleGranted",
      "type": "event"
    },
    {
      "anonymous": false,
      "inputs": [
        {
          "indexed": true,
          "internalType": "bytes32",
          "name": "role",
          "type": "bytes32"
        },
        {
          "indexed": true,
          "internalType": "address",
          "name": "account",
          "type": "address"
        },
        {
          "indexed": true,
          "internalType": "address",
          "name": "sender",
          "type": "address"
        }
      ],
      "name": "RoleRevoked",
      "type": "event"
    },
    {
      "inputs": [],
      "name": "AddressManagerAddress",
      "outputs": [
        {
          "internalType": "address",
          "name": "",
          "type": "address"
        }
      ],
      "stateMutability": "view",
      "type": "function",
      "constant": true
    },
    {
      "inputs": [],
      "name": "ChadBadgeAddress",
      "outputs": [
        {
          "internalType": "address",
          "name": "",
          "type": "address"
        }
      ],
      "stateMutability": "view",
      "type": "function",
      "constant": true
    },
    {
      "inputs": [],
      "name": "DEFAULT_ADMIN_ROLE",
      "outputs": [
        {
          "internalType": "bytes32",
          "name": "",
          "type": "bytes32"
        }
      ],
      "stateMutability": "view",
      "type": "function",
      "constant": true
    },
    {
      "inputs": [],
      "name": "GAVELS_BAILIFF",
      "outputs": [
        {
          "internalType": "bytes32",
          "name": "",
          "type": "bytes32"
        }
      ],
      "stateMutability": "view",
      "type": "function",
      "constant": true
    },
    {
      "inputs": [],
      "name": "GavelDAOAgent",
      "outputs": [
        {
          "internalType": "address",
          "name": "",
          "type": "address"
        }
      ],
      "stateMutability": "view",
      "type": "function",
      "constant": true
    },
    {
      "inputs": [],
      "name": "GavelTokenAddress",
      "outputs": [
        {
          "internalType": "address",
          "name": "",
          "type": "address"
        }
      ],
      "stateMutability": "view",
      "type": "function",
      "constant": true
    },
    {
      "inputs": [],
      "name": "GavelVote",
      "outputs": [
        {
          "internalType": "bool",
          "name": "",
          "type": "bool"
        }
      ],
      "stateMutability": "view",
      "type": "function",
      "constant": true
    },
    {
      "inputs": [],
      "name": "GoldStarAddress",
      "outputs": [
        {
          "internalType": "address",
          "name": "",
          "type": "address"
        }
      ],
      "stateMutability": "view",
      "type": "function",
      "constant": true
    },
    {
      "inputs": [],
      "name": "JERK_ROLE",
      "outputs": [
        {
          "internalType": "bytes32",
          "name": "",
          "type": "bytes32"
        }
      ],
      "stateMutability": "view",
      "type": "function",
      "constant": true
    },
    {
      "inputs": [],
      "name": "JURY_BAILIFF",
      "outputs": [
        {
          "internalType": "bytes32",
          "name": "",
          "type": "bytes32"
        }
      ],
      "stateMutability": "view",
      "type": "function",
      "constant": true
    },
    {
      "inputs": [],
      "name": "JuryDAOAgent",
      "outputs": [
        {
          "internalType": "address",
          "name": "",
          "type": "address"
        }
      ],
      "stateMutability": "view",
      "type": "function",
      "constant": true
    },
    {
      "inputs": [],
      "name": "JuryPoolAddress",
      "outputs": [
        {
          "internalType": "address",
          "name": "",
          "type": "address"
        }
      ],
      "stateMutability": "view",
      "type": "function",
      "constant": true
    },
    {
      "inputs": [],
      "name": "JuryVote",
      "outputs": [
        {
          "internalType": "bool",
          "name": "",
          "type": "bool"
        }
      ],
      "stateMutability": "view",
      "type": "function",
      "constant": true
    },
    {
      "inputs": [],
      "name": "MINI_BAILIFF_ROLE",
      "outputs": [
        {
          "internalType": "bytes32",
          "name": "",
          "type": "bytes32"
        }
      ],
      "stateMutability": "view",
      "type": "function",
      "constant": true
    },
    {
      "inputs": [],
      "name": "MiniBailiff",
      "outputs": [
        {
          "internalType": "address",
          "name": "",
          "type": "address"
        }
      ],
      "stateMutability": "view",
      "type": "function",
      "constant": true
    },
    {
      "inputs": [],
      "name": "PinkSlipAddress",
      "outputs": [
        {
          "internalType": "address",
          "name": "",
          "type": "address"
        }
      ],
      "stateMutability": "view",
      "type": "function",
      "constant": true
    },
    {
      "inputs": [],
      "name": "RedPenTokenAddress",
      "outputs": [
        {
          "internalType": "address",
          "name": "",
          "type": "address"
        }
      ],
      "stateMutability": "view",
      "type": "function",
      "constant": true
    },
    {
      "inputs": [],
      "name": "THE_COURT_ROLE",
      "outputs": [
        {
          "internalType": "bytes32",
          "name": "",
          "type": "bytes32"
        }
      ],
      "stateMutability": "view",
      "type": "function",
      "constant": true
    },
    {
      "inputs": [],
      "name": "TheCourtAddress",
      "outputs": [
        {
          "internalType": "address",
          "name": "",
          "type": "address"
        }
      ],
      "stateMutability": "view",
      "type": "function",
      "constant": true
    },
    {
      "inputs": [],
      "name": "TreasuryAddress",
      "outputs": [
        {
          "internalType": "address",
          "name": "",
          "type": "address"
        }
      ],
      "stateMutability": "view",
      "type": "function",
      "constant": true
    },
    {
      "inputs": [],
      "name": "addressManager",
      "outputs": [
        {
          "internalType": "contract AddressManager",
          "name": "",
          "type": "address"
        }
      ],
      "stateMutability": "view",
      "type": "function",
      "constant": true
    },
    {
      "inputs": [
        {
          "internalType": "bytes32",
          "name": "role",
          "type": "bytes32"
        }
      ],
      "name": "getRoleAdmin",
      "outputs": [
        {
          "internalType": "bytes32",
          "name": "",
          "type": "bytes32"
        }
      ],
      "stateMutability": "view",
      "type": "function",
      "constant": true
    },
    {
      "inputs": [
        {
          "internalType": "bytes32",
          "name": "role",
          "type": "bytes32"
        },
        {
          "internalType": "uint256",
          "name": "index",
          "type": "uint256"
        }
      ],
      "name": "getRoleMember",
      "outputs": [
        {
          "internalType": "address",
          "name": "",
          "type": "address"
        }
      ],
      "stateMutability": "view",
      "type": "function",
      "constant": true
    },
    {
      "inputs": [
        {
          "internalType": "bytes32",
          "name": "role",
          "type": "bytes32"
        }
      ],
      "name": "getRoleMemberCount",
      "outputs": [
        {
          "internalType": "uint256",
          "name": "",
          "type": "uint256"
        }
      ],
      "stateMutability": "view",
      "type": "function",
      "constant": true
    },
    {
      "inputs": [
        {
          "internalType": "bytes32",
          "name": "role",
          "type": "bytes32"
        },
        {
          "internalType": "address",
          "name": "account",
          "type": "address"
        }
      ],
      "name": "grantRole",
      "outputs": [],
      "stateMutability": "nonpayable",
      "type": "function"
    },
    {
      "inputs": [
        {
          "internalType": "bytes32",
          "name": "role",
          "type": "bytes32"
        },
        {
          "internalType": "address",
          "name": "account",
          "type": "address"
        }
      ],
      "name": "hasRole",
      "outputs": [
        {
          "internalType": "bool",
          "name": "",
          "type": "bool"
        }
      ],
      "stateMutability": "view",
      "type": "function",
      "constant": true
    },
    {
      "inputs": [],
      "name": "jerkSanctions",
      "outputs": [
        {
          "internalType": "bool",
          "name": "",
          "type": "bool"
        }
      ],
      "stateMutability": "view",
      "type": "function",
      "constant": true
    },
    {
      "inputs": [],
      "name": "juryHats",
      "outputs": [
        {
          "internalType": "contract JuryPool",
          "name": "",
          "type": "address"
        }
      ],
      "stateMutability": "view",
      "type": "function",
      "constant": true
    },
    {
      "inputs": [],
      "name": "redPens",
      "outputs": [
        {
          "internalType": "contract ERC20",
          "name": "",
          "type": "address"
        }
      ],
      "stateMutability": "view",
      "type": "function",
      "constant": true
    },
    {
      "inputs": [
        {
          "internalType": "bytes32",
          "name": "role",
          "type": "bytes32"
        },
        {
          "internalType": "address",
          "name": "account",
          "type": "address"
        }
      ],
      "name": "renounceRole",
      "outputs": [],
      "stateMutability": "nonpayable",
      "type": "function"
    },
    {
      "inputs": [],
      "name": "resetVote",
      "outputs": [],
      "stateMutability": "nonpayable",
      "type": "function"
    },
    {
      "inputs": [
        {
          "internalType": "bytes32",
          "name": "role",
          "type": "bytes32"
        },
        {
          "internalType": "address",
          "name": "account",
          "type": "address"
        }
      ],
      "name": "revokeRole",
      "outputs": [],
      "stateMutability": "nonpayable",
      "type": "function"
    },
    {
      "inputs": [],
      "name": "slashPercentageInWholeNumber",
      "outputs": [
        {
          "internalType": "uint256",
          "name": "",
          "type": "uint256"
        }
      ],
      "stateMutability": "view",
      "type": "function",
      "constant": true
    },
    {
      "inputs": [
        {
          "internalType": "bytes4",
          "name": "interfaceId",
          "type": "bytes4"
        }
      ],
      "name": "supportsInterface",
      "outputs": [
        {
          "internalType": "bool",
          "name": "",
          "type": "bool"
        }
      ],
      "stateMutability": "view",
      "type": "function",
      "constant": true
    },
    {
      "inputs": [],
      "name": "syncAllRoles",
      "outputs": [],
      "stateMutability": "nonpayable",
      "type": "function"
    },
    {
      "inputs": [
        {
          "internalType": "bytes32",
          "name": "ROLE_TO_SYNC",
          "type": "bytes32"
        }
      ],
      "name": "syncSingleRole",
      "outputs": [],
      "stateMutability": "nonpayable",
      "type": "function"
    },
    {
      "inputs": [],
      "name": "syncVotes",
      "outputs": [],
      "stateMutability": "nonpayable",
      "type": "function"
    },
    {
      "inputs": [],
      "name": "updateAddressManager",
      "outputs": [],
      "stateMutability": "nonpayable",
      "type": "function"
    },
    {
      "inputs": [],
      "name": "updateAllAddresses",
      "outputs": [],
      "stateMutability": "nonpayable",
      "type": "function"
    },
    {
      "inputs": [],
      "name": "updateAllRoles",
      "outputs": [],
      "stateMutability": "nonpayable",
      "type": "function"
    },
    {
      "inputs": [],
      "name": "updateDAOAddresses",
      "outputs": [],
      "stateMutability": "nonpayable",
      "type": "function"
    },
    {
      "inputs": [
        {
          "internalType": "bytes32",
          "name": "ROLE_TO_UPDATE",
          "type": "bytes32"
        }
      ],
      "name": "updateSingleRole",
      "outputs": [],
      "stateMutability": "nonpayable",
      "type": "function"
    },
    {
      "inputs": [],
      "name": "updateTokenAddresses",
      "outputs": [],
      "stateMutability": "nonpayable",
      "type": "function"
    },
    {
      "inputs": [
        {
          "internalType": "uint256",
          "name": "_slashPercentageInWholeNumber",
          "type": "uint256"
        }
      ],
      "name": "setSlashPercent",
      "outputs": [],
      "stateMutability": "nonpayable",
      "type": "function"
    }
  ],
  "bytecode": "0x6080604052600e805463ffffffff60a01b191690556000601155601e6012553480156200002b57600080fd5b5060405162002e3d38038062002e3d8339810160408190526200004e9162000af8565b600280546001600160a01b038084166001600160a01b03199283161792839055600e805490921692169190911790558062000088620001c5565b62000092620001db565b600c54620000ac906000906001600160a01b03166200031f565b600c54620000e5907f0538d24a8b7882d7b2e36af243d4af61c23e86e3daa6cb8c887b53220b2f5720906001600160a01b03166200031f565b6009546200011e907f048bc71fa1cb2c119c339cf9cf00a97996a19a9d991ce5fe049f2fa5459e7990906001600160a01b03166200031f565b600a5462000157907ffa8e4989e1d689f7bc5c4b25b87efb51fecdecb19ba62847e29c759e12a89acd906001600160a01b03166200031f565b600d5462000190907ff0f4b159a6e2a4815eb3ca3df080bfa70c9270662c59bcaa4479a456220183e6906001600160a01b03166200031f565b620001bd7f7c9d7f6f02908185bffb3f7fc9afb29fd7bf93675af8fd4b655ee05c2cee1e0e60006200031f565b505062000b4a565b620001cf62000362565b620001d9620005cd565b565b600e60009054906101000a90046001600160a01b03166001600160a01b031663ff7e88ec6040518163ffffffff1660e01b815260040160206040518083038186803b1580156200022a57600080fd5b505afa1580156200023f573d6000803e3d6000fd5b505050506040513d601f19601f8201168201806040525081019062000265919062000b28565b600e8054911515600160a81b0260ff60a81b19909216919091179081905560408051632fb5658560e01b815290516001600160a01b0390921691632fb5658591600480820192602092909190829003018186803b158015620002c657600080fd5b505afa158015620002db573d6000803e3d6000fd5b505050506040513d601f19601f8201168201806040525081019062000301919062000b28565b600e8054911515600160b01b0260ff60b01b19909216919091179055565b6200033682826200061660201b6200090c1760201c565b60008281526001602090815260409091206200035d9183906200091662000626821b17901c565b505050565b600e60009054906101000a90046001600160a01b03166001600160a01b031663dadf56ac6040518163ffffffff1660e01b815260040160206040518083038186803b158015620003b157600080fd5b505afa158015620003c6573d6000803e3d6000fd5b505050506040513d601f19601f82011682018060405250810190620003ec919062000af8565b600980546001600160a01b0319166001600160a01b03928316179055600e546040805163024bebe960e01b81529051919092169163024bebe9916004808301926020929190829003018186803b1580156200044657600080fd5b505afa1580156200045b573d6000803e3d6000fd5b505050506040513d601f19601f8201168201806040525081019062000481919062000af8565b600a80546001600160a01b0319166001600160a01b03928316179055600e5460408051635b5c251f60e01b815290519190921691635b5c251f916004808301926020929190829003018186803b158015620004db57600080fd5b505afa158015620004f0573d6000803e3d6000fd5b505050506040513d601f19601f8201168201806040525081019062000516919062000af8565b600b80546001600160a01b0319166001600160a01b03928316179055600e5460408051637310bf1d60e11b81529051919092169163e6217e3a916004808301926020929190829003018186803b1580156200057057600080fd5b505afa15801562000585573d6000803e3d6000fd5b505050506040513d601f19601f82011682018060405250810190620005ab919062000af8565b600d80546001600160a01b0319166001600160a01b0392909216919091179055565b620005e26200064660201b6200092b1760201c565b600454600f80546001600160a01b039283166001600160a01b03199182161790915560085460108054919093169116179055565b620006228282620009da565b5050565b60006200063d836001600160a01b03841662000a64565b90505b92915050565b600e60009054906101000a90046001600160a01b03166001600160a01b03166321d7f0086040518163ffffffff1660e01b815260040160206040518083038186803b1580156200069557600080fd5b505afa158015620006aa573d6000803e3d6000fd5b505050506040513d601f19601f82011682018060405250810190620006d0919062000af8565b600380546001600160a01b0319166001600160a01b03928316179055600e546040805163762ddb5960e01b81529051919092169163762ddb59916004808301926020929190829003018186803b1580156200072a57600080fd5b505afa1580156200073f573d6000803e3d6000fd5b505050506040513d601f19601f8201168201806040525081019062000765919062000af8565b600480546001600160a01b0319166001600160a01b03928316178155600e546040805163bfb7dc9960e01b81529051919093169263bfb7dc999281810192602092909190829003018186803b158015620007be57600080fd5b505afa158015620007d3573d6000803e3d6000fd5b505050506040513d601f19601f82011682018060405250810190620007f9919062000af8565b600580546001600160a01b0319166001600160a01b03928316179055600e5460408051633e6111eb60e21b81529051919092169163f98447ac916004808301926020929190829003018186803b1580156200085357600080fd5b505afa15801562000868573d6000803e3d6000fd5b505050506040513d601f19601f820116820180604052508101906200088e919062000af8565b600680546001600160a01b0319166001600160a01b03928316179055600e5460408051630fe1ba9f60e21b815290519190921691633f86ea7c916004808301926020929190829003018186803b158015620008e857600080fd5b505afa158015620008fd573d6000803e3d6000fd5b505050506040513d601f19601f8201168201806040525081019062000923919062000af8565b600780546001600160a01b0319166001600160a01b03928316179055600e5460408051636b58477560e01b815290519190921691636b584775916004808301926020929190829003018186803b1580156200097d57600080fd5b505afa15801562000992573d6000803e3d6000fd5b505050506040513d601f19601f82011682018060405250810190620009b8919062000af8565b600880546001600160a01b0319166001600160a01b0392909216919091179055565b620009e6828262000ab3565b62000622576000828152602081815260408083206001600160a01b03851684529091529020805460ff1916600117905562000a2062000adc565b6001600160a01b0316816001600160a01b0316837f2f8788117e7eff1d82e926ec794901d17c78024a50270940304540a733656f0d60405160405180910390a45050565b600062000a72838362000ae0565b62000aaa5750815460018181018455600084815260208082209093018490558454848252828601909352604090209190915562000640565b50600062000640565b6000918252602082815260408084206001600160a01b0393909316845291905290205460ff1690565b3390565b60009081526001919091016020526040902054151590565b60006020828403121562000b0a578081fd5b81516001600160a01b038116811462000b21578182fd5b9392505050565b60006020828403121562000b3a578081fd5b8151801515811462000b21578182fd5b6122e38062000b5a6000396000f3fe608060405234801561001057600080fd5b50600436106102745760003560e01c806367a14f0611610151578063cce84392116100c3578063e78c266c11610087578063e78c266c14610454578063e9a532301461045c578063f1132b3014610464578063f7d92d861461046c578063f98447ac14610474578063ff7e88ec1461047c57610274565b8063cce8439214610421578063cf4ece1514610429578063d547741f14610431578063dadf56ac14610444578063e6217e3a1461044c57610274565b8063a217fddf11610115578063a217fddf146103e6578063a32c5e59146103ee578063a78e746f146103f6578063b6f928be146103fe578063bfb7dc9914610406578063ca15c8731461040e57610274565b806367a14f06146103a85780636b584775146103b0578063762ddb59146103b85780639010d07c146103c057806391d14854146103d357610274565b806336568abe116101ea5780635261ad5a116101ae5780635261ad5a1461036257806357f276ff1461036a5780635b5c251f1461037d5780635db531a1146103855780635f4134661461038d578063645d2c411461039557610274565b806336568abe1461032f5780633ab76e9f146103425780633f86ea7c1461034a57806349b5e105146103525780634d84c6d81461035a57610274565b80632436329d1161023c5780632436329d146102dc578063248a9ca3146102f15780632f2ff15d146103045780632fb5658514610317578063326a55e01461031f578063329a8cfa1461032757610274565b806301ffc9a714610279578063024bebe9146102a2578063130f6320146102b757806317314d5a146102cc57806321d7f008146102d4575b600080fd5b61028c610287366004611eb0565b610484565b6040516102999190611f79565b60405180910390f35b6102aa6104af565b6040516102999190611f65565b6102ca6102c5366004611e48565b6104be565b005b6102ca6104d5565b6102aa6104e0565b6102e46104ef565b6040516102999190611f84565b6102e46102ff366004611e48565b610501565b6102ca610312366004611e60565b610516565b61028c61053d565b6102ca61054d565b6102ca61055f565b6102ca61033d366004611e60565b610648565b6102aa61066a565b6102aa610679565b6102ca610688565b6102ca610555565b6102e4610690565b6102ca610378366004611e48565b610696565b6102aa61069f565b6102ca6106ae565b6102aa6106b6565b6102ca6103a3366004611e48565b6106c5565b6102aa61071c565b6102aa61072b565b6102aa61073a565b6102aa6103ce366004611e8f565b610749565b61028c6103e1366004611e60565b610768565b6102e4610791565b6102e4610796565b61028c6107a8565b6102aa6107b8565b6102aa6107c7565b6102e461041c366004611e48565b6107d6565b6102e46107ed565b6102e46107ff565b6102ca61043f366004611e60565b610811565b6102aa61081b565b6102aa61082a565b6102aa610839565b6102e4610848565b6102ca61085a565b6102ca610862565b6102aa6108ed565b61028c6108fc565b60006001600160e01b03198216635a05180f60e01b14806104a957506104a982610ca7565b92915050565b600a546001600160a01b031681565b6104c781610ccc565b506104d181610e41565b5050565b6104dd610fc4565b50565b6003546001600160a01b031681565b60008051602061220e83398151915281565b60009081526020819052604090206001015490565b610520828261110a565b60008281526001602052604090206105389082610916565b505050565b600e54600160b01b900460ff1681565b61055561112e565b61055d611389565b565b61057760008051602061226e83398151915233610768565b80610595575061059560008051602061222e83398151915233610768565b806105b357506105b360008051602061220e83398151915233610768565b6105d85760405162461bcd60e51b81526004016105cf9061205c565b60405180910390fd5b600e60009054906101000a90046001600160a01b03166001600160a01b031663329a8cfa6040518163ffffffff1660e01b8152600401600060405180830381600087803b15801561062857600080fd5b505af115801561063c573d6000803e3d6000fd5b5050505061055d6106ae565b61065282826113c5565b60008281526001602052604090206105389082611407565b600e546001600160a01b031681565b6007546001600160a01b031681565b61055d61112e565b60125481565b6104d18161141c565b600b546001600160a01b031681565b61055d611652565b600c546001600160a01b031681565b6106dd60008051602061220e83398151915233610768565b806106fb57506106fb60008051602061226e83398151915233610768565b6107175760405162461bcd60e51b81526004016105cf906120b6565b601255565b600f546001600160a01b031681565b6008546001600160a01b031681565b6004546001600160a01b031681565b6000828152600160205260408120610761908361178e565b9392505050565b6000918252602082815260408084206001600160a01b0393909316845291905290205460ff1690565b600081565b60008051602061226e83398151915281565b600e54600160a01b900460ff1681565b6010546001600160a01b031681565b6005546001600160a01b031681565b60008181526001602052604081206104a99061179a565b60008051602061228e83398151915281565b60008051602061224e83398151915281565b61065282826117a5565b6009546001600160a01b031681565b600d546001600160a01b031681565b6002546001600160a01b031681565b60008051602061222e83398151915281565b61055d6117c4565b61087960008051602061226e83398151915261141c565b5061089160008051602061222e83398151915261141c565b506108a960008051602061220e83398151915261141c565b506108c160008051602061224e83398151915261141c565b506108d960008051602061228e83398151915261141c565b506108e4600061141c565b5061055d611652565b6006546001600160a01b031681565b600e54600160a81b900460ff1681565b6104d182826118fb565b6000610761836001600160a01b038416611980565b600e60009054906101000a90046001600160a01b03166001600160a01b03166321d7f0086040518163ffffffff1660e01b815260040160206040518083038186803b15801561097957600080fd5b505afa15801561098d573d6000803e3d6000fd5b505050506040513d601f19601f820116820180604052508101906109b19190611e0c565b600380546001600160a01b0319166001600160a01b03928316179055600e546040805163762ddb5960e01b81529051919092169163762ddb59916004808301926020929190829003018186803b158015610a0a57600080fd5b505afa158015610a1e573d6000803e3d6000fd5b505050506040513d601f19601f82011682018060405250810190610a429190611e0c565b600480546001600160a01b0319166001600160a01b03928316178155600e546040805163bfb7dc9960e01b81529051919093169263bfb7dc999281810192602092909190829003018186803b158015610a9a57600080fd5b505afa158015610aae573d6000803e3d6000fd5b505050506040513d601f19601f82011682018060405250810190610ad29190611e0c565b600580546001600160a01b0319166001600160a01b03928316179055600e5460408051633e6111eb60e21b81529051919092169163f98447ac916004808301926020929190829003018186803b158015610b2b57600080fd5b505afa158015610b3f573d6000803e3d6000fd5b505050506040513d601f19601f82011682018060405250810190610b639190611e0c565b600680546001600160a01b0319166001600160a01b03928316179055600e5460408051630fe1ba9f60e21b815290519190921691633f86ea7c916004808301926020929190829003018186803b158015610bbc57600080fd5b505afa158015610bd0573d6000803e3d6000fd5b505050506040513d601f19601f82011682018060405250810190610bf49190611e0c565b600780546001600160a01b0319166001600160a01b03928316179055600e5460408051636b58477560e01b815290519190921691636b584775916004808301926020929190829003018186803b158015610c4d57600080fd5b505afa158015610c61573d6000803e3d6000fd5b505050506040513d601f19601f82011682018060405250810190610c859190611e0c565b600880546001600160a01b0319166001600160a01b0392909216919091179055565b60006001600160e01b03198216637965db0b60e01b14806104a957506104a9826119ca565b60405163ca15c87360e01b81526000908190309063ca15c87390610cf4908690600401611f84565b60206040518083038186803b158015610d0c57600080fd5b505afa158015610d20573d6000803e3d6000fd5b505050506040513d601f19601f82011682018060405250810190610d449190611ed8565b905060005b81811015610e3757604051632404341f60e21b81526000903090639010d07c90610d799088908690600401611fa4565b60206040518083038186803b158015610d9157600080fd5b505afa158015610da5573d6000803e3d6000fd5b505050506040513d601f19601f82011682018060405250810190610dc99190611e0c565b60405163d547741f60e01b8152909150309063d547741f90610df19088908590600401611f8d565b600060405180830381600087803b158015610e0b57600080fd5b505af1158015610e1f573d6000803e3d6000fd5b50505050508080610e2f906121c7565b915050610d49565b5060019392505050565b600e5460405163ca15c87360e01b815260009182916001600160a01b039091169063ca15c87390610e76908690600401611f84565b60206040518083038186803b158015610e8e57600080fd5b505afa158015610ea2573d6000803e3d6000fd5b505050506040513d601f19601f82011682018060405250810190610ec69190611ed8565b905060005b81811015610e3757600e54604051632404341f60e21b81526000916001600160a01b031690639010d07c90610f069088908690600401611fa4565b60206040518083038186803b158015610f1e57600080fd5b505afa158015610f32573d6000803e3d6000fd5b505050506040513d601f19601f82011682018060405250810190610f569190611e0c565b604051632f2ff15d60e01b81529091503090632f2ff15d90610f7e9088908590600401611f8d565b600060405180830381600087803b158015610f9857600080fd5b505af1158015610fac573d6000803e3d6000fd5b50505050508080610fbc906121c7565b915050610ecb565b6000610fdd60008051602061226e833981519152610ccc565b50610ff560008051602061226e833981519152610e41565b610ffe57600080fd5b61101560008051602061222e833981519152610ccc565b5061102d60008051602061222e833981519152610e41565b61103657600080fd5b61104d60008051602061220e833981519152610ccc565b5061106560008051602061220e833981519152610e41565b61106e57600080fd5b61108560008051602061224e833981519152610ccc565b5061109d60008051602061224e833981519152610e41565b6110a657600080fd5b6110bd60008051602061228e833981519152610ccc565b506110d560008051602061228e833981519152610e41565b6110de57600080fd5b6110e86000610ccc565b506110f36000610e41565b6110fc57600080fd5b611104611652565b50600190565b61111382610501565b6111248161111f6119e3565b6119e7565b61053883836118fb565b600e60009054906101000a90046001600160a01b03166001600160a01b031663dadf56ac6040518163ffffffff1660e01b815260040160206040518083038186803b15801561117c57600080fd5b505afa158015611190573d6000803e3d6000fd5b505050506040513d601f19601f820116820180604052508101906111b49190611e0c565b600980546001600160a01b0319166001600160a01b03928316179055600e546040805163024bebe960e01b81529051919092169163024bebe9916004808301926020929190829003018186803b15801561120d57600080fd5b505afa158015611221573d6000803e3d6000fd5b505050506040513d601f19601f820116820180604052508101906112459190611e0c565b600a80546001600160a01b0319166001600160a01b03928316179055600e5460408051635b5c251f60e01b815290519190921691635b5c251f916004808301926020929190829003018186803b15801561129e57600080fd5b505afa1580156112b2573d6000803e3d6000fd5b505050506040513d601f19601f820116820180604052508101906112d69190611e0c565b600b80546001600160a01b0319166001600160a01b03928316179055600e5460408051637310bf1d60e11b81529051919092169163e6217e3a916004808301926020929190829003018186803b15801561132f57600080fd5b505afa158015611343573d6000803e3d6000fd5b505050506040513d601f19601f820116820180604052508101906113679190611e0c565b600d80546001600160a01b0319166001600160a01b0392909216919091179055565b61139161092b565b600454600f80546001600160a01b039283166001600160a01b03199182161790915560085460108054919093169116179055565b6113cd6119e3565b6001600160a01b0316816001600160a01b0316146113fd5760405162461bcd60e51b81526004016105cf906120e3565b6104d18282611a4b565b6000610761836001600160a01b038416611ace565b600e5460405163ca15c87360e01b815260009182916001600160a01b039091169063ca15c87390611451908690600401611f84565b60206040518083038186803b15801561146957600080fd5b505afa15801561147d573d6000803e3d6000fd5b505050506040513d601f19601f820116820180604052508101906114a19190611ed8565b60405163ca15c87360e01b8152909150600090309063ca15c873906114ca908790600401611f84565b60206040518083038186803b1580156114e257600080fd5b505afa1580156114f6573d6000803e3d6000fd5b505050506040513d601f19601f8201168201806040525081019061151a9190611ed8565b905060006115288284612169565b90506000811161154a5760405162461bcd60e51b81526004016105cf9061208c565b60005b8181101561164657600e54604051632404341f60e21b81526000916001600160a01b031690639010d07c90611588908a908690600401611fa4565b60206040518083038186803b1580156115a057600080fd5b505afa1580156115b4573d6000803e3d6000fd5b505050506040513d601f19601f820116820180604052508101906115d89190611e0c565b604051632f2ff15d60e01b81529091503090632f2ff15d90611600908a908590600401611f8d565b600060405180830381600087803b15801561161a57600080fd5b505af115801561162e573d6000803e3d6000fd5b5050505050808061163e906121c7565b91505061154d565b50600195945050505050565b600e60009054906101000a90046001600160a01b03166001600160a01b031663ff7e88ec6040518163ffffffff1660e01b815260040160206040518083038186803b1580156116a057600080fd5b505afa1580156116b4573d6000803e3d6000fd5b505050506040513d601f19601f820116820180604052508101906116d89190611e28565b600e8054911515600160a81b0260ff60a81b19909216919091179081905560408051632fb5658560e01b815290516001600160a01b0390921691632fb5658591600480820192602092909190829003018186803b15801561173857600080fd5b505afa15801561174c573d6000803e3d6000fd5b505050506040513d601f19601f820116820180604052508101906117709190611e28565b600e8054911515600160b01b0260ff60b01b19909216919091179055565b60006107618383611be5565b60006104a982611c3e565b6117ae82610501565b6117ba8161111f6119e3565b6105388383611a4b565b600e60009054906101000a90046001600160a01b03166001600160a01b031663a44b93256040518163ffffffff1660e01b815260040160206040518083038186803b15801561181257600080fd5b505afa158015611826573d6000803e3d6000fd5b505050506040513d601f19601f8201168201806040525081019061184a9190611e28565b61185357600080fd5b600e60009054906101000a90046001600160a01b03166001600160a01b031663ac7cfac36040518163ffffffff1660e01b815260040160206040518083038186803b1580156118a157600080fd5b505afa1580156118b5573d6000803e3d6000fd5b505050506040513d601f19601f820116820180604052508101906118d99190611e0c565b600280546001600160a01b0319166001600160a01b0392909216919091179055565b6119058282610768565b6104d1576000828152602081815260408083206001600160a01b03851684529091529020805460ff1916600117905561193c6119e3565b6001600160a01b0316816001600160a01b0316837f2f8788117e7eff1d82e926ec794901d17c78024a50270940304540a733656f0d60405160405180910390a45050565b600061198c8383611c42565b6119c2575081546001818101845560008481526020808220909301849055845484825282860190935260409020919091556104a9565b5060006104a9565b6001600160e01b031981166301ffc9a760e01b14919050565b3390565b6119f18282610768565b6104d157611a09816001600160a01b03166014611c5a565b611a14836020611c5a565b604051602001611a25929190611ef0565b60408051601f198184030181529082905262461bcd60e51b82526105cf91600401611fb2565b611a558282610768565b156104d1576000828152602081815260408083206001600160a01b03851684529091529020805460ff19169055611a8a6119e3565b6001600160a01b0316816001600160a01b0316837ff6391f5c32d9c69d2a47ea670b442974b53935d1edc7fd64eb21e047a839171b60405160405180910390a45050565b60008181526001830160205260408120548015611bdb576000611af2600183612169565b8554909150600090611b0690600190612169565b90506000866000018281548110611b2d57634e487b7160e01b600052603260045260246000fd5b9060005260206000200154905080876000018481548110611b5e57634e487b7160e01b600052603260045260246000fd5b600091825260208083209091019290925582815260018901909152604090208490558654879080611b9f57634e487b7160e01b600052603160045260246000fd5b600190038181906000526020600020016000905590558660010160008781526020019081526020016000206000905560019450505050506104a9565b60009150506104a9565b81546000908210611c085760405162461bcd60e51b81526004016105cf90611fe5565b826000018281548110611c2b57634e487b7160e01b600052603260045260246000fd5b9060005260206000200154905092915050565b5490565b60009081526001919091016020526040902054151590565b60606000611c6983600261214a565b611c74906002612132565b67ffffffffffffffff811115611c9a57634e487b7160e01b600052604160045260246000fd5b6040519080825280601f01601f191660200182016040528015611cc4576020820181803683370190505b509050600360fc1b81600081518110611ced57634e487b7160e01b600052603260045260246000fd5b60200101906001600160f81b031916908160001a905350600f60fb1b81600181518110611d2a57634e487b7160e01b600052603260045260246000fd5b60200101906001600160f81b031916908160001a9053506000611d4e84600261214a565b611d59906001612132565b90505b6001811115611ded576f181899199a1a9b1b9c1cb0b131b232b360811b85600f1660108110611d9b57634e487b7160e01b600052603260045260246000fd5b1a60f81b828281518110611dbf57634e487b7160e01b600052603260045260246000fd5b60200101906001600160f81b031916908160001a90535060049490941c93611de6816121b0565b9050611d5c565b5083156107615760405162461bcd60e51b81526004016105cf90612027565b600060208284031215611e1d578081fd5b8151610761816121f8565b600060208284031215611e39578081fd5b81518015158114610761578182fd5b600060208284031215611e59578081fd5b5035919050565b60008060408385031215611e72578081fd5b823591506020830135611e84816121f8565b809150509250929050565b60008060408385031215611ea1578182fd5b50508035926020909101359150565b600060208284031215611ec1578081fd5b81356001600160e01b031981168114610761578182fd5b600060208284031215611ee9578081fd5b5051919050565b60007f416363657373436f6e74726f6c3a206163636f756e742000000000000000000082528351611f28816017850160208801612180565b7001034b99036b4b9b9b4b733903937b6329607d1b6017918401918201528351611f59816028840160208801612180565b01602801949350505050565b6001600160a01b0391909116815260200190565b901515815260200190565b90815260200190565b9182526001600160a01b0316602082015260400190565b918252602082015260400190565b6000602082528251806020840152611fd1816040850160208701612180565b601f01601f19169190910160400192915050565b60208082526022908201527f456e756d657261626c655365743a20696e646578206f7574206f6620626f756e604082015261647360f01b606082015260800190565b6020808252818101527f537472696e67733a20686578206c656e67746820696e73756666696369656e74604082015260600190565b6020808252601690820152752cb7ba93b932903737ba103a3432903130b4b634b33360511b604082015260600190565b60208082526010908201526f4e6f7468696e6720746f2073796e632160801b604082015260600190565b602080825260139082015272596f75277265206e6f7420746865204a75727960681b604082015260600190565b6020808252602f908201527f416363657373436f6e74726f6c3a2063616e206f6e6c792072656e6f756e636560408201526e103937b632b9903337b91039b2b63360891b606082015260800190565b60008219821115612145576121456121e2565b500190565b6000816000190483118215151615612164576121646121e2565b500290565b60008282101561217b5761217b6121e2565b500390565b60005b8381101561219b578181015183820152602001612183565b838111156121aa576000848401525b50505050565b6000816121bf576121bf6121e2565b506000190190565b60006000198214156121db576121db6121e2565b5060010190565b634e487b7160e01b600052601160045260246000fd5b6001600160a01b03811681146104dd57600080fdfefa8e4989e1d689f7bc5c4b25b87efb51fecdecb19ba62847e29c759e12a89acd048bc71fa1cb2c119c339cf9cf00a97996a19a9d991ce5fe049f2fa5459e7990f0f4b159a6e2a4815eb3ca3df080bfa70c9270662c59bcaa4479a456220183e60538d24a8b7882d7b2e36af243d4af61c23e86e3daa6cb8c887b53220b2f57207c9d7f6f02908185bffb3f7fc9afb29fd7bf93675af8fd4b655ee05c2cee1e0ea264697066735822122088b288efbdba867723c8c4cd0ed9cd059979ed10b0a79be4f53dad89683a46de64736f6c63430008000033",
  "immutableReferences": {},
  "source": "// SPDX-License-Identifier: MIT\n//  I have not really implemented anything yet. This is just a placeholder.\npragma solidity 0.8.0;\n\nimport \"../src/SmartConsensusMachine.sol\";\nimport \"./JuryPool.sol\";\n\nimport \"@openzeppelin/contracts/token/ERC20/IERC20.sol\";\nimport \"@openzeppelin/contracts/token/ERC20/ERC20.sol\";\nimport \"@openzeppelin/contracts/token/ERC20/extensions/ERC20Snapshot.sol\";\n\n\ncontract DisputeMachine is SmartConsensusMachine {\n\n    ERC20 public redPens;\n    JuryPool public juryHats;\n\n    uint private slashIndex = 0;\n    uint public slashPercentageInWholeNumber = 30;\n\n    uint[] private slashList;\n\n\n    constructor(address _AddressManagerAddress) SmartConsensusMachine(_AddressManagerAddress)  {\n\n    }\n\n\n    function drawJurors() internal {\n        // emit events to summon jurrors based on their token IDs        \n    }\n\n    function _slash() internal {\n\n        for (uint i = 0; i < slashIndex; i++) {\n            juryHats.slashToken(slashList[i], slashPercentageInWholeNumber);\n            slashList[i] = 0;\n        }\n        slashIndex = 0;\n\n    }\n\n    function setSlashPercent(uint _slashPercentageInWholeNumber) public JURY {\n        slashPercentageInWholeNumber = _slashPercentageInWholeNumber;\n    }\n\n    function _updateTokenAddresses() internal override {\n        // Set these from the Address Manager Contract\n        \n        super._updateTokenAddresses();\n        redPens = ERC20(RedPenTokenAddress);\n        juryHats = JuryPool(JuryPoolAddress);\n    }\n\n}",
  "sourcePath": "/home/n/Desktop/PinkSlips_FrontEnd_REFORMAT/contracts/juryAndAppeals/DisputeMachine.sol",
  "compiler": {
    "name": "solc",
    "version": "0.8.0+commit.c7dfd78e.Emscripten.clang"
  },
  "schemaVersion": "3.4.1",
  "updatedAt": "2021-07-29T07:01:32.540Z",
  "networkType": "ethereum",
  "devdoc": {
    "kind": "dev",
    "methods": {
      "getRoleAdmin(bytes32)": {
        "details": "Returns the admin role that controls `role`. See {grantRole} and {revokeRole}. To change a role's admin, use {_setRoleAdmin}."
      },
      "getRoleMember(bytes32,uint256)": {
        "details": "Returns one of the accounts that have `role`. `index` must be a value between 0 and {getRoleMemberCount}, non-inclusive. Role bearers are not sorted in any particular way, and their ordering may change at any point. WARNING: When using {getRoleMember} and {getRoleMemberCount}, make sure you perform all queries on the same block. See the following https://forum.openzeppelin.com/t/iterating-over-elements-on-enumerableset-in-openzeppelin-contracts/2296[forum post] for more information."
      },
      "getRoleMemberCount(bytes32)": {
        "details": "Returns the number of accounts that have `role`. Can be used together with {getRoleMember} to enumerate all bearers of a role."
      },
      "grantRole(bytes32,address)": {
        "details": "Overload {grantRole} to track enumerable memberships"
      },
      "hasRole(bytes32,address)": {
        "details": "Returns `true` if `account` has been granted `role`."
      },
      "renounceRole(bytes32,address)": {
        "details": "Overload {renounceRole} to track enumerable memberships"
      },
      "revokeRole(bytes32,address)": {
        "details": "Overload {revokeRole} to track enumerable memberships"
      },
      "supportsInterface(bytes4)": {
        "details": "See {IERC165-supportsInterface}."
      }
    },
    "version": 1
  },
  "userdoc": {
    "kind": "user",
    "methods": {},
    "version": 1
  }
}