{
  "contractName": "DisputeMachine",
  "abi": [
    {
      "inputs": [
        {
          "internalType": "address",
          "name": "_AddressManagerAddress",
          "type": "address"
        }
      ],
      "stateMutability": "nonpayable",
      "type": "constructor"
    },
    {
      "anonymous": false,
      "inputs": [
        {
          "indexed": true,
          "internalType": "bytes32",
          "name": "role",
          "type": "bytes32"
        },
        {
          "indexed": true,
          "internalType": "bytes32",
          "name": "previousAdminRole",
          "type": "bytes32"
        },
        {
          "indexed": true,
          "internalType": "bytes32",
          "name": "newAdminRole",
          "type": "bytes32"
        }
      ],
      "name": "RoleAdminChanged",
      "type": "event"
    },
    {
      "anonymous": false,
      "inputs": [
        {
          "indexed": true,
          "internalType": "bytes32",
          "name": "role",
          "type": "bytes32"
        },
        {
          "indexed": true,
          "internalType": "address",
          "name": "account",
          "type": "address"
        },
        {
          "indexed": true,
          "internalType": "address",
          "name": "sender",
          "type": "address"
        }
      ],
      "name": "RoleGranted",
      "type": "event"
    },
    {
      "anonymous": false,
      "inputs": [
        {
          "indexed": true,
          "internalType": "bytes32",
          "name": "role",
          "type": "bytes32"
        },
        {
          "indexed": true,
          "internalType": "address",
          "name": "account",
          "type": "address"
        },
        {
          "indexed": true,
          "internalType": "address",
          "name": "sender",
          "type": "address"
        }
      ],
      "name": "RoleRevoked",
      "type": "event"
    },
    {
      "inputs": [],
      "name": "AddressManagerAddress",
      "outputs": [
        {
          "internalType": "address",
          "name": "",
          "type": "address"
        }
      ],
      "stateMutability": "view",
      "type": "function",
      "constant": true
    },
    {
      "inputs": [],
      "name": "ChadBadgeAddress",
      "outputs": [
        {
          "internalType": "address",
          "name": "",
          "type": "address"
        }
      ],
      "stateMutability": "view",
      "type": "function",
      "constant": true
    },
    {
      "inputs": [],
      "name": "DEFAULT_ADMIN_ROLE",
      "outputs": [
        {
          "internalType": "bytes32",
          "name": "",
          "type": "bytes32"
        }
      ],
      "stateMutability": "view",
      "type": "function",
      "constant": true
    },
    {
      "inputs": [],
      "name": "GAVELS_BAILIFF",
      "outputs": [
        {
          "internalType": "bytes32",
          "name": "",
          "type": "bytes32"
        }
      ],
      "stateMutability": "view",
      "type": "function",
      "constant": true
    },
    {
      "inputs": [],
      "name": "GavelDAOAddress",
      "outputs": [
        {
          "internalType": "address",
          "name": "",
          "type": "address"
        }
      ],
      "stateMutability": "view",
      "type": "function",
      "constant": true
    },
    {
      "inputs": [],
      "name": "GavelDAOAgent",
      "outputs": [
        {
          "internalType": "address",
          "name": "",
          "type": "address"
        }
      ],
      "stateMutability": "view",
      "type": "function",
      "constant": true
    },
    {
      "inputs": [],
      "name": "GavelTokenAddress",
      "outputs": [
        {
          "internalType": "address",
          "name": "",
          "type": "address"
        }
      ],
      "stateMutability": "view",
      "type": "function",
      "constant": true
    },
    {
      "inputs": [],
      "name": "GavelVote",
      "outputs": [
        {
          "internalType": "bool",
          "name": "",
          "type": "bool"
        }
      ],
      "stateMutability": "view",
      "type": "function",
      "constant": true
    },
    {
      "inputs": [],
      "name": "GoldStarAddress",
      "outputs": [
        {
          "internalType": "address",
          "name": "",
          "type": "address"
        }
      ],
      "stateMutability": "view",
      "type": "function",
      "constant": true
    },
    {
      "inputs": [],
      "name": "JERK_ROLE",
      "outputs": [
        {
          "internalType": "bytes32",
          "name": "",
          "type": "bytes32"
        }
      ],
      "stateMutability": "view",
      "type": "function",
      "constant": true
    },
    {
      "inputs": [],
      "name": "JURY_BAILIFF",
      "outputs": [
        {
          "internalType": "bytes32",
          "name": "",
          "type": "bytes32"
        }
      ],
      "stateMutability": "view",
      "type": "function",
      "constant": true
    },
    {
      "inputs": [],
      "name": "JuryDAOAddress",
      "outputs": [
        {
          "internalType": "address",
          "name": "",
          "type": "address"
        }
      ],
      "stateMutability": "view",
      "type": "function",
      "constant": true
    },
    {
      "inputs": [],
      "name": "JuryDAOAgent",
      "outputs": [
        {
          "internalType": "address",
          "name": "",
          "type": "address"
        }
      ],
      "stateMutability": "view",
      "type": "function",
      "constant": true
    },
    {
      "inputs": [],
      "name": "JuryPoolAddress",
      "outputs": [
        {
          "internalType": "address",
          "name": "",
          "type": "address"
        }
      ],
      "stateMutability": "view",
      "type": "function",
      "constant": true
    },
    {
      "inputs": [],
      "name": "JuryVote",
      "outputs": [
        {
          "internalType": "bool",
          "name": "",
          "type": "bool"
        }
      ],
      "stateMutability": "view",
      "type": "function",
      "constant": true
    },
    {
      "inputs": [],
      "name": "MINI_BAILIFF_ROLE",
      "outputs": [
        {
          "internalType": "bytes32",
          "name": "",
          "type": "bytes32"
        }
      ],
      "stateMutability": "view",
      "type": "function",
      "constant": true
    },
    {
      "inputs": [],
      "name": "MiniBailiff",
      "outputs": [
        {
          "internalType": "address",
          "name": "",
          "type": "address"
        }
      ],
      "stateMutability": "view",
      "type": "function",
      "constant": true
    },
    {
      "inputs": [],
      "name": "PinkSlipAddress",
      "outputs": [
        {
          "internalType": "address",
          "name": "",
          "type": "address"
        }
      ],
      "stateMutability": "view",
      "type": "function",
      "constant": true
    },
    {
      "inputs": [],
      "name": "RedPenTokenAddress",
      "outputs": [
        {
          "internalType": "address",
          "name": "",
          "type": "address"
        }
      ],
      "stateMutability": "view",
      "type": "function",
      "constant": true
    },
    {
      "inputs": [],
      "name": "THE_COURT_ROLE",
      "outputs": [
        {
          "internalType": "bytes32",
          "name": "",
          "type": "bytes32"
        }
      ],
      "stateMutability": "view",
      "type": "function",
      "constant": true
    },
    {
      "inputs": [],
      "name": "TheCourtDAOAddress",
      "outputs": [
        {
          "internalType": "address",
          "name": "",
          "type": "address"
        }
      ],
      "stateMutability": "view",
      "type": "function",
      "constant": true
    },
    {
      "inputs": [],
      "name": "TheCourtDAOAgent",
      "outputs": [
        {
          "internalType": "address",
          "name": "",
          "type": "address"
        }
      ],
      "stateMutability": "view",
      "type": "function",
      "constant": true
    },
    {
      "inputs": [],
      "name": "TreasuryAddress",
      "outputs": [
        {
          "internalType": "address",
          "name": "",
          "type": "address"
        }
      ],
      "stateMutability": "view",
      "type": "function",
      "constant": true
    },
    {
      "inputs": [],
      "name": "addressManager",
      "outputs": [
        {
          "internalType": "contract AddressManager",
          "name": "",
          "type": "address"
        }
      ],
      "stateMutability": "view",
      "type": "function",
      "constant": true
    },
    {
      "inputs": [
        {
          "internalType": "bytes32",
          "name": "role",
          "type": "bytes32"
        }
      ],
      "name": "getRoleAdmin",
      "outputs": [
        {
          "internalType": "bytes32",
          "name": "",
          "type": "bytes32"
        }
      ],
      "stateMutability": "view",
      "type": "function",
      "constant": true
    },
    {
      "inputs": [
        {
          "internalType": "bytes32",
          "name": "role",
          "type": "bytes32"
        },
        {
          "internalType": "uint256",
          "name": "index",
          "type": "uint256"
        }
      ],
      "name": "getRoleMember",
      "outputs": [
        {
          "internalType": "address",
          "name": "",
          "type": "address"
        }
      ],
      "stateMutability": "view",
      "type": "function",
      "constant": true
    },
    {
      "inputs": [
        {
          "internalType": "bytes32",
          "name": "role",
          "type": "bytes32"
        }
      ],
      "name": "getRoleMemberCount",
      "outputs": [
        {
          "internalType": "uint256",
          "name": "",
          "type": "uint256"
        }
      ],
      "stateMutability": "view",
      "type": "function",
      "constant": true
    },
    {
      "inputs": [
        {
          "internalType": "bytes32",
          "name": "role",
          "type": "bytes32"
        },
        {
          "internalType": "address",
          "name": "account",
          "type": "address"
        }
      ],
      "name": "grantRole",
      "outputs": [],
      "stateMutability": "nonpayable",
      "type": "function"
    },
    {
      "inputs": [
        {
          "internalType": "bytes32",
          "name": "role",
          "type": "bytes32"
        },
        {
          "internalType": "address",
          "name": "account",
          "type": "address"
        }
      ],
      "name": "hasRole",
      "outputs": [
        {
          "internalType": "bool",
          "name": "",
          "type": "bool"
        }
      ],
      "stateMutability": "view",
      "type": "function",
      "constant": true
    },
    {
      "inputs": [],
      "name": "jerkSanctions",
      "outputs": [
        {
          "internalType": "bool",
          "name": "",
          "type": "bool"
        }
      ],
      "stateMutability": "view",
      "type": "function",
      "constant": true
    },
    {
      "inputs": [],
      "name": "juryHats",
      "outputs": [
        {
          "internalType": "contract JuryPool",
          "name": "",
          "type": "address"
        }
      ],
      "stateMutability": "view",
      "type": "function",
      "constant": true
    },
    {
      "inputs": [],
      "name": "redPens",
      "outputs": [
        {
          "internalType": "contract ERC20",
          "name": "",
          "type": "address"
        }
      ],
      "stateMutability": "view",
      "type": "function",
      "constant": true
    },
    {
      "inputs": [
        {
          "internalType": "bytes32",
          "name": "role",
          "type": "bytes32"
        },
        {
          "internalType": "address",
          "name": "account",
          "type": "address"
        }
      ],
      "name": "renounceRole",
      "outputs": [],
      "stateMutability": "nonpayable",
      "type": "function"
    },
    {
      "inputs": [],
      "name": "resetVote",
      "outputs": [],
      "stateMutability": "nonpayable",
      "type": "function"
    },
    {
      "inputs": [
        {
          "internalType": "bytes32",
          "name": "role",
          "type": "bytes32"
        },
        {
          "internalType": "address",
          "name": "account",
          "type": "address"
        }
      ],
      "name": "revokeRole",
      "outputs": [],
      "stateMutability": "nonpayable",
      "type": "function"
    },
    {
      "inputs": [],
      "name": "slashPercentageInWholeNumber",
      "outputs": [
        {
          "internalType": "uint256",
          "name": "",
          "type": "uint256"
        }
      ],
      "stateMutability": "view",
      "type": "function",
      "constant": true
    },
    {
      "inputs": [
        {
          "internalType": "bytes4",
          "name": "interfaceId",
          "type": "bytes4"
        }
      ],
      "name": "supportsInterface",
      "outputs": [
        {
          "internalType": "bool",
          "name": "",
          "type": "bool"
        }
      ],
      "stateMutability": "view",
      "type": "function",
      "constant": true
    },
    {
      "inputs": [],
      "name": "syncAllRoles",
      "outputs": [],
      "stateMutability": "nonpayable",
      "type": "function"
    },
    {
      "inputs": [
        {
          "internalType": "bytes32",
          "name": "ROLE_TO_SYNC",
          "type": "bytes32"
        }
      ],
      "name": "syncSingleRole",
      "outputs": [],
      "stateMutability": "nonpayable",
      "type": "function"
    },
    {
      "inputs": [],
      "name": "syncVotes",
      "outputs": [],
      "stateMutability": "nonpayable",
      "type": "function"
    },
    {
      "inputs": [],
      "name": "updateAddressManager",
      "outputs": [],
      "stateMutability": "nonpayable",
      "type": "function"
    },
    {
      "inputs": [],
      "name": "updateAllAddresses",
      "outputs": [],
      "stateMutability": "nonpayable",
      "type": "function"
    },
    {
      "inputs": [],
      "name": "updateAllRoles",
      "outputs": [],
      "stateMutability": "nonpayable",
      "type": "function"
    },
    {
      "inputs": [],
      "name": "updateDAOAddresses",
      "outputs": [],
      "stateMutability": "nonpayable",
      "type": "function"
    },
    {
      "inputs": [],
      "name": "updateDAOAgents",
      "outputs": [],
      "stateMutability": "nonpayable",
      "type": "function"
    },
    {
      "inputs": [
        {
          "internalType": "bytes32",
          "name": "ROLE_TO_UPDATE",
          "type": "bytes32"
        }
      ],
      "name": "updateSingleRole",
      "outputs": [],
      "stateMutability": "nonpayable",
      "type": "function"
    },
    {
      "inputs": [],
      "name": "updateTokenAddresses",
      "outputs": [],
      "stateMutability": "nonpayable",
      "type": "function"
    },
    {
      "inputs": [
        {
          "internalType": "uint256",
          "name": "_slashPercentageInWholeNumber",
          "type": "uint256"
        }
      ],
      "name": "setSlashPercent",
      "outputs": [],
      "stateMutability": "nonpayable",
      "type": "function"
    }
  ],
  "bytecode": "0x60806040526011805463ffffffff60a01b191690556000601455601e6015553480156200002b57600080fd5b506040516200321e3803806200321e8339810160408190526200004e9162000d44565b600280546001600160a01b0383166001600160a01b031991821681179092556011805490911690911790558062000084620001c1565b6200008e620001e1565b600c54620000a8906000906001600160a01b03166200032c565b600c54620000e1907f0538d24a8b7882d7b2e36af243d4af61c23e86e3daa6cb8c887b53220b2f5720906001600160a01b03166200032c565b600d546200011a907f048bc71fa1cb2c119c339cf9cf00a97996a19a9d991ce5fe049f2fa5459e7990906001600160a01b03166200032c565b600e5462000153907ffa8e4989e1d689f7bc5c4b25b87efb51fecdecb19ba62847e29c759e12a89acd906001600160a01b03166200032c565b6010546200018c907ff0f4b159a6e2a4815eb3ca3df080bfa70c9270662c59bcaa4479a456220183e6906001600160a01b03166200032c565b620001b97f7c9d7f6f02908185bffb3f7fc9afb29fd7bf93675af8fd4b655ee05c2cee1e0e60006200032c565b505062000d9a565b620001cb6200036f565b620001d56200066f565b620001df620008da565b565b601160009054906101000a90046001600160a01b03166001600160a01b031663ff7e88ec6040518163ffffffff1660e01b815260040160206040518083038186803b1580156200023057600080fd5b505afa15801562000245573d6000803e3d6000fd5b505050506040513d601f19601f820116820180604052508101906200026b919062000d76565b601160156101000a81548160ff021916908315150217905550601160009054906101000a90046001600160a01b03166001600160a01b0316632fb565856040518163ffffffff1660e01b815260040160206040518083038186803b158015620002d357600080fd5b505afa158015620002e8573d6000803e3d6000fd5b505050506040513d601f19601f820116820180604052508101906200030e919062000d76565b60118054911515600160b01b0260ff60b01b19909216919091179055565b6200034382826200092360201b6200096f1760201c565b60008281526001602090815260409091206200036a9183906200097962000933821b17901c565b505050565b601160009054906101000a90046001600160a01b03166001600160a01b0316637dad1ad56040518163ffffffff1660e01b815260040160206040518083038186803b158015620003be57600080fd5b505afa158015620003d3573d6000803e3d6000fd5b505050506040513d601f19601f82011682018060405250810190620003f9919062000d44565b600a80546001600160a01b0319166001600160a01b039283161790556011546040805163a99b273560e01b81529051919092169163a99b2735916004808301926020929190829003018186803b1580156200045357600080fd5b505afa15801562000468573d6000803e3d6000fd5b505050506040513d601f19601f820116820180604052508101906200048e919062000d44565b600b80546001600160a01b0319166001600160a01b0392831617905560115460408051637ef7fe1960e11b81529051919092169163fdeffc32916004808301926020929190829003018186803b158015620004e857600080fd5b505afa158015620004fd573d6000803e3d6000fd5b505050506040513d601f19601f8201168201806040525081019062000523919062000d44565b600c80546001600160a01b0319166001600160a01b0392831617905560115460408051635b5c251f60e01b815290519190921691635b5c251f916004808301926020929190829003018186803b1580156200057d57600080fd5b505afa15801562000592573d6000803e3d6000fd5b505050506040513d601f19601f82011682018060405250810190620005b8919062000d44565b600880546001600160a01b0319166001600160a01b0392831617905560115460408051636b58477560e01b815290519190921691636b584775916004808301926020929190829003018186803b1580156200061257600080fd5b505afa15801562000627573d6000803e3d6000fd5b505050506040513d601f19601f820116820180604052508101906200064d919062000d44565b600980546001600160a01b0319166001600160a01b0392909216919091179055565b601160009054906101000a90046001600160a01b03166001600160a01b031663dadf56ac6040518163ffffffff1660e01b815260040160206040518083038186803b158015620006be57600080fd5b505afa158015620006d3573d6000803e3d6000fd5b505050506040513d601f19601f82011682018060405250810190620006f9919062000d44565b600d80546001600160a01b0319166001600160a01b039283161790556011546040805163024bebe960e01b81529051919092169163024bebe9916004808301926020929190829003018186803b1580156200075357600080fd5b505afa15801562000768573d6000803e3d6000fd5b505050506040513d601f19601f820116820180604052508101906200078e919062000d44565b600e80546001600160a01b0319166001600160a01b039283161790556011546040805163320a28f960e11b81529051919092169163641451f2916004808301926020929190829003018186803b158015620007e857600080fd5b505afa158015620007fd573d6000803e3d6000fd5b505050506040513d601f19601f8201168201806040525081019062000823919062000d44565b600f80546001600160a01b0319166001600160a01b0392831617905560115460408051637310bf1d60e11b81529051919092169163e6217e3a916004808301926020929190829003018186803b1580156200087d57600080fd5b505afa15801562000892573d6000803e3d6000fd5b505050506040513d601f19601f82011682018060405250810190620008b8919062000d44565b601080546001600160a01b0319166001600160a01b0392909216919091179055565b620008ef6200095360201b6200098e1760201c565b600454601280546001600160a01b039283166001600160a01b03199182161790915560095460138054919093169116179055565b6200092f828262000c52565b5050565b60006200094a836001600160a01b03841662000cf2565b90505b92915050565b601160009054906101000a90046001600160a01b03166001600160a01b03166321d7f0086040518163ffffffff1660e01b815260040160206040518083038186803b158015620009a257600080fd5b505afa158015620009b7573d6000803e3d6000fd5b505050506040513d601f19601f82011682018060405250810190620009dd919062000d44565b600380546001600160a01b0319166001600160a01b039283161790556011546040805163762ddb5960e01b81529051919092169163762ddb59916004808301926020929190829003018186803b15801562000a3757600080fd5b505afa15801562000a4c573d6000803e3d6000fd5b505050506040513d601f19601f8201168201806040525081019062000a72919062000d44565b600480546001600160a01b0319166001600160a01b039283161781556011546040805163bfb7dc9960e01b81529051919093169263bfb7dc999281810192602092909190829003018186803b15801562000acb57600080fd5b505afa15801562000ae0573d6000803e3d6000fd5b505050506040513d601f19601f8201168201806040525081019062000b06919062000d44565b600580546001600160a01b0319166001600160a01b0392831617905560115460408051633e6111eb60e21b81529051919092169163f98447ac916004808301926020929190829003018186803b15801562000b6057600080fd5b505afa15801562000b75573d6000803e3d6000fd5b505050506040513d601f19601f8201168201806040525081019062000b9b919062000d44565b600680546001600160a01b0319166001600160a01b0392831617905560115460408051630fe1ba9f60e21b815290519190921691633f86ea7c916004808301926020929190829003018186803b15801562000bf557600080fd5b505afa15801562000c0a573d6000803e3d6000fd5b505050506040513d601f19601f8201168201806040525081019062000c30919062000d44565b600780546001600160a01b0319166001600160a01b0392909216919091179055565b6000828152602081815260408083206001600160a01b038516845290915290205460ff166200092f576000828152602081815260408083206001600160a01b03851684529091529020805460ff1916600117905562000cae3390565b6001600160a01b0316816001600160a01b0316837f2f8788117e7eff1d82e926ec794901d17c78024a50270940304540a733656f0d60405160405180910390a45050565b600081815260018301602052604081205462000d3b575081546001818101845560008481526020808220909301849055845484825282860190935260409020919091556200094d565b5060006200094d565b60006020828403121562000d5757600080fd5b81516001600160a01b038116811462000d6f57600080fd5b9392505050565b60006020828403121562000d8957600080fd5b8151801515811462000d6f57600080fd5b6124748062000daa6000396000f3fe608060405234801561001057600080fd5b50600436106102a05760003560e01c8063762ddb5911610167578063cce84392116100ce578063e9a5323011610087578063e9a53230146105b8578063f1132b30146105cd578063f7d92d86146105d5578063f98447ac146105dd578063fdeffc32146105f0578063ff7e88ec1461060357600080fd5b8063cce8439214610542578063cf4ece1514610557578063d547741f1461056c578063dadf56ac1461057f578063e6217e3a14610592578063e78c266c146105a557600080fd5b8063a78e746f11610120578063a78e746f146104da578063a99b2735146104ee578063b6085bf514610501578063b6f928be14610509578063bfb7dc991461051c578063ca15c8731461052f57600080fd5b8063762ddb59146104715780637dad1ad5146104845780639010d07c1461049757806391d14854146104aa578063a217fddf146104bd578063a32c5e59146104c557600080fd5b80633ab76e9f1161020b5780635b5c251f116101c45780635b5c251f1461040a5780635db531a11461041d578063641451f214610425578063645d2c411461043857806367a14f061461044b5780636b5847751461045e57600080fd5b80633ab76e9f146103b85780633f86ea7c146103cb57806349b5e105146103de5780634d84c6d8146103e65780635261ad5a146103ee57806357f276ff146103f757600080fd5b8063248a9ca31161025d578063248a9ca31461034b5780632f2ff15d1461036e5780632fb5658514610381578063326a55e014610395578063329a8cfa1461039d57806336568abe146103a557600080fd5b806301ffc9a7146102a5578063024bebe9146102cd578063130f6320146102f857806317314d5a1461030d57806321d7f008146103155780632436329d14610328575b600080fd5b6102b86102b3366004612196565b610617565b60405190151581526020015b60405180910390f35b600e546102e0906001600160a01b031681565b6040516001600160a01b0390911681526020016102c4565b61030b61030636600461212b565b610642565b005b61030b610659565b6003546102e0906001600160a01b031681565b61033d60008051602061239f83398151915281565b6040519081526020016102c4565b61033d61035936600461212b565b60009081526020819052604090206001015490565b61030b61037c366004612144565b610664565b6011546102b890600160b01b900460ff1681565b61030b61068b565b61030b6106a5565b61030b6103b3366004612144565b6107b3565b6011546102e0906001600160a01b031681565b6007546102e0906001600160a01b031681565b61030b6107d5565b61030b61069b565b61033d60155481565b61030b61040536600461212b565b6107dd565b6008546102e0906001600160a01b031681565b61030b6107e6565b600f546102e0906001600160a01b031681565b61030b61044636600461212b565b6107ee565b6012546102e0906001600160a01b031681565b6009546102e0906001600160a01b031681565b6004546102e0906001600160a01b031681565b600a546102e0906001600160a01b031681565b6102e06104a5366004612174565b61086b565b6102b86104b8366004612144565b61088a565b61033d600081565b61033d6000805160206123ff83398151915281565b6011546102b890600160a01b900460ff1681565b600b546102e0906001600160a01b031681565b61030b6108b3565b6013546102e0906001600160a01b031681565b6005546102e0906001600160a01b031681565b61033d61053d36600461212b565b6108bb565b61033d60008051602061241f83398151915281565b61033d6000805160206123df83398151915281565b61030b61057a366004612144565b6108d2565b600d546102e0906001600160a01b031681565b6010546102e0906001600160a01b031681565b6002546102e0906001600160a01b031681565b61033d6000805160206123bf83398151915281565b61030b6108dc565b61030b6108e4565b6006546102e0906001600160a01b031681565b600c546102e0906001600160a01b031681565b6011546102b890600160a81b900460ff1681565b60006001600160e01b03198216635a05180f60e01b148061063c575061063c82610c79565b92915050565b61064b81610cae565b5061065581610e29565b5050565b610661610fb2565b50565b61066e82826110f8565b60008281526001602052604090206106869082610979565b505050565b61069361111e565b61069b61140a565b6106a3611665565b565b6106bd6000805160206123ff8339815191523361088a565b806106db57506106db6000805160206123bf8339815191523361088a565b806106f957506106f960008051602061239f8339815191523361088a565b6107435760405162461bcd60e51b81526020600482015260166024820152752cb7ba93b932903737ba103a3432903130b4b634b33360511b60448201526064015b60405180910390fd5b601160009054906101000a90046001600160a01b03166001600160a01b031663329a8cfa6040518163ffffffff1660e01b8152600401600060405180830381600087803b15801561079357600080fd5b505af11580156107a7573d6000803e3d6000fd5b505050506106a36107e6565b6107bd82826116a1565b6000828152600160205260409020610686908261171b565b6106a361111e565b61065581611730565b6106a361198b565b61080660008051602061239f8339815191523361088a565b8061082457506108246000805160206123ff8339815191523361088a565b6108665760405162461bcd60e51b8152602060048201526013602482015272596f75277265206e6f7420746865204a75727960681b604482015260640161073a565b601555565b60008281526001602052604081206108839083611ace565b9392505050565b6000918252602082815260408084206001600160a01b0393909316845291905290205460ff1690565b6106a361140a565b600081815260016020526040812061063c90611ada565b6107bd8282611ae4565b6106a3611b0a565b6108fb6000805160206123ff833981519152611730565b506109136000805160206123bf833981519152611730565b5061092b60008051602061239f833981519152611730565b506109436000805160206123df833981519152611730565b5061095b60008051602061241f833981519152611730565b506109666000611730565b506106a361198b565b6106558282611c41565b6000610883836001600160a01b038416611cc5565b601160009054906101000a90046001600160a01b03166001600160a01b03166321d7f0086040518163ffffffff1660e01b815260040160206040518083038186803b1580156109dc57600080fd5b505afa1580156109f0573d6000803e3d6000fd5b505050506040513d601f19601f82011682018060405250810190610a1491906120ec565b600380546001600160a01b0319166001600160a01b039283161790556011546040805163762ddb5960e01b81529051919092169163762ddb59916004808301926020929190829003018186803b158015610a6d57600080fd5b505afa158015610a81573d6000803e3d6000fd5b505050506040513d601f19601f82011682018060405250810190610aa591906120ec565b600480546001600160a01b0319166001600160a01b039283161781556011546040805163bfb7dc9960e01b81529051919093169263bfb7dc999281810192602092909190829003018186803b158015610afd57600080fd5b505afa158015610b11573d6000803e3d6000fd5b505050506040513d601f19601f82011682018060405250810190610b3591906120ec565b600580546001600160a01b0319166001600160a01b0392831617905560115460408051633e6111eb60e21b81529051919092169163f98447ac916004808301926020929190829003018186803b158015610b8e57600080fd5b505afa158015610ba2573d6000803e3d6000fd5b505050506040513d601f19601f82011682018060405250810190610bc691906120ec565b600680546001600160a01b0319166001600160a01b0392831617905560115460408051630fe1ba9f60e21b815290519190921691633f86ea7c916004808301926020929190829003018186803b158015610c1f57600080fd5b505afa158015610c33573d6000803e3d6000fd5b505050506040513d601f19601f82011682018060405250810190610c5791906120ec565b600780546001600160a01b0319166001600160a01b0392909216919091179055565b60006001600160e01b03198216637965db0b60e01b148061063c57506301ffc9a760e01b6001600160e01b031983161461063c565b60405163ca15c87360e01b8152600481018290526000908190309063ca15c8739060240160206040518083038186803b158015610cea57600080fd5b505afa158015610cfe573d6000803e3d6000fd5b505050506040513d601f19601f82011682018060405250810190610d2291906121c0565b905060005b81811015610e1f57604051632404341f60e21b815260048101859052602481018290526000903090639010d07c9060440160206040518083038186803b158015610d7057600080fd5b505afa158015610d84573d6000803e3d6000fd5b505050506040513d601f19601f82011682018060405250810190610da891906120ec565b60405163d547741f60e01b8152600481018790526001600160a01b0382166024820152909150309063d547741f90604401600060405180830381600087803b158015610df357600080fd5b505af1158015610e07573d6000803e3d6000fd5b50505050508080610e1790612316565b915050610d27565b5060019392505050565b60115460405163ca15c87360e01b81526004810183905260009182916001600160a01b039091169063ca15c8739060240160206040518083038186803b158015610e7257600080fd5b505afa158015610e86573d6000803e3d6000fd5b505050506040513d601f19601f82011682018060405250810190610eaa91906121c0565b905060005b81811015610e1f57601154604051632404341f60e21b815260048101869052602481018390526000916001600160a01b031690639010d07c9060440160206040518083038186803b158015610f0357600080fd5b505afa158015610f17573d6000803e3d6000fd5b505050506040513d601f19601f82011682018060405250810190610f3b91906120ec565b604051632f2ff15d60e01b8152600481018790526001600160a01b03821660248201529091503090632f2ff15d90604401600060405180830381600087803b158015610f8657600080fd5b505af1158015610f9a573d6000803e3d6000fd5b50505050508080610faa90612316565b915050610eaf565b6000610fcb6000805160206123ff833981519152610cae565b50610fe36000805160206123ff833981519152610e29565b610fec57600080fd5b6110036000805160206123bf833981519152610cae565b5061101b6000805160206123bf833981519152610e29565b61102457600080fd5b61103b60008051602061239f833981519152610cae565b5061105360008051602061239f833981519152610e29565b61105c57600080fd5b6110736000805160206123df833981519152610cae565b5061108b6000805160206123df833981519152610e29565b61109457600080fd5b6110ab60008051602061241f833981519152610cae565b506110c360008051602061241f833981519152610e29565b6110cc57600080fd5b6110d66000610cae565b506110e16000610e29565b6110ea57600080fd5b6110f261198b565b50600190565b6000828152602081905260409020600101546111148133611d14565b6106868383611c41565b601160009054906101000a90046001600160a01b03166001600160a01b0316637dad1ad56040518163ffffffff1660e01b815260040160206040518083038186803b15801561116c57600080fd5b505afa158015611180573d6000803e3d6000fd5b505050506040513d601f19601f820116820180604052508101906111a491906120ec565b600a80546001600160a01b0319166001600160a01b039283161790556011546040805163a99b273560e01b81529051919092169163a99b2735916004808301926020929190829003018186803b1580156111fd57600080fd5b505afa158015611211573d6000803e3d6000fd5b505050506040513d601f19601f8201168201806040525081019061123591906120ec565b600b80546001600160a01b0319166001600160a01b0392831617905560115460408051637ef7fe1960e11b81529051919092169163fdeffc32916004808301926020929190829003018186803b15801561128e57600080fd5b505afa1580156112a2573d6000803e3d6000fd5b505050506040513d601f19601f820116820180604052508101906112c691906120ec565b600c80546001600160a01b0319166001600160a01b0392831617905560115460408051635b5c251f60e01b815290519190921691635b5c251f916004808301926020929190829003018186803b15801561131f57600080fd5b505afa158015611333573d6000803e3d6000fd5b505050506040513d601f19601f8201168201806040525081019061135791906120ec565b600880546001600160a01b0319166001600160a01b0392831617905560115460408051636b58477560e01b815290519190921691636b584775916004808301926020929190829003018186803b1580156113b057600080fd5b505afa1580156113c4573d6000803e3d6000fd5b505050506040513d601f19601f820116820180604052508101906113e891906120ec565b600980546001600160a01b0319166001600160a01b0392909216919091179055565b601160009054906101000a90046001600160a01b03166001600160a01b031663dadf56ac6040518163ffffffff1660e01b815260040160206040518083038186803b15801561145857600080fd5b505afa15801561146c573d6000803e3d6000fd5b505050506040513d601f19601f8201168201806040525081019061149091906120ec565b600d80546001600160a01b0319166001600160a01b039283161790556011546040805163024bebe960e01b81529051919092169163024bebe9916004808301926020929190829003018186803b1580156114e957600080fd5b505afa1580156114fd573d6000803e3d6000fd5b505050506040513d601f19601f8201168201806040525081019061152191906120ec565b600e80546001600160a01b0319166001600160a01b039283161790556011546040805163320a28f960e11b81529051919092169163641451f2916004808301926020929190829003018186803b15801561157a57600080fd5b505afa15801561158e573d6000803e3d6000fd5b505050506040513d601f19601f820116820180604052508101906115b291906120ec565b600f80546001600160a01b0319166001600160a01b0392831617905560115460408051637310bf1d60e11b81529051919092169163e6217e3a916004808301926020929190829003018186803b15801561160b57600080fd5b505afa15801561161f573d6000803e3d6000fd5b505050506040513d601f19601f8201168201806040525081019061164391906120ec565b601080546001600160a01b0319166001600160a01b0392909216919091179055565b61166d61098e565b600454601280546001600160a01b039283166001600160a01b03199182161790915560095460138054919093169116179055565b6001600160a01b03811633146117115760405162461bcd60e51b815260206004820152602f60248201527f416363657373436f6e74726f6c3a2063616e206f6e6c792072656e6f756e636560448201526e103937b632b9903337b91039b2b63360891b606482015260840161073a565b6106558282611d78565b6000610883836001600160a01b038416611ddd565b60115460405163ca15c87360e01b81526004810183905260009182916001600160a01b039091169063ca15c8739060240160206040518083038186803b15801561177957600080fd5b505afa15801561178d573d6000803e3d6000fd5b505050506040513d601f19601f820116820180604052508101906117b191906121c0565b60405163ca15c87360e01b815260048101859052909150600090309063ca15c8739060240160206040518083038186803b1580156117ee57600080fd5b505afa158015611802573d6000803e3d6000fd5b505050506040513d601f19601f8201168201806040525081019061182691906121c0565b9050600061183482846122b8565b9050600081116118795760405162461bcd60e51b815260206004820152601060248201526f4e6f7468696e6720746f2073796e632160801b604482015260640161073a565b60005b8181101561197f57601154604051632404341f60e21b815260048101889052602481018390526000916001600160a01b031690639010d07c9060440160206040518083038186803b1580156118d057600080fd5b505afa1580156118e4573d6000803e3d6000fd5b505050506040513d601f19601f8201168201806040525081019061190891906120ec565b604051632f2ff15d60e01b8152600481018990526001600160a01b03821660248201529091503090632f2ff15d90604401600060405180830381600087803b15801561195357600080fd5b505af1158015611967573d6000803e3d6000fd5b5050505050808061197790612316565b91505061187c565b50600195945050505050565b601160009054906101000a90046001600160a01b03166001600160a01b031663ff7e88ec6040518163ffffffff1660e01b815260040160206040518083038186803b1580156119d957600080fd5b505afa1580156119ed573d6000803e3d6000fd5b505050506040513d601f19601f82011682018060405250810190611a119190612109565b601160156101000a81548160ff021916908315150217905550601160009054906101000a90046001600160a01b03166001600160a01b0316632fb565856040518163ffffffff1660e01b815260040160206040518083038186803b158015611a7857600080fd5b505afa158015611a8c573d6000803e3d6000fd5b505050506040513d601f19601f82011682018060405250810190611ab09190612109565b60118054911515600160b01b0260ff60b01b19909216919091179055565b60006108838383611eca565b600061063c825490565b600082815260208190526040902060010154611b008133611d14565b6106868383611d78565b601160009054906101000a90046001600160a01b03166001600160a01b031663a44b93256040518163ffffffff1660e01b815260040160206040518083038186803b158015611b5857600080fd5b505afa158015611b6c573d6000803e3d6000fd5b505050506040513d601f19601f82011682018060405250810190611b909190612109565b611b9957600080fd5b601160009054906101000a90046001600160a01b03166001600160a01b031663ac7cfac36040518163ffffffff1660e01b815260040160206040518083038186803b158015611be757600080fd5b505afa158015611bfb573d6000803e3d6000fd5b505050506040513d601f19601f82011682018060405250810190611c1f91906120ec565b600280546001600160a01b0319166001600160a01b0392909216919091179055565b611c4b828261088a565b610655576000828152602081815260408083206001600160a01b03851684529091529020805460ff19166001179055611c813390565b6001600160a01b0316816001600160a01b0316837f2f8788117e7eff1d82e926ec794901d17c78024a50270940304540a733656f0d60405160405180910390a45050565b6000818152600183016020526040812054611d0c5750815460018181018455600084815260208082209093018490558454848252828601909352604090209190915561063c565b50600061063c565b611d1e828261088a565b61065557611d36816001600160a01b03166014611f50565b611d41836020611f50565b604051602001611d529291906121d9565b60408051601f198184030181529082905262461bcd60e51b825261073a9160040161224e565b611d82828261088a565b15610655576000828152602081815260408083206001600160a01b0385168085529252808320805460ff1916905551339285917ff6391f5c32d9c69d2a47ea670b442974b53935d1edc7fd64eb21e047a839171b9190a45050565b60008181526001830160205260408120548015611ec0576000611e016001836122b8565b8554909150600090611e15906001906122b8565b90506000866000018281548110611e2e57611e2e61235d565b9060005260206000200154905080876000018481548110611e5157611e5161235d565b600091825260208083209091019290925582815260018901909152604090208490558654879080611e8457611e84612347565b6001900381819060005260206000200160009055905586600101600087815260200190815260200160002060009055600194505050505061063c565b600091505061063c565b81546000908210611f285760405162461bcd60e51b815260206004820152602260248201527f456e756d657261626c655365743a20696e646578206f7574206f6620626f756e604482015261647360f01b606482015260840161073a565b826000018281548110611f3d57611f3d61235d565b9060005260206000200154905092915050565b60606000611f5f836002612299565b611f6a906002612281565b67ffffffffffffffff811115611f8257611f82612373565b6040519080825280601f01601f191660200182016040528015611fac576020820181803683370190505b509050600360fc1b81600081518110611fc757611fc761235d565b60200101906001600160f81b031916908160001a905350600f60fb1b81600181518110611ff657611ff661235d565b60200101906001600160f81b031916908160001a905350600061201a846002612299565b612025906001612281565b90505b600181111561209d576f181899199a1a9b1b9c1cb0b131b232b360811b85600f16601081106120595761205961235d565b1a60f81b82828151811061206f5761206f61235d565b60200101906001600160f81b031916908160001a90535060049490941c93612096816122ff565b9050612028565b5083156108835760405162461bcd60e51b815260206004820181905260248201527f537472696e67733a20686578206c656e67746820696e73756666696369656e74604482015260640161073a565b6000602082840312156120fe57600080fd5b815161088381612389565b60006020828403121561211b57600080fd5b8151801515811461088357600080fd5b60006020828403121561213d57600080fd5b5035919050565b6000806040838503121561215757600080fd5b82359150602083013561216981612389565b809150509250929050565b6000806040838503121561218757600080fd5b50508035926020909101359150565b6000602082840312156121a857600080fd5b81356001600160e01b03198116811461088357600080fd5b6000602082840312156121d257600080fd5b5051919050565b7f416363657373436f6e74726f6c3a206163636f756e74200000000000000000008152600083516122118160178501602088016122cf565b7001034b99036b4b9b9b4b733903937b6329607d1b60179184019182015283516122428160288401602088016122cf565b01602801949350505050565b602081526000825180602084015261226d8160408501602087016122cf565b601f01601f19169190910160400192915050565b6000821982111561229457612294612331565b500190565b60008160001904831182151516156122b3576122b3612331565b500290565b6000828210156122ca576122ca612331565b500390565b60005b838110156122ea5781810151838201526020016122d2565b838111156122f9576000848401525b50505050565b60008161230e5761230e612331565b506000190190565b600060001982141561232a5761232a612331565b5060010190565b634e487b7160e01b600052601160045260246000fd5b634e487b7160e01b600052603160045260246000fd5b634e487b7160e01b600052603260045260246000fd5b634e487b7160e01b600052604160045260246000fd5b6001600160a01b038116811461066157600080fdfefa8e4989e1d689f7bc5c4b25b87efb51fecdecb19ba62847e29c759e12a89acd048bc71fa1cb2c119c339cf9cf00a97996a19a9d991ce5fe049f2fa5459e7990f0f4b159a6e2a4815eb3ca3df080bfa70c9270662c59bcaa4479a456220183e60538d24a8b7882d7b2e36af243d4af61c23e86e3daa6cb8c887b53220b2f57207c9d7f6f02908185bffb3f7fc9afb29fd7bf93675af8fd4b655ee05c2cee1e0ea2646970667358221220312d3923524304ae5a535ef2bcc0c844e722479fbff36ecabf2a2b7d87f2b9c264736f6c63430008060033",
  "immutableReferences": {},
  "source": "// SPDX-License-Identifier: MIT\n//  I have not really implemented anything yet. This is just a placeholder.\npragma solidity ^0.8.0;\n\nimport \"../src/SmartConsensusMachine.sol\";\nimport \"./JuryPool.sol\";\n\nimport \"@openzeppelin/contracts/token/ERC20/IERC20.sol\";\nimport \"@openzeppelin/contracts/token/ERC20/ERC20.sol\";\nimport \"@openzeppelin/contracts/token/ERC20/extensions/ERC20Snapshot.sol\";\n// cant seem to do this, as requires a much older version of solidity\n// import \"../ref/Moloch.sol\";\n\ncontract DisputeMachine is SmartConsensusMachine {\n\n    ERC20 public redPens;\n    JuryPool public juryHats;\n\n    uint private slashIndex = 0;\n    uint public slashPercentageInWholeNumber = 30;\n\n    uint[] private slashList;\n\n    // Moloch theJuryDao = Moloch(0x333Edad0FA6822C3FaF4819B2D887570fdbC29BF);\n\n    constructor(address _AddressManagerAddress) SmartConsensusMachine(_AddressManagerAddress)  {\n\n    }\n    /* \n    function _checkVote(address memberAddress, uint proposalIndex) internal returns (bool) {\n        uint vote = theJuryDao.getMemberProposalVote(memberAddress, proposalIndex);\n        if (vote == 1 || vote ==2 ) {\n            return true;\n        } else return false;\n    }\n    */\n\n    function drawJurors() internal {\n        // emit events to summon jurrors based on their token IDs        \n    }\n\n    function _slash() internal {\n\n        for (uint i = 0; i < slashIndex; i++) {\n            juryHats.slashToken(slashList[i], slashPercentageInWholeNumber);\n            slashList[i] = 0;\n        }\n        slashIndex = 0;\n\n    }\n\n    function setSlashPercent(uint _slashPercentageInWholeNumber) public JURY {\n        slashPercentageInWholeNumber = _slashPercentageInWholeNumber;\n    }\n\n    function _updateTokenAddresses() internal override {\n        // Set these from the Address Manager Contract\n        \n        super._updateTokenAddresses();\n        redPens = ERC20(RedPenTokenAddress);\n        juryHats = JuryPool(JuryPoolAddress);\n    }\n\n}",
  "sourcePath": "/home/n/Desktop/PinkSlips_FrontEnd_REFORMAT/contracts/juryAndAppeals/DisputeMachine.sol",
  "compiler": {
    "name": "solc",
    "version": "0.8.6+commit.11564f7e.Emscripten.clang"
  },
  "schemaVersion": "3.4.1",
  "updatedAt": "2021-08-06T05:30:53.121Z",
  "networkType": "ethereum",
  "devdoc": {
    "kind": "dev",
    "methods": {
      "getRoleAdmin(bytes32)": {
        "details": "Returns the admin role that controls `role`. See {grantRole} and {revokeRole}. To change a role's admin, use {_setRoleAdmin}."
      },
      "getRoleMember(bytes32,uint256)": {
        "details": "Returns one of the accounts that have `role`. `index` must be a value between 0 and {getRoleMemberCount}, non-inclusive. Role bearers are not sorted in any particular way, and their ordering may change at any point. WARNING: When using {getRoleMember} and {getRoleMemberCount}, make sure you perform all queries on the same block. See the following https://forum.openzeppelin.com/t/iterating-over-elements-on-enumerableset-in-openzeppelin-contracts/2296[forum post] for more information."
      },
      "getRoleMemberCount(bytes32)": {
        "details": "Returns the number of accounts that have `role`. Can be used together with {getRoleMember} to enumerate all bearers of a role."
      },
      "grantRole(bytes32,address)": {
        "details": "Overload {grantRole} to track enumerable memberships"
      },
      "hasRole(bytes32,address)": {
        "details": "Returns `true` if `account` has been granted `role`."
      },
      "renounceRole(bytes32,address)": {
        "details": "Overload {renounceRole} to track enumerable memberships"
      },
      "revokeRole(bytes32,address)": {
        "details": "Overload {revokeRole} to track enumerable memberships"
      },
      "supportsInterface(bytes4)": {
        "details": "See {IERC165-supportsInterface}."
      }
    },
    "version": 1
  },
  "userdoc": {
    "kind": "user",
    "methods": {},
    "version": 1
  }
}