{
  "contractName": "DisputeMachine",
  "abi": [
    {
      "inputs": [
        {
          "internalType": "address",
          "name": "_AddressManagerAddress",
          "type": "address"
        }
      ],
      "stateMutability": "nonpayable",
      "type": "constructor"
    },
    {
      "anonymous": false,
      "inputs": [
        {
          "indexed": true,
          "internalType": "bytes32",
          "name": "role",
          "type": "bytes32"
        },
        {
          "indexed": true,
          "internalType": "bytes32",
          "name": "previousAdminRole",
          "type": "bytes32"
        },
        {
          "indexed": true,
          "internalType": "bytes32",
          "name": "newAdminRole",
          "type": "bytes32"
        }
      ],
      "name": "RoleAdminChanged",
      "type": "event"
    },
    {
      "anonymous": false,
      "inputs": [
        {
          "indexed": true,
          "internalType": "bytes32",
          "name": "role",
          "type": "bytes32"
        },
        {
          "indexed": true,
          "internalType": "address",
          "name": "account",
          "type": "address"
        },
        {
          "indexed": true,
          "internalType": "address",
          "name": "sender",
          "type": "address"
        }
      ],
      "name": "RoleGranted",
      "type": "event"
    },
    {
      "anonymous": false,
      "inputs": [
        {
          "indexed": true,
          "internalType": "bytes32",
          "name": "role",
          "type": "bytes32"
        },
        {
          "indexed": true,
          "internalType": "address",
          "name": "account",
          "type": "address"
        },
        {
          "indexed": true,
          "internalType": "address",
          "name": "sender",
          "type": "address"
        }
      ],
      "name": "RoleRevoked",
      "type": "event"
    },
    {
      "inputs": [],
      "name": "AddressManagerAddress",
      "outputs": [
        {
          "internalType": "address",
          "name": "",
          "type": "address"
        }
      ],
      "stateMutability": "view",
      "type": "function",
      "constant": true
    },
    {
      "inputs": [],
      "name": "ChadBadgeAddress",
      "outputs": [
        {
          "internalType": "address",
          "name": "",
          "type": "address"
        }
      ],
      "stateMutability": "view",
      "type": "function",
      "constant": true
    },
    {
      "inputs": [],
      "name": "ColoredIDAddress",
      "outputs": [
        {
          "internalType": "address",
          "name": "",
          "type": "address"
        }
      ],
      "stateMutability": "view",
      "type": "function",
      "constant": true
    },
    {
      "inputs": [],
      "name": "CourtClerk",
      "outputs": [
        {
          "internalType": "address",
          "name": "",
          "type": "address"
        }
      ],
      "stateMutability": "view",
      "type": "function",
      "constant": true
    },
    {
      "inputs": [],
      "name": "DEFAULT_ADMIN_ROLE",
      "outputs": [
        {
          "internalType": "bytes32",
          "name": "",
          "type": "bytes32"
        }
      ],
      "stateMutability": "view",
      "type": "function",
      "constant": true
    },
    {
      "inputs": [],
      "name": "GAVELS_BAILIFF",
      "outputs": [
        {
          "internalType": "bytes32",
          "name": "",
          "type": "bytes32"
        }
      ],
      "stateMutability": "view",
      "type": "function",
      "constant": true
    },
    {
      "inputs": [],
      "name": "GavelDAOAgent",
      "outputs": [
        {
          "internalType": "address",
          "name": "",
          "type": "address"
        }
      ],
      "stateMutability": "view",
      "type": "function",
      "constant": true
    },
    {
      "inputs": [],
      "name": "GavelTokenAddress",
      "outputs": [
        {
          "internalType": "address",
          "name": "",
          "type": "address"
        }
      ],
      "stateMutability": "view",
      "type": "function",
      "constant": true
    },
    {
      "inputs": [],
      "name": "GavelVote",
      "outputs": [
        {
          "internalType": "bool",
          "name": "",
          "type": "bool"
        }
      ],
      "stateMutability": "view",
      "type": "function",
      "constant": true
    },
    {
      "inputs": [],
      "name": "GoldStarAddress",
      "outputs": [
        {
          "internalType": "address",
          "name": "",
          "type": "address"
        }
      ],
      "stateMutability": "view",
      "type": "function",
      "constant": true
    },
    {
      "inputs": [],
      "name": "JERK_ROLE",
      "outputs": [
        {
          "internalType": "bytes32",
          "name": "",
          "type": "bytes32"
        }
      ],
      "stateMutability": "view",
      "type": "function",
      "constant": true
    },
    {
      "inputs": [],
      "name": "JURY_BAILIFF",
      "outputs": [
        {
          "internalType": "bytes32",
          "name": "",
          "type": "bytes32"
        }
      ],
      "stateMutability": "view",
      "type": "function",
      "constant": true
    },
    {
      "inputs": [],
      "name": "JuryDAOAgent",
      "outputs": [
        {
          "internalType": "address",
          "name": "",
          "type": "address"
        }
      ],
      "stateMutability": "view",
      "type": "function",
      "constant": true
    },
    {
      "inputs": [],
      "name": "JuryPoolAddress",
      "outputs": [
        {
          "internalType": "address",
          "name": "",
          "type": "address"
        }
      ],
      "stateMutability": "view",
      "type": "function",
      "constant": true
    },
    {
      "inputs": [],
      "name": "JuryVote",
      "outputs": [
        {
          "internalType": "bool",
          "name": "",
          "type": "bool"
        }
      ],
      "stateMutability": "view",
      "type": "function",
      "constant": true
    },
    {
      "inputs": [],
      "name": "MINI_BAILIFF_ROLE",
      "outputs": [
        {
          "internalType": "bytes32",
          "name": "",
          "type": "bytes32"
        }
      ],
      "stateMutability": "view",
      "type": "function",
      "constant": true
    },
    {
      "inputs": [],
      "name": "MiniBailiff",
      "outputs": [
        {
          "internalType": "address",
          "name": "",
          "type": "address"
        }
      ],
      "stateMutability": "view",
      "type": "function",
      "constant": true
    },
    {
      "inputs": [],
      "name": "PinkSlipAddress",
      "outputs": [
        {
          "internalType": "address",
          "name": "",
          "type": "address"
        }
      ],
      "stateMutability": "view",
      "type": "function",
      "constant": true
    },
    {
      "inputs": [],
      "name": "RedPenTokenAddress",
      "outputs": [
        {
          "internalType": "address",
          "name": "",
          "type": "address"
        }
      ],
      "stateMutability": "view",
      "type": "function",
      "constant": true
    },
    {
      "inputs": [],
      "name": "THE_COURT_ROLE",
      "outputs": [
        {
          "internalType": "bytes32",
          "name": "",
          "type": "bytes32"
        }
      ],
      "stateMutability": "view",
      "type": "function",
      "constant": true
    },
    {
      "inputs": [],
      "name": "TheCourtAddress",
      "outputs": [
        {
          "internalType": "address",
          "name": "",
          "type": "address"
        }
      ],
      "stateMutability": "view",
      "type": "function",
      "constant": true
    },
    {
      "inputs": [],
      "name": "TreasuryAddress",
      "outputs": [
        {
          "internalType": "address",
          "name": "",
          "type": "address"
        }
      ],
      "stateMutability": "view",
      "type": "function",
      "constant": true
    },
    {
      "inputs": [],
      "name": "addressManager",
      "outputs": [
        {
          "internalType": "contract AddressManager",
          "name": "",
          "type": "address"
        }
      ],
      "stateMutability": "view",
      "type": "function",
      "constant": true
    },
    {
      "inputs": [
        {
          "internalType": "bytes32",
          "name": "role",
          "type": "bytes32"
        }
      ],
      "name": "getRoleAdmin",
      "outputs": [
        {
          "internalType": "bytes32",
          "name": "",
          "type": "bytes32"
        }
      ],
      "stateMutability": "view",
      "type": "function",
      "constant": true
    },
    {
      "inputs": [
        {
          "internalType": "bytes32",
          "name": "role",
          "type": "bytes32"
        },
        {
          "internalType": "uint256",
          "name": "index",
          "type": "uint256"
        }
      ],
      "name": "getRoleMember",
      "outputs": [
        {
          "internalType": "address",
          "name": "",
          "type": "address"
        }
      ],
      "stateMutability": "view",
      "type": "function",
      "constant": true
    },
    {
      "inputs": [
        {
          "internalType": "bytes32",
          "name": "role",
          "type": "bytes32"
        }
      ],
      "name": "getRoleMemberCount",
      "outputs": [
        {
          "internalType": "uint256",
          "name": "",
          "type": "uint256"
        }
      ],
      "stateMutability": "view",
      "type": "function",
      "constant": true
    },
    {
      "inputs": [
        {
          "internalType": "bytes32",
          "name": "role",
          "type": "bytes32"
        },
        {
          "internalType": "address",
          "name": "account",
          "type": "address"
        }
      ],
      "name": "grantRole",
      "outputs": [],
      "stateMutability": "nonpayable",
      "type": "function"
    },
    {
      "inputs": [
        {
          "internalType": "bytes32",
          "name": "role",
          "type": "bytes32"
        },
        {
          "internalType": "address",
          "name": "account",
          "type": "address"
        }
      ],
      "name": "hasRole",
      "outputs": [
        {
          "internalType": "bool",
          "name": "",
          "type": "bool"
        }
      ],
      "stateMutability": "view",
      "type": "function",
      "constant": true
    },
    {
      "inputs": [],
      "name": "jerkSanctions",
      "outputs": [
        {
          "internalType": "bool",
          "name": "",
          "type": "bool"
        }
      ],
      "stateMutability": "view",
      "type": "function",
      "constant": true
    },
    {
      "inputs": [],
      "name": "juryHats",
      "outputs": [
        {
          "internalType": "contract JuryPool",
          "name": "",
          "type": "address"
        }
      ],
      "stateMutability": "view",
      "type": "function",
      "constant": true
    },
    {
      "inputs": [],
      "name": "redPens",
      "outputs": [
        {
          "internalType": "contract ERC20",
          "name": "",
          "type": "address"
        }
      ],
      "stateMutability": "view",
      "type": "function",
      "constant": true
    },
    {
      "inputs": [
        {
          "internalType": "bytes32",
          "name": "role",
          "type": "bytes32"
        },
        {
          "internalType": "address",
          "name": "account",
          "type": "address"
        }
      ],
      "name": "renounceRole",
      "outputs": [],
      "stateMutability": "nonpayable",
      "type": "function"
    },
    {
      "inputs": [],
      "name": "resetVote",
      "outputs": [],
      "stateMutability": "nonpayable",
      "type": "function"
    },
    {
      "inputs": [
        {
          "internalType": "bytes32",
          "name": "role",
          "type": "bytes32"
        },
        {
          "internalType": "address",
          "name": "account",
          "type": "address"
        }
      ],
      "name": "revokeRole",
      "outputs": [],
      "stateMutability": "nonpayable",
      "type": "function"
    },
    {
      "inputs": [],
      "name": "slashPercentageInWholeNumber",
      "outputs": [
        {
          "internalType": "uint256",
          "name": "",
          "type": "uint256"
        }
      ],
      "stateMutability": "view",
      "type": "function",
      "constant": true
    },
    {
      "inputs": [
        {
          "internalType": "bytes4",
          "name": "interfaceId",
          "type": "bytes4"
        }
      ],
      "name": "supportsInterface",
      "outputs": [
        {
          "internalType": "bool",
          "name": "",
          "type": "bool"
        }
      ],
      "stateMutability": "view",
      "type": "function",
      "constant": true
    },
    {
      "inputs": [],
      "name": "syncAllRoles",
      "outputs": [],
      "stateMutability": "nonpayable",
      "type": "function"
    },
    {
      "inputs": [
        {
          "internalType": "bytes32",
          "name": "ROLE_TO_SYNC",
          "type": "bytes32"
        }
      ],
      "name": "syncSingleRole",
      "outputs": [],
      "stateMutability": "nonpayable",
      "type": "function"
    },
    {
      "inputs": [],
      "name": "syncVotes",
      "outputs": [],
      "stateMutability": "nonpayable",
      "type": "function"
    },
    {
      "inputs": [],
      "name": "updateAddressManager",
      "outputs": [],
      "stateMutability": "nonpayable",
      "type": "function"
    },
    {
      "inputs": [],
      "name": "updateAllAddresses",
      "outputs": [],
      "stateMutability": "nonpayable",
      "type": "function"
    },
    {
      "inputs": [],
      "name": "updateAllRoles",
      "outputs": [],
      "stateMutability": "nonpayable",
      "type": "function"
    },
    {
      "inputs": [],
      "name": "updateDAOAddresses",
      "outputs": [],
      "stateMutability": "nonpayable",
      "type": "function"
    },
    {
      "inputs": [
        {
          "internalType": "bytes32",
          "name": "ROLE_TO_UPDATE",
          "type": "bytes32"
        }
      ],
      "name": "updateSingleRole",
      "outputs": [],
      "stateMutability": "nonpayable",
      "type": "function"
    },
    {
      "inputs": [],
      "name": "updateTokenAddresses",
      "outputs": [],
      "stateMutability": "nonpayable",
      "type": "function"
    },
    {
      "inputs": [
        {
          "internalType": "uint256",
          "name": "_slashPercentageInWholeNumber",
          "type": "uint256"
        }
      ],
      "name": "setSlashPercent",
      "outputs": [],
      "stateMutability": "nonpayable",
      "type": "function"
    }
  ],
  "bytecode": "0x60806040526000805460ff191681556011805463ffffffff60a01b19169055601455601e6015553480156200003357600080fd5b50604051620030e6380380620030e6833981016040819052620000569162000be9565b600380546001600160a01b0383166001600160a01b03199182168117909255601180549091169091179055806200008c620001c9565b62000096620001df565b600f54620000b0906000906001600160a01b03166200032a565b600f54620000e9907f0538d24a8b7882d7b2e36af243d4af61c23e86e3daa6cb8c887b53220b2f5720906001600160a01b03166200032a565b600c5462000122907f048bc71fa1cb2c119c339cf9cf00a97996a19a9d991ce5fe049f2fa5459e7990906001600160a01b03166200032a565b600d546200015b907ffa8e4989e1d689f7bc5c4b25b87efb51fecdecb19ba62847e29c759e12a89acd906001600160a01b03166200032a565b60105462000194907ff0f4b159a6e2a4815eb3ca3df080bfa70c9270662c59bcaa4479a456220183e6906001600160a01b03166200032a565b620001c17f7c9d7f6f02908185bffb3f7fc9afb29fd7bf93675af8fd4b655ee05c2cee1e0e60006200032a565b505062000c3f565b620001d36200036d565b620001dd6200066d565b565b601160009054906101000a90046001600160a01b03166001600160a01b031663ff7e88ec6040518163ffffffff1660e01b815260040160206040518083038186803b1580156200022e57600080fd5b505afa15801562000243573d6000803e3d6000fd5b505050506040513d601f19601f8201168201806040525081019062000269919062000c1b565b601160156101000a81548160ff021916908315150217905550601160009054906101000a90046001600160a01b03166001600160a01b0316632fb565856040518163ffffffff1660e01b815260040160206040518083038186803b158015620002d157600080fd5b505afa158015620002e6573d6000803e3d6000fd5b505050506040513d601f19601f820116820180604052508101906200030c919062000c1b565b60118054911515600160b01b0260ff60b01b19909216919091179055565b620003418282620006b660201b620009fb1760201c565b60008281526002602090815260409091206200036891839062000a09620006c6821b17901c565b505050565b601160009054906101000a90046001600160a01b03166001600160a01b031663dadf56ac6040518163ffffffff1660e01b815260040160206040518083038186803b158015620003bc57600080fd5b505afa158015620003d1573d6000803e3d6000fd5b505050506040513d601f19601f82011682018060405250810190620003f7919062000be9565b600c80546001600160a01b0319166001600160a01b039283161790556011546040805163024bebe960e01b81529051919092169163024bebe9916004808301926020929190829003018186803b1580156200045157600080fd5b505afa15801562000466573d6000803e3d6000fd5b505050506040513d601f19601f820116820180604052508101906200048c919062000be9565b600d80546001600160a01b0319166001600160a01b0392831617905560115460408051635b5c251f60e01b815290519190921691635b5c251f916004808301926020929190829003018186803b158015620004e657600080fd5b505afa158015620004fb573d6000803e3d6000fd5b505050506040513d601f19601f8201168201806040525081019062000521919062000be9565b600e80546001600160a01b0319166001600160a01b0392831617905560115460408051637310bf1d60e11b81529051919092169163e6217e3a916004808301926020929190829003018186803b1580156200057b57600080fd5b505afa15801562000590573d6000803e3d6000fd5b505050506040513d601f19601f82011682018060405250810190620005b6919062000be9565b601080546001600160a01b0319166001600160a01b039283161790556011546040805163d88127a160e01b81529051919092169163d88127a1916004808301926020929190829003018186803b1580156200061057600080fd5b505afa15801562000625573d6000803e3d6000fd5b505050506040513d601f19601f820116820180604052508101906200064b919062000be9565b600b80546001600160a01b0319166001600160a01b0392909216919091179055565b62000682620006e660201b62000a1e1760201c565b600554601280546001600160a01b039283166001600160a01b031991821617909155600a5460138054919093169116179055565b620006c2828262000b0f565b5050565b6000620006dd836001600160a01b03841662000b97565b90505b92915050565b601160009054906101000a90046001600160a01b03166001600160a01b03166321d7f0086040518163ffffffff1660e01b815260040160206040518083038186803b1580156200073557600080fd5b505afa1580156200074a573d6000803e3d6000fd5b505050506040513d601f19601f8201168201806040525081019062000770919062000be9565b600480546001600160a01b0319166001600160a01b039283161781556011546040805163762ddb5960e01b81529051919093169263762ddb599281810192602092909190829003018186803b158015620007c957600080fd5b505afa158015620007de573d6000803e3d6000fd5b505050506040513d601f19601f8201168201806040525081019062000804919062000be9565b600580546001600160a01b0319166001600160a01b039283161790556011546040805163bfb7dc9960e01b81529051919092169163bfb7dc99916004808301926020929190829003018186803b1580156200085e57600080fd5b505afa15801562000873573d6000803e3d6000fd5b505050506040513d601f19601f8201168201806040525081019062000899919062000be9565b600680546001600160a01b0319166001600160a01b0392831617905560115460408051633e6111eb60e21b81529051919092169163f98447ac916004808301926020929190829003018186803b158015620008f357600080fd5b505afa15801562000908573d6000803e3d6000fd5b505050506040513d601f19601f820116820180604052508101906200092e919062000be9565b600780546001600160a01b0319166001600160a01b0392831617905560115460408051630fe1ba9f60e21b815290519190921691633f86ea7c916004808301926020929190829003018186803b1580156200098857600080fd5b505afa1580156200099d573d6000803e3d6000fd5b505050506040513d601f19601f82011682018060405250810190620009c3919062000be9565b600880546001600160a01b0319166001600160a01b0392831617905560115460408051632b90024160e11b8152905191909216916357200482916004808301926020929190829003018186803b15801562000a1d57600080fd5b505afa15801562000a32573d6000803e3d6000fd5b505050506040513d601f19601f8201168201806040525081019062000a58919062000be9565b600980546001600160a01b0319166001600160a01b0392831617905560115460408051636b58477560e01b815290519190921691636b584775916004808301926020929190829003018186803b15801562000ab257600080fd5b505afa15801562000ac7573d6000803e3d6000fd5b505050506040513d601f19601f8201168201806040525081019062000aed919062000be9565b600a80546001600160a01b0319166001600160a01b0392909216919091179055565b60008281526001602090815260408083206001600160a01b038516845290915290205460ff16620006c25760008281526001602081815260408084206001600160a01b0386168086529252808420805460ff19169093179092559051339285917f2f8788117e7eff1d82e926ec794901d17c78024a50270940304540a733656f0d9190a45050565b600081815260018301602052604081205462000be057508154600181810184556000848152602080822090930184905584548482528286019093526040902091909155620006e0565b506000620006e0565b60006020828403121562000bfc57600080fd5b81516001600160a01b038116811462000c1457600080fd5b9392505050565b60006020828403121562000c2e57600080fd5b8151801515811462000c1457600080fd5b6124978062000c4f6000396000f3fe608060405234801561001057600080fd5b506004361061028a5760003560e01c806367a14f061161015c578063cce84392116100ce578063e78c266c11610087578063e78c266c14610588578063e9a532301461059b578063f1132b30146105b0578063f7d92d86146105b8578063f98447ac146105c0578063ff7e88ec146105d357600080fd5b8063cce8439214610512578063cf4ece1514610527578063d547741f1461053c578063d88127a11461054f578063dadf56ac14610562578063e6217e3a1461057557600080fd5b8063a217fddf11610120578063a217fddf146104a8578063a32c5e59146104b0578063a78e746f146104c5578063b6f928be146104d9578063bfb7dc99146104ec578063ca15c873146104ff57600080fd5b806367a14f06146104495780636b5847751461045c578063762ddb591461046f5780639010d07c1461048257806391d148541461049557600080fd5b806336568abe1161020057806357200482116101b957806357200482146103e257806357f276ff146103f55780635b5c251f146104085780635db531a11461041b5780635f41346614610423578063645d2c411461043657600080fd5b806336568abe146103905780633ab76e9f146103a35780633f86ea7c146103b657806349b5e105146103c95780634d84c6d8146103d15780635261ad5a146103d957600080fd5b80632436329d116102525780632436329d14610312578063248a9ca3146103355780632f2ff15d146103595780632fb565851461036c578063326a55e014610380578063329a8cfa1461038857600080fd5b806301ffc9a71461028f578063024bebe9146102b7578063130f6320146102e257806317314d5a146102f757806321d7f008146102ff575b600080fd5b6102a261029d3660046121b9565b6105e7565b60405190151581526020015b60405180910390f35b600d546102ca906001600160a01b031681565b6040516001600160a01b0390911681526020016102ae565b6102f56102f036600461214e565b610612565b005b6102f5610684565b6004546102ca906001600160a01b031681565b6103276000805160206123c283398151915281565b6040519081526020016102ae565b61032761034336600461214e565b6000908152600160208190526040909120015490565b6102f5610367366004612167565b6106e5565b6011546102a290600160b01b900460ff1681565b6102f561070c565b6102f561071c565b6102f561039e366004612167565b610825565b6011546102ca906001600160a01b031681565b6008546102ca906001600160a01b031681565b6102f5610847565b6102f5610714565b61032760155481565b6009546102ca906001600160a01b031681565b6102f561040336600461214e565b61084f565b600e546102ca906001600160a01b031681565b6102f5610863565b600f546102ca906001600160a01b031681565b6102f561044436600461214e565b61086b565b6012546102ca906001600160a01b031681565b600a546102ca906001600160a01b031681565b6005546102ca906001600160a01b031681565b6102ca610490366004612197565b6108e8565b6102a26104a3366004612167565b610907565b610327600081565b61032760008051602061242283398151915281565b6011546102a290600160a01b900460ff1681565b6013546102ca906001600160a01b031681565b6006546102ca906001600160a01b031681565b61032761050d36600461214e565b610932565b61032760008051602061244283398151915281565b61032760008051602061240283398151915281565b6102f561054a366004612167565b610949565b600b546102ca906001600160a01b031681565b600c546102ca906001600160a01b031681565b6010546102ca906001600160a01b031681565b6003546102ca906001600160a01b031681565b6103276000805160206123e283398151915281565b6102f5610953565b6102f561095b565b6007546102ca906001600160a01b031681565b6011546102a290600160a81b900460ff1681565b60006001600160e01b03198216635a05180f60e01b148061060c575061060c82610e2b565b92915050565b61061c6001610e60565b5061062681610f1b565b5061063081611096565b5061063b6000610e60565b6106815760405162461bcd60e51b81526020600482015260126024820152711cd8599d195e481b9bdd08199b1a5c1c195960721b60448201526064015b60405180910390fd5b50565b61068e6001610e60565b5061069761121f565b506106a26000610e60565b6106e35760405162461bcd60e51b81526020600482015260126024820152711cd8599d195e481b9bdd08199b1a5c1c195960721b6044820152606401610678565b565b6106ef8282611365565b60008281526002602052604090206107079082610a09565b505050565b61071461139f565b6106e361168b565b61073460008051602061242283398151915233610907565b8061075257506107526000805160206123e283398151915233610907565b8061077057506107706000805160206123c283398151915233610907565b6107b55760405162461bcd60e51b81526020600482015260166024820152752cb7ba93b932903737ba103a3432903130b4b634b33360511b6044820152606401610678565b601160009054906101000a90046001600160a01b03166001600160a01b031663329a8cfa6040518163ffffffff1660e01b8152600401600060405180830381600087803b15801561080557600080fd5b505af1158015610819573d6000803e3d6000fd5b505050506106e3610863565b61082f82826116c7565b60008281526002602052604090206107079082611741565b6106e361139f565b6108596001610e60565b5061063081611756565b6106e36119b1565b6108836000805160206123c283398151915233610907565b806108a157506108a160008051602061242283398151915233610907565b6108e35760405162461bcd60e51b8152602060048201526013602482015272596f75277265206e6f7420746865204a75727960681b6044820152606401610678565b601555565b60008281526002602052604081206109009083611af4565b9392505050565b60009182526001602090815260408084206001600160a01b0393909316845291905290205460ff1690565b600081815260026020526040812061060c90611b00565b61082f8282611b0a565b6106e3611b44565b6109656001610e60565b5061097d600080516020612422833981519152611756565b506109956000805160206123e2833981519152611756565b506109ad6000805160206123c2833981519152611756565b506109c5600080516020612402833981519152611756565b506109dd600080516020612442833981519152611756565b506109e86000611756565b506109f16119b1565b6106a26000610e60565b610a058282611c7b565b5050565b6000610900836001600160a01b038416611ce6565b601160009054906101000a90046001600160a01b03166001600160a01b03166321d7f0086040518163ffffffff1660e01b815260040160206040518083038186803b158015610a6c57600080fd5b505afa158015610a80573d6000803e3d6000fd5b505050506040513d601f19601f82011682018060405250810190610aa4919061210f565b600480546001600160a01b0319166001600160a01b039283161781556011546040805163762ddb5960e01b81529051919093169263762ddb599281810192602092909190829003018186803b158015610afc57600080fd5b505afa158015610b10573d6000803e3d6000fd5b505050506040513d601f19601f82011682018060405250810190610b34919061210f565b600580546001600160a01b0319166001600160a01b039283161790556011546040805163bfb7dc9960e01b81529051919092169163bfb7dc99916004808301926020929190829003018186803b158015610b8d57600080fd5b505afa158015610ba1573d6000803e3d6000fd5b505050506040513d601f19601f82011682018060405250810190610bc5919061210f565b600680546001600160a01b0319166001600160a01b0392831617905560115460408051633e6111eb60e21b81529051919092169163f98447ac916004808301926020929190829003018186803b158015610c1e57600080fd5b505afa158015610c32573d6000803e3d6000fd5b505050506040513d601f19601f82011682018060405250810190610c56919061210f565b600780546001600160a01b0319166001600160a01b0392831617905560115460408051630fe1ba9f60e21b815290519190921691633f86ea7c916004808301926020929190829003018186803b158015610caf57600080fd5b505afa158015610cc3573d6000803e3d6000fd5b505050506040513d601f19601f82011682018060405250810190610ce7919061210f565b600880546001600160a01b0319166001600160a01b0392831617905560115460408051632b90024160e11b8152905191909216916357200482916004808301926020929190829003018186803b158015610d4057600080fd5b505afa158015610d54573d6000803e3d6000fd5b505050506040513d601f19601f82011682018060405250810190610d78919061210f565b600980546001600160a01b0319166001600160a01b0392831617905560115460408051636b58477560e01b815290519190921691636b584775916004808301926020929190829003018186803b158015610dd157600080fd5b505afa158015610de5573d6000803e3d6000fd5b505050506040513d601f19601f82011682018060405250810190610e09919061210f565b600a80546001600160a01b0319166001600160a01b0392909216919091179055565b60006001600160e01b03198216637965db0b60e01b148061060c57506301ffc9a760e01b6001600160e01b031983161461060c565b6000805460ff168215158115151415610ebb5760405162461bcd60e51b815260206004820152601960248201527f416c72656164792053657420746f20746861742076616c7565000000000000006044820152606401610678565b6000805484151560ff19909116811790915560ff1615158115151415610f125760405162461bcd60e51b815260206004820152600c60248201526b29b0b33a32bc9022b93937b960a11b6044820152606401610678565b50600192915050565b60405163ca15c87360e01b8152600481018290526000908190309063ca15c8739060240160206040518083038186803b158015610f5757600080fd5b505afa158015610f6b573d6000803e3d6000fd5b505050506040513d601f19601f82011682018060405250810190610f8f91906121e3565b905060005b8181101561108c57604051632404341f60e21b815260048101859052602481018290526000903090639010d07c9060440160206040518083038186803b158015610fdd57600080fd5b505afa158015610ff1573d6000803e3d6000fd5b505050506040513d601f19601f82011682018060405250810190611015919061210f565b60405163d547741f60e01b8152600481018790526001600160a01b0382166024820152909150309063d547741f90604401600060405180830381600087803b15801561106057600080fd5b505af1158015611074573d6000803e3d6000fd5b5050505050808061108490612339565b915050610f94565b5060019392505050565b60115460405163ca15c87360e01b81526004810183905260009182916001600160a01b039091169063ca15c8739060240160206040518083038186803b1580156110df57600080fd5b505afa1580156110f3573d6000803e3d6000fd5b505050506040513d601f19601f8201168201806040525081019061111791906121e3565b905060005b8181101561108c57601154604051632404341f60e21b815260048101869052602481018390526000916001600160a01b031690639010d07c9060440160206040518083038186803b15801561117057600080fd5b505afa158015611184573d6000803e3d6000fd5b505050506040513d601f19601f820116820180604052508101906111a8919061210f565b604051632f2ff15d60e01b8152600481018790526001600160a01b03821660248201529091503090632f2ff15d90604401600060405180830381600087803b1580156111f357600080fd5b505af1158015611207573d6000803e3d6000fd5b5050505050808061121790612339565b91505061111c565b6000611238600080516020612422833981519152610f1b565b50611250600080516020612422833981519152611096565b61125957600080fd5b6112706000805160206123e2833981519152610f1b565b506112886000805160206123e2833981519152611096565b61129157600080fd5b6112a86000805160206123c2833981519152610f1b565b506112c06000805160206123c2833981519152611096565b6112c957600080fd5b6112e0600080516020612402833981519152610f1b565b506112f8600080516020612402833981519152611096565b61130157600080fd5b611318600080516020612442833981519152610f1b565b50611330600080516020612442833981519152611096565b61133957600080fd5b6113436000610f1b565b5061134e6000611096565b61135757600080fd5b61135f6119b1565b50600190565b600082815260016020819052604082200154905460ff161561138b576107078383611c7b565b6113958133611d35565b6107078383611c7b565b601160009054906101000a90046001600160a01b03166001600160a01b031663dadf56ac6040518163ffffffff1660e01b815260040160206040518083038186803b1580156113ed57600080fd5b505afa158015611401573d6000803e3d6000fd5b505050506040513d601f19601f82011682018060405250810190611425919061210f565b600c80546001600160a01b0319166001600160a01b039283161790556011546040805163024bebe960e01b81529051919092169163024bebe9916004808301926020929190829003018186803b15801561147e57600080fd5b505afa158015611492573d6000803e3d6000fd5b505050506040513d601f19601f820116820180604052508101906114b6919061210f565b600d80546001600160a01b0319166001600160a01b0392831617905560115460408051635b5c251f60e01b815290519190921691635b5c251f916004808301926020929190829003018186803b15801561150f57600080fd5b505afa158015611523573d6000803e3d6000fd5b505050506040513d601f19601f82011682018060405250810190611547919061210f565b600e80546001600160a01b0319166001600160a01b0392831617905560115460408051637310bf1d60e11b81529051919092169163e6217e3a916004808301926020929190829003018186803b1580156115a057600080fd5b505afa1580156115b4573d6000803e3d6000fd5b505050506040513d601f19601f820116820180604052508101906115d8919061210f565b601080546001600160a01b0319166001600160a01b039283161790556011546040805163d88127a160e01b81529051919092169163d88127a1916004808301926020929190829003018186803b15801561163157600080fd5b505afa158015611645573d6000803e3d6000fd5b505050506040513d601f19601f82011682018060405250810190611669919061210f565b600b80546001600160a01b0319166001600160a01b0392909216919091179055565b611693610a1e565b600554601280546001600160a01b039283166001600160a01b031991821617909155600a5460138054919093169116179055565b6001600160a01b03811633146117375760405162461bcd60e51b815260206004820152602f60248201527f416363657373436f6e74726f6c3a2063616e206f6e6c792072656e6f756e636560448201526e103937b632b9903337b91039b2b63360891b6064820152608401610678565b610a058282611d99565b6000610900836001600160a01b038416611e00565b60115460405163ca15c87360e01b81526004810183905260009182916001600160a01b039091169063ca15c8739060240160206040518083038186803b15801561179f57600080fd5b505afa1580156117b3573d6000803e3d6000fd5b505050506040513d601f19601f820116820180604052508101906117d791906121e3565b60405163ca15c87360e01b815260048101859052909150600090309063ca15c8739060240160206040518083038186803b15801561181457600080fd5b505afa158015611828573d6000803e3d6000fd5b505050506040513d601f19601f8201168201806040525081019061184c91906121e3565b9050600061185a82846122db565b90506000811161189f5760405162461bcd60e51b815260206004820152601060248201526f4e6f7468696e6720746f2073796e632160801b6044820152606401610678565b60005b818110156119a557601154604051632404341f60e21b815260048101889052602481018390526000916001600160a01b031690639010d07c9060440160206040518083038186803b1580156118f657600080fd5b505afa15801561190a573d6000803e3d6000fd5b505050506040513d601f19601f8201168201806040525081019061192e919061210f565b604051632f2ff15d60e01b8152600481018990526001600160a01b03821660248201529091503090632f2ff15d90604401600060405180830381600087803b15801561197957600080fd5b505af115801561198d573d6000803e3d6000fd5b5050505050808061199d90612339565b9150506118a2565b50600195945050505050565b601160009054906101000a90046001600160a01b03166001600160a01b031663ff7e88ec6040518163ffffffff1660e01b815260040160206040518083038186803b1580156119ff57600080fd5b505afa158015611a13573d6000803e3d6000fd5b505050506040513d601f19601f82011682018060405250810190611a37919061212c565b601160156101000a81548160ff021916908315150217905550601160009054906101000a90046001600160a01b03166001600160a01b0316632fb565856040518163ffffffff1660e01b815260040160206040518083038186803b158015611a9e57600080fd5b505afa158015611ab2573d6000803e3d6000fd5b505050506040513d601f19601f82011682018060405250810190611ad6919061212c565b60118054911515600160b01b0260ff60b01b19909216919091179055565b60006109008383611eed565b600061060c825490565b600082815260016020819052604082200154905460ff1615611b30576107078383611d99565b611b3a8133611d35565b6107078383611d99565b601160009054906101000a90046001600160a01b03166001600160a01b031663a44b93256040518163ffffffff1660e01b815260040160206040518083038186803b158015611b9257600080fd5b505afa158015611ba6573d6000803e3d6000fd5b505050506040513d601f19601f82011682018060405250810190611bca919061212c565b611bd357600080fd5b601160009054906101000a90046001600160a01b03166001600160a01b031663ac7cfac36040518163ffffffff1660e01b815260040160206040518083038186803b158015611c2157600080fd5b505afa158015611c35573d6000803e3d6000fd5b505050506040513d601f19601f82011682018060405250810190611c59919061210f565b600380546001600160a01b0319166001600160a01b0392909216919091179055565b611c858282610907565b610a055760008281526001602081815260408084206001600160a01b0386168086529252808420805460ff19169093179092559051339285917f2f8788117e7eff1d82e926ec794901d17c78024a50270940304540a733656f0d9190a45050565b6000818152600183016020526040812054611d2d5750815460018181018455600084815260208082209093018490558454848252828601909352604090209190915561060c565b50600061060c565b611d3f8282610907565b610a0557611d57816001600160a01b03166014611f73565b611d62836020611f73565b604051602001611d739291906121fc565b60408051601f198184030181529082905262461bcd60e51b825261067891600401612271565b611da38282610907565b15610a055760008281526001602090815260408083206001600160a01b0385168085529252808320805460ff1916905551339285917ff6391f5c32d9c69d2a47ea670b442974b53935d1edc7fd64eb21e047a839171b9190a45050565b60008181526001830160205260408120548015611ee3576000611e246001836122db565b8554909150600090611e38906001906122db565b90506000866000018281548110611e5157611e51612380565b9060005260206000200154905080876000018481548110611e7457611e74612380565b600091825260208083209091019290925582815260018901909152604090208490558654879080611ea757611ea761236a565b6001900381819060005260206000200160009055905586600101600087815260200190815260200160002060009055600194505050505061060c565b600091505061060c565b81546000908210611f4b5760405162461bcd60e51b815260206004820152602260248201527f456e756d657261626c655365743a20696e646578206f7574206f6620626f756e604482015261647360f01b6064820152608401610678565b826000018281548110611f6057611f60612380565b9060005260206000200154905092915050565b60606000611f828360026122bc565b611f8d9060026122a4565b67ffffffffffffffff811115611fa557611fa5612396565b6040519080825280601f01601f191660200182016040528015611fcf576020820181803683370190505b509050600360fc1b81600081518110611fea57611fea612380565b60200101906001600160f81b031916908160001a905350600f60fb1b8160018151811061201957612019612380565b60200101906001600160f81b031916908160001a905350600061203d8460026122bc565b6120489060016122a4565b90505b60018111156120c0576f181899199a1a9b1b9c1cb0b131b232b360811b85600f166010811061207c5761207c612380565b1a60f81b82828151811061209257612092612380565b60200101906001600160f81b031916908160001a90535060049490941c936120b981612322565b905061204b565b5083156109005760405162461bcd60e51b815260206004820181905260248201527f537472696e67733a20686578206c656e67746820696e73756666696369656e746044820152606401610678565b60006020828403121561212157600080fd5b8151610900816123ac565b60006020828403121561213e57600080fd5b8151801515811461090057600080fd5b60006020828403121561216057600080fd5b5035919050565b6000806040838503121561217a57600080fd5b82359150602083013561218c816123ac565b809150509250929050565b600080604083850312156121aa57600080fd5b50508035926020909101359150565b6000602082840312156121cb57600080fd5b81356001600160e01b03198116811461090057600080fd5b6000602082840312156121f557600080fd5b5051919050565b7f416363657373436f6e74726f6c3a206163636f756e74200000000000000000008152600083516122348160178501602088016122f2565b7001034b99036b4b9b9b4b733903937b6329607d1b60179184019182015283516122658160288401602088016122f2565b01602801949350505050565b60208152600082518060208401526122908160408501602087016122f2565b601f01601f19169190910160400192915050565b600082198211156122b7576122b7612354565b500190565b60008160001904831182151516156122d6576122d6612354565b500290565b6000828210156122ed576122ed612354565b500390565b60005b8381101561230d5781810151838201526020016122f5565b8381111561231c576000848401525b50505050565b60008161233157612331612354565b506000190190565b600060001982141561234d5761234d612354565b5060010190565b634e487b7160e01b600052601160045260246000fd5b634e487b7160e01b600052603160045260246000fd5b634e487b7160e01b600052603260045260246000fd5b634e487b7160e01b600052604160045260246000fd5b6001600160a01b038116811461068157600080fdfefa8e4989e1d689f7bc5c4b25b87efb51fecdecb19ba62847e29c759e12a89acd048bc71fa1cb2c119c339cf9cf00a97996a19a9d991ce5fe049f2fa5459e7990f0f4b159a6e2a4815eb3ca3df080bfa70c9270662c59bcaa4479a456220183e60538d24a8b7882d7b2e36af243d4af61c23e86e3daa6cb8c887b53220b2f57207c9d7f6f02908185bffb3f7fc9afb29fd7bf93675af8fd4b655ee05c2cee1e0ea2646970667358221220115399c84df68a94cbede9ea885781f68c2ea2d134594ed515d4c2a3d557ec4264736f6c63430008070033",
  "immutableReferences": {},
  "source": "// SPDX-License-Identifier: MIT\n//  I have not really implemented anything yet. This is just a placeholder.\n//  I have not really implemented anything yet. This is just a placeholder.\n//  I have not really implemented anything yet. This is just a placeholder.\n//  I have not really implemented anything yet. This is just a placeholder.\n//  I have not really implemented anything yet. This is just a placeholder.\n//  I have not really implemented anything yet. This is just a placeholder.\n//  I have not really implemented anything yet. This is just a placeholder.\n//  I have not really implemented anything yet. This is just a placeholder.\n//  I have not really implemented anything yet. This is just a placeholder.\n//  I have not really implemented anything yet. This is just a placeholder.\n//  I have not really implemented anything yet. This is just a placeholder.\n//  I have not really implemented anything yet. This is just a placeholder.\n//  I have not really implemented anything yet. This is just a placeholder.\n//  I have not really implemented anything yet. This is just a placeholder.\n//  I have not really implemented anything yet. This is just a placeholder.\n//  I have not really implemented anything yet. This is just a placeholder.\n//  I have not really implemented anything yet. This is just a placeholder.\n//  I have not really implemented anything yet. This is just a placeholder.\n//  I have not really implemented anything yet. This is just a placeholder.\n//  I have not really implemented anything yet. This is just a placeholder.\n//  I have not really implemented anything yet. This is just a placeholder.\n//  I have not really implemented anything yet. This is just a placeholder.\n\n//  I have not really implemented anything yet. This is just a placeholder.\n//  I have not really implemented anything yet. This is just a placeholder.\n//  I have not really implemented anything yet. This is just a placeholder.\n//  I have not really implemented anything yet. This is just a placeholder.\n//  I have not really implemented anything yet. This is just a placeholder.\n//  I have not really implemented anything yet. This is just a placeholder.\n\n//  I have not really implemented anything yet. This is just a placeholder.\n//  I have not really implemented anything yet. This is just a placeholder.\npragma solidity ^0.8.0;\n\nimport \"../src/SmartConsensusMachine.sol\";\nimport \"./JuryPool.sol\";\n\nimport \"@openzeppelin/contracts/token/ERC20/IERC20.sol\";\nimport \"@openzeppelin/contracts/token/ERC20/ERC20.sol\";\nimport \"@openzeppelin/contracts/token/ERC20/extensions/ERC20Snapshot.sol\";\n\n\ncontract DisputeMachine is SmartConsensusMachine {\n\n    ERC20 public redPens;\n    JuryPool public juryHats;\n\n    uint private slashIndex = 0;\n    uint public slashPercentageInWholeNumber = 30;\n\n    uint[] private slashList;\n\n\n    constructor(address _AddressManagerAddress) SmartConsensusMachine(_AddressManagerAddress)  {\n\n    }\n\n\n    function drawJurors() internal {\n        // emit events to summon jurrors based on their token IDs        \n    }\n\n    function _slash() internal {\n\n        for (uint i = 0; i < slashIndex; i++) {\n            juryHats.slashToken(slashList[i], slashPercentageInWholeNumber);\n            slashList[i] = 0;\n        }\n        slashIndex = 0;\n\n    }\n\n    function setSlashPercent(uint _slashPercentageInWholeNumber) public JURY {\n        slashPercentageInWholeNumber = _slashPercentageInWholeNumber;\n    }\n\n    function _updateTokenAddresses() internal override {\n        // Set these from the Address Manager Contract\n        \n        super._updateTokenAddresses();\n        redPens = ERC20(RedPenTokenAddress);\n        juryHats = JuryPool(JuryPoolAddress);\n    }\n\n}",
  "sourcePath": "/home/n/Desktop/PinkSlips_FrontEnd_REFORMAT/contracts/juryAndAppeals/DisputeMachine.sol",
  "compiler": {
    "name": "solc",
    "version": "0.8.7+commit.e28d00a7.Emscripten.clang"
  },
  "schemaVersion": "3.4.1",
  "updatedAt": "2021-09-06T23:19:47.834Z",
  "networkType": "ethereum",
  "devdoc": {
    "kind": "dev",
    "methods": {
      "getRoleAdmin(bytes32)": {
        "details": "Returns the admin role that controls `role`. See {grantRole} and {revokeRole}. To change a role's admin, use {_setRoleAdmin}."
      },
      "getRoleMember(bytes32,uint256)": {
        "details": "Returns one of the accounts that have `role`. `index` must be a value between 0 and {getRoleMemberCount}, non-inclusive. Role bearers are not sorted in any particular way, and their ordering may change at any point. WARNING: When using {getRoleMember} and {getRoleMemberCount}, make sure you perform all queries on the same block. See the following https://forum.openzeppelin.com/t/iterating-over-elements-on-enumerableset-in-openzeppelin-contracts/2296[forum post] for more information."
      },
      "getRoleMemberCount(bytes32)": {
        "details": "Returns the number of accounts that have `role`. Can be used together with {getRoleMember} to enumerate all bearers of a role."
      },
      "grantRole(bytes32,address)": {
        "details": "Overload {grantRole} to track enumerable memberships"
      },
      "hasRole(bytes32,address)": {
        "details": "Returns `true` if `account` has been granted `role`."
      },
      "renounceRole(bytes32,address)": {
        "details": "Overload {renounceRole} to track enumerable memberships"
      },
      "revokeRole(bytes32,address)": {
        "details": "Overload {revokeRole} to track enumerable memberships"
      },
      "supportsInterface(bytes4)": {
        "details": "See {IERC165-supportsInterface}."
      }
    },
    "version": 1
  },
  "userdoc": {
    "kind": "user",
    "methods": {},
    "version": 1
  }
}