{
  "contractName": "DisputeMachine",
  "abi": [
    {
      "inputs": [
        {
          "internalType": "address",
          "name": "_AddressManagerAddress",
          "type": "address"
        }
      ],
      "stateMutability": "nonpayable",
      "type": "constructor"
    },
    {
      "anonymous": false,
      "inputs": [
        {
          "indexed": true,
          "internalType": "bytes32",
          "name": "role",
          "type": "bytes32"
        },
        {
          "indexed": true,
          "internalType": "bytes32",
          "name": "previousAdminRole",
          "type": "bytes32"
        },
        {
          "indexed": true,
          "internalType": "bytes32",
          "name": "newAdminRole",
          "type": "bytes32"
        }
      ],
      "name": "RoleAdminChanged",
      "type": "event"
    },
    {
      "anonymous": false,
      "inputs": [
        {
          "indexed": true,
          "internalType": "bytes32",
          "name": "role",
          "type": "bytes32"
        },
        {
          "indexed": true,
          "internalType": "address",
          "name": "account",
          "type": "address"
        },
        {
          "indexed": true,
          "internalType": "address",
          "name": "sender",
          "type": "address"
        }
      ],
      "name": "RoleGranted",
      "type": "event"
    },
    {
      "anonymous": false,
      "inputs": [
        {
          "indexed": true,
          "internalType": "bytes32",
          "name": "role",
          "type": "bytes32"
        },
        {
          "indexed": true,
          "internalType": "address",
          "name": "account",
          "type": "address"
        },
        {
          "indexed": true,
          "internalType": "address",
          "name": "sender",
          "type": "address"
        }
      ],
      "name": "RoleRevoked",
      "type": "event"
    },
    {
      "inputs": [],
      "name": "AddressManagerAddress",
      "outputs": [
        {
          "internalType": "address",
          "name": "",
          "type": "address"
        }
      ],
      "stateMutability": "view",
      "type": "function",
      "constant": true
    },
    {
      "inputs": [],
      "name": "ChadBadgeAddress",
      "outputs": [
        {
          "internalType": "address",
          "name": "",
          "type": "address"
        }
      ],
      "stateMutability": "view",
      "type": "function",
      "constant": true
    },
    {
      "inputs": [],
      "name": "ColoredIDAddress",
      "outputs": [
        {
          "internalType": "address",
          "name": "",
          "type": "address"
        }
      ],
      "stateMutability": "view",
      "type": "function",
      "constant": true
    },
    {
      "inputs": [],
      "name": "CourtClerk",
      "outputs": [
        {
          "internalType": "address",
          "name": "",
          "type": "address"
        }
      ],
      "stateMutability": "view",
      "type": "function",
      "constant": true
    },
    {
      "inputs": [],
      "name": "DEFAULT_ADMIN_ROLE",
      "outputs": [
        {
          "internalType": "bytes32",
          "name": "",
          "type": "bytes32"
        }
      ],
      "stateMutability": "view",
      "type": "function",
      "constant": true
    },
    {
      "inputs": [],
      "name": "GAVELS_BAILIFF",
      "outputs": [
        {
          "internalType": "bytes32",
          "name": "",
          "type": "bytes32"
        }
      ],
      "stateMutability": "view",
      "type": "function",
      "constant": true
    },
    {
      "inputs": [],
      "name": "GavelDAOAgent",
      "outputs": [
        {
          "internalType": "address",
          "name": "",
          "type": "address"
        }
      ],
      "stateMutability": "view",
      "type": "function",
      "constant": true
    },
    {
      "inputs": [],
      "name": "GavelTokenAddress",
      "outputs": [
        {
          "internalType": "address",
          "name": "",
          "type": "address"
        }
      ],
      "stateMutability": "view",
      "type": "function",
      "constant": true
    },
    {
      "inputs": [],
      "name": "GavelVote",
      "outputs": [
        {
          "internalType": "bool",
          "name": "",
          "type": "bool"
        }
      ],
      "stateMutability": "view",
      "type": "function",
      "constant": true
    },
    {
      "inputs": [],
      "name": "GoldStarAddress",
      "outputs": [
        {
          "internalType": "address",
          "name": "",
          "type": "address"
        }
      ],
      "stateMutability": "view",
      "type": "function",
      "constant": true
    },
    {
      "inputs": [],
      "name": "JERK_ROLE",
      "outputs": [
        {
          "internalType": "bytes32",
          "name": "",
          "type": "bytes32"
        }
      ],
      "stateMutability": "view",
      "type": "function",
      "constant": true
    },
    {
      "inputs": [],
      "name": "JURY_BAILIFF",
      "outputs": [
        {
          "internalType": "bytes32",
          "name": "",
          "type": "bytes32"
        }
      ],
      "stateMutability": "view",
      "type": "function",
      "constant": true
    },
    {
      "inputs": [],
      "name": "JuryDAOAgent",
      "outputs": [
        {
          "internalType": "address",
          "name": "",
          "type": "address"
        }
      ],
      "stateMutability": "view",
      "type": "function",
      "constant": true
    },
    {
      "inputs": [],
      "name": "JuryPoolAddress",
      "outputs": [
        {
          "internalType": "address",
          "name": "",
          "type": "address"
        }
      ],
      "stateMutability": "view",
      "type": "function",
      "constant": true
    },
    {
      "inputs": [],
      "name": "JuryVote",
      "outputs": [
        {
          "internalType": "bool",
          "name": "",
          "type": "bool"
        }
      ],
      "stateMutability": "view",
      "type": "function",
      "constant": true
    },
    {
      "inputs": [],
      "name": "MINI_BAILIFF_ROLE",
      "outputs": [
        {
          "internalType": "bytes32",
          "name": "",
          "type": "bytes32"
        }
      ],
      "stateMutability": "view",
      "type": "function",
      "constant": true
    },
    {
      "inputs": [],
      "name": "MiniBailiff",
      "outputs": [
        {
          "internalType": "address",
          "name": "",
          "type": "address"
        }
      ],
      "stateMutability": "view",
      "type": "function",
      "constant": true
    },
    {
      "inputs": [],
      "name": "PinkSlipAddress",
      "outputs": [
        {
          "internalType": "address",
          "name": "",
          "type": "address"
        }
      ],
      "stateMutability": "view",
      "type": "function",
      "constant": true
    },
    {
      "inputs": [],
      "name": "RedPenTokenAddress",
      "outputs": [
        {
          "internalType": "address",
          "name": "",
          "type": "address"
        }
      ],
      "stateMutability": "view",
      "type": "function",
      "constant": true
    },
    {
      "inputs": [],
      "name": "THE_COURT_ROLE",
      "outputs": [
        {
          "internalType": "bytes32",
          "name": "",
          "type": "bytes32"
        }
      ],
      "stateMutability": "view",
      "type": "function",
      "constant": true
    },
    {
      "inputs": [],
      "name": "TheCourtAddress",
      "outputs": [
        {
          "internalType": "address",
          "name": "",
          "type": "address"
        }
      ],
      "stateMutability": "view",
      "type": "function",
      "constant": true
    },
    {
      "inputs": [],
      "name": "TreasuryAddress",
      "outputs": [
        {
          "internalType": "address",
          "name": "",
          "type": "address"
        }
      ],
      "stateMutability": "view",
      "type": "function",
      "constant": true
    },
    {
      "inputs": [],
      "name": "addressManager",
      "outputs": [
        {
          "internalType": "contract AddressManager",
          "name": "",
          "type": "address"
        }
      ],
      "stateMutability": "view",
      "type": "function",
      "constant": true
    },
    {
      "inputs": [
        {
          "internalType": "bytes32",
          "name": "role",
          "type": "bytes32"
        }
      ],
      "name": "getRoleAdmin",
      "outputs": [
        {
          "internalType": "bytes32",
          "name": "",
          "type": "bytes32"
        }
      ],
      "stateMutability": "view",
      "type": "function",
      "constant": true
    },
    {
      "inputs": [
        {
          "internalType": "bytes32",
          "name": "role",
          "type": "bytes32"
        },
        {
          "internalType": "uint256",
          "name": "index",
          "type": "uint256"
        }
      ],
      "name": "getRoleMember",
      "outputs": [
        {
          "internalType": "address",
          "name": "",
          "type": "address"
        }
      ],
      "stateMutability": "view",
      "type": "function",
      "constant": true
    },
    {
      "inputs": [
        {
          "internalType": "bytes32",
          "name": "role",
          "type": "bytes32"
        }
      ],
      "name": "getRoleMemberCount",
      "outputs": [
        {
          "internalType": "uint256",
          "name": "",
          "type": "uint256"
        }
      ],
      "stateMutability": "view",
      "type": "function",
      "constant": true
    },
    {
      "inputs": [
        {
          "internalType": "bytes32",
          "name": "role",
          "type": "bytes32"
        },
        {
          "internalType": "address",
          "name": "account",
          "type": "address"
        }
      ],
      "name": "grantRole",
      "outputs": [],
      "stateMutability": "nonpayable",
      "type": "function"
    },
    {
      "inputs": [
        {
          "internalType": "bytes32",
          "name": "role",
          "type": "bytes32"
        },
        {
          "internalType": "address",
          "name": "account",
          "type": "address"
        }
      ],
      "name": "hasRole",
      "outputs": [
        {
          "internalType": "bool",
          "name": "",
          "type": "bool"
        }
      ],
      "stateMutability": "view",
      "type": "function",
      "constant": true
    },
    {
      "inputs": [],
      "name": "jerkSanctions",
      "outputs": [
        {
          "internalType": "bool",
          "name": "",
          "type": "bool"
        }
      ],
      "stateMutability": "view",
      "type": "function",
      "constant": true
    },
    {
      "inputs": [],
      "name": "juryHats",
      "outputs": [
        {
          "internalType": "contract JuryPool",
          "name": "",
          "type": "address"
        }
      ],
      "stateMutability": "view",
      "type": "function",
      "constant": true
    },
    {
      "inputs": [],
      "name": "redPens",
      "outputs": [
        {
          "internalType": "contract ERC20",
          "name": "",
          "type": "address"
        }
      ],
      "stateMutability": "view",
      "type": "function",
      "constant": true
    },
    {
      "inputs": [
        {
          "internalType": "bytes32",
          "name": "role",
          "type": "bytes32"
        },
        {
          "internalType": "address",
          "name": "account",
          "type": "address"
        }
      ],
      "name": "renounceRole",
      "outputs": [],
      "stateMutability": "nonpayable",
      "type": "function"
    },
    {
      "inputs": [],
      "name": "resetVote",
      "outputs": [],
      "stateMutability": "nonpayable",
      "type": "function"
    },
    {
      "inputs": [
        {
          "internalType": "bytes32",
          "name": "role",
          "type": "bytes32"
        },
        {
          "internalType": "address",
          "name": "account",
          "type": "address"
        }
      ],
      "name": "revokeRole",
      "outputs": [],
      "stateMutability": "nonpayable",
      "type": "function"
    },
    {
      "inputs": [],
      "name": "slashPercentageInWholeNumber",
      "outputs": [
        {
          "internalType": "uint256",
          "name": "",
          "type": "uint256"
        }
      ],
      "stateMutability": "view",
      "type": "function",
      "constant": true
    },
    {
      "inputs": [
        {
          "internalType": "bytes4",
          "name": "interfaceId",
          "type": "bytes4"
        }
      ],
      "name": "supportsInterface",
      "outputs": [
        {
          "internalType": "bool",
          "name": "",
          "type": "bool"
        }
      ],
      "stateMutability": "view",
      "type": "function",
      "constant": true
    },
    {
      "inputs": [],
      "name": "syncAllRoles",
      "outputs": [],
      "stateMutability": "nonpayable",
      "type": "function"
    },
    {
      "inputs": [
        {
          "internalType": "bytes32",
          "name": "ROLE_TO_SYNC",
          "type": "bytes32"
        }
      ],
      "name": "syncSingleRole",
      "outputs": [],
      "stateMutability": "nonpayable",
      "type": "function"
    },
    {
      "inputs": [],
      "name": "syncVotes",
      "outputs": [],
      "stateMutability": "nonpayable",
      "type": "function"
    },
    {
      "inputs": [],
      "name": "updateAddressManager",
      "outputs": [],
      "stateMutability": "nonpayable",
      "type": "function"
    },
    {
      "inputs": [],
      "name": "updateAllAddresses",
      "outputs": [],
      "stateMutability": "nonpayable",
      "type": "function"
    },
    {
      "inputs": [],
      "name": "updateAllRoles",
      "outputs": [],
      "stateMutability": "nonpayable",
      "type": "function"
    },
    {
      "inputs": [],
      "name": "updateDAOAddresses",
      "outputs": [],
      "stateMutability": "nonpayable",
      "type": "function"
    },
    {
      "inputs": [
        {
          "internalType": "bytes32",
          "name": "ROLE_TO_UPDATE",
          "type": "bytes32"
        }
      ],
      "name": "updateSingleRole",
      "outputs": [],
      "stateMutability": "nonpayable",
      "type": "function"
    },
    {
      "inputs": [],
      "name": "updateTokenAddresses",
      "outputs": [],
      "stateMutability": "nonpayable",
      "type": "function"
    },
    {
      "inputs": [
        {
          "internalType": "uint256",
          "name": "_slashPercentageInWholeNumber",
          "type": "uint256"
        }
      ],
      "name": "setSlashPercent",
      "outputs": [],
      "stateMutability": "nonpayable",
      "type": "function"
    }
  ],
  "bytecode": "0x60806040526000805460ff191681556011805463ffffffff60a01b19169055601455601e6015553480156200003357600080fd5b506040516200307638038062003076833981016040819052620000569162000be9565b600380546001600160a01b0383166001600160a01b03199182168117909255601180549091169091179055806200008c620001c9565b62000096620001df565b600f54620000b0906000906001600160a01b03166200032a565b600f54620000e9907f0538d24a8b7882d7b2e36af243d4af61c23e86e3daa6cb8c887b53220b2f5720906001600160a01b03166200032a565b600c5462000122907f048bc71fa1cb2c119c339cf9cf00a97996a19a9d991ce5fe049f2fa5459e7990906001600160a01b03166200032a565b600d546200015b907ffa8e4989e1d689f7bc5c4b25b87efb51fecdecb19ba62847e29c759e12a89acd906001600160a01b03166200032a565b60105462000194907ff0f4b159a6e2a4815eb3ca3df080bfa70c9270662c59bcaa4479a456220183e6906001600160a01b03166200032a565b620001c17f7c9d7f6f02908185bffb3f7fc9afb29fd7bf93675af8fd4b655ee05c2cee1e0e60006200032a565b505062000c3f565b620001d36200036d565b620001dd6200066d565b565b601160009054906101000a90046001600160a01b03166001600160a01b031663ff7e88ec6040518163ffffffff1660e01b815260040160206040518083038186803b1580156200022e57600080fd5b505afa15801562000243573d6000803e3d6000fd5b505050506040513d601f19601f8201168201806040525081019062000269919062000c1b565b601160156101000a81548160ff021916908315150217905550601160009054906101000a90046001600160a01b03166001600160a01b0316632fb565856040518163ffffffff1660e01b815260040160206040518083038186803b158015620002d157600080fd5b505afa158015620002e6573d6000803e3d6000fd5b505050506040513d601f19601f820116820180604052508101906200030c919062000c1b565b60118054911515600160b01b0260ff60b01b19909216919091179055565b620003418282620006b660201b6200098b1760201c565b60008281526002602090815260409091206200036891839062000999620006c6821b17901c565b505050565b601160009054906101000a90046001600160a01b03166001600160a01b031663dadf56ac6040518163ffffffff1660e01b815260040160206040518083038186803b158015620003bc57600080fd5b505afa158015620003d1573d6000803e3d6000fd5b505050506040513d601f19601f82011682018060405250810190620003f7919062000be9565b600c80546001600160a01b0319166001600160a01b039283161790556011546040805163024bebe960e01b81529051919092169163024bebe9916004808301926020929190829003018186803b1580156200045157600080fd5b505afa15801562000466573d6000803e3d6000fd5b505050506040513d601f19601f820116820180604052508101906200048c919062000be9565b600d80546001600160a01b0319166001600160a01b0392831617905560115460408051635b5c251f60e01b815290519190921691635b5c251f916004808301926020929190829003018186803b158015620004e657600080fd5b505afa158015620004fb573d6000803e3d6000fd5b505050506040513d601f19601f8201168201806040525081019062000521919062000be9565b600e80546001600160a01b0319166001600160a01b0392831617905560115460408051637310bf1d60e11b81529051919092169163e6217e3a916004808301926020929190829003018186803b1580156200057b57600080fd5b505afa15801562000590573d6000803e3d6000fd5b505050506040513d601f19601f82011682018060405250810190620005b6919062000be9565b601080546001600160a01b0319166001600160a01b039283161790556011546040805163d88127a160e01b81529051919092169163d88127a1916004808301926020929190829003018186803b1580156200061057600080fd5b505afa15801562000625573d6000803e3d6000fd5b505050506040513d601f19601f820116820180604052508101906200064b919062000be9565b600b80546001600160a01b0319166001600160a01b0392909216919091179055565b62000682620006e660201b620009ae1760201c565b600554601280546001600160a01b039283166001600160a01b031991821617909155600a5460138054919093169116179055565b620006c2828262000b0f565b5050565b6000620006dd836001600160a01b03841662000b97565b90505b92915050565b601160009054906101000a90046001600160a01b03166001600160a01b03166321d7f0086040518163ffffffff1660e01b815260040160206040518083038186803b1580156200073557600080fd5b505afa1580156200074a573d6000803e3d6000fd5b505050506040513d601f19601f8201168201806040525081019062000770919062000be9565b600480546001600160a01b0319166001600160a01b039283161781556011546040805163762ddb5960e01b81529051919093169263762ddb599281810192602092909190829003018186803b158015620007c957600080fd5b505afa158015620007de573d6000803e3d6000fd5b505050506040513d601f19601f8201168201806040525081019062000804919062000be9565b600580546001600160a01b0319166001600160a01b039283161790556011546040805163bfb7dc9960e01b81529051919092169163bfb7dc99916004808301926020929190829003018186803b1580156200085e57600080fd5b505afa15801562000873573d6000803e3d6000fd5b505050506040513d601f19601f8201168201806040525081019062000899919062000be9565b600680546001600160a01b0319166001600160a01b0392831617905560115460408051633e6111eb60e21b81529051919092169163f98447ac916004808301926020929190829003018186803b158015620008f357600080fd5b505afa15801562000908573d6000803e3d6000fd5b505050506040513d601f19601f820116820180604052508101906200092e919062000be9565b600780546001600160a01b0319166001600160a01b0392831617905560115460408051630fe1ba9f60e21b815290519190921691633f86ea7c916004808301926020929190829003018186803b1580156200098857600080fd5b505afa1580156200099d573d6000803e3d6000fd5b505050506040513d601f19601f82011682018060405250810190620009c3919062000be9565b600880546001600160a01b0319166001600160a01b0392831617905560115460408051632b90024160e11b8152905191909216916357200482916004808301926020929190829003018186803b15801562000a1d57600080fd5b505afa15801562000a32573d6000803e3d6000fd5b505050506040513d601f19601f8201168201806040525081019062000a58919062000be9565b600980546001600160a01b0319166001600160a01b0392831617905560115460408051636b58477560e01b815290519190921691636b584775916004808301926020929190829003018186803b15801562000ab257600080fd5b505afa15801562000ac7573d6000803e3d6000fd5b505050506040513d601f19601f8201168201806040525081019062000aed919062000be9565b600a80546001600160a01b0319166001600160a01b0392909216919091179055565b60008281526001602090815260408083206001600160a01b038516845290915290205460ff16620006c25760008281526001602081815260408084206001600160a01b0386168086529252808420805460ff19169093179092559051339285917f2f8788117e7eff1d82e926ec794901d17c78024a50270940304540a733656f0d9190a45050565b600081815260018301602052604081205462000be057508154600181810184556000848152602080822090930184905584548482528286019093526040902091909155620006e0565b506000620006e0565b60006020828403121562000bfc57600080fd5b81516001600160a01b038116811462000c1457600080fd5b9392505050565b60006020828403121562000c2e57600080fd5b8151801515811462000c1457600080fd5b6124278062000c4f6000396000f3fe608060405234801561001057600080fd5b506004361061028a5760003560e01c806367a14f061161015c578063cce84392116100ce578063e78c266c11610087578063e78c266c14610588578063e9a532301461059b578063f1132b30146105b0578063f7d92d86146105b8578063f98447ac146105c0578063ff7e88ec146105d357600080fd5b8063cce8439214610512578063cf4ece1514610527578063d547741f1461053c578063d88127a11461054f578063dadf56ac14610562578063e6217e3a1461057557600080fd5b8063a217fddf11610120578063a217fddf146104a8578063a32c5e59146104b0578063a78e746f146104c5578063b6f928be146104d9578063bfb7dc99146104ec578063ca15c873146104ff57600080fd5b806367a14f06146104495780636b5847751461045c578063762ddb591461046f5780639010d07c1461048257806391d148541461049557600080fd5b806336568abe1161020057806357200482116101b957806357200482146103e257806357f276ff146103f55780635b5c251f146104085780635db531a11461041b5780635f41346614610423578063645d2c411461043657600080fd5b806336568abe146103905780633ab76e9f146103a35780633f86ea7c146103b657806349b5e105146103c95780634d84c6d8146103d15780635261ad5a146103d957600080fd5b80632436329d116102525780632436329d14610312578063248a9ca3146103355780632f2ff15d146103595780632fb565851461036c578063326a55e014610380578063329a8cfa1461038857600080fd5b806301ffc9a71461028f578063024bebe9146102b7578063130f6320146102e257806317314d5a146102f757806321d7f008146102ff575b600080fd5b6102a261029d366004612149565b6105e7565b60405190151581526020015b60405180910390f35b600d546102ca906001600160a01b031681565b6040516001600160a01b0390911681526020016102ae565b6102f56102f03660046120de565b610612565b005b6102f5610647565b6004546102ca906001600160a01b031681565b61032760008051602061235283398151915281565b6040519081526020016102ae565b6103276103433660046120de565b6000908152600160208190526040909120015490565b6102f56103673660046120f7565b610670565b6011546102a290600160b01b900460ff1681565b6102f5610697565b6102f56106a7565b6102f561039e3660046120f7565b6107b5565b6011546102ca906001600160a01b031681565b6008546102ca906001600160a01b031681565b6102f56107d7565b6102f561069f565b61032760155481565b6009546102ca906001600160a01b031681565b6102f56104033660046120de565b6107df565b600e546102ca906001600160a01b031681565b6102f56107f3565b600f546102ca906001600160a01b031681565b6102f56104443660046120de565b6107fb565b6012546102ca906001600160a01b031681565b600a546102ca906001600160a01b031681565b6005546102ca906001600160a01b031681565b6102ca610490366004612127565b610878565b6102a26104a33660046120f7565b610897565b610327600081565b6103276000805160206123b283398151915281565b6011546102a290600160a01b900460ff1681565b6013546102ca906001600160a01b031681565b6006546102ca906001600160a01b031681565b61032761050d3660046120de565b6108c2565b6103276000805160206123d283398151915281565b61032760008051602061239283398151915281565b6102f561054a3660046120f7565b6108d9565b600b546102ca906001600160a01b031681565b600c546102ca906001600160a01b031681565b6010546102ca906001600160a01b031681565b6003546102ca906001600160a01b031681565b61032760008051602061237283398151915281565b6102f56108e3565b6102f56108eb565b6007546102ca906001600160a01b031681565b6011546102a290600160a81b900460ff1681565b60006001600160e01b03198216635a05180f60e01b148061060c575061060c82610dbb565b92915050565b61061c6001610df0565b5061062681610eab565b5061063081611026565b5061063b6000610df0565b61064457600080fd5b50565b6106516001610df0565b5061065a6111af565b506106656000610df0565b61066e57600080fd5b565b61067a82826112f5565b60008281526002602052604090206106929082610999565b505050565b61069f61132f565b61066e61161b565b6106bf6000805160206123b283398151915233610897565b806106dd57506106dd60008051602061237283398151915233610897565b806106fb57506106fb60008051602061235283398151915233610897565b6107455760405162461bcd60e51b81526020600482015260166024820152752cb7ba93b932903737ba103a3432903130b4b634b33360511b60448201526064015b60405180910390fd5b601160009054906101000a90046001600160a01b03166001600160a01b031663329a8cfa6040518163ffffffff1660e01b8152600401600060405180830381600087803b15801561079557600080fd5b505af11580156107a9573d6000803e3d6000fd5b5050505061066e6107f3565b6107bf8282611657565b600082815260026020526040902061069290826116d1565b61066e61132f565b6107e96001610df0565b50610630816116e6565b61066e611941565b61081360008051602061235283398151915233610897565b8061083157506108316000805160206123b283398151915233610897565b6108735760405162461bcd60e51b8152602060048201526013602482015272596f75277265206e6f7420746865204a75727960681b604482015260640161073c565b601555565b60008281526002602052604081206108909083611a84565b9392505050565b60009182526001602090815260408084206001600160a01b0393909316845291905290205460ff1690565b600081815260026020526040812061060c90611a90565b6107bf8282611a9a565b61066e611ad4565b6108f56001610df0565b5061090d6000805160206123b28339815191526116e6565b506109256000805160206123728339815191526116e6565b5061093d6000805160206123528339815191526116e6565b506109556000805160206123928339815191526116e6565b5061096d6000805160206123d28339815191526116e6565b5061097860006116e6565b50610981611941565b6106656000610df0565b6109958282611c0b565b5050565b6000610890836001600160a01b038416611c76565b601160009054906101000a90046001600160a01b03166001600160a01b03166321d7f0086040518163ffffffff1660e01b815260040160206040518083038186803b1580156109fc57600080fd5b505afa158015610a10573d6000803e3d6000fd5b505050506040513d601f19601f82011682018060405250810190610a34919061209f565b600480546001600160a01b0319166001600160a01b039283161781556011546040805163762ddb5960e01b81529051919093169263762ddb599281810192602092909190829003018186803b158015610a8c57600080fd5b505afa158015610aa0573d6000803e3d6000fd5b505050506040513d601f19601f82011682018060405250810190610ac4919061209f565b600580546001600160a01b0319166001600160a01b039283161790556011546040805163bfb7dc9960e01b81529051919092169163bfb7dc99916004808301926020929190829003018186803b158015610b1d57600080fd5b505afa158015610b31573d6000803e3d6000fd5b505050506040513d601f19601f82011682018060405250810190610b55919061209f565b600680546001600160a01b0319166001600160a01b0392831617905560115460408051633e6111eb60e21b81529051919092169163f98447ac916004808301926020929190829003018186803b158015610bae57600080fd5b505afa158015610bc2573d6000803e3d6000fd5b505050506040513d601f19601f82011682018060405250810190610be6919061209f565b600780546001600160a01b0319166001600160a01b0392831617905560115460408051630fe1ba9f60e21b815290519190921691633f86ea7c916004808301926020929190829003018186803b158015610c3f57600080fd5b505afa158015610c53573d6000803e3d6000fd5b505050506040513d601f19601f82011682018060405250810190610c77919061209f565b600880546001600160a01b0319166001600160a01b0392831617905560115460408051632b90024160e11b8152905191909216916357200482916004808301926020929190829003018186803b158015610cd057600080fd5b505afa158015610ce4573d6000803e3d6000fd5b505050506040513d601f19601f82011682018060405250810190610d08919061209f565b600980546001600160a01b0319166001600160a01b0392831617905560115460408051636b58477560e01b815290519190921691636b584775916004808301926020929190829003018186803b158015610d6157600080fd5b505afa158015610d75573d6000803e3d6000fd5b505050506040513d601f19601f82011682018060405250810190610d99919061209f565b600a80546001600160a01b0319166001600160a01b0392909216919091179055565b60006001600160e01b03198216637965db0b60e01b148061060c57506301ffc9a760e01b6001600160e01b031983161461060c565b6000805460ff168215158115151415610e4b5760405162461bcd60e51b815260206004820152601960248201527f416c72656164792053657420746f20746861742076616c756500000000000000604482015260640161073c565b6000805484151560ff19909116811790915560ff1615158115151415610ea25760405162461bcd60e51b815260206004820152600c60248201526b29b0b33a32bc9022b93937b960a11b604482015260640161073c565b50600192915050565b60405163ca15c87360e01b8152600481018290526000908190309063ca15c8739060240160206040518083038186803b158015610ee757600080fd5b505afa158015610efb573d6000803e3d6000fd5b505050506040513d601f19601f82011682018060405250810190610f1f9190612173565b905060005b8181101561101c57604051632404341f60e21b815260048101859052602481018290526000903090639010d07c9060440160206040518083038186803b158015610f6d57600080fd5b505afa158015610f81573d6000803e3d6000fd5b505050506040513d601f19601f82011682018060405250810190610fa5919061209f565b60405163d547741f60e01b8152600481018790526001600160a01b0382166024820152909150309063d547741f90604401600060405180830381600087803b158015610ff057600080fd5b505af1158015611004573d6000803e3d6000fd5b50505050508080611014906122c9565b915050610f24565b5060019392505050565b60115460405163ca15c87360e01b81526004810183905260009182916001600160a01b039091169063ca15c8739060240160206040518083038186803b15801561106f57600080fd5b505afa158015611083573d6000803e3d6000fd5b505050506040513d601f19601f820116820180604052508101906110a79190612173565b905060005b8181101561101c57601154604051632404341f60e21b815260048101869052602481018390526000916001600160a01b031690639010d07c9060440160206040518083038186803b15801561110057600080fd5b505afa158015611114573d6000803e3d6000fd5b505050506040513d601f19601f82011682018060405250810190611138919061209f565b604051632f2ff15d60e01b8152600481018790526001600160a01b03821660248201529091503090632f2ff15d90604401600060405180830381600087803b15801561118357600080fd5b505af1158015611197573d6000803e3d6000fd5b505050505080806111a7906122c9565b9150506110ac565b60006111c86000805160206123b2833981519152610eab565b506111e06000805160206123b2833981519152611026565b6111e957600080fd5b611200600080516020612372833981519152610eab565b50611218600080516020612372833981519152611026565b61122157600080fd5b611238600080516020612352833981519152610eab565b50611250600080516020612352833981519152611026565b61125957600080fd5b611270600080516020612392833981519152610eab565b50611288600080516020612392833981519152611026565b61129157600080fd5b6112a86000805160206123d2833981519152610eab565b506112c06000805160206123d2833981519152611026565b6112c957600080fd5b6112d36000610eab565b506112de6000611026565b6112e757600080fd5b6112ef611941565b50600190565b600082815260016020819052604082200154905460ff161561131b576106928383611c0b565b6113258133611cc5565b6106928383611c0b565b601160009054906101000a90046001600160a01b03166001600160a01b031663dadf56ac6040518163ffffffff1660e01b815260040160206040518083038186803b15801561137d57600080fd5b505afa158015611391573d6000803e3d6000fd5b505050506040513d601f19601f820116820180604052508101906113b5919061209f565b600c80546001600160a01b0319166001600160a01b039283161790556011546040805163024bebe960e01b81529051919092169163024bebe9916004808301926020929190829003018186803b15801561140e57600080fd5b505afa158015611422573d6000803e3d6000fd5b505050506040513d601f19601f82011682018060405250810190611446919061209f565b600d80546001600160a01b0319166001600160a01b0392831617905560115460408051635b5c251f60e01b815290519190921691635b5c251f916004808301926020929190829003018186803b15801561149f57600080fd5b505afa1580156114b3573d6000803e3d6000fd5b505050506040513d601f19601f820116820180604052508101906114d7919061209f565b600e80546001600160a01b0319166001600160a01b0392831617905560115460408051637310bf1d60e11b81529051919092169163e6217e3a916004808301926020929190829003018186803b15801561153057600080fd5b505afa158015611544573d6000803e3d6000fd5b505050506040513d601f19601f82011682018060405250810190611568919061209f565b601080546001600160a01b0319166001600160a01b039283161790556011546040805163d88127a160e01b81529051919092169163d88127a1916004808301926020929190829003018186803b1580156115c157600080fd5b505afa1580156115d5573d6000803e3d6000fd5b505050506040513d601f19601f820116820180604052508101906115f9919061209f565b600b80546001600160a01b0319166001600160a01b0392909216919091179055565b6116236109ae565b600554601280546001600160a01b039283166001600160a01b031991821617909155600a5460138054919093169116179055565b6001600160a01b03811633146116c75760405162461bcd60e51b815260206004820152602f60248201527f416363657373436f6e74726f6c3a2063616e206f6e6c792072656e6f756e636560448201526e103937b632b9903337b91039b2b63360891b606482015260840161073c565b6109958282611d29565b6000610890836001600160a01b038416611d90565b60115460405163ca15c87360e01b81526004810183905260009182916001600160a01b039091169063ca15c8739060240160206040518083038186803b15801561172f57600080fd5b505afa158015611743573d6000803e3d6000fd5b505050506040513d601f19601f820116820180604052508101906117679190612173565b60405163ca15c87360e01b815260048101859052909150600090309063ca15c8739060240160206040518083038186803b1580156117a457600080fd5b505afa1580156117b8573d6000803e3d6000fd5b505050506040513d601f19601f820116820180604052508101906117dc9190612173565b905060006117ea828461226b565b90506000811161182f5760405162461bcd60e51b815260206004820152601060248201526f4e6f7468696e6720746f2073796e632160801b604482015260640161073c565b60005b8181101561193557601154604051632404341f60e21b815260048101889052602481018390526000916001600160a01b031690639010d07c9060440160206040518083038186803b15801561188657600080fd5b505afa15801561189a573d6000803e3d6000fd5b505050506040513d601f19601f820116820180604052508101906118be919061209f565b604051632f2ff15d60e01b8152600481018990526001600160a01b03821660248201529091503090632f2ff15d90604401600060405180830381600087803b15801561190957600080fd5b505af115801561191d573d6000803e3d6000fd5b5050505050808061192d906122c9565b915050611832565b50600195945050505050565b601160009054906101000a90046001600160a01b03166001600160a01b031663ff7e88ec6040518163ffffffff1660e01b815260040160206040518083038186803b15801561198f57600080fd5b505afa1580156119a3573d6000803e3d6000fd5b505050506040513d601f19601f820116820180604052508101906119c791906120bc565b601160156101000a81548160ff021916908315150217905550601160009054906101000a90046001600160a01b03166001600160a01b0316632fb565856040518163ffffffff1660e01b815260040160206040518083038186803b158015611a2e57600080fd5b505afa158015611a42573d6000803e3d6000fd5b505050506040513d601f19601f82011682018060405250810190611a6691906120bc565b60118054911515600160b01b0260ff60b01b19909216919091179055565b60006108908383611e7d565b600061060c825490565b600082815260016020819052604082200154905460ff1615611ac0576106928383611d29565b611aca8133611cc5565b6106928383611d29565b601160009054906101000a90046001600160a01b03166001600160a01b031663a44b93256040518163ffffffff1660e01b815260040160206040518083038186803b158015611b2257600080fd5b505afa158015611b36573d6000803e3d6000fd5b505050506040513d601f19601f82011682018060405250810190611b5a91906120bc565b611b6357600080fd5b601160009054906101000a90046001600160a01b03166001600160a01b031663ac7cfac36040518163ffffffff1660e01b815260040160206040518083038186803b158015611bb157600080fd5b505afa158015611bc5573d6000803e3d6000fd5b505050506040513d601f19601f82011682018060405250810190611be9919061209f565b600380546001600160a01b0319166001600160a01b0392909216919091179055565b611c158282610897565b6109955760008281526001602081815260408084206001600160a01b0386168086529252808420805460ff19169093179092559051339285917f2f8788117e7eff1d82e926ec794901d17c78024a50270940304540a733656f0d9190a45050565b6000818152600183016020526040812054611cbd5750815460018181018455600084815260208082209093018490558454848252828601909352604090209190915561060c565b50600061060c565b611ccf8282610897565b61099557611ce7816001600160a01b03166014611f03565b611cf2836020611f03565b604051602001611d0392919061218c565b60408051601f198184030181529082905262461bcd60e51b825261073c91600401612201565b611d338282610897565b156109955760008281526001602090815260408083206001600160a01b0385168085529252808320805460ff1916905551339285917ff6391f5c32d9c69d2a47ea670b442974b53935d1edc7fd64eb21e047a839171b9190a45050565b60008181526001830160205260408120548015611e73576000611db460018361226b565b8554909150600090611dc89060019061226b565b90506000866000018281548110611de157611de1612310565b9060005260206000200154905080876000018481548110611e0457611e04612310565b600091825260208083209091019290925582815260018901909152604090208490558654879080611e3757611e376122fa565b6001900381819060005260206000200160009055905586600101600087815260200190815260200160002060009055600194505050505061060c565b600091505061060c565b81546000908210611edb5760405162461bcd60e51b815260206004820152602260248201527f456e756d657261626c655365743a20696e646578206f7574206f6620626f756e604482015261647360f01b606482015260840161073c565b826000018281548110611ef057611ef0612310565b9060005260206000200154905092915050565b60606000611f1283600261224c565b611f1d906002612234565b67ffffffffffffffff811115611f3557611f35612326565b6040519080825280601f01601f191660200182016040528015611f5f576020820181803683370190505b509050600360fc1b81600081518110611f7a57611f7a612310565b60200101906001600160f81b031916908160001a905350600f60fb1b81600181518110611fa957611fa9612310565b60200101906001600160f81b031916908160001a9053506000611fcd84600261224c565b611fd8906001612234565b90505b6001811115612050576f181899199a1a9b1b9c1cb0b131b232b360811b85600f166010811061200c5761200c612310565b1a60f81b82828151811061202257612022612310565b60200101906001600160f81b031916908160001a90535060049490941c93612049816122b2565b9050611fdb565b5083156108905760405162461bcd60e51b815260206004820181905260248201527f537472696e67733a20686578206c656e67746820696e73756666696369656e74604482015260640161073c565b6000602082840312156120b157600080fd5b81516108908161233c565b6000602082840312156120ce57600080fd5b8151801515811461089057600080fd5b6000602082840312156120f057600080fd5b5035919050565b6000806040838503121561210a57600080fd5b82359150602083013561211c8161233c565b809150509250929050565b6000806040838503121561213a57600080fd5b50508035926020909101359150565b60006020828403121561215b57600080fd5b81356001600160e01b03198116811461089057600080fd5b60006020828403121561218557600080fd5b5051919050565b7f416363657373436f6e74726f6c3a206163636f756e74200000000000000000008152600083516121c4816017850160208801612282565b7001034b99036b4b9b9b4b733903937b6329607d1b60179184019182015283516121f5816028840160208801612282565b01602801949350505050565b6020815260008251806020840152612220816040850160208701612282565b601f01601f19169190910160400192915050565b60008219821115612247576122476122e4565b500190565b6000816000190483118215151615612266576122666122e4565b500290565b60008282101561227d5761227d6122e4565b500390565b60005b8381101561229d578181015183820152602001612285565b838111156122ac576000848401525b50505050565b6000816122c1576122c16122e4565b506000190190565b60006000198214156122dd576122dd6122e4565b5060010190565b634e487b7160e01b600052601160045260246000fd5b634e487b7160e01b600052603160045260246000fd5b634e487b7160e01b600052603260045260246000fd5b634e487b7160e01b600052604160045260246000fd5b6001600160a01b038116811461064457600080fdfefa8e4989e1d689f7bc5c4b25b87efb51fecdecb19ba62847e29c759e12a89acd048bc71fa1cb2c119c339cf9cf00a97996a19a9d991ce5fe049f2fa5459e7990f0f4b159a6e2a4815eb3ca3df080bfa70c9270662c59bcaa4479a456220183e60538d24a8b7882d7b2e36af243d4af61c23e86e3daa6cb8c887b53220b2f57207c9d7f6f02908185bffb3f7fc9afb29fd7bf93675af8fd4b655ee05c2cee1e0ea2646970667358221220b3d28f1254574e03328a0b1c04a34723f91130de6cd2c552b9ab424f6e7caaaa64736f6c63430008060033",
  "immutableReferences": {},
  "source": "// SPDX-License-Identifier: MIT\n//  I have not really implemented anything yet. This is just a placeholder.\n//  I have not really implemented anything yet. This is just a placeholder.\n//  I have not really implemented anything yet. This is just a placeholder.\n//  I have not really implemented anything yet. This is just a placeholder.\n//  I have not really implemented anything yet. This is just a placeholder.\n//  I have not really implemented anything yet. This is just a placeholder.\n//  I have not really implemented anything yet. This is just a placeholder.\n//  I have not really implemented anything yet. This is just a placeholder.\n//  I have not really implemented anything yet. This is just a placeholder.\n//  I have not really implemented anything yet. This is just a placeholder.\n//  I have not really implemented anything yet. This is just a placeholder.\n//  I have not really implemented anything yet. This is just a placeholder.\n//  I have not really implemented anything yet. This is just a placeholder.\n//  I have not really implemented anything yet. This is just a placeholder.\n//  I have not really implemented anything yet. This is just a placeholder.\n//  I have not really implemented anything yet. This is just a placeholder.\n//  I have not really implemented anything yet. This is just a placeholder.\n//  I have not really implemented anything yet. This is just a placeholder.\n//  I have not really implemented anything yet. This is just a placeholder.\n//  I have not really implemented anything yet. This is just a placeholder.\n//  I have not really implemented anything yet. This is just a placeholder.\n//  I have not really implemented anything yet. This is just a placeholder.\n\n//  I have not really implemented anything yet. This is just a placeholder.\n//  I have not really implemented anything yet. This is just a placeholder.\n//  I have not really implemented anything yet. This is just a placeholder.\n//  I have not really implemented anything yet. This is just a placeholder.\n//  I have not really implemented anything yet. This is just a placeholder.\n//  I have not really implemented anything yet. This is just a placeholder.\n\n//  I have not really implemented anything yet. This is just a placeholder.\n//  I have not really implemented anything yet. This is just a placeholder.\npragma solidity ^0.8.0;\n\nimport \"../src/SmartConsensusMachine.sol\";\nimport \"./JuryPool.sol\";\n\nimport \"@openzeppelin/contracts/token/ERC20/IERC20.sol\";\nimport \"@openzeppelin/contracts/token/ERC20/ERC20.sol\";\nimport \"@openzeppelin/contracts/token/ERC20/extensions/ERC20Snapshot.sol\";\n\n\ncontract DisputeMachine is SmartConsensusMachine {\n\n    ERC20 public redPens;\n    JuryPool public juryHats;\n\n    uint private slashIndex = 0;\n    uint public slashPercentageInWholeNumber = 30;\n\n    uint[] private slashList;\n\n\n    constructor(address _AddressManagerAddress) SmartConsensusMachine(_AddressManagerAddress)  {\n\n    }\n\n\n    function drawJurors() internal {\n        // emit events to summon jurrors based on their token IDs        \n    }\n\n    function _slash() internal {\n\n        for (uint i = 0; i < slashIndex; i++) {\n            juryHats.slashToken(slashList[i], slashPercentageInWholeNumber);\n            slashList[i] = 0;\n        }\n        slashIndex = 0;\n\n    }\n\n    function setSlashPercent(uint _slashPercentageInWholeNumber) public JURY {\n        slashPercentageInWholeNumber = _slashPercentageInWholeNumber;\n    }\n\n    function _updateTokenAddresses() internal override {\n        // Set these from the Address Manager Contract\n        \n        super._updateTokenAddresses();\n        redPens = ERC20(RedPenTokenAddress);\n        juryHats = JuryPool(JuryPoolAddress);\n    }\n\n}",
  "sourcePath": "/home/n/Desktop/PinkSlips_FrontEnd_REFORMAT/contracts/juryAndAppeals/DisputeMachine.sol",
  "compiler": {
    "name": "solc",
    "version": "0.8.6+commit.11564f7e.Emscripten.clang"
  },
  "schemaVersion": "3.4.1",
  "updatedAt": "2021-08-09T09:06:52.971Z",
  "networkType": "ethereum",
  "devdoc": {
    "kind": "dev",
    "methods": {
      "getRoleAdmin(bytes32)": {
        "details": "Returns the admin role that controls `role`. See {grantRole} and {revokeRole}. To change a role's admin, use {_setRoleAdmin}."
      },
      "getRoleMember(bytes32,uint256)": {
        "details": "Returns one of the accounts that have `role`. `index` must be a value between 0 and {getRoleMemberCount}, non-inclusive. Role bearers are not sorted in any particular way, and their ordering may change at any point. WARNING: When using {getRoleMember} and {getRoleMemberCount}, make sure you perform all queries on the same block. See the following https://forum.openzeppelin.com/t/iterating-over-elements-on-enumerableset-in-openzeppelin-contracts/2296[forum post] for more information."
      },
      "getRoleMemberCount(bytes32)": {
        "details": "Returns the number of accounts that have `role`. Can be used together with {getRoleMember} to enumerate all bearers of a role."
      },
      "grantRole(bytes32,address)": {
        "details": "Overload {grantRole} to track enumerable memberships"
      },
      "hasRole(bytes32,address)": {
        "details": "Returns `true` if `account` has been granted `role`."
      },
      "renounceRole(bytes32,address)": {
        "details": "Overload {renounceRole} to track enumerable memberships"
      },
      "revokeRole(bytes32,address)": {
        "details": "Overload {revokeRole} to track enumerable memberships"
      },
      "supportsInterface(bytes4)": {
        "details": "See {IERC165-supportsInterface}."
      }
    },
    "version": 1
  },
  "userdoc": {
    "kind": "user",
    "methods": {},
    "version": 1
  }
}