{
  "contractName": "Gavels",
  "abi": [
    {
      "inputs": [
        {
          "internalType": "address",
          "name": "_AddressManagerAddress",
          "type": "address"
        }
      ],
      "stateMutability": "nonpayable",
      "type": "constructor"
    },
    {
      "anonymous": false,
      "inputs": [
        {
          "indexed": true,
          "internalType": "address",
          "name": "owner",
          "type": "address"
        },
        {
          "indexed": true,
          "internalType": "address",
          "name": "spender",
          "type": "address"
        },
        {
          "indexed": false,
          "internalType": "uint256",
          "name": "value",
          "type": "uint256"
        }
      ],
      "name": "Approval",
      "type": "event"
    },
    {
      "anonymous": false,
      "inputs": [
        {
          "indexed": true,
          "internalType": "bytes32",
          "name": "role",
          "type": "bytes32"
        },
        {
          "indexed": true,
          "internalType": "bytes32",
          "name": "previousAdminRole",
          "type": "bytes32"
        },
        {
          "indexed": true,
          "internalType": "bytes32",
          "name": "newAdminRole",
          "type": "bytes32"
        }
      ],
      "name": "RoleAdminChanged",
      "type": "event"
    },
    {
      "anonymous": false,
      "inputs": [
        {
          "indexed": true,
          "internalType": "bytes32",
          "name": "role",
          "type": "bytes32"
        },
        {
          "indexed": true,
          "internalType": "address",
          "name": "account",
          "type": "address"
        },
        {
          "indexed": true,
          "internalType": "address",
          "name": "sender",
          "type": "address"
        }
      ],
      "name": "RoleGranted",
      "type": "event"
    },
    {
      "anonymous": false,
      "inputs": [
        {
          "indexed": true,
          "internalType": "bytes32",
          "name": "role",
          "type": "bytes32"
        },
        {
          "indexed": true,
          "internalType": "address",
          "name": "account",
          "type": "address"
        },
        {
          "indexed": true,
          "internalType": "address",
          "name": "sender",
          "type": "address"
        }
      ],
      "name": "RoleRevoked",
      "type": "event"
    },
    {
      "anonymous": false,
      "inputs": [
        {
          "indexed": false,
          "internalType": "uint256",
          "name": "id",
          "type": "uint256"
        }
      ],
      "name": "Snapshot",
      "type": "event"
    },
    {
      "anonymous": false,
      "inputs": [
        {
          "indexed": true,
          "internalType": "address",
          "name": "from",
          "type": "address"
        },
        {
          "indexed": true,
          "internalType": "address",
          "name": "to",
          "type": "address"
        },
        {
          "indexed": false,
          "internalType": "uint256",
          "name": "value",
          "type": "uint256"
        }
      ],
      "name": "Transfer",
      "type": "event"
    },
    {
      "inputs": [],
      "name": "AddressManagerAddress",
      "outputs": [
        {
          "internalType": "address",
          "name": "",
          "type": "address"
        }
      ],
      "stateMutability": "view",
      "type": "function",
      "constant": true
    },
    {
      "inputs": [],
      "name": "ChadBadgeAddress",
      "outputs": [
        {
          "internalType": "address",
          "name": "",
          "type": "address"
        }
      ],
      "stateMutability": "view",
      "type": "function",
      "constant": true
    },
    {
      "inputs": [],
      "name": "DEFAULT_ADMIN_ROLE",
      "outputs": [
        {
          "internalType": "bytes32",
          "name": "",
          "type": "bytes32"
        }
      ],
      "stateMutability": "view",
      "type": "function",
      "constant": true
    },
    {
      "inputs": [],
      "name": "GAVELS_BAILIFF",
      "outputs": [
        {
          "internalType": "bytes32",
          "name": "",
          "type": "bytes32"
        }
      ],
      "stateMutability": "view",
      "type": "function",
      "constant": true
    },
    {
      "inputs": [],
      "name": "GavelDAOAddress",
      "outputs": [
        {
          "internalType": "address",
          "name": "",
          "type": "address"
        }
      ],
      "stateMutability": "view",
      "type": "function",
      "constant": true
    },
    {
      "inputs": [],
      "name": "GavelDAOAgent",
      "outputs": [
        {
          "internalType": "address",
          "name": "",
          "type": "address"
        }
      ],
      "stateMutability": "view",
      "type": "function",
      "constant": true
    },
    {
      "inputs": [],
      "name": "GavelTokenAddress",
      "outputs": [
        {
          "internalType": "address",
          "name": "",
          "type": "address"
        }
      ],
      "stateMutability": "view",
      "type": "function",
      "constant": true
    },
    {
      "inputs": [],
      "name": "GavelVote",
      "outputs": [
        {
          "internalType": "bool",
          "name": "",
          "type": "bool"
        }
      ],
      "stateMutability": "view",
      "type": "function",
      "constant": true
    },
    {
      "inputs": [],
      "name": "GoldStarAddress",
      "outputs": [
        {
          "internalType": "address",
          "name": "",
          "type": "address"
        }
      ],
      "stateMutability": "view",
      "type": "function",
      "constant": true
    },
    {
      "inputs": [],
      "name": "JERK_ROLE",
      "outputs": [
        {
          "internalType": "bytes32",
          "name": "",
          "type": "bytes32"
        }
      ],
      "stateMutability": "view",
      "type": "function",
      "constant": true
    },
    {
      "inputs": [],
      "name": "JURY_BAILIFF",
      "outputs": [
        {
          "internalType": "bytes32",
          "name": "",
          "type": "bytes32"
        }
      ],
      "stateMutability": "view",
      "type": "function",
      "constant": true
    },
    {
      "inputs": [],
      "name": "JuryDAOAddress",
      "outputs": [
        {
          "internalType": "address",
          "name": "",
          "type": "address"
        }
      ],
      "stateMutability": "view",
      "type": "function",
      "constant": true
    },
    {
      "inputs": [],
      "name": "JuryDAOAgent",
      "outputs": [
        {
          "internalType": "address",
          "name": "",
          "type": "address"
        }
      ],
      "stateMutability": "view",
      "type": "function",
      "constant": true
    },
    {
      "inputs": [],
      "name": "JuryPoolAddress",
      "outputs": [
        {
          "internalType": "address",
          "name": "",
          "type": "address"
        }
      ],
      "stateMutability": "view",
      "type": "function",
      "constant": true
    },
    {
      "inputs": [],
      "name": "JuryVote",
      "outputs": [
        {
          "internalType": "bool",
          "name": "",
          "type": "bool"
        }
      ],
      "stateMutability": "view",
      "type": "function",
      "constant": true
    },
    {
      "inputs": [],
      "name": "MINI_BAILIFF_ROLE",
      "outputs": [
        {
          "internalType": "bytes32",
          "name": "",
          "type": "bytes32"
        }
      ],
      "stateMutability": "view",
      "type": "function",
      "constant": true
    },
    {
      "inputs": [],
      "name": "MiniBailiff",
      "outputs": [
        {
          "internalType": "address",
          "name": "",
          "type": "address"
        }
      ],
      "stateMutability": "view",
      "type": "function",
      "constant": true
    },
    {
      "inputs": [],
      "name": "PinkSlipAddress",
      "outputs": [
        {
          "internalType": "address",
          "name": "",
          "type": "address"
        }
      ],
      "stateMutability": "view",
      "type": "function",
      "constant": true
    },
    {
      "inputs": [],
      "name": "RedPenTokenAddress",
      "outputs": [
        {
          "internalType": "address",
          "name": "",
          "type": "address"
        }
      ],
      "stateMutability": "view",
      "type": "function",
      "constant": true
    },
    {
      "inputs": [],
      "name": "SANCTIONS_FOREVER_DISABLED",
      "outputs": [
        {
          "internalType": "bool",
          "name": "",
          "type": "bool"
        }
      ],
      "stateMutability": "view",
      "type": "function",
      "constant": true
    },
    {
      "inputs": [],
      "name": "THE_COURT_ROLE",
      "outputs": [
        {
          "internalType": "bytes32",
          "name": "",
          "type": "bytes32"
        }
      ],
      "stateMutability": "view",
      "type": "function",
      "constant": true
    },
    {
      "inputs": [],
      "name": "TheCourtDAOAddress",
      "outputs": [
        {
          "internalType": "address",
          "name": "",
          "type": "address"
        }
      ],
      "stateMutability": "view",
      "type": "function",
      "constant": true
    },
    {
      "inputs": [],
      "name": "TheCourtDAOAgent",
      "outputs": [
        {
          "internalType": "address",
          "name": "",
          "type": "address"
        }
      ],
      "stateMutability": "view",
      "type": "function",
      "constant": true
    },
    {
      "inputs": [],
      "name": "TreasuryAddress",
      "outputs": [
        {
          "internalType": "address",
          "name": "",
          "type": "address"
        }
      ],
      "stateMutability": "view",
      "type": "function",
      "constant": true
    },
    {
      "inputs": [],
      "name": "addressManager",
      "outputs": [
        {
          "internalType": "contract AddressManager",
          "name": "",
          "type": "address"
        }
      ],
      "stateMutability": "view",
      "type": "function",
      "constant": true
    },
    {
      "inputs": [
        {
          "internalType": "address",
          "name": "owner",
          "type": "address"
        },
        {
          "internalType": "address",
          "name": "spender",
          "type": "address"
        }
      ],
      "name": "allowance",
      "outputs": [
        {
          "internalType": "uint256",
          "name": "",
          "type": "uint256"
        }
      ],
      "stateMutability": "view",
      "type": "function",
      "constant": true
    },
    {
      "inputs": [
        {
          "internalType": "address",
          "name": "spender",
          "type": "address"
        },
        {
          "internalType": "uint256",
          "name": "amount",
          "type": "uint256"
        }
      ],
      "name": "approve",
      "outputs": [
        {
          "internalType": "bool",
          "name": "",
          "type": "bool"
        }
      ],
      "stateMutability": "nonpayable",
      "type": "function"
    },
    {
      "inputs": [
        {
          "internalType": "address",
          "name": "account",
          "type": "address"
        }
      ],
      "name": "balanceOf",
      "outputs": [
        {
          "internalType": "uint256",
          "name": "",
          "type": "uint256"
        }
      ],
      "stateMutability": "view",
      "type": "function",
      "constant": true
    },
    {
      "inputs": [
        {
          "internalType": "address",
          "name": "account",
          "type": "address"
        },
        {
          "internalType": "uint256",
          "name": "snapshotId",
          "type": "uint256"
        }
      ],
      "name": "balanceOfAt",
      "outputs": [
        {
          "internalType": "uint256",
          "name": "",
          "type": "uint256"
        }
      ],
      "stateMutability": "view",
      "type": "function",
      "constant": true
    },
    {
      "inputs": [],
      "name": "decimals",
      "outputs": [
        {
          "internalType": "uint8",
          "name": "",
          "type": "uint8"
        }
      ],
      "stateMutability": "view",
      "type": "function",
      "constant": true
    },
    {
      "inputs": [
        {
          "internalType": "address",
          "name": "spender",
          "type": "address"
        },
        {
          "internalType": "uint256",
          "name": "subtractedValue",
          "type": "uint256"
        }
      ],
      "name": "decreaseAllowance",
      "outputs": [
        {
          "internalType": "bool",
          "name": "",
          "type": "bool"
        }
      ],
      "stateMutability": "nonpayable",
      "type": "function"
    },
    {
      "inputs": [
        {
          "internalType": "bytes32",
          "name": "role",
          "type": "bytes32"
        }
      ],
      "name": "getRoleAdmin",
      "outputs": [
        {
          "internalType": "bytes32",
          "name": "",
          "type": "bytes32"
        }
      ],
      "stateMutability": "view",
      "type": "function",
      "constant": true
    },
    {
      "inputs": [
        {
          "internalType": "bytes32",
          "name": "role",
          "type": "bytes32"
        },
        {
          "internalType": "uint256",
          "name": "index",
          "type": "uint256"
        }
      ],
      "name": "getRoleMember",
      "outputs": [
        {
          "internalType": "address",
          "name": "",
          "type": "address"
        }
      ],
      "stateMutability": "view",
      "type": "function",
      "constant": true
    },
    {
      "inputs": [
        {
          "internalType": "bytes32",
          "name": "role",
          "type": "bytes32"
        }
      ],
      "name": "getRoleMemberCount",
      "outputs": [
        {
          "internalType": "uint256",
          "name": "",
          "type": "uint256"
        }
      ],
      "stateMutability": "view",
      "type": "function",
      "constant": true
    },
    {
      "inputs": [
        {
          "internalType": "bytes32",
          "name": "role",
          "type": "bytes32"
        },
        {
          "internalType": "address",
          "name": "account",
          "type": "address"
        }
      ],
      "name": "grantRole",
      "outputs": [],
      "stateMutability": "nonpayable",
      "type": "function"
    },
    {
      "inputs": [
        {
          "internalType": "bytes32",
          "name": "role",
          "type": "bytes32"
        },
        {
          "internalType": "address",
          "name": "account",
          "type": "address"
        }
      ],
      "name": "hasRole",
      "outputs": [
        {
          "internalType": "bool",
          "name": "",
          "type": "bool"
        }
      ],
      "stateMutability": "view",
      "type": "function",
      "constant": true
    },
    {
      "inputs": [
        {
          "internalType": "address",
          "name": "spender",
          "type": "address"
        },
        {
          "internalType": "uint256",
          "name": "addedValue",
          "type": "uint256"
        }
      ],
      "name": "increaseAllowance",
      "outputs": [
        {
          "internalType": "bool",
          "name": "",
          "type": "bool"
        }
      ],
      "stateMutability": "nonpayable",
      "type": "function"
    },
    {
      "inputs": [],
      "name": "jerkSanctions",
      "outputs": [
        {
          "internalType": "bool",
          "name": "",
          "type": "bool"
        }
      ],
      "stateMutability": "view",
      "type": "function",
      "constant": true
    },
    {
      "inputs": [],
      "name": "jerkSanctionsLocal",
      "outputs": [
        {
          "internalType": "bool",
          "name": "",
          "type": "bool"
        }
      ],
      "stateMutability": "view",
      "type": "function",
      "constant": true
    },
    {
      "inputs": [],
      "name": "name",
      "outputs": [
        {
          "internalType": "string",
          "name": "",
          "type": "string"
        }
      ],
      "stateMutability": "view",
      "type": "function",
      "constant": true
    },
    {
      "inputs": [
        {
          "internalType": "bytes32",
          "name": "role",
          "type": "bytes32"
        },
        {
          "internalType": "address",
          "name": "account",
          "type": "address"
        }
      ],
      "name": "renounceRole",
      "outputs": [],
      "stateMutability": "nonpayable",
      "type": "function"
    },
    {
      "inputs": [],
      "name": "resetVote",
      "outputs": [],
      "stateMutability": "nonpayable",
      "type": "function"
    },
    {
      "inputs": [
        {
          "internalType": "bytes32",
          "name": "role",
          "type": "bytes32"
        },
        {
          "internalType": "address",
          "name": "account",
          "type": "address"
        }
      ],
      "name": "revokeRole",
      "outputs": [],
      "stateMutability": "nonpayable",
      "type": "function"
    },
    {
      "inputs": [
        {
          "internalType": "bytes4",
          "name": "interfaceId",
          "type": "bytes4"
        }
      ],
      "name": "supportsInterface",
      "outputs": [
        {
          "internalType": "bool",
          "name": "",
          "type": "bool"
        }
      ],
      "stateMutability": "view",
      "type": "function",
      "constant": true
    },
    {
      "inputs": [],
      "name": "symbol",
      "outputs": [
        {
          "internalType": "string",
          "name": "",
          "type": "string"
        }
      ],
      "stateMutability": "view",
      "type": "function",
      "constant": true
    },
    {
      "inputs": [],
      "name": "syncAllRoles",
      "outputs": [],
      "stateMutability": "nonpayable",
      "type": "function"
    },
    {
      "inputs": [
        {
          "internalType": "bytes32",
          "name": "ROLE_TO_SYNC",
          "type": "bytes32"
        }
      ],
      "name": "syncSingleRole",
      "outputs": [],
      "stateMutability": "nonpayable",
      "type": "function"
    },
    {
      "inputs": [],
      "name": "syncVotes",
      "outputs": [],
      "stateMutability": "nonpayable",
      "type": "function"
    },
    {
      "inputs": [],
      "name": "totalSupply",
      "outputs": [
        {
          "internalType": "uint256",
          "name": "",
          "type": "uint256"
        }
      ],
      "stateMutability": "view",
      "type": "function",
      "constant": true
    },
    {
      "inputs": [
        {
          "internalType": "uint256",
          "name": "snapshotId",
          "type": "uint256"
        }
      ],
      "name": "totalSupplyAt",
      "outputs": [
        {
          "internalType": "uint256",
          "name": "",
          "type": "uint256"
        }
      ],
      "stateMutability": "view",
      "type": "function",
      "constant": true
    },
    {
      "inputs": [
        {
          "internalType": "address",
          "name": "recipient",
          "type": "address"
        },
        {
          "internalType": "uint256",
          "name": "amount",
          "type": "uint256"
        }
      ],
      "name": "transfer",
      "outputs": [
        {
          "internalType": "bool",
          "name": "",
          "type": "bool"
        }
      ],
      "stateMutability": "nonpayable",
      "type": "function"
    },
    {
      "inputs": [
        {
          "internalType": "address",
          "name": "sender",
          "type": "address"
        },
        {
          "internalType": "address",
          "name": "recipient",
          "type": "address"
        },
        {
          "internalType": "uint256",
          "name": "amount",
          "type": "uint256"
        }
      ],
      "name": "transferFrom",
      "outputs": [
        {
          "internalType": "bool",
          "name": "",
          "type": "bool"
        }
      ],
      "stateMutability": "nonpayable",
      "type": "function"
    },
    {
      "inputs": [],
      "name": "updateAddressManager",
      "outputs": [],
      "stateMutability": "nonpayable",
      "type": "function"
    },
    {
      "inputs": [],
      "name": "updateAllAddresses",
      "outputs": [],
      "stateMutability": "nonpayable",
      "type": "function"
    },
    {
      "inputs": [],
      "name": "updateAllRoles",
      "outputs": [],
      "stateMutability": "nonpayable",
      "type": "function"
    },
    {
      "inputs": [],
      "name": "updateDAOAddresses",
      "outputs": [],
      "stateMutability": "nonpayable",
      "type": "function"
    },
    {
      "inputs": [],
      "name": "updateDAOAgents",
      "outputs": [],
      "stateMutability": "nonpayable",
      "type": "function"
    },
    {
      "inputs": [
        {
          "internalType": "bytes32",
          "name": "ROLE_TO_UPDATE",
          "type": "bytes32"
        }
      ],
      "name": "updateSingleRole",
      "outputs": [],
      "stateMutability": "nonpayable",
      "type": "function"
    },
    {
      "inputs": [],
      "name": "updateTokenAddresses",
      "outputs": [],
      "stateMutability": "nonpayable",
      "type": "function"
    },
    {
      "inputs": [
        {
          "internalType": "bool",
          "name": "turnOnSanctions",
          "type": "bool"
        }
      ],
      "name": "switchLocalJerkSanctions",
      "outputs": [],
      "stateMutability": "nonpayable",
      "type": "function"
    },
    {
      "inputs": [
        {
          "internalType": "bool",
          "name": "safteySwitch",
          "type": "bool"
        }
      ],
      "name": "foreverDisableJerkSanctions",
      "outputs": [],
      "stateMutability": "nonpayable",
      "type": "function"
    },
    {
      "inputs": [],
      "name": "snapshot",
      "outputs": [],
      "stateMutability": "nonpayable",
      "type": "function"
    }
  ],
  "bytecode": "0x6080604052601a805465ffffffffffff60a01b191690553480156200002357600080fd5b506040516200452538038062004525833981016040819052620000469162001106565b6040805180820182526006815265476176656c7360d01b60208083019182528351808501909452600584526411d85d995b60da1b90840152815184938493929091620000959160039162001060565b508051620000ab90600490602084019062001060565b5050600b80546001600160a01b039093166001600160a01b03199384168117909155601a80549093161790915550620000e362000255565b620000ed62000275565b60155462000107906000906001600160a01b0316620003c0565b60155462000140907f0538d24a8b7882d7b2e36af243d4af61c23e86e3daa6cb8c887b53220b2f5720906001600160a01b0316620003c0565b60165462000179907f048bc71fa1cb2c119c339cf9cf00a97996a19a9d991ce5fe049f2fa5459e7990906001600160a01b0316620003c0565b601754620001b2907ffa8e4989e1d689f7bc5c4b25b87efb51fecdecb19ba62847e29c759e12a89acd906001600160a01b0316620003c0565b601954620001eb907ff0f4b159a6e2a4815eb3ca3df080bfa70c9270662c59bcaa4479a456220183e6906001600160a01b0316620003c0565b620002187f7c9d7f6f02908185bffb3f7fc9afb29fd7bf93675af8fd4b655ee05c2cee1e0e6000620003c0565b506200022d30671bc16d674ec8000062000403565b6011546200024e906001600160a01b0316680d71b0fe0a28e0000062000403565b50620011fa565b6200025f620004f9565b62000269620007f9565b6200027362000a64565b565b601a60009054906101000a90046001600160a01b03166001600160a01b031663ff7e88ec6040518163ffffffff1660e01b815260040160206040518083038186803b158015620002c457600080fd5b505afa158015620002d9573d6000803e3d6000fd5b505050506040513d601f19601f82011682018060405250810190620002ff919062001138565b601a60156101000a81548160ff021916908315150217905550601a60009054906101000a90046001600160a01b03166001600160a01b0316632fb565856040518163ffffffff1660e01b815260040160206040518083038186803b1580156200036757600080fd5b505afa1580156200037c573d6000803e3d6000fd5b505050506040513d601f19601f82011682018060405250810190620003a2919062001138565b601a8054911515600160b01b0260ff60b01b19909216919091179055565b620003d7828262000d6460201b620010241760201c565b6000828152600a60209081526040909120620003fe9183906200102e62000d74821b17901c565b505050565b6001600160a01b0382166200045e5760405162461bcd60e51b815260206004820152601f60248201527f45524332303a206d696e7420746f20746865207a65726f206164647265737300604482015260640160405180910390fd5b6200046c6000838362000d94565b80600260008282546200048091906200115c565b90915550506001600160a01b03821660009081526020819052604081208054839290620004af9084906200115c565b90915550506040518181526001600160a01b038316906000907fddf252ad1be2c89b69c2b068fc378daa952ba7f163c4a11628f55a4df523b3ef9060200160405180910390a35050565b601a60009054906101000a90046001600160a01b03166001600160a01b0316637dad1ad56040518163ffffffff1660e01b815260040160206040518083038186803b1580156200054857600080fd5b505afa1580156200055d573d6000803e3d6000fd5b505050506040513d601f19601f8201168201806040525081019062000583919062001106565b601380546001600160a01b0319166001600160a01b03928316179055601a546040805163a99b273560e01b81529051919092169163a99b2735916004808301926020929190829003018186803b158015620005dd57600080fd5b505afa158015620005f2573d6000803e3d6000fd5b505050506040513d601f19601f8201168201806040525081019062000618919062001106565b601480546001600160a01b0319166001600160a01b03928316179055601a5460408051637ef7fe1960e11b81529051919092169163fdeffc32916004808301926020929190829003018186803b1580156200067257600080fd5b505afa15801562000687573d6000803e3d6000fd5b505050506040513d601f19601f82011682018060405250810190620006ad919062001106565b601580546001600160a01b0319166001600160a01b03928316179055601a5460408051635b5c251f60e01b815290519190921691635b5c251f916004808301926020929190829003018186803b1580156200070757600080fd5b505afa1580156200071c573d6000803e3d6000fd5b505050506040513d601f19601f8201168201806040525081019062000742919062001106565b601180546001600160a01b0319166001600160a01b03928316179055601a5460408051636b58477560e01b815290519190921691636b584775916004808301926020929190829003018186803b1580156200079c57600080fd5b505afa158015620007b1573d6000803e3d6000fd5b505050506040513d601f19601f82011682018060405250810190620007d7919062001106565b601280546001600160a01b0319166001600160a01b0392909216919091179055565b601a60009054906101000a90046001600160a01b03166001600160a01b031663dadf56ac6040518163ffffffff1660e01b815260040160206040518083038186803b1580156200084857600080fd5b505afa1580156200085d573d6000803e3d6000fd5b505050506040513d601f19601f8201168201806040525081019062000883919062001106565b601680546001600160a01b0319166001600160a01b03928316179055601a546040805163024bebe960e01b81529051919092169163024bebe9916004808301926020929190829003018186803b158015620008dd57600080fd5b505afa158015620008f2573d6000803e3d6000fd5b505050506040513d601f19601f8201168201806040525081019062000918919062001106565b601780546001600160a01b0319166001600160a01b03928316179055601a546040805163320a28f960e11b81529051919092169163641451f2916004808301926020929190829003018186803b1580156200097257600080fd5b505afa15801562000987573d6000803e3d6000fd5b505050506040513d601f19601f82011682018060405250810190620009ad919062001106565b601880546001600160a01b0319166001600160a01b03928316179055601a5460408051637310bf1d60e11b81529051919092169163e6217e3a916004808301926020929190829003018186803b15801562000a0757600080fd5b505afa15801562000a1c573d6000803e3d6000fd5b505050506040513d601f19601f8201168201806040525081019062000a42919062001106565b601980546001600160a01b0319166001600160a01b0392909216919091179055565b601a60009054906101000a90046001600160a01b03166001600160a01b03166321d7f0086040518163ffffffff1660e01b815260040160206040518083038186803b15801562000ab357600080fd5b505afa15801562000ac8573d6000803e3d6000fd5b505050506040513d601f19601f8201168201806040525081019062000aee919062001106565b600c80546001600160a01b0319166001600160a01b03928316179055601a546040805163762ddb5960e01b81529051919092169163762ddb59916004808301926020929190829003018186803b15801562000b4857600080fd5b505afa15801562000b5d573d6000803e3d6000fd5b505050506040513d601f19601f8201168201806040525081019062000b83919062001106565b600d80546001600160a01b0319166001600160a01b03928316179055601a546040805163bfb7dc9960e01b81529051919092169163bfb7dc99916004808301926020929190829003018186803b15801562000bdd57600080fd5b505afa15801562000bf2573d6000803e3d6000fd5b505050506040513d601f19601f8201168201806040525081019062000c18919062001106565b600e80546001600160a01b0319166001600160a01b03928316179055601a5460408051633e6111eb60e21b81529051919092169163f98447ac916004808301926020929190829003018186803b15801562000c7257600080fd5b505afa15801562000c87573d6000803e3d6000fd5b505050506040513d601f19601f8201168201806040525081019062000cad919062001106565b600f80546001600160a01b0319166001600160a01b03928316179055601a5460408051630fe1ba9f60e21b815290519190921691633f86ea7c916004808301926020929190829003018186803b15801562000d0757600080fd5b505afa15801562000d1c573d6000803e3d6000fd5b505050506040513d601f19601f8201168201806040525081019062000d42919062001106565b601080546001600160a01b0319166001600160a01b0392909216919091179055565b62000d70828262000e12565b5050565b600062000d8b836001600160a01b03841662000eb6565b90505b92915050565b601a54600160c81b900460ff16801562000db75750601a54600160a01b900460ff165b1562000dfa573360009081527f52d054d04f5c412331632e43852964a41017c3f6f7b15bec85823401a813d3cf602052604090205460ff161562000dfa57600080fd5b620003fe83838362000f0860201b620010431760201c565b60008281526009602090815260408083206001600160a01b038516845290915290205460ff1662000d705760008281526009602090815260408083206001600160a01b03851684529091529020805460ff1916600117905562000e723390565b6001600160a01b0316816001600160a01b0316837f2f8788117e7eff1d82e926ec794901d17c78024a50270940304540a733656f0d60405160405180910390a45050565b600081815260018301602052604081205462000eff5750815460018181018455600084815260208082209093018490558454848252828601909352604090209190915562000d8e565b50600062000d8e565b62000f20838383620003fe60201b62000a291760201c565b6001600160a01b03831662000f445762000f3a8262000f6f565b620003fe62000fa7565b6001600160a01b03821662000f5e5762000f3a8362000f6f565b62000f698362000f6f565b620003fe825b6001600160a01b0381166000908152600560209081526040808320918390529091205462000fa4919062000fb7565b62000fb7565b50565b62000273600662000f9e60025490565b600062000fd060086200101360201b6200108b1760201c565b90508062000fde8462001017565b1015620003fe578254600180820185556000858152602080822090930193909355938401805494850181558252902090910155565b5490565b80546000906200102957506000919050565b815482906200103b9060019062001177565b815481106200104e576200104e620011e4565b90600052602060002001549050919050565b8280546200106e9062001191565b90600052602060002090601f016020900481019282620010925760008555620010dd565b82601f10620010ad57805160ff1916838001178555620010dd565b82800160010185558215620010dd579182015b82811115620010dd578251825591602001919060010190620010c0565b50620010eb929150620010ef565b5090565b5b80821115620010eb5760008155600101620010f0565b6000602082840312156200111957600080fd5b81516001600160a01b03811681146200113157600080fd5b9392505050565b6000602082840312156200114b57600080fd5b815180151581146200113157600080fd5b60008219821115620011725762001172620011ce565b500190565b6000828210156200118c576200118c620011ce565b500390565b600181811c90821680620011a657607f821691505b60208210811415620011c857634e487b7160e01b600052602260045260246000fd5b50919050565b634e487b7160e01b600052601160045260246000fd5b634e487b7160e01b600052603260045260246000fd5b61331b806200120a6000396000f3fe608060405234801561001057600080fd5b50600436106103ba5760003560e01c8063762ddb59116101f4578063b6085bf51161011a578063e6217e3a116100ad578063f7d92d861161007c578063f7d92d861461081a578063f98447ac14610822578063fdeffc3214610835578063ff7e88ec1461084857600080fd5b8063e6217e3a146107d7578063e78c266c146107ea578063e9a53230146107fd578063f1132b301461081257600080fd5b8063cf4ece15116100e9578063cf4ece1514610763578063d547741f14610778578063dadf56ac1461078b578063dd62ed3e1461079e57600080fd5b8063b6085bf514610720578063bfb7dc9914610728578063ca15c8731461073b578063cce843921461074e57600080fd5b8063981b24d011610192578063a78e746f11610161578063a78e746f146106d2578063a9059cbb146106e6578063a99b2735146106f9578063b12655061461070c57600080fd5b8063981b24d01461068f578063a217fddf146106a2578063a32c5e59146106aa578063a457c2d7146106bf57600080fd5b806391d14854116101ce57806391d148541461065957806393dad6e71461066c57806395d89b411461067f5780639711715a1461068757600080fd5b8063762ddb59146106205780637dad1ad5146106335780639010d07c1461064657600080fd5b8063329a8cfa116102e457806357f276ff11610277578063641451f211610246578063641451f2146105be57806368398887146105d15780636b584775146105e457806370a08231146105f757600080fd5b806357f276ff1461057c5780635a1406961461058f5780635b5c251f146105a35780635db531a1146105b657600080fd5b80633f86ea7c116102b35780633f86ea7c1461054657806349b5e105146105595780634d84c6d8146105615780634ee2cd7e1461056957600080fd5b8063329a8cfa1461050557806336568abe1461050d57806339509351146105205780633ab76e9f1461053357600080fd5b806321d7f0081161035c5780632f2ff15d1161032b5780632f2ff15d146104c75780632fb56585146104da578063313ce567146104ee578063326a55e0146104fd57600080fd5b806321d7f0081461046957806323b872dd1461047c5780632436329d1461048f578063248a9ca3146104a457600080fd5b8063095ea7b311610398578063095ea7b314610427578063130f63201461043a57806317314d5a1461044f57806318160ddd1461045757600080fd5b806301ffc9a7146103bf578063024bebe9146103e757806306fdde0314610412575b600080fd5b6103d26103cd366004612fb6565b61085c565b60405190151581526020015b60405180910390f35b6017546103fa906001600160a01b031681565b6040516001600160a01b0390911681526020016103de565b61041a610887565b6040516103de919061306e565b6103d2610435366004612ef0565b610919565b61044d610448366004612f56565b61092f565b005b61044d610946565b6002545b6040519081526020016103de565b600c546103fa906001600160a01b031681565b6103d261048a366004612eaf565b610951565b61045b60008051602061324683398151915281565b61045b6104b2366004612f56565b60009081526009602052604090206001015490565b61044d6104d5366004612f6f565b610a07565b601a546103d290600160b01b900460ff1681565b604051601281526020016103de565b61044d610a2e565b61044d610a48565b61044d61051b366004612f6f565b610b51565b6103d261052e366004612ef0565b610b73565b601a546103fa906001600160a01b031681565b6010546103fa906001600160a01b031681565b61044d610baa565b61044d610a3e565b61045b610577366004612ef0565b610bb2565b61044d61058a366004612f56565b610c0b565b601a546103d290600160c01b900460ff1681565b6011546103fa906001600160a01b031681565b61044d610c14565b6018546103fa906001600160a01b031681565b61044d6105df366004612f1c565b610c1c565b6012546103fa906001600160a01b031681565b61045b610605366004612e3c565b6001600160a01b031660009081526020819052604090205490565b600d546103fa906001600160a01b031681565b6013546103fa906001600160a01b031681565b6103fa610654366004612f94565b610ccb565b6103d2610667366004612f6f565b610cea565b61044d61067a366004612f1c565b610d15565b61041a610dc7565b61044d610dd6565b61045b61069d366004612f56565b610e95565b61045b600081565b61045b6000805160206132a683398151915281565b6103d26106cd366004612ef0565b610ec0565b601a546103d290600160a01b900460ff1681565b6103d26106f4366004612ef0565b610f5b565b6014546103fa906001600160a01b031681565b601a546103d290600160c81b900460ff1681565b61044d610f68565b600e546103fa906001600160a01b031681565b61045b610749366004612f56565b610f70565b61045b6000805160206132c683398151915281565b61045b60008051602061328683398151915281565b61044d610786366004612f6f565b610f87565b6016546103fa906001600160a01b031681565b61045b6107ac366004612e76565b6001600160a01b03918216600090815260016020908152604080832093909416825291909152205490565b6019546103fa906001600160a01b031681565b600b546103fa906001600160a01b031681565b61045b60008051602061326683398151915281565b61044d610f91565b61044d610f99565b600f546103fa906001600160a01b031681565b6015546103fa906001600160a01b031681565b601a546103d290600160a81b900460ff1681565b60006001600160e01b03198216635a05180f60e01b148061088157506108818261108f565b92915050565b6060600380546108969061314a565b80601f01602080910402602001604051908101604052809291908181526020018280546108c29061314a565b801561090f5780601f106108e45761010080835404028352916020019161090f565b820191906000526020600020905b8154815290600101906020018083116108f257829003601f168201915b5050505050905090565b60006109263384846110c4565b50600192915050565b610938816111e8565b5061094281611359565b5050565b61094e6114e2565b50565b600061095e848484611628565b6001600160a01b0384166000908152600160209081526040808320338452909152902054828110156109e85760405162461bcd60e51b815260206004820152602860248201527f45524332303a207472616e7366657220616d6f756e74206578636565647320616044820152676c6c6f77616e636560c01b60648201526084015b60405180910390fd5b6109fc85336109f786856130ec565b6110c4565b506001949350505050565b610a11828261180b565b6000828152600a60205260409020610a29908261102e565b505050565b610a36611831565b610a3e611b1d565b610a46611d78565b565b610a606000805160206132a683398151915233610cea565b80610a7e5750610a7e60008051602061326683398151915233610cea565b80610a9c5750610a9c60008051602061324683398151915233610cea565b610ae15760405162461bcd60e51b81526020600482015260166024820152752cb7ba93b932903737ba103a3432903130b4b634b33360511b60448201526064016109df565b601a60009054906101000a90046001600160a01b03166001600160a01b031663329a8cfa6040518163ffffffff1660e01b8152600401600060405180830381600087803b158015610b3157600080fd5b505af1158015610b45573d6000803e3d6000fd5b50505050610a46610c14565b610b5b8282612064565b6000828152600a60205260409020610a2990826120de565b3360008181526001602090815260408083206001600160a01b038716845290915281205490916109269185906109f79086906130a1565b610a46611831565b6001600160a01b038216600090815260056020526040812081908190610bd99085906120f3565b9150915081610c00576001600160a01b038516600090815260208190526040902054610c02565b805b95945050505050565b610942816121e5565b610a46612440565b610c3460008051602061326683398151915233610cea565b80610c525750610c526000805160206132a683398151915233610cea565b610c965760405162461bcd60e51b8152602060048201526015602482015274596f75277265206e6f742074686520476176656c7360581b60448201526064016109df565b601a54600160c01b900460ff1615610cad57600080fd5b601a8054911515600160c81b0260ff60c81b19909216919091179055565b6000828152600a60205260408120610ce39083612583565b9392505050565b60009182526009602090815260408084206001600160a01b0393909316845291905290205460ff1690565b610d2d60008051602061326683398151915233610cea565b80610d4b5750610d4b6000805160206132a683398151915233610cea565b610d8f5760405162461bcd60e51b8152602060048201526015602482015274596f75277265206e6f742074686520476176656c7360581b60448201526064016109df565b80158015610da75750601a54600160c01b900460ff16155b610db057600080fd5b50601a805461ffff60c01b1916600160c01b179055565b6060600480546108969061314a565b610dee6000805160206132a683398151915233610cea565b80610e0c5750610e0c60008051602061326683398151915233610cea565b80610e2a5750610e2a60008051602061324683398151915233610cea565b80610e485750610e4860008051602061328683398151915233610cea565b610e8d5760405162461bcd60e51b81526020600482015260166024820152752cb7ba93b932903737ba103a3432903130b4b634b33360511b60448201526064016109df565b61094e61258f565b6000806000610ea58460066120f3565b9150915081610eb657600254610eb8565b805b949350505050565b3360009081526001602090815260408083206001600160a01b038616845290915281205482811015610f425760405162461bcd60e51b815260206004820152602560248201527f45524332303a2064656372656173656420616c6c6f77616e63652062656c6f77604482015264207a65726f60d81b60648201526084016109df565b610f5133856109f786856130ec565b5060019392505050565b6000610926338484611628565b610a46611b1d565b6000818152600a60205260408120610881906125ea565b610b5b82826125f4565b610a4661261a565b610fb06000805160206132a68339815191526121e5565b50610fc86000805160206132668339815191526121e5565b50610fe06000805160206132468339815191526121e5565b50610ff86000805160206132868339815191526121e5565b506110106000805160206132c68339815191526121e5565b5061101b60006121e5565b50610a46612440565b6109428282612751565b6000610ce3836001600160a01b0384166127d7565b6001600160a01b0383166110625761105a82612826565b610a29612858565b6001600160a01b0382166110795761105a83612826565b61108283612826565b610a2982612826565b5490565b60006001600160e01b03198216637965db0b60e01b148061088157506301ffc9a760e01b6001600160e01b0319831614610881565b6001600160a01b0383166111265760405162461bcd60e51b8152602060048201526024808201527f45524332303a20617070726f76652066726f6d20746865207a65726f206164646044820152637265737360e01b60648201526084016109df565b6001600160a01b0382166111875760405162461bcd60e51b815260206004820152602260248201527f45524332303a20617070726f766520746f20746865207a65726f206164647265604482015261737360f01b60648201526084016109df565b6001600160a01b0383811660008181526001602090815260408083209487168084529482529182902085905590518481527f8c5be1e5ebec7d5bd14f71427d1e84f3dd0314c0f7b2291e5b200ac8c7c3b925910160405180910390a3505050565b60405163ca15c87360e01b8152600481018290526000908190309063ca15c8739060240160206040518083038186803b15801561122457600080fd5b505afa158015611238573d6000803e3d6000fd5b505050506040513d601f19601f8201168201806040525081019061125c9190612fe0565b905060005b81811015610f5157604051632404341f60e21b815260048101859052602481018290526000903090639010d07c9060440160206040518083038186803b1580156112aa57600080fd5b505afa1580156112be573d6000803e3d6000fd5b505050506040513d601f19601f820116820180604052508101906112e29190612e59565b60405163d547741f60e01b8152600481018790526001600160a01b0382166024820152909150309063d547741f90604401600060405180830381600087803b15801561132d57600080fd5b505af1158015611341573d6000803e3d6000fd5b5050505050808061135190613185565b915050611261565b601a5460405163ca15c87360e01b81526004810183905260009182916001600160a01b039091169063ca15c8739060240160206040518083038186803b1580156113a257600080fd5b505afa1580156113b6573d6000803e3d6000fd5b505050506040513d601f19601f820116820180604052508101906113da9190612fe0565b905060005b81811015610f5157601a54604051632404341f60e21b815260048101869052602481018390526000916001600160a01b031690639010d07c9060440160206040518083038186803b15801561143357600080fd5b505afa158015611447573d6000803e3d6000fd5b505050506040513d601f19601f8201168201806040525081019061146b9190612e59565b604051632f2ff15d60e01b8152600481018790526001600160a01b03821660248201529091503090632f2ff15d90604401600060405180830381600087803b1580156114b657600080fd5b505af11580156114ca573d6000803e3d6000fd5b505050505080806114da90613185565b9150506113df565b60006114fb6000805160206132a68339815191526111e8565b506115136000805160206132a6833981519152611359565b61151c57600080fd5b6115336000805160206132668339815191526111e8565b5061154b600080516020613266833981519152611359565b61155457600080fd5b61156b6000805160206132468339815191526111e8565b50611583600080516020613246833981519152611359565b61158c57600080fd5b6115a36000805160206132868339815191526111e8565b506115bb600080516020613286833981519152611359565b6115c457600080fd5b6115db6000805160206132c68339815191526111e8565b506115f36000805160206132c6833981519152611359565b6115fc57600080fd5b61160660006111e8565b506116116000611359565b61161a57600080fd5b611622612440565b50600190565b6001600160a01b03831661168c5760405162461bcd60e51b815260206004820152602560248201527f45524332303a207472616e736665722066726f6d20746865207a65726f206164604482015264647265737360d81b60648201526084016109df565b6001600160a01b0382166116ee5760405162461bcd60e51b815260206004820152602360248201527f45524332303a207472616e7366657220746f20746865207a65726f206164647260448201526265737360e81b60648201526084016109df565b6116f9838383612866565b6001600160a01b038316600090815260208190526040902054818110156117715760405162461bcd60e51b815260206004820152602660248201527f45524332303a207472616e7366657220616d6f756e7420657863656564732062604482015265616c616e636560d01b60648201526084016109df565b61177b82826130ec565b6001600160a01b0380861660009081526020819052604080822093909355908516815290812080548492906117b19084906130a1565b92505081905550826001600160a01b0316846001600160a01b03167fddf252ad1be2c89b69c2b068fc378daa952ba7f163c4a11628f55a4df523b3ef846040516117fd91815260200190565b60405180910390a350505050565b60008281526009602052604090206001015461182781336128ba565b610a298383612751565b601a60009054906101000a90046001600160a01b03166001600160a01b0316637dad1ad56040518163ffffffff1660e01b815260040160206040518083038186803b15801561187f57600080fd5b505afa158015611893573d6000803e3d6000fd5b505050506040513d601f19601f820116820180604052508101906118b79190612e59565b601380546001600160a01b0319166001600160a01b03928316179055601a546040805163a99b273560e01b81529051919092169163a99b2735916004808301926020929190829003018186803b15801561191057600080fd5b505afa158015611924573d6000803e3d6000fd5b505050506040513d601f19601f820116820180604052508101906119489190612e59565b601480546001600160a01b0319166001600160a01b03928316179055601a5460408051637ef7fe1960e11b81529051919092169163fdeffc32916004808301926020929190829003018186803b1580156119a157600080fd5b505afa1580156119b5573d6000803e3d6000fd5b505050506040513d601f19601f820116820180604052508101906119d99190612e59565b601580546001600160a01b0319166001600160a01b03928316179055601a5460408051635b5c251f60e01b815290519190921691635b5c251f916004808301926020929190829003018186803b158015611a3257600080fd5b505afa158015611a46573d6000803e3d6000fd5b505050506040513d601f19601f82011682018060405250810190611a6a9190612e59565b601180546001600160a01b0319166001600160a01b03928316179055601a5460408051636b58477560e01b815290519190921691636b584775916004808301926020929190829003018186803b158015611ac357600080fd5b505afa158015611ad7573d6000803e3d6000fd5b505050506040513d601f19601f82011682018060405250810190611afb9190612e59565b601280546001600160a01b0319166001600160a01b0392909216919091179055565b601a60009054906101000a90046001600160a01b03166001600160a01b031663dadf56ac6040518163ffffffff1660e01b815260040160206040518083038186803b158015611b6b57600080fd5b505afa158015611b7f573d6000803e3d6000fd5b505050506040513d601f19601f82011682018060405250810190611ba39190612e59565b601680546001600160a01b0319166001600160a01b03928316179055601a546040805163024bebe960e01b81529051919092169163024bebe9916004808301926020929190829003018186803b158015611bfc57600080fd5b505afa158015611c10573d6000803e3d6000fd5b505050506040513d601f19601f82011682018060405250810190611c349190612e59565b601780546001600160a01b0319166001600160a01b03928316179055601a546040805163320a28f960e11b81529051919092169163641451f2916004808301926020929190829003018186803b158015611c8d57600080fd5b505afa158015611ca1573d6000803e3d6000fd5b505050506040513d601f19601f82011682018060405250810190611cc59190612e59565b601880546001600160a01b0319166001600160a01b03928316179055601a5460408051637310bf1d60e11b81529051919092169163e6217e3a916004808301926020929190829003018186803b158015611d1e57600080fd5b505afa158015611d32573d6000803e3d6000fd5b505050506040513d601f19601f82011682018060405250810190611d569190612e59565b601980546001600160a01b0319166001600160a01b0392909216919091179055565b601a60009054906101000a90046001600160a01b03166001600160a01b03166321d7f0086040518163ffffffff1660e01b815260040160206040518083038186803b158015611dc657600080fd5b505afa158015611dda573d6000803e3d6000fd5b505050506040513d601f19601f82011682018060405250810190611dfe9190612e59565b600c80546001600160a01b0319166001600160a01b03928316179055601a546040805163762ddb5960e01b81529051919092169163762ddb59916004808301926020929190829003018186803b158015611e5757600080fd5b505afa158015611e6b573d6000803e3d6000fd5b505050506040513d601f19601f82011682018060405250810190611e8f9190612e59565b600d80546001600160a01b0319166001600160a01b03928316179055601a546040805163bfb7dc9960e01b81529051919092169163bfb7dc99916004808301926020929190829003018186803b158015611ee857600080fd5b505afa158015611efc573d6000803e3d6000fd5b505050506040513d601f19601f82011682018060405250810190611f209190612e59565b600e80546001600160a01b0319166001600160a01b03928316179055601a5460408051633e6111eb60e21b81529051919092169163f98447ac916004808301926020929190829003018186803b158015611f7957600080fd5b505afa158015611f8d573d6000803e3d6000fd5b505050506040513d601f19601f82011682018060405250810190611fb19190612e59565b600f80546001600160a01b0319166001600160a01b03928316179055601a5460408051630fe1ba9f60e21b815290519190921691633f86ea7c916004808301926020929190829003018186803b15801561200a57600080fd5b505afa15801561201e573d6000803e3d6000fd5b505050506040513d601f19601f820116820180604052508101906120429190612e59565b601080546001600160a01b0319166001600160a01b0392909216919091179055565b6001600160a01b03811633146120d45760405162461bcd60e51b815260206004820152602f60248201527f416363657373436f6e74726f6c3a2063616e206f6e6c792072656e6f756e636560448201526e103937b632b9903337b91039b2b63360891b60648201526084016109df565b610942828261291e565b6000610ce3836001600160a01b038416612985565b6000806000841161213f5760405162461bcd60e51b815260206004820152601660248201527504552433230536e617073686f743a20696420697320360541b60448201526064016109df565b6008548411156121915760405162461bcd60e51b815260206004820152601d60248201527f4552433230536e617073686f743a206e6f6e6578697374656e7420696400000060448201526064016109df565b600061219d8486612a72565b84549091508114156121b65760008092509250506121de565b60018460010182815481106121cd576121cd6131f6565b906000526020600020015492509250505b9250929050565b601a5460405163ca15c87360e01b81526004810183905260009182916001600160a01b039091169063ca15c8739060240160206040518083038186803b15801561222e57600080fd5b505afa158015612242573d6000803e3d6000fd5b505050506040513d601f19601f820116820180604052508101906122669190612fe0565b60405163ca15c87360e01b815260048101859052909150600090309063ca15c8739060240160206040518083038186803b1580156122a357600080fd5b505afa1580156122b7573d6000803e3d6000fd5b505050506040513d601f19601f820116820180604052508101906122db9190612fe0565b905060006122e982846130ec565b90506000811161232e5760405162461bcd60e51b815260206004820152601060248201526f4e6f7468696e6720746f2073796e632160801b60448201526064016109df565b60005b8181101561243457601a54604051632404341f60e21b815260048101889052602481018390526000916001600160a01b031690639010d07c9060440160206040518083038186803b15801561238557600080fd5b505afa158015612399573d6000803e3d6000fd5b505050506040513d601f19601f820116820180604052508101906123bd9190612e59565b604051632f2ff15d60e01b8152600481018990526001600160a01b03821660248201529091503090632f2ff15d90604401600060405180830381600087803b15801561240857600080fd5b505af115801561241c573d6000803e3d6000fd5b5050505050808061242c90613185565b915050612331565b50600195945050505050565b601a60009054906101000a90046001600160a01b03166001600160a01b031663ff7e88ec6040518163ffffffff1660e01b815260040160206040518083038186803b15801561248e57600080fd5b505afa1580156124a2573d6000803e3d6000fd5b505050506040513d601f19601f820116820180604052508101906124c69190612f39565b601a60156101000a81548160ff021916908315150217905550601a60009054906101000a90046001600160a01b03166001600160a01b0316632fb565856040518163ffffffff1660e01b815260040160206040518083038186803b15801561252d57600080fd5b505afa158015612541573d6000803e3d6000fd5b505050506040513d601f19601f820116820180604052508101906125659190612f39565b601a8054911515600160b01b0260ff60b01b19909216919091179055565b6000610ce38383612b35565b600061259f600880546001019055565b60006125aa60085490565b90507f8030e83b04d87bef53480e26263266d6ca66863aa8506aca6f2559d18aa1cb67816040516125dd91815260200190565b60405180910390a1919050565b6000610881825490565b60008281526009602052604090206001015461261081336128ba565b610a29838361291e565b601a60009054906101000a90046001600160a01b03166001600160a01b031663a44b93256040518163ffffffff1660e01b815260040160206040518083038186803b15801561266857600080fd5b505afa15801561267c573d6000803e3d6000fd5b505050506040513d601f19601f820116820180604052508101906126a09190612f39565b6126a957600080fd5b601a60009054906101000a90046001600160a01b03166001600160a01b031663ac7cfac36040518163ffffffff1660e01b815260040160206040518083038186803b1580156126f757600080fd5b505afa15801561270b573d6000803e3d6000fd5b505050506040513d601f19601f8201168201806040525081019061272f9190612e59565b600b80546001600160a01b0319166001600160a01b0392909216919091179055565b61275b8282610cea565b6109425760008281526009602090815260408083206001600160a01b03851684529091529020805460ff191660011790556127933390565b6001600160a01b0316816001600160a01b0316837f2f8788117e7eff1d82e926ec794901d17c78024a50270940304540a733656f0d60405160405180910390a45050565b600081815260018301602052604081205461281e57508154600181810184556000848152602080822090930184905584548482528286019093526040902091909155610881565b506000610881565b6001600160a01b0381166000908152600560209081526040808320918390529091205461094e9190612bbb565b612bbb565b610a46600661285360025490565b601a54600160c81b900460ff1680156128885750601a54600160a01b900460ff165b156128af576128a56000805160206132c683398151915233610cea565b156128af57600080fd5b610a29838383611043565b6128c48282610cea565b610942576128dc816001600160a01b03166014612c06565b6128e7836020612c06565b6040516020016128f8929190612ff9565b60408051601f198184030181529082905262461bcd60e51b82526109df9160040161306e565b6129288282610cea565b156109425760008281526009602090815260408083206001600160a01b0385168085529252808320805460ff1916905551339285917ff6391f5c32d9c69d2a47ea670b442974b53935d1edc7fd64eb21e047a839171b9190a45050565b60008181526001830160205260408120548015612a685760006129a96001836130ec565b85549091506000906129bd906001906130ec565b905060008660000182815481106129d6576129d66131f6565b90600052602060002001549050808760000184815481106129f9576129f96131f6565b600091825260208083209091019290925582815260018901909152604090208490558654879080612a2c57612a2c6131e0565b60019003818190600052602060002001600090559055866001016000878152602001908152602001600020600090556001945050505050610881565b6000915050610881565b8154600090612a8357506000610881565b82546000905b80821015612adf576000612a9d8383612da2565b905084868281548110612ab257612ab26131f6565b90600052602060002001541115612acb57809150612ad9565b612ad68160016130a1565b92505b50612a89565b600082118015612b1457508385612af76001856130ec565b81548110612b0757612b076131f6565b9060005260206000200154145b15612b2d57612b246001836130ec565b92505050610881565b509050610881565b81546000908210612b935760405162461bcd60e51b815260206004820152602260248201527f456e756d657261626c655365743a20696e646578206f7574206f6620626f756e604482015261647360f01b60648201526084016109df565b826000018281548110612ba857612ba86131f6565b9060005260206000200154905092915050565b6000612bc660085490565b905080612bd284612df9565b1015610a29578254600180820185556000858152602080822090930193909355938401805494850181558252902090910155565b60606000612c158360026130cd565b612c209060026130a1565b67ffffffffffffffff811115612c3857612c3861320c565b6040519080825280601f01601f191660200182016040528015612c62576020820181803683370190505b509050600360fc1b81600081518110612c7d57612c7d6131f6565b60200101906001600160f81b031916908160001a905350600f60fb1b81600181518110612cac57612cac6131f6565b60200101906001600160f81b031916908160001a9053506000612cd08460026130cd565b612cdb9060016130a1565b90505b6001811115612d53576f181899199a1a9b1b9c1cb0b131b232b360811b85600f1660108110612d0f57612d0f6131f6565b1a60f81b828281518110612d2557612d256131f6565b60200101906001600160f81b031916908160001a90535060049490941c93612d4c81613133565b9050612cde565b508315610ce35760405162461bcd60e51b815260206004820181905260248201527f537472696e67733a20686578206c656e67746820696e73756666696369656e7460448201526064016109df565b60006002612db081846131a0565b612dbb6002866131a0565b612dc591906130a1565b612dcf91906130b9565b612dda6002846130b9565b612de56002866130b9565b612def91906130a1565b610ce391906130a1565b8054600090612e0a57506000919050565b81548290612e1a906001906130ec565b81548110612e2a57612e2a6131f6565b90600052602060002001549050919050565b600060208284031215612e4e57600080fd5b8135610ce381613222565b600060208284031215612e6b57600080fd5b8151610ce381613222565b60008060408385031215612e8957600080fd5b8235612e9481613222565b91506020830135612ea481613222565b809150509250929050565b600080600060608486031215612ec457600080fd5b8335612ecf81613222565b92506020840135612edf81613222565b929592945050506040919091013590565b60008060408385031215612f0357600080fd5b8235612f0e81613222565b946020939093013593505050565b600060208284031215612f2e57600080fd5b8135610ce381613237565b600060208284031215612f4b57600080fd5b8151610ce381613237565b600060208284031215612f6857600080fd5b5035919050565b60008060408385031215612f8257600080fd5b823591506020830135612ea481613222565b60008060408385031215612fa757600080fd5b50508035926020909101359150565b600060208284031215612fc857600080fd5b81356001600160e01b031981168114610ce357600080fd5b600060208284031215612ff257600080fd5b5051919050565b7f416363657373436f6e74726f6c3a206163636f756e7420000000000000000000815260008351613031816017850160208801613103565b7001034b99036b4b9b9b4b733903937b6329607d1b6017918401918201528351613062816028840160208801613103565b01602801949350505050565b602081526000825180602084015261308d816040850160208701613103565b601f01601f19169190910160400192915050565b600082198211156130b4576130b46131b4565b500190565b6000826130c8576130c86131ca565b500490565b60008160001904831182151516156130e7576130e76131b4565b500290565b6000828210156130fe576130fe6131b4565b500390565b60005b8381101561311e578181015183820152602001613106565b8381111561312d576000848401525b50505050565b600081613142576131426131b4565b506000190190565b600181811c9082168061315e57607f821691505b6020821081141561317f57634e487b7160e01b600052602260045260246000fd5b50919050565b6000600019821415613199576131996131b4565b5060010190565b6000826131af576131af6131ca565b500690565b634e487b7160e01b600052601160045260246000fd5b634e487b7160e01b600052601260045260246000fd5b634e487b7160e01b600052603160045260246000fd5b634e487b7160e01b600052603260045260246000fd5b634e487b7160e01b600052604160045260246000fd5b6001600160a01b038116811461094e57600080fd5b801515811461094e57600080fdfefa8e4989e1d689f7bc5c4b25b87efb51fecdecb19ba62847e29c759e12a89acd048bc71fa1cb2c119c339cf9cf00a97996a19a9d991ce5fe049f2fa5459e7990f0f4b159a6e2a4815eb3ca3df080bfa70c9270662c59bcaa4479a456220183e60538d24a8b7882d7b2e36af243d4af61c23e86e3daa6cb8c887b53220b2f57207c9d7f6f02908185bffb3f7fc9afb29fd7bf93675af8fd4b655ee05c2cee1e0ea2646970667358221220c25ae9553bee0694d13f4c2ed614b3c84523d39b179270fb532aa3857abffd9964736f6c63430008060033",
  "immutableReferences": {},
  "source": "// Disclaimer: I have literally no idea what I'm doing so take that as you will.\n// Now that thats out of the way, feel free to help improve this!\n\npragma solidity ^0.8.0;\n\nimport \"@openzeppelin/contracts/token/ERC20/ERC20.sol\";\nimport \"@openzeppelin/contracts/token/ERC20/extensions/ERC20Snapshot.sol\";\nimport \"../src/SmartConsensusMachine.sol\";\n\n// Token features:\n// Snapshot for governance and distrubutions\n// Burnable\n// Fixed Supply\n// Gassless Permit (Draft EIP)\n\ncontract Gavels is ERC20, ERC20Snapshot, SmartConsensusMachine {\n\n \n    /******************************************************\n    * JERK SANCTIONS:\n    *   if 'jerkSanctionIsOn' is enabled, this prohibits jerks from using thier Gavels.    *\n    *\n    * FOREVER_DISABLE_SANCTIONS:\n    *   if this setting is set to true, Jerk sanctions will be disabled forever.\n    *   THIS IS NOT REVERSABLE!\n    */\n\n    bool public SANCTIONS_FOREVER_DISABLED = false;\n    bool public jerkSanctionsLocal = false;\n\n    /***********************************************/\n\n\n    constructor(address _AddressManagerAddress) ERC20(\"Gavels\", \"Gavel\") SmartConsensusMachine(_AddressManagerAddress) {\n        _mint(address(this), 2 * 10 ** 18);\n        _mint(TreasuryAddress, 248 * 10 ** 18);\n    }\n\n\n    //***********************************************************\n    // The DAO may choose to prohibit Jerks from using Gavels\n    //********************************************************* */\n    function switchLocalJerkSanctions(bool turnOnSanctions) public GAVELS {\n        require(!SANCTIONS_FOREVER_DISABLED);\n\n        jerkSanctionsLocal = turnOnSanctions;\n\n    }\n\n    // This will disable the sanctions function forever (incase it was a bad idea or poses a security issue)\n    function foreverDisableJerkSanctions(bool safteySwitch) public GAVELS {\n        // The Saftey Switch should be set to FALSE for the function to be properly executed.\n        require(!safteySwitch && !SANCTIONS_FOREVER_DISABLED);\n        jerkSanctionsLocal = false;\n        SANCTIONS_FOREVER_DISABLED = true;\n    }\n\n    /**************************************************************************\n    ***************************************************************************/\n    \n\n    // Take a snapshot of token holders (Must be the recorder, bailiff, or court)\n     function snapshot() public MINI_BAILIFF {\n        _snapshot();\n    }\n\n\n    // Only needed in the event jerk sanctions are turned on.\n    function _beforeTokenTransfer(address from, address to, uint256 amount)\n        internal\n        override(ERC20, ERC20Snapshot)\n    {\n        if (jerkSanctionsLocal && jerkSanctions) {\n           require(!hasRole(JERK_ROLE, msg.sender)); \n        }\n        super._beforeTokenTransfer(from, to, amount);\n    }\n}",
  "sourcePath": "/home/n/Desktop/PinkSlips_FrontEnd_REFORMAT/contracts/govTokens/Gavels.sol",
  "compiler": {
    "name": "solc",
    "version": "0.8.6+commit.11564f7e.Emscripten.clang"
  },
  "schemaVersion": "3.4.1",
  "updatedAt": "2021-08-06T05:30:52.865Z",
  "networkType": "ethereum",
  "devdoc": {
    "kind": "dev",
    "methods": {
      "allowance(address,address)": {
        "details": "See {IERC20-allowance}."
      },
      "approve(address,uint256)": {
        "details": "See {IERC20-approve}. Requirements: - `spender` cannot be the zero address."
      },
      "balanceOf(address)": {
        "details": "See {IERC20-balanceOf}."
      },
      "balanceOfAt(address,uint256)": {
        "details": "Retrieves the balance of `account` at the time `snapshotId` was created."
      },
      "decimals()": {
        "details": "Returns the number of decimals used to get its user representation. For example, if `decimals` equals `2`, a balance of `505` tokens should be displayed to a user as `5,05` (`505 / 10 ** 2`). Tokens usually opt for a value of 18, imitating the relationship between Ether and Wei. This is the value {ERC20} uses, unless this function is overridden; NOTE: This information is only used for _display_ purposes: it in no way affects any of the arithmetic of the contract, including {IERC20-balanceOf} and {IERC20-transfer}."
      },
      "decreaseAllowance(address,uint256)": {
        "details": "Atomically decreases the allowance granted to `spender` by the caller. This is an alternative to {approve} that can be used as a mitigation for problems described in {IERC20-approve}. Emits an {Approval} event indicating the updated allowance. Requirements: - `spender` cannot be the zero address. - `spender` must have allowance for the caller of at least `subtractedValue`."
      },
      "getRoleAdmin(bytes32)": {
        "details": "Returns the admin role that controls `role`. See {grantRole} and {revokeRole}. To change a role's admin, use {_setRoleAdmin}."
      },
      "getRoleMember(bytes32,uint256)": {
        "details": "Returns one of the accounts that have `role`. `index` must be a value between 0 and {getRoleMemberCount}, non-inclusive. Role bearers are not sorted in any particular way, and their ordering may change at any point. WARNING: When using {getRoleMember} and {getRoleMemberCount}, make sure you perform all queries on the same block. See the following https://forum.openzeppelin.com/t/iterating-over-elements-on-enumerableset-in-openzeppelin-contracts/2296[forum post] for more information."
      },
      "getRoleMemberCount(bytes32)": {
        "details": "Returns the number of accounts that have `role`. Can be used together with {getRoleMember} to enumerate all bearers of a role."
      },
      "grantRole(bytes32,address)": {
        "details": "Overload {grantRole} to track enumerable memberships"
      },
      "hasRole(bytes32,address)": {
        "details": "Returns `true` if `account` has been granted `role`."
      },
      "increaseAllowance(address,uint256)": {
        "details": "Atomically increases the allowance granted to `spender` by the caller. This is an alternative to {approve} that can be used as a mitigation for problems described in {IERC20-approve}. Emits an {Approval} event indicating the updated allowance. Requirements: - `spender` cannot be the zero address."
      },
      "name()": {
        "details": "Returns the name of the token."
      },
      "renounceRole(bytes32,address)": {
        "details": "Overload {renounceRole} to track enumerable memberships"
      },
      "revokeRole(bytes32,address)": {
        "details": "Overload {revokeRole} to track enumerable memberships"
      },
      "supportsInterface(bytes4)": {
        "details": "See {IERC165-supportsInterface}."
      },
      "symbol()": {
        "details": "Returns the symbol of the token, usually a shorter version of the name."
      },
      "totalSupply()": {
        "details": "See {IERC20-totalSupply}."
      },
      "totalSupplyAt(uint256)": {
        "details": "Retrieves the total supply at the time `snapshotId` was created."
      },
      "transfer(address,uint256)": {
        "details": "See {IERC20-transfer}. Requirements: - `recipient` cannot be the zero address. - the caller must have a balance of at least `amount`."
      },
      "transferFrom(address,address,uint256)": {
        "details": "See {IERC20-transferFrom}. Emits an {Approval} event indicating the updated allowance. This is not required by the EIP. See the note at the beginning of {ERC20}. Requirements: - `sender` and `recipient` cannot be the zero address. - `sender` must have a balance of at least `amount`. - the caller must have allowance for ``sender``'s tokens of at least `amount`."
      }
    },
    "version": 1
  },
  "userdoc": {
    "kind": "user",
    "methods": {},
    "version": 1
  }
}