{
  "contractName": "Gavels",
  "abi": [
    {
      "inputs": [
        {
          "internalType": "address",
          "name": "_AddressManagerAddress",
          "type": "address"
        }
      ],
      "stateMutability": "nonpayable",
      "type": "constructor"
    },
    {
      "anonymous": false,
      "inputs": [
        {
          "indexed": true,
          "internalType": "address",
          "name": "owner",
          "type": "address"
        },
        {
          "indexed": true,
          "internalType": "address",
          "name": "spender",
          "type": "address"
        },
        {
          "indexed": false,
          "internalType": "uint256",
          "name": "value",
          "type": "uint256"
        }
      ],
      "name": "Approval",
      "type": "event"
    },
    {
      "anonymous": false,
      "inputs": [
        {
          "indexed": true,
          "internalType": "bytes32",
          "name": "role",
          "type": "bytes32"
        },
        {
          "indexed": true,
          "internalType": "bytes32",
          "name": "previousAdminRole",
          "type": "bytes32"
        },
        {
          "indexed": true,
          "internalType": "bytes32",
          "name": "newAdminRole",
          "type": "bytes32"
        }
      ],
      "name": "RoleAdminChanged",
      "type": "event"
    },
    {
      "anonymous": false,
      "inputs": [
        {
          "indexed": true,
          "internalType": "bytes32",
          "name": "role",
          "type": "bytes32"
        },
        {
          "indexed": true,
          "internalType": "address",
          "name": "account",
          "type": "address"
        },
        {
          "indexed": true,
          "internalType": "address",
          "name": "sender",
          "type": "address"
        }
      ],
      "name": "RoleGranted",
      "type": "event"
    },
    {
      "anonymous": false,
      "inputs": [
        {
          "indexed": true,
          "internalType": "bytes32",
          "name": "role",
          "type": "bytes32"
        },
        {
          "indexed": true,
          "internalType": "address",
          "name": "account",
          "type": "address"
        },
        {
          "indexed": true,
          "internalType": "address",
          "name": "sender",
          "type": "address"
        }
      ],
      "name": "RoleRevoked",
      "type": "event"
    },
    {
      "anonymous": false,
      "inputs": [
        {
          "indexed": false,
          "internalType": "uint256",
          "name": "id",
          "type": "uint256"
        }
      ],
      "name": "Snapshot",
      "type": "event"
    },
    {
      "anonymous": false,
      "inputs": [
        {
          "indexed": true,
          "internalType": "address",
          "name": "from",
          "type": "address"
        },
        {
          "indexed": true,
          "internalType": "address",
          "name": "to",
          "type": "address"
        },
        {
          "indexed": false,
          "internalType": "uint256",
          "name": "value",
          "type": "uint256"
        }
      ],
      "name": "Transfer",
      "type": "event"
    },
    {
      "inputs": [],
      "name": "AddressManagerAddress",
      "outputs": [
        {
          "internalType": "address",
          "name": "",
          "type": "address"
        }
      ],
      "stateMutability": "view",
      "type": "function",
      "constant": true
    },
    {
      "inputs": [],
      "name": "ChadBadgeAddress",
      "outputs": [
        {
          "internalType": "address",
          "name": "",
          "type": "address"
        }
      ],
      "stateMutability": "view",
      "type": "function",
      "constant": true
    },
    {
      "inputs": [],
      "name": "DEFAULT_ADMIN_ROLE",
      "outputs": [
        {
          "internalType": "bytes32",
          "name": "",
          "type": "bytes32"
        }
      ],
      "stateMutability": "view",
      "type": "function",
      "constant": true
    },
    {
      "inputs": [],
      "name": "GAVELS_BAILIFF",
      "outputs": [
        {
          "internalType": "bytes32",
          "name": "",
          "type": "bytes32"
        }
      ],
      "stateMutability": "view",
      "type": "function",
      "constant": true
    },
    {
      "inputs": [],
      "name": "GavelDAOAgent",
      "outputs": [
        {
          "internalType": "address",
          "name": "",
          "type": "address"
        }
      ],
      "stateMutability": "view",
      "type": "function",
      "constant": true
    },
    {
      "inputs": [],
      "name": "GavelTokenAddress",
      "outputs": [
        {
          "internalType": "address",
          "name": "",
          "type": "address"
        }
      ],
      "stateMutability": "view",
      "type": "function",
      "constant": true
    },
    {
      "inputs": [],
      "name": "GavelVote",
      "outputs": [
        {
          "internalType": "bool",
          "name": "",
          "type": "bool"
        }
      ],
      "stateMutability": "view",
      "type": "function",
      "constant": true
    },
    {
      "inputs": [],
      "name": "GoldStarAddress",
      "outputs": [
        {
          "internalType": "address",
          "name": "",
          "type": "address"
        }
      ],
      "stateMutability": "view",
      "type": "function",
      "constant": true
    },
    {
      "inputs": [],
      "name": "JERK_ROLE",
      "outputs": [
        {
          "internalType": "bytes32",
          "name": "",
          "type": "bytes32"
        }
      ],
      "stateMutability": "view",
      "type": "function",
      "constant": true
    },
    {
      "inputs": [],
      "name": "JURY_BAILIFF",
      "outputs": [
        {
          "internalType": "bytes32",
          "name": "",
          "type": "bytes32"
        }
      ],
      "stateMutability": "view",
      "type": "function",
      "constant": true
    },
    {
      "inputs": [],
      "name": "JuryDAOAgent",
      "outputs": [
        {
          "internalType": "address",
          "name": "",
          "type": "address"
        }
      ],
      "stateMutability": "view",
      "type": "function",
      "constant": true
    },
    {
      "inputs": [],
      "name": "JuryPoolAddress",
      "outputs": [
        {
          "internalType": "address",
          "name": "",
          "type": "address"
        }
      ],
      "stateMutability": "view",
      "type": "function",
      "constant": true
    },
    {
      "inputs": [],
      "name": "JuryVote",
      "outputs": [
        {
          "internalType": "bool",
          "name": "",
          "type": "bool"
        }
      ],
      "stateMutability": "view",
      "type": "function",
      "constant": true
    },
    {
      "inputs": [],
      "name": "MINI_BAILIFF_ROLE",
      "outputs": [
        {
          "internalType": "bytes32",
          "name": "",
          "type": "bytes32"
        }
      ],
      "stateMutability": "view",
      "type": "function",
      "constant": true
    },
    {
      "inputs": [],
      "name": "MiniBailiff",
      "outputs": [
        {
          "internalType": "address",
          "name": "",
          "type": "address"
        }
      ],
      "stateMutability": "view",
      "type": "function",
      "constant": true
    },
    {
      "inputs": [],
      "name": "PinkSlipAddress",
      "outputs": [
        {
          "internalType": "address",
          "name": "",
          "type": "address"
        }
      ],
      "stateMutability": "view",
      "type": "function",
      "constant": true
    },
    {
      "inputs": [],
      "name": "RedPenTokenAddress",
      "outputs": [
        {
          "internalType": "address",
          "name": "",
          "type": "address"
        }
      ],
      "stateMutability": "view",
      "type": "function",
      "constant": true
    },
    {
      "inputs": [],
      "name": "SANCTIONS_FOREVER_DISABLED",
      "outputs": [
        {
          "internalType": "bool",
          "name": "",
          "type": "bool"
        }
      ],
      "stateMutability": "view",
      "type": "function",
      "constant": true
    },
    {
      "inputs": [],
      "name": "THE_COURT_ROLE",
      "outputs": [
        {
          "internalType": "bytes32",
          "name": "",
          "type": "bytes32"
        }
      ],
      "stateMutability": "view",
      "type": "function",
      "constant": true
    },
    {
      "inputs": [],
      "name": "TheCourtAddress",
      "outputs": [
        {
          "internalType": "address",
          "name": "",
          "type": "address"
        }
      ],
      "stateMutability": "view",
      "type": "function",
      "constant": true
    },
    {
      "inputs": [],
      "name": "TreasuryAddress",
      "outputs": [
        {
          "internalType": "address",
          "name": "",
          "type": "address"
        }
      ],
      "stateMutability": "view",
      "type": "function",
      "constant": true
    },
    {
      "inputs": [],
      "name": "addressManager",
      "outputs": [
        {
          "internalType": "contract AddressManager",
          "name": "",
          "type": "address"
        }
      ],
      "stateMutability": "view",
      "type": "function",
      "constant": true
    },
    {
      "inputs": [
        {
          "internalType": "address",
          "name": "owner",
          "type": "address"
        },
        {
          "internalType": "address",
          "name": "spender",
          "type": "address"
        }
      ],
      "name": "allowance",
      "outputs": [
        {
          "internalType": "uint256",
          "name": "",
          "type": "uint256"
        }
      ],
      "stateMutability": "view",
      "type": "function",
      "constant": true
    },
    {
      "inputs": [
        {
          "internalType": "address",
          "name": "spender",
          "type": "address"
        },
        {
          "internalType": "uint256",
          "name": "amount",
          "type": "uint256"
        }
      ],
      "name": "approve",
      "outputs": [
        {
          "internalType": "bool",
          "name": "",
          "type": "bool"
        }
      ],
      "stateMutability": "nonpayable",
      "type": "function"
    },
    {
      "inputs": [
        {
          "internalType": "address",
          "name": "account",
          "type": "address"
        }
      ],
      "name": "balanceOf",
      "outputs": [
        {
          "internalType": "uint256",
          "name": "",
          "type": "uint256"
        }
      ],
      "stateMutability": "view",
      "type": "function",
      "constant": true
    },
    {
      "inputs": [
        {
          "internalType": "address",
          "name": "account",
          "type": "address"
        },
        {
          "internalType": "uint256",
          "name": "snapshotId",
          "type": "uint256"
        }
      ],
      "name": "balanceOfAt",
      "outputs": [
        {
          "internalType": "uint256",
          "name": "",
          "type": "uint256"
        }
      ],
      "stateMutability": "view",
      "type": "function",
      "constant": true
    },
    {
      "inputs": [],
      "name": "decimals",
      "outputs": [
        {
          "internalType": "uint8",
          "name": "",
          "type": "uint8"
        }
      ],
      "stateMutability": "view",
      "type": "function",
      "constant": true
    },
    {
      "inputs": [
        {
          "internalType": "address",
          "name": "spender",
          "type": "address"
        },
        {
          "internalType": "uint256",
          "name": "subtractedValue",
          "type": "uint256"
        }
      ],
      "name": "decreaseAllowance",
      "outputs": [
        {
          "internalType": "bool",
          "name": "",
          "type": "bool"
        }
      ],
      "stateMutability": "nonpayable",
      "type": "function"
    },
    {
      "inputs": [
        {
          "internalType": "bytes32",
          "name": "role",
          "type": "bytes32"
        }
      ],
      "name": "getRoleAdmin",
      "outputs": [
        {
          "internalType": "bytes32",
          "name": "",
          "type": "bytes32"
        }
      ],
      "stateMutability": "view",
      "type": "function",
      "constant": true
    },
    {
      "inputs": [
        {
          "internalType": "bytes32",
          "name": "role",
          "type": "bytes32"
        },
        {
          "internalType": "uint256",
          "name": "index",
          "type": "uint256"
        }
      ],
      "name": "getRoleMember",
      "outputs": [
        {
          "internalType": "address",
          "name": "",
          "type": "address"
        }
      ],
      "stateMutability": "view",
      "type": "function",
      "constant": true
    },
    {
      "inputs": [
        {
          "internalType": "bytes32",
          "name": "role",
          "type": "bytes32"
        }
      ],
      "name": "getRoleMemberCount",
      "outputs": [
        {
          "internalType": "uint256",
          "name": "",
          "type": "uint256"
        }
      ],
      "stateMutability": "view",
      "type": "function",
      "constant": true
    },
    {
      "inputs": [
        {
          "internalType": "bytes32",
          "name": "role",
          "type": "bytes32"
        },
        {
          "internalType": "address",
          "name": "account",
          "type": "address"
        }
      ],
      "name": "grantRole",
      "outputs": [],
      "stateMutability": "nonpayable",
      "type": "function"
    },
    {
      "inputs": [
        {
          "internalType": "bytes32",
          "name": "role",
          "type": "bytes32"
        },
        {
          "internalType": "address",
          "name": "account",
          "type": "address"
        }
      ],
      "name": "hasRole",
      "outputs": [
        {
          "internalType": "bool",
          "name": "",
          "type": "bool"
        }
      ],
      "stateMutability": "view",
      "type": "function",
      "constant": true
    },
    {
      "inputs": [
        {
          "internalType": "address",
          "name": "spender",
          "type": "address"
        },
        {
          "internalType": "uint256",
          "name": "addedValue",
          "type": "uint256"
        }
      ],
      "name": "increaseAllowance",
      "outputs": [
        {
          "internalType": "bool",
          "name": "",
          "type": "bool"
        }
      ],
      "stateMutability": "nonpayable",
      "type": "function"
    },
    {
      "inputs": [],
      "name": "jerkSanctions",
      "outputs": [
        {
          "internalType": "bool",
          "name": "",
          "type": "bool"
        }
      ],
      "stateMutability": "view",
      "type": "function",
      "constant": true
    },
    {
      "inputs": [],
      "name": "jerkSanctionsLocal",
      "outputs": [
        {
          "internalType": "bool",
          "name": "",
          "type": "bool"
        }
      ],
      "stateMutability": "view",
      "type": "function",
      "constant": true
    },
    {
      "inputs": [],
      "name": "name",
      "outputs": [
        {
          "internalType": "string",
          "name": "",
          "type": "string"
        }
      ],
      "stateMutability": "view",
      "type": "function",
      "constant": true
    },
    {
      "inputs": [
        {
          "internalType": "bytes32",
          "name": "role",
          "type": "bytes32"
        },
        {
          "internalType": "address",
          "name": "account",
          "type": "address"
        }
      ],
      "name": "renounceRole",
      "outputs": [],
      "stateMutability": "nonpayable",
      "type": "function"
    },
    {
      "inputs": [],
      "name": "resetVote",
      "outputs": [],
      "stateMutability": "nonpayable",
      "type": "function"
    },
    {
      "inputs": [
        {
          "internalType": "bytes32",
          "name": "role",
          "type": "bytes32"
        },
        {
          "internalType": "address",
          "name": "account",
          "type": "address"
        }
      ],
      "name": "revokeRole",
      "outputs": [],
      "stateMutability": "nonpayable",
      "type": "function"
    },
    {
      "inputs": [
        {
          "internalType": "bytes4",
          "name": "interfaceId",
          "type": "bytes4"
        }
      ],
      "name": "supportsInterface",
      "outputs": [
        {
          "internalType": "bool",
          "name": "",
          "type": "bool"
        }
      ],
      "stateMutability": "view",
      "type": "function",
      "constant": true
    },
    {
      "inputs": [],
      "name": "symbol",
      "outputs": [
        {
          "internalType": "string",
          "name": "",
          "type": "string"
        }
      ],
      "stateMutability": "view",
      "type": "function",
      "constant": true
    },
    {
      "inputs": [],
      "name": "syncAllRoles",
      "outputs": [],
      "stateMutability": "nonpayable",
      "type": "function"
    },
    {
      "inputs": [
        {
          "internalType": "bytes32",
          "name": "ROLE_TO_SYNC",
          "type": "bytes32"
        }
      ],
      "name": "syncSingleRole",
      "outputs": [],
      "stateMutability": "nonpayable",
      "type": "function"
    },
    {
      "inputs": [],
      "name": "syncVotes",
      "outputs": [],
      "stateMutability": "nonpayable",
      "type": "function"
    },
    {
      "inputs": [],
      "name": "totalSupply",
      "outputs": [
        {
          "internalType": "uint256",
          "name": "",
          "type": "uint256"
        }
      ],
      "stateMutability": "view",
      "type": "function",
      "constant": true
    },
    {
      "inputs": [
        {
          "internalType": "uint256",
          "name": "snapshotId",
          "type": "uint256"
        }
      ],
      "name": "totalSupplyAt",
      "outputs": [
        {
          "internalType": "uint256",
          "name": "",
          "type": "uint256"
        }
      ],
      "stateMutability": "view",
      "type": "function",
      "constant": true
    },
    {
      "inputs": [
        {
          "internalType": "address",
          "name": "recipient",
          "type": "address"
        },
        {
          "internalType": "uint256",
          "name": "amount",
          "type": "uint256"
        }
      ],
      "name": "transfer",
      "outputs": [
        {
          "internalType": "bool",
          "name": "",
          "type": "bool"
        }
      ],
      "stateMutability": "nonpayable",
      "type": "function"
    },
    {
      "inputs": [
        {
          "internalType": "address",
          "name": "sender",
          "type": "address"
        },
        {
          "internalType": "address",
          "name": "recipient",
          "type": "address"
        },
        {
          "internalType": "uint256",
          "name": "amount",
          "type": "uint256"
        }
      ],
      "name": "transferFrom",
      "outputs": [
        {
          "internalType": "bool",
          "name": "",
          "type": "bool"
        }
      ],
      "stateMutability": "nonpayable",
      "type": "function"
    },
    {
      "inputs": [],
      "name": "updateAddressManager",
      "outputs": [],
      "stateMutability": "nonpayable",
      "type": "function"
    },
    {
      "inputs": [],
      "name": "updateAllAddresses",
      "outputs": [],
      "stateMutability": "nonpayable",
      "type": "function"
    },
    {
      "inputs": [],
      "name": "updateAllRoles",
      "outputs": [],
      "stateMutability": "nonpayable",
      "type": "function"
    },
    {
      "inputs": [],
      "name": "updateDAOAddresses",
      "outputs": [],
      "stateMutability": "nonpayable",
      "type": "function"
    },
    {
      "inputs": [
        {
          "internalType": "bytes32",
          "name": "ROLE_TO_UPDATE",
          "type": "bytes32"
        }
      ],
      "name": "updateSingleRole",
      "outputs": [],
      "stateMutability": "nonpayable",
      "type": "function"
    },
    {
      "inputs": [],
      "name": "updateTokenAddresses",
      "outputs": [],
      "stateMutability": "nonpayable",
      "type": "function"
    },
    {
      "inputs": [
        {
          "internalType": "bool",
          "name": "turnOnSanctions",
          "type": "bool"
        }
      ],
      "name": "switchLocalJerkSanctions",
      "outputs": [],
      "stateMutability": "nonpayable",
      "type": "function"
    },
    {
      "inputs": [
        {
          "internalType": "bool",
          "name": "safteySwitch",
          "type": "bool"
        }
      ],
      "name": "foreverDisableJerkSanctions",
      "outputs": [],
      "stateMutability": "nonpayable",
      "type": "function"
    },
    {
      "inputs": [],
      "name": "snapshot",
      "outputs": [],
      "stateMutability": "nonpayable",
      "type": "function"
    }
  ],
  "bytecode": "0x60806040526017805465ffffffffffff60a01b191690553480156200002357600080fd5b506040516200423c3803806200423c833981016040819052620000469162000ea6565b6040805180820182526006815265476176656c7360d01b60208083019182528351808501909452600584526411d85d995b60da1b90840152815184938493929091620000959160039162000e00565b508051620000ab90600490602084019062000e00565b5050600b80546001600160a01b03199081166001600160a01b039485161791829055601780549290941691161790915550620000e662000247565b620000f06200025d565b6015546200010a906000906001600160a01b0316620003a1565b60155462000143907f0538d24a8b7882d7b2e36af243d4af61c23e86e3daa6cb8c887b53220b2f5720906001600160a01b0316620003a1565b6012546200017c907f048bc71fa1cb2c119c339cf9cf00a97996a19a9d991ce5fe049f2fa5459e7990906001600160a01b0316620003a1565b601354620001b5907ffa8e4989e1d689f7bc5c4b25b87efb51fecdecb19ba62847e29c759e12a89acd906001600160a01b0316620003a1565b601654620001ee907ff0f4b159a6e2a4815eb3ca3df080bfa70c9270662c59bcaa4479a456220183e6906001600160a01b0316620003a1565b6200020a6000805160206200421c8339815191526000620003a1565b506200021f30671bc16d674ec80000620003e4565b60145462000240906001600160a01b0316680d71b0fe0a28e00000620003e4565b5062000fc0565b62000251620004b8565b6200025b62000723565b565b601760009054906101000a90046001600160a01b03166001600160a01b031663ff7e88ec6040518163ffffffff1660e01b815260040160206040518083038186803b158015620002ac57600080fd5b505afa158015620002c1573d6000803e3d6000fd5b505050506040513d601f19601f82011682018060405250810190620002e7919062000ed6565b60178054911515600160a81b0260ff60a81b19909216919091179081905560408051632fb5658560e01b815290516001600160a01b0390921691632fb5658591600480820192602092909190829003018186803b1580156200034857600080fd5b505afa1580156200035d573d6000803e3d6000fd5b505050506040513d601f19601f8201168201806040525081019062000383919062000ed6565b60178054911515600160b01b0260ff60b01b19909216919091179055565b620003b8828262000ab860201b62000f6c1760201c565b6000828152600a60209081526040909120620003df91839062000f7662000ac8821b17901c565b505050565b6001600160a01b038216620004165760405162461bcd60e51b81526004016200040d9062000ef8565b60405180910390fd5b620004246000838362000ae8565b806002600082825462000438919062000f38565b90915550506001600160a01b038216600090815260208190526040812080548392906200046790849062000f38565b90915550506040516001600160a01b038316906000907fddf252ad1be2c89b69c2b068fc378daa952ba7f163c4a11628f55a4df523b3ef90620004ac90859062000f2f565b60405180910390a35050565b601760009054906101000a90046001600160a01b03166001600160a01b031663dadf56ac6040518163ffffffff1660e01b815260040160206040518083038186803b1580156200050757600080fd5b505afa1580156200051c573d6000803e3d6000fd5b505050506040513d601f19601f8201168201806040525081019062000542919062000ea6565b601280546001600160a01b0319166001600160a01b039283161790556017546040805163024bebe960e01b81529051919092169163024bebe9916004808301926020929190829003018186803b1580156200059c57600080fd5b505afa158015620005b1573d6000803e3d6000fd5b505050506040513d601f19601f82011682018060405250810190620005d7919062000ea6565b601380546001600160a01b0319166001600160a01b0392831617905560175460408051635b5c251f60e01b815290519190921691635b5c251f916004808301926020929190829003018186803b1580156200063157600080fd5b505afa15801562000646573d6000803e3d6000fd5b505050506040513d601f19601f820116820180604052508101906200066c919062000ea6565b601480546001600160a01b0319166001600160a01b0392831617905560175460408051637310bf1d60e11b81529051919092169163e6217e3a916004808301926020929190829003018186803b158015620006c657600080fd5b505afa158015620006db573d6000803e3d6000fd5b505050506040513d601f19601f8201168201806040525081019062000701919062000ea6565b601680546001600160a01b0319166001600160a01b0392909216919091179055565b601760009054906101000a90046001600160a01b03166001600160a01b03166321d7f0086040518163ffffffff1660e01b815260040160206040518083038186803b1580156200077257600080fd5b505afa15801562000787573d6000803e3d6000fd5b505050506040513d601f19601f82011682018060405250810190620007ad919062000ea6565b600c80546001600160a01b0319166001600160a01b039283161790556017546040805163762ddb5960e01b81529051919092169163762ddb59916004808301926020929190829003018186803b1580156200080757600080fd5b505afa1580156200081c573d6000803e3d6000fd5b505050506040513d601f19601f8201168201806040525081019062000842919062000ea6565b600d80546001600160a01b0319166001600160a01b039283161790556017546040805163bfb7dc9960e01b81529051919092169163bfb7dc99916004808301926020929190829003018186803b1580156200089c57600080fd5b505afa158015620008b1573d6000803e3d6000fd5b505050506040513d601f19601f82011682018060405250810190620008d7919062000ea6565b600e80546001600160a01b0319166001600160a01b0392831617905560175460408051633e6111eb60e21b81529051919092169163f98447ac916004808301926020929190829003018186803b1580156200093157600080fd5b505afa15801562000946573d6000803e3d6000fd5b505050506040513d601f19601f820116820180604052508101906200096c919062000ea6565b600f80546001600160a01b0319166001600160a01b0392831617905560175460408051630fe1ba9f60e21b815290519190921691633f86ea7c916004808301926020929190829003018186803b158015620009c657600080fd5b505afa158015620009db573d6000803e3d6000fd5b505050506040513d601f19601f8201168201806040525081019062000a01919062000ea6565b601080546001600160a01b0319166001600160a01b0392831617905560175460408051636b58477560e01b815290519190921691636b584775916004808301926020929190829003018186803b15801562000a5b57600080fd5b505afa15801562000a70573d6000803e3d6000fd5b505050506040513d601f19601f8201168201806040525081019062000a96919062000ea6565b601180546001600160a01b0319166001600160a01b0392909216919091179055565b62000ac4828262000b4f565b5050565b600062000adf836001600160a01b03841662000bdb565b90505b92915050565b601754600160c81b900460ff16801562000b0b5750601754600160a01b900460ff165b1562000b375762000b2c6000805160206200421c8339815191523362000c2a565b1562000b3757600080fd5b620003df83838362000c5560201b62000f8b1760201c565b62000b5b828262000c2a565b62000ac45760008281526009602090815260408083206001600160a01b03851684529091529020805460ff1916600117905562000b9762000cc7565b6001600160a01b0316816001600160a01b0316837f2f8788117e7eff1d82e926ec794901d17c78024a50270940304540a733656f0d60405160405180910390a45050565b600062000be9838362000ccb565b62000c215750815460018181018455600084815260208082209093018490558454848252828601909352604090209190915562000ae2565b50600062000ae2565b60009182526009602090815260408084206001600160a01b0393909316845291905290205460ff1690565b62000c6d838383620003df60201b620008a21760201c565b6001600160a01b03831662000c975762000c878262000ce3565b62000c9162000d14565b620003df565b6001600160a01b03821662000cb15762000c878362000ce3565b62000cbc8362000ce3565b620003df8262000ce3565b3390565b60009081526001919091016020526040902054151590565b6001600160a01b038116600090815260056020526040902062000d119062000d0b8362000d24565b62000d43565b50565b6200025b600662000d0b62000d9f565b6001600160a01b0381166000908152602081905260409020545b919050565b600062000d5c600862000da560201b62000fe31760201c565b90508062000d6a8462000da9565b1015620003df578254600180820185556000858152602080822090930193909355938401805494850181558252902090910155565b60025490565b5490565b805460009062000dbc5750600062000d3e565b8154829062000dce9060019062000f53565b8154811062000ded57634e487b7160e01b600052603260045260246000fd5b9060005260206000200154905062000d3e565b82805462000e0e9062000f6d565b90600052602060002090601f01602090048101928262000e32576000855562000e7d565b82601f1062000e4d57805160ff191683800117855562000e7d565b8280016001018555821562000e7d579182015b8281111562000e7d57825182559160200191906001019062000e60565b5062000e8b92915062000e8f565b5090565b5b8082111562000e8b576000815560010162000e90565b60006020828403121562000eb8578081fd5b81516001600160a01b038116811462000ecf578182fd5b9392505050565b60006020828403121562000ee8578081fd5b8151801515811462000ecf578182fd5b6020808252601f908201527f45524332303a206d696e7420746f20746865207a65726f206164647265737300604082015260600190565b90815260200190565b6000821982111562000f4e5762000f4e62000faa565b500190565b60008282101562000f685762000f6862000faa565b500390565b60028104600182168062000f8257607f821691505b6020821081141562000fa457634e487b7160e01b600052602260045260246000fd5b50919050565b634e487b7160e01b600052601160045260246000fd5b61324c8062000fd06000396000f3fe608060405234801561001057600080fd5b506004361061038e5760003560e01c80636b584775116101de578063b12655061161010f578063dd62ed3e116100ad578063f1132b301161007c578063f1132b3014610676578063f7d92d861461067e578063f98447ac14610686578063ff7e88ec1461068e5761038e565b8063dd62ed3e1461064b578063e6217e3a1461065e578063e78c266c14610666578063e9a532301461066e5761038e565b8063cce84392116100e9578063cce8439214610620578063cf4ece1514610628578063d547741f14610630578063dadf56ac146106435761038e565b8063b1265506146105fd578063bfb7dc9914610605578063ca15c8731461060d5761038e565b80639711715a1161017c578063a32c5e5911610156578063a32c5e59146105c7578063a457c2d7146105cf578063a78e746f146105e2578063a9059cbb146105ea5761038e565b80639711715a146105a4578063981b24d0146105ac578063a217fddf146105bf5761038e565b80639010d07c116101b85780639010d07c1461056357806391d148541461057657806393dad6e71461058957806395d89b411461059c5761038e565b80636b5847751461054057806370a0823114610548578063762ddb591461055b5761038e565b8063326a55e0116102c35780634d84c6d8116102615780635b5c251f116102305780635b5c251f146105155780635db531a11461051d5780635f41346614610525578063683988871461052d5761038e565b80634d84c6d8146104df5780634ee2cd7e146104e757806357f276ff146104fa5780635a1406961461050d5761038e565b8063395093511161029d57806339509351146104b45780633ab76e9f146104c75780633f86ea7c146104cf57806349b5e105146104d75761038e565b8063326a55e014610491578063329a8cfa1461049957806336568abe146104a15761038e565b806321d7f00811610330578063248a9ca31161030a578063248a9ca31461044e5780632f2ff15d146104615780632fb5658514610474578063313ce5671461047c5761038e565b806321d7f0081461042b57806323b872dd146104335780632436329d146104465761038e565b8063095ea7b31161036c578063095ea7b3146103e6578063130f6320146103f957806317314d5a1461040e57806318160ddd146104165761038e565b806301ffc9a714610393578063024bebe9146103bc57806306fdde03146103d1575b600080fd5b6103a66103a1366004612b3a565b610696565b6040516103b39190612c03565b60405180910390f35b6103c46106c3565b6040516103b39190612bef565b6103d96106d2565b6040516103b39190612c3c565b6103a66103f4366004612a7a565b610764565b61040c610407366004612add565b610782565b005b61040c610799565b61041e6107a4565b6040516103b39190612c0e565b6103c46107aa565b6103a6610441366004612a3a565b6107b9565b61041e610859565b61041e61045c366004612add565b61086b565b61040c61046f366004612af5565b610880565b6103a66108a7565b6104846108b7565b6040516103b39190613006565b61040c6108bc565b61040c6108ce565b61040c6104af366004612af5565b6109ae565b6103a66104c2366004612a7a565b6109d0565b6103c4610a1f565b6103c4610a2e565b61040c610a3d565b61040c6108c4565b61041e6104f5366004612a7a565b610a45565b61040c610508366004612add565b610a8e565b6103a6610a97565b6103c4610aa7565b61040c610ab6565b6103c4610abe565b61040c61053b366004612aa5565b610acd565b6103c4610b54565b61041e6105563660046129ca565b610b63565b6103c4610b7e565b6103c4610571366004612b19565b610b8d565b6103a6610584366004612af5565b610bac565b61040c610597366004612aa5565b610bd7565b6103d9610c61565b61040c610c70565b61041e6105ba366004612add565b610d06565b61041e610d36565b61041e610d3b565b6103a66105dd366004612a7a565b610d4d565b6103a6610dc8565b6103a66105f8366004612a7a565b610dd8565b6103a6610dec565b6103c4610dfc565b61041e61061b366004612add565b610e0b565b61041e610e22565b61041e610e34565b61040c61063e366004612af5565b610e46565b6103c4610e50565b61041e610659366004612a02565b610e5f565b6103c4610e8a565b6103c4610e99565b61041e610ea8565b61040c610eba565b61040c610ec2565b6103c4610f4d565b6103a6610f5c565b60006001600160e01b03198216635a05180f60e01b14806106bb57506106bb82610fe7565b90505b919050565b6013546001600160a01b031681565b6060600380546106e1906130bd565b80601f016020809104026020016040519081016040528092919081815260200182805461070d906130bd565b801561075a5780601f1061072f5761010080835404028352916020019161075a565b820191906000526020600020905b81548152906001019060200180831161073d57829003601f168201915b5050505050905090565b600061077861077161100c565b8484611010565b5060015b92915050565b61078b816110c4565b506107958161122f565b5050565b6107a16113b2565b50565b60025490565b600c546001600160a01b031681565b60006107c68484846114f8565b6001600160a01b0384166000908152600160205260408120816107e761100c565b6001600160a01b03166001600160a01b03168152602001908152602001600020549050828110156108335760405162461bcd60e51b815260040161082a90612e42565b60405180910390fd5b61084e8561083f61100c565b610849868561305f565b611010565b506001949350505050565b60008051602061317783398151915281565b60009081526009602052604090206001015490565b61088a8282611620565b6000828152600a602052604090206108a29082610f76565b505050565b601754600160b01b900460ff1681565b601290565b6108c4611644565b6108cc61189f565b565b6108e66000805160206131d783398151915233610bac565b80610904575061090460008051602061319783398151915233610bac565b80610922575061092260008051602061317783398151915233610bac565b61093e5760405162461bcd60e51b815260040161082a90612d60565b601760009054906101000a90046001600160a01b03166001600160a01b031663329a8cfa6040518163ffffffff1660e01b8152600401600060405180830381600087803b15801561098e57600080fd5b505af11580156109a2573d6000803e3d6000fd5b505050506108cc610ab6565b6109b88282611c1c565b6000828152600a602052604090206108a29082611c5e565b60006107786109dd61100c565b8484600160006109eb61100c565b6001600160a01b03908116825260208083019390935260409182016000908120918b16815292529020546108499190613014565b6017546001600160a01b031681565b6010546001600160a01b031681565b6108cc611644565b6001600160a01b038216600090815260056020526040812081908190610a6c908590611c73565b9150915081610a8357610a7e85610b63565b610a85565b805b95945050505050565b61079581611d21565b601754600160c01b900460ff1681565b6014546001600160a01b031681565b6108cc611f57565b6015546001600160a01b031681565b610ae560008051602061319783398151915233610bac565b80610b035750610b036000805160206131d783398151915233610bac565b610b1f5760405162461bcd60e51b815260040161082a90612f43565b601754600160c01b900460ff1615610b3657600080fd5b60178054911515600160c81b0260ff60c81b19909216919091179055565b6011546001600160a01b031681565b6001600160a01b031660009081526020819052604090205490565b600d546001600160a01b031681565b6000828152600a60205260408120610ba59083612093565b9392505050565b60009182526009602090815260408084206001600160a01b0393909316845291905290205460ff1690565b610bef60008051602061319783398151915233610bac565b80610c0d5750610c0d6000805160206131d783398151915233610bac565b610c295760405162461bcd60e51b815260040161082a90612f43565b80158015610c415750601754600160c01b900460ff16155b610c4a57600080fd5b506017805461ffff60c01b1916600160c01b179055565b6060600480546106e1906130bd565b610c886000805160206131d783398151915233610bac565b80610ca65750610ca660008051602061319783398151915233610bac565b80610cc45750610cc460008051602061317783398151915233610bac565b80610ce25750610ce26000805160206131b783398151915233610bac565b610cfe5760405162461bcd60e51b815260040161082a90612d60565b6107a161209f565b6000806000610d16846006611c73565b9150915081610d2c57610d276107a4565b610d2e565b805b949350505050565b600081565b6000805160206131d783398151915281565b60008060016000610d5c61100c565b6001600160a01b0390811682526020808301939093526040918201600090812091881681529252902054905082811015610da85760405162461bcd60e51b815260040161082a90612f72565b610dbe610db361100c565b85610849868561305f565b5060019392505050565b601754600160a01b900460ff1681565b6000610778610de561100c565b84846114f8565b601754600160c81b900460ff1681565b600e546001600160a01b031681565b6000818152600a602052604081206106bb906120f5565b6000805160206131f783398151915281565b6000805160206131b783398151915281565b6109b88282612100565b6012546001600160a01b031681565b6001600160a01b03918216600090815260016020908152604080832093909416825291909152205490565b6016546001600160a01b031681565b600b546001600160a01b031681565b60008051602061319783398151915281565b6108cc61211f565b610ed96000805160206131d7833981519152611d21565b50610ef1600080516020613197833981519152611d21565b50610f09600080516020613177833981519152611d21565b50610f216000805160206131b7833981519152611d21565b50610f396000805160206131f7833981519152611d21565b50610f446000611d21565b506108cc611f57565b600f546001600160a01b031681565b601754600160a81b900460ff1681565b6107958282612256565b6000610ba5836001600160a01b0384166122dd565b610f968383836108a2565b6001600160a01b038316610fba57610fad82612327565b610fb5612351565b6108a2565b6001600160a01b038216610fd157610fad83612327565b610fda83612327565b6108a282612327565b5490565b60006001600160e01b03198216637965db0b60e01b14806106bb57506106bb8261235e565b3390565b6001600160a01b0383166110365760405162461bcd60e51b815260040161082a90612ecf565b6001600160a01b03821661105c5760405162461bcd60e51b815260040161082a90612d90565b6001600160a01b0380841660008181526001602090815260408083209487168084529490915290819020849055517f8c5be1e5ebec7d5bd14f71427d1e84f3dd0314c0f7b2291e5b200ac8c7c3b925906110b7908590612c0e565b60405180910390a3505050565b60405163ca15c87360e01b81526000908190309063ca15c873906110ec908690600401612c0e565b60206040518083038186803b15801561110457600080fd5b505afa158015611118573d6000803e3d6000fd5b505050506040513d601f19601f8201168201806040525081019061113c9190612b62565b905060005b81811015610dbe57604051632404341f60e21b81526000903090639010d07c906111719088908690600401612c2e565b60206040518083038186803b15801561118957600080fd5b505afa15801561119d573d6000803e3d6000fd5b505050506040513d601f19601f820116820180604052508101906111c191906129e6565b60405163d547741f60e01b8152909150309063d547741f906111e99088908590600401612c17565b600060405180830381600087803b15801561120357600080fd5b505af1158015611217573d6000803e3d6000fd5b50505050508080611227906130f8565b915050611141565b60175460405163ca15c87360e01b815260009182916001600160a01b039091169063ca15c87390611264908690600401612c0e565b60206040518083038186803b15801561127c57600080fd5b505afa158015611290573d6000803e3d6000fd5b505050506040513d601f19601f820116820180604052508101906112b49190612b62565b905060005b81811015610dbe57601754604051632404341f60e21b81526000916001600160a01b031690639010d07c906112f49088908690600401612c2e565b60206040518083038186803b15801561130c57600080fd5b505afa158015611320573d6000803e3d6000fd5b505050506040513d601f19601f8201168201806040525081019061134491906129e6565b604051632f2ff15d60e01b81529091503090632f2ff15d9061136c9088908590600401612c17565b600060405180830381600087803b15801561138657600080fd5b505af115801561139a573d6000803e3d6000fd5b505050505080806113aa906130f8565b9150506112b9565b60006113cb6000805160206131d78339815191526110c4565b506113e36000805160206131d783398151915261122f565b6113ec57600080fd5b6114036000805160206131978339815191526110c4565b5061141b60008051602061319783398151915261122f565b61142457600080fd5b61143b6000805160206131778339815191526110c4565b5061145360008051602061317783398151915261122f565b61145c57600080fd5b6114736000805160206131b78339815191526110c4565b5061148b6000805160206131b783398151915261122f565b61149457600080fd5b6114ab6000805160206131f78339815191526110c4565b506114c36000805160206131f783398151915261122f565b6114cc57600080fd5b6114d660006110c4565b506114e1600061122f565b6114ea57600080fd5b6114f2611f57565b50600190565b6001600160a01b03831661151e5760405162461bcd60e51b815260040161082a90612e8a565b6001600160a01b0382166115445760405162461bcd60e51b815260040161082a90612d1d565b61154f838383612377565b6001600160a01b038316600090815260208190526040902054818110156115885760405162461bcd60e51b815260040161082a90612dd2565b611592828261305f565b6001600160a01b0380861660009081526020819052604080822093909355908516815290812080548492906115c8908490613014565b92505081905550826001600160a01b0316846001600160a01b03167fddf252ad1be2c89b69c2b068fc378daa952ba7f163c4a11628f55a4df523b3ef846040516116129190612c0e565b60405180910390a350505050565b6116298261086b565b61163a8161163561100c565b6123cb565b6108a28383612256565b601760009054906101000a90046001600160a01b03166001600160a01b031663dadf56ac6040518163ffffffff1660e01b815260040160206040518083038186803b15801561169257600080fd5b505afa1580156116a6573d6000803e3d6000fd5b505050506040513d601f19601f820116820180604052508101906116ca91906129e6565b601280546001600160a01b0319166001600160a01b039283161790556017546040805163024bebe960e01b81529051919092169163024bebe9916004808301926020929190829003018186803b15801561172357600080fd5b505afa158015611737573d6000803e3d6000fd5b505050506040513d601f19601f8201168201806040525081019061175b91906129e6565b601380546001600160a01b0319166001600160a01b0392831617905560175460408051635b5c251f60e01b815290519190921691635b5c251f916004808301926020929190829003018186803b1580156117b457600080fd5b505afa1580156117c8573d6000803e3d6000fd5b505050506040513d601f19601f820116820180604052508101906117ec91906129e6565b601480546001600160a01b0319166001600160a01b0392831617905560175460408051637310bf1d60e11b81529051919092169163e6217e3a916004808301926020929190829003018186803b15801561184557600080fd5b505afa158015611859573d6000803e3d6000fd5b505050506040513d601f19601f8201168201806040525081019061187d91906129e6565b601680546001600160a01b0319166001600160a01b0392909216919091179055565b601760009054906101000a90046001600160a01b03166001600160a01b03166321d7f0086040518163ffffffff1660e01b815260040160206040518083038186803b1580156118ed57600080fd5b505afa158015611901573d6000803e3d6000fd5b505050506040513d601f19601f8201168201806040525081019061192591906129e6565b600c80546001600160a01b0319166001600160a01b039283161790556017546040805163762ddb5960e01b81529051919092169163762ddb59916004808301926020929190829003018186803b15801561197e57600080fd5b505afa158015611992573d6000803e3d6000fd5b505050506040513d601f19601f820116820180604052508101906119b691906129e6565b600d80546001600160a01b0319166001600160a01b039283161790556017546040805163bfb7dc9960e01b81529051919092169163bfb7dc99916004808301926020929190829003018186803b158015611a0f57600080fd5b505afa158015611a23573d6000803e3d6000fd5b505050506040513d601f19601f82011682018060405250810190611a4791906129e6565b600e80546001600160a01b0319166001600160a01b0392831617905560175460408051633e6111eb60e21b81529051919092169163f98447ac916004808301926020929190829003018186803b158015611aa057600080fd5b505afa158015611ab4573d6000803e3d6000fd5b505050506040513d601f19601f82011682018060405250810190611ad891906129e6565b600f80546001600160a01b0319166001600160a01b0392831617905560175460408051630fe1ba9f60e21b815290519190921691633f86ea7c916004808301926020929190829003018186803b158015611b3157600080fd5b505afa158015611b45573d6000803e3d6000fd5b505050506040513d601f19601f82011682018060405250810190611b6991906129e6565b601080546001600160a01b0319166001600160a01b0392831617905560175460408051636b58477560e01b815290519190921691636b584775916004808301926020929190829003018186803b158015611bc257600080fd5b505afa158015611bd6573d6000803e3d6000fd5b505050506040513d601f19601f82011682018060405250810190611bfa91906129e6565b601180546001600160a01b0319166001600160a01b0392909216919091179055565b611c2461100c565b6001600160a01b0316816001600160a01b031614611c545760405162461bcd60e51b815260040161082a90612fb7565b610795828261242f565b6000610ba5836001600160a01b0384166124b4565b60008060008411611c965760405162461bcd60e51b815260040161082a90612f13565b611ca06008610fe3565b841115611cbf5760405162461bcd60e51b815260040161082a90612c6f565b6000611ccb84866125cb565b8454909150811415611ce4576000809250925050611d1a565b6001846001018281548110611d0957634e487b7160e01b600052603260045260246000fd5b906000526020600020015492509250505b9250929050565b60175460405163ca15c87360e01b815260009182916001600160a01b039091169063ca15c87390611d56908690600401612c0e565b60206040518083038186803b158015611d6e57600080fd5b505afa158015611d82573d6000803e3d6000fd5b505050506040513d601f19601f82011682018060405250810190611da69190612b62565b60405163ca15c87360e01b8152909150600090309063ca15c87390611dcf908790600401612c0e565b60206040518083038186803b158015611de757600080fd5b505afa158015611dfb573d6000803e3d6000fd5b505050506040513d601f19601f82011682018060405250810190611e1f9190612b62565b90506000611e2d828461305f565b905060008111611e4f5760405162461bcd60e51b815260040161082a90612e18565b60005b81811015611f4b57601754604051632404341f60e21b81526000916001600160a01b031690639010d07c90611e8d908a908690600401612c2e565b60206040518083038186803b158015611ea557600080fd5b505afa158015611eb9573d6000803e3d6000fd5b505050506040513d601f19601f82011682018060405250810190611edd91906129e6565b604051632f2ff15d60e01b81529091503090632f2ff15d90611f05908a908590600401612c17565b600060405180830381600087803b158015611f1f57600080fd5b505af1158015611f33573d6000803e3d6000fd5b50505050508080611f43906130f8565b915050611e52565b50600195945050505050565b601760009054906101000a90046001600160a01b03166001600160a01b031663ff7e88ec6040518163ffffffff1660e01b815260040160206040518083038186803b158015611fa557600080fd5b505afa158015611fb9573d6000803e3d6000fd5b505050506040513d601f19601f82011682018060405250810190611fdd9190612ac1565b60178054911515600160a81b0260ff60a81b19909216919091179081905560408051632fb5658560e01b815290516001600160a01b0390921691632fb5658591600480820192602092909190829003018186803b15801561203d57600080fd5b505afa158015612051573d6000803e3d6000fd5b505050506040513d601f19601f820116820180604052508101906120759190612ac1565b60178054911515600160b01b0260ff60b01b19909216919091179055565b6000610ba583836126aa565b60006120ab6008612703565b60006120b76008610fe3565b90507f8030e83b04d87bef53480e26263266d6ca66863aa8506aca6f2559d18aa1cb67816040516120e89190612c0e565b60405180910390a1905090565b60006106bb82610fe3565b6121098261086b565b6121158161163561100c565b6108a2838361242f565b601760009054906101000a90046001600160a01b03166001600160a01b031663a44b93256040518163ffffffff1660e01b815260040160206040518083038186803b15801561216d57600080fd5b505afa158015612181573d6000803e3d6000fd5b505050506040513d601f19601f820116820180604052508101906121a59190612ac1565b6121ae57600080fd5b601760009054906101000a90046001600160a01b03166001600160a01b031663ac7cfac36040518163ffffffff1660e01b815260040160206040518083038186803b1580156121fc57600080fd5b505afa158015612210573d6000803e3d6000fd5b505050506040513d601f19601f8201168201806040525081019061223491906129e6565b600b80546001600160a01b0319166001600160a01b0392909216919091179055565b6122608282610bac565b6107955760008281526009602090815260408083206001600160a01b03851684529091529020805460ff1916600117905561229961100c565b6001600160a01b0316816001600160a01b0316837f2f8788117e7eff1d82e926ec794901d17c78024a50270940304540a733656f0d60405160405180910390a45050565b60006122e9838361270c565b61231f5750815460018181018455600084815260208082209093018490558454848252828601909352604090209190915561077c565b50600061077c565b6001600160a01b03811660009081526005602052604090206107a19061234c83610b63565b612724565b6108cc600661234c6107a4565b6001600160e01b031981166301ffc9a760e01b14919050565b601754600160c81b900460ff1680156123995750601754600160a01b900460ff165b156123c0576123b66000805160206131f783398151915233610bac565b156123c057600080fd5b6108a2838383610f8b565b6123d58282610bac565b610795576123ed816001600160a01b03166014612770565b6123f8836020612770565b604051602001612409929190612b7a565b60408051601f198184030181529082905262461bcd60e51b825261082a91600401612c3c565b6124398282610bac565b156107955760008281526009602090815260408083206001600160a01b03851684529091529020805460ff1916905561247061100c565b6001600160a01b0316816001600160a01b0316837ff6391f5c32d9c69d2a47ea670b442974b53935d1edc7fd64eb21e047a839171b60405160405180910390a45050565b600081815260018301602052604081205480156125c15760006124d860018361305f565b85549091506000906124ec9060019061305f565b9050600086600001828154811061251357634e487b7160e01b600052603260045260246000fd5b906000526020600020015490508087600001848154811061254457634e487b7160e01b600052603260045260246000fd5b60009182526020808320909101929092558281526001890190915260409020849055865487908061258557634e487b7160e01b600052603160045260246000fd5b6001900381819060005260206000200160009055905586600101600087815260200190815260200160002060009055600194505050505061077c565b600091505061077c565b81546000906125dc5750600061077c565b82546000905b808210156126465760006125f68383612922565b90508486828154811061261957634e487b7160e01b600052603260045260246000fd5b9060005260206000200154111561263257809150612640565b61263d816001613014565b92505b506125e2565b6000821180156126895750838561265e60018561305f565b8154811061267c57634e487b7160e01b600052603260045260246000fd5b9060005260206000200154145b156126a25761269960018361305f565b9250505061077c565b50905061077c565b815460009082106126cd5760405162461bcd60e51b815260040161082a90612ca6565b8260000182815481106126f057634e487b7160e01b600052603260045260246000fd5b9060005260206000200154905092915050565b80546001019055565b60009081526001919091016020526040902054151590565b60006127306008610fe3565b90508061273c84612979565b10156108a2578254600180820185556000858152602080822090930193909355938401805494850181558252902090910155565b6060600061277f836002613040565b61278a906002613014565b67ffffffffffffffff8111156127b057634e487b7160e01b600052604160045260246000fd5b6040519080825280601f01601f1916602001820160405280156127da576020820181803683370190505b509050600360fc1b8160008151811061280357634e487b7160e01b600052603260045260246000fd5b60200101906001600160f81b031916908160001a905350600f60fb1b8160018151811061284057634e487b7160e01b600052603260045260246000fd5b60200101906001600160f81b031916908160001a9053506000612864846002613040565b61286f906001613014565b90505b6001811115612903576f181899199a1a9b1b9c1cb0b131b232b360811b85600f16601081106128b157634e487b7160e01b600052603260045260246000fd5b1a60f81b8282815181106128d557634e487b7160e01b600052603260045260246000fd5b60200101906001600160f81b031916908160001a90535060049490941c936128fc816130a6565b9050612872565b508315610ba55760405162461bcd60e51b815260040161082a90612ce8565b600060026129308184613113565b61293b600286613113565b6129459190613014565b61294f919061302c565b61295a60028461302c565b61296560028661302c565b61296f9190613014565b610ba59190613014565b805460009061298a575060006106be565b8154829061299a9060019061305f565b815481106129b857634e487b7160e01b600052603260045260246000fd5b906000526020600020015490506106be565b6000602082840312156129db578081fd5b8135610ba581613153565b6000602082840312156129f7578081fd5b8151610ba581613153565b60008060408385031215612a14578081fd5b8235612a1f81613153565b91506020830135612a2f81613153565b809150509250929050565b600080600060608486031215612a4e578081fd5b8335612a5981613153565b92506020840135612a6981613153565b929592945050506040919091013590565b60008060408385031215612a8c578182fd5b8235612a9781613153565b946020939093013593505050565b600060208284031215612ab6578081fd5b8135610ba581613168565b600060208284031215612ad2578081fd5b8151610ba581613168565b600060208284031215612aee578081fd5b5035919050565b60008060408385031215612b07578182fd5b823591506020830135612a2f81613153565b60008060408385031215612b2b578182fd5b50508035926020909101359150565b600060208284031215612b4b578081fd5b81356001600160e01b031981168114610ba5578182fd5b600060208284031215612b73578081fd5b5051919050565b60007f416363657373436f6e74726f6c3a206163636f756e742000000000000000000082528351612bb2816017850160208801613076565b7001034b99036b4b9b9b4b733903937b6329607d1b6017918401918201528351612be3816028840160208801613076565b01602801949350505050565b6001600160a01b0391909116815260200190565b901515815260200190565b90815260200190565b9182526001600160a01b0316602082015260400190565b918252602082015260400190565b6000602082528251806020840152612c5b816040850160208701613076565b601f01601f19169190910160400192915050565b6020808252601d908201527f4552433230536e617073686f743a206e6f6e6578697374656e74206964000000604082015260600190565b60208082526022908201527f456e756d657261626c655365743a20696e646578206f7574206f6620626f756e604082015261647360f01b606082015260800190565b6020808252818101527f537472696e67733a20686578206c656e67746820696e73756666696369656e74604082015260600190565b60208082526023908201527f45524332303a207472616e7366657220746f20746865207a65726f206164647260408201526265737360e81b606082015260800190565b6020808252601690820152752cb7ba93b932903737ba103a3432903130b4b634b33360511b604082015260600190565b60208082526022908201527f45524332303a20617070726f766520746f20746865207a65726f206164647265604082015261737360f01b606082015260800190565b60208082526026908201527f45524332303a207472616e7366657220616d6f756e7420657863656564732062604082015265616c616e636560d01b606082015260800190565b60208082526010908201526f4e6f7468696e6720746f2073796e632160801b604082015260600190565b60208082526028908201527f45524332303a207472616e7366657220616d6f756e74206578636565647320616040820152676c6c6f77616e636560c01b606082015260800190565b60208082526025908201527f45524332303a207472616e736665722066726f6d20746865207a65726f206164604082015264647265737360d81b606082015260800190565b60208082526024908201527f45524332303a20617070726f76652066726f6d20746865207a65726f206164646040820152637265737360e01b606082015260800190565b60208082526016908201527504552433230536e617073686f743a20696420697320360541b604082015260600190565b602080825260159082015274596f75277265206e6f742074686520476176656c7360581b604082015260600190565b60208082526025908201527f45524332303a2064656372656173656420616c6c6f77616e63652062656c6f77604082015264207a65726f60d81b606082015260800190565b6020808252602f908201527f416363657373436f6e74726f6c3a2063616e206f6e6c792072656e6f756e636560408201526e103937b632b9903337b91039b2b63360891b606082015260800190565b60ff91909116815260200190565b6000821982111561302757613027613127565b500190565b60008261303b5761303b61313d565b500490565b600081600019048311821515161561305a5761305a613127565b500290565b60008282101561307157613071613127565b500390565b60005b83811015613091578181015183820152602001613079565b838111156130a0576000848401525b50505050565b6000816130b5576130b5613127565b506000190190565b6002810460018216806130d157607f821691505b602082108114156130f257634e487b7160e01b600052602260045260246000fd5b50919050565b600060001982141561310c5761310c613127565b5060010190565b6000826131225761312261313d565b500690565b634e487b7160e01b600052601160045260246000fd5b634e487b7160e01b600052601260045260246000fd5b6001600160a01b03811681146107a157600080fd5b80151581146107a157600080fdfefa8e4989e1d689f7bc5c4b25b87efb51fecdecb19ba62847e29c759e12a89acd048bc71fa1cb2c119c339cf9cf00a97996a19a9d991ce5fe049f2fa5459e7990f0f4b159a6e2a4815eb3ca3df080bfa70c9270662c59bcaa4479a456220183e60538d24a8b7882d7b2e36af243d4af61c23e86e3daa6cb8c887b53220b2f57207c9d7f6f02908185bffb3f7fc9afb29fd7bf93675af8fd4b655ee05c2cee1e0ea26469706673582212208d83ff54c03fedab64d96db09745fcf5a04e33dd798ea4754e3f4d061a5aa77764736f6c634300080000337c9d7f6f02908185bffb3f7fc9afb29fd7bf93675af8fd4b655ee05c2cee1e0e",
  "immutableReferences": {},
  "source": "// Disclaimer: I have literally no idea what I'm doing so take that as you will.\n// Now that thats out of the way, feel free to help improve this!\n\npragma solidity ^0.8.0;\n\nimport \"@openzeppelin/contracts/token/ERC20/ERC20.sol\";\nimport \"@openzeppelin/contracts/token/ERC20/extensions/ERC20Snapshot.sol\";\nimport \"../src/SmartConsensusMachine.sol\";\n\n// Token features:\n// Snapshot for governance and distrubutions\n// Burnable\n// Fixed Supply\n// Gassless Permit (Draft EIP)\n\ncontract Gavels is ERC20, ERC20Snapshot, SmartConsensusMachine {\n\n \n    /******************************************************\n    * JERK SANCTIONS:\n    *   if 'jerkSanctionIsOn' is enabled, this prohibits jerks from using thier Gavels.    *\n    *\n    * FOREVER_DISABLE_SANCTIONS:\n    *   if this setting is set to true, Jerk sanctions will be disabled forever.\n    *   THIS IS NOT REVERSABLE!\n    */\n\n    bool public SANCTIONS_FOREVER_DISABLED = false;\n    bool public jerkSanctionsLocal = false;\n\n    /***********************************************/\n\n\n    constructor(address _AddressManagerAddress) ERC20(\"Gavels\", \"Gavel\") SmartConsensusMachine(_AddressManagerAddress) {\n        _mint(address(this), 2 * 10 ** 18);\n        _mint(TreasuryAddress, 248 * 10 ** 18);\n    }\n\n\n    //***********************************************************\n    // The DAO may choose to prohibit Jerks from using Gavels\n    //********************************************************* */\n    function switchLocalJerkSanctions(bool turnOnSanctions) public GAVELS {\n        require(!SANCTIONS_FOREVER_DISABLED);\n\n        jerkSanctionsLocal = turnOnSanctions;\n\n    }\n\n    // This will disable the sanctions function forever (incase it was a bad idea or poses a security issue)\n    function foreverDisableJerkSanctions(bool safteySwitch) public GAVELS {\n        // The Saftey Switch should be set to FALSE for the function to be properly executed.\n        require(!safteySwitch && !SANCTIONS_FOREVER_DISABLED);\n        jerkSanctionsLocal = false;\n        SANCTIONS_FOREVER_DISABLED = true;\n    }\n\n    /**************************************************************************\n    ***************************************************************************/\n    \n\n    // Take a snapshot of token holders (Must be the recorder, bailiff, or court)\n     function snapshot() public MINI_BAILIFF {\n        _snapshot();\n    }\n\n\n    // Only needed in the event jerk sanctions are turned on.\n    function _beforeTokenTransfer(address from, address to, uint256 amount)\n        internal\n        override(ERC20, ERC20Snapshot)\n    {\n        if (jerkSanctionsLocal && jerkSanctions) {\n           require(!hasRole(JERK_ROLE, msg.sender)); \n        }\n        super._beforeTokenTransfer(from, to, amount);\n    }\n}",
  "sourcePath": "/home/n/Desktop/v3_fronternd/PinkSlips_FrontEnd (reformat)3/contracts/govTokens/Gavels.sol",
  "compiler": {
    "name": "solc",
    "version": "0.8.0+commit.c7dfd78e.Emscripten.clang"
  },
  "schemaVersion": "3.4.1",
  "updatedAt": "2021-07-01T07:12:52.727Z",
  "networkType": "ethereum",
  "devdoc": {
    "kind": "dev",
    "methods": {
      "allowance(address,address)": {
        "details": "See {IERC20-allowance}."
      },
      "approve(address,uint256)": {
        "details": "See {IERC20-approve}. Requirements: - `spender` cannot be the zero address."
      },
      "balanceOf(address)": {
        "details": "See {IERC20-balanceOf}."
      },
      "balanceOfAt(address,uint256)": {
        "details": "Retrieves the balance of `account` at the time `snapshotId` was created."
      },
      "decimals()": {
        "details": "Returns the number of decimals used to get its user representation. For example, if `decimals` equals `2`, a balance of `505` tokens should be displayed to a user as `5,05` (`505 / 10 ** 2`). Tokens usually opt for a value of 18, imitating the relationship between Ether and Wei. This is the value {ERC20} uses, unless this function is overridden; NOTE: This information is only used for _display_ purposes: it in no way affects any of the arithmetic of the contract, including {IERC20-balanceOf} and {IERC20-transfer}."
      },
      "decreaseAllowance(address,uint256)": {
        "details": "Atomically decreases the allowance granted to `spender` by the caller. This is an alternative to {approve} that can be used as a mitigation for problems described in {IERC20-approve}. Emits an {Approval} event indicating the updated allowance. Requirements: - `spender` cannot be the zero address. - `spender` must have allowance for the caller of at least `subtractedValue`."
      },
      "getRoleAdmin(bytes32)": {
        "details": "Returns the admin role that controls `role`. See {grantRole} and {revokeRole}. To change a role's admin, use {_setRoleAdmin}."
      },
      "getRoleMember(bytes32,uint256)": {
        "details": "Returns one of the accounts that have `role`. `index` must be a value between 0 and {getRoleMemberCount}, non-inclusive. Role bearers are not sorted in any particular way, and their ordering may change at any point. WARNING: When using {getRoleMember} and {getRoleMemberCount}, make sure you perform all queries on the same block. See the following https://forum.openzeppelin.com/t/iterating-over-elements-on-enumerableset-in-openzeppelin-contracts/2296[forum post] for more information."
      },
      "getRoleMemberCount(bytes32)": {
        "details": "Returns the number of accounts that have `role`. Can be used together with {getRoleMember} to enumerate all bearers of a role."
      },
      "grantRole(bytes32,address)": {
        "details": "Overload {grantRole} to track enumerable memberships"
      },
      "hasRole(bytes32,address)": {
        "details": "Returns `true` if `account` has been granted `role`."
      },
      "increaseAllowance(address,uint256)": {
        "details": "Atomically increases the allowance granted to `spender` by the caller. This is an alternative to {approve} that can be used as a mitigation for problems described in {IERC20-approve}. Emits an {Approval} event indicating the updated allowance. Requirements: - `spender` cannot be the zero address."
      },
      "name()": {
        "details": "Returns the name of the token."
      },
      "renounceRole(bytes32,address)": {
        "details": "Overload {renounceRole} to track enumerable memberships"
      },
      "revokeRole(bytes32,address)": {
        "details": "Overload {revokeRole} to track enumerable memberships"
      },
      "supportsInterface(bytes4)": {
        "details": "See {IERC165-supportsInterface}."
      },
      "symbol()": {
        "details": "Returns the symbol of the token, usually a shorter version of the name."
      },
      "totalSupply()": {
        "details": "See {IERC20-totalSupply}."
      },
      "totalSupplyAt(uint256)": {
        "details": "Retrieves the total supply at the time `snapshotId` was created."
      },
      "transfer(address,uint256)": {
        "details": "See {IERC20-transfer}. Requirements: - `recipient` cannot be the zero address. - the caller must have a balance of at least `amount`."
      },
      "transferFrom(address,address,uint256)": {
        "details": "See {IERC20-transferFrom}. Emits an {Approval} event indicating the updated allowance. This is not required by the EIP. See the note at the beginning of {ERC20}. Requirements: - `sender` and `recipient` cannot be the zero address. - `sender` must have a balance of at least `amount`. - the caller must have allowance for ``sender``'s tokens of at least `amount`."
      }
    },
    "version": 1
  },
  "userdoc": {
    "kind": "user",
    "methods": {},
    "version": 1
  }
}