{
  "contractName": "Gavels",
  "abi": [
    {
      "inputs": [
        {
          "internalType": "address",
          "name": "_AddressManagerAddress",
          "type": "address"
        }
      ],
      "stateMutability": "nonpayable",
      "type": "constructor"
    },
    {
      "anonymous": false,
      "inputs": [
        {
          "indexed": true,
          "internalType": "address",
          "name": "owner",
          "type": "address"
        },
        {
          "indexed": true,
          "internalType": "address",
          "name": "spender",
          "type": "address"
        },
        {
          "indexed": false,
          "internalType": "uint256",
          "name": "value",
          "type": "uint256"
        }
      ],
      "name": "Approval",
      "type": "event"
    },
    {
      "anonymous": false,
      "inputs": [
        {
          "indexed": true,
          "internalType": "bytes32",
          "name": "role",
          "type": "bytes32"
        },
        {
          "indexed": true,
          "internalType": "bytes32",
          "name": "previousAdminRole",
          "type": "bytes32"
        },
        {
          "indexed": true,
          "internalType": "bytes32",
          "name": "newAdminRole",
          "type": "bytes32"
        }
      ],
      "name": "RoleAdminChanged",
      "type": "event"
    },
    {
      "anonymous": false,
      "inputs": [
        {
          "indexed": true,
          "internalType": "bytes32",
          "name": "role",
          "type": "bytes32"
        },
        {
          "indexed": true,
          "internalType": "address",
          "name": "account",
          "type": "address"
        },
        {
          "indexed": true,
          "internalType": "address",
          "name": "sender",
          "type": "address"
        }
      ],
      "name": "RoleGranted",
      "type": "event"
    },
    {
      "anonymous": false,
      "inputs": [
        {
          "indexed": true,
          "internalType": "bytes32",
          "name": "role",
          "type": "bytes32"
        },
        {
          "indexed": true,
          "internalType": "address",
          "name": "account",
          "type": "address"
        },
        {
          "indexed": true,
          "internalType": "address",
          "name": "sender",
          "type": "address"
        }
      ],
      "name": "RoleRevoked",
      "type": "event"
    },
    {
      "anonymous": false,
      "inputs": [
        {
          "indexed": false,
          "internalType": "uint256",
          "name": "id",
          "type": "uint256"
        }
      ],
      "name": "Snapshot",
      "type": "event"
    },
    {
      "anonymous": false,
      "inputs": [
        {
          "indexed": true,
          "internalType": "address",
          "name": "from",
          "type": "address"
        },
        {
          "indexed": true,
          "internalType": "address",
          "name": "to",
          "type": "address"
        },
        {
          "indexed": false,
          "internalType": "uint256",
          "name": "value",
          "type": "uint256"
        }
      ],
      "name": "Transfer",
      "type": "event"
    },
    {
      "inputs": [],
      "name": "AddressManagerAddress",
      "outputs": [
        {
          "internalType": "address",
          "name": "",
          "type": "address"
        }
      ],
      "stateMutability": "view",
      "type": "function",
      "constant": true
    },
    {
      "inputs": [],
      "name": "ChadBadgeAddress",
      "outputs": [
        {
          "internalType": "address",
          "name": "",
          "type": "address"
        }
      ],
      "stateMutability": "view",
      "type": "function",
      "constant": true
    },
    {
      "inputs": [],
      "name": "ColoredIDAddress",
      "outputs": [
        {
          "internalType": "address",
          "name": "",
          "type": "address"
        }
      ],
      "stateMutability": "view",
      "type": "function",
      "constant": true
    },
    {
      "inputs": [],
      "name": "CourtClerk",
      "outputs": [
        {
          "internalType": "address",
          "name": "",
          "type": "address"
        }
      ],
      "stateMutability": "view",
      "type": "function",
      "constant": true
    },
    {
      "inputs": [],
      "name": "DEFAULT_ADMIN_ROLE",
      "outputs": [
        {
          "internalType": "bytes32",
          "name": "",
          "type": "bytes32"
        }
      ],
      "stateMutability": "view",
      "type": "function",
      "constant": true
    },
    {
      "inputs": [],
      "name": "GAVELS_BAILIFF",
      "outputs": [
        {
          "internalType": "bytes32",
          "name": "",
          "type": "bytes32"
        }
      ],
      "stateMutability": "view",
      "type": "function",
      "constant": true
    },
    {
      "inputs": [],
      "name": "GavelDAOAgent",
      "outputs": [
        {
          "internalType": "address",
          "name": "",
          "type": "address"
        }
      ],
      "stateMutability": "view",
      "type": "function",
      "constant": true
    },
    {
      "inputs": [],
      "name": "GavelTokenAddress",
      "outputs": [
        {
          "internalType": "address",
          "name": "",
          "type": "address"
        }
      ],
      "stateMutability": "view",
      "type": "function",
      "constant": true
    },
    {
      "inputs": [],
      "name": "GavelVote",
      "outputs": [
        {
          "internalType": "bool",
          "name": "",
          "type": "bool"
        }
      ],
      "stateMutability": "view",
      "type": "function",
      "constant": true
    },
    {
      "inputs": [],
      "name": "GoldStarAddress",
      "outputs": [
        {
          "internalType": "address",
          "name": "",
          "type": "address"
        }
      ],
      "stateMutability": "view",
      "type": "function",
      "constant": true
    },
    {
      "inputs": [],
      "name": "JERK_ROLE",
      "outputs": [
        {
          "internalType": "bytes32",
          "name": "",
          "type": "bytes32"
        }
      ],
      "stateMutability": "view",
      "type": "function",
      "constant": true
    },
    {
      "inputs": [],
      "name": "JURY_BAILIFF",
      "outputs": [
        {
          "internalType": "bytes32",
          "name": "",
          "type": "bytes32"
        }
      ],
      "stateMutability": "view",
      "type": "function",
      "constant": true
    },
    {
      "inputs": [],
      "name": "JuryDAOAgent",
      "outputs": [
        {
          "internalType": "address",
          "name": "",
          "type": "address"
        }
      ],
      "stateMutability": "view",
      "type": "function",
      "constant": true
    },
    {
      "inputs": [],
      "name": "JuryPoolAddress",
      "outputs": [
        {
          "internalType": "address",
          "name": "",
          "type": "address"
        }
      ],
      "stateMutability": "view",
      "type": "function",
      "constant": true
    },
    {
      "inputs": [],
      "name": "JuryVote",
      "outputs": [
        {
          "internalType": "bool",
          "name": "",
          "type": "bool"
        }
      ],
      "stateMutability": "view",
      "type": "function",
      "constant": true
    },
    {
      "inputs": [],
      "name": "MINI_BAILIFF_ROLE",
      "outputs": [
        {
          "internalType": "bytes32",
          "name": "",
          "type": "bytes32"
        }
      ],
      "stateMutability": "view",
      "type": "function",
      "constant": true
    },
    {
      "inputs": [],
      "name": "MiniBailiff",
      "outputs": [
        {
          "internalType": "address",
          "name": "",
          "type": "address"
        }
      ],
      "stateMutability": "view",
      "type": "function",
      "constant": true
    },
    {
      "inputs": [],
      "name": "PinkSlipAddress",
      "outputs": [
        {
          "internalType": "address",
          "name": "",
          "type": "address"
        }
      ],
      "stateMutability": "view",
      "type": "function",
      "constant": true
    },
    {
      "inputs": [],
      "name": "RedPenTokenAddress",
      "outputs": [
        {
          "internalType": "address",
          "name": "",
          "type": "address"
        }
      ],
      "stateMutability": "view",
      "type": "function",
      "constant": true
    },
    {
      "inputs": [],
      "name": "SANCTIONS_FOREVER_DISABLED",
      "outputs": [
        {
          "internalType": "bool",
          "name": "",
          "type": "bool"
        }
      ],
      "stateMutability": "view",
      "type": "function",
      "constant": true
    },
    {
      "inputs": [],
      "name": "THE_COURT_ROLE",
      "outputs": [
        {
          "internalType": "bytes32",
          "name": "",
          "type": "bytes32"
        }
      ],
      "stateMutability": "view",
      "type": "function",
      "constant": true
    },
    {
      "inputs": [],
      "name": "TheCourtAddress",
      "outputs": [
        {
          "internalType": "address",
          "name": "",
          "type": "address"
        }
      ],
      "stateMutability": "view",
      "type": "function",
      "constant": true
    },
    {
      "inputs": [],
      "name": "TreasuryAddress",
      "outputs": [
        {
          "internalType": "address",
          "name": "",
          "type": "address"
        }
      ],
      "stateMutability": "view",
      "type": "function",
      "constant": true
    },
    {
      "inputs": [],
      "name": "addressManager",
      "outputs": [
        {
          "internalType": "contract AddressManager",
          "name": "",
          "type": "address"
        }
      ],
      "stateMutability": "view",
      "type": "function",
      "constant": true
    },
    {
      "inputs": [
        {
          "internalType": "address",
          "name": "owner",
          "type": "address"
        },
        {
          "internalType": "address",
          "name": "spender",
          "type": "address"
        }
      ],
      "name": "allowance",
      "outputs": [
        {
          "internalType": "uint256",
          "name": "",
          "type": "uint256"
        }
      ],
      "stateMutability": "view",
      "type": "function",
      "constant": true
    },
    {
      "inputs": [
        {
          "internalType": "address",
          "name": "spender",
          "type": "address"
        },
        {
          "internalType": "uint256",
          "name": "amount",
          "type": "uint256"
        }
      ],
      "name": "approve",
      "outputs": [
        {
          "internalType": "bool",
          "name": "",
          "type": "bool"
        }
      ],
      "stateMutability": "nonpayable",
      "type": "function"
    },
    {
      "inputs": [
        {
          "internalType": "address",
          "name": "account",
          "type": "address"
        }
      ],
      "name": "balanceOf",
      "outputs": [
        {
          "internalType": "uint256",
          "name": "",
          "type": "uint256"
        }
      ],
      "stateMutability": "view",
      "type": "function",
      "constant": true
    },
    {
      "inputs": [
        {
          "internalType": "address",
          "name": "account",
          "type": "address"
        },
        {
          "internalType": "uint256",
          "name": "snapshotId",
          "type": "uint256"
        }
      ],
      "name": "balanceOfAt",
      "outputs": [
        {
          "internalType": "uint256",
          "name": "",
          "type": "uint256"
        }
      ],
      "stateMutability": "view",
      "type": "function",
      "constant": true
    },
    {
      "inputs": [],
      "name": "decimals",
      "outputs": [
        {
          "internalType": "uint8",
          "name": "",
          "type": "uint8"
        }
      ],
      "stateMutability": "view",
      "type": "function",
      "constant": true
    },
    {
      "inputs": [
        {
          "internalType": "address",
          "name": "spender",
          "type": "address"
        },
        {
          "internalType": "uint256",
          "name": "subtractedValue",
          "type": "uint256"
        }
      ],
      "name": "decreaseAllowance",
      "outputs": [
        {
          "internalType": "bool",
          "name": "",
          "type": "bool"
        }
      ],
      "stateMutability": "nonpayable",
      "type": "function"
    },
    {
      "inputs": [
        {
          "internalType": "bytes32",
          "name": "role",
          "type": "bytes32"
        }
      ],
      "name": "getRoleAdmin",
      "outputs": [
        {
          "internalType": "bytes32",
          "name": "",
          "type": "bytes32"
        }
      ],
      "stateMutability": "view",
      "type": "function",
      "constant": true
    },
    {
      "inputs": [
        {
          "internalType": "bytes32",
          "name": "role",
          "type": "bytes32"
        },
        {
          "internalType": "uint256",
          "name": "index",
          "type": "uint256"
        }
      ],
      "name": "getRoleMember",
      "outputs": [
        {
          "internalType": "address",
          "name": "",
          "type": "address"
        }
      ],
      "stateMutability": "view",
      "type": "function",
      "constant": true
    },
    {
      "inputs": [
        {
          "internalType": "bytes32",
          "name": "role",
          "type": "bytes32"
        }
      ],
      "name": "getRoleMemberCount",
      "outputs": [
        {
          "internalType": "uint256",
          "name": "",
          "type": "uint256"
        }
      ],
      "stateMutability": "view",
      "type": "function",
      "constant": true
    },
    {
      "inputs": [
        {
          "internalType": "bytes32",
          "name": "role",
          "type": "bytes32"
        },
        {
          "internalType": "address",
          "name": "account",
          "type": "address"
        }
      ],
      "name": "grantRole",
      "outputs": [],
      "stateMutability": "nonpayable",
      "type": "function"
    },
    {
      "inputs": [
        {
          "internalType": "bytes32",
          "name": "role",
          "type": "bytes32"
        },
        {
          "internalType": "address",
          "name": "account",
          "type": "address"
        }
      ],
      "name": "hasRole",
      "outputs": [
        {
          "internalType": "bool",
          "name": "",
          "type": "bool"
        }
      ],
      "stateMutability": "view",
      "type": "function",
      "constant": true
    },
    {
      "inputs": [
        {
          "internalType": "address",
          "name": "spender",
          "type": "address"
        },
        {
          "internalType": "uint256",
          "name": "addedValue",
          "type": "uint256"
        }
      ],
      "name": "increaseAllowance",
      "outputs": [
        {
          "internalType": "bool",
          "name": "",
          "type": "bool"
        }
      ],
      "stateMutability": "nonpayable",
      "type": "function"
    },
    {
      "inputs": [],
      "name": "jerkSanctions",
      "outputs": [
        {
          "internalType": "bool",
          "name": "",
          "type": "bool"
        }
      ],
      "stateMutability": "view",
      "type": "function",
      "constant": true
    },
    {
      "inputs": [],
      "name": "jerkSanctionsLocal",
      "outputs": [
        {
          "internalType": "bool",
          "name": "",
          "type": "bool"
        }
      ],
      "stateMutability": "view",
      "type": "function",
      "constant": true
    },
    {
      "inputs": [],
      "name": "name",
      "outputs": [
        {
          "internalType": "string",
          "name": "",
          "type": "string"
        }
      ],
      "stateMutability": "view",
      "type": "function",
      "constant": true
    },
    {
      "inputs": [
        {
          "internalType": "bytes32",
          "name": "role",
          "type": "bytes32"
        },
        {
          "internalType": "address",
          "name": "account",
          "type": "address"
        }
      ],
      "name": "renounceRole",
      "outputs": [],
      "stateMutability": "nonpayable",
      "type": "function"
    },
    {
      "inputs": [],
      "name": "resetVote",
      "outputs": [],
      "stateMutability": "nonpayable",
      "type": "function"
    },
    {
      "inputs": [
        {
          "internalType": "bytes32",
          "name": "role",
          "type": "bytes32"
        },
        {
          "internalType": "address",
          "name": "account",
          "type": "address"
        }
      ],
      "name": "revokeRole",
      "outputs": [],
      "stateMutability": "nonpayable",
      "type": "function"
    },
    {
      "inputs": [
        {
          "internalType": "bytes4",
          "name": "interfaceId",
          "type": "bytes4"
        }
      ],
      "name": "supportsInterface",
      "outputs": [
        {
          "internalType": "bool",
          "name": "",
          "type": "bool"
        }
      ],
      "stateMutability": "view",
      "type": "function",
      "constant": true
    },
    {
      "inputs": [],
      "name": "symbol",
      "outputs": [
        {
          "internalType": "string",
          "name": "",
          "type": "string"
        }
      ],
      "stateMutability": "view",
      "type": "function",
      "constant": true
    },
    {
      "inputs": [],
      "name": "syncAllRoles",
      "outputs": [],
      "stateMutability": "nonpayable",
      "type": "function"
    },
    {
      "inputs": [
        {
          "internalType": "bytes32",
          "name": "ROLE_TO_SYNC",
          "type": "bytes32"
        }
      ],
      "name": "syncSingleRole",
      "outputs": [],
      "stateMutability": "nonpayable",
      "type": "function"
    },
    {
      "inputs": [],
      "name": "syncVotes",
      "outputs": [],
      "stateMutability": "nonpayable",
      "type": "function"
    },
    {
      "inputs": [],
      "name": "totalSupply",
      "outputs": [
        {
          "internalType": "uint256",
          "name": "",
          "type": "uint256"
        }
      ],
      "stateMutability": "view",
      "type": "function",
      "constant": true
    },
    {
      "inputs": [
        {
          "internalType": "uint256",
          "name": "snapshotId",
          "type": "uint256"
        }
      ],
      "name": "totalSupplyAt",
      "outputs": [
        {
          "internalType": "uint256",
          "name": "",
          "type": "uint256"
        }
      ],
      "stateMutability": "view",
      "type": "function",
      "constant": true
    },
    {
      "inputs": [
        {
          "internalType": "address",
          "name": "recipient",
          "type": "address"
        },
        {
          "internalType": "uint256",
          "name": "amount",
          "type": "uint256"
        }
      ],
      "name": "transfer",
      "outputs": [
        {
          "internalType": "bool",
          "name": "",
          "type": "bool"
        }
      ],
      "stateMutability": "nonpayable",
      "type": "function"
    },
    {
      "inputs": [
        {
          "internalType": "address",
          "name": "sender",
          "type": "address"
        },
        {
          "internalType": "address",
          "name": "recipient",
          "type": "address"
        },
        {
          "internalType": "uint256",
          "name": "amount",
          "type": "uint256"
        }
      ],
      "name": "transferFrom",
      "outputs": [
        {
          "internalType": "bool",
          "name": "",
          "type": "bool"
        }
      ],
      "stateMutability": "nonpayable",
      "type": "function"
    },
    {
      "inputs": [],
      "name": "updateAddressManager",
      "outputs": [],
      "stateMutability": "nonpayable",
      "type": "function"
    },
    {
      "inputs": [],
      "name": "updateAllAddresses",
      "outputs": [],
      "stateMutability": "nonpayable",
      "type": "function"
    },
    {
      "inputs": [],
      "name": "updateAllRoles",
      "outputs": [],
      "stateMutability": "nonpayable",
      "type": "function"
    },
    {
      "inputs": [],
      "name": "updateDAOAddresses",
      "outputs": [],
      "stateMutability": "nonpayable",
      "type": "function"
    },
    {
      "inputs": [
        {
          "internalType": "bytes32",
          "name": "ROLE_TO_UPDATE",
          "type": "bytes32"
        }
      ],
      "name": "updateSingleRole",
      "outputs": [],
      "stateMutability": "nonpayable",
      "type": "function"
    },
    {
      "inputs": [],
      "name": "updateTokenAddresses",
      "outputs": [],
      "stateMutability": "nonpayable",
      "type": "function"
    },
    {
      "inputs": [
        {
          "internalType": "bool",
          "name": "turnOnSanctions",
          "type": "bool"
        }
      ],
      "name": "switchLocalJerkSanctions",
      "outputs": [],
      "stateMutability": "nonpayable",
      "type": "function"
    },
    {
      "inputs": [
        {
          "internalType": "bool",
          "name": "safteySwitch",
          "type": "bool"
        }
      ],
      "name": "foreverDisableJerkSanctions",
      "outputs": [],
      "stateMutability": "nonpayable",
      "type": "function"
    },
    {
      "inputs": [],
      "name": "snapshot",
      "outputs": [],
      "stateMutability": "nonpayable",
      "type": "function"
    }
  ],
  "bytecode": "0x60806040526009805460ff19169055601a805465ffffffffffff60a01b191690553480156200002d57600080fd5b506040516200441638038062004416833981016040819052620000509162000fc5565b6040805180820182526006815265476176656c7360d01b60208083019182528351808501909452600584526411d85d995b60da1b908401528151849384939290916200009f9160039162000f1f565b508051620000b590600490602084019062000f1f565b5050600c80546001600160a01b039093166001600160a01b03199384168117909155601a80549093161790915550620000ed6200025f565b620000f762000275565b60185462000111906000906001600160a01b0316620003c0565b6018546200014a907f0538d24a8b7882d7b2e36af243d4af61c23e86e3daa6cb8c887b53220b2f5720906001600160a01b0316620003c0565b60155462000183907f048bc71fa1cb2c119c339cf9cf00a97996a19a9d991ce5fe049f2fa5459e7990906001600160a01b0316620003c0565b601654620001bc907ffa8e4989e1d689f7bc5c4b25b87efb51fecdecb19ba62847e29c759e12a89acd906001600160a01b0316620003c0565b601954620001f5907ff0f4b159a6e2a4815eb3ca3df080bfa70c9270662c59bcaa4479a456220183e6906001600160a01b0316620003c0565b620002227f7c9d7f6f02908185bffb3f7fc9afb29fd7bf93675af8fd4b655ee05c2cee1e0e6000620003c0565b506200023730671bc16d674ec8000062000403565b60175462000258906001600160a01b0316680d71b0fe0a28e0000062000403565b50620010b9565b62000269620004f9565b62000273620007f9565b565b601a60009054906101000a90046001600160a01b03166001600160a01b031663ff7e88ec6040518163ffffffff1660e01b815260040160206040518083038186803b158015620002c457600080fd5b505afa158015620002d9573d6000803e3d6000fd5b505050506040513d601f19601f82011682018060405250810190620002ff919062000ff7565b601a60156101000a81548160ff021916908315150217905550601a60009054906101000a90046001600160a01b03166001600160a01b0316632fb565856040518163ffffffff1660e01b815260040160206040518083038186803b1580156200036757600080fd5b505afa1580156200037c573d6000803e3d6000fd5b505050506040513d601f19601f82011682018060405250810190620003a2919062000ff7565b601a8054911515600160b01b0260ff60b01b19909216919091179055565b620003d7828262000c2360201b620010ad1760201c565b6000828152600b60209081526040909120620003fe918390620010bb62000c33821b17901c565b505050565b6001600160a01b0382166200045e5760405162461bcd60e51b815260206004820152601f60248201527f45524332303a206d696e7420746f20746865207a65726f206164647265737300604482015260640160405180910390fd5b6200046c6000838362000c53565b80600260008282546200048091906200101b565b90915550506001600160a01b03821660009081526020819052604081208054839290620004af9084906200101b565b90915550506040518181526001600160a01b038316906000907fddf252ad1be2c89b69c2b068fc378daa952ba7f163c4a11628f55a4df523b3ef9060200160405180910390a35050565b601a60009054906101000a90046001600160a01b03166001600160a01b031663dadf56ac6040518163ffffffff1660e01b815260040160206040518083038186803b1580156200054857600080fd5b505afa1580156200055d573d6000803e3d6000fd5b505050506040513d601f19601f8201168201806040525081019062000583919062000fc5565b601580546001600160a01b0319166001600160a01b03928316179055601a546040805163024bebe960e01b81529051919092169163024bebe9916004808301926020929190829003018186803b158015620005dd57600080fd5b505afa158015620005f2573d6000803e3d6000fd5b505050506040513d601f19601f8201168201806040525081019062000618919062000fc5565b601680546001600160a01b0319166001600160a01b03928316179055601a5460408051635b5c251f60e01b815290519190921691635b5c251f916004808301926020929190829003018186803b1580156200067257600080fd5b505afa15801562000687573d6000803e3d6000fd5b505050506040513d601f19601f82011682018060405250810190620006ad919062000fc5565b601780546001600160a01b0319166001600160a01b03928316179055601a5460408051637310bf1d60e11b81529051919092169163e6217e3a916004808301926020929190829003018186803b1580156200070757600080fd5b505afa1580156200071c573d6000803e3d6000fd5b505050506040513d601f19601f8201168201806040525081019062000742919062000fc5565b601980546001600160a01b0319166001600160a01b03928316179055601a546040805163d88127a160e01b81529051919092169163d88127a1916004808301926020929190829003018186803b1580156200079c57600080fd5b505afa158015620007b1573d6000803e3d6000fd5b505050506040513d601f19601f82011682018060405250810190620007d7919062000fc5565b601480546001600160a01b0319166001600160a01b0392909216919091179055565b601a60009054906101000a90046001600160a01b03166001600160a01b03166321d7f0086040518163ffffffff1660e01b815260040160206040518083038186803b1580156200084857600080fd5b505afa1580156200085d573d6000803e3d6000fd5b505050506040513d601f19601f8201168201806040525081019062000883919062000fc5565b600d80546001600160a01b0319166001600160a01b03928316179055601a546040805163762ddb5960e01b81529051919092169163762ddb59916004808301926020929190829003018186803b158015620008dd57600080fd5b505afa158015620008f2573d6000803e3d6000fd5b505050506040513d601f19601f8201168201806040525081019062000918919062000fc5565b600e80546001600160a01b0319166001600160a01b03928316179055601a546040805163bfb7dc9960e01b81529051919092169163bfb7dc99916004808301926020929190829003018186803b1580156200097257600080fd5b505afa15801562000987573d6000803e3d6000fd5b505050506040513d601f19601f82011682018060405250810190620009ad919062000fc5565b600f80546001600160a01b0319166001600160a01b03928316179055601a5460408051633e6111eb60e21b81529051919092169163f98447ac916004808301926020929190829003018186803b15801562000a0757600080fd5b505afa15801562000a1c573d6000803e3d6000fd5b505050506040513d601f19601f8201168201806040525081019062000a42919062000fc5565b601080546001600160a01b0319166001600160a01b03928316179055601a5460408051630fe1ba9f60e21b815290519190921691633f86ea7c916004808301926020929190829003018186803b15801562000a9c57600080fd5b505afa15801562000ab1573d6000803e3d6000fd5b505050506040513d601f19601f8201168201806040525081019062000ad7919062000fc5565b601180546001600160a01b0319166001600160a01b03928316179055601a5460408051632b90024160e11b8152905191909216916357200482916004808301926020929190829003018186803b15801562000b3157600080fd5b505afa15801562000b46573d6000803e3d6000fd5b505050506040513d601f19601f8201168201806040525081019062000b6c919062000fc5565b601280546001600160a01b0319166001600160a01b03928316179055601a5460408051636b58477560e01b815290519190921691636b584775916004808301926020929190829003018186803b15801562000bc657600080fd5b505afa15801562000bdb573d6000803e3d6000fd5b505050506040513d601f19601f8201168201806040525081019062000c01919062000fc5565b601380546001600160a01b0319166001600160a01b0392909216919091179055565b62000c2f828262000cd1565b5050565b600062000c4a836001600160a01b03841662000d75565b90505b92915050565b601a54600160c81b900460ff16801562000c765750601a54600160a01b900460ff165b1562000cb9573360009081527f6c60edbedf280a303586720ae256348c43e0aca82bb6fbc05bb1d4693759078e602052604090205460ff161562000cb957600080fd5b620003fe83838362000dc760201b620010d01760201c565b6000828152600a602090815260408083206001600160a01b038516845290915290205460ff1662000c2f576000828152600a602090815260408083206001600160a01b03851684529091529020805460ff1916600117905562000d313390565b6001600160a01b0316816001600160a01b0316837f2f8788117e7eff1d82e926ec794901d17c78024a50270940304540a733656f0d60405160405180910390a45050565b600081815260018301602052604081205462000dbe5750815460018181018455600084815260208082209093018490558454848252828601909352604090209190915562000c4d565b50600062000c4d565b62000ddf838383620003fe60201b62000aa41760201c565b6001600160a01b03831662000e035762000df98262000e2e565b620003fe62000e66565b6001600160a01b03821662000e1d5762000df98362000e2e565b62000e288362000e2e565b620003fe825b6001600160a01b0381166000908152600560209081526040808320918390529091205462000e63919062000e76565b62000e76565b50565b62000273600662000e5d60025490565b600062000e8f600862000ed260201b620011181760201c565b90508062000e9d8462000ed6565b1015620003fe578254600180820185556000858152602080822090930193909355938401805494850181558252902090910155565b5490565b805460009062000ee857506000919050565b8154829062000efa9060019062001036565b8154811062000f0d5762000f0d620010a3565b90600052602060002001549050919050565b82805462000f2d9062001050565b90600052602060002090601f01602090048101928262000f51576000855562000f9c565b82601f1062000f6c57805160ff191683800117855562000f9c565b8280016001018555821562000f9c579182015b8281111562000f9c57825182559160200191906001019062000f7f565b5062000faa92915062000fae565b5090565b5b8082111562000faa576000815560010162000faf565b60006020828403121562000fd857600080fd5b81516001600160a01b038116811462000ff057600080fd5b9392505050565b6000602082840312156200100a57600080fd5b8151801515811462000ff057600080fd5b600082198211156200103157620010316200108d565b500190565b6000828210156200104b576200104b6200108d565b500390565b600181811c908216806200106557607f821691505b602082108114156200108757634e487b7160e01b600052602260045260246000fd5b50919050565b634e487b7160e01b600052601160045260246000fd5b634e487b7160e01b600052603260045260246000fd5b61334d80620010c96000396000f3fe608060405234801561001057600080fd5b50600436106103a45760003560e01c80636b584775116101e9578063bfb7dc991161010f578063dd62ed3e116100ad578063f1132b301161007c578063f1132b30146107f4578063f7d92d86146107fc578063f98447ac14610804578063ff7e88ec1461081757600080fd5b8063dd62ed3e14610780578063e6217e3a146107b9578063e78c266c146107cc578063e9a53230146107df57600080fd5b8063cf4ece15116100e9578063cf4ece1514610732578063d547741f14610747578063d88127a11461075a578063dadf56ac1461076d57600080fd5b8063bfb7dc99146106f7578063ca15c8731461070a578063cce843921461071d57600080fd5b80639711715a11610187578063a457c2d711610156578063a457c2d7146106a9578063a78e746f146106bc578063a9059cbb146106d0578063b1265506146106e357600080fd5b80639711715a14610671578063981b24d014610679578063a217fddf1461068c578063a32c5e591461069457600080fd5b80639010d07c116101c35780639010d07c1461063057806391d148541461064357806393dad6e71461065657806395d89b411461066957600080fd5b80636b584775146105e157806370a08231146105f4578063762ddb591461061d57600080fd5b8063329a8cfa116102ce5780634ee2cd7e1161026c5780635b5c251f1161023b5780635b5c251f146105a05780635db531a1146105b35780635f413466146105bb57806368398887146105ce57600080fd5b80634ee2cd7e14610553578063572004821461056657806357f276ff146105795780635a1406961461058c57600080fd5b80633ab76e9f116102a85780633ab76e9f1461051d5780633f86ea7c1461053057806349b5e105146105435780634d84c6d81461054b57600080fd5b8063329a8cfa146104ef57806336568abe146104f7578063395093511461050a57600080fd5b806321d7f008116103465780632f2ff15d116103155780632f2ff15d146104b15780632fb56585146104c4578063313ce567146104d8578063326a55e0146104e757600080fd5b806321d7f0081461045357806323b872dd146104665780632436329d14610479578063248a9ca31461048e57600080fd5b8063095ea7b311610382578063095ea7b314610411578063130f63201461042457806317314d5a1461043957806318160ddd1461044157600080fd5b806301ffc9a7146103a9578063024bebe9146103d157806306fdde03146103fc575b600080fd5b6103bc6103b7366004612fe8565b61082b565b60405190151581526020015b60405180910390f35b6016546103e4906001600160a01b031681565b6040516001600160a01b0390911681526020016103c8565b610404610856565b6040516103c891906130a0565b6103bc61041f366004612f22565b6108e8565b610437610432366004612f88565b6108fe565b005b610437610970565b6002545b6040519081526020016103c8565b600d546103e4906001600160a01b031681565b6103bc610474366004612ee1565b6109d1565b61044560008051602061327883398151915281565b61044561049c366004612f88565b6000908152600a602052604090206001015490565b6104376104bf366004612fa1565b610a82565b601a546103bc90600160b01b900460ff1681565b604051601281526020016103c8565b610437610aa9565b610437610ab9565b610437610505366004612fa1565b610bc2565b6103bc610518366004612f22565b610be4565b601a546103e4906001600160a01b031681565b6011546103e4906001600160a01b031681565b610437610c1b565b610437610ab1565b610445610561366004612f22565b610c23565b6012546103e4906001600160a01b031681565b610437610587366004612f88565b610c7c565b601a546103bc90600160c01b900460ff1681565b6017546103e4906001600160a01b031681565b610437610c90565b6018546103e4906001600160a01b031681565b6104376105dc366004612f4e565b610c98565b6013546103e4906001600160a01b031681565b610445610602366004612e6e565b6001600160a01b031660009081526020819052604090205490565b600e546103e4906001600160a01b031681565b6103e461063e366004612fc6565b610d47565b6103bc610651366004612fa1565b610d66565b610437610664366004612f4e565b610d91565b610404610e43565b610437610e52565b610445610687366004612f88565b610f11565b610445600081565b6104456000805160206132d883398151915281565b6103bc6106b7366004612f22565b610f3c565b601a546103bc90600160a01b900460ff1681565b6103bc6106de366004612f22565b610fd7565b601a546103bc90600160c81b900460ff1681565b600f546103e4906001600160a01b031681565b610445610718366004612f88565b610fe4565b6104456000805160206132f883398151915281565b6104456000805160206132b883398151915281565b610437610755366004612fa1565b610ffb565b6014546103e4906001600160a01b031681565b6015546103e4906001600160a01b031681565b61044561078e366004612ea8565b6001600160a01b03918216600090815260016020908152604080832093909416825291909152205490565b6019546103e4906001600160a01b031681565b600c546103e4906001600160a01b031681565b61044560008051602061329883398151915281565b610437611005565b61043761100d565b6010546103e4906001600160a01b031681565b601a546103bc90600160a81b900460ff1681565b60006001600160e01b03198216635a05180f60e01b148061085057506108508261111c565b92915050565b6060600380546108659061317c565b80601f01602080910402602001604051908101604052809291908181526020018280546108919061317c565b80156108de5780601f106108b3576101008083540402835291602001916108de565b820191906000526020600020905b8154815290600101906020018083116108c157829003601f168201915b5050505050905090565b60006108f5338484611151565b50600192915050565b6109086001611275565b5061091281611329565b5061091c8161149a565b506109276000611275565b61096d5760405162461bcd60e51b81526020600482015260126024820152711cd8599d195e481b9bdd08199b1a5c1c195960721b60448201526064015b60405180910390fd5b50565b61097a6001611275565b50610983611623565b5061098e6000611275565b6109cf5760405162461bcd60e51b81526020600482015260126024820152711cd8599d195e481b9bdd08199b1a5c1c195960721b6044820152606401610964565b565b60006109de848484611769565b6001600160a01b038416600090815260016020908152604080832033845290915290205482811015610a635760405162461bcd60e51b815260206004820152602860248201527f45524332303a207472616e7366657220616d6f756e74206578636565647320616044820152676c6c6f77616e636560c01b6064820152608401610964565b610a778533610a72868561311e565b611151565b506001949350505050565b610a8c828261194c565b6000828152600b60205260409020610aa490826110bb565b505050565b610ab1611987565b6109cf611c73565b610ad16000805160206132d883398151915233610d66565b80610aef5750610aef60008051602061329883398151915233610d66565b80610b0d5750610b0d60008051602061327883398151915233610d66565b610b525760405162461bcd60e51b81526020600482015260166024820152752cb7ba93b932903737ba103a3432903130b4b634b33360511b6044820152606401610964565b601a60009054906101000a90046001600160a01b03166001600160a01b031663329a8cfa6040518163ffffffff1660e01b8152600401600060405180830381600087803b158015610ba257600080fd5b505af1158015610bb6573d6000803e3d6000fd5b505050506109cf610c90565b610bcc8282612081565b6000828152600b60205260409020610aa490826120fb565b3360008181526001602090815260408083206001600160a01b038716845290915281205490916108f5918590610a729086906130d3565b6109cf611987565b6001600160a01b038216600090815260056020526040812081908190610c4a908590612110565b9150915081610c71576001600160a01b038516600090815260208190526040902054610c73565b805b95945050505050565b610c866001611275565b5061091c81612202565b6109cf61245d565b610cb060008051602061329883398151915233610d66565b80610cce5750610cce6000805160206132d883398151915233610d66565b610d125760405162461bcd60e51b8152602060048201526015602482015274596f75277265206e6f742074686520476176656c7360581b6044820152606401610964565b601a54600160c01b900460ff1615610d2957600080fd5b601a8054911515600160c81b0260ff60c81b19909216919091179055565b6000828152600b60205260408120610d5f90836125a0565b9392505050565b6000918252600a602090815260408084206001600160a01b0393909316845291905290205460ff1690565b610da960008051602061329883398151915233610d66565b80610dc75750610dc76000805160206132d883398151915233610d66565b610e0b5760405162461bcd60e51b8152602060048201526015602482015274596f75277265206e6f742074686520476176656c7360581b6044820152606401610964565b80158015610e235750601a54600160c01b900460ff16155b610e2c57600080fd5b50601a805461ffff60c01b1916600160c01b179055565b6060600480546108659061317c565b610e6a6000805160206132d883398151915233610d66565b80610e885750610e8860008051602061329883398151915233610d66565b80610ea65750610ea660008051602061327883398151915233610d66565b80610ec45750610ec46000805160206132b883398151915233610d66565b610f095760405162461bcd60e51b81526020600482015260166024820152752cb7ba93b932903737ba103a3432903130b4b634b33360511b6044820152606401610964565b61096d6125ac565b6000806000610f21846006612110565b9150915081610f3257600254610f34565b805b949350505050565b3360009081526001602090815260408083206001600160a01b038616845290915281205482811015610fbe5760405162461bcd60e51b815260206004820152602560248201527f45524332303a2064656372656173656420616c6c6f77616e63652062656c6f77604482015264207a65726f60d81b6064820152608401610964565b610fcd3385610a72868561311e565b5060019392505050565b60006108f5338484611769565b6000818152600b6020526040812061085090612607565b610bcc8282612611565b6109cf61264c565b6110176001611275565b5061102f6000805160206132d8833981519152612202565b50611047600080516020613298833981519152612202565b5061105f600080516020613278833981519152612202565b506110776000805160206132b8833981519152612202565b5061108f6000805160206132f8833981519152612202565b5061109a6000612202565b506110a361245d565b61098e6000611275565b6110b78282612783565b5050565b6000610d5f836001600160a01b038416612809565b6001600160a01b0383166110ef576110e782612858565b610aa461288a565b6001600160a01b038216611106576110e783612858565b61110f83612858565b610aa482612858565b5490565b60006001600160e01b03198216637965db0b60e01b148061085057506301ffc9a760e01b6001600160e01b0319831614610850565b6001600160a01b0383166111b35760405162461bcd60e51b8152602060048201526024808201527f45524332303a20617070726f76652066726f6d20746865207a65726f206164646044820152637265737360e01b6064820152608401610964565b6001600160a01b0382166112145760405162461bcd60e51b815260206004820152602260248201527f45524332303a20617070726f766520746f20746865207a65726f206164647265604482015261737360f01b6064820152608401610964565b6001600160a01b0383811660008181526001602090815260408083209487168084529482529182902085905590518481527f8c5be1e5ebec7d5bd14f71427d1e84f3dd0314c0f7b2291e5b200ac8c7c3b925910160405180910390a3505050565b60095460009060ff1682151581151514156112d25760405162461bcd60e51b815260206004820152601960248201527f416c72656164792053657420746f20746861742076616c7565000000000000006044820152606401610964565b6009805484151560ff19909116811790915560ff16151581151514156108f55760405162461bcd60e51b815260206004820152600c60248201526b29b0b33a32bc9022b93937b960a11b6044820152606401610964565b60405163ca15c87360e01b8152600481018290526000908190309063ca15c8739060240160206040518083038186803b15801561136557600080fd5b505afa158015611379573d6000803e3d6000fd5b505050506040513d601f19601f8201168201806040525081019061139d9190613012565b905060005b81811015610fcd57604051632404341f60e21b815260048101859052602481018290526000903090639010d07c9060440160206040518083038186803b1580156113eb57600080fd5b505afa1580156113ff573d6000803e3d6000fd5b505050506040513d601f19601f820116820180604052508101906114239190612e8b565b60405163d547741f60e01b8152600481018790526001600160a01b0382166024820152909150309063d547741f90604401600060405180830381600087803b15801561146e57600080fd5b505af1158015611482573d6000803e3d6000fd5b50505050508080611492906131b7565b9150506113a2565b601a5460405163ca15c87360e01b81526004810183905260009182916001600160a01b039091169063ca15c8739060240160206040518083038186803b1580156114e357600080fd5b505afa1580156114f7573d6000803e3d6000fd5b505050506040513d601f19601f8201168201806040525081019061151b9190613012565b905060005b81811015610fcd57601a54604051632404341f60e21b815260048101869052602481018390526000916001600160a01b031690639010d07c9060440160206040518083038186803b15801561157457600080fd5b505afa158015611588573d6000803e3d6000fd5b505050506040513d601f19601f820116820180604052508101906115ac9190612e8b565b604051632f2ff15d60e01b8152600481018790526001600160a01b03821660248201529091503090632f2ff15d90604401600060405180830381600087803b1580156115f757600080fd5b505af115801561160b573d6000803e3d6000fd5b5050505050808061161b906131b7565b915050611520565b600061163c6000805160206132d8833981519152611329565b506116546000805160206132d883398151915261149a565b61165d57600080fd5b611674600080516020613298833981519152611329565b5061168c60008051602061329883398151915261149a565b61169557600080fd5b6116ac600080516020613278833981519152611329565b506116c460008051602061327883398151915261149a565b6116cd57600080fd5b6116e46000805160206132b8833981519152611329565b506116fc6000805160206132b883398151915261149a565b61170557600080fd5b61171c6000805160206132f8833981519152611329565b506117346000805160206132f883398151915261149a565b61173d57600080fd5b6117476000611329565b50611752600061149a565b61175b57600080fd5b61176361245d565b50600190565b6001600160a01b0383166117cd5760405162461bcd60e51b815260206004820152602560248201527f45524332303a207472616e736665722066726f6d20746865207a65726f206164604482015264647265737360d81b6064820152608401610964565b6001600160a01b03821661182f5760405162461bcd60e51b815260206004820152602360248201527f45524332303a207472616e7366657220746f20746865207a65726f206164647260448201526265737360e81b6064820152608401610964565b61183a838383612898565b6001600160a01b038316600090815260208190526040902054818110156118b25760405162461bcd60e51b815260206004820152602660248201527f45524332303a207472616e7366657220616d6f756e7420657863656564732062604482015265616c616e636560d01b6064820152608401610964565b6118bc828261311e565b6001600160a01b0380861660009081526020819052604080822093909355908516815290812080548492906118f29084906130d3565b92505081905550826001600160a01b0316846001600160a01b03167fddf252ad1be2c89b69c2b068fc378daa952ba7f163c4a11628f55a4df523b3ef8460405161193e91815260200190565b60405180910390a350505050565b6000828152600a602052604090206001015460095460ff161561197357610aa48383612783565b61197d81336128ec565b610aa48383612783565b601a60009054906101000a90046001600160a01b03166001600160a01b031663dadf56ac6040518163ffffffff1660e01b815260040160206040518083038186803b1580156119d557600080fd5b505afa1580156119e9573d6000803e3d6000fd5b505050506040513d601f19601f82011682018060405250810190611a0d9190612e8b565b601580546001600160a01b0319166001600160a01b03928316179055601a546040805163024bebe960e01b81529051919092169163024bebe9916004808301926020929190829003018186803b158015611a6657600080fd5b505afa158015611a7a573d6000803e3d6000fd5b505050506040513d601f19601f82011682018060405250810190611a9e9190612e8b565b601680546001600160a01b0319166001600160a01b03928316179055601a5460408051635b5c251f60e01b815290519190921691635b5c251f916004808301926020929190829003018186803b158015611af757600080fd5b505afa158015611b0b573d6000803e3d6000fd5b505050506040513d601f19601f82011682018060405250810190611b2f9190612e8b565b601780546001600160a01b0319166001600160a01b03928316179055601a5460408051637310bf1d60e11b81529051919092169163e6217e3a916004808301926020929190829003018186803b158015611b8857600080fd5b505afa158015611b9c573d6000803e3d6000fd5b505050506040513d601f19601f82011682018060405250810190611bc09190612e8b565b601980546001600160a01b0319166001600160a01b03928316179055601a546040805163d88127a160e01b81529051919092169163d88127a1916004808301926020929190829003018186803b158015611c1957600080fd5b505afa158015611c2d573d6000803e3d6000fd5b505050506040513d601f19601f82011682018060405250810190611c519190612e8b565b601480546001600160a01b0319166001600160a01b0392909216919091179055565b601a60009054906101000a90046001600160a01b03166001600160a01b03166321d7f0086040518163ffffffff1660e01b815260040160206040518083038186803b158015611cc157600080fd5b505afa158015611cd5573d6000803e3d6000fd5b505050506040513d601f19601f82011682018060405250810190611cf99190612e8b565b600d80546001600160a01b0319166001600160a01b03928316179055601a546040805163762ddb5960e01b81529051919092169163762ddb59916004808301926020929190829003018186803b158015611d5257600080fd5b505afa158015611d66573d6000803e3d6000fd5b505050506040513d601f19601f82011682018060405250810190611d8a9190612e8b565b600e80546001600160a01b0319166001600160a01b03928316179055601a546040805163bfb7dc9960e01b81529051919092169163bfb7dc99916004808301926020929190829003018186803b158015611de357600080fd5b505afa158015611df7573d6000803e3d6000fd5b505050506040513d601f19601f82011682018060405250810190611e1b9190612e8b565b600f80546001600160a01b0319166001600160a01b03928316179055601a5460408051633e6111eb60e21b81529051919092169163f98447ac916004808301926020929190829003018186803b158015611e7457600080fd5b505afa158015611e88573d6000803e3d6000fd5b505050506040513d601f19601f82011682018060405250810190611eac9190612e8b565b601080546001600160a01b0319166001600160a01b03928316179055601a5460408051630fe1ba9f60e21b815290519190921691633f86ea7c916004808301926020929190829003018186803b158015611f0557600080fd5b505afa158015611f19573d6000803e3d6000fd5b505050506040513d601f19601f82011682018060405250810190611f3d9190612e8b565b601180546001600160a01b0319166001600160a01b03928316179055601a5460408051632b90024160e11b8152905191909216916357200482916004808301926020929190829003018186803b158015611f9657600080fd5b505afa158015611faa573d6000803e3d6000fd5b505050506040513d601f19601f82011682018060405250810190611fce9190612e8b565b601280546001600160a01b0319166001600160a01b03928316179055601a5460408051636b58477560e01b815290519190921691636b584775916004808301926020929190829003018186803b15801561202757600080fd5b505afa15801561203b573d6000803e3d6000fd5b505050506040513d601f19601f8201168201806040525081019061205f9190612e8b565b601380546001600160a01b0319166001600160a01b0392909216919091179055565b6001600160a01b03811633146120f15760405162461bcd60e51b815260206004820152602f60248201527f416363657373436f6e74726f6c3a2063616e206f6e6c792072656e6f756e636560448201526e103937b632b9903337b91039b2b63360891b6064820152608401610964565b6110b78282612950565b6000610d5f836001600160a01b0384166129b7565b6000806000841161215c5760405162461bcd60e51b815260206004820152601660248201527504552433230536e617073686f743a20696420697320360541b6044820152606401610964565b6008548411156121ae5760405162461bcd60e51b815260206004820152601d60248201527f4552433230536e617073686f743a206e6f6e6578697374656e742069640000006044820152606401610964565b60006121ba8486612aa4565b84549091508114156121d35760008092509250506121fb565b60018460010182815481106121ea576121ea613228565b906000526020600020015492509250505b9250929050565b601a5460405163ca15c87360e01b81526004810183905260009182916001600160a01b039091169063ca15c8739060240160206040518083038186803b15801561224b57600080fd5b505afa15801561225f573d6000803e3d6000fd5b505050506040513d601f19601f820116820180604052508101906122839190613012565b60405163ca15c87360e01b815260048101859052909150600090309063ca15c8739060240160206040518083038186803b1580156122c057600080fd5b505afa1580156122d4573d6000803e3d6000fd5b505050506040513d601f19601f820116820180604052508101906122f89190613012565b90506000612306828461311e565b90506000811161234b5760405162461bcd60e51b815260206004820152601060248201526f4e6f7468696e6720746f2073796e632160801b6044820152606401610964565b60005b8181101561245157601a54604051632404341f60e21b815260048101889052602481018390526000916001600160a01b031690639010d07c9060440160206040518083038186803b1580156123a257600080fd5b505afa1580156123b6573d6000803e3d6000fd5b505050506040513d601f19601f820116820180604052508101906123da9190612e8b565b604051632f2ff15d60e01b8152600481018990526001600160a01b03821660248201529091503090632f2ff15d90604401600060405180830381600087803b15801561242557600080fd5b505af1158015612439573d6000803e3d6000fd5b50505050508080612449906131b7565b91505061234e565b50600195945050505050565b601a60009054906101000a90046001600160a01b03166001600160a01b031663ff7e88ec6040518163ffffffff1660e01b815260040160206040518083038186803b1580156124ab57600080fd5b505afa1580156124bf573d6000803e3d6000fd5b505050506040513d601f19601f820116820180604052508101906124e39190612f6b565b601a60156101000a81548160ff021916908315150217905550601a60009054906101000a90046001600160a01b03166001600160a01b0316632fb565856040518163ffffffff1660e01b815260040160206040518083038186803b15801561254a57600080fd5b505afa15801561255e573d6000803e3d6000fd5b505050506040513d601f19601f820116820180604052508101906125829190612f6b565b601a8054911515600160b01b0260ff60b01b19909216919091179055565b6000610d5f8383612b67565b60006125bc600880546001019055565b60006125c760085490565b90507f8030e83b04d87bef53480e26263266d6ca66863aa8506aca6f2559d18aa1cb67816040516125fa91815260200190565b60405180910390a1919050565b6000610850825490565b6000828152600a602052604090206001015460095460ff161561263857610aa48383612950565b61264281336128ec565b610aa48383612950565b601a60009054906101000a90046001600160a01b03166001600160a01b031663a44b93256040518163ffffffff1660e01b815260040160206040518083038186803b15801561269a57600080fd5b505afa1580156126ae573d6000803e3d6000fd5b505050506040513d601f19601f820116820180604052508101906126d29190612f6b565b6126db57600080fd5b601a60009054906101000a90046001600160a01b03166001600160a01b031663ac7cfac36040518163ffffffff1660e01b815260040160206040518083038186803b15801561272957600080fd5b505afa15801561273d573d6000803e3d6000fd5b505050506040513d601f19601f820116820180604052508101906127619190612e8b565b600c80546001600160a01b0319166001600160a01b0392909216919091179055565b61278d8282610d66565b6110b7576000828152600a602090815260408083206001600160a01b03851684529091529020805460ff191660011790556127c53390565b6001600160a01b0316816001600160a01b0316837f2f8788117e7eff1d82e926ec794901d17c78024a50270940304540a733656f0d60405160405180910390a45050565b600081815260018301602052604081205461285057508154600181810184556000848152602080822090930184905584548482528286019093526040902091909155610850565b506000610850565b6001600160a01b0381166000908152600560209081526040808320918390529091205461096d9190612bed565b612bed565b6109cf600661288560025490565b601a54600160c81b900460ff1680156128ba5750601a54600160a01b900460ff165b156128e1576128d76000805160206132f883398151915233610d66565b156128e157600080fd5b610aa48383836110d0565b6128f68282610d66565b6110b75761290e816001600160a01b03166014612c38565b612919836020612c38565b60405160200161292a92919061302b565b60408051601f198184030181529082905262461bcd60e51b8252610964916004016130a0565b61295a8282610d66565b156110b7576000828152600a602090815260408083206001600160a01b0385168085529252808320805460ff1916905551339285917ff6391f5c32d9c69d2a47ea670b442974b53935d1edc7fd64eb21e047a839171b9190a45050565b60008181526001830160205260408120548015612a9a5760006129db60018361311e565b85549091506000906129ef9060019061311e565b90506000866000018281548110612a0857612a08613228565b9060005260206000200154905080876000018481548110612a2b57612a2b613228565b600091825260208083209091019290925582815260018901909152604090208490558654879080612a5e57612a5e613212565b60019003818190600052602060002001600090559055866001016000878152602001908152602001600020600090556001945050505050610850565b6000915050610850565b8154600090612ab557506000610850565b82546000905b80821015612b11576000612acf8383612dd4565b905084868281548110612ae457612ae4613228565b90600052602060002001541115612afd57809150612b0b565b612b088160016130d3565b92505b50612abb565b600082118015612b4657508385612b2960018561311e565b81548110612b3957612b39613228565b9060005260206000200154145b15612b5f57612b5660018361311e565b92505050610850565b509050610850565b81546000908210612bc55760405162461bcd60e51b815260206004820152602260248201527f456e756d657261626c655365743a20696e646578206f7574206f6620626f756e604482015261647360f01b6064820152608401610964565b826000018281548110612bda57612bda613228565b9060005260206000200154905092915050565b6000612bf860085490565b905080612c0484612e2b565b1015610aa4578254600180820185556000858152602080822090930193909355938401805494850181558252902090910155565b60606000612c478360026130ff565b612c529060026130d3565b67ffffffffffffffff811115612c6a57612c6a61323e565b6040519080825280601f01601f191660200182016040528015612c94576020820181803683370190505b509050600360fc1b81600081518110612caf57612caf613228565b60200101906001600160f81b031916908160001a905350600f60fb1b81600181518110612cde57612cde613228565b60200101906001600160f81b031916908160001a9053506000612d028460026130ff565b612d0d9060016130d3565b90505b6001811115612d85576f181899199a1a9b1b9c1cb0b131b232b360811b85600f1660108110612d4157612d41613228565b1a60f81b828281518110612d5757612d57613228565b60200101906001600160f81b031916908160001a90535060049490941c93612d7e81613165565b9050612d10565b508315610d5f5760405162461bcd60e51b815260206004820181905260248201527f537472696e67733a20686578206c656e67746820696e73756666696369656e746044820152606401610964565b60006002612de281846131d2565b612ded6002866131d2565b612df791906130d3565b612e0191906130eb565b612e0c6002846130eb565b612e176002866130eb565b612e2191906130d3565b610d5f91906130d3565b8054600090612e3c57506000919050565b81548290612e4c9060019061311e565b81548110612e5c57612e5c613228565b90600052602060002001549050919050565b600060208284031215612e8057600080fd5b8135610d5f81613254565b600060208284031215612e9d57600080fd5b8151610d5f81613254565b60008060408385031215612ebb57600080fd5b8235612ec681613254565b91506020830135612ed681613254565b809150509250929050565b600080600060608486031215612ef657600080fd5b8335612f0181613254565b92506020840135612f1181613254565b929592945050506040919091013590565b60008060408385031215612f3557600080fd5b8235612f4081613254565b946020939093013593505050565b600060208284031215612f6057600080fd5b8135610d5f81613269565b600060208284031215612f7d57600080fd5b8151610d5f81613269565b600060208284031215612f9a57600080fd5b5035919050565b60008060408385031215612fb457600080fd5b823591506020830135612ed681613254565b60008060408385031215612fd957600080fd5b50508035926020909101359150565b600060208284031215612ffa57600080fd5b81356001600160e01b031981168114610d5f57600080fd5b60006020828403121561302457600080fd5b5051919050565b7f416363657373436f6e74726f6c3a206163636f756e7420000000000000000000815260008351613063816017850160208801613135565b7001034b99036b4b9b9b4b733903937b6329607d1b6017918401918201528351613094816028840160208801613135565b01602801949350505050565b60208152600082518060208401526130bf816040850160208701613135565b601f01601f19169190910160400192915050565b600082198211156130e6576130e66131e6565b500190565b6000826130fa576130fa6131fc565b500490565b6000816000190483118215151615613119576131196131e6565b500290565b600082821015613130576131306131e6565b500390565b60005b83811015613150578181015183820152602001613138565b8381111561315f576000848401525b50505050565b600081613174576131746131e6565b506000190190565b600181811c9082168061319057607f821691505b602082108114156131b157634e487b7160e01b600052602260045260246000fd5b50919050565b60006000198214156131cb576131cb6131e6565b5060010190565b6000826131e1576131e16131fc565b500690565b634e487b7160e01b600052601160045260246000fd5b634e487b7160e01b600052601260045260246000fd5b634e487b7160e01b600052603160045260246000fd5b634e487b7160e01b600052603260045260246000fd5b634e487b7160e01b600052604160045260246000fd5b6001600160a01b038116811461096d57600080fd5b801515811461096d57600080fdfefa8e4989e1d689f7bc5c4b25b87efb51fecdecb19ba62847e29c759e12a89acd048bc71fa1cb2c119c339cf9cf00a97996a19a9d991ce5fe049f2fa5459e7990f0f4b159a6e2a4815eb3ca3df080bfa70c9270662c59bcaa4479a456220183e60538d24a8b7882d7b2e36af243d4af61c23e86e3daa6cb8c887b53220b2f57207c9d7f6f02908185bffb3f7fc9afb29fd7bf93675af8fd4b655ee05c2cee1e0ea2646970667358221220a71dee463b988480ca87a3a1e1d9fcbd59a7517f5650fcd31c8fca70f5bdf8f864736f6c63430008070033",
  "immutableReferences": {},
  "source": "// Disclaimer: I have literally no idea what I'm doing so take that as you will.\n// Now that thats out of the way, feel free to help improve this!\n\npragma solidity ^0.8.0;\n\nimport \"@openzeppelin/contracts/token/ERC20/ERC20.sol\";\nimport \"@openzeppelin/contracts/token/ERC20/extensions/ERC20Snapshot.sol\";\nimport \"../src/SmartConsensusMachine.sol\";\n\n// Token features:\n// Snapshot for governance and distrubutions\n// Burnable\n// Fixed Supply\n// Gassless Permit (Draft EIP)\n\ncontract Gavels is ERC20, ERC20Snapshot, SmartConsensusMachine {\n\n \n    /******************************************************\n    * JERK SANCTIONS:\n    *   if 'jerkSanctionIsOn' is enabled, this prohibits jerks from using thier Gavels.    *\n    *\n    * FOREVER_DISABLE_SANCTIONS:\n    *   if this setting is set to true, Jerk sanctions will be disabled forever.\n    *   THIS IS NOT REVERSABLE!\n    */\n\n    bool public SANCTIONS_FOREVER_DISABLED = false;\n    bool public jerkSanctionsLocal = false;\n\n    /***********************************************/\n\n\n    constructor(address _AddressManagerAddress) ERC20(\"Gavels\", \"Gavel\") SmartConsensusMachine(_AddressManagerAddress) {\n        _mint(address(this), 2 * 10 ** 18);\n        _mint(TreasuryAddress, 248 * 10 ** 18);\n    }\n\n\n    //***********************************************************\n    // The DAO may choose to prohibit Jerks from using Gavels\n    //********************************************************* */\n    function switchLocalJerkSanctions(bool turnOnSanctions) public GAVELS {\n        require(!SANCTIONS_FOREVER_DISABLED);\n\n        jerkSanctionsLocal = turnOnSanctions;\n\n    }\n\n    // This will disable the sanctions function forever (incase it was a bad idea or poses a security issue)\n    function foreverDisableJerkSanctions(bool safteySwitch) public GAVELS {\n        // The Saftey Switch should be set to FALSE for the function to be properly executed.\n        require(!safteySwitch && !SANCTIONS_FOREVER_DISABLED);\n        jerkSanctionsLocal = false;\n        SANCTIONS_FOREVER_DISABLED = true;\n    }\n\n    /**************************************************************************\n    ***************************************************************************/\n    \n\n    // Take a snapshot of token holders (Must be the recorder, bailiff, or court)\n     function snapshot() public MINI_BAILIFF {\n        _snapshot();\n    }\n\n\n    // Only needed in the event jerk sanctions are turned on.\n    function _beforeTokenTransfer(address from, address to, uint256 amount)\n        internal\n        override(ERC20, ERC20Snapshot)\n    {\n        if (jerkSanctionsLocal && jerkSanctions) {\n           require(!hasRole(JERK_ROLE, msg.sender)); \n        }\n        super._beforeTokenTransfer(from, to, amount);\n    }\n}",
  "sourcePath": "/home/n/Desktop/PinkSlips_FrontEnd_REFORMAT/contracts/govTokens/Gavels.sol",
  "compiler": {
    "name": "solc",
    "version": "0.8.7+commit.e28d00a7.Emscripten.clang"
  },
  "schemaVersion": "3.4.1",
  "updatedAt": "2021-09-06T23:19:47.737Z",
  "networkType": "ethereum",
  "devdoc": {
    "kind": "dev",
    "methods": {
      "allowance(address,address)": {
        "details": "See {IERC20-allowance}."
      },
      "approve(address,uint256)": {
        "details": "See {IERC20-approve}. Requirements: - `spender` cannot be the zero address."
      },
      "balanceOf(address)": {
        "details": "See {IERC20-balanceOf}."
      },
      "balanceOfAt(address,uint256)": {
        "details": "Retrieves the balance of `account` at the time `snapshotId` was created."
      },
      "decimals()": {
        "details": "Returns the number of decimals used to get its user representation. For example, if `decimals` equals `2`, a balance of `505` tokens should be displayed to a user as `5,05` (`505 / 10 ** 2`). Tokens usually opt for a value of 18, imitating the relationship between Ether and Wei. This is the value {ERC20} uses, unless this function is overridden; NOTE: This information is only used for _display_ purposes: it in no way affects any of the arithmetic of the contract, including {IERC20-balanceOf} and {IERC20-transfer}."
      },
      "decreaseAllowance(address,uint256)": {
        "details": "Atomically decreases the allowance granted to `spender` by the caller. This is an alternative to {approve} that can be used as a mitigation for problems described in {IERC20-approve}. Emits an {Approval} event indicating the updated allowance. Requirements: - `spender` cannot be the zero address. - `spender` must have allowance for the caller of at least `subtractedValue`."
      },
      "getRoleAdmin(bytes32)": {
        "details": "Returns the admin role that controls `role`. See {grantRole} and {revokeRole}. To change a role's admin, use {_setRoleAdmin}."
      },
      "getRoleMember(bytes32,uint256)": {
        "details": "Returns one of the accounts that have `role`. `index` must be a value between 0 and {getRoleMemberCount}, non-inclusive. Role bearers are not sorted in any particular way, and their ordering may change at any point. WARNING: When using {getRoleMember} and {getRoleMemberCount}, make sure you perform all queries on the same block. See the following https://forum.openzeppelin.com/t/iterating-over-elements-on-enumerableset-in-openzeppelin-contracts/2296[forum post] for more information."
      },
      "getRoleMemberCount(bytes32)": {
        "details": "Returns the number of accounts that have `role`. Can be used together with {getRoleMember} to enumerate all bearers of a role."
      },
      "grantRole(bytes32,address)": {
        "details": "Overload {grantRole} to track enumerable memberships"
      },
      "hasRole(bytes32,address)": {
        "details": "Returns `true` if `account` has been granted `role`."
      },
      "increaseAllowance(address,uint256)": {
        "details": "Atomically increases the allowance granted to `spender` by the caller. This is an alternative to {approve} that can be used as a mitigation for problems described in {IERC20-approve}. Emits an {Approval} event indicating the updated allowance. Requirements: - `spender` cannot be the zero address."
      },
      "name()": {
        "details": "Returns the name of the token."
      },
      "renounceRole(bytes32,address)": {
        "details": "Overload {renounceRole} to track enumerable memberships"
      },
      "revokeRole(bytes32,address)": {
        "details": "Overload {revokeRole} to track enumerable memberships"
      },
      "supportsInterface(bytes4)": {
        "details": "See {IERC165-supportsInterface}."
      },
      "symbol()": {
        "details": "Returns the symbol of the token, usually a shorter version of the name."
      },
      "totalSupply()": {
        "details": "See {IERC20-totalSupply}."
      },
      "totalSupplyAt(uint256)": {
        "details": "Retrieves the total supply at the time `snapshotId` was created."
      },
      "transfer(address,uint256)": {
        "details": "See {IERC20-transfer}. Requirements: - `recipient` cannot be the zero address. - the caller must have a balance of at least `amount`."
      },
      "transferFrom(address,address,uint256)": {
        "details": "See {IERC20-transferFrom}. Emits an {Approval} event indicating the updated allowance. This is not required by the EIP. See the note at the beginning of {ERC20}. Requirements: - `sender` and `recipient` cannot be the zero address. - `sender` must have a balance of at least `amount`. - the caller must have allowance for ``sender``'s tokens of at least `amount`."
      }
    },
    "version": 1
  },
  "userdoc": {
    "kind": "user",
    "methods": {},
    "version": 1
  }
}