{
  "contractName": "GenericBadgeOLD",
  "abi": [
    {
      "inputs": [
        {
          "internalType": "string",
          "name": "_badgeName",
          "type": "string"
        },
        {
          "internalType": "string",
          "name": "_badgeSymbol",
          "type": "string"
        },
        {
          "internalType": "bool",
          "name": "_payReciver",
          "type": "bool"
        },
        {
          "internalType": "address",
          "name": "_AddressManagerAddress",
          "type": "address"
        }
      ],
      "stateMutability": "nonpayable",
      "type": "constructor"
    },
    {
      "anonymous": false,
      "inputs": [
        {
          "indexed": true,
          "internalType": "address",
          "name": "owner",
          "type": "address"
        },
        {
          "indexed": true,
          "internalType": "address",
          "name": "approved",
          "type": "address"
        },
        {
          "indexed": true,
          "internalType": "uint256",
          "name": "tokenId",
          "type": "uint256"
        }
      ],
      "name": "Approval",
      "type": "event"
    },
    {
      "anonymous": false,
      "inputs": [
        {
          "indexed": true,
          "internalType": "address",
          "name": "owner",
          "type": "address"
        },
        {
          "indexed": true,
          "internalType": "address",
          "name": "operator",
          "type": "address"
        },
        {
          "indexed": false,
          "internalType": "bool",
          "name": "approved",
          "type": "bool"
        }
      ],
      "name": "ApprovalForAll",
      "type": "event"
    },
    {
      "anonymous": false,
      "inputs": [
        {
          "indexed": false,
          "internalType": "address",
          "name": "account",
          "type": "address"
        }
      ],
      "name": "Paused",
      "type": "event"
    },
    {
      "anonymous": false,
      "inputs": [
        {
          "indexed": true,
          "internalType": "bytes32",
          "name": "role",
          "type": "bytes32"
        },
        {
          "indexed": true,
          "internalType": "bytes32",
          "name": "previousAdminRole",
          "type": "bytes32"
        },
        {
          "indexed": true,
          "internalType": "bytes32",
          "name": "newAdminRole",
          "type": "bytes32"
        }
      ],
      "name": "RoleAdminChanged",
      "type": "event"
    },
    {
      "anonymous": false,
      "inputs": [
        {
          "indexed": true,
          "internalType": "bytes32",
          "name": "role",
          "type": "bytes32"
        },
        {
          "indexed": true,
          "internalType": "address",
          "name": "account",
          "type": "address"
        },
        {
          "indexed": true,
          "internalType": "address",
          "name": "sender",
          "type": "address"
        }
      ],
      "name": "RoleGranted",
      "type": "event"
    },
    {
      "anonymous": false,
      "inputs": [
        {
          "indexed": true,
          "internalType": "bytes32",
          "name": "role",
          "type": "bytes32"
        },
        {
          "indexed": true,
          "internalType": "address",
          "name": "account",
          "type": "address"
        },
        {
          "indexed": true,
          "internalType": "address",
          "name": "sender",
          "type": "address"
        }
      ],
      "name": "RoleRevoked",
      "type": "event"
    },
    {
      "anonymous": false,
      "inputs": [
        {
          "indexed": true,
          "internalType": "address",
          "name": "from",
          "type": "address"
        },
        {
          "indexed": true,
          "internalType": "address",
          "name": "to",
          "type": "address"
        },
        {
          "indexed": true,
          "internalType": "uint256",
          "name": "tokenId",
          "type": "uint256"
        }
      ],
      "name": "Transfer",
      "type": "event"
    },
    {
      "anonymous": false,
      "inputs": [
        {
          "indexed": false,
          "internalType": "address",
          "name": "account",
          "type": "address"
        }
      ],
      "name": "Unpaused",
      "type": "event"
    },
    {
      "inputs": [],
      "name": "AddressManagerAddress",
      "outputs": [
        {
          "internalType": "address",
          "name": "",
          "type": "address"
        }
      ],
      "stateMutability": "view",
      "type": "function"
    },
    {
      "inputs": [
        {
          "internalType": "uint256",
          "name": "",
          "type": "uint256"
        }
      ],
      "name": "BadgeInfo",
      "outputs": [
        {
          "internalType": "address",
          "name": "gifter",
          "type": "address"
        },
        {
          "internalType": "string",
          "name": "reason",
          "type": "string"
        }
      ],
      "stateMutability": "view",
      "type": "function"
    },
    {
      "inputs": [
        {
          "internalType": "address",
          "name": "",
          "type": "address"
        },
        {
          "internalType": "uint256",
          "name": "",
          "type": "uint256"
        }
      ],
      "name": "BadgesSent",
      "outputs": [
        {
          "internalType": "uint256",
          "name": "",
          "type": "uint256"
        }
      ],
      "stateMutability": "view",
      "type": "function"
    },
    {
      "inputs": [],
      "name": "ChadBadgeAddress",
      "outputs": [
        {
          "internalType": "address",
          "name": "",
          "type": "address"
        }
      ],
      "stateMutability": "view",
      "type": "function"
    },
    {
      "inputs": [],
      "name": "ColoredIDAddress",
      "outputs": [
        {
          "internalType": "address",
          "name": "",
          "type": "address"
        }
      ],
      "stateMutability": "view",
      "type": "function"
    },
    {
      "inputs": [],
      "name": "CourtClerk",
      "outputs": [
        {
          "internalType": "address",
          "name": "",
          "type": "address"
        }
      ],
      "stateMutability": "view",
      "type": "function"
    },
    {
      "inputs": [],
      "name": "DEFAULT_ADMIN_ROLE",
      "outputs": [
        {
          "internalType": "bytes32",
          "name": "",
          "type": "bytes32"
        }
      ],
      "stateMutability": "view",
      "type": "function"
    },
    {
      "inputs": [],
      "name": "GAVELS_BAILIFF",
      "outputs": [
        {
          "internalType": "bytes32",
          "name": "",
          "type": "bytes32"
        }
      ],
      "stateMutability": "view",
      "type": "function"
    },
    {
      "inputs": [],
      "name": "GavelDAOAgent",
      "outputs": [
        {
          "internalType": "address",
          "name": "",
          "type": "address"
        }
      ],
      "stateMutability": "view",
      "type": "function"
    },
    {
      "inputs": [],
      "name": "GavelTokenAddress",
      "outputs": [
        {
          "internalType": "address",
          "name": "",
          "type": "address"
        }
      ],
      "stateMutability": "view",
      "type": "function"
    },
    {
      "inputs": [],
      "name": "GavelVote",
      "outputs": [
        {
          "internalType": "bool",
          "name": "",
          "type": "bool"
        }
      ],
      "stateMutability": "view",
      "type": "function"
    },
    {
      "inputs": [],
      "name": "GoldStarAddress",
      "outputs": [
        {
          "internalType": "address",
          "name": "",
          "type": "address"
        }
      ],
      "stateMutability": "view",
      "type": "function"
    },
    {
      "inputs": [],
      "name": "JERK_ROLE",
      "outputs": [
        {
          "internalType": "bytes32",
          "name": "",
          "type": "bytes32"
        }
      ],
      "stateMutability": "view",
      "type": "function"
    },
    {
      "inputs": [],
      "name": "JURY_BAILIFF",
      "outputs": [
        {
          "internalType": "bytes32",
          "name": "",
          "type": "bytes32"
        }
      ],
      "stateMutability": "view",
      "type": "function"
    },
    {
      "inputs": [],
      "name": "JuryDAOAgent",
      "outputs": [
        {
          "internalType": "address",
          "name": "",
          "type": "address"
        }
      ],
      "stateMutability": "view",
      "type": "function"
    },
    {
      "inputs": [],
      "name": "JuryPoolAddress",
      "outputs": [
        {
          "internalType": "address",
          "name": "",
          "type": "address"
        }
      ],
      "stateMutability": "view",
      "type": "function"
    },
    {
      "inputs": [],
      "name": "JuryVote",
      "outputs": [
        {
          "internalType": "bool",
          "name": "",
          "type": "bool"
        }
      ],
      "stateMutability": "view",
      "type": "function"
    },
    {
      "inputs": [],
      "name": "MINI_BAILIFF_ROLE",
      "outputs": [
        {
          "internalType": "bytes32",
          "name": "",
          "type": "bytes32"
        }
      ],
      "stateMutability": "view",
      "type": "function"
    },
    {
      "inputs": [],
      "name": "MiniBailiff",
      "outputs": [
        {
          "internalType": "address",
          "name": "",
          "type": "address"
        }
      ],
      "stateMutability": "view",
      "type": "function"
    },
    {
      "inputs": [],
      "name": "PinkSlipAddress",
      "outputs": [
        {
          "internalType": "address",
          "name": "",
          "type": "address"
        }
      ],
      "stateMutability": "view",
      "type": "function"
    },
    {
      "inputs": [],
      "name": "RedPenTokenAddress",
      "outputs": [
        {
          "internalType": "address",
          "name": "",
          "type": "address"
        }
      ],
      "stateMutability": "view",
      "type": "function"
    },
    {
      "inputs": [],
      "name": "THE_COURT_ROLE",
      "outputs": [
        {
          "internalType": "bytes32",
          "name": "",
          "type": "bytes32"
        }
      ],
      "stateMutability": "view",
      "type": "function"
    },
    {
      "inputs": [],
      "name": "TheCourtAddress",
      "outputs": [
        {
          "internalType": "address",
          "name": "",
          "type": "address"
        }
      ],
      "stateMutability": "view",
      "type": "function"
    },
    {
      "inputs": [],
      "name": "TreasuryAddress",
      "outputs": [
        {
          "internalType": "address",
          "name": "",
          "type": "address"
        }
      ],
      "stateMutability": "view",
      "type": "function"
    },
    {
      "inputs": [],
      "name": "addressManager",
      "outputs": [
        {
          "internalType": "contract AddressManager",
          "name": "",
          "type": "address"
        }
      ],
      "stateMutability": "view",
      "type": "function"
    },
    {
      "inputs": [
        {
          "internalType": "address",
          "name": "to",
          "type": "address"
        },
        {
          "internalType": "uint256",
          "name": "tokenId",
          "type": "uint256"
        }
      ],
      "name": "approve",
      "outputs": [],
      "stateMutability": "nonpayable",
      "type": "function"
    },
    {
      "inputs": [],
      "name": "badgeColor",
      "outputs": [
        {
          "internalType": "string",
          "name": "",
          "type": "string"
        }
      ],
      "stateMutability": "view",
      "type": "function"
    },
    {
      "inputs": [],
      "name": "badgeName",
      "outputs": [
        {
          "internalType": "string",
          "name": "",
          "type": "string"
        }
      ],
      "stateMutability": "view",
      "type": "function"
    },
    {
      "inputs": [
        {
          "internalType": "address",
          "name": "owner",
          "type": "address"
        }
      ],
      "name": "balanceOf",
      "outputs": [
        {
          "internalType": "uint256",
          "name": "",
          "type": "uint256"
        }
      ],
      "stateMutability": "view",
      "type": "function"
    },
    {
      "inputs": [
        {
          "internalType": "uint256",
          "name": "tokenId",
          "type": "uint256"
        }
      ],
      "name": "getApproved",
      "outputs": [
        {
          "internalType": "address",
          "name": "",
          "type": "address"
        }
      ],
      "stateMutability": "view",
      "type": "function"
    },
    {
      "inputs": [
        {
          "internalType": "bytes32",
          "name": "role",
          "type": "bytes32"
        }
      ],
      "name": "getRoleAdmin",
      "outputs": [
        {
          "internalType": "bytes32",
          "name": "",
          "type": "bytes32"
        }
      ],
      "stateMutability": "view",
      "type": "function"
    },
    {
      "inputs": [
        {
          "internalType": "bytes32",
          "name": "role",
          "type": "bytes32"
        },
        {
          "internalType": "uint256",
          "name": "index",
          "type": "uint256"
        }
      ],
      "name": "getRoleMember",
      "outputs": [
        {
          "internalType": "address",
          "name": "",
          "type": "address"
        }
      ],
      "stateMutability": "view",
      "type": "function"
    },
    {
      "inputs": [
        {
          "internalType": "bytes32",
          "name": "role",
          "type": "bytes32"
        }
      ],
      "name": "getRoleMemberCount",
      "outputs": [
        {
          "internalType": "uint256",
          "name": "",
          "type": "uint256"
        }
      ],
      "stateMutability": "view",
      "type": "function"
    },
    {
      "inputs": [
        {
          "internalType": "bytes32",
          "name": "role",
          "type": "bytes32"
        },
        {
          "internalType": "address",
          "name": "account",
          "type": "address"
        }
      ],
      "name": "grantRole",
      "outputs": [],
      "stateMutability": "nonpayable",
      "type": "function"
    },
    {
      "inputs": [
        {
          "internalType": "bytes32",
          "name": "role",
          "type": "bytes32"
        },
        {
          "internalType": "address",
          "name": "account",
          "type": "address"
        }
      ],
      "name": "hasRole",
      "outputs": [
        {
          "internalType": "bool",
          "name": "",
          "type": "bool"
        }
      ],
      "stateMutability": "view",
      "type": "function"
    },
    {
      "inputs": [],
      "name": "isForeverLocked",
      "outputs": [
        {
          "internalType": "bool",
          "name": "",
          "type": "bool"
        }
      ],
      "stateMutability": "view",
      "type": "function"
    },
    {
      "inputs": [],
      "name": "jerkSanctions",
      "outputs": [
        {
          "internalType": "bool",
          "name": "",
          "type": "bool"
        }
      ],
      "stateMutability": "view",
      "type": "function"
    },
    {
      "inputs": [],
      "name": "mintingCost",
      "outputs": [
        {
          "internalType": "uint256",
          "name": "",
          "type": "uint256"
        }
      ],
      "stateMutability": "view",
      "type": "function"
    },
    {
      "inputs": [],
      "name": "mintingCostFloor",
      "outputs": [
        {
          "internalType": "uint256",
          "name": "",
          "type": "uint256"
        }
      ],
      "stateMutability": "view",
      "type": "function"
    },
    {
      "inputs": [],
      "name": "name",
      "outputs": [
        {
          "internalType": "string",
          "name": "",
          "type": "string"
        }
      ],
      "stateMutability": "view",
      "type": "function"
    },
    {
      "inputs": [
        {
          "internalType": "uint256",
          "name": "tokenId",
          "type": "uint256"
        }
      ],
      "name": "ownerOf",
      "outputs": [
        {
          "internalType": "address",
          "name": "",
          "type": "address"
        }
      ],
      "stateMutability": "view",
      "type": "function"
    },
    {
      "inputs": [],
      "name": "paused",
      "outputs": [
        {
          "internalType": "bool",
          "name": "",
          "type": "bool"
        }
      ],
      "stateMutability": "view",
      "type": "function"
    },
    {
      "inputs": [],
      "name": "payItForwardTreasuryRatio_Divisor",
      "outputs": [
        {
          "internalType": "uint256",
          "name": "",
          "type": "uint256"
        }
      ],
      "stateMutability": "view",
      "type": "function"
    },
    {
      "inputs": [],
      "name": "payItForwardTreasuryRatio_Numerator",
      "outputs": [
        {
          "internalType": "uint256",
          "name": "",
          "type": "uint256"
        }
      ],
      "stateMutability": "view",
      "type": "function"
    },
    {
      "inputs": [],
      "name": "payReciver",
      "outputs": [
        {
          "internalType": "bool",
          "name": "",
          "type": "bool"
        }
      ],
      "stateMutability": "view",
      "type": "function"
    },
    {
      "inputs": [],
      "name": "redPens",
      "outputs": [
        {
          "internalType": "contract ERC20",
          "name": "",
          "type": "address"
        }
      ],
      "stateMutability": "view",
      "type": "function"
    },
    {
      "inputs": [
        {
          "internalType": "bytes32",
          "name": "role",
          "type": "bytes32"
        },
        {
          "internalType": "address",
          "name": "account",
          "type": "address"
        }
      ],
      "name": "renounceRole",
      "outputs": [],
      "stateMutability": "nonpayable",
      "type": "function"
    },
    {
      "inputs": [],
      "name": "resetVote",
      "outputs": [],
      "stateMutability": "nonpayable",
      "type": "function"
    },
    {
      "inputs": [
        {
          "internalType": "bytes32",
          "name": "role",
          "type": "bytes32"
        },
        {
          "internalType": "address",
          "name": "account",
          "type": "address"
        }
      ],
      "name": "revokeRole",
      "outputs": [],
      "stateMutability": "nonpayable",
      "type": "function"
    },
    {
      "inputs": [],
      "name": "symbol",
      "outputs": [
        {
          "internalType": "string",
          "name": "",
          "type": "string"
        }
      ],
      "stateMutability": "view",
      "type": "function"
    },
    {
      "inputs": [],
      "name": "syncAllRoles",
      "outputs": [],
      "stateMutability": "nonpayable",
      "type": "function"
    },
    {
      "inputs": [
        {
          "internalType": "bytes32",
          "name": "ROLE_TO_SYNC",
          "type": "bytes32"
        }
      ],
      "name": "syncSingleRole",
      "outputs": [],
      "stateMutability": "nonpayable",
      "type": "function"
    },
    {
      "inputs": [],
      "name": "syncVotes",
      "outputs": [],
      "stateMutability": "nonpayable",
      "type": "function"
    },
    {
      "inputs": [
        {
          "internalType": "uint256",
          "name": "index",
          "type": "uint256"
        }
      ],
      "name": "tokenByIndex",
      "outputs": [
        {
          "internalType": "uint256",
          "name": "",
          "type": "uint256"
        }
      ],
      "stateMutability": "view",
      "type": "function"
    },
    {
      "inputs": [
        {
          "internalType": "address",
          "name": "owner",
          "type": "address"
        },
        {
          "internalType": "uint256",
          "name": "index",
          "type": "uint256"
        }
      ],
      "name": "tokenOfOwnerByIndex",
      "outputs": [
        {
          "internalType": "uint256",
          "name": "",
          "type": "uint256"
        }
      ],
      "stateMutability": "view",
      "type": "function"
    },
    {
      "inputs": [
        {
          "internalType": "uint256",
          "name": "tokenId",
          "type": "uint256"
        }
      ],
      "name": "tokenURI",
      "outputs": [
        {
          "internalType": "string",
          "name": "",
          "type": "string"
        }
      ],
      "stateMutability": "view",
      "type": "function"
    },
    {
      "inputs": [],
      "name": "totalSupply",
      "outputs": [
        {
          "internalType": "uint256",
          "name": "",
          "type": "uint256"
        }
      ],
      "stateMutability": "view",
      "type": "function"
    },
    {
      "inputs": [],
      "name": "updateAddressManager",
      "outputs": [],
      "stateMutability": "nonpayable",
      "type": "function"
    },
    {
      "inputs": [],
      "name": "updateAllAddresses",
      "outputs": [],
      "stateMutability": "nonpayable",
      "type": "function"
    },
    {
      "inputs": [],
      "name": "updateAllRoles",
      "outputs": [],
      "stateMutability": "nonpayable",
      "type": "function"
    },
    {
      "inputs": [],
      "name": "updateDAOAddresses",
      "outputs": [],
      "stateMutability": "nonpayable",
      "type": "function"
    },
    {
      "inputs": [
        {
          "internalType": "bytes32",
          "name": "ROLE_TO_UPDATE",
          "type": "bytes32"
        }
      ],
      "name": "updateSingleRole",
      "outputs": [],
      "stateMutability": "nonpayable",
      "type": "function"
    },
    {
      "inputs": [],
      "name": "updateTokenAddresses",
      "outputs": [],
      "stateMutability": "nonpayable",
      "type": "function"
    },
    {
      "inputs": [
        {
          "internalType": "uint256",
          "name": "_tokenId",
          "type": "uint256"
        }
      ],
      "name": "getBadgeReason",
      "outputs": [
        {
          "internalType": "string",
          "name": "_theReason",
          "type": "string"
        }
      ],
      "stateMutability": "view",
      "type": "function"
    },
    {
      "inputs": [
        {
          "internalType": "uint256",
          "name": "_tokenId",
          "type": "uint256"
        }
      ],
      "name": "getBadgeSender",
      "outputs": [
        {
          "internalType": "address",
          "name": "_theGifter",
          "type": "address"
        }
      ],
      "stateMutability": "view",
      "type": "function"
    },
    {
      "inputs": [
        {
          "internalType": "address",
          "name": "_gifter",
          "type": "address"
        }
      ],
      "name": "getBadgesSent",
      "outputs": [
        {
          "internalType": "uint256[]",
          "name": "_BadgesSent",
          "type": "uint256[]"
        }
      ],
      "stateMutability": "view",
      "type": "function"
    },
    {
      "inputs": [
        {
          "internalType": "address",
          "name": "addressToCheck",
          "type": "address"
        },
        {
          "internalType": "uint256",
          "name": "badgeTokenID",
          "type": "uint256"
        }
      ],
      "name": "isBadgeSender",
      "outputs": [
        {
          "internalType": "bool",
          "name": "",
          "type": "bool"
        }
      ],
      "stateMutability": "nonpayable",
      "type": "function"
    },
    {
      "inputs": [
        {
          "internalType": "address",
          "name": "receivingAddress",
          "type": "address"
        },
        {
          "internalType": "string",
          "name": "_reason",
          "type": "string"
        }
      ],
      "name": "issueBadge",
      "outputs": [
        {
          "internalType": "uint256",
          "name": "newId",
          "type": "uint256"
        }
      ],
      "stateMutability": "nonpayable",
      "type": "function"
    },
    {
      "inputs": [
        {
          "internalType": "uint256",
          "name": "tokenId",
          "type": "uint256"
        }
      ],
      "name": "revokeBadge",
      "outputs": [],
      "stateMutability": "nonpayable",
      "type": "function"
    },
    {
      "inputs": [
        {
          "internalType": "uint256",
          "name": "costInWei",
          "type": "uint256"
        }
      ],
      "name": "setMintingCost",
      "outputs": [
        {
          "internalType": "bool",
          "name": "",
          "type": "bool"
        }
      ],
      "stateMutability": "nonpayable",
      "type": "function"
    },
    {
      "inputs": [
        {
          "internalType": "uint256",
          "name": "costFloorInWei",
          "type": "uint256"
        }
      ],
      "name": "setMintingCostFloor",
      "outputs": [
        {
          "internalType": "bool",
          "name": "",
          "type": "bool"
        }
      ],
      "stateMutability": "nonpayable",
      "type": "function"
    },
    {
      "inputs": [],
      "name": "pause",
      "outputs": [],
      "stateMutability": "nonpayable",
      "type": "function"
    },
    {
      "inputs": [],
      "name": "unpause",
      "outputs": [],
      "stateMutability": "nonpayable",
      "type": "function"
    },
    {
      "inputs": [],
      "name": "updatePaymentToken",
      "outputs": [],
      "stateMutability": "nonpayable",
      "type": "function"
    },
    {
      "inputs": [
        {
          "internalType": "bool",
          "name": "thisIsNotReversible",
          "type": "bool"
        }
      ],
      "name": "refreshBadges",
      "outputs": [
        {
          "internalType": "bool",
          "name": "",
          "type": "bool"
        }
      ],
      "stateMutability": "nonpayable",
      "type": "function"
    },
    {
      "inputs": [
        {
          "internalType": "uint256",
          "name": "valueMustBe69",
          "type": "uint256"
        }
      ],
      "name": "destroyAndLockContract",
      "outputs": [
        {
          "internalType": "bool",
          "name": "",
          "type": "bool"
        }
      ],
      "stateMutability": "nonpayable",
      "type": "function"
    },
    {
      "inputs": [
        {
          "internalType": "address",
          "name": "owner",
          "type": "address"
        },
        {
          "internalType": "address",
          "name": "operator",
          "type": "address"
        }
      ],
      "name": "isApprovedForAll",
      "outputs": [
        {
          "internalType": "bool",
          "name": "",
          "type": "bool"
        }
      ],
      "stateMutability": "view",
      "type": "function"
    },
    {
      "inputs": [
        {
          "internalType": "address",
          "name": "operator",
          "type": "address"
        },
        {
          "internalType": "bool",
          "name": "approved",
          "type": "bool"
        }
      ],
      "name": "setApprovalForAll",
      "outputs": [],
      "stateMutability": "nonpayable",
      "type": "function"
    },
    {
      "inputs": [
        {
          "internalType": "bytes4",
          "name": "interfaceId",
          "type": "bytes4"
        }
      ],
      "name": "supportsInterface",
      "outputs": [
        {
          "internalType": "bool",
          "name": "",
          "type": "bool"
        }
      ],
      "stateMutability": "view",
      "type": "function"
    },
    {
      "inputs": [
        {
          "internalType": "address",
          "name": "from",
          "type": "address"
        },
        {
          "internalType": "address",
          "name": "to",
          "type": "address"
        },
        {
          "internalType": "uint256",
          "name": "tokenId",
          "type": "uint256"
        }
      ],
      "name": "transferFrom",
      "outputs": [],
      "stateMutability": "nonpayable",
      "type": "function"
    },
    {
      "inputs": [
        {
          "internalType": "address",
          "name": "from",
          "type": "address"
        },
        {
          "internalType": "address",
          "name": "to",
          "type": "address"
        },
        {
          "internalType": "uint256",
          "name": "tokenId",
          "type": "uint256"
        }
      ],
      "name": "safeTransferFrom",
      "outputs": [],
      "stateMutability": "nonpayable",
      "type": "function"
    },
    {
      "inputs": [
        {
          "internalType": "address",
          "name": "from",
          "type": "address"
        },
        {
          "internalType": "address",
          "name": "to",
          "type": "address"
        },
        {
          "internalType": "uint256",
          "name": "tokenId",
          "type": "uint256"
        },
        {
          "internalType": "bytes",
          "name": "_data",
          "type": "bytes"
        }
      ],
      "name": "safeTransferFrom",
      "outputs": [],
      "stateMutability": "nonpayable",
      "type": "function"
    }
  ],
  "bytecode": "0x60806040526000805460ff1990811682556011805463ffffffff60a01b191690556729a2241af62c0000601d5567016345785d8a0000601e556002601f556003602055602191909155602280549091169055600554602580546001600160a01b0319166001600160a01b039092169190911790553480156200008057600080fd5b5060405162005c1938038062005c19833981016040819052620000a39162000e56565b600380546001600160a01b0383166001600160a01b03199182168117909255601180549091169091179055838382620000db620002b8565b620000e5620002ce565b600f54620000ff906000906001600160a01b031662000419565b600f5462000138907f0538d24a8b7882d7b2e36af243d4af61c23e86e3daa6cb8c887b53220b2f5720906001600160a01b031662000419565b600c5462000171907f048bc71fa1cb2c119c339cf9cf00a97996a19a9d991ce5fe049f2fa5459e7990906001600160a01b031662000419565b600d54620001aa907ffa8e4989e1d689f7bc5c4b25b87efb51fecdecb19ba62847e29c759e12a89acd906001600160a01b031662000419565b601054620001e3907ff0f4b159a6e2a4815eb3ca3df080bfa70c9270662c59bcaa4479a456220183e6906001600160a01b031662000419565b620002107f7c9d7f6f02908185bffb3f7fc9afb29fd7bf93675af8fd4b655ee05c2cee1e0e600062000419565b5081516200022690601290602085019062000c8f565b5080516200023c90601390602084019062000c8f565b50506018805460ff191690555082516200025e90602390602086019062000c8f565b5083516200027490602490602087019062000c8f565b5050602280549115156101000261ff00199092169190911790555050600554602580546001600160a01b0319166001600160a01b0390921691909117905562000f38565b620002c26200045c565b620002cc6200075c565b565b601160009054906101000a90046001600160a01b03166001600160a01b031663ff7e88ec6040518163ffffffff1660e01b815260040160206040518083038186803b1580156200031d57600080fd5b505afa15801562000332573d6000803e3d6000fd5b505050506040513d601f19601f8201168201806040525081019062000358919062000e38565b601160156101000a81548160ff021916908315150217905550601160009054906101000a90046001600160a01b03166001600160a01b0316632fb565856040518163ffffffff1660e01b815260040160206040518083038186803b158015620003c057600080fd5b505afa158015620003d5573d6000803e3d6000fd5b505050506040513d601f19601f82011682018060405250810190620003fb919062000e38565b60118054911515600160b01b0260ff60b01b19909216919091179055565b62000430828262000b8560201b62001f801760201c565b60008281526002602090815260409091206200045791839062001f8a62000b95821b17901c565b505050565b601160009054906101000a90046001600160a01b03166001600160a01b031663dadf56ac6040518163ffffffff1660e01b815260040160206040518083038186803b158015620004ab57600080fd5b505afa158015620004c0573d6000803e3d6000fd5b505050506040513d601f19601f82011682018060405250810190620004e6919062000e1a565b600c80546001600160a01b0319166001600160a01b039283161790556011546040805163024bebe960e01b81529051919092169163024bebe9916004808301926020929190829003018186803b1580156200054057600080fd5b505afa15801562000555573d6000803e3d6000fd5b505050506040513d601f19601f820116820180604052508101906200057b919062000e1a565b600d80546001600160a01b0319166001600160a01b0392831617905560115460408051635b5c251f60e01b815290519190921691635b5c251f916004808301926020929190829003018186803b158015620005d557600080fd5b505afa158015620005ea573d6000803e3d6000fd5b505050506040513d601f19601f8201168201806040525081019062000610919062000e1a565b600e80546001600160a01b0319166001600160a01b0392831617905560115460408051637310bf1d60e11b81529051919092169163e6217e3a916004808301926020929190829003018186803b1580156200066a57600080fd5b505afa1580156200067f573d6000803e3d6000fd5b505050506040513d601f19601f82011682018060405250810190620006a5919062000e1a565b601080546001600160a01b0319166001600160a01b039283161790556011546040805163d88127a160e01b81529051919092169163d88127a1916004808301926020929190829003018186803b158015620006ff57600080fd5b505afa15801562000714573d6000803e3d6000fd5b505050506040513d601f19601f820116820180604052508101906200073a919062000e1a565b600b80546001600160a01b0319166001600160a01b0392909216919091179055565b601160009054906101000a90046001600160a01b03166001600160a01b03166321d7f0086040518163ffffffff1660e01b815260040160206040518083038186803b158015620007ab57600080fd5b505afa158015620007c0573d6000803e3d6000fd5b505050506040513d601f19601f82011682018060405250810190620007e6919062000e1a565b600480546001600160a01b0319166001600160a01b039283161781556011546040805163762ddb5960e01b81529051919093169263762ddb599281810192602092909190829003018186803b1580156200083f57600080fd5b505afa15801562000854573d6000803e3d6000fd5b505050506040513d601f19601f820116820180604052508101906200087a919062000e1a565b600580546001600160a01b0319166001600160a01b039283161790556011546040805163bfb7dc9960e01b81529051919092169163bfb7dc99916004808301926020929190829003018186803b158015620008d457600080fd5b505afa158015620008e9573d6000803e3d6000fd5b505050506040513d601f19601f820116820180604052508101906200090f919062000e1a565b600680546001600160a01b0319166001600160a01b0392831617905560115460408051633e6111eb60e21b81529051919092169163f98447ac916004808301926020929190829003018186803b1580156200096957600080fd5b505afa1580156200097e573d6000803e3d6000fd5b505050506040513d601f19601f82011682018060405250810190620009a4919062000e1a565b600780546001600160a01b0319166001600160a01b0392831617905560115460408051630fe1ba9f60e21b815290519190921691633f86ea7c916004808301926020929190829003018186803b158015620009fe57600080fd5b505afa15801562000a13573d6000803e3d6000fd5b505050506040513d601f19601f8201168201806040525081019062000a39919062000e1a565b600880546001600160a01b0319166001600160a01b0392831617905560115460408051632b90024160e11b8152905191909216916357200482916004808301926020929190829003018186803b15801562000a9357600080fd5b505afa15801562000aa8573d6000803e3d6000fd5b505050506040513d601f19601f8201168201806040525081019062000ace919062000e1a565b600980546001600160a01b0319166001600160a01b0392831617905560115460408051636b58477560e01b815290519190921691636b584775916004808301926020929190829003018186803b15801562000b2857600080fd5b505afa15801562000b3d573d6000803e3d6000fd5b505050506040513d601f19601f8201168201806040525081019062000b63919062000e1a565b600a80546001600160a01b0319166001600160a01b0392909216919091179055565b62000b91828262000bb5565b5050565b600062000bac836001600160a01b03841662000c3d565b90505b92915050565b60008281526001602090815260408083206001600160a01b038516845290915290205460ff1662000b915760008281526001602081815260408084206001600160a01b0386168086529252808420805460ff19169093179092559051339285917f2f8788117e7eff1d82e926ec794901d17c78024a50270940304540a733656f0d9190a45050565b600081815260018301602052604081205462000c865750815460018181018455600084815260208082209093018490558454848252828601909352604090209190915562000baf565b50600062000baf565b82805462000c9d9062000ee5565b90600052602060002090601f01602090048101928262000cc1576000855562000d0c565b82601f1062000cdc57805160ff191683800117855562000d0c565b8280016001018555821562000d0c579182015b8281111562000d0c57825182559160200191906001019062000cef565b5062000d1a92915062000d1e565b5090565b5b8082111562000d1a576000815560010162000d1f565b80516001600160a01b038116811462000d4d57600080fd5b919050565b8051801515811462000d4d57600080fd5b600082601f83011262000d7557600080fd5b81516001600160401b038082111562000d925762000d9262000f22565b604051601f8301601f19908116603f0116810190828211818310171562000dbd5762000dbd62000f22565b8160405283815260209250868385880101111562000dda57600080fd5b600091505b8382101562000dfe578582018301518183018401529082019062000ddf565b8382111562000e105760008385830101525b9695505050505050565b60006020828403121562000e2d57600080fd5b62000bac8262000d35565b60006020828403121562000e4b57600080fd5b62000bac8262000d52565b6000806000806080858703121562000e6d57600080fd5b84516001600160401b038082111562000e8557600080fd5b62000e938883890162000d63565b9550602087015191508082111562000eaa57600080fd5b5062000eb98782880162000d63565b93505062000eca6040860162000d52565b915062000eda6060860162000d35565b905092959194509250565b600181811c9082168062000efa57607f821691505b6020821081141562000f1c57634e487b7160e01b600052602260045260246000fd5b50919050565b634e487b7160e01b600052604160045260246000fd5b614cd18062000f486000396000f3fe608060405234801561001057600080fd5b50600436106104965760003560e01c80636b58477511610262578063c04e17e311610151578063e6217e3a116100ce578063ee0b4c3511610092578063ee0b4c35146109fb578063f1132b3014610a0e578063f7d92d8614610a16578063f98447ac14610a1e578063f98db25314610a31578063ff7e88ec14610a4457600080fd5b8063e6217e3a146109a4578063e78c266c146109b7578063e985e9c5146109ca578063e9a53230146109dd578063ebf98abf146109f257600080fd5b8063cf4ece1511610115578063cf4ece151461094e578063d547741f14610963578063d88127a114610976578063dadf56ac14610989578063dea6f9c81461099c57600080fd5b8063c04e17e3146108df578063c62b28e814610900578063c87b56dd14610913578063ca15c87314610926578063cce843921461093957600080fd5b806391d14854116101df578063a22cb465116101a3578063a22cb4651461087d578063a32c5e5914610890578063a78e746f146108a5578063b88d4fde146108b9578063bfb7dc99146108cc57600080fd5b806391d148541461083a57806395d89b411461084d57806396ac6bf0146108555780639ac3eaa714610868578063a217fddf1461087557600080fd5b8063765160781161022657806376516078146107f0578063794ccf6c146108035780638456cb591461081657806387e9152d1461081e5780639010d07c1461082757600080fd5b80636b584775146107865780636c353e341461079957806370a08231146107a157806373c89822146107b4578063762ddb59146107dd57600080fd5b8063329a8cfa1161038957806357200482116103065780635db531a1116102ca5780635db531a11461071d5780635f41346614610725578063610c3009146107385780636352211e1461074057806363ebc6771461075357806367a14f061461077357600080fd5b806357200482146106c657806357f276ff146106d957806359e6f787146106ec5780635b5c251f146106ff5780635c975abb1461071257600080fd5b806340005bb91161034d57806340005bb91461067e57806342842e0e1461069057806349b5e105146106a35780634d84c6d8146106ab5780634f6ccce7146106b357600080fd5b8063329a8cfa1461063557806336568abe1461063d5780633ab76e9f146106505780633f4ba83a146106635780633f86ea7c1461066b57600080fd5b806321d670e91161041757806329e63f35116103db57806329e63f35146105e05780632f2ff15d146105f35780632f745c59146106065780632fb5658514610619578063326a55e01461062d57600080fd5b806321d670e91461057857806321d7f0081461058157806323b872dd146105945780632436329d146105a7578063248a9ca3146105bc57600080fd5b80630ad17f8f1161045e5780630ad17f8f1461052b57806310a83fcb1461054c578063130f63201461055557806317314d5a1461056857806318160ddd1461057057600080fd5b806301ffc9a71461049b578063024bebe9146104c357806306fdde03146104ee578063081812fc14610503578063095ea7b314610516575b600080fd5b6104ae6104a936600461477a565b610a58565b60405190151581526020015b60405180910390f35b600d546104d6906001600160a01b031681565b6040516001600160a01b0390911681526020016104ba565b6104f6610a69565b6040516104ba9190614942565b6104d661051136600461471a565b610afb565b6105296105243660046146b4565b610b95565b005b61053e6105393660046146b4565b610cab565b6040519081526020016104ba565b61053e601e5481565b61052961056336600461471a565b610cdc565b610529610d49565b601b5461053e565b61053e601f5481565b6004546104d6906001600160a01b031681565b6105296105a2366004614561565b610daa565b61053e600080516020614bfc83398151915281565b61053e6105ca36600461471a565b6000908152600160208190526040909120015490565b6104ae6105ee36600461471a565b610e02565b610529610601366004614733565b610f0f565b61053e6106143660046146b4565b610f31565b6011546104ae90600160b01b900460ff1681565b610529610fc7565b610529610fd7565b61052961064b366004614733565b6110e0565b6011546104d6906001600160a01b031681565b610529611102565b6008546104d6906001600160a01b031681565b6022546104ae90610100900460ff1681565b61052961069e366004614561565b611194565b6105296111fb565b610529610fcf565b61053e6106c136600461471a565b611203565b6009546104d6906001600160a01b031681565b6105296106e736600461471a565b611296565b6104ae6106fa3660046146b4565b6112aa565b600e546104d6906001600160a01b031681565b60185460ff166104ae565b6105296112dc565b600f546104d6906001600160a01b031681565b6104f66112e4565b6104d661074e36600461471a565b611372565b6107666107613660046144ee565b6113e9565b6040516104ba91906148fe565b6025546104d6906001600160a01b031681565b600a546104d6906001600160a01b031681565b610529611455565b61053e6107af3660046144ee565b611481565b6104d66107c236600461471a565b6000908152602660205260409020546001600160a01b031690565b6005546104d6906001600160a01b031681565b6104ae6107fe3660046146e0565b611508565b61053e610811366004614650565b6115ff565b610529611846565b61053e60205481565b6104d6610835366004614758565b6118c8565b6104ae610848366004614733565b6118e7565b6104f6611912565b6104ae61086336600461471a565b611921565b6022546104ae9060ff1681565b61053e600081565b61052961088b366004614622565b611a2d565b61053e600080516020614c5c83398151915281565b6011546104ae90600160a01b900460ff1681565b6105296108c73660046145a2565b611aab565b6006546104d6906001600160a01b031681565b6108f26108ed36600461471a565b611add565b6040516104ba9291906148da565b61052961090e36600461471a565b611b8c565b6104f661092136600461471a565b611bdd565b61053e61093436600461471a565b611cc4565b61053e600080516020614c7c83398151915281565b61053e600080516020614c3c83398151915281565b610529610971366004614733565b611cdb565b600b546104d6906001600160a01b031681565b600c546104d6906001600160a01b031681565b6104f6611ce5565b6010546104d6906001600160a01b031681565b6003546104d6906001600160a01b031681565b6104ae6109d8366004614528565b611cf2565b61053e600080516020614c1c83398151915281565b61053e601d5481565b6104ae610a0936600461471a565b611d51565b610529611e3d565b610529611e45565b6007546104d6906001600160a01b031681565b6104f6610a3f36600461471a565b611ee5565b6011546104ae90600160a81b900460ff1681565b6000610a6382611f9f565b92915050565b606060128054610a7890614aea565b80601f0160208091040260200160405190810160405280929190818152602001828054610aa490614aea565b8015610af15780601f10610ac657610100808354040283529160200191610af1565b820191906000526020600020905b815481529060010190602001808311610ad457829003601f168201915b5050505050905090565b6000818152601460205260408120546001600160a01b0316610b795760405162461bcd60e51b815260206004820152602c60248201527f4552433732313a20617070726f76656420717565727920666f72206e6f6e657860448201526b34b9ba32b73a103a37b5b2b760a11b60648201526084015b60405180910390fd5b506000908152601660205260409020546001600160a01b031690565b6000610ba082611372565b9050806001600160a01b0316836001600160a01b03161415610c0e5760405162461bcd60e51b815260206004820152602160248201527f4552433732313a20617070726f76616c20746f2063757272656e74206f776e656044820152603960f91b6064820152608401610b70565b336001600160a01b0382161480610c2a5750610c2a8133611cf2565b610c9c5760405162461bcd60e51b815260206004820152603860248201527f4552433732313a20617070726f76652063616c6c6572206973206e6f74206f7760448201527f6e6572206e6f7220617070726f76656420666f7220616c6c00000000000000006064820152608401610b70565b610ca68383611fc4565b505050565b60276020528160005260406000208181548110610cc757600080fd5b90600052602060002001600091509150505481565b610ce6600161204b565b50610cf0816120fd565b50610cfa81612278565b50610d05600061204b565b610d465760405162461bcd60e51b81526020600482015260126024820152711cd8599d195e481b9bdd08199b1a5c1c195960721b6044820152606401610b70565b50565b610d53600161204b565b50610d5c612401565b50610d67600061204b565b610da85760405162461bcd60e51b81526020600482015260126024820152711cd8599d195e481b9bdd08199b1a5c1c195960721b6044820152606401610b70565b565b6000818152602660205260409020546001600160a01b031633811480610dd55750610dd58433611cf2565b610df15760405162461bcd60e51b8152600401610b70906149a7565b610dfc848484612547565b50505050565b6000610e1c600080516020614c5c833981519152336118e7565b80610e3a5750610e3a600080516020614c1c833981519152336118e7565b80610e585750610e58600080516020614bfc833981519152336118e7565b610e9d5760405162461bcd60e51b81526020600482015260166024820152752cb7ba93b932903737ba103a3432903130b4b634b33360511b6044820152606401610b70565b601e548210610efa5760405162461bcd60e51b8152602060048201526024808201527f536f7272792120596f752063616e206f6e6c79206c6f7765722074686520666c6044820152636f6f722160e01b6064820152608401610b70565b610f0682601e55600190565b50600192915050565b610f198282612578565b6000828152600260205260409020610ca69082611f8a565b6000610f3c83611481565b8210610f9e5760405162461bcd60e51b815260206004820152602b60248201527f455243373231456e756d657261626c653a206f776e657220696e646578206f7560448201526a74206f6620626f756e647360a81b6064820152608401610b70565b506001600160a01b03919091166000908152601960209081526040808320938352929052205490565b610fcf6125b2565b610da861289e565b610fef600080516020614c5c833981519152336118e7565b8061100d575061100d600080516020614c1c833981519152336118e7565b8061102b575061102b600080516020614bfc833981519152336118e7565b6110705760405162461bcd60e51b81526020600482015260166024820152752cb7ba93b932903737ba103a3432903130b4b634b33360511b6044820152606401610b70565b601160009054906101000a90046001600160a01b03166001600160a01b031663329a8cfa6040518163ffffffff1660e01b8152600401600060405180830381600087803b1580156110c057600080fd5b505af11580156110d4573d6000803e3d6000fd5b50505050610da86112dc565b6110ea8282612cab565b6000828152600260205260409020610ca69082612d25565b61111a600080516020614c1c833981519152336118e7565b806111385750611138600080516020614c5c833981519152336118e7565b61117c5760405162461bcd60e51b8152602060048201526015602482015274596f75277265206e6f742074686520476176656c7360581b6044820152606401610b70565b60225460ff161561118c57600080fd5b610da8612d3a565b600061119f82611372565b6000838152602660205260409020549091506001600160a01b0316338114806111cd57506111cd8533611cf2565b6111e95760405162461bcd60e51b8152600401610b70906149a7565b6111f4858585612dcd565b5050505050565b610da86125b2565b600061120e601b5490565b82106112715760405162461bcd60e51b815260206004820152602c60248201527f455243373231456e756d657261626c653a20676c6f62616c20696e646578206f60448201526b7574206f6620626f756e647360a01b6064820152608401610b70565b601b828154811061128457611284614b96565b90600052602060002001549050919050565b6112a0600161204b565b50610cfa81612de8565b6000818152602660205260408120546001600160a01b03848116911614156112d457506001610a63565b506000610a63565b610da8613043565b602480546112f190614aea565b80601f016020809104026020016040519081016040528092919081815260200182805461131d90614aea565b801561136a5780601f1061133f5761010080835404028352916020019161136a565b820191906000526020600020905b81548152906001019060200180831161134d57829003601f168201915b505050505081565b6000818152601460205260408120546001600160a01b031680610a635760405162461bcd60e51b815260206004820152602960248201527f4552433732313a206f776e657220717565727920666f72206e6f6e657869737460448201526832b73a103a37b5b2b760b91b6064820152608401610b70565b6001600160a01b03811660009081526027602090815260409182902080548351818402810184019094528084526060939283018282801561144957602002820191906000526020600020905b815481526020019060010190808311611435575b50505050509050919050565b61145d61289e565b600554602580546001600160a01b0319166001600160a01b03909216919091179055565b60006001600160a01b0382166114ec5760405162461bcd60e51b815260206004820152602a60248201527f4552433732313a2062616c616e636520717565727920666f7220746865207a65604482015269726f206164647265737360b01b6064820152608401610b70565b506001600160a01b031660009081526015602052604090205490565b6000611522600080516020614c1c833981519152336118e7565b806115405750611540600080516020614bfc833981519152336118e7565b8061155e575061155e600080516020614c5c833981519152336118e7565b61156757600080fd5b601154600160b01b810460ff9081161515600160a81b90920416151514600114806115a557506115a5600080516020614c5c833981519152336118e7565b6115e45760405162461bcd60e51b815260206004820152601060248201526f436f757274204d75737420416772656560801b6044820152606401610b70565b600182151514156115f757610f06613186565b506000919050565b601d546025546040516370a0823160e01b8152306004820152600092859284926001600160a01b03909116906370a082319060240160206040518083038186803b15801561164c57600080fd5b505afa158015611660573d6000803e3d6000fd5b505050506040513d601f19601f8201168201806040525081019061168491906147b4565b61168e9190614a45565b602554601d546040516323b872dd60e01b815233600482015230602482015260448101919091529192506001600160a01b0316906323b872dd90606401602060405180830381600087803b1580156116e557600080fd5b505af11580156116f9573d6000803e3d6000fd5b505050506040513d601f19601f8201168201806040525081019061171d91906146fd565b506025546040516370a0823160e01b815230600482015282916001600160a01b0316906370a082319060240160206040518083038186803b15801561176157600080fd5b505afa158015611775573d6000803e3d6000fd5b505050506040513d601f19601f8201168201806040525081019061179991906147b4565b146117df5760405162461bcd60e51b8152602060048201526016602482015275115c9c9bdc88151c985b9cd9995c9a5b99c80854915160521b6044820152606401610b70565b6001600160a01b038516331480159061180057506001600160a01b03851615155b61180957600080fd5b60215492506118193385856131d8565b61182585602154613247565b6001602160008282546118389190614a45565b909155509295945050505050565b61185e600080516020614c1c833981519152336118e7565b8061187c575061187c600080516020614c5c833981519152336118e7565b6118c05760405162461bcd60e51b8152602060048201526015602482015274596f75277265206e6f742074686520476176656c7360581b6044820152606401610b70565b610da8613261565b60008281526002602052604081206118e090836132dc565b9392505050565b60009182526001602090815260408084206001600160a01b0393909316845291905290205460ff1690565b606060138054610a7890614aea565b600061193b600080516020614c1c833981519152336118e7565b806119595750611959600080516020614bfc833981519152336118e7565b806119775750611977600080516020614c5c833981519152336118e7565b61198057600080fd5b601154600160b01b810460ff9081161515600160a81b90920416151514600114806119be57506119be600080516020614c5c833981519152336118e7565b6119fd5760405162461bcd60e51b815260206004820152601060248201526f436f757274204d75737420416772656560801b6044820152606401610b70565b81604514156115f757611a0e613186565b50611a17613261565b506022805460ff19166001908117909155919050565b611a45600080516020614c5c833981519152336118e7565b80611a635750611a63600080516020614c1c833981519152336118e7565b80611a815750611a81600080516020614bfc833981519152336118e7565b611a9d5760405162461bcd60e51b8152600401610b70906149a7565b611aa782826132e8565b5050565b611ab533836133ad565b611ad15760405162461bcd60e51b8152600401610b70906149f4565b610dfc8484848461346c565b602660205260009081526040902080546001820180546001600160a01b039092169291611b0990614aea565b80601f0160208091040260200160405190810160405280929190818152602001828054611b3590614aea565b8015611b825780601f10611b5757610100808354040283529160200191611b82565b820191906000526020600020905b815481529060010190602001808311611b6557829003601f168201915b5050505050905082565b611b9633826133ad565b611bd45760405162461bcd60e51b815260206004820152600f60248201526e4e696365205472792c204275636b6f60881b6044820152606401610b70565b610d468161349f565b6000818152601460205260409020546060906001600160a01b0316611c5c5760405162461bcd60e51b815260206004820152602f60248201527f4552433732314d657461646174613a2055524920717565727920666f72206e6f60448201526e3732bc34b9ba32b73a103a37b5b2b760891b6064820152608401610b70565b6000611c7360408051602081019091526000815290565b90506000815111611c9357604051806020016040528060008152506118e0565b80611c9d84613546565b604051602001611cae9291906147f9565b6040516020818303038152906040529392505050565b6000818152600260205260408120610a6390613644565b6110ea828261364e565b602380546112f190614aea565b600080611d0d600080516020614c5c833981519152846118e7565b80611d2b5750611d2b600080516020614c1c833981519152846118e7565b80611d495750611d49600080516020614bfc833981519152846118e7565b949350505050565b6000611d6b600080516020614bfc833981519152336118e7565b80611d895750611d89600080516020614c5c833981519152336118e7565b611dcb5760405162461bcd60e51b8152602060048201526013602482015272596f75277265206e6f7420746865204a75727960681b6044820152606401610b70565b601e54821015611e315760405162461bcd60e51b815260206004820152602b60248201527f536f7272792120436f7374206d7573742062652067726561746572207468616e60448201526a10181718902932b22832b760a91b6064820152608401610b70565b610f0682601d55600190565b610da8613688565b611e4f600161204b565b50611e67600080516020614c5c833981519152612de8565b50611e7f600080516020614c1c833981519152612de8565b50611e97600080516020614bfc833981519152612de8565b50611eaf600080516020614c3c833981519152612de8565b50611ec7600080516020614c7c833981519152612de8565b50611ed26000612de8565b50611edb613043565b610d67600061204b565b6000818152602660205260409020600101805460609190611f0590614aea565b80601f0160208091040260200160405190810160405280929190818152602001828054611f3190614aea565b80156114495780601f10611f5357610100808354040283529160200191611449565b820191906000526020600020905b815481529060010190602001808311611f615750939695505050505050565b611aa782826137bf565b60006118e0836001600160a01b03841661382a565b60006001600160e01b0319821663780e9d6360e01b1480610a635750610a6382613871565b611fdc600080516020614c5c833981519152336118e7565b6120415760405162461bcd60e51b815260206004820152603060248201527f596f7520646f206e6f742068617665207065726d697373696f6e20746f20617060448201526f70726f7665207468697320626164676560801b6064820152608401610b70565b611aa782826138b1565b6000805460ff1682151581151514156120a65760405162461bcd60e51b815260206004820152601960248201527f416c72656164792053657420746f20746861742076616c7565000000000000006044820152606401610b70565b6000805484151560ff19909116811790915560ff1615158115151415610f065760405162461bcd60e51b815260206004820152600c60248201526b29b0b33a32bc9022b93937b960a11b6044820152606401610b70565b60405163ca15c87360e01b8152600481018290526000908190309063ca15c8739060240160206040518083038186803b15801561213957600080fd5b505afa15801561214d573d6000803e3d6000fd5b505050506040513d601f19601f8201168201806040525081019061217191906147b4565b905060005b8181101561226e57604051632404341f60e21b815260048101859052602481018290526000903090639010d07c9060440160206040518083038186803b1580156121bf57600080fd5b505afa1580156121d3573d6000803e3d6000fd5b505050506040513d601f19601f820116820180604052508101906121f7919061450b565b60405163d547741f60e01b8152600481018790526001600160a01b0382166024820152909150309063d547741f90604401600060405180830381600087803b15801561224257600080fd5b505af1158015612256573d6000803e3d6000fd5b5050505050808061226690614b25565b915050612176565b5060019392505050565b60115460405163ca15c87360e01b81526004810183905260009182916001600160a01b039091169063ca15c8739060240160206040518083038186803b1580156122c157600080fd5b505afa1580156122d5573d6000803e3d6000fd5b505050506040513d601f19601f820116820180604052508101906122f991906147b4565b905060005b8181101561226e57601154604051632404341f60e21b815260048101869052602481018390526000916001600160a01b031690639010d07c9060440160206040518083038186803b15801561235257600080fd5b505afa158015612366573d6000803e3d6000fd5b505050506040513d601f19601f8201168201806040525081019061238a919061450b565b604051632f2ff15d60e01b8152600481018790526001600160a01b03821660248201529091503090632f2ff15d90604401600060405180830381600087803b1580156123d557600080fd5b505af11580156123e9573d6000803e3d6000fd5b505050505080806123f990614b25565b9150506122fe565b600061241a600080516020614c5c8339815191526120fd565b50612432600080516020614c5c833981519152612278565b61243b57600080fd5b612452600080516020614c1c8339815191526120fd565b5061246a600080516020614c1c833981519152612278565b61247357600080fd5b61248a600080516020614bfc8339815191526120fd565b506124a2600080516020614bfc833981519152612278565b6124ab57600080fd5b6124c2600080516020614c3c8339815191526120fd565b506124da600080516020614c3c833981519152612278565b6124e357600080fd5b6124fa600080516020614c7c8339815191526120fd565b50612512600080516020614c7c833981519152612278565b61251b57600080fd5b61252560006120fd565b506125306000612278565b61253957600080fd5b612541613043565b50600190565b61255133826133ad565b61256d5760405162461bcd60e51b8152600401610b70906149f4565b610ca683838361391f565b600082815260016020819052604082200154905460ff161561259e57610ca683836137bf565b6125a88133613aca565b610ca683836137bf565b601160009054906101000a90046001600160a01b03166001600160a01b031663dadf56ac6040518163ffffffff1660e01b815260040160206040518083038186803b15801561260057600080fd5b505afa158015612614573d6000803e3d6000fd5b505050506040513d601f19601f82011682018060405250810190612638919061450b565b600c80546001600160a01b0319166001600160a01b039283161790556011546040805163024bebe960e01b81529051919092169163024bebe9916004808301926020929190829003018186803b15801561269157600080fd5b505afa1580156126a5573d6000803e3d6000fd5b505050506040513d601f19601f820116820180604052508101906126c9919061450b565b600d80546001600160a01b0319166001600160a01b0392831617905560115460408051635b5c251f60e01b815290519190921691635b5c251f916004808301926020929190829003018186803b15801561272257600080fd5b505afa158015612736573d6000803e3d6000fd5b505050506040513d601f19601f8201168201806040525081019061275a919061450b565b600e80546001600160a01b0319166001600160a01b0392831617905560115460408051637310bf1d60e11b81529051919092169163e6217e3a916004808301926020929190829003018186803b1580156127b357600080fd5b505afa1580156127c7573d6000803e3d6000fd5b505050506040513d601f19601f820116820180604052508101906127eb919061450b565b601080546001600160a01b0319166001600160a01b039283161790556011546040805163d88127a160e01b81529051919092169163d88127a1916004808301926020929190829003018186803b15801561284457600080fd5b505afa158015612858573d6000803e3d6000fd5b505050506040513d601f19601f8201168201806040525081019061287c919061450b565b600b80546001600160a01b0319166001600160a01b0392909216919091179055565b601160009054906101000a90046001600160a01b03166001600160a01b03166321d7f0086040518163ffffffff1660e01b815260040160206040518083038186803b1580156128ec57600080fd5b505afa158015612900573d6000803e3d6000fd5b505050506040513d601f19601f82011682018060405250810190612924919061450b565b600480546001600160a01b0319166001600160a01b039283161781556011546040805163762ddb5960e01b81529051919093169263762ddb599281810192602092909190829003018186803b15801561297c57600080fd5b505afa158015612990573d6000803e3d6000fd5b505050506040513d601f19601f820116820180604052508101906129b4919061450b565b600580546001600160a01b0319166001600160a01b039283161790556011546040805163bfb7dc9960e01b81529051919092169163bfb7dc99916004808301926020929190829003018186803b158015612a0d57600080fd5b505afa158015612a21573d6000803e3d6000fd5b505050506040513d601f19601f82011682018060405250810190612a45919061450b565b600680546001600160a01b0319166001600160a01b0392831617905560115460408051633e6111eb60e21b81529051919092169163f98447ac916004808301926020929190829003018186803b158015612a9e57600080fd5b505afa158015612ab2573d6000803e3d6000fd5b505050506040513d601f19601f82011682018060405250810190612ad6919061450b565b600780546001600160a01b0319166001600160a01b0392831617905560115460408051630fe1ba9f60e21b815290519190921691633f86ea7c916004808301926020929190829003018186803b158015612b2f57600080fd5b505afa158015612b43573d6000803e3d6000fd5b505050506040513d601f19601f82011682018060405250810190612b67919061450b565b600880546001600160a01b0319166001600160a01b0392831617905560115460408051632b90024160e11b8152905191909216916357200482916004808301926020929190829003018186803b158015612bc057600080fd5b505afa158015612bd4573d6000803e3d6000fd5b505050506040513d601f19601f82011682018060405250810190612bf8919061450b565b600980546001600160a01b0319166001600160a01b0392831617905560115460408051636b58477560e01b815290519190921691636b584775916004808301926020929190829003018186803b158015612c5157600080fd5b505afa158015612c65573d6000803e3d6000fd5b505050506040513d601f19601f82011682018060405250810190612c89919061450b565b600a80546001600160a01b0319166001600160a01b0392909216919091179055565b6001600160a01b0381163314612d1b5760405162461bcd60e51b815260206004820152602f60248201527f416363657373436f6e74726f6c3a2063616e206f6e6c792072656e6f756e636560448201526e103937b632b9903337b91039b2b63360891b6064820152608401610b70565b611aa78282613b2e565b60006118e0836001600160a01b038416613b95565b60185460ff16612d835760405162461bcd60e51b815260206004820152601460248201527314185d5cd8589b194e881b9bdd081c185d5cd95960621b6044820152606401610b70565b6018805460ff191690557f5db9ee0a495bf2e6ff9c91a7834c1ba4fdd244a5e8aa4e537bd38aeae4b073aa335b6040516001600160a01b03909116815260200160405180910390a1565b610ca683838360405180602001604052806000815250611aab565b60115460405163ca15c87360e01b81526004810183905260009182916001600160a01b039091169063ca15c8739060240160206040518083038186803b158015612e3157600080fd5b505afa158015612e45573d6000803e3d6000fd5b505050506040513d601f19601f82011682018060405250810190612e6991906147b4565b60405163ca15c87360e01b815260048101859052909150600090309063ca15c8739060240160206040518083038186803b158015612ea657600080fd5b505afa158015612eba573d6000803e3d6000fd5b505050506040513d601f19601f82011682018060405250810190612ede91906147b4565b90506000612eec8284614a90565b905060008111612f315760405162461bcd60e51b815260206004820152601060248201526f4e6f7468696e6720746f2073796e632160801b6044820152606401610b70565b60005b8181101561303757601154604051632404341f60e21b815260048101889052602481018390526000916001600160a01b031690639010d07c9060440160206040518083038186803b158015612f8857600080fd5b505afa158015612f9c573d6000803e3d6000fd5b505050506040513d601f19601f82011682018060405250810190612fc0919061450b565b604051632f2ff15d60e01b8152600481018990526001600160a01b03821660248201529091503090632f2ff15d90604401600060405180830381600087803b15801561300b57600080fd5b505af115801561301f573d6000803e3d6000fd5b5050505050808061302f90614b25565b915050612f34565b50600195945050505050565b601160009054906101000a90046001600160a01b03166001600160a01b031663ff7e88ec6040518163ffffffff1660e01b815260040160206040518083038186803b15801561309157600080fd5b505afa1580156130a5573d6000803e3d6000fd5b505050506040513d601f19601f820116820180604052508101906130c991906146fd565b601160156101000a81548160ff021916908315150217905550601160009054906101000a90046001600160a01b03166001600160a01b0316632fb565856040518163ffffffff1660e01b815260040160206040518083038186803b15801561313057600080fd5b505afa158015613144573d6000803e3d6000fd5b505050506040513d601f19601f8201168201806040525081019061316891906146fd565b60118054911515600160b01b0260ff60b01b19909216919091179055565b6000805b6021548110156131cc576000818152601460205260409020546001600160a01b0316156131ba576131ba8161349f565b806131c481614b25565b91505061318a565b50506000602155600190565b600081815260266020908152604090912080546001600160a01b0319166001600160a01b0386161781558351613216926001909201918501906143df565b506001600160a01b039092166000908152602760209081526040822080546001810182559083529120019190915550565b611aa7828260405180602001604052806000815250613c82565b60185460ff16156132a75760405162461bcd60e51b815260206004820152601060248201526f14185d5cd8589b194e881c185d5cd95960821b6044820152606401610b70565b6018805460ff191660011790557f62e78cea01bee320cd4e420270b5ea74000d11b0c9f74754ebdbfc544b05a258612db03390565b60006118e08383613cb5565b6001600160a01b0382163314156133415760405162461bcd60e51b815260206004820152601960248201527f4552433732313a20617070726f766520746f2063616c6c6572000000000000006044820152606401610b70565b3360008181526017602090815260408083206001600160a01b03871680855290835292819020805460ff191686151590811790915590519081529192917f17307eab39ab6107e8899845ad3d59bd9653f200f220920489ca2b5937696c31910160405180910390a35050565b6000818152601460205260408120546001600160a01b03166134265760405162461bcd60e51b815260206004820152602c60248201527f4552433732313a206f70657261746f7220717565727920666f72206e6f6e657860448201526b34b9ba32b73a103a37b5b2b760a11b6064820152608401610b70565b600061343183611372565b6000848152602660205260409020549091506001600160a01b0390811690851681148061346357506134638286611cf2565b95945050505050565b61347784848461391f565b61348384848484613d3b565b610dfc5760405162461bcd60e51b8152600401610b7090614955565b60006134aa82611372565b90506134b881600084613e48565b6134c3600083611fc4565b6001600160a01b03811660009081526015602052604081208054600192906134ec908490614a90565b909155505060008281526014602052604080822080546001600160a01b0319169055518391906001600160a01b038416907fddf252ad1be2c89b69c2b068fc378daa952ba7f163c4a11628f55a4df523b3ef908390a45050565b60608161356a5750506040805180820190915260018152600360fc1b602082015290565b8160005b8115613594578061357e81614b25565b915061358d9050600a83614a5d565b915061356e565b60008167ffffffffffffffff8111156135af576135af614bac565b6040519080825280601f01601f1916602001820160405280156135d9576020820181803683370190505b5090505b8415611d49576135ee600183614a90565b91506135fb600a86614b40565b613606906030614a45565b60f81b81838151811061361b5761361b614b96565b60200101906001600160f81b031916908160001a90535061363d600a86614a5d565b94506135dd565b6000610a63825490565b600082815260016020819052604082200154905460ff161561367457610ca68383613b2e565b61367e8133613aca565b610ca68383613b2e565b601160009054906101000a90046001600160a01b03166001600160a01b031663a44b93256040518163ffffffff1660e01b815260040160206040518083038186803b1580156136d657600080fd5b505afa1580156136ea573d6000803e3d6000fd5b505050506040513d601f19601f8201168201806040525081019061370e91906146fd565b61371757600080fd5b601160009054906101000a90046001600160a01b03166001600160a01b031663ac7cfac36040518163ffffffff1660e01b815260040160206040518083038186803b15801561376557600080fd5b505afa158015613779573d6000803e3d6000fd5b505050506040513d601f19601f8201168201806040525081019061379d919061450b565b600380546001600160a01b0319166001600160a01b0392909216919091179055565b6137c982826118e7565b611aa75760008281526001602081815260408084206001600160a01b0386168086529252808420805460ff19169093179092559051339285917f2f8788117e7eff1d82e926ec794901d17c78024a50270940304540a733656f0d9190a45050565b60008181526001830160205260408120546112d457508154600181810184556000848152602080822090930184905584548482528286019093526040902091909155610a63565b60006001600160e01b031982166380ac58cd60e01b14806138a257506001600160e01b03198216635b5e139f60e01b145b80610a635750610a6382613e53565b600081815260166020526040902080546001600160a01b0319166001600160a01b03841690811790915581906138e682611372565b6001600160a01b03167f8c5be1e5ebec7d5bd14f71427d1e84f3dd0314c0f7b2291e5b200ac8c7c3b92560405160405180910390a45050565b826001600160a01b031661393282611372565b6001600160a01b03161461399a5760405162461bcd60e51b815260206004820152602960248201527f4552433732313a207472616e73666572206f6620746f6b656e2074686174206960448201526839903737ba1037bbb760b91b6064820152608401610b70565b6001600160a01b0382166139fc5760405162461bcd60e51b8152602060048201526024808201527f4552433732313a207472616e7366657220746f20746865207a65726f206164646044820152637265737360e01b6064820152608401610b70565b613a07838383613e48565b613a12600082611fc4565b6001600160a01b0383166000908152601560205260408120805460019290613a3b908490614a90565b90915550506001600160a01b0382166000908152601560205260408120805460019290613a69908490614a45565b909155505060008181526014602052604080822080546001600160a01b0319166001600160a01b0386811691821790925591518493918716917fddf252ad1be2c89b69c2b068fc378daa952ba7f163c4a11628f55a4df523b3ef91a4505050565b613ad482826118e7565b611aa757613aec816001600160a01b03166014613e78565b613af7836020613e78565b604051602001613b08929190614828565b60408051601f198184030181529082905262461bcd60e51b8252610b7091600401614942565b613b3882826118e7565b15611aa75760008281526001602090815260408083206001600160a01b0385168085529252808320805460ff1916905551339285917ff6391f5c32d9c69d2a47ea670b442974b53935d1edc7fd64eb21e047a839171b9190a45050565b60008181526001830160205260408120548015613c78576000613bb9600183614a90565b8554909150600090613bcd90600190614a90565b90506000866000018281548110613be657613be6614b96565b9060005260206000200154905080876000018481548110613c0957613c09614b96565b600091825260208083209091019290925582815260018901909152604090208490558654879080613c3c57613c3c614b80565b60019003818190600052602060002001600090559055866001016000878152602001908152602001600020600090556001945050505050610a63565b6000915050610a63565b613c8c8383614014565b613c996000848484613d3b565b610ca65760405162461bcd60e51b8152600401610b7090614955565b81546000908210613d135760405162461bcd60e51b815260206004820152602260248201527f456e756d657261626c655365743a20696e646578206f7574206f6620626f756e604482015261647360f01b6064820152608401610b70565b826000018281548110613d2857613d28614b96565b9060005260206000200154905092915050565b60006001600160a01b0384163b15613e3d57604051630a85bd0160e11b81526001600160a01b0385169063150b7a0290613d7f90339089908890889060040161489d565b602060405180830381600087803b158015613d9957600080fd5b505af1925050508015613dc9575060408051601f3d908101601f19168201909252613dc691810190614797565b60015b613e23573d808015613df7576040519150601f19603f3d011682016040523d82523d6000602084013e613dfc565b606091505b508051613e1b5760405162461bcd60e51b8152600401610b7090614955565b805181602001fd5b6001600160e01b031916630a85bd0160e11b149050611d49565b506001949350505050565b610ca6838383614162565b60006001600160e01b03198216635a05180f60e01b1480610a635750610a638261421a565b60606000613e87836002614a71565b613e92906002614a45565b67ffffffffffffffff811115613eaa57613eaa614bac565b6040519080825280601f01601f191660200182016040528015613ed4576020820181803683370190505b509050600360fc1b81600081518110613eef57613eef614b96565b60200101906001600160f81b031916908160001a905350600f60fb1b81600181518110613f1e57613f1e614b96565b60200101906001600160f81b031916908160001a9053506000613f42846002614a71565b613f4d906001614a45565b90505b6001811115613fc5576f181899199a1a9b1b9c1cb0b131b232b360811b85600f1660108110613f8157613f81614b96565b1a60f81b828281518110613f9757613f97614b96565b60200101906001600160f81b031916908160001a90535060049490941c93613fbe81614ad3565b9050613f50565b5083156118e05760405162461bcd60e51b815260206004820181905260248201527f537472696e67733a20686578206c656e67746820696e73756666696369656e746044820152606401610b70565b6001600160a01b03821661406a5760405162461bcd60e51b815260206004820181905260248201527f4552433732313a206d696e7420746f20746865207a65726f20616464726573736044820152606401610b70565b6000818152601460205260409020546001600160a01b0316156140cf5760405162461bcd60e51b815260206004820152601c60248201527f4552433732313a20746f6b656e20616c7265616479206d696e746564000000006044820152606401610b70565b6140db60008383613e48565b6001600160a01b0382166000908152601560205260408120805460019290614104908490614a45565b909155505060008181526014602052604080822080546001600160a01b0319166001600160a01b03861690811790915590518392907fddf252ad1be2c89b69c2b068fc378daa952ba7f163c4a11628f55a4df523b3ef908290a45050565b6001600160a01b0383166141bd576141b881601b80546000838152601c60205260408120829055600182018355919091527f3ad8aa4f87544323a9d1e5dd902f40c356527a7955687113db5f9a85ad579dc10155565b6141e0565b816001600160a01b0316836001600160a01b0316146141e0576141e0838261424f565b6001600160a01b0382166141f757610ca6816142ec565b826001600160a01b0316826001600160a01b031614610ca657610ca6828261439b565b60006001600160e01b03198216637965db0b60e01b1480610a6357506301ffc9a760e01b6001600160e01b0319831614610a63565b6000600161425c84611481565b6142669190614a90565b6000838152601a60205260409020549091508082146142b9576001600160a01b03841660009081526019602090815260408083208584528252808320548484528184208190558352601a90915290208190555b506000918252601a602090815260408084208490556001600160a01b039094168352601981528383209183525290812055565b601b546000906142fe90600190614a90565b6000838152601c6020526040812054601b805493945090928490811061432657614326614b96565b9060005260206000200154905080601b838154811061434757614347614b96565b6000918252602080832090910192909255828152601c9091526040808220849055858252812055601b80548061437f5761437f614b80565b6001900381819060005260206000200160009055905550505050565b60006143a683611481565b6001600160a01b0390931660009081526019602090815260408083208684528252808320859055938252601a9052919091209190915550565b8280546143eb90614aea565b90600052602060002090601f01602090048101928261440d5760008555614453565b82601f1061442657805160ff1916838001178555614453565b82800160010185558215614453579182015b82811115614453578251825591602001919060010190614438565b5061445f929150614463565b5090565b5b8082111561445f5760008155600101614464565b600067ffffffffffffffff8084111561449357614493614bac565b604051601f8501601f19908116603f011681019082821181831017156144bb576144bb614bac565b816040528093508581528686860111156144d457600080fd5b858560208301376000602087830101525050509392505050565b60006020828403121561450057600080fd5b81356118e081614bc2565b60006020828403121561451d57600080fd5b81516118e081614bc2565b6000806040838503121561453b57600080fd5b823561454681614bc2565b9150602083013561455681614bc2565b809150509250929050565b60008060006060848603121561457657600080fd5b833561458181614bc2565b9250602084013561459181614bc2565b929592945050506040919091013590565b600080600080608085870312156145b857600080fd5b84356145c381614bc2565b935060208501356145d381614bc2565b925060408501359150606085013567ffffffffffffffff8111156145f657600080fd5b8501601f8101871361460757600080fd5b61461687823560208401614478565b91505092959194509250565b6000806040838503121561463557600080fd5b823561464081614bc2565b9150602083013561455681614bd7565b6000806040838503121561466357600080fd5b823561466e81614bc2565b9150602083013567ffffffffffffffff81111561468a57600080fd5b8301601f8101851361469b57600080fd5b6146aa85823560208401614478565b9150509250929050565b600080604083850312156146c757600080fd5b82356146d281614bc2565b946020939093013593505050565b6000602082840312156146f257600080fd5b81356118e081614bd7565b60006020828403121561470f57600080fd5b81516118e081614bd7565b60006020828403121561472c57600080fd5b5035919050565b6000806040838503121561474657600080fd5b82359150602083013561455681614bc2565b6000806040838503121561476b57600080fd5b50508035926020909101359150565b60006020828403121561478c57600080fd5b81356118e081614be5565b6000602082840312156147a957600080fd5b81516118e081614be5565b6000602082840312156147c657600080fd5b5051919050565b600081518084526147e5816020860160208601614aa7565b601f01601f19169290920160200192915050565b6000835161480b818460208801614aa7565b83519083019061481f818360208801614aa7565b01949350505050565b7f416363657373436f6e74726f6c3a206163636f756e7420000000000000000000815260008351614860816017850160208801614aa7565b7001034b99036b4b9b9b4b733903937b6329607d1b6017918401918201528351614891816028840160208801614aa7565b01602801949350505050565b6001600160a01b03858116825284166020820152604081018390526080606082018190526000906148d0908301846147cd565b9695505050505050565b6001600160a01b0383168152604060208201819052600090611d49908301846147cd565b6020808252825182820181905260009190848201906040850190845b818110156149365783518352928401929184019160010161491a565b50909695505050505050565b6020815260006118e060208301846147cd565b60208082526032908201527f4552433732313a207472616e7366657220746f206e6f6e20455243373231526560408201527131b2b4bb32b91034b6b83632b6b2b73a32b960711b606082015260800190565b6020808252602d908201527f596f7520646f206e6f742068617665207065726d697373696f6e20746f206d6f60408201526c7665207468697320626164676560981b606082015260800190565b60208082526031908201527f4552433732313a207472616e736665722063616c6c6572206973206e6f74206f6040820152701ddb995c881b9bdc88185c1c1c9bdd9959607a1b606082015260800190565b60008219821115614a5857614a58614b54565b500190565b600082614a6c57614a6c614b6a565b500490565b6000816000190483118215151615614a8b57614a8b614b54565b500290565b600082821015614aa257614aa2614b54565b500390565b60005b83811015614ac2578181015183820152602001614aaa565b83811115610dfc5750506000910152565b600081614ae257614ae2614b54565b506000190190565b600181811c90821680614afe57607f821691505b60208210811415614b1f57634e487b7160e01b600052602260045260246000fd5b50919050565b6000600019821415614b3957614b39614b54565b5060010190565b600082614b4f57614b4f614b6a565b500690565b634e487b7160e01b600052601160045260246000fd5b634e487b7160e01b600052601260045260246000fd5b634e487b7160e01b600052603160045260246000fd5b634e487b7160e01b600052603260045260246000fd5b634e487b7160e01b600052604160045260246000fd5b6001600160a01b0381168114610d4657600080fd5b8015158114610d4657600080fd5b6001600160e01b031981168114610d4657600080fdfefa8e4989e1d689f7bc5c4b25b87efb51fecdecb19ba62847e29c759e12a89acd048bc71fa1cb2c119c339cf9cf00a97996a19a9d991ce5fe049f2fa5459e7990f0f4b159a6e2a4815eb3ca3df080bfa70c9270662c59bcaa4479a456220183e60538d24a8b7882d7b2e36af243d4af61c23e86e3daa6cb8c887b53220b2f57207c9d7f6f02908185bffb3f7fc9afb29fd7bf93675af8fd4b655ee05c2cee1e0ea26469706673582212209b09dd4c97cf91c14456f7742736d56cffde4f91885f0d7f6a0781705348de3164736f6c63430008070033",
  "immutableReferences": {},
  "source": "pragma solidity ^0.8.0;\n\nimport \"./SmartConsensusMachine.sol\";\nimport \"./AddressManagerReciever.sol\";\n\nimport \"@openzeppelin/contracts/token/ERC20/ERC20.sol\";\nimport \"@openzeppelin/contracts/token/ERC721/extensions/ERC721Enumerable.sol\";\nimport \"@openzeppelin/contracts/token/ERC721/ERC721.sol\";\nimport \"@openzeppelin/contracts/security/Pausable.sol\";\n\ncontract GenericBadgeOLD is SmartConsensusMachine, ERC721, Pausable, ERC721Enumerable {\n    \n    // Set Default Minting Costs to 3 Red Pens.\n    uint256 public mintingCost = 3 * 10 ** 18;\n\n    // Set Default Minting Cost Floor to 1 Red Pens\n    uint256 public mintingCostFloor = 1 * 10 ** 17;\n\n    uint256 public payItForwardTreasuryRatio_Numerator = 2;\n    uint256 public payItForwardTreasuryRatio_Divisor = 3;\n\n    uint256 private _tokenIdGenerator = 0;\n\n    bool public isForeverLocked = false;\n    bool public payReciver;\n\n    string public badgeColor;\n    string public badgeName;\n\n    ERC20 public redPens = ERC20(RedPenTokenAddress);\n\n     constructor(string memory _badgeName, string memory _badgeSymbol, bool _payReciver, address _AddressManagerAddress)\n        ERC721(_badgeName, _badgeSymbol)\n        SmartConsensusMachine(_AddressManagerAddress){\n       \n       // updateAllAddresses();\n        badgeColor = _badgeSymbol;\n        badgeName = _badgeName;\n\n        payReciver = _payReciver;\n        redPens = ERC20(RedPenTokenAddress);\n    }      \n\n    \n    //******************************\n    //                            **\n    //     Setup mapping          ** \n    //                            **\n    //******************************\n    struct Badge { // struct will store the gifter address and reason for the gold stars\n        address gifter;\n        string reason;\n    }\n\n    mapping (uint => Badge) public BadgeInfo; // mapping of badge ID to badge struct(reason/gifter address)\n\n    mapping (address => uint[]) public BadgesSent; // mapping of address to tokenIDs sent\n\n\n\n    function setBadgeInfo(address _gifter, string memory _reason, uint _tokenId) internal {\n        BadgeInfo[_tokenId].gifter = _gifter; // assigns this goldstar gifter address to msg.sender\n        BadgeInfo[_tokenId].reason = _reason; // assigns the reason for this goldstar\n        BadgesSent[_gifter].push(_tokenId); // pushes tokenID to the addresses array of tokens\n    }\n\n    function getBadgeReason(uint _tokenId) public view returns (string memory _theReason) {\n        _theReason = BadgeInfo[_tokenId].reason; \n\n        return (_theReason);\n    }\n\n    function getBadgeSender(uint _tokenId) public view returns (address _theGifter) {\n        _theGifter = BadgeInfo[_tokenId].gifter; \n\n        return (_theGifter);\n    }\n\n\n    function getBadgesSent (address _gifter) public view returns (uint[] memory _BadgesSent) {\n       _BadgesSent = BadgesSent[_gifter];\n       return _BadgesSent; // returns array of tokenIDs sent by address\n    }\n\n\n    function isBadgeSender(address addressToCheck, uint badgeTokenID) public returns (bool){\n\n        if (addressToCheck == (BadgeInfo[badgeTokenID].gifter)) {\n            return true;\n        } else { return false;}\n\n    }\n    \n    //******************************\n    //                            **\n    //  Set payment modifier      ** \n    //                            **\n    //******************************\n\n\n    modifier PAY_WITH_PENS(address receivingAddress) virtual {      \n\n        uint256 expectedContractBalance;\n\n       /* if (payReciver == true) {\n        uint256 portionOfMintingCost = mintingCost / payItForwardTreasuryRatio_Divisor;\n        expectedContractBalance = redPens.balanceOf(address(this)) + (payItForwardTreasuryRatio_Numerator * portionOfMintingCost);\n\n        redPens.transferFrom(msg.sender, address(this), (payItForwardTreasuryRatio_Numerator * portionOfMintingCost));\n        redPens.transferFrom(msg.sender, receivingAddress, (portionOfMintingCost * (payItForwardTreasuryRatio_Divisor - payItForwardTreasuryRatio_Numerator)));\n        } else { */\n            expectedContractBalance = redPens.balanceOf(address(this)) + mintingCost;\n            redPens.transferFrom(msg.sender, address(this), mintingCost);\n       /* } */\n        \n        require(redPens.balanceOf(address(this)) == expectedContractBalance, \"Error Transfering !RED\");\n        \n        _;\n    }\n\n    /////////////////////////////////////////////////////////////////////////////////////////////////\n    /////////////////////////////////////////////////////////////////////////////////////////////////\n    /// @dev                                                                                     ////\n    /// Issuance Desk                                                                            ////\n    /////////////////////////////////////////////////////////////////////////////////////////////////\n    /////////////////////////////////////////////////////////////////////////////////////////////////\n\n\n    function issueBadge(address receivingAddress, string memory _reason) public\n        PAY_WITH_PENS(receivingAddress) \n        returns(uint newId) { // Right now function also increments and returns tokenId, this will be removed.\n        require((receivingAddress != msg.sender) && (receivingAddress != address(0)));\n        newId = _tokenIdGenerator;\n        setBadgeInfo(msg.sender, _reason, _tokenIdGenerator);\n        _safeMint(receivingAddress, _tokenIdGenerator);\n        _tokenIdGenerator += 1;\n       \n     }\n\n    function revokeBadge(uint tokenId) public {\n        require(_isApprovedOrOwner(msg.sender, tokenId),\n                    \"Nice Try, Bucko\") ;\n        _burn(tokenId);\n    }\n\n    /////////////////////////////////////////////////////////////////////////////////////////////////\n    /////////////////////////////////////////////////////////////////////////////////////////////////\n    /// @dev                                                                                     ////\n    /// Set Minting Costs                                                                        ////\n    /////////////////////////////////////////////////////////////////////////////////////////////////\n    /////////////////////////////////////////////////////////////////////////////////////////////////\n\n    function setMintingCost(uint256 costInWei) public JURY returns (bool){\n        require(costInWei >= mintingCostFloor, \"Sorry! Cost must be greater than 0.1 RedPen\");\n        _setMintingCost(costInWei);\n        return true;\n    }\n\n    function _setMintingCost(uint256 costInWei) internal returns (bool) {\n        mintingCost = costInWei;\n        return true;\n    }\n\n    function setMintingCostFloor(uint256 costFloorInWei) public BAILIFF returns (bool){\n\n        require(costFloorInWei < mintingCostFloor, \"Sorry! You can only lower the floor!\");\n        _setMintingCostFloor(costFloorInWei);\n        return true;\n    }\n\n    function _setMintingCostFloor(uint256 costInWei) internal returns (bool) {\n        mintingCostFloor = costInWei;\n        return true;\n    }\n\n\n    /////////////////////////////////////////////////////////////////////////////////////////////////\n    /////////////////////////////////////////////////////////////////////////////////////////////////\n    /// @dev                                                                                     ////\n    /// Internal Checks                                                                     ////\n    /////////////////////////////////////////////////////////////////////////////////////////////////\n    /////////////////////////////////////////////////////////////////////////////////////////////////\n\n    /////////////////////////////////////////////////////////////////////////////////////////////////\n    /////////////////////////////////////////////////////////////////////////////////////////////////\n    /// @dev                                                                                     ////\n    /// Maintanence\\\\\\\\\\\\\\\\\\\\\\\\\\\\\\\\\\\\\\\\\\\\\\\\\\\\\\                                                   ////\n    /////////////////////////////////////////////////////////////////////////////////////////////////\n    /////////////////////////////////////////////////////////////////////////////////////////////////\n    // Pause the contract if neccesary. Only the Gavels can do this.\n    function pause() public GAVELS {\n        _pause();\n    }\n\n    function unpause() public GAVELS {\n        require(isForeverLocked == false);\n        _unpause();\n    }\n\n    function updatePaymentToken() public {\n        _updateTokenAddresses();\n        redPens = ERC20(RedPenTokenAddress);\n    }\n\n    function _burnAllBadges() internal returns (bool) {\n        // burn all badges\n        uint256 index = 0;\n        for (index = 0; index < _tokenIdGenerator; index++) {\n            if (_exists(index)) {\n                _burn(index);\n            }   \n        }\n        _tokenIdGenerator = 0;\n        return true;\n    }\n\n    function refreshBadges(bool thisIsNotReversible) public THE_COURT returns (bool) {\n\n        if(thisIsNotReversible == true) {\n            // burn all badges\n            _burnAllBadges();\n            return true;\n        } else {return false;}\n    }\n\n\n    function destroyAndLockContract(uint valueMustBe69) public THE_COURT returns (bool) {\n\n        if(valueMustBe69 == 69) {\n            // burn all badges\n            _burnAllBadges();\n            // set protocol to locked\n            _pause();\n            isForeverLocked = true;\n            return isForeverLocked;\n        } else {return false;}\n    }\n\n\n    /////////////////////////////////////////////////////////////////////////////////////////////////\n    /////////////////////////////////////////////////////////////////////////////////////////////////\n    /// @dev                                                                                     ////\n    /// Transfer rules                                                                           ////\n    /////////////////////////////////////////////////////////////////////////////////////////////////\n    /////////////////////////////////////////////////////////////////////////////////////////////////\n    \n    function _isApprovedOrOwner(address spender, uint256 tokenId)\n        internal view virtual\n        override(ERC721)\n        returns (bool)\n    {\n        require(_exists(tokenId), \"ERC721: operator query for nonexistent token\");\n        address owner = ERC721.ownerOf(tokenId);\n        address gifter = BadgeInfo[tokenId].gifter;\n        return (spender == gifter || isApprovedForAll(owner, spender));\n    }\n\n    \n    function _approve(address to, uint256 tokenId)\n    internal virtual\n    override (ERC721)\n    {\n        require( hasRole(THE_COURT_ROLE, msg.sender),\n                    \"You do not have permission to approve this badge\");\n        super._approve(to, tokenId);\n    }\n\n    function isApprovedForAll(address owner, address operator)\n    public view virtual\n    override (ERC721)\n    returns (bool) {\n\n        bool isApproved = ( hasRole(THE_COURT_ROLE, operator)\n                            || hasRole(GAVELS_BAILIFF, operator)\n                            || hasRole(JURY_BAILIFF, operator));\n        return isApproved;\n    }\n\n\n    function setApprovalForAll(address operator, bool approved)\n    public virtual\n    override (ERC721) {\n        \n         require(   hasRole(THE_COURT_ROLE, msg.sender)\n                    || hasRole(GAVELS_BAILIFF, msg.sender)\n                    || hasRole(JURY_BAILIFF, msg.sender),\n                    \"You do not have permission to move this badge\");\n        super.setApprovalForAll(operator, approved);\n    }\n\n    function _beforeTokenTransfer(address from, address to, uint256 tokenId)\n        internal\n        override(ERC721, ERC721Enumerable)\n    {\n\n        super._beforeTokenTransfer(from, to, tokenId);\n    }\n\n    function supportsInterface(bytes4 interfaceId)\n        public\n        view\n        override(ERC721, ERC721Enumerable, AccessControlEnumerable)\n        returns (bool)\n    {\n        return super.supportsInterface(interfaceId);\n    }\n\n    //transfer functions from erc721 - need to override\n    function transferFrom(\n        address from,\n        address to,\n        uint256 tokenId\n    ) public virtual override {\n\n        address gifter = BadgeInfo[tokenId].gifter;\n        require( (msg.sender == gifter || isApprovedForAll(from, msg.sender)),\n                    \"You do not have permission to move this badge\");\n        \n        super.transferFrom(from, to, tokenId);\n        // revert(\"You're not authorized to use this function\"); // makes function revert back/fail\n    }\n\n    function safeTransferFrom(\n        address from,\n        address to,\n        uint256 tokenId\n    ) public virtual override {\n        address owner = ERC721.ownerOf(tokenId);\n        address gifter = BadgeInfo[tokenId].gifter;\n        require( (msg.sender == gifter || isApprovedForAll(from, msg.sender)),\n                    \"You do not have permission to move this badge\");\n        super.safeTransferFrom(from, to, tokenId);\n    }\n\n    /////////////////////////////////////////////////////////////////////////////////////////////////\n    /////////////////////////////////////////////////////////////////////////////////////////////////\n    /// @dev                                                                                     ////\n    /// End                                                                                      ////\n    /////////////////////////////////////////////////////////////////////////////////////////////////\n    /////////////////////////////////////////////////////////////////////////////////////////////////\n}",
  "sourcePath": "/home/n/Desktop/PinkSlips_FrontEnd_REFORMAT/contracts/src/GenericBadge_OLD.sol",
  "compiler": {
    "name": "solc",
    "version": "0.8.7+commit.e28d00a7.Emscripten.clang"
  },
  "schemaVersion": "3.4.1",
  "updatedAt": "2021-08-19T03:42:00.115Z",
  "devdoc": {
    "kind": "dev",
    "methods": {
      "approve(address,uint256)": {
        "details": "See {IERC721-approve}."
      },
      "balanceOf(address)": {
        "details": "See {IERC721-balanceOf}."
      },
      "getApproved(uint256)": {
        "details": "See {IERC721-getApproved}."
      },
      "getRoleAdmin(bytes32)": {
        "details": "Returns the admin role that controls `role`. See {grantRole} and {revokeRole}. To change a role's admin, use {_setRoleAdmin}."
      },
      "getRoleMember(bytes32,uint256)": {
        "details": "Returns one of the accounts that have `role`. `index` must be a value between 0 and {getRoleMemberCount}, non-inclusive. Role bearers are not sorted in any particular way, and their ordering may change at any point. WARNING: When using {getRoleMember} and {getRoleMemberCount}, make sure you perform all queries on the same block. See the following https://forum.openzeppelin.com/t/iterating-over-elements-on-enumerableset-in-openzeppelin-contracts/2296[forum post] for more information."
      },
      "getRoleMemberCount(bytes32)": {
        "details": "Returns the number of accounts that have `role`. Can be used together with {getRoleMember} to enumerate all bearers of a role."
      },
      "grantRole(bytes32,address)": {
        "details": "Overload {grantRole} to track enumerable memberships"
      },
      "hasRole(bytes32,address)": {
        "details": "Returns `true` if `account` has been granted `role`."
      },
      "isApprovedForAll(address,address)": {
        "details": "See {IERC721-isApprovedForAll}."
      },
      "issueBadge(address,string)": {
        "details": "//// Issuance Desk                                                                            ////"
      },
      "name()": {
        "details": "See {IERC721Metadata-name}."
      },
      "ownerOf(uint256)": {
        "details": "See {IERC721-ownerOf}."
      },
      "pause()": {
        "details": "//// Maintanence\\\\\\\\\\\\\\\\\\\\\\\\\\\\\\\\\\\\\\\\\\\\\\\\\\\\\\                                                   ////"
      },
      "paused()": {
        "details": "Returns true if the contract is paused, and false otherwise."
      },
      "renounceRole(bytes32,address)": {
        "details": "Overload {renounceRole} to track enumerable memberships"
      },
      "revokeRole(bytes32,address)": {
        "details": "Overload {revokeRole} to track enumerable memberships"
      },
      "safeTransferFrom(address,address,uint256)": {
        "details": "See {IERC721-safeTransferFrom}."
      },
      "safeTransferFrom(address,address,uint256,bytes)": {
        "details": "See {IERC721-safeTransferFrom}."
      },
      "setApprovalForAll(address,bool)": {
        "details": "See {IERC721-setApprovalForAll}."
      },
      "setMintingCost(uint256)": {
        "details": "//// Set Minting Costs                                                                        ////"
      },
      "symbol()": {
        "details": "See {IERC721Metadata-symbol}."
      },
      "tokenByIndex(uint256)": {
        "details": "See {IERC721Enumerable-tokenByIndex}."
      },
      "tokenOfOwnerByIndex(address,uint256)": {
        "details": "See {IERC721Enumerable-tokenOfOwnerByIndex}."
      },
      "tokenURI(uint256)": {
        "details": "See {IERC721Metadata-tokenURI}."
      },
      "totalSupply()": {
        "details": "See {IERC721Enumerable-totalSupply}."
      },
      "transferFrom(address,address,uint256)": {
        "details": "See {IERC721-transferFrom}."
      }
    },
    "version": 1
  },
  "userdoc": {
    "kind": "user",
    "methods": {},
    "version": 1
  }
}