{
  "contractName": "GenericBadgeOLD",
  "abi": [
    {
      "inputs": [
        {
          "internalType": "string",
          "name": "_badgeName",
          "type": "string"
        },
        {
          "internalType": "string",
          "name": "_badgeSymbol",
          "type": "string"
        },
        {
          "internalType": "bool",
          "name": "_payReciver",
          "type": "bool"
        },
        {
          "internalType": "address",
          "name": "_AddressManagerAddress",
          "type": "address"
        }
      ],
      "stateMutability": "nonpayable",
      "type": "constructor"
    },
    {
      "anonymous": false,
      "inputs": [
        {
          "indexed": true,
          "internalType": "address",
          "name": "owner",
          "type": "address"
        },
        {
          "indexed": true,
          "internalType": "address",
          "name": "approved",
          "type": "address"
        },
        {
          "indexed": true,
          "internalType": "uint256",
          "name": "tokenId",
          "type": "uint256"
        }
      ],
      "name": "Approval",
      "type": "event"
    },
    {
      "anonymous": false,
      "inputs": [
        {
          "indexed": true,
          "internalType": "address",
          "name": "owner",
          "type": "address"
        },
        {
          "indexed": true,
          "internalType": "address",
          "name": "operator",
          "type": "address"
        },
        {
          "indexed": false,
          "internalType": "bool",
          "name": "approved",
          "type": "bool"
        }
      ],
      "name": "ApprovalForAll",
      "type": "event"
    },
    {
      "anonymous": false,
      "inputs": [
        {
          "indexed": false,
          "internalType": "address",
          "name": "account",
          "type": "address"
        }
      ],
      "name": "Paused",
      "type": "event"
    },
    {
      "anonymous": false,
      "inputs": [
        {
          "indexed": true,
          "internalType": "bytes32",
          "name": "role",
          "type": "bytes32"
        },
        {
          "indexed": true,
          "internalType": "bytes32",
          "name": "previousAdminRole",
          "type": "bytes32"
        },
        {
          "indexed": true,
          "internalType": "bytes32",
          "name": "newAdminRole",
          "type": "bytes32"
        }
      ],
      "name": "RoleAdminChanged",
      "type": "event"
    },
    {
      "anonymous": false,
      "inputs": [
        {
          "indexed": true,
          "internalType": "bytes32",
          "name": "role",
          "type": "bytes32"
        },
        {
          "indexed": true,
          "internalType": "address",
          "name": "account",
          "type": "address"
        },
        {
          "indexed": true,
          "internalType": "address",
          "name": "sender",
          "type": "address"
        }
      ],
      "name": "RoleGranted",
      "type": "event"
    },
    {
      "anonymous": false,
      "inputs": [
        {
          "indexed": true,
          "internalType": "bytes32",
          "name": "role",
          "type": "bytes32"
        },
        {
          "indexed": true,
          "internalType": "address",
          "name": "account",
          "type": "address"
        },
        {
          "indexed": true,
          "internalType": "address",
          "name": "sender",
          "type": "address"
        }
      ],
      "name": "RoleRevoked",
      "type": "event"
    },
    {
      "anonymous": false,
      "inputs": [
        {
          "indexed": true,
          "internalType": "address",
          "name": "from",
          "type": "address"
        },
        {
          "indexed": true,
          "internalType": "address",
          "name": "to",
          "type": "address"
        },
        {
          "indexed": true,
          "internalType": "uint256",
          "name": "tokenId",
          "type": "uint256"
        }
      ],
      "name": "Transfer",
      "type": "event"
    },
    {
      "anonymous": false,
      "inputs": [
        {
          "indexed": false,
          "internalType": "address",
          "name": "account",
          "type": "address"
        }
      ],
      "name": "Unpaused",
      "type": "event"
    },
    {
      "inputs": [],
      "name": "AddressManagerAddress",
      "outputs": [
        {
          "internalType": "address",
          "name": "",
          "type": "address"
        }
      ],
      "stateMutability": "view",
      "type": "function"
    },
    {
      "inputs": [
        {
          "internalType": "uint256",
          "name": "",
          "type": "uint256"
        }
      ],
      "name": "BadgeInfo",
      "outputs": [
        {
          "internalType": "address",
          "name": "gifter",
          "type": "address"
        },
        {
          "internalType": "string",
          "name": "reason",
          "type": "string"
        }
      ],
      "stateMutability": "view",
      "type": "function"
    },
    {
      "inputs": [
        {
          "internalType": "address",
          "name": "",
          "type": "address"
        },
        {
          "internalType": "uint256",
          "name": "",
          "type": "uint256"
        }
      ],
      "name": "BadgesSent",
      "outputs": [
        {
          "internalType": "uint256",
          "name": "",
          "type": "uint256"
        }
      ],
      "stateMutability": "view",
      "type": "function"
    },
    {
      "inputs": [],
      "name": "ChadBadgeAddress",
      "outputs": [
        {
          "internalType": "address",
          "name": "",
          "type": "address"
        }
      ],
      "stateMutability": "view",
      "type": "function"
    },
    {
      "inputs": [],
      "name": "ColoredIDAddress",
      "outputs": [
        {
          "internalType": "address",
          "name": "",
          "type": "address"
        }
      ],
      "stateMutability": "view",
      "type": "function"
    },
    {
      "inputs": [],
      "name": "CourtClerk",
      "outputs": [
        {
          "internalType": "address",
          "name": "",
          "type": "address"
        }
      ],
      "stateMutability": "view",
      "type": "function"
    },
    {
      "inputs": [],
      "name": "DEFAULT_ADMIN_ROLE",
      "outputs": [
        {
          "internalType": "bytes32",
          "name": "",
          "type": "bytes32"
        }
      ],
      "stateMutability": "view",
      "type": "function"
    },
    {
      "inputs": [],
      "name": "GAVELS_BAILIFF",
      "outputs": [
        {
          "internalType": "bytes32",
          "name": "",
          "type": "bytes32"
        }
      ],
      "stateMutability": "view",
      "type": "function"
    },
    {
      "inputs": [],
      "name": "GavelDAOAgent",
      "outputs": [
        {
          "internalType": "address",
          "name": "",
          "type": "address"
        }
      ],
      "stateMutability": "view",
      "type": "function"
    },
    {
      "inputs": [],
      "name": "GavelTokenAddress",
      "outputs": [
        {
          "internalType": "address",
          "name": "",
          "type": "address"
        }
      ],
      "stateMutability": "view",
      "type": "function"
    },
    {
      "inputs": [],
      "name": "GavelVote",
      "outputs": [
        {
          "internalType": "bool",
          "name": "",
          "type": "bool"
        }
      ],
      "stateMutability": "view",
      "type": "function"
    },
    {
      "inputs": [],
      "name": "GoldStarAddress",
      "outputs": [
        {
          "internalType": "address",
          "name": "",
          "type": "address"
        }
      ],
      "stateMutability": "view",
      "type": "function"
    },
    {
      "inputs": [],
      "name": "JERK_ROLE",
      "outputs": [
        {
          "internalType": "bytes32",
          "name": "",
          "type": "bytes32"
        }
      ],
      "stateMutability": "view",
      "type": "function"
    },
    {
      "inputs": [],
      "name": "JURY_BAILIFF",
      "outputs": [
        {
          "internalType": "bytes32",
          "name": "",
          "type": "bytes32"
        }
      ],
      "stateMutability": "view",
      "type": "function"
    },
    {
      "inputs": [],
      "name": "JuryDAOAgent",
      "outputs": [
        {
          "internalType": "address",
          "name": "",
          "type": "address"
        }
      ],
      "stateMutability": "view",
      "type": "function"
    },
    {
      "inputs": [],
      "name": "JuryPoolAddress",
      "outputs": [
        {
          "internalType": "address",
          "name": "",
          "type": "address"
        }
      ],
      "stateMutability": "view",
      "type": "function"
    },
    {
      "inputs": [],
      "name": "JuryVote",
      "outputs": [
        {
          "internalType": "bool",
          "name": "",
          "type": "bool"
        }
      ],
      "stateMutability": "view",
      "type": "function"
    },
    {
      "inputs": [],
      "name": "MINI_BAILIFF_ROLE",
      "outputs": [
        {
          "internalType": "bytes32",
          "name": "",
          "type": "bytes32"
        }
      ],
      "stateMutability": "view",
      "type": "function"
    },
    {
      "inputs": [],
      "name": "MiniBailiff",
      "outputs": [
        {
          "internalType": "address",
          "name": "",
          "type": "address"
        }
      ],
      "stateMutability": "view",
      "type": "function"
    },
    {
      "inputs": [],
      "name": "PinkSlipAddress",
      "outputs": [
        {
          "internalType": "address",
          "name": "",
          "type": "address"
        }
      ],
      "stateMutability": "view",
      "type": "function"
    },
    {
      "inputs": [],
      "name": "RedPenTokenAddress",
      "outputs": [
        {
          "internalType": "address",
          "name": "",
          "type": "address"
        }
      ],
      "stateMutability": "view",
      "type": "function"
    },
    {
      "inputs": [],
      "name": "THE_COURT_ROLE",
      "outputs": [
        {
          "internalType": "bytes32",
          "name": "",
          "type": "bytes32"
        }
      ],
      "stateMutability": "view",
      "type": "function"
    },
    {
      "inputs": [],
      "name": "TheCourtAddress",
      "outputs": [
        {
          "internalType": "address",
          "name": "",
          "type": "address"
        }
      ],
      "stateMutability": "view",
      "type": "function"
    },
    {
      "inputs": [],
      "name": "TreasuryAddress",
      "outputs": [
        {
          "internalType": "address",
          "name": "",
          "type": "address"
        }
      ],
      "stateMutability": "view",
      "type": "function"
    },
    {
      "inputs": [],
      "name": "addressManager",
      "outputs": [
        {
          "internalType": "contract AddressManager",
          "name": "",
          "type": "address"
        }
      ],
      "stateMutability": "view",
      "type": "function"
    },
    {
      "inputs": [
        {
          "internalType": "address",
          "name": "to",
          "type": "address"
        },
        {
          "internalType": "uint256",
          "name": "tokenId",
          "type": "uint256"
        }
      ],
      "name": "approve",
      "outputs": [],
      "stateMutability": "nonpayable",
      "type": "function"
    },
    {
      "inputs": [],
      "name": "badgeColor",
      "outputs": [
        {
          "internalType": "string",
          "name": "",
          "type": "string"
        }
      ],
      "stateMutability": "view",
      "type": "function"
    },
    {
      "inputs": [],
      "name": "badgeName",
      "outputs": [
        {
          "internalType": "string",
          "name": "",
          "type": "string"
        }
      ],
      "stateMutability": "view",
      "type": "function"
    },
    {
      "inputs": [
        {
          "internalType": "address",
          "name": "owner",
          "type": "address"
        }
      ],
      "name": "balanceOf",
      "outputs": [
        {
          "internalType": "uint256",
          "name": "",
          "type": "uint256"
        }
      ],
      "stateMutability": "view",
      "type": "function"
    },
    {
      "inputs": [
        {
          "internalType": "uint256",
          "name": "tokenId",
          "type": "uint256"
        }
      ],
      "name": "getApproved",
      "outputs": [
        {
          "internalType": "address",
          "name": "",
          "type": "address"
        }
      ],
      "stateMutability": "view",
      "type": "function"
    },
    {
      "inputs": [
        {
          "internalType": "bytes32",
          "name": "role",
          "type": "bytes32"
        }
      ],
      "name": "getRoleAdmin",
      "outputs": [
        {
          "internalType": "bytes32",
          "name": "",
          "type": "bytes32"
        }
      ],
      "stateMutability": "view",
      "type": "function"
    },
    {
      "inputs": [
        {
          "internalType": "bytes32",
          "name": "role",
          "type": "bytes32"
        },
        {
          "internalType": "uint256",
          "name": "index",
          "type": "uint256"
        }
      ],
      "name": "getRoleMember",
      "outputs": [
        {
          "internalType": "address",
          "name": "",
          "type": "address"
        }
      ],
      "stateMutability": "view",
      "type": "function"
    },
    {
      "inputs": [
        {
          "internalType": "bytes32",
          "name": "role",
          "type": "bytes32"
        }
      ],
      "name": "getRoleMemberCount",
      "outputs": [
        {
          "internalType": "uint256",
          "name": "",
          "type": "uint256"
        }
      ],
      "stateMutability": "view",
      "type": "function"
    },
    {
      "inputs": [
        {
          "internalType": "bytes32",
          "name": "role",
          "type": "bytes32"
        },
        {
          "internalType": "address",
          "name": "account",
          "type": "address"
        }
      ],
      "name": "grantRole",
      "outputs": [],
      "stateMutability": "nonpayable",
      "type": "function"
    },
    {
      "inputs": [
        {
          "internalType": "bytes32",
          "name": "role",
          "type": "bytes32"
        },
        {
          "internalType": "address",
          "name": "account",
          "type": "address"
        }
      ],
      "name": "hasRole",
      "outputs": [
        {
          "internalType": "bool",
          "name": "",
          "type": "bool"
        }
      ],
      "stateMutability": "view",
      "type": "function"
    },
    {
      "inputs": [],
      "name": "isForeverLocked",
      "outputs": [
        {
          "internalType": "bool",
          "name": "",
          "type": "bool"
        }
      ],
      "stateMutability": "view",
      "type": "function"
    },
    {
      "inputs": [],
      "name": "jerkSanctions",
      "outputs": [
        {
          "internalType": "bool",
          "name": "",
          "type": "bool"
        }
      ],
      "stateMutability": "view",
      "type": "function"
    },
    {
      "inputs": [],
      "name": "mintingCost",
      "outputs": [
        {
          "internalType": "uint256",
          "name": "",
          "type": "uint256"
        }
      ],
      "stateMutability": "view",
      "type": "function"
    },
    {
      "inputs": [],
      "name": "mintingCostFloor",
      "outputs": [
        {
          "internalType": "uint256",
          "name": "",
          "type": "uint256"
        }
      ],
      "stateMutability": "view",
      "type": "function"
    },
    {
      "inputs": [],
      "name": "name",
      "outputs": [
        {
          "internalType": "string",
          "name": "",
          "type": "string"
        }
      ],
      "stateMutability": "view",
      "type": "function"
    },
    {
      "inputs": [
        {
          "internalType": "uint256",
          "name": "tokenId",
          "type": "uint256"
        }
      ],
      "name": "ownerOf",
      "outputs": [
        {
          "internalType": "address",
          "name": "",
          "type": "address"
        }
      ],
      "stateMutability": "view",
      "type": "function"
    },
    {
      "inputs": [],
      "name": "paused",
      "outputs": [
        {
          "internalType": "bool",
          "name": "",
          "type": "bool"
        }
      ],
      "stateMutability": "view",
      "type": "function"
    },
    {
      "inputs": [],
      "name": "payItForwardTreasuryRatio_Divisor",
      "outputs": [
        {
          "internalType": "uint256",
          "name": "",
          "type": "uint256"
        }
      ],
      "stateMutability": "view",
      "type": "function"
    },
    {
      "inputs": [],
      "name": "payItForwardTreasuryRatio_Numerator",
      "outputs": [
        {
          "internalType": "uint256",
          "name": "",
          "type": "uint256"
        }
      ],
      "stateMutability": "view",
      "type": "function"
    },
    {
      "inputs": [],
      "name": "payReciver",
      "outputs": [
        {
          "internalType": "bool",
          "name": "",
          "type": "bool"
        }
      ],
      "stateMutability": "view",
      "type": "function"
    },
    {
      "inputs": [],
      "name": "redPens",
      "outputs": [
        {
          "internalType": "contract ERC20",
          "name": "",
          "type": "address"
        }
      ],
      "stateMutability": "view",
      "type": "function"
    },
    {
      "inputs": [
        {
          "internalType": "bytes32",
          "name": "role",
          "type": "bytes32"
        },
        {
          "internalType": "address",
          "name": "account",
          "type": "address"
        }
      ],
      "name": "renounceRole",
      "outputs": [],
      "stateMutability": "nonpayable",
      "type": "function"
    },
    {
      "inputs": [],
      "name": "resetVote",
      "outputs": [],
      "stateMutability": "nonpayable",
      "type": "function"
    },
    {
      "inputs": [
        {
          "internalType": "bytes32",
          "name": "role",
          "type": "bytes32"
        },
        {
          "internalType": "address",
          "name": "account",
          "type": "address"
        }
      ],
      "name": "revokeRole",
      "outputs": [],
      "stateMutability": "nonpayable",
      "type": "function"
    },
    {
      "inputs": [],
      "name": "symbol",
      "outputs": [
        {
          "internalType": "string",
          "name": "",
          "type": "string"
        }
      ],
      "stateMutability": "view",
      "type": "function"
    },
    {
      "inputs": [],
      "name": "syncAllRoles",
      "outputs": [],
      "stateMutability": "nonpayable",
      "type": "function"
    },
    {
      "inputs": [
        {
          "internalType": "bytes32",
          "name": "ROLE_TO_SYNC",
          "type": "bytes32"
        }
      ],
      "name": "syncSingleRole",
      "outputs": [],
      "stateMutability": "nonpayable",
      "type": "function"
    },
    {
      "inputs": [],
      "name": "syncVotes",
      "outputs": [],
      "stateMutability": "nonpayable",
      "type": "function"
    },
    {
      "inputs": [
        {
          "internalType": "uint256",
          "name": "index",
          "type": "uint256"
        }
      ],
      "name": "tokenByIndex",
      "outputs": [
        {
          "internalType": "uint256",
          "name": "",
          "type": "uint256"
        }
      ],
      "stateMutability": "view",
      "type": "function"
    },
    {
      "inputs": [
        {
          "internalType": "address",
          "name": "owner",
          "type": "address"
        },
        {
          "internalType": "uint256",
          "name": "index",
          "type": "uint256"
        }
      ],
      "name": "tokenOfOwnerByIndex",
      "outputs": [
        {
          "internalType": "uint256",
          "name": "",
          "type": "uint256"
        }
      ],
      "stateMutability": "view",
      "type": "function"
    },
    {
      "inputs": [
        {
          "internalType": "uint256",
          "name": "tokenId",
          "type": "uint256"
        }
      ],
      "name": "tokenURI",
      "outputs": [
        {
          "internalType": "string",
          "name": "",
          "type": "string"
        }
      ],
      "stateMutability": "view",
      "type": "function"
    },
    {
      "inputs": [],
      "name": "totalSupply",
      "outputs": [
        {
          "internalType": "uint256",
          "name": "",
          "type": "uint256"
        }
      ],
      "stateMutability": "view",
      "type": "function"
    },
    {
      "inputs": [],
      "name": "updateAddressManager",
      "outputs": [],
      "stateMutability": "nonpayable",
      "type": "function"
    },
    {
      "inputs": [],
      "name": "updateAllAddresses",
      "outputs": [],
      "stateMutability": "nonpayable",
      "type": "function"
    },
    {
      "inputs": [],
      "name": "updateAllRoles",
      "outputs": [],
      "stateMutability": "nonpayable",
      "type": "function"
    },
    {
      "inputs": [],
      "name": "updateDAOAddresses",
      "outputs": [],
      "stateMutability": "nonpayable",
      "type": "function"
    },
    {
      "inputs": [
        {
          "internalType": "bytes32",
          "name": "ROLE_TO_UPDATE",
          "type": "bytes32"
        }
      ],
      "name": "updateSingleRole",
      "outputs": [],
      "stateMutability": "nonpayable",
      "type": "function"
    },
    {
      "inputs": [],
      "name": "updateTokenAddresses",
      "outputs": [],
      "stateMutability": "nonpayable",
      "type": "function"
    },
    {
      "inputs": [
        {
          "internalType": "uint256",
          "name": "_tokenId",
          "type": "uint256"
        }
      ],
      "name": "getBadgeReason",
      "outputs": [
        {
          "internalType": "string",
          "name": "_theReason",
          "type": "string"
        }
      ],
      "stateMutability": "view",
      "type": "function"
    },
    {
      "inputs": [
        {
          "internalType": "uint256",
          "name": "_tokenId",
          "type": "uint256"
        }
      ],
      "name": "getBadgeSender",
      "outputs": [
        {
          "internalType": "address",
          "name": "_theGifter",
          "type": "address"
        }
      ],
      "stateMutability": "view",
      "type": "function"
    },
    {
      "inputs": [
        {
          "internalType": "address",
          "name": "_gifter",
          "type": "address"
        }
      ],
      "name": "getBadgesSent",
      "outputs": [
        {
          "internalType": "uint256[]",
          "name": "_BadgesSent",
          "type": "uint256[]"
        }
      ],
      "stateMutability": "view",
      "type": "function"
    },
    {
      "inputs": [
        {
          "internalType": "address",
          "name": "addressToCheck",
          "type": "address"
        },
        {
          "internalType": "uint256",
          "name": "badgeTokenID",
          "type": "uint256"
        }
      ],
      "name": "isBadgeSender",
      "outputs": [
        {
          "internalType": "bool",
          "name": "",
          "type": "bool"
        }
      ],
      "stateMutability": "nonpayable",
      "type": "function"
    },
    {
      "inputs": [
        {
          "internalType": "address",
          "name": "receivingAddress",
          "type": "address"
        },
        {
          "internalType": "string",
          "name": "_reason",
          "type": "string"
        }
      ],
      "name": "issueBadge",
      "outputs": [
        {
          "internalType": "uint256",
          "name": "newId",
          "type": "uint256"
        }
      ],
      "stateMutability": "nonpayable",
      "type": "function"
    },
    {
      "inputs": [
        {
          "internalType": "uint256",
          "name": "tokenId",
          "type": "uint256"
        }
      ],
      "name": "revokeBadge",
      "outputs": [],
      "stateMutability": "nonpayable",
      "type": "function"
    },
    {
      "inputs": [
        {
          "internalType": "uint256",
          "name": "costInWei",
          "type": "uint256"
        }
      ],
      "name": "setMintingCost",
      "outputs": [
        {
          "internalType": "bool",
          "name": "",
          "type": "bool"
        }
      ],
      "stateMutability": "nonpayable",
      "type": "function"
    },
    {
      "inputs": [
        {
          "internalType": "uint256",
          "name": "costFloorInWei",
          "type": "uint256"
        }
      ],
      "name": "setMintingCostFloor",
      "outputs": [
        {
          "internalType": "bool",
          "name": "",
          "type": "bool"
        }
      ],
      "stateMutability": "nonpayable",
      "type": "function"
    },
    {
      "inputs": [],
      "name": "pause",
      "outputs": [],
      "stateMutability": "nonpayable",
      "type": "function"
    },
    {
      "inputs": [],
      "name": "unpause",
      "outputs": [],
      "stateMutability": "nonpayable",
      "type": "function"
    },
    {
      "inputs": [],
      "name": "updatePaymentToken",
      "outputs": [],
      "stateMutability": "nonpayable",
      "type": "function"
    },
    {
      "inputs": [
        {
          "internalType": "bool",
          "name": "thisIsNotReversible",
          "type": "bool"
        }
      ],
      "name": "refreshBadges",
      "outputs": [
        {
          "internalType": "bool",
          "name": "",
          "type": "bool"
        }
      ],
      "stateMutability": "nonpayable",
      "type": "function"
    },
    {
      "inputs": [
        {
          "internalType": "uint256",
          "name": "valueMustBe69",
          "type": "uint256"
        }
      ],
      "name": "destroyAndLockContract",
      "outputs": [
        {
          "internalType": "bool",
          "name": "",
          "type": "bool"
        }
      ],
      "stateMutability": "nonpayable",
      "type": "function"
    },
    {
      "inputs": [
        {
          "internalType": "address",
          "name": "owner",
          "type": "address"
        },
        {
          "internalType": "address",
          "name": "operator",
          "type": "address"
        }
      ],
      "name": "isApprovedForAll",
      "outputs": [
        {
          "internalType": "bool",
          "name": "",
          "type": "bool"
        }
      ],
      "stateMutability": "view",
      "type": "function"
    },
    {
      "inputs": [
        {
          "internalType": "address",
          "name": "operator",
          "type": "address"
        },
        {
          "internalType": "bool",
          "name": "approved",
          "type": "bool"
        }
      ],
      "name": "setApprovalForAll",
      "outputs": [],
      "stateMutability": "nonpayable",
      "type": "function"
    },
    {
      "inputs": [
        {
          "internalType": "bytes4",
          "name": "interfaceId",
          "type": "bytes4"
        }
      ],
      "name": "supportsInterface",
      "outputs": [
        {
          "internalType": "bool",
          "name": "",
          "type": "bool"
        }
      ],
      "stateMutability": "view",
      "type": "function"
    },
    {
      "inputs": [
        {
          "internalType": "address",
          "name": "from",
          "type": "address"
        },
        {
          "internalType": "address",
          "name": "to",
          "type": "address"
        },
        {
          "internalType": "uint256",
          "name": "tokenId",
          "type": "uint256"
        }
      ],
      "name": "transferFrom",
      "outputs": [],
      "stateMutability": "nonpayable",
      "type": "function"
    },
    {
      "inputs": [
        {
          "internalType": "address",
          "name": "from",
          "type": "address"
        },
        {
          "internalType": "address",
          "name": "to",
          "type": "address"
        },
        {
          "internalType": "uint256",
          "name": "tokenId",
          "type": "uint256"
        }
      ],
      "name": "safeTransferFrom",
      "outputs": [],
      "stateMutability": "nonpayable",
      "type": "function"
    },
    {
      "inputs": [
        {
          "internalType": "address",
          "name": "from",
          "type": "address"
        },
        {
          "internalType": "address",
          "name": "to",
          "type": "address"
        },
        {
          "internalType": "uint256",
          "name": "tokenId",
          "type": "uint256"
        },
        {
          "internalType": "bytes",
          "name": "_data",
          "type": "bytes"
        }
      ],
      "name": "safeTransferFrom",
      "outputs": [],
      "stateMutability": "nonpayable",
      "type": "function"
    }
  ],
  "bytecode": "0x60806040526000805460ff1990811682556011805463ffffffff60a01b191690556729a2241af62c0000601d5567016345785d8a0000601e556002601f556003602055602191909155602280549091169055600554602580546001600160a01b0319166001600160a01b039092169190911790553480156200008057600080fd5b5060405162005ba938038062005ba9833981016040819052620000a39162000e56565b600380546001600160a01b0383166001600160a01b03199182168117909255601180549091169091179055838382620000db620002b8565b620000e5620002ce565b600f54620000ff906000906001600160a01b031662000419565b600f5462000138907f0538d24a8b7882d7b2e36af243d4af61c23e86e3daa6cb8c887b53220b2f5720906001600160a01b031662000419565b600c5462000171907f048bc71fa1cb2c119c339cf9cf00a97996a19a9d991ce5fe049f2fa5459e7990906001600160a01b031662000419565b600d54620001aa907ffa8e4989e1d689f7bc5c4b25b87efb51fecdecb19ba62847e29c759e12a89acd906001600160a01b031662000419565b601054620001e3907ff0f4b159a6e2a4815eb3ca3df080bfa70c9270662c59bcaa4479a456220183e6906001600160a01b031662000419565b620002107f7c9d7f6f02908185bffb3f7fc9afb29fd7bf93675af8fd4b655ee05c2cee1e0e600062000419565b5081516200022690601290602085019062000c8f565b5080516200023c90601390602084019062000c8f565b50506018805460ff191690555082516200025e90602390602086019062000c8f565b5083516200027490602490602087019062000c8f565b5050602280549115156101000261ff00199092169190911790555050600554602580546001600160a01b0319166001600160a01b0390921691909117905562000f38565b620002c26200045c565b620002cc6200075c565b565b601160009054906101000a90046001600160a01b03166001600160a01b031663ff7e88ec6040518163ffffffff1660e01b815260040160206040518083038186803b1580156200031d57600080fd5b505afa15801562000332573d6000803e3d6000fd5b505050506040513d601f19601f8201168201806040525081019062000358919062000e38565b601160156101000a81548160ff021916908315150217905550601160009054906101000a90046001600160a01b03166001600160a01b0316632fb565856040518163ffffffff1660e01b815260040160206040518083038186803b158015620003c057600080fd5b505afa158015620003d5573d6000803e3d6000fd5b505050506040513d601f19601f82011682018060405250810190620003fb919062000e38565b60118054911515600160b01b0260ff60b01b19909216919091179055565b62000430828262000b8560201b62001f101760201c565b60008281526002602090815260409091206200045791839062001f1a62000b95821b17901c565b505050565b601160009054906101000a90046001600160a01b03166001600160a01b031663dadf56ac6040518163ffffffff1660e01b815260040160206040518083038186803b158015620004ab57600080fd5b505afa158015620004c0573d6000803e3d6000fd5b505050506040513d601f19601f82011682018060405250810190620004e6919062000e1a565b600c80546001600160a01b0319166001600160a01b039283161790556011546040805163024bebe960e01b81529051919092169163024bebe9916004808301926020929190829003018186803b1580156200054057600080fd5b505afa15801562000555573d6000803e3d6000fd5b505050506040513d601f19601f820116820180604052508101906200057b919062000e1a565b600d80546001600160a01b0319166001600160a01b0392831617905560115460408051635b5c251f60e01b815290519190921691635b5c251f916004808301926020929190829003018186803b158015620005d557600080fd5b505afa158015620005ea573d6000803e3d6000fd5b505050506040513d601f19601f8201168201806040525081019062000610919062000e1a565b600e80546001600160a01b0319166001600160a01b0392831617905560115460408051637310bf1d60e11b81529051919092169163e6217e3a916004808301926020929190829003018186803b1580156200066a57600080fd5b505afa1580156200067f573d6000803e3d6000fd5b505050506040513d601f19601f82011682018060405250810190620006a5919062000e1a565b601080546001600160a01b0319166001600160a01b039283161790556011546040805163d88127a160e01b81529051919092169163d88127a1916004808301926020929190829003018186803b158015620006ff57600080fd5b505afa15801562000714573d6000803e3d6000fd5b505050506040513d601f19601f820116820180604052508101906200073a919062000e1a565b600b80546001600160a01b0319166001600160a01b0392909216919091179055565b601160009054906101000a90046001600160a01b03166001600160a01b03166321d7f0086040518163ffffffff1660e01b815260040160206040518083038186803b158015620007ab57600080fd5b505afa158015620007c0573d6000803e3d6000fd5b505050506040513d601f19601f82011682018060405250810190620007e6919062000e1a565b600480546001600160a01b0319166001600160a01b039283161781556011546040805163762ddb5960e01b81529051919093169263762ddb599281810192602092909190829003018186803b1580156200083f57600080fd5b505afa15801562000854573d6000803e3d6000fd5b505050506040513d601f19601f820116820180604052508101906200087a919062000e1a565b600580546001600160a01b0319166001600160a01b039283161790556011546040805163bfb7dc9960e01b81529051919092169163bfb7dc99916004808301926020929190829003018186803b158015620008d457600080fd5b505afa158015620008e9573d6000803e3d6000fd5b505050506040513d601f19601f820116820180604052508101906200090f919062000e1a565b600680546001600160a01b0319166001600160a01b0392831617905560115460408051633e6111eb60e21b81529051919092169163f98447ac916004808301926020929190829003018186803b1580156200096957600080fd5b505afa1580156200097e573d6000803e3d6000fd5b505050506040513d601f19601f82011682018060405250810190620009a4919062000e1a565b600780546001600160a01b0319166001600160a01b0392831617905560115460408051630fe1ba9f60e21b815290519190921691633f86ea7c916004808301926020929190829003018186803b158015620009fe57600080fd5b505afa15801562000a13573d6000803e3d6000fd5b505050506040513d601f19601f8201168201806040525081019062000a39919062000e1a565b600880546001600160a01b0319166001600160a01b0392831617905560115460408051632b90024160e11b8152905191909216916357200482916004808301926020929190829003018186803b15801562000a9357600080fd5b505afa15801562000aa8573d6000803e3d6000fd5b505050506040513d601f19601f8201168201806040525081019062000ace919062000e1a565b600980546001600160a01b0319166001600160a01b0392831617905560115460408051636b58477560e01b815290519190921691636b584775916004808301926020929190829003018186803b15801562000b2857600080fd5b505afa15801562000b3d573d6000803e3d6000fd5b505050506040513d601f19601f8201168201806040525081019062000b63919062000e1a565b600a80546001600160a01b0319166001600160a01b0392909216919091179055565b62000b91828262000bb5565b5050565b600062000bac836001600160a01b03841662000c3d565b90505b92915050565b60008281526001602090815260408083206001600160a01b038516845290915290205460ff1662000b915760008281526001602081815260408084206001600160a01b0386168086529252808420805460ff19169093179092559051339285917f2f8788117e7eff1d82e926ec794901d17c78024a50270940304540a733656f0d9190a45050565b600081815260018301602052604081205462000c865750815460018181018455600084815260208082209093018490558454848252828601909352604090209190915562000baf565b50600062000baf565b82805462000c9d9062000ee5565b90600052602060002090601f01602090048101928262000cc1576000855562000d0c565b82601f1062000cdc57805160ff191683800117855562000d0c565b8280016001018555821562000d0c579182015b8281111562000d0c57825182559160200191906001019062000cef565b5062000d1a92915062000d1e565b5090565b5b8082111562000d1a576000815560010162000d1f565b80516001600160a01b038116811462000d4d57600080fd5b919050565b8051801515811462000d4d57600080fd5b600082601f83011262000d7557600080fd5b81516001600160401b038082111562000d925762000d9262000f22565b604051601f8301601f19908116603f0116810190828211818310171562000dbd5762000dbd62000f22565b8160405283815260209250868385880101111562000dda57600080fd5b600091505b8382101562000dfe578582018301518183018401529082019062000ddf565b8382111562000e105760008385830101525b9695505050505050565b60006020828403121562000e2d57600080fd5b62000bac8262000d35565b60006020828403121562000e4b57600080fd5b62000bac8262000d52565b6000806000806080858703121562000e6d57600080fd5b84516001600160401b038082111562000e8557600080fd5b62000e938883890162000d63565b9550602087015191508082111562000eaa57600080fd5b5062000eb98782880162000d63565b93505062000eca6040860162000d52565b915062000eda6060860162000d35565b905092959194509250565b600181811c9082168062000efa57607f821691505b6020821081141562000f1c57634e487b7160e01b600052602260045260246000fd5b50919050565b634e487b7160e01b600052604160045260246000fd5b614c618062000f486000396000f3fe608060405234801561001057600080fd5b50600436106104965760003560e01c80636b58477511610262578063c04e17e311610151578063e6217e3a116100ce578063ee0b4c3511610092578063ee0b4c35146109fb578063f1132b3014610a0e578063f7d92d8614610a16578063f98447ac14610a1e578063f98db25314610a31578063ff7e88ec14610a4457600080fd5b8063e6217e3a146109a4578063e78c266c146109b7578063e985e9c5146109ca578063e9a53230146109dd578063ebf98abf146109f257600080fd5b8063cf4ece1511610115578063cf4ece151461094e578063d547741f14610963578063d88127a114610976578063dadf56ac14610989578063dea6f9c81461099c57600080fd5b8063c04e17e3146108df578063c62b28e814610900578063c87b56dd14610913578063ca15c87314610926578063cce843921461093957600080fd5b806391d14854116101df578063a22cb465116101a3578063a22cb4651461087d578063a32c5e5914610890578063a78e746f146108a5578063b88d4fde146108b9578063bfb7dc99146108cc57600080fd5b806391d148541461083a57806395d89b411461084d57806396ac6bf0146108555780639ac3eaa714610868578063a217fddf1461087557600080fd5b8063765160781161022657806376516078146107f0578063794ccf6c146108035780638456cb591461081657806387e9152d1461081e5780639010d07c1461082757600080fd5b80636b584775146107865780636c353e341461079957806370a08231146107a157806373c89822146107b4578063762ddb59146107dd57600080fd5b8063329a8cfa1161038957806357200482116103065780635db531a1116102ca5780635db531a11461071d5780635f41346614610725578063610c3009146107385780636352211e1461074057806363ebc6771461075357806367a14f061461077357600080fd5b806357200482146106c657806357f276ff146106d957806359e6f787146106ec5780635b5c251f146106ff5780635c975abb1461071257600080fd5b806340005bb91161034d57806340005bb91461067e57806342842e0e1461069057806349b5e105146106a35780634d84c6d8146106ab5780634f6ccce7146106b357600080fd5b8063329a8cfa1461063557806336568abe1461063d5780633ab76e9f146106505780633f4ba83a146106635780633f86ea7c1461066b57600080fd5b806321d670e91161041757806329e63f35116103db57806329e63f35146105e05780632f2ff15d146105f35780632f745c59146106065780632fb5658514610619578063326a55e01461062d57600080fd5b806321d670e91461057857806321d7f0081461058157806323b872dd146105945780632436329d146105a7578063248a9ca3146105bc57600080fd5b80630ad17f8f1161045e5780630ad17f8f1461052b57806310a83fcb1461054c578063130f63201461055557806317314d5a1461056857806318160ddd1461057057600080fd5b806301ffc9a71461049b578063024bebe9146104c357806306fdde03146104ee578063081812fc14610503578063095ea7b314610516575b600080fd5b6104ae6104a936600461470a565b610a58565b60405190151581526020015b60405180910390f35b600d546104d6906001600160a01b031681565b6040516001600160a01b0390911681526020016104ba565b6104f6610a69565b6040516104ba91906148d2565b6104d66105113660046146aa565b610afb565b610529610524366004614644565b610b95565b005b61053e610539366004614644565b610cab565b6040519081526020016104ba565b61053e601e5481565b6105296105633660046146aa565b610cdc565b610529610d11565b601b5461053e565b61053e601f5481565b6004546104d6906001600160a01b031681565b6105296105a23660046144f1565b610d3a565b61053e600080516020614b8c83398151915281565b61053e6105ca3660046146aa565b6000908152600160208190526040909120015490565b6104ae6105ee3660046146aa565b610d92565b6105296106013660046146c3565b610e9f565b61053e610614366004614644565b610ec1565b6011546104ae90600160b01b900460ff1681565b610529610f57565b610529610f67565b61052961064b3660046146c3565b611070565b6011546104d6906001600160a01b031681565b610529611092565b6008546104d6906001600160a01b031681565b6022546104ae90610100900460ff1681565b61052961069e3660046144f1565b611124565b61052961118b565b610529610f5f565b61053e6106c13660046146aa565b611193565b6009546104d6906001600160a01b031681565b6105296106e73660046146aa565b611226565b6104ae6106fa366004614644565b61123a565b600e546104d6906001600160a01b031681565b60185460ff166104ae565b61052961126c565b600f546104d6906001600160a01b031681565b6104f6611274565b6104d661074e3660046146aa565b611302565b61076661076136600461447e565b611379565b6040516104ba919061488e565b6025546104d6906001600160a01b031681565b600a546104d6906001600160a01b031681565b6105296113e5565b61053e6107af36600461447e565b611411565b6104d66107c23660046146aa565b6000908152602660205260409020546001600160a01b031690565b6005546104d6906001600160a01b031681565b6104ae6107fe366004614670565b611498565b61053e6108113660046145e0565b61158f565b6105296117d6565b61053e60205481565b6104d66108353660046146e8565b611858565b6104ae6108483660046146c3565b611877565b6104f66118a2565b6104ae6108633660046146aa565b6118b1565b6022546104ae9060ff1681565b61053e600081565b61052961088b3660046145b2565b6119bd565b61053e600080516020614bec83398151915281565b6011546104ae90600160a01b900460ff1681565b6105296108c7366004614532565b611a3b565b6006546104d6906001600160a01b031681565b6108f26108ed3660046146aa565b611a6d565b6040516104ba92919061486a565b61052961090e3660046146aa565b611b1c565b6104f66109213660046146aa565b611b6d565b61053e6109343660046146aa565b611c54565b61053e600080516020614c0c83398151915281565b61053e600080516020614bcc83398151915281565b6105296109713660046146c3565b611c6b565b600b546104d6906001600160a01b031681565b600c546104d6906001600160a01b031681565b6104f6611c75565b6010546104d6906001600160a01b031681565b6003546104d6906001600160a01b031681565b6104ae6109d83660046144b8565b611c82565b61053e600080516020614bac83398151915281565b61053e601d5481565b6104ae610a093660046146aa565b611ce1565b610529611dcd565b610529611dd5565b6007546104d6906001600160a01b031681565b6104f6610a3f3660046146aa565b611e75565b6011546104ae90600160a81b900460ff1681565b6000610a6382611f2f565b92915050565b606060128054610a7890614a7a565b80601f0160208091040260200160405190810160405280929190818152602001828054610aa490614a7a565b8015610af15780601f10610ac657610100808354040283529160200191610af1565b820191906000526020600020905b815481529060010190602001808311610ad457829003601f168201915b5050505050905090565b6000818152601460205260408120546001600160a01b0316610b795760405162461bcd60e51b815260206004820152602c60248201527f4552433732313a20617070726f76656420717565727920666f72206e6f6e657860448201526b34b9ba32b73a103a37b5b2b760a11b60648201526084015b60405180910390fd5b506000908152601660205260409020546001600160a01b031690565b6000610ba082611302565b9050806001600160a01b0316836001600160a01b03161415610c0e5760405162461bcd60e51b815260206004820152602160248201527f4552433732313a20617070726f76616c20746f2063757272656e74206f776e656044820152603960f91b6064820152608401610b70565b336001600160a01b0382161480610c2a5750610c2a8133611c82565b610c9c5760405162461bcd60e51b815260206004820152603860248201527f4552433732313a20617070726f76652063616c6c6572206973206e6f74206f7760448201527f6e6572206e6f7220617070726f76656420666f7220616c6c00000000000000006064820152608401610b70565b610ca68383611f54565b505050565b60276020528160005260406000208181548110610cc757600080fd5b90600052602060002001600091509150505481565b610ce66001611fdb565b50610cf08161208d565b50610cfa81612208565b50610d056000611fdb565b610d0e57600080fd5b50565b610d1b6001611fdb565b50610d24612391565b50610d2f6000611fdb565b610d3857600080fd5b565b6000818152602660205260409020546001600160a01b031633811480610d655750610d658433611c82565b610d815760405162461bcd60e51b8152600401610b7090614937565b610d8c8484846124d7565b50505050565b6000610dac600080516020614bec83398151915233611877565b80610dca5750610dca600080516020614bac83398151915233611877565b80610de85750610de8600080516020614b8c83398151915233611877565b610e2d5760405162461bcd60e51b81526020600482015260166024820152752cb7ba93b932903737ba103a3432903130b4b634b33360511b6044820152606401610b70565b601e548210610e8a5760405162461bcd60e51b8152602060048201526024808201527f536f7272792120596f752063616e206f6e6c79206c6f7765722074686520666c6044820152636f6f722160e01b6064820152608401610b70565b610e9682601e55600190565b50600192915050565b610ea98282612508565b6000828152600260205260409020610ca69082611f1a565b6000610ecc83611411565b8210610f2e5760405162461bcd60e51b815260206004820152602b60248201527f455243373231456e756d657261626c653a206f776e657220696e646578206f7560448201526a74206f6620626f756e647360a81b6064820152608401610b70565b506001600160a01b03919091166000908152601960209081526040808320938352929052205490565b610f5f612542565b610d3861282e565b610f7f600080516020614bec83398151915233611877565b80610f9d5750610f9d600080516020614bac83398151915233611877565b80610fbb5750610fbb600080516020614b8c83398151915233611877565b6110005760405162461bcd60e51b81526020600482015260166024820152752cb7ba93b932903737ba103a3432903130b4b634b33360511b6044820152606401610b70565b601160009054906101000a90046001600160a01b03166001600160a01b031663329a8cfa6040518163ffffffff1660e01b8152600401600060405180830381600087803b15801561105057600080fd5b505af1158015611064573d6000803e3d6000fd5b50505050610d3861126c565b61107a8282612c3b565b6000828152600260205260409020610ca69082612cb5565b6110aa600080516020614bac83398151915233611877565b806110c857506110c8600080516020614bec83398151915233611877565b61110c5760405162461bcd60e51b8152602060048201526015602482015274596f75277265206e6f742074686520476176656c7360581b6044820152606401610b70565b60225460ff161561111c57600080fd5b610d38612cca565b600061112f82611302565b6000838152602660205260409020549091506001600160a01b03163381148061115d575061115d8533611c82565b6111795760405162461bcd60e51b8152600401610b7090614937565b611184858585612d5d565b5050505050565b610d38612542565b600061119e601b5490565b82106112015760405162461bcd60e51b815260206004820152602c60248201527f455243373231456e756d657261626c653a20676c6f62616c20696e646578206f60448201526b7574206f6620626f756e647360a01b6064820152608401610b70565b601b828154811061121457611214614b26565b90600052602060002001549050919050565b6112306001611fdb565b50610cfa81612d78565b6000818152602660205260408120546001600160a01b038481169116141561126457506001610a63565b506000610a63565b610d38612fd3565b6024805461128190614a7a565b80601f01602080910402602001604051908101604052809291908181526020018280546112ad90614a7a565b80156112fa5780601f106112cf576101008083540402835291602001916112fa565b820191906000526020600020905b8154815290600101906020018083116112dd57829003601f168201915b505050505081565b6000818152601460205260408120546001600160a01b031680610a635760405162461bcd60e51b815260206004820152602960248201527f4552433732313a206f776e657220717565727920666f72206e6f6e657869737460448201526832b73a103a37b5b2b760b91b6064820152608401610b70565b6001600160a01b0381166000908152602760209081526040918290208054835181840281018401909452808452606093928301828280156113d957602002820191906000526020600020905b8154815260200190600101908083116113c5575b50505050509050919050565b6113ed61282e565b600554602580546001600160a01b0319166001600160a01b03909216919091179055565b60006001600160a01b03821661147c5760405162461bcd60e51b815260206004820152602a60248201527f4552433732313a2062616c616e636520717565727920666f7220746865207a65604482015269726f206164647265737360b01b6064820152608401610b70565b506001600160a01b031660009081526015602052604090205490565b60006114b2600080516020614bac83398151915233611877565b806114d057506114d0600080516020614b8c83398151915233611877565b806114ee57506114ee600080516020614bec83398151915233611877565b6114f757600080fd5b601154600160b01b810460ff9081161515600160a81b90920416151514600114806115355750611535600080516020614bec83398151915233611877565b6115745760405162461bcd60e51b815260206004820152601060248201526f436f757274204d75737420416772656560801b6044820152606401610b70565b6001821515141561158757610e96613116565b506000919050565b601d546025546040516370a0823160e01b8152306004820152600092859284926001600160a01b03909116906370a082319060240160206040518083038186803b1580156115dc57600080fd5b505afa1580156115f0573d6000803e3d6000fd5b505050506040513d601f19601f820116820180604052508101906116149190614744565b61161e91906149d5565b602554601d546040516323b872dd60e01b815233600482015230602482015260448101919091529192506001600160a01b0316906323b872dd90606401602060405180830381600087803b15801561167557600080fd5b505af1158015611689573d6000803e3d6000fd5b505050506040513d601f19601f820116820180604052508101906116ad919061468d565b506025546040516370a0823160e01b815230600482015282916001600160a01b0316906370a082319060240160206040518083038186803b1580156116f157600080fd5b505afa158015611705573d6000803e3d6000fd5b505050506040513d601f19601f820116820180604052508101906117299190614744565b1461176f5760405162461bcd60e51b8152602060048201526016602482015275115c9c9bdc88151c985b9cd9995c9a5b99c80854915160521b6044820152606401610b70565b6001600160a01b038516331480159061179057506001600160a01b03851615155b61179957600080fd5b60215492506117a9338585613168565b6117b5856021546131d7565b6001602160008282546117c891906149d5565b909155509295945050505050565b6117ee600080516020614bac83398151915233611877565b8061180c575061180c600080516020614bec83398151915233611877565b6118505760405162461bcd60e51b8152602060048201526015602482015274596f75277265206e6f742074686520476176656c7360581b6044820152606401610b70565b610d386131f1565b6000828152600260205260408120611870908361326c565b9392505050565b60009182526001602090815260408084206001600160a01b0393909316845291905290205460ff1690565b606060138054610a7890614a7a565b60006118cb600080516020614bac83398151915233611877565b806118e957506118e9600080516020614b8c83398151915233611877565b806119075750611907600080516020614bec83398151915233611877565b61191057600080fd5b601154600160b01b810460ff9081161515600160a81b909204161515146001148061194e575061194e600080516020614bec83398151915233611877565b61198d5760405162461bcd60e51b815260206004820152601060248201526f436f757274204d75737420416772656560801b6044820152606401610b70565b81604514156115875761199e613116565b506119a76131f1565b506022805460ff19166001908117909155919050565b6119d5600080516020614bec83398151915233611877565b806119f357506119f3600080516020614bac83398151915233611877565b80611a115750611a11600080516020614b8c83398151915233611877565b611a2d5760405162461bcd60e51b8152600401610b7090614937565b611a378282613278565b5050565b611a45338361333d565b611a615760405162461bcd60e51b8152600401610b7090614984565b610d8c848484846133fc565b602660205260009081526040902080546001820180546001600160a01b039092169291611a9990614a7a565b80601f0160208091040260200160405190810160405280929190818152602001828054611ac590614a7a565b8015611b125780601f10611ae757610100808354040283529160200191611b12565b820191906000526020600020905b815481529060010190602001808311611af557829003601f168201915b5050505050905082565b611b26338261333d565b611b645760405162461bcd60e51b815260206004820152600f60248201526e4e696365205472792c204275636b6f60881b6044820152606401610b70565b610d0e8161342f565b6000818152601460205260409020546060906001600160a01b0316611bec5760405162461bcd60e51b815260206004820152602f60248201527f4552433732314d657461646174613a2055524920717565727920666f72206e6f60448201526e3732bc34b9ba32b73a103a37b5b2b760891b6064820152608401610b70565b6000611c0360408051602081019091526000815290565b90506000815111611c235760405180602001604052806000815250611870565b80611c2d846134d6565b604051602001611c3e929190614789565b6040516020818303038152906040529392505050565b6000818152600260205260408120610a63906135d4565b61107a82826135de565b6023805461128190614a7a565b600080611c9d600080516020614bec83398151915284611877565b80611cbb5750611cbb600080516020614bac83398151915284611877565b80611cd95750611cd9600080516020614b8c83398151915284611877565b949350505050565b6000611cfb600080516020614b8c83398151915233611877565b80611d195750611d19600080516020614bec83398151915233611877565b611d5b5760405162461bcd60e51b8152602060048201526013602482015272596f75277265206e6f7420746865204a75727960681b6044820152606401610b70565b601e54821015611dc15760405162461bcd60e51b815260206004820152602b60248201527f536f7272792120436f7374206d7573742062652067726561746572207468616e60448201526a10181718902932b22832b760a91b6064820152608401610b70565b610e9682601d55600190565b610d38613618565b611ddf6001611fdb565b50611df7600080516020614bec833981519152612d78565b50611e0f600080516020614bac833981519152612d78565b50611e27600080516020614b8c833981519152612d78565b50611e3f600080516020614bcc833981519152612d78565b50611e57600080516020614c0c833981519152612d78565b50611e626000612d78565b50611e6b612fd3565b610d2f6000611fdb565b6000818152602660205260409020600101805460609190611e9590614a7a565b80601f0160208091040260200160405190810160405280929190818152602001828054611ec190614a7a565b80156113d95780601f10611ee3576101008083540402835291602001916113d9565b820191906000526020600020905b815481529060010190602001808311611ef15750939695505050505050565b611a37828261374f565b6000611870836001600160a01b0384166137ba565b60006001600160e01b0319821663780e9d6360e01b1480610a635750610a6382613801565b611f6c600080516020614bec83398151915233611877565b611fd15760405162461bcd60e51b815260206004820152603060248201527f596f7520646f206e6f742068617665207065726d697373696f6e20746f20617060448201526f70726f7665207468697320626164676560801b6064820152608401610b70565b611a378282613841565b6000805460ff1682151581151514156120365760405162461bcd60e51b815260206004820152601960248201527f416c72656164792053657420746f20746861742076616c7565000000000000006044820152606401610b70565b6000805484151560ff19909116811790915560ff1615158115151415610e965760405162461bcd60e51b815260206004820152600c60248201526b29b0b33a32bc9022b93937b960a11b6044820152606401610b70565b60405163ca15c87360e01b8152600481018290526000908190309063ca15c8739060240160206040518083038186803b1580156120c957600080fd5b505afa1580156120dd573d6000803e3d6000fd5b505050506040513d601f19601f820116820180604052508101906121019190614744565b905060005b818110156121fe57604051632404341f60e21b815260048101859052602481018290526000903090639010d07c9060440160206040518083038186803b15801561214f57600080fd5b505afa158015612163573d6000803e3d6000fd5b505050506040513d601f19601f82011682018060405250810190612187919061449b565b60405163d547741f60e01b8152600481018790526001600160a01b0382166024820152909150309063d547741f90604401600060405180830381600087803b1580156121d257600080fd5b505af11580156121e6573d6000803e3d6000fd5b505050505080806121f690614ab5565b915050612106565b5060019392505050565b60115460405163ca15c87360e01b81526004810183905260009182916001600160a01b039091169063ca15c8739060240160206040518083038186803b15801561225157600080fd5b505afa158015612265573d6000803e3d6000fd5b505050506040513d601f19601f820116820180604052508101906122899190614744565b905060005b818110156121fe57601154604051632404341f60e21b815260048101869052602481018390526000916001600160a01b031690639010d07c9060440160206040518083038186803b1580156122e257600080fd5b505afa1580156122f6573d6000803e3d6000fd5b505050506040513d601f19601f8201168201806040525081019061231a919061449b565b604051632f2ff15d60e01b8152600481018790526001600160a01b03821660248201529091503090632f2ff15d90604401600060405180830381600087803b15801561236557600080fd5b505af1158015612379573d6000803e3d6000fd5b5050505050808061238990614ab5565b91505061228e565b60006123aa600080516020614bec83398151915261208d565b506123c2600080516020614bec833981519152612208565b6123cb57600080fd5b6123e2600080516020614bac83398151915261208d565b506123fa600080516020614bac833981519152612208565b61240357600080fd5b61241a600080516020614b8c83398151915261208d565b50612432600080516020614b8c833981519152612208565b61243b57600080fd5b612452600080516020614bcc83398151915261208d565b5061246a600080516020614bcc833981519152612208565b61247357600080fd5b61248a600080516020614c0c83398151915261208d565b506124a2600080516020614c0c833981519152612208565b6124ab57600080fd5b6124b5600061208d565b506124c06000612208565b6124c957600080fd5b6124d1612fd3565b50600190565b6124e1338261333d565b6124fd5760405162461bcd60e51b8152600401610b7090614984565b610ca68383836138af565b600082815260016020819052604082200154905460ff161561252e57610ca6838361374f565b6125388133613a5a565b610ca6838361374f565b601160009054906101000a90046001600160a01b03166001600160a01b031663dadf56ac6040518163ffffffff1660e01b815260040160206040518083038186803b15801561259057600080fd5b505afa1580156125a4573d6000803e3d6000fd5b505050506040513d601f19601f820116820180604052508101906125c8919061449b565b600c80546001600160a01b0319166001600160a01b039283161790556011546040805163024bebe960e01b81529051919092169163024bebe9916004808301926020929190829003018186803b15801561262157600080fd5b505afa158015612635573d6000803e3d6000fd5b505050506040513d601f19601f82011682018060405250810190612659919061449b565b600d80546001600160a01b0319166001600160a01b0392831617905560115460408051635b5c251f60e01b815290519190921691635b5c251f916004808301926020929190829003018186803b1580156126b257600080fd5b505afa1580156126c6573d6000803e3d6000fd5b505050506040513d601f19601f820116820180604052508101906126ea919061449b565b600e80546001600160a01b0319166001600160a01b0392831617905560115460408051637310bf1d60e11b81529051919092169163e6217e3a916004808301926020929190829003018186803b15801561274357600080fd5b505afa158015612757573d6000803e3d6000fd5b505050506040513d601f19601f8201168201806040525081019061277b919061449b565b601080546001600160a01b0319166001600160a01b039283161790556011546040805163d88127a160e01b81529051919092169163d88127a1916004808301926020929190829003018186803b1580156127d457600080fd5b505afa1580156127e8573d6000803e3d6000fd5b505050506040513d601f19601f8201168201806040525081019061280c919061449b565b600b80546001600160a01b0319166001600160a01b0392909216919091179055565b601160009054906101000a90046001600160a01b03166001600160a01b03166321d7f0086040518163ffffffff1660e01b815260040160206040518083038186803b15801561287c57600080fd5b505afa158015612890573d6000803e3d6000fd5b505050506040513d601f19601f820116820180604052508101906128b4919061449b565b600480546001600160a01b0319166001600160a01b039283161781556011546040805163762ddb5960e01b81529051919093169263762ddb599281810192602092909190829003018186803b15801561290c57600080fd5b505afa158015612920573d6000803e3d6000fd5b505050506040513d601f19601f82011682018060405250810190612944919061449b565b600580546001600160a01b0319166001600160a01b039283161790556011546040805163bfb7dc9960e01b81529051919092169163bfb7dc99916004808301926020929190829003018186803b15801561299d57600080fd5b505afa1580156129b1573d6000803e3d6000fd5b505050506040513d601f19601f820116820180604052508101906129d5919061449b565b600680546001600160a01b0319166001600160a01b0392831617905560115460408051633e6111eb60e21b81529051919092169163f98447ac916004808301926020929190829003018186803b158015612a2e57600080fd5b505afa158015612a42573d6000803e3d6000fd5b505050506040513d601f19601f82011682018060405250810190612a66919061449b565b600780546001600160a01b0319166001600160a01b0392831617905560115460408051630fe1ba9f60e21b815290519190921691633f86ea7c916004808301926020929190829003018186803b158015612abf57600080fd5b505afa158015612ad3573d6000803e3d6000fd5b505050506040513d601f19601f82011682018060405250810190612af7919061449b565b600880546001600160a01b0319166001600160a01b0392831617905560115460408051632b90024160e11b8152905191909216916357200482916004808301926020929190829003018186803b158015612b5057600080fd5b505afa158015612b64573d6000803e3d6000fd5b505050506040513d601f19601f82011682018060405250810190612b88919061449b565b600980546001600160a01b0319166001600160a01b0392831617905560115460408051636b58477560e01b815290519190921691636b584775916004808301926020929190829003018186803b158015612be157600080fd5b505afa158015612bf5573d6000803e3d6000fd5b505050506040513d601f19601f82011682018060405250810190612c19919061449b565b600a80546001600160a01b0319166001600160a01b0392909216919091179055565b6001600160a01b0381163314612cab5760405162461bcd60e51b815260206004820152602f60248201527f416363657373436f6e74726f6c3a2063616e206f6e6c792072656e6f756e636560448201526e103937b632b9903337b91039b2b63360891b6064820152608401610b70565b611a378282613abe565b6000611870836001600160a01b038416613b25565b60185460ff16612d135760405162461bcd60e51b815260206004820152601460248201527314185d5cd8589b194e881b9bdd081c185d5cd95960621b6044820152606401610b70565b6018805460ff191690557f5db9ee0a495bf2e6ff9c91a7834c1ba4fdd244a5e8aa4e537bd38aeae4b073aa335b6040516001600160a01b03909116815260200160405180910390a1565b610ca683838360405180602001604052806000815250611a3b565b60115460405163ca15c87360e01b81526004810183905260009182916001600160a01b039091169063ca15c8739060240160206040518083038186803b158015612dc157600080fd5b505afa158015612dd5573d6000803e3d6000fd5b505050506040513d601f19601f82011682018060405250810190612df99190614744565b60405163ca15c87360e01b815260048101859052909150600090309063ca15c8739060240160206040518083038186803b158015612e3657600080fd5b505afa158015612e4a573d6000803e3d6000fd5b505050506040513d601f19601f82011682018060405250810190612e6e9190614744565b90506000612e7c8284614a20565b905060008111612ec15760405162461bcd60e51b815260206004820152601060248201526f4e6f7468696e6720746f2073796e632160801b6044820152606401610b70565b60005b81811015612fc757601154604051632404341f60e21b815260048101889052602481018390526000916001600160a01b031690639010d07c9060440160206040518083038186803b158015612f1857600080fd5b505afa158015612f2c573d6000803e3d6000fd5b505050506040513d601f19601f82011682018060405250810190612f50919061449b565b604051632f2ff15d60e01b8152600481018990526001600160a01b03821660248201529091503090632f2ff15d90604401600060405180830381600087803b158015612f9b57600080fd5b505af1158015612faf573d6000803e3d6000fd5b50505050508080612fbf90614ab5565b915050612ec4565b50600195945050505050565b601160009054906101000a90046001600160a01b03166001600160a01b031663ff7e88ec6040518163ffffffff1660e01b815260040160206040518083038186803b15801561302157600080fd5b505afa158015613035573d6000803e3d6000fd5b505050506040513d601f19601f82011682018060405250810190613059919061468d565b601160156101000a81548160ff021916908315150217905550601160009054906101000a90046001600160a01b03166001600160a01b0316632fb565856040518163ffffffff1660e01b815260040160206040518083038186803b1580156130c057600080fd5b505afa1580156130d4573d6000803e3d6000fd5b505050506040513d601f19601f820116820180604052508101906130f8919061468d565b60118054911515600160b01b0260ff60b01b19909216919091179055565b6000805b60215481101561315c576000818152601460205260409020546001600160a01b03161561314a5761314a8161342f565b8061315481614ab5565b91505061311a565b50506000602155600190565b600081815260266020908152604090912080546001600160a01b0319166001600160a01b03861617815583516131a69260019092019185019061436f565b506001600160a01b039092166000908152602760209081526040822080546001810182559083529120019190915550565b611a37828260405180602001604052806000815250613c12565b60185460ff16156132375760405162461bcd60e51b815260206004820152601060248201526f14185d5cd8589b194e881c185d5cd95960821b6044820152606401610b70565b6018805460ff191660011790557f62e78cea01bee320cd4e420270b5ea74000d11b0c9f74754ebdbfc544b05a258612d403390565b60006118708383613c45565b6001600160a01b0382163314156132d15760405162461bcd60e51b815260206004820152601960248201527f4552433732313a20617070726f766520746f2063616c6c6572000000000000006044820152606401610b70565b3360008181526017602090815260408083206001600160a01b03871680855290835292819020805460ff191686151590811790915590519081529192917f17307eab39ab6107e8899845ad3d59bd9653f200f220920489ca2b5937696c31910160405180910390a35050565b6000818152601460205260408120546001600160a01b03166133b65760405162461bcd60e51b815260206004820152602c60248201527f4552433732313a206f70657261746f7220717565727920666f72206e6f6e657860448201526b34b9ba32b73a103a37b5b2b760a11b6064820152608401610b70565b60006133c183611302565b6000848152602660205260409020549091506001600160a01b039081169085168114806133f357506133f38286611c82565b95945050505050565b6134078484846138af565b61341384848484613ccb565b610d8c5760405162461bcd60e51b8152600401610b70906148e5565b600061343a82611302565b905061344881600084613dd8565b613453600083611f54565b6001600160a01b038116600090815260156020526040812080546001929061347c908490614a20565b909155505060008281526014602052604080822080546001600160a01b0319169055518391906001600160a01b038416907fddf252ad1be2c89b69c2b068fc378daa952ba7f163c4a11628f55a4df523b3ef908390a45050565b6060816134fa5750506040805180820190915260018152600360fc1b602082015290565b8160005b8115613524578061350e81614ab5565b915061351d9050600a836149ed565b91506134fe565b60008167ffffffffffffffff81111561353f5761353f614b3c565b6040519080825280601f01601f191660200182016040528015613569576020820181803683370190505b5090505b8415611cd95761357e600183614a20565b915061358b600a86614ad0565b6135969060306149d5565b60f81b8183815181106135ab576135ab614b26565b60200101906001600160f81b031916908160001a9053506135cd600a866149ed565b945061356d565b6000610a63825490565b600082815260016020819052604082200154905460ff161561360457610ca68383613abe565b61360e8133613a5a565b610ca68383613abe565b601160009054906101000a90046001600160a01b03166001600160a01b031663a44b93256040518163ffffffff1660e01b815260040160206040518083038186803b15801561366657600080fd5b505afa15801561367a573d6000803e3d6000fd5b505050506040513d601f19601f8201168201806040525081019061369e919061468d565b6136a757600080fd5b601160009054906101000a90046001600160a01b03166001600160a01b031663ac7cfac36040518163ffffffff1660e01b815260040160206040518083038186803b1580156136f557600080fd5b505afa158015613709573d6000803e3d6000fd5b505050506040513d601f19601f8201168201806040525081019061372d919061449b565b600380546001600160a01b0319166001600160a01b0392909216919091179055565b6137598282611877565b611a375760008281526001602081815260408084206001600160a01b0386168086529252808420805460ff19169093179092559051339285917f2f8788117e7eff1d82e926ec794901d17c78024a50270940304540a733656f0d9190a45050565b600081815260018301602052604081205461126457508154600181810184556000848152602080822090930184905584548482528286019093526040902091909155610a63565b60006001600160e01b031982166380ac58cd60e01b148061383257506001600160e01b03198216635b5e139f60e01b145b80610a635750610a6382613de3565b600081815260166020526040902080546001600160a01b0319166001600160a01b038416908117909155819061387682611302565b6001600160a01b03167f8c5be1e5ebec7d5bd14f71427d1e84f3dd0314c0f7b2291e5b200ac8c7c3b92560405160405180910390a45050565b826001600160a01b03166138c282611302565b6001600160a01b03161461392a5760405162461bcd60e51b815260206004820152602960248201527f4552433732313a207472616e73666572206f6620746f6b656e2074686174206960448201526839903737ba1037bbb760b91b6064820152608401610b70565b6001600160a01b03821661398c5760405162461bcd60e51b8152602060048201526024808201527f4552433732313a207472616e7366657220746f20746865207a65726f206164646044820152637265737360e01b6064820152608401610b70565b613997838383613dd8565b6139a2600082611f54565b6001600160a01b03831660009081526015602052604081208054600192906139cb908490614a20565b90915550506001600160a01b03821660009081526015602052604081208054600192906139f99084906149d5565b909155505060008181526014602052604080822080546001600160a01b0319166001600160a01b0386811691821790925591518493918716917fddf252ad1be2c89b69c2b068fc378daa952ba7f163c4a11628f55a4df523b3ef91a4505050565b613a648282611877565b611a3757613a7c816001600160a01b03166014613e08565b613a87836020613e08565b604051602001613a989291906147b8565b60408051601f198184030181529082905262461bcd60e51b8252610b70916004016148d2565b613ac88282611877565b15611a375760008281526001602090815260408083206001600160a01b0385168085529252808320805460ff1916905551339285917ff6391f5c32d9c69d2a47ea670b442974b53935d1edc7fd64eb21e047a839171b9190a45050565b60008181526001830160205260408120548015613c08576000613b49600183614a20565b8554909150600090613b5d90600190614a20565b90506000866000018281548110613b7657613b76614b26565b9060005260206000200154905080876000018481548110613b9957613b99614b26565b600091825260208083209091019290925582815260018901909152604090208490558654879080613bcc57613bcc614b10565b60019003818190600052602060002001600090559055866001016000878152602001908152602001600020600090556001945050505050610a63565b6000915050610a63565b613c1c8383613fa4565b613c296000848484613ccb565b610ca65760405162461bcd60e51b8152600401610b70906148e5565b81546000908210613ca35760405162461bcd60e51b815260206004820152602260248201527f456e756d657261626c655365743a20696e646578206f7574206f6620626f756e604482015261647360f01b6064820152608401610b70565b826000018281548110613cb857613cb8614b26565b9060005260206000200154905092915050565b60006001600160a01b0384163b15613dcd57604051630a85bd0160e11b81526001600160a01b0385169063150b7a0290613d0f90339089908890889060040161482d565b602060405180830381600087803b158015613d2957600080fd5b505af1925050508015613d59575060408051601f3d908101601f19168201909252613d5691810190614727565b60015b613db3573d808015613d87576040519150601f19603f3d011682016040523d82523d6000602084013e613d8c565b606091505b508051613dab5760405162461bcd60e51b8152600401610b70906148e5565b805181602001fd5b6001600160e01b031916630a85bd0160e11b149050611cd9565b506001949350505050565b610ca68383836140f2565b60006001600160e01b03198216635a05180f60e01b1480610a635750610a63826141aa565b60606000613e17836002614a01565b613e229060026149d5565b67ffffffffffffffff811115613e3a57613e3a614b3c565b6040519080825280601f01601f191660200182016040528015613e64576020820181803683370190505b509050600360fc1b81600081518110613e7f57613e7f614b26565b60200101906001600160f81b031916908160001a905350600f60fb1b81600181518110613eae57613eae614b26565b60200101906001600160f81b031916908160001a9053506000613ed2846002614a01565b613edd9060016149d5565b90505b6001811115613f55576f181899199a1a9b1b9c1cb0b131b232b360811b85600f1660108110613f1157613f11614b26565b1a60f81b828281518110613f2757613f27614b26565b60200101906001600160f81b031916908160001a90535060049490941c93613f4e81614a63565b9050613ee0565b5083156118705760405162461bcd60e51b815260206004820181905260248201527f537472696e67733a20686578206c656e67746820696e73756666696369656e746044820152606401610b70565b6001600160a01b038216613ffa5760405162461bcd60e51b815260206004820181905260248201527f4552433732313a206d696e7420746f20746865207a65726f20616464726573736044820152606401610b70565b6000818152601460205260409020546001600160a01b03161561405f5760405162461bcd60e51b815260206004820152601c60248201527f4552433732313a20746f6b656e20616c7265616479206d696e746564000000006044820152606401610b70565b61406b60008383613dd8565b6001600160a01b03821660009081526015602052604081208054600192906140949084906149d5565b909155505060008181526014602052604080822080546001600160a01b0319166001600160a01b03861690811790915590518392907fddf252ad1be2c89b69c2b068fc378daa952ba7f163c4a11628f55a4df523b3ef908290a45050565b6001600160a01b03831661414d5761414881601b80546000838152601c60205260408120829055600182018355919091527f3ad8aa4f87544323a9d1e5dd902f40c356527a7955687113db5f9a85ad579dc10155565b614170565b816001600160a01b0316836001600160a01b0316146141705761417083826141df565b6001600160a01b03821661418757610ca68161427c565b826001600160a01b0316826001600160a01b031614610ca657610ca6828261432b565b60006001600160e01b03198216637965db0b60e01b1480610a6357506301ffc9a760e01b6001600160e01b0319831614610a63565b600060016141ec84611411565b6141f69190614a20565b6000838152601a6020526040902054909150808214614249576001600160a01b03841660009081526019602090815260408083208584528252808320548484528184208190558352601a90915290208190555b506000918252601a602090815260408084208490556001600160a01b039094168352601981528383209183525290812055565b601b5460009061428e90600190614a20565b6000838152601c6020526040812054601b80549394509092849081106142b6576142b6614b26565b9060005260206000200154905080601b83815481106142d7576142d7614b26565b6000918252602080832090910192909255828152601c9091526040808220849055858252812055601b80548061430f5761430f614b10565b6001900381819060005260206000200160009055905550505050565b600061433683611411565b6001600160a01b0390931660009081526019602090815260408083208684528252808320859055938252601a9052919091209190915550565b82805461437b90614a7a565b90600052602060002090601f01602090048101928261439d57600085556143e3565b82601f106143b657805160ff19168380011785556143e3565b828001600101855582156143e3579182015b828111156143e35782518255916020019190600101906143c8565b506143ef9291506143f3565b5090565b5b808211156143ef57600081556001016143f4565b600067ffffffffffffffff8084111561442357614423614b3c565b604051601f8501601f19908116603f0116810190828211818310171561444b5761444b614b3c565b8160405280935085815286868601111561446457600080fd5b858560208301376000602087830101525050509392505050565b60006020828403121561449057600080fd5b813561187081614b52565b6000602082840312156144ad57600080fd5b815161187081614b52565b600080604083850312156144cb57600080fd5b82356144d681614b52565b915060208301356144e681614b52565b809150509250929050565b60008060006060848603121561450657600080fd5b833561451181614b52565b9250602084013561452181614b52565b929592945050506040919091013590565b6000806000806080858703121561454857600080fd5b843561455381614b52565b9350602085013561456381614b52565b925060408501359150606085013567ffffffffffffffff81111561458657600080fd5b8501601f8101871361459757600080fd5b6145a687823560208401614408565b91505092959194509250565b600080604083850312156145c557600080fd5b82356145d081614b52565b915060208301356144e681614b67565b600080604083850312156145f357600080fd5b82356145fe81614b52565b9150602083013567ffffffffffffffff81111561461a57600080fd5b8301601f8101851361462b57600080fd5b61463a85823560208401614408565b9150509250929050565b6000806040838503121561465757600080fd5b823561466281614b52565b946020939093013593505050565b60006020828403121561468257600080fd5b813561187081614b67565b60006020828403121561469f57600080fd5b815161187081614b67565b6000602082840312156146bc57600080fd5b5035919050565b600080604083850312156146d657600080fd5b8235915060208301356144e681614b52565b600080604083850312156146fb57600080fd5b50508035926020909101359150565b60006020828403121561471c57600080fd5b813561187081614b75565b60006020828403121561473957600080fd5b815161187081614b75565b60006020828403121561475657600080fd5b5051919050565b60008151808452614775816020860160208601614a37565b601f01601f19169290920160200192915050565b6000835161479b818460208801614a37565b8351908301906147af818360208801614a37565b01949350505050565b7f416363657373436f6e74726f6c3a206163636f756e74200000000000000000008152600083516147f0816017850160208801614a37565b7001034b99036b4b9b9b4b733903937b6329607d1b6017918401918201528351614821816028840160208801614a37565b01602801949350505050565b6001600160a01b03858116825284166020820152604081018390526080606082018190526000906148609083018461475d565b9695505050505050565b6001600160a01b0383168152604060208201819052600090611cd99083018461475d565b6020808252825182820181905260009190848201906040850190845b818110156148c6578351835292840192918401916001016148aa565b50909695505050505050565b602081526000611870602083018461475d565b60208082526032908201527f4552433732313a207472616e7366657220746f206e6f6e20455243373231526560408201527131b2b4bb32b91034b6b83632b6b2b73a32b960711b606082015260800190565b6020808252602d908201527f596f7520646f206e6f742068617665207065726d697373696f6e20746f206d6f60408201526c7665207468697320626164676560981b606082015260800190565b60208082526031908201527f4552433732313a207472616e736665722063616c6c6572206973206e6f74206f6040820152701ddb995c881b9bdc88185c1c1c9bdd9959607a1b606082015260800190565b600082198211156149e8576149e8614ae4565b500190565b6000826149fc576149fc614afa565b500490565b6000816000190483118215151615614a1b57614a1b614ae4565b500290565b600082821015614a3257614a32614ae4565b500390565b60005b83811015614a52578181015183820152602001614a3a565b83811115610d8c5750506000910152565b600081614a7257614a72614ae4565b506000190190565b600181811c90821680614a8e57607f821691505b60208210811415614aaf57634e487b7160e01b600052602260045260246000fd5b50919050565b6000600019821415614ac957614ac9614ae4565b5060010190565b600082614adf57614adf614afa565b500690565b634e487b7160e01b600052601160045260246000fd5b634e487b7160e01b600052601260045260246000fd5b634e487b7160e01b600052603160045260246000fd5b634e487b7160e01b600052603260045260246000fd5b634e487b7160e01b600052604160045260246000fd5b6001600160a01b0381168114610d0e57600080fd5b8015158114610d0e57600080fd5b6001600160e01b031981168114610d0e57600080fdfefa8e4989e1d689f7bc5c4b25b87efb51fecdecb19ba62847e29c759e12a89acd048bc71fa1cb2c119c339cf9cf00a97996a19a9d991ce5fe049f2fa5459e7990f0f4b159a6e2a4815eb3ca3df080bfa70c9270662c59bcaa4479a456220183e60538d24a8b7882d7b2e36af243d4af61c23e86e3daa6cb8c887b53220b2f57207c9d7f6f02908185bffb3f7fc9afb29fd7bf93675af8fd4b655ee05c2cee1e0ea264697066735822122071dabf89baa7380c3c21ec3137e878544d98a7cc6ef0f3fc020e65b0a5dcac7064736f6c63430008060033",
  "immutableReferences": {},
  "source": "pragma solidity ^0.8.0;\n\nimport \"./SmartConsensusMachine.sol\";\nimport \"./AddressManagerReciever.sol\";\n\nimport \"@openzeppelin/contracts/token/ERC20/ERC20.sol\";\nimport \"@openzeppelin/contracts/token/ERC721/extensions/ERC721Enumerable.sol\";\nimport \"@openzeppelin/contracts/token/ERC721/ERC721.sol\";\nimport \"@openzeppelin/contracts/security/Pausable.sol\";\n\ncontract GenericBadgeOLD is SmartConsensusMachine, ERC721, Pausable, ERC721Enumerable {\n    \n    // Set Default Minting Costs to 3 Red Pens.\n    uint256 public mintingCost = 3 * 10 ** 18;\n\n    // Set Default Minting Cost Floor to 1 Red Pens\n    uint256 public mintingCostFloor = 1 * 10 ** 17;\n\n    uint256 public payItForwardTreasuryRatio_Numerator = 2;\n    uint256 public payItForwardTreasuryRatio_Divisor = 3;\n\n    uint256 private _tokenIdGenerator = 0;\n\n    bool public isForeverLocked = false;\n    bool public payReciver;\n\n    string public badgeColor;\n    string public badgeName;\n\n    ERC20 public redPens = ERC20(RedPenTokenAddress);\n\n     constructor(string memory _badgeName, string memory _badgeSymbol, bool _payReciver, address _AddressManagerAddress)\n        ERC721(_badgeName, _badgeSymbol)\n        SmartConsensusMachine(_AddressManagerAddress){\n       \n       // updateAllAddresses();\n        badgeColor = _badgeSymbol;\n        badgeName = _badgeName;\n\n        payReciver = _payReciver;\n        redPens = ERC20(RedPenTokenAddress);\n    }      \n\n    \n    //******************************\n    //                            **\n    //     Setup mapping          ** \n    //                            **\n    //******************************\n    struct Badge { // struct will store the gifter address and reason for the gold stars\n        address gifter;\n        string reason;\n    }\n\n    mapping (uint => Badge) public BadgeInfo; // mapping of badge ID to badge struct(reason/gifter address)\n\n    mapping (address => uint[]) public BadgesSent; // mapping of address to tokenIDs sent\n\n\n\n    function setBadgeInfo(address _gifter, string memory _reason, uint _tokenId) internal {\n        BadgeInfo[_tokenId].gifter = _gifter; // assigns this goldstar gifter address to msg.sender\n        BadgeInfo[_tokenId].reason = _reason; // assigns the reason for this goldstar\n        BadgesSent[_gifter].push(_tokenId); // pushes tokenID to the addresses array of tokens\n    }\n\n    function getBadgeReason(uint _tokenId) public view returns (string memory _theReason) {\n        _theReason = BadgeInfo[_tokenId].reason; \n\n        return (_theReason);\n    }\n\n    function getBadgeSender(uint _tokenId) public view returns (address _theGifter) {\n        _theGifter = BadgeInfo[_tokenId].gifter; \n\n        return (_theGifter);\n    }\n\n\n    function getBadgesSent (address _gifter) public view returns (uint[] memory _BadgesSent) {\n       _BadgesSent = BadgesSent[_gifter];\n       return _BadgesSent; // returns array of tokenIDs sent by address\n    }\n\n\n    function isBadgeSender(address addressToCheck, uint badgeTokenID) public returns (bool){\n\n        if (addressToCheck == (BadgeInfo[badgeTokenID].gifter)) {\n            return true;\n        } else { return false;}\n\n    }\n    \n    //******************************\n    //                            **\n    //  Set payment modifier      ** \n    //                            **\n    //******************************\n\n\n    modifier PAY_WITH_PENS(address receivingAddress) virtual {      \n\n        uint256 expectedContractBalance;\n\n       /* if (payReciver == true) {\n        uint256 portionOfMintingCost = mintingCost / payItForwardTreasuryRatio_Divisor;\n        expectedContractBalance = redPens.balanceOf(address(this)) + (payItForwardTreasuryRatio_Numerator * portionOfMintingCost);\n\n        redPens.transferFrom(msg.sender, address(this), (payItForwardTreasuryRatio_Numerator * portionOfMintingCost));\n        redPens.transferFrom(msg.sender, receivingAddress, (portionOfMintingCost * (payItForwardTreasuryRatio_Divisor - payItForwardTreasuryRatio_Numerator)));\n        } else { */\n            expectedContractBalance = redPens.balanceOf(address(this)) + mintingCost;\n            redPens.transferFrom(msg.sender, address(this), mintingCost);\n       /* } */\n        \n        require(redPens.balanceOf(address(this)) == expectedContractBalance, \"Error Transfering !RED\");\n        \n        _;\n    }\n\n    /////////////////////////////////////////////////////////////////////////////////////////////////\n    /////////////////////////////////////////////////////////////////////////////////////////////////\n    /// @dev                                                                                     ////\n    /// Issuance Desk                                                                            ////\n    /////////////////////////////////////////////////////////////////////////////////////////////////\n    /////////////////////////////////////////////////////////////////////////////////////////////////\n\n\n    function issueBadge(address receivingAddress, string memory _reason) public\n        PAY_WITH_PENS(receivingAddress) \n        returns(uint newId) { // Right now function also increments and returns tokenId, this will be removed.\n        require((receivingAddress != msg.sender) && (receivingAddress != address(0)));\n        newId = _tokenIdGenerator;\n        setBadgeInfo(msg.sender, _reason, _tokenIdGenerator);\n        _safeMint(receivingAddress, _tokenIdGenerator);\n        _tokenIdGenerator += 1;\n       \n     }\n\n    function revokeBadge(uint tokenId) public {\n        require(_isApprovedOrOwner(msg.sender, tokenId),\n                    \"Nice Try, Bucko\") ;\n        _burn(tokenId);\n    }\n\n    /////////////////////////////////////////////////////////////////////////////////////////////////\n    /////////////////////////////////////////////////////////////////////////////////////////////////\n    /// @dev                                                                                     ////\n    /// Set Minting Costs                                                                        ////\n    /////////////////////////////////////////////////////////////////////////////////////////////////\n    /////////////////////////////////////////////////////////////////////////////////////////////////\n\n    function setMintingCost(uint256 costInWei) public JURY returns (bool){\n        require(costInWei >= mintingCostFloor, \"Sorry! Cost must be greater than 0.1 RedPen\");\n        _setMintingCost(costInWei);\n        return true;\n    }\n\n    function _setMintingCost(uint256 costInWei) internal returns (bool) {\n        mintingCost = costInWei;\n        return true;\n    }\n\n    function setMintingCostFloor(uint256 costFloorInWei) public BAILIFF returns (bool){\n\n        require(costFloorInWei < mintingCostFloor, \"Sorry! You can only lower the floor!\");\n        _setMintingCostFloor(costFloorInWei);\n        return true;\n    }\n\n    function _setMintingCostFloor(uint256 costInWei) internal returns (bool) {\n        mintingCostFloor = costInWei;\n        return true;\n    }\n\n\n    /////////////////////////////////////////////////////////////////////////////////////////////////\n    /////////////////////////////////////////////////////////////////////////////////////////////////\n    /// @dev                                                                                     ////\n    /// Internal Checks                                                                     ////\n    /////////////////////////////////////////////////////////////////////////////////////////////////\n    /////////////////////////////////////////////////////////////////////////////////////////////////\n\n    /////////////////////////////////////////////////////////////////////////////////////////////////\n    /////////////////////////////////////////////////////////////////////////////////////////////////\n    /// @dev                                                                                     ////\n    /// Maintanence\\\\\\\\\\\\\\\\\\\\\\\\\\\\\\\\\\\\\\\\\\\\\\\\\\\\\\                                                   ////\n    /////////////////////////////////////////////////////////////////////////////////////////////////\n    /////////////////////////////////////////////////////////////////////////////////////////////////\n    // Pause the contract if neccesary. Only the Gavels can do this.\n    function pause() public GAVELS {\n        _pause();\n    }\n\n    function unpause() public GAVELS {\n        require(isForeverLocked == false);\n        _unpause();\n    }\n\n    function updatePaymentToken() public {\n        _updateTokenAddresses();\n        redPens = ERC20(RedPenTokenAddress);\n    }\n\n    function _burnAllBadges() internal returns (bool) {\n        // burn all badges\n        uint256 index = 0;\n        for (index = 0; index < _tokenIdGenerator; index++) {\n            if (_exists(index)) {\n                _burn(index);\n            }   \n        }\n        _tokenIdGenerator = 0;\n        return true;\n    }\n\n    function refreshBadges(bool thisIsNotReversible) public THE_COURT returns (bool) {\n\n        if(thisIsNotReversible == true) {\n            // burn all badges\n            _burnAllBadges();\n            return true;\n        } else {return false;}\n    }\n\n\n    function destroyAndLockContract(uint valueMustBe69) public THE_COURT returns (bool) {\n\n        if(valueMustBe69 == 69) {\n            // burn all badges\n            _burnAllBadges();\n            // set protocol to locked\n            _pause();\n            isForeverLocked = true;\n            return isForeverLocked;\n        } else {return false;}\n    }\n\n\n    /////////////////////////////////////////////////////////////////////////////////////////////////\n    /////////////////////////////////////////////////////////////////////////////////////////////////\n    /// @dev                                                                                     ////\n    /// Transfer rules                                                                           ////\n    /////////////////////////////////////////////////////////////////////////////////////////////////\n    /////////////////////////////////////////////////////////////////////////////////////////////////\n    \n    function _isApprovedOrOwner(address spender, uint256 tokenId)\n        internal view virtual\n        override(ERC721)\n        returns (bool)\n    {\n        require(_exists(tokenId), \"ERC721: operator query for nonexistent token\");\n        address owner = ERC721.ownerOf(tokenId);\n        address gifter = BadgeInfo[tokenId].gifter;\n        return (spender == gifter || isApprovedForAll(owner, spender));\n    }\n\n    \n    function _approve(address to, uint256 tokenId)\n    internal virtual\n    override (ERC721)\n    {\n        require( hasRole(THE_COURT_ROLE, msg.sender),\n                    \"You do not have permission to approve this badge\");\n        super._approve(to, tokenId);\n    }\n\n    function isApprovedForAll(address owner, address operator)\n    public view virtual\n    override (ERC721)\n    returns (bool) {\n\n        bool isApproved = ( hasRole(THE_COURT_ROLE, operator)\n                            || hasRole(GAVELS_BAILIFF, operator)\n                            || hasRole(JURY_BAILIFF, operator));\n        return isApproved;\n    }\n\n\n    function setApprovalForAll(address operator, bool approved)\n    public virtual\n    override (ERC721) {\n        \n         require(   hasRole(THE_COURT_ROLE, msg.sender)\n                    || hasRole(GAVELS_BAILIFF, msg.sender)\n                    || hasRole(JURY_BAILIFF, msg.sender),\n                    \"You do not have permission to move this badge\");\n        super.setApprovalForAll(operator, approved);\n    }\n\n    function _beforeTokenTransfer(address from, address to, uint256 tokenId)\n        internal\n        override(ERC721, ERC721Enumerable)\n    {\n\n        super._beforeTokenTransfer(from, to, tokenId);\n    }\n\n    function supportsInterface(bytes4 interfaceId)\n        public\n        view\n        override(ERC721, ERC721Enumerable, AccessControlEnumerable)\n        returns (bool)\n    {\n        return super.supportsInterface(interfaceId);\n    }\n\n    //transfer functions from erc721 - need to override\n    function transferFrom(\n        address from,\n        address to,\n        uint256 tokenId\n    ) public virtual override {\n\n        address gifter = BadgeInfo[tokenId].gifter;\n        require( (msg.sender == gifter || isApprovedForAll(from, msg.sender)),\n                    \"You do not have permission to move this badge\");\n        \n        super.transferFrom(from, to, tokenId);\n        // revert(\"You're not authorized to use this function\"); // makes function revert back/fail\n    }\n\n    function safeTransferFrom(\n        address from,\n        address to,\n        uint256 tokenId\n    ) public virtual override {\n        address owner = ERC721.ownerOf(tokenId);\n        address gifter = BadgeInfo[tokenId].gifter;\n        require( (msg.sender == gifter || isApprovedForAll(from, msg.sender)),\n                    \"You do not have permission to move this badge\");\n        super.safeTransferFrom(from, to, tokenId);\n    }\n\n    /////////////////////////////////////////////////////////////////////////////////////////////////\n    /////////////////////////////////////////////////////////////////////////////////////////////////\n    /// @dev                                                                                     ////\n    /// End                                                                                      ////\n    /////////////////////////////////////////////////////////////////////////////////////////////////\n    /////////////////////////////////////////////////////////////////////////////////////////////////\n}",
  "sourcePath": "/home/n/Desktop/PinkSlips_FrontEnd_REFORMAT/contracts/src/GenericBadge_OLD.sol",
  "compiler": {
    "name": "solc",
    "version": "0.8.6+commit.11564f7e.Emscripten.clang"
  },
  "schemaVersion": "3.4.1",
  "updatedAt": "2021-08-09T08:59:15.583Z",
  "devdoc": {
    "kind": "dev",
    "methods": {
      "approve(address,uint256)": {
        "details": "See {IERC721-approve}."
      },
      "balanceOf(address)": {
        "details": "See {IERC721-balanceOf}."
      },
      "getApproved(uint256)": {
        "details": "See {IERC721-getApproved}."
      },
      "getRoleAdmin(bytes32)": {
        "details": "Returns the admin role that controls `role`. See {grantRole} and {revokeRole}. To change a role's admin, use {_setRoleAdmin}."
      },
      "getRoleMember(bytes32,uint256)": {
        "details": "Returns one of the accounts that have `role`. `index` must be a value between 0 and {getRoleMemberCount}, non-inclusive. Role bearers are not sorted in any particular way, and their ordering may change at any point. WARNING: When using {getRoleMember} and {getRoleMemberCount}, make sure you perform all queries on the same block. See the following https://forum.openzeppelin.com/t/iterating-over-elements-on-enumerableset-in-openzeppelin-contracts/2296[forum post] for more information."
      },
      "getRoleMemberCount(bytes32)": {
        "details": "Returns the number of accounts that have `role`. Can be used together with {getRoleMember} to enumerate all bearers of a role."
      },
      "grantRole(bytes32,address)": {
        "details": "Overload {grantRole} to track enumerable memberships"
      },
      "hasRole(bytes32,address)": {
        "details": "Returns `true` if `account` has been granted `role`."
      },
      "isApprovedForAll(address,address)": {
        "details": "See {IERC721-isApprovedForAll}."
      },
      "issueBadge(address,string)": {
        "details": "//// Issuance Desk                                                                            ////"
      },
      "name()": {
        "details": "See {IERC721Metadata-name}."
      },
      "ownerOf(uint256)": {
        "details": "See {IERC721-ownerOf}."
      },
      "pause()": {
        "details": "//// Maintanence\\\\\\\\\\\\\\\\\\\\\\\\\\\\\\\\\\\\\\\\\\\\\\\\\\\\\\                                                   ////"
      },
      "paused()": {
        "details": "Returns true if the contract is paused, and false otherwise."
      },
      "renounceRole(bytes32,address)": {
        "details": "Overload {renounceRole} to track enumerable memberships"
      },
      "revokeRole(bytes32,address)": {
        "details": "Overload {revokeRole} to track enumerable memberships"
      },
      "safeTransferFrom(address,address,uint256)": {
        "details": "See {IERC721-safeTransferFrom}."
      },
      "safeTransferFrom(address,address,uint256,bytes)": {
        "details": "See {IERC721-safeTransferFrom}."
      },
      "setApprovalForAll(address,bool)": {
        "details": "See {IERC721-setApprovalForAll}."
      },
      "setMintingCost(uint256)": {
        "details": "//// Set Minting Costs                                                                        ////"
      },
      "symbol()": {
        "details": "See {IERC721Metadata-symbol}."
      },
      "tokenByIndex(uint256)": {
        "details": "See {IERC721Enumerable-tokenByIndex}."
      },
      "tokenOfOwnerByIndex(address,uint256)": {
        "details": "See {IERC721Enumerable-tokenOfOwnerByIndex}."
      },
      "tokenURI(uint256)": {
        "details": "See {IERC721Metadata-tokenURI}."
      },
      "totalSupply()": {
        "details": "See {IERC721Enumerable-totalSupply}."
      },
      "transferFrom(address,address,uint256)": {
        "details": "See {IERC721-transferFrom}."
      }
    },
    "version": 1
  },
  "userdoc": {
    "kind": "user",
    "methods": {},
    "version": 1
  }
}