{
  "contractName": "GenericBadge",
  "abi": [
    {
      "inputs": [
        {
          "internalType": "string",
          "name": "_badgeName",
          "type": "string"
        },
        {
          "internalType": "string",
          "name": "_badgeSymbol",
          "type": "string"
        },
        {
          "internalType": "bool",
          "name": "_payReciver",
          "type": "bool"
        },
        {
          "internalType": "address",
          "name": "_AddressManagerAddress",
          "type": "address"
        }
      ],
      "stateMutability": "nonpayable",
      "type": "constructor"
    },
    {
      "anonymous": false,
      "inputs": [
        {
          "indexed": true,
          "internalType": "address",
          "name": "owner",
          "type": "address"
        },
        {
          "indexed": true,
          "internalType": "address",
          "name": "approved",
          "type": "address"
        },
        {
          "indexed": true,
          "internalType": "uint256",
          "name": "tokenId",
          "type": "uint256"
        }
      ],
      "name": "Approval",
      "type": "event"
    },
    {
      "anonymous": false,
      "inputs": [
        {
          "indexed": true,
          "internalType": "address",
          "name": "owner",
          "type": "address"
        },
        {
          "indexed": true,
          "internalType": "address",
          "name": "operator",
          "type": "address"
        },
        {
          "indexed": false,
          "internalType": "bool",
          "name": "approved",
          "type": "bool"
        }
      ],
      "name": "ApprovalForAll",
      "type": "event"
    },
    {
      "anonymous": false,
      "inputs": [
        {
          "indexed": false,
          "internalType": "address",
          "name": "account",
          "type": "address"
        }
      ],
      "name": "Paused",
      "type": "event"
    },
    {
      "anonymous": false,
      "inputs": [
        {
          "indexed": true,
          "internalType": "bytes32",
          "name": "role",
          "type": "bytes32"
        },
        {
          "indexed": true,
          "internalType": "bytes32",
          "name": "previousAdminRole",
          "type": "bytes32"
        },
        {
          "indexed": true,
          "internalType": "bytes32",
          "name": "newAdminRole",
          "type": "bytes32"
        }
      ],
      "name": "RoleAdminChanged",
      "type": "event"
    },
    {
      "anonymous": false,
      "inputs": [
        {
          "indexed": true,
          "internalType": "bytes32",
          "name": "role",
          "type": "bytes32"
        },
        {
          "indexed": true,
          "internalType": "address",
          "name": "account",
          "type": "address"
        },
        {
          "indexed": true,
          "internalType": "address",
          "name": "sender",
          "type": "address"
        }
      ],
      "name": "RoleGranted",
      "type": "event"
    },
    {
      "anonymous": false,
      "inputs": [
        {
          "indexed": true,
          "internalType": "bytes32",
          "name": "role",
          "type": "bytes32"
        },
        {
          "indexed": true,
          "internalType": "address",
          "name": "account",
          "type": "address"
        },
        {
          "indexed": true,
          "internalType": "address",
          "name": "sender",
          "type": "address"
        }
      ],
      "name": "RoleRevoked",
      "type": "event"
    },
    {
      "anonymous": false,
      "inputs": [
        {
          "indexed": true,
          "internalType": "address",
          "name": "from",
          "type": "address"
        },
        {
          "indexed": true,
          "internalType": "address",
          "name": "to",
          "type": "address"
        },
        {
          "indexed": true,
          "internalType": "uint256",
          "name": "tokenId",
          "type": "uint256"
        }
      ],
      "name": "Transfer",
      "type": "event"
    },
    {
      "anonymous": false,
      "inputs": [
        {
          "indexed": false,
          "internalType": "address",
          "name": "account",
          "type": "address"
        }
      ],
      "name": "Unpaused",
      "type": "event"
    },
    {
      "inputs": [],
      "name": "AddressManagerAddress",
      "outputs": [
        {
          "internalType": "address",
          "name": "",
          "type": "address"
        }
      ],
      "stateMutability": "view",
      "type": "function"
    },
    {
      "inputs": [
        {
          "internalType": "uint256",
          "name": "",
          "type": "uint256"
        }
      ],
      "name": "BadgeInfo",
      "outputs": [
        {
          "internalType": "address",
          "name": "gifter",
          "type": "address"
        },
        {
          "internalType": "string",
          "name": "reason",
          "type": "string"
        }
      ],
      "stateMutability": "view",
      "type": "function"
    },
    {
      "inputs": [
        {
          "internalType": "address",
          "name": "",
          "type": "address"
        },
        {
          "internalType": "uint256",
          "name": "",
          "type": "uint256"
        }
      ],
      "name": "BadgesSent",
      "outputs": [
        {
          "internalType": "uint256",
          "name": "",
          "type": "uint256"
        }
      ],
      "stateMutability": "view",
      "type": "function"
    },
    {
      "inputs": [],
      "name": "ChadBadgeAddress",
      "outputs": [
        {
          "internalType": "address",
          "name": "",
          "type": "address"
        }
      ],
      "stateMutability": "view",
      "type": "function"
    },
    {
      "inputs": [],
      "name": "DEFAULT_ADMIN_ROLE",
      "outputs": [
        {
          "internalType": "bytes32",
          "name": "",
          "type": "bytes32"
        }
      ],
      "stateMutability": "view",
      "type": "function"
    },
    {
      "inputs": [],
      "name": "GAVELS_BAILIFF",
      "outputs": [
        {
          "internalType": "bytes32",
          "name": "",
          "type": "bytes32"
        }
      ],
      "stateMutability": "view",
      "type": "function"
    },
    {
      "inputs": [],
      "name": "GavelDAOAgent",
      "outputs": [
        {
          "internalType": "address",
          "name": "",
          "type": "address"
        }
      ],
      "stateMutability": "view",
      "type": "function"
    },
    {
      "inputs": [],
      "name": "GavelTokenAddress",
      "outputs": [
        {
          "internalType": "address",
          "name": "",
          "type": "address"
        }
      ],
      "stateMutability": "view",
      "type": "function"
    },
    {
      "inputs": [],
      "name": "GavelVote",
      "outputs": [
        {
          "internalType": "bool",
          "name": "",
          "type": "bool"
        }
      ],
      "stateMutability": "view",
      "type": "function"
    },
    {
      "inputs": [],
      "name": "GoldStarAddress",
      "outputs": [
        {
          "internalType": "address",
          "name": "",
          "type": "address"
        }
      ],
      "stateMutability": "view",
      "type": "function"
    },
    {
      "inputs": [],
      "name": "JERK_ROLE",
      "outputs": [
        {
          "internalType": "bytes32",
          "name": "",
          "type": "bytes32"
        }
      ],
      "stateMutability": "view",
      "type": "function"
    },
    {
      "inputs": [],
      "name": "JURY_BAILIFF",
      "outputs": [
        {
          "internalType": "bytes32",
          "name": "",
          "type": "bytes32"
        }
      ],
      "stateMutability": "view",
      "type": "function"
    },
    {
      "inputs": [],
      "name": "JuryDAOAgent",
      "outputs": [
        {
          "internalType": "address",
          "name": "",
          "type": "address"
        }
      ],
      "stateMutability": "view",
      "type": "function"
    },
    {
      "inputs": [],
      "name": "JuryPoolAddress",
      "outputs": [
        {
          "internalType": "address",
          "name": "",
          "type": "address"
        }
      ],
      "stateMutability": "view",
      "type": "function"
    },
    {
      "inputs": [],
      "name": "JuryVote",
      "outputs": [
        {
          "internalType": "bool",
          "name": "",
          "type": "bool"
        }
      ],
      "stateMutability": "view",
      "type": "function"
    },
    {
      "inputs": [],
      "name": "MINI_BAILIFF_ROLE",
      "outputs": [
        {
          "internalType": "bytes32",
          "name": "",
          "type": "bytes32"
        }
      ],
      "stateMutability": "view",
      "type": "function"
    },
    {
      "inputs": [],
      "name": "MiniBailiff",
      "outputs": [
        {
          "internalType": "address",
          "name": "",
          "type": "address"
        }
      ],
      "stateMutability": "view",
      "type": "function"
    },
    {
      "inputs": [],
      "name": "PinkSlipAddress",
      "outputs": [
        {
          "internalType": "address",
          "name": "",
          "type": "address"
        }
      ],
      "stateMutability": "view",
      "type": "function"
    },
    {
      "inputs": [],
      "name": "RedPenTokenAddress",
      "outputs": [
        {
          "internalType": "address",
          "name": "",
          "type": "address"
        }
      ],
      "stateMutability": "view",
      "type": "function"
    },
    {
      "inputs": [],
      "name": "THE_COURT_ROLE",
      "outputs": [
        {
          "internalType": "bytes32",
          "name": "",
          "type": "bytes32"
        }
      ],
      "stateMutability": "view",
      "type": "function"
    },
    {
      "inputs": [],
      "name": "TheCourtAddress",
      "outputs": [
        {
          "internalType": "address",
          "name": "",
          "type": "address"
        }
      ],
      "stateMutability": "view",
      "type": "function"
    },
    {
      "inputs": [],
      "name": "TreasuryAddress",
      "outputs": [
        {
          "internalType": "address",
          "name": "",
          "type": "address"
        }
      ],
      "stateMutability": "view",
      "type": "function"
    },
    {
      "inputs": [],
      "name": "addressManager",
      "outputs": [
        {
          "internalType": "contract AddressManager",
          "name": "",
          "type": "address"
        }
      ],
      "stateMutability": "view",
      "type": "function"
    },
    {
      "inputs": [
        {
          "internalType": "address",
          "name": "to",
          "type": "address"
        },
        {
          "internalType": "uint256",
          "name": "tokenId",
          "type": "uint256"
        }
      ],
      "name": "approve",
      "outputs": [],
      "stateMutability": "nonpayable",
      "type": "function"
    },
    {
      "inputs": [],
      "name": "badgeColor",
      "outputs": [
        {
          "internalType": "string",
          "name": "",
          "type": "string"
        }
      ],
      "stateMutability": "view",
      "type": "function"
    },
    {
      "inputs": [],
      "name": "badgeName",
      "outputs": [
        {
          "internalType": "string",
          "name": "",
          "type": "string"
        }
      ],
      "stateMutability": "view",
      "type": "function"
    },
    {
      "inputs": [
        {
          "internalType": "address",
          "name": "owner",
          "type": "address"
        }
      ],
      "name": "balanceOf",
      "outputs": [
        {
          "internalType": "uint256",
          "name": "",
          "type": "uint256"
        }
      ],
      "stateMutability": "view",
      "type": "function"
    },
    {
      "inputs": [
        {
          "internalType": "uint256",
          "name": "tokenId",
          "type": "uint256"
        }
      ],
      "name": "getApproved",
      "outputs": [
        {
          "internalType": "address",
          "name": "",
          "type": "address"
        }
      ],
      "stateMutability": "view",
      "type": "function"
    },
    {
      "inputs": [
        {
          "internalType": "bytes32",
          "name": "role",
          "type": "bytes32"
        }
      ],
      "name": "getRoleAdmin",
      "outputs": [
        {
          "internalType": "bytes32",
          "name": "",
          "type": "bytes32"
        }
      ],
      "stateMutability": "view",
      "type": "function"
    },
    {
      "inputs": [
        {
          "internalType": "bytes32",
          "name": "role",
          "type": "bytes32"
        },
        {
          "internalType": "uint256",
          "name": "index",
          "type": "uint256"
        }
      ],
      "name": "getRoleMember",
      "outputs": [
        {
          "internalType": "address",
          "name": "",
          "type": "address"
        }
      ],
      "stateMutability": "view",
      "type": "function"
    },
    {
      "inputs": [
        {
          "internalType": "bytes32",
          "name": "role",
          "type": "bytes32"
        }
      ],
      "name": "getRoleMemberCount",
      "outputs": [
        {
          "internalType": "uint256",
          "name": "",
          "type": "uint256"
        }
      ],
      "stateMutability": "view",
      "type": "function"
    },
    {
      "inputs": [
        {
          "internalType": "bytes32",
          "name": "role",
          "type": "bytes32"
        },
        {
          "internalType": "address",
          "name": "account",
          "type": "address"
        }
      ],
      "name": "grantRole",
      "outputs": [],
      "stateMutability": "nonpayable",
      "type": "function"
    },
    {
      "inputs": [
        {
          "internalType": "bytes32",
          "name": "role",
          "type": "bytes32"
        },
        {
          "internalType": "address",
          "name": "account",
          "type": "address"
        }
      ],
      "name": "hasRole",
      "outputs": [
        {
          "internalType": "bool",
          "name": "",
          "type": "bool"
        }
      ],
      "stateMutability": "view",
      "type": "function"
    },
    {
      "inputs": [
        {
          "internalType": "address",
          "name": "owner",
          "type": "address"
        },
        {
          "internalType": "address",
          "name": "operator",
          "type": "address"
        }
      ],
      "name": "isApprovedForAll",
      "outputs": [
        {
          "internalType": "bool",
          "name": "",
          "type": "bool"
        }
      ],
      "stateMutability": "view",
      "type": "function"
    },
    {
      "inputs": [],
      "name": "isForeverLocked",
      "outputs": [
        {
          "internalType": "bool",
          "name": "",
          "type": "bool"
        }
      ],
      "stateMutability": "view",
      "type": "function"
    },
    {
      "inputs": [],
      "name": "jerkSanctions",
      "outputs": [
        {
          "internalType": "bool",
          "name": "",
          "type": "bool"
        }
      ],
      "stateMutability": "view",
      "type": "function"
    },
    {
      "inputs": [],
      "name": "mintingCost",
      "outputs": [
        {
          "internalType": "uint256",
          "name": "",
          "type": "uint256"
        }
      ],
      "stateMutability": "view",
      "type": "function"
    },
    {
      "inputs": [],
      "name": "mintingCostFloor",
      "outputs": [
        {
          "internalType": "uint256",
          "name": "",
          "type": "uint256"
        }
      ],
      "stateMutability": "view",
      "type": "function"
    },
    {
      "inputs": [],
      "name": "name",
      "outputs": [
        {
          "internalType": "string",
          "name": "",
          "type": "string"
        }
      ],
      "stateMutability": "view",
      "type": "function"
    },
    {
      "inputs": [
        {
          "internalType": "uint256",
          "name": "tokenId",
          "type": "uint256"
        }
      ],
      "name": "ownerOf",
      "outputs": [
        {
          "internalType": "address",
          "name": "",
          "type": "address"
        }
      ],
      "stateMutability": "view",
      "type": "function"
    },
    {
      "inputs": [],
      "name": "paused",
      "outputs": [
        {
          "internalType": "bool",
          "name": "",
          "type": "bool"
        }
      ],
      "stateMutability": "view",
      "type": "function"
    },
    {
      "inputs": [],
      "name": "payItForwardTreasuryRatio_Divisor",
      "outputs": [
        {
          "internalType": "uint256",
          "name": "",
          "type": "uint256"
        }
      ],
      "stateMutability": "view",
      "type": "function"
    },
    {
      "inputs": [],
      "name": "payItForwardTreasuryRatio_Numerator",
      "outputs": [
        {
          "internalType": "uint256",
          "name": "",
          "type": "uint256"
        }
      ],
      "stateMutability": "view",
      "type": "function"
    },
    {
      "inputs": [],
      "name": "payReciver",
      "outputs": [
        {
          "internalType": "bool",
          "name": "",
          "type": "bool"
        }
      ],
      "stateMutability": "view",
      "type": "function"
    },
    {
      "inputs": [],
      "name": "redPens",
      "outputs": [
        {
          "internalType": "contract ERC20",
          "name": "",
          "type": "address"
        }
      ],
      "stateMutability": "view",
      "type": "function"
    },
    {
      "inputs": [
        {
          "internalType": "bytes32",
          "name": "role",
          "type": "bytes32"
        },
        {
          "internalType": "address",
          "name": "account",
          "type": "address"
        }
      ],
      "name": "renounceRole",
      "outputs": [],
      "stateMutability": "nonpayable",
      "type": "function"
    },
    {
      "inputs": [],
      "name": "resetVote",
      "outputs": [],
      "stateMutability": "nonpayable",
      "type": "function"
    },
    {
      "inputs": [
        {
          "internalType": "bytes32",
          "name": "role",
          "type": "bytes32"
        },
        {
          "internalType": "address",
          "name": "account",
          "type": "address"
        }
      ],
      "name": "revokeRole",
      "outputs": [],
      "stateMutability": "nonpayable",
      "type": "function"
    },
    {
      "inputs": [
        {
          "internalType": "address",
          "name": "operator",
          "type": "address"
        },
        {
          "internalType": "bool",
          "name": "approved",
          "type": "bool"
        }
      ],
      "name": "setApprovalForAll",
      "outputs": [],
      "stateMutability": "nonpayable",
      "type": "function"
    },
    {
      "inputs": [],
      "name": "symbol",
      "outputs": [
        {
          "internalType": "string",
          "name": "",
          "type": "string"
        }
      ],
      "stateMutability": "view",
      "type": "function"
    },
    {
      "inputs": [],
      "name": "syncAllRoles",
      "outputs": [],
      "stateMutability": "nonpayable",
      "type": "function"
    },
    {
      "inputs": [
        {
          "internalType": "bytes32",
          "name": "ROLE_TO_SYNC",
          "type": "bytes32"
        }
      ],
      "name": "syncSingleRole",
      "outputs": [],
      "stateMutability": "nonpayable",
      "type": "function"
    },
    {
      "inputs": [],
      "name": "syncVotes",
      "outputs": [],
      "stateMutability": "nonpayable",
      "type": "function"
    },
    {
      "inputs": [
        {
          "internalType": "uint256",
          "name": "index",
          "type": "uint256"
        }
      ],
      "name": "tokenByIndex",
      "outputs": [
        {
          "internalType": "uint256",
          "name": "",
          "type": "uint256"
        }
      ],
      "stateMutability": "view",
      "type": "function"
    },
    {
      "inputs": [
        {
          "internalType": "address",
          "name": "owner",
          "type": "address"
        },
        {
          "internalType": "uint256",
          "name": "index",
          "type": "uint256"
        }
      ],
      "name": "tokenOfOwnerByIndex",
      "outputs": [
        {
          "internalType": "uint256",
          "name": "",
          "type": "uint256"
        }
      ],
      "stateMutability": "view",
      "type": "function"
    },
    {
      "inputs": [
        {
          "internalType": "uint256",
          "name": "tokenId",
          "type": "uint256"
        }
      ],
      "name": "tokenURI",
      "outputs": [
        {
          "internalType": "string",
          "name": "",
          "type": "string"
        }
      ],
      "stateMutability": "view",
      "type": "function"
    },
    {
      "inputs": [],
      "name": "totalSupply",
      "outputs": [
        {
          "internalType": "uint256",
          "name": "",
          "type": "uint256"
        }
      ],
      "stateMutability": "view",
      "type": "function"
    },
    {
      "inputs": [],
      "name": "updateAddressManager",
      "outputs": [],
      "stateMutability": "nonpayable",
      "type": "function"
    },
    {
      "inputs": [],
      "name": "updateAllAddresses",
      "outputs": [],
      "stateMutability": "nonpayable",
      "type": "function"
    },
    {
      "inputs": [],
      "name": "updateAllRoles",
      "outputs": [],
      "stateMutability": "nonpayable",
      "type": "function"
    },
    {
      "inputs": [],
      "name": "updateDAOAddresses",
      "outputs": [],
      "stateMutability": "nonpayable",
      "type": "function"
    },
    {
      "inputs": [
        {
          "internalType": "bytes32",
          "name": "ROLE_TO_UPDATE",
          "type": "bytes32"
        }
      ],
      "name": "updateSingleRole",
      "outputs": [],
      "stateMutability": "nonpayable",
      "type": "function"
    },
    {
      "inputs": [],
      "name": "updateTokenAddresses",
      "outputs": [],
      "stateMutability": "nonpayable",
      "type": "function"
    },
    {
      "inputs": [
        {
          "internalType": "uint256",
          "name": "_tokenId",
          "type": "uint256"
        }
      ],
      "name": "getBadgeReason",
      "outputs": [
        {
          "internalType": "string",
          "name": "_theReason",
          "type": "string"
        }
      ],
      "stateMutability": "view",
      "type": "function"
    },
    {
      "inputs": [
        {
          "internalType": "uint256",
          "name": "_tokenId",
          "type": "uint256"
        }
      ],
      "name": "getBadgeSender",
      "outputs": [
        {
          "internalType": "address",
          "name": "_theGifter",
          "type": "address"
        }
      ],
      "stateMutability": "view",
      "type": "function"
    },
    {
      "inputs": [
        {
          "internalType": "address",
          "name": "_gifter",
          "type": "address"
        }
      ],
      "name": "getBadgesSent",
      "outputs": [
        {
          "internalType": "uint256[]",
          "name": "_BadgesSent",
          "type": "uint256[]"
        }
      ],
      "stateMutability": "view",
      "type": "function"
    },
    {
      "inputs": [
        {
          "internalType": "address",
          "name": "addressToCheck",
          "type": "address"
        },
        {
          "internalType": "uint256",
          "name": "badgeTokenID",
          "type": "uint256"
        }
      ],
      "name": "isBadgeSender",
      "outputs": [
        {
          "internalType": "bool",
          "name": "",
          "type": "bool"
        }
      ],
      "stateMutability": "nonpayable",
      "type": "function"
    },
    {
      "inputs": [
        {
          "internalType": "address",
          "name": "receivingAddress",
          "type": "address"
        },
        {
          "internalType": "string",
          "name": "_reason",
          "type": "string"
        }
      ],
      "name": "issueBadge",
      "outputs": [
        {
          "internalType": "uint256",
          "name": "newId",
          "type": "uint256"
        }
      ],
      "stateMutability": "nonpayable",
      "type": "function"
    },
    {
      "inputs": [
        {
          "internalType": "uint256",
          "name": "tokenId",
          "type": "uint256"
        }
      ],
      "name": "burn",
      "outputs": [],
      "stateMutability": "nonpayable",
      "type": "function"
    },
    {
      "inputs": [
        {
          "internalType": "uint256",
          "name": "costInWei",
          "type": "uint256"
        }
      ],
      "name": "setMintingCost",
      "outputs": [
        {
          "internalType": "bool",
          "name": "",
          "type": "bool"
        }
      ],
      "stateMutability": "nonpayable",
      "type": "function"
    },
    {
      "inputs": [
        {
          "internalType": "uint256",
          "name": "costFloorInWei",
          "type": "uint256"
        }
      ],
      "name": "setMintingCostFloor",
      "outputs": [
        {
          "internalType": "bool",
          "name": "",
          "type": "bool"
        }
      ],
      "stateMutability": "nonpayable",
      "type": "function"
    },
    {
      "inputs": [],
      "name": "pause",
      "outputs": [],
      "stateMutability": "nonpayable",
      "type": "function"
    },
    {
      "inputs": [],
      "name": "unpause",
      "outputs": [],
      "stateMutability": "nonpayable",
      "type": "function"
    },
    {
      "inputs": [],
      "name": "updatePaymentToken",
      "outputs": [],
      "stateMutability": "nonpayable",
      "type": "function"
    },
    {
      "inputs": [
        {
          "internalType": "bool",
          "name": "thisIsNotReversible",
          "type": "bool"
        }
      ],
      "name": "refreshBadges",
      "outputs": [
        {
          "internalType": "bool",
          "name": "",
          "type": "bool"
        }
      ],
      "stateMutability": "nonpayable",
      "type": "function"
    },
    {
      "inputs": [
        {
          "internalType": "bool",
          "name": "thisIsNotReversible",
          "type": "bool"
        }
      ],
      "name": "destroy",
      "outputs": [
        {
          "internalType": "bool",
          "name": "",
          "type": "bool"
        }
      ],
      "stateMutability": "nonpayable",
      "type": "function"
    },
    {
      "inputs": [
        {
          "internalType": "bytes4",
          "name": "interfaceId",
          "type": "bytes4"
        }
      ],
      "name": "supportsInterface",
      "outputs": [
        {
          "internalType": "bool",
          "name": "",
          "type": "bool"
        }
      ],
      "stateMutability": "view",
      "type": "function"
    },
    {
      "inputs": [
        {
          "internalType": "address",
          "name": "from",
          "type": "address"
        },
        {
          "internalType": "address",
          "name": "to",
          "type": "address"
        },
        {
          "internalType": "uint256",
          "name": "tokenId",
          "type": "uint256"
        }
      ],
      "name": "transferFrom",
      "outputs": [],
      "stateMutability": "nonpayable",
      "type": "function"
    },
    {
      "inputs": [
        {
          "internalType": "address",
          "name": "from",
          "type": "address"
        },
        {
          "internalType": "address",
          "name": "to",
          "type": "address"
        },
        {
          "internalType": "uint256",
          "name": "tokenId",
          "type": "uint256"
        }
      ],
      "name": "safeTransferFrom",
      "outputs": [],
      "stateMutability": "nonpayable",
      "type": "function"
    },
    {
      "inputs": [
        {
          "internalType": "address",
          "name": "from",
          "type": "address"
        },
        {
          "internalType": "address",
          "name": "to",
          "type": "address"
        },
        {
          "internalType": "uint256",
          "name": "tokenId",
          "type": "uint256"
        },
        {
          "internalType": "bytes",
          "name": "_data",
          "type": "bytes"
        }
      ],
      "name": "safeTransferFrom",
      "outputs": [],
      "stateMutability": "nonpayable",
      "type": "function"
    }
  ],
  "bytecode": "0x6080604052600e805463ffffffff60a01b191690556729a2241af62c0000601a5567016345785d8a0000601b556002601c556003601d556000601e55601f805460ff19169055600454602280546001600160a01b0319166001600160a01b039092169190911790553480156200007457600080fd5b5060405162005ee538038062005ee5833981016040819052620000979162000d52565b600280546001600160a01b038084166001600160a01b03199283161792839055600e80549092169216919091179055838382620000d3620002af565b620000dd620002c5565b600c54620000f7906000906001600160a01b031662000409565b600c5462000130907f0538d24a8b7882d7b2e36af243d4af61c23e86e3daa6cb8c887b53220b2f5720906001600160a01b031662000409565b60095462000169907f048bc71fa1cb2c119c339cf9cf00a97996a19a9d991ce5fe049f2fa5459e7990906001600160a01b031662000409565b600a54620001a2907ffa8e4989e1d689f7bc5c4b25b87efb51fecdecb19ba62847e29c759e12a89acd906001600160a01b031662000409565b600d54620001db907ff0f4b159a6e2a4815eb3ca3df080bfa70c9270662c59bcaa4479a456220183e6906001600160a01b031662000409565b620002087f7c9d7f6f02908185bffb3f7fc9afb29fd7bf93675af8fd4b655ee05c2cee1e0e600062000409565b5081516200021e90600f90602085019062000b99565b5080516200023490601090602084019062000b99565b50506015805460ff1916905550825162000255906020908186019062000b99565b5083516200026b90602190602087019062000b99565b5050601f80549115156101000261ff00199092169190911790555050600454602280546001600160a01b0319166001600160a01b0390921691909117905562000e31565b620002b96200044c565b620002c3620006b7565b565b600e60009054906101000a90046001600160a01b03166001600160a01b031663ff7e88ec6040518163ffffffff1660e01b815260040160206040518083038186803b1580156200031457600080fd5b505afa15801562000329573d6000803e3d6000fd5b505050506040513d601f19601f820116820180604052508101906200034f919062000d35565b600e8054911515600160a81b0260ff60a81b19909216919091179081905560408051632fb5658560e01b815290516001600160a01b0390921691632fb5658591600480820192602092909190829003018186803b158015620003b057600080fd5b505afa158015620003c5573d6000803e3d6000fd5b505050506040513d601f19601f82011682018060405250810190620003eb919062000d35565b600e8054911515600160b01b0260ff60b01b19909216919091179055565b62000420828262000a4b60201b62001e371760201c565b60008281526001602090815260409091206200044791839062001e4162000a5b821b17901c565b505050565b600e60009054906101000a90046001600160a01b03166001600160a01b031663dadf56ac6040518163ffffffff1660e01b815260040160206040518083038186803b1580156200049b57600080fd5b505afa158015620004b0573d6000803e3d6000fd5b505050506040513d601f19601f82011682018060405250810190620004d6919062000d18565b600980546001600160a01b0319166001600160a01b03928316179055600e546040805163024bebe960e01b81529051919092169163024bebe9916004808301926020929190829003018186803b1580156200053057600080fd5b505afa15801562000545573d6000803e3d6000fd5b505050506040513d601f19601f820116820180604052508101906200056b919062000d18565b600a80546001600160a01b0319166001600160a01b03928316179055600e5460408051635b5c251f60e01b815290519190921691635b5c251f916004808301926020929190829003018186803b158015620005c557600080fd5b505afa158015620005da573d6000803e3d6000fd5b505050506040513d601f19601f8201168201806040525081019062000600919062000d18565b600b80546001600160a01b0319166001600160a01b03928316179055600e5460408051637310bf1d60e11b81529051919092169163e6217e3a916004808301926020929190829003018186803b1580156200065a57600080fd5b505afa1580156200066f573d6000803e3d6000fd5b505050506040513d601f19601f8201168201806040525081019062000695919062000d18565b600d80546001600160a01b0319166001600160a01b0392909216919091179055565b600e60009054906101000a90046001600160a01b03166001600160a01b03166321d7f0086040518163ffffffff1660e01b815260040160206040518083038186803b1580156200070657600080fd5b505afa1580156200071b573d6000803e3d6000fd5b505050506040513d601f19601f8201168201806040525081019062000741919062000d18565b600380546001600160a01b0319166001600160a01b03928316179055600e546040805163762ddb5960e01b81529051919092169163762ddb59916004808301926020929190829003018186803b1580156200079b57600080fd5b505afa158015620007b0573d6000803e3d6000fd5b505050506040513d601f19601f82011682018060405250810190620007d6919062000d18565b600480546001600160a01b0319166001600160a01b03928316178155600e546040805163bfb7dc9960e01b81529051919093169263bfb7dc999281810192602092909190829003018186803b1580156200082f57600080fd5b505afa15801562000844573d6000803e3d6000fd5b505050506040513d601f19601f820116820180604052508101906200086a919062000d18565b600580546001600160a01b0319166001600160a01b03928316179055600e5460408051633e6111eb60e21b81529051919092169163f98447ac916004808301926020929190829003018186803b158015620008c457600080fd5b505afa158015620008d9573d6000803e3d6000fd5b505050506040513d601f19601f82011682018060405250810190620008ff919062000d18565b600680546001600160a01b0319166001600160a01b03928316179055600e5460408051630fe1ba9f60e21b815290519190921691633f86ea7c916004808301926020929190829003018186803b1580156200095957600080fd5b505afa1580156200096e573d6000803e3d6000fd5b505050506040513d601f19601f8201168201806040525081019062000994919062000d18565b600780546001600160a01b0319166001600160a01b03928316179055600e5460408051636b58477560e01b815290519190921691636b584775916004808301926020929190829003018186803b158015620009ee57600080fd5b505afa15801562000a03573d6000803e3d6000fd5b505050506040513d601f19601f8201168201806040525081019062000a29919062000d18565b600880546001600160a01b0319166001600160a01b0392909216919091179055565b62000a57828262000a7b565b5050565b600062000a72836001600160a01b03841662000b05565b90505b92915050565b62000a87828262000b54565b62000a57576000828152602081815260408083206001600160a01b03851684529091529020805460ff1916600117905562000ac162000b7d565b6001600160a01b0316816001600160a01b0316837f2f8788117e7eff1d82e926ec794901d17c78024a50270940304540a733656f0d60405160405180910390a45050565b600062000b13838362000b81565b62000b4b5750815460018181018455600084815260208082209093018490558454848252828601909352604090209190915562000a75565b50600062000a75565b6000918252602082815260408084206001600160a01b0393909316845291905290205460ff1690565b3390565b60009081526001919091016020526040902054151590565b82805462000ba79062000dde565b90600052602060002090601f01602090048101928262000bcb576000855562000c16565b82601f1062000be657805160ff191683800117855562000c16565b8280016001018555821562000c16579182015b8281111562000c1657825182559160200191906001019062000bf9565b5062000c2492915062000c28565b5090565b5b8082111562000c24576000815560010162000c29565b80516001600160a01b038116811462000c5757600080fd5b919050565b8051801515811462000c5757600080fd5b600082601f83011262000c7e578081fd5b81516001600160401b038082111562000c9b5762000c9b62000e1b565b6040516020601f8401601f191682018101838111838210171562000cc35762000cc362000e1b565b604052838252858401810187101562000cda578485fd5b8492505b8383101562000cfd578583018101518284018201529182019162000cde565b8383111562000d0e57848185840101525b5095945050505050565b60006020828403121562000d2a578081fd5b62000a728262000c3f565b60006020828403121562000d47578081fd5b62000a728262000c5c565b6000806000806080858703121562000d68578283fd5b84516001600160401b038082111562000d7f578485fd5b62000d8d8883890162000c6d565b9550602087015191508082111562000da3578485fd5b5062000db28782880162000c6d565b93505062000dc36040860162000c5c565b915062000dd36060860162000c3f565b905092959194509250565b60028104600182168062000df357607f821691505b6020821081141562000e1557634e487b7160e01b600052602260045260246000fd5b50919050565b634e487b7160e01b600052604160045260246000fd5b6150a48062000e416000396000f3fe608060405234801561001057600080fd5b50600436106104805760003560e01c806363ebc67711610257578063bfb7dc9911610146578063e78c266c116100c3578063f1132b3011610087578063f1132b30146108a2578063f7d92d86146108aa578063f98447ac146108b2578063f98db253146108ba578063ff7e88ec146108cd57610480565b8063e78c266c14610864578063e985e9c51461086c578063e9a532301461087f578063ebf98abf14610887578063ee0b4c351461088f57610480565b8063cf4ece151161010a578063cf4ece1514610831578063d547741f14610839578063dadf56ac1461084c578063dea6f9c814610854578063e6217e3a1461085c57610480565b8063bfb7dc99146107da578063c04e17e3146107e2578063c87b56dd14610803578063ca15c87314610816578063cce843921461082957610480565b806387e9152d116101d4578063a217fddf11610198578063a217fddf1461079c578063a22cb465146107a4578063a32c5e59146107b7578063a78e746f146107bf578063b88d4fde146107c757610480565b806387e9152d1461075e5780639010d07c1461076657806391d148541461077957806395d89b411461078c5780639ac3eaa71461079457610480565b806373c898221161021b57806373c8982214610715578063762ddb59146107285780637651607814610730578063794ccf6c146107435780638456cb591461075657610480565b806363ebc677146106ca57806367a14f06146106ea5780636b584775146106f25780636c353e34146106fa57806370a082311461070257610480565b8063329a8cfa116103735780634d84c6d8116102f05780635c975abb116102b45780635c975abb146106975780635db531a11461069f5780635f413466146106a7578063610c3009146106af5780636352211e146106b757610480565b80634d84c6d81461064e5780634f6ccce71461065657806357f276ff1461066957806359e6f7871461067c5780635b5c251f1461068f57610480565b80633f86ea7c116103375780633f86ea7c1461061057806340005bb91461061857806342842e0e1461062057806342966c681461063357806349b5e1051461064657610480565b8063329a8cfa146105d257806336568abe146105da57806338a03563146105ed5780633ab76e9f146106005780633f4ba83a1461060857610480565b806321d670e91161040157806329e63f35116103c557806329e63f35146105895780632f2ff15d1461059c5780632f745c59146105af5780632fb56585146105c2578063326a55e0146105ca57610480565b806321d670e91461054b57806321d7f0081461055357806323b872dd1461055b5780632436329d1461056e578063248a9ca31461057657610480565b80630ad17f8f116104485780630ad17f8f1461050057806310a83fcb14610520578063130f63201461052857806317314d5a1461053b57806318160ddd1461054357610480565b806301ffc9a714610485578063024bebe9146104ae57806306fdde03146104c3578063081812fc146104d8578063095ea7b3146104eb575b600080fd5b6104986104933660046143fb565b6108d5565b6040516104a59190614612565b60405180910390f35b6104b66108e8565b6040516104a5919061451b565b6104cb6108f7565b6040516104a5919061464b565b6104b66104e636600461439e565b610989565b6104fe6104f936600461433b565b6109d5565b005b61051361050e36600461433b565b610a6d565b6040516104a5919061461d565b610513610a9e565b6104fe61053636600461439e565b610aa4565b6104fe610abb565b610513610ac6565b610513610acc565b6104b6610ad2565b6104fe6105693660046141f0565b610ae1565b610513610b6c565b61051361058436600461439e565b610b7e565b61049861059736600461439e565b610b93565b6104fe6105aa3660046143b6565b610c38565b6105136105bd36600461433b565b610c5a565b610498610caf565b6104fe610cbf565b6104fe610cd1565b6104fe6105e83660046143b6565b610db1565b6104986105fb366004614366565b610dd3565b6104b6610ec6565b6104fe610ed5565b6104b6610f3f565b610498610f4e565b6104fe61062e3660046141f0565b610f5c565b6104fe61064136600461439e565b610fe7565b6104fe611070565b6104fe610cc7565b61051361066436600461439e565b611078565b6104fe61067736600461439e565b6110d3565b61049861068a36600461433b565b6110dc565b6104b661110e565b61049861111d565b6104fe611126565b6104b661112e565b6104cb61113d565b6104b66106c536600461439e565b6111cb565b6106dd6106d8366004614180565b611200565b6040516104a591906145ce565b6104b661126c565b6104b661127b565b6104fe61128a565b610513610710366004614180565b6112b6565b6104b661072336600461439e565b6112fa565b6104b6611315565b61049861073e366004614366565b611324565b6105136107513660046142da565b6113fa565b6104fe611801565b61051361185b565b6104b66107743660046143da565b611861565b6104986107873660046143b6565b611880565b6104cb6118a9565b6104986118b8565b6105136118c1565b6104fe6107b23660046142ad565b6118c6565b610513611994565b6104986119a6565b6104fe6107d5366004614230565b6119b6565b6104b6611a48565b6107f56107f036600461439e565b611a57565b6040516104a59291906145aa565b6104cb61081136600461439e565b611b06565b61051361082436600461439e565b611b88565b610513611b9f565b610513611bb1565b6104fe6108473660046143b6565b611bc3565b6104b6611bcd565b6104cb611bdc565b6104b6611be9565b6104b6611bf8565b61049861087a3660046141b8565b611c07565b610513611c35565b610513611c47565b61049861089d36600461439e565b611c4d565b6104fe611cea565b6104fe611cf2565b6104b6611d7d565b6104cb6108c836600461439e565b611d8c565b610498611e27565b60006108e082611e56565b90505b919050565b600a546001600160a01b031681565b6060600f805461090690614ee9565b80601f016020809104026020016040519081016040528092919081815260200182805461093290614ee9565b801561097f5780601f106109545761010080835404028352916020019161097f565b820191906000526020600020905b81548152906001019060200180831161096257829003601f168201915b5050505050905090565b600061099482611e7b565b6109b95760405162461bcd60e51b81526004016109b090614b8b565b60405180910390fd5b506000908152601360205260409020546001600160a01b031690565b60006109e0826111cb565b9050806001600160a01b0316836001600160a01b03161415610a145760405162461bcd60e51b81526004016109b090614c6f565b806001600160a01b0316610a26611e98565b6001600160a01b03161480610a425750610a428161087a611e98565b610a5e5760405162461bcd60e51b81526004016109b090614a1b565b610a688383611e9c565b505050565b60246020528160005260406000208181548110610a8957600080fd5b90600052602060002001600091509150505481565b601b5481565b610aad81611f0a565b50610ab78161207f565b5050565b610ac3612202565b50565b60185490565b601c5481565b6003546001600160a01b031681565b610aeb33826110dc565b80610b095750610b0960008051602061502f83398151915233611880565b80610b275750610b27600080516020614fef83398151915233611880565b80610b455750610b45600080516020614fcf83398151915233611880565b610b615760405162461bcd60e51b81526004016109b090614951565b610a68838383612348565b600080516020614fcf83398151915281565b60009081526020819052604090206001015490565b6000610bad60008051602061502f83398151915233611880565b80610bcb5750610bcb600080516020614fef83398151915233611880565b80610be95750610be9600080516020614fcf83398151915233611880565b610c055760405162461bcd60e51b81526004016109b09061472d565b601b548210610c265760405162461bcd60e51b81526004016109b090614d36565b610c2f82612380565b50600192915050565b610c428282612388565b6000828152600160205260409020610a689082611e41565b6000610c65836112b6565b8210610c835760405162461bcd60e51b81526004016109b090614786565b506001600160a01b03821660009081526016602090815260408083208484529091529020545b92915050565b600e54600160b01b900460ff1681565b610cc76123ac565b610ccf612607565b565b610ce960008051602061502f83398151915233611880565b80610d075750610d07600080516020614fef83398151915233611880565b80610d255750610d25600080516020614fcf83398151915233611880565b610d415760405162461bcd60e51b81526004016109b09061472d565b600e60009054906101000a90046001600160a01b03166001600160a01b031663329a8cfa6040518163ffffffff1660e01b8152600401600060405180830381600087803b158015610d9157600080fd5b505af1158015610da5573d6000803e3d6000fd5b50505050610ccf611126565b610dbb8282612983565b6000828152600160205260409020610a6890826129c5565b6000610ded600080516020614fef83398151915233611880565b80610e0b5750610e0b600080516020614fcf83398151915233611880565b80610e295750610e2960008051602061502f83398151915233611880565b610e3257600080fd5b600e54600160b01b810460ff9081161515600160a81b9092041615151460011480610e705750610e7060008051602061502f83398151915233611880565b610e8c5760405162461bcd60e51b81526004016109b090614703565b60018215151415610ebe57610e9f6129da565b50610ea8612a0f565b50601f805460ff191660019081179091556108e3565b5060006108e3565b600e546001600160a01b031681565b610eed600080516020614fef83398151915233611880565b80610f0b5750610f0b60008051602061502f83398151915233611880565b610f275760405162461bcd60e51b81526004016109b090614dc6565b601f5460ff1615610f3757600080fd5b610ccf612a81565b6007546001600160a01b031681565b601f54610100900460ff1681565b610f6633826110dc565b80610f845750610f8460008051602061502f83398151915233611880565b80610fa25750610fa2600080516020614fef83398151915233611880565b80610fc05750610fc0600080516020614fcf83398151915233611880565b610fdc5760405162461bcd60e51b81526004016109b090614951565b610a68838383612ad8565b610fff60008051602061502f83398151915233611880565b8061101d575061101d600080516020614fef83398151915233611880565b8061103b575061103b600080516020614fcf83398151915233611880565b8061104b575061104b33826110dc565b6110675760405162461bcd60e51b81526004016109b09061475d565b610ac381612af3565b610ccf6123ac565b6000611082610ac6565b82106110a05760405162461bcd60e51b81526004016109b090614d7a565b601882815481106110c157634e487b7160e01b600052603260045260246000fd5b90600052602060002001549050919050565b610ab781612b9a565b6000818152602360205260408120546001600160a01b038481169116141561110657506001610ca9565b506000610ca9565b600b546001600160a01b031681565b60155460ff1690565b610ccf612dd0565b600c546001600160a01b031681565b6021805461114a90614ee9565b80601f016020809104026020016040519081016040528092919081815260200182805461117690614ee9565b80156111c35780601f10611198576101008083540402835291602001916111c3565b820191906000526020600020905b8154815290600101906020018083116111a657829003601f168201915b505050505081565b6000818152601160205260408120546001600160a01b0316806108e05760405162461bcd60e51b81526004016109b090614ac2565b6001600160a01b03811660009081526024602090815260409182902080548351818402810184019094528084526060939283018282801561126057602002820191906000526020600020905b81548152602001906001019080831161124c575b50505050509050919050565b6022546001600160a01b031681565b6008546001600160a01b031681565b611292612607565b600454602280546001600160a01b0319166001600160a01b03909216919091179055565b60006001600160a01b0382166112de5760405162461bcd60e51b81526004016109b090614a78565b506001600160a01b031660009081526012602052604090205490565b6000908152602360205260409020546001600160a01b031690565b6004546001600160a01b031681565b600061133e600080516020614fef83398151915233611880565b8061135c575061135c600080516020614fcf83398151915233611880565b8061137a575061137a60008051602061502f83398151915233611880565b61138357600080fd5b600e54600160b01b810460ff9081161515600160a81b90920416151514600114806113c157506113c160008051602061502f83398151915233611880565b6113dd5760405162461bcd60e51b81526004016109b090614703565b60018215151415610ebe576113f06129da565b50600190506108e3565b60008261140633612f0c565b50601f5460009060ff6101009091041615156001141561160e576000601d54601a546114329190614e5c565b905080601c546114429190614e70565b6022546040516370a0823160e01b81526001600160a01b03909116906370a082319061147290309060040161451b565b60206040518083038186803b15801561148a57600080fd5b505afa15801561149e573d6000803e3d6000fd5b505050506040513d601f19601f820116820180604052508101906114c29190614433565b6114cc9190614e44565b602254601c549193506001600160a01b0316906323b872dd90339030906114f4908690614e70565b6040518463ffffffff1660e01b815260040161151293929190614549565b602060405180830381600087803b15801561152c57600080fd5b505af1158015611540573d6000803e3d6000fd5b505050506040513d601f19601f820116820180604052508101906115649190614382565b50602254601c54601d546001600160a01b03909216916323b872dd913391879161158d91614e8f565b6115979086614e70565b6040518463ffffffff1660e01b81526004016115b593929190614549565b602060405180830381600087803b1580156115cf57600080fd5b505af11580156115e3573d6000803e3d6000fd5b505050506040513d601f19601f820116820180604052508101906116079190614382565b5050611727565b601a546022546040516370a0823160e01b81526001600160a01b03909116906370a082319061164190309060040161451b565b60206040518083038186803b15801561165957600080fd5b505afa15801561166d573d6000803e3d6000fd5b505050506040513d601f19601f820116820180604052508101906116919190614433565b61169b9190614e44565b602254601a546040516323b872dd60e01b81529293506001600160a01b03909116916323b872dd916116d39133913091600401614549565b602060405180830381600087803b1580156116ed57600080fd5b505af1158015611701573d6000803e3d6000fd5b505050506040513d601f19601f820116820180604052508101906117259190614382565b505b6022546040516370a0823160e01b815282916001600160a01b0316906370a082319061175790309060040161451b565b60206040518083038186803b15801561176f57600080fd5b505afa158015611783573d6000803e3d6000fd5b505050506040513d601f19601f820116820180604052508101906117a79190614433565b146117c45760405162461bcd60e51b81526004016109b09061485a565b601e5492506117d433858561305a565b6117e085601e546130c9565b6001601e60008282546117f39190614e44565b909155509295945050505050565b611819600080516020614fef83398151915233611880565b80611837575061183760008051602061502f83398151915233611880565b6118535760405162461bcd60e51b81526004016109b090614dc6565b610ccf612a0f565b601d5481565b600082815260016020526040812061187990836130e3565b9392505050565b6000918252602082815260408084206001600160a01b0393909316845291905290205460ff1690565b60606010805461090690614ee9565b601f5460ff1681565b600081565b6118ce611e98565b6001600160a01b0316826001600160a01b031614156118ff5760405162461bcd60e51b81526004016109b0906148ce565b806014600061190c611e98565b6001600160a01b03908116825260208083019390935260409182016000908120918716808252919093529120805460ff191692151592909217909155611950611e98565b6001600160a01b03167f17307eab39ab6107e8899845ad3d59bd9653f200f220920489ca2b5937696c31836040516119889190614612565b60405180910390a35050565b60008051602061502f83398151915281565b600e54600160a01b900460ff1681565b6119c033836110dc565b806119de57506119de60008051602061502f83398151915233611880565b806119fc57506119fc600080516020614fef83398151915233611880565b80611a1a5750611a1a600080516020614fcf83398151915233611880565b611a365760405162461bcd60e51b81526004016109b090614951565b611a42848484846130ef565b50505050565b6005546001600160a01b031681565b602360205260009081526040902080546001820180546001600160a01b039092169291611a8390614ee9565b80601f0160208091040260200160405190810160405280929190818152602001828054611aaf90614ee9565b8015611afc5780601f10611ad157610100808354040283529160200191611afc565b820191906000526020600020905b815481529060010190602001808311611adf57829003601f168201915b5050505050905082565b6060611b1182611e7b565b611b2d5760405162461bcd60e51b81526004016109b090614c20565b6000611b37613128565b90506000815111611b575760405180602001604052806000815250611879565b80611b618461313a565b604051602001611b72929190614477565b6040516020818303038152906040529392505050565b60008181526001602052604081206108e09061325d565b60008051602061504f83398151915281565b60008051602061500f83398151915281565b610dbb8282613268565b6009546001600160a01b031681565b6020805461114a90614ee9565b600d546001600160a01b031681565b6002546001600160a01b031681565b6001600160a01b03918216600090815260146020908152604080832093909416825291909152205460ff1690565b600080516020614fef83398151915281565b601a5481565b6000611c6760008051602061502f83398151915233611880565b80611c855750611c85600080516020614fef83398151915233611880565b80611ca35750611ca3600080516020614fcf83398151915233611880565b611cbf5760405162461bcd60e51b81526004016109b09061472d565b601b54821015611ce15760405162461bcd60e51b81526004016109b090614b0b565b610c2f82613287565b610ccf61328f565b611d0960008051602061502f833981519152612b9a565b50611d21600080516020614fef833981519152612b9a565b50611d39600080516020614fcf833981519152612b9a565b50611d5160008051602061500f833981519152612b9a565b50611d6960008051602061504f833981519152612b9a565b50611d746000612b9a565b50610ccf612dd0565b6006546001600160a01b031681565b6000818152602360205260409020600101805460609190611dac90614ee9565b80601f0160208091040260200160405190810160405280929190818152602001828054611dd890614ee9565b80156112605780601f10611dfa57610100808354040283529160200191611260565b820191906000526020600020905b815481529060010190602001808311611e085750939695505050505050565b600e54600160a81b900460ff1681565b610ab782826133c6565b6000611879836001600160a01b03841661344b565b60006001600160e01b0319821663780e9d6360e01b14806108e057506108e08261348d565b6000908152601160205260409020546001600160a01b0316151590565b3390565b600081815260136020526040902080546001600160a01b0319166001600160a01b0384169081179091558190611ed1826111cb565b6001600160a01b03167f8c5be1e5ebec7d5bd14f71427d1e84f3dd0314c0f7b2291e5b200ac8c7c3b92560405160405180910390a45050565b60405163ca15c87360e01b81526000908190309063ca15c87390611f3290869060040161461d565b60206040518083038186803b158015611f4a57600080fd5b505afa158015611f5e573d6000803e3d6000fd5b505050506040513d601f19601f82011682018060405250810190611f829190614433565b905060005b8181101561207557604051632404341f60e21b81526000903090639010d07c90611fb7908890869060040161463d565b60206040518083038186803b158015611fcf57600080fd5b505afa158015611fe3573d6000803e3d6000fd5b505050506040513d601f19601f82011682018060405250810190612007919061419c565b60405163d547741f60e01b8152909150309063d547741f9061202f9088908590600401614626565b600060405180830381600087803b15801561204957600080fd5b505af115801561205d573d6000803e3d6000fd5b5050505050808061206d90614f24565b915050611f87565b5060019392505050565b600e5460405163ca15c87360e01b815260009182916001600160a01b039091169063ca15c873906120b490869060040161461d565b60206040518083038186803b1580156120cc57600080fd5b505afa1580156120e0573d6000803e3d6000fd5b505050506040513d601f19601f820116820180604052508101906121049190614433565b905060005b8181101561207557600e54604051632404341f60e21b81526000916001600160a01b031690639010d07c90612144908890869060040161463d565b60206040518083038186803b15801561215c57600080fd5b505afa158015612170573d6000803e3d6000fd5b505050506040513d601f19601f82011682018060405250810190612194919061419c565b604051632f2ff15d60e01b81529091503090632f2ff15d906121bc9088908590600401614626565b600060405180830381600087803b1580156121d657600080fd5b505af11580156121ea573d6000803e3d6000fd5b505050505080806121fa90614f24565b915050612109565b600061221b60008051602061502f833981519152611f0a565b5061223360008051602061502f83398151915261207f565b61223c57600080fd5b612253600080516020614fef833981519152611f0a565b5061226b600080516020614fef83398151915261207f565b61227457600080fd5b61228b600080516020614fcf833981519152611f0a565b506122a3600080516020614fcf83398151915261207f565b6122ac57600080fd5b6122c360008051602061500f833981519152611f0a565b506122db60008051602061500f83398151915261207f565b6122e457600080fd5b6122fb60008051602061504f833981519152611f0a565b5061231360008051602061504f83398151915261207f565b61231c57600080fd5b6123266000611f0a565b50612331600061207f565b61233a57600080fd5b612342612dd0565b50600190565b612359612353611e98565b826134cd565b6123755760405162461bcd60e51b81526004016109b090614ce5565b610a6883838361354a565b601b55600190565b61239182610b7e565b6123a28161239d611e98565b613677565b610a6883836133c6565b600e60009054906101000a90046001600160a01b03166001600160a01b031663dadf56ac6040518163ffffffff1660e01b815260040160206040518083038186803b1580156123fa57600080fd5b505afa15801561240e573d6000803e3d6000fd5b505050506040513d601f19601f82011682018060405250810190612432919061419c565b600980546001600160a01b0319166001600160a01b03928316179055600e546040805163024bebe960e01b81529051919092169163024bebe9916004808301926020929190829003018186803b15801561248b57600080fd5b505afa15801561249f573d6000803e3d6000fd5b505050506040513d601f19601f820116820180604052508101906124c3919061419c565b600a80546001600160a01b0319166001600160a01b03928316179055600e5460408051635b5c251f60e01b815290519190921691635b5c251f916004808301926020929190829003018186803b15801561251c57600080fd5b505afa158015612530573d6000803e3d6000fd5b505050506040513d601f19601f82011682018060405250810190612554919061419c565b600b80546001600160a01b0319166001600160a01b03928316179055600e5460408051637310bf1d60e11b81529051919092169163e6217e3a916004808301926020929190829003018186803b1580156125ad57600080fd5b505afa1580156125c1573d6000803e3d6000fd5b505050506040513d601f19601f820116820180604052508101906125e5919061419c565b600d80546001600160a01b0319166001600160a01b0392909216919091179055565b600e60009054906101000a90046001600160a01b03166001600160a01b03166321d7f0086040518163ffffffff1660e01b815260040160206040518083038186803b15801561265557600080fd5b505afa158015612669573d6000803e3d6000fd5b505050506040513d601f19601f8201168201806040525081019061268d919061419c565b600380546001600160a01b0319166001600160a01b03928316179055600e546040805163762ddb5960e01b81529051919092169163762ddb59916004808301926020929190829003018186803b1580156126e657600080fd5b505afa1580156126fa573d6000803e3d6000fd5b505050506040513d601f19601f8201168201806040525081019061271e919061419c565b600480546001600160a01b0319166001600160a01b03928316178155600e546040805163bfb7dc9960e01b81529051919093169263bfb7dc999281810192602092909190829003018186803b15801561277657600080fd5b505afa15801561278a573d6000803e3d6000fd5b505050506040513d601f19601f820116820180604052508101906127ae919061419c565b600580546001600160a01b0319166001600160a01b03928316179055600e5460408051633e6111eb60e21b81529051919092169163f98447ac916004808301926020929190829003018186803b15801561280757600080fd5b505afa15801561281b573d6000803e3d6000fd5b505050506040513d601f19601f8201168201806040525081019061283f919061419c565b600680546001600160a01b0319166001600160a01b03928316179055600e5460408051630fe1ba9f60e21b815290519190921691633f86ea7c916004808301926020929190829003018186803b15801561289857600080fd5b505afa1580156128ac573d6000803e3d6000fd5b505050506040513d601f19601f820116820180604052508101906128d0919061419c565b600780546001600160a01b0319166001600160a01b03928316179055600e5460408051636b58477560e01b815290519190921691636b584775916004808301926020929190829003018186803b15801561292957600080fd5b505afa15801561293d573d6000803e3d6000fd5b505050506040513d601f19601f82011682018060405250810190612961919061419c565b600880546001600160a01b0319166001600160a01b0392909216919091179055565b61298b611e98565b6001600160a01b0316816001600160a01b0316146129bb5760405162461bcd60e51b81526004016109b090614df5565b610ab782826136db565b6000611879836001600160a01b03841661375e565b6000805b601e54811015612a03576129f181612af3565b806129fb81614f24565b9150506129de565b50506000601e55600190565b612a1761111d565b15612a345760405162461bcd60e51b81526004016109b0906149c8565b6015805460ff191660011790557f62e78cea01bee320cd4e420270b5ea74000d11b0c9f74754ebdbfc544b05a258612a6a611e98565b604051612a77919061451b565b60405180910390a1565b612a8961111d565b612aa55760405162461bcd60e51b81526004016109b0906146d5565b6015805460ff191690557f5db9ee0a495bf2e6ff9c91a7834c1ba4fdd244a5e8aa4e537bd38aeae4b073aa612a6a611e98565b610a68838383604051806020016040528060008152506119b6565b6000612afe826111cb565b9050612b0c81600084613875565b612b17600083611e9c565b6001600160a01b0381166000908152601260205260408120805460019290612b40908490614e8f565b909155505060008281526011602052604080822080546001600160a01b0319169055518391906001600160a01b038416907fddf252ad1be2c89b69c2b068fc378daa952ba7f163c4a11628f55a4df523b3ef908390a45050565b600e5460405163ca15c87360e01b815260009182916001600160a01b039091169063ca15c87390612bcf90869060040161461d565b60206040518083038186803b158015612be757600080fd5b505afa158015612bfb573d6000803e3d6000fd5b505050506040513d601f19601f82011682018060405250810190612c1f9190614433565b60405163ca15c87360e01b8152909150600090309063ca15c87390612c4890879060040161461d565b60206040518083038186803b158015612c6057600080fd5b505afa158015612c74573d6000803e3d6000fd5b505050506040513d601f19601f82011682018060405250810190612c989190614433565b90506000612ca68284614e8f565b905060008111612cc85760405162461bcd60e51b81526004016109b09061499e565b60005b81811015612dc457600e54604051632404341f60e21b81526000916001600160a01b031690639010d07c90612d06908a90869060040161463d565b60206040518083038186803b158015612d1e57600080fd5b505afa158015612d32573d6000803e3d6000fd5b505050506040513d601f19601f82011682018060405250810190612d56919061419c565b604051632f2ff15d60e01b81529091503090632f2ff15d90612d7e908a908590600401614626565b600060405180830381600087803b158015612d9857600080fd5b505af1158015612dac573d6000803e3d6000fd5b50505050508080612dbc90614f24565b915050612ccb565b50600195945050505050565b600e60009054906101000a90046001600160a01b03166001600160a01b031663ff7e88ec6040518163ffffffff1660e01b815260040160206040518083038186803b158015612e1e57600080fd5b505afa158015612e32573d6000803e3d6000fd5b505050506040513d601f19601f82011682018060405250810190612e569190614382565b600e8054911515600160a81b0260ff60a81b19909216919091179081905560408051632fb5658560e01b815290516001600160a01b0390921691632fb5658591600480820192602092909190829003018186803b158015612eb657600080fd5b505afa158015612eca573d6000803e3d6000fd5b505050506040513d601f19601f82011682018060405250810190612eee9190614382565b600e8054911515600160b01b0260ff60b01b19909216919091179055565b601a54602254604051636eb1769f60e11b8152600092916001600160a01b03169063dd62ed3e90612f43908690309060040161452f565b60206040518083038186803b158015612f5b57600080fd5b505afa158015612f6f573d6000803e3d6000fd5b505050506040513d601f19601f82011682018060405250810190612f939190614433565b1015612fb15760405162461bcd60e51b81526004016109b0906149f2565b601a546022546040516370a0823160e01b81526001600160a01b03909116906370a0823190612fe490869060040161451b565b60206040518083038186803b158015612ffc57600080fd5b505afa158015613010573d6000803e3d6000fd5b505050506040513d601f19601f820116820180604052508101906130349190614433565b10156130525760405162461bcd60e51b81526004016109b090614cb0565b506001919050565b600081815260236020908152604090912080546001600160a01b0319166001600160a01b038616178155835161309892600190920191850190614077565b506001600160a01b039092166000908152602460209081526040822080546001810182559083529120019190915550565b610ab7828260405180602001604052806000815250613900565b60006118798383613933565b6131006130fa611e98565b836134cd565b61311c5760405162461bcd60e51b81526004016109b090614ce5565b611a428484848461398c565b60408051602081019091526000815290565b60608161315f57506040805180820190915260018152600360fc1b60208201526108e3565b8160005b8115613189578061317381614f24565b91506131829050600a83614e5c565b9150613163565b60008167ffffffffffffffff8111156131b257634e487b7160e01b600052604160045260246000fd5b6040519080825280601f01601f1916602001820160405280156131dc576020820181803683370190505b5090505b8415613255576131f1600183614e8f565b91506131fe600a86614f3f565b613209906030614e44565b60f81b81838151811061322c57634e487b7160e01b600052603260045260246000fd5b60200101906001600160f81b031916908160001a90535061324e600a86614e5c565b94506131e0565b949350505050565b60006108e0826139bf565b61327182610b7e565b61327d8161239d611e98565b610a6883836136db565b601a55600190565b600e60009054906101000a90046001600160a01b03166001600160a01b031663a44b93256040518163ffffffff1660e01b815260040160206040518083038186803b1580156132dd57600080fd5b505afa1580156132f1573d6000803e3d6000fd5b505050506040513d601f19601f820116820180604052508101906133159190614382565b61331e57600080fd5b600e60009054906101000a90046001600160a01b03166001600160a01b031663ac7cfac36040518163ffffffff1660e01b815260040160206040518083038186803b15801561336c57600080fd5b505afa158015613380573d6000803e3d6000fd5b505050506040513d601f19601f820116820180604052508101906133a4919061419c565b600280546001600160a01b0319166001600160a01b0392909216919091179055565b6133d08282611880565b610ab7576000828152602081815260408083206001600160a01b03851684529091529020805460ff19166001179055613407611e98565b6001600160a01b0316816001600160a01b0316837f2f8788117e7eff1d82e926ec794901d17c78024a50270940304540a733656f0d60405160405180910390a45050565b600061345783836139c3565b61110657508154600181810184556000848152602080822090930184905584548482528286019093526040902091909155610ca9565b60006001600160e01b031982166380ac58cd60e01b14806134be57506001600160e01b03198216635b5e139f60e01b145b806108e057506108e0826139db565b60006134d882611e7b565b6134f45760405162461bcd60e51b81526004016109b090614905565b60006134ff836111cb565b9050806001600160a01b0316846001600160a01b0316148061353a5750836001600160a01b031661352f84610989565b6001600160a01b0316145b8061325557506132558185611c07565b826001600160a01b031661355d826111cb565b6001600160a01b0316146135835760405162461bcd60e51b81526004016109b090614bd7565b6001600160a01b0382166135a95760405162461bcd60e51b81526004016109b09061488a565b6135b4838383613875565b6135bf600082611e9c565b6001600160a01b03831660009081526012602052604081208054600192906135e8908490614e8f565b90915550506001600160a01b0382166000908152601260205260408120805460019290613616908490614e44565b909155505060008181526011602052604080822080546001600160a01b0319166001600160a01b0386811691821790925591518493918716917fddf252ad1be2c89b69c2b068fc378daa952ba7f163c4a11628f55a4df523b3ef91a4505050565b6136818282611880565b610ab757613699816001600160a01b03166014613a00565b6136a4836020613a00565b6040516020016136b59291906144a6565b60408051601f198184030181529082905262461bcd60e51b82526109b09160040161464b565b6136e58282611880565b15610ab7576000828152602081815260408083206001600160a01b03851684529091529020805460ff1916905561371a611e98565b6001600160a01b0316816001600160a01b0316837ff6391f5c32d9c69d2a47ea670b442974b53935d1edc7fd64eb21e047a839171b60405160405180910390a45050565b6000818152600183016020526040812054801561386b576000613782600183614e8f565b855490915060009061379690600190614e8f565b905060008660000182815481106137bd57634e487b7160e01b600052603260045260246000fd5b90600052602060002001549050808760000184815481106137ee57634e487b7160e01b600052603260045260246000fd5b60009182526020808320909101929092558281526001890190915260409020849055865487908061382f57634e487b7160e01b600052603160045260246000fd5b60019003818190600052602060002001600090559055866001016000878152602001908152602001600020600090556001945050505050610ca9565b6000915050610ca9565b61387f33826110dc565b8061389d575061389d60008051602061502f83398151915233611880565b806138bb57506138bb600080516020614fef83398151915233611880565b806138d957506138d9600080516020614fcf83398151915233611880565b6138f55760405162461bcd60e51b81526004016109b090614951565b610a68838383613bb2565b61390a8383613c3b565b6139176000848484613d1a565b610a685760405162461bcd60e51b81526004016109b0906147d1565b815460009082106139565760405162461bcd60e51b81526004016109b09061465e565b82600001828154811061397957634e487b7160e01b600052603260045260246000fd5b9060005260206000200154905092915050565b61399784848461354a565b6139a384848484613d1a565b611a425760405162461bcd60e51b81526004016109b0906147d1565b5490565b60009081526001919091016020526040902054151590565b60006001600160e01b03198216635a05180f60e01b14806108e057506108e082613e35565b60606000613a0f836002614e70565b613a1a906002614e44565b67ffffffffffffffff811115613a4057634e487b7160e01b600052604160045260246000fd5b6040519080825280601f01601f191660200182016040528015613a6a576020820181803683370190505b509050600360fc1b81600081518110613a9357634e487b7160e01b600052603260045260246000fd5b60200101906001600160f81b031916908160001a905350600f60fb1b81600181518110613ad057634e487b7160e01b600052603260045260246000fd5b60200101906001600160f81b031916908160001a9053506000613af4846002614e70565b613aff906001614e44565b90505b6001811115613b93576f181899199a1a9b1b9c1cb0b131b232b360811b85600f1660108110613b4157634e487b7160e01b600052603260045260246000fd5b1a60f81b828281518110613b6557634e487b7160e01b600052603260045260246000fd5b60200101906001600160f81b031916908160001a90535060049490941c93613b8c81614ed2565b9050613b02565b5083156118795760405162461bcd60e51b81526004016109b0906146a0565b613bbd838383610a68565b6001600160a01b038316613bd957613bd481613e5a565b613bfc565b816001600160a01b0316836001600160a01b031614613bfc57613bfc8382613e9e565b6001600160a01b038216613c1857613c1381613f3b565b610a68565b826001600160a01b0316826001600160a01b031614610a6857610a688282614014565b6001600160a01b038216613c615760405162461bcd60e51b81526004016109b090614b56565b613c6a81611e7b565b15613c875760405162461bcd60e51b81526004016109b090614823565b613c9360008383613875565b6001600160a01b0382166000908152601260205260408120805460019290613cbc908490614e44565b909155505060008181526011602052604080822080546001600160a01b0319166001600160a01b03861690811790915590518392907fddf252ad1be2c89b69c2b068fc378daa952ba7f163c4a11628f55a4df523b3ef908290a45050565b6000613d2e846001600160a01b0316614058565b15613e2a57836001600160a01b031663150b7a02613d4a611e98565b8786866040518563ffffffff1660e01b8152600401613d6c949392919061456d565b602060405180830381600087803b158015613d8657600080fd5b505af1925050508015613db6575060408051601f3d908101601f19168201909252613db391810190614417565b60015b613e10573d808015613de4576040519150601f19603f3d011682016040523d82523d6000602084013e613de9565b606091505b508051613e085760405162461bcd60e51b81526004016109b0906147d1565b805181602001fd5b6001600160e01b031916630a85bd0160e11b149050613255565b506001949350505050565b60006001600160e01b03198216637965db0b60e01b14806108e057506108e08261405e565b601880546000838152601960205260408120829055600182018355919091527fb13d2d76d1f4b7be834882e410b3e3a8afaf69f83600ae24db354391d2378d2e0155565b60006001613eab846112b6565b613eb59190614e8f565b600083815260176020526040902054909150808214613f08576001600160a01b03841660009081526016602090815260408083208584528252808320548484528184208190558352601790915290208190555b5060009182526017602090815260408084208490556001600160a01b039094168352601681528383209183525290812055565b601854600090613f4d90600190614e8f565b60008381526019602052604081205460188054939450909284908110613f8357634e487b7160e01b600052603260045260246000fd5b906000526020600020015490508060188381548110613fb257634e487b7160e01b600052603260045260246000fd5b6000918252602080832090910192909255828152601990915260408082208490558582528120556018805480613ff857634e487b7160e01b600052603160045260246000fd5b6001900381819060005260206000200160009055905550505050565b600061401f836112b6565b6001600160a01b039093166000908152601660209081526040808320868452825280832085905593825260179052919091209190915550565b3b151590565b6001600160e01b031981166301ffc9a760e01b14919050565b82805461408390614ee9565b90600052602060002090601f0160209004810192826140a557600085556140eb565b82601f106140be57805160ff19168380011785556140eb565b828001600101855582156140eb579182015b828111156140eb5782518255916020019190600101906140d0565b506140f79291506140fb565b5090565b5b808211156140f757600081556001016140fc565b600067ffffffffffffffff8084111561412b5761412b614f7f565b604051601f8501601f19168101602001828111828210171561414f5761414f614f7f565b60405284815291508183850186101561416757600080fd5b8484602083013760006020868301015250509392505050565b600060208284031215614191578081fd5b813561187981614f95565b6000602082840312156141ad578081fd5b815161187981614f95565b600080604083850312156141ca578081fd5b82356141d581614f95565b915060208301356141e581614f95565b809150509250929050565b600080600060608486031215614204578081fd5b833561420f81614f95565b9250602084013561421f81614f95565b929592945050506040919091013590565b60008060008060808587031215614245578081fd5b843561425081614f95565b9350602085013561426081614f95565b925060408501359150606085013567ffffffffffffffff811115614282578182fd5b8501601f81018713614292578182fd5b6142a187823560208401614110565b91505092959194509250565b600080604083850312156142bf578182fd5b82356142ca81614f95565b915060208301356141e581614faa565b600080604083850312156142ec578182fd5b82356142f781614f95565b9150602083013567ffffffffffffffff811115614312578182fd5b8301601f81018513614322578182fd5b61433185823560208401614110565b9150509250929050565b6000806040838503121561434d578182fd5b823561435881614f95565b946020939093013593505050565b600060208284031215614377578081fd5b813561187981614faa565b600060208284031215614393578081fd5b815161187981614faa565b6000602082840312156143af578081fd5b5035919050565b600080604083850312156143c8578182fd5b8235915060208301356141e581614f95565b600080604083850312156143ec578182fd5b50508035926020909101359150565b60006020828403121561440c578081fd5b813561187981614fb8565b600060208284031215614428578081fd5b815161187981614fb8565b600060208284031215614444578081fd5b5051919050565b60008151808452614463816020860160208601614ea6565b601f01601f19169290920160200192915050565b60008351614489818460208801614ea6565b83519083019061449d818360208801614ea6565b01949350505050565b60007f416363657373436f6e74726f6c3a206163636f756e7420000000000000000000825283516144de816017850160208801614ea6565b7001034b99036b4b9b9b4b733903937b6329607d1b601791840191820152835161450f816028840160208801614ea6565b01602801949350505050565b6001600160a01b0391909116815260200190565b6001600160a01b0392831681529116602082015260400190565b6001600160a01b039384168152919092166020820152604081019190915260600190565b6001600160a01b03858116825284166020820152604081018390526080606082018190526000906145a09083018461444b565b9695505050505050565b6001600160a01b03831681526040602082018190526000906132559083018461444b565b6020808252825182820181905260009190848201906040850190845b81811015614606578351835292840192918401916001016145ea565b50909695505050505050565b901515815260200190565b90815260200190565b9182526001600160a01b0316602082015260400190565b918252602082015260400190565b600060208252611879602083018461444b565b60208082526022908201527f456e756d657261626c655365743a20696e646578206f7574206f6620626f756e604082015261647360f01b606082015260800190565b6020808252818101527f537472696e67733a20686578206c656e67746820696e73756666696369656e74604082015260600190565b60208082526014908201527314185d5cd8589b194e881b9bdd081c185d5cd95960621b604082015260600190565b60208082526010908201526f436f757274204d75737420416772656560801b604082015260600190565b6020808252601690820152752cb7ba93b932903737ba103a3432903130b4b634b33360511b604082015260600190565b6020808252600f908201526e4e696365205472792c204275636b6f60881b604082015260600190565b6020808252602b908201527f455243373231456e756d657261626c653a206f776e657220696e646578206f7560408201526a74206f6620626f756e647360a81b606082015260800190565b60208082526032908201527f4552433732313a207472616e7366657220746f206e6f6e20455243373231526560408201527131b2b4bb32b91034b6b83632b6b2b73a32b960711b606082015260800190565b6020808252601c908201527f4552433732313a20746f6b656e20616c7265616479206d696e74656400000000604082015260600190565b602080825260169082015275115c9c9bdc88151c985b9cd9995c9a5b99c80854915160521b604082015260600190565b60208082526024908201527f4552433732313a207472616e7366657220746f20746865207a65726f206164646040820152637265737360e01b606082015260800190565b60208082526019908201527f4552433732313a20617070726f766520746f2063616c6c657200000000000000604082015260600190565b6020808252602c908201527f4552433732313a206f70657261746f7220717565727920666f72206e6f6e657860408201526b34b9ba32b73a103a37b5b2b760a11b606082015260800190565b6020808252602d908201527f596f7520646f206e6f742068617665207065726d697373696f6e20746f206d6f60408201526c7665207468697320626164676560981b606082015260800190565b60208082526010908201526f4e6f7468696e6720746f2073796e632160801b604082015260600190565b60208082526010908201526f14185d5cd8589b194e881c185d5cd95960821b604082015260600190565b6020808252600f908201526e135d5cdd08105b1b1bddc808549151608a1b604082015260600190565b60208082526038908201527f4552433732313a20617070726f76652063616c6c6572206973206e6f74206f7760408201527f6e6572206e6f7220617070726f76656420666f7220616c6c0000000000000000606082015260800190565b6020808252602a908201527f4552433732313a2062616c616e636520717565727920666f7220746865207a65604082015269726f206164647265737360b01b606082015260800190565b60208082526029908201527f4552433732313a206f776e657220717565727920666f72206e6f6e657869737460408201526832b73a103a37b5b2b760b91b606082015260800190565b6020808252602b908201527f536f7272792120436f7374206d7573742062652067726561746572207468616e60408201526a10181718902932b22832b760a91b606082015260800190565b6020808252818101527f4552433732313a206d696e7420746f20746865207a65726f2061646472657373604082015260600190565b6020808252602c908201527f4552433732313a20617070726f76656420717565727920666f72206e6f6e657860408201526b34b9ba32b73a103a37b5b2b760a11b606082015260800190565b60208082526029908201527f4552433732313a207472616e73666572206f6620746f6b656e2074686174206960408201526839903737ba1037bbb760b91b606082015260800190565b6020808252602f908201527f4552433732314d657461646174613a2055524920717565727920666f72206e6f60408201526e3732bc34b9ba32b73a103a37b5b2b760891b606082015260800190565b60208082526021908201527f4552433732313a20617070726f76616c20746f2063757272656e74206f776e656040820152603960f91b606082015260800190565b6020808252818101527f57616c6c657420646f6573206e6f74206861766520656e6f7567682021524544604082015260600190565b60208082526031908201527f4552433732313a207472616e736665722063616c6c6572206973206e6f74206f6040820152701ddb995c881b9bdc88185c1c1c9bdd9959607a1b606082015260800190565b60208082526024908201527f536f7272792120596f752063616e206f6e6c79206c6f7765722074686520666c6040820152636f6f722160e01b606082015260800190565b6020808252602c908201527f455243373231456e756d657261626c653a20676c6f62616c20696e646578206f60408201526b7574206f6620626f756e647360a01b606082015260800190565b602080825260159082015274596f75277265206e6f742074686520476176656c7360581b604082015260600190565b6020808252602f908201527f416363657373436f6e74726f6c3a2063616e206f6e6c792072656e6f756e636560408201526e103937b632b9903337b91039b2b63360891b606082015260800190565b60008219821115614e5757614e57614f53565b500190565b600082614e6b57614e6b614f69565b500490565b6000816000190483118215151615614e8a57614e8a614f53565b500290565b600082821015614ea157614ea1614f53565b500390565b60005b83811015614ec1578181015183820152602001614ea9565b83811115611a425750506000910152565b600081614ee157614ee1614f53565b506000190190565b600281046001821680614efd57607f821691505b60208210811415614f1e57634e487b7160e01b600052602260045260246000fd5b50919050565b6000600019821415614f3857614f38614f53565b5060010190565b600082614f4e57614f4e614f69565b500690565b634e487b7160e01b600052601160045260246000fd5b634e487b7160e01b600052601260045260246000fd5b634e487b7160e01b600052604160045260246000fd5b6001600160a01b0381168114610ac357600080fd5b8015158114610ac357600080fd5b6001600160e01b031981168114610ac357600080fdfefa8e4989e1d689f7bc5c4b25b87efb51fecdecb19ba62847e29c759e12a89acd048bc71fa1cb2c119c339cf9cf00a97996a19a9d991ce5fe049f2fa5459e7990f0f4b159a6e2a4815eb3ca3df080bfa70c9270662c59bcaa4479a456220183e60538d24a8b7882d7b2e36af243d4af61c23e86e3daa6cb8c887b53220b2f57207c9d7f6f02908185bffb3f7fc9afb29fd7bf93675af8fd4b655ee05c2cee1e0ea264697066735822122001538eef1cd91991a19eb86ac6b8b1f7ac925e7062e0210b77aacadf5af76a4f64736f6c63430008000033",
  "immutableReferences": {},
  "source": "pragma solidity ^0.8.0;\n\nimport \"./SmartConsensusMachine.sol\";\nimport \"./AddressManagerReciever.sol\";\n\nimport \"@openzeppelin/contracts/token/ERC20/ERC20.sol\";\nimport \"@openzeppelin/contracts/token/ERC721/extensions/ERC721Enumerable.sol\";\nimport \"@openzeppelin/contracts/token/ERC721/ERC721.sol\";\nimport \"@openzeppelin/contracts/security/Pausable.sol\";\nimport \"@openzeppelin/contracts/token/ERC721/extensions/ERC721Burnable.sol\";\n\ncontract GenericBadge is SmartConsensusMachine, ERC721, Pausable, ERC721Burnable, ERC721Enumerable {\n    \n    // Set Default Minting Costs to 9 Red Pens.\n    uint256 public mintingCost = 3 * 10 ** 18;\n\n    // Set Default Minting Cost Floor to 3 Red Pens\n    uint256 public mintingCostFloor = 1 * 10 ** 17;\n\n    uint256 public payItForwardTreasuryRatio_Numerator = 2;\n    uint256 public payItForwardTreasuryRatio_Divisor = 3;\n\n    uint256 private _tokenIdGenerator = 0;\n\n    bool public isForeverLocked = false;\n    bool public payReciver;\n\n    string public badgeColor;\n    string public badgeName;\n\n    ERC20 public redPens = ERC20(RedPenTokenAddress);\n\n     constructor(string memory _badgeName, string memory _badgeSymbol, bool _payReciver, address _AddressManagerAddress)\n        ERC721(_badgeName, _badgeSymbol)\n        SmartConsensusMachine(_AddressManagerAddress){\n       \n       // updateAllAddresses();\n        badgeColor = _badgeSymbol;\n        badgeName = _badgeName;\n\n        payReciver = _payReciver;\n        redPens = ERC20(RedPenTokenAddress);\n    }      \n\n    \n    //******************************\n    //                            **\n    //     Setup mapping          ** \n    //                            **\n    //******************************\n    struct Badge { // struct will store the gifter address and reason for the gold stars\n        address gifter;\n        string reason;\n    }\n\n    mapping (uint => Badge) public BadgeInfo; // mapping of badge ID to badge struct(reason/gifter address)\n\n    mapping (address => uint[]) public BadgesSent; // mapping of address to tokenIDs sent\n\n\n\n    function setBadgeInfo(address _gifter, string memory _reason, uint _tokenId) internal {\n        BadgeInfo[_tokenId].gifter = _gifter; // assigns this goldstar gifter address to msg.sender\n        BadgeInfo[_tokenId].reason = _reason; // assigns the reason for this goldstar\n        BadgesSent[_gifter].push(_tokenId); // pushes tokenID to the addresses array of tokens\n    }\n\n    function getBadgeReason(uint _tokenId) public view returns (string memory _theReason) {\n        _theReason = BadgeInfo[_tokenId].reason; \n\n        return (_theReason);\n    }\n\n    function getBadgeSender(uint _tokenId) public view returns (address _theGifter) {\n        _theGifter = BadgeInfo[_tokenId].gifter; \n\n        return (_theGifter);\n    }\n\n\n    function getBadgesSent (address _gifter) public view returns (uint[] memory _BadgesSent) {\n       _BadgesSent = BadgesSent[_gifter];\n\n       return _BadgesSent; // returns array of tokenIDs sent by address\n    }\n\n\n    function isBadgeSender(address addressToCheck, uint badgeTokenID) public returns (bool){\n\n        if (addressToCheck == (BadgeInfo[badgeTokenID].gifter)) {\n            return true;\n        } else { return false;}\n\n    }\n    \n    //******************************\n    //                            **\n    //  Set payment modifier      ** \n    //                            **\n    //******************************\n\n\n    modifier PAY_WITH_PENS(address receivingAddress) {\n        \n        _preApproval(msg.sender);\n\n        uint256 expectedContractBalance;\n\n        if (payReciver == true) {\n        uint256 portionOfMintingCost = mintingCost / payItForwardTreasuryRatio_Divisor;\n        expectedContractBalance = redPens.balanceOf(address(this)) + (payItForwardTreasuryRatio_Numerator * portionOfMintingCost);\n\n        redPens.transferFrom(msg.sender, address(this), (payItForwardTreasuryRatio_Numerator * portionOfMintingCost));\n        redPens.transferFrom(msg.sender, receivingAddress, (portionOfMintingCost * (payItForwardTreasuryRatio_Divisor - payItForwardTreasuryRatio_Numerator)));\n        } else {\n            expectedContractBalance = redPens.balanceOf(address(this)) + mintingCost;\n            redPens.transferFrom(msg.sender, address(this), mintingCost);\n        }\n        \n        require(redPens.balanceOf(address(this)) == expectedContractBalance, \"Error Transfering !RED\");\n        \n        _;\n    }\n\n    /////////////////////////////////////////////////////////////////////////////////////////////////\n    /////////////////////////////////////////////////////////////////////////////////////////////////\n    /// @dev                                                                                     ////\n    /// Issuance Desk                                                                            ////\n    /////////////////////////////////////////////////////////////////////////////////////////////////\n    /////////////////////////////////////////////////////////////////////////////////////////////////\n\n\n    function issueBadge(address receivingAddress, string memory _reason) public\n        PAY_WITH_PENS(receivingAddress) returns(uint newId) { // Right now function also increments and returns tokenId, this will be removed.\n\n        newId = _tokenIdGenerator;\n        setBadgeInfo(msg.sender, _reason, _tokenIdGenerator);\n        _safeMint(receivingAddress, _tokenIdGenerator);\n        _tokenIdGenerator += 1;\n       \n     }\n\n\n    //Override the burn function to require burners to be the court\n    function burn(uint256 tokenId) public virtual override {\n        \n        require((hasRole(THE_COURT_ROLE, msg.sender)\n                    || hasRole(GAVELS_BAILIFF, msg.sender)\n                    || hasRole(JURY_BAILIFF, msg.sender)\n                    || isBadgeSender(msg.sender, tokenId)),\n                    \"Nice Try, Bucko\") ;\n        _burn(tokenId);\n    }\n\n\n    /////////////////////////////////////////////////////////////////////////////////////////////////\n    /////////////////////////////////////////////////////////////////////////////////////////////////\n    /// @dev                                                                                     ////\n    /// Set Minting Costs                                                                        ////\n    /////////////////////////////////////////////////////////////////////////////////////////////////\n    /////////////////////////////////////////////////////////////////////////////////////////////////\n\n    function setMintingCost(uint256 costInWei) public BAILIFF returns (bool){\n        require(costInWei >= mintingCostFloor, \"Sorry! Cost must be greater than 0.1 RedPen\");\n        _setMintingCost(costInWei);\n        return true;\n    }\n\n    function _setMintingCost(uint256 costInWei) internal returns (bool) {\n        mintingCost = costInWei;\n        return true;\n    }\n\n    function setMintingCostFloor(uint256 costFloorInWei) public BAILIFF returns (bool){\n\n        require(costFloorInWei < mintingCostFloor, \"Sorry! You can only lower the floor!\");\n        _setMintingCostFloor(costFloorInWei);\n        return true;\n    }\n\n    function _setMintingCostFloor(uint256 costInWei) internal returns (bool) {\n        mintingCostFloor = costInWei;\n        return true;\n    }\n\n\n    /////////////////////////////////////////////////////////////////////////////////////////////////\n    /////////////////////////////////////////////////////////////////////////////////////////////////\n    /// @dev                                                                                     ////\n    /// Internal Checks                                                                     ////\n    /////////////////////////////////////////////////////////////////////////////////////////////////\n    /////////////////////////////////////////////////////////////////////////////////////////////////\n\n    \n    // Check for REDPENS balance and spending approval.\n    function _preApproval(address addressToCheck) internal returns (bool) {\n        require(redPens.allowance(addressToCheck, address(this)) >= mintingCost, \"Must Allow !RED\");\n        require(redPens.balanceOf(addressToCheck) >= mintingCost, \"Wallet does not have enough !RED\");\n        return true;\n    }\n   \n\n\n    /////////////////////////////////////////////////////////////////////////////////////////////////\n    /////////////////////////////////////////////////////////////////////////////////////////////////\n    /// @dev                                                                                     ////\n    /// Maintanence\\\\\\\\\\\\\\\\\\\\\\\\\\\\\\\\\\\\\\\\\\\\\\\\\\\\\\                                                   ////\n    /////////////////////////////////////////////////////////////////////////////////////////////////\n    /////////////////////////////////////////////////////////////////////////////////////////////////\n    // Pause the contract if neccesary. Only the Gavels can do this.\n    function pause() public GAVELS {\n        _pause();\n    }\n\n    function unpause() public GAVELS {\n        require(isForeverLocked == false);\n        _unpause();\n    }\n\n    function updatePaymentToken() public {\n        _updateTokenAddresses();\n        redPens = ERC20(RedPenTokenAddress);\n    }\n\n    function _burnAllBadges() internal returns (bool) {\n        // burn all badges\n        uint256 index = 0;\n        for (index = 0; index < _tokenIdGenerator; index++) {\n            _burn(index);\n        }\n        _tokenIdGenerator = 0;\n        return true;\n    }\n\n    function refreshBadges(bool thisIsNotReversible) public THE_COURT returns (bool) {\n\n        if(thisIsNotReversible == true) {\n            // burn all badges\n            _burnAllBadges();\n            return true;\n        } else {return false;}\n    }\n\n\n    function destroy(bool thisIsNotReversible) public THE_COURT returns (bool) {\n\n        if(thisIsNotReversible == true) {\n            // burn all badges\n            _burnAllBadges();\n            // set protocol to locked\n            _pause();\n            isForeverLocked = true;\n            return true;\n        } else {return false;}\n    }\n\n\n    /////////////////////////////////////////////////////////////////////////////////////////////////\n    /////////////////////////////////////////////////////////////////////////////////////////////////\n    /// @dev                                                                                     ////\n    /// Transfer rules                                                                           ////\n    /////////////////////////////////////////////////////////////////////////////////////////////////\n    /////////////////////////////////////////////////////////////////////////////////////////////////\n    \n    function _beforeTokenTransfer(address from, address to, uint256 tokenId)\n        internal\n        override(ERC721, ERC721Enumerable)\n    {\n         require((isBadgeSender(msg.sender, tokenId))\n                    || hasRole(THE_COURT_ROLE, msg.sender)\n                    || hasRole(GAVELS_BAILIFF, msg.sender)\n                    || hasRole(JURY_BAILIFF, msg.sender),\n                    \"You do not have permission to move this badge\");\n        super._beforeTokenTransfer(from, to, tokenId);\n    }\n\n    function supportsInterface(bytes4 interfaceId)\n        public\n        view\n        override(ERC721, ERC721Enumerable, AccessControlEnumerable)\n        returns (bool)\n    {\n        return super.supportsInterface(interfaceId);\n    }\n\n    //transfer functions from erc721 - need to override\n    function transferFrom(\n        address from,\n        address to,\n        uint256 tokenId\n    ) public virtual override {\n        require((isBadgeSender(msg.sender, tokenId))\n                    || hasRole(THE_COURT_ROLE, msg.sender)\n                    || hasRole(GAVELS_BAILIFF, msg.sender)\n                    || hasRole(JURY_BAILIFF, msg.sender),\n                    \"You do not have permission to move this badge\");\n        super.transferFrom(from, to, tokenId);\n        // revert(\"You're not authorized to use this function\"); // makes function revert back/fail\n    }\n\n    function safeTransferFrom(\n        address from,\n        address to,\n        uint256 tokenId\n    ) public virtual override {\n        require((isBadgeSender(msg.sender, tokenId))\n                    || hasRole(THE_COURT_ROLE, msg.sender)\n                    || hasRole(GAVELS_BAILIFF, msg.sender)\n                    || hasRole(JURY_BAILIFF, msg.sender),\n                    \"You do not have permission to move this badge\");\n        super.safeTransferFrom(from, to, tokenId);\n    }\n\n    function safeTransferFrom(\n        address from,\n        address to,\n        uint256 tokenId,\n        bytes memory _data\n    ) public virtual override {\n        require((isBadgeSender(msg.sender, tokenId))\n                    || hasRole(THE_COURT_ROLE, msg.sender)\n                    || hasRole(GAVELS_BAILIFF, msg.sender)\n                    || hasRole(JURY_BAILIFF, msg.sender),\n                    \"You do not have permission to move this badge\");\n        super.safeTransferFrom(from, to, tokenId, _data);\n    }\n\n\n    /////////////////////////////////////////////////////////////////////////////////////////////////\n    /////////////////////////////////////////////////////////////////////////////////////////////////\n    /// @dev                                                                                     ////\n    /// End                                                                                      ////\n    /////////////////////////////////////////////////////////////////////////////////////////////////\n    /////////////////////////////////////////////////////////////////////////////////////////////////\n}",
  "sourcePath": "/home/n/Desktop/v3_fronternd/PinkSlips_FrontEnd (reformat)3/contracts/src/GenericBadge.sol",
  "compiler": {
    "name": "solc",
    "version": "0.8.0+commit.c7dfd78e.Emscripten.clang"
  },
  "schemaVersion": "3.4.1",
  "updatedAt": "2021-07-01T07:02:02.620Z",
  "devdoc": {
    "kind": "dev",
    "methods": {
      "approve(address,uint256)": {
        "details": "See {IERC721-approve}."
      },
      "balanceOf(address)": {
        "details": "See {IERC721-balanceOf}."
      },
      "burn(uint256)": {
        "details": "Burns `tokenId`. See {ERC721-_burn}. Requirements: - The caller must own `tokenId` or be an approved operator."
      },
      "getApproved(uint256)": {
        "details": "See {IERC721-getApproved}."
      },
      "getRoleAdmin(bytes32)": {
        "details": "Returns the admin role that controls `role`. See {grantRole} and {revokeRole}. To change a role's admin, use {_setRoleAdmin}."
      },
      "getRoleMember(bytes32,uint256)": {
        "details": "Returns one of the accounts that have `role`. `index` must be a value between 0 and {getRoleMemberCount}, non-inclusive. Role bearers are not sorted in any particular way, and their ordering may change at any point. WARNING: When using {getRoleMember} and {getRoleMemberCount}, make sure you perform all queries on the same block. See the following https://forum.openzeppelin.com/t/iterating-over-elements-on-enumerableset-in-openzeppelin-contracts/2296[forum post] for more information."
      },
      "getRoleMemberCount(bytes32)": {
        "details": "Returns the number of accounts that have `role`. Can be used together with {getRoleMember} to enumerate all bearers of a role."
      },
      "grantRole(bytes32,address)": {
        "details": "Overload {grantRole} to track enumerable memberships"
      },
      "hasRole(bytes32,address)": {
        "details": "Returns `true` if `account` has been granted `role`."
      },
      "isApprovedForAll(address,address)": {
        "details": "See {IERC721-isApprovedForAll}."
      },
      "issueBadge(address,string)": {
        "details": "//// Issuance Desk                                                                            ////"
      },
      "name()": {
        "details": "See {IERC721Metadata-name}."
      },
      "ownerOf(uint256)": {
        "details": "See {IERC721-ownerOf}."
      },
      "pause()": {
        "details": "//// Maintanence\\\\\\\\\\\\\\\\\\\\\\\\\\\\\\\\\\\\\\\\\\\\\\\\\\\\\\                                                   ////"
      },
      "paused()": {
        "details": "Returns true if the contract is paused, and false otherwise."
      },
      "renounceRole(bytes32,address)": {
        "details": "Overload {renounceRole} to track enumerable memberships"
      },
      "revokeRole(bytes32,address)": {
        "details": "Overload {revokeRole} to track enumerable memberships"
      },
      "safeTransferFrom(address,address,uint256)": {
        "details": "See {IERC721-safeTransferFrom}."
      },
      "safeTransferFrom(address,address,uint256,bytes)": {
        "details": "See {IERC721-safeTransferFrom}."
      },
      "setApprovalForAll(address,bool)": {
        "details": "See {IERC721-setApprovalForAll}."
      },
      "setMintingCost(uint256)": {
        "details": "//// Set Minting Costs                                                                        ////"
      },
      "symbol()": {
        "details": "See {IERC721Metadata-symbol}."
      },
      "tokenByIndex(uint256)": {
        "details": "See {IERC721Enumerable-tokenByIndex}."
      },
      "tokenOfOwnerByIndex(address,uint256)": {
        "details": "See {IERC721Enumerable-tokenOfOwnerByIndex}."
      },
      "tokenURI(uint256)": {
        "details": "See {IERC721Metadata-tokenURI}."
      },
      "totalSupply()": {
        "details": "See {IERC721Enumerable-totalSupply}."
      },
      "transferFrom(address,address,uint256)": {
        "details": "See {IERC721-transferFrom}."
      }
    },
    "version": 1
  },
  "userdoc": {
    "kind": "user",
    "methods": {},
    "version": 1
  }
}