{
  "contractName": "GenericBadge",
  "abi": [
    {
      "inputs": [
        {
          "internalType": "string",
          "name": "_badgeName",
          "type": "string"
        },
        {
          "internalType": "string",
          "name": "_badgeSymbol",
          "type": "string"
        },
        {
          "internalType": "address",
          "name": "_AddressManagerAddress",
          "type": "address"
        }
      ],
      "stateMutability": "nonpayable",
      "type": "constructor"
    },
    {
      "anonymous": false,
      "inputs": [
        {
          "indexed": true,
          "internalType": "address",
          "name": "owner",
          "type": "address"
        },
        {
          "indexed": true,
          "internalType": "address",
          "name": "approved",
          "type": "address"
        },
        {
          "indexed": true,
          "internalType": "uint256",
          "name": "tokenId",
          "type": "uint256"
        }
      ],
      "name": "Approval",
      "type": "event"
    },
    {
      "anonymous": false,
      "inputs": [
        {
          "indexed": true,
          "internalType": "address",
          "name": "owner",
          "type": "address"
        },
        {
          "indexed": true,
          "internalType": "address",
          "name": "operator",
          "type": "address"
        },
        {
          "indexed": false,
          "internalType": "bool",
          "name": "approved",
          "type": "bool"
        }
      ],
      "name": "ApprovalForAll",
      "type": "event"
    },
    {
      "anonymous": false,
      "inputs": [
        {
          "indexed": false,
          "internalType": "address",
          "name": "account",
          "type": "address"
        }
      ],
      "name": "Paused",
      "type": "event"
    },
    {
      "anonymous": false,
      "inputs": [
        {
          "indexed": true,
          "internalType": "bytes32",
          "name": "role",
          "type": "bytes32"
        },
        {
          "indexed": true,
          "internalType": "bytes32",
          "name": "previousAdminRole",
          "type": "bytes32"
        },
        {
          "indexed": true,
          "internalType": "bytes32",
          "name": "newAdminRole",
          "type": "bytes32"
        }
      ],
      "name": "RoleAdminChanged",
      "type": "event"
    },
    {
      "anonymous": false,
      "inputs": [
        {
          "indexed": true,
          "internalType": "bytes32",
          "name": "role",
          "type": "bytes32"
        },
        {
          "indexed": true,
          "internalType": "address",
          "name": "account",
          "type": "address"
        },
        {
          "indexed": true,
          "internalType": "address",
          "name": "sender",
          "type": "address"
        }
      ],
      "name": "RoleGranted",
      "type": "event"
    },
    {
      "anonymous": false,
      "inputs": [
        {
          "indexed": true,
          "internalType": "bytes32",
          "name": "role",
          "type": "bytes32"
        },
        {
          "indexed": true,
          "internalType": "address",
          "name": "account",
          "type": "address"
        },
        {
          "indexed": true,
          "internalType": "address",
          "name": "sender",
          "type": "address"
        }
      ],
      "name": "RoleRevoked",
      "type": "event"
    },
    {
      "anonymous": false,
      "inputs": [
        {
          "indexed": true,
          "internalType": "address",
          "name": "from",
          "type": "address"
        },
        {
          "indexed": true,
          "internalType": "address",
          "name": "to",
          "type": "address"
        },
        {
          "indexed": true,
          "internalType": "uint256",
          "name": "tokenId",
          "type": "uint256"
        }
      ],
      "name": "Transfer",
      "type": "event"
    },
    {
      "anonymous": false,
      "inputs": [
        {
          "indexed": false,
          "internalType": "address",
          "name": "account",
          "type": "address"
        }
      ],
      "name": "Unpaused",
      "type": "event"
    },
    {
      "inputs": [],
      "name": "AddressManagerAddress",
      "outputs": [
        {
          "internalType": "address",
          "name": "",
          "type": "address"
        }
      ],
      "stateMutability": "view",
      "type": "function"
    },
    {
      "inputs": [
        {
          "internalType": "uint256",
          "name": "",
          "type": "uint256"
        }
      ],
      "name": "BadgeInfo",
      "outputs": [
        {
          "internalType": "address",
          "name": "gifter",
          "type": "address"
        },
        {
          "internalType": "string",
          "name": "reason",
          "type": "string"
        }
      ],
      "stateMutability": "view",
      "type": "function"
    },
    {
      "inputs": [
        {
          "internalType": "address",
          "name": "",
          "type": "address"
        },
        {
          "internalType": "uint256",
          "name": "",
          "type": "uint256"
        }
      ],
      "name": "BadgesSent",
      "outputs": [
        {
          "internalType": "uint256",
          "name": "",
          "type": "uint256"
        }
      ],
      "stateMutability": "view",
      "type": "function"
    },
    {
      "inputs": [],
      "name": "ChadBadgeAddress",
      "outputs": [
        {
          "internalType": "address",
          "name": "",
          "type": "address"
        }
      ],
      "stateMutability": "view",
      "type": "function"
    },
    {
      "inputs": [],
      "name": "ColoredIDAddress",
      "outputs": [
        {
          "internalType": "address",
          "name": "",
          "type": "address"
        }
      ],
      "stateMutability": "view",
      "type": "function"
    },
    {
      "inputs": [],
      "name": "CourtClerk",
      "outputs": [
        {
          "internalType": "address",
          "name": "",
          "type": "address"
        }
      ],
      "stateMutability": "view",
      "type": "function"
    },
    {
      "inputs": [],
      "name": "DEFAULT_ADMIN_ROLE",
      "outputs": [
        {
          "internalType": "bytes32",
          "name": "",
          "type": "bytes32"
        }
      ],
      "stateMutability": "view",
      "type": "function"
    },
    {
      "inputs": [],
      "name": "GAVELS_BAILIFF",
      "outputs": [
        {
          "internalType": "bytes32",
          "name": "",
          "type": "bytes32"
        }
      ],
      "stateMutability": "view",
      "type": "function"
    },
    {
      "inputs": [],
      "name": "GavelDAOAgent",
      "outputs": [
        {
          "internalType": "address",
          "name": "",
          "type": "address"
        }
      ],
      "stateMutability": "view",
      "type": "function"
    },
    {
      "inputs": [],
      "name": "GavelTokenAddress",
      "outputs": [
        {
          "internalType": "address",
          "name": "",
          "type": "address"
        }
      ],
      "stateMutability": "view",
      "type": "function"
    },
    {
      "inputs": [],
      "name": "GavelVote",
      "outputs": [
        {
          "internalType": "bool",
          "name": "",
          "type": "bool"
        }
      ],
      "stateMutability": "view",
      "type": "function"
    },
    {
      "inputs": [],
      "name": "GoldStarAddress",
      "outputs": [
        {
          "internalType": "address",
          "name": "",
          "type": "address"
        }
      ],
      "stateMutability": "view",
      "type": "function"
    },
    {
      "inputs": [],
      "name": "JERK_ROLE",
      "outputs": [
        {
          "internalType": "bytes32",
          "name": "",
          "type": "bytes32"
        }
      ],
      "stateMutability": "view",
      "type": "function"
    },
    {
      "inputs": [],
      "name": "JURY_BAILIFF",
      "outputs": [
        {
          "internalType": "bytes32",
          "name": "",
          "type": "bytes32"
        }
      ],
      "stateMutability": "view",
      "type": "function"
    },
    {
      "inputs": [],
      "name": "JuryDAOAgent",
      "outputs": [
        {
          "internalType": "address",
          "name": "",
          "type": "address"
        }
      ],
      "stateMutability": "view",
      "type": "function"
    },
    {
      "inputs": [],
      "name": "JuryPoolAddress",
      "outputs": [
        {
          "internalType": "address",
          "name": "",
          "type": "address"
        }
      ],
      "stateMutability": "view",
      "type": "function"
    },
    {
      "inputs": [],
      "name": "JuryVote",
      "outputs": [
        {
          "internalType": "bool",
          "name": "",
          "type": "bool"
        }
      ],
      "stateMutability": "view",
      "type": "function"
    },
    {
      "inputs": [],
      "name": "MINI_BAILIFF_ROLE",
      "outputs": [
        {
          "internalType": "bytes32",
          "name": "",
          "type": "bytes32"
        }
      ],
      "stateMutability": "view",
      "type": "function"
    },
    {
      "inputs": [],
      "name": "MiniBailiff",
      "outputs": [
        {
          "internalType": "address",
          "name": "",
          "type": "address"
        }
      ],
      "stateMutability": "view",
      "type": "function"
    },
    {
      "inputs": [],
      "name": "PinkSlipAddress",
      "outputs": [
        {
          "internalType": "address",
          "name": "",
          "type": "address"
        }
      ],
      "stateMutability": "view",
      "type": "function"
    },
    {
      "inputs": [],
      "name": "RedPenTokenAddress",
      "outputs": [
        {
          "internalType": "address",
          "name": "",
          "type": "address"
        }
      ],
      "stateMutability": "view",
      "type": "function"
    },
    {
      "inputs": [],
      "name": "THE_COURT_ROLE",
      "outputs": [
        {
          "internalType": "bytes32",
          "name": "",
          "type": "bytes32"
        }
      ],
      "stateMutability": "view",
      "type": "function"
    },
    {
      "inputs": [],
      "name": "TheCourtAddress",
      "outputs": [
        {
          "internalType": "address",
          "name": "",
          "type": "address"
        }
      ],
      "stateMutability": "view",
      "type": "function"
    },
    {
      "inputs": [],
      "name": "TreasuryAddress",
      "outputs": [
        {
          "internalType": "address",
          "name": "",
          "type": "address"
        }
      ],
      "stateMutability": "view",
      "type": "function"
    },
    {
      "inputs": [],
      "name": "addressManager",
      "outputs": [
        {
          "internalType": "contract AddressManager",
          "name": "",
          "type": "address"
        }
      ],
      "stateMutability": "view",
      "type": "function"
    },
    {
      "inputs": [
        {
          "internalType": "address",
          "name": "to",
          "type": "address"
        },
        {
          "internalType": "uint256",
          "name": "tokenId",
          "type": "uint256"
        }
      ],
      "name": "approve",
      "outputs": [],
      "stateMutability": "nonpayable",
      "type": "function"
    },
    {
      "inputs": [],
      "name": "badgeColor",
      "outputs": [
        {
          "internalType": "string",
          "name": "",
          "type": "string"
        }
      ],
      "stateMutability": "view",
      "type": "function"
    },
    {
      "inputs": [],
      "name": "badgeName",
      "outputs": [
        {
          "internalType": "string",
          "name": "",
          "type": "string"
        }
      ],
      "stateMutability": "view",
      "type": "function"
    },
    {
      "inputs": [
        {
          "internalType": "address",
          "name": "owner",
          "type": "address"
        }
      ],
      "name": "balanceOf",
      "outputs": [
        {
          "internalType": "uint256",
          "name": "",
          "type": "uint256"
        }
      ],
      "stateMutability": "view",
      "type": "function"
    },
    {
      "inputs": [
        {
          "internalType": "uint256",
          "name": "tokenId",
          "type": "uint256"
        }
      ],
      "name": "getApproved",
      "outputs": [
        {
          "internalType": "address",
          "name": "",
          "type": "address"
        }
      ],
      "stateMutability": "view",
      "type": "function"
    },
    {
      "inputs": [
        {
          "internalType": "bytes32",
          "name": "role",
          "type": "bytes32"
        }
      ],
      "name": "getRoleAdmin",
      "outputs": [
        {
          "internalType": "bytes32",
          "name": "",
          "type": "bytes32"
        }
      ],
      "stateMutability": "view",
      "type": "function"
    },
    {
      "inputs": [
        {
          "internalType": "bytes32",
          "name": "role",
          "type": "bytes32"
        },
        {
          "internalType": "uint256",
          "name": "index",
          "type": "uint256"
        }
      ],
      "name": "getRoleMember",
      "outputs": [
        {
          "internalType": "address",
          "name": "",
          "type": "address"
        }
      ],
      "stateMutability": "view",
      "type": "function"
    },
    {
      "inputs": [
        {
          "internalType": "bytes32",
          "name": "role",
          "type": "bytes32"
        }
      ],
      "name": "getRoleMemberCount",
      "outputs": [
        {
          "internalType": "uint256",
          "name": "",
          "type": "uint256"
        }
      ],
      "stateMutability": "view",
      "type": "function"
    },
    {
      "inputs": [
        {
          "internalType": "bytes32",
          "name": "role",
          "type": "bytes32"
        },
        {
          "internalType": "address",
          "name": "account",
          "type": "address"
        }
      ],
      "name": "grantRole",
      "outputs": [],
      "stateMutability": "nonpayable",
      "type": "function"
    },
    {
      "inputs": [
        {
          "internalType": "bytes32",
          "name": "role",
          "type": "bytes32"
        },
        {
          "internalType": "address",
          "name": "account",
          "type": "address"
        }
      ],
      "name": "hasRole",
      "outputs": [
        {
          "internalType": "bool",
          "name": "",
          "type": "bool"
        }
      ],
      "stateMutability": "view",
      "type": "function"
    },
    {
      "inputs": [],
      "name": "isForeverLocked",
      "outputs": [
        {
          "internalType": "bool",
          "name": "",
          "type": "bool"
        }
      ],
      "stateMutability": "view",
      "type": "function"
    },
    {
      "inputs": [],
      "name": "jerkSanctions",
      "outputs": [
        {
          "internalType": "bool",
          "name": "",
          "type": "bool"
        }
      ],
      "stateMutability": "view",
      "type": "function"
    },
    {
      "inputs": [],
      "name": "name",
      "outputs": [
        {
          "internalType": "string",
          "name": "",
          "type": "string"
        }
      ],
      "stateMutability": "view",
      "type": "function"
    },
    {
      "inputs": [
        {
          "internalType": "uint256",
          "name": "tokenId",
          "type": "uint256"
        }
      ],
      "name": "ownerOf",
      "outputs": [
        {
          "internalType": "address",
          "name": "",
          "type": "address"
        }
      ],
      "stateMutability": "view",
      "type": "function"
    },
    {
      "inputs": [],
      "name": "paused",
      "outputs": [
        {
          "internalType": "bool",
          "name": "",
          "type": "bool"
        }
      ],
      "stateMutability": "view",
      "type": "function"
    },
    {
      "inputs": [
        {
          "internalType": "bytes32",
          "name": "role",
          "type": "bytes32"
        },
        {
          "internalType": "address",
          "name": "account",
          "type": "address"
        }
      ],
      "name": "renounceRole",
      "outputs": [],
      "stateMutability": "nonpayable",
      "type": "function"
    },
    {
      "inputs": [],
      "name": "resetVote",
      "outputs": [],
      "stateMutability": "nonpayable",
      "type": "function"
    },
    {
      "inputs": [
        {
          "internalType": "bytes32",
          "name": "role",
          "type": "bytes32"
        },
        {
          "internalType": "address",
          "name": "account",
          "type": "address"
        }
      ],
      "name": "revokeRole",
      "outputs": [],
      "stateMutability": "nonpayable",
      "type": "function"
    },
    {
      "inputs": [],
      "name": "symbol",
      "outputs": [
        {
          "internalType": "string",
          "name": "",
          "type": "string"
        }
      ],
      "stateMutability": "view",
      "type": "function"
    },
    {
      "inputs": [],
      "name": "syncAllRoles",
      "outputs": [],
      "stateMutability": "nonpayable",
      "type": "function"
    },
    {
      "inputs": [
        {
          "internalType": "bytes32",
          "name": "ROLE_TO_SYNC",
          "type": "bytes32"
        }
      ],
      "name": "syncSingleRole",
      "outputs": [],
      "stateMutability": "nonpayable",
      "type": "function"
    },
    {
      "inputs": [],
      "name": "syncVotes",
      "outputs": [],
      "stateMutability": "nonpayable",
      "type": "function"
    },
    {
      "inputs": [
        {
          "internalType": "uint256",
          "name": "index",
          "type": "uint256"
        }
      ],
      "name": "tokenByIndex",
      "outputs": [
        {
          "internalType": "uint256",
          "name": "",
          "type": "uint256"
        }
      ],
      "stateMutability": "view",
      "type": "function"
    },
    {
      "inputs": [
        {
          "internalType": "address",
          "name": "owner",
          "type": "address"
        },
        {
          "internalType": "uint256",
          "name": "index",
          "type": "uint256"
        }
      ],
      "name": "tokenOfOwnerByIndex",
      "outputs": [
        {
          "internalType": "uint256",
          "name": "",
          "type": "uint256"
        }
      ],
      "stateMutability": "view",
      "type": "function"
    },
    {
      "inputs": [
        {
          "internalType": "uint256",
          "name": "tokenId",
          "type": "uint256"
        }
      ],
      "name": "tokenURI",
      "outputs": [
        {
          "internalType": "string",
          "name": "",
          "type": "string"
        }
      ],
      "stateMutability": "view",
      "type": "function"
    },
    {
      "inputs": [],
      "name": "totalSupply",
      "outputs": [
        {
          "internalType": "uint256",
          "name": "",
          "type": "uint256"
        }
      ],
      "stateMutability": "view",
      "type": "function"
    },
    {
      "inputs": [],
      "name": "updateAddressManager",
      "outputs": [],
      "stateMutability": "nonpayable",
      "type": "function"
    },
    {
      "inputs": [],
      "name": "updateAllAddresses",
      "outputs": [],
      "stateMutability": "nonpayable",
      "type": "function"
    },
    {
      "inputs": [],
      "name": "updateAllRoles",
      "outputs": [],
      "stateMutability": "nonpayable",
      "type": "function"
    },
    {
      "inputs": [],
      "name": "updateDAOAddresses",
      "outputs": [],
      "stateMutability": "nonpayable",
      "type": "function"
    },
    {
      "inputs": [
        {
          "internalType": "bytes32",
          "name": "ROLE_TO_UPDATE",
          "type": "bytes32"
        }
      ],
      "name": "updateSingleRole",
      "outputs": [],
      "stateMutability": "nonpayable",
      "type": "function"
    },
    {
      "inputs": [],
      "name": "updateTokenAddresses",
      "outputs": [],
      "stateMutability": "nonpayable",
      "type": "function"
    },
    {
      "inputs": [
        {
          "internalType": "uint256",
          "name": "_tokenId",
          "type": "uint256"
        }
      ],
      "name": "getBadgeReason",
      "outputs": [
        {
          "internalType": "string",
          "name": "_theReason",
          "type": "string"
        }
      ],
      "stateMutability": "view",
      "type": "function"
    },
    {
      "inputs": [
        {
          "internalType": "uint256",
          "name": "_tokenId",
          "type": "uint256"
        }
      ],
      "name": "getBadgeSender",
      "outputs": [
        {
          "internalType": "address",
          "name": "_theGifter",
          "type": "address"
        }
      ],
      "stateMutability": "view",
      "type": "function"
    },
    {
      "inputs": [
        {
          "internalType": "address",
          "name": "_gifter",
          "type": "address"
        }
      ],
      "name": "getBadgesSent",
      "outputs": [
        {
          "internalType": "uint256[]",
          "name": "_BadgesSent",
          "type": "uint256[]"
        }
      ],
      "stateMutability": "view",
      "type": "function"
    },
    {
      "inputs": [
        {
          "internalType": "address",
          "name": "addressToCheck",
          "type": "address"
        },
        {
          "internalType": "uint256",
          "name": "badgeTokenID",
          "type": "uint256"
        }
      ],
      "name": "isBadgeSender",
      "outputs": [
        {
          "internalType": "bool",
          "name": "",
          "type": "bool"
        }
      ],
      "stateMutability": "view",
      "type": "function"
    },
    {
      "inputs": [
        {
          "internalType": "address",
          "name": "receivingAddress",
          "type": "address"
        },
        {
          "internalType": "string",
          "name": "_reason",
          "type": "string"
        }
      ],
      "name": "issueBadge",
      "outputs": [
        {
          "internalType": "uint256",
          "name": "newId",
          "type": "uint256"
        }
      ],
      "stateMutability": "nonpayable",
      "type": "function"
    },
    {
      "inputs": [
        {
          "internalType": "uint256",
          "name": "tokenId",
          "type": "uint256"
        }
      ],
      "name": "revokeBadge",
      "outputs": [],
      "stateMutability": "nonpayable",
      "type": "function"
    },
    {
      "inputs": [],
      "name": "pause",
      "outputs": [],
      "stateMutability": "nonpayable",
      "type": "function"
    },
    {
      "inputs": [],
      "name": "unpause",
      "outputs": [],
      "stateMutability": "nonpayable",
      "type": "function"
    },
    {
      "inputs": [
        {
          "internalType": "bool",
          "name": "thisIsNotReversible",
          "type": "bool"
        }
      ],
      "name": "refreshBadges",
      "outputs": [
        {
          "internalType": "bool",
          "name": "",
          "type": "bool"
        }
      ],
      "stateMutability": "nonpayable",
      "type": "function"
    },
    {
      "inputs": [
        {
          "internalType": "uint256",
          "name": "valueMustBe69",
          "type": "uint256"
        }
      ],
      "name": "destroyAndLockContract",
      "outputs": [
        {
          "internalType": "bool",
          "name": "",
          "type": "bool"
        }
      ],
      "stateMutability": "nonpayable",
      "type": "function"
    },
    {
      "inputs": [
        {
          "internalType": "address",
          "name": "owner",
          "type": "address"
        },
        {
          "internalType": "address",
          "name": "operator",
          "type": "address"
        }
      ],
      "name": "isApprovedForAll",
      "outputs": [
        {
          "internalType": "bool",
          "name": "",
          "type": "bool"
        }
      ],
      "stateMutability": "view",
      "type": "function"
    },
    {
      "inputs": [
        {
          "internalType": "address",
          "name": "operator",
          "type": "address"
        },
        {
          "internalType": "bool",
          "name": "approved",
          "type": "bool"
        }
      ],
      "name": "setApprovalForAll",
      "outputs": [],
      "stateMutability": "nonpayable",
      "type": "function"
    },
    {
      "inputs": [
        {
          "internalType": "bytes4",
          "name": "interfaceId",
          "type": "bytes4"
        }
      ],
      "name": "supportsInterface",
      "outputs": [
        {
          "internalType": "bool",
          "name": "",
          "type": "bool"
        }
      ],
      "stateMutability": "view",
      "type": "function"
    },
    {
      "inputs": [
        {
          "internalType": "address",
          "name": "from",
          "type": "address"
        },
        {
          "internalType": "address",
          "name": "to",
          "type": "address"
        },
        {
          "internalType": "uint256",
          "name": "tokenId",
          "type": "uint256"
        }
      ],
      "name": "transferFrom",
      "outputs": [],
      "stateMutability": "nonpayable",
      "type": "function"
    },
    {
      "inputs": [
        {
          "internalType": "address",
          "name": "from",
          "type": "address"
        },
        {
          "internalType": "address",
          "name": "to",
          "type": "address"
        },
        {
          "internalType": "uint256",
          "name": "tokenId",
          "type": "uint256"
        }
      ],
      "name": "safeTransferFrom",
      "outputs": [],
      "stateMutability": "nonpayable",
      "type": "function"
    },
    {
      "inputs": [
        {
          "internalType": "address",
          "name": "from",
          "type": "address"
        },
        {
          "internalType": "address",
          "name": "to",
          "type": "address"
        },
        {
          "internalType": "uint256",
          "name": "tokenId",
          "type": "uint256"
        },
        {
          "internalType": "bytes",
          "name": "_data",
          "type": "bytes"
        }
      ],
      "name": "safeTransferFrom",
      "outputs": [],
      "stateMutability": "nonpayable",
      "type": "function"
    }
  ],
  "bytecode": "0x60806040526000805460ff1990811682556011805463ffffffff60a01b19169055601d91909155601e805490911690553480156200003c57600080fd5b50604051620055fa380380620055fa8339810160408190526200005f9162000dd3565b600380546001600160a01b0383166001600160a01b031991821681179092556011805490911690911790558282826200009762000239565b620000a16200024f565b600f54620000bb906000906001600160a01b03166200039a565b600f54620000f4907f0538d24a8b7882d7b2e36af243d4af61c23e86e3daa6cb8c887b53220b2f5720906001600160a01b03166200039a565b600c546200012d907f048bc71fa1cb2c119c339cf9cf00a97996a19a9d991ce5fe049f2fa5459e7990906001600160a01b03166200039a565b600d5462000166907ffa8e4989e1d689f7bc5c4b25b87efb51fecdecb19ba62847e29c759e12a89acd906001600160a01b03166200039a565b6010546200019f907ff0f4b159a6e2a4815eb3ca3df080bfa70c9270662c59bcaa4479a456220183e6906001600160a01b03166200039a565b620001cc7f7c9d7f6f02908185bffb3f7fc9afb29fd7bf93675af8fd4b655ee05c2cee1e0e60006200039a565b508151620001e290601290602085019062000c10565b508051620001f890601390602084019062000c10565b50506018805460ff191690555081516200021a90601f90602085019062000c10565b5082516200022f906020908186019062000c10565b5050505062000ea2565b62000243620003dd565b6200024d620006dd565b565b601160009054906101000a90046001600160a01b03166001600160a01b031663ff7e88ec6040518163ffffffff1660e01b815260040160206040518083038186803b1580156200029e57600080fd5b505afa158015620002b3573d6000803e3d6000fd5b505050506040513d601f19601f82011682018060405250810190620002d9919062000da8565b601160156101000a81548160ff021916908315150217905550601160009054906101000a90046001600160a01b03166001600160a01b0316632fb565856040518163ffffffff1660e01b815260040160206040518083038186803b1580156200034157600080fd5b505afa15801562000356573d6000803e3d6000fd5b505050506040513d601f19601f820116820180604052508101906200037c919062000da8565b60118054911515600160b01b0260ff60b01b19909216919091179055565b620003b1828262000b0660201b62001a211760201c565b6000828152600260209081526040909120620003d891839062001a2b62000b16821b17901c565b505050565b601160009054906101000a90046001600160a01b03166001600160a01b031663dadf56ac6040518163ffffffff1660e01b815260040160206040518083038186803b1580156200042c57600080fd5b505afa15801562000441573d6000803e3d6000fd5b505050506040513d601f19601f8201168201806040525081019062000467919062000d8a565b600c80546001600160a01b0319166001600160a01b039283161790556011546040805163024bebe960e01b81529051919092169163024bebe9916004808301926020929190829003018186803b158015620004c157600080fd5b505afa158015620004d6573d6000803e3d6000fd5b505050506040513d601f19601f82011682018060405250810190620004fc919062000d8a565b600d80546001600160a01b0319166001600160a01b0392831617905560115460408051635b5c251f60e01b815290519190921691635b5c251f916004808301926020929190829003018186803b1580156200055657600080fd5b505afa1580156200056b573d6000803e3d6000fd5b505050506040513d601f19601f8201168201806040525081019062000591919062000d8a565b600e80546001600160a01b0319166001600160a01b0392831617905560115460408051637310bf1d60e11b81529051919092169163e6217e3a916004808301926020929190829003018186803b158015620005eb57600080fd5b505afa15801562000600573d6000803e3d6000fd5b505050506040513d601f19601f8201168201806040525081019062000626919062000d8a565b601080546001600160a01b0319166001600160a01b039283161790556011546040805163d88127a160e01b81529051919092169163d88127a1916004808301926020929190829003018186803b1580156200068057600080fd5b505afa15801562000695573d6000803e3d6000fd5b505050506040513d601f19601f82011682018060405250810190620006bb919062000d8a565b600b80546001600160a01b0319166001600160a01b0392909216919091179055565b601160009054906101000a90046001600160a01b03166001600160a01b03166321d7f0086040518163ffffffff1660e01b815260040160206040518083038186803b1580156200072c57600080fd5b505afa15801562000741573d6000803e3d6000fd5b505050506040513d601f19601f8201168201806040525081019062000767919062000d8a565b600480546001600160a01b0319166001600160a01b039283161781556011546040805163762ddb5960e01b81529051919093169263762ddb599281810192602092909190829003018186803b158015620007c057600080fd5b505afa158015620007d5573d6000803e3d6000fd5b505050506040513d601f19601f82011682018060405250810190620007fb919062000d8a565b600580546001600160a01b0319166001600160a01b039283161790556011546040805163bfb7dc9960e01b81529051919092169163bfb7dc99916004808301926020929190829003018186803b1580156200085557600080fd5b505afa1580156200086a573d6000803e3d6000fd5b505050506040513d601f19601f8201168201806040525081019062000890919062000d8a565b600680546001600160a01b0319166001600160a01b0392831617905560115460408051633e6111eb60e21b81529051919092169163f98447ac916004808301926020929190829003018186803b158015620008ea57600080fd5b505afa158015620008ff573d6000803e3d6000fd5b505050506040513d601f19601f8201168201806040525081019062000925919062000d8a565b600780546001600160a01b0319166001600160a01b0392831617905560115460408051630fe1ba9f60e21b815290519190921691633f86ea7c916004808301926020929190829003018186803b1580156200097f57600080fd5b505afa15801562000994573d6000803e3d6000fd5b505050506040513d601f19601f82011682018060405250810190620009ba919062000d8a565b600880546001600160a01b0319166001600160a01b0392831617905560115460408051632b90024160e11b8152905191909216916357200482916004808301926020929190829003018186803b15801562000a1457600080fd5b505afa15801562000a29573d6000803e3d6000fd5b505050506040513d601f19601f8201168201806040525081019062000a4f919062000d8a565b600980546001600160a01b0319166001600160a01b0392831617905560115460408051636b58477560e01b815290519190921691636b584775916004808301926020929190829003018186803b15801562000aa957600080fd5b505afa15801562000abe573d6000803e3d6000fd5b505050506040513d601f19601f8201168201806040525081019062000ae4919062000d8a565b600a80546001600160a01b0319166001600160a01b0392909216919091179055565b62000b12828262000b36565b5050565b600062000b2d836001600160a01b03841662000bbe565b90505b92915050565b60008281526001602090815260408083206001600160a01b038516845290915290205460ff1662000b125760008281526001602081815260408084206001600160a01b0386168086529252808420805460ff19169093179092559051339285917f2f8788117e7eff1d82e926ec794901d17c78024a50270940304540a733656f0d9190a45050565b600081815260018301602052604081205462000c075750815460018181018455600084815260208082209093018490558454848252828601909352604090209190915562000b30565b50600062000b30565b82805462000c1e9062000e4f565b90600052602060002090601f01602090048101928262000c42576000855562000c8d565b82601f1062000c5d57805160ff191683800117855562000c8d565b8280016001018555821562000c8d579182015b8281111562000c8d57825182559160200191906001019062000c70565b5062000c9b92915062000c9f565b5090565b5b8082111562000c9b576000815560010162000ca0565b80516001600160a01b038116811462000cce57600080fd5b919050565b600082601f83011262000ce557600080fd5b81516001600160401b038082111562000d025762000d0262000e8c565b604051601f8301601f19908116603f0116810190828211818310171562000d2d5762000d2d62000e8c565b8160405283815260209250868385880101111562000d4a57600080fd5b600091505b8382101562000d6e578582018301518183018401529082019062000d4f565b8382111562000d805760008385830101525b9695505050505050565b60006020828403121562000d9d57600080fd5b62000b2d8262000cb6565b60006020828403121562000dbb57600080fd5b8151801515811462000dcc57600080fd5b9392505050565b60008060006060848603121562000de957600080fd5b83516001600160401b038082111562000e0157600080fd5b62000e0f8783880162000cd3565b9450602086015191508082111562000e2657600080fd5b5062000e358682870162000cd3565b92505062000e466040850162000cb6565b90509250925092565b600181811c9082168062000e6457607f821691505b6020821081141562000e8657634e487b7160e01b600052602260045260246000fd5b50919050565b634e487b7160e01b600052604160045260246000fd5b6147488062000eb26000396000f3fe608060405234801561001057600080fd5b50600436106104335760003560e01c80636b58477511610236578063c04e17e31161013b578063dea6f9c8116100c3578063f1132b3011610087578063f1132b3014610934578063f7d92d861461093c578063f98447ac14610944578063f98db25314610957578063ff7e88ec1461096a57600080fd5b8063dea6f9c8146108de578063e6217e3a146108e6578063e78c266c146108f9578063e985e9c51461090c578063e9a532301461091f57600080fd5b8063cce843921161010a578063cce843921461087b578063cf4ece1514610890578063d547741f146108a5578063d88127a1146108b8578063dadf56ac146108cb57600080fd5b8063c04e17e314610821578063c62b28e814610842578063c87b56dd14610855578063ca15c8731461086857600080fd5b806395d89b41116101be578063a22cb4651161018d578063a22cb465146107bf578063a32c5e59146107d2578063a78e746f146107e7578063b88d4fde146107fb578063bfb7dc991461080e57600080fd5b806395d89b411461078f57806396ac6bf0146107975780639ac3eaa7146107aa578063a217fddf146107b757600080fd5b80637651607811610205578063765160781461073b578063794ccf6c1461074e5780638456cb59146107615780639010d07c1461076957806391d148541461077c57600080fd5b80636b584775146106d957806370a08231146106ec57806373c89822146106ff578063762ddb591461072857600080fd5b806336568abe1161033c57806357f276ff116102c45780635db531a1116102935780635db531a1146106835780635f4134661461068b578063610c30091461069e5780636352211e146106a657806363ebc677146106b957600080fd5b806357f276ff1461063f57806359e6f787146106525780635b5c251f146106655780635c975abb1461067857600080fd5b806342842e0e1161030b57806342842e0e146105f657806349b5e105146106095780634d84c6d8146106115780634f6ccce714610619578063572004821461062c57600080fd5b806336568abe146105b55780633ab76e9f146105c85780633f4ba83a146105db5780633f86ea7c146105e357600080fd5b806321d7f008116103bf5780632f2ff15d1161038e5780632f2ff15d1461056b5780632f745c591461057e5780632fb5658514610591578063326a55e0146105a5578063329a8cfa146105ad57600080fd5b806321d7f0081461050c57806323b872dd1461051f5780632436329d14610532578063248a9ca31461054757600080fd5b8063095ea7b311610406578063095ea7b3146104b35780630ad17f8f146104c8578063130f6320146104e957806317314d5a146104fc57806318160ddd1461050457600080fd5b806301ffc9a714610438578063024bebe91461046057806306fdde031461048b578063081812fc146104a0575b600080fd5b61044b6104463660046141f1565b61097e565b60405190151581526020015b60405180910390f35b600d54610473906001600160a01b031681565b6040516001600160a01b039091168152602001610457565b61049361098f565b60405161045791906143b9565b6104736104ae366004614191565b610a21565b6104c66104c136600461412b565b610abb565b005b6104db6104d636600461412b565b610bd1565b604051908152602001610457565b6104c66104f7366004614191565b610c02565b6104c6610c37565b601b546104db565b600454610473906001600160a01b031681565b6104c661052d366004613fd8565b610c60565b6104db60008051602061467383398151915281565b6104db610555366004614191565b6000908152600160208190526040909120015490565b6104c66105793660046141aa565b610c91565b6104db61058c36600461412b565b610cb3565b60115461044b90600160b01b900460ff1681565b6104c6610d49565b6104c6610d59565b6104c66105c33660046141aa565b610e62565b601154610473906001600160a01b031681565b6104c6610e84565b600854610473906001600160a01b031681565b6104c6610604366004613fd8565b610f16565b6104c6610f47565b6104c6610d51565b6104db610627366004614191565b610f4f565b600954610473906001600160a01b031681565b6104c661064d366004614191565b610fe2565b61044b61066036600461412b565b610ff6565b600e54610473906001600160a01b031681565b60185460ff1661044b565b6104c6611028565b600f54610473906001600160a01b031681565b610493611030565b6104736106b4366004614191565b6110be565b6106cc6106c7366004613f65565b611135565b6040516104579190614375565b600a54610473906001600160a01b031681565b6104db6106fa366004613f65565b6111a1565b61047361070d366004614191565b6000908152602160205260409020546001600160a01b031690565b600554610473906001600160a01b031681565b61044b610749366004614157565b611228565b6104db61075c3660046140c7565b611328565b6104c66113d4565b6104736107773660046141cf565b611456565b61044b61078a3660046141aa565b61146e565b610493611499565b61044b6107a5366004614191565b6114a8565b601e5461044b9060ff1681565b6104db600081565b6104c66107cd366004614099565b6115b4565b6104db6000805160206146d383398151915281565b60115461044b90600160a01b900460ff1681565b6104c6610809366004614019565b611632565b600654610473906001600160a01b031681565b61083461082f366004614191565b61166a565b604051610457929190614351565b6104c6610850366004614191565b611719565b610493610863366004614191565b61176a565b6104db610876366004614191565b611851565b6104db6000805160206146f383398151915281565b6104db6000805160206146b383398151915281565b6104c66108b33660046141aa565b611868565b600b54610473906001600160a01b031681565b600c54610473906001600160a01b031681565b610493611872565b601054610473906001600160a01b031681565b600354610473906001600160a01b031681565b61044b61091a366004613f9f565b61187f565b6104db60008051602061469383398151915281565b6104c66118de565b6104c66118e6565b600754610473906001600160a01b031681565b610493610965366004614191565b611986565b60115461044b90600160a81b900460ff1681565b600061098982611a40565b92915050565b60606012805461099e90614561565b80601f01602080910402602001604051908101604052809291908181526020018280546109ca90614561565b8015610a175780601f106109ec57610100808354040283529160200191610a17565b820191906000526020600020905b8154815290600101906020018083116109fa57829003601f168201915b5050505050905090565b6000818152601460205260408120546001600160a01b0316610a9f5760405162461bcd60e51b815260206004820152602c60248201527f4552433732313a20617070726f76656420717565727920666f72206e6f6e657860448201526b34b9ba32b73a103a37b5b2b760a11b60648201526084015b60405180910390fd5b506000908152601660205260409020546001600160a01b031690565b6000610ac6826110be565b9050806001600160a01b0316836001600160a01b03161415610b345760405162461bcd60e51b815260206004820152602160248201527f4552433732313a20617070726f76616c20746f2063757272656e74206f776e656044820152603960f91b6064820152608401610a96565b336001600160a01b0382161480610b505750610b50813361187f565b610bc25760405162461bcd60e51b815260206004820152603860248201527f4552433732313a20617070726f76652063616c6c6572206973206e6f74206f7760448201527f6e6572206e6f7220617070726f76656420666f7220616c6c00000000000000006064820152608401610a96565b610bcc8383611a65565b505050565b60226020528160005260406000208181548110610bed57600080fd5b90600052602060002001600091509150505481565b610c0c6001611a8c565b50610c1681611b3e565b50610c2081611cb9565b50610c2b6000611a8c565b610c3457600080fd5b50565b610c416001611a8c565b50610c4a611e42565b50610c556000611a8c565b610c5e57600080fd5b565b610c6a3382611f88565b610c865760405162461bcd60e51b8152600401610a969061441e565b610bcc838383612018565b610c9b8282612049565b6000828152600260205260409020610bcc9082611a2b565b6000610cbe836111a1565b8210610d205760405162461bcd60e51b815260206004820152602b60248201527f455243373231456e756d657261626c653a206f776e657220696e646578206f7560448201526a74206f6620626f756e647360a81b6064820152608401610a96565b506001600160a01b03919091166000908152601960209081526040808320938352929052205490565b610d51612083565b610c5e61236f565b610d716000805160206146d38339815191523361146e565b80610d8f5750610d8f6000805160206146938339815191523361146e565b80610dad5750610dad6000805160206146738339815191523361146e565b610df25760405162461bcd60e51b81526020600482015260166024820152752cb7ba93b932903737ba103a3432903130b4b634b33360511b6044820152606401610a96565b601160009054906101000a90046001600160a01b03166001600160a01b031663329a8cfa6040518163ffffffff1660e01b8152600401600060405180830381600087803b158015610e4257600080fd5b505af1158015610e56573d6000803e3d6000fd5b50505050610c5e611028565b610e6c828261277c565b6000828152600260205260409020610bcc90826127f6565b610e9c6000805160206146938339815191523361146e565b80610eba5750610eba6000805160206146d38339815191523361146e565b610efe5760405162461bcd60e51b8152602060048201526015602482015274596f75277265206e6f742074686520476176656c7360581b6044820152606401610a96565b601e5460ff1615610f0e57600080fd5b610c5e61280b565b610f203382611f88565b610f3c5760405162461bcd60e51b8152600401610a969061441e565b610bcc83838361289e565b610c5e612083565b6000610f5a601b5490565b8210610fbd5760405162461bcd60e51b815260206004820152602c60248201527f455243373231456e756d657261626c653a20676c6f62616c20696e646578206f60448201526b7574206f6620626f756e647360a01b6064820152608401610a96565b601b8281548110610fd057610fd061460d565b90600052602060002001549050919050565b610fec6001611a8c565b50610c20816128b9565b6000818152602160205260408120546001600160a01b038481169116141561102057506001610989565b506000610989565b610c5e612b14565b6020805461103d90614561565b80601f016020809104026020016040519081016040528092919081815260200182805461106990614561565b80156110b65780601f1061108b576101008083540402835291602001916110b6565b820191906000526020600020905b81548152906001019060200180831161109957829003601f168201915b505050505081565b6000818152601460205260408120546001600160a01b0316806109895760405162461bcd60e51b815260206004820152602960248201527f4552433732313a206f776e657220717565727920666f72206e6f6e657869737460448201526832b73a103a37b5b2b760b91b6064820152608401610a96565b6001600160a01b03811660009081526022602090815260409182902080548351818402810184019094528084526060939283018282801561119557602002820191906000526020600020905b815481526020019060010190808311611181575b50505050509050919050565b60006001600160a01b03821661120c5760405162461bcd60e51b815260206004820152602a60248201527f4552433732313a2062616c616e636520717565727920666f7220746865207a65604482015269726f206164647265737360b01b6064820152608401610a96565b506001600160a01b031660009081526015602052604090205490565b60006112426000805160206146938339815191523361146e565b8061126057506112606000805160206146738339815191523361146e565b8061127e575061127e6000805160206146d38339815191523361146e565b61128757600080fd5b601154600160b01b810460ff9081161515600160a81b90920416151514600114806112c557506112c56000805160206146d38339815191523361146e565b6113045760405162461bcd60e51b815260206004820152601060248201526f436f757274204d75737420416772656560801b6044820152606401610a96565b6001821515141561132057611317612c57565b50600192915050565b506000919050565b60006113426000805160206146d38339815191523361146e565b8061136057506113606000805160206146938339815191523361146e565b8061137e575061137e6000805160206146738339815191523361146e565b6113c35760405162461bcd60e51b81526020600482015260166024820152752cb7ba93b932903737ba103a3432903130b4b634b33360511b6044820152606401610a96565b6113cd8383612ca9565b9392505050565b6113ec6000805160206146938339815191523361146e565b8061140a575061140a6000805160206146d38339815191523361146e565b61144e5760405162461bcd60e51b8152602060048201526015602482015274596f75277265206e6f742074686520476176656c7360581b6044820152606401610a96565b610c5e612d0e565b60008281526002602052604081206113cd9083612d89565b60009182526001602090815260408084206001600160a01b0393909316845291905290205460ff1690565b60606013805461099e90614561565b60006114c26000805160206146938339815191523361146e565b806114e057506114e06000805160206146738339815191523361146e565b806114fe57506114fe6000805160206146d38339815191523361146e565b61150757600080fd5b601154600160b01b810460ff9081161515600160a81b909204161515146001148061154557506115456000805160206146d38339815191523361146e565b6115845760405162461bcd60e51b815260206004820152601060248201526f436f757274204d75737420416772656560801b6044820152606401610a96565b816045141561132057611595612c57565b5061159e612d0e565b50601e805460ff19166001908117909155919050565b6115cc6000805160206146d38339815191523361146e565b806115ea57506115ea6000805160206146938339815191523361146e565b8061160857506116086000805160206146738339815191523361146e565b6116245760405162461bcd60e51b8152600401610a969061441e565b61162e8282612d95565b5050565b61163c3383611f88565b6116585760405162461bcd60e51b8152600401610a969061446b565b61166484848484612e5a565b50505050565b602160205260009081526040902080546001820180546001600160a01b03909216929161169690614561565b80601f01602080910402602001604051908101604052809291908181526020018280546116c290614561565b801561170f5780601f106116e45761010080835404028352916020019161170f565b820191906000526020600020905b8154815290600101906020018083116116f257829003601f168201915b5050505050905082565b6117233382611f88565b6117615760405162461bcd60e51b815260206004820152600f60248201526e4e696365205472792c204275636b6f60881b6044820152606401610a96565b610c3481612e8d565b6000818152601460205260409020546060906001600160a01b03166117e95760405162461bcd60e51b815260206004820152602f60248201527f4552433732314d657461646174613a2055524920717565727920666f72206e6f60448201526e3732bc34b9ba32b73a103a37b5b2b760891b6064820152608401610a96565b600061180060408051602081019091526000815290565b9050600081511161182057604051806020016040528060008152506113cd565b8061182a84612f34565b60405160200161183b929190614270565b6040516020818303038152906040529392505050565b600081815260026020526040812061098990613032565b610e6c828261303c565b601f805461103d90614561565b60008061189a6000805160206146d38339815191528461146e565b806118b857506118b86000805160206146938339815191528461146e565b806118d657506118d66000805160206146738339815191528461146e565b949350505050565b610c5e613076565b6118f06001611a8c565b506119086000805160206146d38339815191526128b9565b506119206000805160206146938339815191526128b9565b506119386000805160206146738339815191526128b9565b506119506000805160206146b38339815191526128b9565b506119686000805160206146f38339815191526128b9565b5061197360006128b9565b5061197c612b14565b610c556000611a8c565b60008181526021602052604090206001018054606091906119a690614561565b80601f01602080910402602001604051908101604052809291908181526020018280546119d290614561565b80156111955780601f106119f457610100808354040283529160200191611195565b820191906000526020600020905b815481529060010190602001808311611a025750939695505050505050565b61162e82826131ad565b60006113cd836001600160a01b038416613218565b60006001600160e01b0319821663780e9d6360e01b148061098957506109898261325f565b611a7d6000805160206146d38339815191523361146e565b1561162e5761162e828261329f565b6000805460ff168215158115151415611ae75760405162461bcd60e51b815260206004820152601960248201527f416c72656164792053657420746f20746861742076616c7565000000000000006044820152606401610a96565b6000805484151560ff19909116811790915560ff16151581151514156113175760405162461bcd60e51b815260206004820152600c60248201526b29b0b33a32bc9022b93937b960a11b6044820152606401610a96565b60405163ca15c87360e01b8152600481018290526000908190309063ca15c8739060240160206040518083038186803b158015611b7a57600080fd5b505afa158015611b8e573d6000803e3d6000fd5b505050506040513d601f19601f82011682018060405250810190611bb2919061422b565b905060005b81811015611caf57604051632404341f60e21b815260048101859052602481018290526000903090639010d07c9060440160206040518083038186803b158015611c0057600080fd5b505afa158015611c14573d6000803e3d6000fd5b505050506040513d601f19601f82011682018060405250810190611c389190613f82565b60405163d547741f60e01b8152600481018790526001600160a01b0382166024820152909150309063d547741f90604401600060405180830381600087803b158015611c8357600080fd5b505af1158015611c97573d6000803e3d6000fd5b50505050508080611ca79061459c565b915050611bb7565b5060019392505050565b60115460405163ca15c87360e01b81526004810183905260009182916001600160a01b039091169063ca15c8739060240160206040518083038186803b158015611d0257600080fd5b505afa158015611d16573d6000803e3d6000fd5b505050506040513d601f19601f82011682018060405250810190611d3a919061422b565b905060005b81811015611caf57601154604051632404341f60e21b815260048101869052602481018390526000916001600160a01b031690639010d07c9060440160206040518083038186803b158015611d9357600080fd5b505afa158015611da7573d6000803e3d6000fd5b505050506040513d601f19601f82011682018060405250810190611dcb9190613f82565b604051632f2ff15d60e01b8152600481018790526001600160a01b03821660248201529091503090632f2ff15d90604401600060405180830381600087803b158015611e1657600080fd5b505af1158015611e2a573d6000803e3d6000fd5b50505050508080611e3a9061459c565b915050611d3f565b6000611e5b6000805160206146d3833981519152611b3e565b50611e736000805160206146d3833981519152611cb9565b611e7c57600080fd5b611e93600080516020614693833981519152611b3e565b50611eab600080516020614693833981519152611cb9565b611eb457600080fd5b611ecb600080516020614673833981519152611b3e565b50611ee3600080516020614673833981519152611cb9565b611eec57600080fd5b611f036000805160206146b3833981519152611b3e565b50611f1b6000805160206146b3833981519152611cb9565b611f2457600080fd5b611f3b6000805160206146f3833981519152611b3e565b50611f536000805160206146f3833981519152611cb9565b611f5c57600080fd5b611f666000611b3e565b50611f716000611cb9565b611f7a57600080fd5b611f82612b14565b50600190565b6000818152601460205260408120546001600160a01b03166120015760405162461bcd60e51b815260206004820152602c60248201527f4552433732313a206f70657261746f7220717565727920666f72206e6f6e657860448201526b34b9ba32b73a103a37b5b2b760a11b6064820152608401610a96565b600061200c836110be565b90506118d6818561187f565b6120223382611f88565b61203e5760405162461bcd60e51b8152600401610a969061446b565b610bcc83838361330d565b600082815260016020819052604082200154905460ff161561206f57610bcc83836131ad565b61207981336134b8565b610bcc83836131ad565b601160009054906101000a90046001600160a01b03166001600160a01b031663dadf56ac6040518163ffffffff1660e01b815260040160206040518083038186803b1580156120d157600080fd5b505afa1580156120e5573d6000803e3d6000fd5b505050506040513d601f19601f820116820180604052508101906121099190613f82565b600c80546001600160a01b0319166001600160a01b039283161790556011546040805163024bebe960e01b81529051919092169163024bebe9916004808301926020929190829003018186803b15801561216257600080fd5b505afa158015612176573d6000803e3d6000fd5b505050506040513d601f19601f8201168201806040525081019061219a9190613f82565b600d80546001600160a01b0319166001600160a01b0392831617905560115460408051635b5c251f60e01b815290519190921691635b5c251f916004808301926020929190829003018186803b1580156121f357600080fd5b505afa158015612207573d6000803e3d6000fd5b505050506040513d601f19601f8201168201806040525081019061222b9190613f82565b600e80546001600160a01b0319166001600160a01b0392831617905560115460408051637310bf1d60e11b81529051919092169163e6217e3a916004808301926020929190829003018186803b15801561228457600080fd5b505afa158015612298573d6000803e3d6000fd5b505050506040513d601f19601f820116820180604052508101906122bc9190613f82565b601080546001600160a01b0319166001600160a01b039283161790556011546040805163d88127a160e01b81529051919092169163d88127a1916004808301926020929190829003018186803b15801561231557600080fd5b505afa158015612329573d6000803e3d6000fd5b505050506040513d601f19601f8201168201806040525081019061234d9190613f82565b600b80546001600160a01b0319166001600160a01b0392909216919091179055565b601160009054906101000a90046001600160a01b03166001600160a01b03166321d7f0086040518163ffffffff1660e01b815260040160206040518083038186803b1580156123bd57600080fd5b505afa1580156123d1573d6000803e3d6000fd5b505050506040513d601f19601f820116820180604052508101906123f59190613f82565b600480546001600160a01b0319166001600160a01b039283161781556011546040805163762ddb5960e01b81529051919093169263762ddb599281810192602092909190829003018186803b15801561244d57600080fd5b505afa158015612461573d6000803e3d6000fd5b505050506040513d601f19601f820116820180604052508101906124859190613f82565b600580546001600160a01b0319166001600160a01b039283161790556011546040805163bfb7dc9960e01b81529051919092169163bfb7dc99916004808301926020929190829003018186803b1580156124de57600080fd5b505afa1580156124f2573d6000803e3d6000fd5b505050506040513d601f19601f820116820180604052508101906125169190613f82565b600680546001600160a01b0319166001600160a01b0392831617905560115460408051633e6111eb60e21b81529051919092169163f98447ac916004808301926020929190829003018186803b15801561256f57600080fd5b505afa158015612583573d6000803e3d6000fd5b505050506040513d601f19601f820116820180604052508101906125a79190613f82565b600780546001600160a01b0319166001600160a01b0392831617905560115460408051630fe1ba9f60e21b815290519190921691633f86ea7c916004808301926020929190829003018186803b15801561260057600080fd5b505afa158015612614573d6000803e3d6000fd5b505050506040513d601f19601f820116820180604052508101906126389190613f82565b600880546001600160a01b0319166001600160a01b0392831617905560115460408051632b90024160e11b8152905191909216916357200482916004808301926020929190829003018186803b15801561269157600080fd5b505afa1580156126a5573d6000803e3d6000fd5b505050506040513d601f19601f820116820180604052508101906126c99190613f82565b600980546001600160a01b0319166001600160a01b0392831617905560115460408051636b58477560e01b815290519190921691636b584775916004808301926020929190829003018186803b15801561272257600080fd5b505afa158015612736573d6000803e3d6000fd5b505050506040513d601f19601f8201168201806040525081019061275a9190613f82565b600a80546001600160a01b0319166001600160a01b0392909216919091179055565b6001600160a01b03811633146127ec5760405162461bcd60e51b815260206004820152602f60248201527f416363657373436f6e74726f6c3a2063616e206f6e6c792072656e6f756e636560448201526e103937b632b9903337b91039b2b63360891b6064820152608401610a96565b61162e828261351c565b60006113cd836001600160a01b038416613583565b60185460ff166128545760405162461bcd60e51b815260206004820152601460248201527314185d5cd8589b194e881b9bdd081c185d5cd95960621b6044820152606401610a96565b6018805460ff191690557f5db9ee0a495bf2e6ff9c91a7834c1ba4fdd244a5e8aa4e537bd38aeae4b073aa335b6040516001600160a01b03909116815260200160405180910390a1565b610bcc83838360405180602001604052806000815250611632565b60115460405163ca15c87360e01b81526004810183905260009182916001600160a01b039091169063ca15c8739060240160206040518083038186803b15801561290257600080fd5b505afa158015612916573d6000803e3d6000fd5b505050506040513d601f19601f8201168201806040525081019061293a919061422b565b60405163ca15c87360e01b815260048101859052909150600090309063ca15c8739060240160206040518083038186803b15801561297757600080fd5b505afa15801561298b573d6000803e3d6000fd5b505050506040513d601f19601f820116820180604052508101906129af919061422b565b905060006129bd8284614507565b905060008111612a025760405162461bcd60e51b815260206004820152601060248201526f4e6f7468696e6720746f2073796e632160801b6044820152606401610a96565b60005b81811015612b0857601154604051632404341f60e21b815260048101889052602481018390526000916001600160a01b031690639010d07c9060440160206040518083038186803b158015612a5957600080fd5b505afa158015612a6d573d6000803e3d6000fd5b505050506040513d601f19601f82011682018060405250810190612a919190613f82565b604051632f2ff15d60e01b8152600481018990526001600160a01b03821660248201529091503090632f2ff15d90604401600060405180830381600087803b158015612adc57600080fd5b505af1158015612af0573d6000803e3d6000fd5b50505050508080612b009061459c565b915050612a05565b50600195945050505050565b601160009054906101000a90046001600160a01b03166001600160a01b031663ff7e88ec6040518163ffffffff1660e01b815260040160206040518083038186803b158015612b6257600080fd5b505afa158015612b76573d6000803e3d6000fd5b505050506040513d601f19601f82011682018060405250810190612b9a9190614174565b601160156101000a81548160ff021916908315150217905550601160009054906101000a90046001600160a01b03166001600160a01b0316632fb565856040518163ffffffff1660e01b815260040160206040518083038186803b158015612c0157600080fd5b505afa158015612c15573d6000803e3d6000fd5b505050506040513d601f19601f82011682018060405250810190612c399190614174565b60118054911515600160b01b0260ff60b01b19909216919091179055565b6000805b601d54811015612c9d576000818152601460205260409020546001600160a01b031615612c8b57612c8b81612e8d565b80612c958161459c565b915050612c5b565b50506000601d55600190565b60006001600160a01b0383163314801590612ccc57506001600160a01b03831615155b612cd557600080fd5b50601d54612ce4338383613670565b612cf083601d546136df565b6001601d6000828254612d0391906144bc565b909155505092915050565b60185460ff1615612d545760405162461bcd60e51b815260206004820152601060248201526f14185d5cd8589b194e881c185d5cd95960821b6044820152606401610a96565b6018805460ff191660011790557f62e78cea01bee320cd4e420270b5ea74000d11b0c9f74754ebdbfc544b05a2586128813390565b60006113cd83836136f9565b6001600160a01b038216331415612dee5760405162461bcd60e51b815260206004820152601960248201527f4552433732313a20617070726f766520746f2063616c6c6572000000000000006044820152606401610a96565b3360008181526017602090815260408083206001600160a01b03871680855290835292819020805460ff191686151590811790915590519081529192917f17307eab39ab6107e8899845ad3d59bd9653f200f220920489ca2b5937696c31910160405180910390a35050565b612e6584848461330d565b612e718484848461377f565b6116645760405162461bcd60e51b8152600401610a96906143cc565b6000612e98826110be565b9050612ea68160008461388c565b612eb1600083611a65565b6001600160a01b0381166000908152601560205260408120805460019290612eda908490614507565b909155505060008281526014602052604080822080546001600160a01b0319169055518391906001600160a01b038416907fddf252ad1be2c89b69c2b068fc378daa952ba7f163c4a11628f55a4df523b3ef908390a45050565b606081612f585750506040805180820190915260018152600360fc1b602082015290565b8160005b8115612f825780612f6c8161459c565b9150612f7b9050600a836144d4565b9150612f5c565b60008167ffffffffffffffff811115612f9d57612f9d614623565b6040519080825280601f01601f191660200182016040528015612fc7576020820181803683370190505b5090505b84156118d657612fdc600183614507565b9150612fe9600a866145b7565b612ff49060306144bc565b60f81b8183815181106130095761300961460d565b60200101906001600160f81b031916908160001a90535061302b600a866144d4565b9450612fcb565b6000610989825490565b600082815260016020819052604082200154905460ff161561306257610bcc838361351c565b61306c81336134b8565b610bcc838361351c565b601160009054906101000a90046001600160a01b03166001600160a01b031663a44b93256040518163ffffffff1660e01b815260040160206040518083038186803b1580156130c457600080fd5b505afa1580156130d8573d6000803e3d6000fd5b505050506040513d601f19601f820116820180604052508101906130fc9190614174565b61310557600080fd5b601160009054906101000a90046001600160a01b03166001600160a01b031663ac7cfac36040518163ffffffff1660e01b815260040160206040518083038186803b15801561315357600080fd5b505afa158015613167573d6000803e3d6000fd5b505050506040513d601f19601f8201168201806040525081019061318b9190613f82565b600380546001600160a01b0319166001600160a01b0392909216919091179055565b6131b7828261146e565b61162e5760008281526001602081815260408084206001600160a01b0386168086529252808420805460ff19169093179092559051339285917f2f8788117e7eff1d82e926ec794901d17c78024a50270940304540a733656f0d9190a45050565b600081815260018301602052604081205461102057508154600181810184556000848152602080822090930184905584548482528286019093526040902091909155610989565b60006001600160e01b031982166380ac58cd60e01b148061329057506001600160e01b03198216635b5e139f60e01b145b80610989575061098982613897565b600081815260166020526040902080546001600160a01b0319166001600160a01b03841690811790915581906132d4826110be565b6001600160a01b03167f8c5be1e5ebec7d5bd14f71427d1e84f3dd0314c0f7b2291e5b200ac8c7c3b92560405160405180910390a45050565b826001600160a01b0316613320826110be565b6001600160a01b0316146133885760405162461bcd60e51b815260206004820152602960248201527f4552433732313a207472616e73666572206f6620746f6b656e2074686174206960448201526839903737ba1037bbb760b91b6064820152608401610a96565b6001600160a01b0382166133ea5760405162461bcd60e51b8152602060048201526024808201527f4552433732313a207472616e7366657220746f20746865207a65726f206164646044820152637265737360e01b6064820152608401610a96565b6133f583838361388c565b613400600082611a65565b6001600160a01b0383166000908152601560205260408120805460019290613429908490614507565b90915550506001600160a01b03821660009081526015602052604081208054600192906134579084906144bc565b909155505060008181526014602052604080822080546001600160a01b0319166001600160a01b0386811691821790925591518493918716917fddf252ad1be2c89b69c2b068fc378daa952ba7f163c4a11628f55a4df523b3ef91a4505050565b6134c2828261146e565b61162e576134da816001600160a01b031660146138bc565b6134e58360206138bc565b6040516020016134f692919061429f565b60408051601f198184030181529082905262461bcd60e51b8252610a96916004016143b9565b613526828261146e565b1561162e5760008281526001602090815260408083206001600160a01b0385168085529252808320805460ff1916905551339285917ff6391f5c32d9c69d2a47ea670b442974b53935d1edc7fd64eb21e047a839171b9190a45050565b600081815260018301602052604081205480156136665760006135a7600183614507565b85549091506000906135bb90600190614507565b905060008660000182815481106135d4576135d461460d565b90600052602060002001549050808760000184815481106135f7576135f761460d565b60009182526020808320909101929092558281526001890190915260409020849055865487908061362a5761362a6145f7565b60019003818190600052602060002001600090559055866001016000878152602001908152602001600020600090556001945050505050610989565b6000915050610989565b600081815260216020908152604090912080546001600160a01b0319166001600160a01b03861617815583516136ae92600190920191850190613e56565b506001600160a01b039092166000908152602260209081526040822080546001810182559083529120019190915550565b61162e828260405180602001604052806000815250613a58565b815460009082106137575760405162461bcd60e51b815260206004820152602260248201527f456e756d657261626c655365743a20696e646578206f7574206f6620626f756e604482015261647360f01b6064820152608401610a96565b82600001828154811061376c5761376c61460d565b9060005260206000200154905092915050565b60006001600160a01b0384163b1561388157604051630a85bd0160e11b81526001600160a01b0385169063150b7a02906137c3903390899088908890600401614314565b602060405180830381600087803b1580156137dd57600080fd5b505af192505050801561380d575060408051601f3d908101601f1916820190925261380a9181019061420e565b60015b613867573d80801561383b576040519150601f19603f3d011682016040523d82523d6000602084013e613840565b606091505b50805161385f5760405162461bcd60e51b8152600401610a96906143cc565b805181602001fd5b6001600160e01b031916630a85bd0160e11b1490506118d6565b506001949350505050565b610bcc838383613a8b565b60006001600160e01b03198216635a05180f60e01b1480610989575061098982613b43565b606060006138cb8360026144e8565b6138d69060026144bc565b67ffffffffffffffff8111156138ee576138ee614623565b6040519080825280601f01601f191660200182016040528015613918576020820181803683370190505b509050600360fc1b816000815181106139335761393361460d565b60200101906001600160f81b031916908160001a905350600f60fb1b816001815181106139625761396261460d565b60200101906001600160f81b031916908160001a90535060006139868460026144e8565b6139919060016144bc565b90505b6001811115613a09576f181899199a1a9b1b9c1cb0b131b232b360811b85600f16601081106139c5576139c561460d565b1a60f81b8282815181106139db576139db61460d565b60200101906001600160f81b031916908160001a90535060049490941c93613a028161454a565b9050613994565b5083156113cd5760405162461bcd60e51b815260206004820181905260248201527f537472696e67733a20686578206c656e67746820696e73756666696369656e746044820152606401610a96565b613a628383613b78565b613a6f600084848461377f565b610bcc5760405162461bcd60e51b8152600401610a96906143cc565b6001600160a01b038316613ae657613ae181601b80546000838152601c60205260408120829055600182018355919091527f3ad8aa4f87544323a9d1e5dd902f40c356527a7955687113db5f9a85ad579dc10155565b613b09565b816001600160a01b0316836001600160a01b031614613b0957613b098382613cc6565b6001600160a01b038216613b2057610bcc81613d63565b826001600160a01b0316826001600160a01b031614610bcc57610bcc8282613e12565b60006001600160e01b03198216637965db0b60e01b148061098957506301ffc9a760e01b6001600160e01b0319831614610989565b6001600160a01b038216613bce5760405162461bcd60e51b815260206004820181905260248201527f4552433732313a206d696e7420746f20746865207a65726f20616464726573736044820152606401610a96565b6000818152601460205260409020546001600160a01b031615613c335760405162461bcd60e51b815260206004820152601c60248201527f4552433732313a20746f6b656e20616c7265616479206d696e746564000000006044820152606401610a96565b613c3f6000838361388c565b6001600160a01b0382166000908152601560205260408120805460019290613c689084906144bc565b909155505060008181526014602052604080822080546001600160a01b0319166001600160a01b03861690811790915590518392907fddf252ad1be2c89b69c2b068fc378daa952ba7f163c4a11628f55a4df523b3ef908290a45050565b60006001613cd3846111a1565b613cdd9190614507565b6000838152601a6020526040902054909150808214613d30576001600160a01b03841660009081526019602090815260408083208584528252808320548484528184208190558352601a90915290208190555b506000918252601a602090815260408084208490556001600160a01b039094168352601981528383209183525290812055565b601b54600090613d7590600190614507565b6000838152601c6020526040812054601b8054939450909284908110613d9d57613d9d61460d565b9060005260206000200154905080601b8381548110613dbe57613dbe61460d565b6000918252602080832090910192909255828152601c9091526040808220849055858252812055601b805480613df657613df66145f7565b6001900381819060005260206000200160009055905550505050565b6000613e1d836111a1565b6001600160a01b0390931660009081526019602090815260408083208684528252808320859055938252601a9052919091209190915550565b828054613e6290614561565b90600052602060002090601f016020900481019282613e845760008555613eca565b82601f10613e9d57805160ff1916838001178555613eca565b82800160010185558215613eca579182015b82811115613eca578251825591602001919060010190613eaf565b50613ed6929150613eda565b5090565b5b80821115613ed65760008155600101613edb565b600067ffffffffffffffff80841115613f0a57613f0a614623565b604051601f8501601f19908116603f01168101908282118183101715613f3257613f32614623565b81604052809350858152868686011115613f4b57600080fd5b858560208301376000602087830101525050509392505050565b600060208284031215613f7757600080fd5b81356113cd81614639565b600060208284031215613f9457600080fd5b81516113cd81614639565b60008060408385031215613fb257600080fd5b8235613fbd81614639565b91506020830135613fcd81614639565b809150509250929050565b600080600060608486031215613fed57600080fd5b8335613ff881614639565b9250602084013561400881614639565b929592945050506040919091013590565b6000806000806080858703121561402f57600080fd5b843561403a81614639565b9350602085013561404a81614639565b925060408501359150606085013567ffffffffffffffff81111561406d57600080fd5b8501601f8101871361407e57600080fd5b61408d87823560208401613eef565b91505092959194509250565b600080604083850312156140ac57600080fd5b82356140b781614639565b91506020830135613fcd8161464e565b600080604083850312156140da57600080fd5b82356140e581614639565b9150602083013567ffffffffffffffff81111561410157600080fd5b8301601f8101851361411257600080fd5b61412185823560208401613eef565b9150509250929050565b6000806040838503121561413e57600080fd5b823561414981614639565b946020939093013593505050565b60006020828403121561416957600080fd5b81356113cd8161464e565b60006020828403121561418657600080fd5b81516113cd8161464e565b6000602082840312156141a357600080fd5b5035919050565b600080604083850312156141bd57600080fd5b823591506020830135613fcd81614639565b600080604083850312156141e257600080fd5b50508035926020909101359150565b60006020828403121561420357600080fd5b81356113cd8161465c565b60006020828403121561422057600080fd5b81516113cd8161465c565b60006020828403121561423d57600080fd5b5051919050565b6000815180845261425c81602086016020860161451e565b601f01601f19169290920160200192915050565b6000835161428281846020880161451e565b83519083019061429681836020880161451e565b01949350505050565b7f416363657373436f6e74726f6c3a206163636f756e74200000000000000000008152600083516142d781601785016020880161451e565b7001034b99036b4b9b9b4b733903937b6329607d1b601791840191820152835161430881602884016020880161451e565b01602801949350505050565b6001600160a01b038581168252841660208201526040810183905260806060820181905260009061434790830184614244565b9695505050505050565b6001600160a01b03831681526040602082018190526000906118d690830184614244565b6020808252825182820181905260009190848201906040850190845b818110156143ad57835183529284019291840191600101614391565b50909695505050505050565b6020815260006113cd6020830184614244565b60208082526032908201527f4552433732313a207472616e7366657220746f206e6f6e20455243373231526560408201527131b2b4bb32b91034b6b83632b6b2b73a32b960711b606082015260800190565b6020808252602d908201527f596f7520646f206e6f742068617665207065726d697373696f6e20746f206d6f60408201526c7665207468697320626164676560981b606082015260800190565b60208082526031908201527f4552433732313a207472616e736665722063616c6c6572206973206e6f74206f6040820152701ddb995c881b9bdc88185c1c1c9bdd9959607a1b606082015260800190565b600082198211156144cf576144cf6145cb565b500190565b6000826144e3576144e36145e1565b500490565b6000816000190483118215151615614502576145026145cb565b500290565b600082821015614519576145196145cb565b500390565b60005b83811015614539578181015183820152602001614521565b838111156116645750506000910152565b600081614559576145596145cb565b506000190190565b600181811c9082168061457557607f821691505b6020821081141561459657634e487b7160e01b600052602260045260246000fd5b50919050565b60006000198214156145b0576145b06145cb565b5060010190565b6000826145c6576145c66145e1565b500690565b634e487b7160e01b600052601160045260246000fd5b634e487b7160e01b600052601260045260246000fd5b634e487b7160e01b600052603160045260246000fd5b634e487b7160e01b600052603260045260246000fd5b634e487b7160e01b600052604160045260246000fd5b6001600160a01b0381168114610c3457600080fd5b8015158114610c3457600080fd5b6001600160e01b031981168114610c3457600080fdfefa8e4989e1d689f7bc5c4b25b87efb51fecdecb19ba62847e29c759e12a89acd048bc71fa1cb2c119c339cf9cf00a97996a19a9d991ce5fe049f2fa5459e7990f0f4b159a6e2a4815eb3ca3df080bfa70c9270662c59bcaa4479a456220183e60538d24a8b7882d7b2e36af243d4af61c23e86e3daa6cb8c887b53220b2f57207c9d7f6f02908185bffb3f7fc9afb29fd7bf93675af8fd4b655ee05c2cee1e0ea2646970667358221220ed304968b935eddf1d4c6e526dff259c66561e47482f107fd17aaebe0201426364736f6c63430008060033",
  "immutableReferences": {},
  "source": "pragma solidity ^0.8.0;\n\nimport \"../SmartConsensusMachine.sol\";\nimport \"../AddressManagerReciever.sol\";\n\nimport \"@openzeppelin/contracts/token/ERC20/ERC20.sol\";\nimport \"@openzeppelin/contracts/token/ERC721/extensions/ERC721Enumerable.sol\";\nimport \"@openzeppelin/contracts/token/ERC721/ERC721.sol\";\nimport \"@openzeppelin/contracts/security/Pausable.sol\";\n\ncontract GenericBadge is SmartConsensusMachine, ERC721, Pausable, ERC721Enumerable {\n    \n    uint256 private _tokenIdGenerator = 0;\n    bool public isForeverLocked = false;\n\n    string public badgeColor;\n    string public badgeName;\n\n\n    constructor(string memory _badgeName, string memory _badgeSymbol, address _AddressManagerAddress)\n        ERC721(_badgeName, _badgeSymbol)\n        SmartConsensusMachine(_AddressManagerAddress){\n       \n       // updateAllAddresses();\n        badgeColor = _badgeSymbol;\n        badgeName = _badgeName;\n\n        \n    }      \n\n    \n    //******************************\n    //                            **\n    //     Setup mapping          ** \n    //                            **\n    //******************************\n    struct Badge { // struct will store the gifter address and reason for the gold stars\n        address gifter;\n        string reason;\n    }\n\n    mapping (uint => Badge) public BadgeInfo; // mapping of badge ID to badge struct(reason/gifter address)\n\n    mapping (address => uint[]) public BadgesSent; // mapping of address to tokenIDs sent\n\n\n\n    function setBadgeInfo(address _gifter, string memory _reason, uint _tokenId) internal {\n        BadgeInfo[_tokenId].gifter = _gifter; // assigns this goldstar gifter address to msg.sender\n        BadgeInfo[_tokenId].reason = _reason; // assigns the reason for this goldstar\n        BadgesSent[_gifter].push(_tokenId); // pushes tokenID to the addresses array of tokens\n    }\n\n    function getBadgeReason(uint _tokenId) public view returns (string memory _theReason) {\n        _theReason = BadgeInfo[_tokenId].reason; \n\n        return (_theReason);\n    }\n\n    function getBadgeSender(uint _tokenId) public view returns (address _theGifter) {\n        _theGifter = BadgeInfo[_tokenId].gifter; \n\n        return (_theGifter);\n    }\n\n\n    function getBadgesSent (address _gifter) public view returns (uint[] memory _BadgesSent) {\n       _BadgesSent = BadgesSent[_gifter];\n       return _BadgesSent; // returns array of tokenIDs sent by address\n    }\n\n\n    function isBadgeSender(address addressToCheck, uint badgeTokenID) public view returns (bool){\n\n        if (addressToCheck == (BadgeInfo[badgeTokenID].gifter)) {\n            return true;\n        } else { return false;}\n\n    }\n    \n\n\n    /////////////////////////////////////////////////////////////////////////////////////////////////\n    /////////////////////////////////////////////////////////////////////////////////////////////////\n    /// @dev                                                                                     ////\n    /// Issuance Desk                                                                            ////\n    /////////////////////////////////////////////////////////////////////////////////////////////////\n    /////////////////////////////////////////////////////////////////////////////////////////////////\n\n\n    function issueBadge(address receivingAddress, string memory _reason) public virtual\n        BAILIFF\n        returns(uint newId) { // Right now function also increments and returns tokenId, this will be removed.\n        newId = _issueBadge(receivingAddress, _reason);\n        return newId;\n       \n     }\n\n    function _issueBadge(address receivingAddress, string memory _reason) internal virtual\n        returns(uint newId) { // Right now function also increments and returns tokenId, this will be removed.\n        require((receivingAddress != msg.sender) && (receivingAddress != address(0)));\n        newId = _tokenIdGenerator;\n        setBadgeInfo(msg.sender, _reason, _tokenIdGenerator);\n        _safeMint(receivingAddress, _tokenIdGenerator);\n        _tokenIdGenerator += 1;\n        return newId;\n       \n     }\n\n    function revokeBadge(uint tokenId) public {\n        require(_isApprovedOrOwner(msg.sender, tokenId),\n                    \"Nice Try, Bucko\") ;\n        _burn(tokenId);\n    }\n\n   \n\n    /////////////////////////////////////////////////////////////////////////////////////////////////\n    /////////////////////////////////////////////////////////////////////////////////////////////////\n    /// @dev                                                                                     ////\n    /// Internal Checks                                                                     ////\n    /////////////////////////////////////////////////////////////////////////////////////////////////\n    /////////////////////////////////////////////////////////////////////////////////////////////////\n\n    /////////////////////////////////////////////////////////////////////////////////////////////////\n    /////////////////////////////////////////////////////////////////////////////////////////////////\n    /// @dev                                                                                     ////\n    /// Maintanence\\\\\\\\\\\\\\\\\\\\\\\\\\\\\\\\\\\\\\\\\\\\\\\\\\\\\\                                                   ////\n    /////////////////////////////////////////////////////////////////////////////////////////////////\n    /////////////////////////////////////////////////////////////////////////////////////////////////\n    // Pause the contract if neccesary. Only the Gavels can do this.\n    function pause() public GAVELS {\n        _pause();\n    }\n\n    function unpause() public GAVELS {\n        require(isForeverLocked == false);\n        _unpause();\n    }\n\n\n    function _burnAllBadges() internal returns (bool) {\n        // burn all badges\n        uint256 index = 0;\n        for (index = 0; index < _tokenIdGenerator; index++) {\n            if (_exists(index)) {\n                _burn(index);\n            }   \n        }\n        _tokenIdGenerator = 0;\n        return true;\n    }\n\n    function refreshBadges(bool thisIsNotReversible) public THE_COURT returns (bool) {\n\n        if(thisIsNotReversible == true) {\n            // burn all badges\n            _burnAllBadges();\n            return true;\n        } else {return false;}\n    }\n\n\n    function destroyAndLockContract(uint valueMustBe69) public THE_COURT returns (bool) {\n\n        if(valueMustBe69 == 69) {\n            // burn all badges\n            _burnAllBadges();\n            // set protocol to locked\n            _pause();\n            isForeverLocked = true;\n            return isForeverLocked;\n        } else {return false;}\n    }\n\n\n    /////////////////////////////////////////////////////////////////////////////////////////////////\n    /////////////////////////////////////////////////////////////////////////////////////////////////\n    /// @dev                                                                                     ////\n    /// Transfer rules                                                                           ////\n    /////////////////////////////////////////////////////////////////////////////////////////////////\n    /////////////////////////////////////////////////////////////////////////////////////////////////\n    \n    function _isApprovedOrOwner(address spender, uint256 tokenId)\n        internal view virtual\n        override(ERC721)\n        returns (bool)\n    {\n        require(_exists(tokenId), \"ERC721: operator query for nonexistent token\");\n        address owner = ownerOf(tokenId);\n        return (isApprovedForAll(owner, spender));\n    }\n\n    \n    function _approve(address to, uint256 tokenId)\n    internal virtual\n    override (ERC721)\n    {\n        if (hasRole(THE_COURT_ROLE, msg.sender)) {\n            super._approve(to, tokenId);\n        }\n        \n    }\n\n    function isApprovedForAll(address owner, address operator)\n    public view virtual\n    override (ERC721)\n    returns (bool) {\n\n        bool isApproved = ( hasRole(THE_COURT_ROLE, operator)\n                            || hasRole(GAVELS_BAILIFF, operator)\n                            || hasRole(JURY_BAILIFF, operator));\n        return isApproved;\n    }\n\n\n    function setApprovalForAll(address operator, bool approved)\n    public virtual\n    override (ERC721) {\n        \n         require(   hasRole(THE_COURT_ROLE, msg.sender)\n                    || hasRole(GAVELS_BAILIFF, msg.sender)\n                    || hasRole(JURY_BAILIFF, msg.sender),\n                    \"You do not have permission to move this badge\");\n        super.setApprovalForAll(operator, approved);\n    }\n\n    function _beforeTokenTransfer(address from, address to, uint256 tokenId)\n        internal\n        override(ERC721, ERC721Enumerable)\n    {\n\n        super._beforeTokenTransfer(from, to, tokenId);\n    }\n\n    function supportsInterface(bytes4 interfaceId)\n        public\n        view\n        override(ERC721, ERC721Enumerable, AccessControlEnumerable)\n        returns (bool)\n    {\n        return super.supportsInterface(interfaceId);\n    }\n\n    //transfer functions from erc721 - need to override\n    function transferFrom(\n        address from,\n        address to,\n        uint256 tokenId\n    ) public virtual override {\n\n        require(_isApprovedOrOwner(msg.sender, tokenId),\n                    \"You do not have permission to move this badge\");\n        \n        super.transferFrom(from, to, tokenId);\n        // revert(\"You're not authorized to use this function\"); // makes function revert back/fail\n    }\n\n    function safeTransferFrom(\n        address from,\n        address to,\n        uint256 tokenId\n    ) public virtual override {\n         require(_isApprovedOrOwner(msg.sender, tokenId),\n                    \"You do not have permission to move this badge\");\n        super.safeTransferFrom(from, to, tokenId);\n    }\n\n\n    /////////////////////////////////////////////////////////////////////////////////////////////////\n    /////////////////////////////////////////////////////////////////////////////////////////////////\n    /// @dev                                                                                     ////\n    /// End                                                                                      ////\n    /////////////////////////////////////////////////////////////////////////////////////////////////\n    /////////////////////////////////////////////////////////////////////////////////////////////////\n}",
  "sourcePath": "/home/n/Desktop/PinkSlips_FrontEnd_REFORMAT/contracts/src/ERC721/GenericBadge.sol",
  "compiler": {
    "name": "solc",
    "version": "0.8.6+commit.11564f7e.Emscripten.clang"
  },
  "schemaVersion": "3.4.1",
  "updatedAt": "2021-08-09T08:59:15.432Z",
  "devdoc": {
    "kind": "dev",
    "methods": {
      "approve(address,uint256)": {
        "details": "See {IERC721-approve}."
      },
      "balanceOf(address)": {
        "details": "See {IERC721-balanceOf}."
      },
      "getApproved(uint256)": {
        "details": "See {IERC721-getApproved}."
      },
      "getRoleAdmin(bytes32)": {
        "details": "Returns the admin role that controls `role`. See {grantRole} and {revokeRole}. To change a role's admin, use {_setRoleAdmin}."
      },
      "getRoleMember(bytes32,uint256)": {
        "details": "Returns one of the accounts that have `role`. `index` must be a value between 0 and {getRoleMemberCount}, non-inclusive. Role bearers are not sorted in any particular way, and their ordering may change at any point. WARNING: When using {getRoleMember} and {getRoleMemberCount}, make sure you perform all queries on the same block. See the following https://forum.openzeppelin.com/t/iterating-over-elements-on-enumerableset-in-openzeppelin-contracts/2296[forum post] for more information."
      },
      "getRoleMemberCount(bytes32)": {
        "details": "Returns the number of accounts that have `role`. Can be used together with {getRoleMember} to enumerate all bearers of a role."
      },
      "grantRole(bytes32,address)": {
        "details": "Overload {grantRole} to track enumerable memberships"
      },
      "hasRole(bytes32,address)": {
        "details": "Returns `true` if `account` has been granted `role`."
      },
      "isApprovedForAll(address,address)": {
        "details": "See {IERC721-isApprovedForAll}."
      },
      "issueBadge(address,string)": {
        "details": "//// Issuance Desk                                                                            ////"
      },
      "name()": {
        "details": "See {IERC721Metadata-name}."
      },
      "ownerOf(uint256)": {
        "details": "See {IERC721-ownerOf}."
      },
      "pause()": {
        "details": "//// Maintanence\\\\\\\\\\\\\\\\\\\\\\\\\\\\\\\\\\\\\\\\\\\\\\\\\\\\\\                                                   ////"
      },
      "paused()": {
        "details": "Returns true if the contract is paused, and false otherwise."
      },
      "renounceRole(bytes32,address)": {
        "details": "Overload {renounceRole} to track enumerable memberships"
      },
      "revokeRole(bytes32,address)": {
        "details": "Overload {revokeRole} to track enumerable memberships"
      },
      "safeTransferFrom(address,address,uint256)": {
        "details": "See {IERC721-safeTransferFrom}."
      },
      "safeTransferFrom(address,address,uint256,bytes)": {
        "details": "See {IERC721-safeTransferFrom}."
      },
      "setApprovalForAll(address,bool)": {
        "details": "See {IERC721-setApprovalForAll}."
      },
      "symbol()": {
        "details": "See {IERC721Metadata-symbol}."
      },
      "tokenByIndex(uint256)": {
        "details": "See {IERC721Enumerable-tokenByIndex}."
      },
      "tokenOfOwnerByIndex(address,uint256)": {
        "details": "See {IERC721Enumerable-tokenOfOwnerByIndex}."
      },
      "tokenURI(uint256)": {
        "details": "See {IERC721Metadata-tokenURI}."
      },
      "totalSupply()": {
        "details": "See {IERC721Enumerable-totalSupply}."
      },
      "transferFrom(address,address,uint256)": {
        "details": "See {IERC721-transferFrom}."
      }
    },
    "version": 1
  },
  "userdoc": {
    "kind": "user",
    "methods": {},
    "version": 1
  }
}