{
  "contractName": "GenericBadge",
  "abi": [
    {
      "inputs": [
        {
          "internalType": "string",
          "name": "_badgeName",
          "type": "string"
        },
        {
          "internalType": "string",
          "name": "_badgeSymbol",
          "type": "string"
        },
        {
          "internalType": "address",
          "name": "_AddressManagerAddress",
          "type": "address"
        }
      ],
      "stateMutability": "nonpayable",
      "type": "constructor"
    },
    {
      "anonymous": false,
      "inputs": [
        {
          "indexed": true,
          "internalType": "address",
          "name": "owner",
          "type": "address"
        },
        {
          "indexed": true,
          "internalType": "address",
          "name": "approved",
          "type": "address"
        },
        {
          "indexed": true,
          "internalType": "uint256",
          "name": "tokenId",
          "type": "uint256"
        }
      ],
      "name": "Approval",
      "type": "event"
    },
    {
      "anonymous": false,
      "inputs": [
        {
          "indexed": true,
          "internalType": "address",
          "name": "owner",
          "type": "address"
        },
        {
          "indexed": true,
          "internalType": "address",
          "name": "operator",
          "type": "address"
        },
        {
          "indexed": false,
          "internalType": "bool",
          "name": "approved",
          "type": "bool"
        }
      ],
      "name": "ApprovalForAll",
      "type": "event"
    },
    {
      "anonymous": false,
      "inputs": [
        {
          "indexed": false,
          "internalType": "address",
          "name": "account",
          "type": "address"
        }
      ],
      "name": "Paused",
      "type": "event"
    },
    {
      "anonymous": false,
      "inputs": [
        {
          "indexed": true,
          "internalType": "bytes32",
          "name": "role",
          "type": "bytes32"
        },
        {
          "indexed": true,
          "internalType": "bytes32",
          "name": "previousAdminRole",
          "type": "bytes32"
        },
        {
          "indexed": true,
          "internalType": "bytes32",
          "name": "newAdminRole",
          "type": "bytes32"
        }
      ],
      "name": "RoleAdminChanged",
      "type": "event"
    },
    {
      "anonymous": false,
      "inputs": [
        {
          "indexed": true,
          "internalType": "bytes32",
          "name": "role",
          "type": "bytes32"
        },
        {
          "indexed": true,
          "internalType": "address",
          "name": "account",
          "type": "address"
        },
        {
          "indexed": true,
          "internalType": "address",
          "name": "sender",
          "type": "address"
        }
      ],
      "name": "RoleGranted",
      "type": "event"
    },
    {
      "anonymous": false,
      "inputs": [
        {
          "indexed": true,
          "internalType": "bytes32",
          "name": "role",
          "type": "bytes32"
        },
        {
          "indexed": true,
          "internalType": "address",
          "name": "account",
          "type": "address"
        },
        {
          "indexed": true,
          "internalType": "address",
          "name": "sender",
          "type": "address"
        }
      ],
      "name": "RoleRevoked",
      "type": "event"
    },
    {
      "anonymous": false,
      "inputs": [
        {
          "indexed": true,
          "internalType": "address",
          "name": "from",
          "type": "address"
        },
        {
          "indexed": true,
          "internalType": "address",
          "name": "to",
          "type": "address"
        },
        {
          "indexed": true,
          "internalType": "uint256",
          "name": "tokenId",
          "type": "uint256"
        }
      ],
      "name": "Transfer",
      "type": "event"
    },
    {
      "anonymous": false,
      "inputs": [
        {
          "indexed": false,
          "internalType": "address",
          "name": "account",
          "type": "address"
        }
      ],
      "name": "Unpaused",
      "type": "event"
    },
    {
      "inputs": [],
      "name": "AddressManagerAddress",
      "outputs": [
        {
          "internalType": "address",
          "name": "",
          "type": "address"
        }
      ],
      "stateMutability": "view",
      "type": "function"
    },
    {
      "inputs": [
        {
          "internalType": "uint256",
          "name": "",
          "type": "uint256"
        }
      ],
      "name": "BadgeInfo",
      "outputs": [
        {
          "internalType": "address",
          "name": "gifter",
          "type": "address"
        },
        {
          "internalType": "string",
          "name": "reason",
          "type": "string"
        }
      ],
      "stateMutability": "view",
      "type": "function"
    },
    {
      "inputs": [
        {
          "internalType": "address",
          "name": "",
          "type": "address"
        },
        {
          "internalType": "uint256",
          "name": "",
          "type": "uint256"
        }
      ],
      "name": "BadgesSent",
      "outputs": [
        {
          "internalType": "uint256",
          "name": "",
          "type": "uint256"
        }
      ],
      "stateMutability": "view",
      "type": "function"
    },
    {
      "inputs": [],
      "name": "ChadBadgeAddress",
      "outputs": [
        {
          "internalType": "address",
          "name": "",
          "type": "address"
        }
      ],
      "stateMutability": "view",
      "type": "function"
    },
    {
      "inputs": [],
      "name": "DEFAULT_ADMIN_ROLE",
      "outputs": [
        {
          "internalType": "bytes32",
          "name": "",
          "type": "bytes32"
        }
      ],
      "stateMutability": "view",
      "type": "function"
    },
    {
      "inputs": [],
      "name": "GAVELS_BAILIFF",
      "outputs": [
        {
          "internalType": "bytes32",
          "name": "",
          "type": "bytes32"
        }
      ],
      "stateMutability": "view",
      "type": "function"
    },
    {
      "inputs": [],
      "name": "GavelDAOAgent",
      "outputs": [
        {
          "internalType": "address",
          "name": "",
          "type": "address"
        }
      ],
      "stateMutability": "view",
      "type": "function"
    },
    {
      "inputs": [],
      "name": "GavelTokenAddress",
      "outputs": [
        {
          "internalType": "address",
          "name": "",
          "type": "address"
        }
      ],
      "stateMutability": "view",
      "type": "function"
    },
    {
      "inputs": [],
      "name": "GavelVote",
      "outputs": [
        {
          "internalType": "bool",
          "name": "",
          "type": "bool"
        }
      ],
      "stateMutability": "view",
      "type": "function"
    },
    {
      "inputs": [],
      "name": "GoldStarAddress",
      "outputs": [
        {
          "internalType": "address",
          "name": "",
          "type": "address"
        }
      ],
      "stateMutability": "view",
      "type": "function"
    },
    {
      "inputs": [],
      "name": "JERK_ROLE",
      "outputs": [
        {
          "internalType": "bytes32",
          "name": "",
          "type": "bytes32"
        }
      ],
      "stateMutability": "view",
      "type": "function"
    },
    {
      "inputs": [],
      "name": "JURY_BAILIFF",
      "outputs": [
        {
          "internalType": "bytes32",
          "name": "",
          "type": "bytes32"
        }
      ],
      "stateMutability": "view",
      "type": "function"
    },
    {
      "inputs": [],
      "name": "JuryDAOAgent",
      "outputs": [
        {
          "internalType": "address",
          "name": "",
          "type": "address"
        }
      ],
      "stateMutability": "view",
      "type": "function"
    },
    {
      "inputs": [],
      "name": "JuryPoolAddress",
      "outputs": [
        {
          "internalType": "address",
          "name": "",
          "type": "address"
        }
      ],
      "stateMutability": "view",
      "type": "function"
    },
    {
      "inputs": [],
      "name": "JuryVote",
      "outputs": [
        {
          "internalType": "bool",
          "name": "",
          "type": "bool"
        }
      ],
      "stateMutability": "view",
      "type": "function"
    },
    {
      "inputs": [],
      "name": "MINI_BAILIFF_ROLE",
      "outputs": [
        {
          "internalType": "bytes32",
          "name": "",
          "type": "bytes32"
        }
      ],
      "stateMutability": "view",
      "type": "function"
    },
    {
      "inputs": [],
      "name": "MiniBailiff",
      "outputs": [
        {
          "internalType": "address",
          "name": "",
          "type": "address"
        }
      ],
      "stateMutability": "view",
      "type": "function"
    },
    {
      "inputs": [],
      "name": "PinkSlipAddress",
      "outputs": [
        {
          "internalType": "address",
          "name": "",
          "type": "address"
        }
      ],
      "stateMutability": "view",
      "type": "function"
    },
    {
      "inputs": [],
      "name": "RedPenTokenAddress",
      "outputs": [
        {
          "internalType": "address",
          "name": "",
          "type": "address"
        }
      ],
      "stateMutability": "view",
      "type": "function"
    },
    {
      "inputs": [],
      "name": "THE_COURT_ROLE",
      "outputs": [
        {
          "internalType": "bytes32",
          "name": "",
          "type": "bytes32"
        }
      ],
      "stateMutability": "view",
      "type": "function"
    },
    {
      "inputs": [],
      "name": "TheCourtAddress",
      "outputs": [
        {
          "internalType": "address",
          "name": "",
          "type": "address"
        }
      ],
      "stateMutability": "view",
      "type": "function"
    },
    {
      "inputs": [],
      "name": "TreasuryAddress",
      "outputs": [
        {
          "internalType": "address",
          "name": "",
          "type": "address"
        }
      ],
      "stateMutability": "view",
      "type": "function"
    },
    {
      "inputs": [],
      "name": "addressManager",
      "outputs": [
        {
          "internalType": "contract AddressManager",
          "name": "",
          "type": "address"
        }
      ],
      "stateMutability": "view",
      "type": "function"
    },
    {
      "inputs": [
        {
          "internalType": "address",
          "name": "to",
          "type": "address"
        },
        {
          "internalType": "uint256",
          "name": "tokenId",
          "type": "uint256"
        }
      ],
      "name": "approve",
      "outputs": [],
      "stateMutability": "nonpayable",
      "type": "function"
    },
    {
      "inputs": [],
      "name": "badgeColor",
      "outputs": [
        {
          "internalType": "string",
          "name": "",
          "type": "string"
        }
      ],
      "stateMutability": "view",
      "type": "function"
    },
    {
      "inputs": [],
      "name": "badgeName",
      "outputs": [
        {
          "internalType": "string",
          "name": "",
          "type": "string"
        }
      ],
      "stateMutability": "view",
      "type": "function"
    },
    {
      "inputs": [
        {
          "internalType": "address",
          "name": "owner",
          "type": "address"
        }
      ],
      "name": "balanceOf",
      "outputs": [
        {
          "internalType": "uint256",
          "name": "",
          "type": "uint256"
        }
      ],
      "stateMutability": "view",
      "type": "function"
    },
    {
      "inputs": [
        {
          "internalType": "uint256",
          "name": "tokenId",
          "type": "uint256"
        }
      ],
      "name": "getApproved",
      "outputs": [
        {
          "internalType": "address",
          "name": "",
          "type": "address"
        }
      ],
      "stateMutability": "view",
      "type": "function"
    },
    {
      "inputs": [
        {
          "internalType": "bytes32",
          "name": "role",
          "type": "bytes32"
        }
      ],
      "name": "getRoleAdmin",
      "outputs": [
        {
          "internalType": "bytes32",
          "name": "",
          "type": "bytes32"
        }
      ],
      "stateMutability": "view",
      "type": "function"
    },
    {
      "inputs": [
        {
          "internalType": "bytes32",
          "name": "role",
          "type": "bytes32"
        },
        {
          "internalType": "uint256",
          "name": "index",
          "type": "uint256"
        }
      ],
      "name": "getRoleMember",
      "outputs": [
        {
          "internalType": "address",
          "name": "",
          "type": "address"
        }
      ],
      "stateMutability": "view",
      "type": "function"
    },
    {
      "inputs": [
        {
          "internalType": "bytes32",
          "name": "role",
          "type": "bytes32"
        }
      ],
      "name": "getRoleMemberCount",
      "outputs": [
        {
          "internalType": "uint256",
          "name": "",
          "type": "uint256"
        }
      ],
      "stateMutability": "view",
      "type": "function"
    },
    {
      "inputs": [
        {
          "internalType": "bytes32",
          "name": "role",
          "type": "bytes32"
        },
        {
          "internalType": "address",
          "name": "account",
          "type": "address"
        }
      ],
      "name": "grantRole",
      "outputs": [],
      "stateMutability": "nonpayable",
      "type": "function"
    },
    {
      "inputs": [
        {
          "internalType": "bytes32",
          "name": "role",
          "type": "bytes32"
        },
        {
          "internalType": "address",
          "name": "account",
          "type": "address"
        }
      ],
      "name": "hasRole",
      "outputs": [
        {
          "internalType": "bool",
          "name": "",
          "type": "bool"
        }
      ],
      "stateMutability": "view",
      "type": "function"
    },
    {
      "inputs": [],
      "name": "isForeverLocked",
      "outputs": [
        {
          "internalType": "bool",
          "name": "",
          "type": "bool"
        }
      ],
      "stateMutability": "view",
      "type": "function"
    },
    {
      "inputs": [],
      "name": "jerkSanctions",
      "outputs": [
        {
          "internalType": "bool",
          "name": "",
          "type": "bool"
        }
      ],
      "stateMutability": "view",
      "type": "function"
    },
    {
      "inputs": [],
      "name": "name",
      "outputs": [
        {
          "internalType": "string",
          "name": "",
          "type": "string"
        }
      ],
      "stateMutability": "view",
      "type": "function"
    },
    {
      "inputs": [
        {
          "internalType": "uint256",
          "name": "tokenId",
          "type": "uint256"
        }
      ],
      "name": "ownerOf",
      "outputs": [
        {
          "internalType": "address",
          "name": "",
          "type": "address"
        }
      ],
      "stateMutability": "view",
      "type": "function"
    },
    {
      "inputs": [],
      "name": "paused",
      "outputs": [
        {
          "internalType": "bool",
          "name": "",
          "type": "bool"
        }
      ],
      "stateMutability": "view",
      "type": "function"
    },
    {
      "inputs": [
        {
          "internalType": "bytes32",
          "name": "role",
          "type": "bytes32"
        },
        {
          "internalType": "address",
          "name": "account",
          "type": "address"
        }
      ],
      "name": "renounceRole",
      "outputs": [],
      "stateMutability": "nonpayable",
      "type": "function"
    },
    {
      "inputs": [],
      "name": "resetVote",
      "outputs": [],
      "stateMutability": "nonpayable",
      "type": "function"
    },
    {
      "inputs": [
        {
          "internalType": "bytes32",
          "name": "role",
          "type": "bytes32"
        },
        {
          "internalType": "address",
          "name": "account",
          "type": "address"
        }
      ],
      "name": "revokeRole",
      "outputs": [],
      "stateMutability": "nonpayable",
      "type": "function"
    },
    {
      "inputs": [],
      "name": "symbol",
      "outputs": [
        {
          "internalType": "string",
          "name": "",
          "type": "string"
        }
      ],
      "stateMutability": "view",
      "type": "function"
    },
    {
      "inputs": [],
      "name": "syncAllRoles",
      "outputs": [],
      "stateMutability": "nonpayable",
      "type": "function"
    },
    {
      "inputs": [
        {
          "internalType": "bytes32",
          "name": "ROLE_TO_SYNC",
          "type": "bytes32"
        }
      ],
      "name": "syncSingleRole",
      "outputs": [],
      "stateMutability": "nonpayable",
      "type": "function"
    },
    {
      "inputs": [],
      "name": "syncVotes",
      "outputs": [],
      "stateMutability": "nonpayable",
      "type": "function"
    },
    {
      "inputs": [
        {
          "internalType": "uint256",
          "name": "index",
          "type": "uint256"
        }
      ],
      "name": "tokenByIndex",
      "outputs": [
        {
          "internalType": "uint256",
          "name": "",
          "type": "uint256"
        }
      ],
      "stateMutability": "view",
      "type": "function"
    },
    {
      "inputs": [
        {
          "internalType": "address",
          "name": "owner",
          "type": "address"
        },
        {
          "internalType": "uint256",
          "name": "index",
          "type": "uint256"
        }
      ],
      "name": "tokenOfOwnerByIndex",
      "outputs": [
        {
          "internalType": "uint256",
          "name": "",
          "type": "uint256"
        }
      ],
      "stateMutability": "view",
      "type": "function"
    },
    {
      "inputs": [
        {
          "internalType": "uint256",
          "name": "tokenId",
          "type": "uint256"
        }
      ],
      "name": "tokenURI",
      "outputs": [
        {
          "internalType": "string",
          "name": "",
          "type": "string"
        }
      ],
      "stateMutability": "view",
      "type": "function"
    },
    {
      "inputs": [],
      "name": "totalSupply",
      "outputs": [
        {
          "internalType": "uint256",
          "name": "",
          "type": "uint256"
        }
      ],
      "stateMutability": "view",
      "type": "function"
    },
    {
      "inputs": [],
      "name": "updateAddressManager",
      "outputs": [],
      "stateMutability": "nonpayable",
      "type": "function"
    },
    {
      "inputs": [],
      "name": "updateAllAddresses",
      "outputs": [],
      "stateMutability": "nonpayable",
      "type": "function"
    },
    {
      "inputs": [],
      "name": "updateAllRoles",
      "outputs": [],
      "stateMutability": "nonpayable",
      "type": "function"
    },
    {
      "inputs": [],
      "name": "updateDAOAddresses",
      "outputs": [],
      "stateMutability": "nonpayable",
      "type": "function"
    },
    {
      "inputs": [
        {
          "internalType": "bytes32",
          "name": "ROLE_TO_UPDATE",
          "type": "bytes32"
        }
      ],
      "name": "updateSingleRole",
      "outputs": [],
      "stateMutability": "nonpayable",
      "type": "function"
    },
    {
      "inputs": [],
      "name": "updateTokenAddresses",
      "outputs": [],
      "stateMutability": "nonpayable",
      "type": "function"
    },
    {
      "inputs": [
        {
          "internalType": "uint256",
          "name": "_tokenId",
          "type": "uint256"
        }
      ],
      "name": "getBadgeReason",
      "outputs": [
        {
          "internalType": "string",
          "name": "_theReason",
          "type": "string"
        }
      ],
      "stateMutability": "view",
      "type": "function"
    },
    {
      "inputs": [
        {
          "internalType": "uint256",
          "name": "_tokenId",
          "type": "uint256"
        }
      ],
      "name": "getBadgeSender",
      "outputs": [
        {
          "internalType": "address",
          "name": "_theGifter",
          "type": "address"
        }
      ],
      "stateMutability": "view",
      "type": "function"
    },
    {
      "inputs": [
        {
          "internalType": "address",
          "name": "_gifter",
          "type": "address"
        }
      ],
      "name": "getBadgesSent",
      "outputs": [
        {
          "internalType": "uint256[]",
          "name": "_BadgesSent",
          "type": "uint256[]"
        }
      ],
      "stateMutability": "view",
      "type": "function"
    },
    {
      "inputs": [
        {
          "internalType": "address",
          "name": "addressToCheck",
          "type": "address"
        },
        {
          "internalType": "uint256",
          "name": "badgeTokenID",
          "type": "uint256"
        }
      ],
      "name": "isBadgeSender",
      "outputs": [
        {
          "internalType": "bool",
          "name": "",
          "type": "bool"
        }
      ],
      "stateMutability": "view",
      "type": "function"
    },
    {
      "inputs": [
        {
          "internalType": "address",
          "name": "receivingAddress",
          "type": "address"
        },
        {
          "internalType": "string",
          "name": "_reason",
          "type": "string"
        }
      ],
      "name": "issueBadge",
      "outputs": [
        {
          "internalType": "uint256",
          "name": "newId",
          "type": "uint256"
        }
      ],
      "stateMutability": "nonpayable",
      "type": "function"
    },
    {
      "inputs": [
        {
          "internalType": "uint256",
          "name": "tokenId",
          "type": "uint256"
        }
      ],
      "name": "revokeBadge",
      "outputs": [],
      "stateMutability": "nonpayable",
      "type": "function"
    },
    {
      "inputs": [],
      "name": "pause",
      "outputs": [],
      "stateMutability": "nonpayable",
      "type": "function"
    },
    {
      "inputs": [],
      "name": "unpause",
      "outputs": [],
      "stateMutability": "nonpayable",
      "type": "function"
    },
    {
      "inputs": [
        {
          "internalType": "bool",
          "name": "thisIsNotReversible",
          "type": "bool"
        }
      ],
      "name": "refreshBadges",
      "outputs": [
        {
          "internalType": "bool",
          "name": "",
          "type": "bool"
        }
      ],
      "stateMutability": "nonpayable",
      "type": "function"
    },
    {
      "inputs": [
        {
          "internalType": "uint256",
          "name": "valueMustBe69",
          "type": "uint256"
        }
      ],
      "name": "destroyAndLockContract",
      "outputs": [
        {
          "internalType": "bool",
          "name": "",
          "type": "bool"
        }
      ],
      "stateMutability": "nonpayable",
      "type": "function"
    },
    {
      "inputs": [
        {
          "internalType": "address",
          "name": "owner",
          "type": "address"
        },
        {
          "internalType": "address",
          "name": "operator",
          "type": "address"
        }
      ],
      "name": "isApprovedForAll",
      "outputs": [
        {
          "internalType": "bool",
          "name": "",
          "type": "bool"
        }
      ],
      "stateMutability": "view",
      "type": "function"
    },
    {
      "inputs": [
        {
          "internalType": "address",
          "name": "operator",
          "type": "address"
        },
        {
          "internalType": "bool",
          "name": "approved",
          "type": "bool"
        }
      ],
      "name": "setApprovalForAll",
      "outputs": [],
      "stateMutability": "nonpayable",
      "type": "function"
    },
    {
      "inputs": [
        {
          "internalType": "bytes4",
          "name": "interfaceId",
          "type": "bytes4"
        }
      ],
      "name": "supportsInterface",
      "outputs": [
        {
          "internalType": "bool",
          "name": "",
          "type": "bool"
        }
      ],
      "stateMutability": "view",
      "type": "function"
    },
    {
      "inputs": [
        {
          "internalType": "address",
          "name": "from",
          "type": "address"
        },
        {
          "internalType": "address",
          "name": "to",
          "type": "address"
        },
        {
          "internalType": "uint256",
          "name": "tokenId",
          "type": "uint256"
        }
      ],
      "name": "transferFrom",
      "outputs": [],
      "stateMutability": "nonpayable",
      "type": "function"
    },
    {
      "inputs": [
        {
          "internalType": "address",
          "name": "from",
          "type": "address"
        },
        {
          "internalType": "address",
          "name": "to",
          "type": "address"
        },
        {
          "internalType": "uint256",
          "name": "tokenId",
          "type": "uint256"
        }
      ],
      "name": "safeTransferFrom",
      "outputs": [],
      "stateMutability": "nonpayable",
      "type": "function"
    },
    {
      "inputs": [
        {
          "internalType": "address",
          "name": "from",
          "type": "address"
        },
        {
          "internalType": "address",
          "name": "to",
          "type": "address"
        },
        {
          "internalType": "uint256",
          "name": "tokenId",
          "type": "uint256"
        },
        {
          "internalType": "bytes",
          "name": "_data",
          "type": "bytes"
        }
      ],
      "name": "safeTransferFrom",
      "outputs": [],
      "stateMutability": "nonpayable",
      "type": "function"
    }
  ],
  "bytecode": "0x60806040526000805460ff199081168255600f805463ffffffff60a01b19169055601b91909155601c805490911690553480156200003c57600080fd5b506040516200536e3803806200536e8339810160408190526200005f9162000caa565b600380546001600160a01b0383166001600160a01b03199182168117909255600f80549091169091179055828282620000976200023a565b620000a162000250565b600d54620000bb906000906001600160a01b03166200039b565b600d54620000f4907f0538d24a8b7882d7b2e36af243d4af61c23e86e3daa6cb8c887b53220b2f5720906001600160a01b03166200039b565b600a546200012d907f048bc71fa1cb2c119c339cf9cf00a97996a19a9d991ce5fe049f2fa5459e7990906001600160a01b03166200039b565b600b5462000166907ffa8e4989e1d689f7bc5c4b25b87efb51fecdecb19ba62847e29c759e12a89acd906001600160a01b03166200039b565b600e546200019f907ff0f4b159a6e2a4815eb3ca3df080bfa70c9270662c59bcaa4479a456220183e6906001600160a01b03166200039b565b620001cc7f7c9d7f6f02908185bffb3f7fc9afb29fd7bf93675af8fd4b655ee05c2cee1e0e60006200039b565b508151620001e290601090602085019062000ae7565b508051620001f890601190602084019062000ae7565b50506016805460ff191690555081516200021a90601d90602085019062000ae7565b5082516200023090601e90602086019062000ae7565b5050505062000d79565b62000244620003de565b6200024e62000649565b565b600f60009054906101000a90046001600160a01b03166001600160a01b031663ff7e88ec6040518163ffffffff1660e01b815260040160206040518083038186803b1580156200029f57600080fd5b505afa158015620002b4573d6000803e3d6000fd5b505050506040513d601f19601f82011682018060405250810190620002da919062000c7f565b600f60156101000a81548160ff021916908315150217905550600f60009054906101000a90046001600160a01b03166001600160a01b0316632fb565856040518163ffffffff1660e01b815260040160206040518083038186803b1580156200034257600080fd5b505afa15801562000357573d6000803e3d6000fd5b505050506040513d601f19601f820116820180604052508101906200037d919062000c7f565b600f8054911515600160b01b0260ff60b01b19909216919091179055565b620003b28282620009dd60201b620019e21760201c565b6000828152600260209081526040909120620003d9918390620019ec620009ed821b17901c565b505050565b600f60009054906101000a90046001600160a01b03166001600160a01b031663dadf56ac6040518163ffffffff1660e01b815260040160206040518083038186803b1580156200042d57600080fd5b505afa15801562000442573d6000803e3d6000fd5b505050506040513d601f19601f8201168201806040525081019062000468919062000c61565b600a80546001600160a01b0319166001600160a01b03928316179055600f546040805163024bebe960e01b81529051919092169163024bebe9916004808301926020929190829003018186803b158015620004c257600080fd5b505afa158015620004d7573d6000803e3d6000fd5b505050506040513d601f19601f82011682018060405250810190620004fd919062000c61565b600b80546001600160a01b0319166001600160a01b03928316179055600f5460408051635b5c251f60e01b815290519190921691635b5c251f916004808301926020929190829003018186803b1580156200055757600080fd5b505afa1580156200056c573d6000803e3d6000fd5b505050506040513d601f19601f8201168201806040525081019062000592919062000c61565b600c80546001600160a01b0319166001600160a01b03928316179055600f5460408051637310bf1d60e11b81529051919092169163e6217e3a916004808301926020929190829003018186803b158015620005ec57600080fd5b505afa15801562000601573d6000803e3d6000fd5b505050506040513d601f19601f8201168201806040525081019062000627919062000c61565b600e80546001600160a01b0319166001600160a01b0392909216919091179055565b600f60009054906101000a90046001600160a01b03166001600160a01b03166321d7f0086040518163ffffffff1660e01b815260040160206040518083038186803b1580156200069857600080fd5b505afa158015620006ad573d6000803e3d6000fd5b505050506040513d601f19601f82011682018060405250810190620006d3919062000c61565b600480546001600160a01b0319166001600160a01b03928316178155600f546040805163762ddb5960e01b81529051919093169263762ddb599281810192602092909190829003018186803b1580156200072c57600080fd5b505afa15801562000741573d6000803e3d6000fd5b505050506040513d601f19601f8201168201806040525081019062000767919062000c61565b600580546001600160a01b0319166001600160a01b03928316179055600f546040805163bfb7dc9960e01b81529051919092169163bfb7dc99916004808301926020929190829003018186803b158015620007c157600080fd5b505afa158015620007d6573d6000803e3d6000fd5b505050506040513d601f19601f82011682018060405250810190620007fc919062000c61565b600680546001600160a01b0319166001600160a01b03928316179055600f5460408051633e6111eb60e21b81529051919092169163f98447ac916004808301926020929190829003018186803b1580156200085657600080fd5b505afa1580156200086b573d6000803e3d6000fd5b505050506040513d601f19601f8201168201806040525081019062000891919062000c61565b600780546001600160a01b0319166001600160a01b03928316179055600f5460408051630fe1ba9f60e21b815290519190921691633f86ea7c916004808301926020929190829003018186803b158015620008eb57600080fd5b505afa15801562000900573d6000803e3d6000fd5b505050506040513d601f19601f8201168201806040525081019062000926919062000c61565b600880546001600160a01b0319166001600160a01b03928316179055600f5460408051636b58477560e01b815290519190921691636b584775916004808301926020929190829003018186803b1580156200098057600080fd5b505afa15801562000995573d6000803e3d6000fd5b505050506040513d601f19601f82011682018060405250810190620009bb919062000c61565b600980546001600160a01b0319166001600160a01b0392909216919091179055565b620009e9828262000a0d565b5050565b600062000a04836001600160a01b03841662000a95565b90505b92915050565b60008281526001602090815260408083206001600160a01b038516845290915290205460ff16620009e95760008281526001602081815260408084206001600160a01b0386168086529252808420805460ff19169093179092559051339285917f2f8788117e7eff1d82e926ec794901d17c78024a50270940304540a733656f0d9190a45050565b600081815260018301602052604081205462000ade5750815460018181018455600084815260208082209093018490558454848252828601909352604090209190915562000a07565b50600062000a07565b82805462000af59062000d26565b90600052602060002090601f01602090048101928262000b19576000855562000b64565b82601f1062000b3457805160ff191683800117855562000b64565b8280016001018555821562000b64579182015b8281111562000b6457825182559160200191906001019062000b47565b5062000b7292915062000b76565b5090565b5b8082111562000b72576000815560010162000b77565b80516001600160a01b038116811462000ba557600080fd5b919050565b600082601f83011262000bbc57600080fd5b81516001600160401b038082111562000bd95762000bd962000d63565b604051601f8301601f19908116603f0116810190828211818310171562000c045762000c0462000d63565b8160405283815260209250868385880101111562000c2157600080fd5b600091505b8382101562000c45578582018301518183018401529082019062000c26565b8382111562000c575760008385830101525b9695505050505050565b60006020828403121562000c7457600080fd5b62000a048262000b8d565b60006020828403121562000c9257600080fd5b8151801515811462000ca357600080fd5b9392505050565b60008060006060848603121562000cc057600080fd5b83516001600160401b038082111562000cd857600080fd5b62000ce68783880162000baa565b9450602086015191508082111562000cfd57600080fd5b5062000d0c8682870162000baa565b92505062000d1d6040850162000b8d565b90509250925092565b600181811c9082168062000d3b57607f821691505b6020821081141562000d5d57634e487b7160e01b600052602260045260246000fd5b50919050565b634e487b7160e01b600052604160045260246000fd5b6145e58062000d896000396000f3fe608060405234801561001057600080fd5b506004361061041d5760003560e01c80636b5847751161022b578063c04e17e311610130578063e6217e3a116100b8578063f1132b3011610087578063f1132b30146108f8578063f7d92d8614610900578063f98447ac14610908578063f98db2531461091b578063ff7e88ec1461092e57600080fd5b8063e6217e3a146108aa578063e78c266c146108bd578063e985e9c5146108d0578063e9a53230146108e357600080fd5b8063cce84392116100ff578063cce8439214610852578063cf4ece1514610867578063d547741f1461087c578063dadf56ac1461088f578063dea6f9c8146108a257600080fd5b8063c04e17e3146107f8578063c62b28e814610819578063c87b56dd1461082c578063ca15c8731461083f57600080fd5b806395d89b41116101b3578063a22cb46511610182578063a22cb46514610796578063a32c5e59146107a9578063a78e746f146107be578063b88d4fde146107d2578063bfb7dc99146107e557600080fd5b806395d89b411461076657806396ac6bf01461076e5780639ac3eaa714610781578063a217fddf1461078e57600080fd5b806376516078116101fa5780637651607814610712578063794ccf6c146107255780638456cb59146107385780639010d07c1461074057806391d148541461075357600080fd5b80636b584775146106b057806370a08231146106c357806373c89822146106d6578063762ddb59146106ff57600080fd5b8063329a8cfa1161033157806357f276ff116102b95780635db531a1116102885780635db531a11461065a5780635f41346614610662578063610c3009146106755780636352211e1461067d57806363ebc6771461069057600080fd5b806357f276ff1461061657806359e6f787146106295780635b5c251f1461063c5780635c975abb1461064f57600080fd5b80633f86ea7c116103005780633f86ea7c146105cd57806342842e0e146105e057806349b5e105146105f35780634d84c6d8146105fb5780634f6ccce71461060357600080fd5b8063329a8cfa1461059757806336568abe1461059f5780633ab76e9f146105b25780633f4ba83a146105c557600080fd5b806318160ddd116103b4578063248a9ca311610383578063248a9ca3146105315780632f2ff15d146105555780632f745c59146105685780632fb565851461057b578063326a55e01461058f57600080fd5b806318160ddd146104ee57806321d7f008146104f657806323b872dd146105095780632436329d1461051c57600080fd5b8063095ea7b3116103f0578063095ea7b31461049d5780630ad17f8f146104b2578063130f6320146104d357806317314d5a146104e657600080fd5b806301ffc9a714610422578063024bebe91461044a57806306fdde0314610475578063081812fc1461048a575b600080fd5b61043561043036600461408e565b610942565b60405190151581526020015b60405180910390f35b600b5461045d906001600160a01b031681565b6040516001600160a01b039091168152602001610441565b61047d610953565b6040516104419190614256565b61045d61049836600461402e565b6109e5565b6104b06104ab366004613fc8565b610a7f565b005b6104c56104c0366004613fc8565b610b95565b604051908152602001610441565b6104b06104e136600461402e565b610bc5565b6104b0610bfa565b6019546104c5565b60045461045d906001600160a01b031681565b6104b0610517366004613e75565b610c23565b6104c560008051602061451083398151915281565b6104c561053f36600461402e565b6000908152600160208190526040909120015490565b6104b0610563366004614047565b610c54565b6104c5610576366004613fc8565b610c76565b600f5461043590600160b01b900460ff1681565b6104b0610d0c565b6104b0610d1c565b6104b06105ad366004614047565b610e25565b600f5461045d906001600160a01b031681565b6104b0610e47565b60085461045d906001600160a01b031681565b6104b06105ee366004613e75565b610ed9565b6104b0610f0a565b6104b0610d14565b6104c561061136600461402e565b610f12565b6104b061062436600461402e565b610fa5565b610435610637366004613fc8565b610fb9565b600c5461045d906001600160a01b031681565b60165460ff16610435565b6104b0610feb565b600d5461045d906001600160a01b031681565b61047d610ff3565b61045d61068b36600461402e565b611081565b6106a361069e366004613e02565b6110f8565b6040516104419190614212565b60095461045d906001600160a01b031681565b6104c56106d1366004613e02565b611162565b61045d6106e436600461402e565b6000908152601f60205260409020546001600160a01b031690565b60055461045d906001600160a01b031681565b610435610720366004613ff4565b6111e9565b6104c5610733366004613f64565b6112e9565b6104b0611395565b61045d61074e36600461406c565b611417565b610435610761366004614047565b61142f565b61047d61145a565b61043561077c36600461402e565b611469565b601c546104359060ff1681565b6104c5600081565b6104b06107a4366004613f36565b611575565b6104c560008051602061457083398151915281565b600f5461043590600160a01b900460ff1681565b6104b06107e0366004613eb6565b6115f3565b60065461045d906001600160a01b031681565b61080b61080636600461402e565b61162b565b6040516104419291906141ee565b6104b061082736600461402e565b6116da565b61047d61083a36600461402e565b61172b565b6104c561084d36600461402e565b611812565b6104c560008051602061459083398151915281565b6104c560008051602061455083398151915281565b6104b061088a366004614047565b611829565b600a5461045d906001600160a01b031681565b61047d611833565b600e5461045d906001600160a01b031681565b60035461045d906001600160a01b031681565b6104356108de366004613e3c565b611840565b6104c560008051602061453083398151915281565b6104b061189f565b6104b06118a7565b60075461045d906001600160a01b031681565b61047d61092936600461402e565b611947565b600f5461043590600160a81b900460ff1681565b600061094d82611a01565b92915050565b606060108054610962906143fe565b80601f016020809104026020016040519081016040528092919081815260200182805461098e906143fe565b80156109db5780601f106109b0576101008083540402835291602001916109db565b820191906000526020600020905b8154815290600101906020018083116109be57829003601f168201915b5050505050905090565b6000818152601260205260408120546001600160a01b0316610a635760405162461bcd60e51b815260206004820152602c60248201527f4552433732313a20617070726f76656420717565727920666f72206e6f6e657860448201526b34b9ba32b73a103a37b5b2b760a11b60648201526084015b60405180910390fd5b506000908152601460205260409020546001600160a01b031690565b6000610a8a82611081565b9050806001600160a01b0316836001600160a01b03161415610af85760405162461bcd60e51b815260206004820152602160248201527f4552433732313a20617070726f76616c20746f2063757272656e74206f776e656044820152603960f91b6064820152608401610a5a565b336001600160a01b0382161480610b145750610b148133611840565b610b865760405162461bcd60e51b815260206004820152603860248201527f4552433732313a20617070726f76652063616c6c6572206973206e6f74206f7760448201527f6e6572206e6f7220617070726f76656420666f7220616c6c00000000000000006064820152608401610a5a565b610b908383611a26565b505050565b602080528160005260406000208181548110610bb057600080fd5b90600052602060002001600091509150505481565b610bcf6001611a4d565b50610bd981611aff565b50610be381611c7a565b50610bee6000611a4d565b610bf757600080fd5b50565b610c046001611a4d565b50610c0d611e03565b50610c186000611a4d565b610c2157600080fd5b565b610c2d3382611f49565b610c495760405162461bcd60e51b8152600401610a5a906142bb565b610b90838383611fd9565b610c5e828261200a565b6000828152600260205260409020610b9090826119ec565b6000610c8183611162565b8210610ce35760405162461bcd60e51b815260206004820152602b60248201527f455243373231456e756d657261626c653a206f776e657220696e646578206f7560448201526a74206f6620626f756e647360a81b6064820152608401610a5a565b506001600160a01b03919091166000908152601760209081526040808320938352929052205490565b610d14612044565b610c2161229f565b610d346000805160206145708339815191523361142f565b80610d525750610d526000805160206145308339815191523361142f565b80610d705750610d706000805160206145108339815191523361142f565b610db55760405162461bcd60e51b81526020600482015260166024820152752cb7ba93b932903737ba103a3432903130b4b634b33360511b6044820152606401610a5a565b600f60009054906101000a90046001600160a01b03166001600160a01b031663329a8cfa6040518163ffffffff1660e01b8152600401600060405180830381600087803b158015610e0557600080fd5b505af1158015610e19573d6000803e3d6000fd5b50505050610c21610feb565b610e2f828261261b565b6000828152600260205260409020610b909082612695565b610e5f6000805160206145308339815191523361142f565b80610e7d5750610e7d6000805160206145708339815191523361142f565b610ec15760405162461bcd60e51b8152602060048201526015602482015274596f75277265206e6f742074686520476176656c7360581b6044820152606401610a5a565b601c5460ff1615610ed157600080fd5b610c216126aa565b610ee33382611f49565b610eff5760405162461bcd60e51b8152600401610a5a906142bb565b610b9083838361273d565b610c21612044565b6000610f1d60195490565b8210610f805760405162461bcd60e51b815260206004820152602c60248201527f455243373231456e756d657261626c653a20676c6f62616c20696e646578206f60448201526b7574206f6620626f756e647360a01b6064820152608401610a5a565b60198281548110610f9357610f936144aa565b90600052602060002001549050919050565b610faf6001611a4d565b50610be381612758565b6000818152601f60205260408120546001600160a01b0384811691161415610fe35750600161094d565b50600061094d565b610c216129b3565b601e8054611000906143fe565b80601f016020809104026020016040519081016040528092919081815260200182805461102c906143fe565b80156110795780601f1061104e57610100808354040283529160200191611079565b820191906000526020600020905b81548152906001019060200180831161105c57829003601f168201915b505050505081565b6000818152601260205260408120546001600160a01b03168061094d5760405162461bcd60e51b815260206004820152602960248201527f4552433732313a206f776e657220717565727920666f72206e6f6e657869737460448201526832b73a103a37b5b2b760b91b6064820152608401610a5a565b6001600160a01b0381166000908152602080805260409182902080548351818402810184019094528084526060939283018282801561115657602002820191906000526020600020905b815481526020019060010190808311611142575b50505050509050919050565b60006001600160a01b0382166111cd5760405162461bcd60e51b815260206004820152602a60248201527f4552433732313a2062616c616e636520717565727920666f7220746865207a65604482015269726f206164647265737360b01b6064820152608401610a5a565b506001600160a01b031660009081526013602052604090205490565b60006112036000805160206145308339815191523361142f565b8061122157506112216000805160206145108339815191523361142f565b8061123f575061123f6000805160206145708339815191523361142f565b61124857600080fd5b600f54600160b01b810460ff9081161515600160a81b909204161515146001148061128657506112866000805160206145708339815191523361142f565b6112c55760405162461bcd60e51b815260206004820152601060248201526f436f757274204d75737420416772656560801b6044820152606401610a5a565b600182151514156112e1576112d8612af6565b50600192915050565b506000919050565b60006113036000805160206145708339815191523361142f565b8061132157506113216000805160206145308339815191523361142f565b8061133f575061133f6000805160206145108339815191523361142f565b6113845760405162461bcd60e51b81526020600482015260166024820152752cb7ba93b932903737ba103a3432903130b4b634b33360511b6044820152606401610a5a565b61138e8383612b48565b9392505050565b6113ad6000805160206145308339815191523361142f565b806113cb57506113cb6000805160206145708339815191523361142f565b61140f5760405162461bcd60e51b8152602060048201526015602482015274596f75277265206e6f742074686520476176656c7360581b6044820152606401610a5a565b610c21612bad565b600082815260026020526040812061138e9083612c28565b60009182526001602090815260408084206001600160a01b0393909316845291905290205460ff1690565b606060118054610962906143fe565b60006114836000805160206145308339815191523361142f565b806114a157506114a16000805160206145108339815191523361142f565b806114bf57506114bf6000805160206145708339815191523361142f565b6114c857600080fd5b600f54600160b01b810460ff9081161515600160a81b909204161515146001148061150657506115066000805160206145708339815191523361142f565b6115455760405162461bcd60e51b815260206004820152601060248201526f436f757274204d75737420416772656560801b6044820152606401610a5a565b81604514156112e157611556612af6565b5061155f612bad565b50601c805460ff19166001908117909155919050565b61158d6000805160206145708339815191523361142f565b806115ab57506115ab6000805160206145308339815191523361142f565b806115c957506115c96000805160206145108339815191523361142f565b6115e55760405162461bcd60e51b8152600401610a5a906142bb565b6115ef8282612c34565b5050565b6115fd3383611f49565b6116195760405162461bcd60e51b8152600401610a5a90614308565b61162584848484612cf9565b50505050565b601f60205260009081526040902080546001820180546001600160a01b039092169291611657906143fe565b80601f0160208091040260200160405190810160405280929190818152602001828054611683906143fe565b80156116d05780601f106116a5576101008083540402835291602001916116d0565b820191906000526020600020905b8154815290600101906020018083116116b357829003601f168201915b5050505050905082565b6116e43382611f49565b6117225760405162461bcd60e51b815260206004820152600f60248201526e4e696365205472792c204275636b6f60881b6044820152606401610a5a565b610bf781612d2c565b6000818152601260205260409020546060906001600160a01b03166117aa5760405162461bcd60e51b815260206004820152602f60248201527f4552433732314d657461646174613a2055524920717565727920666f72206e6f60448201526e3732bc34b9ba32b73a103a37b5b2b760891b6064820152608401610a5a565b60006117c160408051602081019091526000815290565b905060008151116117e1576040518060200160405280600081525061138e565b806117eb84612dd3565b6040516020016117fc92919061410d565b6040516020818303038152906040529392505050565b600081815260026020526040812061094d90612ed1565b610e2f8282612edb565b601d8054611000906143fe565b60008061185b6000805160206145708339815191528461142f565b8061187957506118796000805160206145308339815191528461142f565b8061189757506118976000805160206145108339815191528461142f565b949350505050565b610c21612f15565b6118b16001611a4d565b506118c9600080516020614570833981519152612758565b506118e1600080516020614530833981519152612758565b506118f9600080516020614510833981519152612758565b50611911600080516020614550833981519152612758565b50611929600080516020614590833981519152612758565b506119346000612758565b5061193d6129b3565b610c186000611a4d565b6000818152601f60205260409020600101805460609190611967906143fe565b80601f0160208091040260200160405190810160405280929190818152602001828054611993906143fe565b80156111565780601f106119b557610100808354040283529160200191611156565b820191906000526020600020905b8154815290600101906020018083116119c35750939695505050505050565b6115ef828261304c565b600061138e836001600160a01b0384166130b7565b60006001600160e01b0319821663780e9d6360e01b148061094d575061094d826130fe565b611a3e6000805160206145708339815191523361142f565b156115ef576115ef828261313e565b6000805460ff168215158115151415611aa85760405162461bcd60e51b815260206004820152601960248201527f416c72656164792053657420746f20746861742076616c7565000000000000006044820152606401610a5a565b6000805484151560ff19909116811790915560ff16151581151514156112d85760405162461bcd60e51b815260206004820152600c60248201526b29b0b33a32bc9022b93937b960a11b6044820152606401610a5a565b60405163ca15c87360e01b8152600481018290526000908190309063ca15c8739060240160206040518083038186803b158015611b3b57600080fd5b505afa158015611b4f573d6000803e3d6000fd5b505050506040513d601f19601f82011682018060405250810190611b7391906140c8565b905060005b81811015611c7057604051632404341f60e21b815260048101859052602481018290526000903090639010d07c9060440160206040518083038186803b158015611bc157600080fd5b505afa158015611bd5573d6000803e3d6000fd5b505050506040513d601f19601f82011682018060405250810190611bf99190613e1f565b60405163d547741f60e01b8152600481018790526001600160a01b0382166024820152909150309063d547741f90604401600060405180830381600087803b158015611c4457600080fd5b505af1158015611c58573d6000803e3d6000fd5b50505050508080611c6890614439565b915050611b78565b5060019392505050565b600f5460405163ca15c87360e01b81526004810183905260009182916001600160a01b039091169063ca15c8739060240160206040518083038186803b158015611cc357600080fd5b505afa158015611cd7573d6000803e3d6000fd5b505050506040513d601f19601f82011682018060405250810190611cfb91906140c8565b905060005b81811015611c7057600f54604051632404341f60e21b815260048101869052602481018390526000916001600160a01b031690639010d07c9060440160206040518083038186803b158015611d5457600080fd5b505afa158015611d68573d6000803e3d6000fd5b505050506040513d601f19601f82011682018060405250810190611d8c9190613e1f565b604051632f2ff15d60e01b8152600481018790526001600160a01b03821660248201529091503090632f2ff15d90604401600060405180830381600087803b158015611dd757600080fd5b505af1158015611deb573d6000803e3d6000fd5b50505050508080611dfb90614439565b915050611d00565b6000611e1c600080516020614570833981519152611aff565b50611e34600080516020614570833981519152611c7a565b611e3d57600080fd5b611e54600080516020614530833981519152611aff565b50611e6c600080516020614530833981519152611c7a565b611e7557600080fd5b611e8c600080516020614510833981519152611aff565b50611ea4600080516020614510833981519152611c7a565b611ead57600080fd5b611ec4600080516020614550833981519152611aff565b50611edc600080516020614550833981519152611c7a565b611ee557600080fd5b611efc600080516020614590833981519152611aff565b50611f14600080516020614590833981519152611c7a565b611f1d57600080fd5b611f276000611aff565b50611f326000611c7a565b611f3b57600080fd5b611f436129b3565b50600190565b6000818152601260205260408120546001600160a01b0316611fc25760405162461bcd60e51b815260206004820152602c60248201527f4552433732313a206f70657261746f7220717565727920666f72206e6f6e657860448201526b34b9ba32b73a103a37b5b2b760a11b6064820152608401610a5a565b6000611fcd83611081565b90506118978185611840565b611fe33382611f49565b611fff5760405162461bcd60e51b8152600401610a5a90614308565b610b908383836131ac565b600082815260016020819052604082200154905460ff161561203057610b90838361304c565b61203a8133613357565b610b90838361304c565b600f60009054906101000a90046001600160a01b03166001600160a01b031663dadf56ac6040518163ffffffff1660e01b815260040160206040518083038186803b15801561209257600080fd5b505afa1580156120a6573d6000803e3d6000fd5b505050506040513d601f19601f820116820180604052508101906120ca9190613e1f565b600a80546001600160a01b0319166001600160a01b03928316179055600f546040805163024bebe960e01b81529051919092169163024bebe9916004808301926020929190829003018186803b15801561212357600080fd5b505afa158015612137573d6000803e3d6000fd5b505050506040513d601f19601f8201168201806040525081019061215b9190613e1f565b600b80546001600160a01b0319166001600160a01b03928316179055600f5460408051635b5c251f60e01b815290519190921691635b5c251f916004808301926020929190829003018186803b1580156121b457600080fd5b505afa1580156121c8573d6000803e3d6000fd5b505050506040513d601f19601f820116820180604052508101906121ec9190613e1f565b600c80546001600160a01b0319166001600160a01b03928316179055600f5460408051637310bf1d60e11b81529051919092169163e6217e3a916004808301926020929190829003018186803b15801561224557600080fd5b505afa158015612259573d6000803e3d6000fd5b505050506040513d601f19601f8201168201806040525081019061227d9190613e1f565b600e80546001600160a01b0319166001600160a01b0392909216919091179055565b600f60009054906101000a90046001600160a01b03166001600160a01b03166321d7f0086040518163ffffffff1660e01b815260040160206040518083038186803b1580156122ed57600080fd5b505afa158015612301573d6000803e3d6000fd5b505050506040513d601f19601f820116820180604052508101906123259190613e1f565b600480546001600160a01b0319166001600160a01b03928316178155600f546040805163762ddb5960e01b81529051919093169263762ddb599281810192602092909190829003018186803b15801561237d57600080fd5b505afa158015612391573d6000803e3d6000fd5b505050506040513d601f19601f820116820180604052508101906123b59190613e1f565b600580546001600160a01b0319166001600160a01b03928316179055600f546040805163bfb7dc9960e01b81529051919092169163bfb7dc99916004808301926020929190829003018186803b15801561240e57600080fd5b505afa158015612422573d6000803e3d6000fd5b505050506040513d601f19601f820116820180604052508101906124469190613e1f565b600680546001600160a01b0319166001600160a01b03928316179055600f5460408051633e6111eb60e21b81529051919092169163f98447ac916004808301926020929190829003018186803b15801561249f57600080fd5b505afa1580156124b3573d6000803e3d6000fd5b505050506040513d601f19601f820116820180604052508101906124d79190613e1f565b600780546001600160a01b0319166001600160a01b03928316179055600f5460408051630fe1ba9f60e21b815290519190921691633f86ea7c916004808301926020929190829003018186803b15801561253057600080fd5b505afa158015612544573d6000803e3d6000fd5b505050506040513d601f19601f820116820180604052508101906125689190613e1f565b600880546001600160a01b0319166001600160a01b03928316179055600f5460408051636b58477560e01b815290519190921691636b584775916004808301926020929190829003018186803b1580156125c157600080fd5b505afa1580156125d5573d6000803e3d6000fd5b505050506040513d601f19601f820116820180604052508101906125f99190613e1f565b600980546001600160a01b0319166001600160a01b0392909216919091179055565b6001600160a01b038116331461268b5760405162461bcd60e51b815260206004820152602f60248201527f416363657373436f6e74726f6c3a2063616e206f6e6c792072656e6f756e636560448201526e103937b632b9903337b91039b2b63360891b6064820152608401610a5a565b6115ef82826133bb565b600061138e836001600160a01b038416613422565b60165460ff166126f35760405162461bcd60e51b815260206004820152601460248201527314185d5cd8589b194e881b9bdd081c185d5cd95960621b6044820152606401610a5a565b6016805460ff191690557f5db9ee0a495bf2e6ff9c91a7834c1ba4fdd244a5e8aa4e537bd38aeae4b073aa335b6040516001600160a01b03909116815260200160405180910390a1565b610b90838383604051806020016040528060008152506115f3565b600f5460405163ca15c87360e01b81526004810183905260009182916001600160a01b039091169063ca15c8739060240160206040518083038186803b1580156127a157600080fd5b505afa1580156127b5573d6000803e3d6000fd5b505050506040513d601f19601f820116820180604052508101906127d991906140c8565b60405163ca15c87360e01b815260048101859052909150600090309063ca15c8739060240160206040518083038186803b15801561281657600080fd5b505afa15801561282a573d6000803e3d6000fd5b505050506040513d601f19601f8201168201806040525081019061284e91906140c8565b9050600061285c82846143a4565b9050600081116128a15760405162461bcd60e51b815260206004820152601060248201526f4e6f7468696e6720746f2073796e632160801b6044820152606401610a5a565b60005b818110156129a757600f54604051632404341f60e21b815260048101889052602481018390526000916001600160a01b031690639010d07c9060440160206040518083038186803b1580156128f857600080fd5b505afa15801561290c573d6000803e3d6000fd5b505050506040513d601f19601f820116820180604052508101906129309190613e1f565b604051632f2ff15d60e01b8152600481018990526001600160a01b03821660248201529091503090632f2ff15d90604401600060405180830381600087803b15801561297b57600080fd5b505af115801561298f573d6000803e3d6000fd5b5050505050808061299f90614439565b9150506128a4565b50600195945050505050565b600f60009054906101000a90046001600160a01b03166001600160a01b031663ff7e88ec6040518163ffffffff1660e01b815260040160206040518083038186803b158015612a0157600080fd5b505afa158015612a15573d6000803e3d6000fd5b505050506040513d601f19601f82011682018060405250810190612a399190614011565b600f60156101000a81548160ff021916908315150217905550600f60009054906101000a90046001600160a01b03166001600160a01b0316632fb565856040518163ffffffff1660e01b815260040160206040518083038186803b158015612aa057600080fd5b505afa158015612ab4573d6000803e3d6000fd5b505050506040513d601f19601f82011682018060405250810190612ad89190614011565b600f8054911515600160b01b0260ff60b01b19909216919091179055565b6000805b601b54811015612b3c576000818152601260205260409020546001600160a01b031615612b2a57612b2a81612d2c565b80612b3481614439565b915050612afa565b50506000601b55600190565b60006001600160a01b0383163314801590612b6b57506001600160a01b03831615155b612b7457600080fd5b50601b54612b8333838361350f565b612b8f83601b5461357c565b6001601b6000828254612ba29190614359565b909155505092915050565b60165460ff1615612bf35760405162461bcd60e51b815260206004820152601060248201526f14185d5cd8589b194e881c185d5cd95960821b6044820152606401610a5a565b6016805460ff191660011790557f62e78cea01bee320cd4e420270b5ea74000d11b0c9f74754ebdbfc544b05a2586127203390565b600061138e8383613596565b6001600160a01b038216331415612c8d5760405162461bcd60e51b815260206004820152601960248201527f4552433732313a20617070726f766520746f2063616c6c6572000000000000006044820152606401610a5a565b3360008181526015602090815260408083206001600160a01b03871680855290835292819020805460ff191686151590811790915590519081529192917f17307eab39ab6107e8899845ad3d59bd9653f200f220920489ca2b5937696c31910160405180910390a35050565b612d048484846131ac565b612d108484848461361c565b6116255760405162461bcd60e51b8152600401610a5a90614269565b6000612d3782611081565b9050612d4581600084613729565b612d50600083611a26565b6001600160a01b0381166000908152601360205260408120805460019290612d799084906143a4565b909155505060008281526012602052604080822080546001600160a01b0319169055518391906001600160a01b038416907fddf252ad1be2c89b69c2b068fc378daa952ba7f163c4a11628f55a4df523b3ef908390a45050565b606081612df75750506040805180820190915260018152600360fc1b602082015290565b8160005b8115612e215780612e0b81614439565b9150612e1a9050600a83614371565b9150612dfb565b60008167ffffffffffffffff811115612e3c57612e3c6144c0565b6040519080825280601f01601f191660200182016040528015612e66576020820181803683370190505b5090505b841561189757612e7b6001836143a4565b9150612e88600a86614454565b612e93906030614359565b60f81b818381518110612ea857612ea86144aa565b60200101906001600160f81b031916908160001a905350612eca600a86614371565b9450612e6a565b600061094d825490565b600082815260016020819052604082200154905460ff1615612f0157610b9083836133bb565b612f0b8133613357565b610b9083836133bb565b600f60009054906101000a90046001600160a01b03166001600160a01b031663a44b93256040518163ffffffff1660e01b815260040160206040518083038186803b158015612f6357600080fd5b505afa158015612f77573d6000803e3d6000fd5b505050506040513d601f19601f82011682018060405250810190612f9b9190614011565b612fa457600080fd5b600f60009054906101000a90046001600160a01b03166001600160a01b031663ac7cfac36040518163ffffffff1660e01b815260040160206040518083038186803b158015612ff257600080fd5b505afa158015613006573d6000803e3d6000fd5b505050506040513d601f19601f8201168201806040525081019061302a9190613e1f565b600380546001600160a01b0319166001600160a01b0392909216919091179055565b613056828261142f565b6115ef5760008281526001602081815260408084206001600160a01b0386168086529252808420805460ff19169093179092559051339285917f2f8788117e7eff1d82e926ec794901d17c78024a50270940304540a733656f0d9190a45050565b6000818152600183016020526040812054610fe35750815460018181018455600084815260208082209093018490558454848252828601909352604090209190915561094d565b60006001600160e01b031982166380ac58cd60e01b148061312f57506001600160e01b03198216635b5e139f60e01b145b8061094d575061094d82613734565b600081815260146020526040902080546001600160a01b0319166001600160a01b038416908117909155819061317382611081565b6001600160a01b03167f8c5be1e5ebec7d5bd14f71427d1e84f3dd0314c0f7b2291e5b200ac8c7c3b92560405160405180910390a45050565b826001600160a01b03166131bf82611081565b6001600160a01b0316146132275760405162461bcd60e51b815260206004820152602960248201527f4552433732313a207472616e73666572206f6620746f6b656e2074686174206960448201526839903737ba1037bbb760b91b6064820152608401610a5a565b6001600160a01b0382166132895760405162461bcd60e51b8152602060048201526024808201527f4552433732313a207472616e7366657220746f20746865207a65726f206164646044820152637265737360e01b6064820152608401610a5a565b613294838383613729565b61329f600082611a26565b6001600160a01b03831660009081526013602052604081208054600192906132c89084906143a4565b90915550506001600160a01b03821660009081526013602052604081208054600192906132f6908490614359565b909155505060008181526012602052604080822080546001600160a01b0319166001600160a01b0386811691821790925591518493918716917fddf252ad1be2c89b69c2b068fc378daa952ba7f163c4a11628f55a4df523b3ef91a4505050565b613361828261142f565b6115ef57613379816001600160a01b03166014613759565b613384836020613759565b60405160200161339592919061413c565b60408051601f198184030181529082905262461bcd60e51b8252610a5a91600401614256565b6133c5828261142f565b156115ef5760008281526001602090815260408083206001600160a01b0385168085529252808320805460ff1916905551339285917ff6391f5c32d9c69d2a47ea670b442974b53935d1edc7fd64eb21e047a839171b9190a45050565b600081815260018301602052604081205480156135055760006134466001836143a4565b855490915060009061345a906001906143a4565b90506000866000018281548110613473576134736144aa565b9060005260206000200154905080876000018481548110613496576134966144aa565b6000918252602080832090910192909255828152600189019091526040902084905586548790806134c9576134c9614494565b6001900381819060005260206000200160009055905586600101600087815260200190815260200160002060009055600194505050505061094d565b600091505061094d565b6000818152601f6020908152604090912080546001600160a01b0319166001600160a01b038616178155835161354d92600190920191850190613cf3565b506001600160a01b03909216600090815260208080526040822080546001810182559083529120019190915550565b6115ef8282604051806020016040528060008152506138f5565b815460009082106135f45760405162461bcd60e51b815260206004820152602260248201527f456e756d657261626c655365743a20696e646578206f7574206f6620626f756e604482015261647360f01b6064820152608401610a5a565b826000018281548110613609576136096144aa565b9060005260206000200154905092915050565b60006001600160a01b0384163b1561371e57604051630a85bd0160e11b81526001600160a01b0385169063150b7a02906136609033908990889088906004016141b1565b602060405180830381600087803b15801561367a57600080fd5b505af19250505080156136aa575060408051601f3d908101601f191682019092526136a7918101906140ab565b60015b613704573d8080156136d8576040519150601f19603f3d011682016040523d82523d6000602084013e6136dd565b606091505b5080516136fc5760405162461bcd60e51b8152600401610a5a90614269565b805181602001fd5b6001600160e01b031916630a85bd0160e11b149050611897565b506001949350505050565b610b90838383613928565b60006001600160e01b03198216635a05180f60e01b148061094d575061094d826139e0565b60606000613768836002614385565b613773906002614359565b67ffffffffffffffff81111561378b5761378b6144c0565b6040519080825280601f01601f1916602001820160405280156137b5576020820181803683370190505b509050600360fc1b816000815181106137d0576137d06144aa565b60200101906001600160f81b031916908160001a905350600f60fb1b816001815181106137ff576137ff6144aa565b60200101906001600160f81b031916908160001a9053506000613823846002614385565b61382e906001614359565b90505b60018111156138a6576f181899199a1a9b1b9c1cb0b131b232b360811b85600f1660108110613862576138626144aa565b1a60f81b828281518110613878576138786144aa565b60200101906001600160f81b031916908160001a90535060049490941c9361389f816143e7565b9050613831565b50831561138e5760405162461bcd60e51b815260206004820181905260248201527f537472696e67733a20686578206c656e67746820696e73756666696369656e746044820152606401610a5a565b6138ff8383613a15565b61390c600084848461361c565b610b905760405162461bcd60e51b8152600401610a5a90614269565b6001600160a01b0383166139835761397e81601980546000838152601a60205260408120829055600182018355919091527f944998273e477b495144fb8794c914197f3ccb46be2900f4698fd0ef743c96950155565b6139a6565b816001600160a01b0316836001600160a01b0316146139a6576139a68382613b63565b6001600160a01b0382166139bd57610b9081613c00565b826001600160a01b0316826001600160a01b031614610b9057610b908282613caf565b60006001600160e01b03198216637965db0b60e01b148061094d57506301ffc9a760e01b6001600160e01b031983161461094d565b6001600160a01b038216613a6b5760405162461bcd60e51b815260206004820181905260248201527f4552433732313a206d696e7420746f20746865207a65726f20616464726573736044820152606401610a5a565b6000818152601260205260409020546001600160a01b031615613ad05760405162461bcd60e51b815260206004820152601c60248201527f4552433732313a20746f6b656e20616c7265616479206d696e746564000000006044820152606401610a5a565b613adc60008383613729565b6001600160a01b0382166000908152601360205260408120805460019290613b05908490614359565b909155505060008181526012602052604080822080546001600160a01b0319166001600160a01b03861690811790915590518392907fddf252ad1be2c89b69c2b068fc378daa952ba7f163c4a11628f55a4df523b3ef908290a45050565b60006001613b7084611162565b613b7a91906143a4565b600083815260186020526040902054909150808214613bcd576001600160a01b03841660009081526017602090815260408083208584528252808320548484528184208190558352601890915290208190555b5060009182526018602090815260408084208490556001600160a01b039094168352601781528383209183525290812055565b601954600090613c12906001906143a4565b6000838152601a602052604081205460198054939450909284908110613c3a57613c3a6144aa565b906000526020600020015490508060198381548110613c5b57613c5b6144aa565b6000918252602080832090910192909255828152601a90915260408082208490558582528120556019805480613c9357613c93614494565b6001900381819060005260206000200160009055905550505050565b6000613cba83611162565b6001600160a01b039093166000908152601760209081526040808320868452825280832085905593825260189052919091209190915550565b828054613cff906143fe565b90600052602060002090601f016020900481019282613d215760008555613d67565b82601f10613d3a57805160ff1916838001178555613d67565b82800160010185558215613d67579182015b82811115613d67578251825591602001919060010190613d4c565b50613d73929150613d77565b5090565b5b80821115613d735760008155600101613d78565b600067ffffffffffffffff80841115613da757613da76144c0565b604051601f8501601f19908116603f01168101908282118183101715613dcf57613dcf6144c0565b81604052809350858152868686011115613de857600080fd5b858560208301376000602087830101525050509392505050565b600060208284031215613e1457600080fd5b813561138e816144d6565b600060208284031215613e3157600080fd5b815161138e816144d6565b60008060408385031215613e4f57600080fd5b8235613e5a816144d6565b91506020830135613e6a816144d6565b809150509250929050565b600080600060608486031215613e8a57600080fd5b8335613e95816144d6565b92506020840135613ea5816144d6565b929592945050506040919091013590565b60008060008060808587031215613ecc57600080fd5b8435613ed7816144d6565b93506020850135613ee7816144d6565b925060408501359150606085013567ffffffffffffffff811115613f0a57600080fd5b8501601f81018713613f1b57600080fd5b613f2a87823560208401613d8c565b91505092959194509250565b60008060408385031215613f4957600080fd5b8235613f54816144d6565b91506020830135613e6a816144eb565b60008060408385031215613f7757600080fd5b8235613f82816144d6565b9150602083013567ffffffffffffffff811115613f9e57600080fd5b8301601f81018513613faf57600080fd5b613fbe85823560208401613d8c565b9150509250929050565b60008060408385031215613fdb57600080fd5b8235613fe6816144d6565b946020939093013593505050565b60006020828403121561400657600080fd5b813561138e816144eb565b60006020828403121561402357600080fd5b815161138e816144eb565b60006020828403121561404057600080fd5b5035919050565b6000806040838503121561405a57600080fd5b823591506020830135613e6a816144d6565b6000806040838503121561407f57600080fd5b50508035926020909101359150565b6000602082840312156140a057600080fd5b813561138e816144f9565b6000602082840312156140bd57600080fd5b815161138e816144f9565b6000602082840312156140da57600080fd5b5051919050565b600081518084526140f98160208601602086016143bb565b601f01601f19169290920160200192915050565b6000835161411f8184602088016143bb565b8351908301906141338183602088016143bb565b01949350505050565b7f416363657373436f6e74726f6c3a206163636f756e74200000000000000000008152600083516141748160178501602088016143bb565b7001034b99036b4b9b9b4b733903937b6329607d1b60179184019182015283516141a58160288401602088016143bb565b01602801949350505050565b6001600160a01b03858116825284166020820152604081018390526080606082018190526000906141e4908301846140e1565b9695505050505050565b6001600160a01b0383168152604060208201819052600090611897908301846140e1565b6020808252825182820181905260009190848201906040850190845b8181101561424a5783518352928401929184019160010161422e565b50909695505050505050565b60208152600061138e60208301846140e1565b60208082526032908201527f4552433732313a207472616e7366657220746f206e6f6e20455243373231526560408201527131b2b4bb32b91034b6b83632b6b2b73a32b960711b606082015260800190565b6020808252602d908201527f596f7520646f206e6f742068617665207065726d697373696f6e20746f206d6f60408201526c7665207468697320626164676560981b606082015260800190565b60208082526031908201527f4552433732313a207472616e736665722063616c6c6572206973206e6f74206f6040820152701ddb995c881b9bdc88185c1c1c9bdd9959607a1b606082015260800190565b6000821982111561436c5761436c614468565b500190565b6000826143805761438061447e565b500490565b600081600019048311821515161561439f5761439f614468565b500290565b6000828210156143b6576143b6614468565b500390565b60005b838110156143d65781810151838201526020016143be565b838111156116255750506000910152565b6000816143f6576143f6614468565b506000190190565b600181811c9082168061441257607f821691505b6020821081141561443357634e487b7160e01b600052602260045260246000fd5b50919050565b600060001982141561444d5761444d614468565b5060010190565b6000826144635761446361447e565b500690565b634e487b7160e01b600052601160045260246000fd5b634e487b7160e01b600052601260045260246000fd5b634e487b7160e01b600052603160045260246000fd5b634e487b7160e01b600052603260045260246000fd5b634e487b7160e01b600052604160045260246000fd5b6001600160a01b0381168114610bf757600080fd5b8015158114610bf757600080fd5b6001600160e01b031981168114610bf757600080fdfefa8e4989e1d689f7bc5c4b25b87efb51fecdecb19ba62847e29c759e12a89acd048bc71fa1cb2c119c339cf9cf00a97996a19a9d991ce5fe049f2fa5459e7990f0f4b159a6e2a4815eb3ca3df080bfa70c9270662c59bcaa4479a456220183e60538d24a8b7882d7b2e36af243d4af61c23e86e3daa6cb8c887b53220b2f57207c9d7f6f02908185bffb3f7fc9afb29fd7bf93675af8fd4b655ee05c2cee1e0ea2646970667358221220c7920109c83b212b1cfbd7a5d485b49c99aa8c59d0cabe29c65160664e3175c564736f6c63430008060033",
  "immutableReferences": {},
  "source": "pragma solidity ^0.8.0;\n\nimport \"../SmartConsensusMachine.sol\";\nimport \"../AddressManagerReciever.sol\";\n\nimport \"@openzeppelin/contracts/token/ERC20/ERC20.sol\";\nimport \"@openzeppelin/contracts/token/ERC721/extensions/ERC721Enumerable.sol\";\nimport \"@openzeppelin/contracts/token/ERC721/ERC721.sol\";\nimport \"@openzeppelin/contracts/security/Pausable.sol\";\n\ncontract GenericBadge is SmartConsensusMachine, ERC721, Pausable, ERC721Enumerable {\n    \n    uint256 private _tokenIdGenerator = 0;\n    bool public isForeverLocked = false;\n\n    string public badgeColor;\n    string public badgeName;\n\n\n    constructor(string memory _badgeName, string memory _badgeSymbol, address _AddressManagerAddress)\n        ERC721(_badgeName, _badgeSymbol)\n        SmartConsensusMachine(_AddressManagerAddress){\n       \n       // updateAllAddresses();\n        badgeColor = _badgeSymbol;\n        badgeName = _badgeName;\n\n        \n    }      \n\n    \n    //******************************\n    //                            **\n    //     Setup mapping          ** \n    //                            **\n    //******************************\n    struct Badge { // struct will store the gifter address and reason for the gold stars\n        address gifter;\n        string reason;\n    }\n\n    mapping (uint => Badge) public BadgeInfo; // mapping of badge ID to badge struct(reason/gifter address)\n\n    mapping (address => uint[]) public BadgesSent; // mapping of address to tokenIDs sent\n\n\n\n    function setBadgeInfo(address _gifter, string memory _reason, uint _tokenId) internal {\n        BadgeInfo[_tokenId].gifter = _gifter; // assigns this goldstar gifter address to msg.sender\n        BadgeInfo[_tokenId].reason = _reason; // assigns the reason for this goldstar\n        BadgesSent[_gifter].push(_tokenId); // pushes tokenID to the addresses array of tokens\n    }\n\n    function getBadgeReason(uint _tokenId) public view returns (string memory _theReason) {\n        _theReason = BadgeInfo[_tokenId].reason; \n\n        return (_theReason);\n    }\n\n    function getBadgeSender(uint _tokenId) public view returns (address _theGifter) {\n        _theGifter = BadgeInfo[_tokenId].gifter; \n\n        return (_theGifter);\n    }\n\n\n    function getBadgesSent (address _gifter) public view returns (uint[] memory _BadgesSent) {\n       _BadgesSent = BadgesSent[_gifter];\n       return _BadgesSent; // returns array of tokenIDs sent by address\n    }\n\n\n    function isBadgeSender(address addressToCheck, uint badgeTokenID) public view returns (bool){\n\n        if (addressToCheck == (BadgeInfo[badgeTokenID].gifter)) {\n            return true;\n        } else { return false;}\n\n    }\n    \n\n\n    /////////////////////////////////////////////////////////////////////////////////////////////////\n    /////////////////////////////////////////////////////////////////////////////////////////////////\n    /// @dev                                                                                     ////\n    /// Issuance Desk                                                                            ////\n    /////////////////////////////////////////////////////////////////////////////////////////////////\n    /////////////////////////////////////////////////////////////////////////////////////////////////\n\n\n    function issueBadge(address receivingAddress, string memory _reason) public virtual\n        BAILIFF\n        returns(uint newId) { // Right now function also increments and returns tokenId, this will be removed.\n        newId = _issueBadge(receivingAddress, _reason);\n        return newId;\n       \n     }\n\n    function _issueBadge(address receivingAddress, string memory _reason) internal virtual\n        returns(uint newId) { // Right now function also increments and returns tokenId, this will be removed.\n        require((receivingAddress != msg.sender) && (receivingAddress != address(0)));\n        newId = _tokenIdGenerator;\n        setBadgeInfo(msg.sender, _reason, _tokenIdGenerator);\n        _safeMint(receivingAddress, _tokenIdGenerator);\n        _tokenIdGenerator += 1;\n        return newId;\n       \n     }\n\n    function revokeBadge(uint tokenId) public {\n        require(_isApprovedOrOwner(msg.sender, tokenId),\n                    \"Nice Try, Bucko\") ;\n        _burn(tokenId);\n    }\n\n   \n\n    /////////////////////////////////////////////////////////////////////////////////////////////////\n    /////////////////////////////////////////////////////////////////////////////////////////////////\n    /// @dev                                                                                     ////\n    /// Internal Checks                                                                     ////\n    /////////////////////////////////////////////////////////////////////////////////////////////////\n    /////////////////////////////////////////////////////////////////////////////////////////////////\n\n    /////////////////////////////////////////////////////////////////////////////////////////////////\n    /////////////////////////////////////////////////////////////////////////////////////////////////\n    /// @dev                                                                                     ////\n    /// Maintanence\\\\\\\\\\\\\\\\\\\\\\\\\\\\\\\\\\\\\\\\\\\\\\\\\\\\\\                                                   ////\n    /////////////////////////////////////////////////////////////////////////////////////////////////\n    /////////////////////////////////////////////////////////////////////////////////////////////////\n    // Pause the contract if neccesary. Only the Gavels can do this.\n    function pause() public GAVELS {\n        _pause();\n    }\n\n    function unpause() public GAVELS {\n        require(isForeverLocked == false);\n        _unpause();\n    }\n\n\n    function _burnAllBadges() internal returns (bool) {\n        // burn all badges\n        uint256 index = 0;\n        for (index = 0; index < _tokenIdGenerator; index++) {\n            if (_exists(index)) {\n                _burn(index);\n            }   \n        }\n        _tokenIdGenerator = 0;\n        return true;\n    }\n\n    function refreshBadges(bool thisIsNotReversible) public THE_COURT returns (bool) {\n\n        if(thisIsNotReversible == true) {\n            // burn all badges\n            _burnAllBadges();\n            return true;\n        } else {return false;}\n    }\n\n\n    function destroyAndLockContract(uint valueMustBe69) public THE_COURT returns (bool) {\n\n        if(valueMustBe69 == 69) {\n            // burn all badges\n            _burnAllBadges();\n            // set protocol to locked\n            _pause();\n            isForeverLocked = true;\n            return isForeverLocked;\n        } else {return false;}\n    }\n\n\n    /////////////////////////////////////////////////////////////////////////////////////////////////\n    /////////////////////////////////////////////////////////////////////////////////////////////////\n    /// @dev                                                                                     ////\n    /// Transfer rules                                                                           ////\n    /////////////////////////////////////////////////////////////////////////////////////////////////\n    /////////////////////////////////////////////////////////////////////////////////////////////////\n    \n    function _isApprovedOrOwner(address spender, uint256 tokenId)\n        internal view virtual\n        override(ERC721)\n        returns (bool)\n    {\n        require(_exists(tokenId), \"ERC721: operator query for nonexistent token\");\n        address owner = ownerOf(tokenId);\n        return (isApprovedForAll(owner, spender));\n    }\n\n    \n    function _approve(address to, uint256 tokenId)\n    internal virtual\n    override (ERC721)\n    {\n        if (hasRole(THE_COURT_ROLE, msg.sender)) {\n            super._approve(to, tokenId);\n        }\n        \n    }\n\n    function isApprovedForAll(address owner, address operator)\n    public view virtual\n    override (ERC721)\n    returns (bool) {\n\n        bool isApproved = ( hasRole(THE_COURT_ROLE, operator)\n                            || hasRole(GAVELS_BAILIFF, operator)\n                            || hasRole(JURY_BAILIFF, operator));\n        return isApproved;\n    }\n\n\n    function setApprovalForAll(address operator, bool approved)\n    public virtual\n    override (ERC721) {\n        \n         require(   hasRole(THE_COURT_ROLE, msg.sender)\n                    || hasRole(GAVELS_BAILIFF, msg.sender)\n                    || hasRole(JURY_BAILIFF, msg.sender),\n                    \"You do not have permission to move this badge\");\n        super.setApprovalForAll(operator, approved);\n    }\n\n    function _beforeTokenTransfer(address from, address to, uint256 tokenId)\n        internal\n        override(ERC721, ERC721Enumerable)\n    {\n\n        super._beforeTokenTransfer(from, to, tokenId);\n    }\n\n    function supportsInterface(bytes4 interfaceId)\n        public\n        view\n        override(ERC721, ERC721Enumerable, AccessControlEnumerable)\n        returns (bool)\n    {\n        return super.supportsInterface(interfaceId);\n    }\n\n    //transfer functions from erc721 - need to override\n    function transferFrom(\n        address from,\n        address to,\n        uint256 tokenId\n    ) public virtual override {\n\n        require(_isApprovedOrOwner(msg.sender, tokenId),\n                    \"You do not have permission to move this badge\");\n        \n        super.transferFrom(from, to, tokenId);\n        // revert(\"You're not authorized to use this function\"); // makes function revert back/fail\n    }\n\n    function safeTransferFrom(\n        address from,\n        address to,\n        uint256 tokenId\n    ) public virtual override {\n         require(_isApprovedOrOwner(msg.sender, tokenId),\n                    \"You do not have permission to move this badge\");\n        super.safeTransferFrom(from, to, tokenId);\n    }\n\n\n    /////////////////////////////////////////////////////////////////////////////////////////////////\n    /////////////////////////////////////////////////////////////////////////////////////////////////\n    /// @dev                                                                                     ////\n    /// End                                                                                      ////\n    /////////////////////////////////////////////////////////////////////////////////////////////////\n    /////////////////////////////////////////////////////////////////////////////////////////////////\n}",
  "sourcePath": "/home/n/Desktop/PinkSlips_FrontEnd_REFORMAT (copy)/contracts/src/ERC721/GenericBadge.sol",
  "compiler": {
    "name": "solc",
    "version": "0.8.6+commit.11564f7e.Emscripten.clang"
  },
  "schemaVersion": "3.4.1",
  "updatedAt": "2021-08-08T02:58:40.401Z",
  "devdoc": {
    "kind": "dev",
    "methods": {
      "approve(address,uint256)": {
        "details": "See {IERC721-approve}."
      },
      "balanceOf(address)": {
        "details": "See {IERC721-balanceOf}."
      },
      "getApproved(uint256)": {
        "details": "See {IERC721-getApproved}."
      },
      "getRoleAdmin(bytes32)": {
        "details": "Returns the admin role that controls `role`. See {grantRole} and {revokeRole}. To change a role's admin, use {_setRoleAdmin}."
      },
      "getRoleMember(bytes32,uint256)": {
        "details": "Returns one of the accounts that have `role`. `index` must be a value between 0 and {getRoleMemberCount}, non-inclusive. Role bearers are not sorted in any particular way, and their ordering may change at any point. WARNING: When using {getRoleMember} and {getRoleMemberCount}, make sure you perform all queries on the same block. See the following https://forum.openzeppelin.com/t/iterating-over-elements-on-enumerableset-in-openzeppelin-contracts/2296[forum post] for more information."
      },
      "getRoleMemberCount(bytes32)": {
        "details": "Returns the number of accounts that have `role`. Can be used together with {getRoleMember} to enumerate all bearers of a role."
      },
      "grantRole(bytes32,address)": {
        "details": "Overload {grantRole} to track enumerable memberships"
      },
      "hasRole(bytes32,address)": {
        "details": "Returns `true` if `account` has been granted `role`."
      },
      "isApprovedForAll(address,address)": {
        "details": "See {IERC721-isApprovedForAll}."
      },
      "issueBadge(address,string)": {
        "details": "//// Issuance Desk                                                                            ////"
      },
      "name()": {
        "details": "See {IERC721Metadata-name}."
      },
      "ownerOf(uint256)": {
        "details": "See {IERC721-ownerOf}."
      },
      "pause()": {
        "details": "//// Maintanence\\\\\\\\\\\\\\\\\\\\\\\\\\\\\\\\\\\\\\\\\\\\\\\\\\\\\\                                                   ////"
      },
      "paused()": {
        "details": "Returns true if the contract is paused, and false otherwise."
      },
      "renounceRole(bytes32,address)": {
        "details": "Overload {renounceRole} to track enumerable memberships"
      },
      "revokeRole(bytes32,address)": {
        "details": "Overload {revokeRole} to track enumerable memberships"
      },
      "safeTransferFrom(address,address,uint256)": {
        "details": "See {IERC721-safeTransferFrom}."
      },
      "safeTransferFrom(address,address,uint256,bytes)": {
        "details": "See {IERC721-safeTransferFrom}."
      },
      "setApprovalForAll(address,bool)": {
        "details": "See {IERC721-setApprovalForAll}."
      },
      "symbol()": {
        "details": "See {IERC721Metadata-symbol}."
      },
      "tokenByIndex(uint256)": {
        "details": "See {IERC721Enumerable-tokenByIndex}."
      },
      "tokenOfOwnerByIndex(address,uint256)": {
        "details": "See {IERC721Enumerable-tokenOfOwnerByIndex}."
      },
      "tokenURI(uint256)": {
        "details": "See {IERC721Metadata-tokenURI}."
      },
      "totalSupply()": {
        "details": "See {IERC721Enumerable-totalSupply}."
      },
      "transferFrom(address,address,uint256)": {
        "details": "See {IERC721-transferFrom}."
      }
    },
    "version": 1
  },
  "userdoc": {
    "kind": "user",
    "methods": {},
    "version": 1
  }
}