{
  "contractName": "GenericBadgeOLD",
  "abi": [
    {
      "inputs": [
        {
          "internalType": "string",
          "name": "_badgeName",
          "type": "string"
        },
        {
          "internalType": "string",
          "name": "_badgeSymbol",
          "type": "string"
        },
        {
          "internalType": "bool",
          "name": "_payReciver",
          "type": "bool"
        },
        {
          "internalType": "address",
          "name": "_AddressManagerAddress",
          "type": "address"
        }
      ],
      "stateMutability": "nonpayable",
      "type": "constructor"
    },
    {
      "anonymous": false,
      "inputs": [
        {
          "indexed": true,
          "internalType": "address",
          "name": "owner",
          "type": "address"
        },
        {
          "indexed": true,
          "internalType": "address",
          "name": "approved",
          "type": "address"
        },
        {
          "indexed": true,
          "internalType": "uint256",
          "name": "tokenId",
          "type": "uint256"
        }
      ],
      "name": "Approval",
      "type": "event"
    },
    {
      "anonymous": false,
      "inputs": [
        {
          "indexed": true,
          "internalType": "address",
          "name": "owner",
          "type": "address"
        },
        {
          "indexed": true,
          "internalType": "address",
          "name": "operator",
          "type": "address"
        },
        {
          "indexed": false,
          "internalType": "bool",
          "name": "approved",
          "type": "bool"
        }
      ],
      "name": "ApprovalForAll",
      "type": "event"
    },
    {
      "anonymous": false,
      "inputs": [
        {
          "indexed": false,
          "internalType": "address",
          "name": "account",
          "type": "address"
        }
      ],
      "name": "Paused",
      "type": "event"
    },
    {
      "anonymous": false,
      "inputs": [
        {
          "indexed": true,
          "internalType": "bytes32",
          "name": "role",
          "type": "bytes32"
        },
        {
          "indexed": true,
          "internalType": "bytes32",
          "name": "previousAdminRole",
          "type": "bytes32"
        },
        {
          "indexed": true,
          "internalType": "bytes32",
          "name": "newAdminRole",
          "type": "bytes32"
        }
      ],
      "name": "RoleAdminChanged",
      "type": "event"
    },
    {
      "anonymous": false,
      "inputs": [
        {
          "indexed": true,
          "internalType": "bytes32",
          "name": "role",
          "type": "bytes32"
        },
        {
          "indexed": true,
          "internalType": "address",
          "name": "account",
          "type": "address"
        },
        {
          "indexed": true,
          "internalType": "address",
          "name": "sender",
          "type": "address"
        }
      ],
      "name": "RoleGranted",
      "type": "event"
    },
    {
      "anonymous": false,
      "inputs": [
        {
          "indexed": true,
          "internalType": "bytes32",
          "name": "role",
          "type": "bytes32"
        },
        {
          "indexed": true,
          "internalType": "address",
          "name": "account",
          "type": "address"
        },
        {
          "indexed": true,
          "internalType": "address",
          "name": "sender",
          "type": "address"
        }
      ],
      "name": "RoleRevoked",
      "type": "event"
    },
    {
      "anonymous": false,
      "inputs": [
        {
          "indexed": true,
          "internalType": "address",
          "name": "from",
          "type": "address"
        },
        {
          "indexed": true,
          "internalType": "address",
          "name": "to",
          "type": "address"
        },
        {
          "indexed": true,
          "internalType": "uint256",
          "name": "tokenId",
          "type": "uint256"
        }
      ],
      "name": "Transfer",
      "type": "event"
    },
    {
      "anonymous": false,
      "inputs": [
        {
          "indexed": false,
          "internalType": "address",
          "name": "account",
          "type": "address"
        }
      ],
      "name": "Unpaused",
      "type": "event"
    },
    {
      "inputs": [],
      "name": "AddressManagerAddress",
      "outputs": [
        {
          "internalType": "address",
          "name": "",
          "type": "address"
        }
      ],
      "stateMutability": "view",
      "type": "function"
    },
    {
      "inputs": [
        {
          "internalType": "uint256",
          "name": "",
          "type": "uint256"
        }
      ],
      "name": "BadgeInfo",
      "outputs": [
        {
          "internalType": "address",
          "name": "gifter",
          "type": "address"
        },
        {
          "internalType": "string",
          "name": "reason",
          "type": "string"
        }
      ],
      "stateMutability": "view",
      "type": "function"
    },
    {
      "inputs": [
        {
          "internalType": "address",
          "name": "",
          "type": "address"
        },
        {
          "internalType": "uint256",
          "name": "",
          "type": "uint256"
        }
      ],
      "name": "BadgesSent",
      "outputs": [
        {
          "internalType": "uint256",
          "name": "",
          "type": "uint256"
        }
      ],
      "stateMutability": "view",
      "type": "function"
    },
    {
      "inputs": [],
      "name": "ChadBadgeAddress",
      "outputs": [
        {
          "internalType": "address",
          "name": "",
          "type": "address"
        }
      ],
      "stateMutability": "view",
      "type": "function"
    },
    {
      "inputs": [],
      "name": "DEFAULT_ADMIN_ROLE",
      "outputs": [
        {
          "internalType": "bytes32",
          "name": "",
          "type": "bytes32"
        }
      ],
      "stateMutability": "view",
      "type": "function"
    },
    {
      "inputs": [],
      "name": "GAVELS_BAILIFF",
      "outputs": [
        {
          "internalType": "bytes32",
          "name": "",
          "type": "bytes32"
        }
      ],
      "stateMutability": "view",
      "type": "function"
    },
    {
      "inputs": [],
      "name": "GavelDAOAgent",
      "outputs": [
        {
          "internalType": "address",
          "name": "",
          "type": "address"
        }
      ],
      "stateMutability": "view",
      "type": "function"
    },
    {
      "inputs": [],
      "name": "GavelTokenAddress",
      "outputs": [
        {
          "internalType": "address",
          "name": "",
          "type": "address"
        }
      ],
      "stateMutability": "view",
      "type": "function"
    },
    {
      "inputs": [],
      "name": "GavelVote",
      "outputs": [
        {
          "internalType": "bool",
          "name": "",
          "type": "bool"
        }
      ],
      "stateMutability": "view",
      "type": "function"
    },
    {
      "inputs": [],
      "name": "GoldStarAddress",
      "outputs": [
        {
          "internalType": "address",
          "name": "",
          "type": "address"
        }
      ],
      "stateMutability": "view",
      "type": "function"
    },
    {
      "inputs": [],
      "name": "JERK_ROLE",
      "outputs": [
        {
          "internalType": "bytes32",
          "name": "",
          "type": "bytes32"
        }
      ],
      "stateMutability": "view",
      "type": "function"
    },
    {
      "inputs": [],
      "name": "JURY_BAILIFF",
      "outputs": [
        {
          "internalType": "bytes32",
          "name": "",
          "type": "bytes32"
        }
      ],
      "stateMutability": "view",
      "type": "function"
    },
    {
      "inputs": [],
      "name": "JuryDAOAgent",
      "outputs": [
        {
          "internalType": "address",
          "name": "",
          "type": "address"
        }
      ],
      "stateMutability": "view",
      "type": "function"
    },
    {
      "inputs": [],
      "name": "JuryPoolAddress",
      "outputs": [
        {
          "internalType": "address",
          "name": "",
          "type": "address"
        }
      ],
      "stateMutability": "view",
      "type": "function"
    },
    {
      "inputs": [],
      "name": "JuryVote",
      "outputs": [
        {
          "internalType": "bool",
          "name": "",
          "type": "bool"
        }
      ],
      "stateMutability": "view",
      "type": "function"
    },
    {
      "inputs": [],
      "name": "MINI_BAILIFF_ROLE",
      "outputs": [
        {
          "internalType": "bytes32",
          "name": "",
          "type": "bytes32"
        }
      ],
      "stateMutability": "view",
      "type": "function"
    },
    {
      "inputs": [],
      "name": "MiniBailiff",
      "outputs": [
        {
          "internalType": "address",
          "name": "",
          "type": "address"
        }
      ],
      "stateMutability": "view",
      "type": "function"
    },
    {
      "inputs": [],
      "name": "PinkSlipAddress",
      "outputs": [
        {
          "internalType": "address",
          "name": "",
          "type": "address"
        }
      ],
      "stateMutability": "view",
      "type": "function"
    },
    {
      "inputs": [],
      "name": "RedPenTokenAddress",
      "outputs": [
        {
          "internalType": "address",
          "name": "",
          "type": "address"
        }
      ],
      "stateMutability": "view",
      "type": "function"
    },
    {
      "inputs": [],
      "name": "THE_COURT_ROLE",
      "outputs": [
        {
          "internalType": "bytes32",
          "name": "",
          "type": "bytes32"
        }
      ],
      "stateMutability": "view",
      "type": "function"
    },
    {
      "inputs": [],
      "name": "TheCourtAddress",
      "outputs": [
        {
          "internalType": "address",
          "name": "",
          "type": "address"
        }
      ],
      "stateMutability": "view",
      "type": "function"
    },
    {
      "inputs": [],
      "name": "TreasuryAddress",
      "outputs": [
        {
          "internalType": "address",
          "name": "",
          "type": "address"
        }
      ],
      "stateMutability": "view",
      "type": "function"
    },
    {
      "inputs": [],
      "name": "addressManager",
      "outputs": [
        {
          "internalType": "contract AddressManager",
          "name": "",
          "type": "address"
        }
      ],
      "stateMutability": "view",
      "type": "function"
    },
    {
      "inputs": [
        {
          "internalType": "address",
          "name": "to",
          "type": "address"
        },
        {
          "internalType": "uint256",
          "name": "tokenId",
          "type": "uint256"
        }
      ],
      "name": "approve",
      "outputs": [],
      "stateMutability": "nonpayable",
      "type": "function"
    },
    {
      "inputs": [],
      "name": "badgeColor",
      "outputs": [
        {
          "internalType": "string",
          "name": "",
          "type": "string"
        }
      ],
      "stateMutability": "view",
      "type": "function"
    },
    {
      "inputs": [],
      "name": "badgeName",
      "outputs": [
        {
          "internalType": "string",
          "name": "",
          "type": "string"
        }
      ],
      "stateMutability": "view",
      "type": "function"
    },
    {
      "inputs": [
        {
          "internalType": "address",
          "name": "owner",
          "type": "address"
        }
      ],
      "name": "balanceOf",
      "outputs": [
        {
          "internalType": "uint256",
          "name": "",
          "type": "uint256"
        }
      ],
      "stateMutability": "view",
      "type": "function"
    },
    {
      "inputs": [
        {
          "internalType": "uint256",
          "name": "tokenId",
          "type": "uint256"
        }
      ],
      "name": "getApproved",
      "outputs": [
        {
          "internalType": "address",
          "name": "",
          "type": "address"
        }
      ],
      "stateMutability": "view",
      "type": "function"
    },
    {
      "inputs": [
        {
          "internalType": "bytes32",
          "name": "role",
          "type": "bytes32"
        }
      ],
      "name": "getRoleAdmin",
      "outputs": [
        {
          "internalType": "bytes32",
          "name": "",
          "type": "bytes32"
        }
      ],
      "stateMutability": "view",
      "type": "function"
    },
    {
      "inputs": [
        {
          "internalType": "bytes32",
          "name": "role",
          "type": "bytes32"
        },
        {
          "internalType": "uint256",
          "name": "index",
          "type": "uint256"
        }
      ],
      "name": "getRoleMember",
      "outputs": [
        {
          "internalType": "address",
          "name": "",
          "type": "address"
        }
      ],
      "stateMutability": "view",
      "type": "function"
    },
    {
      "inputs": [
        {
          "internalType": "bytes32",
          "name": "role",
          "type": "bytes32"
        }
      ],
      "name": "getRoleMemberCount",
      "outputs": [
        {
          "internalType": "uint256",
          "name": "",
          "type": "uint256"
        }
      ],
      "stateMutability": "view",
      "type": "function"
    },
    {
      "inputs": [
        {
          "internalType": "bytes32",
          "name": "role",
          "type": "bytes32"
        },
        {
          "internalType": "address",
          "name": "account",
          "type": "address"
        }
      ],
      "name": "grantRole",
      "outputs": [],
      "stateMutability": "nonpayable",
      "type": "function"
    },
    {
      "inputs": [
        {
          "internalType": "bytes32",
          "name": "role",
          "type": "bytes32"
        },
        {
          "internalType": "address",
          "name": "account",
          "type": "address"
        }
      ],
      "name": "hasRole",
      "outputs": [
        {
          "internalType": "bool",
          "name": "",
          "type": "bool"
        }
      ],
      "stateMutability": "view",
      "type": "function"
    },
    {
      "inputs": [],
      "name": "isForeverLocked",
      "outputs": [
        {
          "internalType": "bool",
          "name": "",
          "type": "bool"
        }
      ],
      "stateMutability": "view",
      "type": "function"
    },
    {
      "inputs": [],
      "name": "jerkSanctions",
      "outputs": [
        {
          "internalType": "bool",
          "name": "",
          "type": "bool"
        }
      ],
      "stateMutability": "view",
      "type": "function"
    },
    {
      "inputs": [],
      "name": "mintingCost",
      "outputs": [
        {
          "internalType": "uint256",
          "name": "",
          "type": "uint256"
        }
      ],
      "stateMutability": "view",
      "type": "function"
    },
    {
      "inputs": [],
      "name": "mintingCostFloor",
      "outputs": [
        {
          "internalType": "uint256",
          "name": "",
          "type": "uint256"
        }
      ],
      "stateMutability": "view",
      "type": "function"
    },
    {
      "inputs": [],
      "name": "name",
      "outputs": [
        {
          "internalType": "string",
          "name": "",
          "type": "string"
        }
      ],
      "stateMutability": "view",
      "type": "function"
    },
    {
      "inputs": [
        {
          "internalType": "uint256",
          "name": "tokenId",
          "type": "uint256"
        }
      ],
      "name": "ownerOf",
      "outputs": [
        {
          "internalType": "address",
          "name": "",
          "type": "address"
        }
      ],
      "stateMutability": "view",
      "type": "function"
    },
    {
      "inputs": [],
      "name": "paused",
      "outputs": [
        {
          "internalType": "bool",
          "name": "",
          "type": "bool"
        }
      ],
      "stateMutability": "view",
      "type": "function"
    },
    {
      "inputs": [],
      "name": "payItForwardTreasuryRatio_Divisor",
      "outputs": [
        {
          "internalType": "uint256",
          "name": "",
          "type": "uint256"
        }
      ],
      "stateMutability": "view",
      "type": "function"
    },
    {
      "inputs": [],
      "name": "payItForwardTreasuryRatio_Numerator",
      "outputs": [
        {
          "internalType": "uint256",
          "name": "",
          "type": "uint256"
        }
      ],
      "stateMutability": "view",
      "type": "function"
    },
    {
      "inputs": [],
      "name": "payReciver",
      "outputs": [
        {
          "internalType": "bool",
          "name": "",
          "type": "bool"
        }
      ],
      "stateMutability": "view",
      "type": "function"
    },
    {
      "inputs": [],
      "name": "redPens",
      "outputs": [
        {
          "internalType": "contract ERC20",
          "name": "",
          "type": "address"
        }
      ],
      "stateMutability": "view",
      "type": "function"
    },
    {
      "inputs": [
        {
          "internalType": "bytes32",
          "name": "role",
          "type": "bytes32"
        },
        {
          "internalType": "address",
          "name": "account",
          "type": "address"
        }
      ],
      "name": "renounceRole",
      "outputs": [],
      "stateMutability": "nonpayable",
      "type": "function"
    },
    {
      "inputs": [],
      "name": "resetVote",
      "outputs": [],
      "stateMutability": "nonpayable",
      "type": "function"
    },
    {
      "inputs": [
        {
          "internalType": "bytes32",
          "name": "role",
          "type": "bytes32"
        },
        {
          "internalType": "address",
          "name": "account",
          "type": "address"
        }
      ],
      "name": "revokeRole",
      "outputs": [],
      "stateMutability": "nonpayable",
      "type": "function"
    },
    {
      "inputs": [],
      "name": "symbol",
      "outputs": [
        {
          "internalType": "string",
          "name": "",
          "type": "string"
        }
      ],
      "stateMutability": "view",
      "type": "function"
    },
    {
      "inputs": [],
      "name": "syncAllRoles",
      "outputs": [],
      "stateMutability": "nonpayable",
      "type": "function"
    },
    {
      "inputs": [
        {
          "internalType": "bytes32",
          "name": "ROLE_TO_SYNC",
          "type": "bytes32"
        }
      ],
      "name": "syncSingleRole",
      "outputs": [],
      "stateMutability": "nonpayable",
      "type": "function"
    },
    {
      "inputs": [],
      "name": "syncVotes",
      "outputs": [],
      "stateMutability": "nonpayable",
      "type": "function"
    },
    {
      "inputs": [
        {
          "internalType": "uint256",
          "name": "index",
          "type": "uint256"
        }
      ],
      "name": "tokenByIndex",
      "outputs": [
        {
          "internalType": "uint256",
          "name": "",
          "type": "uint256"
        }
      ],
      "stateMutability": "view",
      "type": "function"
    },
    {
      "inputs": [
        {
          "internalType": "address",
          "name": "owner",
          "type": "address"
        },
        {
          "internalType": "uint256",
          "name": "index",
          "type": "uint256"
        }
      ],
      "name": "tokenOfOwnerByIndex",
      "outputs": [
        {
          "internalType": "uint256",
          "name": "",
          "type": "uint256"
        }
      ],
      "stateMutability": "view",
      "type": "function"
    },
    {
      "inputs": [
        {
          "internalType": "uint256",
          "name": "tokenId",
          "type": "uint256"
        }
      ],
      "name": "tokenURI",
      "outputs": [
        {
          "internalType": "string",
          "name": "",
          "type": "string"
        }
      ],
      "stateMutability": "view",
      "type": "function"
    },
    {
      "inputs": [],
      "name": "totalSupply",
      "outputs": [
        {
          "internalType": "uint256",
          "name": "",
          "type": "uint256"
        }
      ],
      "stateMutability": "view",
      "type": "function"
    },
    {
      "inputs": [],
      "name": "updateAddressManager",
      "outputs": [],
      "stateMutability": "nonpayable",
      "type": "function"
    },
    {
      "inputs": [],
      "name": "updateAllAddresses",
      "outputs": [],
      "stateMutability": "nonpayable",
      "type": "function"
    },
    {
      "inputs": [],
      "name": "updateAllRoles",
      "outputs": [],
      "stateMutability": "nonpayable",
      "type": "function"
    },
    {
      "inputs": [],
      "name": "updateDAOAddresses",
      "outputs": [],
      "stateMutability": "nonpayable",
      "type": "function"
    },
    {
      "inputs": [
        {
          "internalType": "bytes32",
          "name": "ROLE_TO_UPDATE",
          "type": "bytes32"
        }
      ],
      "name": "updateSingleRole",
      "outputs": [],
      "stateMutability": "nonpayable",
      "type": "function"
    },
    {
      "inputs": [],
      "name": "updateTokenAddresses",
      "outputs": [],
      "stateMutability": "nonpayable",
      "type": "function"
    },
    {
      "inputs": [
        {
          "internalType": "uint256",
          "name": "_tokenId",
          "type": "uint256"
        }
      ],
      "name": "getBadgeReason",
      "outputs": [
        {
          "internalType": "string",
          "name": "_theReason",
          "type": "string"
        }
      ],
      "stateMutability": "view",
      "type": "function"
    },
    {
      "inputs": [
        {
          "internalType": "uint256",
          "name": "_tokenId",
          "type": "uint256"
        }
      ],
      "name": "getBadgeSender",
      "outputs": [
        {
          "internalType": "address",
          "name": "_theGifter",
          "type": "address"
        }
      ],
      "stateMutability": "view",
      "type": "function"
    },
    {
      "inputs": [
        {
          "internalType": "address",
          "name": "_gifter",
          "type": "address"
        }
      ],
      "name": "getBadgesSent",
      "outputs": [
        {
          "internalType": "uint256[]",
          "name": "_BadgesSent",
          "type": "uint256[]"
        }
      ],
      "stateMutability": "view",
      "type": "function"
    },
    {
      "inputs": [
        {
          "internalType": "address",
          "name": "addressToCheck",
          "type": "address"
        },
        {
          "internalType": "uint256",
          "name": "badgeTokenID",
          "type": "uint256"
        }
      ],
      "name": "isBadgeSender",
      "outputs": [
        {
          "internalType": "bool",
          "name": "",
          "type": "bool"
        }
      ],
      "stateMutability": "nonpayable",
      "type": "function"
    },
    {
      "inputs": [
        {
          "internalType": "address",
          "name": "receivingAddress",
          "type": "address"
        },
        {
          "internalType": "string",
          "name": "_reason",
          "type": "string"
        }
      ],
      "name": "issueBadge",
      "outputs": [
        {
          "internalType": "uint256",
          "name": "newId",
          "type": "uint256"
        }
      ],
      "stateMutability": "nonpayable",
      "type": "function"
    },
    {
      "inputs": [
        {
          "internalType": "uint256",
          "name": "tokenId",
          "type": "uint256"
        }
      ],
      "name": "revokeBadge",
      "outputs": [],
      "stateMutability": "nonpayable",
      "type": "function"
    },
    {
      "inputs": [
        {
          "internalType": "uint256",
          "name": "costInWei",
          "type": "uint256"
        }
      ],
      "name": "setMintingCost",
      "outputs": [
        {
          "internalType": "bool",
          "name": "",
          "type": "bool"
        }
      ],
      "stateMutability": "nonpayable",
      "type": "function"
    },
    {
      "inputs": [
        {
          "internalType": "uint256",
          "name": "costFloorInWei",
          "type": "uint256"
        }
      ],
      "name": "setMintingCostFloor",
      "outputs": [
        {
          "internalType": "bool",
          "name": "",
          "type": "bool"
        }
      ],
      "stateMutability": "nonpayable",
      "type": "function"
    },
    {
      "inputs": [],
      "name": "pause",
      "outputs": [],
      "stateMutability": "nonpayable",
      "type": "function"
    },
    {
      "inputs": [],
      "name": "unpause",
      "outputs": [],
      "stateMutability": "nonpayable",
      "type": "function"
    },
    {
      "inputs": [],
      "name": "updatePaymentToken",
      "outputs": [],
      "stateMutability": "nonpayable",
      "type": "function"
    },
    {
      "inputs": [
        {
          "internalType": "bool",
          "name": "thisIsNotReversible",
          "type": "bool"
        }
      ],
      "name": "refreshBadges",
      "outputs": [
        {
          "internalType": "bool",
          "name": "",
          "type": "bool"
        }
      ],
      "stateMutability": "nonpayable",
      "type": "function"
    },
    {
      "inputs": [
        {
          "internalType": "uint256",
          "name": "valueMustBe69",
          "type": "uint256"
        }
      ],
      "name": "destroyAndLockContract",
      "outputs": [
        {
          "internalType": "bool",
          "name": "",
          "type": "bool"
        }
      ],
      "stateMutability": "nonpayable",
      "type": "function"
    },
    {
      "inputs": [
        {
          "internalType": "address",
          "name": "owner",
          "type": "address"
        },
        {
          "internalType": "address",
          "name": "operator",
          "type": "address"
        }
      ],
      "name": "isApprovedForAll",
      "outputs": [
        {
          "internalType": "bool",
          "name": "",
          "type": "bool"
        }
      ],
      "stateMutability": "view",
      "type": "function"
    },
    {
      "inputs": [
        {
          "internalType": "address",
          "name": "operator",
          "type": "address"
        },
        {
          "internalType": "bool",
          "name": "approved",
          "type": "bool"
        }
      ],
      "name": "setApprovalForAll",
      "outputs": [],
      "stateMutability": "nonpayable",
      "type": "function"
    },
    {
      "inputs": [
        {
          "internalType": "bytes4",
          "name": "interfaceId",
          "type": "bytes4"
        }
      ],
      "name": "supportsInterface",
      "outputs": [
        {
          "internalType": "bool",
          "name": "",
          "type": "bool"
        }
      ],
      "stateMutability": "view",
      "type": "function"
    },
    {
      "inputs": [
        {
          "internalType": "address",
          "name": "from",
          "type": "address"
        },
        {
          "internalType": "address",
          "name": "to",
          "type": "address"
        },
        {
          "internalType": "uint256",
          "name": "tokenId",
          "type": "uint256"
        }
      ],
      "name": "transferFrom",
      "outputs": [],
      "stateMutability": "nonpayable",
      "type": "function"
    },
    {
      "inputs": [
        {
          "internalType": "address",
          "name": "from",
          "type": "address"
        },
        {
          "internalType": "address",
          "name": "to",
          "type": "address"
        },
        {
          "internalType": "uint256",
          "name": "tokenId",
          "type": "uint256"
        }
      ],
      "name": "safeTransferFrom",
      "outputs": [],
      "stateMutability": "nonpayable",
      "type": "function"
    },
    {
      "inputs": [
        {
          "internalType": "address",
          "name": "from",
          "type": "address"
        },
        {
          "internalType": "address",
          "name": "to",
          "type": "address"
        },
        {
          "internalType": "uint256",
          "name": "tokenId",
          "type": "uint256"
        },
        {
          "internalType": "bytes",
          "name": "_data",
          "type": "bytes"
        }
      ],
      "name": "safeTransferFrom",
      "outputs": [],
      "stateMutability": "nonpayable",
      "type": "function"
    }
  ],
  "bytecode": "0x60806040526000805460ff199081168255600f805463ffffffff60a01b191690556729a2241af62c0000601b5567016345785d8a0000601c556002601d556003601e55601f91909155602080549091169055600554602380546001600160a01b0319166001600160a01b039092169190911790553480156200008057600080fd5b506040516200591838038062005918833981016040819052620000a39162000d2c565b600380546001600160a01b0383166001600160a01b03199182168117909255600f80549091169091179055838382620000db620002b8565b620000e5620002ce565b600d54620000ff906000906001600160a01b031662000419565b600d5462000138907f0538d24a8b7882d7b2e36af243d4af61c23e86e3daa6cb8c887b53220b2f5720906001600160a01b031662000419565b600a5462000171907f048bc71fa1cb2c119c339cf9cf00a97996a19a9d991ce5fe049f2fa5459e7990906001600160a01b031662000419565b600b54620001aa907ffa8e4989e1d689f7bc5c4b25b87efb51fecdecb19ba62847e29c759e12a89acd906001600160a01b031662000419565b600e54620001e3907ff0f4b159a6e2a4815eb3ca3df080bfa70c9270662c59bcaa4479a456220183e6906001600160a01b031662000419565b620002107f7c9d7f6f02908185bffb3f7fc9afb29fd7bf93675af8fd4b655ee05c2cee1e0e600062000419565b5081516200022690601090602085019062000b65565b5080516200023c90601190602084019062000b65565b50506016805460ff191690555082516200025e90602190602086019062000b65565b5083516200027490602290602087019062000b65565b5050602080549115156101000261ff00199092169190911790555050600554602380546001600160a01b0319166001600160a01b0390921691909117905562000e0e565b620002c26200045c565b620002cc620006c7565b565b600f60009054906101000a90046001600160a01b03166001600160a01b031663ff7e88ec6040518163ffffffff1660e01b815260040160206040518083038186803b1580156200031d57600080fd5b505afa15801562000332573d6000803e3d6000fd5b505050506040513d601f19601f8201168201806040525081019062000358919062000d0e565b600f60156101000a81548160ff021916908315150217905550600f60009054906101000a90046001600160a01b03166001600160a01b0316632fb565856040518163ffffffff1660e01b815260040160206040518083038186803b158015620003c057600080fd5b505afa158015620003d5573d6000803e3d6000fd5b505050506040513d601f19601f82011682018060405250810190620003fb919062000d0e565b600f8054911515600160b01b0260ff60b01b19909216919091179055565b62000430828262000a5b60201b62001ecb1760201c565b60008281526002602090815260409091206200045791839062001ed562000a6b821b17901c565b505050565b600f60009054906101000a90046001600160a01b03166001600160a01b031663dadf56ac6040518163ffffffff1660e01b815260040160206040518083038186803b158015620004ab57600080fd5b505afa158015620004c0573d6000803e3d6000fd5b505050506040513d601f19601f82011682018060405250810190620004e6919062000cf0565b600a80546001600160a01b0319166001600160a01b03928316179055600f546040805163024bebe960e01b81529051919092169163024bebe9916004808301926020929190829003018186803b1580156200054057600080fd5b505afa15801562000555573d6000803e3d6000fd5b505050506040513d601f19601f820116820180604052508101906200057b919062000cf0565b600b80546001600160a01b0319166001600160a01b03928316179055600f5460408051635b5c251f60e01b815290519190921691635b5c251f916004808301926020929190829003018186803b158015620005d557600080fd5b505afa158015620005ea573d6000803e3d6000fd5b505050506040513d601f19601f8201168201806040525081019062000610919062000cf0565b600c80546001600160a01b0319166001600160a01b03928316179055600f5460408051637310bf1d60e11b81529051919092169163e6217e3a916004808301926020929190829003018186803b1580156200066a57600080fd5b505afa1580156200067f573d6000803e3d6000fd5b505050506040513d601f19601f82011682018060405250810190620006a5919062000cf0565b600e80546001600160a01b0319166001600160a01b0392909216919091179055565b600f60009054906101000a90046001600160a01b03166001600160a01b03166321d7f0086040518163ffffffff1660e01b815260040160206040518083038186803b1580156200071657600080fd5b505afa1580156200072b573d6000803e3d6000fd5b505050506040513d601f19601f8201168201806040525081019062000751919062000cf0565b600480546001600160a01b0319166001600160a01b03928316178155600f546040805163762ddb5960e01b81529051919093169263762ddb599281810192602092909190829003018186803b158015620007aa57600080fd5b505afa158015620007bf573d6000803e3d6000fd5b505050506040513d601f19601f82011682018060405250810190620007e5919062000cf0565b600580546001600160a01b0319166001600160a01b03928316179055600f546040805163bfb7dc9960e01b81529051919092169163bfb7dc99916004808301926020929190829003018186803b1580156200083f57600080fd5b505afa15801562000854573d6000803e3d6000fd5b505050506040513d601f19601f820116820180604052508101906200087a919062000cf0565b600680546001600160a01b0319166001600160a01b03928316179055600f5460408051633e6111eb60e21b81529051919092169163f98447ac916004808301926020929190829003018186803b158015620008d457600080fd5b505afa158015620008e9573d6000803e3d6000fd5b505050506040513d601f19601f820116820180604052508101906200090f919062000cf0565b600780546001600160a01b0319166001600160a01b03928316179055600f5460408051630fe1ba9f60e21b815290519190921691633f86ea7c916004808301926020929190829003018186803b1580156200096957600080fd5b505afa1580156200097e573d6000803e3d6000fd5b505050506040513d601f19601f82011682018060405250810190620009a4919062000cf0565b600880546001600160a01b0319166001600160a01b03928316179055600f5460408051636b58477560e01b815290519190921691636b584775916004808301926020929190829003018186803b158015620009fe57600080fd5b505afa15801562000a13573d6000803e3d6000fd5b505050506040513d601f19601f8201168201806040525081019062000a39919062000cf0565b600980546001600160a01b0319166001600160a01b0392909216919091179055565b62000a67828262000a8b565b5050565b600062000a82836001600160a01b03841662000b13565b90505b92915050565b60008281526001602090815260408083206001600160a01b038516845290915290205460ff1662000a675760008281526001602081815260408084206001600160a01b0386168086529252808420805460ff19169093179092559051339285917f2f8788117e7eff1d82e926ec794901d17c78024a50270940304540a733656f0d9190a45050565b600081815260018301602052604081205462000b5c5750815460018181018455600084815260208082209093018490558454848252828601909352604090209190915562000a85565b50600062000a85565b82805462000b739062000dbb565b90600052602060002090601f01602090048101928262000b97576000855562000be2565b82601f1062000bb257805160ff191683800117855562000be2565b8280016001018555821562000be2579182015b8281111562000be257825182559160200191906001019062000bc5565b5062000bf092915062000bf4565b5090565b5b8082111562000bf0576000815560010162000bf5565b80516001600160a01b038116811462000c2357600080fd5b919050565b8051801515811462000c2357600080fd5b600082601f83011262000c4b57600080fd5b81516001600160401b038082111562000c685762000c6862000df8565b604051601f8301601f19908116603f0116810190828211818310171562000c935762000c9362000df8565b8160405283815260209250868385880101111562000cb057600080fd5b600091505b8382101562000cd4578582018301518183018401529082019062000cb5565b8382111562000ce65760008385830101525b9695505050505050565b60006020828403121562000d0357600080fd5b62000a828262000c0b565b60006020828403121562000d2157600080fd5b62000a828262000c28565b6000806000806080858703121562000d4357600080fd5b84516001600160401b038082111562000d5b57600080fd5b62000d698883890162000c39565b9550602087015191508082111562000d8057600080fd5b5062000d8f8782880162000c39565b93505062000da06040860162000c28565b915062000db06060860162000c0b565b905092959194509250565b600181811c9082168062000dd057607f821691505b6020821081141562000df257634e487b7160e01b600052602260045260246000fd5b50919050565b634e487b7160e01b600052604160045260246000fd5b614afa8062000e1e6000396000f3fe608060405234801561001057600080fd5b50600436106104805760003560e01c80636b58477511610257578063c04e17e311610146578063e78c266c116100c3578063f1132b3011610087578063f1132b30146109d2578063f7d92d86146109da578063f98447ac146109e2578063f98db253146109f5578063ff7e88ec14610a0857600080fd5b8063e78c266c1461097b578063e985e9c51461098e578063e9a53230146109a1578063ebf98abf146109b6578063ee0b4c35146109bf57600080fd5b8063cf4ece151161010a578063cf4ece1514610925578063d547741f1461093a578063dadf56ac1461094d578063dea6f9c814610960578063e6217e3a1461096857600080fd5b8063c04e17e3146108b6578063c62b28e8146108d7578063c87b56dd146108ea578063ca15c873146108fd578063cce843921461091057600080fd5b806391d14854116101d4578063a22cb46511610198578063a22cb46514610854578063a32c5e5914610867578063a78e746f1461087c578063b88d4fde14610890578063bfb7dc99146108a357600080fd5b806391d148541461081157806395d89b411461082457806396ac6bf01461082c5780639ac3eaa71461083f578063a217fddf1461084c57600080fd5b8063765160781161021b57806376516078146107c7578063794ccf6c146107da5780638456cb59146107ed57806387e9152d146107f55780639010d07c146107fe57600080fd5b80636b5847751461075d5780636c353e341461077057806370a082311461077857806373c898221461078b578063762ddb59146107b457600080fd5b8063329a8cfa1161037357806357f276ff116102f05780635f413466116102b45780635f413466146106fc578063610c30091461070f5780636352211e1461071757806363ebc6771461072a57806367a14f061461074a57600080fd5b806357f276ff146106b057806359e6f787146106c35780635b5c251f146106d65780635c975abb146106e95780635db531a1146106f457600080fd5b806340005bb91161033757806340005bb91461066857806342842e0e1461067a57806349b5e1051461068d5780634d84c6d8146106955780634f6ccce71461069d57600080fd5b8063329a8cfa1461061f57806336568abe146106275780633ab76e9f1461063a5780633f4ba83a1461064d5780633f86ea7c1461065557600080fd5b806321d670e91161040157806329e63f35116103c557806329e63f35146105ca5780632f2ff15d146105dd5780632f745c59146105f05780632fb5658514610603578063326a55e01461061757600080fd5b806321d670e91461056257806321d7f0081461056b57806323b872dd1461057e5780632436329d14610591578063248a9ca3146105a657600080fd5b80630ad17f8f116104485780630ad17f8f1461051557806310a83fcb14610536578063130f63201461053f57806317314d5a1461055257806318160ddd1461055a57600080fd5b806301ffc9a714610485578063024bebe9146104ad57806306fdde03146104d8578063081812fc146104ed578063095ea7b314610500575b600080fd5b6104986104933660046145a3565b610a1c565b60405190151581526020015b60405180910390f35b600b546104c0906001600160a01b031681565b6040516001600160a01b0390911681526020016104a4565b6104e0610a2d565b6040516104a4919061476b565b6104c06104fb366004614543565b610abf565b61051361050e3660046144dd565b610b59565b005b6105286105233660046144dd565b610c6f565b6040519081526020016104a4565b610528601c5481565b61051361054d366004614543565b610ca0565b610513610ccd565b601954610528565b610528601d5481565b6004546104c0906001600160a01b031681565b61051361058c36600461438a565b610cee565b610528600080516020614a2583398151915281565b6105286105b4366004614543565b6000908152600160208190526040909120015490565b6104986105d8366004614543565b610d46565b6105136105eb36600461455c565b610e53565b6105286105fe3660046144dd565b610e75565b600f5461049890600160b01b900460ff1681565b610513610f0b565b610513610f1d565b61051361063536600461455c565b611026565b600f546104c0906001600160a01b031681565b610513611048565b6008546104c0906001600160a01b031681565b60205461049890610100900460ff1681565b61051361068836600461438a565b6110da565b610513611141565b610513610f13565b6105286106ab366004614543565b611149565b6105136106be366004614543565b6111dc565b6104986106d13660046144dd565b6111f0565b600c546104c0906001600160a01b031681565b60165460ff16610498565b610513611222565b600d546104c0906001600160a01b031681565b6104e061122a565b6104c0610725366004614543565b6112b8565b61073d610738366004614317565b61132f565b6040516104a49190614727565b6023546104c0906001600160a01b031681565b6009546104c0906001600160a01b031681565b61051361139b565b610528610786366004614317565b6113c7565b6104c0610799366004614543565b6000908152602460205260409020546001600160a01b031690565b6005546104c0906001600160a01b031681565b6104986107d5366004614509565b61144e565b6105286107e8366004614479565b611545565b61051361178c565b610528601e5481565b6104c061080c366004614581565b61180e565b61049861081f36600461455c565b61182d565b6104e0611858565b61049861083a366004614543565b611867565b6020546104989060ff1681565b610528600081565b61051361086236600461444b565b611973565b610528600080516020614a8583398151915281565b600f5461049890600160a01b900460ff1681565b61051361089e3660046143cb565b6119ed565b6006546104c0906001600160a01b031681565b6108c96108c4366004614543565b611a1f565b6040516104a4929190614703565b6105136108e5366004614543565b611ace565b6104e06108f8366004614543565b611b1f565b61052861090b366004614543565b611c06565b610528600080516020614aa583398151915281565b610528600080516020614a6583398151915281565b61051361094836600461455c565b611c1d565b600a546104c0906001600160a01b031681565b6104e0611c27565b600e546104c0906001600160a01b031681565b6003546104c0906001600160a01b031681565b61049861099c366004614351565b611c34565b610528600080516020614a4583398151915281565b610528601b5481565b6104986109cd366004614543565b611c93565b610513611d7f565b610513611d87565b6007546104c0906001600160a01b031681565b6104e0610a03366004614543565b611e30565b600f5461049890600160a81b900460ff1681565b6000610a2782611eea565b92915050565b606060108054610a3c90614913565b80601f0160208091040260200160405190810160405280929190818152602001828054610a6890614913565b8015610ab55780601f10610a8a57610100808354040283529160200191610ab5565b820191906000526020600020905b815481529060010190602001808311610a9857829003601f168201915b5050505050905090565b6000818152601260205260408120546001600160a01b0316610b3d5760405162461bcd60e51b815260206004820152602c60248201527f4552433732313a20617070726f76656420717565727920666f72206e6f6e657860448201526b34b9ba32b73a103a37b5b2b760a11b60648201526084015b60405180910390fd5b506000908152601460205260409020546001600160a01b031690565b6000610b64826112b8565b9050806001600160a01b0316836001600160a01b03161415610bd25760405162461bcd60e51b815260206004820152602160248201527f4552433732313a20617070726f76616c20746f2063757272656e74206f776e656044820152603960f91b6064820152608401610b34565b336001600160a01b0382161480610bee5750610bee8133611c34565b610c605760405162461bcd60e51b815260206004820152603860248201527f4552433732313a20617070726f76652063616c6c6572206973206e6f74206f7760448201527f6e6572206e6f7220617070726f76656420666f7220616c6c00000000000000006064820152608401610b34565b610c6a8383611f0f565b505050565b60256020528160005260406000208181548110610c8b57600080fd5b90600052602060002001600091509150505481565b610caa6001611f96565b50610cb481612048565b50610cbe816121c3565b50610cc96000611f96565b5050565b610cd76001611f96565b50610ce061234c565b50610ceb6000611f96565b50565b6000818152602460205260409020546001600160a01b031633811480610d195750610d198433611c34565b610d355760405162461bcd60e51b8152600401610b34906147d0565b610d40848484612492565b50505050565b6000610d60600080516020614a858339815191523361182d565b80610d7e5750610d7e600080516020614a458339815191523361182d565b80610d9c5750610d9c600080516020614a258339815191523361182d565b610de15760405162461bcd60e51b81526020600482015260166024820152752cb7ba93b932903737ba103a3432903130b4b634b33360511b6044820152606401610b34565b601c548210610e3e5760405162461bcd60e51b8152602060048201526024808201527f536f7272792120596f752063616e206f6e6c79206c6f7765722074686520666c6044820152636f6f722160e01b6064820152608401610b34565b610e4a82601c55600190565b50600192915050565b610e5d82826124c3565b6000828152600260205260409020610c6a9082611ed5565b6000610e80836113c7565b8210610ee25760405162461bcd60e51b815260206004820152602b60248201527f455243373231456e756d657261626c653a206f776e657220696e646578206f7560448201526a74206f6620626f756e647360a81b6064820152608401610b34565b506001600160a01b03919091166000908152601760209081526040808320938352929052205490565b610f136124fd565b610f1b612758565b565b610f35600080516020614a858339815191523361182d565b80610f535750610f53600080516020614a458339815191523361182d565b80610f715750610f71600080516020614a258339815191523361182d565b610fb65760405162461bcd60e51b81526020600482015260166024820152752cb7ba93b932903737ba103a3432903130b4b634b33360511b6044820152606401610b34565b600f60009054906101000a90046001600160a01b03166001600160a01b031663329a8cfa6040518163ffffffff1660e01b8152600401600060405180830381600087803b15801561100657600080fd5b505af115801561101a573d6000803e3d6000fd5b50505050610f1b611222565b6110308282612ad4565b6000828152600260205260409020610c6a9082612b4e565b611060600080516020614a458339815191523361182d565b8061107e575061107e600080516020614a858339815191523361182d565b6110c25760405162461bcd60e51b8152602060048201526015602482015274596f75277265206e6f742074686520476176656c7360581b6044820152606401610b34565b60205460ff16156110d257600080fd5b610f1b612b63565b60006110e5826112b8565b6000838152602460205260409020549091506001600160a01b03163381148061111357506111138533611c34565b61112f5760405162461bcd60e51b8152600401610b34906147d0565b61113a858585612bf6565b5050505050565b610f1b6124fd565b600061115460195490565b82106111b75760405162461bcd60e51b815260206004820152602c60248201527f455243373231456e756d657261626c653a20676c6f62616c20696e646578206f60448201526b7574206f6620626f756e647360a01b6064820152608401610b34565b601982815481106111ca576111ca6149bf565b90600052602060002001549050919050565b6111e66001611f96565b50610cbe81612c11565b6000818152602460205260408120546001600160a01b038481169116141561121a57506001610a27565b506000610a27565b610f1b612e6c565b6022805461123790614913565b80601f016020809104026020016040519081016040528092919081815260200182805461126390614913565b80156112b05780601f10611285576101008083540402835291602001916112b0565b820191906000526020600020905b81548152906001019060200180831161129357829003601f168201915b505050505081565b6000818152601260205260408120546001600160a01b031680610a275760405162461bcd60e51b815260206004820152602960248201527f4552433732313a206f776e657220717565727920666f72206e6f6e657869737460448201526832b73a103a37b5b2b760b91b6064820152608401610b34565b6001600160a01b03811660009081526025602090815260409182902080548351818402810184019094528084526060939283018282801561138f57602002820191906000526020600020905b81548152602001906001019080831161137b575b50505050509050919050565b6113a3612758565b600554602380546001600160a01b0319166001600160a01b03909216919091179055565b60006001600160a01b0382166114325760405162461bcd60e51b815260206004820152602a60248201527f4552433732313a2062616c616e636520717565727920666f7220746865207a65604482015269726f206164647265737360b01b6064820152608401610b34565b506001600160a01b031660009081526013602052604090205490565b6000611468600080516020614a458339815191523361182d565b806114865750611486600080516020614a258339815191523361182d565b806114a457506114a4600080516020614a858339815191523361182d565b6114ad57600080fd5b600f54600160b01b810460ff9081161515600160a81b90920416151514600114806114eb57506114eb600080516020614a858339815191523361182d565b61152a5760405162461bcd60e51b815260206004820152601060248201526f436f757274204d75737420416772656560801b6044820152606401610b34565b6001821515141561153d57610e4a612faf565b506000919050565b601b546023546040516370a0823160e01b8152306004820152600092859284926001600160a01b03909116906370a082319060240160206040518083038186803b15801561159257600080fd5b505afa1580156115a6573d6000803e3d6000fd5b505050506040513d601f19601f820116820180604052508101906115ca91906145dd565b6115d4919061486e565b602354601b546040516323b872dd60e01b815233600482015230602482015260448101919091529192506001600160a01b0316906323b872dd90606401602060405180830381600087803b15801561162b57600080fd5b505af115801561163f573d6000803e3d6000fd5b505050506040513d601f19601f820116820180604052508101906116639190614526565b506023546040516370a0823160e01b815230600482015282916001600160a01b0316906370a082319060240160206040518083038186803b1580156116a757600080fd5b505afa1580156116bb573d6000803e3d6000fd5b505050506040513d601f19601f820116820180604052508101906116df91906145dd565b146117255760405162461bcd60e51b8152602060048201526016602482015275115c9c9bdc88151c985b9cd9995c9a5b99c80854915160521b6044820152606401610b34565b6001600160a01b038516331480159061174657506001600160a01b03851615155b61174f57600080fd5b601f54925061175f338585613001565b61176b85601f54613070565b6001601f600082825461177e919061486e565b909155509295945050505050565b6117a4600080516020614a458339815191523361182d565b806117c257506117c2600080516020614a858339815191523361182d565b6118065760405162461bcd60e51b8152602060048201526015602482015274596f75277265206e6f742074686520476176656c7360581b6044820152606401610b34565b610f1b61308a565b60008281526002602052604081206118269083613105565b9392505050565b60009182526001602090815260408084206001600160a01b0393909316845291905290205460ff1690565b606060118054610a3c90614913565b6000611881600080516020614a458339815191523361182d565b8061189f575061189f600080516020614a258339815191523361182d565b806118bd57506118bd600080516020614a858339815191523361182d565b6118c657600080fd5b600f54600160b01b810460ff9081161515600160a81b90920416151514600114806119045750611904600080516020614a858339815191523361182d565b6119435760405162461bcd60e51b815260206004820152601060248201526f436f757274204d75737420416772656560801b6044820152606401610b34565b816045141561153d57611954612faf565b5061195d61308a565b506020805460ff19166001908117909155919050565b61198b600080516020614a858339815191523361182d565b806119a957506119a9600080516020614a458339815191523361182d565b806119c757506119c7600080516020614a258339815191523361182d565b6119e35760405162461bcd60e51b8152600401610b34906147d0565b610cc98282613111565b6119f733836131d6565b611a135760405162461bcd60e51b8152600401610b349061481d565b610d4084848484613295565b602460205260009081526040902080546001820180546001600160a01b039092169291611a4b90614913565b80601f0160208091040260200160405190810160405280929190818152602001828054611a7790614913565b8015611ac45780601f10611a9957610100808354040283529160200191611ac4565b820191906000526020600020905b815481529060010190602001808311611aa757829003601f168201915b5050505050905082565b611ad833826131d6565b611b165760405162461bcd60e51b815260206004820152600f60248201526e4e696365205472792c204275636b6f60881b6044820152606401610b34565b610ceb816132c8565b6000818152601260205260409020546060906001600160a01b0316611b9e5760405162461bcd60e51b815260206004820152602f60248201527f4552433732314d657461646174613a2055524920717565727920666f72206e6f60448201526e3732bc34b9ba32b73a103a37b5b2b760891b6064820152608401610b34565b6000611bb560408051602081019091526000815290565b90506000815111611bd55760405180602001604052806000815250611826565b80611bdf8461336f565b604051602001611bf0929190614622565b6040516020818303038152906040529392505050565b6000818152600260205260408120610a279061346d565b6110308282613477565b6021805461123790614913565b600080611c4f600080516020614a858339815191528461182d565b80611c6d5750611c6d600080516020614a458339815191528461182d565b80611c8b5750611c8b600080516020614a258339815191528461182d565b949350505050565b6000611cad600080516020614a258339815191523361182d565b80611ccb5750611ccb600080516020614a858339815191523361182d565b611d0d5760405162461bcd60e51b8152602060048201526013602482015272596f75277265206e6f7420746865204a75727960681b6044820152606401610b34565b601c54821015611d735760405162461bcd60e51b815260206004820152602b60248201527f536f7272792120436f7374206d7573742062652067726561746572207468616e60448201526a10181718902932b22832b760a91b6064820152608401610b34565b610e4a82601b55600190565b610f1b6134b1565b611d916001611f96565b50611da9600080516020614a85833981519152612c11565b50611dc1600080516020614a45833981519152612c11565b50611dd9600080516020614a25833981519152612c11565b50611df1600080516020614a65833981519152612c11565b50611e09600080516020614aa5833981519152612c11565b50611e146000612c11565b50611e1d612e6c565b611e276000611f96565b610f1b57600080fd5b6000818152602460205260409020600101805460609190611e5090614913565b80601f0160208091040260200160405190810160405280929190818152602001828054611e7c90614913565b801561138f5780601f10611e9e5761010080835404028352916020019161138f565b820191906000526020600020905b815481529060010190602001808311611eac5750939695505050505050565b610cc982826135e8565b6000611826836001600160a01b038416613653565b60006001600160e01b0319821663780e9d6360e01b1480610a275750610a278261369a565b611f27600080516020614a858339815191523361182d565b611f8c5760405162461bcd60e51b815260206004820152603060248201527f596f7520646f206e6f742068617665207065726d697373696f6e20746f20617060448201526f70726f7665207468697320626164676560801b6064820152608401610b34565b610cc982826136da565b6000805460ff168215158115151415611ff15760405162461bcd60e51b815260206004820152601960248201527f416c72656164792053657420746f20746861742076616c7565000000000000006044820152606401610b34565b6000805484151560ff19909116811790915560ff1615158115151415610e4a5760405162461bcd60e51b815260206004820152600c60248201526b29b0b33a32bc9022b93937b960a11b6044820152606401610b34565b60405163ca15c87360e01b8152600481018290526000908190309063ca15c8739060240160206040518083038186803b15801561208457600080fd5b505afa158015612098573d6000803e3d6000fd5b505050506040513d601f19601f820116820180604052508101906120bc91906145dd565b905060005b818110156121b957604051632404341f60e21b815260048101859052602481018290526000903090639010d07c9060440160206040518083038186803b15801561210a57600080fd5b505afa15801561211e573d6000803e3d6000fd5b505050506040513d601f19601f820116820180604052508101906121429190614334565b60405163d547741f60e01b8152600481018790526001600160a01b0382166024820152909150309063d547741f90604401600060405180830381600087803b15801561218d57600080fd5b505af11580156121a1573d6000803e3d6000fd5b505050505080806121b19061494e565b9150506120c1565b5060019392505050565b600f5460405163ca15c87360e01b81526004810183905260009182916001600160a01b039091169063ca15c8739060240160206040518083038186803b15801561220c57600080fd5b505afa158015612220573d6000803e3d6000fd5b505050506040513d601f19601f8201168201806040525081019061224491906145dd565b905060005b818110156121b957600f54604051632404341f60e21b815260048101869052602481018390526000916001600160a01b031690639010d07c9060440160206040518083038186803b15801561229d57600080fd5b505afa1580156122b1573d6000803e3d6000fd5b505050506040513d601f19601f820116820180604052508101906122d59190614334565b604051632f2ff15d60e01b8152600481018790526001600160a01b03821660248201529091503090632f2ff15d90604401600060405180830381600087803b15801561232057600080fd5b505af1158015612334573d6000803e3d6000fd5b505050505080806123449061494e565b915050612249565b6000612365600080516020614a85833981519152612048565b5061237d600080516020614a858339815191526121c3565b61238657600080fd5b61239d600080516020614a45833981519152612048565b506123b5600080516020614a458339815191526121c3565b6123be57600080fd5b6123d5600080516020614a25833981519152612048565b506123ed600080516020614a258339815191526121c3565b6123f657600080fd5b61240d600080516020614a65833981519152612048565b50612425600080516020614a658339815191526121c3565b61242e57600080fd5b612445600080516020614aa5833981519152612048565b5061245d600080516020614aa58339815191526121c3565b61246657600080fd5b6124706000612048565b5061247b60006121c3565b61248457600080fd5b61248c612e6c565b50600190565b61249c33826131d6565b6124b85760405162461bcd60e51b8152600401610b349061481d565b610c6a838383613748565b600082815260016020819052604082200154905460ff16156124e957610c6a83836135e8565b6124f381336138f3565b610c6a83836135e8565b600f60009054906101000a90046001600160a01b03166001600160a01b031663dadf56ac6040518163ffffffff1660e01b815260040160206040518083038186803b15801561254b57600080fd5b505afa15801561255f573d6000803e3d6000fd5b505050506040513d601f19601f820116820180604052508101906125839190614334565b600a80546001600160a01b0319166001600160a01b03928316179055600f546040805163024bebe960e01b81529051919092169163024bebe9916004808301926020929190829003018186803b1580156125dc57600080fd5b505afa1580156125f0573d6000803e3d6000fd5b505050506040513d601f19601f820116820180604052508101906126149190614334565b600b80546001600160a01b0319166001600160a01b03928316179055600f5460408051635b5c251f60e01b815290519190921691635b5c251f916004808301926020929190829003018186803b15801561266d57600080fd5b505afa158015612681573d6000803e3d6000fd5b505050506040513d601f19601f820116820180604052508101906126a59190614334565b600c80546001600160a01b0319166001600160a01b03928316179055600f5460408051637310bf1d60e11b81529051919092169163e6217e3a916004808301926020929190829003018186803b1580156126fe57600080fd5b505afa158015612712573d6000803e3d6000fd5b505050506040513d601f19601f820116820180604052508101906127369190614334565b600e80546001600160a01b0319166001600160a01b0392909216919091179055565b600f60009054906101000a90046001600160a01b03166001600160a01b03166321d7f0086040518163ffffffff1660e01b815260040160206040518083038186803b1580156127a657600080fd5b505afa1580156127ba573d6000803e3d6000fd5b505050506040513d601f19601f820116820180604052508101906127de9190614334565b600480546001600160a01b0319166001600160a01b03928316178155600f546040805163762ddb5960e01b81529051919093169263762ddb599281810192602092909190829003018186803b15801561283657600080fd5b505afa15801561284a573d6000803e3d6000fd5b505050506040513d601f19601f8201168201806040525081019061286e9190614334565b600580546001600160a01b0319166001600160a01b03928316179055600f546040805163bfb7dc9960e01b81529051919092169163bfb7dc99916004808301926020929190829003018186803b1580156128c757600080fd5b505afa1580156128db573d6000803e3d6000fd5b505050506040513d601f19601f820116820180604052508101906128ff9190614334565b600680546001600160a01b0319166001600160a01b03928316179055600f5460408051633e6111eb60e21b81529051919092169163f98447ac916004808301926020929190829003018186803b15801561295857600080fd5b505afa15801561296c573d6000803e3d6000fd5b505050506040513d601f19601f820116820180604052508101906129909190614334565b600780546001600160a01b0319166001600160a01b03928316179055600f5460408051630fe1ba9f60e21b815290519190921691633f86ea7c916004808301926020929190829003018186803b1580156129e957600080fd5b505afa1580156129fd573d6000803e3d6000fd5b505050506040513d601f19601f82011682018060405250810190612a219190614334565b600880546001600160a01b0319166001600160a01b03928316179055600f5460408051636b58477560e01b815290519190921691636b584775916004808301926020929190829003018186803b158015612a7a57600080fd5b505afa158015612a8e573d6000803e3d6000fd5b505050506040513d601f19601f82011682018060405250810190612ab29190614334565b600980546001600160a01b0319166001600160a01b0392909216919091179055565b6001600160a01b0381163314612b445760405162461bcd60e51b815260206004820152602f60248201527f416363657373436f6e74726f6c3a2063616e206f6e6c792072656e6f756e636560448201526e103937b632b9903337b91039b2b63360891b6064820152608401610b34565b610cc98282613957565b6000611826836001600160a01b0384166139be565b60165460ff16612bac5760405162461bcd60e51b815260206004820152601460248201527314185d5cd8589b194e881b9bdd081c185d5cd95960621b6044820152606401610b34565b6016805460ff191690557f5db9ee0a495bf2e6ff9c91a7834c1ba4fdd244a5e8aa4e537bd38aeae4b073aa335b6040516001600160a01b03909116815260200160405180910390a1565b610c6a838383604051806020016040528060008152506119ed565b600f5460405163ca15c87360e01b81526004810183905260009182916001600160a01b039091169063ca15c8739060240160206040518083038186803b158015612c5a57600080fd5b505afa158015612c6e573d6000803e3d6000fd5b505050506040513d601f19601f82011682018060405250810190612c9291906145dd565b60405163ca15c87360e01b815260048101859052909150600090309063ca15c8739060240160206040518083038186803b158015612ccf57600080fd5b505afa158015612ce3573d6000803e3d6000fd5b505050506040513d601f19601f82011682018060405250810190612d0791906145dd565b90506000612d1582846148b9565b905060008111612d5a5760405162461bcd60e51b815260206004820152601060248201526f4e6f7468696e6720746f2073796e632160801b6044820152606401610b34565b60005b81811015612e6057600f54604051632404341f60e21b815260048101889052602481018390526000916001600160a01b031690639010d07c9060440160206040518083038186803b158015612db157600080fd5b505afa158015612dc5573d6000803e3d6000fd5b505050506040513d601f19601f82011682018060405250810190612de99190614334565b604051632f2ff15d60e01b8152600481018990526001600160a01b03821660248201529091503090632f2ff15d90604401600060405180830381600087803b158015612e3457600080fd5b505af1158015612e48573d6000803e3d6000fd5b50505050508080612e589061494e565b915050612d5d565b50600195945050505050565b600f60009054906101000a90046001600160a01b03166001600160a01b031663ff7e88ec6040518163ffffffff1660e01b815260040160206040518083038186803b158015612eba57600080fd5b505afa158015612ece573d6000803e3d6000fd5b505050506040513d601f19601f82011682018060405250810190612ef29190614526565b600f60156101000a81548160ff021916908315150217905550600f60009054906101000a90046001600160a01b03166001600160a01b0316632fb565856040518163ffffffff1660e01b815260040160206040518083038186803b158015612f5957600080fd5b505afa158015612f6d573d6000803e3d6000fd5b505050506040513d601f19601f82011682018060405250810190612f919190614526565b600f8054911515600160b01b0260ff60b01b19909216919091179055565b6000805b601f54811015612ff5576000818152601260205260409020546001600160a01b031615612fe357612fe3816132c8565b80612fed8161494e565b915050612fb3565b50506000601f55600190565b600081815260246020908152604090912080546001600160a01b0319166001600160a01b038616178155835161303f92600190920191850190614208565b506001600160a01b039092166000908152602560209081526040822080546001810182559083529120019190915550565b610cc9828260405180602001604052806000815250613aab565b60165460ff16156130d05760405162461bcd60e51b815260206004820152601060248201526f14185d5cd8589b194e881c185d5cd95960821b6044820152606401610b34565b6016805460ff191660011790557f62e78cea01bee320cd4e420270b5ea74000d11b0c9f74754ebdbfc544b05a258612bd93390565b60006118268383613ade565b6001600160a01b03821633141561316a5760405162461bcd60e51b815260206004820152601960248201527f4552433732313a20617070726f766520746f2063616c6c6572000000000000006044820152606401610b34565b3360008181526015602090815260408083206001600160a01b03871680855290835292819020805460ff191686151590811790915590519081529192917f17307eab39ab6107e8899845ad3d59bd9653f200f220920489ca2b5937696c31910160405180910390a35050565b6000818152601260205260408120546001600160a01b031661324f5760405162461bcd60e51b815260206004820152602c60248201527f4552433732313a206f70657261746f7220717565727920666f72206e6f6e657860448201526b34b9ba32b73a103a37b5b2b760a11b6064820152608401610b34565b600061325a836112b8565b6000848152602460205260409020549091506001600160a01b0390811690851681148061328c575061328c8286611c34565b95945050505050565b6132a0848484613748565b6132ac84848484613b64565b610d405760405162461bcd60e51b8152600401610b349061477e565b60006132d3826112b8565b90506132e181600084613c71565b6132ec600083611f0f565b6001600160a01b03811660009081526013602052604081208054600192906133159084906148b9565b909155505060008281526012602052604080822080546001600160a01b0319169055518391906001600160a01b038416907fddf252ad1be2c89b69c2b068fc378daa952ba7f163c4a11628f55a4df523b3ef908390a45050565b6060816133935750506040805180820190915260018152600360fc1b602082015290565b8160005b81156133bd57806133a78161494e565b91506133b69050600a83614886565b9150613397565b60008167ffffffffffffffff8111156133d8576133d86149d5565b6040519080825280601f01601f191660200182016040528015613402576020820181803683370190505b5090505b8415611c8b576134176001836148b9565b9150613424600a86614969565b61342f90603061486e565b60f81b818381518110613444576134446149bf565b60200101906001600160f81b031916908160001a905350613466600a86614886565b9450613406565b6000610a27825490565b600082815260016020819052604082200154905460ff161561349d57610c6a8383613957565b6134a781336138f3565b610c6a8383613957565b600f60009054906101000a90046001600160a01b03166001600160a01b031663a44b93256040518163ffffffff1660e01b815260040160206040518083038186803b1580156134ff57600080fd5b505afa158015613513573d6000803e3d6000fd5b505050506040513d601f19601f820116820180604052508101906135379190614526565b61354057600080fd5b600f60009054906101000a90046001600160a01b03166001600160a01b031663ac7cfac36040518163ffffffff1660e01b815260040160206040518083038186803b15801561358e57600080fd5b505afa1580156135a2573d6000803e3d6000fd5b505050506040513d601f19601f820116820180604052508101906135c69190614334565b600380546001600160a01b0319166001600160a01b0392909216919091179055565b6135f2828261182d565b610cc95760008281526001602081815260408084206001600160a01b0386168086529252808420805460ff19169093179092559051339285917f2f8788117e7eff1d82e926ec794901d17c78024a50270940304540a733656f0d9190a45050565b600081815260018301602052604081205461121a57508154600181810184556000848152602080822090930184905584548482528286019093526040902091909155610a27565b60006001600160e01b031982166380ac58cd60e01b14806136cb57506001600160e01b03198216635b5e139f60e01b145b80610a275750610a2782613c7c565b600081815260146020526040902080546001600160a01b0319166001600160a01b038416908117909155819061370f826112b8565b6001600160a01b03167f8c5be1e5ebec7d5bd14f71427d1e84f3dd0314c0f7b2291e5b200ac8c7c3b92560405160405180910390a45050565b826001600160a01b031661375b826112b8565b6001600160a01b0316146137c35760405162461bcd60e51b815260206004820152602960248201527f4552433732313a207472616e73666572206f6620746f6b656e2074686174206960448201526839903737ba1037bbb760b91b6064820152608401610b34565b6001600160a01b0382166138255760405162461bcd60e51b8152602060048201526024808201527f4552433732313a207472616e7366657220746f20746865207a65726f206164646044820152637265737360e01b6064820152608401610b34565b613830838383613c71565b61383b600082611f0f565b6001600160a01b03831660009081526013602052604081208054600192906138649084906148b9565b90915550506001600160a01b038216600090815260136020526040812080546001929061389290849061486e565b909155505060008181526012602052604080822080546001600160a01b0319166001600160a01b0386811691821790925591518493918716917fddf252ad1be2c89b69c2b068fc378daa952ba7f163c4a11628f55a4df523b3ef91a4505050565b6138fd828261182d565b610cc957613915816001600160a01b03166014613ca1565b613920836020613ca1565b604051602001613931929190614651565b60408051601f198184030181529082905262461bcd60e51b8252610b349160040161476b565b613961828261182d565b15610cc95760008281526001602090815260408083206001600160a01b0385168085529252808320805460ff1916905551339285917ff6391f5c32d9c69d2a47ea670b442974b53935d1edc7fd64eb21e047a839171b9190a45050565b60008181526001830160205260408120548015613aa15760006139e26001836148b9565b85549091506000906139f6906001906148b9565b90506000866000018281548110613a0f57613a0f6149bf565b9060005260206000200154905080876000018481548110613a3257613a326149bf565b600091825260208083209091019290925582815260018901909152604090208490558654879080613a6557613a656149a9565b60019003818190600052602060002001600090559055866001016000878152602001908152602001600020600090556001945050505050610a27565b6000915050610a27565b613ab58383613e3d565b613ac26000848484613b64565b610c6a5760405162461bcd60e51b8152600401610b349061477e565b81546000908210613b3c5760405162461bcd60e51b815260206004820152602260248201527f456e756d657261626c655365743a20696e646578206f7574206f6620626f756e604482015261647360f01b6064820152608401610b34565b826000018281548110613b5157613b516149bf565b9060005260206000200154905092915050565b60006001600160a01b0384163b15613c6657604051630a85bd0160e11b81526001600160a01b0385169063150b7a0290613ba89033908990889088906004016146c6565b602060405180830381600087803b158015613bc257600080fd5b505af1925050508015613bf2575060408051601f3d908101601f19168201909252613bef918101906145c0565b60015b613c4c573d808015613c20576040519150601f19603f3d011682016040523d82523d6000602084013e613c25565b606091505b508051613c445760405162461bcd60e51b8152600401610b349061477e565b805181602001fd5b6001600160e01b031916630a85bd0160e11b149050611c8b565b506001949350505050565b610c6a838383613f8b565b60006001600160e01b03198216635a05180f60e01b1480610a275750610a2782614043565b60606000613cb083600261489a565b613cbb90600261486e565b67ffffffffffffffff811115613cd357613cd36149d5565b6040519080825280601f01601f191660200182016040528015613cfd576020820181803683370190505b509050600360fc1b81600081518110613d1857613d186149bf565b60200101906001600160f81b031916908160001a905350600f60fb1b81600181518110613d4757613d476149bf565b60200101906001600160f81b031916908160001a9053506000613d6b84600261489a565b613d7690600161486e565b90505b6001811115613dee576f181899199a1a9b1b9c1cb0b131b232b360811b85600f1660108110613daa57613daa6149bf565b1a60f81b828281518110613dc057613dc06149bf565b60200101906001600160f81b031916908160001a90535060049490941c93613de7816148fc565b9050613d79565b5083156118265760405162461bcd60e51b815260206004820181905260248201527f537472696e67733a20686578206c656e67746820696e73756666696369656e746044820152606401610b34565b6001600160a01b038216613e935760405162461bcd60e51b815260206004820181905260248201527f4552433732313a206d696e7420746f20746865207a65726f20616464726573736044820152606401610b34565b6000818152601260205260409020546001600160a01b031615613ef85760405162461bcd60e51b815260206004820152601c60248201527f4552433732313a20746f6b656e20616c7265616479206d696e746564000000006044820152606401610b34565b613f0460008383613c71565b6001600160a01b0382166000908152601360205260408120805460019290613f2d90849061486e565b909155505060008181526012602052604080822080546001600160a01b0319166001600160a01b03861690811790915590518392907fddf252ad1be2c89b69c2b068fc378daa952ba7f163c4a11628f55a4df523b3ef908290a45050565b6001600160a01b038316613fe657613fe181601980546000838152601a60205260408120829055600182018355919091527f944998273e477b495144fb8794c914197f3ccb46be2900f4698fd0ef743c96950155565b614009565b816001600160a01b0316836001600160a01b031614614009576140098382614078565b6001600160a01b03821661402057610c6a81614115565b826001600160a01b0316826001600160a01b031614610c6a57610c6a82826141c4565b60006001600160e01b03198216637965db0b60e01b1480610a2757506301ffc9a760e01b6001600160e01b0319831614610a27565b60006001614085846113c7565b61408f91906148b9565b6000838152601860205260409020549091508082146140e2576001600160a01b03841660009081526017602090815260408083208584528252808320548484528184208190558352601890915290208190555b5060009182526018602090815260408084208490556001600160a01b039094168352601781528383209183525290812055565b601954600090614127906001906148b9565b6000838152601a60205260408120546019805493945090928490811061414f5761414f6149bf565b906000526020600020015490508060198381548110614170576141706149bf565b6000918252602080832090910192909255828152601a909152604080822084905585825281205560198054806141a8576141a86149a9565b6001900381819060005260206000200160009055905550505050565b60006141cf836113c7565b6001600160a01b039093166000908152601760209081526040808320868452825280832085905593825260189052919091209190915550565b82805461421490614913565b90600052602060002090601f016020900481019282614236576000855561427c565b82601f1061424f57805160ff191683800117855561427c565b8280016001018555821561427c579182015b8281111561427c578251825591602001919060010190614261565b5061428892915061428c565b5090565b5b80821115614288576000815560010161428d565b600067ffffffffffffffff808411156142bc576142bc6149d5565b604051601f8501601f19908116603f011681019082821181831017156142e4576142e46149d5565b816040528093508581528686860111156142fd57600080fd5b858560208301376000602087830101525050509392505050565b60006020828403121561432957600080fd5b8135611826816149eb565b60006020828403121561434657600080fd5b8151611826816149eb565b6000806040838503121561436457600080fd5b823561436f816149eb565b9150602083013561437f816149eb565b809150509250929050565b60008060006060848603121561439f57600080fd5b83356143aa816149eb565b925060208401356143ba816149eb565b929592945050506040919091013590565b600080600080608085870312156143e157600080fd5b84356143ec816149eb565b935060208501356143fc816149eb565b925060408501359150606085013567ffffffffffffffff81111561441f57600080fd5b8501601f8101871361443057600080fd5b61443f878235602084016142a1565b91505092959194509250565b6000806040838503121561445e57600080fd5b8235614469816149eb565b9150602083013561437f81614a00565b6000806040838503121561448c57600080fd5b8235614497816149eb565b9150602083013567ffffffffffffffff8111156144b357600080fd5b8301601f810185136144c457600080fd5b6144d3858235602084016142a1565b9150509250929050565b600080604083850312156144f057600080fd5b82356144fb816149eb565b946020939093013593505050565b60006020828403121561451b57600080fd5b813561182681614a00565b60006020828403121561453857600080fd5b815161182681614a00565b60006020828403121561455557600080fd5b5035919050565b6000806040838503121561456f57600080fd5b82359150602083013561437f816149eb565b6000806040838503121561459457600080fd5b50508035926020909101359150565b6000602082840312156145b557600080fd5b813561182681614a0e565b6000602082840312156145d257600080fd5b815161182681614a0e565b6000602082840312156145ef57600080fd5b5051919050565b6000815180845261460e8160208601602086016148d0565b601f01601f19169290920160200192915050565b600083516146348184602088016148d0565b8351908301906146488183602088016148d0565b01949350505050565b7f416363657373436f6e74726f6c3a206163636f756e74200000000000000000008152600083516146898160178501602088016148d0565b7001034b99036b4b9b9b4b733903937b6329607d1b60179184019182015283516146ba8160288401602088016148d0565b01602801949350505050565b6001600160a01b03858116825284166020820152604081018390526080606082018190526000906146f9908301846145f6565b9695505050505050565b6001600160a01b0383168152604060208201819052600090611c8b908301846145f6565b6020808252825182820181905260009190848201906040850190845b8181101561475f57835183529284019291840191600101614743565b50909695505050505050565b60208152600061182660208301846145f6565b60208082526032908201527f4552433732313a207472616e7366657220746f206e6f6e20455243373231526560408201527131b2b4bb32b91034b6b83632b6b2b73a32b960711b606082015260800190565b6020808252602d908201527f596f7520646f206e6f742068617665207065726d697373696f6e20746f206d6f60408201526c7665207468697320626164676560981b606082015260800190565b60208082526031908201527f4552433732313a207472616e736665722063616c6c6572206973206e6f74206f6040820152701ddb995c881b9bdc88185c1c1c9bdd9959607a1b606082015260800190565b600082198211156148815761488161497d565b500190565b60008261489557614895614993565b500490565b60008160001904831182151516156148b4576148b461497d565b500290565b6000828210156148cb576148cb61497d565b500390565b60005b838110156148eb5781810151838201526020016148d3565b83811115610d405750506000910152565b60008161490b5761490b61497d565b506000190190565b600181811c9082168061492757607f821691505b6020821081141561494857634e487b7160e01b600052602260045260246000fd5b50919050565b60006000198214156149625761496261497d565b5060010190565b60008261497857614978614993565b500690565b634e487b7160e01b600052601160045260246000fd5b634e487b7160e01b600052601260045260246000fd5b634e487b7160e01b600052603160045260246000fd5b634e487b7160e01b600052603260045260246000fd5b634e487b7160e01b600052604160045260246000fd5b6001600160a01b0381168114610ceb57600080fd5b8015158114610ceb57600080fd5b6001600160e01b031981168114610ceb57600080fdfefa8e4989e1d689f7bc5c4b25b87efb51fecdecb19ba62847e29c759e12a89acd048bc71fa1cb2c119c339cf9cf00a97996a19a9d991ce5fe049f2fa5459e7990f0f4b159a6e2a4815eb3ca3df080bfa70c9270662c59bcaa4479a456220183e60538d24a8b7882d7b2e36af243d4af61c23e86e3daa6cb8c887b53220b2f57207c9d7f6f02908185bffb3f7fc9afb29fd7bf93675af8fd4b655ee05c2cee1e0ea2646970667358221220ef40919fe6ea5bdeea8374f040fec5536d9b488d86693c94004c89bea0e70df864736f6c63430008060033",
  "immutableReferences": {},
  "source": "pragma solidity ^0.8.0;\n\nimport \"./SmartConsensusMachine.sol\";\nimport \"./AddressManagerReciever.sol\";\n\nimport \"@openzeppelin/contracts/token/ERC20/ERC20.sol\";\nimport \"@openzeppelin/contracts/token/ERC721/extensions/ERC721Enumerable.sol\";\nimport \"@openzeppelin/contracts/token/ERC721/ERC721.sol\";\nimport \"@openzeppelin/contracts/security/Pausable.sol\";\n\ncontract GenericBadgeOLD is SmartConsensusMachine, ERC721, Pausable, ERC721Enumerable {\n    \n    // Set Default Minting Costs to 3 Red Pens.\n    uint256 public mintingCost = 3 * 10 ** 18;\n\n    // Set Default Minting Cost Floor to 1 Red Pens\n    uint256 public mintingCostFloor = 1 * 10 ** 17;\n\n    uint256 public payItForwardTreasuryRatio_Numerator = 2;\n    uint256 public payItForwardTreasuryRatio_Divisor = 3;\n\n    uint256 private _tokenIdGenerator = 0;\n\n    bool public isForeverLocked = false;\n    bool public payReciver;\n\n    string public badgeColor;\n    string public badgeName;\n\n    ERC20 public redPens = ERC20(RedPenTokenAddress);\n\n     constructor(string memory _badgeName, string memory _badgeSymbol, bool _payReciver, address _AddressManagerAddress)\n        ERC721(_badgeName, _badgeSymbol)\n        SmartConsensusMachine(_AddressManagerAddress){\n       \n       // updateAllAddresses();\n        badgeColor = _badgeSymbol;\n        badgeName = _badgeName;\n\n        payReciver = _payReciver;\n        redPens = ERC20(RedPenTokenAddress);\n    }      \n\n    \n    //******************************\n    //                            **\n    //     Setup mapping          ** \n    //                            **\n    //******************************\n    struct Badge { // struct will store the gifter address and reason for the gold stars\n        address gifter;\n        string reason;\n    }\n\n    mapping (uint => Badge) public BadgeInfo; // mapping of badge ID to badge struct(reason/gifter address)\n\n    mapping (address => uint[]) public BadgesSent; // mapping of address to tokenIDs sent\n\n\n\n    function setBadgeInfo(address _gifter, string memory _reason, uint _tokenId) internal {\n        BadgeInfo[_tokenId].gifter = _gifter; // assigns this goldstar gifter address to msg.sender\n        BadgeInfo[_tokenId].reason = _reason; // assigns the reason for this goldstar\n        BadgesSent[_gifter].push(_tokenId); // pushes tokenID to the addresses array of tokens\n    }\n\n    function getBadgeReason(uint _tokenId) public view returns (string memory _theReason) {\n        _theReason = BadgeInfo[_tokenId].reason; \n\n        return (_theReason);\n    }\n\n    function getBadgeSender(uint _tokenId) public view returns (address _theGifter) {\n        _theGifter = BadgeInfo[_tokenId].gifter; \n\n        return (_theGifter);\n    }\n\n\n    function getBadgesSent (address _gifter) public view returns (uint[] memory _BadgesSent) {\n       _BadgesSent = BadgesSent[_gifter];\n       return _BadgesSent; // returns array of tokenIDs sent by address\n    }\n\n\n    function isBadgeSender(address addressToCheck, uint badgeTokenID) public returns (bool){\n\n        if (addressToCheck == (BadgeInfo[badgeTokenID].gifter)) {\n            return true;\n        } else { return false;}\n\n    }\n    \n    //******************************\n    //                            **\n    //  Set payment modifier      ** \n    //                            **\n    //******************************\n\n\n    modifier PAY_WITH_PENS(address receivingAddress) virtual {      \n\n        uint256 expectedContractBalance;\n\n       /* if (payReciver == true) {\n        uint256 portionOfMintingCost = mintingCost / payItForwardTreasuryRatio_Divisor;\n        expectedContractBalance = redPens.balanceOf(address(this)) + (payItForwardTreasuryRatio_Numerator * portionOfMintingCost);\n\n        redPens.transferFrom(msg.sender, address(this), (payItForwardTreasuryRatio_Numerator * portionOfMintingCost));\n        redPens.transferFrom(msg.sender, receivingAddress, (portionOfMintingCost * (payItForwardTreasuryRatio_Divisor - payItForwardTreasuryRatio_Numerator)));\n        } else { */\n            expectedContractBalance = redPens.balanceOf(address(this)) + mintingCost;\n            redPens.transferFrom(msg.sender, address(this), mintingCost);\n       /* } */\n        \n        require(redPens.balanceOf(address(this)) == expectedContractBalance, \"Error Transfering !RED\");\n        \n        _;\n    }\n\n    /////////////////////////////////////////////////////////////////////////////////////////////////\n    /////////////////////////////////////////////////////////////////////////////////////////////////\n    /// @dev                                                                                     ////\n    /// Issuance Desk                                                                            ////\n    /////////////////////////////////////////////////////////////////////////////////////////////////\n    /////////////////////////////////////////////////////////////////////////////////////////////////\n\n\n    function issueBadge(address receivingAddress, string memory _reason) public\n        PAY_WITH_PENS(receivingAddress) \n        returns(uint newId) { // Right now function also increments and returns tokenId, this will be removed.\n        require((receivingAddress != msg.sender) && (receivingAddress != address(0)));\n        newId = _tokenIdGenerator;\n        setBadgeInfo(msg.sender, _reason, _tokenIdGenerator);\n        _safeMint(receivingAddress, _tokenIdGenerator);\n        _tokenIdGenerator += 1;\n       \n     }\n\n    function revokeBadge(uint tokenId) public {\n        require(_isApprovedOrOwner(msg.sender, tokenId),\n                    \"Nice Try, Bucko\") ;\n        _burn(tokenId);\n    }\n\n    /////////////////////////////////////////////////////////////////////////////////////////////////\n    /////////////////////////////////////////////////////////////////////////////////////////////////\n    /// @dev                                                                                     ////\n    /// Set Minting Costs                                                                        ////\n    /////////////////////////////////////////////////////////////////////////////////////////////////\n    /////////////////////////////////////////////////////////////////////////////////////////////////\n\n    function setMintingCost(uint256 costInWei) public JURY returns (bool){\n        require(costInWei >= mintingCostFloor, \"Sorry! Cost must be greater than 0.1 RedPen\");\n        _setMintingCost(costInWei);\n        return true;\n    }\n\n    function _setMintingCost(uint256 costInWei) internal returns (bool) {\n        mintingCost = costInWei;\n        return true;\n    }\n\n    function setMintingCostFloor(uint256 costFloorInWei) public BAILIFF returns (bool){\n\n        require(costFloorInWei < mintingCostFloor, \"Sorry! You can only lower the floor!\");\n        _setMintingCostFloor(costFloorInWei);\n        return true;\n    }\n\n    function _setMintingCostFloor(uint256 costInWei) internal returns (bool) {\n        mintingCostFloor = costInWei;\n        return true;\n    }\n\n\n    /////////////////////////////////////////////////////////////////////////////////////////////////\n    /////////////////////////////////////////////////////////////////////////////////////////////////\n    /// @dev                                                                                     ////\n    /// Internal Checks                                                                     ////\n    /////////////////////////////////////////////////////////////////////////////////////////////////\n    /////////////////////////////////////////////////////////////////////////////////////////////////\n\n    /////////////////////////////////////////////////////////////////////////////////////////////////\n    /////////////////////////////////////////////////////////////////////////////////////////////////\n    /// @dev                                                                                     ////\n    /// Maintanence\\\\\\\\\\\\\\\\\\\\\\\\\\\\\\\\\\\\\\\\\\\\\\\\\\\\\\                                                   ////\n    /////////////////////////////////////////////////////////////////////////////////////////////////\n    /////////////////////////////////////////////////////////////////////////////////////////////////\n    // Pause the contract if neccesary. Only the Gavels can do this.\n    function pause() public GAVELS {\n        _pause();\n    }\n\n    function unpause() public GAVELS {\n        require(isForeverLocked == false);\n        _unpause();\n    }\n\n    function updatePaymentToken() public {\n        _updateTokenAddresses();\n        redPens = ERC20(RedPenTokenAddress);\n    }\n\n    function _burnAllBadges() internal returns (bool) {\n        // burn all badges\n        uint256 index = 0;\n        for (index = 0; index < _tokenIdGenerator; index++) {\n            if (_exists(index)) {\n                _burn(index);\n            }   \n        }\n        _tokenIdGenerator = 0;\n        return true;\n    }\n\n    function refreshBadges(bool thisIsNotReversible) public THE_COURT returns (bool) {\n\n        if(thisIsNotReversible == true) {\n            // burn all badges\n            _burnAllBadges();\n            return true;\n        } else {return false;}\n    }\n\n\n    function destroyAndLockContract(uint valueMustBe69) public THE_COURT returns (bool) {\n\n        if(valueMustBe69 == 69) {\n            // burn all badges\n            _burnAllBadges();\n            // set protocol to locked\n            _pause();\n            isForeverLocked = true;\n            return isForeverLocked;\n        } else {return false;}\n    }\n\n\n    /////////////////////////////////////////////////////////////////////////////////////////////////\n    /////////////////////////////////////////////////////////////////////////////////////////////////\n    /// @dev                                                                                     ////\n    /// Transfer rules                                                                           ////\n    /////////////////////////////////////////////////////////////////////////////////////////////////\n    /////////////////////////////////////////////////////////////////////////////////////////////////\n    \n    function _isApprovedOrOwner(address spender, uint256 tokenId)\n        internal view virtual\n        override(ERC721)\n        returns (bool)\n    {\n        require(_exists(tokenId), \"ERC721: operator query for nonexistent token\");\n        address owner = ERC721.ownerOf(tokenId);\n        address gifter = BadgeInfo[tokenId].gifter;\n        return (spender == gifter || isApprovedForAll(owner, spender));\n    }\n\n    \n    function _approve(address to, uint256 tokenId)\n    internal virtual\n    override (ERC721)\n    {\n        require( hasRole(THE_COURT_ROLE, msg.sender),\n                    \"You do not have permission to approve this badge\");\n        super._approve(to, tokenId);\n    }\n\n    function isApprovedForAll(address owner, address operator)\n    public view virtual\n    override (ERC721)\n    returns (bool) {\n\n        bool isApproved = ( hasRole(THE_COURT_ROLE, operator)\n                            || hasRole(GAVELS_BAILIFF, operator)\n                            || hasRole(JURY_BAILIFF, operator));\n        return isApproved;\n    }\n\n\n    function setApprovalForAll(address operator, bool approved)\n    public virtual\n    override (ERC721) {\n        \n         require(   hasRole(THE_COURT_ROLE, msg.sender)\n                    || hasRole(GAVELS_BAILIFF, msg.sender)\n                    || hasRole(JURY_BAILIFF, msg.sender),\n                    \"You do not have permission to move this badge\");\n        super.setApprovalForAll(operator, approved);\n    }\n\n    function _beforeTokenTransfer(address from, address to, uint256 tokenId)\n        internal\n        override(ERC721, ERC721Enumerable)\n    {\n\n        super._beforeTokenTransfer(from, to, tokenId);\n    }\n\n    function supportsInterface(bytes4 interfaceId)\n        public\n        view\n        override(ERC721, ERC721Enumerable, AccessControlEnumerable)\n        returns (bool)\n    {\n        return super.supportsInterface(interfaceId);\n    }\n\n    //transfer functions from erc721 - need to override\n    function transferFrom(\n        address from,\n        address to,\n        uint256 tokenId\n    ) public virtual override {\n\n        address gifter = BadgeInfo[tokenId].gifter;\n        require( (msg.sender == gifter || isApprovedForAll(from, msg.sender)),\n                    \"You do not have permission to move this badge\");\n        \n        super.transferFrom(from, to, tokenId);\n        // revert(\"You're not authorized to use this function\"); // makes function revert back/fail\n    }\n\n    function safeTransferFrom(\n        address from,\n        address to,\n        uint256 tokenId\n    ) public virtual override {\n        address owner = ERC721.ownerOf(tokenId);\n        address gifter = BadgeInfo[tokenId].gifter;\n        require( (msg.sender == gifter || isApprovedForAll(from, msg.sender)),\n                    \"You do not have permission to move this badge\");\n        super.safeTransferFrom(from, to, tokenId);\n    }\n\n    /////////////////////////////////////////////////////////////////////////////////////////////////\n    /////////////////////////////////////////////////////////////////////////////////////////////////\n    /// @dev                                                                                     ////\n    /// End                                                                                      ////\n    /////////////////////////////////////////////////////////////////////////////////////////////////\n    /////////////////////////////////////////////////////////////////////////////////////////////////\n}",
  "sourcePath": "/home/n/Desktop/PinkSlips_FrontEnd_REFORMAT (copy)/contracts/src/GenericBadge_OLD.sol",
  "compiler": {
    "name": "solc",
    "version": "0.8.6+commit.11564f7e.Emscripten.clang"
  },
  "schemaVersion": "3.4.1",
  "updatedAt": "2021-08-08T00:16:26.860Z",
  "devdoc": {
    "kind": "dev",
    "methods": {
      "approve(address,uint256)": {
        "details": "See {IERC721-approve}."
      },
      "balanceOf(address)": {
        "details": "See {IERC721-balanceOf}."
      },
      "getApproved(uint256)": {
        "details": "See {IERC721-getApproved}."
      },
      "getRoleAdmin(bytes32)": {
        "details": "Returns the admin role that controls `role`. See {grantRole} and {revokeRole}. To change a role's admin, use {_setRoleAdmin}."
      },
      "getRoleMember(bytes32,uint256)": {
        "details": "Returns one of the accounts that have `role`. `index` must be a value between 0 and {getRoleMemberCount}, non-inclusive. Role bearers are not sorted in any particular way, and their ordering may change at any point. WARNING: When using {getRoleMember} and {getRoleMemberCount}, make sure you perform all queries on the same block. See the following https://forum.openzeppelin.com/t/iterating-over-elements-on-enumerableset-in-openzeppelin-contracts/2296[forum post] for more information."
      },
      "getRoleMemberCount(bytes32)": {
        "details": "Returns the number of accounts that have `role`. Can be used together with {getRoleMember} to enumerate all bearers of a role."
      },
      "grantRole(bytes32,address)": {
        "details": "Overload {grantRole} to track enumerable memberships"
      },
      "hasRole(bytes32,address)": {
        "details": "Returns `true` if `account` has been granted `role`."
      },
      "isApprovedForAll(address,address)": {
        "details": "See {IERC721-isApprovedForAll}."
      },
      "issueBadge(address,string)": {
        "details": "//// Issuance Desk                                                                            ////"
      },
      "name()": {
        "details": "See {IERC721Metadata-name}."
      },
      "ownerOf(uint256)": {
        "details": "See {IERC721-ownerOf}."
      },
      "pause()": {
        "details": "//// Maintanence\\\\\\\\\\\\\\\\\\\\\\\\\\\\\\\\\\\\\\\\\\\\\\\\\\\\\\                                                   ////"
      },
      "paused()": {
        "details": "Returns true if the contract is paused, and false otherwise."
      },
      "renounceRole(bytes32,address)": {
        "details": "Overload {renounceRole} to track enumerable memberships"
      },
      "revokeRole(bytes32,address)": {
        "details": "Overload {revokeRole} to track enumerable memberships"
      },
      "safeTransferFrom(address,address,uint256)": {
        "details": "See {IERC721-safeTransferFrom}."
      },
      "safeTransferFrom(address,address,uint256,bytes)": {
        "details": "See {IERC721-safeTransferFrom}."
      },
      "setApprovalForAll(address,bool)": {
        "details": "See {IERC721-setApprovalForAll}."
      },
      "setMintingCost(uint256)": {
        "details": "//// Set Minting Costs                                                                        ////"
      },
      "symbol()": {
        "details": "See {IERC721Metadata-symbol}."
      },
      "tokenByIndex(uint256)": {
        "details": "See {IERC721Enumerable-tokenByIndex}."
      },
      "tokenOfOwnerByIndex(address,uint256)": {
        "details": "See {IERC721Enumerable-tokenOfOwnerByIndex}."
      },
      "tokenURI(uint256)": {
        "details": "See {IERC721Metadata-tokenURI}."
      },
      "totalSupply()": {
        "details": "See {IERC721Enumerable-totalSupply}."
      },
      "transferFrom(address,address,uint256)": {
        "details": "See {IERC721-transferFrom}."
      }
    },
    "version": 1
  },
  "userdoc": {
    "kind": "user",
    "methods": {},
    "version": 1
  }
}