{
  "contractName": "GenericBadge",
  "abi": [
    {
      "inputs": [
        {
          "internalType": "string",
          "name": "_badgeName",
          "type": "string"
        },
        {
          "internalType": "string",
          "name": "_badgeSymbol",
          "type": "string"
        },
        {
          "internalType": "address",
          "name": "_AddressManagerAddress",
          "type": "address"
        }
      ],
      "stateMutability": "nonpayable",
      "type": "constructor"
    },
    {
      "anonymous": false,
      "inputs": [
        {
          "indexed": true,
          "internalType": "address",
          "name": "owner",
          "type": "address"
        },
        {
          "indexed": true,
          "internalType": "address",
          "name": "approved",
          "type": "address"
        },
        {
          "indexed": true,
          "internalType": "uint256",
          "name": "tokenId",
          "type": "uint256"
        }
      ],
      "name": "Approval",
      "type": "event"
    },
    {
      "anonymous": false,
      "inputs": [
        {
          "indexed": true,
          "internalType": "address",
          "name": "owner",
          "type": "address"
        },
        {
          "indexed": true,
          "internalType": "address",
          "name": "operator",
          "type": "address"
        },
        {
          "indexed": false,
          "internalType": "bool",
          "name": "approved",
          "type": "bool"
        }
      ],
      "name": "ApprovalForAll",
      "type": "event"
    },
    {
      "anonymous": false,
      "inputs": [
        {
          "indexed": false,
          "internalType": "address",
          "name": "account",
          "type": "address"
        }
      ],
      "name": "Paused",
      "type": "event"
    },
    {
      "anonymous": false,
      "inputs": [
        {
          "indexed": true,
          "internalType": "bytes32",
          "name": "role",
          "type": "bytes32"
        },
        {
          "indexed": true,
          "internalType": "bytes32",
          "name": "previousAdminRole",
          "type": "bytes32"
        },
        {
          "indexed": true,
          "internalType": "bytes32",
          "name": "newAdminRole",
          "type": "bytes32"
        }
      ],
      "name": "RoleAdminChanged",
      "type": "event"
    },
    {
      "anonymous": false,
      "inputs": [
        {
          "indexed": true,
          "internalType": "bytes32",
          "name": "role",
          "type": "bytes32"
        },
        {
          "indexed": true,
          "internalType": "address",
          "name": "account",
          "type": "address"
        },
        {
          "indexed": true,
          "internalType": "address",
          "name": "sender",
          "type": "address"
        }
      ],
      "name": "RoleGranted",
      "type": "event"
    },
    {
      "anonymous": false,
      "inputs": [
        {
          "indexed": true,
          "internalType": "bytes32",
          "name": "role",
          "type": "bytes32"
        },
        {
          "indexed": true,
          "internalType": "address",
          "name": "account",
          "type": "address"
        },
        {
          "indexed": true,
          "internalType": "address",
          "name": "sender",
          "type": "address"
        }
      ],
      "name": "RoleRevoked",
      "type": "event"
    },
    {
      "anonymous": false,
      "inputs": [
        {
          "indexed": true,
          "internalType": "address",
          "name": "from",
          "type": "address"
        },
        {
          "indexed": true,
          "internalType": "address",
          "name": "to",
          "type": "address"
        },
        {
          "indexed": true,
          "internalType": "uint256",
          "name": "tokenId",
          "type": "uint256"
        }
      ],
      "name": "Transfer",
      "type": "event"
    },
    {
      "anonymous": false,
      "inputs": [
        {
          "indexed": false,
          "internalType": "address",
          "name": "account",
          "type": "address"
        }
      ],
      "name": "Unpaused",
      "type": "event"
    },
    {
      "inputs": [],
      "name": "AddressManagerAddress",
      "outputs": [
        {
          "internalType": "address",
          "name": "",
          "type": "address"
        }
      ],
      "stateMutability": "view",
      "type": "function"
    },
    {
      "inputs": [
        {
          "internalType": "uint256",
          "name": "",
          "type": "uint256"
        }
      ],
      "name": "BadgeInfo",
      "outputs": [
        {
          "internalType": "address",
          "name": "gifter",
          "type": "address"
        },
        {
          "internalType": "string",
          "name": "reason",
          "type": "string"
        }
      ],
      "stateMutability": "view",
      "type": "function"
    },
    {
      "inputs": [
        {
          "internalType": "address",
          "name": "",
          "type": "address"
        },
        {
          "internalType": "uint256",
          "name": "",
          "type": "uint256"
        }
      ],
      "name": "BadgesSent",
      "outputs": [
        {
          "internalType": "uint256",
          "name": "",
          "type": "uint256"
        }
      ],
      "stateMutability": "view",
      "type": "function"
    },
    {
      "inputs": [],
      "name": "ChadBadgeAddress",
      "outputs": [
        {
          "internalType": "address",
          "name": "",
          "type": "address"
        }
      ],
      "stateMutability": "view",
      "type": "function"
    },
    {
      "inputs": [],
      "name": "ColoredIDAddress",
      "outputs": [
        {
          "internalType": "address",
          "name": "",
          "type": "address"
        }
      ],
      "stateMutability": "view",
      "type": "function"
    },
    {
      "inputs": [],
      "name": "CourtClerk",
      "outputs": [
        {
          "internalType": "address",
          "name": "",
          "type": "address"
        }
      ],
      "stateMutability": "view",
      "type": "function"
    },
    {
      "inputs": [],
      "name": "DEFAULT_ADMIN_ROLE",
      "outputs": [
        {
          "internalType": "bytes32",
          "name": "",
          "type": "bytes32"
        }
      ],
      "stateMutability": "view",
      "type": "function"
    },
    {
      "inputs": [],
      "name": "GAVELS_BAILIFF",
      "outputs": [
        {
          "internalType": "bytes32",
          "name": "",
          "type": "bytes32"
        }
      ],
      "stateMutability": "view",
      "type": "function"
    },
    {
      "inputs": [],
      "name": "GavelDAOAgent",
      "outputs": [
        {
          "internalType": "address",
          "name": "",
          "type": "address"
        }
      ],
      "stateMutability": "view",
      "type": "function"
    },
    {
      "inputs": [],
      "name": "GavelTokenAddress",
      "outputs": [
        {
          "internalType": "address",
          "name": "",
          "type": "address"
        }
      ],
      "stateMutability": "view",
      "type": "function"
    },
    {
      "inputs": [],
      "name": "GavelVote",
      "outputs": [
        {
          "internalType": "bool",
          "name": "",
          "type": "bool"
        }
      ],
      "stateMutability": "view",
      "type": "function"
    },
    {
      "inputs": [],
      "name": "GoldStarAddress",
      "outputs": [
        {
          "internalType": "address",
          "name": "",
          "type": "address"
        }
      ],
      "stateMutability": "view",
      "type": "function"
    },
    {
      "inputs": [],
      "name": "JERK_ROLE",
      "outputs": [
        {
          "internalType": "bytes32",
          "name": "",
          "type": "bytes32"
        }
      ],
      "stateMutability": "view",
      "type": "function"
    },
    {
      "inputs": [],
      "name": "JURY_BAILIFF",
      "outputs": [
        {
          "internalType": "bytes32",
          "name": "",
          "type": "bytes32"
        }
      ],
      "stateMutability": "view",
      "type": "function"
    },
    {
      "inputs": [],
      "name": "JuryDAOAgent",
      "outputs": [
        {
          "internalType": "address",
          "name": "",
          "type": "address"
        }
      ],
      "stateMutability": "view",
      "type": "function"
    },
    {
      "inputs": [],
      "name": "JuryPoolAddress",
      "outputs": [
        {
          "internalType": "address",
          "name": "",
          "type": "address"
        }
      ],
      "stateMutability": "view",
      "type": "function"
    },
    {
      "inputs": [],
      "name": "JuryVote",
      "outputs": [
        {
          "internalType": "bool",
          "name": "",
          "type": "bool"
        }
      ],
      "stateMutability": "view",
      "type": "function"
    },
    {
      "inputs": [],
      "name": "MINI_BAILIFF_ROLE",
      "outputs": [
        {
          "internalType": "bytes32",
          "name": "",
          "type": "bytes32"
        }
      ],
      "stateMutability": "view",
      "type": "function"
    },
    {
      "inputs": [],
      "name": "MiniBailiff",
      "outputs": [
        {
          "internalType": "address",
          "name": "",
          "type": "address"
        }
      ],
      "stateMutability": "view",
      "type": "function"
    },
    {
      "inputs": [],
      "name": "PinkSlipAddress",
      "outputs": [
        {
          "internalType": "address",
          "name": "",
          "type": "address"
        }
      ],
      "stateMutability": "view",
      "type": "function"
    },
    {
      "inputs": [],
      "name": "RedPenTokenAddress",
      "outputs": [
        {
          "internalType": "address",
          "name": "",
          "type": "address"
        }
      ],
      "stateMutability": "view",
      "type": "function"
    },
    {
      "inputs": [],
      "name": "THE_COURT_ROLE",
      "outputs": [
        {
          "internalType": "bytes32",
          "name": "",
          "type": "bytes32"
        }
      ],
      "stateMutability": "view",
      "type": "function"
    },
    {
      "inputs": [],
      "name": "TheCourtAddress",
      "outputs": [
        {
          "internalType": "address",
          "name": "",
          "type": "address"
        }
      ],
      "stateMutability": "view",
      "type": "function"
    },
    {
      "inputs": [],
      "name": "TreasuryAddress",
      "outputs": [
        {
          "internalType": "address",
          "name": "",
          "type": "address"
        }
      ],
      "stateMutability": "view",
      "type": "function"
    },
    {
      "inputs": [],
      "name": "addressManager",
      "outputs": [
        {
          "internalType": "contract AddressManager",
          "name": "",
          "type": "address"
        }
      ],
      "stateMutability": "view",
      "type": "function"
    },
    {
      "inputs": [
        {
          "internalType": "address",
          "name": "to",
          "type": "address"
        },
        {
          "internalType": "uint256",
          "name": "tokenId",
          "type": "uint256"
        }
      ],
      "name": "approve",
      "outputs": [],
      "stateMutability": "nonpayable",
      "type": "function"
    },
    {
      "inputs": [],
      "name": "badgeColor",
      "outputs": [
        {
          "internalType": "string",
          "name": "",
          "type": "string"
        }
      ],
      "stateMutability": "view",
      "type": "function"
    },
    {
      "inputs": [],
      "name": "badgeName",
      "outputs": [
        {
          "internalType": "string",
          "name": "",
          "type": "string"
        }
      ],
      "stateMutability": "view",
      "type": "function"
    },
    {
      "inputs": [
        {
          "internalType": "address",
          "name": "owner",
          "type": "address"
        }
      ],
      "name": "balanceOf",
      "outputs": [
        {
          "internalType": "uint256",
          "name": "",
          "type": "uint256"
        }
      ],
      "stateMutability": "view",
      "type": "function"
    },
    {
      "inputs": [],
      "name": "baseURI_",
      "outputs": [
        {
          "internalType": "string",
          "name": "",
          "type": "string"
        }
      ],
      "stateMutability": "view",
      "type": "function"
    },
    {
      "inputs": [
        {
          "internalType": "uint256",
          "name": "tokenId",
          "type": "uint256"
        }
      ],
      "name": "getApproved",
      "outputs": [
        {
          "internalType": "address",
          "name": "",
          "type": "address"
        }
      ],
      "stateMutability": "view",
      "type": "function"
    },
    {
      "inputs": [
        {
          "internalType": "bytes32",
          "name": "role",
          "type": "bytes32"
        }
      ],
      "name": "getRoleAdmin",
      "outputs": [
        {
          "internalType": "bytes32",
          "name": "",
          "type": "bytes32"
        }
      ],
      "stateMutability": "view",
      "type": "function"
    },
    {
      "inputs": [
        {
          "internalType": "bytes32",
          "name": "role",
          "type": "bytes32"
        },
        {
          "internalType": "uint256",
          "name": "index",
          "type": "uint256"
        }
      ],
      "name": "getRoleMember",
      "outputs": [
        {
          "internalType": "address",
          "name": "",
          "type": "address"
        }
      ],
      "stateMutability": "view",
      "type": "function"
    },
    {
      "inputs": [
        {
          "internalType": "bytes32",
          "name": "role",
          "type": "bytes32"
        }
      ],
      "name": "getRoleMemberCount",
      "outputs": [
        {
          "internalType": "uint256",
          "name": "",
          "type": "uint256"
        }
      ],
      "stateMutability": "view",
      "type": "function"
    },
    {
      "inputs": [
        {
          "internalType": "bytes32",
          "name": "role",
          "type": "bytes32"
        },
        {
          "internalType": "address",
          "name": "account",
          "type": "address"
        }
      ],
      "name": "grantRole",
      "outputs": [],
      "stateMutability": "nonpayable",
      "type": "function"
    },
    {
      "inputs": [
        {
          "internalType": "bytes32",
          "name": "role",
          "type": "bytes32"
        },
        {
          "internalType": "address",
          "name": "account",
          "type": "address"
        }
      ],
      "name": "hasRole",
      "outputs": [
        {
          "internalType": "bool",
          "name": "",
          "type": "bool"
        }
      ],
      "stateMutability": "view",
      "type": "function"
    },
    {
      "inputs": [],
      "name": "isForeverLocked",
      "outputs": [
        {
          "internalType": "bool",
          "name": "",
          "type": "bool"
        }
      ],
      "stateMutability": "view",
      "type": "function"
    },
    {
      "inputs": [],
      "name": "jerkSanctions",
      "outputs": [
        {
          "internalType": "bool",
          "name": "",
          "type": "bool"
        }
      ],
      "stateMutability": "view",
      "type": "function"
    },
    {
      "inputs": [],
      "name": "name",
      "outputs": [
        {
          "internalType": "string",
          "name": "",
          "type": "string"
        }
      ],
      "stateMutability": "view",
      "type": "function"
    },
    {
      "inputs": [
        {
          "internalType": "uint256",
          "name": "tokenId",
          "type": "uint256"
        }
      ],
      "name": "ownerOf",
      "outputs": [
        {
          "internalType": "address",
          "name": "",
          "type": "address"
        }
      ],
      "stateMutability": "view",
      "type": "function"
    },
    {
      "inputs": [],
      "name": "paused",
      "outputs": [
        {
          "internalType": "bool",
          "name": "",
          "type": "bool"
        }
      ],
      "stateMutability": "view",
      "type": "function"
    },
    {
      "inputs": [
        {
          "internalType": "bytes32",
          "name": "role",
          "type": "bytes32"
        },
        {
          "internalType": "address",
          "name": "account",
          "type": "address"
        }
      ],
      "name": "renounceRole",
      "outputs": [],
      "stateMutability": "nonpayable",
      "type": "function"
    },
    {
      "inputs": [],
      "name": "resetVote",
      "outputs": [],
      "stateMutability": "nonpayable",
      "type": "function"
    },
    {
      "inputs": [
        {
          "internalType": "bytes32",
          "name": "role",
          "type": "bytes32"
        },
        {
          "internalType": "address",
          "name": "account",
          "type": "address"
        }
      ],
      "name": "revokeRole",
      "outputs": [],
      "stateMutability": "nonpayable",
      "type": "function"
    },
    {
      "inputs": [],
      "name": "symbol",
      "outputs": [
        {
          "internalType": "string",
          "name": "",
          "type": "string"
        }
      ],
      "stateMutability": "view",
      "type": "function"
    },
    {
      "inputs": [],
      "name": "syncAllRoles",
      "outputs": [],
      "stateMutability": "nonpayable",
      "type": "function"
    },
    {
      "inputs": [
        {
          "internalType": "bytes32",
          "name": "ROLE_TO_SYNC",
          "type": "bytes32"
        }
      ],
      "name": "syncSingleRole",
      "outputs": [],
      "stateMutability": "nonpayable",
      "type": "function"
    },
    {
      "inputs": [],
      "name": "syncVotes",
      "outputs": [],
      "stateMutability": "nonpayable",
      "type": "function"
    },
    {
      "inputs": [
        {
          "internalType": "uint256",
          "name": "index",
          "type": "uint256"
        }
      ],
      "name": "tokenByIndex",
      "outputs": [
        {
          "internalType": "uint256",
          "name": "",
          "type": "uint256"
        }
      ],
      "stateMutability": "view",
      "type": "function"
    },
    {
      "inputs": [
        {
          "internalType": "address",
          "name": "owner",
          "type": "address"
        },
        {
          "internalType": "uint256",
          "name": "index",
          "type": "uint256"
        }
      ],
      "name": "tokenOfOwnerByIndex",
      "outputs": [
        {
          "internalType": "uint256",
          "name": "",
          "type": "uint256"
        }
      ],
      "stateMutability": "view",
      "type": "function"
    },
    {
      "inputs": [],
      "name": "totalSupply",
      "outputs": [
        {
          "internalType": "uint256",
          "name": "",
          "type": "uint256"
        }
      ],
      "stateMutability": "view",
      "type": "function"
    },
    {
      "inputs": [],
      "name": "updateAddressManager",
      "outputs": [],
      "stateMutability": "nonpayable",
      "type": "function"
    },
    {
      "inputs": [],
      "name": "updateAllAddresses",
      "outputs": [],
      "stateMutability": "nonpayable",
      "type": "function"
    },
    {
      "inputs": [],
      "name": "updateAllRoles",
      "outputs": [],
      "stateMutability": "nonpayable",
      "type": "function"
    },
    {
      "inputs": [],
      "name": "updateDAOAddresses",
      "outputs": [],
      "stateMutability": "nonpayable",
      "type": "function"
    },
    {
      "inputs": [
        {
          "internalType": "bytes32",
          "name": "ROLE_TO_UPDATE",
          "type": "bytes32"
        }
      ],
      "name": "updateSingleRole",
      "outputs": [],
      "stateMutability": "nonpayable",
      "type": "function"
    },
    {
      "inputs": [],
      "name": "updateTokenAddresses",
      "outputs": [],
      "stateMutability": "nonpayable",
      "type": "function"
    },
    {
      "inputs": [],
      "name": "nextTokenId",
      "outputs": [
        {
          "internalType": "uint256",
          "name": "_nextTokenId",
          "type": "uint256"
        }
      ],
      "stateMutability": "view",
      "type": "function"
    },
    {
      "inputs": [
        {
          "internalType": "uint256",
          "name": "_tokenId",
          "type": "uint256"
        }
      ],
      "name": "getBadgeReason",
      "outputs": [
        {
          "internalType": "string",
          "name": "_theReason",
          "type": "string"
        }
      ],
      "stateMutability": "view",
      "type": "function"
    },
    {
      "inputs": [
        {
          "internalType": "uint256",
          "name": "_tokenId",
          "type": "uint256"
        }
      ],
      "name": "getBadgeSender",
      "outputs": [
        {
          "internalType": "address",
          "name": "_theGifter",
          "type": "address"
        }
      ],
      "stateMutability": "view",
      "type": "function"
    },
    {
      "inputs": [
        {
          "internalType": "address",
          "name": "_gifter",
          "type": "address"
        }
      ],
      "name": "getBadgesSent",
      "outputs": [
        {
          "internalType": "uint256[]",
          "name": "_BadgesSent",
          "type": "uint256[]"
        }
      ],
      "stateMutability": "view",
      "type": "function"
    },
    {
      "inputs": [
        {
          "internalType": "address",
          "name": "addressToCheck",
          "type": "address"
        },
        {
          "internalType": "uint256",
          "name": "badgeTokenID",
          "type": "uint256"
        }
      ],
      "name": "isBadgeSender",
      "outputs": [
        {
          "internalType": "bool",
          "name": "",
          "type": "bool"
        }
      ],
      "stateMutability": "view",
      "type": "function"
    },
    {
      "inputs": [
        {
          "internalType": "address",
          "name": "receivingAddress",
          "type": "address"
        },
        {
          "internalType": "string",
          "name": "_reason",
          "type": "string"
        }
      ],
      "name": "issueBadge",
      "outputs": [
        {
          "internalType": "uint256",
          "name": "newId",
          "type": "uint256"
        }
      ],
      "stateMutability": "nonpayable",
      "type": "function"
    },
    {
      "inputs": [
        {
          "internalType": "address",
          "name": "receivingAddress",
          "type": "address"
        },
        {
          "internalType": "string",
          "name": "_reason",
          "type": "string"
        },
        {
          "internalType": "string",
          "name": "_tokenURI",
          "type": "string"
        }
      ],
      "name": "issueBadge",
      "outputs": [
        {
          "internalType": "uint256",
          "name": "newId",
          "type": "uint256"
        }
      ],
      "stateMutability": "nonpayable",
      "type": "function"
    },
    {
      "inputs": [
        {
          "internalType": "uint256",
          "name": "tokenId",
          "type": "uint256"
        }
      ],
      "name": "revokeBadge",
      "outputs": [],
      "stateMutability": "nonpayable",
      "type": "function"
    },
    {
      "inputs": [],
      "name": "pause",
      "outputs": [],
      "stateMutability": "nonpayable",
      "type": "function"
    },
    {
      "inputs": [],
      "name": "unpause",
      "outputs": [],
      "stateMutability": "nonpayable",
      "type": "function"
    },
    {
      "inputs": [
        {
          "internalType": "bool",
          "name": "thisIsNotReversible",
          "type": "bool"
        }
      ],
      "name": "refreshBadges",
      "outputs": [
        {
          "internalType": "bool",
          "name": "",
          "type": "bool"
        }
      ],
      "stateMutability": "nonpayable",
      "type": "function"
    },
    {
      "inputs": [
        {
          "internalType": "uint256",
          "name": "valueMustBe69",
          "type": "uint256"
        }
      ],
      "name": "destroyAndLockContract",
      "outputs": [
        {
          "internalType": "bool",
          "name": "",
          "type": "bool"
        }
      ],
      "stateMutability": "nonpayable",
      "type": "function"
    },
    {
      "inputs": [
        {
          "internalType": "string",
          "name": "_baseURIString",
          "type": "string"
        }
      ],
      "name": "setBaseURI",
      "outputs": [
        {
          "internalType": "bool",
          "name": "",
          "type": "bool"
        }
      ],
      "stateMutability": "nonpayable",
      "type": "function"
    },
    {
      "inputs": [
        {
          "internalType": "uint256",
          "name": "_tokenId",
          "type": "uint256"
        }
      ],
      "name": "tokenURI",
      "outputs": [
        {
          "internalType": "string",
          "name": "_URI",
          "type": "string"
        }
      ],
      "stateMutability": "view",
      "type": "function"
    },
    {
      "inputs": [
        {
          "internalType": "address",
          "name": "owner",
          "type": "address"
        },
        {
          "internalType": "address",
          "name": "operator",
          "type": "address"
        }
      ],
      "name": "isApprovedForAll",
      "outputs": [
        {
          "internalType": "bool",
          "name": "",
          "type": "bool"
        }
      ],
      "stateMutability": "view",
      "type": "function"
    },
    {
      "inputs": [
        {
          "internalType": "address",
          "name": "operator",
          "type": "address"
        },
        {
          "internalType": "bool",
          "name": "approved",
          "type": "bool"
        }
      ],
      "name": "setApprovalForAll",
      "outputs": [],
      "stateMutability": "nonpayable",
      "type": "function"
    },
    {
      "inputs": [
        {
          "internalType": "bytes4",
          "name": "interfaceId",
          "type": "bytes4"
        }
      ],
      "name": "supportsInterface",
      "outputs": [
        {
          "internalType": "bool",
          "name": "",
          "type": "bool"
        }
      ],
      "stateMutability": "view",
      "type": "function"
    },
    {
      "inputs": [
        {
          "internalType": "address",
          "name": "from",
          "type": "address"
        },
        {
          "internalType": "address",
          "name": "to",
          "type": "address"
        },
        {
          "internalType": "uint256",
          "name": "tokenId",
          "type": "uint256"
        }
      ],
      "name": "transferFrom",
      "outputs": [],
      "stateMutability": "nonpayable",
      "type": "function"
    },
    {
      "inputs": [
        {
          "internalType": "address",
          "name": "from",
          "type": "address"
        },
        {
          "internalType": "address",
          "name": "to",
          "type": "address"
        },
        {
          "internalType": "uint256",
          "name": "tokenId",
          "type": "uint256"
        }
      ],
      "name": "safeTransferFrom",
      "outputs": [],
      "stateMutability": "nonpayable",
      "type": "function"
    },
    {
      "inputs": [
        {
          "internalType": "address",
          "name": "from",
          "type": "address"
        },
        {
          "internalType": "address",
          "name": "to",
          "type": "address"
        },
        {
          "internalType": "uint256",
          "name": "tokenId",
          "type": "uint256"
        },
        {
          "internalType": "bytes",
          "name": "_data",
          "type": "bytes"
        }
      ],
      "name": "safeTransferFrom",
      "outputs": [],
      "stateMutability": "nonpayable",
      "type": "function"
    }
  ],
  "bytecode": "0x6000805460ff1990811682556011805463ffffffff60a01b19169055601e91909155601f80549091169055636970667360e01b60a0908152601d60f91b60a452602f60f81b60a581905260a6526007608081905260a7604052620000669160229162000c48565b503480156200007457600080fd5b5060405162005a4038038062005a40833981016040819052620000979162000e0b565b600380546001600160a01b0383166001600160a01b03199182168117909255601180549091169091179055828282620000cf62000271565b620000d962000287565b600f54620000f3906000906001600160a01b0316620003d2565b600f546200012c907f0538d24a8b7882d7b2e36af243d4af61c23e86e3daa6cb8c887b53220b2f5720906001600160a01b0316620003d2565b600c5462000165907f048bc71fa1cb2c119c339cf9cf00a97996a19a9d991ce5fe049f2fa5459e7990906001600160a01b0316620003d2565b600d546200019e907ffa8e4989e1d689f7bc5c4b25b87efb51fecdecb19ba62847e29c759e12a89acd906001600160a01b0316620003d2565b601054620001d7907ff0f4b159a6e2a4815eb3ca3df080bfa70c9270662c59bcaa4479a456220183e6906001600160a01b0316620003d2565b620002047f7c9d7f6f02908185bffb3f7fc9afb29fd7bf93675af8fd4b655ee05c2cee1e0e6000620003d2565b5081516200021a90601290602085019062000c48565b5080516200023090601390602084019062000c48565b50506018805460ff1916905550815162000251906020908185019062000c48565b5082516200026790602190602086019062000c48565b5050505062000eda565b6200027b62000415565b6200028562000715565b565b601160009054906101000a90046001600160a01b03166001600160a01b031663ff7e88ec6040518163ffffffff1660e01b815260040160206040518083038186803b158015620002d657600080fd5b505afa158015620002eb573d6000803e3d6000fd5b505050506040513d601f19601f8201168201806040525081019062000311919062000de0565b601160156101000a81548160ff021916908315150217905550601160009054906101000a90046001600160a01b03166001600160a01b0316632fb565856040518163ffffffff1660e01b815260040160206040518083038186803b1580156200037957600080fd5b505afa1580156200038e573d6000803e3d6000fd5b505050506040513d601f19601f82011682018060405250810190620003b4919062000de0565b60118054911515600160b01b0260ff60b01b19909216919091179055565b620003e9828262000b3e60201b620019bf1760201c565b600082815260026020908152604090912062000410918390620019c962000b4e821b17901c565b505050565b601160009054906101000a90046001600160a01b03166001600160a01b031663dadf56ac6040518163ffffffff1660e01b815260040160206040518083038186803b1580156200046457600080fd5b505afa15801562000479573d6000803e3d6000fd5b505050506040513d601f19601f820116820180604052508101906200049f919062000dc2565b600c80546001600160a01b0319166001600160a01b039283161790556011546040805163024bebe960e01b81529051919092169163024bebe9916004808301926020929190829003018186803b158015620004f957600080fd5b505afa1580156200050e573d6000803e3d6000fd5b505050506040513d601f19601f8201168201806040525081019062000534919062000dc2565b600d80546001600160a01b0319166001600160a01b0392831617905560115460408051635b5c251f60e01b815290519190921691635b5c251f916004808301926020929190829003018186803b1580156200058e57600080fd5b505afa158015620005a3573d6000803e3d6000fd5b505050506040513d601f19601f82011682018060405250810190620005c9919062000dc2565b600e80546001600160a01b0319166001600160a01b0392831617905560115460408051637310bf1d60e11b81529051919092169163e6217e3a916004808301926020929190829003018186803b1580156200062357600080fd5b505afa15801562000638573d6000803e3d6000fd5b505050506040513d601f19601f820116820180604052508101906200065e919062000dc2565b601080546001600160a01b0319166001600160a01b039283161790556011546040805163d88127a160e01b81529051919092169163d88127a1916004808301926020929190829003018186803b158015620006b857600080fd5b505afa158015620006cd573d6000803e3d6000fd5b505050506040513d601f19601f82011682018060405250810190620006f3919062000dc2565b600b80546001600160a01b0319166001600160a01b0392909216919091179055565b601160009054906101000a90046001600160a01b03166001600160a01b03166321d7f0086040518163ffffffff1660e01b815260040160206040518083038186803b1580156200076457600080fd5b505afa15801562000779573d6000803e3d6000fd5b505050506040513d601f19601f820116820180604052508101906200079f919062000dc2565b600480546001600160a01b0319166001600160a01b039283161781556011546040805163762ddb5960e01b81529051919093169263762ddb599281810192602092909190829003018186803b158015620007f857600080fd5b505afa1580156200080d573d6000803e3d6000fd5b505050506040513d601f19601f8201168201806040525081019062000833919062000dc2565b600580546001600160a01b0319166001600160a01b039283161790556011546040805163bfb7dc9960e01b81529051919092169163bfb7dc99916004808301926020929190829003018186803b1580156200088d57600080fd5b505afa158015620008a2573d6000803e3d6000fd5b505050506040513d601f19601f82011682018060405250810190620008c8919062000dc2565b600680546001600160a01b0319166001600160a01b0392831617905560115460408051633e6111eb60e21b81529051919092169163f98447ac916004808301926020929190829003018186803b1580156200092257600080fd5b505afa15801562000937573d6000803e3d6000fd5b505050506040513d601f19601f820116820180604052508101906200095d919062000dc2565b600780546001600160a01b0319166001600160a01b0392831617905560115460408051630fe1ba9f60e21b815290519190921691633f86ea7c916004808301926020929190829003018186803b158015620009b757600080fd5b505afa158015620009cc573d6000803e3d6000fd5b505050506040513d601f19601f82011682018060405250810190620009f2919062000dc2565b600880546001600160a01b0319166001600160a01b0392831617905560115460408051632b90024160e11b8152905191909216916357200482916004808301926020929190829003018186803b15801562000a4c57600080fd5b505afa15801562000a61573d6000803e3d6000fd5b505050506040513d601f19601f8201168201806040525081019062000a87919062000dc2565b600980546001600160a01b0319166001600160a01b0392831617905560115460408051636b58477560e01b815290519190921691636b584775916004808301926020929190829003018186803b15801562000ae157600080fd5b505afa15801562000af6573d6000803e3d6000fd5b505050506040513d601f19601f8201168201806040525081019062000b1c919062000dc2565b600a80546001600160a01b0319166001600160a01b0392909216919091179055565b62000b4a828262000b6e565b5050565b600062000b65836001600160a01b03841662000bf6565b90505b92915050565b60008281526001602090815260408083206001600160a01b038516845290915290205460ff1662000b4a5760008281526001602081815260408084206001600160a01b0386168086529252808420805460ff19169093179092559051339285917f2f8788117e7eff1d82e926ec794901d17c78024a50270940304540a733656f0d9190a45050565b600081815260018301602052604081205462000c3f5750815460018181018455600084815260208082209093018490558454848252828601909352604090209190915562000b68565b50600062000b68565b82805462000c569062000e87565b90600052602060002090601f01602090048101928262000c7a576000855562000cc5565b82601f1062000c9557805160ff191683800117855562000cc5565b8280016001018555821562000cc5579182015b8281111562000cc557825182559160200191906001019062000ca8565b5062000cd392915062000cd7565b5090565b5b8082111562000cd3576000815560010162000cd8565b80516001600160a01b038116811462000d0657600080fd5b919050565b600082601f83011262000d1d57600080fd5b81516001600160401b038082111562000d3a5762000d3a62000ec4565b604051601f8301601f19908116603f0116810190828211818310171562000d655762000d6562000ec4565b8160405283815260209250868385880101111562000d8257600080fd5b600091505b8382101562000da6578582018301518183018401529082019062000d87565b8382111562000db85760008385830101525b9695505050505050565b60006020828403121562000dd557600080fd5b62000b658262000cee565b60006020828403121562000df357600080fd5b8151801515811462000e0457600080fd5b9392505050565b60008060006060848603121562000e2157600080fd5b83516001600160401b038082111562000e3957600080fd5b62000e478783880162000d0b565b9450602086015191508082111562000e5e57600080fd5b5062000e6d8682870162000d0b565b92505062000e7e6040850162000cee565b90509250925092565b600181811c9082168062000e9c57607f821691505b6020821081141562000ebe57634e487b7160e01b600052602260045260246000fd5b50919050565b634e487b7160e01b600052604160045260246000fd5b614b568062000eea6000396000f3fe608060405234801561001057600080fd5b506004361061045f5760003560e01c806370a082311161024c578063c62b28e811610146578063e6217e3a116100c3578063f259a29e11610087578063f259a29e14610996578063f7d92d861461099e578063f98447ac146109a6578063f98db253146109b9578063ff7e88ec146109cc57600080fd5b8063e6217e3a14610940578063e78c266c14610953578063e985e9c514610966578063e9a5323014610979578063f1132b301461098e57600080fd5b8063d547741f1161010a578063d547741f146108ec578063d88127a1146108ff578063dadf56ac14610912578063de2cff0314610925578063dea6f9c81461093857600080fd5b8063c62b28e814610889578063c87b56dd1461089c578063ca15c873146108af578063cce84392146108c2578063cf4ece15146108d757600080fd5b806395d89b41116101d4578063a32c5e5911610198578063a32c5e5914610819578063a78e746f1461082e578063b88d4fde14610842578063bfb7dc9914610855578063c04e17e31461086857600080fd5b806395d89b41146107d657806396ac6bf0146107de5780639ac3eaa7146107f1578063a217fddf146107fe578063a22cb4651461080657600080fd5b8063765160781161021b5780637651607814610782578063794ccf6c146107955780638456cb59146107a85780639010d07c146107b057806391d14854146107c357600080fd5b806370a082311461072b57806373c898221461073e57806375794a3c14610767578063762ddb591461076f57600080fd5b80633ab76e9f1161035d57806357f276ff116102e55780635f413466116102a95780635f413466146106ca578063610c3009146106dd5780636352211e146106e557806363ebc677146106f85780636b5847751461071857600080fd5b806357f276ff1461067e57806359e6f787146106915780635b5c251f146106a45780635c975abb146106b75780635db531a1146106c257600080fd5b806349b5e1051161032c57806349b5e105146106355780634d84c6d81461063d5780634f6ccce71461064557806355f804b314610658578063572004821461066b57600080fd5b80633ab76e9f146105f45780633f4ba83a146106075780633f86ea7c1461060f57806342842e0e1461062257600080fd5b806321d7f008116103eb5780632f745c59116103af5780632f745c59146105aa5780632fb56585146105bd578063326a55e0146105d1578063329a8cfa146105d957806336568abe146105e157600080fd5b806321d7f0081461053857806323b872dd1461054b5780632436329d1461055e578063248a9ca3146105735780632f2ff15d1461059757600080fd5b8063095ea7b311610432578063095ea7b3146104df5780630ad17f8f146104f4578063130f63201461051557806317314d5a1461052857806318160ddd1461053057600080fd5b806301ffc9a714610464578063024bebe91461048c57806306fdde03146104b7578063081812fc146104cc575b600080fd5b6104776104723660046145ca565b6109e0565b60405190151581526020015b60405180910390f35b600d5461049f906001600160a01b031681565b6040516001600160a01b039091168152602001610483565b6104bf6109f1565b60405161048391906147c7565b61049f6104da36600461456a565b610a83565b6104f26104ed366004614504565b610b10565b005b610507610502366004614504565b610c26565b604051908152602001610483565b6104f261052336600461456a565b610c57565b6104f2610c8c565b601c54610507565b60045461049f906001600160a01b031681565b6104f261055936600461434f565b610cb5565b610507600080516020614a8183398151915281565b61050761058136600461456a565b6000908152600160208190526040909120015490565b6104f26105a5366004614583565b610ce6565b6105076105b8366004614504565b610d08565b60115461047790600160b01b900460ff1681565b6104f2610d9e565b6104f2610dae565b6104f26105ef366004614583565b610eb7565b60115461049f906001600160a01b031681565b6104f2610ed9565b60085461049f906001600160a01b031681565b6104f261063036600461434f565b610f6b565b6104f2610f9c565b6104f2610da6565b61050761065336600461456a565b610fa4565b610477610666366004614604565b611037565b60095461049f906001600160a01b031681565b6104f261068c36600461456a565b6110e4565b61047761069f366004614504565b6110f8565b600e5461049f906001600160a01b031681565b60185460ff16610477565b6104f261112a565b600f5461049f906001600160a01b031681565b6104bf611132565b61049f6106f336600461456a565b6111c0565b61070b6107063660046142dc565b611237565b6040516104839190614783565b600a5461049f906001600160a01b031681565b6105076107393660046142dc565b6112a3565b61049f61074c36600461456a565b6000908152602360205260409020546001600160a01b031690565b601e54610507565b60055461049f906001600160a01b031681565b610477610790366004614530565b61132a565b6105076107a336600461443e565b611421565b6104f2611434565b61049f6107be3660046145a8565b6114b6565b6104776107d1366004614583565b6114ce565b6104bf6114f9565b6104776107ec36600461456a565b611508565b601f546104779060ff1681565b610507600081565b6104f2610814366004614410565b611614565b610507600080516020614ae183398151915281565b60115461047790600160a01b900460ff1681565b6104f2610850366004614390565b611692565b60065461049f906001600160a01b031681565b61087b61087636600461456a565b6116ca565b60405161048392919061475f565b6104f261089736600461456a565b611779565b6104bf6108aa36600461456a565b6117ca565b6105076108bd36600461456a565b6117d5565b610507600080516020614b0183398151915281565b610507600080516020614ac183398151915281565b6104f26108fa366004614583565b6117ec565b600b5461049f906001600160a01b031681565b600c5461049f906001600160a01b031681565b61050761093336600461448e565b6117f6565b6104bf61180b565b60105461049f906001600160a01b031681565b60035461049f906001600160a01b031681565b610477610974366004614316565b611818565b610507600080516020614aa183398151915281565b6104f261186f565b6104bf611877565b6104f2611884565b60075461049f906001600160a01b031681565b6104bf6109c736600461456a565b611924565b60115461047790600160a81b900460ff1681565b60006109eb826119de565b92915050565b606060128054610a009061496f565b80601f0160208091040260200160405190810160405280929190818152602001828054610a2c9061496f565b8015610a795780601f10610a4e57610100808354040283529160200191610a79565b820191906000526020600020905b815481529060010190602001808311610a5c57829003601f168201915b5050505050905090565b6000610a8e82611a03565b610af45760405162461bcd60e51b815260206004820152602c60248201527f4552433732313a20617070726f76656420717565727920666f72206e6f6e657860448201526b34b9ba32b73a103a37b5b2b760a11b60648201526084015b60405180910390fd5b506000908152601660205260409020546001600160a01b031690565b6000610b1b826111c0565b9050806001600160a01b0316836001600160a01b03161415610b895760405162461bcd60e51b815260206004820152602160248201527f4552433732313a20617070726f76616c20746f2063757272656e74206f776e656044820152603960f91b6064820152608401610aeb565b336001600160a01b0382161480610ba55750610ba58133611818565b610c175760405162461bcd60e51b815260206004820152603860248201527f4552433732313a20617070726f76652063616c6c6572206973206e6f74206f7760448201527f6e6572206e6f7220617070726f76656420666f7220616c6c00000000000000006064820152608401610aeb565b610c218383611a20565b505050565b60246020528160005260406000208181548110610c4257600080fd5b90600052602060002001600091509150505481565b610c616001611a47565b50610c6b81611af9565b50610c7581611c74565b50610c806000611a47565b610c8957600080fd5b50565b610c966001611a47565b50610c9f611dfd565b50610caa6000611a47565b610cb357600080fd5b565b610cbf3382611f43565b610cdb5760405162461bcd60e51b8152600401610aeb9061482c565b610c21838383611fc6565b610cf08282611ff7565b6000828152600260205260409020610c2190826119c9565b6000610d13836112a3565b8210610d755760405162461bcd60e51b815260206004820152602b60248201527f455243373231456e756d657261626c653a206f776e657220696e646578206f7560448201526a74206f6620626f756e647360a81b6064820152608401610aeb565b506001600160a01b03919091166000908152601a60209081526040808320938352929052205490565b610da6612031565b610cb361231d565b610dc6600080516020614ae1833981519152336114ce565b80610de45750610de4600080516020614aa1833981519152336114ce565b80610e025750610e02600080516020614a81833981519152336114ce565b610e475760405162461bcd60e51b81526020600482015260166024820152752cb7ba93b932903737ba103a3432903130b4b634b33360511b6044820152606401610aeb565b601160009054906101000a90046001600160a01b03166001600160a01b031663329a8cfa6040518163ffffffff1660e01b8152600401600060405180830381600087803b158015610e9757600080fd5b505af1158015610eab573d6000803e3d6000fd5b50505050610cb361112a565b610ec1828261272a565b6000828152600260205260409020610c2190826127a4565b610ef1600080516020614aa1833981519152336114ce565b80610f0f5750610f0f600080516020614ae1833981519152336114ce565b610f535760405162461bcd60e51b8152602060048201526015602482015274596f75277265206e6f742074686520476176656c7360581b6044820152606401610aeb565b601f5460ff1615610f6357600080fd5b610cb36127b9565b610f753382611f43565b610f915760405162461bcd60e51b8152600401610aeb9061482c565b610c2183838361284c565b610cb3612031565b6000610faf601c5490565b82106110125760405162461bcd60e51b815260206004820152602c60248201527f455243373231456e756d657261626c653a20676c6f62616c20696e646578206f60448201526b7574206f6620626f756e647360a01b6064820152608401610aeb565b601c828154811061102557611025614a1b565b90600052602060002001549050919050565b6000611051600080516020614ae1833981519152336114ce565b8061106f575061106f600080516020614aa1833981519152336114ce565b8061108d575061108d600080516020614a81833981519152336114ce565b6110d25760405162461bcd60e51b81526020600482015260166024820152752cb7ba93b932903737ba103a3432903130b4b634b33360511b6044820152606401610aeb565b6110db82612867565b50600192915050565b6110ee6001611a47565b50610c758161287d565b6000818152602360205260408120546001600160a01b0384811691161415611122575060016109eb565b5060006109eb565b610cb3612ad8565b6021805461113f9061496f565b80601f016020809104026020016040519081016040528092919081815260200182805461116b9061496f565b80156111b85780601f1061118d576101008083540402835291602001916111b8565b820191906000526020600020905b81548152906001019060200180831161119b57829003601f168201915b505050505081565b6000818152601460205260408120546001600160a01b0316806109eb5760405162461bcd60e51b815260206004820152602960248201527f4552433732313a206f776e657220717565727920666f72206e6f6e657869737460448201526832b73a103a37b5b2b760b91b6064820152608401610aeb565b6001600160a01b03811660009081526024602090815260409182902080548351818402810184019094528084526060939283018282801561129757602002820191906000526020600020905b815481526020019060010190808311611283575b50505050509050919050565b60006001600160a01b03821661130e5760405162461bcd60e51b815260206004820152602a60248201527f4552433732313a2062616c616e636520717565727920666f7220746865207a65604482015269726f206164647265737360b01b6064820152608401610aeb565b506001600160a01b031660009081526015602052604090205490565b6000611344600080516020614aa1833981519152336114ce565b806113625750611362600080516020614a81833981519152336114ce565b806113805750611380600080516020614ae1833981519152336114ce565b61138957600080fd5b601154600160b01b810460ff9081161515600160a81b90920416151514600114806113c757506113c7600080516020614ae1833981519152336114ce565b6114065760405162461bcd60e51b815260206004820152601060248201526f436f757274204d75737420416772656560801b6044820152606401610aeb565b60018215151415611419576110db612c1b565b506000919050565b600061142d8383612c5e565b9392505050565b61144c600080516020614aa1833981519152336114ce565b8061146a575061146a600080516020614ae1833981519152336114ce565b6114ae5760405162461bcd60e51b8152602060048201526015602482015274596f75277265206e6f742074686520476176656c7360581b6044820152606401610aeb565b610cb3612cc1565b600082815260026020526040812061142d9083612d3c565b60009182526001602090815260408084206001600160a01b0393909316845291905290205460ff1690565b606060138054610a009061496f565b6000611522600080516020614aa1833981519152336114ce565b806115405750611540600080516020614a81833981519152336114ce565b8061155e575061155e600080516020614ae1833981519152336114ce565b61156757600080fd5b601154600160b01b810460ff9081161515600160a81b90920416151514600114806115a557506115a5600080516020614ae1833981519152336114ce565b6115e45760405162461bcd60e51b815260206004820152601060248201526f436f757274204d75737420416772656560801b6044820152606401610aeb565b8160451415611419576115f5612c1b565b506115fe612cc1565b50601f805460ff19166001908117909155919050565b61162c600080516020614ae1833981519152336114ce565b8061164a575061164a600080516020614aa1833981519152336114ce565b806116685750611668600080516020614a81833981519152336114ce565b6116845760405162461bcd60e51b8152600401610aeb9061482c565b61168e8282612d48565b5050565b61169c3383611f43565b6116b85760405162461bcd60e51b8152600401610aeb90614879565b6116c484848484612e0d565b50505050565b602360205260009081526040902080546001820180546001600160a01b0390921692916116f69061496f565b80601f01602080910402602001604051908101604052809291908181526020018280546117229061496f565b801561176f5780601f106117445761010080835404028352916020019161176f565b820191906000526020600020905b81548152906001019060200180831161175257829003601f168201915b5050505050905082565b6117833382611f43565b6117c15760405162461bcd60e51b815260206004820152600f60248201526e4e696365205472792c204275636b6f60881b6044820152606401610aeb565b610c8981612e40565b60606109eb82612e49565b60008181526002602052604081206109eb90612fab565b610ec18282612fb5565b6000611803848484612fef565b949350505050565b6020805461113f9061496f565b600080611833600080516020614ae1833981519152846114ce565b806118515750611851600080516020614aa1833981519152846114ce565b806118035750611803600080516020614a81833981519152846114ce565b610cb361305d565b6022805461113f9061496f565b61188e6001611a47565b506118a6600080516020614ae183398151915261287d565b506118be600080516020614aa183398151915261287d565b506118d6600080516020614a8183398151915261287d565b506118ee600080516020614ac183398151915261287d565b50611906600080516020614b0183398151915261287d565b50611911600061287d565b5061191a612ad8565b610caa6000611a47565b60008181526023602052604090206001018054606091906119449061496f565b80601f01602080910402602001604051908101604052809291908181526020018280546119709061496f565b80156112975780601f1061199257610100808354040283529160200191611297565b820191906000526020600020905b8154815290600101906020018083116119a05750939695505050505050565b61168e8282613194565b600061142d836001600160a01b0384166131ff565b60006001600160e01b0319821663780e9d6360e01b14806109eb57506109eb82613246565b6000908152601460205260409020546001600160a01b0316151590565b611a38600080516020614ae1833981519152336114ce565b1561168e5761168e8282613286565b6000805460ff168215158115151415611aa25760405162461bcd60e51b815260206004820152601960248201527f416c72656164792053657420746f20746861742076616c7565000000000000006044820152606401610aeb565b6000805484151560ff19909116811790915560ff16151581151514156110db5760405162461bcd60e51b815260206004820152600c60248201526b29b0b33a32bc9022b93937b960a11b6044820152606401610aeb565b60405163ca15c87360e01b8152600481018290526000908190309063ca15c8739060240160206040518083038186803b158015611b3557600080fd5b505afa158015611b49573d6000803e3d6000fd5b505050506040513d601f19601f82011682018060405250810190611b6d9190614639565b905060005b81811015611c6a57604051632404341f60e21b815260048101859052602481018290526000903090639010d07c9060440160206040518083038186803b158015611bbb57600080fd5b505afa158015611bcf573d6000803e3d6000fd5b505050506040513d601f19601f82011682018060405250810190611bf391906142f9565b60405163d547741f60e01b8152600481018790526001600160a01b0382166024820152909150309063d547741f90604401600060405180830381600087803b158015611c3e57600080fd5b505af1158015611c52573d6000803e3d6000fd5b50505050508080611c62906149aa565b915050611b72565b5060019392505050565b60115460405163ca15c87360e01b81526004810183905260009182916001600160a01b039091169063ca15c8739060240160206040518083038186803b158015611cbd57600080fd5b505afa158015611cd1573d6000803e3d6000fd5b505050506040513d601f19601f82011682018060405250810190611cf59190614639565b905060005b81811015611c6a57601154604051632404341f60e21b815260048101869052602481018390526000916001600160a01b031690639010d07c9060440160206040518083038186803b158015611d4e57600080fd5b505afa158015611d62573d6000803e3d6000fd5b505050506040513d601f19601f82011682018060405250810190611d8691906142f9565b604051632f2ff15d60e01b8152600481018790526001600160a01b03821660248201529091503090632f2ff15d90604401600060405180830381600087803b158015611dd157600080fd5b505af1158015611de5573d6000803e3d6000fd5b50505050508080611df5906149aa565b915050611cfa565b6000611e16600080516020614ae1833981519152611af9565b50611e2e600080516020614ae1833981519152611c74565b611e3757600080fd5b611e4e600080516020614aa1833981519152611af9565b50611e66600080516020614aa1833981519152611c74565b611e6f57600080fd5b611e86600080516020614a81833981519152611af9565b50611e9e600080516020614a81833981519152611c74565b611ea757600080fd5b611ebe600080516020614ac1833981519152611af9565b50611ed6600080516020614ac1833981519152611c74565b611edf57600080fd5b611ef6600080516020614b01833981519152611af9565b50611f0e600080516020614b01833981519152611c74565b611f1757600080fd5b611f216000611af9565b50611f2c6000611c74565b611f3557600080fd5b611f3d612ad8565b50600190565b6000611f4e82611a03565b611faf5760405162461bcd60e51b815260206004820152602c60248201527f4552433732313a206f70657261746f7220717565727920666f72206e6f6e657860448201526b34b9ba32b73a103a37b5b2b760a11b6064820152608401610aeb565b6000611fba836111c0565b90506118038185611818565b611fd03382611f43565b611fec5760405162461bcd60e51b8152600401610aeb90614879565b610c218383836132f4565b600082815260016020819052604082200154905460ff161561201d57610c218383613194565b612027813361349f565b610c218383613194565b601160009054906101000a90046001600160a01b03166001600160a01b031663dadf56ac6040518163ffffffff1660e01b815260040160206040518083038186803b15801561207f57600080fd5b505afa158015612093573d6000803e3d6000fd5b505050506040513d601f19601f820116820180604052508101906120b791906142f9565b600c80546001600160a01b0319166001600160a01b039283161790556011546040805163024bebe960e01b81529051919092169163024bebe9916004808301926020929190829003018186803b15801561211057600080fd5b505afa158015612124573d6000803e3d6000fd5b505050506040513d601f19601f8201168201806040525081019061214891906142f9565b600d80546001600160a01b0319166001600160a01b0392831617905560115460408051635b5c251f60e01b815290519190921691635b5c251f916004808301926020929190829003018186803b1580156121a157600080fd5b505afa1580156121b5573d6000803e3d6000fd5b505050506040513d601f19601f820116820180604052508101906121d991906142f9565b600e80546001600160a01b0319166001600160a01b0392831617905560115460408051637310bf1d60e11b81529051919092169163e6217e3a916004808301926020929190829003018186803b15801561223257600080fd5b505afa158015612246573d6000803e3d6000fd5b505050506040513d601f19601f8201168201806040525081019061226a91906142f9565b601080546001600160a01b0319166001600160a01b039283161790556011546040805163d88127a160e01b81529051919092169163d88127a1916004808301926020929190829003018186803b1580156122c357600080fd5b505afa1580156122d7573d6000803e3d6000fd5b505050506040513d601f19601f820116820180604052508101906122fb91906142f9565b600b80546001600160a01b0319166001600160a01b0392909216919091179055565b601160009054906101000a90046001600160a01b03166001600160a01b03166321d7f0086040518163ffffffff1660e01b815260040160206040518083038186803b15801561236b57600080fd5b505afa15801561237f573d6000803e3d6000fd5b505050506040513d601f19601f820116820180604052508101906123a391906142f9565b600480546001600160a01b0319166001600160a01b039283161781556011546040805163762ddb5960e01b81529051919093169263762ddb599281810192602092909190829003018186803b1580156123fb57600080fd5b505afa15801561240f573d6000803e3d6000fd5b505050506040513d601f19601f8201168201806040525081019061243391906142f9565b600580546001600160a01b0319166001600160a01b039283161790556011546040805163bfb7dc9960e01b81529051919092169163bfb7dc99916004808301926020929190829003018186803b15801561248c57600080fd5b505afa1580156124a0573d6000803e3d6000fd5b505050506040513d601f19601f820116820180604052508101906124c491906142f9565b600680546001600160a01b0319166001600160a01b0392831617905560115460408051633e6111eb60e21b81529051919092169163f98447ac916004808301926020929190829003018186803b15801561251d57600080fd5b505afa158015612531573d6000803e3d6000fd5b505050506040513d601f19601f8201168201806040525081019061255591906142f9565b600780546001600160a01b0319166001600160a01b0392831617905560115460408051630fe1ba9f60e21b815290519190921691633f86ea7c916004808301926020929190829003018186803b1580156125ae57600080fd5b505afa1580156125c2573d6000803e3d6000fd5b505050506040513d601f19601f820116820180604052508101906125e691906142f9565b600880546001600160a01b0319166001600160a01b0392831617905560115460408051632b90024160e11b8152905191909216916357200482916004808301926020929190829003018186803b15801561263f57600080fd5b505afa158015612653573d6000803e3d6000fd5b505050506040513d601f19601f8201168201806040525081019061267791906142f9565b600980546001600160a01b0319166001600160a01b0392831617905560115460408051636b58477560e01b815290519190921691636b584775916004808301926020929190829003018186803b1580156126d057600080fd5b505afa1580156126e4573d6000803e3d6000fd5b505050506040513d601f19601f8201168201806040525081019061270891906142f9565b600a80546001600160a01b0319166001600160a01b0392909216919091179055565b6001600160a01b038116331461279a5760405162461bcd60e51b815260206004820152602f60248201527f416363657373436f6e74726f6c3a2063616e206f6e6c792072656e6f756e636560448201526e103937b632b9903337b91039b2b63360891b6064820152608401610aeb565b61168e8282613503565b600061142d836001600160a01b03841661356a565b60185460ff166128025760405162461bcd60e51b815260206004820152601460248201527314185d5cd8589b194e881b9bdd081c185d5cd95960621b6044820152606401610aeb565b6018805460ff191690557f5db9ee0a495bf2e6ff9c91a7834c1ba4fdd244a5e8aa4e537bd38aeae4b073aa335b6040516001600160a01b03909116815260200160405180910390a1565b610c2183838360405180602001604052806000815250611692565b80516000906110db906022906020850190614177565b60115460405163ca15c87360e01b81526004810183905260009182916001600160a01b039091169063ca15c8739060240160206040518083038186803b1580156128c657600080fd5b505afa1580156128da573d6000803e3d6000fd5b505050506040513d601f19601f820116820180604052508101906128fe9190614639565b60405163ca15c87360e01b815260048101859052909150600090309063ca15c8739060240160206040518083038186803b15801561293b57600080fd5b505afa15801561294f573d6000803e3d6000fd5b505050506040513d601f19601f820116820180604052508101906129739190614639565b905060006129818284614915565b9050600081116129c65760405162461bcd60e51b815260206004820152601060248201526f4e6f7468696e6720746f2073796e632160801b6044820152606401610aeb565b60005b81811015612acc57601154604051632404341f60e21b815260048101889052602481018390526000916001600160a01b031690639010d07c9060440160206040518083038186803b158015612a1d57600080fd5b505afa158015612a31573d6000803e3d6000fd5b505050506040513d601f19601f82011682018060405250810190612a5591906142f9565b604051632f2ff15d60e01b8152600481018990526001600160a01b03821660248201529091503090632f2ff15d90604401600060405180830381600087803b158015612aa057600080fd5b505af1158015612ab4573d6000803e3d6000fd5b50505050508080612ac4906149aa565b9150506129c9565b50600195945050505050565b601160009054906101000a90046001600160a01b03166001600160a01b031663ff7e88ec6040518163ffffffff1660e01b815260040160206040518083038186803b158015612b2657600080fd5b505afa158015612b3a573d6000803e3d6000fd5b505050506040513d601f19601f82011682018060405250810190612b5e919061454d565b601160156101000a81548160ff021916908315150217905550601160009054906101000a90046001600160a01b03166001600160a01b0316632fb565856040518163ffffffff1660e01b815260040160206040518083038186803b158015612bc557600080fd5b505afa158015612bd9573d6000803e3d6000fd5b505050506040513d601f19601f82011682018060405250810190612bfd919061454d565b60118054911515600160b01b0260ff60b01b19909216919091179055565b6000805b601e54811015612c5257612c3281611a03565b15612c4057612c4081612e40565b80612c4a816149aa565b915050612c1f565b50506000601e55600190565b60006001600160a01b0383163314801590612c8157506001600160a01b03831615155b612c8a57600080fd5b50601e54612c99338383613657565b612ca383826136c6565b6001601e6000828254612cb691906148ca565b909155505092915050565b60185460ff1615612d075760405162461bcd60e51b815260206004820152601060248201526f14185d5cd8589b194e881c185d5cd95960821b6044820152606401610aeb565b6018805460ff191660011790557f62e78cea01bee320cd4e420270b5ea74000d11b0c9f74754ebdbfc544b05a25861282f3390565b600061142d83836136e0565b6001600160a01b038216331415612da15760405162461bcd60e51b815260206004820152601960248201527f4552433732313a20617070726f766520746f2063616c6c6572000000000000006044820152606401610aeb565b3360008181526017602090815260408083206001600160a01b03871680855290835292819020805460ff191686151590811790915590519081529192917f17307eab39ab6107e8899845ad3d59bd9653f200f220920489ca2b5937696c31910160405180910390a35050565b612e188484846132f4565b612e2484848484613766565b6116c45760405162461bcd60e51b8152600401610aeb906147da565b610c8981613873565b6060612e5482611a03565b612eba5760405162461bcd60e51b815260206004820152603160248201527f45524337323155524953746f726167653a2055524920717565727920666f72206044820152703737b732bc34b9ba32b73a103a37b5b2b760791b6064820152608401610aeb565b60008281526019602052604081208054612ed39061496f565b80601f0160208091040260200160405190810160405280929190818152602001828054612eff9061496f565b8015612f4c5780601f10612f2157610100808354040283529160200191612f4c565b820191906000526020600020905b815481529060010190602001808311612f2f57829003601f168201915b505050505090506000612f5d6138b3565b9050805160001415612f70575092915050565b815115612fa2578082604051602001612f8a92919061467e565b60405160208183030381529060405292505050919050565b611803846138c2565b60006109eb825490565b600082815260016020819052604082200154905460ff1615612fdb57610c218383613503565b612fe5813361349f565b610c218383613503565b60006001600160a01b038416331480159061301257506001600160a01b03841615155b61301b57600080fd5b50601e5461302a338483613657565b61303484826136c6565b61303e818361398c565b6001601e600082825461305191906148ca565b90915550509392505050565b601160009054906101000a90046001600160a01b03166001600160a01b031663a44b93256040518163ffffffff1660e01b815260040160206040518083038186803b1580156130ab57600080fd5b505afa1580156130bf573d6000803e3d6000fd5b505050506040513d601f19601f820116820180604052508101906130e3919061454d565b6130ec57600080fd5b601160009054906101000a90046001600160a01b03166001600160a01b031663ac7cfac36040518163ffffffff1660e01b815260040160206040518083038186803b15801561313a57600080fd5b505afa15801561314e573d6000803e3d6000fd5b505050506040513d601f19601f8201168201806040525081019061317291906142f9565b600380546001600160a01b0319166001600160a01b0392909216919091179055565b61319e82826114ce565b61168e5760008281526001602081815260408084206001600160a01b0386168086529252808420805460ff19169093179092559051339285917f2f8788117e7eff1d82e926ec794901d17c78024a50270940304540a733656f0d9190a45050565b6000818152600183016020526040812054611122575081546001818101845560008481526020808220909301849055845484825282860190935260409020919091556109eb565b60006001600160e01b031982166380ac58cd60e01b148061327757506001600160e01b03198216635b5e139f60e01b145b806109eb57506109eb82613a17565b600081815260166020526040902080546001600160a01b0319166001600160a01b03841690811790915581906132bb826111c0565b6001600160a01b03167f8c5be1e5ebec7d5bd14f71427d1e84f3dd0314c0f7b2291e5b200ac8c7c3b92560405160405180910390a45050565b826001600160a01b0316613307826111c0565b6001600160a01b03161461336f5760405162461bcd60e51b815260206004820152602960248201527f4552433732313a207472616e73666572206f6620746f6b656e2074686174206960448201526839903737ba1037bbb760b91b6064820152608401610aeb565b6001600160a01b0382166133d15760405162461bcd60e51b8152602060048201526024808201527f4552433732313a207472616e7366657220746f20746865207a65726f206164646044820152637265737360e01b6064820152608401610aeb565b6133dc838383613a3c565b6133e7600082611a20565b6001600160a01b0383166000908152601560205260408120805460019290613410908490614915565b90915550506001600160a01b038216600090815260156020526040812080546001929061343e9084906148ca565b909155505060008181526014602052604080822080546001600160a01b0319166001600160a01b0386811691821790925591518493918716917fddf252ad1be2c89b69c2b068fc378daa952ba7f163c4a11628f55a4df523b3ef91a4505050565b6134a982826114ce565b61168e576134c1816001600160a01b03166014613a47565b6134cc836020613a47565b6040516020016134dd9291906146ad565b60408051601f198184030181529082905262461bcd60e51b8252610aeb916004016147c7565b61350d82826114ce565b1561168e5760008281526001602090815260408083206001600160a01b0385168085529252808320805460ff1916905551339285917ff6391f5c32d9c69d2a47ea670b442974b53935d1edc7fd64eb21e047a839171b9190a45050565b6000818152600183016020526040812054801561364d57600061358e600183614915565b85549091506000906135a290600190614915565b905060008660000182815481106135bb576135bb614a1b565b90600052602060002001549050808760000184815481106135de576135de614a1b565b60009182526020808320909101929092558281526001890190915260409020849055865487908061361157613611614a05565b600190038181906000526020600020016000905590558660010160008781526020019081526020016000206000905560019450505050506109eb565b60009150506109eb565b600081815260236020908152604090912080546001600160a01b0319166001600160a01b038616178155835161369592600190920191850190614177565b506001600160a01b039092166000908152602460209081526040822080546001810182559083529120019190915550565b61168e828260405180602001604052806000815250613be3565b8154600090821061373e5760405162461bcd60e51b815260206004820152602260248201527f456e756d657261626c655365743a20696e646578206f7574206f6620626f756e604482015261647360f01b6064820152608401610aeb565b82600001828154811061375357613753614a1b565b9060005260206000200154905092915050565b60006001600160a01b0384163b1561386857604051630a85bd0160e11b81526001600160a01b0385169063150b7a02906137aa903390899088908890600401614722565b602060405180830381600087803b1580156137c457600080fd5b505af19250505080156137f4575060408051601f3d908101601f191682019092526137f1918101906145e7565b60015b61384e573d808015613822576040519150601f19603f3d011682016040523d82523d6000602084013e613827565b606091505b5080516138465760405162461bcd60e51b8152600401610aeb906147da565b805181602001fd5b6001600160e01b031916630a85bd0160e11b149050611803565b506001949350505050565b61387c81613c16565b600081815260196020526040902080546138959061496f565b159050610c89576000818152601960205260408120610c89916141fb565b606060228054610a009061496f565b60606138cd82611a03565b6139315760405162461bcd60e51b815260206004820152602f60248201527f4552433732314d657461646174613a2055524920717565727920666f72206e6f60448201526e3732bc34b9ba32b73a103a37b5b2b760891b6064820152608401610aeb565b600061393b6138b3565b9050600081511161395b576040518060200160405280600081525061142d565b8061396584613cbd565b60405160200161397692919061467e565b6040516020818303038152906040529392505050565b61399582611a03565b6139f85760405162461bcd60e51b815260206004820152602e60248201527f45524337323155524953746f726167653a2055524920736574206f66206e6f6e60448201526d32bc34b9ba32b73a103a37b5b2b760911b6064820152608401610aeb565b60008281526019602090815260409091208251610c2192840190614177565b60006001600160e01b03198216635a05180f60e01b14806109eb57506109eb82613dbb565b610c21838383613df0565b60606000613a568360026148f6565b613a619060026148ca565b67ffffffffffffffff811115613a7957613a79614a31565b6040519080825280601f01601f191660200182016040528015613aa3576020820181803683370190505b509050600360fc1b81600081518110613abe57613abe614a1b565b60200101906001600160f81b031916908160001a905350600f60fb1b81600181518110613aed57613aed614a1b565b60200101906001600160f81b031916908160001a9053506000613b118460026148f6565b613b1c9060016148ca565b90505b6001811115613b94576f181899199a1a9b1b9c1cb0b131b232b360811b85600f1660108110613b5057613b50614a1b565b1a60f81b828281518110613b6657613b66614a1b565b60200101906001600160f81b031916908160001a90535060049490941c93613b8d81614958565b9050613b1f565b50831561142d5760405162461bcd60e51b815260206004820181905260248201527f537472696e67733a20686578206c656e67746820696e73756666696369656e746044820152606401610aeb565b613bed8383613ea8565b613bfa6000848484613766565b610c215760405162461bcd60e51b8152600401610aeb906147da565b6000613c21826111c0565b9050613c2f81600084613a3c565b613c3a600083611a20565b6001600160a01b0381166000908152601560205260408120805460019290613c63908490614915565b909155505060008281526014602052604080822080546001600160a01b0319169055518391906001600160a01b038416907fddf252ad1be2c89b69c2b068fc378daa952ba7f163c4a11628f55a4df523b3ef908390a45050565b606081613ce15750506040805180820190915260018152600360fc1b602082015290565b8160005b8115613d0b5780613cf5816149aa565b9150613d049050600a836148e2565b9150613ce5565b60008167ffffffffffffffff811115613d2657613d26614a31565b6040519080825280601f01601f191660200182016040528015613d50576020820181803683370190505b5090505b841561180357613d65600183614915565b9150613d72600a866149c5565b613d7d9060306148ca565b60f81b818381518110613d9257613d92614a1b565b60200101906001600160f81b031916908160001a905350613db4600a866148e2565b9450613d54565b60006001600160e01b03198216637965db0b60e01b14806109eb57506301ffc9a760e01b6001600160e01b03198316146109eb565b6001600160a01b038316613e4b57613e4681601c80546000838152601d60205260408120829055600182018355919091527f0e4562a10381dec21b205ed72637e6b1b523bdd0e4d4d50af5cd23dd4500a2110155565b613e6e565b816001600160a01b0316836001600160a01b031614613e6e57613e6e8382613fe7565b6001600160a01b038216613e8557610c2181614084565b826001600160a01b0316826001600160a01b031614610c2157610c218282614133565b6001600160a01b038216613efe5760405162461bcd60e51b815260206004820181905260248201527f4552433732313a206d696e7420746f20746865207a65726f20616464726573736044820152606401610aeb565b613f0781611a03565b15613f545760405162461bcd60e51b815260206004820152601c60248201527f4552433732313a20746f6b656e20616c7265616479206d696e746564000000006044820152606401610aeb565b613f6060008383613a3c565b6001600160a01b0382166000908152601560205260408120805460019290613f899084906148ca565b909155505060008181526014602052604080822080546001600160a01b0319166001600160a01b03861690811790915590518392907fddf252ad1be2c89b69c2b068fc378daa952ba7f163c4a11628f55a4df523b3ef908290a45050565b60006001613ff4846112a3565b613ffe9190614915565b6000838152601b6020526040902054909150808214614051576001600160a01b0384166000908152601a602090815260408083208584528252808320548484528184208190558352601b90915290208190555b506000918252601b602090815260408084208490556001600160a01b039094168352601a81528383209183525290812055565b601c5460009061409690600190614915565b6000838152601d6020526040812054601c80549394509092849081106140be576140be614a1b565b9060005260206000200154905080601c83815481106140df576140df614a1b565b6000918252602080832090910192909255828152601d9091526040808220849055858252812055601c80548061411757614117614a05565b6001900381819060005260206000200160009055905550505050565b600061413e836112a3565b6001600160a01b039093166000908152601a602090815260408083208684528252808320859055938252601b9052919091209190915550565b8280546141839061496f565b90600052602060002090601f0160209004810192826141a557600085556141eb565b82601f106141be57805160ff19168380011785556141eb565b828001600101855582156141eb579182015b828111156141eb5782518255916020019190600101906141d0565b506141f7929150614231565b5090565b5080546142079061496f565b6000825580601f10614217575050565b601f016020900490600052602060002090810190610c8991905b5b808211156141f75760008155600101614232565b600067ffffffffffffffff8084111561426157614261614a31565b604051601f8501601f19908116603f0116810190828211818310171561428957614289614a31565b816040528093508581528686860111156142a257600080fd5b858560208301376000602087830101525050509392505050565b600082601f8301126142cd57600080fd5b61142d83833560208501614246565b6000602082840312156142ee57600080fd5b813561142d81614a47565b60006020828403121561430b57600080fd5b815161142d81614a47565b6000806040838503121561432957600080fd5b823561433481614a47565b9150602083013561434481614a47565b809150509250929050565b60008060006060848603121561436457600080fd5b833561436f81614a47565b9250602084013561437f81614a47565b929592945050506040919091013590565b600080600080608085870312156143a657600080fd5b84356143b181614a47565b935060208501356143c181614a47565b925060408501359150606085013567ffffffffffffffff8111156143e457600080fd5b8501601f810187136143f557600080fd5b61440487823560208401614246565b91505092959194509250565b6000806040838503121561442357600080fd5b823561442e81614a47565b9150602083013561434481614a5c565b6000806040838503121561445157600080fd5b823561445c81614a47565b9150602083013567ffffffffffffffff81111561447857600080fd5b614484858286016142bc565b9150509250929050565b6000806000606084860312156144a357600080fd5b83356144ae81614a47565b9250602084013567ffffffffffffffff808211156144cb57600080fd5b6144d7878388016142bc565b935060408601359150808211156144ed57600080fd5b506144fa868287016142bc565b9150509250925092565b6000806040838503121561451757600080fd5b823561452281614a47565b946020939093013593505050565b60006020828403121561454257600080fd5b813561142d81614a5c565b60006020828403121561455f57600080fd5b815161142d81614a5c565b60006020828403121561457c57600080fd5b5035919050565b6000806040838503121561459657600080fd5b82359150602083013561434481614a47565b600080604083850312156145bb57600080fd5b50508035926020909101359150565b6000602082840312156145dc57600080fd5b813561142d81614a6a565b6000602082840312156145f957600080fd5b815161142d81614a6a565b60006020828403121561461657600080fd5b813567ffffffffffffffff81111561462d57600080fd5b611803848285016142bc565b60006020828403121561464b57600080fd5b5051919050565b6000815180845261466a81602086016020860161492c565b601f01601f19169290920160200192915050565b6000835161469081846020880161492c565b8351908301906146a481836020880161492c565b01949350505050565b7f416363657373436f6e74726f6c3a206163636f756e74200000000000000000008152600083516146e581601785016020880161492c565b7001034b99036b4b9b9b4b733903937b6329607d1b601791840191820152835161471681602884016020880161492c565b01602801949350505050565b6001600160a01b038581168252841660208201526040810183905260806060820181905260009061475590830184614652565b9695505050505050565b6001600160a01b038316815260406020820181905260009061180390830184614652565b6020808252825182820181905260009190848201906040850190845b818110156147bb5783518352928401929184019160010161479f565b50909695505050505050565b60208152600061142d6020830184614652565b60208082526032908201527f4552433732313a207472616e7366657220746f206e6f6e20455243373231526560408201527131b2b4bb32b91034b6b83632b6b2b73a32b960711b606082015260800190565b6020808252602d908201527f596f7520646f206e6f742068617665207065726d697373696f6e20746f206d6f60408201526c7665207468697320626164676560981b606082015260800190565b60208082526031908201527f4552433732313a207472616e736665722063616c6c6572206973206e6f74206f6040820152701ddb995c881b9bdc88185c1c1c9bdd9959607a1b606082015260800190565b600082198211156148dd576148dd6149d9565b500190565b6000826148f1576148f16149ef565b500490565b6000816000190483118215151615614910576149106149d9565b500290565b600082821015614927576149276149d9565b500390565b60005b8381101561494757818101518382015260200161492f565b838111156116c45750506000910152565b600081614967576149676149d9565b506000190190565b600181811c9082168061498357607f821691505b602082108114156149a457634e487b7160e01b600052602260045260246000fd5b50919050565b60006000198214156149be576149be6149d9565b5060010190565b6000826149d4576149d46149ef565b500690565b634e487b7160e01b600052601160045260246000fd5b634e487b7160e01b600052601260045260246000fd5b634e487b7160e01b600052603160045260246000fd5b634e487b7160e01b600052603260045260246000fd5b634e487b7160e01b600052604160045260246000fd5b6001600160a01b0381168114610c8957600080fd5b8015158114610c8957600080fd5b6001600160e01b031981168114610c8957600080fdfefa8e4989e1d689f7bc5c4b25b87efb51fecdecb19ba62847e29c759e12a89acd048bc71fa1cb2c119c339cf9cf00a97996a19a9d991ce5fe049f2fa5459e7990f0f4b159a6e2a4815eb3ca3df080bfa70c9270662c59bcaa4479a456220183e60538d24a8b7882d7b2e36af243d4af61c23e86e3daa6cb8c887b53220b2f57207c9d7f6f02908185bffb3f7fc9afb29fd7bf93675af8fd4b655ee05c2cee1e0ea26469706673582212200814c413277ae43db6d4d6acb4f10ec1d7ae8c066af37bcb605b074d758d889164736f6c63430008070033",
  "immutableReferences": {},
  "source": "pragma solidity ^0.8.0;\n\nimport \"../SmartConsensusMachine.sol\";\nimport \"../AddressManagerReciever.sol\";\n\nimport \"@openzeppelin/contracts/token/ERC20/ERC20.sol\";\nimport \"@openzeppelin/contracts/token/ERC721/extensions/ERC721Enumerable.sol\";\nimport \"@openzeppelin/contracts/token/ERC721/extensions/ERC721URIStorage.sol\";\nimport \"@openzeppelin/contracts/token/ERC721/ERC721.sol\";\nimport \"@openzeppelin/contracts/security/Pausable.sol\";\n\ncontract GenericBadge is SmartConsensusMachine, ERC721, Pausable, ERC721URIStorage, ERC721Enumerable {\n    \n    uint256 private _tokenIdGenerator = 0;\n    bool public isForeverLocked = false;\n\n    string public badgeColor;\n    string public badgeName;\n\n    string public baseURI_ = string(abi.encodePacked(\"ipfs\", \":\", \"/\", \"/\"));\n\n\n    constructor(string memory _badgeName, string memory _badgeSymbol, address _AddressManagerAddress)\n        ERC721(_badgeName, _badgeSymbol)\n        SmartConsensusMachine(_AddressManagerAddress){\n       \n       // updateAllAddresses();\n        badgeColor = _badgeSymbol;\n        badgeName = _badgeName;\n\n        \n    }      \n\n    \n    //******************************\n    //                            **\n    //     Setup mapping          ** \n    //                            **\n    //******************************\n    struct Badge { // struct will store the gifter address and reason for the gold stars\n        address gifter;\n        string reason;\n    }\n\n    mapping (uint => Badge) public BadgeInfo; // mapping of badge ID to badge struct(reason/gifter address)\n\n    mapping (address => uint[]) public BadgesSent; // mapping of address to tokenIDs sent\n\n    function nextTokenId() public view returns (uint _nextTokenId){\n        _nextTokenId = _tokenIdGenerator;\n    }\n\n    function setBadgeInfo(address _gifter, string memory _reason, uint _tokenId) internal {\n        BadgeInfo[_tokenId].gifter = _gifter; // assigns this goldstar gifter address to msg.sender\n        BadgeInfo[_tokenId].reason = _reason; // assigns the reason for this goldstar\n        BadgesSent[_gifter].push(_tokenId); // pushes tokenID to the addresses array of tokens\n    }\n\n    function getBadgeReason(uint _tokenId) public view returns (string memory _theReason) {\n        _theReason = BadgeInfo[_tokenId].reason; \n\n        return (_theReason);\n    }\n\n    function getBadgeSender(uint _tokenId) public view returns (address _theGifter) {\n        _theGifter = BadgeInfo[_tokenId].gifter; \n\n        return (_theGifter);\n    }\n\n\n    function getBadgesSent (address _gifter) public view returns (uint[] memory _BadgesSent) {\n       _BadgesSent = BadgesSent[_gifter];\n       return _BadgesSent; // returns array of tokenIDs sent by address\n    }\n\n\n    function isBadgeSender(address addressToCheck, uint badgeTokenID) public view returns (bool){\n\n        if (addressToCheck == (BadgeInfo[badgeTokenID].gifter)) {\n            return true;\n        } else { return false;}\n\n    }\n    \n\n\n    /////////////////////////////////////////////////////////////////////////////////////////////////\n    /////////////////////////////////////////////////////////////////////////////////////////////////\n    /// @dev                                                                                     ////\n    /// Issuance Desk                                                                            ////\n    /////////////////////////////////////////////////////////////////////////////////////////////////\n    /////////////////////////////////////////////////////////////////////////////////////////////////\n\n\n    function issueBadge(address receivingAddress, string memory _reason) public virtual\n        returns(uint newId) { // Right now function also increments and returns tokenId, this will be removed.\n        newId = _issueBadge(receivingAddress, _reason);\n        return newId;\n       \n     }\n\n    function issueBadge(address receivingAddress, string memory _reason,  string memory _tokenURI) public virtual\n        returns(uint newId) { // Right now function also increments and returns tokenId, this will be removed.\n        newId = _issueBadge(receivingAddress, _reason, _tokenURI);\n        return newId;\n       \n    }\n\n    function _issueBadge(address receivingAddress, string memory _reason) internal virtual\n        returns(uint newId) { // Right now function also increments and returns tokenId, this will be removed.\n        require((receivingAddress != msg.sender) && (receivingAddress != address(0)));\n        newId = _tokenIdGenerator;\n        setBadgeInfo(msg.sender, _reason, newId);\n        _safeMint(receivingAddress, newId);\n        _tokenIdGenerator += 1;\n        return newId;\n       \n    }\n\n    function _issueBadge(address receivingAddress, string memory _reason, string memory _tokenURI) internal virtual\n        returns(uint newId) { // Right now function also increments and returns tokenId, this will be removed.\n        require((receivingAddress != msg.sender) && (receivingAddress != address(0)));\n        newId = _tokenIdGenerator;\n        setBadgeInfo(msg.sender, _reason, newId);\n        _safeMint(receivingAddress, newId);\n        _setTokenURI(newId, _tokenURI);\n        _tokenIdGenerator += 1;\n        return newId;\n       \n    }\n\n    function revokeBadge(uint tokenId) public {\n        require(_isApprovedOrOwner(msg.sender, tokenId),\n                    \"Nice Try, Bucko\") ;\n        _burn(tokenId);\n    }\n\n   \n\n    /////////////////////////////////////////////////////////////////////////////////////////////////\n    /////////////////////////////////////////////////////////////////////////////////////////////////\n    /// @dev                                                                                     ////\n    /// Internal Checks                                                                     ////\n    /////////////////////////////////////////////////////////////////////////////////////////////////\n    /////////////////////////////////////////////////////////////////////////////////////////////////\n\n    /////////////////////////////////////////////////////////////////////////////////////////////////\n    /////////////////////////////////////////////////////////////////////////////////////////////////\n    /// @dev                                                                                     ////\n    /// Maintanence\\\\\\\\\\\\\\\\\\\\\\\\\\\\\\\\\\\\\\\\\\\\\\\\\\\\\\                                                   ////\n    /////////////////////////////////////////////////////////////////////////////////////////////////\n    /////////////////////////////////////////////////////////////////////////////////////////////////\n    // Pause the contract if neccesary. Only the Gavels can do this.\n    function pause() public GAVELS {\n        _pause();\n    }\n\n    function unpause() public GAVELS {\n        require(isForeverLocked == false);\n        _unpause();\n    }\n\n\n    function _burnAllBadges() internal returns (bool) {\n        // burn all badges\n        uint256 index = 0;\n        for (index = 0; index < _tokenIdGenerator; index++) {\n            if (_exists(index)) {\n                _burn(index);\n            }   \n        }\n        _tokenIdGenerator = 0;\n        return true;\n    }\n\n    function refreshBadges(bool thisIsNotReversible) public THE_COURT returns (bool) {\n\n        if(thisIsNotReversible == true) {\n            // burn all badges\n            _burnAllBadges();\n            return true;\n        } else {return false;}\n    }\n\n\n    function destroyAndLockContract(uint valueMustBe69) public THE_COURT returns (bool) {\n\n        if(valueMustBe69 == 69) {\n            // burn all badges\n            _burnAllBadges();\n            // set protocol to locked\n            _pause();\n            isForeverLocked = true;\n            return isForeverLocked;\n        } else {return false;}\n    }\n\n    function _burn(uint256 _tokenId) internal virtual override (ERC721, ERC721URIStorage){\n        ERC721URIStorage._burn(_tokenId);\n    }\n\n    function setBaseURI(string memory _baseURIString) public BAILIFF returns (bool) {\n        _setBaseURI(_baseURIString);\n        return true;\n    }\n\n    function _setBaseURI(string memory _baseURIString) internal returns (bool) {\n        baseURI_ = _baseURIString;\n        return true;\n    }\n\n    function _baseURI() internal view virtual override returns (string memory) {\n        return baseURI_;\n    }\n\n    function tokenURI(uint256 _tokenId) public view virtual override(ERC721, ERC721URIStorage) returns (string memory _URI) {\n        _URI = ERC721URIStorage.tokenURI(_tokenId);\n    }\n\n    /////////////////////////////////////////////////////////////////////////////////////////////////\n    /////////////////////////////////////////////////////////////////////////////////////////////////\n    /// @dev                                                                                     ////\n    /// Transfer rules                                                                           ////\n    /////////////////////////////////////////////////////////////////////////////////////////////////\n    /////////////////////////////////////////////////////////////////////////////////////////////////\n    \n    function _isApprovedOrOwner(address spender, uint256 tokenId)\n        internal view virtual\n        override(ERC721)\n        returns (bool)\n    {\n        require(_exists(tokenId), \"ERC721: operator query for nonexistent token\");\n        address owner = ownerOf(tokenId);\n        return (isApprovedForAll(owner, spender));\n    }\n\n    \n    function _approve(address to, uint256 tokenId)\n    internal virtual\n    override (ERC721)\n    {\n        if (hasRole(THE_COURT_ROLE, msg.sender)) {\n            super._approve(to, tokenId);\n        }\n        \n    }\n\n    function isApprovedForAll(address owner, address operator)\n    public view virtual\n    override (ERC721)\n    returns (bool) {\n\n        bool isApproved = ( hasRole(THE_COURT_ROLE, operator)\n                            || hasRole(GAVELS_BAILIFF, operator)\n                            || hasRole(JURY_BAILIFF, operator));\n        return isApproved;\n    }\n\n\n    function setApprovalForAll(address operator, bool approved)\n    public virtual\n    override (ERC721) {\n        \n         require(   hasRole(THE_COURT_ROLE, msg.sender)\n                    || hasRole(GAVELS_BAILIFF, msg.sender)\n                    || hasRole(JURY_BAILIFF, msg.sender),\n                    \"You do not have permission to move this badge\");\n        super.setApprovalForAll(operator, approved);\n    }\n\n    function _beforeTokenTransfer(address from, address to, uint256 tokenId)\n        internal\n        override(ERC721, ERC721Enumerable)\n    {\n\n        super._beforeTokenTransfer(from, to, tokenId);\n    }\n\n    function supportsInterface(bytes4 interfaceId)\n        public\n        view\n        override(ERC721, ERC721Enumerable, AccessControlEnumerable)\n        returns (bool)\n    {\n        return super.supportsInterface(interfaceId);\n    }\n\n    //transfer functions from erc721 - need to override\n    function transferFrom(\n        address from,\n        address to,\n        uint256 tokenId\n    ) public virtual override {\n\n        require(_isApprovedOrOwner(msg.sender, tokenId),\n                    \"You do not have permission to move this badge\");\n        \n        super.transferFrom(from, to, tokenId);\n        // revert(\"You're not authorized to use this function\"); // makes function revert back/fail\n    }\n\n    function safeTransferFrom(\n        address from,\n        address to,\n        uint256 tokenId\n    ) public virtual override {\n         require(_isApprovedOrOwner(msg.sender, tokenId),\n                    \"You do not have permission to move this badge\");\n        super.safeTransferFrom(from, to, tokenId);\n    }\n\n\n    /////////////////////////////////////////////////////////////////////////////////////////////////\n    /////////////////////////////////////////////////////////////////////////////////////////////////\n    /// @dev                                                                                     ////\n    /// End                                                                                      ////\n    /////////////////////////////////////////////////////////////////////////////////////////////////\n    /////////////////////////////////////////////////////////////////////////////////////////////////\n}",
  "sourcePath": "/home/n/Desktop/PinkSlips_FrontEnd_REFORMAT/contracts/src/ERC721/GenericBadge.sol",
  "compiler": {
    "name": "solc",
    "version": "0.8.7+commit.e28d00a7.Emscripten.clang"
  },
  "schemaVersion": "3.4.1",
  "updatedAt": "2021-08-12T06:23:42.092Z",
  "devdoc": {
    "kind": "dev",
    "methods": {
      "approve(address,uint256)": {
        "details": "See {IERC721-approve}."
      },
      "balanceOf(address)": {
        "details": "See {IERC721-balanceOf}."
      },
      "getApproved(uint256)": {
        "details": "See {IERC721-getApproved}."
      },
      "getRoleAdmin(bytes32)": {
        "details": "Returns the admin role that controls `role`. See {grantRole} and {revokeRole}. To change a role's admin, use {_setRoleAdmin}."
      },
      "getRoleMember(bytes32,uint256)": {
        "details": "Returns one of the accounts that have `role`. `index` must be a value between 0 and {getRoleMemberCount}, non-inclusive. Role bearers are not sorted in any particular way, and their ordering may change at any point. WARNING: When using {getRoleMember} and {getRoleMemberCount}, make sure you perform all queries on the same block. See the following https://forum.openzeppelin.com/t/iterating-over-elements-on-enumerableset-in-openzeppelin-contracts/2296[forum post] for more information."
      },
      "getRoleMemberCount(bytes32)": {
        "details": "Returns the number of accounts that have `role`. Can be used together with {getRoleMember} to enumerate all bearers of a role."
      },
      "grantRole(bytes32,address)": {
        "details": "Overload {grantRole} to track enumerable memberships"
      },
      "hasRole(bytes32,address)": {
        "details": "Returns `true` if `account` has been granted `role`."
      },
      "isApprovedForAll(address,address)": {
        "details": "See {IERC721-isApprovedForAll}."
      },
      "issueBadge(address,string)": {
        "details": "//// Issuance Desk                                                                            ////"
      },
      "name()": {
        "details": "See {IERC721Metadata-name}."
      },
      "ownerOf(uint256)": {
        "details": "See {IERC721-ownerOf}."
      },
      "pause()": {
        "details": "//// Maintanence\\\\\\\\\\\\\\\\\\\\\\\\\\\\\\\\\\\\\\\\\\\\\\\\\\\\\\                                                   ////"
      },
      "paused()": {
        "details": "Returns true if the contract is paused, and false otherwise."
      },
      "renounceRole(bytes32,address)": {
        "details": "Overload {renounceRole} to track enumerable memberships"
      },
      "revokeRole(bytes32,address)": {
        "details": "Overload {revokeRole} to track enumerable memberships"
      },
      "safeTransferFrom(address,address,uint256)": {
        "details": "See {IERC721-safeTransferFrom}."
      },
      "safeTransferFrom(address,address,uint256,bytes)": {
        "details": "See {IERC721-safeTransferFrom}."
      },
      "setApprovalForAll(address,bool)": {
        "details": "See {IERC721-setApprovalForAll}."
      },
      "symbol()": {
        "details": "See {IERC721Metadata-symbol}."
      },
      "tokenByIndex(uint256)": {
        "details": "See {IERC721Enumerable-tokenByIndex}."
      },
      "tokenOfOwnerByIndex(address,uint256)": {
        "details": "See {IERC721Enumerable-tokenOfOwnerByIndex}."
      },
      "totalSupply()": {
        "details": "See {IERC721Enumerable-totalSupply}."
      },
      "transferFrom(address,address,uint256)": {
        "details": "See {IERC721-transferFrom}."
      }
    },
    "version": 1
  },
  "userdoc": {
    "kind": "user",
    "methods": {},
    "version": 1
  }
}