{
  "contractName": "GoldStars",
  "abi": [
    {
      "inputs": [
        {
          "internalType": "address",
          "name": "_AddressManagerAddress",
          "type": "address"
        }
      ],
      "stateMutability": "nonpayable",
      "type": "constructor"
    },
    {
      "anonymous": false,
      "inputs": [
        {
          "indexed": true,
          "internalType": "address",
          "name": "owner",
          "type": "address"
        },
        {
          "indexed": true,
          "internalType": "address",
          "name": "approved",
          "type": "address"
        },
        {
          "indexed": true,
          "internalType": "uint256",
          "name": "tokenId",
          "type": "uint256"
        }
      ],
      "name": "Approval",
      "type": "event"
    },
    {
      "anonymous": false,
      "inputs": [
        {
          "indexed": true,
          "internalType": "address",
          "name": "owner",
          "type": "address"
        },
        {
          "indexed": true,
          "internalType": "address",
          "name": "operator",
          "type": "address"
        },
        {
          "indexed": false,
          "internalType": "bool",
          "name": "approved",
          "type": "bool"
        }
      ],
      "name": "ApprovalForAll",
      "type": "event"
    },
    {
      "anonymous": false,
      "inputs": [
        {
          "indexed": false,
          "internalType": "address",
          "name": "account",
          "type": "address"
        }
      ],
      "name": "Paused",
      "type": "event"
    },
    {
      "anonymous": false,
      "inputs": [
        {
          "indexed": true,
          "internalType": "bytes32",
          "name": "role",
          "type": "bytes32"
        },
        {
          "indexed": true,
          "internalType": "bytes32",
          "name": "previousAdminRole",
          "type": "bytes32"
        },
        {
          "indexed": true,
          "internalType": "bytes32",
          "name": "newAdminRole",
          "type": "bytes32"
        }
      ],
      "name": "RoleAdminChanged",
      "type": "event"
    },
    {
      "anonymous": false,
      "inputs": [
        {
          "indexed": true,
          "internalType": "bytes32",
          "name": "role",
          "type": "bytes32"
        },
        {
          "indexed": true,
          "internalType": "address",
          "name": "account",
          "type": "address"
        },
        {
          "indexed": true,
          "internalType": "address",
          "name": "sender",
          "type": "address"
        }
      ],
      "name": "RoleGranted",
      "type": "event"
    },
    {
      "anonymous": false,
      "inputs": [
        {
          "indexed": true,
          "internalType": "bytes32",
          "name": "role",
          "type": "bytes32"
        },
        {
          "indexed": true,
          "internalType": "address",
          "name": "account",
          "type": "address"
        },
        {
          "indexed": true,
          "internalType": "address",
          "name": "sender",
          "type": "address"
        }
      ],
      "name": "RoleRevoked",
      "type": "event"
    },
    {
      "anonymous": false,
      "inputs": [
        {
          "indexed": true,
          "internalType": "address",
          "name": "from",
          "type": "address"
        },
        {
          "indexed": true,
          "internalType": "address",
          "name": "to",
          "type": "address"
        },
        {
          "indexed": true,
          "internalType": "uint256",
          "name": "tokenId",
          "type": "uint256"
        }
      ],
      "name": "Transfer",
      "type": "event"
    },
    {
      "anonymous": false,
      "inputs": [
        {
          "indexed": false,
          "internalType": "address",
          "name": "account",
          "type": "address"
        }
      ],
      "name": "Unpaused",
      "type": "event"
    },
    {
      "inputs": [],
      "name": "AddressManagerAddress",
      "outputs": [
        {
          "internalType": "address",
          "name": "",
          "type": "address"
        }
      ],
      "stateMutability": "view",
      "type": "function",
      "constant": true
    },
    {
      "inputs": [
        {
          "internalType": "uint256",
          "name": "",
          "type": "uint256"
        }
      ],
      "name": "BadgeInfo",
      "outputs": [
        {
          "internalType": "address",
          "name": "gifter",
          "type": "address"
        },
        {
          "internalType": "string",
          "name": "reason",
          "type": "string"
        }
      ],
      "stateMutability": "view",
      "type": "function",
      "constant": true
    },
    {
      "inputs": [
        {
          "internalType": "address",
          "name": "",
          "type": "address"
        },
        {
          "internalType": "uint256",
          "name": "",
          "type": "uint256"
        }
      ],
      "name": "BadgesSent",
      "outputs": [
        {
          "internalType": "uint256",
          "name": "",
          "type": "uint256"
        }
      ],
      "stateMutability": "view",
      "type": "function",
      "constant": true
    },
    {
      "inputs": [],
      "name": "ChadBadgeAddress",
      "outputs": [
        {
          "internalType": "address",
          "name": "",
          "type": "address"
        }
      ],
      "stateMutability": "view",
      "type": "function",
      "constant": true
    },
    {
      "inputs": [],
      "name": "ColoredIDAddress",
      "outputs": [
        {
          "internalType": "address",
          "name": "",
          "type": "address"
        }
      ],
      "stateMutability": "view",
      "type": "function",
      "constant": true
    },
    {
      "inputs": [],
      "name": "CourtClerk",
      "outputs": [
        {
          "internalType": "address",
          "name": "",
          "type": "address"
        }
      ],
      "stateMutability": "view",
      "type": "function",
      "constant": true
    },
    {
      "inputs": [],
      "name": "DEFAULT_ADMIN_ROLE",
      "outputs": [
        {
          "internalType": "bytes32",
          "name": "",
          "type": "bytes32"
        }
      ],
      "stateMutability": "view",
      "type": "function",
      "constant": true
    },
    {
      "inputs": [],
      "name": "GAVELS_BAILIFF",
      "outputs": [
        {
          "internalType": "bytes32",
          "name": "",
          "type": "bytes32"
        }
      ],
      "stateMutability": "view",
      "type": "function",
      "constant": true
    },
    {
      "inputs": [],
      "name": "GavelDAOAgent",
      "outputs": [
        {
          "internalType": "address",
          "name": "",
          "type": "address"
        }
      ],
      "stateMutability": "view",
      "type": "function",
      "constant": true
    },
    {
      "inputs": [],
      "name": "GavelTokenAddress",
      "outputs": [
        {
          "internalType": "address",
          "name": "",
          "type": "address"
        }
      ],
      "stateMutability": "view",
      "type": "function",
      "constant": true
    },
    {
      "inputs": [],
      "name": "GavelVote",
      "outputs": [
        {
          "internalType": "bool",
          "name": "",
          "type": "bool"
        }
      ],
      "stateMutability": "view",
      "type": "function",
      "constant": true
    },
    {
      "inputs": [],
      "name": "GoldStarAddress",
      "outputs": [
        {
          "internalType": "address",
          "name": "",
          "type": "address"
        }
      ],
      "stateMutability": "view",
      "type": "function",
      "constant": true
    },
    {
      "inputs": [],
      "name": "JERK_ROLE",
      "outputs": [
        {
          "internalType": "bytes32",
          "name": "",
          "type": "bytes32"
        }
      ],
      "stateMutability": "view",
      "type": "function",
      "constant": true
    },
    {
      "inputs": [],
      "name": "JURY_BAILIFF",
      "outputs": [
        {
          "internalType": "bytes32",
          "name": "",
          "type": "bytes32"
        }
      ],
      "stateMutability": "view",
      "type": "function",
      "constant": true
    },
    {
      "inputs": [],
      "name": "JuryDAOAgent",
      "outputs": [
        {
          "internalType": "address",
          "name": "",
          "type": "address"
        }
      ],
      "stateMutability": "view",
      "type": "function",
      "constant": true
    },
    {
      "inputs": [],
      "name": "JuryPoolAddress",
      "outputs": [
        {
          "internalType": "address",
          "name": "",
          "type": "address"
        }
      ],
      "stateMutability": "view",
      "type": "function",
      "constant": true
    },
    {
      "inputs": [],
      "name": "JuryVote",
      "outputs": [
        {
          "internalType": "bool",
          "name": "",
          "type": "bool"
        }
      ],
      "stateMutability": "view",
      "type": "function",
      "constant": true
    },
    {
      "inputs": [],
      "name": "MINI_BAILIFF_ROLE",
      "outputs": [
        {
          "internalType": "bytes32",
          "name": "",
          "type": "bytes32"
        }
      ],
      "stateMutability": "view",
      "type": "function",
      "constant": true
    },
    {
      "inputs": [],
      "name": "MiniBailiff",
      "outputs": [
        {
          "internalType": "address",
          "name": "",
          "type": "address"
        }
      ],
      "stateMutability": "view",
      "type": "function",
      "constant": true
    },
    {
      "inputs": [],
      "name": "PinkSlipAddress",
      "outputs": [
        {
          "internalType": "address",
          "name": "",
          "type": "address"
        }
      ],
      "stateMutability": "view",
      "type": "function",
      "constant": true
    },
    {
      "inputs": [],
      "name": "RedPenTokenAddress",
      "outputs": [
        {
          "internalType": "address",
          "name": "",
          "type": "address"
        }
      ],
      "stateMutability": "view",
      "type": "function",
      "constant": true
    },
    {
      "inputs": [],
      "name": "THE_COURT_ROLE",
      "outputs": [
        {
          "internalType": "bytes32",
          "name": "",
          "type": "bytes32"
        }
      ],
      "stateMutability": "view",
      "type": "function",
      "constant": true
    },
    {
      "inputs": [],
      "name": "TheCourtAddress",
      "outputs": [
        {
          "internalType": "address",
          "name": "",
          "type": "address"
        }
      ],
      "stateMutability": "view",
      "type": "function",
      "constant": true
    },
    {
      "inputs": [],
      "name": "TreasuryAddress",
      "outputs": [
        {
          "internalType": "address",
          "name": "",
          "type": "address"
        }
      ],
      "stateMutability": "view",
      "type": "function",
      "constant": true
    },
    {
      "inputs": [],
      "name": "addressManager",
      "outputs": [
        {
          "internalType": "contract AddressManager",
          "name": "",
          "type": "address"
        }
      ],
      "stateMutability": "view",
      "type": "function",
      "constant": true
    },
    {
      "inputs": [
        {
          "internalType": "address",
          "name": "to",
          "type": "address"
        },
        {
          "internalType": "uint256",
          "name": "tokenId",
          "type": "uint256"
        }
      ],
      "name": "approve",
      "outputs": [],
      "stateMutability": "nonpayable",
      "type": "function"
    },
    {
      "inputs": [],
      "name": "badgeColor",
      "outputs": [
        {
          "internalType": "string",
          "name": "",
          "type": "string"
        }
      ],
      "stateMutability": "view",
      "type": "function",
      "constant": true
    },
    {
      "inputs": [],
      "name": "badgeName",
      "outputs": [
        {
          "internalType": "string",
          "name": "",
          "type": "string"
        }
      ],
      "stateMutability": "view",
      "type": "function",
      "constant": true
    },
    {
      "inputs": [
        {
          "internalType": "address",
          "name": "owner",
          "type": "address"
        }
      ],
      "name": "balanceOf",
      "outputs": [
        {
          "internalType": "uint256",
          "name": "",
          "type": "uint256"
        }
      ],
      "stateMutability": "view",
      "type": "function",
      "constant": true
    },
    {
      "inputs": [
        {
          "internalType": "uint256",
          "name": "valueMustBe69",
          "type": "uint256"
        }
      ],
      "name": "destroyAndLockContract",
      "outputs": [
        {
          "internalType": "bool",
          "name": "",
          "type": "bool"
        }
      ],
      "stateMutability": "nonpayable",
      "type": "function"
    },
    {
      "inputs": [
        {
          "internalType": "uint256",
          "name": "tokenId",
          "type": "uint256"
        }
      ],
      "name": "getApproved",
      "outputs": [
        {
          "internalType": "address",
          "name": "",
          "type": "address"
        }
      ],
      "stateMutability": "view",
      "type": "function",
      "constant": true
    },
    {
      "inputs": [
        {
          "internalType": "uint256",
          "name": "_tokenId",
          "type": "uint256"
        }
      ],
      "name": "getBadgeReason",
      "outputs": [
        {
          "internalType": "string",
          "name": "_theReason",
          "type": "string"
        }
      ],
      "stateMutability": "view",
      "type": "function",
      "constant": true
    },
    {
      "inputs": [
        {
          "internalType": "uint256",
          "name": "_tokenId",
          "type": "uint256"
        }
      ],
      "name": "getBadgeSender",
      "outputs": [
        {
          "internalType": "address",
          "name": "_theGifter",
          "type": "address"
        }
      ],
      "stateMutability": "view",
      "type": "function",
      "constant": true
    },
    {
      "inputs": [
        {
          "internalType": "address",
          "name": "_gifter",
          "type": "address"
        }
      ],
      "name": "getBadgesSent",
      "outputs": [
        {
          "internalType": "uint256[]",
          "name": "_BadgesSent",
          "type": "uint256[]"
        }
      ],
      "stateMutability": "view",
      "type": "function",
      "constant": true
    },
    {
      "inputs": [
        {
          "internalType": "bytes32",
          "name": "role",
          "type": "bytes32"
        }
      ],
      "name": "getRoleAdmin",
      "outputs": [
        {
          "internalType": "bytes32",
          "name": "",
          "type": "bytes32"
        }
      ],
      "stateMutability": "view",
      "type": "function",
      "constant": true
    },
    {
      "inputs": [
        {
          "internalType": "bytes32",
          "name": "role",
          "type": "bytes32"
        },
        {
          "internalType": "uint256",
          "name": "index",
          "type": "uint256"
        }
      ],
      "name": "getRoleMember",
      "outputs": [
        {
          "internalType": "address",
          "name": "",
          "type": "address"
        }
      ],
      "stateMutability": "view",
      "type": "function",
      "constant": true
    },
    {
      "inputs": [
        {
          "internalType": "bytes32",
          "name": "role",
          "type": "bytes32"
        }
      ],
      "name": "getRoleMemberCount",
      "outputs": [
        {
          "internalType": "uint256",
          "name": "",
          "type": "uint256"
        }
      ],
      "stateMutability": "view",
      "type": "function",
      "constant": true
    },
    {
      "inputs": [
        {
          "internalType": "bytes32",
          "name": "role",
          "type": "bytes32"
        },
        {
          "internalType": "address",
          "name": "account",
          "type": "address"
        }
      ],
      "name": "grantRole",
      "outputs": [],
      "stateMutability": "nonpayable",
      "type": "function"
    },
    {
      "inputs": [
        {
          "internalType": "bytes32",
          "name": "role",
          "type": "bytes32"
        },
        {
          "internalType": "address",
          "name": "account",
          "type": "address"
        }
      ],
      "name": "hasRole",
      "outputs": [
        {
          "internalType": "bool",
          "name": "",
          "type": "bool"
        }
      ],
      "stateMutability": "view",
      "type": "function",
      "constant": true
    },
    {
      "inputs": [
        {
          "internalType": "address",
          "name": "owner",
          "type": "address"
        },
        {
          "internalType": "address",
          "name": "operator",
          "type": "address"
        }
      ],
      "name": "isApprovedForAll",
      "outputs": [
        {
          "internalType": "bool",
          "name": "",
          "type": "bool"
        }
      ],
      "stateMutability": "view",
      "type": "function",
      "constant": true
    },
    {
      "inputs": [
        {
          "internalType": "address",
          "name": "addressToCheck",
          "type": "address"
        },
        {
          "internalType": "uint256",
          "name": "badgeTokenID",
          "type": "uint256"
        }
      ],
      "name": "isBadgeSender",
      "outputs": [
        {
          "internalType": "bool",
          "name": "",
          "type": "bool"
        }
      ],
      "stateMutability": "view",
      "type": "function",
      "constant": true
    },
    {
      "inputs": [],
      "name": "isForeverLocked",
      "outputs": [
        {
          "internalType": "bool",
          "name": "",
          "type": "bool"
        }
      ],
      "stateMutability": "view",
      "type": "function",
      "constant": true
    },
    {
      "inputs": [
        {
          "internalType": "address",
          "name": "receivingAddress",
          "type": "address"
        },
        {
          "internalType": "string",
          "name": "_reason",
          "type": "string"
        }
      ],
      "name": "issueBadge",
      "outputs": [
        {
          "internalType": "uint256",
          "name": "newId",
          "type": "uint256"
        }
      ],
      "stateMutability": "nonpayable",
      "type": "function"
    },
    {
      "inputs": [],
      "name": "jerkSanctions",
      "outputs": [
        {
          "internalType": "bool",
          "name": "",
          "type": "bool"
        }
      ],
      "stateMutability": "view",
      "type": "function",
      "constant": true
    },
    {
      "inputs": [],
      "name": "mintingCost",
      "outputs": [
        {
          "internalType": "uint256",
          "name": "",
          "type": "uint256"
        }
      ],
      "stateMutability": "view",
      "type": "function",
      "constant": true
    },
    {
      "inputs": [],
      "name": "mintingCostFloor",
      "outputs": [
        {
          "internalType": "uint256",
          "name": "",
          "type": "uint256"
        }
      ],
      "stateMutability": "view",
      "type": "function",
      "constant": true
    },
    {
      "inputs": [],
      "name": "name",
      "outputs": [
        {
          "internalType": "string",
          "name": "",
          "type": "string"
        }
      ],
      "stateMutability": "view",
      "type": "function",
      "constant": true
    },
    {
      "inputs": [
        {
          "internalType": "uint256",
          "name": "tokenId",
          "type": "uint256"
        }
      ],
      "name": "ownerOf",
      "outputs": [
        {
          "internalType": "address",
          "name": "",
          "type": "address"
        }
      ],
      "stateMutability": "view",
      "type": "function",
      "constant": true
    },
    {
      "inputs": [],
      "name": "pause",
      "outputs": [],
      "stateMutability": "nonpayable",
      "type": "function"
    },
    {
      "inputs": [],
      "name": "paused",
      "outputs": [
        {
          "internalType": "bool",
          "name": "",
          "type": "bool"
        }
      ],
      "stateMutability": "view",
      "type": "function",
      "constant": true
    },
    {
      "inputs": [],
      "name": "payItForwardTreasuryRatio_Divisor",
      "outputs": [
        {
          "internalType": "uint256",
          "name": "",
          "type": "uint256"
        }
      ],
      "stateMutability": "view",
      "type": "function",
      "constant": true
    },
    {
      "inputs": [],
      "name": "payItForwardTreasuryRatio_Numerator",
      "outputs": [
        {
          "internalType": "uint256",
          "name": "",
          "type": "uint256"
        }
      ],
      "stateMutability": "view",
      "type": "function",
      "constant": true
    },
    {
      "inputs": [],
      "name": "redPens",
      "outputs": [
        {
          "internalType": "contract ERC20",
          "name": "",
          "type": "address"
        }
      ],
      "stateMutability": "view",
      "type": "function",
      "constant": true
    },
    {
      "inputs": [
        {
          "internalType": "bool",
          "name": "thisIsNotReversible",
          "type": "bool"
        }
      ],
      "name": "refreshBadges",
      "outputs": [
        {
          "internalType": "bool",
          "name": "",
          "type": "bool"
        }
      ],
      "stateMutability": "nonpayable",
      "type": "function"
    },
    {
      "inputs": [
        {
          "internalType": "bytes32",
          "name": "role",
          "type": "bytes32"
        },
        {
          "internalType": "address",
          "name": "account",
          "type": "address"
        }
      ],
      "name": "renounceRole",
      "outputs": [],
      "stateMutability": "nonpayable",
      "type": "function"
    },
    {
      "inputs": [],
      "name": "resetVote",
      "outputs": [],
      "stateMutability": "nonpayable",
      "type": "function"
    },
    {
      "inputs": [
        {
          "internalType": "uint256",
          "name": "tokenId",
          "type": "uint256"
        }
      ],
      "name": "revokeBadge",
      "outputs": [],
      "stateMutability": "nonpayable",
      "type": "function"
    },
    {
      "inputs": [
        {
          "internalType": "bytes32",
          "name": "role",
          "type": "bytes32"
        },
        {
          "internalType": "address",
          "name": "account",
          "type": "address"
        }
      ],
      "name": "revokeRole",
      "outputs": [],
      "stateMutability": "nonpayable",
      "type": "function"
    },
    {
      "inputs": [
        {
          "internalType": "address",
          "name": "from",
          "type": "address"
        },
        {
          "internalType": "address",
          "name": "to",
          "type": "address"
        },
        {
          "internalType": "uint256",
          "name": "tokenId",
          "type": "uint256"
        }
      ],
      "name": "safeTransferFrom",
      "outputs": [],
      "stateMutability": "nonpayable",
      "type": "function"
    },
    {
      "inputs": [
        {
          "internalType": "address",
          "name": "from",
          "type": "address"
        },
        {
          "internalType": "address",
          "name": "to",
          "type": "address"
        },
        {
          "internalType": "uint256",
          "name": "tokenId",
          "type": "uint256"
        },
        {
          "internalType": "bytes",
          "name": "_data",
          "type": "bytes"
        }
      ],
      "name": "safeTransferFrom",
      "outputs": [],
      "stateMutability": "nonpayable",
      "type": "function"
    },
    {
      "inputs": [
        {
          "internalType": "address",
          "name": "operator",
          "type": "address"
        },
        {
          "internalType": "bool",
          "name": "approved",
          "type": "bool"
        }
      ],
      "name": "setApprovalForAll",
      "outputs": [],
      "stateMutability": "nonpayable",
      "type": "function"
    },
    {
      "inputs": [
        {
          "internalType": "uint256",
          "name": "costInWei",
          "type": "uint256"
        }
      ],
      "name": "setMintingCost",
      "outputs": [
        {
          "internalType": "bool",
          "name": "",
          "type": "bool"
        }
      ],
      "stateMutability": "nonpayable",
      "type": "function"
    },
    {
      "inputs": [
        {
          "internalType": "uint256",
          "name": "costFloorInWei",
          "type": "uint256"
        }
      ],
      "name": "setMintingCostFloor",
      "outputs": [
        {
          "internalType": "bool",
          "name": "",
          "type": "bool"
        }
      ],
      "stateMutability": "nonpayable",
      "type": "function"
    },
    {
      "inputs": [
        {
          "internalType": "uint256",
          "name": "_numerator",
          "type": "uint256"
        },
        {
          "internalType": "uint256",
          "name": "_divisor",
          "type": "uint256"
        }
      ],
      "name": "setTipRatio",
      "outputs": [
        {
          "internalType": "bool",
          "name": "",
          "type": "bool"
        }
      ],
      "stateMutability": "nonpayable",
      "type": "function"
    },
    {
      "inputs": [
        {
          "internalType": "bytes4",
          "name": "interfaceId",
          "type": "bytes4"
        }
      ],
      "name": "supportsInterface",
      "outputs": [
        {
          "internalType": "bool",
          "name": "",
          "type": "bool"
        }
      ],
      "stateMutability": "view",
      "type": "function",
      "constant": true
    },
    {
      "inputs": [],
      "name": "symbol",
      "outputs": [
        {
          "internalType": "string",
          "name": "",
          "type": "string"
        }
      ],
      "stateMutability": "view",
      "type": "function",
      "constant": true
    },
    {
      "inputs": [],
      "name": "syncAllRoles",
      "outputs": [],
      "stateMutability": "nonpayable",
      "type": "function"
    },
    {
      "inputs": [
        {
          "internalType": "bytes32",
          "name": "ROLE_TO_SYNC",
          "type": "bytes32"
        }
      ],
      "name": "syncSingleRole",
      "outputs": [],
      "stateMutability": "nonpayable",
      "type": "function"
    },
    {
      "inputs": [],
      "name": "syncVotes",
      "outputs": [],
      "stateMutability": "nonpayable",
      "type": "function"
    },
    {
      "inputs": [
        {
          "internalType": "uint256",
          "name": "index",
          "type": "uint256"
        }
      ],
      "name": "tokenByIndex",
      "outputs": [
        {
          "internalType": "uint256",
          "name": "",
          "type": "uint256"
        }
      ],
      "stateMutability": "view",
      "type": "function",
      "constant": true
    },
    {
      "inputs": [
        {
          "internalType": "address",
          "name": "owner",
          "type": "address"
        },
        {
          "internalType": "uint256",
          "name": "index",
          "type": "uint256"
        }
      ],
      "name": "tokenOfOwnerByIndex",
      "outputs": [
        {
          "internalType": "uint256",
          "name": "",
          "type": "uint256"
        }
      ],
      "stateMutability": "view",
      "type": "function",
      "constant": true
    },
    {
      "inputs": [
        {
          "internalType": "uint256",
          "name": "tokenId",
          "type": "uint256"
        }
      ],
      "name": "tokenURI",
      "outputs": [
        {
          "internalType": "string",
          "name": "",
          "type": "string"
        }
      ],
      "stateMutability": "view",
      "type": "function",
      "constant": true
    },
    {
      "inputs": [],
      "name": "totalSupply",
      "outputs": [
        {
          "internalType": "uint256",
          "name": "",
          "type": "uint256"
        }
      ],
      "stateMutability": "view",
      "type": "function",
      "constant": true
    },
    {
      "inputs": [
        {
          "internalType": "address",
          "name": "from",
          "type": "address"
        },
        {
          "internalType": "address",
          "name": "to",
          "type": "address"
        },
        {
          "internalType": "uint256",
          "name": "tokenId",
          "type": "uint256"
        }
      ],
      "name": "transferFrom",
      "outputs": [],
      "stateMutability": "nonpayable",
      "type": "function"
    },
    {
      "inputs": [],
      "name": "unpause",
      "outputs": [],
      "stateMutability": "nonpayable",
      "type": "function"
    },
    {
      "inputs": [],
      "name": "updateAddressManager",
      "outputs": [],
      "stateMutability": "nonpayable",
      "type": "function"
    },
    {
      "inputs": [],
      "name": "updateAllAddresses",
      "outputs": [],
      "stateMutability": "nonpayable",
      "type": "function"
    },
    {
      "inputs": [],
      "name": "updateAllRoles",
      "outputs": [],
      "stateMutability": "nonpayable",
      "type": "function"
    },
    {
      "inputs": [],
      "name": "updateDAOAddresses",
      "outputs": [],
      "stateMutability": "nonpayable",
      "type": "function"
    },
    {
      "inputs": [],
      "name": "updatePaymentToken",
      "outputs": [],
      "stateMutability": "nonpayable",
      "type": "function"
    },
    {
      "inputs": [
        {
          "internalType": "bytes32",
          "name": "ROLE_TO_UPDATE",
          "type": "bytes32"
        }
      ],
      "name": "updateSingleRole",
      "outputs": [],
      "stateMutability": "nonpayable",
      "type": "function"
    },
    {
      "inputs": [],
      "name": "updateTokenAddresses",
      "outputs": [],
      "stateMutability": "nonpayable",
      "type": "function"
    }
  ],
  "bytecode": "0x60806040526000805460ff1990811682556011805463ffffffff60a01b19169055601d91909155601e805490911690556729a2241af62c000060235567016345785d8a0000602455600554602580546001600160a01b0319166001600160a01b03909216919091179055600260265560036027553480156200008057600080fd5b5060405162005ba938038062005ba9833981016040819052620000a39162000d67565b6040805180820182526009815268476f6c64537461727360b81b6020808301919091528251808401909352600483526311dbdb1960e21b90830152600380546001600160a01b0385166001600160a01b0319918216811790925560118054909116909117905590828282828282828282826200011e620002ea565b6200012862000300565b600f5462000142906000906001600160a01b03166200044b565b600f546200017b907f0538d24a8b7882d7b2e36af243d4af61c23e86e3daa6cb8c887b53220b2f5720906001600160a01b03166200044b565b600c54620001b4907f048bc71fa1cb2c119c339cf9cf00a97996a19a9d991ce5fe049f2fa5459e7990906001600160a01b03166200044b565b600d54620001ed907ffa8e4989e1d689f7bc5c4b25b87efb51fecdecb19ba62847e29c759e12a89acd906001600160a01b03166200044b565b60105462000226907ff0f4b159a6e2a4815eb3ca3df080bfa70c9270662c59bcaa4479a456220183e6906001600160a01b03166200044b565b620002537f7c9d7f6f02908185bffb3f7fc9afb29fd7bf93675af8fd4b655ee05c2cee1e0e60006200044b565b5081516200026990601290602085019062000cc1565b5080516200027f90601390602084019062000cc1565b50506018805460ff19169055508151620002a190601f90602085019062000cc1565b508251620002b6906020908186019062000cc1565b5050600554602580546001600160a01b0319166001600160a01b039092169190911790555062000dfa975050505050505050565b620002f46200048e565b620002fe6200078e565b565b601160009054906101000a90046001600160a01b03166001600160a01b031663ff7e88ec6040518163ffffffff1660e01b815260040160206040518083038186803b1580156200034f57600080fd5b505afa15801562000364573d6000803e3d6000fd5b505050506040513d601f19601f820116820180604052508101906200038a919062000d99565b601160156101000a81548160ff021916908315150217905550601160009054906101000a90046001600160a01b03166001600160a01b0316632fb565856040518163ffffffff1660e01b815260040160206040518083038186803b158015620003f257600080fd5b505afa15801562000407573d6000803e3d6000fd5b505050506040513d601f19601f820116820180604052508101906200042d919062000d99565b60118054911515600160b01b0260ff60b01b19909216919091179055565b62000462828262000bb760201b6200205d1760201c565b6000828152600260209081526040909120620004899183906200206762000bc7821b17901c565b505050565b601160009054906101000a90046001600160a01b03166001600160a01b031663dadf56ac6040518163ffffffff1660e01b815260040160206040518083038186803b158015620004dd57600080fd5b505afa158015620004f2573d6000803e3d6000fd5b505050506040513d601f19601f8201168201806040525081019062000518919062000d67565b600c80546001600160a01b0319166001600160a01b039283161790556011546040805163024bebe960e01b81529051919092169163024bebe9916004808301926020929190829003018186803b1580156200057257600080fd5b505afa15801562000587573d6000803e3d6000fd5b505050506040513d601f19601f82011682018060405250810190620005ad919062000d67565b600d80546001600160a01b0319166001600160a01b0392831617905560115460408051635b5c251f60e01b815290519190921691635b5c251f916004808301926020929190829003018186803b1580156200060757600080fd5b505afa1580156200061c573d6000803e3d6000fd5b505050506040513d601f19601f8201168201806040525081019062000642919062000d67565b600e80546001600160a01b0319166001600160a01b0392831617905560115460408051637310bf1d60e11b81529051919092169163e6217e3a916004808301926020929190829003018186803b1580156200069c57600080fd5b505afa158015620006b1573d6000803e3d6000fd5b505050506040513d601f19601f82011682018060405250810190620006d7919062000d67565b601080546001600160a01b0319166001600160a01b039283161790556011546040805163d88127a160e01b81529051919092169163d88127a1916004808301926020929190829003018186803b1580156200073157600080fd5b505afa15801562000746573d6000803e3d6000fd5b505050506040513d601f19601f820116820180604052508101906200076c919062000d67565b600b80546001600160a01b0319166001600160a01b0392909216919091179055565b601160009054906101000a90046001600160a01b03166001600160a01b03166321d7f0086040518163ffffffff1660e01b815260040160206040518083038186803b158015620007dd57600080fd5b505afa158015620007f2573d6000803e3d6000fd5b505050506040513d601f19601f8201168201806040525081019062000818919062000d67565b600480546001600160a01b0319166001600160a01b039283161781556011546040805163762ddb5960e01b81529051919093169263762ddb599281810192602092909190829003018186803b1580156200087157600080fd5b505afa15801562000886573d6000803e3d6000fd5b505050506040513d601f19601f82011682018060405250810190620008ac919062000d67565b600580546001600160a01b0319166001600160a01b039283161790556011546040805163bfb7dc9960e01b81529051919092169163bfb7dc99916004808301926020929190829003018186803b1580156200090657600080fd5b505afa1580156200091b573d6000803e3d6000fd5b505050506040513d601f19601f8201168201806040525081019062000941919062000d67565b600680546001600160a01b0319166001600160a01b0392831617905560115460408051633e6111eb60e21b81529051919092169163f98447ac916004808301926020929190829003018186803b1580156200099b57600080fd5b505afa158015620009b0573d6000803e3d6000fd5b505050506040513d601f19601f82011682018060405250810190620009d6919062000d67565b600780546001600160a01b0319166001600160a01b0392831617905560115460408051630fe1ba9f60e21b815290519190921691633f86ea7c916004808301926020929190829003018186803b15801562000a3057600080fd5b505afa15801562000a45573d6000803e3d6000fd5b505050506040513d601f19601f8201168201806040525081019062000a6b919062000d67565b600880546001600160a01b0319166001600160a01b0392831617905560115460408051632b90024160e11b8152905191909216916357200482916004808301926020929190829003018186803b15801562000ac557600080fd5b505afa15801562000ada573d6000803e3d6000fd5b505050506040513d601f19601f8201168201806040525081019062000b00919062000d67565b600980546001600160a01b0319166001600160a01b0392831617905560115460408051636b58477560e01b815290519190921691636b584775916004808301926020929190829003018186803b15801562000b5a57600080fd5b505afa15801562000b6f573d6000803e3d6000fd5b505050506040513d601f19601f8201168201806040525081019062000b95919062000d67565b600a80546001600160a01b0319166001600160a01b0392909216919091179055565b62000bc3828262000be7565b5050565b600062000bde836001600160a01b03841662000c6f565b90505b92915050565b60008281526001602090815260408083206001600160a01b038516845290915290205460ff1662000bc35760008281526001602081815260408084206001600160a01b0386168086529252808420805460ff19169093179092559051339285917f2f8788117e7eff1d82e926ec794901d17c78024a50270940304540a733656f0d9190a45050565b600081815260018301602052604081205462000cb85750815460018181018455600084815260208082209093018490558454848252828601909352604090209190915562000be1565b50600062000be1565b82805462000ccf9062000dbd565b90600052602060002090601f01602090048101928262000cf3576000855562000d3e565b82601f1062000d0e57805160ff191683800117855562000d3e565b8280016001018555821562000d3e579182015b8281111562000d3e57825182559160200191906001019062000d21565b5062000d4c92915062000d50565b5090565b5b8082111562000d4c576000815560010162000d51565b60006020828403121562000d7a57600080fd5b81516001600160a01b038116811462000d9257600080fd5b9392505050565b60006020828403121562000dac57600080fd5b8151801515811462000d9257600080fd5b600181811c9082168062000dd257607f821691505b6020821081141562000df457634e487b7160e01b600052602260045260246000fd5b50919050565b614d9f8062000e0a6000396000f3fe608060405234801561001057600080fd5b50600436106104965760003560e01c80636c353e3411610262578063c04e17e311610151578063e6217e3a116100ce578063ee0b4c3511610092578063ee0b4c35146109fc578063f1132b3014610a0f578063f7d92d8614610a17578063f98447ac14610a1f578063f98db25314610a32578063ff7e88ec14610a4557600080fd5b8063e6217e3a146109a5578063e78c266c146109b8578063e985e9c5146109cb578063e9a53230146109de578063ebf98abf146109f357600080fd5b8063cf4ece1511610115578063cf4ece151461094f578063d547741f14610964578063d88127a114610977578063dadf56ac1461098a578063dea6f9c81461099d57600080fd5b8063c04e17e3146108e0578063c62b28e814610901578063c87b56dd14610914578063ca15c87314610927578063cce843921461093a57600080fd5b806391d14854116101df578063a22cb465116101a3578063a22cb4651461087e578063a32c5e5914610891578063a78e746f146108a6578063b88d4fde146108ba578063bfb7dc99146108cd57600080fd5b806391d148541461083b57806395d89b411461084e57806396ac6bf0146108565780639ac3eaa714610869578063a217fddf1461087657600080fd5b8063794ccf6c11610226578063794ccf6c146107f15780638456cb59146108045780638685f8db1461080c57806387e9152d1461081f5780639010d07c1461082857600080fd5b80636c353e341461078757806370a082311461078f57806373c89822146107a2578063762ddb59146107cb57806376516078146107de57600080fd5b8063329a8cfa1161038957806357f276ff116103065780635f413466116102ca5780635f41346614610713578063610c3009146107265780636352211e1461072e57806363ebc6771461074157806367a14f06146107615780636b5847751461077457600080fd5b806357f276ff146106c757806359e6f787146106da5780635b5c251f146106ed5780635c975abb146107005780635db531a11461070b57600080fd5b806342842e0e1161034d57806342842e0e1461067e57806349b5e105146106915780634d84c6d8146106995780634f6ccce7146106a157806357200482146106b457600080fd5b8063329a8cfa1461063557806336568abe1461063d5780633ab76e9f146106505780633f4ba83a146106635780633f86ea7c1461066b57600080fd5b806321d670e91161041757806329e63f35116103db57806329e63f35146105e05780632f2ff15d146105f35780632f745c59146106065780632fb5658514610619578063326a55e01461062d57600080fd5b806321d670e91461057857806321d7f0081461058157806323b872dd146105945780632436329d146105a7578063248a9ca3146105bc57600080fd5b80630ad17f8f1161045e5780630ad17f8f1461052b57806310a83fcb1461054c578063130f63201461055557806317314d5a1461056857806318160ddd1461057057600080fd5b806301ffc9a71461049b578063024bebe9146104c357806306fdde03146104ee578063081812fc14610503578063095ea7b314610516575b600080fd5b6104ae6104a9366004614852565b610a59565b60405190151581526020015b60405180910390f35b600d546104d6906001600160a01b031681565b6040516001600160a01b0390911681526020016104ba565b6104f6610a6a565b6040516104ba9190614a10565b6104d66105113660046147f2565b610afc565b61052961052436600461478c565b610b96565b005b61053e61053936600461478c565b610cac565b6040519081526020016104ba565b61053e60245481565b6105296105633660046147f2565b610cdd565b610529610d12565b601b5461053e565b61053e60265481565b6004546104d6906001600160a01b031681565b6105296105a2366004614639565b610d3b565b61053e600080516020614cca83398151915281565b61053e6105ca3660046147f2565b6000908152600160208190526040909120015490565b6104ae6105ee3660046147f2565b610d6c565b61052961060136600461480b565b610e79565b61053e61061436600461478c565b610e9b565b6011546104ae90600160b01b900460ff1681565b610529610f31565b610529610f41565b61052961064b36600461480b565b61104a565b6011546104d6906001600160a01b031681565b61052961106c565b6008546104d6906001600160a01b031681565b61052961068c366004614639565b6110fe565b61052961112f565b610529610f39565b61053e6106af3660046147f2565b611137565b6009546104d6906001600160a01b031681565b6105296106d53660046147f2565b6111ca565b6104ae6106e836600461478c565b6111de565b600e546104d6906001600160a01b031681565b60185460ff166104ae565b610529611210565b600f546104d6906001600160a01b031681565b6104f6611218565b6104d661073c3660046147f2565b6112a6565b61075461074f3660046145c6565b61131d565b6040516104ba91906149cc565b6025546104d6906001600160a01b031681565b600a546104d6906001600160a01b031681565b610529611389565b61053e61079d3660046145c6565b6113b5565b6104d66107b03660046147f2565b6000908152602160205260409020546001600160a01b031690565b6005546104d6906001600160a01b031681565b6104ae6107ec3660046147b8565b61143c565b61053e6107ff366004614728565b611533565b61052961181d565b6104ae61081a366004614830565b61189f565b61053e60275481565b6104d6610836366004614830565b61199f565b6104ae61084936600461480b565b6119be565b6104f66119e9565b6104ae6108643660046147f2565b6119f8565b601e546104ae9060ff1681565b61053e600081565b61052961088c3660046146fa565b611b04565b61053e600080516020614d2a83398151915281565b6011546104ae90600160a01b900460ff1681565b6105296108c836600461467a565b611b82565b6006546104d6906001600160a01b031681565b6108f36108ee3660046147f2565b611bba565b6040516104ba9291906149a8565b61052961090f3660046147f2565b611c69565b6104f66109223660046147f2565b611cba565b61053e6109353660046147f2565b611da1565b61053e600080516020614d4a83398151915281565b61053e600080516020614d0a83398151915281565b61052961097236600461480b565b611db8565b600b546104d6906001600160a01b031681565b600c546104d6906001600160a01b031681565b6104f6611dc2565b6010546104d6906001600160a01b031681565b6003546104d6906001600160a01b031681565b6104ae6109d9366004614600565b611dcf565b61053e600080516020614cea83398151915281565b61053e60235481565b6104ae610a0a3660046147f2565b611e2e565b610529611f1a565b610529611f22565b6007546104d6906001600160a01b031681565b6104f6610a403660046147f2565b611fc2565b6011546104ae90600160a81b900460ff1681565b6000610a648261207c565b92915050565b606060128054610a7990614bb8565b80601f0160208091040260200160405190810160405280929190818152602001828054610aa590614bb8565b8015610af25780601f10610ac757610100808354040283529160200191610af2565b820191906000526020600020905b815481529060010190602001808311610ad557829003601f168201915b5050505050905090565b6000818152601460205260408120546001600160a01b0316610b7a5760405162461bcd60e51b815260206004820152602c60248201527f4552433732313a20617070726f76656420717565727920666f72206e6f6e657860448201526b34b9ba32b73a103a37b5b2b760a11b60648201526084015b60405180910390fd5b506000908152601660205260409020546001600160a01b031690565b6000610ba1826112a6565b9050806001600160a01b0316836001600160a01b03161415610c0f5760405162461bcd60e51b815260206004820152602160248201527f4552433732313a20617070726f76616c20746f2063757272656e74206f776e656044820152603960f91b6064820152608401610b71565b336001600160a01b0382161480610c2b5750610c2b8133611dcf565b610c9d5760405162461bcd60e51b815260206004820152603860248201527f4552433732313a20617070726f76652063616c6c6572206973206e6f74206f7760448201527f6e6572206e6f7220617070726f76656420666f7220616c6c00000000000000006064820152608401610b71565b610ca783836120a1565b505050565b60226020528160005260406000208181548110610cc857600080fd5b90600052602060002001600091509150505481565b610ce760016120c8565b50610cf18161217a565b50610cfb816122eb565b50610d0660006120c8565b610d0f57600080fd5b50565b610d1c60016120c8565b50610d25612474565b50610d3060006120c8565b610d3957600080fd5b565b610d4533826125ba565b610d615760405162461bcd60e51b8152600401610b7190614a75565b610ca7838383612679565b6000610d86600080516020614d2a833981519152336119be565b80610da45750610da4600080516020614cea833981519152336119be565b80610dc25750610dc2600080516020614cca833981519152336119be565b610e075760405162461bcd60e51b81526020600482015260166024820152752cb7ba93b932903737ba103a3432903130b4b634b33360511b6044820152606401610b71565b6024548210610e645760405162461bcd60e51b8152602060048201526024808201527f536f7272792120596f752063616e206f6e6c79206c6f7765722074686520666c6044820152636f6f722160e01b6064820152608401610b71565b610e7082602455600190565b50600192915050565b610e8382826126aa565b6000828152600260205260409020610ca79082612067565b6000610ea6836113b5565b8210610f085760405162461bcd60e51b815260206004820152602b60248201527f455243373231456e756d657261626c653a206f776e657220696e646578206f7560448201526a74206f6620626f756e647360a81b6064820152608401610b71565b506001600160a01b03919091166000908152601960209081526040808320938352929052205490565b610f396126e4565b610d396129d0565b610f59600080516020614d2a833981519152336119be565b80610f775750610f77600080516020614cea833981519152336119be565b80610f955750610f95600080516020614cca833981519152336119be565b610fda5760405162461bcd60e51b81526020600482015260166024820152752cb7ba93b932903737ba103a3432903130b4b634b33360511b6044820152606401610b71565b601160009054906101000a90046001600160a01b03166001600160a01b031663329a8cfa6040518163ffffffff1660e01b8152600401600060405180830381600087803b15801561102a57600080fd5b505af115801561103e573d6000803e3d6000fd5b50505050610d39611210565b6110548282612ddd565b6000828152600260205260409020610ca79082612e57565b611084600080516020614cea833981519152336119be565b806110a257506110a2600080516020614d2a833981519152336119be565b6110e65760405162461bcd60e51b8152602060048201526015602482015274596f75277265206e6f742074686520476176656c7360581b6044820152606401610b71565b601e5460ff16156110f657600080fd5b610d39612e6c565b61110833826125ba565b6111245760405162461bcd60e51b8152600401610b7190614a75565b610ca7838383612eff565b610d396126e4565b6000611142601b5490565b82106111a55760405162461bcd60e51b815260206004820152602c60248201527f455243373231456e756d657261626c653a20676c6f62616c20696e646578206f60448201526b7574206f6620626f756e647360a01b6064820152608401610b71565b601b82815481106111b8576111b8614c64565b90600052602060002001549050919050565b6111d460016120c8565b50610cfb81612f1a565b6000818152602160205260408120546001600160a01b038481169116141561120857506001610a64565b506000610a64565b610d39613175565b6020805461122590614bb8565b80601f016020809104026020016040519081016040528092919081815260200182805461125190614bb8565b801561129e5780601f106112735761010080835404028352916020019161129e565b820191906000526020600020905b81548152906001019060200180831161128157829003601f168201915b505050505081565b6000818152601460205260408120546001600160a01b031680610a645760405162461bcd60e51b815260206004820152602960248201527f4552433732313a206f776e657220717565727920666f72206e6f6e657869737460448201526832b73a103a37b5b2b760b91b6064820152608401610b71565b6001600160a01b03811660009081526022602090815260409182902080548351818402810184019094528084526060939283018282801561137d57602002820191906000526020600020905b815481526020019060010190808311611369575b50505050509050919050565b6113916129d0565b600554602580546001600160a01b0319166001600160a01b03909216919091179055565b60006001600160a01b0382166114205760405162461bcd60e51b815260206004820152602a60248201527f4552433732313a2062616c616e636520717565727920666f7220746865207a65604482015269726f206164647265737360b01b6064820152608401610b71565b506001600160a01b031660009081526015602052604090205490565b6000611456600080516020614cea833981519152336119be565b806114745750611474600080516020614cca833981519152336119be565b806114925750611492600080516020614d2a833981519152336119be565b61149b57600080fd5b601154600160b01b810460ff9081161515600160a81b90920416151514600114806114d957506114d9600080516020614d2a833981519152336119be565b6115185760405162461bcd60e51b815260206004820152601060248201526f436f757274204d75737420416772656560801b6044820152606401610b71565b6001821515141561152b57610e706132b8565b506000919050565b6000826000806027546023546115499190614b2b565b9050806026546115599190614b3f565b6025546040516370a0823160e01b81523060048201526001600160a01b03909116906370a082319060240160206040518083038186803b15801561159c57600080fd5b505afa1580156115b0573d6000803e3d6000fd5b505050506040513d601f19601f820116820180604052508101906115d4919061488c565b6115de9190614b13565b6025546026549193506001600160a01b0316906323b872dd9033903090611606908690614b3f565b6040516001600160e01b031960e086901b1681526001600160a01b0393841660048201529290911660248301526044820152606401602060405180830381600087803b15801561165557600080fd5b505af1158015611669573d6000803e3d6000fd5b505050506040513d601f19601f8201168201806040525081019061168d91906147d5565b506025546026546027546001600160a01b03909216916323b872dd91339187916116b691614b5e565b6116c09086614b3f565b6040516001600160e01b031960e086901b1681526001600160a01b0393841660048201529290911660248301526044820152606401602060405180830381600087803b15801561170f57600080fd5b505af1158015611723573d6000803e3d6000fd5b505050506040513d601f19601f8201168201806040525081019061174791906147d5565b506025546040516370a0823160e01b815230600482015283916001600160a01b0316906370a082319060240160206040518083038186803b15801561178b57600080fd5b505afa15801561179f573d6000803e3d6000fd5b505050506040513d601f19601f820116820180604052508101906117c3919061488c565b146118095760405162461bcd60e51b8152602060048201526016602482015275115c9c9bdc88151c985b9cd9995c9a5b99c80854915160521b6044820152606401610b71565b611813868661330a565b9695505050505050565b611835600080516020614cea833981519152336119be565b806118535750611853600080516020614d2a833981519152336119be565b6118975760405162461bcd60e51b8152602060048201526015602482015274596f75277265206e6f742074686520476176656c7360581b6044820152606401610b71565b610d3961336f565b60006118b9600080516020614cca833981519152336119be565b806118d757506118d7600080516020614d2a833981519152336119be565b6119195760405162461bcd60e51b8152602060048201526013602482015272596f75277265206e6f7420746865204a75727960681b6044820152606401610b71565b818310156119885760405162461bcd60e51b815260206004820152603660248201527f536f7272792120436f7374206e756d657261746f72206d75737420626520677260448201527532b0ba32b9103a3430b7103232b737b6b4b730ba37b960511b6064820152608401610b71565b6026839055602782905560015b5060019392505050565b60008281526002602052604081206119b790836133ea565b9392505050565b60009182526001602090815260408084206001600160a01b0393909316845291905290205460ff1690565b606060138054610a7990614bb8565b6000611a12600080516020614cea833981519152336119be565b80611a305750611a30600080516020614cca833981519152336119be565b80611a4e5750611a4e600080516020614d2a833981519152336119be565b611a5757600080fd5b601154600160b01b810460ff9081161515600160a81b9092041615151460011480611a955750611a95600080516020614d2a833981519152336119be565b611ad45760405162461bcd60e51b815260206004820152601060248201526f436f757274204d75737420416772656560801b6044820152606401610b71565b816045141561152b57611ae56132b8565b50611aee61336f565b50601e805460ff19166001908117909155919050565b611b1c600080516020614d2a833981519152336119be565b80611b3a5750611b3a600080516020614cea833981519152336119be565b80611b585750611b58600080516020614cca833981519152336119be565b611b745760405162461bcd60e51b8152600401610b7190614a75565b611b7e82826133f6565b5050565b611b8c33836125ba565b611ba85760405162461bcd60e51b8152600401610b7190614ac2565b611bb4848484846134bb565b50505050565b602160205260009081526040902080546001820180546001600160a01b039092169291611be690614bb8565b80601f0160208091040260200160405190810160405280929190818152602001828054611c1290614bb8565b8015611c5f5780601f10611c3457610100808354040283529160200191611c5f565b820191906000526020600020905b815481529060010190602001808311611c4257829003601f168201915b5050505050905082565b611c7333826125ba565b611cb15760405162461bcd60e51b815260206004820152600f60248201526e4e696365205472792c204275636b6f60881b6044820152606401610b71565b610d0f816134ee565b6000818152601460205260409020546060906001600160a01b0316611d395760405162461bcd60e51b815260206004820152602f60248201527f4552433732314d657461646174613a2055524920717565727920666f72206e6f60448201526e3732bc34b9ba32b73a103a37b5b2b760891b6064820152608401610b71565b6000611d5060408051602081019091526000815290565b90506000815111611d7057604051806020016040528060008152506119b7565b80611d7a84613595565b604051602001611d8b9291906148d1565b6040516020818303038152906040529392505050565b6000818152600260205260408120610a6490613693565b611054828261369d565b601f805461122590614bb8565b600080611dea600080516020614d2a833981519152846119be565b80611e085750611e08600080516020614cea833981519152846119be565b80611e265750611e26600080516020614cca833981519152846119be565b949350505050565b6000611e48600080516020614cca833981519152336119be565b80611e665750611e66600080516020614d2a833981519152336119be565b611ea85760405162461bcd60e51b8152602060048201526013602482015272596f75277265206e6f7420746865204a75727960681b6044820152606401610b71565b602454821015611f0e5760405162461bcd60e51b815260206004820152602b60248201527f536f7272792120436f7374206d7573742062652067726561746572207468616e60448201526a10181718902932b22832b760a91b6064820152608401610b71565b610e7082602355600190565b610d396136d7565b611f2c60016120c8565b50611f44600080516020614d2a833981519152612f1a565b50611f5c600080516020614cea833981519152612f1a565b50611f74600080516020614cca833981519152612f1a565b50611f8c600080516020614d0a833981519152612f1a565b50611fa4600080516020614d4a833981519152612f1a565b50611faf6000612f1a565b50611fb8613175565b610d3060006120c8565b6000818152602160205260409020600101805460609190611fe290614bb8565b80601f016020809104026020016040519081016040528092919081815260200182805461200e90614bb8565b801561137d5780601f106120305761010080835404028352916020019161137d565b820191906000526020600020905b81548152906001019060200180831161203e5750939695505050505050565b611b7e828261380e565b60006119b7836001600160a01b038416613879565b60006001600160e01b0319821663780e9d6360e01b1480610a645750610a64826138c0565b6120b9600080516020614d2a833981519152336119be565b15611b7e57611b7e8282613900565b6000805460ff1682151581151514156121235760405162461bcd60e51b815260206004820152601960248201527f416c72656164792053657420746f20746861742076616c7565000000000000006044820152606401610b71565b6000805484151560ff19909116811790915560ff1615158115151415610e705760405162461bcd60e51b815260206004820152600c60248201526b29b0b33a32bc9022b93937b960a11b6044820152606401610b71565b60405163ca15c87360e01b8152600481018290526000908190309063ca15c8739060240160206040518083038186803b1580156121b657600080fd5b505afa1580156121ca573d6000803e3d6000fd5b505050506040513d601f19601f820116820180604052508101906121ee919061488c565b905060005b8181101561199557604051632404341f60e21b815260048101859052602481018290526000903090639010d07c9060440160206040518083038186803b15801561223c57600080fd5b505afa158015612250573d6000803e3d6000fd5b505050506040513d601f19601f8201168201806040525081019061227491906145e3565b60405163d547741f60e01b8152600481018790526001600160a01b0382166024820152909150309063d547741f90604401600060405180830381600087803b1580156122bf57600080fd5b505af11580156122d3573d6000803e3d6000fd5b505050505080806122e390614bf3565b9150506121f3565b60115460405163ca15c87360e01b81526004810183905260009182916001600160a01b039091169063ca15c8739060240160206040518083038186803b15801561233457600080fd5b505afa158015612348573d6000803e3d6000fd5b505050506040513d601f19601f8201168201806040525081019061236c919061488c565b905060005b8181101561199557601154604051632404341f60e21b815260048101869052602481018390526000916001600160a01b031690639010d07c9060440160206040518083038186803b1580156123c557600080fd5b505afa1580156123d9573d6000803e3d6000fd5b505050506040513d601f19601f820116820180604052508101906123fd91906145e3565b604051632f2ff15d60e01b8152600481018790526001600160a01b03821660248201529091503090632f2ff15d90604401600060405180830381600087803b15801561244857600080fd5b505af115801561245c573d6000803e3d6000fd5b5050505050808061246c90614bf3565b915050612371565b600061248d600080516020614d2a83398151915261217a565b506124a5600080516020614d2a8339815191526122eb565b6124ae57600080fd5b6124c5600080516020614cea83398151915261217a565b506124dd600080516020614cea8339815191526122eb565b6124e657600080fd5b6124fd600080516020614cca83398151915261217a565b50612515600080516020614cca8339815191526122eb565b61251e57600080fd5b612535600080516020614d0a83398151915261217a565b5061254d600080516020614d0a8339815191526122eb565b61255657600080fd5b61256d600080516020614d4a83398151915261217a565b50612585600080516020614d4a8339815191526122eb565b61258e57600080fd5b612598600061217a565b506125a360006122eb565b6125ac57600080fd5b6125b4613175565b50600190565b6000818152601460205260408120546001600160a01b03166126335760405162461bcd60e51b815260206004820152602c60248201527f4552433732313a206f70657261746f7220717565727920666f72206e6f6e657860448201526b34b9ba32b73a103a37b5b2b760a11b6064820152608401610b71565b600061263e836112a6565b6000848152602160205260409020549091506001600160a01b0390811690851681148061267057506126708286611dcf565b95945050505050565b61268333826125ba565b61269f5760405162461bcd60e51b8152600401610b7190614ac2565b610ca783838361396e565b600082815260016020819052604082200154905460ff16156126d057610ca7838361380e565b6126da8133613b19565b610ca7838361380e565b601160009054906101000a90046001600160a01b03166001600160a01b031663dadf56ac6040518163ffffffff1660e01b815260040160206040518083038186803b15801561273257600080fd5b505afa158015612746573d6000803e3d6000fd5b505050506040513d601f19601f8201168201806040525081019061276a91906145e3565b600c80546001600160a01b0319166001600160a01b039283161790556011546040805163024bebe960e01b81529051919092169163024bebe9916004808301926020929190829003018186803b1580156127c357600080fd5b505afa1580156127d7573d6000803e3d6000fd5b505050506040513d601f19601f820116820180604052508101906127fb91906145e3565b600d80546001600160a01b0319166001600160a01b0392831617905560115460408051635b5c251f60e01b815290519190921691635b5c251f916004808301926020929190829003018186803b15801561285457600080fd5b505afa158015612868573d6000803e3d6000fd5b505050506040513d601f19601f8201168201806040525081019061288c91906145e3565b600e80546001600160a01b0319166001600160a01b0392831617905560115460408051637310bf1d60e11b81529051919092169163e6217e3a916004808301926020929190829003018186803b1580156128e557600080fd5b505afa1580156128f9573d6000803e3d6000fd5b505050506040513d601f19601f8201168201806040525081019061291d91906145e3565b601080546001600160a01b0319166001600160a01b039283161790556011546040805163d88127a160e01b81529051919092169163d88127a1916004808301926020929190829003018186803b15801561297657600080fd5b505afa15801561298a573d6000803e3d6000fd5b505050506040513d601f19601f820116820180604052508101906129ae91906145e3565b600b80546001600160a01b0319166001600160a01b0392909216919091179055565b601160009054906101000a90046001600160a01b03166001600160a01b03166321d7f0086040518163ffffffff1660e01b815260040160206040518083038186803b158015612a1e57600080fd5b505afa158015612a32573d6000803e3d6000fd5b505050506040513d601f19601f82011682018060405250810190612a5691906145e3565b600480546001600160a01b0319166001600160a01b039283161781556011546040805163762ddb5960e01b81529051919093169263762ddb599281810192602092909190829003018186803b158015612aae57600080fd5b505afa158015612ac2573d6000803e3d6000fd5b505050506040513d601f19601f82011682018060405250810190612ae691906145e3565b600580546001600160a01b0319166001600160a01b039283161790556011546040805163bfb7dc9960e01b81529051919092169163bfb7dc99916004808301926020929190829003018186803b158015612b3f57600080fd5b505afa158015612b53573d6000803e3d6000fd5b505050506040513d601f19601f82011682018060405250810190612b7791906145e3565b600680546001600160a01b0319166001600160a01b0392831617905560115460408051633e6111eb60e21b81529051919092169163f98447ac916004808301926020929190829003018186803b158015612bd057600080fd5b505afa158015612be4573d6000803e3d6000fd5b505050506040513d601f19601f82011682018060405250810190612c0891906145e3565b600780546001600160a01b0319166001600160a01b0392831617905560115460408051630fe1ba9f60e21b815290519190921691633f86ea7c916004808301926020929190829003018186803b158015612c6157600080fd5b505afa158015612c75573d6000803e3d6000fd5b505050506040513d601f19601f82011682018060405250810190612c9991906145e3565b600880546001600160a01b0319166001600160a01b0392831617905560115460408051632b90024160e11b8152905191909216916357200482916004808301926020929190829003018186803b158015612cf257600080fd5b505afa158015612d06573d6000803e3d6000fd5b505050506040513d601f19601f82011682018060405250810190612d2a91906145e3565b600980546001600160a01b0319166001600160a01b0392831617905560115460408051636b58477560e01b815290519190921691636b584775916004808301926020929190829003018186803b158015612d8357600080fd5b505afa158015612d97573d6000803e3d6000fd5b505050506040513d601f19601f82011682018060405250810190612dbb91906145e3565b600a80546001600160a01b0319166001600160a01b0392909216919091179055565b6001600160a01b0381163314612e4d5760405162461bcd60e51b815260206004820152602f60248201527f416363657373436f6e74726f6c3a2063616e206f6e6c792072656e6f756e636560448201526e103937b632b9903337b91039b2b63360891b6064820152608401610b71565b611b7e8282613b7d565b60006119b7836001600160a01b038416613be4565b60185460ff16612eb55760405162461bcd60e51b815260206004820152601460248201527314185d5cd8589b194e881b9bdd081c185d5cd95960621b6044820152606401610b71565b6018805460ff191690557f5db9ee0a495bf2e6ff9c91a7834c1ba4fdd244a5e8aa4e537bd38aeae4b073aa335b6040516001600160a01b03909116815260200160405180910390a1565b610ca783838360405180602001604052806000815250611b82565b60115460405163ca15c87360e01b81526004810183905260009182916001600160a01b039091169063ca15c8739060240160206040518083038186803b158015612f6357600080fd5b505afa158015612f77573d6000803e3d6000fd5b505050506040513d601f19601f82011682018060405250810190612f9b919061488c565b60405163ca15c87360e01b815260048101859052909150600090309063ca15c8739060240160206040518083038186803b158015612fd857600080fd5b505afa158015612fec573d6000803e3d6000fd5b505050506040513d601f19601f82011682018060405250810190613010919061488c565b9050600061301e8284614b5e565b9050600081116130635760405162461bcd60e51b815260206004820152601060248201526f4e6f7468696e6720746f2073796e632160801b6044820152606401610b71565b60005b8181101561316957601154604051632404341f60e21b815260048101889052602481018390526000916001600160a01b031690639010d07c9060440160206040518083038186803b1580156130ba57600080fd5b505afa1580156130ce573d6000803e3d6000fd5b505050506040513d601f19601f820116820180604052508101906130f291906145e3565b604051632f2ff15d60e01b8152600481018990526001600160a01b03821660248201529091503090632f2ff15d90604401600060405180830381600087803b15801561313d57600080fd5b505af1158015613151573d6000803e3d6000fd5b5050505050808061316190614bf3565b915050613066565b50600195945050505050565b601160009054906101000a90046001600160a01b03166001600160a01b031663ff7e88ec6040518163ffffffff1660e01b815260040160206040518083038186803b1580156131c357600080fd5b505afa1580156131d7573d6000803e3d6000fd5b505050506040513d601f19601f820116820180604052508101906131fb91906147d5565b601160156101000a81548160ff021916908315150217905550601160009054906101000a90046001600160a01b03166001600160a01b0316632fb565856040518163ffffffff1660e01b815260040160206040518083038186803b15801561326257600080fd5b505afa158015613276573d6000803e3d6000fd5b505050506040513d601f19601f8201168201806040525081019061329a91906147d5565b60118054911515600160b01b0260ff60b01b19909216919091179055565b6000805b601d548110156132fe576000818152601460205260409020546001600160a01b0316156132ec576132ec816134ee565b806132f681614bf3565b9150506132bc565b50506000601d55600190565b60006001600160a01b038316331480159061332d57506001600160a01b03831615155b61333657600080fd5b50601d54613345338383613cd1565b61335183601d54613d40565b6001601d60008282546133649190614b13565b909155505092915050565b60185460ff16156133b55760405162461bcd60e51b815260206004820152601060248201526f14185d5cd8589b194e881c185d5cd95960821b6044820152606401610b71565b6018805460ff191660011790557f62e78cea01bee320cd4e420270b5ea74000d11b0c9f74754ebdbfc544b05a258612ee23390565b60006119b78383613d5a565b6001600160a01b03821633141561344f5760405162461bcd60e51b815260206004820152601960248201527f4552433732313a20617070726f766520746f2063616c6c6572000000000000006044820152606401610b71565b3360008181526017602090815260408083206001600160a01b03871680855290835292819020805460ff191686151590811790915590519081529192917f17307eab39ab6107e8899845ad3d59bd9653f200f220920489ca2b5937696c31910160405180910390a35050565b6134c684848461396e565b6134d284848484613de0565b611bb45760405162461bcd60e51b8152600401610b7190614a23565b60006134f9826112a6565b905061350781600084613eed565b6135126000836120a1565b6001600160a01b038116600090815260156020526040812080546001929061353b908490614b5e565b909155505060008281526014602052604080822080546001600160a01b0319169055518391906001600160a01b038416907fddf252ad1be2c89b69c2b068fc378daa952ba7f163c4a11628f55a4df523b3ef908390a45050565b6060816135b95750506040805180820190915260018152600360fc1b602082015290565b8160005b81156135e357806135cd81614bf3565b91506135dc9050600a83614b2b565b91506135bd565b60008167ffffffffffffffff8111156135fe576135fe614c7a565b6040519080825280601f01601f191660200182016040528015613628576020820181803683370190505b5090505b8415611e265761363d600183614b5e565b915061364a600a86614c0e565b613655906030614b13565b60f81b81838151811061366a5761366a614c64565b60200101906001600160f81b031916908160001a90535061368c600a86614b2b565b945061362c565b6000610a64825490565b600082815260016020819052604082200154905460ff16156136c357610ca78383613b7d565b6136cd8133613b19565b610ca78383613b7d565b601160009054906101000a90046001600160a01b03166001600160a01b031663a44b93256040518163ffffffff1660e01b815260040160206040518083038186803b15801561372557600080fd5b505afa158015613739573d6000803e3d6000fd5b505050506040513d601f19601f8201168201806040525081019061375d91906147d5565b61376657600080fd5b601160009054906101000a90046001600160a01b03166001600160a01b031663ac7cfac36040518163ffffffff1660e01b815260040160206040518083038186803b1580156137b457600080fd5b505afa1580156137c8573d6000803e3d6000fd5b505050506040513d601f19601f820116820180604052508101906137ec91906145e3565b600380546001600160a01b0319166001600160a01b0392909216919091179055565b61381882826119be565b611b7e5760008281526001602081815260408084206001600160a01b0386168086529252808420805460ff19169093179092559051339285917f2f8788117e7eff1d82e926ec794901d17c78024a50270940304540a733656f0d9190a45050565b600081815260018301602052604081205461120857508154600181810184556000848152602080822090930184905584548482528286019093526040902091909155610a64565b60006001600160e01b031982166380ac58cd60e01b14806138f157506001600160e01b03198216635b5e139f60e01b145b80610a645750610a6482613ef8565b600081815260166020526040902080546001600160a01b0319166001600160a01b0384169081179091558190613935826112a6565b6001600160a01b03167f8c5be1e5ebec7d5bd14f71427d1e84f3dd0314c0f7b2291e5b200ac8c7c3b92560405160405180910390a45050565b826001600160a01b0316613981826112a6565b6001600160a01b0316146139e95760405162461bcd60e51b815260206004820152602960248201527f4552433732313a207472616e73666572206f6620746f6b656e2074686174206960448201526839903737ba1037bbb760b91b6064820152608401610b71565b6001600160a01b038216613a4b5760405162461bcd60e51b8152602060048201526024808201527f4552433732313a207472616e7366657220746f20746865207a65726f206164646044820152637265737360e01b6064820152608401610b71565b613a56838383613eed565b613a616000826120a1565b6001600160a01b0383166000908152601560205260408120805460019290613a8a908490614b5e565b90915550506001600160a01b0382166000908152601560205260408120805460019290613ab8908490614b13565b909155505060008181526014602052604080822080546001600160a01b0319166001600160a01b0386811691821790925591518493918716917fddf252ad1be2c89b69c2b068fc378daa952ba7f163c4a11628f55a4df523b3ef91a4505050565b613b2382826119be565b611b7e57613b3b816001600160a01b03166014613f1d565b613b46836020613f1d565b604051602001613b57929190614900565b60408051601f198184030181529082905262461bcd60e51b8252610b7191600401614a10565b613b8782826119be565b15611b7e5760008281526001602090815260408083206001600160a01b0385168085529252808320805460ff1916905551339285917ff6391f5c32d9c69d2a47ea670b442974b53935d1edc7fd64eb21e047a839171b9190a45050565b60008181526001830160205260408120548015613cc7576000613c08600183614b5e565b8554909150600090613c1c90600190614b5e565b90506000866000018281548110613c3557613c35614c64565b9060005260206000200154905080876000018481548110613c5857613c58614c64565b600091825260208083209091019290925582815260018901909152604090208490558654879080613c8b57613c8b614c4e565b60019003818190600052602060002001600090559055866001016000878152602001908152602001600020600090556001945050505050610a64565b6000915050610a64565b600081815260216020908152604090912080546001600160a01b0319166001600160a01b0386161781558351613d0f926001909201918501906144b7565b506001600160a01b039092166000908152602260209081526040822080546001810182559083529120019190915550565b611b7e8282604051806020016040528060008152506140b9565b81546000908210613db85760405162461bcd60e51b815260206004820152602260248201527f456e756d657261626c655365743a20696e646578206f7574206f6620626f756e604482015261647360f01b6064820152608401610b71565b826000018281548110613dcd57613dcd614c64565b9060005260206000200154905092915050565b60006001600160a01b0384163b15613ee257604051630a85bd0160e11b81526001600160a01b0385169063150b7a0290613e24903390899088908890600401614975565b602060405180830381600087803b158015613e3e57600080fd5b505af1925050508015613e6e575060408051601f3d908101601f19168201909252613e6b9181019061486f565b60015b613ec8573d808015613e9c576040519150601f19603f3d011682016040523d82523d6000602084013e613ea1565b606091505b508051613ec05760405162461bcd60e51b8152600401610b7190614a23565b805181602001fd5b6001600160e01b031916630a85bd0160e11b149050611e26565b506001949350505050565b610ca78383836140ec565b60006001600160e01b03198216635a05180f60e01b1480610a645750610a64826141a4565b60606000613f2c836002614b3f565b613f37906002614b13565b67ffffffffffffffff811115613f4f57613f4f614c7a565b6040519080825280601f01601f191660200182016040528015613f79576020820181803683370190505b509050600360fc1b81600081518110613f9457613f94614c64565b60200101906001600160f81b031916908160001a905350600f60fb1b81600181518110613fc357613fc3614c64565b60200101906001600160f81b031916908160001a9053506000613fe7846002614b3f565b613ff2906001614b13565b90505b600181111561406a576f181899199a1a9b1b9c1cb0b131b232b360811b85600f166010811061402657614026614c64565b1a60f81b82828151811061403c5761403c614c64565b60200101906001600160f81b031916908160001a90535060049490941c9361406381614ba1565b9050613ff5565b5083156119b75760405162461bcd60e51b815260206004820181905260248201527f537472696e67733a20686578206c656e67746820696e73756666696369656e746044820152606401610b71565b6140c383836141d9565b6140d06000848484613de0565b610ca75760405162461bcd60e51b8152600401610b7190614a23565b6001600160a01b0383166141475761414281601b80546000838152601c60205260408120829055600182018355919091527f3ad8aa4f87544323a9d1e5dd902f40c356527a7955687113db5f9a85ad579dc10155565b61416a565b816001600160a01b0316836001600160a01b03161461416a5761416a8382614327565b6001600160a01b03821661418157610ca7816143c4565b826001600160a01b0316826001600160a01b031614610ca757610ca78282614473565b60006001600160e01b03198216637965db0b60e01b1480610a6457506301ffc9a760e01b6001600160e01b0319831614610a64565b6001600160a01b03821661422f5760405162461bcd60e51b815260206004820181905260248201527f4552433732313a206d696e7420746f20746865207a65726f20616464726573736044820152606401610b71565b6000818152601460205260409020546001600160a01b0316156142945760405162461bcd60e51b815260206004820152601c60248201527f4552433732313a20746f6b656e20616c7265616479206d696e746564000000006044820152606401610b71565b6142a060008383613eed565b6001600160a01b03821660009081526015602052604081208054600192906142c9908490614b13565b909155505060008181526014602052604080822080546001600160a01b0319166001600160a01b03861690811790915590518392907fddf252ad1be2c89b69c2b068fc378daa952ba7f163c4a11628f55a4df523b3ef908290a45050565b60006001614334846113b5565b61433e9190614b5e565b6000838152601a6020526040902054909150808214614391576001600160a01b03841660009081526019602090815260408083208584528252808320548484528184208190558352601a90915290208190555b506000918252601a602090815260408084208490556001600160a01b039094168352601981528383209183525290812055565b601b546000906143d690600190614b5e565b6000838152601c6020526040812054601b80549394509092849081106143fe576143fe614c64565b9060005260206000200154905080601b838154811061441f5761441f614c64565b6000918252602080832090910192909255828152601c9091526040808220849055858252812055601b80548061445757614457614c4e565b6001900381819060005260206000200160009055905550505050565b600061447e836113b5565b6001600160a01b0390931660009081526019602090815260408083208684528252808320859055938252601a9052919091209190915550565b8280546144c390614bb8565b90600052602060002090601f0160209004810192826144e5576000855561452b565b82601f106144fe57805160ff191683800117855561452b565b8280016001018555821561452b579182015b8281111561452b578251825591602001919060010190614510565b5061453792915061453b565b5090565b5b80821115614537576000815560010161453c565b600067ffffffffffffffff8084111561456b5761456b614c7a565b604051601f8501601f19908116603f0116810190828211818310171561459357614593614c7a565b816040528093508581528686860111156145ac57600080fd5b858560208301376000602087830101525050509392505050565b6000602082840312156145d857600080fd5b81356119b781614c90565b6000602082840312156145f557600080fd5b81516119b781614c90565b6000806040838503121561461357600080fd5b823561461e81614c90565b9150602083013561462e81614c90565b809150509250929050565b60008060006060848603121561464e57600080fd5b833561465981614c90565b9250602084013561466981614c90565b929592945050506040919091013590565b6000806000806080858703121561469057600080fd5b843561469b81614c90565b935060208501356146ab81614c90565b925060408501359150606085013567ffffffffffffffff8111156146ce57600080fd5b8501601f810187136146df57600080fd5b6146ee87823560208401614550565b91505092959194509250565b6000806040838503121561470d57600080fd5b823561471881614c90565b9150602083013561462e81614ca5565b6000806040838503121561473b57600080fd5b823561474681614c90565b9150602083013567ffffffffffffffff81111561476257600080fd5b8301601f8101851361477357600080fd5b61478285823560208401614550565b9150509250929050565b6000806040838503121561479f57600080fd5b82356147aa81614c90565b946020939093013593505050565b6000602082840312156147ca57600080fd5b81356119b781614ca5565b6000602082840312156147e757600080fd5b81516119b781614ca5565b60006020828403121561480457600080fd5b5035919050565b6000806040838503121561481e57600080fd5b82359150602083013561462e81614c90565b6000806040838503121561484357600080fd5b50508035926020909101359150565b60006020828403121561486457600080fd5b81356119b781614cb3565b60006020828403121561488157600080fd5b81516119b781614cb3565b60006020828403121561489e57600080fd5b5051919050565b600081518084526148bd816020860160208601614b75565b601f01601f19169290920160200192915050565b600083516148e3818460208801614b75565b8351908301906148f7818360208801614b75565b01949350505050565b7f416363657373436f6e74726f6c3a206163636f756e7420000000000000000000815260008351614938816017850160208801614b75565b7001034b99036b4b9b9b4b733903937b6329607d1b6017918401918201528351614969816028840160208801614b75565b01602801949350505050565b6001600160a01b0385811682528416602082015260408101839052608060608201819052600090611813908301846148a5565b6001600160a01b0383168152604060208201819052600090611e26908301846148a5565b6020808252825182820181905260009190848201906040850190845b81811015614a04578351835292840192918401916001016149e8565b50909695505050505050565b6020815260006119b760208301846148a5565b60208082526032908201527f4552433732313a207472616e7366657220746f206e6f6e20455243373231526560408201527131b2b4bb32b91034b6b83632b6b2b73a32b960711b606082015260800190565b6020808252602d908201527f596f7520646f206e6f742068617665207065726d697373696f6e20746f206d6f60408201526c7665207468697320626164676560981b606082015260800190565b60208082526031908201527f4552433732313a207472616e736665722063616c6c6572206973206e6f74206f6040820152701ddb995c881b9bdc88185c1c1c9bdd9959607a1b606082015260800190565b60008219821115614b2657614b26614c22565b500190565b600082614b3a57614b3a614c38565b500490565b6000816000190483118215151615614b5957614b59614c22565b500290565b600082821015614b7057614b70614c22565b500390565b60005b83811015614b90578181015183820152602001614b78565b83811115611bb45750506000910152565b600081614bb057614bb0614c22565b506000190190565b600181811c90821680614bcc57607f821691505b60208210811415614bed57634e487b7160e01b600052602260045260246000fd5b50919050565b6000600019821415614c0757614c07614c22565b5060010190565b600082614c1d57614c1d614c38565b500690565b634e487b7160e01b600052601160045260246000fd5b634e487b7160e01b600052601260045260246000fd5b634e487b7160e01b600052603160045260246000fd5b634e487b7160e01b600052603260045260246000fd5b634e487b7160e01b600052604160045260246000fd5b6001600160a01b0381168114610d0f57600080fd5b8015158114610d0f57600080fd5b6001600160e01b031981168114610d0f57600080fdfefa8e4989e1d689f7bc5c4b25b87efb51fecdecb19ba62847e29c759e12a89acd048bc71fa1cb2c119c339cf9cf00a97996a19a9d991ce5fe049f2fa5459e7990f0f4b159a6e2a4815eb3ca3df080bfa70c9270662c59bcaa4479a456220183e60538d24a8b7882d7b2e36af243d4af61c23e86e3daa6cb8c887b53220b2f57207c9d7f6f02908185bffb3f7fc9afb29fd7bf93675af8fd4b655ee05c2cee1e0ea2646970667358221220af438f0d757fd474e62222d44b81f91a049dab48551fa9b437ae3afde889323364736f6c63430008060033",
  "immutableReferences": {},
  "source": "pragma solidity ^0.8.0;\n\nimport \"../src/ERC721/TippingBadge.sol\";\n\n\ncontract GoldStars is TippingBadge {\n\n\n     constructor(address _AddressManagerAddress)\n        TippingBadge(\"GoldStars\", \"Gold\", _AddressManagerAddress)\n    {\n    }      \n\n  \n}",
  "sourcePath": "/home/n/Desktop/PinkSlips_FrontEnd_REFORMAT/contracts/badges/GoldStars.sol",
  "compiler": {
    "name": "solc",
    "version": "0.8.6+commit.11564f7e.Emscripten.clang"
  },
  "schemaVersion": "3.4.1",
  "updatedAt": "2021-08-09T09:06:52.906Z",
  "networkType": "ethereum",
  "devdoc": {
    "kind": "dev",
    "methods": {
      "approve(address,uint256)": {
        "details": "See {IERC721-approve}."
      },
      "balanceOf(address)": {
        "details": "See {IERC721-balanceOf}."
      },
      "getApproved(uint256)": {
        "details": "See {IERC721-getApproved}."
      },
      "getRoleAdmin(bytes32)": {
        "details": "Returns the admin role that controls `role`. See {grantRole} and {revokeRole}. To change a role's admin, use {_setRoleAdmin}."
      },
      "getRoleMember(bytes32,uint256)": {
        "details": "Returns one of the accounts that have `role`. `index` must be a value between 0 and {getRoleMemberCount}, non-inclusive. Role bearers are not sorted in any particular way, and their ordering may change at any point. WARNING: When using {getRoleMember} and {getRoleMemberCount}, make sure you perform all queries on the same block. See the following https://forum.openzeppelin.com/t/iterating-over-elements-on-enumerableset-in-openzeppelin-contracts/2296[forum post] for more information."
      },
      "getRoleMemberCount(bytes32)": {
        "details": "Returns the number of accounts that have `role`. Can be used together with {getRoleMember} to enumerate all bearers of a role."
      },
      "grantRole(bytes32,address)": {
        "details": "Overload {grantRole} to track enumerable memberships"
      },
      "hasRole(bytes32,address)": {
        "details": "Returns `true` if `account` has been granted `role`."
      },
      "isApprovedForAll(address,address)": {
        "details": "See {IERC721-isApprovedForAll}."
      },
      "issueBadge(address,string)": {
        "details": "//// Issuance Desk                                                                            ////"
      },
      "name()": {
        "details": "See {IERC721Metadata-name}."
      },
      "ownerOf(uint256)": {
        "details": "See {IERC721-ownerOf}."
      },
      "pause()": {
        "details": "//// Maintanence\\\\\\\\\\\\\\\\\\\\\\\\\\\\\\\\\\\\\\\\\\\\\\\\\\\\\\                                                   ////"
      },
      "paused()": {
        "details": "Returns true if the contract is paused, and false otherwise."
      },
      "renounceRole(bytes32,address)": {
        "details": "Overload {renounceRole} to track enumerable memberships"
      },
      "revokeRole(bytes32,address)": {
        "details": "Overload {revokeRole} to track enumerable memberships"
      },
      "safeTransferFrom(address,address,uint256)": {
        "details": "See {IERC721-safeTransferFrom}."
      },
      "safeTransferFrom(address,address,uint256,bytes)": {
        "details": "See {IERC721-safeTransferFrom}."
      },
      "setApprovalForAll(address,bool)": {
        "details": "See {IERC721-setApprovalForAll}."
      },
      "setMintingCost(uint256)": {
        "details": "//// Set Minting Costs                                                                        ////"
      },
      "symbol()": {
        "details": "See {IERC721Metadata-symbol}."
      },
      "tokenByIndex(uint256)": {
        "details": "See {IERC721Enumerable-tokenByIndex}."
      },
      "tokenOfOwnerByIndex(address,uint256)": {
        "details": "See {IERC721Enumerable-tokenOfOwnerByIndex}."
      },
      "tokenURI(uint256)": {
        "details": "See {IERC721Metadata-tokenURI}."
      },
      "totalSupply()": {
        "details": "See {IERC721Enumerable-totalSupply}."
      },
      "transferFrom(address,address,uint256)": {
        "details": "See {IERC721-transferFrom}."
      }
    },
    "version": 1
  },
  "userdoc": {
    "kind": "user",
    "methods": {},
    "version": 1
  }
}