{
  "contractName": "GoldStars",
  "abi": [
    {
      "inputs": [
        {
          "internalType": "address",
          "name": "_AddressManagerAddress",
          "type": "address"
        }
      ],
      "stateMutability": "nonpayable",
      "type": "constructor"
    },
    {
      "anonymous": false,
      "inputs": [
        {
          "indexed": true,
          "internalType": "address",
          "name": "owner",
          "type": "address"
        },
        {
          "indexed": true,
          "internalType": "address",
          "name": "approved",
          "type": "address"
        },
        {
          "indexed": true,
          "internalType": "uint256",
          "name": "tokenId",
          "type": "uint256"
        }
      ],
      "name": "Approval",
      "type": "event"
    },
    {
      "anonymous": false,
      "inputs": [
        {
          "indexed": true,
          "internalType": "address",
          "name": "owner",
          "type": "address"
        },
        {
          "indexed": true,
          "internalType": "address",
          "name": "operator",
          "type": "address"
        },
        {
          "indexed": false,
          "internalType": "bool",
          "name": "approved",
          "type": "bool"
        }
      ],
      "name": "ApprovalForAll",
      "type": "event"
    },
    {
      "anonymous": false,
      "inputs": [
        {
          "indexed": false,
          "internalType": "address",
          "name": "account",
          "type": "address"
        }
      ],
      "name": "Paused",
      "type": "event"
    },
    {
      "anonymous": false,
      "inputs": [
        {
          "indexed": true,
          "internalType": "bytes32",
          "name": "role",
          "type": "bytes32"
        },
        {
          "indexed": true,
          "internalType": "bytes32",
          "name": "previousAdminRole",
          "type": "bytes32"
        },
        {
          "indexed": true,
          "internalType": "bytes32",
          "name": "newAdminRole",
          "type": "bytes32"
        }
      ],
      "name": "RoleAdminChanged",
      "type": "event"
    },
    {
      "anonymous": false,
      "inputs": [
        {
          "indexed": true,
          "internalType": "bytes32",
          "name": "role",
          "type": "bytes32"
        },
        {
          "indexed": true,
          "internalType": "address",
          "name": "account",
          "type": "address"
        },
        {
          "indexed": true,
          "internalType": "address",
          "name": "sender",
          "type": "address"
        }
      ],
      "name": "RoleGranted",
      "type": "event"
    },
    {
      "anonymous": false,
      "inputs": [
        {
          "indexed": true,
          "internalType": "bytes32",
          "name": "role",
          "type": "bytes32"
        },
        {
          "indexed": true,
          "internalType": "address",
          "name": "account",
          "type": "address"
        },
        {
          "indexed": true,
          "internalType": "address",
          "name": "sender",
          "type": "address"
        }
      ],
      "name": "RoleRevoked",
      "type": "event"
    },
    {
      "anonymous": false,
      "inputs": [
        {
          "indexed": true,
          "internalType": "address",
          "name": "from",
          "type": "address"
        },
        {
          "indexed": true,
          "internalType": "address",
          "name": "to",
          "type": "address"
        },
        {
          "indexed": true,
          "internalType": "uint256",
          "name": "tokenId",
          "type": "uint256"
        }
      ],
      "name": "Transfer",
      "type": "event"
    },
    {
      "anonymous": false,
      "inputs": [
        {
          "indexed": false,
          "internalType": "address",
          "name": "account",
          "type": "address"
        }
      ],
      "name": "Unpaused",
      "type": "event"
    },
    {
      "inputs": [],
      "name": "AddressManagerAddress",
      "outputs": [
        {
          "internalType": "address",
          "name": "",
          "type": "address"
        }
      ],
      "stateMutability": "view",
      "type": "function",
      "constant": true
    },
    {
      "inputs": [
        {
          "internalType": "uint256",
          "name": "",
          "type": "uint256"
        }
      ],
      "name": "BadgeInfo",
      "outputs": [
        {
          "internalType": "address",
          "name": "gifter",
          "type": "address"
        },
        {
          "internalType": "string",
          "name": "reason",
          "type": "string"
        }
      ],
      "stateMutability": "view",
      "type": "function",
      "constant": true
    },
    {
      "inputs": [
        {
          "internalType": "address",
          "name": "",
          "type": "address"
        },
        {
          "internalType": "uint256",
          "name": "",
          "type": "uint256"
        }
      ],
      "name": "BadgesSent",
      "outputs": [
        {
          "internalType": "uint256",
          "name": "",
          "type": "uint256"
        }
      ],
      "stateMutability": "view",
      "type": "function",
      "constant": true
    },
    {
      "inputs": [],
      "name": "ChadBadgeAddress",
      "outputs": [
        {
          "internalType": "address",
          "name": "",
          "type": "address"
        }
      ],
      "stateMutability": "view",
      "type": "function",
      "constant": true
    },
    {
      "inputs": [],
      "name": "ColoredIDAddress",
      "outputs": [
        {
          "internalType": "address",
          "name": "",
          "type": "address"
        }
      ],
      "stateMutability": "view",
      "type": "function",
      "constant": true
    },
    {
      "inputs": [],
      "name": "CourtClerk",
      "outputs": [
        {
          "internalType": "address",
          "name": "",
          "type": "address"
        }
      ],
      "stateMutability": "view",
      "type": "function",
      "constant": true
    },
    {
      "inputs": [],
      "name": "DEFAULT_ADMIN_ROLE",
      "outputs": [
        {
          "internalType": "bytes32",
          "name": "",
          "type": "bytes32"
        }
      ],
      "stateMutability": "view",
      "type": "function",
      "constant": true
    },
    {
      "inputs": [],
      "name": "GAVELS_BAILIFF",
      "outputs": [
        {
          "internalType": "bytes32",
          "name": "",
          "type": "bytes32"
        }
      ],
      "stateMutability": "view",
      "type": "function",
      "constant": true
    },
    {
      "inputs": [],
      "name": "GavelDAOAgent",
      "outputs": [
        {
          "internalType": "address",
          "name": "",
          "type": "address"
        }
      ],
      "stateMutability": "view",
      "type": "function",
      "constant": true
    },
    {
      "inputs": [],
      "name": "GavelTokenAddress",
      "outputs": [
        {
          "internalType": "address",
          "name": "",
          "type": "address"
        }
      ],
      "stateMutability": "view",
      "type": "function",
      "constant": true
    },
    {
      "inputs": [],
      "name": "GavelVote",
      "outputs": [
        {
          "internalType": "bool",
          "name": "",
          "type": "bool"
        }
      ],
      "stateMutability": "view",
      "type": "function",
      "constant": true
    },
    {
      "inputs": [],
      "name": "GoldStarAddress",
      "outputs": [
        {
          "internalType": "address",
          "name": "",
          "type": "address"
        }
      ],
      "stateMutability": "view",
      "type": "function",
      "constant": true
    },
    {
      "inputs": [],
      "name": "JERK_ROLE",
      "outputs": [
        {
          "internalType": "bytes32",
          "name": "",
          "type": "bytes32"
        }
      ],
      "stateMutability": "view",
      "type": "function",
      "constant": true
    },
    {
      "inputs": [],
      "name": "JURY_BAILIFF",
      "outputs": [
        {
          "internalType": "bytes32",
          "name": "",
          "type": "bytes32"
        }
      ],
      "stateMutability": "view",
      "type": "function",
      "constant": true
    },
    {
      "inputs": [],
      "name": "JuryDAOAgent",
      "outputs": [
        {
          "internalType": "address",
          "name": "",
          "type": "address"
        }
      ],
      "stateMutability": "view",
      "type": "function",
      "constant": true
    },
    {
      "inputs": [],
      "name": "JuryPoolAddress",
      "outputs": [
        {
          "internalType": "address",
          "name": "",
          "type": "address"
        }
      ],
      "stateMutability": "view",
      "type": "function",
      "constant": true
    },
    {
      "inputs": [],
      "name": "JuryVote",
      "outputs": [
        {
          "internalType": "bool",
          "name": "",
          "type": "bool"
        }
      ],
      "stateMutability": "view",
      "type": "function",
      "constant": true
    },
    {
      "inputs": [],
      "name": "MINI_BAILIFF_ROLE",
      "outputs": [
        {
          "internalType": "bytes32",
          "name": "",
          "type": "bytes32"
        }
      ],
      "stateMutability": "view",
      "type": "function",
      "constant": true
    },
    {
      "inputs": [],
      "name": "MiniBailiff",
      "outputs": [
        {
          "internalType": "address",
          "name": "",
          "type": "address"
        }
      ],
      "stateMutability": "view",
      "type": "function",
      "constant": true
    },
    {
      "inputs": [],
      "name": "PinkSlipAddress",
      "outputs": [
        {
          "internalType": "address",
          "name": "",
          "type": "address"
        }
      ],
      "stateMutability": "view",
      "type": "function",
      "constant": true
    },
    {
      "inputs": [],
      "name": "RedPenTokenAddress",
      "outputs": [
        {
          "internalType": "address",
          "name": "",
          "type": "address"
        }
      ],
      "stateMutability": "view",
      "type": "function",
      "constant": true
    },
    {
      "inputs": [],
      "name": "THE_COURT_ROLE",
      "outputs": [
        {
          "internalType": "bytes32",
          "name": "",
          "type": "bytes32"
        }
      ],
      "stateMutability": "view",
      "type": "function",
      "constant": true
    },
    {
      "inputs": [],
      "name": "TheCourtAddress",
      "outputs": [
        {
          "internalType": "address",
          "name": "",
          "type": "address"
        }
      ],
      "stateMutability": "view",
      "type": "function",
      "constant": true
    },
    {
      "inputs": [],
      "name": "TreasuryAddress",
      "outputs": [
        {
          "internalType": "address",
          "name": "",
          "type": "address"
        }
      ],
      "stateMutability": "view",
      "type": "function",
      "constant": true
    },
    {
      "inputs": [],
      "name": "addressManager",
      "outputs": [
        {
          "internalType": "contract AddressManager",
          "name": "",
          "type": "address"
        }
      ],
      "stateMutability": "view",
      "type": "function",
      "constant": true
    },
    {
      "inputs": [
        {
          "internalType": "address",
          "name": "to",
          "type": "address"
        },
        {
          "internalType": "uint256",
          "name": "tokenId",
          "type": "uint256"
        }
      ],
      "name": "approve",
      "outputs": [],
      "stateMutability": "nonpayable",
      "type": "function"
    },
    {
      "inputs": [],
      "name": "badgeColor",
      "outputs": [
        {
          "internalType": "string",
          "name": "",
          "type": "string"
        }
      ],
      "stateMutability": "view",
      "type": "function",
      "constant": true
    },
    {
      "inputs": [],
      "name": "badgeName",
      "outputs": [
        {
          "internalType": "string",
          "name": "",
          "type": "string"
        }
      ],
      "stateMutability": "view",
      "type": "function",
      "constant": true
    },
    {
      "inputs": [
        {
          "internalType": "address",
          "name": "owner",
          "type": "address"
        }
      ],
      "name": "balanceOf",
      "outputs": [
        {
          "internalType": "uint256",
          "name": "",
          "type": "uint256"
        }
      ],
      "stateMutability": "view",
      "type": "function",
      "constant": true
    },
    {
      "inputs": [],
      "name": "baseURI_",
      "outputs": [
        {
          "internalType": "string",
          "name": "",
          "type": "string"
        }
      ],
      "stateMutability": "view",
      "type": "function",
      "constant": true
    },
    {
      "inputs": [
        {
          "internalType": "uint256",
          "name": "valueMustBe69",
          "type": "uint256"
        }
      ],
      "name": "destroyAndLockContract",
      "outputs": [
        {
          "internalType": "bool",
          "name": "",
          "type": "bool"
        }
      ],
      "stateMutability": "nonpayable",
      "type": "function"
    },
    {
      "inputs": [
        {
          "internalType": "uint256",
          "name": "tokenId",
          "type": "uint256"
        }
      ],
      "name": "getApproved",
      "outputs": [
        {
          "internalType": "address",
          "name": "",
          "type": "address"
        }
      ],
      "stateMutability": "view",
      "type": "function",
      "constant": true
    },
    {
      "inputs": [
        {
          "internalType": "uint256",
          "name": "_tokenId",
          "type": "uint256"
        }
      ],
      "name": "getBadgeReason",
      "outputs": [
        {
          "internalType": "string",
          "name": "_theReason",
          "type": "string"
        }
      ],
      "stateMutability": "view",
      "type": "function",
      "constant": true
    },
    {
      "inputs": [
        {
          "internalType": "uint256",
          "name": "_tokenId",
          "type": "uint256"
        }
      ],
      "name": "getBadgeSender",
      "outputs": [
        {
          "internalType": "address",
          "name": "_theGifter",
          "type": "address"
        }
      ],
      "stateMutability": "view",
      "type": "function",
      "constant": true
    },
    {
      "inputs": [
        {
          "internalType": "address",
          "name": "_gifter",
          "type": "address"
        }
      ],
      "name": "getBadgesSent",
      "outputs": [
        {
          "internalType": "uint256[]",
          "name": "_BadgesSent",
          "type": "uint256[]"
        }
      ],
      "stateMutability": "view",
      "type": "function",
      "constant": true
    },
    {
      "inputs": [
        {
          "internalType": "bytes32",
          "name": "role",
          "type": "bytes32"
        }
      ],
      "name": "getRoleAdmin",
      "outputs": [
        {
          "internalType": "bytes32",
          "name": "",
          "type": "bytes32"
        }
      ],
      "stateMutability": "view",
      "type": "function",
      "constant": true
    },
    {
      "inputs": [
        {
          "internalType": "bytes32",
          "name": "role",
          "type": "bytes32"
        },
        {
          "internalType": "uint256",
          "name": "index",
          "type": "uint256"
        }
      ],
      "name": "getRoleMember",
      "outputs": [
        {
          "internalType": "address",
          "name": "",
          "type": "address"
        }
      ],
      "stateMutability": "view",
      "type": "function",
      "constant": true
    },
    {
      "inputs": [
        {
          "internalType": "bytes32",
          "name": "role",
          "type": "bytes32"
        }
      ],
      "name": "getRoleMemberCount",
      "outputs": [
        {
          "internalType": "uint256",
          "name": "",
          "type": "uint256"
        }
      ],
      "stateMutability": "view",
      "type": "function",
      "constant": true
    },
    {
      "inputs": [
        {
          "internalType": "bytes32",
          "name": "role",
          "type": "bytes32"
        },
        {
          "internalType": "address",
          "name": "account",
          "type": "address"
        }
      ],
      "name": "grantRole",
      "outputs": [],
      "stateMutability": "nonpayable",
      "type": "function"
    },
    {
      "inputs": [
        {
          "internalType": "bytes32",
          "name": "role",
          "type": "bytes32"
        },
        {
          "internalType": "address",
          "name": "account",
          "type": "address"
        }
      ],
      "name": "hasRole",
      "outputs": [
        {
          "internalType": "bool",
          "name": "",
          "type": "bool"
        }
      ],
      "stateMutability": "view",
      "type": "function",
      "constant": true
    },
    {
      "inputs": [
        {
          "internalType": "address",
          "name": "owner",
          "type": "address"
        },
        {
          "internalType": "address",
          "name": "operator",
          "type": "address"
        }
      ],
      "name": "isApprovedForAll",
      "outputs": [
        {
          "internalType": "bool",
          "name": "",
          "type": "bool"
        }
      ],
      "stateMutability": "view",
      "type": "function",
      "constant": true
    },
    {
      "inputs": [
        {
          "internalType": "address",
          "name": "addressToCheck",
          "type": "address"
        },
        {
          "internalType": "uint256",
          "name": "badgeTokenID",
          "type": "uint256"
        }
      ],
      "name": "isBadgeSender",
      "outputs": [
        {
          "internalType": "bool",
          "name": "",
          "type": "bool"
        }
      ],
      "stateMutability": "view",
      "type": "function",
      "constant": true
    },
    {
      "inputs": [],
      "name": "isForeverLocked",
      "outputs": [
        {
          "internalType": "bool",
          "name": "",
          "type": "bool"
        }
      ],
      "stateMutability": "view",
      "type": "function",
      "constant": true
    },
    {
      "inputs": [
        {
          "internalType": "address",
          "name": "receivingAddress",
          "type": "address"
        },
        {
          "internalType": "string",
          "name": "_reason",
          "type": "string"
        }
      ],
      "name": "issueBadge",
      "outputs": [
        {
          "internalType": "uint256",
          "name": "newId",
          "type": "uint256"
        }
      ],
      "stateMutability": "nonpayable",
      "type": "function"
    },
    {
      "inputs": [
        {
          "internalType": "address",
          "name": "receivingAddress",
          "type": "address"
        },
        {
          "internalType": "string",
          "name": "_reason",
          "type": "string"
        },
        {
          "internalType": "uint256",
          "name": "_tipAmount",
          "type": "uint256"
        },
        {
          "internalType": "string",
          "name": "_tokenURI",
          "type": "string"
        }
      ],
      "name": "issueBadge",
      "outputs": [
        {
          "internalType": "uint256",
          "name": "newId",
          "type": "uint256"
        }
      ],
      "stateMutability": "nonpayable",
      "type": "function"
    },
    {
      "inputs": [
        {
          "internalType": "address",
          "name": "receivingAddress",
          "type": "address"
        },
        {
          "internalType": "string",
          "name": "_reason",
          "type": "string"
        },
        {
          "internalType": "uint256",
          "name": "_tipAmount",
          "type": "uint256"
        }
      ],
      "name": "issueBadge",
      "outputs": [
        {
          "internalType": "uint256",
          "name": "newId",
          "type": "uint256"
        }
      ],
      "stateMutability": "nonpayable",
      "type": "function"
    },
    {
      "inputs": [
        {
          "internalType": "address",
          "name": "receivingAddress",
          "type": "address"
        },
        {
          "internalType": "string",
          "name": "_reason",
          "type": "string"
        },
        {
          "internalType": "string",
          "name": "_tokenURI",
          "type": "string"
        }
      ],
      "name": "issueBadge",
      "outputs": [
        {
          "internalType": "uint256",
          "name": "newId",
          "type": "uint256"
        }
      ],
      "stateMutability": "nonpayable",
      "type": "function"
    },
    {
      "inputs": [],
      "name": "jerkSanctions",
      "outputs": [
        {
          "internalType": "bool",
          "name": "",
          "type": "bool"
        }
      ],
      "stateMutability": "view",
      "type": "function",
      "constant": true
    },
    {
      "inputs": [],
      "name": "mintingCost",
      "outputs": [
        {
          "internalType": "uint256",
          "name": "",
          "type": "uint256"
        }
      ],
      "stateMutability": "view",
      "type": "function",
      "constant": true
    },
    {
      "inputs": [],
      "name": "mintingCostFloor",
      "outputs": [
        {
          "internalType": "uint256",
          "name": "",
          "type": "uint256"
        }
      ],
      "stateMutability": "view",
      "type": "function",
      "constant": true
    },
    {
      "inputs": [],
      "name": "name",
      "outputs": [
        {
          "internalType": "string",
          "name": "",
          "type": "string"
        }
      ],
      "stateMutability": "view",
      "type": "function",
      "constant": true
    },
    {
      "inputs": [],
      "name": "nextTokenId",
      "outputs": [
        {
          "internalType": "uint256",
          "name": "_nextTokenId",
          "type": "uint256"
        }
      ],
      "stateMutability": "view",
      "type": "function",
      "constant": true
    },
    {
      "inputs": [
        {
          "internalType": "uint256",
          "name": "tokenId",
          "type": "uint256"
        }
      ],
      "name": "ownerOf",
      "outputs": [
        {
          "internalType": "address",
          "name": "",
          "type": "address"
        }
      ],
      "stateMutability": "view",
      "type": "function",
      "constant": true
    },
    {
      "inputs": [],
      "name": "pause",
      "outputs": [],
      "stateMutability": "nonpayable",
      "type": "function"
    },
    {
      "inputs": [],
      "name": "paused",
      "outputs": [
        {
          "internalType": "bool",
          "name": "",
          "type": "bool"
        }
      ],
      "stateMutability": "view",
      "type": "function",
      "constant": true
    },
    {
      "inputs": [],
      "name": "payItForwardTreasuryRatio_Divisor",
      "outputs": [
        {
          "internalType": "uint256",
          "name": "",
          "type": "uint256"
        }
      ],
      "stateMutability": "view",
      "type": "function",
      "constant": true
    },
    {
      "inputs": [],
      "name": "payItForwardTreasuryRatio_Numerator",
      "outputs": [
        {
          "internalType": "uint256",
          "name": "",
          "type": "uint256"
        }
      ],
      "stateMutability": "view",
      "type": "function",
      "constant": true
    },
    {
      "inputs": [],
      "name": "redPens",
      "outputs": [
        {
          "internalType": "contract ERC20",
          "name": "",
          "type": "address"
        }
      ],
      "stateMutability": "view",
      "type": "function",
      "constant": true
    },
    {
      "inputs": [
        {
          "internalType": "bool",
          "name": "thisIsNotReversible",
          "type": "bool"
        }
      ],
      "name": "refreshBadges",
      "outputs": [
        {
          "internalType": "bool",
          "name": "",
          "type": "bool"
        }
      ],
      "stateMutability": "nonpayable",
      "type": "function"
    },
    {
      "inputs": [
        {
          "internalType": "bytes32",
          "name": "role",
          "type": "bytes32"
        },
        {
          "internalType": "address",
          "name": "account",
          "type": "address"
        }
      ],
      "name": "renounceRole",
      "outputs": [],
      "stateMutability": "nonpayable",
      "type": "function"
    },
    {
      "inputs": [],
      "name": "resetVote",
      "outputs": [],
      "stateMutability": "nonpayable",
      "type": "function"
    },
    {
      "inputs": [
        {
          "internalType": "uint256",
          "name": "tokenId",
          "type": "uint256"
        }
      ],
      "name": "revokeBadge",
      "outputs": [],
      "stateMutability": "nonpayable",
      "type": "function"
    },
    {
      "inputs": [
        {
          "internalType": "bytes32",
          "name": "role",
          "type": "bytes32"
        },
        {
          "internalType": "address",
          "name": "account",
          "type": "address"
        }
      ],
      "name": "revokeRole",
      "outputs": [],
      "stateMutability": "nonpayable",
      "type": "function"
    },
    {
      "inputs": [
        {
          "internalType": "address",
          "name": "from",
          "type": "address"
        },
        {
          "internalType": "address",
          "name": "to",
          "type": "address"
        },
        {
          "internalType": "uint256",
          "name": "tokenId",
          "type": "uint256"
        }
      ],
      "name": "safeTransferFrom",
      "outputs": [],
      "stateMutability": "nonpayable",
      "type": "function"
    },
    {
      "inputs": [
        {
          "internalType": "address",
          "name": "from",
          "type": "address"
        },
        {
          "internalType": "address",
          "name": "to",
          "type": "address"
        },
        {
          "internalType": "uint256",
          "name": "tokenId",
          "type": "uint256"
        },
        {
          "internalType": "bytes",
          "name": "_data",
          "type": "bytes"
        }
      ],
      "name": "safeTransferFrom",
      "outputs": [],
      "stateMutability": "nonpayable",
      "type": "function"
    },
    {
      "inputs": [
        {
          "internalType": "address",
          "name": "operator",
          "type": "address"
        },
        {
          "internalType": "bool",
          "name": "approved",
          "type": "bool"
        }
      ],
      "name": "setApprovalForAll",
      "outputs": [],
      "stateMutability": "nonpayable",
      "type": "function"
    },
    {
      "inputs": [
        {
          "internalType": "string",
          "name": "_baseURIString",
          "type": "string"
        }
      ],
      "name": "setBaseURI",
      "outputs": [
        {
          "internalType": "bool",
          "name": "",
          "type": "bool"
        }
      ],
      "stateMutability": "nonpayable",
      "type": "function"
    },
    {
      "inputs": [
        {
          "internalType": "uint256",
          "name": "costInWei",
          "type": "uint256"
        }
      ],
      "name": "setMintingCost",
      "outputs": [
        {
          "internalType": "bool",
          "name": "",
          "type": "bool"
        }
      ],
      "stateMutability": "nonpayable",
      "type": "function"
    },
    {
      "inputs": [
        {
          "internalType": "uint256",
          "name": "costFloorInWei",
          "type": "uint256"
        }
      ],
      "name": "setMintingCostFloor",
      "outputs": [
        {
          "internalType": "bool",
          "name": "",
          "type": "bool"
        }
      ],
      "stateMutability": "nonpayable",
      "type": "function"
    },
    {
      "inputs": [
        {
          "internalType": "uint256",
          "name": "_numerator",
          "type": "uint256"
        },
        {
          "internalType": "uint256",
          "name": "_divisor",
          "type": "uint256"
        }
      ],
      "name": "setTipRatio",
      "outputs": [
        {
          "internalType": "bool",
          "name": "",
          "type": "bool"
        }
      ],
      "stateMutability": "nonpayable",
      "type": "function"
    },
    {
      "inputs": [
        {
          "internalType": "bytes4",
          "name": "interfaceId",
          "type": "bytes4"
        }
      ],
      "name": "supportsInterface",
      "outputs": [
        {
          "internalType": "bool",
          "name": "",
          "type": "bool"
        }
      ],
      "stateMutability": "view",
      "type": "function",
      "constant": true
    },
    {
      "inputs": [],
      "name": "symbol",
      "outputs": [
        {
          "internalType": "string",
          "name": "",
          "type": "string"
        }
      ],
      "stateMutability": "view",
      "type": "function",
      "constant": true
    },
    {
      "inputs": [],
      "name": "syncAllRoles",
      "outputs": [],
      "stateMutability": "nonpayable",
      "type": "function"
    },
    {
      "inputs": [
        {
          "internalType": "bytes32",
          "name": "ROLE_TO_SYNC",
          "type": "bytes32"
        }
      ],
      "name": "syncSingleRole",
      "outputs": [],
      "stateMutability": "nonpayable",
      "type": "function"
    },
    {
      "inputs": [],
      "name": "syncVotes",
      "outputs": [],
      "stateMutability": "nonpayable",
      "type": "function"
    },
    {
      "inputs": [
        {
          "internalType": "uint256",
          "name": "index",
          "type": "uint256"
        }
      ],
      "name": "tokenByIndex",
      "outputs": [
        {
          "internalType": "uint256",
          "name": "",
          "type": "uint256"
        }
      ],
      "stateMutability": "view",
      "type": "function",
      "constant": true
    },
    {
      "inputs": [
        {
          "internalType": "address",
          "name": "owner",
          "type": "address"
        },
        {
          "internalType": "uint256",
          "name": "index",
          "type": "uint256"
        }
      ],
      "name": "tokenOfOwnerByIndex",
      "outputs": [
        {
          "internalType": "uint256",
          "name": "",
          "type": "uint256"
        }
      ],
      "stateMutability": "view",
      "type": "function",
      "constant": true
    },
    {
      "inputs": [
        {
          "internalType": "uint256",
          "name": "_tokenId",
          "type": "uint256"
        }
      ],
      "name": "tokenURI",
      "outputs": [
        {
          "internalType": "string",
          "name": "_URI",
          "type": "string"
        }
      ],
      "stateMutability": "view",
      "type": "function",
      "constant": true
    },
    {
      "inputs": [],
      "name": "totalSupply",
      "outputs": [
        {
          "internalType": "uint256",
          "name": "",
          "type": "uint256"
        }
      ],
      "stateMutability": "view",
      "type": "function",
      "constant": true
    },
    {
      "inputs": [
        {
          "internalType": "address",
          "name": "from",
          "type": "address"
        },
        {
          "internalType": "address",
          "name": "to",
          "type": "address"
        },
        {
          "internalType": "uint256",
          "name": "tokenId",
          "type": "uint256"
        }
      ],
      "name": "transferFrom",
      "outputs": [],
      "stateMutability": "nonpayable",
      "type": "function"
    },
    {
      "inputs": [],
      "name": "unpause",
      "outputs": [],
      "stateMutability": "nonpayable",
      "type": "function"
    },
    {
      "inputs": [],
      "name": "updateAddressManager",
      "outputs": [],
      "stateMutability": "nonpayable",
      "type": "function"
    },
    {
      "inputs": [],
      "name": "updateAllAddresses",
      "outputs": [],
      "stateMutability": "nonpayable",
      "type": "function"
    },
    {
      "inputs": [],
      "name": "updateAllRoles",
      "outputs": [],
      "stateMutability": "nonpayable",
      "type": "function"
    },
    {
      "inputs": [],
      "name": "updateDAOAddresses",
      "outputs": [],
      "stateMutability": "nonpayable",
      "type": "function"
    },
    {
      "inputs": [],
      "name": "updatePaymentToken",
      "outputs": [],
      "stateMutability": "nonpayable",
      "type": "function"
    },
    {
      "inputs": [
        {
          "internalType": "bytes32",
          "name": "ROLE_TO_UPDATE",
          "type": "bytes32"
        }
      ],
      "name": "updateSingleRole",
      "outputs": [],
      "stateMutability": "nonpayable",
      "type": "function"
    },
    {
      "inputs": [],
      "name": "updateTokenAddresses",
      "outputs": [],
      "stateMutability": "nonpayable",
      "type": "function"
    }
  ],
  "bytecode": "0x6000805460ff1990811682556011805463ffffffff60a01b19169055601e91909155601f80549091169055636970667360e01b60a0908152601d60f91b60a452602f60f81b60a581905260a6526007608081905260a7604052620000669160229162000cf9565b506729a2241af62c000060255567016345785d8a0000602655600554602780546001600160a01b0319166001600160a01b0390921691909117905560026028556003602955348015620000b857600080fd5b506040516200668c3803806200668c833981016040819052620000db9162000d9f565b6040805180820182526009815268476f6c64537461727360b81b6020808301919091528251808401909352600483526311dbdb1960e21b90830152600380546001600160a01b0385166001600160a01b0319918216811790925560118054909116909117905590828282828282828282826200015662000322565b6200016062000338565b600f546200017a906000906001600160a01b031662000483565b600f54620001b3907f0538d24a8b7882d7b2e36af243d4af61c23e86e3daa6cb8c887b53220b2f5720906001600160a01b031662000483565b600c54620001ec907f048bc71fa1cb2c119c339cf9cf00a97996a19a9d991ce5fe049f2fa5459e7990906001600160a01b031662000483565b600d5462000225907ffa8e4989e1d689f7bc5c4b25b87efb51fecdecb19ba62847e29c759e12a89acd906001600160a01b031662000483565b6010546200025e907ff0f4b159a6e2a4815eb3ca3df080bfa70c9270662c59bcaa4479a456220183e6906001600160a01b031662000483565b6200028b7f7c9d7f6f02908185bffb3f7fc9afb29fd7bf93675af8fd4b655ee05c2cee1e0e600062000483565b508151620002a190601290602085019062000cf9565b508051620002b790601390602084019062000cf9565b50506018805460ff19169055508151620002d8906020908185019062000cf9565b508251620002ee90602190602086019062000cf9565b5050600554602780546001600160a01b0319166001600160a01b039092169190911790555062000e32975050505050505050565b6200032c620004c6565b62000336620007c6565b565b601160009054906101000a90046001600160a01b03166001600160a01b031663ff7e88ec6040518163ffffffff1660e01b815260040160206040518083038186803b1580156200038757600080fd5b505afa1580156200039c573d6000803e3d6000fd5b505050506040513d601f19601f82011682018060405250810190620003c2919062000dd1565b601160156101000a81548160ff021916908315150217905550601160009054906101000a90046001600160a01b03166001600160a01b0316632fb565856040518163ffffffff1660e01b815260040160206040518083038186803b1580156200042a57600080fd5b505afa1580156200043f573d6000803e3d6000fd5b505050506040513d601f19601f8201168201806040525081019062000465919062000dd1565b60118054911515600160b01b0260ff60b01b19909216919091179055565b6200049a828262000bef60201b6200253d1760201c565b6000828152600260209081526040909120620004c19183906200254762000bff821b17901c565b505050565b601160009054906101000a90046001600160a01b03166001600160a01b031663dadf56ac6040518163ffffffff1660e01b815260040160206040518083038186803b1580156200051557600080fd5b505afa1580156200052a573d6000803e3d6000fd5b505050506040513d601f19601f8201168201806040525081019062000550919062000d9f565b600c80546001600160a01b0319166001600160a01b039283161790556011546040805163024bebe960e01b81529051919092169163024bebe9916004808301926020929190829003018186803b158015620005aa57600080fd5b505afa158015620005bf573d6000803e3d6000fd5b505050506040513d601f19601f82011682018060405250810190620005e5919062000d9f565b600d80546001600160a01b0319166001600160a01b0392831617905560115460408051635b5c251f60e01b815290519190921691635b5c251f916004808301926020929190829003018186803b1580156200063f57600080fd5b505afa15801562000654573d6000803e3d6000fd5b505050506040513d601f19601f820116820180604052508101906200067a919062000d9f565b600e80546001600160a01b0319166001600160a01b0392831617905560115460408051637310bf1d60e11b81529051919092169163e6217e3a916004808301926020929190829003018186803b158015620006d457600080fd5b505afa158015620006e9573d6000803e3d6000fd5b505050506040513d601f19601f820116820180604052508101906200070f919062000d9f565b601080546001600160a01b0319166001600160a01b039283161790556011546040805163d88127a160e01b81529051919092169163d88127a1916004808301926020929190829003018186803b1580156200076957600080fd5b505afa1580156200077e573d6000803e3d6000fd5b505050506040513d601f19601f82011682018060405250810190620007a4919062000d9f565b600b80546001600160a01b0319166001600160a01b0392909216919091179055565b601160009054906101000a90046001600160a01b03166001600160a01b03166321d7f0086040518163ffffffff1660e01b815260040160206040518083038186803b1580156200081557600080fd5b505afa1580156200082a573d6000803e3d6000fd5b505050506040513d601f19601f8201168201806040525081019062000850919062000d9f565b600480546001600160a01b0319166001600160a01b039283161781556011546040805163762ddb5960e01b81529051919093169263762ddb599281810192602092909190829003018186803b158015620008a957600080fd5b505afa158015620008be573d6000803e3d6000fd5b505050506040513d601f19601f82011682018060405250810190620008e4919062000d9f565b600580546001600160a01b0319166001600160a01b039283161790556011546040805163bfb7dc9960e01b81529051919092169163bfb7dc99916004808301926020929190829003018186803b1580156200093e57600080fd5b505afa15801562000953573d6000803e3d6000fd5b505050506040513d601f19601f8201168201806040525081019062000979919062000d9f565b600680546001600160a01b0319166001600160a01b0392831617905560115460408051633e6111eb60e21b81529051919092169163f98447ac916004808301926020929190829003018186803b158015620009d357600080fd5b505afa158015620009e8573d6000803e3d6000fd5b505050506040513d601f19601f8201168201806040525081019062000a0e919062000d9f565b600780546001600160a01b0319166001600160a01b0392831617905560115460408051630fe1ba9f60e21b815290519190921691633f86ea7c916004808301926020929190829003018186803b15801562000a6857600080fd5b505afa15801562000a7d573d6000803e3d6000fd5b505050506040513d601f19601f8201168201806040525081019062000aa3919062000d9f565b600880546001600160a01b0319166001600160a01b0392831617905560115460408051632b90024160e11b8152905191909216916357200482916004808301926020929190829003018186803b15801562000afd57600080fd5b505afa15801562000b12573d6000803e3d6000fd5b505050506040513d601f19601f8201168201806040525081019062000b38919062000d9f565b600980546001600160a01b0319166001600160a01b0392831617905560115460408051636b58477560e01b815290519190921691636b584775916004808301926020929190829003018186803b15801562000b9257600080fd5b505afa15801562000ba7573d6000803e3d6000fd5b505050506040513d601f19601f8201168201806040525081019062000bcd919062000d9f565b600a80546001600160a01b0319166001600160a01b0392909216919091179055565b62000bfb828262000c1f565b5050565b600062000c16836001600160a01b03841662000ca7565b90505b92915050565b60008281526001602090815260408083206001600160a01b038516845290915290205460ff1662000bfb5760008281526001602081815260408084206001600160a01b0386168086529252808420805460ff19169093179092559051339285917f2f8788117e7eff1d82e926ec794901d17c78024a50270940304540a733656f0d9190a45050565b600081815260018301602052604081205462000cf05750815460018181018455600084815260208082209093018490558454848252828601909352604090209190915562000c19565b50600062000c19565b82805462000d079062000df5565b90600052602060002090601f01602090048101928262000d2b576000855562000d76565b82601f1062000d4657805160ff191683800117855562000d76565b8280016001018555821562000d76579182015b8281111562000d7657825182559160200191906001019062000d59565b5062000d8492915062000d88565b5090565b5b8082111562000d84576000815560010162000d89565b60006020828403121562000db257600080fd5b81516001600160a01b038116811462000dca57600080fd5b9392505050565b60006020828403121562000de457600080fd5b8151801515811462000dca57600080fd5b600181811c9082168062000e0a57607f821691505b6020821081141562000e2c57634e487b7160e01b600052602260045260246000fd5b50919050565b61584a8062000e426000396000f3fe608060405234801561001057600080fd5b50600436106104d85760003560e01c806373c8982211610283578063c62b28e81161015c578063e78c266c116100ce578063f1132b3011610092578063f1132b3014610aa5578063f259a29e14610aad578063f7d92d8614610ab5578063f98447ac14610abd578063f98db25314610ad0578063ff7e88ec14610ae357600080fd5b8063e78c266c14610a4e578063e985e9c514610a61578063e9a5323014610a74578063ebf98abf14610a89578063ee0b4c3514610a9257600080fd5b8063d547741f11610120578063d547741f146109e7578063d88127a1146109fa578063dadf56ac14610a0d578063de2cff0314610a20578063dea6f9c814610a33578063e6217e3a14610a3b57600080fd5b8063c62b28e814610984578063c87b56dd14610997578063ca15c873146109aa578063cce84392146109bd578063cf4ece15146109d257600080fd5b806396ac6bf0116101f5578063a5f7079a116101b9578063a5f7079a14610903578063a78e746f14610916578063b88d4fde1461092a578063bf7969671461093d578063bfb7dc9914610950578063c04e17e31461096357600080fd5b806396ac6bf0146108b35780639ac3eaa7146108c6578063a217fddf146108d3578063a22cb465146108db578063a32c5e59146108ee57600080fd5b80638456cb59116102475780638456cb59146108615780638685f8db1461086957806387e9152d1461087c5780639010d07c1461088557806391d148541461089857806395d89b41146108ab57600080fd5b806373c89822146107f757806375794a3c14610820578063762ddb5914610828578063765160781461083b578063794ccf6c1461084e57600080fd5b80633ab76e9f116103b55780635b5c251f116103275780636352211e116102eb5780636352211e1461078357806363ebc6771461079657806367a14f06146107b65780636b584775146107c95780636c353e34146107dc57806370a08231146107e457600080fd5b80635b5c251f146107425780635c975abb146107555780635db531a1146107605780635f41346614610768578063610c30091461077b57600080fd5b80634d84c6d8116103795780634d84c6d8146106db5780634f6ccce7146106e357806355f804b3146106f6578063572004821461070957806357f276ff1461071c57806359e6f7871461072f57600080fd5b80633ab76e9f146106925780633f4ba83a146106a55780633f86ea7c146106ad57806342842e0e146106c057806349b5e105146106d357600080fd5b806321d7f0081161044e5780632f2ff15d116104125780632f2ff15d146106355780632f745c59146106485780632fb565851461065b578063326a55e01461066f578063329a8cfa1461067757806336568abe1461067f57600080fd5b806321d7f008146105c357806323b872dd146105d65780632436329d146105e9578063248a9ca3146105fe57806329e63f351461062257600080fd5b80630ad17f8f116104a05780630ad17f8f1461056d57806310a83fcb1461058e578063130f63201461059757806317314d5a146105aa57806318160ddd146105b257806321d670e9146105ba57600080fd5b806301ffc9a7146104dd578063024bebe91461050557806306fdde0314610530578063081812fc14610545578063095ea7b314610558575b600080fd5b6104f06104eb36600461523a565b610af7565b60405190151581526020015b60405180910390f35b600d54610518906001600160a01b031681565b6040516001600160a01b0390911681526020016104fc565b610538610b08565b6040516104fc919061545b565b6105186105533660046151da565b610b9a565b61056b610566366004615174565b610c27565b005b61058061057b366004615174565b610d3d565b6040519081526020016104fc565b61058060265481565b61056b6105a53660046151da565b610d6e565b61056b610da3565b601c54610580565b61058060285481565b600454610518906001600160a01b031681565b61056b6105e4366004614ef2565b610dcc565b61058060008051602061577583398151915281565b61058061060c3660046151da565b6000908152600160208190526040909120015490565b6104f06106303660046151da565b610dfd565b61056b6106433660046151f3565b610ee1565b610580610656366004615174565b610f03565b6011546104f090600160b01b900460ff1681565b61056b610f99565b61056b610fa9565b61056b61068d3660046151f3565b611089565b601154610518906001600160a01b031681565b61056b6110ab565b600854610518906001600160a01b031681565b61056b6106ce366004614ef2565b61113d565b61056b61116e565b61056b610fa1565b6105806106f13660046151da565b611176565b6104f0610704366004615274565b611209565b600954610518906001600160a01b031681565b61056b61072a3660046151da565b611284565b6104f061073d366004615174565b611298565b600e54610518906001600160a01b031681565b60185460ff166104f0565b61056b6112ca565b600f54610518906001600160a01b031681565b6105386112d2565b6105186107913660046151da565b611360565b6107a96107a4366004614e7f565b6113d7565b6040516104fc9190615417565b602754610518906001600160a01b031681565b600a54610518906001600160a01b031681565b61056b611443565b6105806107f2366004614e7f565b61146f565b6105186108053660046151da565b6000908152602360205260409020546001600160a01b031690565b601e54610580565b600554610518906001600160a01b031681565b6104f06108493660046151a0565b6114f6565b61058061085c366004614fe1565b6115ed565b61056b61187f565b6104f0610877366004615218565b611901565b61058060295481565b610518610893366004615218565b611a01565b6104f06108a63660046151f3565b611a20565b610538611a4b565b6104f06108c13660046151da565b611a5a565b601f546104f09060ff1681565b610580600081565b61056b6108e9366004614fb3565b611b66565b6105806000805160206157d583398151915281565b610580610911366004615100565b611be4565b6011546104f090600160a01b900460ff1681565b61056b610938366004614f33565b611e85565b61058061094b3660046150a7565b611ebd565b600654610518906001600160a01b031681565b6109766109713660046151da565b61215c565b6040516104fc9291906153f3565b61056b6109923660046151da565b61220b565b6105386109a53660046151da565b61225c565b6105806109b83660046151da565b612267565b6105806000805160206157f583398151915281565b6105806000805160206157b583398151915281565b61056b6109f53660046151f3565b61227e565b600b54610518906001600160a01b031681565b600c54610518906001600160a01b031681565b610580610a2e366004615031565b612288565b61053861229d565b601054610518906001600160a01b031681565b600354610518906001600160a01b031681565b6104f0610a6f366004614eb9565b6122aa565b61058060008051602061579583398151915281565b61058060255481565b6104f0610aa03660046151da565b612301565b61056b6123ed565b6105386123f5565b61056b612402565b600754610518906001600160a01b031681565b610538610ade3660046151da565b6124a2565b6011546104f090600160a81b900460ff1681565b6000610b028261255c565b92915050565b606060128054610b1790615663565b80601f0160208091040260200160405190810160405280929190818152602001828054610b4390615663565b8015610b905780601f10610b6557610100808354040283529160200191610b90565b820191906000526020600020905b815481529060010190602001808311610b7357829003601f168201915b5050505050905090565b6000610ba582612581565b610c0b5760405162461bcd60e51b815260206004820152602c60248201527f4552433732313a20617070726f76656420717565727920666f72206e6f6e657860448201526b34b9ba32b73a103a37b5b2b760a11b60648201526084015b60405180910390fd5b506000908152601660205260409020546001600160a01b031690565b6000610c3282611360565b9050806001600160a01b0316836001600160a01b03161415610ca05760405162461bcd60e51b815260206004820152602160248201527f4552433732313a20617070726f76616c20746f2063757272656e74206f776e656044820152603960f91b6064820152608401610c02565b336001600160a01b0382161480610cbc5750610cbc81336122aa565b610d2e5760405162461bcd60e51b815260206004820152603860248201527f4552433732313a20617070726f76652063616c6c6572206973206e6f74206f7760448201527f6e6572206e6f7220617070726f76656420666f7220616c6c00000000000000006064820152608401610c02565b610d38838361259e565b505050565b60246020528160005260406000208181548110610d5957600080fd5b90600052602060002001600091509150505481565b610d7860016125c5565b50610d8281612677565b50610d8c816127e8565b50610d9760006125c5565b610da057600080fd5b50565b610dad60016125c5565b50610db6612971565b50610dc160006125c5565b610dca57600080fd5b565b610dd63382612ab7565b610df25760405162461bcd60e51b8152600401610c0290615520565b610d38838383612b69565b6000610e176000805160206157d583398151915233611a20565b80610e355750610e3560008051602061579583398151915233611a20565b80610e535750610e5360008051602061577583398151915233611a20565b610e6f5760405162461bcd60e51b8152600401610c029061546e565b6026548210610ecc5760405162461bcd60e51b8152602060048201526024808201527f536f7272792120596f752063616e206f6e6c79206c6f7765722074686520666c6044820152636f6f722160e01b6064820152608401610c02565b610ed882602655600190565b50600192915050565b610eeb8282612b9a565b6000828152600260205260409020610d389082612547565b6000610f0e8361146f565b8210610f705760405162461bcd60e51b815260206004820152602b60248201527f455243373231456e756d657261626c653a206f776e657220696e646578206f7560448201526a74206f6620626f756e647360a81b6064820152608401610c02565b506001600160a01b03919091166000908152601a60209081526040808320938352929052205490565b610fa1612bd4565b610dca612ec0565b610fc16000805160206157d583398151915233611a20565b80610fdf5750610fdf60008051602061579583398151915233611a20565b80610ffd5750610ffd60008051602061577583398151915233611a20565b6110195760405162461bcd60e51b8152600401610c029061546e565b601160009054906101000a90046001600160a01b03166001600160a01b031663329a8cfa6040518163ffffffff1660e01b8152600401600060405180830381600087803b15801561106957600080fd5b505af115801561107d573d6000803e3d6000fd5b50505050610dca6112ca565b61109382826132cd565b6000828152600260205260409020610d389082613347565b6110c360008051602061579583398151915233611a20565b806110e157506110e16000805160206157d583398151915233611a20565b6111255760405162461bcd60e51b8152602060048201526015602482015274596f75277265206e6f742074686520476176656c7360581b6044820152606401610c02565b601f5460ff161561113557600080fd5b610dca61335c565b6111473382612ab7565b6111635760405162461bcd60e51b8152600401610c0290615520565b610d388383836133ef565b610dca612bd4565b6000611181601c5490565b82106111e45760405162461bcd60e51b815260206004820152602c60248201527f455243373231456e756d657261626c653a20676c6f62616c20696e646578206f60448201526b7574206f6620626f756e647360a01b6064820152608401610c02565b601c82815481106111f7576111f761570f565b90600052602060002001549050919050565b60006112236000805160206157d583398151915233611a20565b80611241575061124160008051602061579583398151915233611a20565b8061125f575061125f60008051602061577583398151915233611a20565b61127b5760405162461bcd60e51b8152600401610c029061546e565b610ed88261340a565b61128e60016125c5565b50610d8c81613420565b6000818152602360205260408120546001600160a01b03848116911614156112c257506001610b02565b506000610b02565b610dca61367b565b602180546112df90615663565b80601f016020809104026020016040519081016040528092919081815260200182805461130b90615663565b80156113585780601f1061132d57610100808354040283529160200191611358565b820191906000526020600020905b81548152906001019060200180831161133b57829003601f168201915b505050505081565b6000818152601460205260408120546001600160a01b031680610b025760405162461bcd60e51b815260206004820152602960248201527f4552433732313a206f776e657220717565727920666f72206e6f6e657869737460448201526832b73a103a37b5b2b760b91b6064820152608401610c02565b6001600160a01b03811660009081526024602090815260409182902080548351818402810184019094528084526060939283018282801561143757602002820191906000526020600020905b815481526020019060010190808311611423575b50505050509050919050565b61144b612ec0565b600554602780546001600160a01b0319166001600160a01b03909216919091179055565b60006001600160a01b0382166114da5760405162461bcd60e51b815260206004820152602a60248201527f4552433732313a2062616c616e636520717565727920666f7220746865207a65604482015269726f206164647265737360b01b6064820152608401610c02565b506001600160a01b031660009081526015602052604090205490565b600061151060008051602061579583398151915233611a20565b8061152e575061152e60008051602061577583398151915233611a20565b8061154c575061154c6000805160206157d583398151915233611a20565b61155557600080fd5b601154600160b01b810460ff9081161515600160a81b909204161515146001148061159357506115936000805160206157d583398151915233611a20565b6115d25760405162461bcd60e51b815260206004820152601060248201526f436f757274204d75737420416772656560801b6044820152606401610c02565b600182151514156115e557610ed86137be565b506000919050565b600082600060295460255461160291906155d6565b905060008160285461161491906155ea565b90506000816025546116269190615609565b6027546040516370a0823160e01b815230600482015291925060009184916001600160a01b0316906370a082319060240160206040518083038186803b15801561166f57600080fd5b505afa158015611683573d6000803e3d6000fd5b505050506040513d601f19601f820116820180604052508101906116a791906152a9565b6116b191906155be565b6027546028549192506001600160a01b0316906323b872dd90339030906116d99089906155ea565b6040518463ffffffff1660e01b81526004016116f793929190615392565b602060405180830381600087803b15801561171157600080fd5b505af1158015611725573d6000803e3d6000fd5b505050506040513d601f19601f8201168201806040525081019061174991906151bd565b506027546040516323b872dd60e01b81526001600160a01b03909116906323b872dd9061177e90339089908790600401615392565b602060405180830381600087803b15801561179857600080fd5b505af11580156117ac573d6000803e3d6000fd5b505050506040513d601f19601f820116820180604052508101906117d091906151bd565b506027546040516370a0823160e01b815230600482015282916001600160a01b0316906370a082319060240160206040518083038186803b15801561181457600080fd5b505afa158015611828573d6000803e3d6000fd5b505050506040513d601f19601f8201168201806040525081019061184c91906152a9565b146118695760405162461bcd60e51b8152600401610c02906154f0565b6118738888613801565b98975050505050505050565b61189760008051602061579583398151915233611a20565b806118b557506118b56000805160206157d583398151915233611a20565b6118f95760405162461bcd60e51b8152602060048201526015602482015274596f75277265206e6f742074686520476176656c7360581b6044820152606401610c02565b610dca613864565b600061191b60008051602061577583398151915233611a20565b8061193957506119396000805160206157d583398151915233611a20565b61197b5760405162461bcd60e51b8152602060048201526013602482015272596f75277265206e6f7420746865204a75727960681b6044820152606401610c02565b818310156119ea5760405162461bcd60e51b815260206004820152603660248201527f536f7272792120436f7374206e756d657261746f72206d75737420626520677260448201527532b0ba32b9103a3430b7103232b737b6b4b730ba37b960511b6064820152608401610c02565b6028839055602982905560015b5060019392505050565b6000828152600260205260408120611a1990836138df565b9392505050565b60009182526001602090815260408084206001600160a01b0393909316845291905290205460ff1690565b606060138054610b1790615663565b6000611a7460008051602061579583398151915233611a20565b80611a925750611a9260008051602061577583398151915233611a20565b80611ab05750611ab06000805160206157d583398151915233611a20565b611ab957600080fd5b601154600160b01b810460ff9081161515600160a81b9092041615151460011480611af75750611af76000805160206157d583398151915233611a20565b611b365760405162461bcd60e51b815260206004820152601060248201526f436f757274204d75737420416772656560801b6044820152606401610c02565b81604514156115e557611b476137be565b50611b50613864565b50601f805460ff19166001908117909155919050565b611b7e6000805160206157d583398151915233611a20565b80611b9c5750611b9c60008051602061579583398151915233611a20565b80611bba5750611bba60008051602061577583398151915233611a20565b611bd65760405162461bcd60e51b8152600401610c0290615520565b611be082826138eb565b5050565b600084836000602954602554611bfa91906155d6565b9050600081602854611c0c91906155ea565b9050600081602554611c1e9190615609565b611c2890856155be565b6027546040516370a0823160e01b815230600482015291925060009184916001600160a01b0316906370a082319060240160206040518083038186803b158015611c7157600080fd5b505afa158015611c85573d6000803e3d6000fd5b505050506040513d601f19601f82011682018060405250810190611ca991906152a9565b611cb391906155be565b6027546028549192506001600160a01b0316906323b872dd9033903090611cdb9089906155ea565b6040518463ffffffff1660e01b8152600401611cf993929190615392565b602060405180830381600087803b158015611d1357600080fd5b505af1158015611d27573d6000803e3d6000fd5b505050506040513d601f19601f82011682018060405250810190611d4b91906151bd565b506027546040516323b872dd60e01b81526001600160a01b03909116906323b872dd90611d809033908a908790600401615392565b602060405180830381600087803b158015611d9a57600080fd5b505af1158015611dae573d6000803e3d6000fd5b505050506040513d601f19601f82011682018060405250810190611dd291906151bd565b506027546040516370a0823160e01b815230600482015282916001600160a01b0316906370a082319060240160206040518083038186803b158015611e1657600080fd5b505afa158015611e2a573d6000803e3d6000fd5b505050506040513d601f19601f82011682018060405250810190611e4e91906152a9565b14611e6b5760405162461bcd60e51b8152600401610c02906154f0565b611e768b8b8a6139b0565b9b9a5050505050505050505050565b611e8f3383612ab7565b611eab5760405162461bcd60e51b8152600401610c029061556d565b611eb784848484613a1e565b50505050565b600083826000602954602554611ed391906155d6565b9050600081602854611ee591906155ea565b9050600081602554611ef79190615609565b611f0190856155be565b6027546040516370a0823160e01b815230600482015291925060009184916001600160a01b0316906370a082319060240160206040518083038186803b158015611f4a57600080fd5b505afa158015611f5e573d6000803e3d6000fd5b505050506040513d601f19601f82011682018060405250810190611f8291906152a9565b611f8c91906155be565b6027546028549192506001600160a01b0316906323b872dd9033903090611fb49089906155ea565b6040518463ffffffff1660e01b8152600401611fd293929190615392565b602060405180830381600087803b158015611fec57600080fd5b505af1158015612000573d6000803e3d6000fd5b505050506040513d601f19601f8201168201806040525081019061202491906151bd565b506027546040516323b872dd60e01b81526001600160a01b03909116906323b872dd906120599033908a908790600401615392565b602060405180830381600087803b15801561207357600080fd5b505af1158015612087573d6000803e3d6000fd5b505050506040513d601f19601f820116820180604052508101906120ab91906151bd565b506027546040516370a0823160e01b815230600482015282916001600160a01b0316906370a082319060240160206040518083038186803b1580156120ef57600080fd5b505afa158015612103573d6000803e3d6000fd5b505050506040513d601f19601f8201168201806040525081019061212791906152a9565b146121445760405162461bcd60e51b8152600401610c02906154f0565b61214e8a8a613801565b9a9950505050505050505050565b602360205260009081526040902080546001820180546001600160a01b03909216929161218890615663565b80601f01602080910402602001604051908101604052809291908181526020018280546121b490615663565b80156122015780601f106121d657610100808354040283529160200191612201565b820191906000526020600020905b8154815290600101906020018083116121e457829003601f168201915b5050505050905082565b6122153382612ab7565b6122535760405162461bcd60e51b815260206004820152600f60248201526e4e696365205472792c204275636b6f60881b6044820152606401610c02565b610da081613a51565b6060610b0282613a5a565b6000818152600260205260408120610b0290613bbc565b6110938282613bc6565b60006122958484846139b0565b949350505050565b602080546112df90615663565b6000806122c56000805160206157d583398151915284611a20565b806122e357506122e360008051602061579583398151915284611a20565b80612295575061229560008051602061577583398151915284611a20565b600061231b60008051602061577583398151915233611a20565b8061233957506123396000805160206157d583398151915233611a20565b61237b5760405162461bcd60e51b8152602060048201526013602482015272596f75277265206e6f7420746865204a75727960681b6044820152606401610c02565b6026548210156123e15760405162461bcd60e51b815260206004820152602b60248201527f536f7272792120436f7374206d7573742062652067726561746572207468616e60448201526a10181718902932b22832b760a91b6064820152608401610c02565b610ed882602555600190565b610dca613c00565b602280546112df90615663565b61240c60016125c5565b506124246000805160206157d5833981519152613420565b5061243c600080516020615795833981519152613420565b50612454600080516020615775833981519152613420565b5061246c6000805160206157b5833981519152613420565b506124846000805160206157f5833981519152613420565b5061248f6000613420565b5061249861367b565b610dc160006125c5565b60008181526023602052604090206001018054606091906124c290615663565b80601f01602080910402602001604051908101604052809291908181526020018280546124ee90615663565b80156114375780601f1061251057610100808354040283529160200191611437565b820191906000526020600020905b81548152906001019060200180831161251e5750939695505050505050565b611be08282613d37565b6000611a19836001600160a01b038416613da2565b60006001600160e01b0319821663780e9d6360e01b1480610b025750610b0282613de9565b6000908152601460205260409020546001600160a01b0316151590565b6125b66000805160206157d583398151915233611a20565b15611be057611be08282613e29565b6000805460ff1682151581151514156126205760405162461bcd60e51b815260206004820152601960248201527f416c72656164792053657420746f20746861742076616c7565000000000000006044820152606401610c02565b6000805484151560ff19909116811790915560ff1615158115151415610ed85760405162461bcd60e51b815260206004820152600c60248201526b29b0b33a32bc9022b93937b960a11b6044820152606401610c02565b60405163ca15c87360e01b8152600481018290526000908190309063ca15c8739060240160206040518083038186803b1580156126b357600080fd5b505afa1580156126c7573d6000803e3d6000fd5b505050506040513d601f19601f820116820180604052508101906126eb91906152a9565b905060005b818110156119f757604051632404341f60e21b815260048101859052602481018290526000903090639010d07c9060440160206040518083038186803b15801561273957600080fd5b505afa15801561274d573d6000803e3d6000fd5b505050506040513d601f19601f820116820180604052508101906127719190614e9c565b60405163d547741f60e01b8152600481018790526001600160a01b0382166024820152909150309063d547741f90604401600060405180830381600087803b1580156127bc57600080fd5b505af11580156127d0573d6000803e3d6000fd5b505050505080806127e09061569e565b9150506126f0565b60115460405163ca15c87360e01b81526004810183905260009182916001600160a01b039091169063ca15c8739060240160206040518083038186803b15801561283157600080fd5b505afa158015612845573d6000803e3d6000fd5b505050506040513d601f19601f8201168201806040525081019061286991906152a9565b905060005b818110156119f757601154604051632404341f60e21b815260048101869052602481018390526000916001600160a01b031690639010d07c9060440160206040518083038186803b1580156128c257600080fd5b505afa1580156128d6573d6000803e3d6000fd5b505050506040513d601f19601f820116820180604052508101906128fa9190614e9c565b604051632f2ff15d60e01b8152600481018790526001600160a01b03821660248201529091503090632f2ff15d90604401600060405180830381600087803b15801561294557600080fd5b505af1158015612959573d6000803e3d6000fd5b505050505080806129699061569e565b91505061286e565b600061298a6000805160206157d5833981519152612677565b506129a26000805160206157d58339815191526127e8565b6129ab57600080fd5b6129c2600080516020615795833981519152612677565b506129da6000805160206157958339815191526127e8565b6129e357600080fd5b6129fa600080516020615775833981519152612677565b50612a126000805160206157758339815191526127e8565b612a1b57600080fd5b612a326000805160206157b5833981519152612677565b50612a4a6000805160206157b58339815191526127e8565b612a5357600080fd5b612a6a6000805160206157f5833981519152612677565b50612a826000805160206157f58339815191526127e8565b612a8b57600080fd5b612a956000612677565b50612aa060006127e8565b612aa957600080fd5b612ab161367b565b50600190565b6000612ac282612581565b612b235760405162461bcd60e51b815260206004820152602c60248201527f4552433732313a206f70657261746f7220717565727920666f72206e6f6e657860448201526b34b9ba32b73a103a37b5b2b760a11b6064820152608401610c02565b6000612b2e83611360565b6000848152602360205260409020549091506001600160a01b03908116908516811480612b605750612b6082866122aa565b95945050505050565b612b733382612ab7565b612b8f5760405162461bcd60e51b8152600401610c029061556d565b610d38838383613e97565b600082815260016020819052604082200154905460ff1615612bc057610d388383613d37565b612bca8133614042565b610d388383613d37565b601160009054906101000a90046001600160a01b03166001600160a01b031663dadf56ac6040518163ffffffff1660e01b815260040160206040518083038186803b158015612c2257600080fd5b505afa158015612c36573d6000803e3d6000fd5b505050506040513d601f19601f82011682018060405250810190612c5a9190614e9c565b600c80546001600160a01b0319166001600160a01b039283161790556011546040805163024bebe960e01b81529051919092169163024bebe9916004808301926020929190829003018186803b158015612cb357600080fd5b505afa158015612cc7573d6000803e3d6000fd5b505050506040513d601f19601f82011682018060405250810190612ceb9190614e9c565b600d80546001600160a01b0319166001600160a01b0392831617905560115460408051635b5c251f60e01b815290519190921691635b5c251f916004808301926020929190829003018186803b158015612d4457600080fd5b505afa158015612d58573d6000803e3d6000fd5b505050506040513d601f19601f82011682018060405250810190612d7c9190614e9c565b600e80546001600160a01b0319166001600160a01b0392831617905560115460408051637310bf1d60e11b81529051919092169163e6217e3a916004808301926020929190829003018186803b158015612dd557600080fd5b505afa158015612de9573d6000803e3d6000fd5b505050506040513d601f19601f82011682018060405250810190612e0d9190614e9c565b601080546001600160a01b0319166001600160a01b039283161790556011546040805163d88127a160e01b81529051919092169163d88127a1916004808301926020929190829003018186803b158015612e6657600080fd5b505afa158015612e7a573d6000803e3d6000fd5b505050506040513d601f19601f82011682018060405250810190612e9e9190614e9c565b600b80546001600160a01b0319166001600160a01b0392909216919091179055565b601160009054906101000a90046001600160a01b03166001600160a01b03166321d7f0086040518163ffffffff1660e01b815260040160206040518083038186803b158015612f0e57600080fd5b505afa158015612f22573d6000803e3d6000fd5b505050506040513d601f19601f82011682018060405250810190612f469190614e9c565b600480546001600160a01b0319166001600160a01b039283161781556011546040805163762ddb5960e01b81529051919093169263762ddb599281810192602092909190829003018186803b158015612f9e57600080fd5b505afa158015612fb2573d6000803e3d6000fd5b505050506040513d601f19601f82011682018060405250810190612fd69190614e9c565b600580546001600160a01b0319166001600160a01b039283161790556011546040805163bfb7dc9960e01b81529051919092169163bfb7dc99916004808301926020929190829003018186803b15801561302f57600080fd5b505afa158015613043573d6000803e3d6000fd5b505050506040513d601f19601f820116820180604052508101906130679190614e9c565b600680546001600160a01b0319166001600160a01b0392831617905560115460408051633e6111eb60e21b81529051919092169163f98447ac916004808301926020929190829003018186803b1580156130c057600080fd5b505afa1580156130d4573d6000803e3d6000fd5b505050506040513d601f19601f820116820180604052508101906130f89190614e9c565b600780546001600160a01b0319166001600160a01b0392831617905560115460408051630fe1ba9f60e21b815290519190921691633f86ea7c916004808301926020929190829003018186803b15801561315157600080fd5b505afa158015613165573d6000803e3d6000fd5b505050506040513d601f19601f820116820180604052508101906131899190614e9c565b600880546001600160a01b0319166001600160a01b0392831617905560115460408051632b90024160e11b8152905191909216916357200482916004808301926020929190829003018186803b1580156131e257600080fd5b505afa1580156131f6573d6000803e3d6000fd5b505050506040513d601f19601f8201168201806040525081019061321a9190614e9c565b600980546001600160a01b0319166001600160a01b0392831617905560115460408051636b58477560e01b815290519190921691636b584775916004808301926020929190829003018186803b15801561327357600080fd5b505afa158015613287573d6000803e3d6000fd5b505050506040513d601f19601f820116820180604052508101906132ab9190614e9c565b600a80546001600160a01b0319166001600160a01b0392909216919091179055565b6001600160a01b038116331461333d5760405162461bcd60e51b815260206004820152602f60248201527f416363657373436f6e74726f6c3a2063616e206f6e6c792072656e6f756e636560448201526e103937b632b9903337b91039b2b63360891b6064820152608401610c02565b611be082826140a6565b6000611a19836001600160a01b03841661410d565b60185460ff166133a55760405162461bcd60e51b815260206004820152601460248201527314185d5cd8589b194e881b9bdd081c185d5cd95960621b6044820152606401610c02565b6018805460ff191690557f5db9ee0a495bf2e6ff9c91a7834c1ba4fdd244a5e8aa4e537bd38aeae4b073aa335b6040516001600160a01b03909116815260200160405180910390a1565b610d3883838360405180602001604052806000815250611e85565b8051600090610ed8906022906020850190614d1a565b60115460405163ca15c87360e01b81526004810183905260009182916001600160a01b039091169063ca15c8739060240160206040518083038186803b15801561346957600080fd5b505afa15801561347d573d6000803e3d6000fd5b505050506040513d601f19601f820116820180604052508101906134a191906152a9565b60405163ca15c87360e01b815260048101859052909150600090309063ca15c8739060240160206040518083038186803b1580156134de57600080fd5b505afa1580156134f2573d6000803e3d6000fd5b505050506040513d601f19601f8201168201806040525081019061351691906152a9565b905060006135248284615609565b9050600081116135695760405162461bcd60e51b815260206004820152601060248201526f4e6f7468696e6720746f2073796e632160801b6044820152606401610c02565b60005b8181101561366f57601154604051632404341f60e21b815260048101889052602481018390526000916001600160a01b031690639010d07c9060440160206040518083038186803b1580156135c057600080fd5b505afa1580156135d4573d6000803e3d6000fd5b505050506040513d601f19601f820116820180604052508101906135f89190614e9c565b604051632f2ff15d60e01b8152600481018990526001600160a01b03821660248201529091503090632f2ff15d90604401600060405180830381600087803b15801561364357600080fd5b505af1158015613657573d6000803e3d6000fd5b505050505080806136679061569e565b91505061356c565b50600195945050505050565b601160009054906101000a90046001600160a01b03166001600160a01b031663ff7e88ec6040518163ffffffff1660e01b815260040160206040518083038186803b1580156136c957600080fd5b505afa1580156136dd573d6000803e3d6000fd5b505050506040513d601f19601f8201168201806040525081019061370191906151bd565b601160156101000a81548160ff021916908315150217905550601160009054906101000a90046001600160a01b03166001600160a01b0316632fb565856040518163ffffffff1660e01b815260040160206040518083038186803b15801561376857600080fd5b505afa15801561377c573d6000803e3d6000fd5b505050506040513d601f19601f820116820180604052508101906137a091906151bd565b60118054911515600160b01b0260ff60b01b19909216919091179055565b6000805b601e548110156137f5576137d581612581565b156137e3576137e381613a51565b806137ed8161569e565b9150506137c2565b50506000601e55600190565b60006001600160a01b038316331480159061382457506001600160a01b03831615155b61382d57600080fd5b50601e5461383c3383836141fa565b6138468382614269565b6001601e600082825461385991906155be565b909155505092915050565b60185460ff16156138aa5760405162461bcd60e51b815260206004820152601060248201526f14185d5cd8589b194e881c185d5cd95960821b6044820152606401610c02565b6018805460ff191660011790557f62e78cea01bee320cd4e420270b5ea74000d11b0c9f74754ebdbfc544b05a2586133d23390565b6000611a198383614283565b6001600160a01b0382163314156139445760405162461bcd60e51b815260206004820152601960248201527f4552433732313a20617070726f766520746f2063616c6c6572000000000000006044820152606401610c02565b3360008181526017602090815260408083206001600160a01b03871680855290835292819020805460ff191686151590811790915590519081529192917f17307eab39ab6107e8899845ad3d59bd9653f200f220920489ca2b5937696c31910160405180910390a35050565b60006001600160a01b03841633148015906139d357506001600160a01b03841615155b6139dc57600080fd5b50601e546139eb3384836141fa565b6139f58482614269565b6139ff8183614309565b6001601e6000828254613a1291906155be565b90915550509392505050565b613a29848484613e97565b613a3584848484614394565b611eb75760405162461bcd60e51b8152600401610c029061549e565b610da0816144a1565b6060613a6582612581565b613acb5760405162461bcd60e51b815260206004820152603160248201527f45524337323155524953746f726167653a2055524920717565727920666f72206044820152703737b732bc34b9ba32b73a103a37b5b2b760791b6064820152608401610c02565b60008281526019602052604081208054613ae490615663565b80601f0160208091040260200160405190810160405280929190818152602001828054613b1090615663565b8015613b5d5780601f10613b3257610100808354040283529160200191613b5d565b820191906000526020600020905b815481529060010190602001808311613b4057829003601f168201915b505050505090506000613b6e6144e1565b9050805160001415613b81575092915050565b815115613bb3578082604051602001613b9b9291906152ee565b60405160208183030381529060405292505050919050565b612295846144f0565b6000610b02825490565b600082815260016020819052604082200154905460ff1615613bec57610d3883836140a6565b613bf68133614042565b610d3883836140a6565b601160009054906101000a90046001600160a01b03166001600160a01b031663a44b93256040518163ffffffff1660e01b815260040160206040518083038186803b158015613c4e57600080fd5b505afa158015613c62573d6000803e3d6000fd5b505050506040513d601f19601f82011682018060405250810190613c8691906151bd565b613c8f57600080fd5b601160009054906101000a90046001600160a01b03166001600160a01b031663ac7cfac36040518163ffffffff1660e01b815260040160206040518083038186803b158015613cdd57600080fd5b505afa158015613cf1573d6000803e3d6000fd5b505050506040513d601f19601f82011682018060405250810190613d159190614e9c565b600380546001600160a01b0319166001600160a01b0392909216919091179055565b613d418282611a20565b611be05760008281526001602081815260408084206001600160a01b0386168086529252808420805460ff19169093179092559051339285917f2f8788117e7eff1d82e926ec794901d17c78024a50270940304540a733656f0d9190a45050565b60008181526001830160205260408120546112c257508154600181810184556000848152602080822090930184905584548482528286019093526040902091909155610b02565b60006001600160e01b031982166380ac58cd60e01b1480613e1a57506001600160e01b03198216635b5e139f60e01b145b80610b025750610b02826145ba565b600081815260166020526040902080546001600160a01b0319166001600160a01b0384169081179091558190613e5e82611360565b6001600160a01b03167f8c5be1e5ebec7d5bd14f71427d1e84f3dd0314c0f7b2291e5b200ac8c7c3b92560405160405180910390a45050565b826001600160a01b0316613eaa82611360565b6001600160a01b031614613f125760405162461bcd60e51b815260206004820152602960248201527f4552433732313a207472616e73666572206f6620746f6b656e2074686174206960448201526839903737ba1037bbb760b91b6064820152608401610c02565b6001600160a01b038216613f745760405162461bcd60e51b8152602060048201526024808201527f4552433732313a207472616e7366657220746f20746865207a65726f206164646044820152637265737360e01b6064820152608401610c02565b613f7f8383836145df565b613f8a60008261259e565b6001600160a01b0383166000908152601560205260408120805460019290613fb3908490615609565b90915550506001600160a01b0382166000908152601560205260408120805460019290613fe19084906155be565b909155505060008181526014602052604080822080546001600160a01b0319166001600160a01b0386811691821790925591518493918716917fddf252ad1be2c89b69c2b068fc378daa952ba7f163c4a11628f55a4df523b3ef91a4505050565b61404c8282611a20565b611be057614064816001600160a01b031660146145ea565b61406f8360206145ea565b60405160200161408092919061531d565b60408051601f198184030181529082905262461bcd60e51b8252610c029160040161545b565b6140b08282611a20565b15611be05760008281526001602090815260408083206001600160a01b0385168085529252808320805460ff1916905551339285917ff6391f5c32d9c69d2a47ea670b442974b53935d1edc7fd64eb21e047a839171b9190a45050565b600081815260018301602052604081205480156141f0576000614131600183615609565b855490915060009061414590600190615609565b9050600086600001828154811061415e5761415e61570f565b90600052602060002001549050808760000184815481106141815761418161570f565b6000918252602080832090910192909255828152600189019091526040902084905586548790806141b4576141b46156f9565b60019003818190600052602060002001600090559055866001016000878152602001908152602001600020600090556001945050505050610b02565b6000915050610b02565b600081815260236020908152604090912080546001600160a01b0319166001600160a01b038616178155835161423892600190920191850190614d1a565b506001600160a01b039092166000908152602460209081526040822080546001810182559083529120019190915550565b611be0828260405180602001604052806000815250614786565b815460009082106142e15760405162461bcd60e51b815260206004820152602260248201527f456e756d657261626c655365743a20696e646578206f7574206f6620626f756e604482015261647360f01b6064820152608401610c02565b8260000182815481106142f6576142f661570f565b9060005260206000200154905092915050565b61431282612581565b6143755760405162461bcd60e51b815260206004820152602e60248201527f45524337323155524953746f726167653a2055524920736574206f66206e6f6e60448201526d32bc34b9ba32b73a103a37b5b2b760911b6064820152608401610c02565b60008281526019602090815260409091208251610d3892840190614d1a565b60006001600160a01b0384163b1561449657604051630a85bd0160e11b81526001600160a01b0385169063150b7a02906143d89033908990889088906004016153b6565b602060405180830381600087803b1580156143f257600080fd5b505af1925050508015614422575060408051601f3d908101601f1916820190925261441f91810190615257565b60015b61447c573d808015614450576040519150601f19603f3d011682016040523d82523d6000602084013e614455565b606091505b5080516144745760405162461bcd60e51b8152600401610c029061549e565b805181602001fd5b6001600160e01b031916630a85bd0160e11b149050612295565b506001949350505050565b6144aa816147b9565b600081815260196020526040902080546144c390615663565b159050610da0576000818152601960205260408120610da091614d9e565b606060228054610b1790615663565b60606144fb82612581565b61455f5760405162461bcd60e51b815260206004820152602f60248201527f4552433732314d657461646174613a2055524920717565727920666f72206e6f60448201526e3732bc34b9ba32b73a103a37b5b2b760891b6064820152608401610c02565b60006145696144e1565b905060008151116145895760405180602001604052806000815250611a19565b8061459384614860565b6040516020016145a49291906152ee565b6040516020818303038152906040529392505050565b60006001600160e01b03198216635a05180f60e01b1480610b025750610b028261495e565b610d38838383614993565b606060006145f98360026155ea565b6146049060026155be565b67ffffffffffffffff81111561461c5761461c615725565b6040519080825280601f01601f191660200182016040528015614646576020820181803683370190505b509050600360fc1b816000815181106146615761466161570f565b60200101906001600160f81b031916908160001a905350600f60fb1b816001815181106146905761469061570f565b60200101906001600160f81b031916908160001a90535060006146b48460026155ea565b6146bf9060016155be565b90505b6001811115614737576f181899199a1a9b1b9c1cb0b131b232b360811b85600f16601081106146f3576146f361570f565b1a60f81b8282815181106147095761470961570f565b60200101906001600160f81b031916908160001a90535060049490941c936147308161564c565b90506146c2565b508315611a195760405162461bcd60e51b815260206004820181905260248201527f537472696e67733a20686578206c656e67746820696e73756666696369656e746044820152606401610c02565b6147908383614a4b565b61479d6000848484614394565b610d385760405162461bcd60e51b8152600401610c029061549e565b60006147c482611360565b90506147d2816000846145df565b6147dd60008361259e565b6001600160a01b0381166000908152601560205260408120805460019290614806908490615609565b909155505060008281526014602052604080822080546001600160a01b0319169055518391906001600160a01b038416907fddf252ad1be2c89b69c2b068fc378daa952ba7f163c4a11628f55a4df523b3ef908390a45050565b6060816148845750506040805180820190915260018152600360fc1b602082015290565b8160005b81156148ae57806148988161569e565b91506148a79050600a836155d6565b9150614888565b60008167ffffffffffffffff8111156148c9576148c9615725565b6040519080825280601f01601f1916602001820160405280156148f3576020820181803683370190505b5090505b841561229557614908600183615609565b9150614915600a866156b9565b6149209060306155be565b60f81b8183815181106149355761493561570f565b60200101906001600160f81b031916908160001a905350614957600a866155d6565b94506148f7565b60006001600160e01b03198216637965db0b60e01b1480610b0257506301ffc9a760e01b6001600160e01b0319831614610b02565b6001600160a01b0383166149ee576149e981601c80546000838152601d60205260408120829055600182018355919091527f0e4562a10381dec21b205ed72637e6b1b523bdd0e4d4d50af5cd23dd4500a2110155565b614a11565b816001600160a01b0316836001600160a01b031614614a1157614a118382614b8a565b6001600160a01b038216614a2857610d3881614c27565b826001600160a01b0316826001600160a01b031614610d3857610d388282614cd6565b6001600160a01b038216614aa15760405162461bcd60e51b815260206004820181905260248201527f4552433732313a206d696e7420746f20746865207a65726f20616464726573736044820152606401610c02565b614aaa81612581565b15614af75760405162461bcd60e51b815260206004820152601c60248201527f4552433732313a20746f6b656e20616c7265616479206d696e746564000000006044820152606401610c02565b614b03600083836145df565b6001600160a01b0382166000908152601560205260408120805460019290614b2c9084906155be565b909155505060008181526014602052604080822080546001600160a01b0319166001600160a01b03861690811790915590518392907fddf252ad1be2c89b69c2b068fc378daa952ba7f163c4a11628f55a4df523b3ef908290a45050565b60006001614b978461146f565b614ba19190615609565b6000838152601b6020526040902054909150808214614bf4576001600160a01b0384166000908152601a602090815260408083208584528252808320548484528184208190558352601b90915290208190555b506000918252601b602090815260408084208490556001600160a01b039094168352601a81528383209183525290812055565b601c54600090614c3990600190615609565b6000838152601d6020526040812054601c8054939450909284908110614c6157614c6161570f565b9060005260206000200154905080601c8381548110614c8257614c8261570f565b6000918252602080832090910192909255828152601d9091526040808220849055858252812055601c805480614cba57614cba6156f9565b6001900381819060005260206000200160009055905550505050565b6000614ce18361146f565b6001600160a01b039093166000908152601a602090815260408083208684528252808320859055938252601b9052919091209190915550565b828054614d2690615663565b90600052602060002090601f016020900481019282614d485760008555614d8e565b82601f10614d6157805160ff1916838001178555614d8e565b82800160010185558215614d8e579182015b82811115614d8e578251825591602001919060010190614d73565b50614d9a929150614dd4565b5090565b508054614daa90615663565b6000825580601f10614dba575050565b601f016020900490600052602060002090810190610da091905b5b80821115614d9a5760008155600101614dd5565b600067ffffffffffffffff80841115614e0457614e04615725565b604051601f8501601f19908116603f01168101908282118183101715614e2c57614e2c615725565b81604052809350858152868686011115614e4557600080fd5b858560208301376000602087830101525050509392505050565b600082601f830112614e7057600080fd5b611a1983833560208501614de9565b600060208284031215614e9157600080fd5b8135611a198161573b565b600060208284031215614eae57600080fd5b8151611a198161573b565b60008060408385031215614ecc57600080fd5b8235614ed78161573b565b91506020830135614ee78161573b565b809150509250929050565b600080600060608486031215614f0757600080fd5b8335614f128161573b565b92506020840135614f228161573b565b929592945050506040919091013590565b60008060008060808587031215614f4957600080fd5b8435614f548161573b565b93506020850135614f648161573b565b925060408501359150606085013567ffffffffffffffff811115614f8757600080fd5b8501601f81018713614f9857600080fd5b614fa787823560208401614de9565b91505092959194509250565b60008060408385031215614fc657600080fd5b8235614fd18161573b565b91506020830135614ee781615750565b60008060408385031215614ff457600080fd5b8235614fff8161573b565b9150602083013567ffffffffffffffff81111561501b57600080fd5b61502785828601614e5f565b9150509250929050565b60008060006060848603121561504657600080fd5b83356150518161573b565b9250602084013567ffffffffffffffff8082111561506e57600080fd5b61507a87838801614e5f565b9350604086013591508082111561509057600080fd5b5061509d86828701614e5f565b9150509250925092565b6000806000606084860312156150bc57600080fd5b83356150c78161573b565b9250602084013567ffffffffffffffff8111156150e357600080fd5b6150ef86828701614e5f565b925050604084013590509250925092565b6000806000806080858703121561511657600080fd5b84356151218161573b565b9350602085013567ffffffffffffffff8082111561513e57600080fd5b61514a88838901614e5f565b945060408701359350606087013591508082111561516757600080fd5b50614fa787828801614e5f565b6000806040838503121561518757600080fd5b82356151928161573b565b946020939093013593505050565b6000602082840312156151b257600080fd5b8135611a1981615750565b6000602082840312156151cf57600080fd5b8151611a1981615750565b6000602082840312156151ec57600080fd5b5035919050565b6000806040838503121561520657600080fd5b823591506020830135614ee78161573b565b6000806040838503121561522b57600080fd5b50508035926020909101359150565b60006020828403121561524c57600080fd5b8135611a198161575e565b60006020828403121561526957600080fd5b8151611a198161575e565b60006020828403121561528657600080fd5b813567ffffffffffffffff81111561529d57600080fd5b61229584828501614e5f565b6000602082840312156152bb57600080fd5b5051919050565b600081518084526152da816020860160208601615620565b601f01601f19169290920160200192915050565b60008351615300818460208801615620565b835190830190615314818360208801615620565b01949350505050565b7f416363657373436f6e74726f6c3a206163636f756e7420000000000000000000815260008351615355816017850160208801615620565b7001034b99036b4b9b9b4b733903937b6329607d1b6017918401918201528351615386816028840160208801615620565b01602801949350505050565b6001600160a01b039384168152919092166020820152604081019190915260600190565b6001600160a01b03858116825284166020820152604081018390526080606082018190526000906153e9908301846152c2565b9695505050505050565b6001600160a01b0383168152604060208201819052600090612295908301846152c2565b6020808252825182820181905260009190848201906040850190845b8181101561544f57835183529284019291840191600101615433565b50909695505050505050565b602081526000611a1960208301846152c2565b6020808252601690820152752cb7ba93b932903737ba103a3432903130b4b634b33360511b604082015260600190565b60208082526032908201527f4552433732313a207472616e7366657220746f206e6f6e20455243373231526560408201527131b2b4bb32b91034b6b83632b6b2b73a32b960711b606082015260800190565b602080825260169082015275115c9c9bdc88151c985b9cd9995c9a5b99c80854915160521b604082015260600190565b6020808252602d908201527f596f7520646f206e6f742068617665207065726d697373696f6e20746f206d6f60408201526c7665207468697320626164676560981b606082015260800190565b60208082526031908201527f4552433732313a207472616e736665722063616c6c6572206973206e6f74206f6040820152701ddb995c881b9bdc88185c1c1c9bdd9959607a1b606082015260800190565b600082198211156155d1576155d16156cd565b500190565b6000826155e5576155e56156e3565b500490565b6000816000190483118215151615615604576156046156cd565b500290565b60008282101561561b5761561b6156cd565b500390565b60005b8381101561563b578181015183820152602001615623565b83811115611eb75750506000910152565b60008161565b5761565b6156cd565b506000190190565b600181811c9082168061567757607f821691505b6020821081141561569857634e487b7160e01b600052602260045260246000fd5b50919050565b60006000198214156156b2576156b26156cd565b5060010190565b6000826156c8576156c86156e3565b500690565b634e487b7160e01b600052601160045260246000fd5b634e487b7160e01b600052601260045260246000fd5b634e487b7160e01b600052603160045260246000fd5b634e487b7160e01b600052603260045260246000fd5b634e487b7160e01b600052604160045260246000fd5b6001600160a01b0381168114610da057600080fd5b8015158114610da057600080fd5b6001600160e01b031981168114610da057600080fdfefa8e4989e1d689f7bc5c4b25b87efb51fecdecb19ba62847e29c759e12a89acd048bc71fa1cb2c119c339cf9cf00a97996a19a9d991ce5fe049f2fa5459e7990f0f4b159a6e2a4815eb3ca3df080bfa70c9270662c59bcaa4479a456220183e60538d24a8b7882d7b2e36af243d4af61c23e86e3daa6cb8c887b53220b2f57207c9d7f6f02908185bffb3f7fc9afb29fd7bf93675af8fd4b655ee05c2cee1e0ea26469706673582212200496578b17004347d5d62cb686565730098552470b910121538c22e9eac4d2b864736f6c63430008070033",
  "immutableReferences": {},
  "source": "pragma solidity ^0.8.0;\n\nimport \"../src/ERC721/TippingBadge.sol\";\n\n\ncontract GoldStars is TippingBadge {\n\n\n     constructor(address _AddressManagerAddress)\n        TippingBadge(\"GoldStars\", \"Gold\", _AddressManagerAddress)\n    {\n    }      \n\n  \n}",
  "sourcePath": "/home/n/Desktop/PinkSlips_FrontEnd_REFORMAT/contracts/badges/GoldStars.sol",
  "compiler": {
    "name": "solc",
    "version": "0.8.7+commit.e28d00a7.Emscripten.clang"
  },
  "schemaVersion": "3.4.1",
  "updatedAt": "2021-08-12T06:31:46.177Z",
  "networkType": "ethereum",
  "devdoc": {
    "kind": "dev",
    "methods": {
      "approve(address,uint256)": {
        "details": "See {IERC721-approve}."
      },
      "balanceOf(address)": {
        "details": "See {IERC721-balanceOf}."
      },
      "getApproved(uint256)": {
        "details": "See {IERC721-getApproved}."
      },
      "getRoleAdmin(bytes32)": {
        "details": "Returns the admin role that controls `role`. See {grantRole} and {revokeRole}. To change a role's admin, use {_setRoleAdmin}."
      },
      "getRoleMember(bytes32,uint256)": {
        "details": "Returns one of the accounts that have `role`. `index` must be a value between 0 and {getRoleMemberCount}, non-inclusive. Role bearers are not sorted in any particular way, and their ordering may change at any point. WARNING: When using {getRoleMember} and {getRoleMemberCount}, make sure you perform all queries on the same block. See the following https://forum.openzeppelin.com/t/iterating-over-elements-on-enumerableset-in-openzeppelin-contracts/2296[forum post] for more information."
      },
      "getRoleMemberCount(bytes32)": {
        "details": "Returns the number of accounts that have `role`. Can be used together with {getRoleMember} to enumerate all bearers of a role."
      },
      "grantRole(bytes32,address)": {
        "details": "Overload {grantRole} to track enumerable memberships"
      },
      "hasRole(bytes32,address)": {
        "details": "Returns `true` if `account` has been granted `role`."
      },
      "isApprovedForAll(address,address)": {
        "details": "See {IERC721-isApprovedForAll}."
      },
      "issueBadge(address,string)": {
        "details": "//// Issuance Desk                                                                            ////"
      },
      "name()": {
        "details": "See {IERC721Metadata-name}."
      },
      "ownerOf(uint256)": {
        "details": "See {IERC721-ownerOf}."
      },
      "pause()": {
        "details": "//// Maintanence\\\\\\\\\\\\\\\\\\\\\\\\\\\\\\\\\\\\\\\\\\\\\\\\\\\\\\                                                   ////"
      },
      "paused()": {
        "details": "Returns true if the contract is paused, and false otherwise."
      },
      "renounceRole(bytes32,address)": {
        "details": "Overload {renounceRole} to track enumerable memberships"
      },
      "revokeRole(bytes32,address)": {
        "details": "Overload {revokeRole} to track enumerable memberships"
      },
      "safeTransferFrom(address,address,uint256)": {
        "details": "See {IERC721-safeTransferFrom}."
      },
      "safeTransferFrom(address,address,uint256,bytes)": {
        "details": "See {IERC721-safeTransferFrom}."
      },
      "setApprovalForAll(address,bool)": {
        "details": "See {IERC721-setApprovalForAll}."
      },
      "setMintingCost(uint256)": {
        "details": "//// Set Minting Costs                                                                        ////"
      },
      "symbol()": {
        "details": "See {IERC721Metadata-symbol}."
      },
      "tokenByIndex(uint256)": {
        "details": "See {IERC721Enumerable-tokenByIndex}."
      },
      "tokenOfOwnerByIndex(address,uint256)": {
        "details": "See {IERC721Enumerable-tokenOfOwnerByIndex}."
      },
      "totalSupply()": {
        "details": "See {IERC721Enumerable-totalSupply}."
      },
      "transferFrom(address,address,uint256)": {
        "details": "See {IERC721-transferFrom}."
      }
    },
    "version": 1
  },
  "userdoc": {
    "kind": "user",
    "methods": {},
    "version": 1
  }
}