{
  "contractName": "GoldStars",
  "abi": [
    {
      "inputs": [
        {
          "internalType": "address",
          "name": "_AddressManagerAddress",
          "type": "address"
        }
      ],
      "stateMutability": "nonpayable",
      "type": "constructor"
    },
    {
      "anonymous": false,
      "inputs": [
        {
          "indexed": true,
          "internalType": "address",
          "name": "owner",
          "type": "address"
        },
        {
          "indexed": true,
          "internalType": "address",
          "name": "approved",
          "type": "address"
        },
        {
          "indexed": true,
          "internalType": "uint256",
          "name": "tokenId",
          "type": "uint256"
        }
      ],
      "name": "Approval",
      "type": "event"
    },
    {
      "anonymous": false,
      "inputs": [
        {
          "indexed": true,
          "internalType": "address",
          "name": "owner",
          "type": "address"
        },
        {
          "indexed": true,
          "internalType": "address",
          "name": "operator",
          "type": "address"
        },
        {
          "indexed": false,
          "internalType": "bool",
          "name": "approved",
          "type": "bool"
        }
      ],
      "name": "ApprovalForAll",
      "type": "event"
    },
    {
      "anonymous": false,
      "inputs": [
        {
          "indexed": false,
          "internalType": "address",
          "name": "account",
          "type": "address"
        }
      ],
      "name": "Paused",
      "type": "event"
    },
    {
      "anonymous": false,
      "inputs": [
        {
          "indexed": true,
          "internalType": "bytes32",
          "name": "role",
          "type": "bytes32"
        },
        {
          "indexed": true,
          "internalType": "bytes32",
          "name": "previousAdminRole",
          "type": "bytes32"
        },
        {
          "indexed": true,
          "internalType": "bytes32",
          "name": "newAdminRole",
          "type": "bytes32"
        }
      ],
      "name": "RoleAdminChanged",
      "type": "event"
    },
    {
      "anonymous": false,
      "inputs": [
        {
          "indexed": true,
          "internalType": "bytes32",
          "name": "role",
          "type": "bytes32"
        },
        {
          "indexed": true,
          "internalType": "address",
          "name": "account",
          "type": "address"
        },
        {
          "indexed": true,
          "internalType": "address",
          "name": "sender",
          "type": "address"
        }
      ],
      "name": "RoleGranted",
      "type": "event"
    },
    {
      "anonymous": false,
      "inputs": [
        {
          "indexed": true,
          "internalType": "bytes32",
          "name": "role",
          "type": "bytes32"
        },
        {
          "indexed": true,
          "internalType": "address",
          "name": "account",
          "type": "address"
        },
        {
          "indexed": true,
          "internalType": "address",
          "name": "sender",
          "type": "address"
        }
      ],
      "name": "RoleRevoked",
      "type": "event"
    },
    {
      "anonymous": false,
      "inputs": [
        {
          "indexed": true,
          "internalType": "address",
          "name": "from",
          "type": "address"
        },
        {
          "indexed": true,
          "internalType": "address",
          "name": "to",
          "type": "address"
        },
        {
          "indexed": true,
          "internalType": "uint256",
          "name": "tokenId",
          "type": "uint256"
        }
      ],
      "name": "Transfer",
      "type": "event"
    },
    {
      "anonymous": false,
      "inputs": [
        {
          "indexed": false,
          "internalType": "address",
          "name": "account",
          "type": "address"
        }
      ],
      "name": "Unpaused",
      "type": "event"
    },
    {
      "inputs": [],
      "name": "AddressManagerAddress",
      "outputs": [
        {
          "internalType": "address",
          "name": "",
          "type": "address"
        }
      ],
      "stateMutability": "view",
      "type": "function",
      "constant": true
    },
    {
      "inputs": [
        {
          "internalType": "uint256",
          "name": "",
          "type": "uint256"
        }
      ],
      "name": "BadgeInfo",
      "outputs": [
        {
          "internalType": "address",
          "name": "gifter",
          "type": "address"
        },
        {
          "internalType": "string",
          "name": "reason",
          "type": "string"
        }
      ],
      "stateMutability": "view",
      "type": "function",
      "constant": true
    },
    {
      "inputs": [
        {
          "internalType": "address",
          "name": "",
          "type": "address"
        },
        {
          "internalType": "uint256",
          "name": "",
          "type": "uint256"
        }
      ],
      "name": "BadgesSent",
      "outputs": [
        {
          "internalType": "uint256",
          "name": "",
          "type": "uint256"
        }
      ],
      "stateMutability": "view",
      "type": "function",
      "constant": true
    },
    {
      "inputs": [],
      "name": "ChadBadgeAddress",
      "outputs": [
        {
          "internalType": "address",
          "name": "",
          "type": "address"
        }
      ],
      "stateMutability": "view",
      "type": "function",
      "constant": true
    },
    {
      "inputs": [],
      "name": "ColoredIDAddress",
      "outputs": [
        {
          "internalType": "address",
          "name": "",
          "type": "address"
        }
      ],
      "stateMutability": "view",
      "type": "function",
      "constant": true
    },
    {
      "inputs": [],
      "name": "CourtClerk",
      "outputs": [
        {
          "internalType": "address",
          "name": "",
          "type": "address"
        }
      ],
      "stateMutability": "view",
      "type": "function",
      "constant": true
    },
    {
      "inputs": [],
      "name": "DEFAULT_ADMIN_ROLE",
      "outputs": [
        {
          "internalType": "bytes32",
          "name": "",
          "type": "bytes32"
        }
      ],
      "stateMutability": "view",
      "type": "function",
      "constant": true
    },
    {
      "inputs": [],
      "name": "GAVELS_BAILIFF",
      "outputs": [
        {
          "internalType": "bytes32",
          "name": "",
          "type": "bytes32"
        }
      ],
      "stateMutability": "view",
      "type": "function",
      "constant": true
    },
    {
      "inputs": [],
      "name": "GavelDAOAgent",
      "outputs": [
        {
          "internalType": "address",
          "name": "",
          "type": "address"
        }
      ],
      "stateMutability": "view",
      "type": "function",
      "constant": true
    },
    {
      "inputs": [],
      "name": "GavelTokenAddress",
      "outputs": [
        {
          "internalType": "address",
          "name": "",
          "type": "address"
        }
      ],
      "stateMutability": "view",
      "type": "function",
      "constant": true
    },
    {
      "inputs": [],
      "name": "GavelVote",
      "outputs": [
        {
          "internalType": "bool",
          "name": "",
          "type": "bool"
        }
      ],
      "stateMutability": "view",
      "type": "function",
      "constant": true
    },
    {
      "inputs": [],
      "name": "GoldStarAddress",
      "outputs": [
        {
          "internalType": "address",
          "name": "",
          "type": "address"
        }
      ],
      "stateMutability": "view",
      "type": "function",
      "constant": true
    },
    {
      "inputs": [],
      "name": "JERK_ROLE",
      "outputs": [
        {
          "internalType": "bytes32",
          "name": "",
          "type": "bytes32"
        }
      ],
      "stateMutability": "view",
      "type": "function",
      "constant": true
    },
    {
      "inputs": [],
      "name": "JURY_BAILIFF",
      "outputs": [
        {
          "internalType": "bytes32",
          "name": "",
          "type": "bytes32"
        }
      ],
      "stateMutability": "view",
      "type": "function",
      "constant": true
    },
    {
      "inputs": [],
      "name": "JuryDAOAgent",
      "outputs": [
        {
          "internalType": "address",
          "name": "",
          "type": "address"
        }
      ],
      "stateMutability": "view",
      "type": "function",
      "constant": true
    },
    {
      "inputs": [],
      "name": "JuryPoolAddress",
      "outputs": [
        {
          "internalType": "address",
          "name": "",
          "type": "address"
        }
      ],
      "stateMutability": "view",
      "type": "function",
      "constant": true
    },
    {
      "inputs": [],
      "name": "JuryVote",
      "outputs": [
        {
          "internalType": "bool",
          "name": "",
          "type": "bool"
        }
      ],
      "stateMutability": "view",
      "type": "function",
      "constant": true
    },
    {
      "inputs": [],
      "name": "MINI_BAILIFF_ROLE",
      "outputs": [
        {
          "internalType": "bytes32",
          "name": "",
          "type": "bytes32"
        }
      ],
      "stateMutability": "view",
      "type": "function",
      "constant": true
    },
    {
      "inputs": [],
      "name": "MiniBailiff",
      "outputs": [
        {
          "internalType": "address",
          "name": "",
          "type": "address"
        }
      ],
      "stateMutability": "view",
      "type": "function",
      "constant": true
    },
    {
      "inputs": [],
      "name": "PinkSlipAddress",
      "outputs": [
        {
          "internalType": "address",
          "name": "",
          "type": "address"
        }
      ],
      "stateMutability": "view",
      "type": "function",
      "constant": true
    },
    {
      "inputs": [],
      "name": "RedPenTokenAddress",
      "outputs": [
        {
          "internalType": "address",
          "name": "",
          "type": "address"
        }
      ],
      "stateMutability": "view",
      "type": "function",
      "constant": true
    },
    {
      "inputs": [],
      "name": "THE_COURT_ROLE",
      "outputs": [
        {
          "internalType": "bytes32",
          "name": "",
          "type": "bytes32"
        }
      ],
      "stateMutability": "view",
      "type": "function",
      "constant": true
    },
    {
      "inputs": [],
      "name": "TheCourtAddress",
      "outputs": [
        {
          "internalType": "address",
          "name": "",
          "type": "address"
        }
      ],
      "stateMutability": "view",
      "type": "function",
      "constant": true
    },
    {
      "inputs": [],
      "name": "TreasuryAddress",
      "outputs": [
        {
          "internalType": "address",
          "name": "",
          "type": "address"
        }
      ],
      "stateMutability": "view",
      "type": "function",
      "constant": true
    },
    {
      "inputs": [],
      "name": "addressManager",
      "outputs": [
        {
          "internalType": "contract AddressManager",
          "name": "",
          "type": "address"
        }
      ],
      "stateMutability": "view",
      "type": "function",
      "constant": true
    },
    {
      "inputs": [
        {
          "internalType": "address",
          "name": "to",
          "type": "address"
        },
        {
          "internalType": "uint256",
          "name": "tokenId",
          "type": "uint256"
        }
      ],
      "name": "approve",
      "outputs": [],
      "stateMutability": "nonpayable",
      "type": "function"
    },
    {
      "inputs": [],
      "name": "badgeColor",
      "outputs": [
        {
          "internalType": "string",
          "name": "",
          "type": "string"
        }
      ],
      "stateMutability": "view",
      "type": "function",
      "constant": true
    },
    {
      "inputs": [],
      "name": "badgeName",
      "outputs": [
        {
          "internalType": "string",
          "name": "",
          "type": "string"
        }
      ],
      "stateMutability": "view",
      "type": "function",
      "constant": true
    },
    {
      "inputs": [
        {
          "internalType": "address",
          "name": "owner",
          "type": "address"
        }
      ],
      "name": "balanceOf",
      "outputs": [
        {
          "internalType": "uint256",
          "name": "",
          "type": "uint256"
        }
      ],
      "stateMutability": "view",
      "type": "function",
      "constant": true
    },
    {
      "inputs": [],
      "name": "baseURI_",
      "outputs": [
        {
          "internalType": "string",
          "name": "",
          "type": "string"
        }
      ],
      "stateMutability": "view",
      "type": "function",
      "constant": true
    },
    {
      "inputs": [
        {
          "internalType": "uint256",
          "name": "valueMustBe69",
          "type": "uint256"
        }
      ],
      "name": "destroyAndLockContract",
      "outputs": [
        {
          "internalType": "bool",
          "name": "",
          "type": "bool"
        }
      ],
      "stateMutability": "nonpayable",
      "type": "function"
    },
    {
      "inputs": [
        {
          "internalType": "uint256",
          "name": "tokenId",
          "type": "uint256"
        }
      ],
      "name": "getApproved",
      "outputs": [
        {
          "internalType": "address",
          "name": "",
          "type": "address"
        }
      ],
      "stateMutability": "view",
      "type": "function",
      "constant": true
    },
    {
      "inputs": [
        {
          "internalType": "uint256",
          "name": "_tokenId",
          "type": "uint256"
        }
      ],
      "name": "getBadgeReason",
      "outputs": [
        {
          "internalType": "string",
          "name": "_theReason",
          "type": "string"
        }
      ],
      "stateMutability": "view",
      "type": "function",
      "constant": true
    },
    {
      "inputs": [
        {
          "internalType": "uint256",
          "name": "_tokenId",
          "type": "uint256"
        }
      ],
      "name": "getBadgeSender",
      "outputs": [
        {
          "internalType": "address",
          "name": "_theGifter",
          "type": "address"
        }
      ],
      "stateMutability": "view",
      "type": "function",
      "constant": true
    },
    {
      "inputs": [
        {
          "internalType": "address",
          "name": "_gifter",
          "type": "address"
        }
      ],
      "name": "getBadgesSent",
      "outputs": [
        {
          "internalType": "uint256[]",
          "name": "_BadgesSent",
          "type": "uint256[]"
        }
      ],
      "stateMutability": "view",
      "type": "function",
      "constant": true
    },
    {
      "inputs": [
        {
          "internalType": "bytes32",
          "name": "role",
          "type": "bytes32"
        }
      ],
      "name": "getRoleAdmin",
      "outputs": [
        {
          "internalType": "bytes32",
          "name": "",
          "type": "bytes32"
        }
      ],
      "stateMutability": "view",
      "type": "function",
      "constant": true
    },
    {
      "inputs": [
        {
          "internalType": "bytes32",
          "name": "role",
          "type": "bytes32"
        },
        {
          "internalType": "uint256",
          "name": "index",
          "type": "uint256"
        }
      ],
      "name": "getRoleMember",
      "outputs": [
        {
          "internalType": "address",
          "name": "",
          "type": "address"
        }
      ],
      "stateMutability": "view",
      "type": "function",
      "constant": true
    },
    {
      "inputs": [
        {
          "internalType": "bytes32",
          "name": "role",
          "type": "bytes32"
        }
      ],
      "name": "getRoleMemberCount",
      "outputs": [
        {
          "internalType": "uint256",
          "name": "",
          "type": "uint256"
        }
      ],
      "stateMutability": "view",
      "type": "function",
      "constant": true
    },
    {
      "inputs": [
        {
          "internalType": "bytes32",
          "name": "role",
          "type": "bytes32"
        },
        {
          "internalType": "address",
          "name": "account",
          "type": "address"
        }
      ],
      "name": "grantRole",
      "outputs": [],
      "stateMutability": "nonpayable",
      "type": "function"
    },
    {
      "inputs": [
        {
          "internalType": "bytes32",
          "name": "role",
          "type": "bytes32"
        },
        {
          "internalType": "address",
          "name": "account",
          "type": "address"
        }
      ],
      "name": "hasRole",
      "outputs": [
        {
          "internalType": "bool",
          "name": "",
          "type": "bool"
        }
      ],
      "stateMutability": "view",
      "type": "function",
      "constant": true
    },
    {
      "inputs": [
        {
          "internalType": "address",
          "name": "owner",
          "type": "address"
        },
        {
          "internalType": "address",
          "name": "operator",
          "type": "address"
        }
      ],
      "name": "isApprovedForAll",
      "outputs": [
        {
          "internalType": "bool",
          "name": "",
          "type": "bool"
        }
      ],
      "stateMutability": "view",
      "type": "function",
      "constant": true
    },
    {
      "inputs": [
        {
          "internalType": "address",
          "name": "addressToCheck",
          "type": "address"
        },
        {
          "internalType": "uint256",
          "name": "badgeTokenID",
          "type": "uint256"
        }
      ],
      "name": "isBadgeSender",
      "outputs": [
        {
          "internalType": "bool",
          "name": "",
          "type": "bool"
        }
      ],
      "stateMutability": "view",
      "type": "function",
      "constant": true
    },
    {
      "inputs": [],
      "name": "isForeverLocked",
      "outputs": [
        {
          "internalType": "bool",
          "name": "",
          "type": "bool"
        }
      ],
      "stateMutability": "view",
      "type": "function",
      "constant": true
    },
    {
      "inputs": [
        {
          "internalType": "address",
          "name": "receivingAddress",
          "type": "address"
        },
        {
          "internalType": "string",
          "name": "_reason",
          "type": "string"
        }
      ],
      "name": "issueBadge",
      "outputs": [
        {
          "internalType": "uint256",
          "name": "newId",
          "type": "uint256"
        }
      ],
      "stateMutability": "nonpayable",
      "type": "function"
    },
    {
      "inputs": [
        {
          "internalType": "address",
          "name": "receivingAddress",
          "type": "address"
        },
        {
          "internalType": "string",
          "name": "_reason",
          "type": "string"
        },
        {
          "internalType": "uint256",
          "name": "_tipAmount",
          "type": "uint256"
        },
        {
          "internalType": "string",
          "name": "_tokenURI",
          "type": "string"
        }
      ],
      "name": "issueBadge",
      "outputs": [
        {
          "internalType": "uint256",
          "name": "newId",
          "type": "uint256"
        }
      ],
      "stateMutability": "nonpayable",
      "type": "function"
    },
    {
      "inputs": [
        {
          "internalType": "address",
          "name": "receivingAddress",
          "type": "address"
        },
        {
          "internalType": "string",
          "name": "_reason",
          "type": "string"
        },
        {
          "internalType": "uint256",
          "name": "_tipAmount",
          "type": "uint256"
        }
      ],
      "name": "issueBadge",
      "outputs": [
        {
          "internalType": "uint256",
          "name": "newId",
          "type": "uint256"
        }
      ],
      "stateMutability": "nonpayable",
      "type": "function"
    },
    {
      "inputs": [
        {
          "internalType": "address",
          "name": "receivingAddress",
          "type": "address"
        },
        {
          "internalType": "string",
          "name": "_reason",
          "type": "string"
        },
        {
          "internalType": "string",
          "name": "_tokenURI",
          "type": "string"
        }
      ],
      "name": "issueBadge",
      "outputs": [
        {
          "internalType": "uint256",
          "name": "newId",
          "type": "uint256"
        }
      ],
      "stateMutability": "nonpayable",
      "type": "function"
    },
    {
      "inputs": [],
      "name": "jerkSanctions",
      "outputs": [
        {
          "internalType": "bool",
          "name": "",
          "type": "bool"
        }
      ],
      "stateMutability": "view",
      "type": "function",
      "constant": true
    },
    {
      "inputs": [],
      "name": "mintingCost",
      "outputs": [
        {
          "internalType": "uint256",
          "name": "",
          "type": "uint256"
        }
      ],
      "stateMutability": "view",
      "type": "function",
      "constant": true
    },
    {
      "inputs": [],
      "name": "mintingCostFloor",
      "outputs": [
        {
          "internalType": "uint256",
          "name": "",
          "type": "uint256"
        }
      ],
      "stateMutability": "view",
      "type": "function",
      "constant": true
    },
    {
      "inputs": [],
      "name": "name",
      "outputs": [
        {
          "internalType": "string",
          "name": "",
          "type": "string"
        }
      ],
      "stateMutability": "view",
      "type": "function",
      "constant": true
    },
    {
      "inputs": [],
      "name": "nextTokenId",
      "outputs": [
        {
          "internalType": "uint256",
          "name": "_nextTokenId",
          "type": "uint256"
        }
      ],
      "stateMutability": "view",
      "type": "function",
      "constant": true
    },
    {
      "inputs": [
        {
          "internalType": "uint256",
          "name": "tokenId",
          "type": "uint256"
        }
      ],
      "name": "ownerOf",
      "outputs": [
        {
          "internalType": "address",
          "name": "",
          "type": "address"
        }
      ],
      "stateMutability": "view",
      "type": "function",
      "constant": true
    },
    {
      "inputs": [],
      "name": "pause",
      "outputs": [],
      "stateMutability": "nonpayable",
      "type": "function"
    },
    {
      "inputs": [],
      "name": "paused",
      "outputs": [
        {
          "internalType": "bool",
          "name": "",
          "type": "bool"
        }
      ],
      "stateMutability": "view",
      "type": "function",
      "constant": true
    },
    {
      "inputs": [],
      "name": "payItForwardTreasuryRatio_Divisor",
      "outputs": [
        {
          "internalType": "uint256",
          "name": "",
          "type": "uint256"
        }
      ],
      "stateMutability": "view",
      "type": "function",
      "constant": true
    },
    {
      "inputs": [],
      "name": "payItForwardTreasuryRatio_Numerator",
      "outputs": [
        {
          "internalType": "uint256",
          "name": "",
          "type": "uint256"
        }
      ],
      "stateMutability": "view",
      "type": "function",
      "constant": true
    },
    {
      "inputs": [],
      "name": "redPens",
      "outputs": [
        {
          "internalType": "contract ERC20",
          "name": "",
          "type": "address"
        }
      ],
      "stateMutability": "view",
      "type": "function",
      "constant": true
    },
    {
      "inputs": [
        {
          "internalType": "bool",
          "name": "thisIsNotReversible",
          "type": "bool"
        }
      ],
      "name": "refreshBadges",
      "outputs": [
        {
          "internalType": "bool",
          "name": "",
          "type": "bool"
        }
      ],
      "stateMutability": "nonpayable",
      "type": "function"
    },
    {
      "inputs": [
        {
          "internalType": "bytes32",
          "name": "role",
          "type": "bytes32"
        },
        {
          "internalType": "address",
          "name": "account",
          "type": "address"
        }
      ],
      "name": "renounceRole",
      "outputs": [],
      "stateMutability": "nonpayable",
      "type": "function"
    },
    {
      "inputs": [],
      "name": "resetVote",
      "outputs": [],
      "stateMutability": "nonpayable",
      "type": "function"
    },
    {
      "inputs": [
        {
          "internalType": "uint256",
          "name": "tokenId",
          "type": "uint256"
        }
      ],
      "name": "revokeBadge",
      "outputs": [],
      "stateMutability": "nonpayable",
      "type": "function"
    },
    {
      "inputs": [
        {
          "internalType": "bytes32",
          "name": "role",
          "type": "bytes32"
        },
        {
          "internalType": "address",
          "name": "account",
          "type": "address"
        }
      ],
      "name": "revokeRole",
      "outputs": [],
      "stateMutability": "nonpayable",
      "type": "function"
    },
    {
      "inputs": [
        {
          "internalType": "address",
          "name": "from",
          "type": "address"
        },
        {
          "internalType": "address",
          "name": "to",
          "type": "address"
        },
        {
          "internalType": "uint256",
          "name": "tokenId",
          "type": "uint256"
        }
      ],
      "name": "safeTransferFrom",
      "outputs": [],
      "stateMutability": "nonpayable",
      "type": "function"
    },
    {
      "inputs": [
        {
          "internalType": "address",
          "name": "from",
          "type": "address"
        },
        {
          "internalType": "address",
          "name": "to",
          "type": "address"
        },
        {
          "internalType": "uint256",
          "name": "tokenId",
          "type": "uint256"
        },
        {
          "internalType": "bytes",
          "name": "_data",
          "type": "bytes"
        }
      ],
      "name": "safeTransferFrom",
      "outputs": [],
      "stateMutability": "nonpayable",
      "type": "function"
    },
    {
      "inputs": [
        {
          "internalType": "address",
          "name": "operator",
          "type": "address"
        },
        {
          "internalType": "bool",
          "name": "approved",
          "type": "bool"
        }
      ],
      "name": "setApprovalForAll",
      "outputs": [],
      "stateMutability": "nonpayable",
      "type": "function"
    },
    {
      "inputs": [
        {
          "internalType": "string",
          "name": "_baseURIString",
          "type": "string"
        }
      ],
      "name": "setBaseURI",
      "outputs": [
        {
          "internalType": "bool",
          "name": "",
          "type": "bool"
        }
      ],
      "stateMutability": "nonpayable",
      "type": "function"
    },
    {
      "inputs": [
        {
          "internalType": "uint256",
          "name": "costInWei",
          "type": "uint256"
        }
      ],
      "name": "setMintingCost",
      "outputs": [
        {
          "internalType": "bool",
          "name": "",
          "type": "bool"
        }
      ],
      "stateMutability": "nonpayable",
      "type": "function"
    },
    {
      "inputs": [
        {
          "internalType": "uint256",
          "name": "costFloorInWei",
          "type": "uint256"
        }
      ],
      "name": "setMintingCostFloor",
      "outputs": [
        {
          "internalType": "bool",
          "name": "",
          "type": "bool"
        }
      ],
      "stateMutability": "nonpayable",
      "type": "function"
    },
    {
      "inputs": [
        {
          "internalType": "uint256",
          "name": "_numerator",
          "type": "uint256"
        },
        {
          "internalType": "uint256",
          "name": "_divisor",
          "type": "uint256"
        }
      ],
      "name": "setTipRatio",
      "outputs": [
        {
          "internalType": "bool",
          "name": "",
          "type": "bool"
        }
      ],
      "stateMutability": "nonpayable",
      "type": "function"
    },
    {
      "inputs": [
        {
          "internalType": "bytes4",
          "name": "interfaceId",
          "type": "bytes4"
        }
      ],
      "name": "supportsInterface",
      "outputs": [
        {
          "internalType": "bool",
          "name": "",
          "type": "bool"
        }
      ],
      "stateMutability": "view",
      "type": "function",
      "constant": true
    },
    {
      "inputs": [],
      "name": "symbol",
      "outputs": [
        {
          "internalType": "string",
          "name": "",
          "type": "string"
        }
      ],
      "stateMutability": "view",
      "type": "function",
      "constant": true
    },
    {
      "inputs": [],
      "name": "syncAllRoles",
      "outputs": [],
      "stateMutability": "nonpayable",
      "type": "function"
    },
    {
      "inputs": [
        {
          "internalType": "bytes32",
          "name": "ROLE_TO_SYNC",
          "type": "bytes32"
        }
      ],
      "name": "syncSingleRole",
      "outputs": [],
      "stateMutability": "nonpayable",
      "type": "function"
    },
    {
      "inputs": [],
      "name": "syncVotes",
      "outputs": [],
      "stateMutability": "nonpayable",
      "type": "function"
    },
    {
      "inputs": [
        {
          "internalType": "uint256",
          "name": "index",
          "type": "uint256"
        }
      ],
      "name": "tokenByIndex",
      "outputs": [
        {
          "internalType": "uint256",
          "name": "",
          "type": "uint256"
        }
      ],
      "stateMutability": "view",
      "type": "function",
      "constant": true
    },
    {
      "inputs": [
        {
          "internalType": "address",
          "name": "owner",
          "type": "address"
        },
        {
          "internalType": "uint256",
          "name": "index",
          "type": "uint256"
        }
      ],
      "name": "tokenOfOwnerByIndex",
      "outputs": [
        {
          "internalType": "uint256",
          "name": "",
          "type": "uint256"
        }
      ],
      "stateMutability": "view",
      "type": "function",
      "constant": true
    },
    {
      "inputs": [
        {
          "internalType": "uint256",
          "name": "_tokenId",
          "type": "uint256"
        }
      ],
      "name": "tokenURI",
      "outputs": [
        {
          "internalType": "string",
          "name": "_URI",
          "type": "string"
        }
      ],
      "stateMutability": "view",
      "type": "function",
      "constant": true
    },
    {
      "inputs": [],
      "name": "totalSupply",
      "outputs": [
        {
          "internalType": "uint256",
          "name": "",
          "type": "uint256"
        }
      ],
      "stateMutability": "view",
      "type": "function",
      "constant": true
    },
    {
      "inputs": [
        {
          "internalType": "address",
          "name": "from",
          "type": "address"
        },
        {
          "internalType": "address",
          "name": "to",
          "type": "address"
        },
        {
          "internalType": "uint256",
          "name": "tokenId",
          "type": "uint256"
        }
      ],
      "name": "transferFrom",
      "outputs": [],
      "stateMutability": "nonpayable",
      "type": "function"
    },
    {
      "inputs": [],
      "name": "unpause",
      "outputs": [],
      "stateMutability": "nonpayable",
      "type": "function"
    },
    {
      "inputs": [],
      "name": "updateAddressManager",
      "outputs": [],
      "stateMutability": "nonpayable",
      "type": "function"
    },
    {
      "inputs": [],
      "name": "updateAllAddresses",
      "outputs": [],
      "stateMutability": "nonpayable",
      "type": "function"
    },
    {
      "inputs": [],
      "name": "updateAllRoles",
      "outputs": [],
      "stateMutability": "nonpayable",
      "type": "function"
    },
    {
      "inputs": [],
      "name": "updateDAOAddresses",
      "outputs": [],
      "stateMutability": "nonpayable",
      "type": "function"
    },
    {
      "inputs": [],
      "name": "updatePaymentToken",
      "outputs": [],
      "stateMutability": "nonpayable",
      "type": "function"
    },
    {
      "inputs": [
        {
          "internalType": "bytes32",
          "name": "ROLE_TO_UPDATE",
          "type": "bytes32"
        }
      ],
      "name": "updateSingleRole",
      "outputs": [],
      "stateMutability": "nonpayable",
      "type": "function"
    },
    {
      "inputs": [],
      "name": "updateTokenAddresses",
      "outputs": [],
      "stateMutability": "nonpayable",
      "type": "function"
    }
  ],
  "bytecode": "0x6000805460ff1990811682556011805463ffffffff60a01b19169055601e91909155601f80549091169055636970667360e01b60a0908152601d60f91b60a452602f60f81b60a581905260a6526007608081905260a7604052620000669160229162000cf9565b506729a2241af62c000060255567016345785d8a0000602655600554602780546001600160a01b0319166001600160a01b0390921691909117905560026028556003602955348015620000b857600080fd5b506040516200696a3803806200696a833981016040819052620000db9162000d9f565b6040805180820182526009815268476f6c64537461727360b81b6020808301919091528251808401909352600483526311dbdb1960e21b90830152600380546001600160a01b0385166001600160a01b0319918216811790925560118054909116909117905590828282828282828282826200015662000322565b6200016062000338565b600f546200017a906000906001600160a01b031662000483565b600f54620001b3907f0538d24a8b7882d7b2e36af243d4af61c23e86e3daa6cb8c887b53220b2f5720906001600160a01b031662000483565b600c54620001ec907f048bc71fa1cb2c119c339cf9cf00a97996a19a9d991ce5fe049f2fa5459e7990906001600160a01b031662000483565b600d5462000225907ffa8e4989e1d689f7bc5c4b25b87efb51fecdecb19ba62847e29c759e12a89acd906001600160a01b031662000483565b6010546200025e907ff0f4b159a6e2a4815eb3ca3df080bfa70c9270662c59bcaa4479a456220183e6906001600160a01b031662000483565b6200028b7f7c9d7f6f02908185bffb3f7fc9afb29fd7bf93675af8fd4b655ee05c2cee1e0e600062000483565b508151620002a190601290602085019062000cf9565b508051620002b790601390602084019062000cf9565b50506018805460ff19169055508151620002d8906020908185019062000cf9565b508251620002ee90602190602086019062000cf9565b5050600554602780546001600160a01b0319166001600160a01b039092169190911790555062000e32975050505050505050565b6200032c620004c6565b62000336620007c6565b565b601160009054906101000a90046001600160a01b03166001600160a01b031663ff7e88ec6040518163ffffffff1660e01b815260040160206040518083038186803b1580156200038757600080fd5b505afa1580156200039c573d6000803e3d6000fd5b505050506040513d601f19601f82011682018060405250810190620003c2919062000dd1565b601160156101000a81548160ff021916908315150217905550601160009054906101000a90046001600160a01b03166001600160a01b0316632fb565856040518163ffffffff1660e01b815260040160206040518083038186803b1580156200042a57600080fd5b505afa1580156200043f573d6000803e3d6000fd5b505050506040513d601f19601f8201168201806040525081019062000465919062000dd1565b60118054911515600160b01b0260ff60b01b19909216919091179055565b6200049a828262000bef60201b620028211760201c565b6000828152600260209081526040909120620004c19183906200282b62000bff821b17901c565b505050565b601160009054906101000a90046001600160a01b03166001600160a01b031663dadf56ac6040518163ffffffff1660e01b815260040160206040518083038186803b1580156200051557600080fd5b505afa1580156200052a573d6000803e3d6000fd5b505050506040513d601f19601f8201168201806040525081019062000550919062000d9f565b600c80546001600160a01b0319166001600160a01b039283161790556011546040805163024bebe960e01b81529051919092169163024bebe9916004808301926020929190829003018186803b158015620005aa57600080fd5b505afa158015620005bf573d6000803e3d6000fd5b505050506040513d601f19601f82011682018060405250810190620005e5919062000d9f565b600d80546001600160a01b0319166001600160a01b0392831617905560115460408051635b5c251f60e01b815290519190921691635b5c251f916004808301926020929190829003018186803b1580156200063f57600080fd5b505afa15801562000654573d6000803e3d6000fd5b505050506040513d601f19601f820116820180604052508101906200067a919062000d9f565b600e80546001600160a01b0319166001600160a01b0392831617905560115460408051637310bf1d60e11b81529051919092169163e6217e3a916004808301926020929190829003018186803b158015620006d457600080fd5b505afa158015620006e9573d6000803e3d6000fd5b505050506040513d601f19601f820116820180604052508101906200070f919062000d9f565b601080546001600160a01b0319166001600160a01b039283161790556011546040805163d88127a160e01b81529051919092169163d88127a1916004808301926020929190829003018186803b1580156200076957600080fd5b505afa1580156200077e573d6000803e3d6000fd5b505050506040513d601f19601f82011682018060405250810190620007a4919062000d9f565b600b80546001600160a01b0319166001600160a01b0392909216919091179055565b601160009054906101000a90046001600160a01b03166001600160a01b03166321d7f0086040518163ffffffff1660e01b815260040160206040518083038186803b1580156200081557600080fd5b505afa1580156200082a573d6000803e3d6000fd5b505050506040513d601f19601f8201168201806040525081019062000850919062000d9f565b600480546001600160a01b0319166001600160a01b039283161781556011546040805163762ddb5960e01b81529051919093169263762ddb599281810192602092909190829003018186803b158015620008a957600080fd5b505afa158015620008be573d6000803e3d6000fd5b505050506040513d601f19601f82011682018060405250810190620008e4919062000d9f565b600580546001600160a01b0319166001600160a01b039283161790556011546040805163bfb7dc9960e01b81529051919092169163bfb7dc99916004808301926020929190829003018186803b1580156200093e57600080fd5b505afa15801562000953573d6000803e3d6000fd5b505050506040513d601f19601f8201168201806040525081019062000979919062000d9f565b600680546001600160a01b0319166001600160a01b0392831617905560115460408051633e6111eb60e21b81529051919092169163f98447ac916004808301926020929190829003018186803b158015620009d357600080fd5b505afa158015620009e8573d6000803e3d6000fd5b505050506040513d601f19601f8201168201806040525081019062000a0e919062000d9f565b600780546001600160a01b0319166001600160a01b0392831617905560115460408051630fe1ba9f60e21b815290519190921691633f86ea7c916004808301926020929190829003018186803b15801562000a6857600080fd5b505afa15801562000a7d573d6000803e3d6000fd5b505050506040513d601f19601f8201168201806040525081019062000aa3919062000d9f565b600880546001600160a01b0319166001600160a01b0392831617905560115460408051632b90024160e11b8152905191909216916357200482916004808301926020929190829003018186803b15801562000afd57600080fd5b505afa15801562000b12573d6000803e3d6000fd5b505050506040513d601f19601f8201168201806040525081019062000b38919062000d9f565b600980546001600160a01b0319166001600160a01b0392831617905560115460408051636b58477560e01b815290519190921691636b584775916004808301926020929190829003018186803b15801562000b9257600080fd5b505afa15801562000ba7573d6000803e3d6000fd5b505050506040513d601f19601f8201168201806040525081019062000bcd919062000d9f565b600a80546001600160a01b0319166001600160a01b0392909216919091179055565b62000bfb828262000c1f565b5050565b600062000c16836001600160a01b03841662000ca7565b90505b92915050565b60008281526001602090815260408083206001600160a01b038516845290915290205460ff1662000bfb5760008281526001602081815260408084206001600160a01b0386168086529252808420805460ff19169093179092559051339285917f2f8788117e7eff1d82e926ec794901d17c78024a50270940304540a733656f0d9190a45050565b600081815260018301602052604081205462000cf05750815460018181018455600084815260208082209093018490558454848252828601909352604090209190915562000c19565b50600062000c19565b82805462000d079062000df5565b90600052602060002090601f01602090048101928262000d2b576000855562000d76565b82601f1062000d4657805160ff191683800117855562000d76565b8280016001018555821562000d76579182015b8281111562000d7657825182559160200191906001019062000d59565b5062000d8492915062000d88565b5090565b5b8082111562000d84576000815560010162000d89565b60006020828403121562000db257600080fd5b81516001600160a01b038116811462000dca57600080fd5b9392505050565b60006020828403121562000de457600080fd5b8151801515811462000dca57600080fd5b600181811c9082168062000e0a57607f821691505b6020821081141562000e2c57634e487b7160e01b600052602260045260246000fd5b50919050565b615b288062000e426000396000f3fe608060405234801561001057600080fd5b50600436106104d85760003560e01c806373c8982211610283578063c62b28e81161015c578063e78c266c116100ce578063f1132b3011610092578063f1132b3014610aa5578063f259a29e14610aad578063f7d92d8614610ab5578063f98447ac14610abd578063f98db25314610ad0578063ff7e88ec14610ae357600080fd5b8063e78c266c14610a4e578063e985e9c514610a61578063e9a5323014610a74578063ebf98abf14610a89578063ee0b4c3514610a9257600080fd5b8063d547741f11610120578063d547741f146109e7578063d88127a1146109fa578063dadf56ac14610a0d578063de2cff0314610a20578063dea6f9c814610a33578063e6217e3a14610a3b57600080fd5b8063c62b28e814610984578063c87b56dd14610997578063ca15c873146109aa578063cce84392146109bd578063cf4ece15146109d257600080fd5b806396ac6bf0116101f5578063a5f7079a116101b9578063a5f7079a14610903578063a78e746f14610916578063b88d4fde1461092a578063bf7969671461093d578063bfb7dc9914610950578063c04e17e31461096357600080fd5b806396ac6bf0146108b35780639ac3eaa7146108c6578063a217fddf146108d3578063a22cb465146108db578063a32c5e59146108ee57600080fd5b80638456cb59116102475780638456cb59146108615780638685f8db1461086957806387e9152d1461087c5780639010d07c1461088557806391d148541461089857806395d89b41146108ab57600080fd5b806373c89822146107f757806375794a3c14610820578063762ddb5914610828578063765160781461083b578063794ccf6c1461084e57600080fd5b80633ab76e9f116103b55780635b5c251f116103275780636352211e116102eb5780636352211e1461078357806363ebc6771461079657806367a14f06146107b65780636b584775146107c95780636c353e34146107dc57806370a08231146107e457600080fd5b80635b5c251f146107425780635c975abb146107555780635db531a1146107605780635f41346614610768578063610c30091461077b57600080fd5b80634d84c6d8116103795780634d84c6d8146106db5780634f6ccce7146106e357806355f804b3146106f6578063572004821461070957806357f276ff1461071c57806359e6f7871461072f57600080fd5b80633ab76e9f146106925780633f4ba83a146106a55780633f86ea7c146106ad57806342842e0e146106c057806349b5e105146106d357600080fd5b806321d7f0081161044e5780632f2ff15d116104125780632f2ff15d146106355780632f745c59146106485780632fb565851461065b578063326a55e01461066f578063329a8cfa1461067757806336568abe1461067f57600080fd5b806321d7f008146105c357806323b872dd146105d65780632436329d146105e9578063248a9ca3146105fe57806329e63f351461062257600080fd5b80630ad17f8f116104a05780630ad17f8f1461056d57806310a83fcb1461058e578063130f63201461059757806317314d5a146105aa57806318160ddd146105b257806321d670e9146105ba57600080fd5b806301ffc9a7146104dd578063024bebe91461050557806306fdde0314610530578063081812fc14610545578063095ea7b314610558575b600080fd5b6104f06104eb36600461551e565b610af7565b60405190151581526020015b60405180910390f35b600d54610518906001600160a01b031681565b6040516001600160a01b0390911681526020016104fc565b610538610b08565b6040516104fc919061573f565b6105186105533660046154be565b610b9a565b61056b610566366004615458565b610c27565b005b61058061057b366004615458565b610d3d565b6040519081526020016104fc565b61058060265481565b61056b6105a53660046154be565b610d6e565b61056b610da3565b601c54610580565b61058060285481565b600454610518906001600160a01b031681565b61056b6105e43660046151d6565b610dcc565b610580600080516020615a5383398151915281565b61058061060c3660046154be565b6000908152600160208190526040909120015490565b6104f06106303660046154be565b610dfd565b61056b6106433660046154d7565b610eeb565b610580610656366004615458565b610f0d565b6011546104f090600160b01b900460ff1681565b61056b610fa3565b61056b610fb3565b61056b61068d3660046154d7565b6110bc565b601154610518906001600160a01b031681565b61056b6110de565b600854610518906001600160a01b031681565b61056b6106ce3660046151d6565b611170565b61056b6111a1565b61056b610fab565b6105806106f13660046154be565b6111a9565b6104f0610704366004615558565b61123c565b600954610518906001600160a01b031681565b61056b61072a3660046154be565b6112e9565b6104f061073d366004615458565b6112fd565b600e54610518906001600160a01b031681565b60185460ff166104f0565b61056b61132f565b600f54610518906001600160a01b031681565b610538611337565b6105186107913660046154be565b6113c5565b6107a96107a4366004615163565b61143c565b6040516104fc91906156fb565b602754610518906001600160a01b031681565b600a54610518906001600160a01b031681565b61056b6114a8565b6105806107f2366004615163565b6114d4565b6105186108053660046154be565b6000908152602360205260409020546001600160a01b031690565b601e54610580565b600554610518906001600160a01b031681565b6104f0610849366004615484565b61155b565b61058061085c3660046152c5565b61162f565b61056b6118d2565b6104f06108773660046154fc565b611954565b61058060295481565b6105186108933660046154fc565b611a54565b6104f06108a63660046154d7565b611a73565b610538611a9e565b6104f06108c13660046154be565b611aad565b601f546104f09060ff1681565b610580600081565b61056b6108e9366004615297565b611b96565b610580600080516020615ab383398151915281565b6105806109113660046153e4565b611c14565b6011546104f090600160a01b900460ff1681565b61056b610938366004615217565b611ec3565b61058061094b36600461538b565b611efb565b600654610518906001600160a01b031681565b6109766109713660046154be565b6121a8565b6040516104fc9291906156d7565b61056b6109923660046154be565b612257565b6105386109a53660046154be565b6122a8565b6105806109b83660046154be565b6122b3565b610580600080516020615ad383398151915281565b610580600080516020615a9383398151915281565b61056b6109f53660046154d7565b6122ca565b600b54610518906001600160a01b031681565b600c54610518906001600160a01b031681565b610580610a2e366004615315565b6122d4565b610538612579565b601054610518906001600160a01b031681565b600354610518906001600160a01b031681565b6104f0610a6f36600461519d565b612586565b610580600080516020615a7383398151915281565b61058060255481565b6104f0610aa03660046154be565b6125e5565b61056b6126d1565b6105386126d9565b61056b6126e6565b600754610518906001600160a01b031681565b610538610ade3660046154be565b612786565b6011546104f090600160a81b900460ff1681565b6000610b0282612840565b92915050565b606060128054610b1790615941565b80601f0160208091040260200160405190810160405280929190818152602001828054610b4390615941565b8015610b905780601f10610b6557610100808354040283529160200191610b90565b820191906000526020600020905b815481529060010190602001808311610b7357829003601f168201915b5050505050905090565b6000610ba582612865565b610c0b5760405162461bcd60e51b815260206004820152602c60248201527f4552433732313a20617070726f76656420717565727920666f72206e6f6e657860448201526b34b9ba32b73a103a37b5b2b760a11b60648201526084015b60405180910390fd5b506000908152601660205260409020546001600160a01b031690565b6000610c32826113c5565b9050806001600160a01b0316836001600160a01b03161415610ca05760405162461bcd60e51b815260206004820152602160248201527f4552433732313a20617070726f76616c20746f2063757272656e74206f776e656044820152603960f91b6064820152608401610c02565b336001600160a01b0382161480610cbc5750610cbc8133612586565b610d2e5760405162461bcd60e51b815260206004820152603860248201527f4552433732313a20617070726f76652063616c6c6572206973206e6f74206f7760448201527f6e6572206e6f7220617070726f76656420666f7220616c6c00000000000000006064820152608401610c02565b610d388383612882565b505050565b60246020528160005260406000208181548110610d5957600080fd5b90600052602060002001600091509150505481565b610d7860016128a9565b50610d828161295b565b50610d8c81612acc565b50610d9760006128a9565b610da057600080fd5b50565b610dad60016128a9565b50610db6612c55565b50610dc160006128a9565b610dca57600080fd5b565b610dd63382612d9b565b610df25760405162461bcd60e51b8152600401610c02906157fe565b610d38838383612e4d565b6000610e17600080516020615a7383398151915233611a73565b80610e355750610e35600080516020615a5383398151915233611a73565b80610e535750610e53600080516020615ab383398151915233611a73565b610e5c57600080fd5b601154600160b01b810460ff9081161515600160a81b9092041615151460011480610e9a5750610e9a600080516020615ab383398151915233611a73565b610eb65760405162461bcd60e51b8152600401610c0290615752565b60a08211610ec357600080fd5b610ecf82602655600190565b506025546026541115610ee3576026546025555b506001919050565b610ef58282612e7e565b6000828152600260205260409020610d38908261282b565b6000610f18836114d4565b8210610f7a5760405162461bcd60e51b815260206004820152602b60248201527f455243373231456e756d657261626c653a206f776e657220696e646578206f7560448201526a74206f6620626f756e647360a81b6064820152608401610c02565b506001600160a01b03919091166000908152601a60209081526040808320938352929052205490565b610fab612eb8565b610dca6131a4565b610fcb600080516020615ab383398151915233611a73565b80610fe95750610fe9600080516020615a7383398151915233611a73565b806110075750611007600080516020615a5383398151915233611a73565b61104c5760405162461bcd60e51b81526020600482015260166024820152752cb7ba93b932903737ba103a3432903130b4b634b33360511b6044820152606401610c02565b601160009054906101000a90046001600160a01b03166001600160a01b031663329a8cfa6040518163ffffffff1660e01b8152600401600060405180830381600087803b15801561109c57600080fd5b505af11580156110b0573d6000803e3d6000fd5b50505050610dca61132f565b6110c682826135b1565b6000828152600260205260409020610d38908261362b565b6110f6600080516020615a7383398151915233611a73565b806111145750611114600080516020615ab383398151915233611a73565b6111585760405162461bcd60e51b8152602060048201526015602482015274596f75277265206e6f742074686520476176656c7360581b6044820152606401610c02565b601f5460ff161561116857600080fd5b610dca613640565b61117a3382612d9b565b6111965760405162461bcd60e51b8152600401610c02906157fe565b610d388383836136d3565b610dca612eb8565b60006111b4601c5490565b82106112175760405162461bcd60e51b815260206004820152602c60248201527f455243373231456e756d657261626c653a20676c6f62616c20696e646578206f60448201526b7574206f6620626f756e647360a01b6064820152608401610c02565b601c828154811061122a5761122a6159ed565b90600052602060002001549050919050565b6000611256600080516020615ab383398151915233611a73565b806112745750611274600080516020615a7383398151915233611a73565b806112925750611292600080516020615a5383398151915233611a73565b6112d75760405162461bcd60e51b81526020600482015260166024820152752cb7ba93b932903737ba103a3432903130b4b634b33360511b6044820152606401610c02565b6112e0826136ee565b50600192915050565b6112f360016128a9565b50610d8c81613704565b6000818152602360205260408120546001600160a01b038481169116141561132757506001610b02565b506000610b02565b610dca61395f565b6021805461134490615941565b80601f016020809104026020016040519081016040528092919081815260200182805461137090615941565b80156113bd5780601f10611392576101008083540402835291602001916113bd565b820191906000526020600020905b8154815290600101906020018083116113a057829003601f168201915b505050505081565b6000818152601460205260408120546001600160a01b031680610b025760405162461bcd60e51b815260206004820152602960248201527f4552433732313a206f776e657220717565727920666f72206e6f6e657869737460448201526832b73a103a37b5b2b760b91b6064820152608401610c02565b6001600160a01b03811660009081526024602090815260409182902080548351818402810184019094528084526060939283018282801561149c57602002820191906000526020600020905b815481526020019060010190808311611488575b50505050509050919050565b6114b06131a4565b600554602780546001600160a01b0319166001600160a01b03909216919091179055565b60006001600160a01b03821661153f5760405162461bcd60e51b815260206004820152602a60248201527f4552433732313a2062616c616e636520717565727920666f7220746865207a65604482015269726f206164647265737360b01b6064820152608401610c02565b506001600160a01b031660009081526015602052604090205490565b6000611575600080516020615a7383398151915233611a73565b806115935750611593600080516020615a5383398151915233611a73565b806115b157506115b1600080516020615ab383398151915233611a73565b6115ba57600080fd5b601154600160b01b810460ff9081161515600160a81b90920416151514600114806115f857506115f8600080516020615ab383398151915233611a73565b6116145760405162461bcd60e51b8152600401610c0290615752565b60018215151415611627576112e0613aa2565b506000919050565b600082600060295460255461164491906158b4565b905060008160285461165691906158c8565b905060008160255461166891906158e7565b602754600e546040516370a0823160e01b81526001600160a01b039182166004820152929350600092859291909116906370a082319060240160206040518083038186803b1580156116b957600080fd5b505afa1580156116cd573d6000803e3d6000fd5b505050506040513d601f19601f820116820180604052508101906116f1919061558d565b6116fb919061589c565b6027546028549192506001600160a01b0316906323b872dd90339030906117239089906158c8565b6040518463ffffffff1660e01b815260040161174193929190615676565b602060405180830381600087803b15801561175b57600080fd5b505af115801561176f573d6000803e3d6000fd5b505050506040513d601f19601f8201168201806040525081019061179391906154a1565b506027546040516323b872dd60e01b81526001600160a01b03909116906323b872dd906117c890339089908790600401615676565b602060405180830381600087803b1580156117e257600080fd5b505af11580156117f6573d6000803e3d6000fd5b505050506040513d601f19601f8201168201806040525081019061181a91906154a1565b50602754600e546040516370a0823160e01b81526001600160a01b039182166004820152839291909116906370a082319060240160206040518083038186803b15801561186657600080fd5b505afa15801561187a573d6000803e3d6000fd5b505050506040513d601f19601f8201168201806040525081019061189e919061558d565b10156118bc5760405162461bcd60e51b8152600401610c02906157ce565b6118c68888613ae5565b98975050505050505050565b6118ea600080516020615a7383398151915233611a73565b806119085750611908600080516020615ab383398151915233611a73565b61194c5760405162461bcd60e51b8152602060048201526015602482015274596f75277265206e6f742074686520476176656c7360581b6044820152606401610c02565b610dca613b48565b600061196e600080516020615a5383398151915233611a73565b8061198c575061198c600080516020615ab383398151915233611a73565b6119ce5760405162461bcd60e51b8152602060048201526013602482015272596f75277265206e6f7420746865204a75727960681b6044820152606401610c02565b81831015611a3d5760405162461bcd60e51b815260206004820152603660248201527f536f7272792120436f7374206e756d657261746f72206d75737420626520677260448201527532b0ba32b9103a3430b7103232b737b6b4b730ba37b960511b6064820152608401610c02565b6028839055602982905560015b5060019392505050565b6000828152600260205260408120611a6c9083613bc3565b9392505050565b60009182526001602090815260408084206001600160a01b0393909316845291905290205460ff1690565b606060138054610b1790615941565b6000611ac7600080516020615a7383398151915233611a73565b80611ae55750611ae5600080516020615a5383398151915233611a73565b80611b035750611b03600080516020615ab383398151915233611a73565b611b0c57600080fd5b601154600160b01b810460ff9081161515600160a81b9092041615151460011480611b4a5750611b4a600080516020615ab383398151915233611a73565b611b665760405162461bcd60e51b8152600401610c0290615752565b816045141561162757611b77613aa2565b50611b80613b48565b50601f805460ff19166001908117909155919050565b611bae600080516020615ab383398151915233611a73565b80611bcc5750611bcc600080516020615a7383398151915233611a73565b80611bea5750611bea600080516020615a5383398151915233611a73565b611c065760405162461bcd60e51b8152600401610c02906157fe565b611c108282613bcf565b5050565b600084836000602954602554611c2a91906158b4565b9050600081602854611c3c91906158c8565b9050600081602554611c4e91906158e7565b611c58908561589c565b602754600e546040516370a0823160e01b81526001600160a01b039182166004820152929350600092859291909116906370a082319060240160206040518083038186803b158015611ca957600080fd5b505afa158015611cbd573d6000803e3d6000fd5b505050506040513d601f19601f82011682018060405250810190611ce1919061558d565b611ceb919061589c565b602754600e546028549293506001600160a01b03918216926323b872dd9233921690611d189089906158c8565b6040518463ffffffff1660e01b8152600401611d3693929190615676565b602060405180830381600087803b158015611d5057600080fd5b505af1158015611d64573d6000803e3d6000fd5b505050506040513d601f19601f82011682018060405250810190611d8891906154a1565b506027546040516323b872dd60e01b81526001600160a01b03909116906323b872dd90611dbd9033908a908790600401615676565b602060405180830381600087803b158015611dd757600080fd5b505af1158015611deb573d6000803e3d6000fd5b505050506040513d601f19601f82011682018060405250810190611e0f91906154a1565b506027546040516370a0823160e01b815230600482015282916001600160a01b0316906370a082319060240160206040518083038186803b158015611e5357600080fd5b505afa158015611e67573d6000803e3d6000fd5b505050506040513d601f19601f82011682018060405250810190611e8b919061558d565b1015611ea95760405162461bcd60e51b8152600401610c02906157ce565b611eb48b8b8a613c94565b9b9a5050505050505050505050565b611ecd3383612d9b565b611ee95760405162461bcd60e51b8152600401610c029061584b565b611ef584848484613d02565b50505050565b600083826000602954602554611f1191906158b4565b9050600081602854611f2391906158c8565b9050600081602554611f3591906158e7565b611f3f908561589c565b602754600e546040516370a0823160e01b81526001600160a01b039182166004820152929350600092859291909116906370a082319060240160206040518083038186803b158015611f9057600080fd5b505afa158015611fa4573d6000803e3d6000fd5b505050506040513d601f19601f82011682018060405250810190611fc8919061558d565b611fd2919061589c565b602754600e546028549293506001600160a01b03918216926323b872dd9233921690611fff9089906158c8565b6040518463ffffffff1660e01b815260040161201d93929190615676565b602060405180830381600087803b15801561203757600080fd5b505af115801561204b573d6000803e3d6000fd5b505050506040513d601f19601f8201168201806040525081019061206f91906154a1565b506027546040516323b872dd60e01b81526001600160a01b03909116906323b872dd906120a49033908a908790600401615676565b602060405180830381600087803b1580156120be57600080fd5b505af11580156120d2573d6000803e3d6000fd5b505050506040513d601f19601f820116820180604052508101906120f691906154a1565b506027546040516370a0823160e01b815230600482015282916001600160a01b0316906370a082319060240160206040518083038186803b15801561213a57600080fd5b505afa15801561214e573d6000803e3d6000fd5b505050506040513d601f19601f82011682018060405250810190612172919061558d565b10156121905760405162461bcd60e51b8152600401610c02906157ce565b61219a8a8a613ae5565b9a9950505050505050505050565b602360205260009081526040902080546001820180546001600160a01b0390921692916121d490615941565b80601f016020809104026020016040519081016040528092919081815260200182805461220090615941565b801561224d5780601f106122225761010080835404028352916020019161224d565b820191906000526020600020905b81548152906001019060200180831161223057829003601f168201915b5050505050905082565b6122613382612d9b565b61229f5760405162461bcd60e51b815260206004820152600f60248201526e4e696365205472792c204275636b6f60881b6044820152606401610c02565b610da081613d35565b6060610b0282613d3e565b6000818152600260205260408120610b0290613ea0565b6110c68282613eaa565b60008360006029546025546122e991906158b4565b90506000816028546122fb91906158c8565b905060008160255461230d91906158e7565b602754600e546040516370a0823160e01b81526001600160a01b039182166004820152929350600092859291909116906370a082319060240160206040518083038186803b15801561235e57600080fd5b505afa158015612372573d6000803e3d6000fd5b505050506040513d601f19601f82011682018060405250810190612396919061558d565b6123a0919061589c565b6027546028549192506001600160a01b0316906323b872dd90339030906123c89089906158c8565b6040518463ffffffff1660e01b81526004016123e693929190615676565b602060405180830381600087803b15801561240057600080fd5b505af1158015612414573d6000803e3d6000fd5b505050506040513d601f19601f8201168201806040525081019061243891906154a1565b506027546040516323b872dd60e01b81526001600160a01b03909116906323b872dd9061246d90339089908790600401615676565b602060405180830381600087803b15801561248757600080fd5b505af115801561249b573d6000803e3d6000fd5b505050506040513d601f19601f820116820180604052508101906124bf91906154a1565b50602754600e546040516370a0823160e01b81526001600160a01b039182166004820152839291909116906370a082319060240160206040518083038186803b15801561250b57600080fd5b505afa15801561251f573d6000803e3d6000fd5b505050506040513d601f19601f82011682018060405250810190612543919061558d565b10156125615760405162461bcd60e51b8152600401610c02906157ce565b61256c898989613c94565b9998505050505050505050565b6020805461134490615941565b6000806125a1600080516020615ab383398151915284611a73565b806125bf57506125bf600080516020615a7383398151915284611a73565b806125dd57506125dd600080516020615a5383398151915284611a73565b949350505050565b60006125ff600080516020615a5383398151915233611a73565b8061261d575061261d600080516020615ab383398151915233611a73565b61265f5760405162461bcd60e51b8152602060048201526013602482015272596f75277265206e6f7420746865204a75727960681b6044820152606401610c02565b6026548210156126c55760405162461bcd60e51b815260206004820152602b60248201527f536f7272792120436f7374206d7573742062652067726561746572207468616e60448201526a10181718902932b22832b760a91b6064820152608401610c02565b6112e082602555600190565b610dca613ee4565b6022805461134490615941565b6126f060016128a9565b50612708600080516020615ab3833981519152613704565b50612720600080516020615a73833981519152613704565b50612738600080516020615a53833981519152613704565b50612750600080516020615a93833981519152613704565b50612768600080516020615ad3833981519152613704565b506127736000613704565b5061277c61395f565b610dc160006128a9565b60008181526023602052604090206001018054606091906127a690615941565b80601f01602080910402602001604051908101604052809291908181526020018280546127d290615941565b801561149c5780601f106127f45761010080835404028352916020019161149c565b820191906000526020600020905b8154815290600101906020018083116128025750939695505050505050565b611c10828261401b565b6000611a6c836001600160a01b038416614086565b60006001600160e01b0319821663780e9d6360e01b1480610b025750610b02826140cd565b6000908152601460205260409020546001600160a01b0316151590565b61289a600080516020615ab383398151915233611a73565b15611c1057611c10828261410d565b6000805460ff1682151581151514156129045760405162461bcd60e51b815260206004820152601960248201527f416c72656164792053657420746f20746861742076616c7565000000000000006044820152606401610c02565b6000805484151560ff19909116811790915560ff16151581151514156112e05760405162461bcd60e51b815260206004820152600c60248201526b29b0b33a32bc9022b93937b960a11b6044820152606401610c02565b60405163ca15c87360e01b8152600481018290526000908190309063ca15c8739060240160206040518083038186803b15801561299757600080fd5b505afa1580156129ab573d6000803e3d6000fd5b505050506040513d601f19601f820116820180604052508101906129cf919061558d565b905060005b81811015611a4a57604051632404341f60e21b815260048101859052602481018290526000903090639010d07c9060440160206040518083038186803b158015612a1d57600080fd5b505afa158015612a31573d6000803e3d6000fd5b505050506040513d601f19601f82011682018060405250810190612a559190615180565b60405163d547741f60e01b8152600481018790526001600160a01b0382166024820152909150309063d547741f90604401600060405180830381600087803b158015612aa057600080fd5b505af1158015612ab4573d6000803e3d6000fd5b50505050508080612ac49061597c565b9150506129d4565b60115460405163ca15c87360e01b81526004810183905260009182916001600160a01b039091169063ca15c8739060240160206040518083038186803b158015612b1557600080fd5b505afa158015612b29573d6000803e3d6000fd5b505050506040513d601f19601f82011682018060405250810190612b4d919061558d565b905060005b81811015611a4a57601154604051632404341f60e21b815260048101869052602481018390526000916001600160a01b031690639010d07c9060440160206040518083038186803b158015612ba657600080fd5b505afa158015612bba573d6000803e3d6000fd5b505050506040513d601f19601f82011682018060405250810190612bde9190615180565b604051632f2ff15d60e01b8152600481018790526001600160a01b03821660248201529091503090632f2ff15d90604401600060405180830381600087803b158015612c2957600080fd5b505af1158015612c3d573d6000803e3d6000fd5b50505050508080612c4d9061597c565b915050612b52565b6000612c6e600080516020615ab383398151915261295b565b50612c86600080516020615ab3833981519152612acc565b612c8f57600080fd5b612ca6600080516020615a7383398151915261295b565b50612cbe600080516020615a73833981519152612acc565b612cc757600080fd5b612cde600080516020615a5383398151915261295b565b50612cf6600080516020615a53833981519152612acc565b612cff57600080fd5b612d16600080516020615a9383398151915261295b565b50612d2e600080516020615a93833981519152612acc565b612d3757600080fd5b612d4e600080516020615ad383398151915261295b565b50612d66600080516020615ad3833981519152612acc565b612d6f57600080fd5b612d79600061295b565b50612d846000612acc565b612d8d57600080fd5b612d9561395f565b50600190565b6000612da682612865565b612e075760405162461bcd60e51b815260206004820152602c60248201527f4552433732313a206f70657261746f7220717565727920666f72206e6f6e657860448201526b34b9ba32b73a103a37b5b2b760a11b6064820152608401610c02565b6000612e12836113c5565b6000848152602360205260409020549091506001600160a01b03908116908516811480612e445750612e448286612586565b95945050505050565b612e573382612d9b565b612e735760405162461bcd60e51b8152600401610c029061584b565b610d3883838361417b565b600082815260016020819052604082200154905460ff1615612ea457610d38838361401b565b612eae8133614326565b610d38838361401b565b601160009054906101000a90046001600160a01b03166001600160a01b031663dadf56ac6040518163ffffffff1660e01b815260040160206040518083038186803b158015612f0657600080fd5b505afa158015612f1a573d6000803e3d6000fd5b505050506040513d601f19601f82011682018060405250810190612f3e9190615180565b600c80546001600160a01b0319166001600160a01b039283161790556011546040805163024bebe960e01b81529051919092169163024bebe9916004808301926020929190829003018186803b158015612f9757600080fd5b505afa158015612fab573d6000803e3d6000fd5b505050506040513d601f19601f82011682018060405250810190612fcf9190615180565b600d80546001600160a01b0319166001600160a01b0392831617905560115460408051635b5c251f60e01b815290519190921691635b5c251f916004808301926020929190829003018186803b15801561302857600080fd5b505afa15801561303c573d6000803e3d6000fd5b505050506040513d601f19601f820116820180604052508101906130609190615180565b600e80546001600160a01b0319166001600160a01b0392831617905560115460408051637310bf1d60e11b81529051919092169163e6217e3a916004808301926020929190829003018186803b1580156130b957600080fd5b505afa1580156130cd573d6000803e3d6000fd5b505050506040513d601f19601f820116820180604052508101906130f19190615180565b601080546001600160a01b0319166001600160a01b039283161790556011546040805163d88127a160e01b81529051919092169163d88127a1916004808301926020929190829003018186803b15801561314a57600080fd5b505afa15801561315e573d6000803e3d6000fd5b505050506040513d601f19601f820116820180604052508101906131829190615180565b600b80546001600160a01b0319166001600160a01b0392909216919091179055565b601160009054906101000a90046001600160a01b03166001600160a01b03166321d7f0086040518163ffffffff1660e01b815260040160206040518083038186803b1580156131f257600080fd5b505afa158015613206573d6000803e3d6000fd5b505050506040513d601f19601f8201168201806040525081019061322a9190615180565b600480546001600160a01b0319166001600160a01b039283161781556011546040805163762ddb5960e01b81529051919093169263762ddb599281810192602092909190829003018186803b15801561328257600080fd5b505afa158015613296573d6000803e3d6000fd5b505050506040513d601f19601f820116820180604052508101906132ba9190615180565b600580546001600160a01b0319166001600160a01b039283161790556011546040805163bfb7dc9960e01b81529051919092169163bfb7dc99916004808301926020929190829003018186803b15801561331357600080fd5b505afa158015613327573d6000803e3d6000fd5b505050506040513d601f19601f8201168201806040525081019061334b9190615180565b600680546001600160a01b0319166001600160a01b0392831617905560115460408051633e6111eb60e21b81529051919092169163f98447ac916004808301926020929190829003018186803b1580156133a457600080fd5b505afa1580156133b8573d6000803e3d6000fd5b505050506040513d601f19601f820116820180604052508101906133dc9190615180565b600780546001600160a01b0319166001600160a01b0392831617905560115460408051630fe1ba9f60e21b815290519190921691633f86ea7c916004808301926020929190829003018186803b15801561343557600080fd5b505afa158015613449573d6000803e3d6000fd5b505050506040513d601f19601f8201168201806040525081019061346d9190615180565b600880546001600160a01b0319166001600160a01b0392831617905560115460408051632b90024160e11b8152905191909216916357200482916004808301926020929190829003018186803b1580156134c657600080fd5b505afa1580156134da573d6000803e3d6000fd5b505050506040513d601f19601f820116820180604052508101906134fe9190615180565b600980546001600160a01b0319166001600160a01b0392831617905560115460408051636b58477560e01b815290519190921691636b584775916004808301926020929190829003018186803b15801561355757600080fd5b505afa15801561356b573d6000803e3d6000fd5b505050506040513d601f19601f8201168201806040525081019061358f9190615180565b600a80546001600160a01b0319166001600160a01b0392909216919091179055565b6001600160a01b03811633146136215760405162461bcd60e51b815260206004820152602f60248201527f416363657373436f6e74726f6c3a2063616e206f6e6c792072656e6f756e636560448201526e103937b632b9903337b91039b2b63360891b6064820152608401610c02565b611c10828261438a565b6000611a6c836001600160a01b0384166143f1565b60185460ff166136895760405162461bcd60e51b815260206004820152601460248201527314185d5cd8589b194e881b9bdd081c185d5cd95960621b6044820152606401610c02565b6018805460ff191690557f5db9ee0a495bf2e6ff9c91a7834c1ba4fdd244a5e8aa4e537bd38aeae4b073aa335b6040516001600160a01b03909116815260200160405180910390a1565b610d3883838360405180602001604052806000815250611ec3565b80516000906112e0906022906020850190614ffe565b60115460405163ca15c87360e01b81526004810183905260009182916001600160a01b039091169063ca15c8739060240160206040518083038186803b15801561374d57600080fd5b505afa158015613761573d6000803e3d6000fd5b505050506040513d601f19601f82011682018060405250810190613785919061558d565b60405163ca15c87360e01b815260048101859052909150600090309063ca15c8739060240160206040518083038186803b1580156137c257600080fd5b505afa1580156137d6573d6000803e3d6000fd5b505050506040513d601f19601f820116820180604052508101906137fa919061558d565b9050600061380882846158e7565b90506000811161384d5760405162461bcd60e51b815260206004820152601060248201526f4e6f7468696e6720746f2073796e632160801b6044820152606401610c02565b60005b8181101561395357601154604051632404341f60e21b815260048101889052602481018390526000916001600160a01b031690639010d07c9060440160206040518083038186803b1580156138a457600080fd5b505afa1580156138b8573d6000803e3d6000fd5b505050506040513d601f19601f820116820180604052508101906138dc9190615180565b604051632f2ff15d60e01b8152600481018990526001600160a01b03821660248201529091503090632f2ff15d90604401600060405180830381600087803b15801561392757600080fd5b505af115801561393b573d6000803e3d6000fd5b5050505050808061394b9061597c565b915050613850565b50600195945050505050565b601160009054906101000a90046001600160a01b03166001600160a01b031663ff7e88ec6040518163ffffffff1660e01b815260040160206040518083038186803b1580156139ad57600080fd5b505afa1580156139c1573d6000803e3d6000fd5b505050506040513d601f19601f820116820180604052508101906139e591906154a1565b601160156101000a81548160ff021916908315150217905550601160009054906101000a90046001600160a01b03166001600160a01b0316632fb565856040518163ffffffff1660e01b815260040160206040518083038186803b158015613a4c57600080fd5b505afa158015613a60573d6000803e3d6000fd5b505050506040513d601f19601f82011682018060405250810190613a8491906154a1565b60118054911515600160b01b0260ff60b01b19909216919091179055565b6000805b601e54811015613ad957613ab981612865565b15613ac757613ac781613d35565b80613ad18161597c565b915050613aa6565b50506000601e55600190565b60006001600160a01b0383163314801590613b0857506001600160a01b03831615155b613b1157600080fd5b50601e54613b203383836144de565b613b2a838261454d565b6001601e6000828254613b3d919061589c565b909155505092915050565b60185460ff1615613b8e5760405162461bcd60e51b815260206004820152601060248201526f14185d5cd8589b194e881c185d5cd95960821b6044820152606401610c02565b6018805460ff191660011790557f62e78cea01bee320cd4e420270b5ea74000d11b0c9f74754ebdbfc544b05a2586136b63390565b6000611a6c8383614567565b6001600160a01b038216331415613c285760405162461bcd60e51b815260206004820152601960248201527f4552433732313a20617070726f766520746f2063616c6c6572000000000000006044820152606401610c02565b3360008181526017602090815260408083206001600160a01b03871680855290835292819020805460ff191686151590811790915590519081529192917f17307eab39ab6107e8899845ad3d59bd9653f200f220920489ca2b5937696c31910160405180910390a35050565b60006001600160a01b0384163314801590613cb757506001600160a01b03841615155b613cc057600080fd5b50601e54613ccf3384836144de565b613cd9848261454d565b613ce381836145ed565b6001601e6000828254613cf6919061589c565b90915550509392505050565b613d0d84848461417b565b613d1984848484614678565b611ef55760405162461bcd60e51b8152600401610c029061577c565b610da081614785565b6060613d4982612865565b613daf5760405162461bcd60e51b815260206004820152603160248201527f45524337323155524953746f726167653a2055524920717565727920666f72206044820152703737b732bc34b9ba32b73a103a37b5b2b760791b6064820152608401610c02565b60008281526019602052604081208054613dc890615941565b80601f0160208091040260200160405190810160405280929190818152602001828054613df490615941565b8015613e415780601f10613e1657610100808354040283529160200191613e41565b820191906000526020600020905b815481529060010190602001808311613e2457829003601f168201915b505050505090506000613e526147c5565b9050805160001415613e65575092915050565b815115613e97578082604051602001613e7f9291906155d2565b60405160208183030381529060405292505050919050565b6125dd846147d4565b6000610b02825490565b600082815260016020819052604082200154905460ff1615613ed057610d38838361438a565b613eda8133614326565b610d38838361438a565b601160009054906101000a90046001600160a01b03166001600160a01b031663a44b93256040518163ffffffff1660e01b815260040160206040518083038186803b158015613f3257600080fd5b505afa158015613f46573d6000803e3d6000fd5b505050506040513d601f19601f82011682018060405250810190613f6a91906154a1565b613f7357600080fd5b601160009054906101000a90046001600160a01b03166001600160a01b031663ac7cfac36040518163ffffffff1660e01b815260040160206040518083038186803b158015613fc157600080fd5b505afa158015613fd5573d6000803e3d6000fd5b505050506040513d601f19601f82011682018060405250810190613ff99190615180565b600380546001600160a01b0319166001600160a01b0392909216919091179055565b6140258282611a73565b611c105760008281526001602081815260408084206001600160a01b0386168086529252808420805460ff19169093179092559051339285917f2f8788117e7eff1d82e926ec794901d17c78024a50270940304540a733656f0d9190a45050565b600081815260018301602052604081205461132757508154600181810184556000848152602080822090930184905584548482528286019093526040902091909155610b02565b60006001600160e01b031982166380ac58cd60e01b14806140fe57506001600160e01b03198216635b5e139f60e01b145b80610b025750610b028261489e565b600081815260166020526040902080546001600160a01b0319166001600160a01b0384169081179091558190614142826113c5565b6001600160a01b03167f8c5be1e5ebec7d5bd14f71427d1e84f3dd0314c0f7b2291e5b200ac8c7c3b92560405160405180910390a45050565b826001600160a01b031661418e826113c5565b6001600160a01b0316146141f65760405162461bcd60e51b815260206004820152602960248201527f4552433732313a207472616e73666572206f6620746f6b656e2074686174206960448201526839903737ba1037bbb760b91b6064820152608401610c02565b6001600160a01b0382166142585760405162461bcd60e51b8152602060048201526024808201527f4552433732313a207472616e7366657220746f20746865207a65726f206164646044820152637265737360e01b6064820152608401610c02565b6142638383836148c3565b61426e600082612882565b6001600160a01b03831660009081526015602052604081208054600192906142979084906158e7565b90915550506001600160a01b03821660009081526015602052604081208054600192906142c590849061589c565b909155505060008181526014602052604080822080546001600160a01b0319166001600160a01b0386811691821790925591518493918716917fddf252ad1be2c89b69c2b068fc378daa952ba7f163c4a11628f55a4df523b3ef91a4505050565b6143308282611a73565b611c1057614348816001600160a01b031660146148ce565b6143538360206148ce565b604051602001614364929190615601565b60408051601f198184030181529082905262461bcd60e51b8252610c029160040161573f565b6143948282611a73565b15611c105760008281526001602090815260408083206001600160a01b0385168085529252808320805460ff1916905551339285917ff6391f5c32d9c69d2a47ea670b442974b53935d1edc7fd64eb21e047a839171b9190a45050565b600081815260018301602052604081205480156144d45760006144156001836158e7565b8554909150600090614429906001906158e7565b90506000866000018281548110614442576144426159ed565b9060005260206000200154905080876000018481548110614465576144656159ed565b600091825260208083209091019290925582815260018901909152604090208490558654879080614498576144986159d7565b60019003818190600052602060002001600090559055866001016000878152602001908152602001600020600090556001945050505050610b02565b6000915050610b02565b600081815260236020908152604090912080546001600160a01b0319166001600160a01b038616178155835161451c92600190920191850190614ffe565b506001600160a01b039092166000908152602460209081526040822080546001810182559083529120019190915550565b611c10828260405180602001604052806000815250614a6a565b815460009082106145c55760405162461bcd60e51b815260206004820152602260248201527f456e756d657261626c655365743a20696e646578206f7574206f6620626f756e604482015261647360f01b6064820152608401610c02565b8260000182815481106145da576145da6159ed565b9060005260206000200154905092915050565b6145f682612865565b6146595760405162461bcd60e51b815260206004820152602e60248201527f45524337323155524953746f726167653a2055524920736574206f66206e6f6e60448201526d32bc34b9ba32b73a103a37b5b2b760911b6064820152608401610c02565b60008281526019602090815260409091208251610d3892840190614ffe565b60006001600160a01b0384163b1561477a57604051630a85bd0160e11b81526001600160a01b0385169063150b7a02906146bc90339089908890889060040161569a565b602060405180830381600087803b1580156146d657600080fd5b505af1925050508015614706575060408051601f3d908101601f191682019092526147039181019061553b565b60015b614760573d808015614734576040519150601f19603f3d011682016040523d82523d6000602084013e614739565b606091505b5080516147585760405162461bcd60e51b8152600401610c029061577c565b805181602001fd5b6001600160e01b031916630a85bd0160e11b1490506125dd565b506001949350505050565b61478e81614a9d565b600081815260196020526040902080546147a790615941565b159050610da0576000818152601960205260408120610da091615082565b606060228054610b1790615941565b60606147df82612865565b6148435760405162461bcd60e51b815260206004820152602f60248201527f4552433732314d657461646174613a2055524920717565727920666f72206e6f60448201526e3732bc34b9ba32b73a103a37b5b2b760891b6064820152608401610c02565b600061484d6147c5565b9050600081511161486d5760405180602001604052806000815250611a6c565b8061487784614b44565b6040516020016148889291906155d2565b6040516020818303038152906040529392505050565b60006001600160e01b03198216635a05180f60e01b1480610b025750610b0282614c42565b610d38838383614c77565b606060006148dd8360026158c8565b6148e890600261589c565b67ffffffffffffffff81111561490057614900615a03565b6040519080825280601f01601f19166020018201604052801561492a576020820181803683370190505b509050600360fc1b81600081518110614945576149456159ed565b60200101906001600160f81b031916908160001a905350600f60fb1b81600181518110614974576149746159ed565b60200101906001600160f81b031916908160001a90535060006149988460026158c8565b6149a390600161589c565b90505b6001811115614a1b576f181899199a1a9b1b9c1cb0b131b232b360811b85600f16601081106149d7576149d76159ed565b1a60f81b8282815181106149ed576149ed6159ed565b60200101906001600160f81b031916908160001a90535060049490941c93614a148161592a565b90506149a6565b508315611a6c5760405162461bcd60e51b815260206004820181905260248201527f537472696e67733a20686578206c656e67746820696e73756666696369656e746044820152606401610c02565b614a748383614d2f565b614a816000848484614678565b610d385760405162461bcd60e51b8152600401610c029061577c565b6000614aa8826113c5565b9050614ab6816000846148c3565b614ac1600083612882565b6001600160a01b0381166000908152601560205260408120805460019290614aea9084906158e7565b909155505060008281526014602052604080822080546001600160a01b0319169055518391906001600160a01b038416907fddf252ad1be2c89b69c2b068fc378daa952ba7f163c4a11628f55a4df523b3ef908390a45050565b606081614b685750506040805180820190915260018152600360fc1b602082015290565b8160005b8115614b925780614b7c8161597c565b9150614b8b9050600a836158b4565b9150614b6c565b60008167ffffffffffffffff811115614bad57614bad615a03565b6040519080825280601f01601f191660200182016040528015614bd7576020820181803683370190505b5090505b84156125dd57614bec6001836158e7565b9150614bf9600a86615997565b614c0490603061589c565b60f81b818381518110614c1957614c196159ed565b60200101906001600160f81b031916908160001a905350614c3b600a866158b4565b9450614bdb565b60006001600160e01b03198216637965db0b60e01b1480610b0257506301ffc9a760e01b6001600160e01b0319831614610b02565b6001600160a01b038316614cd257614ccd81601c80546000838152601d60205260408120829055600182018355919091527f0e4562a10381dec21b205ed72637e6b1b523bdd0e4d4d50af5cd23dd4500a2110155565b614cf5565b816001600160a01b0316836001600160a01b031614614cf557614cf58382614e6e565b6001600160a01b038216614d0c57610d3881614f0b565b826001600160a01b0316826001600160a01b031614610d3857610d388282614fba565b6001600160a01b038216614d855760405162461bcd60e51b815260206004820181905260248201527f4552433732313a206d696e7420746f20746865207a65726f20616464726573736044820152606401610c02565b614d8e81612865565b15614ddb5760405162461bcd60e51b815260206004820152601c60248201527f4552433732313a20746f6b656e20616c7265616479206d696e746564000000006044820152606401610c02565b614de7600083836148c3565b6001600160a01b0382166000908152601560205260408120805460019290614e1090849061589c565b909155505060008181526014602052604080822080546001600160a01b0319166001600160a01b03861690811790915590518392907fddf252ad1be2c89b69c2b068fc378daa952ba7f163c4a11628f55a4df523b3ef908290a45050565b60006001614e7b846114d4565b614e8591906158e7565b6000838152601b6020526040902054909150808214614ed8576001600160a01b0384166000908152601a602090815260408083208584528252808320548484528184208190558352601b90915290208190555b506000918252601b602090815260408084208490556001600160a01b039094168352601a81528383209183525290812055565b601c54600090614f1d906001906158e7565b6000838152601d6020526040812054601c8054939450909284908110614f4557614f456159ed565b9060005260206000200154905080601c8381548110614f6657614f666159ed565b6000918252602080832090910192909255828152601d9091526040808220849055858252812055601c805480614f9e57614f9e6159d7565b6001900381819060005260206000200160009055905550505050565b6000614fc5836114d4565b6001600160a01b039093166000908152601a602090815260408083208684528252808320859055938252601b9052919091209190915550565b82805461500a90615941565b90600052602060002090601f01602090048101928261502c5760008555615072565b82601f1061504557805160ff1916838001178555615072565b82800160010185558215615072579182015b82811115615072578251825591602001919060010190615057565b5061507e9291506150b8565b5090565b50805461508e90615941565b6000825580601f1061509e575050565b601f016020900490600052602060002090810190610da091905b5b8082111561507e57600081556001016150b9565b600067ffffffffffffffff808411156150e8576150e8615a03565b604051601f8501601f19908116603f0116810190828211818310171561511057615110615a03565b8160405280935085815286868601111561512957600080fd5b858560208301376000602087830101525050509392505050565b600082601f83011261515457600080fd5b611a6c838335602085016150cd565b60006020828403121561517557600080fd5b8135611a6c81615a19565b60006020828403121561519257600080fd5b8151611a6c81615a19565b600080604083850312156151b057600080fd5b82356151bb81615a19565b915060208301356151cb81615a19565b809150509250929050565b6000806000606084860312156151eb57600080fd5b83356151f681615a19565b9250602084013561520681615a19565b929592945050506040919091013590565b6000806000806080858703121561522d57600080fd5b843561523881615a19565b9350602085013561524881615a19565b925060408501359150606085013567ffffffffffffffff81111561526b57600080fd5b8501601f8101871361527c57600080fd5b61528b878235602084016150cd565b91505092959194509250565b600080604083850312156152aa57600080fd5b82356152b581615a19565b915060208301356151cb81615a2e565b600080604083850312156152d857600080fd5b82356152e381615a19565b9150602083013567ffffffffffffffff8111156152ff57600080fd5b61530b85828601615143565b9150509250929050565b60008060006060848603121561532a57600080fd5b833561533581615a19565b9250602084013567ffffffffffffffff8082111561535257600080fd5b61535e87838801615143565b9350604086013591508082111561537457600080fd5b5061538186828701615143565b9150509250925092565b6000806000606084860312156153a057600080fd5b83356153ab81615a19565b9250602084013567ffffffffffffffff8111156153c757600080fd5b6153d386828701615143565b925050604084013590509250925092565b600080600080608085870312156153fa57600080fd5b843561540581615a19565b9350602085013567ffffffffffffffff8082111561542257600080fd5b61542e88838901615143565b945060408701359350606087013591508082111561544b57600080fd5b5061528b87828801615143565b6000806040838503121561546b57600080fd5b823561547681615a19565b946020939093013593505050565b60006020828403121561549657600080fd5b8135611a6c81615a2e565b6000602082840312156154b357600080fd5b8151611a6c81615a2e565b6000602082840312156154d057600080fd5b5035919050565b600080604083850312156154ea57600080fd5b8235915060208301356151cb81615a19565b6000806040838503121561550f57600080fd5b50508035926020909101359150565b60006020828403121561553057600080fd5b8135611a6c81615a3c565b60006020828403121561554d57600080fd5b8151611a6c81615a3c565b60006020828403121561556a57600080fd5b813567ffffffffffffffff81111561558157600080fd5b6125dd84828501615143565b60006020828403121561559f57600080fd5b5051919050565b600081518084526155be8160208601602086016158fe565b601f01601f19169290920160200192915050565b600083516155e48184602088016158fe565b8351908301906155f88183602088016158fe565b01949350505050565b7f416363657373436f6e74726f6c3a206163636f756e74200000000000000000008152600083516156398160178501602088016158fe565b7001034b99036b4b9b9b4b733903937b6329607d1b601791840191820152835161566a8160288401602088016158fe565b01602801949350505050565b6001600160a01b039384168152919092166020820152604081019190915260600190565b6001600160a01b03858116825284166020820152604081018390526080606082018190526000906156cd908301846155a6565b9695505050505050565b6001600160a01b03831681526040602082018190526000906125dd908301846155a6565b6020808252825182820181905260009190848201906040850190845b8181101561573357835183529284019291840191600101615717565b50909695505050505050565b602081526000611a6c60208301846155a6565b60208082526010908201526f436f757274204d75737420416772656560801b604082015260600190565b60208082526032908201527f4552433732313a207472616e7366657220746f206e6f6e20455243373231526560408201527131b2b4bb32b91034b6b83632b6b2b73a32b960711b606082015260800190565b602080825260169082015275115c9c9bdc88151c985b9cd9995c9a5b99c80854915160521b604082015260600190565b6020808252602d908201527f596f7520646f206e6f742068617665207065726d697373696f6e20746f206d6f60408201526c7665207468697320626164676560981b606082015260800190565b60208082526031908201527f4552433732313a207472616e736665722063616c6c6572206973206e6f74206f6040820152701ddb995c881b9bdc88185c1c1c9bdd9959607a1b606082015260800190565b600082198211156158af576158af6159ab565b500190565b6000826158c3576158c36159c1565b500490565b60008160001904831182151516156158e2576158e26159ab565b500290565b6000828210156158f9576158f96159ab565b500390565b60005b83811015615919578181015183820152602001615901565b83811115611ef55750506000910152565b600081615939576159396159ab565b506000190190565b600181811c9082168061595557607f821691505b6020821081141561597657634e487b7160e01b600052602260045260246000fd5b50919050565b6000600019821415615990576159906159ab565b5060010190565b6000826159a6576159a66159c1565b500690565b634e487b7160e01b600052601160045260246000fd5b634e487b7160e01b600052601260045260246000fd5b634e487b7160e01b600052603160045260246000fd5b634e487b7160e01b600052603260045260246000fd5b634e487b7160e01b600052604160045260246000fd5b6001600160a01b0381168114610da057600080fd5b8015158114610da057600080fd5b6001600160e01b031981168114610da057600080fdfefa8e4989e1d689f7bc5c4b25b87efb51fecdecb19ba62847e29c759e12a89acd048bc71fa1cb2c119c339cf9cf00a97996a19a9d991ce5fe049f2fa5459e7990f0f4b159a6e2a4815eb3ca3df080bfa70c9270662c59bcaa4479a456220183e60538d24a8b7882d7b2e36af243d4af61c23e86e3daa6cb8c887b53220b2f57207c9d7f6f02908185bffb3f7fc9afb29fd7bf93675af8fd4b655ee05c2cee1e0ea26469706673582212207d4b7b7cbc5c964d9b2104a53f5139f9a7bd863b29b626e0368f01baa9de0b1064736f6c63430008070033",
  "immutableReferences": {},
  "source": "pragma solidity ^0.8.0;\n\nimport \"../src/ERC721/TippingBadge.sol\";\n\n\ncontract GoldStars is TippingBadge {\n\n\n     constructor(address _AddressManagerAddress)\n        TippingBadge(\"GoldStars\", \"Gold\", _AddressManagerAddress)\n    {\n    }      \n\n  \n}",
  "sourcePath": "/home/n/Desktop/PinkSlips_FrontEnd_REFORMAT/contracts/badges/GoldStars.sol",
  "compiler": {
    "name": "solc",
    "version": "0.8.7+commit.e28d00a7.Emscripten.clang"
  },
  "schemaVersion": "3.4.1",
  "updatedAt": "2021-08-18T01:04:55.714Z",
  "networkType": "ethereum",
  "devdoc": {
    "kind": "dev",
    "methods": {
      "approve(address,uint256)": {
        "details": "See {IERC721-approve}."
      },
      "balanceOf(address)": {
        "details": "See {IERC721-balanceOf}."
      },
      "getApproved(uint256)": {
        "details": "See {IERC721-getApproved}."
      },
      "getRoleAdmin(bytes32)": {
        "details": "Returns the admin role that controls `role`. See {grantRole} and {revokeRole}. To change a role's admin, use {_setRoleAdmin}."
      },
      "getRoleMember(bytes32,uint256)": {
        "details": "Returns one of the accounts that have `role`. `index` must be a value between 0 and {getRoleMemberCount}, non-inclusive. Role bearers are not sorted in any particular way, and their ordering may change at any point. WARNING: When using {getRoleMember} and {getRoleMemberCount}, make sure you perform all queries on the same block. See the following https://forum.openzeppelin.com/t/iterating-over-elements-on-enumerableset-in-openzeppelin-contracts/2296[forum post] for more information."
      },
      "getRoleMemberCount(bytes32)": {
        "details": "Returns the number of accounts that have `role`. Can be used together with {getRoleMember} to enumerate all bearers of a role."
      },
      "grantRole(bytes32,address)": {
        "details": "Overload {grantRole} to track enumerable memberships"
      },
      "hasRole(bytes32,address)": {
        "details": "Returns `true` if `account` has been granted `role`."
      },
      "isApprovedForAll(address,address)": {
        "details": "See {IERC721-isApprovedForAll}."
      },
      "issueBadge(address,string)": {
        "details": "//// Issuance Desk                                                                            ////"
      },
      "name()": {
        "details": "See {IERC721Metadata-name}."
      },
      "ownerOf(uint256)": {
        "details": "See {IERC721-ownerOf}."
      },
      "pause()": {
        "details": "//// Maintanence\\\\\\\\\\\\\\\\\\\\\\\\\\\\\\\\\\\\\\\\\\\\\\\\\\\\\\                                                   ////"
      },
      "paused()": {
        "details": "Returns true if the contract is paused, and false otherwise."
      },
      "renounceRole(bytes32,address)": {
        "details": "Overload {renounceRole} to track enumerable memberships"
      },
      "revokeRole(bytes32,address)": {
        "details": "Overload {revokeRole} to track enumerable memberships"
      },
      "safeTransferFrom(address,address,uint256)": {
        "details": "See {IERC721-safeTransferFrom}."
      },
      "safeTransferFrom(address,address,uint256,bytes)": {
        "details": "See {IERC721-safeTransferFrom}."
      },
      "setApprovalForAll(address,bool)": {
        "details": "See {IERC721-setApprovalForAll}."
      },
      "setMintingCost(uint256)": {
        "details": "//// Set Minting Costs                                                                        ////"
      },
      "symbol()": {
        "details": "See {IERC721Metadata-symbol}."
      },
      "tokenByIndex(uint256)": {
        "details": "See {IERC721Enumerable-tokenByIndex}."
      },
      "tokenOfOwnerByIndex(address,uint256)": {
        "details": "See {IERC721Enumerable-tokenOfOwnerByIndex}."
      },
      "totalSupply()": {
        "details": "See {IERC721Enumerable-totalSupply}."
      },
      "transferFrom(address,address,uint256)": {
        "details": "See {IERC721-transferFrom}."
      }
    },
    "version": 1
  },
  "userdoc": {
    "kind": "user",
    "methods": {},
    "version": 1
  }
}