{
  "contractName": "GoldStars",
  "abi": [
    {
      "inputs": [
        {
          "internalType": "address",
          "name": "_AddressManagerAddress",
          "type": "address"
        }
      ],
      "stateMutability": "nonpayable",
      "type": "constructor"
    },
    {
      "anonymous": false,
      "inputs": [
        {
          "indexed": true,
          "internalType": "address",
          "name": "owner",
          "type": "address"
        },
        {
          "indexed": true,
          "internalType": "address",
          "name": "approved",
          "type": "address"
        },
        {
          "indexed": true,
          "internalType": "uint256",
          "name": "tokenId",
          "type": "uint256"
        }
      ],
      "name": "Approval",
      "type": "event"
    },
    {
      "anonymous": false,
      "inputs": [
        {
          "indexed": true,
          "internalType": "address",
          "name": "owner",
          "type": "address"
        },
        {
          "indexed": true,
          "internalType": "address",
          "name": "operator",
          "type": "address"
        },
        {
          "indexed": false,
          "internalType": "bool",
          "name": "approved",
          "type": "bool"
        }
      ],
      "name": "ApprovalForAll",
      "type": "event"
    },
    {
      "anonymous": false,
      "inputs": [
        {
          "indexed": false,
          "internalType": "address",
          "name": "account",
          "type": "address"
        }
      ],
      "name": "Paused",
      "type": "event"
    },
    {
      "anonymous": false,
      "inputs": [
        {
          "indexed": true,
          "internalType": "bytes32",
          "name": "role",
          "type": "bytes32"
        },
        {
          "indexed": true,
          "internalType": "bytes32",
          "name": "previousAdminRole",
          "type": "bytes32"
        },
        {
          "indexed": true,
          "internalType": "bytes32",
          "name": "newAdminRole",
          "type": "bytes32"
        }
      ],
      "name": "RoleAdminChanged",
      "type": "event"
    },
    {
      "anonymous": false,
      "inputs": [
        {
          "indexed": true,
          "internalType": "bytes32",
          "name": "role",
          "type": "bytes32"
        },
        {
          "indexed": true,
          "internalType": "address",
          "name": "account",
          "type": "address"
        },
        {
          "indexed": true,
          "internalType": "address",
          "name": "sender",
          "type": "address"
        }
      ],
      "name": "RoleGranted",
      "type": "event"
    },
    {
      "anonymous": false,
      "inputs": [
        {
          "indexed": true,
          "internalType": "bytes32",
          "name": "role",
          "type": "bytes32"
        },
        {
          "indexed": true,
          "internalType": "address",
          "name": "account",
          "type": "address"
        },
        {
          "indexed": true,
          "internalType": "address",
          "name": "sender",
          "type": "address"
        }
      ],
      "name": "RoleRevoked",
      "type": "event"
    },
    {
      "anonymous": false,
      "inputs": [
        {
          "indexed": true,
          "internalType": "address",
          "name": "from",
          "type": "address"
        },
        {
          "indexed": true,
          "internalType": "address",
          "name": "to",
          "type": "address"
        },
        {
          "indexed": true,
          "internalType": "uint256",
          "name": "tokenId",
          "type": "uint256"
        }
      ],
      "name": "Transfer",
      "type": "event"
    },
    {
      "anonymous": false,
      "inputs": [
        {
          "indexed": false,
          "internalType": "address",
          "name": "account",
          "type": "address"
        }
      ],
      "name": "Unpaused",
      "type": "event"
    },
    {
      "inputs": [],
      "name": "AddressManagerAddress",
      "outputs": [
        {
          "internalType": "address",
          "name": "",
          "type": "address"
        }
      ],
      "stateMutability": "view",
      "type": "function",
      "constant": true
    },
    {
      "inputs": [
        {
          "internalType": "uint256",
          "name": "",
          "type": "uint256"
        }
      ],
      "name": "BadgeInfo",
      "outputs": [
        {
          "internalType": "address",
          "name": "gifter",
          "type": "address"
        },
        {
          "internalType": "string",
          "name": "reason",
          "type": "string"
        }
      ],
      "stateMutability": "view",
      "type": "function",
      "constant": true
    },
    {
      "inputs": [
        {
          "internalType": "address",
          "name": "",
          "type": "address"
        },
        {
          "internalType": "uint256",
          "name": "",
          "type": "uint256"
        }
      ],
      "name": "BadgesSent",
      "outputs": [
        {
          "internalType": "uint256",
          "name": "",
          "type": "uint256"
        }
      ],
      "stateMutability": "view",
      "type": "function",
      "constant": true
    },
    {
      "inputs": [],
      "name": "ChadBadgeAddress",
      "outputs": [
        {
          "internalType": "address",
          "name": "",
          "type": "address"
        }
      ],
      "stateMutability": "view",
      "type": "function",
      "constant": true
    },
    {
      "inputs": [],
      "name": "DEFAULT_ADMIN_ROLE",
      "outputs": [
        {
          "internalType": "bytes32",
          "name": "",
          "type": "bytes32"
        }
      ],
      "stateMutability": "view",
      "type": "function",
      "constant": true
    },
    {
      "inputs": [],
      "name": "GAVELS_BAILIFF",
      "outputs": [
        {
          "internalType": "bytes32",
          "name": "",
          "type": "bytes32"
        }
      ],
      "stateMutability": "view",
      "type": "function",
      "constant": true
    },
    {
      "inputs": [],
      "name": "GavelDAOAgent",
      "outputs": [
        {
          "internalType": "address",
          "name": "",
          "type": "address"
        }
      ],
      "stateMutability": "view",
      "type": "function",
      "constant": true
    },
    {
      "inputs": [],
      "name": "GavelTokenAddress",
      "outputs": [
        {
          "internalType": "address",
          "name": "",
          "type": "address"
        }
      ],
      "stateMutability": "view",
      "type": "function",
      "constant": true
    },
    {
      "inputs": [],
      "name": "GavelVote",
      "outputs": [
        {
          "internalType": "bool",
          "name": "",
          "type": "bool"
        }
      ],
      "stateMutability": "view",
      "type": "function",
      "constant": true
    },
    {
      "inputs": [],
      "name": "GoldStarAddress",
      "outputs": [
        {
          "internalType": "address",
          "name": "",
          "type": "address"
        }
      ],
      "stateMutability": "view",
      "type": "function",
      "constant": true
    },
    {
      "inputs": [],
      "name": "JERK_ROLE",
      "outputs": [
        {
          "internalType": "bytes32",
          "name": "",
          "type": "bytes32"
        }
      ],
      "stateMutability": "view",
      "type": "function",
      "constant": true
    },
    {
      "inputs": [],
      "name": "JURY_BAILIFF",
      "outputs": [
        {
          "internalType": "bytes32",
          "name": "",
          "type": "bytes32"
        }
      ],
      "stateMutability": "view",
      "type": "function",
      "constant": true
    },
    {
      "inputs": [],
      "name": "JuryDAOAgent",
      "outputs": [
        {
          "internalType": "address",
          "name": "",
          "type": "address"
        }
      ],
      "stateMutability": "view",
      "type": "function",
      "constant": true
    },
    {
      "inputs": [],
      "name": "JuryPoolAddress",
      "outputs": [
        {
          "internalType": "address",
          "name": "",
          "type": "address"
        }
      ],
      "stateMutability": "view",
      "type": "function",
      "constant": true
    },
    {
      "inputs": [],
      "name": "JuryVote",
      "outputs": [
        {
          "internalType": "bool",
          "name": "",
          "type": "bool"
        }
      ],
      "stateMutability": "view",
      "type": "function",
      "constant": true
    },
    {
      "inputs": [],
      "name": "MINI_BAILIFF_ROLE",
      "outputs": [
        {
          "internalType": "bytes32",
          "name": "",
          "type": "bytes32"
        }
      ],
      "stateMutability": "view",
      "type": "function",
      "constant": true
    },
    {
      "inputs": [],
      "name": "MiniBailiff",
      "outputs": [
        {
          "internalType": "address",
          "name": "",
          "type": "address"
        }
      ],
      "stateMutability": "view",
      "type": "function",
      "constant": true
    },
    {
      "inputs": [],
      "name": "PinkSlipAddress",
      "outputs": [
        {
          "internalType": "address",
          "name": "",
          "type": "address"
        }
      ],
      "stateMutability": "view",
      "type": "function",
      "constant": true
    },
    {
      "inputs": [],
      "name": "RedPenTokenAddress",
      "outputs": [
        {
          "internalType": "address",
          "name": "",
          "type": "address"
        }
      ],
      "stateMutability": "view",
      "type": "function",
      "constant": true
    },
    {
      "inputs": [],
      "name": "THE_COURT_ROLE",
      "outputs": [
        {
          "internalType": "bytes32",
          "name": "",
          "type": "bytes32"
        }
      ],
      "stateMutability": "view",
      "type": "function",
      "constant": true
    },
    {
      "inputs": [],
      "name": "TheCourtAddress",
      "outputs": [
        {
          "internalType": "address",
          "name": "",
          "type": "address"
        }
      ],
      "stateMutability": "view",
      "type": "function",
      "constant": true
    },
    {
      "inputs": [],
      "name": "TreasuryAddress",
      "outputs": [
        {
          "internalType": "address",
          "name": "",
          "type": "address"
        }
      ],
      "stateMutability": "view",
      "type": "function",
      "constant": true
    },
    {
      "inputs": [],
      "name": "addressManager",
      "outputs": [
        {
          "internalType": "contract AddressManager",
          "name": "",
          "type": "address"
        }
      ],
      "stateMutability": "view",
      "type": "function",
      "constant": true
    },
    {
      "inputs": [
        {
          "internalType": "address",
          "name": "to",
          "type": "address"
        },
        {
          "internalType": "uint256",
          "name": "tokenId",
          "type": "uint256"
        }
      ],
      "name": "approve",
      "outputs": [],
      "stateMutability": "nonpayable",
      "type": "function"
    },
    {
      "inputs": [],
      "name": "badgeColor",
      "outputs": [
        {
          "internalType": "string",
          "name": "",
          "type": "string"
        }
      ],
      "stateMutability": "view",
      "type": "function",
      "constant": true
    },
    {
      "inputs": [],
      "name": "badgeName",
      "outputs": [
        {
          "internalType": "string",
          "name": "",
          "type": "string"
        }
      ],
      "stateMutability": "view",
      "type": "function",
      "constant": true
    },
    {
      "inputs": [
        {
          "internalType": "address",
          "name": "owner",
          "type": "address"
        }
      ],
      "name": "balanceOf",
      "outputs": [
        {
          "internalType": "uint256",
          "name": "",
          "type": "uint256"
        }
      ],
      "stateMutability": "view",
      "type": "function",
      "constant": true
    },
    {
      "inputs": [
        {
          "internalType": "uint256",
          "name": "valueMustBe69",
          "type": "uint256"
        }
      ],
      "name": "destroyAndLockContract",
      "outputs": [
        {
          "internalType": "bool",
          "name": "",
          "type": "bool"
        }
      ],
      "stateMutability": "nonpayable",
      "type": "function"
    },
    {
      "inputs": [
        {
          "internalType": "uint256",
          "name": "tokenId",
          "type": "uint256"
        }
      ],
      "name": "getApproved",
      "outputs": [
        {
          "internalType": "address",
          "name": "",
          "type": "address"
        }
      ],
      "stateMutability": "view",
      "type": "function",
      "constant": true
    },
    {
      "inputs": [
        {
          "internalType": "uint256",
          "name": "_tokenId",
          "type": "uint256"
        }
      ],
      "name": "getBadgeReason",
      "outputs": [
        {
          "internalType": "string",
          "name": "_theReason",
          "type": "string"
        }
      ],
      "stateMutability": "view",
      "type": "function",
      "constant": true
    },
    {
      "inputs": [
        {
          "internalType": "uint256",
          "name": "_tokenId",
          "type": "uint256"
        }
      ],
      "name": "getBadgeSender",
      "outputs": [
        {
          "internalType": "address",
          "name": "_theGifter",
          "type": "address"
        }
      ],
      "stateMutability": "view",
      "type": "function",
      "constant": true
    },
    {
      "inputs": [
        {
          "internalType": "address",
          "name": "_gifter",
          "type": "address"
        }
      ],
      "name": "getBadgesSent",
      "outputs": [
        {
          "internalType": "uint256[]",
          "name": "_BadgesSent",
          "type": "uint256[]"
        }
      ],
      "stateMutability": "view",
      "type": "function",
      "constant": true
    },
    {
      "inputs": [
        {
          "internalType": "bytes32",
          "name": "role",
          "type": "bytes32"
        }
      ],
      "name": "getRoleAdmin",
      "outputs": [
        {
          "internalType": "bytes32",
          "name": "",
          "type": "bytes32"
        }
      ],
      "stateMutability": "view",
      "type": "function",
      "constant": true
    },
    {
      "inputs": [
        {
          "internalType": "bytes32",
          "name": "role",
          "type": "bytes32"
        },
        {
          "internalType": "uint256",
          "name": "index",
          "type": "uint256"
        }
      ],
      "name": "getRoleMember",
      "outputs": [
        {
          "internalType": "address",
          "name": "",
          "type": "address"
        }
      ],
      "stateMutability": "view",
      "type": "function",
      "constant": true
    },
    {
      "inputs": [
        {
          "internalType": "bytes32",
          "name": "role",
          "type": "bytes32"
        }
      ],
      "name": "getRoleMemberCount",
      "outputs": [
        {
          "internalType": "uint256",
          "name": "",
          "type": "uint256"
        }
      ],
      "stateMutability": "view",
      "type": "function",
      "constant": true
    },
    {
      "inputs": [
        {
          "internalType": "bytes32",
          "name": "role",
          "type": "bytes32"
        },
        {
          "internalType": "address",
          "name": "account",
          "type": "address"
        }
      ],
      "name": "grantRole",
      "outputs": [],
      "stateMutability": "nonpayable",
      "type": "function"
    },
    {
      "inputs": [
        {
          "internalType": "bytes32",
          "name": "role",
          "type": "bytes32"
        },
        {
          "internalType": "address",
          "name": "account",
          "type": "address"
        }
      ],
      "name": "hasRole",
      "outputs": [
        {
          "internalType": "bool",
          "name": "",
          "type": "bool"
        }
      ],
      "stateMutability": "view",
      "type": "function",
      "constant": true
    },
    {
      "inputs": [
        {
          "internalType": "address",
          "name": "owner",
          "type": "address"
        },
        {
          "internalType": "address",
          "name": "operator",
          "type": "address"
        }
      ],
      "name": "isApprovedForAll",
      "outputs": [
        {
          "internalType": "bool",
          "name": "",
          "type": "bool"
        }
      ],
      "stateMutability": "view",
      "type": "function",
      "constant": true
    },
    {
      "inputs": [
        {
          "internalType": "address",
          "name": "addressToCheck",
          "type": "address"
        },
        {
          "internalType": "uint256",
          "name": "badgeTokenID",
          "type": "uint256"
        }
      ],
      "name": "isBadgeSender",
      "outputs": [
        {
          "internalType": "bool",
          "name": "",
          "type": "bool"
        }
      ],
      "stateMutability": "view",
      "type": "function",
      "constant": true
    },
    {
      "inputs": [],
      "name": "isForeverLocked",
      "outputs": [
        {
          "internalType": "bool",
          "name": "",
          "type": "bool"
        }
      ],
      "stateMutability": "view",
      "type": "function",
      "constant": true
    },
    {
      "inputs": [
        {
          "internalType": "address",
          "name": "receivingAddress",
          "type": "address"
        },
        {
          "internalType": "string",
          "name": "_reason",
          "type": "string"
        }
      ],
      "name": "issueBadge",
      "outputs": [
        {
          "internalType": "uint256",
          "name": "newId",
          "type": "uint256"
        }
      ],
      "stateMutability": "nonpayable",
      "type": "function"
    },
    {
      "inputs": [],
      "name": "jerkSanctions",
      "outputs": [
        {
          "internalType": "bool",
          "name": "",
          "type": "bool"
        }
      ],
      "stateMutability": "view",
      "type": "function",
      "constant": true
    },
    {
      "inputs": [],
      "name": "mintingCost",
      "outputs": [
        {
          "internalType": "uint256",
          "name": "",
          "type": "uint256"
        }
      ],
      "stateMutability": "view",
      "type": "function",
      "constant": true
    },
    {
      "inputs": [],
      "name": "mintingCostFloor",
      "outputs": [
        {
          "internalType": "uint256",
          "name": "",
          "type": "uint256"
        }
      ],
      "stateMutability": "view",
      "type": "function",
      "constant": true
    },
    {
      "inputs": [],
      "name": "name",
      "outputs": [
        {
          "internalType": "string",
          "name": "",
          "type": "string"
        }
      ],
      "stateMutability": "view",
      "type": "function",
      "constant": true
    },
    {
      "inputs": [
        {
          "internalType": "uint256",
          "name": "tokenId",
          "type": "uint256"
        }
      ],
      "name": "ownerOf",
      "outputs": [
        {
          "internalType": "address",
          "name": "",
          "type": "address"
        }
      ],
      "stateMutability": "view",
      "type": "function",
      "constant": true
    },
    {
      "inputs": [],
      "name": "pause",
      "outputs": [],
      "stateMutability": "nonpayable",
      "type": "function"
    },
    {
      "inputs": [],
      "name": "paused",
      "outputs": [
        {
          "internalType": "bool",
          "name": "",
          "type": "bool"
        }
      ],
      "stateMutability": "view",
      "type": "function",
      "constant": true
    },
    {
      "inputs": [],
      "name": "payItForwardTreasuryRatio_Divisor",
      "outputs": [
        {
          "internalType": "uint256",
          "name": "",
          "type": "uint256"
        }
      ],
      "stateMutability": "view",
      "type": "function",
      "constant": true
    },
    {
      "inputs": [],
      "name": "payItForwardTreasuryRatio_Numerator",
      "outputs": [
        {
          "internalType": "uint256",
          "name": "",
          "type": "uint256"
        }
      ],
      "stateMutability": "view",
      "type": "function",
      "constant": true
    },
    {
      "inputs": [],
      "name": "redPens",
      "outputs": [
        {
          "internalType": "contract ERC20",
          "name": "",
          "type": "address"
        }
      ],
      "stateMutability": "view",
      "type": "function",
      "constant": true
    },
    {
      "inputs": [
        {
          "internalType": "bool",
          "name": "thisIsNotReversible",
          "type": "bool"
        }
      ],
      "name": "refreshBadges",
      "outputs": [
        {
          "internalType": "bool",
          "name": "",
          "type": "bool"
        }
      ],
      "stateMutability": "nonpayable",
      "type": "function"
    },
    {
      "inputs": [
        {
          "internalType": "bytes32",
          "name": "role",
          "type": "bytes32"
        },
        {
          "internalType": "address",
          "name": "account",
          "type": "address"
        }
      ],
      "name": "renounceRole",
      "outputs": [],
      "stateMutability": "nonpayable",
      "type": "function"
    },
    {
      "inputs": [],
      "name": "resetVote",
      "outputs": [],
      "stateMutability": "nonpayable",
      "type": "function"
    },
    {
      "inputs": [
        {
          "internalType": "uint256",
          "name": "tokenId",
          "type": "uint256"
        }
      ],
      "name": "revokeBadge",
      "outputs": [],
      "stateMutability": "nonpayable",
      "type": "function"
    },
    {
      "inputs": [
        {
          "internalType": "bytes32",
          "name": "role",
          "type": "bytes32"
        },
        {
          "internalType": "address",
          "name": "account",
          "type": "address"
        }
      ],
      "name": "revokeRole",
      "outputs": [],
      "stateMutability": "nonpayable",
      "type": "function"
    },
    {
      "inputs": [
        {
          "internalType": "address",
          "name": "from",
          "type": "address"
        },
        {
          "internalType": "address",
          "name": "to",
          "type": "address"
        },
        {
          "internalType": "uint256",
          "name": "tokenId",
          "type": "uint256"
        }
      ],
      "name": "safeTransferFrom",
      "outputs": [],
      "stateMutability": "nonpayable",
      "type": "function"
    },
    {
      "inputs": [
        {
          "internalType": "address",
          "name": "from",
          "type": "address"
        },
        {
          "internalType": "address",
          "name": "to",
          "type": "address"
        },
        {
          "internalType": "uint256",
          "name": "tokenId",
          "type": "uint256"
        },
        {
          "internalType": "bytes",
          "name": "_data",
          "type": "bytes"
        }
      ],
      "name": "safeTransferFrom",
      "outputs": [],
      "stateMutability": "nonpayable",
      "type": "function"
    },
    {
      "inputs": [
        {
          "internalType": "address",
          "name": "operator",
          "type": "address"
        },
        {
          "internalType": "bool",
          "name": "approved",
          "type": "bool"
        }
      ],
      "name": "setApprovalForAll",
      "outputs": [],
      "stateMutability": "nonpayable",
      "type": "function"
    },
    {
      "inputs": [
        {
          "internalType": "uint256",
          "name": "costInWei",
          "type": "uint256"
        }
      ],
      "name": "setMintingCost",
      "outputs": [
        {
          "internalType": "bool",
          "name": "",
          "type": "bool"
        }
      ],
      "stateMutability": "nonpayable",
      "type": "function"
    },
    {
      "inputs": [
        {
          "internalType": "uint256",
          "name": "costFloorInWei",
          "type": "uint256"
        }
      ],
      "name": "setMintingCostFloor",
      "outputs": [
        {
          "internalType": "bool",
          "name": "",
          "type": "bool"
        }
      ],
      "stateMutability": "nonpayable",
      "type": "function"
    },
    {
      "inputs": [
        {
          "internalType": "uint256",
          "name": "_numerator",
          "type": "uint256"
        },
        {
          "internalType": "uint256",
          "name": "_divisor",
          "type": "uint256"
        }
      ],
      "name": "setTipRatio",
      "outputs": [
        {
          "internalType": "bool",
          "name": "",
          "type": "bool"
        }
      ],
      "stateMutability": "nonpayable",
      "type": "function"
    },
    {
      "inputs": [
        {
          "internalType": "bytes4",
          "name": "interfaceId",
          "type": "bytes4"
        }
      ],
      "name": "supportsInterface",
      "outputs": [
        {
          "internalType": "bool",
          "name": "",
          "type": "bool"
        }
      ],
      "stateMutability": "view",
      "type": "function",
      "constant": true
    },
    {
      "inputs": [],
      "name": "symbol",
      "outputs": [
        {
          "internalType": "string",
          "name": "",
          "type": "string"
        }
      ],
      "stateMutability": "view",
      "type": "function",
      "constant": true
    },
    {
      "inputs": [],
      "name": "syncAllRoles",
      "outputs": [],
      "stateMutability": "nonpayable",
      "type": "function"
    },
    {
      "inputs": [
        {
          "internalType": "bytes32",
          "name": "ROLE_TO_SYNC",
          "type": "bytes32"
        }
      ],
      "name": "syncSingleRole",
      "outputs": [],
      "stateMutability": "nonpayable",
      "type": "function"
    },
    {
      "inputs": [],
      "name": "syncVotes",
      "outputs": [],
      "stateMutability": "nonpayable",
      "type": "function"
    },
    {
      "inputs": [
        {
          "internalType": "uint256",
          "name": "index",
          "type": "uint256"
        }
      ],
      "name": "tokenByIndex",
      "outputs": [
        {
          "internalType": "uint256",
          "name": "",
          "type": "uint256"
        }
      ],
      "stateMutability": "view",
      "type": "function",
      "constant": true
    },
    {
      "inputs": [
        {
          "internalType": "address",
          "name": "owner",
          "type": "address"
        },
        {
          "internalType": "uint256",
          "name": "index",
          "type": "uint256"
        }
      ],
      "name": "tokenOfOwnerByIndex",
      "outputs": [
        {
          "internalType": "uint256",
          "name": "",
          "type": "uint256"
        }
      ],
      "stateMutability": "view",
      "type": "function",
      "constant": true
    },
    {
      "inputs": [
        {
          "internalType": "uint256",
          "name": "tokenId",
          "type": "uint256"
        }
      ],
      "name": "tokenURI",
      "outputs": [
        {
          "internalType": "string",
          "name": "",
          "type": "string"
        }
      ],
      "stateMutability": "view",
      "type": "function",
      "constant": true
    },
    {
      "inputs": [],
      "name": "totalSupply",
      "outputs": [
        {
          "internalType": "uint256",
          "name": "",
          "type": "uint256"
        }
      ],
      "stateMutability": "view",
      "type": "function",
      "constant": true
    },
    {
      "inputs": [
        {
          "internalType": "address",
          "name": "from",
          "type": "address"
        },
        {
          "internalType": "address",
          "name": "to",
          "type": "address"
        },
        {
          "internalType": "uint256",
          "name": "tokenId",
          "type": "uint256"
        }
      ],
      "name": "transferFrom",
      "outputs": [],
      "stateMutability": "nonpayable",
      "type": "function"
    },
    {
      "inputs": [],
      "name": "unpause",
      "outputs": [],
      "stateMutability": "nonpayable",
      "type": "function"
    },
    {
      "inputs": [],
      "name": "updateAddressManager",
      "outputs": [],
      "stateMutability": "nonpayable",
      "type": "function"
    },
    {
      "inputs": [],
      "name": "updateAllAddresses",
      "outputs": [],
      "stateMutability": "nonpayable",
      "type": "function"
    },
    {
      "inputs": [],
      "name": "updateAllRoles",
      "outputs": [],
      "stateMutability": "nonpayable",
      "type": "function"
    },
    {
      "inputs": [],
      "name": "updateDAOAddresses",
      "outputs": [],
      "stateMutability": "nonpayable",
      "type": "function"
    },
    {
      "inputs": [],
      "name": "updatePaymentToken",
      "outputs": [],
      "stateMutability": "nonpayable",
      "type": "function"
    },
    {
      "inputs": [
        {
          "internalType": "bytes32",
          "name": "ROLE_TO_UPDATE",
          "type": "bytes32"
        }
      ],
      "name": "updateSingleRole",
      "outputs": [],
      "stateMutability": "nonpayable",
      "type": "function"
    },
    {
      "inputs": [],
      "name": "updateTokenAddresses",
      "outputs": [],
      "stateMutability": "nonpayable",
      "type": "function"
    }
  ],
  "bytecode": "0x60806040526000805460ff199081168255600f805463ffffffff60a01b19169055601b91909155601c805490911690556729a2241af62c000060215567016345785d8a0000602255600554602380546001600160a01b0319166001600160a01b03909216919091179055600260245560036025553480156200008057600080fd5b506040516200593238038062005932833981016040819052620000a39162000c3e565b6040805180820182526009815268476f6c64537461727360b81b6020808301919091528251808401909352600483526311dbdb1960e21b90830152600380546001600160a01b0385166001600160a01b03199182168117909255600f8054909116909117905590828282828282828282826200011e620002eb565b6200012862000301565b600d5462000142906000906001600160a01b03166200044c565b600d546200017b907f0538d24a8b7882d7b2e36af243d4af61c23e86e3daa6cb8c887b53220b2f5720906001600160a01b03166200044c565b600a54620001b4907f048bc71fa1cb2c119c339cf9cf00a97996a19a9d991ce5fe049f2fa5459e7990906001600160a01b03166200044c565b600b54620001ed907ffa8e4989e1d689f7bc5c4b25b87efb51fecdecb19ba62847e29c759e12a89acd906001600160a01b03166200044c565b600e5462000226907ff0f4b159a6e2a4815eb3ca3df080bfa70c9270662c59bcaa4479a456220183e6906001600160a01b03166200044c565b620002537f7c9d7f6f02908185bffb3f7fc9afb29fd7bf93675af8fd4b655ee05c2cee1e0e60006200044c565b5081516200026990601090602085019062000b98565b5080516200027f90601190602084019062000b98565b50506016805460ff19169055508151620002a190601d90602085019062000b98565b508251620002b790601e90602086019062000b98565b5050600554602380546001600160a01b0319166001600160a01b039092169190911790555062000cd1975050505050505050565b620002f56200048f565b620002ff620006fa565b565b600f60009054906101000a90046001600160a01b03166001600160a01b031663ff7e88ec6040518163ffffffff1660e01b815260040160206040518083038186803b1580156200035057600080fd5b505afa15801562000365573d6000803e3d6000fd5b505050506040513d601f19601f820116820180604052508101906200038b919062000c70565b600f60156101000a81548160ff021916908315150217905550600f60009054906101000a90046001600160a01b03166001600160a01b0316632fb565856040518163ffffffff1660e01b815260040160206040518083038186803b158015620003f357600080fd5b505afa15801562000408573d6000803e3d6000fd5b505050506040513d601f19601f820116820180604052508101906200042e919062000c70565b600f8054911515600160b01b0260ff60b01b19909216919091179055565b62000463828262000a8e60201b6200201e1760201c565b60008281526002602090815260409091206200048a9183906200202862000a9e821b17901c565b505050565b600f60009054906101000a90046001600160a01b03166001600160a01b031663dadf56ac6040518163ffffffff1660e01b815260040160206040518083038186803b158015620004de57600080fd5b505afa158015620004f3573d6000803e3d6000fd5b505050506040513d601f19601f8201168201806040525081019062000519919062000c3e565b600a80546001600160a01b0319166001600160a01b03928316179055600f546040805163024bebe960e01b81529051919092169163024bebe9916004808301926020929190829003018186803b1580156200057357600080fd5b505afa15801562000588573d6000803e3d6000fd5b505050506040513d601f19601f82011682018060405250810190620005ae919062000c3e565b600b80546001600160a01b0319166001600160a01b03928316179055600f5460408051635b5c251f60e01b815290519190921691635b5c251f916004808301926020929190829003018186803b1580156200060857600080fd5b505afa1580156200061d573d6000803e3d6000fd5b505050506040513d601f19601f8201168201806040525081019062000643919062000c3e565b600c80546001600160a01b0319166001600160a01b03928316179055600f5460408051637310bf1d60e11b81529051919092169163e6217e3a916004808301926020929190829003018186803b1580156200069d57600080fd5b505afa158015620006b2573d6000803e3d6000fd5b505050506040513d601f19601f82011682018060405250810190620006d8919062000c3e565b600e80546001600160a01b0319166001600160a01b0392909216919091179055565b600f60009054906101000a90046001600160a01b03166001600160a01b03166321d7f0086040518163ffffffff1660e01b815260040160206040518083038186803b1580156200074957600080fd5b505afa1580156200075e573d6000803e3d6000fd5b505050506040513d601f19601f8201168201806040525081019062000784919062000c3e565b600480546001600160a01b0319166001600160a01b03928316178155600f546040805163762ddb5960e01b81529051919093169263762ddb599281810192602092909190829003018186803b158015620007dd57600080fd5b505afa158015620007f2573d6000803e3d6000fd5b505050506040513d601f19601f8201168201806040525081019062000818919062000c3e565b600580546001600160a01b0319166001600160a01b03928316179055600f546040805163bfb7dc9960e01b81529051919092169163bfb7dc99916004808301926020929190829003018186803b1580156200087257600080fd5b505afa15801562000887573d6000803e3d6000fd5b505050506040513d601f19601f82011682018060405250810190620008ad919062000c3e565b600680546001600160a01b0319166001600160a01b03928316179055600f5460408051633e6111eb60e21b81529051919092169163f98447ac916004808301926020929190829003018186803b1580156200090757600080fd5b505afa1580156200091c573d6000803e3d6000fd5b505050506040513d601f19601f8201168201806040525081019062000942919062000c3e565b600780546001600160a01b0319166001600160a01b03928316179055600f5460408051630fe1ba9f60e21b815290519190921691633f86ea7c916004808301926020929190829003018186803b1580156200099c57600080fd5b505afa158015620009b1573d6000803e3d6000fd5b505050506040513d601f19601f82011682018060405250810190620009d7919062000c3e565b600880546001600160a01b0319166001600160a01b03928316179055600f5460408051636b58477560e01b815290519190921691636b584775916004808301926020929190829003018186803b15801562000a3157600080fd5b505afa15801562000a46573d6000803e3d6000fd5b505050506040513d601f19601f8201168201806040525081019062000a6c919062000c3e565b600980546001600160a01b0319166001600160a01b0392909216919091179055565b62000a9a828262000abe565b5050565b600062000ab5836001600160a01b03841662000b46565b90505b92915050565b60008281526001602090815260408083206001600160a01b038516845290915290205460ff1662000a9a5760008281526001602081815260408084206001600160a01b0386168086529252808420805460ff19169093179092559051339285917f2f8788117e7eff1d82e926ec794901d17c78024a50270940304540a733656f0d9190a45050565b600081815260018301602052604081205462000b8f5750815460018181018455600084815260208082209093018490558454848252828601909352604090209190915562000ab8565b50600062000ab8565b82805462000ba69062000c94565b90600052602060002090601f01602090048101928262000bca576000855562000c15565b82601f1062000be557805160ff191683800117855562000c15565b8280016001018555821562000c15579182015b8281111562000c1557825182559160200191906001019062000bf8565b5062000c2392915062000c27565b5090565b5b8082111562000c23576000815560010162000c28565b60006020828403121562000c5157600080fd5b81516001600160a01b038116811462000c6957600080fd5b9392505050565b60006020828403121562000c8357600080fd5b8151801515811462000c6957600080fd5b600181811c9082168062000ca957607f821691505b6020821081141562000ccb57634e487b7160e01b600052602260045260246000fd5b50919050565b614c518062000ce16000396000f3fe608060405234801561001057600080fd5b50600436106104805760003560e01c80636c353e3411610257578063c04e17e311610146578063e78c266c116100c3578063f1132b3011610087578063f1132b30146109d3578063f7d92d86146109db578063f98447ac146109e3578063f98db253146109f6578063ff7e88ec14610a0957600080fd5b8063e78c266c1461097c578063e985e9c51461098f578063e9a53230146109a2578063ebf98abf146109b7578063ee0b4c35146109c057600080fd5b8063cf4ece151161010a578063cf4ece1514610926578063d547741f1461093b578063dadf56ac1461094e578063dea6f9c814610961578063e6217e3a1461096957600080fd5b8063c04e17e3146108b7578063c62b28e8146108d8578063c87b56dd146108eb578063ca15c873146108fe578063cce843921461091157600080fd5b806391d14854116101d4578063a22cb46511610198578063a22cb46514610855578063a32c5e5914610868578063a78e746f1461087d578063b88d4fde14610891578063bfb7dc99146108a457600080fd5b806391d148541461081257806395d89b411461082557806396ac6bf01461082d5780639ac3eaa714610840578063a217fddf1461084d57600080fd5b8063794ccf6c1161021b578063794ccf6c146107c85780638456cb59146107db5780638685f8db146107e357806387e9152d146107f65780639010d07c146107ff57600080fd5b80636c353e341461075e57806370a082311461076657806373c8982214610779578063762ddb59146107a257806376516078146107b557600080fd5b8063329a8cfa1161037357806359e6f787116102f0578063610c3009116102b4578063610c3009146106fd5780636352211e1461070557806363ebc6771461071857806367a14f06146107385780636b5847751461074b57600080fd5b806359e6f787146106b15780635b5c251f146106c45780635c975abb146106d75780635db531a1146106e25780635f413466146106ea57600080fd5b806342842e0e1161033757806342842e0e1461066857806349b5e1051461067b5780634d84c6d8146106835780634f6ccce71461068b57806357f276ff1461069e57600080fd5b8063329a8cfa1461061f57806336568abe146106275780633ab76e9f1461063a5780633f4ba83a1461064d5780633f86ea7c1461065557600080fd5b806321d670e91161040157806329e63f35116103c557806329e63f35146105ca5780632f2ff15d146105dd5780632f745c59146105f05780632fb5658514610603578063326a55e01461061757600080fd5b806321d670e91461056257806321d7f0081461056b57806323b872dd1461057e5780632436329d14610591578063248a9ca3146105a657600080fd5b80630ad17f8f116104485780630ad17f8f1461051557806310a83fcb14610536578063130f63201461053f57806317314d5a1461055257806318160ddd1461055a57600080fd5b806301ffc9a714610485578063024bebe9146104ad57806306fdde03146104d8578063081812fc146104ed578063095ea7b314610500575b600080fd5b610498610493366004614704565b610a1d565b60405190151581526020015b60405180910390f35b600b546104c0906001600160a01b031681565b6040516001600160a01b0390911681526020016104a4565b6104e0610a2e565b6040516104a491906148c2565b6104c06104fb3660046146a4565b610ac0565b61051361050e36600461463e565b610b5a565b005b61052861052336600461463e565b610c70565b6040519081526020016104a4565b61052860225481565b61051361054d3660046146a4565b610ca0565b610513610cd5565b601954610528565b61052860245481565b6004546104c0906001600160a01b031681565b61051361058c3660046144eb565b610cfe565b610528600080516020614b7c83398151915281565b6105286105b43660046146a4565b6000908152600160208190526040909120015490565b6104986105d83660046146a4565b610d2f565b6105136105eb3660046146bd565b610e3c565b6105286105fe36600461463e565b610e5e565b600f5461049890600160b01b900460ff1681565b610513610ef4565b610513610f04565b6105136106353660046146bd565b61100d565b600f546104c0906001600160a01b031681565b61051361102f565b6008546104c0906001600160a01b031681565b6105136106763660046144eb565b6110c1565b6105136110f2565b610513610efc565b6105286106993660046146a4565b6110fa565b6105136106ac3660046146a4565b61118d565b6104986106bf36600461463e565b6111a1565b600c546104c0906001600160a01b031681565b60165460ff16610498565b6105136111d3565b600d546104c0906001600160a01b031681565b6104e06111db565b6104c06107133660046146a4565b611269565b61072b610726366004614478565b6112e0565b6040516104a4919061487e565b6023546104c0906001600160a01b031681565b6009546104c0906001600160a01b031681565b61051361134a565b610528610774366004614478565b611376565b6104c06107873660046146a4565b6000908152601f60205260409020546001600160a01b031690565b6005546104c0906001600160a01b031681565b6104986107c336600461466a565b6113fd565b6105286107d63660046145da565b6114f4565b6105136117de565b6104986107f13660046146e2565b611860565b61052860255481565b6104c061080d3660046146e2565b611960565b6104986108203660046146bd565b61197f565b6104e06119aa565b61049861083b3660046146a4565b6119b9565b601c546104989060ff1681565b610528600081565b6105136108633660046145ac565b611ac5565b610528600080516020614bdc83398151915281565b600f5461049890600160a01b900460ff1681565b61051361089f36600461452c565b611b43565b6006546104c0906001600160a01b031681565b6108ca6108c53660046146a4565b611b7b565b6040516104a492919061485a565b6105136108e63660046146a4565b611c2a565b6104e06108f93660046146a4565b611c7b565b61052861090c3660046146a4565b611d62565b610528600080516020614bfc83398151915281565b610528600080516020614bbc83398151915281565b6105136109493660046146bd565b611d79565b600a546104c0906001600160a01b031681565b6104e0611d83565b600e546104c0906001600160a01b031681565b6003546104c0906001600160a01b031681565b61049861099d3660046144b2565b611d90565b610528600080516020614b9c83398151915281565b61052860215481565b6104986109ce3660046146a4565b611def565b610513611edb565b610513611ee3565b6007546104c0906001600160a01b031681565b6104e0610a043660046146a4565b611f83565b600f5461049890600160a81b900460ff1681565b6000610a288261203d565b92915050565b606060108054610a3d90614a6a565b80601f0160208091040260200160405190810160405280929190818152602001828054610a6990614a6a565b8015610ab65780601f10610a8b57610100808354040283529160200191610ab6565b820191906000526020600020905b815481529060010190602001808311610a9957829003601f168201915b5050505050905090565b6000818152601260205260408120546001600160a01b0316610b3e5760405162461bcd60e51b815260206004820152602c60248201527f4552433732313a20617070726f76656420717565727920666f72206e6f6e657860448201526b34b9ba32b73a103a37b5b2b760a11b60648201526084015b60405180910390fd5b506000908152601460205260409020546001600160a01b031690565b6000610b6582611269565b9050806001600160a01b0316836001600160a01b03161415610bd35760405162461bcd60e51b815260206004820152602160248201527f4552433732313a20617070726f76616c20746f2063757272656e74206f776e656044820152603960f91b6064820152608401610b35565b336001600160a01b0382161480610bef5750610bef8133611d90565b610c615760405162461bcd60e51b815260206004820152603860248201527f4552433732313a20617070726f76652063616c6c6572206973206e6f74206f7760448201527f6e6572206e6f7220617070726f76656420666f7220616c6c00000000000000006064820152608401610b35565b610c6b8383612062565b505050565b602080528160005260406000208181548110610c8b57600080fd5b90600052602060002001600091509150505481565b610caa6001612089565b50610cb48161213b565b50610cbe816122ac565b50610cc96000612089565b610cd257600080fd5b50565b610cdf6001612089565b50610ce8612435565b50610cf36000612089565b610cfc57600080fd5b565b610d08338261257b565b610d245760405162461bcd60e51b8152600401610b3590614927565b610c6b83838361264f565b6000610d49600080516020614bdc8339815191523361197f565b80610d675750610d67600080516020614b9c8339815191523361197f565b80610d855750610d85600080516020614b7c8339815191523361197f565b610dca5760405162461bcd60e51b81526020600482015260166024820152752cb7ba93b932903737ba103a3432903130b4b634b33360511b6044820152606401610b35565b6022548210610e275760405162461bcd60e51b8152602060048201526024808201527f536f7272792120596f752063616e206f6e6c79206c6f7765722074686520666c6044820152636f6f722160e01b6064820152608401610b35565b610e3382602255600190565b50600192915050565b610e468282612680565b6000828152600260205260409020610c6b9082612028565b6000610e6983611376565b8210610ecb5760405162461bcd60e51b815260206004820152602b60248201527f455243373231456e756d657261626c653a206f776e657220696e646578206f7560448201526a74206f6620626f756e647360a81b6064820152608401610b35565b506001600160a01b03919091166000908152601760209081526040808320938352929052205490565b610efc6126ba565b610cfc612915565b610f1c600080516020614bdc8339815191523361197f565b80610f3a5750610f3a600080516020614b9c8339815191523361197f565b80610f585750610f58600080516020614b7c8339815191523361197f565b610f9d5760405162461bcd60e51b81526020600482015260166024820152752cb7ba93b932903737ba103a3432903130b4b634b33360511b6044820152606401610b35565b600f60009054906101000a90046001600160a01b03166001600160a01b031663329a8cfa6040518163ffffffff1660e01b8152600401600060405180830381600087803b158015610fed57600080fd5b505af1158015611001573d6000803e3d6000fd5b50505050610cfc6111d3565b6110178282612c91565b6000828152600260205260409020610c6b9082612d0b565b611047600080516020614b9c8339815191523361197f565b806110655750611065600080516020614bdc8339815191523361197f565b6110a95760405162461bcd60e51b8152602060048201526015602482015274596f75277265206e6f742074686520476176656c7360581b6044820152606401610b35565b601c5460ff16156110b957600080fd5b610cfc612d20565b6110cb338261257b565b6110e75760405162461bcd60e51b8152600401610b3590614927565b610c6b838383612db3565b610cfc6126ba565b600061110560195490565b82106111685760405162461bcd60e51b815260206004820152602c60248201527f455243373231456e756d657261626c653a20676c6f62616c20696e646578206f60448201526b7574206f6620626f756e647360a01b6064820152608401610b35565b6019828154811061117b5761117b614b16565b90600052602060002001549050919050565b6111976001612089565b50610cbe81612dce565b6000818152601f60205260408120546001600160a01b03848116911614156111cb57506001610a28565b506000610a28565b610cfc613029565b601e80546111e890614a6a565b80601f016020809104026020016040519081016040528092919081815260200182805461121490614a6a565b80156112615780601f1061123657610100808354040283529160200191611261565b820191906000526020600020905b81548152906001019060200180831161124457829003601f168201915b505050505081565b6000818152601260205260408120546001600160a01b031680610a285760405162461bcd60e51b815260206004820152602960248201527f4552433732313a206f776e657220717565727920666f72206e6f6e657869737460448201526832b73a103a37b5b2b760b91b6064820152608401610b35565b6001600160a01b0381166000908152602080805260409182902080548351818402810184019094528084526060939283018282801561133e57602002820191906000526020600020905b81548152602001906001019080831161132a575b50505050509050919050565b611352612915565b600554602380546001600160a01b0319166001600160a01b03909216919091179055565b60006001600160a01b0382166113e15760405162461bcd60e51b815260206004820152602a60248201527f4552433732313a2062616c616e636520717565727920666f7220746865207a65604482015269726f206164647265737360b01b6064820152608401610b35565b506001600160a01b031660009081526013602052604090205490565b6000611417600080516020614b9c8339815191523361197f565b806114355750611435600080516020614b7c8339815191523361197f565b806114535750611453600080516020614bdc8339815191523361197f565b61145c57600080fd5b600f54600160b01b810460ff9081161515600160a81b909204161515146001148061149a575061149a600080516020614bdc8339815191523361197f565b6114d95760405162461bcd60e51b815260206004820152601060248201526f436f757274204d75737420416772656560801b6044820152606401610b35565b600182151514156114ec57610e3361316c565b506000919050565b60008260008060255460215461150a91906149dd565b90508060245461151a91906149f1565b6023546040516370a0823160e01b81523060048201526001600160a01b03909116906370a082319060240160206040518083038186803b15801561155d57600080fd5b505afa158015611571573d6000803e3d6000fd5b505050506040513d601f19601f82011682018060405250810190611595919061473e565b61159f91906149c5565b6023546024549193506001600160a01b0316906323b872dd90339030906115c79086906149f1565b6040516001600160e01b031960e086901b1681526001600160a01b0393841660048201529290911660248301526044820152606401602060405180830381600087803b15801561161657600080fd5b505af115801561162a573d6000803e3d6000fd5b505050506040513d601f19601f8201168201806040525081019061164e9190614687565b506023546024546025546001600160a01b03909216916323b872dd913391879161167791614a10565b61168190866149f1565b6040516001600160e01b031960e086901b1681526001600160a01b0393841660048201529290911660248301526044820152606401602060405180830381600087803b1580156116d057600080fd5b505af11580156116e4573d6000803e3d6000fd5b505050506040513d601f19601f820116820180604052508101906117089190614687565b506023546040516370a0823160e01b815230600482015283916001600160a01b0316906370a082319060240160206040518083038186803b15801561174c57600080fd5b505afa158015611760573d6000803e3d6000fd5b505050506040513d601f19601f82011682018060405250810190611784919061473e565b146117ca5760405162461bcd60e51b8152602060048201526016602482015275115c9c9bdc88151c985b9cd9995c9a5b99c80854915160521b6044820152606401610b35565b6117d486866131be565b9695505050505050565b6117f6600080516020614b9c8339815191523361197f565b806118145750611814600080516020614bdc8339815191523361197f565b6118585760405162461bcd60e51b8152602060048201526015602482015274596f75277265206e6f742074686520476176656c7360581b6044820152606401610b35565b610cfc613223565b600061187a600080516020614b7c8339815191523361197f565b806118985750611898600080516020614bdc8339815191523361197f565b6118da5760405162461bcd60e51b8152602060048201526013602482015272596f75277265206e6f7420746865204a75727960681b6044820152606401610b35565b818310156119495760405162461bcd60e51b815260206004820152603660248201527f536f7272792120436f7374206e756d657261746f72206d75737420626520677260448201527532b0ba32b9103a3430b7103232b737b6b4b730ba37b960511b6064820152608401610b35565b6024839055602582905560015b5060019392505050565b6000828152600260205260408120611978908361329e565b9392505050565b60009182526001602090815260408084206001600160a01b0393909316845291905290205460ff1690565b606060118054610a3d90614a6a565b60006119d3600080516020614b9c8339815191523361197f565b806119f157506119f1600080516020614b7c8339815191523361197f565b80611a0f5750611a0f600080516020614bdc8339815191523361197f565b611a1857600080fd5b600f54600160b01b810460ff9081161515600160a81b9092041615151460011480611a565750611a56600080516020614bdc8339815191523361197f565b611a955760405162461bcd60e51b815260206004820152601060248201526f436f757274204d75737420416772656560801b6044820152606401610b35565b81604514156114ec57611aa661316c565b50611aaf613223565b50601c805460ff19166001908117909155919050565b611add600080516020614bdc8339815191523361197f565b80611afb5750611afb600080516020614b9c8339815191523361197f565b80611b195750611b19600080516020614b7c8339815191523361197f565b611b355760405162461bcd60e51b8152600401610b3590614927565b611b3f82826132aa565b5050565b611b4d338361257b565b611b695760405162461bcd60e51b8152600401610b3590614974565b611b758484848461336f565b50505050565b601f60205260009081526040902080546001820180546001600160a01b039092169291611ba790614a6a565b80601f0160208091040260200160405190810160405280929190818152602001828054611bd390614a6a565b8015611c205780601f10611bf557610100808354040283529160200191611c20565b820191906000526020600020905b815481529060010190602001808311611c0357829003601f168201915b5050505050905082565b611c34338261257b565b611c725760405162461bcd60e51b815260206004820152600f60248201526e4e696365205472792c204275636b6f60881b6044820152606401610b35565b610cd2816133a2565b6000818152601260205260409020546060906001600160a01b0316611cfa5760405162461bcd60e51b815260206004820152602f60248201527f4552433732314d657461646174613a2055524920717565727920666f72206e6f60448201526e3732bc34b9ba32b73a103a37b5b2b760891b6064820152608401610b35565b6000611d1160408051602081019091526000815290565b90506000815111611d315760405180602001604052806000815250611978565b80611d3b84613449565b604051602001611d4c929190614783565b6040516020818303038152906040529392505050565b6000818152600260205260408120610a2890613547565b6110178282613551565b601d80546111e890614a6a565b600080611dab600080516020614bdc8339815191528461197f565b80611dc95750611dc9600080516020614b9c8339815191528461197f565b80611de75750611de7600080516020614b7c8339815191528461197f565b949350505050565b6000611e09600080516020614b7c8339815191523361197f565b80611e275750611e27600080516020614bdc8339815191523361197f565b611e695760405162461bcd60e51b8152602060048201526013602482015272596f75277265206e6f7420746865204a75727960681b6044820152606401610b35565b602254821015611ecf5760405162461bcd60e51b815260206004820152602b60248201527f536f7272792120436f7374206d7573742062652067726561746572207468616e60448201526a10181718902932b22832b760a91b6064820152608401610b35565b610e3382602155600190565b610cfc61358b565b611eed6001612089565b50611f05600080516020614bdc833981519152612dce565b50611f1d600080516020614b9c833981519152612dce565b50611f35600080516020614b7c833981519152612dce565b50611f4d600080516020614bbc833981519152612dce565b50611f65600080516020614bfc833981519152612dce565b50611f706000612dce565b50611f79613029565b610cf36000612089565b6000818152601f60205260409020600101805460609190611fa390614a6a565b80601f0160208091040260200160405190810160405280929190818152602001828054611fcf90614a6a565b801561133e5780601f10611ff15761010080835404028352916020019161133e565b820191906000526020600020905b815481529060010190602001808311611fff5750939695505050505050565b611b3f82826136c2565b6000611978836001600160a01b03841661372d565b60006001600160e01b0319821663780e9d6360e01b1480610a285750610a2882613774565b61207a600080516020614bdc8339815191523361197f565b15611b3f57611b3f82826137b4565b6000805460ff1682151581151514156120e45760405162461bcd60e51b815260206004820152601960248201527f416c72656164792053657420746f20746861742076616c7565000000000000006044820152606401610b35565b6000805484151560ff19909116811790915560ff1615158115151415610e335760405162461bcd60e51b815260206004820152600c60248201526b29b0b33a32bc9022b93937b960a11b6044820152606401610b35565b60405163ca15c87360e01b8152600481018290526000908190309063ca15c8739060240160206040518083038186803b15801561217757600080fd5b505afa15801561218b573d6000803e3d6000fd5b505050506040513d601f19601f820116820180604052508101906121af919061473e565b905060005b8181101561195657604051632404341f60e21b815260048101859052602481018290526000903090639010d07c9060440160206040518083038186803b1580156121fd57600080fd5b505afa158015612211573d6000803e3d6000fd5b505050506040513d601f19601f820116820180604052508101906122359190614495565b60405163d547741f60e01b8152600481018790526001600160a01b0382166024820152909150309063d547741f90604401600060405180830381600087803b15801561228057600080fd5b505af1158015612294573d6000803e3d6000fd5b505050505080806122a490614aa5565b9150506121b4565b600f5460405163ca15c87360e01b81526004810183905260009182916001600160a01b039091169063ca15c8739060240160206040518083038186803b1580156122f557600080fd5b505afa158015612309573d6000803e3d6000fd5b505050506040513d601f19601f8201168201806040525081019061232d919061473e565b905060005b8181101561195657600f54604051632404341f60e21b815260048101869052602481018390526000916001600160a01b031690639010d07c9060440160206040518083038186803b15801561238657600080fd5b505afa15801561239a573d6000803e3d6000fd5b505050506040513d601f19601f820116820180604052508101906123be9190614495565b604051632f2ff15d60e01b8152600481018790526001600160a01b03821660248201529091503090632f2ff15d90604401600060405180830381600087803b15801561240957600080fd5b505af115801561241d573d6000803e3d6000fd5b5050505050808061242d90614aa5565b915050612332565b600061244e600080516020614bdc83398151915261213b565b50612466600080516020614bdc8339815191526122ac565b61246f57600080fd5b612486600080516020614b9c83398151915261213b565b5061249e600080516020614b9c8339815191526122ac565b6124a757600080fd5b6124be600080516020614b7c83398151915261213b565b506124d6600080516020614b7c8339815191526122ac565b6124df57600080fd5b6124f6600080516020614bbc83398151915261213b565b5061250e600080516020614bbc8339815191526122ac565b61251757600080fd5b61252e600080516020614bfc83398151915261213b565b50612546600080516020614bfc8339815191526122ac565b61254f57600080fd5b612559600061213b565b5061256460006122ac565b61256d57600080fd5b612575613029565b50600190565b6000818152601260205260408120546001600160a01b03166125f45760405162461bcd60e51b815260206004820152602c60248201527f4552433732313a206f70657261746f7220717565727920666f72206e6f6e657860448201526b34b9ba32b73a103a37b5b2b760a11b6064820152608401610b35565b60006125ff83611269565b6000848152601f60205260409020549091506001600160a01b039081169085168114806126365750600b546001600160a01b031633145b8061264657506126468286611d90565b95945050505050565b612659338261257b565b6126755760405162461bcd60e51b8152600401610b3590614974565b610c6b838383613822565b600082815260016020819052604082200154905460ff16156126a657610c6b83836136c2565b6126b081336139cd565b610c6b83836136c2565b600f60009054906101000a90046001600160a01b03166001600160a01b031663dadf56ac6040518163ffffffff1660e01b815260040160206040518083038186803b15801561270857600080fd5b505afa15801561271c573d6000803e3d6000fd5b505050506040513d601f19601f820116820180604052508101906127409190614495565b600a80546001600160a01b0319166001600160a01b03928316179055600f546040805163024bebe960e01b81529051919092169163024bebe9916004808301926020929190829003018186803b15801561279957600080fd5b505afa1580156127ad573d6000803e3d6000fd5b505050506040513d601f19601f820116820180604052508101906127d19190614495565b600b80546001600160a01b0319166001600160a01b03928316179055600f5460408051635b5c251f60e01b815290519190921691635b5c251f916004808301926020929190829003018186803b15801561282a57600080fd5b505afa15801561283e573d6000803e3d6000fd5b505050506040513d601f19601f820116820180604052508101906128629190614495565b600c80546001600160a01b0319166001600160a01b03928316179055600f5460408051637310bf1d60e11b81529051919092169163e6217e3a916004808301926020929190829003018186803b1580156128bb57600080fd5b505afa1580156128cf573d6000803e3d6000fd5b505050506040513d601f19601f820116820180604052508101906128f39190614495565b600e80546001600160a01b0319166001600160a01b0392909216919091179055565b600f60009054906101000a90046001600160a01b03166001600160a01b03166321d7f0086040518163ffffffff1660e01b815260040160206040518083038186803b15801561296357600080fd5b505afa158015612977573d6000803e3d6000fd5b505050506040513d601f19601f8201168201806040525081019061299b9190614495565b600480546001600160a01b0319166001600160a01b03928316178155600f546040805163762ddb5960e01b81529051919093169263762ddb599281810192602092909190829003018186803b1580156129f357600080fd5b505afa158015612a07573d6000803e3d6000fd5b505050506040513d601f19601f82011682018060405250810190612a2b9190614495565b600580546001600160a01b0319166001600160a01b03928316179055600f546040805163bfb7dc9960e01b81529051919092169163bfb7dc99916004808301926020929190829003018186803b158015612a8457600080fd5b505afa158015612a98573d6000803e3d6000fd5b505050506040513d601f19601f82011682018060405250810190612abc9190614495565b600680546001600160a01b0319166001600160a01b03928316179055600f5460408051633e6111eb60e21b81529051919092169163f98447ac916004808301926020929190829003018186803b158015612b1557600080fd5b505afa158015612b29573d6000803e3d6000fd5b505050506040513d601f19601f82011682018060405250810190612b4d9190614495565b600780546001600160a01b0319166001600160a01b03928316179055600f5460408051630fe1ba9f60e21b815290519190921691633f86ea7c916004808301926020929190829003018186803b158015612ba657600080fd5b505afa158015612bba573d6000803e3d6000fd5b505050506040513d601f19601f82011682018060405250810190612bde9190614495565b600880546001600160a01b0319166001600160a01b03928316179055600f5460408051636b58477560e01b815290519190921691636b584775916004808301926020929190829003018186803b158015612c3757600080fd5b505afa158015612c4b573d6000803e3d6000fd5b505050506040513d601f19601f82011682018060405250810190612c6f9190614495565b600980546001600160a01b0319166001600160a01b0392909216919091179055565b6001600160a01b0381163314612d015760405162461bcd60e51b815260206004820152602f60248201527f416363657373436f6e74726f6c3a2063616e206f6e6c792072656e6f756e636560448201526e103937b632b9903337b91039b2b63360891b6064820152608401610b35565b611b3f8282613a31565b6000611978836001600160a01b038416613a98565b60165460ff16612d695760405162461bcd60e51b815260206004820152601460248201527314185d5cd8589b194e881b9bdd081c185d5cd95960621b6044820152606401610b35565b6016805460ff191690557f5db9ee0a495bf2e6ff9c91a7834c1ba4fdd244a5e8aa4e537bd38aeae4b073aa335b6040516001600160a01b03909116815260200160405180910390a1565b610c6b83838360405180602001604052806000815250611b43565b600f5460405163ca15c87360e01b81526004810183905260009182916001600160a01b039091169063ca15c8739060240160206040518083038186803b158015612e1757600080fd5b505afa158015612e2b573d6000803e3d6000fd5b505050506040513d601f19601f82011682018060405250810190612e4f919061473e565b60405163ca15c87360e01b815260048101859052909150600090309063ca15c8739060240160206040518083038186803b158015612e8c57600080fd5b505afa158015612ea0573d6000803e3d6000fd5b505050506040513d601f19601f82011682018060405250810190612ec4919061473e565b90506000612ed28284614a10565b905060008111612f175760405162461bcd60e51b815260206004820152601060248201526f4e6f7468696e6720746f2073796e632160801b6044820152606401610b35565b60005b8181101561301d57600f54604051632404341f60e21b815260048101889052602481018390526000916001600160a01b031690639010d07c9060440160206040518083038186803b158015612f6e57600080fd5b505afa158015612f82573d6000803e3d6000fd5b505050506040513d601f19601f82011682018060405250810190612fa69190614495565b604051632f2ff15d60e01b8152600481018990526001600160a01b03821660248201529091503090632f2ff15d90604401600060405180830381600087803b158015612ff157600080fd5b505af1158015613005573d6000803e3d6000fd5b5050505050808061301590614aa5565b915050612f1a565b50600195945050505050565b600f60009054906101000a90046001600160a01b03166001600160a01b031663ff7e88ec6040518163ffffffff1660e01b815260040160206040518083038186803b15801561307757600080fd5b505afa15801561308b573d6000803e3d6000fd5b505050506040513d601f19601f820116820180604052508101906130af9190614687565b600f60156101000a81548160ff021916908315150217905550600f60009054906101000a90046001600160a01b03166001600160a01b0316632fb565856040518163ffffffff1660e01b815260040160206040518083038186803b15801561311657600080fd5b505afa15801561312a573d6000803e3d6000fd5b505050506040513d601f19601f8201168201806040525081019061314e9190614687565b600f8054911515600160b01b0260ff60b01b19909216919091179055565b6000805b601b548110156131b2576000818152601260205260409020546001600160a01b0316156131a0576131a0816133a2565b806131aa81614aa5565b915050613170565b50506000601b55600190565b60006001600160a01b03831633148015906131e157506001600160a01b03831615155b6131ea57600080fd5b50601b546131f9338383613b85565b61320583601b54613bf2565b6001601b600082825461321891906149c5565b909155505092915050565b60165460ff16156132695760405162461bcd60e51b815260206004820152601060248201526f14185d5cd8589b194e881c185d5cd95960821b6044820152606401610b35565b6016805460ff191660011790557f62e78cea01bee320cd4e420270b5ea74000d11b0c9f74754ebdbfc544b05a258612d963390565b60006119788383613c0c565b6001600160a01b0382163314156133035760405162461bcd60e51b815260206004820152601960248201527f4552433732313a20617070726f766520746f2063616c6c6572000000000000006044820152606401610b35565b3360008181526015602090815260408083206001600160a01b03871680855290835292819020805460ff191686151590811790915590519081529192917f17307eab39ab6107e8899845ad3d59bd9653f200f220920489ca2b5937696c31910160405180910390a35050565b61337a848484613822565b61338684848484613c92565b611b755760405162461bcd60e51b8152600401610b35906148d5565b60006133ad82611269565b90506133bb81600084613d9f565b6133c6600083612062565b6001600160a01b03811660009081526013602052604081208054600192906133ef908490614a10565b909155505060008281526012602052604080822080546001600160a01b0319169055518391906001600160a01b038416907fddf252ad1be2c89b69c2b068fc378daa952ba7f163c4a11628f55a4df523b3ef908390a45050565b60608161346d5750506040805180820190915260018152600360fc1b602082015290565b8160005b8115613497578061348181614aa5565b91506134909050600a836149dd565b9150613471565b60008167ffffffffffffffff8111156134b2576134b2614b2c565b6040519080825280601f01601f1916602001820160405280156134dc576020820181803683370190505b5090505b8415611de7576134f1600183614a10565b91506134fe600a86614ac0565b6135099060306149c5565b60f81b81838151811061351e5761351e614b16565b60200101906001600160f81b031916908160001a905350613540600a866149dd565b94506134e0565b6000610a28825490565b600082815260016020819052604082200154905460ff161561357757610c6b8383613a31565b61358181336139cd565b610c6b8383613a31565b600f60009054906101000a90046001600160a01b03166001600160a01b031663a44b93256040518163ffffffff1660e01b815260040160206040518083038186803b1580156135d957600080fd5b505afa1580156135ed573d6000803e3d6000fd5b505050506040513d601f19601f820116820180604052508101906136119190614687565b61361a57600080fd5b600f60009054906101000a90046001600160a01b03166001600160a01b031663ac7cfac36040518163ffffffff1660e01b815260040160206040518083038186803b15801561366857600080fd5b505afa15801561367c573d6000803e3d6000fd5b505050506040513d601f19601f820116820180604052508101906136a09190614495565b600380546001600160a01b0319166001600160a01b0392909216919091179055565b6136cc828261197f565b611b3f5760008281526001602081815260408084206001600160a01b0386168086529252808420805460ff19169093179092559051339285917f2f8788117e7eff1d82e926ec794901d17c78024a50270940304540a733656f0d9190a45050565b60008181526001830160205260408120546111cb57508154600181810184556000848152602080822090930184905584548482528286019093526040902091909155610a28565b60006001600160e01b031982166380ac58cd60e01b14806137a557506001600160e01b03198216635b5e139f60e01b145b80610a285750610a2882613daa565b600081815260146020526040902080546001600160a01b0319166001600160a01b03841690811790915581906137e982611269565b6001600160a01b03167f8c5be1e5ebec7d5bd14f71427d1e84f3dd0314c0f7b2291e5b200ac8c7c3b92560405160405180910390a45050565b826001600160a01b031661383582611269565b6001600160a01b03161461389d5760405162461bcd60e51b815260206004820152602960248201527f4552433732313a207472616e73666572206f6620746f6b656e2074686174206960448201526839903737ba1037bbb760b91b6064820152608401610b35565b6001600160a01b0382166138ff5760405162461bcd60e51b8152602060048201526024808201527f4552433732313a207472616e7366657220746f20746865207a65726f206164646044820152637265737360e01b6064820152608401610b35565b61390a838383613d9f565b613915600082612062565b6001600160a01b038316600090815260136020526040812080546001929061393e908490614a10565b90915550506001600160a01b038216600090815260136020526040812080546001929061396c9084906149c5565b909155505060008181526012602052604080822080546001600160a01b0319166001600160a01b0386811691821790925591518493918716917fddf252ad1be2c89b69c2b068fc378daa952ba7f163c4a11628f55a4df523b3ef91a4505050565b6139d7828261197f565b611b3f576139ef816001600160a01b03166014613dcf565b6139fa836020613dcf565b604051602001613a0b9291906147b2565b60408051601f198184030181529082905262461bcd60e51b8252610b35916004016148c2565b613a3b828261197f565b15611b3f5760008281526001602090815260408083206001600160a01b0385168085529252808320805460ff1916905551339285917ff6391f5c32d9c69d2a47ea670b442974b53935d1edc7fd64eb21e047a839171b9190a45050565b60008181526001830160205260408120548015613b7b576000613abc600183614a10565b8554909150600090613ad090600190614a10565b90506000866000018281548110613ae957613ae9614b16565b9060005260206000200154905080876000018481548110613b0c57613b0c614b16565b600091825260208083209091019290925582815260018901909152604090208490558654879080613b3f57613b3f614b00565b60019003818190600052602060002001600090559055866001016000878152602001908152602001600020600090556001945050505050610a28565b6000915050610a28565b6000818152601f6020908152604090912080546001600160a01b0319166001600160a01b0386161781558351613bc392600190920191850190614369565b506001600160a01b03909216600090815260208080526040822080546001810182559083529120019190915550565b611b3f828260405180602001604052806000815250613f6b565b81546000908210613c6a5760405162461bcd60e51b815260206004820152602260248201527f456e756d657261626c655365743a20696e646578206f7574206f6620626f756e604482015261647360f01b6064820152608401610b35565b826000018281548110613c7f57613c7f614b16565b9060005260206000200154905092915050565b60006001600160a01b0384163b15613d9457604051630a85bd0160e11b81526001600160a01b0385169063150b7a0290613cd6903390899088908890600401614827565b602060405180830381600087803b158015613cf057600080fd5b505af1925050508015613d20575060408051601f3d908101601f19168201909252613d1d91810190614721565b60015b613d7a573d808015613d4e576040519150601f19603f3d011682016040523d82523d6000602084013e613d53565b606091505b508051613d725760405162461bcd60e51b8152600401610b35906148d5565b805181602001fd5b6001600160e01b031916630a85bd0160e11b149050611de7565b506001949350505050565b610c6b838383613f9e565b60006001600160e01b03198216635a05180f60e01b1480610a285750610a2882614056565b60606000613dde8360026149f1565b613de99060026149c5565b67ffffffffffffffff811115613e0157613e01614b2c565b6040519080825280601f01601f191660200182016040528015613e2b576020820181803683370190505b509050600360fc1b81600081518110613e4657613e46614b16565b60200101906001600160f81b031916908160001a905350600f60fb1b81600181518110613e7557613e75614b16565b60200101906001600160f81b031916908160001a9053506000613e998460026149f1565b613ea49060016149c5565b90505b6001811115613f1c576f181899199a1a9b1b9c1cb0b131b232b360811b85600f1660108110613ed857613ed8614b16565b1a60f81b828281518110613eee57613eee614b16565b60200101906001600160f81b031916908160001a90535060049490941c93613f1581614a53565b9050613ea7565b5083156119785760405162461bcd60e51b815260206004820181905260248201527f537472696e67733a20686578206c656e67746820696e73756666696369656e746044820152606401610b35565b613f75838361408b565b613f826000848484613c92565b610c6b5760405162461bcd60e51b8152600401610b35906148d5565b6001600160a01b038316613ff957613ff481601980546000838152601a60205260408120829055600182018355919091527f944998273e477b495144fb8794c914197f3ccb46be2900f4698fd0ef743c96950155565b61401c565b816001600160a01b0316836001600160a01b03161461401c5761401c83826141d9565b6001600160a01b03821661403357610c6b81614276565b826001600160a01b0316826001600160a01b031614610c6b57610c6b8282614325565b60006001600160e01b03198216637965db0b60e01b1480610a2857506301ffc9a760e01b6001600160e01b0319831614610a28565b6001600160a01b0382166140e15760405162461bcd60e51b815260206004820181905260248201527f4552433732313a206d696e7420746f20746865207a65726f20616464726573736044820152606401610b35565b6000818152601260205260409020546001600160a01b0316156141465760405162461bcd60e51b815260206004820152601c60248201527f4552433732313a20746f6b656e20616c7265616479206d696e746564000000006044820152606401610b35565b61415260008383613d9f565b6001600160a01b038216600090815260136020526040812080546001929061417b9084906149c5565b909155505060008181526012602052604080822080546001600160a01b0319166001600160a01b03861690811790915590518392907fddf252ad1be2c89b69c2b068fc378daa952ba7f163c4a11628f55a4df523b3ef908290a45050565b600060016141e684611376565b6141f09190614a10565b600083815260186020526040902054909150808214614243576001600160a01b03841660009081526017602090815260408083208584528252808320548484528184208190558352601890915290208190555b5060009182526018602090815260408084208490556001600160a01b039094168352601781528383209183525290812055565b60195460009061428890600190614a10565b6000838152601a6020526040812054601980549394509092849081106142b0576142b0614b16565b9060005260206000200154905080601983815481106142d1576142d1614b16565b6000918252602080832090910192909255828152601a9091526040808220849055858252812055601980548061430957614309614b00565b6001900381819060005260206000200160009055905550505050565b600061433083611376565b6001600160a01b039093166000908152601760209081526040808320868452825280832085905593825260189052919091209190915550565b82805461437590614a6a565b90600052602060002090601f01602090048101928261439757600085556143dd565b82601f106143b057805160ff19168380011785556143dd565b828001600101855582156143dd579182015b828111156143dd5782518255916020019190600101906143c2565b506143e99291506143ed565b5090565b5b808211156143e957600081556001016143ee565b600067ffffffffffffffff8084111561441d5761441d614b2c565b604051601f8501601f19908116603f0116810190828211818310171561444557614445614b2c565b8160405280935085815286868601111561445e57600080fd5b858560208301376000602087830101525050509392505050565b60006020828403121561448a57600080fd5b813561197881614b42565b6000602082840312156144a757600080fd5b815161197881614b42565b600080604083850312156144c557600080fd5b82356144d081614b42565b915060208301356144e081614b42565b809150509250929050565b60008060006060848603121561450057600080fd5b833561450b81614b42565b9250602084013561451b81614b42565b929592945050506040919091013590565b6000806000806080858703121561454257600080fd5b843561454d81614b42565b9350602085013561455d81614b42565b925060408501359150606085013567ffffffffffffffff81111561458057600080fd5b8501601f8101871361459157600080fd5b6145a087823560208401614402565b91505092959194509250565b600080604083850312156145bf57600080fd5b82356145ca81614b42565b915060208301356144e081614b57565b600080604083850312156145ed57600080fd5b82356145f881614b42565b9150602083013567ffffffffffffffff81111561461457600080fd5b8301601f8101851361462557600080fd5b61463485823560208401614402565b9150509250929050565b6000806040838503121561465157600080fd5b823561465c81614b42565b946020939093013593505050565b60006020828403121561467c57600080fd5b813561197881614b57565b60006020828403121561469957600080fd5b815161197881614b57565b6000602082840312156146b657600080fd5b5035919050565b600080604083850312156146d057600080fd5b8235915060208301356144e081614b42565b600080604083850312156146f557600080fd5b50508035926020909101359150565b60006020828403121561471657600080fd5b813561197881614b65565b60006020828403121561473357600080fd5b815161197881614b65565b60006020828403121561475057600080fd5b5051919050565b6000815180845261476f816020860160208601614a27565b601f01601f19169290920160200192915050565b60008351614795818460208801614a27565b8351908301906147a9818360208801614a27565b01949350505050565b7f416363657373436f6e74726f6c3a206163636f756e74200000000000000000008152600083516147ea816017850160208801614a27565b7001034b99036b4b9b9b4b733903937b6329607d1b601791840191820152835161481b816028840160208801614a27565b01602801949350505050565b6001600160a01b03858116825284166020820152604081018390526080606082018190526000906117d490830184614757565b6001600160a01b0383168152604060208201819052600090611de790830184614757565b6020808252825182820181905260009190848201906040850190845b818110156148b65783518352928401929184019160010161489a565b50909695505050505050565b6020815260006119786020830184614757565b60208082526032908201527f4552433732313a207472616e7366657220746f206e6f6e20455243373231526560408201527131b2b4bb32b91034b6b83632b6b2b73a32b960711b606082015260800190565b6020808252602d908201527f596f7520646f206e6f742068617665207065726d697373696f6e20746f206d6f60408201526c7665207468697320626164676560981b606082015260800190565b60208082526031908201527f4552433732313a207472616e736665722063616c6c6572206973206e6f74206f6040820152701ddb995c881b9bdc88185c1c1c9bdd9959607a1b606082015260800190565b600082198211156149d8576149d8614ad4565b500190565b6000826149ec576149ec614aea565b500490565b6000816000190483118215151615614a0b57614a0b614ad4565b500290565b600082821015614a2257614a22614ad4565b500390565b60005b83811015614a42578181015183820152602001614a2a565b83811115611b755750506000910152565b600081614a6257614a62614ad4565b506000190190565b600181811c90821680614a7e57607f821691505b60208210811415614a9f57634e487b7160e01b600052602260045260246000fd5b50919050565b6000600019821415614ab957614ab9614ad4565b5060010190565b600082614acf57614acf614aea565b500690565b634e487b7160e01b600052601160045260246000fd5b634e487b7160e01b600052601260045260246000fd5b634e487b7160e01b600052603160045260246000fd5b634e487b7160e01b600052603260045260246000fd5b634e487b7160e01b600052604160045260246000fd5b6001600160a01b0381168114610cd257600080fd5b8015158114610cd257600080fd5b6001600160e01b031981168114610cd257600080fdfefa8e4989e1d689f7bc5c4b25b87efb51fecdecb19ba62847e29c759e12a89acd048bc71fa1cb2c119c339cf9cf00a97996a19a9d991ce5fe049f2fa5459e7990f0f4b159a6e2a4815eb3ca3df080bfa70c9270662c59bcaa4479a456220183e60538d24a8b7882d7b2e36af243d4af61c23e86e3daa6cb8c887b53220b2f57207c9d7f6f02908185bffb3f7fc9afb29fd7bf93675af8fd4b655ee05c2cee1e0ea264697066735822122025c682dda1c9e2c8c578d96e9f5c2464b05ceec7598797571d1380c4929fbb8264736f6c63430008060033",
  "immutableReferences": {},
  "source": "pragma solidity ^0.8.0;\n\nimport \"../src/ERC721/TippingBadge.sol\";\n\n\ncontract GoldStars is TippingBadge {\n\n\n     constructor(address _AddressManagerAddress)\n        TippingBadge(\"GoldStars\", \"Gold\", _AddressManagerAddress)\n    {\n    }      \n\n  \n}",
  "sourcePath": "/home/n/Desktop/PinkSlips_FrontEnd_REFORMAT (copy)/contracts/badges/GoldStars.sol",
  "compiler": {
    "name": "solc",
    "version": "0.8.6+commit.11564f7e.Emscripten.clang"
  },
  "schemaVersion": "3.4.1",
  "updatedAt": "2021-08-08T03:03:57.609Z",
  "networkType": "ethereum",
  "devdoc": {
    "kind": "dev",
    "methods": {
      "approve(address,uint256)": {
        "details": "See {IERC721-approve}."
      },
      "balanceOf(address)": {
        "details": "See {IERC721-balanceOf}."
      },
      "getApproved(uint256)": {
        "details": "See {IERC721-getApproved}."
      },
      "getRoleAdmin(bytes32)": {
        "details": "Returns the admin role that controls `role`. See {grantRole} and {revokeRole}. To change a role's admin, use {_setRoleAdmin}."
      },
      "getRoleMember(bytes32,uint256)": {
        "details": "Returns one of the accounts that have `role`. `index` must be a value between 0 and {getRoleMemberCount}, non-inclusive. Role bearers are not sorted in any particular way, and their ordering may change at any point. WARNING: When using {getRoleMember} and {getRoleMemberCount}, make sure you perform all queries on the same block. See the following https://forum.openzeppelin.com/t/iterating-over-elements-on-enumerableset-in-openzeppelin-contracts/2296[forum post] for more information."
      },
      "getRoleMemberCount(bytes32)": {
        "details": "Returns the number of accounts that have `role`. Can be used together with {getRoleMember} to enumerate all bearers of a role."
      },
      "grantRole(bytes32,address)": {
        "details": "Overload {grantRole} to track enumerable memberships"
      },
      "hasRole(bytes32,address)": {
        "details": "Returns `true` if `account` has been granted `role`."
      },
      "isApprovedForAll(address,address)": {
        "details": "See {IERC721-isApprovedForAll}."
      },
      "issueBadge(address,string)": {
        "details": "//// Issuance Desk                                                                            ////"
      },
      "name()": {
        "details": "See {IERC721Metadata-name}."
      },
      "ownerOf(uint256)": {
        "details": "See {IERC721-ownerOf}."
      },
      "pause()": {
        "details": "//// Maintanence\\\\\\\\\\\\\\\\\\\\\\\\\\\\\\\\\\\\\\\\\\\\\\\\\\\\\\                                                   ////"
      },
      "paused()": {
        "details": "Returns true if the contract is paused, and false otherwise."
      },
      "renounceRole(bytes32,address)": {
        "details": "Overload {renounceRole} to track enumerable memberships"
      },
      "revokeRole(bytes32,address)": {
        "details": "Overload {revokeRole} to track enumerable memberships"
      },
      "safeTransferFrom(address,address,uint256)": {
        "details": "See {IERC721-safeTransferFrom}."
      },
      "safeTransferFrom(address,address,uint256,bytes)": {
        "details": "See {IERC721-safeTransferFrom}."
      },
      "setApprovalForAll(address,bool)": {
        "details": "See {IERC721-setApprovalForAll}."
      },
      "setMintingCost(uint256)": {
        "details": "//// Set Minting Costs                                                                        ////"
      },
      "symbol()": {
        "details": "See {IERC721Metadata-symbol}."
      },
      "tokenByIndex(uint256)": {
        "details": "See {IERC721Enumerable-tokenByIndex}."
      },
      "tokenOfOwnerByIndex(address,uint256)": {
        "details": "See {IERC721Enumerable-tokenOfOwnerByIndex}."
      },
      "tokenURI(uint256)": {
        "details": "See {IERC721Metadata-tokenURI}."
      },
      "totalSupply()": {
        "details": "See {IERC721Enumerable-totalSupply}."
      },
      "transferFrom(address,address,uint256)": {
        "details": "See {IERC721-transferFrom}."
      }
    },
    "version": 1
  },
  "userdoc": {
    "kind": "user",
    "methods": {},
    "version": 1
  }
}