{
  "contractName": "IdentityBadge",
  "abi": [
    {
      "inputs": [
        {
          "internalType": "string",
          "name": "_badgeName",
          "type": "string"
        },
        {
          "internalType": "string",
          "name": "_badgeSymbol",
          "type": "string"
        },
        {
          "internalType": "address",
          "name": "_AddressManagerAddress",
          "type": "address"
        }
      ],
      "stateMutability": "nonpayable",
      "type": "constructor"
    },
    {
      "anonymous": false,
      "inputs": [
        {
          "indexed": true,
          "internalType": "address",
          "name": "owner",
          "type": "address"
        },
        {
          "indexed": true,
          "internalType": "address",
          "name": "approved",
          "type": "address"
        },
        {
          "indexed": true,
          "internalType": "uint256",
          "name": "tokenId",
          "type": "uint256"
        }
      ],
      "name": "Approval",
      "type": "event"
    },
    {
      "anonymous": false,
      "inputs": [
        {
          "indexed": true,
          "internalType": "address",
          "name": "owner",
          "type": "address"
        },
        {
          "indexed": true,
          "internalType": "address",
          "name": "operator",
          "type": "address"
        },
        {
          "indexed": false,
          "internalType": "bool",
          "name": "approved",
          "type": "bool"
        }
      ],
      "name": "ApprovalForAll",
      "type": "event"
    },
    {
      "anonymous": false,
      "inputs": [
        {
          "indexed": false,
          "internalType": "address",
          "name": "account",
          "type": "address"
        }
      ],
      "name": "Paused",
      "type": "event"
    },
    {
      "anonymous": false,
      "inputs": [
        {
          "indexed": true,
          "internalType": "bytes32",
          "name": "role",
          "type": "bytes32"
        },
        {
          "indexed": true,
          "internalType": "bytes32",
          "name": "previousAdminRole",
          "type": "bytes32"
        },
        {
          "indexed": true,
          "internalType": "bytes32",
          "name": "newAdminRole",
          "type": "bytes32"
        }
      ],
      "name": "RoleAdminChanged",
      "type": "event"
    },
    {
      "anonymous": false,
      "inputs": [
        {
          "indexed": true,
          "internalType": "bytes32",
          "name": "role",
          "type": "bytes32"
        },
        {
          "indexed": true,
          "internalType": "address",
          "name": "account",
          "type": "address"
        },
        {
          "indexed": true,
          "internalType": "address",
          "name": "sender",
          "type": "address"
        }
      ],
      "name": "RoleGranted",
      "type": "event"
    },
    {
      "anonymous": false,
      "inputs": [
        {
          "indexed": true,
          "internalType": "bytes32",
          "name": "role",
          "type": "bytes32"
        },
        {
          "indexed": true,
          "internalType": "address",
          "name": "account",
          "type": "address"
        },
        {
          "indexed": true,
          "internalType": "address",
          "name": "sender",
          "type": "address"
        }
      ],
      "name": "RoleRevoked",
      "type": "event"
    },
    {
      "anonymous": false,
      "inputs": [
        {
          "indexed": true,
          "internalType": "address",
          "name": "from",
          "type": "address"
        },
        {
          "indexed": true,
          "internalType": "address",
          "name": "to",
          "type": "address"
        },
        {
          "indexed": true,
          "internalType": "uint256",
          "name": "tokenId",
          "type": "uint256"
        }
      ],
      "name": "Transfer",
      "type": "event"
    },
    {
      "anonymous": false,
      "inputs": [
        {
          "indexed": false,
          "internalType": "address",
          "name": "account",
          "type": "address"
        }
      ],
      "name": "Unpaused",
      "type": "event"
    },
    {
      "inputs": [],
      "name": "AddressManagerAddress",
      "outputs": [
        {
          "internalType": "address",
          "name": "",
          "type": "address"
        }
      ],
      "stateMutability": "view",
      "type": "function"
    },
    {
      "inputs": [],
      "name": "ChadBadgeAddress",
      "outputs": [
        {
          "internalType": "address",
          "name": "",
          "type": "address"
        }
      ],
      "stateMutability": "view",
      "type": "function"
    },
    {
      "inputs": [],
      "name": "DEFAULT_ADMIN_ROLE",
      "outputs": [
        {
          "internalType": "bytes32",
          "name": "",
          "type": "bytes32"
        }
      ],
      "stateMutability": "view",
      "type": "function"
    },
    {
      "inputs": [],
      "name": "GAVELS_BAILIFF",
      "outputs": [
        {
          "internalType": "bytes32",
          "name": "",
          "type": "bytes32"
        }
      ],
      "stateMutability": "view",
      "type": "function"
    },
    {
      "inputs": [],
      "name": "GavelDAOAgent",
      "outputs": [
        {
          "internalType": "address",
          "name": "",
          "type": "address"
        }
      ],
      "stateMutability": "view",
      "type": "function"
    },
    {
      "inputs": [],
      "name": "GavelTokenAddress",
      "outputs": [
        {
          "internalType": "address",
          "name": "",
          "type": "address"
        }
      ],
      "stateMutability": "view",
      "type": "function"
    },
    {
      "inputs": [],
      "name": "GavelVote",
      "outputs": [
        {
          "internalType": "bool",
          "name": "",
          "type": "bool"
        }
      ],
      "stateMutability": "view",
      "type": "function"
    },
    {
      "inputs": [],
      "name": "GoldStarAddress",
      "outputs": [
        {
          "internalType": "address",
          "name": "",
          "type": "address"
        }
      ],
      "stateMutability": "view",
      "type": "function"
    },
    {
      "inputs": [
        {
          "internalType": "uint256",
          "name": "",
          "type": "uint256"
        }
      ],
      "name": "IDCardInfo",
      "outputs": [
        {
          "internalType": "string",
          "name": "pseudonym",
          "type": "string"
        },
        {
          "internalType": "string",
          "name": "twitterHandle",
          "type": "string"
        },
        {
          "internalType": "address",
          "name": "avatarTokenAddress",
          "type": "address"
        },
        {
          "internalType": "uint256",
          "name": "avatarTokenId",
          "type": "uint256"
        }
      ],
      "stateMutability": "view",
      "type": "function"
    },
    {
      "inputs": [],
      "name": "JERK_ROLE",
      "outputs": [
        {
          "internalType": "bytes32",
          "name": "",
          "type": "bytes32"
        }
      ],
      "stateMutability": "view",
      "type": "function"
    },
    {
      "inputs": [],
      "name": "JURY_BAILIFF",
      "outputs": [
        {
          "internalType": "bytes32",
          "name": "",
          "type": "bytes32"
        }
      ],
      "stateMutability": "view",
      "type": "function"
    },
    {
      "inputs": [],
      "name": "JuryDAOAgent",
      "outputs": [
        {
          "internalType": "address",
          "name": "",
          "type": "address"
        }
      ],
      "stateMutability": "view",
      "type": "function"
    },
    {
      "inputs": [],
      "name": "JuryPoolAddress",
      "outputs": [
        {
          "internalType": "address",
          "name": "",
          "type": "address"
        }
      ],
      "stateMutability": "view",
      "type": "function"
    },
    {
      "inputs": [],
      "name": "JuryVote",
      "outputs": [
        {
          "internalType": "bool",
          "name": "",
          "type": "bool"
        }
      ],
      "stateMutability": "view",
      "type": "function"
    },
    {
      "inputs": [],
      "name": "MINI_BAILIFF_ROLE",
      "outputs": [
        {
          "internalType": "bytes32",
          "name": "",
          "type": "bytes32"
        }
      ],
      "stateMutability": "view",
      "type": "function"
    },
    {
      "inputs": [],
      "name": "MiniBailiff",
      "outputs": [
        {
          "internalType": "address",
          "name": "",
          "type": "address"
        }
      ],
      "stateMutability": "view",
      "type": "function"
    },
    {
      "inputs": [],
      "name": "PinkSlipAddress",
      "outputs": [
        {
          "internalType": "address",
          "name": "",
          "type": "address"
        }
      ],
      "stateMutability": "view",
      "type": "function"
    },
    {
      "inputs": [],
      "name": "RedPenTokenAddress",
      "outputs": [
        {
          "internalType": "address",
          "name": "",
          "type": "address"
        }
      ],
      "stateMutability": "view",
      "type": "function"
    },
    {
      "inputs": [],
      "name": "THE_COURT_ROLE",
      "outputs": [
        {
          "internalType": "bytes32",
          "name": "",
          "type": "bytes32"
        }
      ],
      "stateMutability": "view",
      "type": "function"
    },
    {
      "inputs": [],
      "name": "TheCourtAddress",
      "outputs": [
        {
          "internalType": "address",
          "name": "",
          "type": "address"
        }
      ],
      "stateMutability": "view",
      "type": "function"
    },
    {
      "inputs": [],
      "name": "TreasuryAddress",
      "outputs": [
        {
          "internalType": "address",
          "name": "",
          "type": "address"
        }
      ],
      "stateMutability": "view",
      "type": "function"
    },
    {
      "inputs": [
        {
          "internalType": "string",
          "name": "",
          "type": "string"
        }
      ],
      "name": "TwitterHandle",
      "outputs": [
        {
          "internalType": "uint256",
          "name": "",
          "type": "uint256"
        }
      ],
      "stateMutability": "view",
      "type": "function"
    },
    {
      "inputs": [],
      "name": "addressManager",
      "outputs": [
        {
          "internalType": "contract AddressManager",
          "name": "",
          "type": "address"
        }
      ],
      "stateMutability": "view",
      "type": "function"
    },
    {
      "inputs": [
        {
          "internalType": "address",
          "name": "to",
          "type": "address"
        },
        {
          "internalType": "uint256",
          "name": "tokenId",
          "type": "uint256"
        }
      ],
      "name": "approve",
      "outputs": [],
      "stateMutability": "nonpayable",
      "type": "function"
    },
    {
      "inputs": [],
      "name": "badgeColor",
      "outputs": [
        {
          "internalType": "string",
          "name": "",
          "type": "string"
        }
      ],
      "stateMutability": "view",
      "type": "function"
    },
    {
      "inputs": [],
      "name": "badgeName",
      "outputs": [
        {
          "internalType": "string",
          "name": "",
          "type": "string"
        }
      ],
      "stateMutability": "view",
      "type": "function"
    },
    {
      "inputs": [
        {
          "internalType": "address",
          "name": "owner",
          "type": "address"
        }
      ],
      "name": "balanceOf",
      "outputs": [
        {
          "internalType": "uint256",
          "name": "",
          "type": "uint256"
        }
      ],
      "stateMutability": "view",
      "type": "function"
    },
    {
      "inputs": [
        {
          "internalType": "uint256",
          "name": "tokenId",
          "type": "uint256"
        }
      ],
      "name": "getApproved",
      "outputs": [
        {
          "internalType": "address",
          "name": "",
          "type": "address"
        }
      ],
      "stateMutability": "view",
      "type": "function"
    },
    {
      "inputs": [
        {
          "internalType": "bytes32",
          "name": "role",
          "type": "bytes32"
        }
      ],
      "name": "getRoleAdmin",
      "outputs": [
        {
          "internalType": "bytes32",
          "name": "",
          "type": "bytes32"
        }
      ],
      "stateMutability": "view",
      "type": "function"
    },
    {
      "inputs": [
        {
          "internalType": "bytes32",
          "name": "role",
          "type": "bytes32"
        },
        {
          "internalType": "uint256",
          "name": "index",
          "type": "uint256"
        }
      ],
      "name": "getRoleMember",
      "outputs": [
        {
          "internalType": "address",
          "name": "",
          "type": "address"
        }
      ],
      "stateMutability": "view",
      "type": "function"
    },
    {
      "inputs": [
        {
          "internalType": "bytes32",
          "name": "role",
          "type": "bytes32"
        }
      ],
      "name": "getRoleMemberCount",
      "outputs": [
        {
          "internalType": "uint256",
          "name": "",
          "type": "uint256"
        }
      ],
      "stateMutability": "view",
      "type": "function"
    },
    {
      "inputs": [
        {
          "internalType": "bytes32",
          "name": "role",
          "type": "bytes32"
        },
        {
          "internalType": "address",
          "name": "account",
          "type": "address"
        }
      ],
      "name": "grantRole",
      "outputs": [],
      "stateMutability": "nonpayable",
      "type": "function"
    },
    {
      "inputs": [
        {
          "internalType": "bytes32",
          "name": "role",
          "type": "bytes32"
        },
        {
          "internalType": "address",
          "name": "account",
          "type": "address"
        }
      ],
      "name": "hasRole",
      "outputs": [
        {
          "internalType": "bool",
          "name": "",
          "type": "bool"
        }
      ],
      "stateMutability": "view",
      "type": "function"
    },
    {
      "inputs": [],
      "name": "isForeverLocked",
      "outputs": [
        {
          "internalType": "bool",
          "name": "",
          "type": "bool"
        }
      ],
      "stateMutability": "view",
      "type": "function"
    },
    {
      "inputs": [],
      "name": "jerkSanctions",
      "outputs": [
        {
          "internalType": "bool",
          "name": "",
          "type": "bool"
        }
      ],
      "stateMutability": "view",
      "type": "function"
    },
    {
      "inputs": [],
      "name": "name",
      "outputs": [
        {
          "internalType": "string",
          "name": "",
          "type": "string"
        }
      ],
      "stateMutability": "view",
      "type": "function"
    },
    {
      "inputs": [
        {
          "internalType": "uint256",
          "name": "tokenId",
          "type": "uint256"
        }
      ],
      "name": "ownerOf",
      "outputs": [
        {
          "internalType": "address",
          "name": "",
          "type": "address"
        }
      ],
      "stateMutability": "view",
      "type": "function"
    },
    {
      "inputs": [],
      "name": "paused",
      "outputs": [
        {
          "internalType": "bool",
          "name": "",
          "type": "bool"
        }
      ],
      "stateMutability": "view",
      "type": "function"
    },
    {
      "inputs": [
        {
          "internalType": "bytes32",
          "name": "role",
          "type": "bytes32"
        },
        {
          "internalType": "address",
          "name": "account",
          "type": "address"
        }
      ],
      "name": "renounceRole",
      "outputs": [],
      "stateMutability": "nonpayable",
      "type": "function"
    },
    {
      "inputs": [],
      "name": "resetVote",
      "outputs": [],
      "stateMutability": "nonpayable",
      "type": "function"
    },
    {
      "inputs": [
        {
          "internalType": "bytes32",
          "name": "role",
          "type": "bytes32"
        },
        {
          "internalType": "address",
          "name": "account",
          "type": "address"
        }
      ],
      "name": "revokeRole",
      "outputs": [],
      "stateMutability": "nonpayable",
      "type": "function"
    },
    {
      "inputs": [],
      "name": "symbol",
      "outputs": [
        {
          "internalType": "string",
          "name": "",
          "type": "string"
        }
      ],
      "stateMutability": "view",
      "type": "function"
    },
    {
      "inputs": [],
      "name": "syncAllRoles",
      "outputs": [],
      "stateMutability": "nonpayable",
      "type": "function"
    },
    {
      "inputs": [
        {
          "internalType": "bytes32",
          "name": "ROLE_TO_SYNC",
          "type": "bytes32"
        }
      ],
      "name": "syncSingleRole",
      "outputs": [],
      "stateMutability": "nonpayable",
      "type": "function"
    },
    {
      "inputs": [],
      "name": "syncVotes",
      "outputs": [],
      "stateMutability": "nonpayable",
      "type": "function"
    },
    {
      "inputs": [
        {
          "internalType": "uint256",
          "name": "index",
          "type": "uint256"
        }
      ],
      "name": "tokenByIndex",
      "outputs": [
        {
          "internalType": "uint256",
          "name": "",
          "type": "uint256"
        }
      ],
      "stateMutability": "view",
      "type": "function"
    },
    {
      "inputs": [
        {
          "internalType": "address",
          "name": "owner",
          "type": "address"
        },
        {
          "internalType": "uint256",
          "name": "index",
          "type": "uint256"
        }
      ],
      "name": "tokenOfOwnerByIndex",
      "outputs": [
        {
          "internalType": "uint256",
          "name": "",
          "type": "uint256"
        }
      ],
      "stateMutability": "view",
      "type": "function"
    },
    {
      "inputs": [
        {
          "internalType": "uint256",
          "name": "tokenId",
          "type": "uint256"
        }
      ],
      "name": "tokenURI",
      "outputs": [
        {
          "internalType": "string",
          "name": "",
          "type": "string"
        }
      ],
      "stateMutability": "view",
      "type": "function"
    },
    {
      "inputs": [],
      "name": "totalSupply",
      "outputs": [
        {
          "internalType": "uint256",
          "name": "",
          "type": "uint256"
        }
      ],
      "stateMutability": "view",
      "type": "function"
    },
    {
      "inputs": [],
      "name": "updateAddressManager",
      "outputs": [],
      "stateMutability": "nonpayable",
      "type": "function"
    },
    {
      "inputs": [],
      "name": "updateAllAddresses",
      "outputs": [],
      "stateMutability": "nonpayable",
      "type": "function"
    },
    {
      "inputs": [],
      "name": "updateAllRoles",
      "outputs": [],
      "stateMutability": "nonpayable",
      "type": "function"
    },
    {
      "inputs": [],
      "name": "updateDAOAddresses",
      "outputs": [],
      "stateMutability": "nonpayable",
      "type": "function"
    },
    {
      "inputs": [
        {
          "internalType": "bytes32",
          "name": "ROLE_TO_UPDATE",
          "type": "bytes32"
        }
      ],
      "name": "updateSingleRole",
      "outputs": [],
      "stateMutability": "nonpayable",
      "type": "function"
    },
    {
      "inputs": [],
      "name": "updateTokenAddresses",
      "outputs": [],
      "stateMutability": "nonpayable",
      "type": "function"
    },
    {
      "inputs": [
        {
          "internalType": "uint256",
          "name": "_tokenId",
          "type": "uint256"
        },
        {
          "internalType": "address",
          "name": "_avatarTokenAddress",
          "type": "address"
        },
        {
          "internalType": "uint256",
          "name": "_avatarTokenId",
          "type": "uint256"
        }
      ],
      "name": "updateAvatar",
      "outputs": [],
      "stateMutability": "nonpayable",
      "type": "function"
    },
    {
      "inputs": [
        {
          "internalType": "string",
          "name": "_TwitterHandle",
          "type": "string"
        }
      ],
      "name": "getIDFromHandle",
      "outputs": [
        {
          "internalType": "uint256",
          "name": "_tokenId",
          "type": "uint256"
        }
      ],
      "stateMutability": "view",
      "type": "function"
    },
    {
      "inputs": [
        {
          "internalType": "uint256",
          "name": "_tokenId",
          "type": "uint256"
        }
      ],
      "name": "getBadgeInfo",
      "outputs": [
        {
          "internalType": "string",
          "name": "_pseudonym",
          "type": "string"
        },
        {
          "internalType": "string",
          "name": "_twitterHandle",
          "type": "string"
        },
        {
          "internalType": "address",
          "name": "_avatarTokenAddress",
          "type": "address"
        },
        {
          "internalType": "uint256",
          "name": "_avatarTokenId",
          "type": "uint256"
        }
      ],
      "stateMutability": "view",
      "type": "function"
    },
    {
      "inputs": [
        {
          "internalType": "address",
          "name": "receivingAddress",
          "type": "address"
        },
        {
          "internalType": "string",
          "name": "_pseudonym",
          "type": "string"
        },
        {
          "internalType": "string",
          "name": "_twitterHandle",
          "type": "string"
        },
        {
          "internalType": "address",
          "name": "_avatarTokenAddress",
          "type": "address"
        },
        {
          "internalType": "uint256",
          "name": "_avatarTokenId",
          "type": "uint256"
        },
        {
          "internalType": "uint256",
          "name": "_tokenId",
          "type": "uint256"
        }
      ],
      "name": "issueBadge",
      "outputs": [
        {
          "internalType": "uint256",
          "name": "newId",
          "type": "uint256"
        }
      ],
      "stateMutability": "nonpayable",
      "type": "function"
    },
    {
      "inputs": [
        {
          "internalType": "uint256",
          "name": "tokenId",
          "type": "uint256"
        }
      ],
      "name": "revokeBadge",
      "outputs": [],
      "stateMutability": "nonpayable",
      "type": "function"
    },
    {
      "inputs": [],
      "name": "pause",
      "outputs": [],
      "stateMutability": "nonpayable",
      "type": "function"
    },
    {
      "inputs": [],
      "name": "unpause",
      "outputs": [],
      "stateMutability": "nonpayable",
      "type": "function"
    },
    {
      "inputs": [
        {
          "internalType": "bool",
          "name": "thisIsNotReversible",
          "type": "bool"
        }
      ],
      "name": "refreshBadges",
      "outputs": [
        {
          "internalType": "bool",
          "name": "",
          "type": "bool"
        }
      ],
      "stateMutability": "nonpayable",
      "type": "function"
    },
    {
      "inputs": [
        {
          "internalType": "uint256",
          "name": "valueMustBe69",
          "type": "uint256"
        }
      ],
      "name": "destroyAndLockContract",
      "outputs": [
        {
          "internalType": "bool",
          "name": "",
          "type": "bool"
        }
      ],
      "stateMutability": "nonpayable",
      "type": "function"
    },
    {
      "inputs": [
        {
          "internalType": "address",
          "name": "owner",
          "type": "address"
        },
        {
          "internalType": "address",
          "name": "operator",
          "type": "address"
        }
      ],
      "name": "isApprovedForAll",
      "outputs": [
        {
          "internalType": "bool",
          "name": "",
          "type": "bool"
        }
      ],
      "stateMutability": "view",
      "type": "function"
    },
    {
      "inputs": [
        {
          "internalType": "address",
          "name": "operator",
          "type": "address"
        },
        {
          "internalType": "bool",
          "name": "approved",
          "type": "bool"
        }
      ],
      "name": "setApprovalForAll",
      "outputs": [],
      "stateMutability": "nonpayable",
      "type": "function"
    },
    {
      "inputs": [
        {
          "internalType": "bytes4",
          "name": "interfaceId",
          "type": "bytes4"
        }
      ],
      "name": "supportsInterface",
      "outputs": [
        {
          "internalType": "bool",
          "name": "",
          "type": "bool"
        }
      ],
      "stateMutability": "view",
      "type": "function"
    },
    {
      "inputs": [
        {
          "internalType": "address",
          "name": "from",
          "type": "address"
        },
        {
          "internalType": "address",
          "name": "to",
          "type": "address"
        },
        {
          "internalType": "uint256",
          "name": "tokenId",
          "type": "uint256"
        }
      ],
      "name": "transferFrom",
      "outputs": [],
      "stateMutability": "nonpayable",
      "type": "function"
    },
    {
      "inputs": [
        {
          "internalType": "address",
          "name": "from",
          "type": "address"
        },
        {
          "internalType": "address",
          "name": "to",
          "type": "address"
        },
        {
          "internalType": "uint256",
          "name": "tokenId",
          "type": "uint256"
        }
      ],
      "name": "safeTransferFrom",
      "outputs": [],
      "stateMutability": "nonpayable",
      "type": "function"
    },
    {
      "inputs": [
        {
          "internalType": "address",
          "name": "from",
          "type": "address"
        },
        {
          "internalType": "address",
          "name": "to",
          "type": "address"
        },
        {
          "internalType": "uint256",
          "name": "tokenId",
          "type": "uint256"
        },
        {
          "internalType": "bytes",
          "name": "_data",
          "type": "bytes"
        }
      ],
      "name": "safeTransferFrom",
      "outputs": [],
      "stateMutability": "nonpayable",
      "type": "function"
    }
  ],
  "bytecode": "0x60806040526000805460ff199081168255600f805463ffffffff60a01b19169055601b91909155601c805490911690553480156200003c57600080fd5b506040516200570c3803806200570c8339810160408190526200005f9162000caa565b600380546001600160a01b0383166001600160a01b03199182168117909255600f80549091169091179055828282620000976200023a565b620000a162000250565b600d54620000bb906000906001600160a01b03166200039b565b600d54620000f4907f0538d24a8b7882d7b2e36af243d4af61c23e86e3daa6cb8c887b53220b2f5720906001600160a01b03166200039b565b600a546200012d907f048bc71fa1cb2c119c339cf9cf00a97996a19a9d991ce5fe049f2fa5459e7990906001600160a01b03166200039b565b600b5462000166907ffa8e4989e1d689f7bc5c4b25b87efb51fecdecb19ba62847e29c759e12a89acd906001600160a01b03166200039b565b600e546200019f907ff0f4b159a6e2a4815eb3ca3df080bfa70c9270662c59bcaa4479a456220183e6906001600160a01b03166200039b565b620001cc7f7c9d7f6f02908185bffb3f7fc9afb29fd7bf93675af8fd4b655ee05c2cee1e0e60006200039b565b508151620001e290601090602085019062000ae7565b508051620001f890601190602084019062000ae7565b50506016805460ff191690555081516200021a90601d90602085019062000ae7565b5082516200023090601e90602086019062000ae7565b5050505062000d79565b62000244620003de565b6200024e62000649565b565b600f60009054906101000a90046001600160a01b03166001600160a01b031663ff7e88ec6040518163ffffffff1660e01b815260040160206040518083038186803b1580156200029f57600080fd5b505afa158015620002b4573d6000803e3d6000fd5b505050506040513d601f19601f82011682018060405250810190620002da919062000c7f565b600f60156101000a81548160ff021916908315150217905550600f60009054906101000a90046001600160a01b03166001600160a01b0316632fb565856040518163ffffffff1660e01b815260040160206040518083038186803b1580156200034257600080fd5b505afa15801562000357573d6000803e3d6000fd5b505050506040513d601f19601f820116820180604052508101906200037d919062000c7f565b600f8054911515600160b01b0260ff60b01b19909216919091179055565b620003b28282620009dd60201b62001b831760201c565b6000828152600260209081526040909120620003d991839062001b8d620009ed821b17901c565b505050565b600f60009054906101000a90046001600160a01b03166001600160a01b031663dadf56ac6040518163ffffffff1660e01b815260040160206040518083038186803b1580156200042d57600080fd5b505afa15801562000442573d6000803e3d6000fd5b505050506040513d601f19601f8201168201806040525081019062000468919062000c61565b600a80546001600160a01b0319166001600160a01b03928316179055600f546040805163024bebe960e01b81529051919092169163024bebe9916004808301926020929190829003018186803b158015620004c257600080fd5b505afa158015620004d7573d6000803e3d6000fd5b505050506040513d601f19601f82011682018060405250810190620004fd919062000c61565b600b80546001600160a01b0319166001600160a01b03928316179055600f5460408051635b5c251f60e01b815290519190921691635b5c251f916004808301926020929190829003018186803b1580156200055757600080fd5b505afa1580156200056c573d6000803e3d6000fd5b505050506040513d601f19601f8201168201806040525081019062000592919062000c61565b600c80546001600160a01b0319166001600160a01b03928316179055600f5460408051637310bf1d60e11b81529051919092169163e6217e3a916004808301926020929190829003018186803b158015620005ec57600080fd5b505afa15801562000601573d6000803e3d6000fd5b505050506040513d601f19601f8201168201806040525081019062000627919062000c61565b600e80546001600160a01b0319166001600160a01b0392909216919091179055565b600f60009054906101000a90046001600160a01b03166001600160a01b03166321d7f0086040518163ffffffff1660e01b815260040160206040518083038186803b1580156200069857600080fd5b505afa158015620006ad573d6000803e3d6000fd5b505050506040513d601f19601f82011682018060405250810190620006d3919062000c61565b600480546001600160a01b0319166001600160a01b03928316178155600f546040805163762ddb5960e01b81529051919093169263762ddb599281810192602092909190829003018186803b1580156200072c57600080fd5b505afa15801562000741573d6000803e3d6000fd5b505050506040513d601f19601f8201168201806040525081019062000767919062000c61565b600580546001600160a01b0319166001600160a01b03928316179055600f546040805163bfb7dc9960e01b81529051919092169163bfb7dc99916004808301926020929190829003018186803b158015620007c157600080fd5b505afa158015620007d6573d6000803e3d6000fd5b505050506040513d601f19601f82011682018060405250810190620007fc919062000c61565b600680546001600160a01b0319166001600160a01b03928316179055600f5460408051633e6111eb60e21b81529051919092169163f98447ac916004808301926020929190829003018186803b1580156200085657600080fd5b505afa1580156200086b573d6000803e3d6000fd5b505050506040513d601f19601f8201168201806040525081019062000891919062000c61565b600780546001600160a01b0319166001600160a01b03928316179055600f5460408051630fe1ba9f60e21b815290519190921691633f86ea7c916004808301926020929190829003018186803b158015620008eb57600080fd5b505afa15801562000900573d6000803e3d6000fd5b505050506040513d601f19601f8201168201806040525081019062000926919062000c61565b600880546001600160a01b0319166001600160a01b03928316179055600f5460408051636b58477560e01b815290519190921691636b584775916004808301926020929190829003018186803b1580156200098057600080fd5b505afa15801562000995573d6000803e3d6000fd5b505050506040513d601f19601f82011682018060405250810190620009bb919062000c61565b600980546001600160a01b0319166001600160a01b0392909216919091179055565b620009e9828262000a0d565b5050565b600062000a04836001600160a01b03841662000a95565b90505b92915050565b60008281526001602090815260408083206001600160a01b038516845290915290205460ff16620009e95760008281526001602081815260408084206001600160a01b0386168086529252808420805460ff19169093179092559051339285917f2f8788117e7eff1d82e926ec794901d17c78024a50270940304540a733656f0d9190a45050565b600081815260018301602052604081205462000ade5750815460018181018455600084815260208082209093018490558454848252828601909352604090209190915562000a07565b50600062000a07565b82805462000af59062000d26565b90600052602060002090601f01602090048101928262000b19576000855562000b64565b82601f1062000b3457805160ff191683800117855562000b64565b8280016001018555821562000b64579182015b8281111562000b6457825182559160200191906001019062000b47565b5062000b7292915062000b76565b5090565b5b8082111562000b72576000815560010162000b77565b80516001600160a01b038116811462000ba557600080fd5b919050565b600082601f83011262000bbc57600080fd5b81516001600160401b038082111562000bd95762000bd962000d63565b604051601f8301601f19908116603f0116810190828211818310171562000c045762000c0462000d63565b8160405283815260209250868385880101111562000c2157600080fd5b600091505b8382101562000c45578582018301518183018401529082019062000c26565b8382111562000c575760008385830101525b9695505050505050565b60006020828403121562000c7457600080fd5b62000a048262000b8d565b60006020828403121562000c9257600080fd5b8151801515811462000ca357600080fd5b9392505050565b60008060006060848603121562000cc057600080fd5b83516001600160401b038082111562000cd857600080fd5b62000ce68783880162000baa565b9450602086015191508082111562000cfd57600080fd5b5062000d0c8682870162000baa565b92505062000d1d6040850162000b8d565b90509250925092565b600181811c9082168062000d3b57607f821691505b6020821081141562000d5d57634e487b7160e01b600052602260045260246000fd5b50919050565b634e487b7160e01b600052604160045260246000fd5b6149838062000d896000396000f3fe608060405234801561001057600080fd5b50600436106104125760003560e01c80636352211e11610220578063bfb7dc9911610130578063e2045b5e116100b8578063e9a5323011610087578063e9a53230146108ca578063f1132b30146108df578063f7d92d86146108e7578063f98447ac146108ef578063ff7e88ec1461090257600080fd5b8063e2045b5e1461087e578063e6217e3a14610891578063e78c266c146108a4578063e985e9c5146108b757600080fd5b8063cce84392116100ff578063cce8439214610826578063cf4ece151461083b578063d547741f14610850578063dadf56ac14610863578063dea6f9c81461087657600080fd5b8063bfb7dc99146107da578063c62b28e8146107ed578063c87b56dd14610800578063ca15c8731461081357600080fd5b806395d89b41116101b3578063a22cb46511610182578063a22cb46514610778578063a32c5e591461078b578063a4369b71146107a0578063a78e746f146107b3578063b88d4fde146107c757600080fd5b806395d89b411461074857806396ac6bf0146107505780639ac3eaa714610763578063a217fddf1461077057600080fd5b806376516078116101ef57806376516078146107075780638456cb591461071a5780639010d07c1461072257806391d148541461073557600080fd5b80636352211e146106bb5780636b584775146106ce57806370a08231146106e1578063762ddb59146106f457600080fd5b8063326a55e01161032657806349b5e105116102ae5780635b5c251f1161027d5780635b5c251f1461067a5780635c975abb1461068d5780635db531a1146106985780635f413466146106a0578063610c3009146106b357600080fd5b806349b5e105146106445780634d84c6d81461064c5780634f6ccce71461065457806357f276ff1461066757600080fd5b80633ab76e9f116102f55780633ab76e9f146105f05780633f4ba83a146106035780633f86ea7c1461060b578063422d68e91461061e57806342842e0e1461063157600080fd5b8063326a55e0146105ba578063329a8cfa146105c257806335ea18e8146105ca57806336568abe146105dd57600080fd5b80631fb4f43b116103a95780632436329d116103785780632436329d14610547578063248a9ca31461055c5780632f2ff15d146105805780632f745c59146105935780632fb56585146105a657600080fd5b80631fb4f43b146104d45780632122b4aa146104f757806321d7f0081461052157806323b872dd1461053457600080fd5b8063095ea7b3116103e5578063095ea7b314610492578063130f6320146104a757806317314d5a146104ba57806318160ddd146104c257600080fd5b806301ffc9a714610417578063024bebe91461043f57806306fdde031461046a578063081812fc1461047f575b600080fd5b61042a6104253660046143da565b610916565b60405190151581526020015b60405180910390f35b600b54610452906001600160a01b031681565b6040516001600160a01b039091168152602001610436565b610472610927565b60405161043691906145b2565b61045261048d36600461437a565b6109b9565b6104a56104a0366004614314565b610a53565b005b6104a56104b536600461437a565b610b69565b6104a5610b96565b6019545b604051908152602001610436565b6104e76104e236600461437a565b610bb7565b60405161043694939291906145c5565b6104c6610505366004614414565b8051602081830181018051828252928201919093012091525481565b600454610452906001600160a01b031681565b6104a561054236600461418a565b610cf9565b6104c66000805160206148ae83398151915281565b6104c661056a36600461437a565b6000908152600160208190526040909120015490565b6104a561058e366004614393565b610d4f565b6104c66105a1366004614314565b610d71565b600f5461042a90600160b01b900460ff1681565b6104a5610e07565b6104a5610e19565b6104c66105d8366004614279565b610f22565b6104a56105eb366004614393565b611079565b600f54610452906001600160a01b031681565b6104a561109b565b600854610452906001600160a01b031681565b6104a561062c366004614462565b61112d565b6104a561063f36600461418a565b61115a565b6104a56111aa565b6104a5610e0f565b6104c661066236600461437a565b6111b2565b6104a561067536600461437a565b611245565b600c54610452906001600160a01b031681565b60165460ff1661042a565b6104a5611259565b600d54610452906001600160a01b031681565b610472611261565b6104526106c936600461437a565b6112ef565b600954610452906001600160a01b031681565b6104c66106ef366004614117565b611366565b600554610452906001600160a01b031681565b61042a610715366004614340565b6113ed565b6104a56114ed565b6104526107303660046143b8565b61156f565b61042a610743366004614393565b61158e565b6104726115b9565b61042a61075e36600461437a565b6115c8565b601c5461042a9060ff1681565b6104c6600081565b6104a561078636600461424b565b6116d4565b6104c660008051602061490e83398151915281565b6104c66107ae366004614414565b61174e565b600f5461042a90600160a01b900460ff1681565b6104a56107d53660046141cb565b611776565b600654610452906001600160a01b031681565b6104a56107fb36600461437a565b6117a8565b61047261080e36600461437a565b6117f9565b6104c661082136600461437a565b6118e0565b6104c660008051602061492e83398151915281565b6104c66000805160206148ee83398151915281565b6104a561085e366004614393565b6118f7565b600a54610452906001600160a01b031681565b610472611901565b6104e761088c36600461437a565b61190e565b600e54610452906001600160a01b031681565b600354610452906001600160a01b031681565b61042a6108c5366004614151565b611a73565b6104c66000805160206148ce83398151915281565b6104a5611ad2565b6104a5611ada565b600754610452906001600160a01b031681565b600f5461042a90600160a81b900460ff1681565b600061092182611ba2565b92915050565b6060601080546109369061479c565b80601f01602080910402602001604051908101604052809291908181526020018280546109629061479c565b80156109af5780601f10610984576101008083540402835291602001916109af565b820191906000526020600020905b81548152906001019060200180831161099257829003601f168201915b5050505050905090565b6000818152601260205260408120546001600160a01b0316610a375760405162461bcd60e51b815260206004820152602c60248201527f4552433732313a20617070726f76656420717565727920666f72206e6f6e657860448201526b34b9ba32b73a103a37b5b2b760a11b60648201526084015b60405180910390fd5b506000908152601460205260409020546001600160a01b031690565b6000610a5e826112ef565b9050806001600160a01b0316836001600160a01b03161415610acc5760405162461bcd60e51b815260206004820152602160248201527f4552433732313a20617070726f76616c20746f2063757272656e74206f776e656044820152603960f91b6064820152608401610a2e565b336001600160a01b0382161480610ae85750610ae88133611a73565b610b5a5760405162461bcd60e51b815260206004820152603860248201527f4552433732313a20617070726f76652063616c6c6572206973206e6f74206f7760448201527f6e6572206e6f7220617070726f76656420666f7220616c6c00000000000000006064820152608401610a2e565b610b648383611bc7565b505050565b610b736001611c4e565b50610b7d81611d00565b50610b8781611e7b565b50610b926000611c4e565b5050565b610ba06001611c4e565b50610ba9612004565b50610bb46000611c4e565b50565b601f60205260009081526040902080548190610bd29061479c565b80601f0160208091040260200160405190810160405280929190818152602001828054610bfe9061479c565b8015610c4b5780601f10610c2057610100808354040283529160200191610c4b565b820191906000526020600020905b815481529060010190602001808311610c2e57829003601f168201915b505050505090806001018054610c609061479c565b80601f0160208091040260200160405190810160405280929190818152602001828054610c8c9061479c565b8015610cd95780601f10610cae57610100808354040283529160200191610cd9565b820191906000526020600020905b815481529060010190602001808311610cbc57829003601f168201915b50505050600283015460039093015491926001600160a01b031691905084565b6000610d04826112ef565b9050336001600160a01b0382161480610d225750610d228433611a73565b610d3e5760405162461bcd60e51b8152600401610a2e90614659565b610d4984848461214a565b50505050565b610d59828261217b565b6000828152600260205260409020610b649082611b8d565b6000610d7c83611366565b8210610dde5760405162461bcd60e51b815260206004820152602b60248201527f455243373231456e756d657261626c653a206f776e657220696e646578206f7560448201526a74206f6620626f756e647360a81b6064820152608401610a2e565b506001600160a01b03919091166000908152601760209081526040808320938352929052205490565b610e0f6121b5565b610e17612410565b565b610e3160008051602061490e8339815191523361158e565b80610e4f5750610e4f6000805160206148ce8339815191523361158e565b80610e6d5750610e6d6000805160206148ae8339815191523361158e565b610eb25760405162461bcd60e51b81526020600482015260166024820152752cb7ba93b932903737ba103a3432903130b4b634b33360511b6044820152606401610a2e565b600f60009054906101000a90046001600160a01b03166001600160a01b031663329a8cfa6040518163ffffffff1660e01b8152600401600060405180830381600087803b158015610f0257600080fd5b505af1158015610f16573d6000803e3d6000fd5b50505050610e17611259565b6000610f3c60008051602061490e8339815191523361158e565b80610f5a5750610f5a6000805160206148ce8339815191523361158e565b80610f785750610f786000805160206148ae8339815191523361158e565b610fbd5760405162461bcd60e51b81526020600482015260166024820152752cb7ba93b932903737ba103a3432903130b4b634b33360511b6044820152606401610a2e565b6001600160a01b0387163314801590610fde57506001600160a01b03871615155b610fe757600080fd5b6000610ff288611366565b11156110395760405162461bcd60e51b815260206004820152601660248201527513db9b1e481bdb99481251081c195c881dd85b1b195d60521b6044820152606401610a2e565b50601b5461104a868686868661278c565b61105687601b546128a0565b6001601b600082825461106991906146f7565b9091555090979650505050505050565b61108382826128ba565b6000828152600260205260409020610b649082612934565b6110b36000805160206148ce8339815191523361158e565b806110d157506110d160008051602061490e8339815191523361158e565b6111155760405162461bcd60e51b8152602060048201526015602482015274596f75277265206e6f742074686520476176656c7360581b6044820152606401610a2e565b601c5460ff161561112557600080fd5b610e17612949565b600061113833611366565b1161114257600080fd5b61114d336000610d71565b9250610b648383836129dc565b6000611165826112ef565b9050336001600160a01b038216148061118357506111838433611a73565b61119f5760405162461bcd60e51b8152600401610a2e90614659565b610d49848484612a74565b610e176121b5565b60006111bd60195490565b82106112205760405162461bcd60e51b815260206004820152602c60248201527f455243373231456e756d657261626c653a20676c6f62616c20696e646578206f60448201526b7574206f6620626f756e647360a01b6064820152608401610a2e565b6019828154811061123357611233614848565b90600052602060002001549050919050565b61124f6001611c4e565b50610b8781612a8f565b610e17612cea565b601e805461126e9061479c565b80601f016020809104026020016040519081016040528092919081815260200182805461129a9061479c565b80156112e75780601f106112bc576101008083540402835291602001916112e7565b820191906000526020600020905b8154815290600101906020018083116112ca57829003601f168201915b505050505081565b6000818152601260205260408120546001600160a01b0316806109215760405162461bcd60e51b815260206004820152602960248201527f4552433732313a206f776e657220717565727920666f72206e6f6e657869737460448201526832b73a103a37b5b2b760b91b6064820152608401610a2e565b60006001600160a01b0382166113d15760405162461bcd60e51b815260206004820152602a60248201527f4552433732313a2062616c616e636520717565727920666f7220746865207a65604482015269726f206164647265737360b01b6064820152608401610a2e565b506001600160a01b031660009081526013602052604090205490565b60006114076000805160206148ce8339815191523361158e565b8061142557506114256000805160206148ae8339815191523361158e565b80611443575061144360008051602061490e8339815191523361158e565b61144c57600080fd5b600f54600160b01b810460ff9081161515600160a81b909204161515146001148061148a575061148a60008051602061490e8339815191523361158e565b6114c95760405162461bcd60e51b815260206004820152601060248201526f436f757274204d75737420416772656560801b6044820152606401610a2e565b600182151514156114e5576114dc612e2d565b50600192915050565b506000919050565b6115056000805160206148ce8339815191523361158e565b80611523575061152360008051602061490e8339815191523361158e565b6115675760405162461bcd60e51b8152602060048201526015602482015274596f75277265206e6f742074686520476176656c7360581b6044820152606401610a2e565b610e17612e7f565b60008281526002602052604081206115879083612efa565b9392505050565b60009182526001602090815260408084206001600160a01b0393909316845291905290205460ff1690565b6060601180546109369061479c565b60006115e26000805160206148ce8339815191523361158e565b8061160057506116006000805160206148ae8339815191523361158e565b8061161e575061161e60008051602061490e8339815191523361158e565b61162757600080fd5b600f54600160b01b810460ff9081161515600160a81b9092041615151460011480611665575061166560008051602061490e8339815191523361158e565b6116a45760405162461bcd60e51b815260206004820152601060248201526f436f757274204d75737420416772656560801b6044820152606401610a2e565b81604514156114e5576116b5612e2d565b506116be612e7f565b50601c805460ff19166001908117909155919050565b6116ec60008051602061490e8339815191523361158e565b8061170a575061170a6000805160206148ce8339815191523361158e565b8061172857506117286000805160206148ae8339815191523361158e565b6117445760405162461bcd60e51b8152600401610a2e90614659565b610b928282612f06565b600060208260405161176091906144b5565b9081526020016040518091039020549050919050565b6117803383612fcb565b61179c5760405162461bcd60e51b8152600401610a2e906146a6565b610d498484848461306d565b6117b23382612fcb565b6117f05760405162461bcd60e51b815260206004820152600f60248201526e4e696365205472792c204275636b6f60881b6044820152606401610a2e565b610bb4816130a0565b6000818152601260205260409020546060906001600160a01b03166118785760405162461bcd60e51b815260206004820152602f60248201527f4552433732314d657461646174613a2055524920717565727920666f72206e6f60448201526e3732bc34b9ba32b73a103a37b5b2b760891b6064820152608401610a2e565b600061188f60408051602081019091526000815290565b905060008151116118af5760405180602001604052806000815250611587565b806118b984613147565b6040516020016118ca9291906144d1565b6040516020818303038152906040529392505050565b600081815260026020526040812061092190613245565b611083828261324f565b601d805461126e9061479c565b6000818152601f602052604081208054606092839290918291906119319061479c565b80601f016020809104026020016040519081016040528092919081815260200182805461195d9061479c565b80156119aa5780601f1061197f576101008083540402835291602001916119aa565b820191906000526020600020905b81548152906001019060200180831161198d57829003601f168201915b5050506000888152601f6020526040902060028101546003820154600190920180549599506001600160a01b039091169650909450926119ec9250905061479c565b80601f0160208091040260200160405190810160405280929190818152602001828054611a189061479c565b8015611a655780601f10611a3a57610100808354040283529160200191611a65565b820191906000526020600020905b815481529060010190602001808311611a4857829003601f168201915b505050505092509193509193565b600080611a8e60008051602061490e8339815191528461158e565b80611aac5750611aac6000805160206148ce8339815191528461158e565b80611aca5750611aca6000805160206148ae8339815191528461158e565b949350505050565b610e17613289565b611ae46001611c4e565b50611afc60008051602061490e833981519152612a8f565b50611b146000805160206148ce833981519152612a8f565b50611b2c6000805160206148ae833981519152612a8f565b50611b446000805160206148ee833981519152612a8f565b50611b5c60008051602061492e833981519152612a8f565b50611b676000612a8f565b50611b70612cea565b611b7a6000611c4e565b610e1757600080fd5b610b9282826133c0565b6000611587836001600160a01b03841661342b565b60006001600160e01b0319821663780e9d6360e01b148061092157506109218261347a565b611bdf60008051602061490e8339815191523361158e565b611c445760405162461bcd60e51b815260206004820152603060248201527f596f7520646f206e6f742068617665207065726d697373696f6e20746f20617060448201526f70726f7665207468697320626164676560801b6064820152608401610a2e565b610b9282826134ba565b6000805460ff168215158115151415611ca95760405162461bcd60e51b815260206004820152601960248201527f416c72656164792053657420746f20746861742076616c7565000000000000006044820152606401610a2e565b6000805484151560ff19909116811790915560ff16151581151514156114dc5760405162461bcd60e51b815260206004820152600c60248201526b29b0b33a32bc9022b93937b960a11b6044820152606401610a2e565b60405163ca15c87360e01b8152600481018290526000908190309063ca15c8739060240160206040518083038186803b158015611d3c57600080fd5b505afa158015611d50573d6000803e3d6000fd5b505050506040513d601f19601f82011682018060405250810190611d749190614449565b905060005b81811015611e7157604051632404341f60e21b815260048101859052602481018290526000903090639010d07c9060440160206040518083038186803b158015611dc257600080fd5b505afa158015611dd6573d6000803e3d6000fd5b505050506040513d601f19601f82011682018060405250810190611dfa9190614134565b60405163d547741f60e01b8152600481018790526001600160a01b0382166024820152909150309063d547741f90604401600060405180830381600087803b158015611e4557600080fd5b505af1158015611e59573d6000803e3d6000fd5b50505050508080611e69906147d7565b915050611d79565b5060019392505050565b600f5460405163ca15c87360e01b81526004810183905260009182916001600160a01b039091169063ca15c8739060240160206040518083038186803b158015611ec457600080fd5b505afa158015611ed8573d6000803e3d6000fd5b505050506040513d601f19601f82011682018060405250810190611efc9190614449565b905060005b81811015611e7157600f54604051632404341f60e21b815260048101869052602481018390526000916001600160a01b031690639010d07c9060440160206040518083038186803b158015611f5557600080fd5b505afa158015611f69573d6000803e3d6000fd5b505050506040513d601f19601f82011682018060405250810190611f8d9190614134565b604051632f2ff15d60e01b8152600481018790526001600160a01b03821660248201529091503090632f2ff15d90604401600060405180830381600087803b158015611fd857600080fd5b505af1158015611fec573d6000803e3d6000fd5b50505050508080611ffc906147d7565b915050611f01565b600061201d60008051602061490e833981519152611d00565b5061203560008051602061490e833981519152611e7b565b61203e57600080fd5b6120556000805160206148ce833981519152611d00565b5061206d6000805160206148ce833981519152611e7b565b61207657600080fd5b61208d6000805160206148ae833981519152611d00565b506120a56000805160206148ae833981519152611e7b565b6120ae57600080fd5b6120c56000805160206148ee833981519152611d00565b506120dd6000805160206148ee833981519152611e7b565b6120e657600080fd5b6120fd60008051602061492e833981519152611d00565b5061211560008051602061492e833981519152611e7b565b61211e57600080fd5b6121286000611d00565b506121336000611e7b565b61213c57600080fd5b612144612cea565b50600190565b6121543382612fcb565b6121705760405162461bcd60e51b8152600401610a2e906146a6565b610b64838383613528565b600082815260016020819052604082200154905460ff16156121a157610b6483836133c0565b6121ab81336136d3565b610b6483836133c0565b600f60009054906101000a90046001600160a01b03166001600160a01b031663dadf56ac6040518163ffffffff1660e01b815260040160206040518083038186803b15801561220357600080fd5b505afa158015612217573d6000803e3d6000fd5b505050506040513d601f19601f8201168201806040525081019061223b9190614134565b600a80546001600160a01b0319166001600160a01b03928316179055600f546040805163024bebe960e01b81529051919092169163024bebe9916004808301926020929190829003018186803b15801561229457600080fd5b505afa1580156122a8573d6000803e3d6000fd5b505050506040513d601f19601f820116820180604052508101906122cc9190614134565b600b80546001600160a01b0319166001600160a01b03928316179055600f5460408051635b5c251f60e01b815290519190921691635b5c251f916004808301926020929190829003018186803b15801561232557600080fd5b505afa158015612339573d6000803e3d6000fd5b505050506040513d601f19601f8201168201806040525081019061235d9190614134565b600c80546001600160a01b0319166001600160a01b03928316179055600f5460408051637310bf1d60e11b81529051919092169163e6217e3a916004808301926020929190829003018186803b1580156123b657600080fd5b505afa1580156123ca573d6000803e3d6000fd5b505050506040513d601f19601f820116820180604052508101906123ee9190614134565b600e80546001600160a01b0319166001600160a01b0392909216919091179055565b600f60009054906101000a90046001600160a01b03166001600160a01b03166321d7f0086040518163ffffffff1660e01b815260040160206040518083038186803b15801561245e57600080fd5b505afa158015612472573d6000803e3d6000fd5b505050506040513d601f19601f820116820180604052508101906124969190614134565b600480546001600160a01b0319166001600160a01b03928316178155600f546040805163762ddb5960e01b81529051919093169263762ddb599281810192602092909190829003018186803b1580156124ee57600080fd5b505afa158015612502573d6000803e3d6000fd5b505050506040513d601f19601f820116820180604052508101906125269190614134565b600580546001600160a01b0319166001600160a01b03928316179055600f546040805163bfb7dc9960e01b81529051919092169163bfb7dc99916004808301926020929190829003018186803b15801561257f57600080fd5b505afa158015612593573d6000803e3d6000fd5b505050506040513d601f19601f820116820180604052508101906125b79190614134565b600680546001600160a01b0319166001600160a01b03928316179055600f5460408051633e6111eb60e21b81529051919092169163f98447ac916004808301926020929190829003018186803b15801561261057600080fd5b505afa158015612624573d6000803e3d6000fd5b505050506040513d601f19601f820116820180604052508101906126489190614134565b600780546001600160a01b0319166001600160a01b03928316179055600f5460408051630fe1ba9f60e21b815290519190921691633f86ea7c916004808301926020929190829003018186803b1580156126a157600080fd5b505afa1580156126b5573d6000803e3d6000fd5b505050506040513d601f19601f820116820180604052508101906126d99190614134565b600880546001600160a01b0319166001600160a01b03928316179055600f5460408051636b58477560e01b815290519190921691636b584775916004808301926020929190829003018186803b15801561273257600080fd5b505afa158015612746573d6000803e3d6000fd5b505050506040513d601f19601f8201168201806040525081019061276a9190614134565b600980546001600160a01b0319166001600160a01b0392909216919091179055565b60208460405161279c91906144b5565b90815260200160405180910390205460001461280e5760405162461bcd60e51b815260206004820152602b60248201527f416c72656164792061206261646765206173736f63696174656420776974682060448201526a746869732068616e646c6560a81b6064820152608401610a2e565b6000818152601f60209081526040909120855161283392600190920191870190613fe8565b506000818152601f602090815260409091206002810180546001600160a01b0319166001600160a01b03871617905560038101849055865161287792880190613fe8565b508060208560405161288991906144b5565b908152604051908190036020019020555050505050565b610b92828260405180602001604052806000815250613737565b6001600160a01b038116331461292a5760405162461bcd60e51b815260206004820152602f60248201527f416363657373436f6e74726f6c3a2063616e206f6e6c792072656e6f756e636560448201526e103937b632b9903337b91039b2b63360891b6064820152608401610a2e565b610b92828261376a565b6000611587836001600160a01b0384166137d1565b60165460ff166129925760405162461bcd60e51b815260206004820152601460248201527314185d5cd8589b194e881b9bdd081c185d5cd95960621b6044820152606401610a2e565b6016805460ff191690557f5db9ee0a495bf2e6ff9c91a7834c1ba4fdd244a5e8aa4e537bd38aeae4b073aa335b6040516001600160a01b03909116815260200160405180910390a1565b336129e6846112ef565b6001600160a01b031614612a3c5760405162461bcd60e51b815260206004820152601b60248201527f446f75626c6520636865636b20796f7572204944204e756d62657200000000006044820152606401610a2e565b6000928352601f60205260409092206002810180546001600160a01b0319166001600160a01b03939093169290921790915560030155565b610b6483838360405180602001604052806000815250611776565b600f5460405163ca15c87360e01b81526004810183905260009182916001600160a01b039091169063ca15c8739060240160206040518083038186803b158015612ad857600080fd5b505afa158015612aec573d6000803e3d6000fd5b505050506040513d601f19601f82011682018060405250810190612b109190614449565b60405163ca15c87360e01b815260048101859052909150600090309063ca15c8739060240160206040518083038186803b158015612b4d57600080fd5b505afa158015612b61573d6000803e3d6000fd5b505050506040513d601f19601f82011682018060405250810190612b859190614449565b90506000612b938284614742565b905060008111612bd85760405162461bcd60e51b815260206004820152601060248201526f4e6f7468696e6720746f2073796e632160801b6044820152606401610a2e565b60005b81811015612cde57600f54604051632404341f60e21b815260048101889052602481018390526000916001600160a01b031690639010d07c9060440160206040518083038186803b158015612c2f57600080fd5b505afa158015612c43573d6000803e3d6000fd5b505050506040513d601f19601f82011682018060405250810190612c679190614134565b604051632f2ff15d60e01b8152600481018990526001600160a01b03821660248201529091503090632f2ff15d90604401600060405180830381600087803b158015612cb257600080fd5b505af1158015612cc6573d6000803e3d6000fd5b50505050508080612cd6906147d7565b915050612bdb565b50600195945050505050565b600f60009054906101000a90046001600160a01b03166001600160a01b031663ff7e88ec6040518163ffffffff1660e01b815260040160206040518083038186803b158015612d3857600080fd5b505afa158015612d4c573d6000803e3d6000fd5b505050506040513d601f19601f82011682018060405250810190612d70919061435d565b600f60156101000a81548160ff021916908315150217905550600f60009054906101000a90046001600160a01b03166001600160a01b0316632fb565856040518163ffffffff1660e01b815260040160206040518083038186803b158015612dd757600080fd5b505afa158015612deb573d6000803e3d6000fd5b505050506040513d601f19601f82011682018060405250810190612e0f919061435d565b600f8054911515600160b01b0260ff60b01b19909216919091179055565b6000805b601b54811015612e73576000818152601260205260409020546001600160a01b031615612e6157612e61816130a0565b80612e6b816147d7565b915050612e31565b50506000601b55600190565b60165460ff1615612ec55760405162461bcd60e51b815260206004820152601060248201526f14185d5cd8589b194e881c185d5cd95960821b6044820152606401610a2e565b6016805460ff191660011790557f62e78cea01bee320cd4e420270b5ea74000d11b0c9f74754ebdbfc544b05a2586129bf3390565b600061158783836138be565b6001600160a01b038216331415612f5f5760405162461bcd60e51b815260206004820152601960248201527f4552433732313a20617070726f766520746f2063616c6c6572000000000000006044820152606401610a2e565b3360008181526015602090815260408083206001600160a01b03871680855290835292819020805460ff191686151590811790915590519081529192917f17307eab39ab6107e8899845ad3d59bd9653f200f220920489ca2b5937696c31910160405180910390a35050565b6000818152601260205260408120546001600160a01b03166130445760405162461bcd60e51b815260206004820152602c60248201527f4552433732313a206f70657261746f7220717565727920666f72206e6f6e657860448201526b34b9ba32b73a103a37b5b2b760a11b6064820152608401610a2e565b600061304f836112ef565b90506001600160a01b038116331480611aca5750611aca8185611a73565b613078848484613528565b61308484848484613944565b610d495760405162461bcd60e51b8152600401610a2e90614607565b60006130ab826112ef565b90506130b981600084613a51565b6130c4600083611bc7565b6001600160a01b03811660009081526013602052604081208054600192906130ed908490614742565b909155505060008281526012602052604080822080546001600160a01b0319169055518391906001600160a01b038416907fddf252ad1be2c89b69c2b068fc378daa952ba7f163c4a11628f55a4df523b3ef908390a45050565b60608161316b5750506040805180820190915260018152600360fc1b602082015290565b8160005b8115613195578061317f816147d7565b915061318e9050600a8361470f565b915061316f565b60008167ffffffffffffffff8111156131b0576131b061485e565b6040519080825280601f01601f1916602001820160405280156131da576020820181803683370190505b5090505b8415611aca576131ef600183614742565b91506131fc600a866147f2565b6132079060306146f7565b60f81b81838151811061321c5761321c614848565b60200101906001600160f81b031916908160001a90535061323e600a8661470f565b94506131de565b6000610921825490565b600082815260016020819052604082200154905460ff161561327557610b64838361376a565b61327f81336136d3565b610b64838361376a565b600f60009054906101000a90046001600160a01b03166001600160a01b031663a44b93256040518163ffffffff1660e01b815260040160206040518083038186803b1580156132d757600080fd5b505afa1580156132eb573d6000803e3d6000fd5b505050506040513d601f19601f8201168201806040525081019061330f919061435d565b61331857600080fd5b600f60009054906101000a90046001600160a01b03166001600160a01b031663ac7cfac36040518163ffffffff1660e01b815260040160206040518083038186803b15801561336657600080fd5b505afa15801561337a573d6000803e3d6000fd5b505050506040513d601f19601f8201168201806040525081019061339e9190614134565b600380546001600160a01b0319166001600160a01b0392909216919091179055565b6133ca828261158e565b610b925760008281526001602081815260408084206001600160a01b0386168086529252808420805460ff19169093179092559051339285917f2f8788117e7eff1d82e926ec794901d17c78024a50270940304540a733656f0d9190a45050565b600081815260018301602052604081205461347257508154600181810184556000848152602080822090930184905584548482528286019093526040902091909155610921565b506000610921565b60006001600160e01b031982166380ac58cd60e01b14806134ab57506001600160e01b03198216635b5e139f60e01b145b80610921575061092182613a5c565b600081815260146020526040902080546001600160a01b0319166001600160a01b03841690811790915581906134ef826112ef565b6001600160a01b03167f8c5be1e5ebec7d5bd14f71427d1e84f3dd0314c0f7b2291e5b200ac8c7c3b92560405160405180910390a45050565b826001600160a01b031661353b826112ef565b6001600160a01b0316146135a35760405162461bcd60e51b815260206004820152602960248201527f4552433732313a207472616e73666572206f6620746f6b656e2074686174206960448201526839903737ba1037bbb760b91b6064820152608401610a2e565b6001600160a01b0382166136055760405162461bcd60e51b8152602060048201526024808201527f4552433732313a207472616e7366657220746f20746865207a65726f206164646044820152637265737360e01b6064820152608401610a2e565b613610838383613a51565b61361b600082611bc7565b6001600160a01b0383166000908152601360205260408120805460019290613644908490614742565b90915550506001600160a01b03821660009081526013602052604081208054600192906136729084906146f7565b909155505060008181526012602052604080822080546001600160a01b0319166001600160a01b0386811691821790925591518493918716917fddf252ad1be2c89b69c2b068fc378daa952ba7f163c4a11628f55a4df523b3ef91a4505050565b6136dd828261158e565b610b92576136f5816001600160a01b03166014613a81565b613700836020613a81565b604051602001613711929190614500565b60408051601f198184030181529082905262461bcd60e51b8252610a2e916004016145b2565b6137418383613c1d565b61374e6000848484613944565b610b645760405162461bcd60e51b8152600401610a2e90614607565b613774828261158e565b15610b925760008281526001602090815260408083206001600160a01b0385168085529252808320805460ff1916905551339285917ff6391f5c32d9c69d2a47ea670b442974b53935d1edc7fd64eb21e047a839171b9190a45050565b600081815260018301602052604081205480156138b45760006137f5600183614742565b855490915060009061380990600190614742565b9050600086600001828154811061382257613822614848565b906000526020600020015490508087600001848154811061384557613845614848565b60009182526020808320909101929092558281526001890190915260409020849055865487908061387857613878614832565b60019003818190600052602060002001600090559055866001016000878152602001908152602001600020600090556001945050505050610921565b6000915050610921565b8154600090821061391c5760405162461bcd60e51b815260206004820152602260248201527f456e756d657261626c655365743a20696e646578206f7574206f6620626f756e604482015261647360f01b6064820152608401610a2e565b82600001828154811061393157613931614848565b9060005260206000200154905092915050565b60006001600160a01b0384163b15613a4657604051630a85bd0160e11b81526001600160a01b0385169063150b7a0290613988903390899088908890600401614575565b602060405180830381600087803b1580156139a257600080fd5b505af19250505080156139d2575060408051601f3d908101601f191682019092526139cf918101906143f7565b60015b613a2c573d808015613a00576040519150601f19603f3d011682016040523d82523d6000602084013e613a05565b606091505b508051613a245760405162461bcd60e51b8152600401610a2e90614607565b805181602001fd5b6001600160e01b031916630a85bd0160e11b149050611aca565b506001949350505050565b610b64838383613d6b565b60006001600160e01b03198216635a05180f60e01b1480610921575061092182613e23565b60606000613a90836002614723565b613a9b9060026146f7565b67ffffffffffffffff811115613ab357613ab361485e565b6040519080825280601f01601f191660200182016040528015613add576020820181803683370190505b509050600360fc1b81600081518110613af857613af8614848565b60200101906001600160f81b031916908160001a905350600f60fb1b81600181518110613b2757613b27614848565b60200101906001600160f81b031916908160001a9053506000613b4b846002614723565b613b569060016146f7565b90505b6001811115613bce576f181899199a1a9b1b9c1cb0b131b232b360811b85600f1660108110613b8a57613b8a614848565b1a60f81b828281518110613ba057613ba0614848565b60200101906001600160f81b031916908160001a90535060049490941c93613bc781614785565b9050613b59565b5083156115875760405162461bcd60e51b815260206004820181905260248201527f537472696e67733a20686578206c656e67746820696e73756666696369656e746044820152606401610a2e565b6001600160a01b038216613c735760405162461bcd60e51b815260206004820181905260248201527f4552433732313a206d696e7420746f20746865207a65726f20616464726573736044820152606401610a2e565b6000818152601260205260409020546001600160a01b031615613cd85760405162461bcd60e51b815260206004820152601c60248201527f4552433732313a20746f6b656e20616c7265616479206d696e746564000000006044820152606401610a2e565b613ce460008383613a51565b6001600160a01b0382166000908152601360205260408120805460019290613d0d9084906146f7565b909155505060008181526012602052604080822080546001600160a01b0319166001600160a01b03861690811790915590518392907fddf252ad1be2c89b69c2b068fc378daa952ba7f163c4a11628f55a4df523b3ef908290a45050565b6001600160a01b038316613dc657613dc181601980546000838152601a60205260408120829055600182018355919091527f944998273e477b495144fb8794c914197f3ccb46be2900f4698fd0ef743c96950155565b613de9565b816001600160a01b0316836001600160a01b031614613de957613de98382613e58565b6001600160a01b038216613e0057610b6481613ef5565b826001600160a01b0316826001600160a01b031614610b6457610b648282613fa4565b60006001600160e01b03198216637965db0b60e01b148061092157506301ffc9a760e01b6001600160e01b0319831614610921565b60006001613e6584611366565b613e6f9190614742565b600083815260186020526040902054909150808214613ec2576001600160a01b03841660009081526017602090815260408083208584528252808320548484528184208190558352601890915290208190555b5060009182526018602090815260408084208490556001600160a01b039094168352601781528383209183525290812055565b601954600090613f0790600190614742565b6000838152601a602052604081205460198054939450909284908110613f2f57613f2f614848565b906000526020600020015490508060198381548110613f5057613f50614848565b6000918252602080832090910192909255828152601a90915260408082208490558582528120556019805480613f8857613f88614832565b6001900381819060005260206000200160009055905550505050565b6000613faf83611366565b6001600160a01b039093166000908152601760209081526040808320868452825280832085905593825260189052919091209190915550565b828054613ff49061479c565b90600052602060002090601f016020900481019282614016576000855561405c565b82601f1061402f57805160ff191683800117855561405c565b8280016001018555821561405c579182015b8281111561405c578251825591602001919060010190614041565b5061406892915061406c565b5090565b5b80821115614068576000815560010161406d565b600067ffffffffffffffff8084111561409c5761409c61485e565b604051601f8501601f19908116603f011681019082821181831017156140c4576140c461485e565b816040528093508581528686860111156140dd57600080fd5b858560208301376000602087830101525050509392505050565b600082601f83011261410857600080fd5b61158783833560208501614081565b60006020828403121561412957600080fd5b813561158781614874565b60006020828403121561414657600080fd5b815161158781614874565b6000806040838503121561416457600080fd5b823561416f81614874565b9150602083013561417f81614874565b809150509250929050565b60008060006060848603121561419f57600080fd5b83356141aa81614874565b925060208401356141ba81614874565b929592945050506040919091013590565b600080600080608085870312156141e157600080fd5b84356141ec81614874565b935060208501356141fc81614874565b925060408501359150606085013567ffffffffffffffff81111561421f57600080fd5b8501601f8101871361423057600080fd5b61423f87823560208401614081565b91505092959194509250565b6000806040838503121561425e57600080fd5b823561426981614874565b9150602083013561417f81614889565b60008060008060008060c0878903121561429257600080fd5b863561429d81614874565b9550602087013567ffffffffffffffff808211156142ba57600080fd5b6142c68a838b016140f7565b965060408901359150808211156142dc57600080fd5b506142e989828a016140f7565b94505060608701356142fa81614874565b9598949750929560808101359460a0909101359350915050565b6000806040838503121561432757600080fd5b823561433281614874565b946020939093013593505050565b60006020828403121561435257600080fd5b813561158781614889565b60006020828403121561436f57600080fd5b815161158781614889565b60006020828403121561438c57600080fd5b5035919050565b600080604083850312156143a657600080fd5b82359150602083013561417f81614874565b600080604083850312156143cb57600080fd5b50508035926020909101359150565b6000602082840312156143ec57600080fd5b813561158781614897565b60006020828403121561440957600080fd5b815161158781614897565b60006020828403121561442657600080fd5b813567ffffffffffffffff81111561443d57600080fd5b611aca848285016140f7565b60006020828403121561445b57600080fd5b5051919050565b60008060006060848603121561447757600080fd5b8335925060208401356141ba81614874565b600081518084526144a1816020860160208601614759565b601f01601f19169290920160200192915050565b600082516144c7818460208701614759565b9190910192915050565b600083516144e3818460208801614759565b8351908301906144f7818360208801614759565b01949350505050565b7f416363657373436f6e74726f6c3a206163636f756e7420000000000000000000815260008351614538816017850160208801614759565b7001034b99036b4b9b9b4b733903937b6329607d1b6017918401918201528351614569816028840160208801614759565b01602801949350505050565b6001600160a01b03858116825284166020820152604081018390526080606082018190526000906145a890830184614489565b9695505050505050565b6020815260006115876020830184614489565b6080815260006145d86080830187614489565b82810360208401526145ea8187614489565b6001600160a01b0395909516604084015250506060015292915050565b60208082526032908201527f4552433732313a207472616e7366657220746f206e6f6e20455243373231526560408201527131b2b4bb32b91034b6b83632b6b2b73a32b960711b606082015260800190565b6020808252602d908201527f596f7520646f206e6f742068617665207065726d697373696f6e20746f206d6f60408201526c7665207468697320626164676560981b606082015260800190565b60208082526031908201527f4552433732313a207472616e736665722063616c6c6572206973206e6f74206f6040820152701ddb995c881b9bdc88185c1c1c9bdd9959607a1b606082015260800190565b6000821982111561470a5761470a614806565b500190565b60008261471e5761471e61481c565b500490565b600081600019048311821515161561473d5761473d614806565b500290565b60008282101561475457614754614806565b500390565b60005b8381101561477457818101518382015260200161475c565b83811115610d495750506000910152565b60008161479457614794614806565b506000190190565b600181811c908216806147b057607f821691505b602082108114156147d157634e487b7160e01b600052602260045260246000fd5b50919050565b60006000198214156147eb576147eb614806565b5060010190565b6000826148015761480161481c565b500690565b634e487b7160e01b600052601160045260246000fd5b634e487b7160e01b600052601260045260246000fd5b634e487b7160e01b600052603160045260246000fd5b634e487b7160e01b600052603260045260246000fd5b634e487b7160e01b600052604160045260246000fd5b6001600160a01b0381168114610bb457600080fd5b8015158114610bb457600080fd5b6001600160e01b031981168114610bb457600080fdfefa8e4989e1d689f7bc5c4b25b87efb51fecdecb19ba62847e29c759e12a89acd048bc71fa1cb2c119c339cf9cf00a97996a19a9d991ce5fe049f2fa5459e7990f0f4b159a6e2a4815eb3ca3df080bfa70c9270662c59bcaa4479a456220183e60538d24a8b7882d7b2e36af243d4af61c23e86e3daa6cb8c887b53220b2f57207c9d7f6f02908185bffb3f7fc9afb29fd7bf93675af8fd4b655ee05c2cee1e0ea26469706673582212208dc6ae2d9ebb70f7b29b1e851c88cb05c14fc6859cceb691279d9db7aa88059e64736f6c63430008060033",
  "immutableReferences": {},
  "source": "pragma solidity ^0.8.0;\n\nimport \"../SmartConsensusMachine.sol\";\nimport \"../AddressManagerReciever.sol\";\n\nimport \"@openzeppelin/contracts/token/ERC721/extensions/ERC721Enumerable.sol\";\nimport \"@openzeppelin/contracts/token/ERC721/ERC721.sol\";\nimport \"@openzeppelin/contracts/security/Pausable.sol\";\n\ncontract IdentityBadge is SmartConsensusMachine, ERC721, Pausable, ERC721Enumerable {\n    \n    uint256 private _tokenIdGenerator = 0;\n\n    bool public isForeverLocked = false;\n\n    string public badgeColor;\n    string public badgeName;\n\n    constructor(string memory _badgeName, string memory _badgeSymbol, address _AddressManagerAddress)\n        ERC721(_badgeName, _badgeSymbol)\n        SmartConsensusMachine(_AddressManagerAddress){\n       \n       // updateAllAddresses();\n        badgeColor = _badgeSymbol;\n        badgeName = _badgeName;\n\n    }      \n    \n    //******************************\n    //                            **\n    //     Setup mapping          ** \n    //                            **\n    //******************************\n    struct IDCard { // struct will store the psuedonym and avatar NFT information.\n        string pseudonym;\n        string twitterHandle;\n        address avatarTokenAddress;\n        uint avatarTokenId;\n        // uint avatarChainId; // may want to add this. Will consider.\n    }\n\n    mapping (uint => IDCard) public IDCardInfo; \n    mapping (string => uint) public TwitterHandle;\n\n\n    \n    function _setBadgeInfo(string memory _pseudonym, string memory _twitterHandle, address _avatarTokenAddress, uint _avatarTokenId, uint _tokenId) internal {\n        \n        require(TwitterHandle[_twitterHandle] == 0, \"Already a badge associated with this handle\");\n\n        IDCardInfo[_tokenId].twitterHandle = _twitterHandle;\n        IDCardInfo[_tokenId].avatarTokenAddress = _avatarTokenAddress; \n        IDCardInfo[_tokenId].avatarTokenId = _avatarTokenId;\n        IDCardInfo[_tokenId].pseudonym = _pseudonym;\n\n        TwitterHandle[_twitterHandle] = _tokenId;\n    }\n\n    function updateAvatar(uint _tokenId, address _avatarTokenAddress, uint _avatarTokenId) public {\n        require(balanceOf(msg.sender) > 0);\n        _tokenId = tokenOfOwnerByIndex(msg.sender, 0);\n        _updateAvatar(_tokenId, _avatarTokenAddress, _avatarTokenId);\n\n    }\n\n    function _updateAvatar(uint _tokenId, address _avatarTokenAddress, uint _avatarTokenId) internal {\n        require(ownerOf(_tokenId) == msg.sender, \"Double check your ID Number\");\n        IDCardInfo[_tokenId].avatarTokenAddress = _avatarTokenAddress; \n        IDCardInfo[_tokenId].avatarTokenId = _avatarTokenId;\n    }\n\n    function getIDFromHandle(string memory _TwitterHandle) public view returns (uint _tokenId) {\n        _tokenId = TwitterHandle[_TwitterHandle];\n        return ( _tokenId );\n    }\n\n    function getBadgeInfo(uint _tokenId) public view returns (string memory _pseudonym, string memory _twitterHandle, address _avatarTokenAddress, uint _avatarTokenId ) {\n        _pseudonym = IDCardInfo[_tokenId].pseudonym;\n        _avatarTokenAddress = IDCardInfo[_tokenId].avatarTokenAddress;\n        _avatarTokenId = IDCardInfo[_tokenId].avatarTokenId;\n        _twitterHandle =IDCardInfo[_tokenId].twitterHandle;\n        return (_pseudonym, _twitterHandle, _avatarTokenAddress, _avatarTokenId );\n    }\n\n\n\n    /////////////////////////////////////////////////////////////////////////////////////////////////\n    /////////////////////////////////////////////////////////////////////////////////////////////////\n    /// @dev                                                                                     ////\n    /// Issuance Desk                                                                            ////\n    /////////////////////////////////////////////////////////////////////////////////////////////////\n    /////////////////////////////////////////////////////////////////////////////////////////////////\n\n\n    function issueBadge(address receivingAddress, string memory _pseudonym, string memory _twitterHandle, address _avatarTokenAddress, uint _avatarTokenId, uint _tokenId) public virtual\n        BAILIFF\n        returns(uint newId) { // Right now function also increments and returns tokenId, this will be removed.\n        require((receivingAddress != msg.sender) && (receivingAddress != address(0)));\n        require(balanceOf(receivingAddress) <= 0, \"Only one ID per wallet\");\n        newId = _tokenIdGenerator;\n        _setBadgeInfo(_pseudonym, _twitterHandle, _avatarTokenAddress, _avatarTokenId, _tokenId);\n        _safeMint(receivingAddress, _tokenIdGenerator);\n        _tokenIdGenerator += 1;\n       \n     }\n\n    function revokeBadge(uint tokenId) public {\n        require(_isApprovedOrOwner(msg.sender, tokenId),\n                    \"Nice Try, Bucko\") ;\n        _burn(tokenId);\n    }\n\n\n    /////////////////////////////////////////////////////////////////////////////////////////////////\n    /////////////////////////////////////////////////////////////////////////////////////////////////\n    /// @dev                                                                                     ////\n    /// Maintanence\\\\\\\\\\\\\\\\\\\\\\\\\\\\\\\\\\\\\\\\\\\\\\\\\\\\\\                                                   ////\n    /////////////////////////////////////////////////////////////////////////////////////////////////\n    /////////////////////////////////////////////////////////////////////////////////////////////////\n    // Pause the contract if neccesary. Only the Gavels can do this.\n    function pause() public GAVELS {\n        _pause();\n    }\n\n    function unpause() public GAVELS {\n        require(isForeverLocked == false);\n        _unpause();\n    }\n\n    function _burnAllBadges() internal returns (bool) {\n        // burn all badges\n        uint256 index = 0;\n        for (index = 0; index < _tokenIdGenerator; index++) {\n            if (_exists(index)) {\n                _burn(index);\n            }   \n        }\n        _tokenIdGenerator = 0;\n        return true;\n    }\n\n    function refreshBadges(bool thisIsNotReversible) public THE_COURT returns (bool) {\n\n        if(thisIsNotReversible == true) {\n            // burn all badges\n            _burnAllBadges();\n            return true;\n        } else {return false;}\n    }\n\n\n    function destroyAndLockContract(uint valueMustBe69) public THE_COURT returns (bool) {\n\n        if(valueMustBe69 == 69) {\n            // burn all badges\n            _burnAllBadges();\n            // set protocol to locked\n            _pause();\n            isForeverLocked = true;\n            return isForeverLocked;\n        } else {return false;}\n    }\n\n\n    /////////////////////////////////////////////////////////////////////////////////////////////////\n    /////////////////////////////////////////////////////////////////////////////////////////////////\n    /// @dev                                                                                     ////\n    /// Transfer rules                                                                           ////\n    /////////////////////////////////////////////////////////////////////////////////////////////////\n    /////////////////////////////////////////////////////////////////////////////////////////////////\n    \n    function _isApprovedOrOwner(address spender, uint256 tokenId)\n        internal view virtual\n        override(ERC721)\n        returns (bool)\n    {\n        require(_exists(tokenId), \"ERC721: operator query for nonexistent token\");\n        address owner = ownerOf(tokenId);\n        return (owner == msg.sender || isApprovedForAll(owner, spender));\n    }\n\n    \n    function _approve(address to, uint256 tokenId)\n    internal virtual\n    override (ERC721)\n    {\n        require( hasRole(THE_COURT_ROLE, msg.sender),\n                    \"You do not have permission to approve this badge\");\n        super._approve(to, tokenId);\n    }\n\n    function isApprovedForAll(address owner, address operator)\n    public view virtual\n    override (ERC721)\n    returns (bool) {\n\n        bool isApproved = ( hasRole(THE_COURT_ROLE, operator)\n                            || hasRole(GAVELS_BAILIFF, operator)\n                            || hasRole(JURY_BAILIFF, operator));\n        return isApproved;\n    }\n\n\n    function setApprovalForAll(address operator, bool approved)\n    public virtual\n    override (ERC721) {\n        \n         require(   hasRole(THE_COURT_ROLE, msg.sender)\n                    || hasRole(GAVELS_BAILIFF, msg.sender)\n                    || hasRole(JURY_BAILIFF, msg.sender),\n                    \"You do not have permission to move this badge\");\n        super.setApprovalForAll(operator, approved);\n    }\n\n    function _beforeTokenTransfer(address from, address to, uint256 tokenId)\n        internal\n        override(ERC721, ERC721Enumerable)\n    {\n\n        super._beforeTokenTransfer(from, to, tokenId);\n    }\n\n    function supportsInterface(bytes4 interfaceId)\n        public\n        view\n        override(ERC721, ERC721Enumerable, AccessControlEnumerable)\n        returns (bool)\n    {\n        return super.supportsInterface(interfaceId);\n    }\n\n    //transfer functions from erc721 - need to override\n    function transferFrom(\n        address from,\n        address to,\n        uint256 tokenId\n    ) public virtual override {\n\n        address owner = ownerOf(tokenId);\n        require((msg.sender == owner || isApprovedForAll(from, msg.sender)),\n                    \"You do not have permission to move this badge\");\n        \n        super.transferFrom(from, to, tokenId);\n        // revert(\"You're not authorized to use this function\"); // makes function revert back/fail\n    }\n\n    function safeTransferFrom(\n        address from,\n        address to,\n        uint256 tokenId\n    ) public virtual override {\n        address owner = ownerOf(tokenId);\n        require( (msg.sender == owner || isApprovedForAll(from, msg.sender)),\n                    \"You do not have permission to move this badge\");\n        super.safeTransferFrom(from, to, tokenId);\n    }\n\n    /////////////////////////////////////////////////////////////////////////////////////////////////\n    /////////////////////////////////////////////////////////////////////////////////////////////////\n    /// @dev                                                                                     ////\n    /// End                                                                                      ////\n    /////////////////////////////////////////////////////////////////////////////////////////////////\n    /////////////////////////////////////////////////////////////////////////////////////////////////\n}",
  "sourcePath": "/home/n/Desktop/PinkSlips_FrontEnd_REFORMAT (copy)/contracts/src/ERC721/IdentityBadge.sol",
  "compiler": {
    "name": "solc",
    "version": "0.8.6+commit.11564f7e.Emscripten.clang"
  },
  "schemaVersion": "3.4.1",
  "updatedAt": "2021-08-08T00:16:26.752Z",
  "devdoc": {
    "kind": "dev",
    "methods": {
      "approve(address,uint256)": {
        "details": "See {IERC721-approve}."
      },
      "balanceOf(address)": {
        "details": "See {IERC721-balanceOf}."
      },
      "getApproved(uint256)": {
        "details": "See {IERC721-getApproved}."
      },
      "getRoleAdmin(bytes32)": {
        "details": "Returns the admin role that controls `role`. See {grantRole} and {revokeRole}. To change a role's admin, use {_setRoleAdmin}."
      },
      "getRoleMember(bytes32,uint256)": {
        "details": "Returns one of the accounts that have `role`. `index` must be a value between 0 and {getRoleMemberCount}, non-inclusive. Role bearers are not sorted in any particular way, and their ordering may change at any point. WARNING: When using {getRoleMember} and {getRoleMemberCount}, make sure you perform all queries on the same block. See the following https://forum.openzeppelin.com/t/iterating-over-elements-on-enumerableset-in-openzeppelin-contracts/2296[forum post] for more information."
      },
      "getRoleMemberCount(bytes32)": {
        "details": "Returns the number of accounts that have `role`. Can be used together with {getRoleMember} to enumerate all bearers of a role."
      },
      "grantRole(bytes32,address)": {
        "details": "Overload {grantRole} to track enumerable memberships"
      },
      "hasRole(bytes32,address)": {
        "details": "Returns `true` if `account` has been granted `role`."
      },
      "isApprovedForAll(address,address)": {
        "details": "See {IERC721-isApprovedForAll}."
      },
      "issueBadge(address,string,string,address,uint256,uint256)": {
        "details": "//// Issuance Desk                                                                            ////"
      },
      "name()": {
        "details": "See {IERC721Metadata-name}."
      },
      "ownerOf(uint256)": {
        "details": "See {IERC721-ownerOf}."
      },
      "pause()": {
        "details": "//// Maintanence\\\\\\\\\\\\\\\\\\\\\\\\\\\\\\\\\\\\\\\\\\\\\\\\\\\\\\                                                   ////"
      },
      "paused()": {
        "details": "Returns true if the contract is paused, and false otherwise."
      },
      "renounceRole(bytes32,address)": {
        "details": "Overload {renounceRole} to track enumerable memberships"
      },
      "revokeRole(bytes32,address)": {
        "details": "Overload {revokeRole} to track enumerable memberships"
      },
      "safeTransferFrom(address,address,uint256)": {
        "details": "See {IERC721-safeTransferFrom}."
      },
      "safeTransferFrom(address,address,uint256,bytes)": {
        "details": "See {IERC721-safeTransferFrom}."
      },
      "setApprovalForAll(address,bool)": {
        "details": "See {IERC721-setApprovalForAll}."
      },
      "symbol()": {
        "details": "See {IERC721Metadata-symbol}."
      },
      "tokenByIndex(uint256)": {
        "details": "See {IERC721Enumerable-tokenByIndex}."
      },
      "tokenOfOwnerByIndex(address,uint256)": {
        "details": "See {IERC721Enumerable-tokenOfOwnerByIndex}."
      },
      "tokenURI(uint256)": {
        "details": "See {IERC721Metadata-tokenURI}."
      },
      "totalSupply()": {
        "details": "See {IERC721Enumerable-totalSupply}."
      },
      "transferFrom(address,address,uint256)": {
        "details": "See {IERC721-transferFrom}."
      }
    },
    "version": 1
  },
  "userdoc": {
    "kind": "user",
    "methods": {},
    "version": 1
  }
}