{
  "contractName": "IdentityBadge",
  "abi": [
    {
      "inputs": [
        {
          "internalType": "string",
          "name": "_badgeName",
          "type": "string"
        },
        {
          "internalType": "string",
          "name": "_badgeSymbol",
          "type": "string"
        },
        {
          "internalType": "string",
          "name": "_socialPlatform",
          "type": "string"
        },
        {
          "internalType": "address",
          "name": "_AddressManagerAddress",
          "type": "address"
        }
      ],
      "stateMutability": "nonpayable",
      "type": "constructor"
    },
    {
      "anonymous": false,
      "inputs": [
        {
          "indexed": true,
          "internalType": "address",
          "name": "owner",
          "type": "address"
        },
        {
          "indexed": true,
          "internalType": "address",
          "name": "approved",
          "type": "address"
        },
        {
          "indexed": true,
          "internalType": "uint256",
          "name": "tokenId",
          "type": "uint256"
        }
      ],
      "name": "Approval",
      "type": "event"
    },
    {
      "anonymous": false,
      "inputs": [
        {
          "indexed": true,
          "internalType": "address",
          "name": "owner",
          "type": "address"
        },
        {
          "indexed": true,
          "internalType": "address",
          "name": "operator",
          "type": "address"
        },
        {
          "indexed": false,
          "internalType": "bool",
          "name": "approved",
          "type": "bool"
        }
      ],
      "name": "ApprovalForAll",
      "type": "event"
    },
    {
      "anonymous": false,
      "inputs": [
        {
          "indexed": false,
          "internalType": "address",
          "name": "account",
          "type": "address"
        }
      ],
      "name": "Paused",
      "type": "event"
    },
    {
      "anonymous": false,
      "inputs": [
        {
          "indexed": true,
          "internalType": "bytes32",
          "name": "role",
          "type": "bytes32"
        },
        {
          "indexed": true,
          "internalType": "bytes32",
          "name": "previousAdminRole",
          "type": "bytes32"
        },
        {
          "indexed": true,
          "internalType": "bytes32",
          "name": "newAdminRole",
          "type": "bytes32"
        }
      ],
      "name": "RoleAdminChanged",
      "type": "event"
    },
    {
      "anonymous": false,
      "inputs": [
        {
          "indexed": true,
          "internalType": "bytes32",
          "name": "role",
          "type": "bytes32"
        },
        {
          "indexed": true,
          "internalType": "address",
          "name": "account",
          "type": "address"
        },
        {
          "indexed": true,
          "internalType": "address",
          "name": "sender",
          "type": "address"
        }
      ],
      "name": "RoleGranted",
      "type": "event"
    },
    {
      "anonymous": false,
      "inputs": [
        {
          "indexed": true,
          "internalType": "bytes32",
          "name": "role",
          "type": "bytes32"
        },
        {
          "indexed": true,
          "internalType": "address",
          "name": "account",
          "type": "address"
        },
        {
          "indexed": true,
          "internalType": "address",
          "name": "sender",
          "type": "address"
        }
      ],
      "name": "RoleRevoked",
      "type": "event"
    },
    {
      "anonymous": false,
      "inputs": [
        {
          "indexed": true,
          "internalType": "address",
          "name": "from",
          "type": "address"
        },
        {
          "indexed": true,
          "internalType": "address",
          "name": "to",
          "type": "address"
        },
        {
          "indexed": true,
          "internalType": "uint256",
          "name": "tokenId",
          "type": "uint256"
        }
      ],
      "name": "Transfer",
      "type": "event"
    },
    {
      "anonymous": false,
      "inputs": [
        {
          "indexed": false,
          "internalType": "address",
          "name": "account",
          "type": "address"
        }
      ],
      "name": "Unpaused",
      "type": "event"
    },
    {
      "inputs": [],
      "name": "AddressManagerAddress",
      "outputs": [
        {
          "internalType": "address",
          "name": "",
          "type": "address"
        }
      ],
      "stateMutability": "view",
      "type": "function"
    },
    {
      "inputs": [],
      "name": "ChadBadgeAddress",
      "outputs": [
        {
          "internalType": "address",
          "name": "",
          "type": "address"
        }
      ],
      "stateMutability": "view",
      "type": "function"
    },
    {
      "inputs": [],
      "name": "ColoredIDAddress",
      "outputs": [
        {
          "internalType": "address",
          "name": "",
          "type": "address"
        }
      ],
      "stateMutability": "view",
      "type": "function"
    },
    {
      "inputs": [],
      "name": "CourtClerk",
      "outputs": [
        {
          "internalType": "address",
          "name": "",
          "type": "address"
        }
      ],
      "stateMutability": "view",
      "type": "function"
    },
    {
      "inputs": [],
      "name": "DEFAULT_ADMIN_ROLE",
      "outputs": [
        {
          "internalType": "bytes32",
          "name": "",
          "type": "bytes32"
        }
      ],
      "stateMutability": "view",
      "type": "function"
    },
    {
      "inputs": [],
      "name": "GAVELS_BAILIFF",
      "outputs": [
        {
          "internalType": "bytes32",
          "name": "",
          "type": "bytes32"
        }
      ],
      "stateMutability": "view",
      "type": "function"
    },
    {
      "inputs": [],
      "name": "GavelDAOAgent",
      "outputs": [
        {
          "internalType": "address",
          "name": "",
          "type": "address"
        }
      ],
      "stateMutability": "view",
      "type": "function"
    },
    {
      "inputs": [],
      "name": "GavelTokenAddress",
      "outputs": [
        {
          "internalType": "address",
          "name": "",
          "type": "address"
        }
      ],
      "stateMutability": "view",
      "type": "function"
    },
    {
      "inputs": [],
      "name": "GavelVote",
      "outputs": [
        {
          "internalType": "bool",
          "name": "",
          "type": "bool"
        }
      ],
      "stateMutability": "view",
      "type": "function"
    },
    {
      "inputs": [],
      "name": "GoldStarAddress",
      "outputs": [
        {
          "internalType": "address",
          "name": "",
          "type": "address"
        }
      ],
      "stateMutability": "view",
      "type": "function"
    },
    {
      "inputs": [
        {
          "internalType": "uint256",
          "name": "",
          "type": "uint256"
        }
      ],
      "name": "IDCardInfo",
      "outputs": [
        {
          "internalType": "string",
          "name": "pseudonym",
          "type": "string"
        },
        {
          "internalType": "string",
          "name": "socialHandle",
          "type": "string"
        },
        {
          "internalType": "address",
          "name": "avatarTokenAddress",
          "type": "address"
        },
        {
          "internalType": "uint256",
          "name": "avatarTokenId",
          "type": "uint256"
        },
        {
          "internalType": "uint256",
          "name": "avatarNetworkId",
          "type": "uint256"
        }
      ],
      "stateMutability": "view",
      "type": "function"
    },
    {
      "inputs": [],
      "name": "JERK_ROLE",
      "outputs": [
        {
          "internalType": "bytes32",
          "name": "",
          "type": "bytes32"
        }
      ],
      "stateMutability": "view",
      "type": "function"
    },
    {
      "inputs": [],
      "name": "JURY_BAILIFF",
      "outputs": [
        {
          "internalType": "bytes32",
          "name": "",
          "type": "bytes32"
        }
      ],
      "stateMutability": "view",
      "type": "function"
    },
    {
      "inputs": [],
      "name": "JuryDAOAgent",
      "outputs": [
        {
          "internalType": "address",
          "name": "",
          "type": "address"
        }
      ],
      "stateMutability": "view",
      "type": "function"
    },
    {
      "inputs": [],
      "name": "JuryPoolAddress",
      "outputs": [
        {
          "internalType": "address",
          "name": "",
          "type": "address"
        }
      ],
      "stateMutability": "view",
      "type": "function"
    },
    {
      "inputs": [],
      "name": "JuryVote",
      "outputs": [
        {
          "internalType": "bool",
          "name": "",
          "type": "bool"
        }
      ],
      "stateMutability": "view",
      "type": "function"
    },
    {
      "inputs": [],
      "name": "MINI_BAILIFF_ROLE",
      "outputs": [
        {
          "internalType": "bytes32",
          "name": "",
          "type": "bytes32"
        }
      ],
      "stateMutability": "view",
      "type": "function"
    },
    {
      "inputs": [],
      "name": "MiniBailiff",
      "outputs": [
        {
          "internalType": "address",
          "name": "",
          "type": "address"
        }
      ],
      "stateMutability": "view",
      "type": "function"
    },
    {
      "inputs": [],
      "name": "PinkSlipAddress",
      "outputs": [
        {
          "internalType": "address",
          "name": "",
          "type": "address"
        }
      ],
      "stateMutability": "view",
      "type": "function"
    },
    {
      "inputs": [
        {
          "internalType": "string",
          "name": "",
          "type": "string"
        }
      ],
      "name": "Pseudonym",
      "outputs": [
        {
          "internalType": "uint256",
          "name": "",
          "type": "uint256"
        }
      ],
      "stateMutability": "view",
      "type": "function"
    },
    {
      "inputs": [],
      "name": "RedPenTokenAddress",
      "outputs": [
        {
          "internalType": "address",
          "name": "",
          "type": "address"
        }
      ],
      "stateMutability": "view",
      "type": "function"
    },
    {
      "inputs": [
        {
          "internalType": "string",
          "name": "",
          "type": "string"
        }
      ],
      "name": "SocialHandle",
      "outputs": [
        {
          "internalType": "uint256",
          "name": "",
          "type": "uint256"
        }
      ],
      "stateMutability": "view",
      "type": "function"
    },
    {
      "inputs": [],
      "name": "THE_COURT_ROLE",
      "outputs": [
        {
          "internalType": "bytes32",
          "name": "",
          "type": "bytes32"
        }
      ],
      "stateMutability": "view",
      "type": "function"
    },
    {
      "inputs": [],
      "name": "TheCourtAddress",
      "outputs": [
        {
          "internalType": "address",
          "name": "",
          "type": "address"
        }
      ],
      "stateMutability": "view",
      "type": "function"
    },
    {
      "inputs": [],
      "name": "TreasuryAddress",
      "outputs": [
        {
          "internalType": "address",
          "name": "",
          "type": "address"
        }
      ],
      "stateMutability": "view",
      "type": "function"
    },
    {
      "inputs": [
        {
          "internalType": "uint256",
          "name": "",
          "type": "uint256"
        }
      ],
      "name": "UserTransferApproved",
      "outputs": [
        {
          "internalType": "bool",
          "name": "",
          "type": "bool"
        }
      ],
      "stateMutability": "view",
      "type": "function"
    },
    {
      "inputs": [],
      "name": "addressManager",
      "outputs": [
        {
          "internalType": "contract AddressManager",
          "name": "",
          "type": "address"
        }
      ],
      "stateMutability": "view",
      "type": "function"
    },
    {
      "inputs": [
        {
          "internalType": "address",
          "name": "to",
          "type": "address"
        },
        {
          "internalType": "uint256",
          "name": "tokenId",
          "type": "uint256"
        }
      ],
      "name": "approve",
      "outputs": [],
      "stateMutability": "nonpayable",
      "type": "function"
    },
    {
      "inputs": [],
      "name": "badgeColor",
      "outputs": [
        {
          "internalType": "string",
          "name": "",
          "type": "string"
        }
      ],
      "stateMutability": "view",
      "type": "function"
    },
    {
      "inputs": [],
      "name": "badgeName",
      "outputs": [
        {
          "internalType": "string",
          "name": "",
          "type": "string"
        }
      ],
      "stateMutability": "view",
      "type": "function"
    },
    {
      "inputs": [
        {
          "internalType": "address",
          "name": "owner",
          "type": "address"
        }
      ],
      "name": "balanceOf",
      "outputs": [
        {
          "internalType": "uint256",
          "name": "",
          "type": "uint256"
        }
      ],
      "stateMutability": "view",
      "type": "function"
    },
    {
      "inputs": [
        {
          "internalType": "uint256",
          "name": "tokenId",
          "type": "uint256"
        }
      ],
      "name": "getApproved",
      "outputs": [
        {
          "internalType": "address",
          "name": "",
          "type": "address"
        }
      ],
      "stateMutability": "view",
      "type": "function"
    },
    {
      "inputs": [
        {
          "internalType": "bytes32",
          "name": "role",
          "type": "bytes32"
        }
      ],
      "name": "getRoleAdmin",
      "outputs": [
        {
          "internalType": "bytes32",
          "name": "",
          "type": "bytes32"
        }
      ],
      "stateMutability": "view",
      "type": "function"
    },
    {
      "inputs": [
        {
          "internalType": "bytes32",
          "name": "role",
          "type": "bytes32"
        },
        {
          "internalType": "uint256",
          "name": "index",
          "type": "uint256"
        }
      ],
      "name": "getRoleMember",
      "outputs": [
        {
          "internalType": "address",
          "name": "",
          "type": "address"
        }
      ],
      "stateMutability": "view",
      "type": "function"
    },
    {
      "inputs": [
        {
          "internalType": "bytes32",
          "name": "role",
          "type": "bytes32"
        }
      ],
      "name": "getRoleMemberCount",
      "outputs": [
        {
          "internalType": "uint256",
          "name": "",
          "type": "uint256"
        }
      ],
      "stateMutability": "view",
      "type": "function"
    },
    {
      "inputs": [
        {
          "internalType": "bytes32",
          "name": "role",
          "type": "bytes32"
        },
        {
          "internalType": "address",
          "name": "account",
          "type": "address"
        }
      ],
      "name": "grantRole",
      "outputs": [],
      "stateMutability": "nonpayable",
      "type": "function"
    },
    {
      "inputs": [
        {
          "internalType": "bytes32",
          "name": "role",
          "type": "bytes32"
        },
        {
          "internalType": "address",
          "name": "account",
          "type": "address"
        }
      ],
      "name": "hasRole",
      "outputs": [
        {
          "internalType": "bool",
          "name": "",
          "type": "bool"
        }
      ],
      "stateMutability": "view",
      "type": "function"
    },
    {
      "inputs": [],
      "name": "isForeverLocked",
      "outputs": [
        {
          "internalType": "bool",
          "name": "",
          "type": "bool"
        }
      ],
      "stateMutability": "view",
      "type": "function"
    },
    {
      "inputs": [],
      "name": "jerkSanctions",
      "outputs": [
        {
          "internalType": "bool",
          "name": "",
          "type": "bool"
        }
      ],
      "stateMutability": "view",
      "type": "function"
    },
    {
      "inputs": [],
      "name": "name",
      "outputs": [
        {
          "internalType": "string",
          "name": "",
          "type": "string"
        }
      ],
      "stateMutability": "view",
      "type": "function"
    },
    {
      "inputs": [
        {
          "internalType": "uint256",
          "name": "tokenId",
          "type": "uint256"
        }
      ],
      "name": "ownerOf",
      "outputs": [
        {
          "internalType": "address",
          "name": "",
          "type": "address"
        }
      ],
      "stateMutability": "view",
      "type": "function"
    },
    {
      "inputs": [],
      "name": "paused",
      "outputs": [
        {
          "internalType": "bool",
          "name": "",
          "type": "bool"
        }
      ],
      "stateMutability": "view",
      "type": "function"
    },
    {
      "inputs": [
        {
          "internalType": "bytes32",
          "name": "role",
          "type": "bytes32"
        },
        {
          "internalType": "address",
          "name": "account",
          "type": "address"
        }
      ],
      "name": "renounceRole",
      "outputs": [],
      "stateMutability": "nonpayable",
      "type": "function"
    },
    {
      "inputs": [],
      "name": "resetVote",
      "outputs": [],
      "stateMutability": "nonpayable",
      "type": "function"
    },
    {
      "inputs": [
        {
          "internalType": "bytes32",
          "name": "role",
          "type": "bytes32"
        },
        {
          "internalType": "address",
          "name": "account",
          "type": "address"
        }
      ],
      "name": "revokeRole",
      "outputs": [],
      "stateMutability": "nonpayable",
      "type": "function"
    },
    {
      "inputs": [
        {
          "internalType": "address",
          "name": "from",
          "type": "address"
        },
        {
          "internalType": "address",
          "name": "to",
          "type": "address"
        },
        {
          "internalType": "uint256",
          "name": "tokenId",
          "type": "uint256"
        }
      ],
      "name": "safeTransferFrom",
      "outputs": [],
      "stateMutability": "nonpayable",
      "type": "function"
    },
    {
      "inputs": [
        {
          "internalType": "address",
          "name": "from",
          "type": "address"
        },
        {
          "internalType": "address",
          "name": "to",
          "type": "address"
        },
        {
          "internalType": "uint256",
          "name": "tokenId",
          "type": "uint256"
        },
        {
          "internalType": "bytes",
          "name": "_data",
          "type": "bytes"
        }
      ],
      "name": "safeTransferFrom",
      "outputs": [],
      "stateMutability": "nonpayable",
      "type": "function"
    },
    {
      "inputs": [],
      "name": "socialPlatform",
      "outputs": [
        {
          "internalType": "string",
          "name": "",
          "type": "string"
        }
      ],
      "stateMutability": "view",
      "type": "function"
    },
    {
      "inputs": [],
      "name": "symbol",
      "outputs": [
        {
          "internalType": "string",
          "name": "",
          "type": "string"
        }
      ],
      "stateMutability": "view",
      "type": "function"
    },
    {
      "inputs": [],
      "name": "syncAllRoles",
      "outputs": [],
      "stateMutability": "nonpayable",
      "type": "function"
    },
    {
      "inputs": [
        {
          "internalType": "bytes32",
          "name": "ROLE_TO_SYNC",
          "type": "bytes32"
        }
      ],
      "name": "syncSingleRole",
      "outputs": [],
      "stateMutability": "nonpayable",
      "type": "function"
    },
    {
      "inputs": [],
      "name": "syncVotes",
      "outputs": [],
      "stateMutability": "nonpayable",
      "type": "function"
    },
    {
      "inputs": [
        {
          "internalType": "uint256",
          "name": "index",
          "type": "uint256"
        }
      ],
      "name": "tokenByIndex",
      "outputs": [
        {
          "internalType": "uint256",
          "name": "",
          "type": "uint256"
        }
      ],
      "stateMutability": "view",
      "type": "function"
    },
    {
      "inputs": [
        {
          "internalType": "address",
          "name": "owner",
          "type": "address"
        },
        {
          "internalType": "uint256",
          "name": "index",
          "type": "uint256"
        }
      ],
      "name": "tokenOfOwnerByIndex",
      "outputs": [
        {
          "internalType": "uint256",
          "name": "",
          "type": "uint256"
        }
      ],
      "stateMutability": "view",
      "type": "function"
    },
    {
      "inputs": [],
      "name": "totalSupply",
      "outputs": [
        {
          "internalType": "uint256",
          "name": "",
          "type": "uint256"
        }
      ],
      "stateMutability": "view",
      "type": "function"
    },
    {
      "inputs": [
        {
          "internalType": "address",
          "name": "from",
          "type": "address"
        },
        {
          "internalType": "address",
          "name": "to",
          "type": "address"
        },
        {
          "internalType": "uint256",
          "name": "tokenId",
          "type": "uint256"
        }
      ],
      "name": "transferFrom",
      "outputs": [],
      "stateMutability": "nonpayable",
      "type": "function"
    },
    {
      "inputs": [],
      "name": "updateAddressManager",
      "outputs": [],
      "stateMutability": "nonpayable",
      "type": "function"
    },
    {
      "inputs": [],
      "name": "updateAllAddresses",
      "outputs": [],
      "stateMutability": "nonpayable",
      "type": "function"
    },
    {
      "inputs": [],
      "name": "updateAllRoles",
      "outputs": [],
      "stateMutability": "nonpayable",
      "type": "function"
    },
    {
      "inputs": [],
      "name": "updateDAOAddresses",
      "outputs": [],
      "stateMutability": "nonpayable",
      "type": "function"
    },
    {
      "inputs": [
        {
          "internalType": "bytes32",
          "name": "ROLE_TO_UPDATE",
          "type": "bytes32"
        }
      ],
      "name": "updateSingleRole",
      "outputs": [],
      "stateMutability": "nonpayable",
      "type": "function"
    },
    {
      "inputs": [],
      "name": "updateTokenAddresses",
      "outputs": [],
      "stateMutability": "nonpayable",
      "type": "function"
    },
    {
      "inputs": [
        {
          "internalType": "address",
          "name": "_avatarTokenAddress",
          "type": "address"
        },
        {
          "internalType": "uint256",
          "name": "_avatarTokenId",
          "type": "uint256"
        }
      ],
      "name": "updateAvatar",
      "outputs": [],
      "stateMutability": "nonpayable",
      "type": "function"
    },
    {
      "inputs": [
        {
          "internalType": "uint256",
          "name": "_tokenId",
          "type": "uint256"
        },
        {
          "internalType": "address",
          "name": "_avatarTokenAddress",
          "type": "address"
        },
        {
          "internalType": "uint256",
          "name": "_avatarTokenId",
          "type": "uint256"
        },
        {
          "internalType": "uint256",
          "name": "_avatarNetworkId",
          "type": "uint256"
        }
      ],
      "name": "updateAvatar",
      "outputs": [],
      "stateMutability": "nonpayable",
      "type": "function"
    },
    {
      "inputs": [
        {
          "internalType": "uint256",
          "name": "_tokenId",
          "type": "uint256"
        },
        {
          "internalType": "address",
          "name": "_avatarTokenAddress",
          "type": "address"
        },
        {
          "internalType": "uint256",
          "name": "_avatarTokenId",
          "type": "uint256"
        }
      ],
      "name": "updateAvatar",
      "outputs": [],
      "stateMutability": "nonpayable",
      "type": "function"
    },
    {
      "inputs": [
        {
          "internalType": "uint256",
          "name": "_tokenId",
          "type": "uint256"
        },
        {
          "internalType": "string",
          "name": "_imageHash",
          "type": "string"
        }
      ],
      "name": "updateImageHash",
      "outputs": [],
      "stateMutability": "nonpayable",
      "type": "function"
    },
    {
      "inputs": [
        {
          "internalType": "string",
          "name": "_SocialHandle",
          "type": "string"
        }
      ],
      "name": "getIDFromHandle",
      "outputs": [
        {
          "internalType": "uint256",
          "name": "_tokenId",
          "type": "uint256"
        }
      ],
      "stateMutability": "view",
      "type": "function"
    },
    {
      "inputs": [
        {
          "internalType": "uint256",
          "name": "_tokenId",
          "type": "uint256"
        }
      ],
      "name": "getBadgeInfo",
      "outputs": [
        {
          "internalType": "string",
          "name": "_pseudonym",
          "type": "string"
        },
        {
          "internalType": "string",
          "name": "_socialHandle",
          "type": "string"
        },
        {
          "internalType": "address",
          "name": "_avatarTokenAddress",
          "type": "address"
        },
        {
          "internalType": "uint256",
          "name": "_avatarTokenId",
          "type": "uint256"
        }
      ],
      "stateMutability": "view",
      "type": "function"
    },
    {
      "inputs": [
        {
          "internalType": "address",
          "name": "receivingAddress",
          "type": "address"
        },
        {
          "internalType": "string",
          "name": "_pseudonym",
          "type": "string"
        },
        {
          "internalType": "string",
          "name": "_socialHandle",
          "type": "string"
        },
        {
          "internalType": "address",
          "name": "_avatarTokenAddress",
          "type": "address"
        },
        {
          "internalType": "uint256",
          "name": "_avatarTokenId",
          "type": "uint256"
        },
        {
          "internalType": "uint256",
          "name": "_tokenId",
          "type": "uint256"
        }
      ],
      "name": "issueBadge",
      "outputs": [
        {
          "internalType": "uint256",
          "name": "newId",
          "type": "uint256"
        }
      ],
      "stateMutability": "nonpayable",
      "type": "function"
    },
    {
      "inputs": [
        {
          "internalType": "address",
          "name": "receivingAddress",
          "type": "address"
        },
        {
          "internalType": "string",
          "name": "_pseudonym",
          "type": "string"
        },
        {
          "internalType": "string",
          "name": "_socialHandle",
          "type": "string"
        },
        {
          "internalType": "address",
          "name": "_avatarTokenAddress",
          "type": "address"
        },
        {
          "internalType": "uint256",
          "name": "_avatarTokenId",
          "type": "uint256"
        },
        {
          "internalType": "uint256",
          "name": "_avatarNetworkId",
          "type": "uint256"
        },
        {
          "internalType": "uint256",
          "name": "_tokenId",
          "type": "uint256"
        }
      ],
      "name": "issueBadge",
      "outputs": [
        {
          "internalType": "uint256",
          "name": "newId",
          "type": "uint256"
        }
      ],
      "stateMutability": "nonpayable",
      "type": "function"
    },
    {
      "inputs": [
        {
          "internalType": "address",
          "name": "receivingAddress",
          "type": "address"
        },
        {
          "internalType": "string",
          "name": "_pseudonym",
          "type": "string"
        },
        {
          "internalType": "string",
          "name": "_socialHandle",
          "type": "string"
        },
        {
          "internalType": "address",
          "name": "_avatarTokenAddress",
          "type": "address"
        },
        {
          "internalType": "uint256",
          "name": "_avatarTokenId",
          "type": "uint256"
        },
        {
          "internalType": "uint256",
          "name": "_avatarNetworkId",
          "type": "uint256"
        },
        {
          "internalType": "uint256",
          "name": "_tokenId",
          "type": "uint256"
        },
        {
          "internalType": "string",
          "name": "_tokenURI",
          "type": "string"
        }
      ],
      "name": "issueBadge",
      "outputs": [
        {
          "internalType": "uint256",
          "name": "newId",
          "type": "uint256"
        }
      ],
      "stateMutability": "nonpayable",
      "type": "function"
    },
    {
      "inputs": [
        {
          "internalType": "uint256",
          "name": "_tokenId",
          "type": "uint256"
        }
      ],
      "name": "revokeBadge",
      "outputs": [],
      "stateMutability": "nonpayable",
      "type": "function"
    },
    {
      "inputs": [],
      "name": "pause",
      "outputs": [],
      "stateMutability": "nonpayable",
      "type": "function"
    },
    {
      "inputs": [],
      "name": "unpause",
      "outputs": [],
      "stateMutability": "nonpayable",
      "type": "function"
    },
    {
      "inputs": [
        {
          "internalType": "bool",
          "name": "_thisIsNotReversible",
          "type": "bool"
        }
      ],
      "name": "refreshBadges",
      "outputs": [
        {
          "internalType": "bool",
          "name": "",
          "type": "bool"
        }
      ],
      "stateMutability": "nonpayable",
      "type": "function"
    },
    {
      "inputs": [
        {
          "internalType": "uint256",
          "name": "_valueMustBe69",
          "type": "uint256"
        }
      ],
      "name": "destroyAndLockContract",
      "outputs": [
        {
          "internalType": "bool",
          "name": "",
          "type": "bool"
        }
      ],
      "stateMutability": "nonpayable",
      "type": "function"
    },
    {
      "inputs": [
        {
          "internalType": "uint256",
          "name": "_tokenId",
          "type": "uint256"
        }
      ],
      "name": "tokenURI",
      "outputs": [
        {
          "internalType": "string",
          "name": "_URI",
          "type": "string"
        }
      ],
      "stateMutability": "view",
      "type": "function"
    },
    {
      "inputs": [
        {
          "internalType": "uint256",
          "name": "_tokenId",
          "type": "uint256"
        }
      ],
      "name": "approveUserTransfer",
      "outputs": [],
      "stateMutability": "nonpayable",
      "type": "function"
    },
    {
      "inputs": [
        {
          "internalType": "address",
          "name": "owner",
          "type": "address"
        },
        {
          "internalType": "address",
          "name": "operator",
          "type": "address"
        }
      ],
      "name": "isApprovedForAll",
      "outputs": [
        {
          "internalType": "bool",
          "name": "",
          "type": "bool"
        }
      ],
      "stateMutability": "view",
      "type": "function"
    },
    {
      "inputs": [
        {
          "internalType": "address",
          "name": "operator",
          "type": "address"
        },
        {
          "internalType": "bool",
          "name": "approved",
          "type": "bool"
        }
      ],
      "name": "setApprovalForAll",
      "outputs": [],
      "stateMutability": "nonpayable",
      "type": "function"
    },
    {
      "inputs": [
        {
          "internalType": "bytes4",
          "name": "interfaceId",
          "type": "bytes4"
        }
      ],
      "name": "supportsInterface",
      "outputs": [
        {
          "internalType": "bool",
          "name": "",
          "type": "bool"
        }
      ],
      "stateMutability": "view",
      "type": "function"
    }
  ],
  "bytecode": "0x60806040526000805460ff199081169091556011805463ffffffff60a01b191690556001601e55601f805490911690553480156200003c57600080fd5b50604051620062fc380380620062fc8339810160408190526200005f9162000e81565b600380546001600160a01b0383166001600160a01b031991821681179092556011805490911690911790558383826200009762000263565b620000a162000279565b600f54620000bb906000906001600160a01b0316620003c4565b600f54620000f4907f0538d24a8b7882d7b2e36af243d4af61c23e86e3daa6cb8c887b53220b2f5720906001600160a01b0316620003c4565b600c546200012d907f048bc71fa1cb2c119c339cf9cf00a97996a19a9d991ce5fe049f2fa5459e7990906001600160a01b0316620003c4565b600d5462000166907ffa8e4989e1d689f7bc5c4b25b87efb51fecdecb19ba62847e29c759e12a89acd906001600160a01b0316620003c4565b6010546200019f907ff0f4b159a6e2a4815eb3ca3df080bfa70c9270662c59bcaa4479a456220183e6906001600160a01b0316620003c4565b620001cc7f7c9d7f6f02908185bffb3f7fc9afb29fd7bf93675af8fd4b655ee05c2cee1e0e6000620003c4565b508151620001e290601290602085019062000c3a565b508051620001f890601390602084019062000c3a565b50506018805460ff19169055506200020f62000263565b82516200022490602190602086019062000c3a565b5083516200023a90602290602087019062000c3a565b5060208080546200024b9062000f25565b6200025892919062000cc9565b505050505062000f78565b6200026d62000407565b6200027762000707565b565b601160009054906101000a90046001600160a01b03166001600160a01b031663ff7e88ec6040518163ffffffff1660e01b815260040160206040518083038186803b158015620002c857600080fd5b505afa158015620002dd573d6000803e3d6000fd5b505050506040513d601f19601f8201168201806040525081019062000303919062000e56565b601160156101000a81548160ff021916908315150217905550601160009054906101000a90046001600160a01b03166001600160a01b0316632fb565856040518163ffffffff1660e01b815260040160206040518083038186803b1580156200036b57600080fd5b505afa15801562000380573d6000803e3d6000fd5b505050506040513d601f19601f82011682018060405250810190620003a6919062000e56565b60118054911515600160b01b0260ff60b01b19909216919091179055565b620003db828262000b3060201b62001d6b1760201c565b60008281526002602090815260409091206200040291839062001d7562000b40821b17901c565b505050565b601160009054906101000a90046001600160a01b03166001600160a01b031663dadf56ac6040518163ffffffff1660e01b815260040160206040518083038186803b1580156200045657600080fd5b505afa1580156200046b573d6000803e3d6000fd5b505050506040513d601f19601f8201168201806040525081019062000491919062000e38565b600c80546001600160a01b0319166001600160a01b039283161790556011546040805163024bebe960e01b81529051919092169163024bebe9916004808301926020929190829003018186803b158015620004eb57600080fd5b505afa15801562000500573d6000803e3d6000fd5b505050506040513d601f19601f8201168201806040525081019062000526919062000e38565b600d80546001600160a01b0319166001600160a01b0392831617905560115460408051635b5c251f60e01b815290519190921691635b5c251f916004808301926020929190829003018186803b1580156200058057600080fd5b505afa15801562000595573d6000803e3d6000fd5b505050506040513d601f19601f82011682018060405250810190620005bb919062000e38565b600e80546001600160a01b0319166001600160a01b0392831617905560115460408051637310bf1d60e11b81529051919092169163e6217e3a916004808301926020929190829003018186803b1580156200061557600080fd5b505afa1580156200062a573d6000803e3d6000fd5b505050506040513d601f19601f8201168201806040525081019062000650919062000e38565b601080546001600160a01b0319166001600160a01b039283161790556011546040805163d88127a160e01b81529051919092169163d88127a1916004808301926020929190829003018186803b158015620006aa57600080fd5b505afa158015620006bf573d6000803e3d6000fd5b505050506040513d601f19601f82011682018060405250810190620006e5919062000e38565b600b80546001600160a01b0319166001600160a01b0392909216919091179055565b601160009054906101000a90046001600160a01b03166001600160a01b03166321d7f0086040518163ffffffff1660e01b815260040160206040518083038186803b1580156200075657600080fd5b505afa1580156200076b573d6000803e3d6000fd5b505050506040513d601f19601f8201168201806040525081019062000791919062000e38565b600480546001600160a01b0319166001600160a01b039283161781556011546040805163762ddb5960e01b81529051919093169263762ddb599281810192602092909190829003018186803b158015620007ea57600080fd5b505afa158015620007ff573d6000803e3d6000fd5b505050506040513d601f19601f8201168201806040525081019062000825919062000e38565b600580546001600160a01b0319166001600160a01b039283161790556011546040805163bfb7dc9960e01b81529051919092169163bfb7dc99916004808301926020929190829003018186803b1580156200087f57600080fd5b505afa15801562000894573d6000803e3d6000fd5b505050506040513d601f19601f82011682018060405250810190620008ba919062000e38565b600680546001600160a01b0319166001600160a01b0392831617905560115460408051633e6111eb60e21b81529051919092169163f98447ac916004808301926020929190829003018186803b1580156200091457600080fd5b505afa15801562000929573d6000803e3d6000fd5b505050506040513d601f19601f820116820180604052508101906200094f919062000e38565b600780546001600160a01b0319166001600160a01b0392831617905560115460408051630fe1ba9f60e21b815290519190921691633f86ea7c916004808301926020929190829003018186803b158015620009a957600080fd5b505afa158015620009be573d6000803e3d6000fd5b505050506040513d601f19601f82011682018060405250810190620009e4919062000e38565b600880546001600160a01b0319166001600160a01b0392831617905560115460408051632b90024160e11b8152905191909216916357200482916004808301926020929190829003018186803b15801562000a3e57600080fd5b505afa15801562000a53573d6000803e3d6000fd5b505050506040513d601f19601f8201168201806040525081019062000a79919062000e38565b600980546001600160a01b0319166001600160a01b0392831617905560115460408051636b58477560e01b815290519190921691636b584775916004808301926020929190829003018186803b15801562000ad357600080fd5b505afa15801562000ae8573d6000803e3d6000fd5b505050506040513d601f19601f8201168201806040525081019062000b0e919062000e38565b600a80546001600160a01b0319166001600160a01b0392909216919091179055565b62000b3c828262000b60565b5050565b600062000b57836001600160a01b03841662000be8565b90505b92915050565b60008281526001602090815260408083206001600160a01b038516845290915290205460ff1662000b3c5760008281526001602081815260408084206001600160a01b0386168086529252808420805460ff19169093179092559051339285917f2f8788117e7eff1d82e926ec794901d17c78024a50270940304540a733656f0d9190a45050565b600081815260018301602052604081205462000c315750815460018181018455600084815260208082209093018490558454848252828601909352604090209190915562000b5a565b50600062000b5a565b82805462000c489062000f25565b90600052602060002090601f01602090048101928262000c6c576000855562000cb7565b82601f1062000c8757805160ff191683800117855562000cb7565b8280016001018555821562000cb7579182015b8281111562000cb757825182559160200191906001019062000c9a565b5062000cc592915062000d4d565b5090565b82805462000cd79062000f25565b90600052602060002090601f01602090048101928262000cfb576000855562000cb7565b82601f1062000d0e578054855562000cb7565b8280016001018555821562000cb757600052602060002091601f016020900482015b8281111562000cb757825482559160010191906001019062000d30565b5b8082111562000cc5576000815560010162000d4e565b80516001600160a01b038116811462000d7c57600080fd5b919050565b600082601f83011262000d9357600080fd5b81516001600160401b038082111562000db05762000db062000f62565b604051601f8301601f19908116603f0116810190828211818310171562000ddb5762000ddb62000f62565b8160405283815260209250868385880101111562000df857600080fd5b600091505b8382101562000e1c578582018301518183018401529082019062000dfd565b8382111562000e2e5760008385830101525b9695505050505050565b60006020828403121562000e4b57600080fd5b62000b578262000d64565b60006020828403121562000e6957600080fd5b8151801515811462000e7a57600080fd5b9392505050565b6000806000806080858703121562000e9857600080fd5b84516001600160401b038082111562000eb057600080fd5b62000ebe8883890162000d81565b9550602087015191508082111562000ed557600080fd5b62000ee38883890162000d81565b9450604087015191508082111562000efa57600080fd5b5062000f098782880162000d81565b92505062000f1a6060860162000d64565b905092959194509250565b600181811c9082168062000f3a57607f821691505b6020821081141562000f5c57634e487b7160e01b600052602260045260246000fd5b50919050565b634e487b7160e01b600052604160045260246000fd5b6153748062000f886000396000f3fe608060405234801561001057600080fd5b506004361061048b5760003560e01c80635f41346611610262578063bfb7dc9911610151578063dea6f9c8116100ce578063e985e9c511610092578063e985e9c514610a30578063e9a5323014610a43578063f1132b3014610a58578063f7d92d8614610a60578063f98447ac14610a68578063ff7e88ec14610a7b57600080fd5b8063dea6f9c8146109b4578063e2045b5e146109bc578063e346195a146109df578063e6217e3a14610a0a578063e78c266c14610a1d57600080fd5b8063cce8439211610115578063cce8439214610951578063cf4ece1514610966578063d547741f1461097b578063d88127a11461098e578063dadf56ac146109a157600080fd5b8063bfb7dc99146108f2578063c62b28e814610905578063c87b56dd14610918578063c963e4d61461092b578063ca15c8731461093e57600080fd5b806391d14854116101df578063a22cb465116101a3578063a22cb46514610890578063a32c5e59146108a3578063a4369b71146108b8578063a78e746f146108cb578063b88d4fde146108df57600080fd5b806391d148541461084d57806395d89b411461086057806396ac6bf0146108685780639ac3eaa71461087b578063a217fddf1461088857600080fd5b806370a082311161022657806370a08231146107f9578063762ddb591461080c578063765160781461081f5780638456cb59146108325780639010d07c1461083a57600080fd5b80635f413466146107a5578063610c3009146107b8578063625a5800146107c05780636352211e146107d35780636b584775146107e657600080fd5b80632fb565851161037e57806349b5e105116102fb57806357200482116102bf578063572004821461075957806357f276ff1461076c5780635b5c251f1461077f5780635c975abb146107925780635db531a11461079d57600080fd5b806349b5e1051461071b5780634a47f147146107235780634d84c6d8146107365780634e0ba9681461073e5780634f6ccce71461074657600080fd5b80633ab76e9f116103425780633ab76e9f146106c75780633f4ba83a146106da5780633f86ea7c146106e2578063422d68e9146106f557806342842e0e1461070857600080fd5b80632fb565851461067d578063326a55e014610691578063329a8cfa1461069957806335ea18e8146106a157806336568abe146106b457600080fd5b80631fb4f43b1161040c578063248a9ca3116103d0578063248a9ca3146105e55780632be48d34146106095780632f2e8fda146106345780632f2ff15d146106575780632f745c591461066a57600080fd5b80631fb4f43b146105735780631fb58ad91461059757806321d7f008146105aa57806323b872dd146105bd5780632436329d146105d057600080fd5b80630cf8e42f116104535780630cf8e42f146105205780630e957b0b14610533578063130f63201461054657806317314d5a1461055957806318160ddd1461056157600080fd5b806301ffc9a714610490578063024bebe9146104b857806306fdde03146104e3578063081812fc146104f8578063095ea7b31461050b575b600080fd5b6104a361049e366004614d18565b610a8f565b60405190151581526020015b60405180910390f35b600d546104cb906001600160a01b031681565b6040516001600160a01b0390911681526020016104af565b6104eb610aa0565b6040516104af9190614f74565b6104cb610506366004614cb8565b610b32565b61051e610519366004614c52565b610bbf565b005b61051e61052e366004614c52565b610cd5565b61051e610541366004614dc7565b610d04565b61051e610554366004614cb8565b610d56565b61051e610d8b565b601c545b6040519081526020016104af565b610586610581366004614cb8565b610db4565b6040516104af959493929190614fc9565b61051e6105a5366004614cb8565b610efe565b6004546104cb906001600160a01b031681565b61051e6105cb36600461495d565b610f8f565b61056560008051602061529f83398151915281565b6105656105f3366004614cb8565b6000908152600160208190526040909120015490565b610565610617366004614d52565b805160208183018101805160268252928201919093012091525481565b6104a3610642366004614cb8565b60236020526000908152604090205460ff1681565b61051e610665366004614cd1565b610fc0565b610565610678366004614c52565b610fe2565b6011546104a390600160b01b900460ff1681565b61051e611078565b61051e611088565b6105656106af366004614a4c565b611168565b61051e6106c2366004614cd1565b611208565b6011546104cb906001600160a01b031681565b61051e61122a565b6008546104cb906001600160a01b031681565b61051e610703366004614da0565b6112bc565b61051e61071636600461495d565b6112da565b61051e6112f5565b61051e610731366004614e04565b6112fd565b61051e611080565b6104eb611326565b610565610754366004614cb8565b6113b4565b6009546104cb906001600160a01b031681565b61051e61077a366004614cb8565b611447565b600e546104cb906001600160a01b031681565b60185460ff166104a3565b61051e61145b565b600f546104cb906001600160a01b031681565b6104eb611463565b6105656107ce366004614ae7565b611470565b6104cb6107e1366004614cb8565b611500565b600a546104cb906001600160a01b031681565b6105656108073660046148ea565b611577565b6005546104cb906001600160a01b031681565b6104a361082d366004614c7e565b6115fe565b61051e6116ff565b6104cb610848366004614cf6565b611781565b6104a361085b366004614cd1565b6117a0565b6104eb6117cb565b6104a3610876366004614cb8565b6117da565b601f546104a39060ff1681565b610565600081565b61051e61089e366004614a1e565b6118e6565b6105656000805160206152ff83398151915281565b6105656108c6366004614d52565b61198d565b6011546104a390600160a01b900460ff1681565b61051e6108ed36600461499e565b6119b5565b6006546104cb906001600160a01b031681565b61051e610913366004614cb8565b6119e7565b6104eb610926366004614cb8565b611a63565b610565610939366004614b8b565b611a6e565b61056561094c366004614cb8565b611aef565b61056560008051602061531f83398151915281565b6105656000805160206152df83398151915281565b61051e610989366004614cd1565b611b06565b600b546104cb906001600160a01b031681565b600c546104cb906001600160a01b031681565b6104eb611b10565b6109cf6109ca366004614cb8565b611b1d565b6040516104af9493929190614f87565b6105656109ed366004614d52565b805160208183018101805160258252928201919093012091525481565b6010546104cb906001600160a01b031681565b6003546104cb906001600160a01b031681565b6104a3610a3e366004614924565b611c82565b6105656000805160206152bf83398151915281565b61051e611cc3565b61051e611ccb565b6007546104cb906001600160a01b031681565b6011546104a390600160a81b900460ff1681565b6000610a9a82611d8a565b92915050565b606060128054610aaf9061518d565b80601f0160208091040260200160405190810160405280929190818152602001828054610adb9061518d565b8015610b285780601f10610afd57610100808354040283529160200191610b28565b820191906000526020600020905b815481529060010190602001808311610b0b57829003601f168201915b5050505050905090565b6000610b3d82611daf565b610ba35760405162461bcd60e51b815260206004820152602c60248201527f4552433732313a20617070726f76656420717565727920666f72206e6f6e657860448201526b34b9ba32b73a103a37b5b2b760a11b60648201526084015b60405180910390fd5b506000908152601660205260409020546001600160a01b031690565b6000610bca82611500565b9050806001600160a01b0316836001600160a01b03161415610c385760405162461bcd60e51b815260206004820152602160248201527f4552433732313a20617070726f76616c20746f2063757272656e74206f776e656044820152603960f91b6064820152608401610b9a565b336001600160a01b0382161480610c545750610c548133611c82565b610cc65760405162461bcd60e51b815260206004820152603860248201527f4552433732313a20617070726f76652063616c6c6572206973206e6f74206f7760448201527f6e6572206e6f7220617070726f76656420666f7220616c6c00000000000000006064820152608401610b9a565b610cd08383611dcc565b505050565b6000610ce033611577565b11610cea57600080fd5b6000610cf7336000610fe2565b9050610cd0818484611e3a565b610d0e3385611e72565b610d1757600080fd5b60008481526024602052604090206002810180546001600160a01b0319166001600160a01b038616179055600381018390556004018190555b50505050565b610d606001611f34565b50610d6a81611fe6565b50610d7481612161565b50610d7f6000611f34565b610d8857600080fd5b50565b610d956001611f34565b50610d9e6122ea565b50610da96000611f34565b610db257600080fd5b565b602460205260009081526040902080548190610dcf9061518d565b80601f0160208091040260200160405190810160405280929190818152602001828054610dfb9061518d565b8015610e485780601f10610e1d57610100808354040283529160200191610e48565b820191906000526020600020905b815481529060010190602001808311610e2b57829003601f168201915b505050505090806001018054610e5d9061518d565b80601f0160208091040260200160405190810160405280929190818152602001828054610e899061518d565b8015610ed65780601f10610eab57610100808354040283529160200191610ed6565b820191906000526020600020905b815481529060010190602001808311610eb957829003601f168201915b505050506002830154600384015460049094015492936001600160a01b039091169290915085565b610f166000805160206152ff833981519152336117a0565b80610f345750610f346000805160206152bf833981519152336117a0565b80610f525750610f5260008051602061529f833981519152336117a0565b610f6e5760405162461bcd60e51b8152600401610b9a90615015565b6000818152602360205260409020805460ff19166001908117909155610d7f565b610f993382611e72565b610fb55760405162461bcd60e51b8152600401610b9a90615097565b610cd0838383612430565b610fca82826125db565b6000828152600260205260409020610cd09082611d75565b6000610fed83611577565b821061104f5760405162461bcd60e51b815260206004820152602b60248201527f455243373231456e756d657261626c653a206f776e657220696e646578206f7560448201526a74206f6620626f756e647360a81b6064820152608401610b9a565b506001600160a01b03919091166000908152601a60209081526040808320938352929052205490565b611080612615565b610db2612901565b6110a06000805160206152ff833981519152336117a0565b806110be57506110be6000805160206152bf833981519152336117a0565b806110dc57506110dc60008051602061529f833981519152336117a0565b6110f85760405162461bcd60e51b8152600401610b9a90615015565b601160009054906101000a90046001600160a01b03166001600160a01b031663329a8cfa6040518163ffffffff1660e01b8152600401600060405180830381600087803b15801561114857600080fd5b505af115801561115c573d6000803e3d6000fd5b50505050610db261145b565b60006111826000805160206152ff833981519152336117a0565b806111a057506111a06000805160206152bf833981519152336117a0565b806111be57506111be60008051602061529f833981519152336117a0565b6111da5760405162461bcd60e51b8152600401610b9a90615015565b6040805160208101909152600081526001906111fb89898989898787612d0e565b9998505050505050505050565b6112128282612dd6565b6000828152600260205260409020610cd09082612e50565b6112426000805160206152bf833981519152336117a0565b8061126057506112606000805160206152ff833981519152336117a0565b6112a45760405162461bcd60e51b8152602060048201526015602482015274596f75277265206e6f742074686520476176656c7360581b6044820152606401610b9a565b601f5460ff16156112b457600080fd5b610db2612e65565b6112c63384611e72565b6112cf57600080fd5b610cd0838383611e3a565b610cd0838383604051806020016040528060008152506119b5565b610db2612615565b61130f61130983611500565b33611c82565b61131857600080fd5b6113228282612ef8565b5050565b602080546113339061518d565b80601f016020809104026020016040519081016040528092919081815260200182805461135f9061518d565b80156113ac5780601f10611381576101008083540402835291602001916113ac565b820191906000526020600020905b81548152906001019060200180831161138f57829003601f168201915b505050505081565b60006113bf601c5490565b82106114225760405162461bcd60e51b815260206004820152602c60248201527f455243373231456e756d657261626c653a20676c6f62616c20696e646578206f60448201526b7574206f6620626f756e647360a01b6064820152608401610b9a565b601c828154811061143557611435615239565b90600052602060002001549050919050565b6114516001611f34565b50610d7481612f83565b610db26131de565b602280546113339061518d565b600061148a6000805160206152ff833981519152336117a0565b806114a857506114a86000805160206152bf833981519152336117a0565b806114c657506114c660008051602061529f833981519152336117a0565b6114e25760405162461bcd60e51b8152600401610b9a90615015565b6040805160208101909152600081526111fb89898989898987612d0e565b6000818152601460205260408120546001600160a01b031680610a9a5760405162461bcd60e51b815260206004820152602960248201527f4552433732313a206f776e657220717565727920666f72206e6f6e657869737460448201526832b73a103a37b5b2b760b91b6064820152608401610b9a565b60006001600160a01b0382166115e25760405162461bcd60e51b815260206004820152602a60248201527f4552433732313a2062616c616e636520717565727920666f7220746865207a65604482015269726f206164647265737360b01b6064820152608401610b9a565b506001600160a01b031660009081526015602052604090205490565b60006116186000805160206152bf833981519152336117a0565b80611636575061163660008051602061529f833981519152336117a0565b8061165457506116546000805160206152ff833981519152336117a0565b61165d57600080fd5b601154600160b01b810460ff9081161515600160a81b909204161515146001148061169b575061169b6000805160206152ff833981519152336117a0565b6116da5760405162461bcd60e51b815260206004820152601060248201526f436f757274204d75737420416772656560801b6044820152606401610b9a565b600182151514156116f6576116ed613321565b50600192915050565b5060005b919050565b6117176000805160206152bf833981519152336117a0565b8061173557506117356000805160206152ff833981519152336117a0565b6117795760405162461bcd60e51b8152602060048201526015602482015274596f75277265206e6f742074686520476176656c7360581b6044820152606401610b9a565b610db2613364565b600082815260026020526040812061179990836133df565b9392505050565b60009182526001602090815260408084206001600160a01b0393909316845291905290205460ff1690565b606060138054610aaf9061518d565b60006117f46000805160206152bf833981519152336117a0565b80611812575061181260008051602061529f833981519152336117a0565b8061183057506118306000805160206152ff833981519152336117a0565b61183957600080fd5b601154600160b01b810460ff9081161515600160a81b909204161515146001148061187757506118776000805160206152ff833981519152336117a0565b6118b65760405162461bcd60e51b815260206004820152601060248201526f436f757274204d75737420416772656560801b6044820152606401610b9a565b81604514156116f6576118c7613321565b506118d0613364565b50601f805460ff19166001908117909155919050565b6118fe6000805160206152ff833981519152336117a0565b8061191c575061191c60008051602061529f833981519152336117a0565b6119835760405162461bcd60e51b815260206004820152603260248201527f596f7520646f206e6f742068617665207065726d697373696f6e20746f2073656044820152711d08185c1c1c9bdd985b08199bdc88185b1b60721b6064820152608401610b9a565b61132282826133eb565b600060258260405161199f9190614e77565b9081526020016040518091039020549050919050565b6119bf3383611e72565b6119db5760405162461bcd60e51b8152600401610b9a90615097565b610d50848484846134b0565b6119f361130982611500565b611a5a5760405162461bcd60e51b815260206004820152603260248201527f506c65617365207669736974207468652044414f20746f2072656e6f756e636560448201527120796f757220636974697a656e736869702160701b6064820152608401610b9a565b610d88816134e3565b6060610a9a826134ec565b6000611a886000805160206152ff833981519152336117a0565b80611aa65750611aa66000805160206152bf833981519152336117a0565b80611ac45750611ac460008051602061529f833981519152336117a0565b611ae05760405162461bcd60e51b8152600401610b9a90615015565b6111fb89898989898988612d0e565b6000818152600260205260408120610a9a9061365b565b6112128282613665565b602180546113339061518d565b6000818152602460205260408120805460609283929091829190611b409061518d565b80601f0160208091040260200160405190810160405280929190818152602001828054611b6c9061518d565b8015611bb95780601f10611b8e57610100808354040283529160200191611bb9565b820191906000526020600020905b815481529060010190602001808311611b9c57829003601f168201915b505050600088815260246020526040902060028101546003820154600190920180549599506001600160a01b03909116965090945092611bfb9250905061518d565b80601f0160208091040260200160405190810160405280929190818152602001828054611c279061518d565b8015611c745780601f10611c4957610100808354040283529160200191611c74565b820191906000526020600020905b815481529060010190602001808311611c5757829003601f168201915b505050505092509193509193565b600080611c9d6000805160206152ff833981519152846117a0565b80611cbb5750611cbb60008051602061529f833981519152846117a0565b949350505050565b610db261369f565b611cd56001611f34565b50611ced6000805160206152ff833981519152612f83565b50611d056000805160206152bf833981519152612f83565b50611d1d60008051602061529f833981519152612f83565b50611d356000805160206152df833981519152612f83565b50611d4d60008051602061531f833981519152612f83565b50611d586000612f83565b50611d616131de565b610da96000611f34565b61132282826137d6565b6000611799836001600160a01b038416613841565b60006001600160e01b0319821663780e9d6360e01b1480610a9a5750610a9a82613890565b6000908152601460205260409020546001600160a01b0316151590565b600081815260166020526040902080546001600160a01b0319166001600160a01b0384169081179091558190611e0182611500565b6001600160a01b03167f8c5be1e5ebec7d5bd14f71427d1e84f3dd0314c0f7b2291e5b200ac8c7c3b92560405160405180910390a45050565b6000928352602460205260409092206002810180546001600160a01b0319166001600160a01b03939093169290921790915560030155565b6000611e7d82611daf565b611ede5760405162461bcd60e51b815260206004820152602c60248201527f4552433732313a206f70657261746f7220717565727920666f72206e6f6e657860448201526b34b9ba32b73a103a37b5b2b760a11b6064820152608401610b9a565b6000611ee983611500565b9050806001600160a01b0316846001600160a01b03161480611f245750836001600160a01b0316611f1984610b32565b6001600160a01b0316145b80611cbb5750611cbb8185611c82565b6000805460ff168215158115151415611f8f5760405162461bcd60e51b815260206004820152601960248201527f416c72656164792053657420746f20746861742076616c7565000000000000006044820152606401610b9a565b6000805484151560ff19909116811790915560ff16151581151514156116ed5760405162461bcd60e51b815260206004820152600c60248201526b29b0b33a32bc9022b93937b960a11b6044820152606401610b9a565b60405163ca15c87360e01b8152600481018290526000908190309063ca15c8739060240160206040518083038186803b15801561202257600080fd5b505afa158015612036573d6000803e3d6000fd5b505050506040513d601f19601f8201168201806040525081019061205a9190614d87565b905060005b8181101561215757604051632404341f60e21b815260048101859052602481018290526000903090639010d07c9060440160206040518083038186803b1580156120a857600080fd5b505afa1580156120bc573d6000803e3d6000fd5b505050506040513d601f19601f820116820180604052508101906120e09190614907565b60405163d547741f60e01b8152600481018790526001600160a01b0382166024820152909150309063d547741f90604401600060405180830381600087803b15801561212b57600080fd5b505af115801561213f573d6000803e3d6000fd5b5050505050808061214f906151c8565b91505061205f565b5060019392505050565b60115460405163ca15c87360e01b81526004810183905260009182916001600160a01b039091169063ca15c8739060240160206040518083038186803b1580156121aa57600080fd5b505afa1580156121be573d6000803e3d6000fd5b505050506040513d601f19601f820116820180604052508101906121e29190614d87565b905060005b8181101561215757601154604051632404341f60e21b815260048101869052602481018390526000916001600160a01b031690639010d07c9060440160206040518083038186803b15801561223b57600080fd5b505afa15801561224f573d6000803e3d6000fd5b505050506040513d601f19601f820116820180604052508101906122739190614907565b604051632f2ff15d60e01b8152600481018790526001600160a01b03821660248201529091503090632f2ff15d90604401600060405180830381600087803b1580156122be57600080fd5b505af11580156122d2573d6000803e3d6000fd5b505050505080806122e2906151c8565b9150506121e7565b60006123036000805160206152ff833981519152611fe6565b5061231b6000805160206152ff833981519152612161565b61232457600080fd5b61233b6000805160206152bf833981519152611fe6565b506123536000805160206152bf833981519152612161565b61235c57600080fd5b61237360008051602061529f833981519152611fe6565b5061238b60008051602061529f833981519152612161565b61239457600080fd5b6123ab6000805160206152df833981519152611fe6565b506123c36000805160206152df833981519152612161565b6123cc57600080fd5b6123e360008051602061531f833981519152611fe6565b506123fb60008051602061531f833981519152612161565b61240457600080fd5b61240e6000611fe6565b506124196000612161565b61242257600080fd5b61242a6131de565b50600190565b826001600160a01b031661244382611500565b6001600160a01b0316146124ab5760405162461bcd60e51b815260206004820152602960248201527f4552433732313a207472616e73666572206f6620746f6b656e2074686174206960448201526839903737ba1037bbb760b91b6064820152608401610b9a565b6001600160a01b03821661250d5760405162461bcd60e51b8152602060048201526024808201527f4552433732313a207472616e7366657220746f20746865207a65726f206164646044820152637265737360e01b6064820152608401610b9a565b6125188383836138d0565b612523600082611dcc565b6001600160a01b038316600090815260156020526040812080546001929061254c908490615133565b90915550506001600160a01b038216600090815260156020526040812080546001929061257a9084906150e8565b909155505060008181526014602052604080822080546001600160a01b0319166001600160a01b0386811691821790925591518493918716917fddf252ad1be2c89b69c2b068fc378daa952ba7f163c4a11628f55a4df523b3ef91a4505050565b600082815260016020819052604082200154905460ff161561260157610cd083836137d6565b61260b81336139bb565b610cd083836137d6565b601160009054906101000a90046001600160a01b03166001600160a01b031663dadf56ac6040518163ffffffff1660e01b815260040160206040518083038186803b15801561266357600080fd5b505afa158015612677573d6000803e3d6000fd5b505050506040513d601f19601f8201168201806040525081019061269b9190614907565b600c80546001600160a01b0319166001600160a01b039283161790556011546040805163024bebe960e01b81529051919092169163024bebe9916004808301926020929190829003018186803b1580156126f457600080fd5b505afa158015612708573d6000803e3d6000fd5b505050506040513d601f19601f8201168201806040525081019061272c9190614907565b600d80546001600160a01b0319166001600160a01b0392831617905560115460408051635b5c251f60e01b815290519190921691635b5c251f916004808301926020929190829003018186803b15801561278557600080fd5b505afa158015612799573d6000803e3d6000fd5b505050506040513d601f19601f820116820180604052508101906127bd9190614907565b600e80546001600160a01b0319166001600160a01b0392831617905560115460408051637310bf1d60e11b81529051919092169163e6217e3a916004808301926020929190829003018186803b15801561281657600080fd5b505afa15801561282a573d6000803e3d6000fd5b505050506040513d601f19601f8201168201806040525081019061284e9190614907565b601080546001600160a01b0319166001600160a01b039283161790556011546040805163d88127a160e01b81529051919092169163d88127a1916004808301926020929190829003018186803b1580156128a757600080fd5b505afa1580156128bb573d6000803e3d6000fd5b505050506040513d601f19601f820116820180604052508101906128df9190614907565b600b80546001600160a01b0319166001600160a01b0392909216919091179055565b601160009054906101000a90046001600160a01b03166001600160a01b03166321d7f0086040518163ffffffff1660e01b815260040160206040518083038186803b15801561294f57600080fd5b505afa158015612963573d6000803e3d6000fd5b505050506040513d601f19601f820116820180604052508101906129879190614907565b600480546001600160a01b0319166001600160a01b039283161781556011546040805163762ddb5960e01b81529051919093169263762ddb599281810192602092909190829003018186803b1580156129df57600080fd5b505afa1580156129f3573d6000803e3d6000fd5b505050506040513d601f19601f82011682018060405250810190612a179190614907565b600580546001600160a01b0319166001600160a01b039283161790556011546040805163bfb7dc9960e01b81529051919092169163bfb7dc99916004808301926020929190829003018186803b158015612a7057600080fd5b505afa158015612a84573d6000803e3d6000fd5b505050506040513d601f19601f82011682018060405250810190612aa89190614907565b600680546001600160a01b0319166001600160a01b0392831617905560115460408051633e6111eb60e21b81529051919092169163f98447ac916004808301926020929190829003018186803b158015612b0157600080fd5b505afa158015612b15573d6000803e3d6000fd5b505050506040513d601f19601f82011682018060405250810190612b399190614907565b600780546001600160a01b0319166001600160a01b0392831617905560115460408051630fe1ba9f60e21b815290519190921691633f86ea7c916004808301926020929190829003018186803b158015612b9257600080fd5b505afa158015612ba6573d6000803e3d6000fd5b505050506040513d601f19601f82011682018060405250810190612bca9190614907565b600880546001600160a01b0319166001600160a01b0392831617905560115460408051632b90024160e11b8152905191909216916357200482916004808301926020929190829003018186803b158015612c2357600080fd5b505afa158015612c37573d6000803e3d6000fd5b505050506040513d601f19601f82011682018060405250810190612c5b9190614907565b600980546001600160a01b0319166001600160a01b0392831617905560115460408051636b58477560e01b815290519190921691636b584775916004808301926020929190829003018186803b158015612cb457600080fd5b505afa158015612cc8573d6000803e3d6000fd5b505050506040513d601f19601f82011682018060405250810190612cec9190614907565b600a80546001600160a01b0319166001600160a01b0392909216919091179055565b60006001600160a01b0388163314801590612d3157506001600160a01b03881615155b612d3a57600080fd5b6000612d4589611577565b1115612d8c5760405162461bcd60e51b815260206004820152601660248201527513db9b1e481bdb99481251081c195c881dd85b1b195d60521b6044820152606401610b9a565b50601e54612d9e878787878786613a1f565b612da88882613afe565b612db28183612ef8565b6001601e6000828254612dc591906150e8565b909155509098975050505050505050565b6001600160a01b0381163314612e465760405162461bcd60e51b815260206004820152602f60248201527f416363657373436f6e74726f6c3a2063616e206f6e6c792072656e6f756e636560448201526e103937b632b9903337b91039b2b63360891b6064820152608401610b9a565b6113228282613b18565b6000611799836001600160a01b038416613b7f565b60185460ff16612eae5760405162461bcd60e51b815260206004820152601460248201527314185d5cd8589b194e881b9bdd081c185d5cd95960621b6044820152606401610b9a565b6018805460ff191690557f5db9ee0a495bf2e6ff9c91a7834c1ba4fdd244a5e8aa4e537bd38aeae4b073aa335b6040516001600160a01b03909116815260200160405180910390a1565b612f0182611daf565b612f645760405162461bcd60e51b815260206004820152602e60248201527f45524337323155524953746f726167653a2055524920736574206f66206e6f6e60448201526d32bc34b9ba32b73a103a37b5b2b760911b6064820152608401610b9a565b60008281526019602090815260409091208251610cd09284019061477a565b60115460405163ca15c87360e01b81526004810183905260009182916001600160a01b039091169063ca15c8739060240160206040518083038186803b158015612fcc57600080fd5b505afa158015612fe0573d6000803e3d6000fd5b505050506040513d601f19601f820116820180604052508101906130049190614d87565b60405163ca15c87360e01b815260048101859052909150600090309063ca15c8739060240160206040518083038186803b15801561304157600080fd5b505afa158015613055573d6000803e3d6000fd5b505050506040513d601f19601f820116820180604052508101906130799190614d87565b905060006130878284615133565b9050600081116130cc5760405162461bcd60e51b815260206004820152601060248201526f4e6f7468696e6720746f2073796e632160801b6044820152606401610b9a565b60005b818110156131d257601154604051632404341f60e21b815260048101889052602481018390526000916001600160a01b031690639010d07c9060440160206040518083038186803b15801561312357600080fd5b505afa158015613137573d6000803e3d6000fd5b505050506040513d601f19601f8201168201806040525081019061315b9190614907565b604051632f2ff15d60e01b8152600481018990526001600160a01b03821660248201529091503090632f2ff15d90604401600060405180830381600087803b1580156131a657600080fd5b505af11580156131ba573d6000803e3d6000fd5b505050505080806131ca906151c8565b9150506130cf565b50600195945050505050565b601160009054906101000a90046001600160a01b03166001600160a01b031663ff7e88ec6040518163ffffffff1660e01b815260040160206040518083038186803b15801561322c57600080fd5b505afa158015613240573d6000803e3d6000fd5b505050506040513d601f19601f820116820180604052508101906132649190614c9b565b601160156101000a81548160ff021916908315150217905550601160009054906101000a90046001600160a01b03166001600160a01b0316632fb565856040518163ffffffff1660e01b815260040160206040518083038186803b1580156132cb57600080fd5b505afa1580156132df573d6000803e3d6000fd5b505050506040513d601f19601f820116820180604052508101906133039190614c9b565b60118054911515600160b01b0260ff60b01b19909216919091179055565b6000805b601e548110156133585761333881611daf565b1561334657613346816134e3565b80613350816151c8565b915050613325565b50506000601e55600190565b60185460ff16156133aa5760405162461bcd60e51b815260206004820152601060248201526f14185d5cd8589b194e881c185d5cd95960821b6044820152606401610b9a565b6018805460ff191660011790557f62e78cea01bee320cd4e420270b5ea74000d11b0c9f74754ebdbfc544b05a258612edb3390565b60006117998383613c6c565b6001600160a01b0382163314156134445760405162461bcd60e51b815260206004820152601960248201527f4552433732313a20617070726f766520746f2063616c6c6572000000000000006044820152606401610b9a565b3360008181526017602090815260408083206001600160a01b03871680855290835292819020805460ff191686151590811790915590519081529192917f17307eab39ab6107e8899845ad3d59bd9653f200f220920489ca2b5937696c31910160405180910390a35050565b6134bb848484612430565b6134c784848484613cf2565b610d505760405162461bcd60e51b8152600401610b9a90615045565b610d8881613dff565b60606134f782611daf565b61355d5760405162461bcd60e51b815260206004820152603160248201527f45524337323155524953746f726167653a2055524920717565727920666f72206044820152703737b732bc34b9ba32b73a103a37b5b2b760791b6064820152608401610b9a565b600082815260196020526040812080546135769061518d565b80601f01602080910402602001604051908101604052809291908181526020018280546135a29061518d565b80156135ef5780601f106135c4576101008083540402835291602001916135ef565b820191906000526020600020905b8154815290600101906020018083116135d257829003601f168201915b50505050509050600061360d60408051602081019091526000815290565b9050805160001415613620575092915050565b81511561365257808260405160200161363a929190614e93565b60405160208183030381529060405292505050919050565b611cbb84613e3f565b6000610a9a825490565b600082815260016020819052604082200154905460ff161561368b57610cd08383613b18565b61369581336139bb565b610cd08383613b18565b601160009054906101000a90046001600160a01b03166001600160a01b031663a44b93256040518163ffffffff1660e01b815260040160206040518083038186803b1580156136ed57600080fd5b505afa158015613701573d6000803e3d6000fd5b505050506040513d601f19601f820116820180604052508101906137259190614c9b565b61372e57600080fd5b601160009054906101000a90046001600160a01b03166001600160a01b031663ac7cfac36040518163ffffffff1660e01b815260040160206040518083038186803b15801561377c57600080fd5b505afa158015613790573d6000803e3d6000fd5b505050506040513d601f19601f820116820180604052508101906137b49190614907565b600380546001600160a01b0319166001600160a01b0392909216919091179055565b6137e082826117a0565b6113225760008281526001602081815260408084206001600160a01b0386168086529252808420805460ff19169093179092559051339285917f2f8788117e7eff1d82e926ec794901d17c78024a50270940304540a733656f0d9190a45050565b600081815260018301602052604081205461388857508154600181810184556000848152602080822090930184905584548482528286019093526040902091909155610a9a565b506000610a9a565b60006001600160e01b031982166380ac58cd60e01b14806138c157506001600160e01b03198216635b5e139f60e01b145b80610a9a5750610a9a82613f16565b6138da8333611c82565b806138f3575060008181526023602052604090205460ff165b6139545760405162461bcd60e51b815260206004820152602c60248201527f506c65617365207669736974207468652044414f20746f206368616e6765207960448201526b6f757220616464726573732160a01b6064820152608401610b9a565b60008181526023602052604090205460ff16801561397757506139773382611e72565b156139b05760008181526023602052604090205460ff1661399757600080fd5b6000818152602360205260408120805460ff1916905580fd5b610cd0838383613f3b565b6139c582826117a0565b611322576139dd816001600160a01b03166014613ff3565b6139e8836020613ff3565b6040516020016139f9929190614ec2565b60408051601f198184030181529082905262461bcd60e51b8252610b9a91600401614f74565b613a29858761418f565b613a3257600080fd5b60008181526024602090815260409091208651613a579260019092019188019061477a565b5060008181526024602090815260409091206002810180546001600160a01b0319166001600160a01b038816179055600381018590558751613a9b9289019061477a565b5060008181526024602052604090819020600401839055518190602590613ac3908890614e77565b90815260200160405180910390208190555080602687604051613ae69190614e77565b90815260405190819003602001902055505050505050565b61132282826040518060200160405280600081525061429e565b613b2282826117a0565b156113225760008281526001602090815260408083206001600160a01b0385168085529252808320805460ff1916905551339285917ff6391f5c32d9c69d2a47ea670b442974b53935d1edc7fd64eb21e047a839171b9190a45050565b60008181526001830160205260408120548015613c62576000613ba3600183615133565b8554909150600090613bb790600190615133565b90506000866000018281548110613bd057613bd0615239565b9060005260206000200154905080876000018481548110613bf357613bf3615239565b600091825260208083209091019290925582815260018901909152604090208490558654879080613c2657613c26615223565b60019003818190600052602060002001600090559055866001016000878152602001908152602001600020600090556001945050505050610a9a565b6000915050610a9a565b81546000908210613cca5760405162461bcd60e51b815260206004820152602260248201527f456e756d657261626c655365743a20696e646578206f7574206f6620626f756e604482015261647360f01b6064820152608401610b9a565b826000018281548110613cdf57613cdf615239565b9060005260206000200154905092915050565b60006001600160a01b0384163b15613df457604051630a85bd0160e11b81526001600160a01b0385169063150b7a0290613d36903390899088908890600401614f37565b602060405180830381600087803b158015613d5057600080fd5b505af1925050508015613d80575060408051601f3d908101601f19168201909252613d7d91810190614d35565b60015b613dda573d808015613dae576040519150601f19603f3d011682016040523d82523d6000602084013e613db3565b606091505b508051613dd25760405162461bcd60e51b8152600401610b9a90615045565b805181602001fd5b6001600160e01b031916630a85bd0160e11b149050611cbb565b506001949350505050565b613e08816142d1565b60008181526019602052604090208054613e219061518d565b159050610d88576000818152601960205260408120610d88916147fe565b6060613e4a82611daf565b613eae5760405162461bcd60e51b815260206004820152602f60248201527f4552433732314d657461646174613a2055524920717565727920666f72206e6f60448201526e3732bc34b9ba32b73a103a37b5b2b760891b6064820152608401610b9a565b6000613ec560408051602081019091526000815290565b90506000815111613ee55760405180602001604052806000815250611799565b80613eef84614378565b604051602001613f00929190614e93565b6040516020818303038152906040529392505050565b60006001600160e01b03198216635a05180f60e01b1480610a9a5750610a9a82614476565b6001600160a01b038316613f9657613f9181601c80546000838152601d60205260408120829055600182018355919091527f0e4562a10381dec21b205ed72637e6b1b523bdd0e4d4d50af5cd23dd4500a2110155565b613fb9565b816001600160a01b0316836001600160a01b031614613fb957613fb983826144ab565b6001600160a01b038216613fd057610cd081614548565b826001600160a01b0316826001600160a01b031614610cd057610cd082826145f7565b60606000614002836002615114565b61400d9060026150e8565b67ffffffffffffffff8111156140255761402561524f565b6040519080825280601f01601f19166020018201604052801561404f576020820181803683370190505b509050600360fc1b8160008151811061406a5761406a615239565b60200101906001600160f81b031916908160001a905350600f60fb1b8160018151811061409957614099615239565b60200101906001600160f81b031916908160001a90535060006140bd846002615114565b6140c89060016150e8565b90505b6001811115614140576f181899199a1a9b1b9c1cb0b131b232b360811b85600f16601081106140fc576140fc615239565b1a60f81b82828151811061411257614112615239565b60200101906001600160f81b031916908160001a90535060049490941c9361413981615176565b90506140cb565b5083156117995760405162461bcd60e51b815260206004820181905260248201527f537472696e67733a20686578206c656e67746820696e73756666696369656e746044820152606401610b9a565b600060016025846040516141a39190614e77565b908152602001604051809103902054111561421a5760405162461bcd60e51b815260206004820152603160248201527f416c726561647920616e204944206173736f63696174656420776974682074686044820152701a5cc81cdbd8da585b081858d8dbdd5b9d607a1b6064820152608401610b9a565b600160268360405161422c9190614e77565b90815260200160405180910390205411156116ed5760405162461bcd60e51b815260206004820152602c60248201527f416c726561647920616e204944206173736f636961746564207769746820746860448201526b69732070736575646f6e796d60a01b6064820152608401610b9a565b6142a8838361463b565b6142b56000848484613cf2565b610cd05760405162461bcd60e51b8152600401610b9a90615045565b60006142dc82611500565b90506142ea816000846138d0565b6142f5600083611dcc565b6001600160a01b038116600090815260156020526040812080546001929061431e908490615133565b909155505060008281526014602052604080822080546001600160a01b0319169055518391906001600160a01b038416907fddf252ad1be2c89b69c2b068fc378daa952ba7f163c4a11628f55a4df523b3ef908390a45050565b60608161439c5750506040805180820190915260018152600360fc1b602082015290565b8160005b81156143c657806143b0816151c8565b91506143bf9050600a83615100565b91506143a0565b60008167ffffffffffffffff8111156143e1576143e161524f565b6040519080825280601f01601f19166020018201604052801561440b576020820181803683370190505b5090505b8415611cbb57614420600183615133565b915061442d600a866151e3565b6144389060306150e8565b60f81b81838151811061444d5761444d615239565b60200101906001600160f81b031916908160001a90535061446f600a86615100565b945061440f565b60006001600160e01b03198216637965db0b60e01b1480610a9a57506301ffc9a760e01b6001600160e01b0319831614610a9a565b600060016144b884611577565b6144c29190615133565b6000838152601b6020526040902054909150808214614515576001600160a01b0384166000908152601a602090815260408083208584528252808320548484528184208190558352601b90915290208190555b506000918252601b602090815260408084208490556001600160a01b039094168352601a81528383209183525290812055565b601c5460009061455a90600190615133565b6000838152601d6020526040812054601c805493945090928490811061458257614582615239565b9060005260206000200154905080601c83815481106145a3576145a3615239565b6000918252602080832090910192909255828152601d9091526040808220849055858252812055601c8054806145db576145db615223565b6001900381819060005260206000200160009055905550505050565b600061460283611577565b6001600160a01b039093166000908152601a602090815260408083208684528252808320859055938252601b9052919091209190915550565b6001600160a01b0382166146915760405162461bcd60e51b815260206004820181905260248201527f4552433732313a206d696e7420746f20746865207a65726f20616464726573736044820152606401610b9a565b61469a81611daf565b156146e75760405162461bcd60e51b815260206004820152601c60248201527f4552433732313a20746f6b656e20616c7265616479206d696e746564000000006044820152606401610b9a565b6146f3600083836138d0565b6001600160a01b038216600090815260156020526040812080546001929061471c9084906150e8565b909155505060008181526014602052604080822080546001600160a01b0319166001600160a01b03861690811790915590518392907fddf252ad1be2c89b69c2b068fc378daa952ba7f163c4a11628f55a4df523b3ef908290a45050565b8280546147869061518d565b90600052602060002090601f0160209004810192826147a857600085556147ee565b82601f106147c157805160ff19168380011785556147ee565b828001600101855582156147ee579182015b828111156147ee5782518255916020019190600101906147d3565b506147fa929150614834565b5090565b50805461480a9061518d565b6000825580601f1061481a575050565b601f016020900490600052602060002090810190610d8891905b5b808211156147fa5760008155600101614835565b600067ffffffffffffffff808411156148645761486461524f565b604051601f8501601f19908116603f0116810190828211818310171561488c5761488c61524f565b816040528093508581528686860111156148a557600080fd5b858560208301376000602087830101525050509392505050565b80356116fa81615265565b600082601f8301126148db57600080fd5b61179983833560208501614849565b6000602082840312156148fc57600080fd5b813561179981615265565b60006020828403121561491957600080fd5b815161179981615265565b6000806040838503121561493757600080fd5b823561494281615265565b9150602083013561495281615265565b809150509250929050565b60008060006060848603121561497257600080fd5b833561497d81615265565b9250602084013561498d81615265565b929592945050506040919091013590565b600080600080608085870312156149b457600080fd5b84356149bf81615265565b935060208501356149cf81615265565b925060408501359150606085013567ffffffffffffffff8111156149f257600080fd5b8501601f81018713614a0357600080fd5b614a1287823560208401614849565b91505092959194509250565b60008060408385031215614a3157600080fd5b8235614a3c81615265565b915060208301356149528161527a565b60008060008060008060c08789031215614a6557600080fd5b8635614a7081615265565b9550602087013567ffffffffffffffff80821115614a8d57600080fd5b614a998a838b016148ca565b96506040890135915080821115614aaf57600080fd5b50614abc89828a016148ca565b9450506060870135614acd81615265565b9598949750929560808101359460a0909101359350915050565b600080600080600080600060e0888a031215614b0257600080fd5b8735614b0d81615265565b9650602088013567ffffffffffffffff80821115614b2a57600080fd5b614b368b838c016148ca565b975060408a0135915080821115614b4c57600080fd5b50614b598a828b016148ca565b9550506060880135614b6a81615265565b9699959850939660808101359560a0820135955060c0909101359350915050565b600080600080600080600080610100898b031215614ba857600080fd5b614bb1896148bf565b9750602089013567ffffffffffffffff80821115614bce57600080fd5b614bda8c838d016148ca565b985060408b0135915080821115614bf057600080fd5b614bfc8c838d016148ca565b9750614c0a60608c016148bf565b965060808b0135955060a08b0135945060c08b0135935060e08b0135915080821115614c3557600080fd5b50614c428b828c016148ca565b9150509295985092959890939650565b60008060408385031215614c6557600080fd5b8235614c7081615265565b946020939093013593505050565b600060208284031215614c9057600080fd5b81356117998161527a565b600060208284031215614cad57600080fd5b81516117998161527a565b600060208284031215614cca57600080fd5b5035919050565b60008060408385031215614ce457600080fd5b82359150602083013561495281615265565b60008060408385031215614d0957600080fd5b50508035926020909101359150565b600060208284031215614d2a57600080fd5b813561179981615288565b600060208284031215614d4757600080fd5b815161179981615288565b600060208284031215614d6457600080fd5b813567ffffffffffffffff811115614d7b57600080fd5b611cbb848285016148ca565b600060208284031215614d9957600080fd5b5051919050565b600080600060608486031215614db557600080fd5b83359250602084013561498d81615265565b60008060008060808587031215614ddd57600080fd5b843593506020850135614def81615265565b93969395505050506040820135916060013590565b60008060408385031215614e1757600080fd5b82359150602083013567ffffffffffffffff811115614e3557600080fd5b614e41858286016148ca565b9150509250929050565b60008151808452614e6381602086016020860161514a565b601f01601f19169290920160200192915050565b60008251614e8981846020870161514a565b9190910192915050565b60008351614ea581846020880161514a565b835190830190614eb981836020880161514a565b01949350505050565b7f416363657373436f6e74726f6c3a206163636f756e7420000000000000000000815260008351614efa81601785016020880161514a565b7001034b99036b4b9b9b4b733903937b6329607d1b6017918401918201528351614f2b81602884016020880161514a565b01602801949350505050565b6001600160a01b0385811682528416602082015260408101839052608060608201819052600090614f6a90830184614e4b565b9695505050505050565b6020815260006117996020830184614e4b565b608081526000614f9a6080830187614e4b565b8281036020840152614fac8187614e4b565b6001600160a01b0395909516604084015250506060015292915050565b60a081526000614fdc60a0830188614e4b565b8281036020840152614fee8188614e4b565b6001600160a01b039690961660408401525050606081019290925260809091015292915050565b6020808252601690820152752cb7ba93b932903737ba103a3432903130b4b634b33360511b604082015260600190565b60208082526032908201527f4552433732313a207472616e7366657220746f206e6f6e20455243373231526560408201527131b2b4bb32b91034b6b83632b6b2b73a32b960711b606082015260800190565b60208082526031908201527f4552433732313a207472616e736665722063616c6c6572206973206e6f74206f6040820152701ddb995c881b9bdc88185c1c1c9bdd9959607a1b606082015260800190565b600082198211156150fb576150fb6151f7565b500190565b60008261510f5761510f61520d565b500490565b600081600019048311821515161561512e5761512e6151f7565b500290565b600082821015615145576151456151f7565b500390565b60005b8381101561516557818101518382015260200161514d565b83811115610d505750506000910152565b600081615185576151856151f7565b506000190190565b600181811c908216806151a157607f821691505b602082108114156151c257634e487b7160e01b600052602260045260246000fd5b50919050565b60006000198214156151dc576151dc6151f7565b5060010190565b6000826151f2576151f261520d565b500690565b634e487b7160e01b600052601160045260246000fd5b634e487b7160e01b600052601260045260246000fd5b634e487b7160e01b600052603160045260246000fd5b634e487b7160e01b600052603260045260246000fd5b634e487b7160e01b600052604160045260246000fd5b6001600160a01b0381168114610d8857600080fd5b8015158114610d8857600080fd5b6001600160e01b031981168114610d8857600080fdfefa8e4989e1d689f7bc5c4b25b87efb51fecdecb19ba62847e29c759e12a89acd048bc71fa1cb2c119c339cf9cf00a97996a19a9d991ce5fe049f2fa5459e7990f0f4b159a6e2a4815eb3ca3df080bfa70c9270662c59bcaa4479a456220183e60538d24a8b7882d7b2e36af243d4af61c23e86e3daa6cb8c887b53220b2f57207c9d7f6f02908185bffb3f7fc9afb29fd7bf93675af8fd4b655ee05c2cee1e0ea26469706673582212202c0f4dd59c761236237015e7a4dce8d3116b7965e42365bee073c03638c4ce0064736f6c63430008060033",
  "immutableReferences": {},
  "source": "pragma solidity ^0.8.0;\n\nimport \"../SmartConsensusMachine.sol\";\nimport \"../AddressManagerReciever.sol\";\n\nimport \"@openzeppelin/contracts/token/ERC721/extensions/ERC721Enumerable.sol\";\nimport \"@openzeppelin/contracts/token/ERC721/extensions/ERC721URIStorage.sol\";\nimport \"@openzeppelin/contracts/token/ERC721/ERC721.sol\";\nimport \"@openzeppelin/contracts/security/Pausable.sol\";\n\ncontract IdentityBadge is SmartConsensusMachine, ERC721, Pausable, ERC721URIStorage, ERC721Enumerable {\n    \n    uint256 private _tokenIdGenerator = 1;\n\n    bool public isForeverLocked = false;\n\n    string public socialPlatform;\n    string public badgeColor;\n    string public badgeName;\n\n    constructor(string memory _badgeName, string memory _badgeSymbol, string memory _socialPlatform, address _AddressManagerAddress)\n        ERC721(_badgeName, _badgeSymbol)\n        SmartConsensusMachine(_AddressManagerAddress) {\n       \n        updateAllAddresses();\n        \n        badgeColor = _badgeSymbol;\n        badgeName = _badgeName;\n        socialPlatform = socialPlatform;\n\n    }      \n    \n    //******************************\n    //                            **\n    //     Setup mapping          ** \n    //                            **\n    //******************************\n    struct IDCard { // struct will store the psuedonym and avatar NFT information.\n        string pseudonym;\n        string socialHandle;\n        address avatarTokenAddress;\n        uint avatarTokenId;\n        uint avatarNetworkId;\n    }\n\n\n    mapping (uint => bool) public UserTransferApproved;\n    mapping (uint => IDCard) public IDCardInfo; \n    mapping (string => uint) public SocialHandle;\n    mapping (string => uint) public Pseudonym;\n\n    function _checkAvailibility(string memory _socialHandle, string memory _pseudonym) internal returns (bool) {\n        require(SocialHandle[_socialHandle] <= 1, \"Already an ID associated with this social account\");\n        require(Pseudonym[_pseudonym] <= 1, \"Already an ID associated with this pseudonym\");\n        return true;\n    }\n\n    \n    function _setBadgeInfo(string memory _pseudonym, string memory _socialHandle, address _avatarTokenAddress, uint _avatarTokenId, uint _tokenId) internal {\n        \n        \n        require(_checkAvailibility(_socialHandle, _pseudonym));\n        IDCardInfo[_tokenId].socialHandle = _socialHandle;\n        IDCardInfo[_tokenId].avatarTokenAddress = _avatarTokenAddress; \n        IDCardInfo[_tokenId].avatarTokenId = _avatarTokenId;\n        IDCardInfo[_tokenId].pseudonym = _pseudonym;\n\n        //Assumes Mainnet if not specified...\n        IDCardInfo[_tokenId].avatarNetworkId = 1;\n\n        SocialHandle[_socialHandle] = _tokenId;\n        Pseudonym[_pseudonym] = _tokenId;\n    }\n\n    function _setBadgeInfo(string memory _pseudonym, string memory _socialHandle, address _avatarTokenAddress, uint _avatarTokenId, uint _avatarNetworkId, uint _tokenId) internal {\n        \n        require(_checkAvailibility(_socialHandle, _pseudonym));\n\n        IDCardInfo[_tokenId].socialHandle = _socialHandle;\n        IDCardInfo[_tokenId].avatarTokenAddress = _avatarTokenAddress; \n        IDCardInfo[_tokenId].avatarTokenId = _avatarTokenId;\n        IDCardInfo[_tokenId].pseudonym = _pseudonym;\n        IDCardInfo[_tokenId].avatarNetworkId = _avatarNetworkId;\n\n        SocialHandle[_socialHandle] = _tokenId;\n        Pseudonym[_pseudonym] = _tokenId;\n    }\n\n    function updateAvatar(address _avatarTokenAddress, uint _avatarTokenId) public {\n        require(balanceOf(msg.sender) > 0);\n        uint _tokenId = tokenOfOwnerByIndex(msg.sender, 0);\n        _updateAvatar(_tokenId, _avatarTokenAddress, _avatarTokenId);\n    }\n\n    function updateAvatar(uint _tokenId, address _avatarTokenAddress, uint _avatarTokenId) public {\n        require(_isApprovedOrOwner(msg.sender, _tokenId));\n        _updateAvatar(_tokenId, _avatarTokenAddress, _avatarTokenId);\n    }\n\n    function updateAvatar(uint _tokenId, address _avatarTokenAddress, uint _avatarTokenId, uint _avatarNetworkId) public {\n        require(_isApprovedOrOwner(msg.sender, _tokenId));\n        _updateAvatar(_tokenId, _avatarTokenAddress, _avatarTokenId, _avatarNetworkId);\n    }\n\n    function updateImageHash(uint256 _tokenId, string memory _imageHash) public {\n        require( isApprovedForAll(ownerOf(_tokenId), msg.sender));\n        _setTokenURI( _tokenId, _imageHash);\n    }\n\n    function _updateAvatar(uint _tokenId, address _avatarTokenAddress, uint _avatarTokenId) internal {\n        IDCardInfo[_tokenId].avatarTokenAddress = _avatarTokenAddress; \n        IDCardInfo[_tokenId].avatarTokenId = _avatarTokenId;\n    }\n\n    function _updateAvatar(uint _tokenId, address _avatarTokenAddress, uint _avatarTokenId, uint _avatarNetworkId) internal {\n        IDCardInfo[_tokenId].avatarTokenAddress = _avatarTokenAddress; \n        IDCardInfo[_tokenId].avatarTokenId = _avatarTokenId;\n        IDCardInfo[_tokenId].avatarNetworkId = _avatarNetworkId;\n    }\n\n    function getIDFromHandle(string memory _SocialHandle) public view returns (uint _tokenId) {\n        _tokenId = SocialHandle[_SocialHandle];\n        return ( _tokenId );\n    }\n\n    function getBadgeInfo(uint _tokenId) public view returns (string memory _pseudonym, string memory _socialHandle, address _avatarTokenAddress, uint _avatarTokenId ) {\n        _pseudonym = IDCardInfo[_tokenId].pseudonym;\n        _avatarTokenAddress = IDCardInfo[_tokenId].avatarTokenAddress;\n        _avatarTokenId = IDCardInfo[_tokenId].avatarTokenId;\n        _socialHandle =IDCardInfo[_tokenId].socialHandle;\n        return (_pseudonym, _socialHandle, _avatarTokenAddress, _avatarTokenId );\n    }\n\n\n\n    /////////////////////////////////////////////////////////////////////////////////////////////////\n    /////////////////////////////////////////////////////////////////////////////////////////////////\n    /// @dev                                                                                     ////\n    /// Issuance Desk                                                                            ////\n    /////////////////////////////////////////////////////////////////////////////////////////////////\n    /////////////////////////////////////////////////////////////////////////////////////////////////\n\n\n    function issueBadge(address receivingAddress, string memory _pseudonym, string memory _socialHandle, address _avatarTokenAddress, uint _avatarTokenId, uint _tokenId) public virtual\n        BAILIFF\n        returns(uint newId) {\n            uint _avatarNetworkId = 1;\n            string memory _tokenURI = \"\";\n            newId = _issueBadge(receivingAddress, _pseudonym, _socialHandle, _avatarTokenAddress, _avatarTokenId, _avatarNetworkId, _tokenURI); \n     }\n\n    function issueBadge(address receivingAddress, string memory _pseudonym, string memory _socialHandle, address _avatarTokenAddress,\n                            uint _avatarTokenId, uint _avatarNetworkId, uint _tokenId) public virtual\n        BAILIFF\n        returns(uint newId) {\n        string memory _tokenURI = \"\";\n        newId = _issueBadge(receivingAddress, _pseudonym, _socialHandle, _avatarTokenAddress, _avatarTokenId, _avatarNetworkId, _tokenURI);\n       \n    }\n    \n    function issueBadge(address receivingAddress, string memory _pseudonym, string memory _socialHandle, address _avatarTokenAddress,\n                            uint _avatarTokenId, uint _avatarNetworkId, uint _tokenId, string memory _tokenURI) public virtual\n        BAILIFF\n        returns(uint newId) {\n        newId = _issueBadge(receivingAddress, _pseudonym, _socialHandle, _avatarTokenAddress, _avatarTokenId, _avatarNetworkId, _tokenURI);       \n    }\n\n    function _issueBadge(address receivingAddress, string memory _pseudonym, string memory _socialHandle, address _avatarTokenAddress,\n                            uint _avatarTokenId, uint _avatarNetworkId, string memory _tokenURI) internal virtual\n        returns(uint newId) { // Right now function also increments and returns tokenId, this will be removed.\n        require((receivingAddress != msg.sender) && (receivingAddress != address(0)));\n        require(balanceOf(receivingAddress) <= 0, \"Only one ID per wallet\");\n        newId = _tokenIdGenerator;\n        _setBadgeInfo(_pseudonym, _socialHandle, _avatarTokenAddress, _avatarTokenId, _avatarNetworkId, newId);\n        _safeMint(receivingAddress, newId);\n        _setTokenURI(newId, _tokenURI);\n        _tokenIdGenerator += 1;\n        \n       \n     }\n\n\n    function revokeBadge(uint _tokenId) public {\n        require(isApprovedForAll(ownerOf(_tokenId), msg.sender),\n                    \"Please visit the DAO to renounce your citizenship!\") ;\n        _burn(_tokenId);\n    }\n\n\n    /////////////////////////////////////////////////////////////////////////////////////////////////\n    /////////////////////////////////////////////////////////////////////////////////////////////////\n    /// @dev                                                                                     ////\n    /// Maintanence\\\\\\\\\\\\\\\\\\\\\\\\\\\\\\\\\\\\\\\\\\\\\\\\\\\\\\                                                   ////\n    /////////////////////////////////////////////////////////////////////////////////////////////////\n    /////////////////////////////////////////////////////////////////////////////////////////////////\n    // Pause the contract if neccesary. Only the Gavels can do this.\n    function pause() public GAVELS {\n        _pause();\n    }\n\n    function unpause() public GAVELS {\n        require(isForeverLocked == false);\n        _unpause();\n    }\n\n    function _burnAllBadges() internal returns (bool) {\n        // burn all badges\n        uint256 index = 0;\n        for (index = 0; index < _tokenIdGenerator; index++) {\n            if (_exists(index)) {\n                _burn(index);\n            }   \n        }\n        _tokenIdGenerator = 0;\n        return true;\n    }\n\n    function refreshBadges(bool _thisIsNotReversible) public THE_COURT returns (bool) {\n\n        if(_thisIsNotReversible == true) {\n            // burn all badges\n            _burnAllBadges();\n            return true;\n        } else {return false;}\n    }\n\n\n    function destroyAndLockContract(uint _valueMustBe69) public THE_COURT returns (bool) {\n\n        if(_valueMustBe69 == 69) {\n            // burn all badges\n            _burnAllBadges();\n            // set protocol to locked\n            _pause();\n            isForeverLocked = true;\n            return isForeverLocked;\n        } else {return false;}\n    }\n\n    function tokenURI(uint256 _tokenId) public view virtual override(ERC721, ERC721URIStorage) returns (string memory _URI) {\n        _URI = ERC721URIStorage.tokenURI(_tokenId);\n    }\n\n    /////////////////////////////////////////////////////////////////////////////////////////////////\n    /////////////////////////////////////////////////////////////////////////////////////////////////\n    /// @dev                                                                                     ////\n    /// Transfer rules                                                                           ////\n    /////////////////////////////////////////////////////////////////////////////////////////////////\n    /////////////////////////////////////////////////////////////////////////////////////////////////\n    \n\n    function approveUserTransfer(uint _tokenId) public BAILIFF{\n        require(_approveTransfer(_tokenId));\n    }\n\n    function _approveTransfer(uint _tokenId) internal returns (bool) {\n        UserTransferApproved[_tokenId] = true;\n        return true;\n    }\n\n    function _undoApproveTransfer(uint _tokenId) internal returns (bool) {\n        UserTransferApproved[_tokenId] = false;\n    }\n\n    function isApprovedForAll(address owner, address operator)\n    public view virtual\n    override (ERC721)\n    returns (bool) {\n\n        bool isApproved = ( hasRole(THE_COURT_ROLE, operator)\n                            || hasRole(JURY_BAILIFF, operator));\n        return isApproved;\n    }\n\n    function setApprovalForAll(address operator, bool approved)\n    public virtual\n    override (ERC721) {\n        \n         require(   hasRole(THE_COURT_ROLE, msg.sender)\n                    || hasRole(JURY_BAILIFF, msg.sender),\n                    \"You do not have permission to set approval for all\");\n        super.setApprovalForAll(operator, approved);\n    }\n\n    function _beforeTokenTransfer(address from, address to, uint256 _tokenId)\n        internal\n        override(ERC721, ERC721Enumerable)\n    {\n        require(isApprovedForAll(from, msg.sender) || UserTransferApproved[_tokenId], \"Please visit the DAO to change your address!\");\n         \n        if (UserTransferApproved[_tokenId] && _isApprovedOrOwner(msg.sender, _tokenId)) {\n            require(UserTransferApproved[_tokenId]);\n            require(_undoApproveTransfer(_tokenId));\n            super._beforeTokenTransfer(from, to, _tokenId);\n        } else {\n            super._beforeTokenTransfer(from, to, _tokenId);\n        }\n\n    }\n    \n    function _burn(uint256 tokenId) internal virtual override (ERC721, ERC721URIStorage){\n        ERC721URIStorage._burn(tokenId);\n    }\n\n    function supportsInterface(bytes4 interfaceId)\n        public\n        view\n        override(ERC721, ERC721Enumerable, AccessControlEnumerable)\n        returns (bool)\n    {\n        return super.supportsInterface(interfaceId);\n    }\n\n    /////////////////////////////////////////////////////////////////////////////////////////////////\n    /////////////////////////////////////////////////////////////////////////////////////////////////\n    /// @dev                                                                                     ////\n    /// End                                                                                      ////\n    /////////////////////////////////////////////////////////////////////////////////////////////////\n    /////////////////////////////////////////////////////////////////////////////////////////////////\n}",
  "sourcePath": "/home/n/Desktop/PinkSlips_FrontEnd_REFORMAT/contracts/src/ERC721/IdentityBadge.sol",
  "compiler": {
    "name": "solc",
    "version": "0.8.6+commit.11564f7e.Emscripten.clang"
  },
  "schemaVersion": "3.4.1",
  "updatedAt": "2021-08-09T09:06:44.621Z",
  "devdoc": {
    "kind": "dev",
    "methods": {
      "approve(address,uint256)": {
        "details": "See {IERC721-approve}."
      },
      "approveUserTransfer(uint256)": {
        "details": "//// Transfer rules                                                                           ////"
      },
      "balanceOf(address)": {
        "details": "See {IERC721-balanceOf}."
      },
      "getApproved(uint256)": {
        "details": "See {IERC721-getApproved}."
      },
      "getRoleAdmin(bytes32)": {
        "details": "Returns the admin role that controls `role`. See {grantRole} and {revokeRole}. To change a role's admin, use {_setRoleAdmin}."
      },
      "getRoleMember(bytes32,uint256)": {
        "details": "Returns one of the accounts that have `role`. `index` must be a value between 0 and {getRoleMemberCount}, non-inclusive. Role bearers are not sorted in any particular way, and their ordering may change at any point. WARNING: When using {getRoleMember} and {getRoleMemberCount}, make sure you perform all queries on the same block. See the following https://forum.openzeppelin.com/t/iterating-over-elements-on-enumerableset-in-openzeppelin-contracts/2296[forum post] for more information."
      },
      "getRoleMemberCount(bytes32)": {
        "details": "Returns the number of accounts that have `role`. Can be used together with {getRoleMember} to enumerate all bearers of a role."
      },
      "grantRole(bytes32,address)": {
        "details": "Overload {grantRole} to track enumerable memberships"
      },
      "hasRole(bytes32,address)": {
        "details": "Returns `true` if `account` has been granted `role`."
      },
      "isApprovedForAll(address,address)": {
        "details": "See {IERC721-isApprovedForAll}."
      },
      "issueBadge(address,string,string,address,uint256,uint256)": {
        "details": "//// Issuance Desk                                                                            ////"
      },
      "name()": {
        "details": "See {IERC721Metadata-name}."
      },
      "ownerOf(uint256)": {
        "details": "See {IERC721-ownerOf}."
      },
      "pause()": {
        "details": "//// Maintanence\\\\\\\\\\\\\\\\\\\\\\\\\\\\\\\\\\\\\\\\\\\\\\\\\\\\\\                                                   ////"
      },
      "paused()": {
        "details": "Returns true if the contract is paused, and false otherwise."
      },
      "renounceRole(bytes32,address)": {
        "details": "Overload {renounceRole} to track enumerable memberships"
      },
      "revokeRole(bytes32,address)": {
        "details": "Overload {revokeRole} to track enumerable memberships"
      },
      "safeTransferFrom(address,address,uint256)": {
        "details": "See {IERC721-safeTransferFrom}."
      },
      "safeTransferFrom(address,address,uint256,bytes)": {
        "details": "See {IERC721-safeTransferFrom}."
      },
      "setApprovalForAll(address,bool)": {
        "details": "See {IERC721-setApprovalForAll}."
      },
      "symbol()": {
        "details": "See {IERC721Metadata-symbol}."
      },
      "tokenByIndex(uint256)": {
        "details": "See {IERC721Enumerable-tokenByIndex}."
      },
      "tokenOfOwnerByIndex(address,uint256)": {
        "details": "See {IERC721Enumerable-tokenOfOwnerByIndex}."
      },
      "totalSupply()": {
        "details": "See {IERC721Enumerable-totalSupply}."
      },
      "transferFrom(address,address,uint256)": {
        "details": "See {IERC721-transferFrom}."
      }
    },
    "version": 1
  },
  "userdoc": {
    "kind": "user",
    "methods": {},
    "version": 1
  }
}