{
  "contractName": "IdentityBadge",
  "abi": [
    {
      "inputs": [
        {
          "internalType": "string",
          "name": "_badgeName",
          "type": "string"
        },
        {
          "internalType": "string",
          "name": "_badgeSymbol",
          "type": "string"
        },
        {
          "internalType": "string",
          "name": "_socialPlatform",
          "type": "string"
        },
        {
          "internalType": "address",
          "name": "_AddressManagerAddress",
          "type": "address"
        }
      ],
      "stateMutability": "nonpayable",
      "type": "constructor"
    },
    {
      "anonymous": false,
      "inputs": [
        {
          "indexed": true,
          "internalType": "address",
          "name": "owner",
          "type": "address"
        },
        {
          "indexed": true,
          "internalType": "address",
          "name": "approved",
          "type": "address"
        },
        {
          "indexed": true,
          "internalType": "uint256",
          "name": "tokenId",
          "type": "uint256"
        }
      ],
      "name": "Approval",
      "type": "event"
    },
    {
      "anonymous": false,
      "inputs": [
        {
          "indexed": true,
          "internalType": "address",
          "name": "owner",
          "type": "address"
        },
        {
          "indexed": true,
          "internalType": "address",
          "name": "operator",
          "type": "address"
        },
        {
          "indexed": false,
          "internalType": "bool",
          "name": "approved",
          "type": "bool"
        }
      ],
      "name": "ApprovalForAll",
      "type": "event"
    },
    {
      "anonymous": false,
      "inputs": [
        {
          "indexed": false,
          "internalType": "address",
          "name": "account",
          "type": "address"
        }
      ],
      "name": "Paused",
      "type": "event"
    },
    {
      "anonymous": false,
      "inputs": [
        {
          "indexed": true,
          "internalType": "bytes32",
          "name": "role",
          "type": "bytes32"
        },
        {
          "indexed": true,
          "internalType": "bytes32",
          "name": "previousAdminRole",
          "type": "bytes32"
        },
        {
          "indexed": true,
          "internalType": "bytes32",
          "name": "newAdminRole",
          "type": "bytes32"
        }
      ],
      "name": "RoleAdminChanged",
      "type": "event"
    },
    {
      "anonymous": false,
      "inputs": [
        {
          "indexed": true,
          "internalType": "bytes32",
          "name": "role",
          "type": "bytes32"
        },
        {
          "indexed": true,
          "internalType": "address",
          "name": "account",
          "type": "address"
        },
        {
          "indexed": true,
          "internalType": "address",
          "name": "sender",
          "type": "address"
        }
      ],
      "name": "RoleGranted",
      "type": "event"
    },
    {
      "anonymous": false,
      "inputs": [
        {
          "indexed": true,
          "internalType": "bytes32",
          "name": "role",
          "type": "bytes32"
        },
        {
          "indexed": true,
          "internalType": "address",
          "name": "account",
          "type": "address"
        },
        {
          "indexed": true,
          "internalType": "address",
          "name": "sender",
          "type": "address"
        }
      ],
      "name": "RoleRevoked",
      "type": "event"
    },
    {
      "anonymous": false,
      "inputs": [
        {
          "indexed": true,
          "internalType": "address",
          "name": "from",
          "type": "address"
        },
        {
          "indexed": true,
          "internalType": "address",
          "name": "to",
          "type": "address"
        },
        {
          "indexed": true,
          "internalType": "uint256",
          "name": "tokenId",
          "type": "uint256"
        }
      ],
      "name": "Transfer",
      "type": "event"
    },
    {
      "anonymous": false,
      "inputs": [
        {
          "indexed": false,
          "internalType": "address",
          "name": "account",
          "type": "address"
        }
      ],
      "name": "Unpaused",
      "type": "event"
    },
    {
      "inputs": [],
      "name": "AddressManagerAddress",
      "outputs": [
        {
          "internalType": "address",
          "name": "",
          "type": "address"
        }
      ],
      "stateMutability": "view",
      "type": "function"
    },
    {
      "inputs": [],
      "name": "ChadBadgeAddress",
      "outputs": [
        {
          "internalType": "address",
          "name": "",
          "type": "address"
        }
      ],
      "stateMutability": "view",
      "type": "function"
    },
    {
      "inputs": [],
      "name": "ColoredIDAddress",
      "outputs": [
        {
          "internalType": "address",
          "name": "",
          "type": "address"
        }
      ],
      "stateMutability": "view",
      "type": "function"
    },
    {
      "inputs": [],
      "name": "CourtClerk",
      "outputs": [
        {
          "internalType": "address",
          "name": "",
          "type": "address"
        }
      ],
      "stateMutability": "view",
      "type": "function"
    },
    {
      "inputs": [],
      "name": "DEFAULT_ADMIN_ROLE",
      "outputs": [
        {
          "internalType": "bytes32",
          "name": "",
          "type": "bytes32"
        }
      ],
      "stateMutability": "view",
      "type": "function"
    },
    {
      "inputs": [],
      "name": "GAVELS_BAILIFF",
      "outputs": [
        {
          "internalType": "bytes32",
          "name": "",
          "type": "bytes32"
        }
      ],
      "stateMutability": "view",
      "type": "function"
    },
    {
      "inputs": [],
      "name": "GavelDAOAgent",
      "outputs": [
        {
          "internalType": "address",
          "name": "",
          "type": "address"
        }
      ],
      "stateMutability": "view",
      "type": "function"
    },
    {
      "inputs": [],
      "name": "GavelTokenAddress",
      "outputs": [
        {
          "internalType": "address",
          "name": "",
          "type": "address"
        }
      ],
      "stateMutability": "view",
      "type": "function"
    },
    {
      "inputs": [],
      "name": "GavelVote",
      "outputs": [
        {
          "internalType": "bool",
          "name": "",
          "type": "bool"
        }
      ],
      "stateMutability": "view",
      "type": "function"
    },
    {
      "inputs": [],
      "name": "GoldStarAddress",
      "outputs": [
        {
          "internalType": "address",
          "name": "",
          "type": "address"
        }
      ],
      "stateMutability": "view",
      "type": "function"
    },
    {
      "inputs": [
        {
          "internalType": "uint256",
          "name": "",
          "type": "uint256"
        }
      ],
      "name": "IDCardInfo",
      "outputs": [
        {
          "internalType": "string",
          "name": "pseudonym",
          "type": "string"
        },
        {
          "internalType": "string",
          "name": "socialHandle",
          "type": "string"
        },
        {
          "internalType": "address",
          "name": "avatarTokenAddress",
          "type": "address"
        },
        {
          "internalType": "uint256",
          "name": "avatarTokenId",
          "type": "uint256"
        },
        {
          "internalType": "uint256",
          "name": "avatarNetworkId",
          "type": "uint256"
        }
      ],
      "stateMutability": "view",
      "type": "function"
    },
    {
      "inputs": [],
      "name": "JERK_ROLE",
      "outputs": [
        {
          "internalType": "bytes32",
          "name": "",
          "type": "bytes32"
        }
      ],
      "stateMutability": "view",
      "type": "function"
    },
    {
      "inputs": [],
      "name": "JURY_BAILIFF",
      "outputs": [
        {
          "internalType": "bytes32",
          "name": "",
          "type": "bytes32"
        }
      ],
      "stateMutability": "view",
      "type": "function"
    },
    {
      "inputs": [],
      "name": "JuryDAOAgent",
      "outputs": [
        {
          "internalType": "address",
          "name": "",
          "type": "address"
        }
      ],
      "stateMutability": "view",
      "type": "function"
    },
    {
      "inputs": [],
      "name": "JuryPoolAddress",
      "outputs": [
        {
          "internalType": "address",
          "name": "",
          "type": "address"
        }
      ],
      "stateMutability": "view",
      "type": "function"
    },
    {
      "inputs": [],
      "name": "JuryVote",
      "outputs": [
        {
          "internalType": "bool",
          "name": "",
          "type": "bool"
        }
      ],
      "stateMutability": "view",
      "type": "function"
    },
    {
      "inputs": [],
      "name": "MINI_BAILIFF_ROLE",
      "outputs": [
        {
          "internalType": "bytes32",
          "name": "",
          "type": "bytes32"
        }
      ],
      "stateMutability": "view",
      "type": "function"
    },
    {
      "inputs": [],
      "name": "MiniBailiff",
      "outputs": [
        {
          "internalType": "address",
          "name": "",
          "type": "address"
        }
      ],
      "stateMutability": "view",
      "type": "function"
    },
    {
      "inputs": [],
      "name": "PinkSlipAddress",
      "outputs": [
        {
          "internalType": "address",
          "name": "",
          "type": "address"
        }
      ],
      "stateMutability": "view",
      "type": "function"
    },
    {
      "inputs": [
        {
          "internalType": "string",
          "name": "",
          "type": "string"
        }
      ],
      "name": "Pseudonym",
      "outputs": [
        {
          "internalType": "uint256",
          "name": "",
          "type": "uint256"
        }
      ],
      "stateMutability": "view",
      "type": "function"
    },
    {
      "inputs": [],
      "name": "RedPenTokenAddress",
      "outputs": [
        {
          "internalType": "address",
          "name": "",
          "type": "address"
        }
      ],
      "stateMutability": "view",
      "type": "function"
    },
    {
      "inputs": [
        {
          "internalType": "string",
          "name": "",
          "type": "string"
        }
      ],
      "name": "SocialHandle",
      "outputs": [
        {
          "internalType": "uint256",
          "name": "",
          "type": "uint256"
        }
      ],
      "stateMutability": "view",
      "type": "function"
    },
    {
      "inputs": [],
      "name": "THE_COURT_ROLE",
      "outputs": [
        {
          "internalType": "bytes32",
          "name": "",
          "type": "bytes32"
        }
      ],
      "stateMutability": "view",
      "type": "function"
    },
    {
      "inputs": [],
      "name": "TheCourtAddress",
      "outputs": [
        {
          "internalType": "address",
          "name": "",
          "type": "address"
        }
      ],
      "stateMutability": "view",
      "type": "function"
    },
    {
      "inputs": [],
      "name": "TreasuryAddress",
      "outputs": [
        {
          "internalType": "address",
          "name": "",
          "type": "address"
        }
      ],
      "stateMutability": "view",
      "type": "function"
    },
    {
      "inputs": [
        {
          "internalType": "uint256",
          "name": "",
          "type": "uint256"
        }
      ],
      "name": "UserTransferApproved",
      "outputs": [
        {
          "internalType": "bool",
          "name": "",
          "type": "bool"
        }
      ],
      "stateMutability": "view",
      "type": "function"
    },
    {
      "inputs": [],
      "name": "addressManager",
      "outputs": [
        {
          "internalType": "contract AddressManager",
          "name": "",
          "type": "address"
        }
      ],
      "stateMutability": "view",
      "type": "function"
    },
    {
      "inputs": [
        {
          "internalType": "address",
          "name": "to",
          "type": "address"
        },
        {
          "internalType": "uint256",
          "name": "tokenId",
          "type": "uint256"
        }
      ],
      "name": "approve",
      "outputs": [],
      "stateMutability": "nonpayable",
      "type": "function"
    },
    {
      "inputs": [],
      "name": "badgeColor",
      "outputs": [
        {
          "internalType": "string",
          "name": "",
          "type": "string"
        }
      ],
      "stateMutability": "view",
      "type": "function"
    },
    {
      "inputs": [],
      "name": "badgeName",
      "outputs": [
        {
          "internalType": "string",
          "name": "",
          "type": "string"
        }
      ],
      "stateMutability": "view",
      "type": "function"
    },
    {
      "inputs": [
        {
          "internalType": "address",
          "name": "owner",
          "type": "address"
        }
      ],
      "name": "balanceOf",
      "outputs": [
        {
          "internalType": "uint256",
          "name": "",
          "type": "uint256"
        }
      ],
      "stateMutability": "view",
      "type": "function"
    },
    {
      "inputs": [],
      "name": "baseURI_",
      "outputs": [
        {
          "internalType": "string",
          "name": "",
          "type": "string"
        }
      ],
      "stateMutability": "view",
      "type": "function"
    },
    {
      "inputs": [
        {
          "internalType": "uint256",
          "name": "tokenId",
          "type": "uint256"
        }
      ],
      "name": "getApproved",
      "outputs": [
        {
          "internalType": "address",
          "name": "",
          "type": "address"
        }
      ],
      "stateMutability": "view",
      "type": "function"
    },
    {
      "inputs": [
        {
          "internalType": "bytes32",
          "name": "role",
          "type": "bytes32"
        }
      ],
      "name": "getRoleAdmin",
      "outputs": [
        {
          "internalType": "bytes32",
          "name": "",
          "type": "bytes32"
        }
      ],
      "stateMutability": "view",
      "type": "function"
    },
    {
      "inputs": [
        {
          "internalType": "bytes32",
          "name": "role",
          "type": "bytes32"
        },
        {
          "internalType": "uint256",
          "name": "index",
          "type": "uint256"
        }
      ],
      "name": "getRoleMember",
      "outputs": [
        {
          "internalType": "address",
          "name": "",
          "type": "address"
        }
      ],
      "stateMutability": "view",
      "type": "function"
    },
    {
      "inputs": [
        {
          "internalType": "bytes32",
          "name": "role",
          "type": "bytes32"
        }
      ],
      "name": "getRoleMemberCount",
      "outputs": [
        {
          "internalType": "uint256",
          "name": "",
          "type": "uint256"
        }
      ],
      "stateMutability": "view",
      "type": "function"
    },
    {
      "inputs": [
        {
          "internalType": "bytes32",
          "name": "role",
          "type": "bytes32"
        },
        {
          "internalType": "address",
          "name": "account",
          "type": "address"
        }
      ],
      "name": "grantRole",
      "outputs": [],
      "stateMutability": "nonpayable",
      "type": "function"
    },
    {
      "inputs": [
        {
          "internalType": "bytes32",
          "name": "role",
          "type": "bytes32"
        },
        {
          "internalType": "address",
          "name": "account",
          "type": "address"
        }
      ],
      "name": "hasRole",
      "outputs": [
        {
          "internalType": "bool",
          "name": "",
          "type": "bool"
        }
      ],
      "stateMutability": "view",
      "type": "function"
    },
    {
      "inputs": [],
      "name": "isForeverLocked",
      "outputs": [
        {
          "internalType": "bool",
          "name": "",
          "type": "bool"
        }
      ],
      "stateMutability": "view",
      "type": "function"
    },
    {
      "inputs": [],
      "name": "jerkSanctions",
      "outputs": [
        {
          "internalType": "bool",
          "name": "",
          "type": "bool"
        }
      ],
      "stateMutability": "view",
      "type": "function"
    },
    {
      "inputs": [],
      "name": "mintingCost",
      "outputs": [
        {
          "internalType": "uint256",
          "name": "",
          "type": "uint256"
        }
      ],
      "stateMutability": "view",
      "type": "function"
    },
    {
      "inputs": [],
      "name": "name",
      "outputs": [
        {
          "internalType": "string",
          "name": "",
          "type": "string"
        }
      ],
      "stateMutability": "view",
      "type": "function"
    },
    {
      "inputs": [
        {
          "internalType": "uint256",
          "name": "tokenId",
          "type": "uint256"
        }
      ],
      "name": "ownerOf",
      "outputs": [
        {
          "internalType": "address",
          "name": "",
          "type": "address"
        }
      ],
      "stateMutability": "view",
      "type": "function"
    },
    {
      "inputs": [],
      "name": "paused",
      "outputs": [
        {
          "internalType": "bool",
          "name": "",
          "type": "bool"
        }
      ],
      "stateMutability": "view",
      "type": "function"
    },
    {
      "inputs": [],
      "name": "pensBalance",
      "outputs": [
        {
          "internalType": "uint256",
          "name": "",
          "type": "uint256"
        }
      ],
      "stateMutability": "view",
      "type": "function"
    },
    {
      "inputs": [
        {
          "internalType": "bytes32",
          "name": "role",
          "type": "bytes32"
        },
        {
          "internalType": "address",
          "name": "account",
          "type": "address"
        }
      ],
      "name": "renounceRole",
      "outputs": [],
      "stateMutability": "nonpayable",
      "type": "function"
    },
    {
      "inputs": [],
      "name": "resetVote",
      "outputs": [],
      "stateMutability": "nonpayable",
      "type": "function"
    },
    {
      "inputs": [
        {
          "internalType": "bytes32",
          "name": "role",
          "type": "bytes32"
        },
        {
          "internalType": "address",
          "name": "account",
          "type": "address"
        }
      ],
      "name": "revokeRole",
      "outputs": [],
      "stateMutability": "nonpayable",
      "type": "function"
    },
    {
      "inputs": [
        {
          "internalType": "address",
          "name": "from",
          "type": "address"
        },
        {
          "internalType": "address",
          "name": "to",
          "type": "address"
        },
        {
          "internalType": "uint256",
          "name": "tokenId",
          "type": "uint256"
        }
      ],
      "name": "safeTransferFrom",
      "outputs": [],
      "stateMutability": "nonpayable",
      "type": "function"
    },
    {
      "inputs": [
        {
          "internalType": "address",
          "name": "from",
          "type": "address"
        },
        {
          "internalType": "address",
          "name": "to",
          "type": "address"
        },
        {
          "internalType": "uint256",
          "name": "tokenId",
          "type": "uint256"
        },
        {
          "internalType": "bytes",
          "name": "_data",
          "type": "bytes"
        }
      ],
      "name": "safeTransferFrom",
      "outputs": [],
      "stateMutability": "nonpayable",
      "type": "function"
    },
    {
      "inputs": [],
      "name": "socialPlatform",
      "outputs": [
        {
          "internalType": "string",
          "name": "",
          "type": "string"
        }
      ],
      "stateMutability": "view",
      "type": "function"
    },
    {
      "inputs": [],
      "name": "subsidyDegradationRate",
      "outputs": [
        {
          "internalType": "uint256",
          "name": "",
          "type": "uint256"
        }
      ],
      "stateMutability": "view",
      "type": "function"
    },
    {
      "inputs": [],
      "name": "subsidyFloor",
      "outputs": [
        {
          "internalType": "uint256",
          "name": "",
          "type": "uint256"
        }
      ],
      "stateMutability": "view",
      "type": "function"
    },
    {
      "inputs": [],
      "name": "subsidyInitialValue",
      "outputs": [
        {
          "internalType": "uint256",
          "name": "",
          "type": "uint256"
        }
      ],
      "stateMutability": "view",
      "type": "function"
    },
    {
      "inputs": [],
      "name": "subsidyToken",
      "outputs": [
        {
          "internalType": "contract IERC20",
          "name": "",
          "type": "address"
        }
      ],
      "stateMutability": "view",
      "type": "function"
    },
    {
      "inputs": [],
      "name": "symbol",
      "outputs": [
        {
          "internalType": "string",
          "name": "",
          "type": "string"
        }
      ],
      "stateMutability": "view",
      "type": "function"
    },
    {
      "inputs": [],
      "name": "syncAllRoles",
      "outputs": [],
      "stateMutability": "nonpayable",
      "type": "function"
    },
    {
      "inputs": [
        {
          "internalType": "bytes32",
          "name": "ROLE_TO_SYNC",
          "type": "bytes32"
        }
      ],
      "name": "syncSingleRole",
      "outputs": [],
      "stateMutability": "nonpayable",
      "type": "function"
    },
    {
      "inputs": [],
      "name": "syncVotes",
      "outputs": [],
      "stateMutability": "nonpayable",
      "type": "function"
    },
    {
      "inputs": [
        {
          "internalType": "uint256",
          "name": "index",
          "type": "uint256"
        }
      ],
      "name": "tokenByIndex",
      "outputs": [
        {
          "internalType": "uint256",
          "name": "",
          "type": "uint256"
        }
      ],
      "stateMutability": "view",
      "type": "function"
    },
    {
      "inputs": [
        {
          "internalType": "address",
          "name": "owner",
          "type": "address"
        },
        {
          "internalType": "uint256",
          "name": "index",
          "type": "uint256"
        }
      ],
      "name": "tokenOfOwnerByIndex",
      "outputs": [
        {
          "internalType": "uint256",
          "name": "",
          "type": "uint256"
        }
      ],
      "stateMutability": "view",
      "type": "function"
    },
    {
      "inputs": [],
      "name": "totalSupply",
      "outputs": [
        {
          "internalType": "uint256",
          "name": "",
          "type": "uint256"
        }
      ],
      "stateMutability": "view",
      "type": "function"
    },
    {
      "inputs": [
        {
          "internalType": "address",
          "name": "from",
          "type": "address"
        },
        {
          "internalType": "address",
          "name": "to",
          "type": "address"
        },
        {
          "internalType": "uint256",
          "name": "tokenId",
          "type": "uint256"
        }
      ],
      "name": "transferFrom",
      "outputs": [],
      "stateMutability": "nonpayable",
      "type": "function"
    },
    {
      "inputs": [],
      "name": "updateAddressManager",
      "outputs": [],
      "stateMutability": "nonpayable",
      "type": "function"
    },
    {
      "inputs": [],
      "name": "updateAllAddresses",
      "outputs": [],
      "stateMutability": "nonpayable",
      "type": "function"
    },
    {
      "inputs": [],
      "name": "updateAllRoles",
      "outputs": [],
      "stateMutability": "nonpayable",
      "type": "function"
    },
    {
      "inputs": [],
      "name": "updateDAOAddresses",
      "outputs": [],
      "stateMutability": "nonpayable",
      "type": "function"
    },
    {
      "inputs": [
        {
          "internalType": "bytes32",
          "name": "ROLE_TO_UPDATE",
          "type": "bytes32"
        }
      ],
      "name": "updateSingleRole",
      "outputs": [],
      "stateMutability": "nonpayable",
      "type": "function"
    },
    {
      "inputs": [],
      "name": "updateTokenAddresses",
      "outputs": [],
      "stateMutability": "nonpayable",
      "type": "function"
    },
    {
      "inputs": [
        {
          "internalType": "address",
          "name": "_avatarTokenAddress",
          "type": "address"
        },
        {
          "internalType": "uint256",
          "name": "_avatarTokenId",
          "type": "uint256"
        }
      ],
      "name": "updateAvatar",
      "outputs": [],
      "stateMutability": "nonpayable",
      "type": "function"
    },
    {
      "inputs": [
        {
          "internalType": "uint256",
          "name": "_tokenId",
          "type": "uint256"
        },
        {
          "internalType": "address",
          "name": "_avatarTokenAddress",
          "type": "address"
        },
        {
          "internalType": "uint256",
          "name": "_avatarTokenId",
          "type": "uint256"
        },
        {
          "internalType": "uint256",
          "name": "_avatarNetworkId",
          "type": "uint256"
        }
      ],
      "name": "updateAvatar",
      "outputs": [],
      "stateMutability": "nonpayable",
      "type": "function"
    },
    {
      "inputs": [
        {
          "internalType": "uint256",
          "name": "_tokenId",
          "type": "uint256"
        },
        {
          "internalType": "address",
          "name": "_avatarTokenAddress",
          "type": "address"
        },
        {
          "internalType": "uint256",
          "name": "_avatarTokenId",
          "type": "uint256"
        }
      ],
      "name": "updateAvatar",
      "outputs": [],
      "stateMutability": "nonpayable",
      "type": "function"
    },
    {
      "inputs": [
        {
          "internalType": "uint256",
          "name": "_tokenId",
          "type": "uint256"
        },
        {
          "internalType": "string",
          "name": "_contentHash",
          "type": "string"
        }
      ],
      "name": "updateImageHash",
      "outputs": [],
      "stateMutability": "nonpayable",
      "type": "function"
    },
    {
      "inputs": [
        {
          "internalType": "string",
          "name": "_SocialHandle",
          "type": "string"
        }
      ],
      "name": "getIDFromHandle",
      "outputs": [
        {
          "internalType": "uint256",
          "name": "_tokenId",
          "type": "uint256"
        }
      ],
      "stateMutability": "view",
      "type": "function"
    },
    {
      "inputs": [
        {
          "internalType": "uint256",
          "name": "_tokenId",
          "type": "uint256"
        }
      ],
      "name": "getBadgeInfo",
      "outputs": [
        {
          "internalType": "string",
          "name": "_pseudonym",
          "type": "string"
        },
        {
          "internalType": "string",
          "name": "_socialHandle",
          "type": "string"
        },
        {
          "internalType": "address",
          "name": "_avatarTokenAddress",
          "type": "address"
        },
        {
          "internalType": "uint256",
          "name": "_avatarTokenId",
          "type": "uint256"
        }
      ],
      "stateMutability": "view",
      "type": "function"
    },
    {
      "inputs": [
        {
          "internalType": "address",
          "name": "receivingAddress",
          "type": "address"
        },
        {
          "internalType": "string",
          "name": "_pseudonym",
          "type": "string"
        },
        {
          "internalType": "string",
          "name": "_socialHandle",
          "type": "string"
        },
        {
          "internalType": "address",
          "name": "_avatarTokenAddress",
          "type": "address"
        },
        {
          "internalType": "uint256",
          "name": "_avatarTokenId",
          "type": "uint256"
        }
      ],
      "name": "issueBadge",
      "outputs": [
        {
          "internalType": "uint256",
          "name": "newId",
          "type": "uint256"
        }
      ],
      "stateMutability": "nonpayable",
      "type": "function"
    },
    {
      "inputs": [
        {
          "internalType": "address",
          "name": "receivingAddress",
          "type": "address"
        },
        {
          "internalType": "string",
          "name": "_pseudonym",
          "type": "string"
        },
        {
          "internalType": "string",
          "name": "_socialHandle",
          "type": "string"
        },
        {
          "internalType": "address",
          "name": "_avatarTokenAddress",
          "type": "address"
        },
        {
          "internalType": "uint256",
          "name": "_avatarTokenId",
          "type": "uint256"
        },
        {
          "internalType": "string",
          "name": "_TokenURI",
          "type": "string"
        }
      ],
      "name": "issueBadge",
      "outputs": [
        {
          "internalType": "uint256",
          "name": "newId",
          "type": "uint256"
        }
      ],
      "stateMutability": "nonpayable",
      "type": "function"
    },
    {
      "inputs": [
        {
          "internalType": "address",
          "name": "receivingAddress",
          "type": "address"
        },
        {
          "internalType": "string",
          "name": "_pseudonym",
          "type": "string"
        },
        {
          "internalType": "string",
          "name": "_socialHandle",
          "type": "string"
        },
        {
          "internalType": "address",
          "name": "_avatarTokenAddress",
          "type": "address"
        },
        {
          "internalType": "uint256",
          "name": "_avatarTokenId",
          "type": "uint256"
        },
        {
          "internalType": "uint256",
          "name": "_avatarNetworkId",
          "type": "uint256"
        },
        {
          "internalType": "uint256",
          "name": "_tokenId",
          "type": "uint256"
        },
        {
          "internalType": "string",
          "name": "_tokenURI",
          "type": "string"
        }
      ],
      "name": "issueBadge",
      "outputs": [
        {
          "internalType": "uint256",
          "name": "newId",
          "type": "uint256"
        }
      ],
      "stateMutability": "nonpayable",
      "type": "function"
    },
    {
      "inputs": [
        {
          "internalType": "uint256",
          "name": "_tokenId",
          "type": "uint256"
        }
      ],
      "name": "revokeBadge",
      "outputs": [],
      "stateMutability": "nonpayable",
      "type": "function"
    },
    {
      "inputs": [
        {
          "internalType": "address",
          "name": "operator",
          "type": "address"
        },
        {
          "internalType": "address",
          "name": "from",
          "type": "address"
        },
        {
          "internalType": "uint256",
          "name": "tokenId",
          "type": "uint256"
        },
        {
          "internalType": "bytes",
          "name": "data",
          "type": "bytes"
        }
      ],
      "name": "onERC721Received",
      "outputs": [
        {
          "internalType": "bytes4",
          "name": "",
          "type": "bytes4"
        }
      ],
      "stateMutability": "nonpayable",
      "type": "function"
    },
    {
      "inputs": [],
      "name": "pause",
      "outputs": [],
      "stateMutability": "nonpayable",
      "type": "function"
    },
    {
      "inputs": [],
      "name": "unpause",
      "outputs": [],
      "stateMutability": "nonpayable",
      "type": "function"
    },
    {
      "inputs": [
        {
          "internalType": "bool",
          "name": "_thisIsNotReversible",
          "type": "bool"
        }
      ],
      "name": "refreshBadges",
      "outputs": [
        {
          "internalType": "bool",
          "name": "",
          "type": "bool"
        }
      ],
      "stateMutability": "nonpayable",
      "type": "function"
    },
    {
      "inputs": [
        {
          "internalType": "uint256",
          "name": "_valueMustBe69",
          "type": "uint256"
        }
      ],
      "name": "destroyAndLockContract",
      "outputs": [
        {
          "internalType": "bool",
          "name": "",
          "type": "bool"
        }
      ],
      "stateMutability": "nonpayable",
      "type": "function"
    },
    {
      "inputs": [
        {
          "internalType": "string",
          "name": "_baseURIString",
          "type": "string"
        }
      ],
      "name": "setBaseURI",
      "outputs": [
        {
          "internalType": "bool",
          "name": "",
          "type": "bool"
        }
      ],
      "stateMutability": "nonpayable",
      "type": "function"
    },
    {
      "inputs": [
        {
          "internalType": "uint256",
          "name": "_tokenId",
          "type": "uint256"
        }
      ],
      "name": "tokenURI",
      "outputs": [
        {
          "internalType": "string",
          "name": "_URI",
          "type": "string"
        }
      ],
      "stateMutability": "view",
      "type": "function"
    },
    {
      "inputs": [
        {
          "internalType": "uint256",
          "name": "_tokenId",
          "type": "uint256"
        }
      ],
      "name": "approveUserTransfer",
      "outputs": [],
      "stateMutability": "nonpayable",
      "type": "function"
    },
    {
      "inputs": [
        {
          "internalType": "address",
          "name": "owner",
          "type": "address"
        },
        {
          "internalType": "address",
          "name": "operator",
          "type": "address"
        }
      ],
      "name": "isApprovedForAll",
      "outputs": [
        {
          "internalType": "bool",
          "name": "",
          "type": "bool"
        }
      ],
      "stateMutability": "view",
      "type": "function"
    },
    {
      "inputs": [
        {
          "internalType": "address",
          "name": "operator",
          "type": "address"
        },
        {
          "internalType": "bool",
          "name": "approved",
          "type": "bool"
        }
      ],
      "name": "setApprovalForAll",
      "outputs": [],
      "stateMutability": "nonpayable",
      "type": "function"
    },
    {
      "inputs": [
        {
          "internalType": "bytes4",
          "name": "interfaceId",
          "type": "bytes4"
        }
      ],
      "name": "supportsInterface",
      "outputs": [
        {
          "internalType": "bool",
          "name": "",
          "type": "bool"
        }
      ],
      "stateMutability": "view",
      "type": "function"
    }
  ],
  "bytecode": "0x6000805460ff1990811682556011805463ffffffff60a01b191690556001601e5560b4602055683635c9adc5dea000006021556045602255602391909155602480549091169055636970667360e01b60a0908152601d60f91b60a452602f60f81b60a581905260a6526007608081905260a7604052620000829160289162000d23565b503480156200009057600080fd5b5060405162006ce338038062006ce3833981016040819052620000b39162000f6a565b600380546001600160a01b0383166001600160a01b03199182168117909255601180549091169091179055838382620000eb6200034c565b620000f562000362565b600f546200010f906000906001600160a01b0316620004ad565b600f5462000148907f0538d24a8b7882d7b2e36af243d4af61c23e86e3daa6cb8c887b53220b2f5720906001600160a01b0316620004ad565b600c5462000181907f048bc71fa1cb2c119c339cf9cf00a97996a19a9d991ce5fe049f2fa5459e7990906001600160a01b0316620004ad565b600d54620001ba907ffa8e4989e1d689f7bc5c4b25b87efb51fecdecb19ba62847e29c759e12a89acd906001600160a01b0316620004ad565b601054620001f3907ff0f4b159a6e2a4815eb3ca3df080bfa70c9270662c59bcaa4479a456220183e6906001600160a01b0316620004ad565b620002207f7c9d7f6f02908185bffb3f7fc9afb29fd7bf93675af8fd4b655ee05c2cee1e0e6000620004ad565b5081516200023690601290602085019062000d23565b5080516200024c90601390602084019062000d23565b50506018805460ff1916905550620002636200034c565b82516200027890602690602086019062000d23565b5083516200028e90602790602087019062000d23565b5060258080546200029f9062001028565b620002ac92919062000db2565b50600554602980546001600160a01b0319166001600160a01b0390921691821790556040516370a0823160e01b81523060048201526370a082319060240160206040518083038186803b1580156200030357600080fd5b505afa15801562000318573d6000803e3d6000fd5b505050506040513d601f19601f820116820180604052508101906200033e91906200100e565b601f55506200107b92505050565b62000356620004f0565b62000360620007f0565b565b601160009054906101000a90046001600160a01b03166001600160a01b031663ff7e88ec6040518163ffffffff1660e01b815260040160206040518083038186803b158015620003b157600080fd5b505afa158015620003c6573d6000803e3d6000fd5b505050506040513d601f19601f82011682018060405250810190620003ec919062000f3f565b601160156101000a81548160ff021916908315150217905550601160009054906101000a90046001600160a01b03166001600160a01b0316632fb565856040518163ffffffff1660e01b815260040160206040518083038186803b1580156200045457600080fd5b505afa15801562000469573d6000803e3d6000fd5b505050506040513d601f19601f820116820180604052508101906200048f919062000f3f565b60118054911515600160b01b0260ff60b01b19909216919091179055565b620004c4828262000c1960201b6200209e1760201c565b6000828152600260209081526040909120620004eb918390620020a862000c29821b17901c565b505050565b601160009054906101000a90046001600160a01b03166001600160a01b031663dadf56ac6040518163ffffffff1660e01b815260040160206040518083038186803b1580156200053f57600080fd5b505afa15801562000554573d6000803e3d6000fd5b505050506040513d601f19601f820116820180604052508101906200057a919062000f21565b600c80546001600160a01b0319166001600160a01b039283161790556011546040805163024bebe960e01b81529051919092169163024bebe9916004808301926020929190829003018186803b158015620005d457600080fd5b505afa158015620005e9573d6000803e3d6000fd5b505050506040513d601f19601f820116820180604052508101906200060f919062000f21565b600d80546001600160a01b0319166001600160a01b0392831617905560115460408051635b5c251f60e01b815290519190921691635b5c251f916004808301926020929190829003018186803b1580156200066957600080fd5b505afa1580156200067e573d6000803e3d6000fd5b505050506040513d601f19601f82011682018060405250810190620006a4919062000f21565b600e80546001600160a01b0319166001600160a01b0392831617905560115460408051637310bf1d60e11b81529051919092169163e6217e3a916004808301926020929190829003018186803b158015620006fe57600080fd5b505afa15801562000713573d6000803e3d6000fd5b505050506040513d601f19601f8201168201806040525081019062000739919062000f21565b601080546001600160a01b0319166001600160a01b039283161790556011546040805163d88127a160e01b81529051919092169163d88127a1916004808301926020929190829003018186803b1580156200079357600080fd5b505afa158015620007a8573d6000803e3d6000fd5b505050506040513d601f19601f82011682018060405250810190620007ce919062000f21565b600b80546001600160a01b0319166001600160a01b0392909216919091179055565b601160009054906101000a90046001600160a01b03166001600160a01b03166321d7f0086040518163ffffffff1660e01b815260040160206040518083038186803b1580156200083f57600080fd5b505afa15801562000854573d6000803e3d6000fd5b505050506040513d601f19601f820116820180604052508101906200087a919062000f21565b600480546001600160a01b0319166001600160a01b039283161781556011546040805163762ddb5960e01b81529051919093169263762ddb599281810192602092909190829003018186803b158015620008d357600080fd5b505afa158015620008e8573d6000803e3d6000fd5b505050506040513d601f19601f820116820180604052508101906200090e919062000f21565b600580546001600160a01b0319166001600160a01b039283161790556011546040805163bfb7dc9960e01b81529051919092169163bfb7dc99916004808301926020929190829003018186803b1580156200096857600080fd5b505afa1580156200097d573d6000803e3d6000fd5b505050506040513d601f19601f82011682018060405250810190620009a3919062000f21565b600680546001600160a01b0319166001600160a01b0392831617905560115460408051633e6111eb60e21b81529051919092169163f98447ac916004808301926020929190829003018186803b158015620009fd57600080fd5b505afa15801562000a12573d6000803e3d6000fd5b505050506040513d601f19601f8201168201806040525081019062000a38919062000f21565b600780546001600160a01b0319166001600160a01b0392831617905560115460408051630fe1ba9f60e21b815290519190921691633f86ea7c916004808301926020929190829003018186803b15801562000a9257600080fd5b505afa15801562000aa7573d6000803e3d6000fd5b505050506040513d601f19601f8201168201806040525081019062000acd919062000f21565b600880546001600160a01b0319166001600160a01b0392831617905560115460408051632b90024160e11b8152905191909216916357200482916004808301926020929190829003018186803b15801562000b2757600080fd5b505afa15801562000b3c573d6000803e3d6000fd5b505050506040513d601f19601f8201168201806040525081019062000b62919062000f21565b600980546001600160a01b0319166001600160a01b0392831617905560115460408051636b58477560e01b815290519190921691636b584775916004808301926020929190829003018186803b15801562000bbc57600080fd5b505afa15801562000bd1573d6000803e3d6000fd5b505050506040513d601f19601f8201168201806040525081019062000bf7919062000f21565b600a80546001600160a01b0319166001600160a01b0392909216919091179055565b62000c25828262000c49565b5050565b600062000c40836001600160a01b03841662000cd1565b90505b92915050565b60008281526001602090815260408083206001600160a01b038516845290915290205460ff1662000c255760008281526001602081815260408084206001600160a01b0386168086529252808420805460ff19169093179092559051339285917f2f8788117e7eff1d82e926ec794901d17c78024a50270940304540a733656f0d9190a45050565b600081815260018301602052604081205462000d1a5750815460018181018455600084815260208082209093018490558454848252828601909352604090209190915562000c43565b50600062000c43565b82805462000d319062001028565b90600052602060002090601f01602090048101928262000d55576000855562000da0565b82601f1062000d7057805160ff191683800117855562000da0565b8280016001018555821562000da0579182015b8281111562000da057825182559160200191906001019062000d83565b5062000dae92915062000e36565b5090565b82805462000dc09062001028565b90600052602060002090601f01602090048101928262000de4576000855562000da0565b82601f1062000df7578054855562000da0565b8280016001018555821562000da057600052602060002091601f016020900482015b8281111562000da057825482559160010191906001019062000e19565b5b8082111562000dae576000815560010162000e37565b80516001600160a01b038116811462000e6557600080fd5b919050565b600082601f83011262000e7c57600080fd5b81516001600160401b038082111562000e995762000e9962001065565b604051601f8301601f19908116603f0116810190828211818310171562000ec45762000ec462001065565b8160405283815260209250868385880101111562000ee157600080fd5b600091505b8382101562000f05578582018301518183018401529082019062000ee6565b8382111562000f175760008385830101525b9695505050505050565b60006020828403121562000f3457600080fd5b62000c408262000e4d565b60006020828403121562000f5257600080fd5b8151801515811462000f6357600080fd5b9392505050565b6000806000806080858703121562000f8157600080fd5b84516001600160401b038082111562000f9957600080fd5b62000fa78883890162000e6a565b9550602087015191508082111562000fbe57600080fd5b62000fcc8883890162000e6a565b9450604087015191508082111562000fe357600080fd5b5062000ff28782880162000e6a565b925050620010036060860162000e4d565b905092959194509250565b6000602082840312156200102157600080fd5b5051919050565b600181811c908216806200103d57607f821691505b602082108114156200105f57634e487b7160e01b600052602260045260246000fd5b50919050565b634e487b7160e01b600052604160045260246000fd5b615c58806200108b6000396000f3fe608060405234801561001057600080fd5b50600436106104ee5760003560e01c80636352211e1161028e578063c62b28e811610167578063e346195a116100d9578063f1132b3011610092578063f1132b3014610b35578063f259a29e14610b3d578063f491beb814610b45578063f7d92d8614610b4e578063f98447ac14610b56578063ff7e88ec14610b6957600080fd5b8063e346195a14610ab3578063e6217e3a14610ade578063e78c266c14610af1578063e985e9c514610b04578063e9a5323014610b17578063ebf98abf14610b2c57600080fd5b8063cf4ece151161012b578063cf4ece1514610a3a578063d547741f14610a4f578063d88127a114610a62578063dadf56ac14610a75578063dea6f9c814610a88578063e2045b5e14610a9057600080fd5b8063c62b28e8146109d9578063c87b56dd146109ec578063c963e4d6146109ff578063ca15c87314610a12578063cce8439214610a2557600080fd5b806396ac6bf011610200578063a4369b71116101c4578063a4369b7114610966578063a78e746f14610979578063a933939f1461098d578063b88d4fde146109a0578063bfb7dc99146109b3578063c46459d3146109c657600080fd5b806396ac6bf0146109165780639ac3eaa714610929578063a217fddf14610936578063a22cb4651461093e578063a32c5e591461095157600080fd5b8063822dc85e11610252578063822dc85e146108c45780638456cb59146108d75780639010d07c146108df5780639155a1e0146108f257806391d14854146108fb57806395d89b411461090e57600080fd5b80636352211e146108655780636b5847751461087857806370a082311461088b578063762ddb591461089e57806376516078146108b157600080fd5b80632fb56585116103cb5780634a47f1471161033d57806357f276ff116102f657806357f276ff146108115780635b5c251f146108245780635c975abb146108375780635db531a1146108425780635f4134661461084a578063610c30091461085d57600080fd5b80634a47f147146107b55780634d84c6d8146107c85780634e0ba968146107d05780634f6ccce7146107d857806355f804b3146107eb57806357200482146107fe57600080fd5b80633ab76e9f1161038f5780633ab76e9f146107595780633f4ba83a1461076c5780633f86ea7c14610774578063422d68e91461078757806342842e0e1461079a57806349b5e105146107ad57600080fd5b80632fb5658514610719578063326a55e01461072d578063329a8cfa1461073557806336568abe1461073d57806338f549dc1461075057600080fd5b806318160ddd116104645780632436329d116104285780632436329d1461066c578063248a9ca3146106815780632be48d34146106a55780632f2e8fda146106d05780632f2ff15d146106f35780632f745c591461070657600080fd5b806318160ddd146106075780631fb4f43b1461060f5780631fb58ad91461063357806321d7f0081461064657806323b872dd1461065957600080fd5b80630cf8e42f116104b65780630cf8e42f146105835780630e957b0b146105965780630f8bb7cd146105a9578063130f6320146105c0578063150b7a02146105d357806317314d5a146105ff57600080fd5b806301ffc9a7146104f3578063024bebe91461051b57806306fdde0314610546578063081812fc1461055b578063095ea7b31461056e575b600080fd5b6105066105013660046155fc565b610b7d565b60405190151581526020015b60405180910390f35b600d5461052e906001600160a01b031681565b6040516001600160a01b039091168152602001610512565b61054e610b8e565b6040516105129190615858565b61052e61056936600461559c565b610c20565b61058161057c366004615536565b610cad565b005b610581610591366004615536565b610dc3565b6105816105a43660046156ab565b610df2565b6105b2601f5481565b604051908152602001610512565b6105816105ce36600461559c565b610e44565b6105e66105e13660046151d9565b610e79565b6040516001600160e01b03199091168152602001610512565b610581611029565b601c546105b2565b61062261061d36600461559c565b611052565b6040516105129594939291906158ad565b61058161064136600461559c565b61119c565b60045461052e906001600160a01b031681565b610581610667366004615198565b61122d565b6105b2600080516020615b8383398151915281565b6105b261068f36600461559c565b6000908152600160208190526040909120015490565b6105b26106b3366004615636565b8051602081830181018051602d8252928201919093012091525481565b6105066106de36600461559c565b602a6020526000908152604090205460ff1681565b6105816107013660046155b5565b61125e565b6105b2610714366004615536565b611280565b60115461050690600160b01b900460ff1681565b610581611316565b610581611326565b61058161074b3660046155b5565b611406565b6105b260225481565b60115461052e906001600160a01b031681565b610581611428565b60085461052e906001600160a01b031681565b610581610795366004615684565b6114ba565b6105816107a8366004615198565b6114d8565b6105816114f3565b6105816107c33660046156e8565b6114fb565b61058161131e565b61054e61151c565b6105b26107e636600461559c565b6115aa565b6105066107f9366004615636565b61163d565b60095461052e906001600160a01b031681565b61058161081f36600461559c565b6116c3565b600e5461052e906001600160a01b031681565b60185460ff16610506565b6105816116d7565b600f5461052e906001600160a01b031681565b61054e6116df565b61052e61087336600461559c565b6116ec565b600a5461052e906001600160a01b031681565b6105b2610899366004615125565b611763565b60055461052e906001600160a01b031681565b6105066108bf366004615562565b6117ea565b6105b26108d2366004615326565b6118e1565b61058161197f565b61052e6108ed3660046155da565b611a01565b6105b260235481565b6105066109093660046155b5565b611a20565b61054e611a4b565b61050661092436600461559c565b611a5a565b6024546105069060ff1681565b6105b2600081565b61058161094c3660046152f8565b611b66565b6105b2600080516020615be383398151915281565b6105b2610974366004615636565b611c0d565b60115461050690600160a01b900460ff1681565b60295461052e906001600160a01b031681565b6105816109ae366004615278565b611c35565b60065461052e906001600160a01b031681565b6105b26109d43660046153b7565b611c67565b6105816109e736600461559c565b611d07565b61054e6109fa36600461559c565b611d89565b6105b2610a0d36600461546f565b611d94565b6105b2610a2036600461559c565b611e15565b6105b2600080516020615c0383398151915281565b6105b2600080516020615bc383398151915281565b610581610a5d3660046155b5565b611e2c565b600b5461052e906001600160a01b031681565b600c5461052e906001600160a01b031681565b61054e611e36565b610aa3610a9e36600461559c565b611e43565b604051610512949392919061586b565b6105b2610ac1366004615636565b8051602081830181018051602c8252928201919093012091525481565b60105461052e906001600160a01b031681565b60035461052e906001600160a01b031681565b610506610b1236600461515f565b611fa8565b6105b2600080516020615ba383398151915281565b6105b260205481565b610581611fe9565b61054e611ff1565b6105b260215481565b610581611ffe565b60075461052e906001600160a01b031681565b60115461050690600160a81b900460ff1681565b6000610b88826120bd565b92915050565b606060128054610b9d90615a71565b80601f0160208091040260200160405190810160405280929190818152602001828054610bc990615a71565b8015610c165780601f10610beb57610100808354040283529160200191610c16565b820191906000526020600020905b815481529060010190602001808311610bf957829003601f168201915b5050505050905090565b6000610c2b826120e2565b610c915760405162461bcd60e51b815260206004820152602c60248201527f4552433732313a20617070726f76656420717565727920666f72206e6f6e657860448201526b34b9ba32b73a103a37b5b2b760a11b60648201526084015b60405180910390fd5b506000908152601660205260409020546001600160a01b031690565b6000610cb8826116ec565b9050806001600160a01b0316836001600160a01b03161415610d265760405162461bcd60e51b815260206004820152602160248201527f4552433732313a20617070726f76616c20746f2063757272656e74206f776e656044820152603960f91b6064820152608401610c88565b336001600160a01b0382161480610d425750610d428133611fa8565b610db45760405162461bcd60e51b815260206004820152603860248201527f4552433732313a20617070726f76652063616c6c6572206973206e6f74206f7760448201527f6e6572206e6f7220617070726f76656420666f7220616c6c00000000000000006064820152608401610c88565b610dbe83836120ff565b505050565b6000610dce33611763565b11610dd857600080fd5b6000610de5336000611280565b9050610dbe81848461216d565b610dfc33856121a5565b610e0557600080fd5b6000848152602b602052604090206002810180546001600160a01b0319166001600160a01b038616179055600381018390556004018190555b50505050565b610e4e6001612267565b50610e5881612322565b50610e628161249d565b50610e6d6000612267565b610e7657600080fd5b50565b6040516370a0823160e01b81526001600160a01b038516600482015260009060019030906370a082319060240160206040518083038186803b158015610ebe57600080fd5b505afa158015610ed2573d6000803e3d6000fd5b505050506040513d601f19601f82011682018060405250810190610ef6919061566b565b1015610f0157600080fd5b6000610f0e866001611280565b60405163095ea7b360e01b81526001600160a01b0388166004820152602481018790529091503390819063095ea7b390604401600060405180830381600087803b158015610f5b57600080fd5b505af1158015610f6f573d6000803e3d6000fd5b50505050610f7c82612626565b506040516331a9108f60e11b81526004810187905230906001600160a01b03831690636352211e9060240160206040518083038186803b158015610fbf57600080fd5b505afa158015610fd3573d6000803e3d6000fd5b505050506040513d601f19601f82011682018060405250810190610ff79190615142565b6001600160a01b03161461100a57600080fd5b61101582338861216d565b50630a85bd0160e11b979650505050505050565b6110336001612267565b5061103c612750565b506110476000612267565b61105057600080fd5b565b602b6020526000908152604090208054819061106d90615a71565b80601f016020809104026020016040519081016040528092919081815260200182805461109990615a71565b80156110e65780601f106110bb576101008083540402835291602001916110e6565b820191906000526020600020905b8154815290600101906020018083116110c957829003601f168201915b5050505050908060010180546110fb90615a71565b80601f016020809104026020016040519081016040528092919081815260200182805461112790615a71565b80156111745780601f1061114957610100808354040283529160200191611174565b820191906000526020600020905b81548152906001019060200180831161115757829003601f168201915b505050506002830154600384015460049094015492936001600160a01b039091169290915085565b6111b4600080516020615be383398151915233611a20565b806111d257506111d2600080516020615ba383398151915233611a20565b806111f057506111f0600080516020615b8383398151915233611a20565b61120c5760405162461bcd60e51b8152600401610c88906158f9565b6000818152602a60205260409020805460ff19166001908117909155610e6d565b61123733826121a5565b6112535760405162461bcd60e51b8152600401610c889061597b565b610dbe838383612896565b6112688282612a41565b6000828152600260205260409020610dbe90826120a8565b600061128b83611763565b82106112ed5760405162461bcd60e51b815260206004820152602b60248201527f455243373231456e756d657261626c653a206f776e657220696e646578206f7560448201526a74206f6620626f756e647360a81b6064820152608401610c88565b506001600160a01b03919091166000908152601a60209081526040808320938352929052205490565b61131e612a7b565b611050612d67565b61133e600080516020615be383398151915233611a20565b8061135c575061135c600080516020615ba383398151915233611a20565b8061137a575061137a600080516020615b8383398151915233611a20565b6113965760405162461bcd60e51b8152600401610c88906158f9565b601160009054906101000a90046001600160a01b03166001600160a01b031663329a8cfa6040518163ffffffff1660e01b8152600401600060405180830381600087803b1580156113e657600080fd5b505af11580156113fa573d6000803e3d6000fd5b505050506110506116d7565b6114108282613174565b6000828152600260205260409020610dbe90826131ee565b611440600080516020615ba383398151915233611a20565b8061145e575061145e600080516020615be383398151915233611a20565b6114a25760405162461bcd60e51b8152602060048201526015602482015274596f75277265206e6f742074686520476176656c7360581b6044820152606401610c88565b60245460ff16156114b257600080fd5b611050613203565b6114c433846121a5565b6114cd57600080fd5b610dbe83838361216d565b610dbe83838360405180602001604052806000815250611c35565b611050612a7b565b61150533836121a5565b61150e57600080fd5b6115188282613296565b5050565b6025805461152990615a71565b80601f016020809104026020016040519081016040528092919081815260200182805461155590615a71565b80156115a25780601f10611577576101008083540402835291602001916115a2565b820191906000526020600020905b81548152906001019060200180831161158557829003601f168201915b505050505081565b60006115b5601c5490565b82106116185760405162461bcd60e51b815260206004820152602c60248201527f455243373231456e756d657261626c653a20676c6f62616c20696e646578206f60448201526b7574206f6620626f756e647360a01b6064820152608401610c88565b601c828154811061162b5761162b615b1d565b90600052602060002001549050919050565b6000611657600080516020615be383398151915233611a20565b806116755750611675600080516020615ba383398151915233611a20565b806116935750611693600080516020615b8383398151915233611a20565b6116af5760405162461bcd60e51b8152600401610c88906158f9565b6116b882613321565b50600190505b919050565b6116cd6001612267565b50610e6281613337565b611050613586565b6027805461152990615a71565b6000818152601460205260408120546001600160a01b031680610b885760405162461bcd60e51b815260206004820152602960248201527f4552433732313a206f776e657220717565727920666f72206e6f6e657869737460448201526832b73a103a37b5b2b760b91b6064820152608401610c88565b60006001600160a01b0382166117ce5760405162461bcd60e51b815260206004820152602a60248201527f4552433732313a2062616c616e636520717565727920666f7220746865207a65604482015269726f206164647265737360b01b6064820152608401610c88565b506001600160a01b031660009081526015602052604090205490565b6000611804600080516020615ba383398151915233611a20565b806118225750611822600080516020615b8383398151915233611a20565b806118405750611840600080516020615be383398151915233611a20565b61184957600080fd5b601154600160b01b810460ff9081161515600160a81b90920416151514600114806118875750611887600080516020615be383398151915233611a20565b6118c65760405162461bcd60e51b815260206004820152601060248201526f436f757274204d75737420416772656560801b6044820152606401610c88565b600182151514156118d9576116b86136c9565b506000919050565b60006118fb600080516020615be383398151915233611a20565b806119195750611919600080516020615ba383398151915233611a20565b806119375750611937600080516020615b8383398151915233611a20565b6119535760405162461bcd60e51b8152600401610c88906158f9565b60408051602081019091526000815260016119738888888888868861370c565b98975050505050505050565b611997600080516020615ba383398151915233611a20565b806119b557506119b5600080516020615be383398151915233611a20565b6119f95760405162461bcd60e51b8152602060048201526015602482015274596f75277265206e6f742074686520476176656c7360581b6044820152606401610c88565b6110506137de565b6000828152600260205260408120611a199083613859565b9392505050565b60009182526001602090815260408084206001600160a01b0393909316845291905290205460ff1690565b606060138054610b9d90615a71565b6000611a74600080516020615ba383398151915233611a20565b80611a925750611a92600080516020615b8383398151915233611a20565b80611ab05750611ab0600080516020615be383398151915233611a20565b611ab957600080fd5b601154600160b01b810460ff9081161515600160a81b9092041615151460011480611af75750611af7600080516020615be383398151915233611a20565b611b365760405162461bcd60e51b815260206004820152601060248201526f436f757274204d75737420416772656560801b6044820152606401610c88565b81604514156118d957611b476136c9565b50611b506137de565b506024805460ff19166001908117909155919050565b611b7e600080516020615be383398151915233611a20565b80611b9c5750611b9c600080516020615b8383398151915233611a20565b611c035760405162461bcd60e51b815260206004820152603260248201527f596f7520646f206e6f742068617665207065726d697373696f6e20746f2073656044820152711d08185c1c1c9bdd985b08199bdc88185b1b60721b6064820152608401610c88565b6115188282613865565b6000602c82604051611c1f919061575b565b9081526020016040518091039020549050919050565b611c3f33836121a5565b611c5b5760405162461bcd60e51b8152600401610c889061597b565b610e3e8484848461392a565b6000611c81600080516020615be383398151915233611a20565b80611c9f5750611c9f600080516020615ba383398151915233611a20565b80611cbd5750611cbd600080516020615b8383398151915233611a20565b611cd95760405162461bcd60e51b8152600401610c88906158f9565b604080516020810190915260008152600190611cfa8989898989878761370c565b9998505050505050505050565b611d19611d13826116ec565b33611fa8565b611d805760405162461bcd60e51b815260206004820152603260248201527f506c65617365207669736974207468652044414f20746f2072656e6f756e636560448201527120796f757220636974697a656e736869702160701b6064820152608401610c88565b610e768161395d565b6060610b8882613966565b6000611dae600080516020615be383398151915233611a20565b80611dcc5750611dcc600080516020615ba383398151915233611a20565b80611dea5750611dea600080516020615b8383398151915233611a20565b611e065760405162461bcd60e51b8152600401610c88906158f9565b611cfa8989898989898861370c565b6000818152600260205260408120610b8890613ac8565b6114108282613ad2565b6026805461152990615a71565b6000818152602b60205260408120805460609283929091829190611e6690615a71565b80601f0160208091040260200160405190810160405280929190818152602001828054611e9290615a71565b8015611edf5780601f10611eb457610100808354040283529160200191611edf565b820191906000526020600020905b815481529060010190602001808311611ec257829003601f168201915b5050506000888152602b6020526040902060028101546003820154600190920180549599506001600160a01b03909116965090945092611f2192509050615a71565b80601f0160208091040260200160405190810160405280929190818152602001828054611f4d90615a71565b8015611f9a5780601f10611f6f57610100808354040283529160200191611f9a565b820191906000526020600020905b815481529060010190602001808311611f7d57829003601f168201915b505050505092509193509193565b600080611fc3600080516020615be383398151915284611a20565b80611fe15750611fe1600080516020615b8383398151915284611a20565b949350505050565b611050613b0c565b6028805461152990615a71565b6120086001612267565b50612020600080516020615be3833981519152613337565b50612038600080516020615ba3833981519152613337565b50612050600080516020615b83833981519152613337565b50612068600080516020615bc3833981519152613337565b50612080600080516020615c03833981519152613337565b5061208b6000613337565b50612094613586565b6110476000612267565b6115188282613c43565b6000611a19836001600160a01b038416613cae565b60006001600160e01b0319821663780e9d6360e01b1480610b885750610b8882613cfd565b6000908152601460205260409020546001600160a01b0316151590565b600081815260166020526040902080546001600160a01b0319166001600160a01b0384169081179091558190612134826116ec565b6001600160a01b03167f8c5be1e5ebec7d5bd14f71427d1e84f3dd0314c0f7b2291e5b200ac8c7c3b92560405160405180910390a45050565b6000928352602b60205260409092206002810180546001600160a01b0319166001600160a01b03939093169290921790915560030155565b60006121b0826120e2565b6122115760405162461bcd60e51b815260206004820152602c60248201527f4552433732313a206f70657261746f7220717565727920666f72206e6f6e657860448201526b34b9ba32b73a103a37b5b2b760a11b6064820152608401610c88565b600061221c836116ec565b9050806001600160a01b0316846001600160a01b031614806122575750836001600160a01b031661224c84610c20565b6001600160a01b0316145b80611fe15750611fe18185611fa8565b6000805460ff1682151581151514156122c25760405162461bcd60e51b815260206004820152601960248201527f416c72656164792053657420746f20746861742076616c7565000000000000006044820152606401610c88565b6000805484151560ff19909116811790915560ff16151581151514156123195760405162461bcd60e51b815260206004820152600c60248201526b29b0b33a32bc9022b93937b960a11b6044820152606401610c88565b50600192915050565b60405163ca15c87360e01b8152600481018290526000908190309063ca15c8739060240160206040518083038186803b15801561235e57600080fd5b505afa158015612372573d6000803e3d6000fd5b505050506040513d601f19601f82011682018060405250810190612396919061566b565b905060005b8181101561249357604051632404341f60e21b815260048101859052602481018290526000903090639010d07c9060440160206040518083038186803b1580156123e457600080fd5b505afa1580156123f8573d6000803e3d6000fd5b505050506040513d601f19601f8201168201806040525081019061241c9190615142565b60405163d547741f60e01b8152600481018790526001600160a01b0382166024820152909150309063d547741f90604401600060405180830381600087803b15801561246757600080fd5b505af115801561247b573d6000803e3d6000fd5b5050505050808061248b90615aac565b91505061239b565b5060019392505050565b60115460405163ca15c87360e01b81526004810183905260009182916001600160a01b039091169063ca15c8739060240160206040518083038186803b1580156124e657600080fd5b505afa1580156124fa573d6000803e3d6000fd5b505050506040513d601f19601f8201168201806040525081019061251e919061566b565b905060005b8181101561249357601154604051632404341f60e21b815260048101869052602481018390526000916001600160a01b031690639010d07c9060440160206040518083038186803b15801561257757600080fd5b505afa15801561258b573d6000803e3d6000fd5b505050506040513d601f19601f820116820180604052508101906125af9190615142565b604051632f2ff15d60e01b8152600481018790526001600160a01b03821660248201529091503090632f2ff15d90604401600060405180830381600087803b1580156125fa57600080fd5b505af115801561260e573d6000803e3d6000fd5b5050505050808061261e90615aac565b915050612523565b600080612632836116ec565b6000848152602b602052604090819020600281015460039091015491516331a9108f60e11b8152600481018390529293506001600160a01b031691829030908290636352211e9060240160206040518083038186803b15801561269457600080fd5b505afa1580156126a8573d6000803e3d6000fd5b505050506040513d601f19601f820116820180604052508101906126cc9190615142565b6001600160a01b0316141561274457604051632142170760e11b81523060048201526001600160a01b038581166024830152604482018490528416906342842e0e90606401600060405180830381600087803b15801561272b57600080fd5b505af115801561273f573d6000803e3d6000fd5b505050505b50600195945050505050565b6000612769600080516020615be3833981519152612322565b50612781600080516020615be383398151915261249d565b61278a57600080fd5b6127a1600080516020615ba3833981519152612322565b506127b9600080516020615ba383398151915261249d565b6127c257600080fd5b6127d9600080516020615b83833981519152612322565b506127f1600080516020615b8383398151915261249d565b6127fa57600080fd5b612811600080516020615bc3833981519152612322565b50612829600080516020615bc383398151915261249d565b61283257600080fd5b612849600080516020615c03833981519152612322565b50612861600080516020615c0383398151915261249d565b61286a57600080fd5b6128746000612322565b5061287f600061249d565b61288857600080fd5b612890613586565b50600190565b826001600160a01b03166128a9826116ec565b6001600160a01b0316146129115760405162461bcd60e51b815260206004820152602960248201527f4552433732313a207472616e73666572206f6620746f6b656e2074686174206960448201526839903737ba1037bbb760b91b6064820152608401610c88565b6001600160a01b0382166129735760405162461bcd60e51b8152602060048201526024808201527f4552433732313a207472616e7366657220746f20746865207a65726f206164646044820152637265737360e01b6064820152608401610c88565b61297e838383613d3d565b6129896000826120ff565b6001600160a01b03831660009081526015602052604081208054600192906129b2908490615a17565b90915550506001600160a01b03821660009081526015602052604081208054600192906129e09084906159cc565b909155505060008181526014602052604080822080546001600160a01b0319166001600160a01b0386811691821790925591518493918716917fddf252ad1be2c89b69c2b068fc378daa952ba7f163c4a11628f55a4df523b3ef91a4505050565b600082815260016020819052604082200154905460ff1615612a6757610dbe8383613c43565b612a718133613e28565b610dbe8383613c43565b601160009054906101000a90046001600160a01b03166001600160a01b031663dadf56ac6040518163ffffffff1660e01b815260040160206040518083038186803b158015612ac957600080fd5b505afa158015612add573d6000803e3d6000fd5b505050506040513d601f19601f82011682018060405250810190612b019190615142565b600c80546001600160a01b0319166001600160a01b039283161790556011546040805163024bebe960e01b81529051919092169163024bebe9916004808301926020929190829003018186803b158015612b5a57600080fd5b505afa158015612b6e573d6000803e3d6000fd5b505050506040513d601f19601f82011682018060405250810190612b929190615142565b600d80546001600160a01b0319166001600160a01b0392831617905560115460408051635b5c251f60e01b815290519190921691635b5c251f916004808301926020929190829003018186803b158015612beb57600080fd5b505afa158015612bff573d6000803e3d6000fd5b505050506040513d601f19601f82011682018060405250810190612c239190615142565b600e80546001600160a01b0319166001600160a01b0392831617905560115460408051637310bf1d60e11b81529051919092169163e6217e3a916004808301926020929190829003018186803b158015612c7c57600080fd5b505afa158015612c90573d6000803e3d6000fd5b505050506040513d601f19601f82011682018060405250810190612cb49190615142565b601080546001600160a01b0319166001600160a01b039283161790556011546040805163d88127a160e01b81529051919092169163d88127a1916004808301926020929190829003018186803b158015612d0d57600080fd5b505afa158015612d21573d6000803e3d6000fd5b505050506040513d601f19601f82011682018060405250810190612d459190615142565b600b80546001600160a01b0319166001600160a01b0392909216919091179055565b601160009054906101000a90046001600160a01b03166001600160a01b03166321d7f0086040518163ffffffff1660e01b815260040160206040518083038186803b158015612db557600080fd5b505afa158015612dc9573d6000803e3d6000fd5b505050506040513d601f19601f82011682018060405250810190612ded9190615142565b600480546001600160a01b0319166001600160a01b039283161781556011546040805163762ddb5960e01b81529051919093169263762ddb599281810192602092909190829003018186803b158015612e4557600080fd5b505afa158015612e59573d6000803e3d6000fd5b505050506040513d601f19601f82011682018060405250810190612e7d9190615142565b600580546001600160a01b0319166001600160a01b039283161790556011546040805163bfb7dc9960e01b81529051919092169163bfb7dc99916004808301926020929190829003018186803b158015612ed657600080fd5b505afa158015612eea573d6000803e3d6000fd5b505050506040513d601f19601f82011682018060405250810190612f0e9190615142565b600680546001600160a01b0319166001600160a01b0392831617905560115460408051633e6111eb60e21b81529051919092169163f98447ac916004808301926020929190829003018186803b158015612f6757600080fd5b505afa158015612f7b573d6000803e3d6000fd5b505050506040513d601f19601f82011682018060405250810190612f9f9190615142565b600780546001600160a01b0319166001600160a01b0392831617905560115460408051630fe1ba9f60e21b815290519190921691633f86ea7c916004808301926020929190829003018186803b158015612ff857600080fd5b505afa15801561300c573d6000803e3d6000fd5b505050506040513d601f19601f820116820180604052508101906130309190615142565b600880546001600160a01b0319166001600160a01b0392831617905560115460408051632b90024160e11b8152905191909216916357200482916004808301926020929190829003018186803b15801561308957600080fd5b505afa15801561309d573d6000803e3d6000fd5b505050506040513d601f19601f820116820180604052508101906130c19190615142565b600980546001600160a01b0319166001600160a01b0392831617905560115460408051636b58477560e01b815290519190921691636b584775916004808301926020929190829003018186803b15801561311a57600080fd5b505afa15801561312e573d6000803e3d6000fd5b505050506040513d601f19601f820116820180604052508101906131529190615142565b600a80546001600160a01b0319166001600160a01b0392909216919091179055565b6001600160a01b03811633146131e45760405162461bcd60e51b815260206004820152602f60248201527f416363657373436f6e74726f6c3a2063616e206f6e6c792072656e6f756e636560448201526e103937b632b9903337b91039b2b63360891b6064820152608401610c88565b6115188282613e8c565b6000611a19836001600160a01b038416613ef3565b60185460ff1661324c5760405162461bcd60e51b815260206004820152601460248201527314185d5cd8589b194e881b9bdd081c185d5cd95960621b6044820152606401610c88565b6018805460ff191690557f5db9ee0a495bf2e6ff9c91a7834c1ba4fdd244a5e8aa4e537bd38aeae4b073aa335b6040516001600160a01b03909116815260200160405180910390a1565b61329f826120e2565b6133025760405162461bcd60e51b815260206004820152602e60248201527f45524337323155524953746f726167653a2055524920736574206f66206e6f6e60448201526d32bc34b9ba32b73a103a37b5b2b760911b6064820152608401610c88565b60008281526019602090815260409091208251610dbe92840190614fb5565b80516000906116b8906028906020850190614fb5565b60115460405163ca15c87360e01b81526004810183905260009182916001600160a01b039091169063ca15c8739060240160206040518083038186803b15801561338057600080fd5b505afa158015613394573d6000803e3d6000fd5b505050506040513d601f19601f820116820180604052508101906133b8919061566b565b60405163ca15c87360e01b815260048101859052909150600090309063ca15c8739060240160206040518083038186803b1580156133f557600080fd5b505afa158015613409573d6000803e3d6000fd5b505050506040513d601f19601f8201168201806040525081019061342d919061566b565b9050600061343b8284615a17565b9050600081116134805760405162461bcd60e51b815260206004820152601060248201526f4e6f7468696e6720746f2073796e632160801b6044820152606401610c88565b60005b8181101561274457601154604051632404341f60e21b815260048101889052602481018390526000916001600160a01b031690639010d07c9060440160206040518083038186803b1580156134d757600080fd5b505afa1580156134eb573d6000803e3d6000fd5b505050506040513d601f19601f8201168201806040525081019061350f9190615142565b604051632f2ff15d60e01b8152600481018990526001600160a01b03821660248201529091503090632f2ff15d90604401600060405180830381600087803b15801561355a57600080fd5b505af115801561356e573d6000803e3d6000fd5b5050505050808061357e90615aac565b915050613483565b601160009054906101000a90046001600160a01b03166001600160a01b031663ff7e88ec6040518163ffffffff1660e01b815260040160206040518083038186803b1580156135d457600080fd5b505afa1580156135e8573d6000803e3d6000fd5b505050506040513d601f19601f8201168201806040525081019061360c919061557f565b601160156101000a81548160ff021916908315150217905550601160009054906101000a90046001600160a01b03166001600160a01b0316632fb565856040518163ffffffff1660e01b815260040160206040518083038186803b15801561367357600080fd5b505afa158015613687573d6000803e3d6000fd5b505050506040513d601f19601f820116820180604052508101906136ab919061557f565b60118054911515600160b01b0260ff60b01b19909216919091179055565b6000805b601e54811015613700576136e0816120e2565b156136ee576136ee8161395d565b806136f881615aac565b9150506136cd565b50506000601e55600190565b60006001600160a01b038816331480159061372f57506001600160a01b03881615155b61373857600080fd5b600061374389611763565b111561378a5760405162461bcd60e51b815260206004820152601660248201527513db9b1e481bdb99481251081c195c881dd85b1b195d60521b6044820152606401610c88565b50601e5461379c878787878786613fe0565b6137a688826140bf565b6137b08183613296565b6137b9886140d9565b506001601e60008282546137cd91906159cc565b909155509098975050505050505050565b60185460ff16156138245760405162461bcd60e51b815260206004820152601060248201526f14185d5cd8589b194e881c185d5cd95960821b6044820152606401610c88565b6018805460ff191660011790557f62e78cea01bee320cd4e420270b5ea74000d11b0c9f74754ebdbfc544b05a2586132793390565b6000611a198383614270565b6001600160a01b0382163314156138be5760405162461bcd60e51b815260206004820152601960248201527f4552433732313a20617070726f766520746f2063616c6c6572000000000000006044820152606401610c88565b3360008181526017602090815260408083206001600160a01b03871680855290835292819020805460ff191686151590811790915590519081529192917f17307eab39ab6107e8899845ad3d59bd9653f200f220920489ca2b5937696c31910160405180910390a35050565b613935848484612896565b613941848484846142f6565b610e3e5760405162461bcd60e51b8152600401610c8890615929565b610e7681614403565b6060613971826120e2565b6139d75760405162461bcd60e51b815260206004820152603160248201527f45524337323155524953746f726167653a2055524920717565727920666f72206044820152703737b732bc34b9ba32b73a103a37b5b2b760791b6064820152608401610c88565b600082815260196020526040812080546139f090615a71565b80601f0160208091040260200160405190810160405280929190818152602001828054613a1c90615a71565b8015613a695780601f10613a3e57610100808354040283529160200191613a69565b820191906000526020600020905b815481529060010190602001808311613a4c57829003601f168201915b505050505090506000613a7a614443565b9050805160001415613a8d575092915050565b815115613abf578082604051602001613aa7929190615777565b60405160208183030381529060405292505050919050565b611fe184614452565b6000610b88825490565b600082815260016020819052604082200154905460ff1615613af857610dbe8383613e8c565b613b028133613e28565b610dbe8383613e8c565b601160009054906101000a90046001600160a01b03166001600160a01b031663a44b93256040518163ffffffff1660e01b815260040160206040518083038186803b158015613b5a57600080fd5b505afa158015613b6e573d6000803e3d6000fd5b505050506040513d601f19601f82011682018060405250810190613b92919061557f565b613b9b57600080fd5b601160009054906101000a90046001600160a01b03166001600160a01b031663ac7cfac36040518163ffffffff1660e01b815260040160206040518083038186803b158015613be957600080fd5b505afa158015613bfd573d6000803e3d6000fd5b505050506040513d601f19601f82011682018060405250810190613c219190615142565b600380546001600160a01b0319166001600160a01b0392909216919091179055565b613c4d8282611a20565b6115185760008281526001602081815260408084206001600160a01b0386168086529252808420805460ff19169093179092559051339285917f2f8788117e7eff1d82e926ec794901d17c78024a50270940304540a733656f0d9190a45050565b6000818152600183016020526040812054613cf557508154600181810184556000848152602080822090930184905584548482528286019093526040902091909155610b88565b506000610b88565b60006001600160e01b031982166380ac58cd60e01b1480613d2e57506001600160e01b03198216635b5e139f60e01b145b80610b885750610b888261451c565b613d478333611fa8565b80613d6057506000818152602a602052604090205460ff165b613dc15760405162461bcd60e51b815260206004820152602c60248201527f506c65617365207669736974207468652044414f20746f206368616e6765207960448201526b6f757220616464726573732160a01b6064820152608401610c88565b6000818152602a602052604090205460ff168015613de45750613de433826121a5565b15613e1d576000818152602a602052604090205460ff16613e0457600080fd5b6000818152602a60205260408120805460ff1916905580fd5b610dbe838383614541565b613e328282611a20565b61151857613e4a816001600160a01b031660146145f9565b613e558360206145f9565b604051602001613e669291906157a6565b60408051601f198184030181529082905262461bcd60e51b8252610c8891600401615858565b613e968282611a20565b156115185760008281526001602090815260408083206001600160a01b0385168085529252808320805460ff1916905551339285917ff6391f5c32d9c69d2a47ea670b442974b53935d1edc7fd64eb21e047a839171b9190a45050565b60008181526001830160205260408120548015613fd6576000613f17600183615a17565b8554909150600090613f2b90600190615a17565b90506000866000018281548110613f4457613f44615b1d565b9060005260206000200154905080876000018481548110613f6757613f67615b1d565b600091825260208083209091019290925582815260018901909152604090208490558654879080613f9a57613f9a615b07565b60019003818190600052602060002001600090559055866001016000878152602001908152602001600020600090556001945050505050610b88565b6000915050610b88565b613fea8587614795565b613ff357600080fd5b6000818152602b60209081526040909120865161401892600190920191880190614fb5565b506000818152602b602090815260409091206002810180546001600160a01b0319166001600160a01b03881617905560038101859055875161405c92890190614fb5565b506000818152602b602052604090819020600401839055518190602c9061408490889061575b565b90815260200160405180910390208190555080602d876040516140a7919061575b565b90815260405190819003602001902055505050505050565b6115188282604051806020016040528060008152506148a2565b6000806140e5601c5490565b6140f09060016159cc565b60225490915060009061410381846159cc565b61410d91906159e4565b60235460215461411d9190615a17565b61412791906159e4565b60235461413491906159cc565b6029546040516370a0823160e01b81523060048201529192506000916001600160a01b03909116906370a082319060240160206040518083038186803b15801561417d57600080fd5b505afa158015614191573d6000803e3d6000fd5b505050506040513d601f19601f820116820180604052508101906141b5919061566b565b9050818110156141c457600080fd5b6029546141dc906001600160a01b03163087856148d5565b6029546040516370a0823160e01b81523060048201526000916001600160a01b0316906370a082319060240160206040518083038186803b15801561422057600080fd5b505afa158015614234573d6000803e3d6000fd5b505050506040513d601f19601f82011682018060405250810190614258919061566b565b90508181111561426757600080fd5b50505050919050565b815460009082106142ce5760405162461bcd60e51b815260206004820152602260248201527f456e756d657261626c655365743a20696e646578206f7574206f6620626f756e604482015261647360f01b6064820152608401610c88565b8260000182815481106142e3576142e3615b1d565b9060005260206000200154905092915050565b60006001600160a01b0384163b156143f857604051630a85bd0160e11b81526001600160a01b0385169063150b7a029061433a90339089908890889060040161581b565b602060405180830381600087803b15801561435457600080fd5b505af1925050508015614384575060408051601f3d908101601f1916820190925261438191810190615619565b60015b6143de573d8080156143b2576040519150601f19603f3d011682016040523d82523d6000602084013e6143b7565b606091505b5080516143d65760405162461bcd60e51b8152600401610c8890615929565b805181602001fd5b6001600160e01b031916630a85bd0160e11b149050611fe1565b506001949350505050565b61440c8161492f565b6000818152601960205260409020805461442590615a71565b159050610e76576000818152601960205260408120610e7691615039565b606060288054610b9d90615a71565b606061445d826120e2565b6144c15760405162461bcd60e51b815260206004820152602f60248201527f4552433732314d657461646174613a2055524920717565727920666f72206e6f60448201526e3732bc34b9ba32b73a103a37b5b2b760891b6064820152608401610c88565b60006144cb614443565b905060008151116144eb5760405180602001604052806000815250611a19565b806144f5846149d6565b604051602001614506929190615777565b6040516020818303038152906040529392505050565b60006001600160e01b03198216635a05180f60e01b1480610b885750610b8882614ad4565b6001600160a01b03831661459c5761459781601c80546000838152601d60205260408120829055600182018355919091527f0e4562a10381dec21b205ed72637e6b1b523bdd0e4d4d50af5cd23dd4500a2110155565b6145bf565b816001600160a01b0316836001600160a01b0316146145bf576145bf8382614b09565b6001600160a01b0382166145d657610dbe81614ba6565b826001600160a01b0316826001600160a01b031614610dbe57610dbe8282614c55565b606060006146088360026159f8565b6146139060026159cc565b67ffffffffffffffff81111561462b5761462b615b33565b6040519080825280601f01601f191660200182016040528015614655576020820181803683370190505b509050600360fc1b8160008151811061467057614670615b1d565b60200101906001600160f81b031916908160001a905350600f60fb1b8160018151811061469f5761469f615b1d565b60200101906001600160f81b031916908160001a90535060006146c38460026159f8565b6146ce9060016159cc565b90505b6001811115614746576f181899199a1a9b1b9c1cb0b131b232b360811b85600f166010811061470257614702615b1d565b1a60f81b82828151811061471857614718615b1d565b60200101906001600160f81b031916908160001a90535060049490941c9361473f81615a5a565b90506146d1565b508315611a195760405162461bcd60e51b815260206004820181905260248201527f537472696e67733a20686578206c656e67746820696e73756666696369656e746044820152606401610c88565b60006001602c846040516147a9919061575b565b9081526020016040518091039020541061481f5760405162461bcd60e51b815260206004820152603160248201527f416c726561647920616e204944206173736f63696174656420776974682074686044820152701a5cc81cdbd8da585b081858d8dbdd5b9d607a1b6064820152608401610c88565b6001602d83604051614831919061575b565b908152602001604051809103902054106123195760405162461bcd60e51b815260206004820152602c60248201527f416c726561647920616e204944206173736f636961746564207769746820746860448201526b69732070736575646f6e796d60a01b6064820152608401610c88565b6148ac8383614c99565b6148b960008484846142f6565b610dbe5760405162461bcd60e51b8152600401610c8890615929565b604080516001600160a01b0385811660248301528416604482015260648082018490528251808303909101815260849091019091526020810180516001600160e01b03166323b872dd60e01b179052610e3e908590614dd8565b600061493a826116ec565b905061494881600084613d3d565b6149536000836120ff565b6001600160a01b038116600090815260156020526040812080546001929061497c908490615a17565b909155505060008281526014602052604080822080546001600160a01b0319169055518391906001600160a01b038416907fddf252ad1be2c89b69c2b068fc378daa952ba7f163c4a11628f55a4df523b3ef908390a45050565b6060816149fa5750506040805180820190915260018152600360fc1b602082015290565b8160005b8115614a245780614a0e81615aac565b9150614a1d9050600a836159e4565b91506149fe565b60008167ffffffffffffffff811115614a3f57614a3f615b33565b6040519080825280601f01601f191660200182016040528015614a69576020820181803683370190505b5090505b8415611fe157614a7e600183615a17565b9150614a8b600a86615ac7565b614a969060306159cc565b60f81b818381518110614aab57614aab615b1d565b60200101906001600160f81b031916908160001a905350614acd600a866159e4565b9450614a6d565b60006001600160e01b03198216637965db0b60e01b1480610b8857506301ffc9a760e01b6001600160e01b0319831614610b88565b60006001614b1684611763565b614b209190615a17565b6000838152601b6020526040902054909150808214614b73576001600160a01b0384166000908152601a602090815260408083208584528252808320548484528184208190558352601b90915290208190555b506000918252601b602090815260408084208490556001600160a01b039094168352601a81528383209183525290812055565b601c54600090614bb890600190615a17565b6000838152601d6020526040812054601c8054939450909284908110614be057614be0615b1d565b9060005260206000200154905080601c8381548110614c0157614c01615b1d565b6000918252602080832090910192909255828152601d9091526040808220849055858252812055601c805480614c3957614c39615b07565b6001900381819060005260206000200160009055905550505050565b6000614c6083611763565b6001600160a01b039093166000908152601a602090815260408083208684528252808320859055938252601b9052919091209190915550565b6001600160a01b038216614cef5760405162461bcd60e51b815260206004820181905260248201527f4552433732313a206d696e7420746f20746865207a65726f20616464726573736044820152606401610c88565b614cf8816120e2565b15614d455760405162461bcd60e51b815260206004820152601c60248201527f4552433732313a20746f6b656e20616c7265616479206d696e746564000000006044820152606401610c88565b614d5160008383613d3d565b6001600160a01b0382166000908152601560205260408120805460019290614d7a9084906159cc565b909155505060008181526014602052604080822080546001600160a01b0319166001600160a01b03861690811790915590518392907fddf252ad1be2c89b69c2b068fc378daa952ba7f163c4a11628f55a4df523b3ef908290a45050565b6000614e2d826040518060400160405280602081526020017f5361666545524332303a206c6f772d6c6576656c2063616c6c206661696c6564815250856001600160a01b0316614eaa9092919063ffffffff16565b805190915015610dbe5780806020019051810190614e4b919061557f565b610dbe5760405162461bcd60e51b815260206004820152602a60248201527f5361666545524332303a204552433230206f7065726174696f6e20646964206e6044820152691bdd081cdd58d8d9595960b21b6064820152608401610c88565b6060611fe1848460008585843b614f035760405162461bcd60e51b815260206004820152601d60248201527f416464726573733a2063616c6c20746f206e6f6e2d636f6e74726163740000006044820152606401610c88565b600080866001600160a01b03168587604051614f1f919061575b565b60006040518083038185875af1925050503d8060008114614f5c576040519150601f19603f3d011682016040523d82523d6000602084013e614f61565b606091505b5091509150614f71828286614f7c565b979650505050505050565b60608315614f8b575081611a19565b825115614f9b5782518084602001fd5b8160405162461bcd60e51b8152600401610c889190615858565b828054614fc190615a71565b90600052602060002090601f016020900481019282614fe35760008555615029565b82601f10614ffc57805160ff1916838001178555615029565b82800160010185558215615029579182015b8281111561502957825182559160200191906001019061500e565b5061503592915061506f565b5090565b50805461504590615a71565b6000825580601f10615055575050565b601f016020900490600052602060002090810190610e7691905b5b808211156150355760008155600101615070565b600067ffffffffffffffff8084111561509f5761509f615b33565b604051601f8501601f19908116603f011681019082821181831017156150c7576150c7615b33565b816040528093508581528686860111156150e057600080fd5b858560208301376000602087830101525050509392505050565b80356116be81615b49565b600082601f83011261511657600080fd5b611a1983833560208501615084565b60006020828403121561513757600080fd5b8135611a1981615b49565b60006020828403121561515457600080fd5b8151611a1981615b49565b6000806040838503121561517257600080fd5b823561517d81615b49565b9150602083013561518d81615b49565b809150509250929050565b6000806000606084860312156151ad57600080fd5b83356151b881615b49565b925060208401356151c881615b49565b929592945050506040919091013590565b6000806000806000608086880312156151f157600080fd5b85356151fc81615b49565b9450602086013561520c81615b49565b935060408601359250606086013567ffffffffffffffff8082111561523057600080fd5b818801915088601f83011261524457600080fd5b81358181111561525357600080fd5b89602082850101111561526557600080fd5b9699959850939650602001949392505050565b6000806000806080858703121561528e57600080fd5b843561529981615b49565b935060208501356152a981615b49565b925060408501359150606085013567ffffffffffffffff8111156152cc57600080fd5b8501601f810187136152dd57600080fd5b6152ec87823560208401615084565b91505092959194509250565b6000806040838503121561530b57600080fd5b823561531681615b49565b9150602083013561518d81615b5e565b600080600080600060a0868803121561533e57600080fd5b853561534981615b49565b9450602086013567ffffffffffffffff8082111561536657600080fd5b61537289838a01615105565b9550604088013591508082111561538857600080fd5b5061539588828901615105565b93505060608601356153a681615b49565b949793965091946080013592915050565b60008060008060008060c087890312156153d057600080fd5b86356153db81615b49565b9550602087013567ffffffffffffffff808211156153f857600080fd5b6154048a838b01615105565b9650604089013591508082111561541a57600080fd5b6154268a838b01615105565b95506060890135915061543882615b49565b9093506080880135925060a0880135908082111561545557600080fd5b5061546289828a01615105565b9150509295509295509295565b600080600080600080600080610100898b03121561548c57600080fd5b615495896150fa565b9750602089013567ffffffffffffffff808211156154b257600080fd5b6154be8c838d01615105565b985060408b01359150808211156154d457600080fd5b6154e08c838d01615105565b97506154ee60608c016150fa565b965060808b0135955060a08b0135945060c08b0135935060e08b013591508082111561551957600080fd5b506155268b828c01615105565b9150509295985092959890939650565b6000806040838503121561554957600080fd5b823561555481615b49565b946020939093013593505050565b60006020828403121561557457600080fd5b8135611a1981615b5e565b60006020828403121561559157600080fd5b8151611a1981615b5e565b6000602082840312156155ae57600080fd5b5035919050565b600080604083850312156155c857600080fd5b82359150602083013561518d81615b49565b600080604083850312156155ed57600080fd5b50508035926020909101359150565b60006020828403121561560e57600080fd5b8135611a1981615b6c565b60006020828403121561562b57600080fd5b8151611a1981615b6c565b60006020828403121561564857600080fd5b813567ffffffffffffffff81111561565f57600080fd5b611fe184828501615105565b60006020828403121561567d57600080fd5b5051919050565b60008060006060848603121561569957600080fd5b8335925060208401356151c881615b49565b600080600080608085870312156156c157600080fd5b8435935060208501356156d381615b49565b93969395505050506040820135916060013590565b600080604083850312156156fb57600080fd5b82359150602083013567ffffffffffffffff81111561571957600080fd5b61572585828601615105565b9150509250929050565b60008151808452615747816020860160208601615a2e565b601f01601f19169290920160200192915050565b6000825161576d818460208701615a2e565b9190910192915050565b60008351615789818460208801615a2e565b83519083019061579d818360208801615a2e565b01949350505050565b7f416363657373436f6e74726f6c3a206163636f756e74200000000000000000008152600083516157de816017850160208801615a2e565b7001034b99036b4b9b9b4b733903937b6329607d1b601791840191820152835161580f816028840160208801615a2e565b01602801949350505050565b6001600160a01b038581168252841660208201526040810183905260806060820181905260009061584e9083018461572f565b9695505050505050565b602081526000611a19602083018461572f565b60808152600061587e608083018761572f565b8281036020840152615890818761572f565b6001600160a01b0395909516604084015250506060015292915050565b60a0815260006158c060a083018861572f565b82810360208401526158d2818861572f565b6001600160a01b039690961660408401525050606081019290925260809091015292915050565b6020808252601690820152752cb7ba93b932903737ba103a3432903130b4b634b33360511b604082015260600190565b60208082526032908201527f4552433732313a207472616e7366657220746f206e6f6e20455243373231526560408201527131b2b4bb32b91034b6b83632b6b2b73a32b960711b606082015260800190565b60208082526031908201527f4552433732313a207472616e736665722063616c6c6572206973206e6f74206f6040820152701ddb995c881b9bdc88185c1c1c9bdd9959607a1b606082015260800190565b600082198211156159df576159df615adb565b500190565b6000826159f3576159f3615af1565b500490565b6000816000190483118215151615615a1257615a12615adb565b500290565b600082821015615a2957615a29615adb565b500390565b60005b83811015615a49578181015183820152602001615a31565b83811115610e3e5750506000910152565b600081615a6957615a69615adb565b506000190190565b600181811c90821680615a8557607f821691505b60208210811415615aa657634e487b7160e01b600052602260045260246000fd5b50919050565b6000600019821415615ac057615ac0615adb565b5060010190565b600082615ad657615ad6615af1565b500690565b634e487b7160e01b600052601160045260246000fd5b634e487b7160e01b600052601260045260246000fd5b634e487b7160e01b600052603160045260246000fd5b634e487b7160e01b600052603260045260246000fd5b634e487b7160e01b600052604160045260246000fd5b6001600160a01b0381168114610e7657600080fd5b8015158114610e7657600080fd5b6001600160e01b031981168114610e7657600080fdfefa8e4989e1d689f7bc5c4b25b87efb51fecdecb19ba62847e29c759e12a89acd048bc71fa1cb2c119c339cf9cf00a97996a19a9d991ce5fe049f2fa5459e7990f0f4b159a6e2a4815eb3ca3df080bfa70c9270662c59bcaa4479a456220183e60538d24a8b7882d7b2e36af243d4af61c23e86e3daa6cb8c887b53220b2f57207c9d7f6f02908185bffb3f7fc9afb29fd7bf93675af8fd4b655ee05c2cee1e0ea264697066735822122009430537e632c5aa6c59600974ab0caba270abd8074b89db4d55f98254ac45ca64736f6c63430008070033",
  "immutableReferences": {},
  "source": "pragma solidity ^0.8.0;\n\nimport \"../SmartConsensusMachine.sol\";\nimport \"../AddressManagerReciever.sol\";\n\nimport \"@openzeppelin/contracts/token/ERC20/utils/SafeERC20.sol\";\nimport \"@openzeppelin/contracts/token/ERC721/IERC721Receiver.sol\";\nimport \"@openzeppelin/contracts/token/ERC721/extensions/ERC721Enumerable.sol\";\nimport \"@openzeppelin/contracts/token/ERC721/extensions/ERC721URIStorage.sol\";\nimport \"@openzeppelin/contracts/token/ERC721/ERC721.sol\";\nimport \"@openzeppelin/contracts/security/Pausable.sol\";\n\ncontract IdentityBadge is SmartConsensusMachine, ERC721, Pausable, ERC721URIStorage, ERC721Enumerable {\n    \n    using SafeERC20 for IERC20;\n\n    uint256 private _tokenIdGenerator = 1;\n    uint256 public pensBalance;\n\n    uint256 public mintingCost = 1 * 10 * 18;\n\n    uint256 public subsidyInitialValue = 1000 * 10 ** 18 ; //starting value\n    uint256 public subsidyDegradationRate = 69; //Higher = Faster\n    uint256 public subsidyFloor = 0;\n\n    bool public isForeverLocked = false;\n\n    string public socialPlatform;\n    string public badgeColor;\n    string public badgeName;\n    string public baseURI_ = string(abi.encodePacked(\"ipfs\", \":\", \"/\", \"/\"));\n\n    IERC20 public subsidyToken;\n\n\n    constructor(string memory _badgeName, string memory _badgeSymbol, string memory _socialPlatform, address _AddressManagerAddress)\n        ERC721(_badgeName, _badgeSymbol)\n        SmartConsensusMachine(_AddressManagerAddress) {\n       \n        updateAllAddresses();\n        \n        badgeColor = _badgeSymbol;\n        badgeName = _badgeName;\n        socialPlatform = socialPlatform;\n        subsidyToken = IERC20(RedPenTokenAddress);\n        pensBalance = subsidyToken.balanceOf(address(this));\n\n    }      \n    \n    //******************************\n    //                            **\n    //     Setup mapping          ** \n    //                            **\n    //******************************\n    struct IDCard { // struct will store the psuedonym and avatar NFT information.\n        string pseudonym;\n        string socialHandle;\n        address avatarTokenAddress;\n        uint avatarTokenId;\n        uint avatarNetworkId;\n    }\n\n\n    mapping (uint => bool) public UserTransferApproved;\n    mapping (uint => IDCard) public IDCardInfo; \n    mapping (string => uint) public SocialHandle;\n    mapping (string => uint) public Pseudonym;\n\n    function _checkAvailibility(string memory _socialHandle, string memory _pseudonym) internal returns (bool) {\n        require(SocialHandle[_socialHandle] < 1, \"Already an ID associated with this social account\");\n        require(Pseudonym[_pseudonym] < 1, \"Already an ID associated with this pseudonym\");\n        return true;\n    }\n\n    function _paySubsidy(address _payTo) internal returns (bool) {\n        uint _supply = totalSupply() + 1;\n\n        uint _amount = subsidyFloor + ( (subsidyInitialValue - subsidyFloor) / ( (_supply + subsidyDegradationRate) / subsidyDegradationRate ));\n        uint initialBalance = subsidyToken.balanceOf(address(this));\n        require ( initialBalance >= _amount);\n        subsidyToken.safeTransferFrom(address(this), _payTo, _amount);\n        uint newBalance = subsidyToken.balanceOf(address(this));\n        require (newBalance <= initialBalance);\n    }\n\n    \n    function _setBadgeInfo(string memory _pseudonym, string memory _socialHandle, address _avatarTokenAddress, uint _avatarTokenId, uint _tokenId) internal {\n        \n        \n        require(_checkAvailibility(_socialHandle, _pseudonym));\n        IDCardInfo[_tokenId].socialHandle = _socialHandle;\n        IDCardInfo[_tokenId].avatarTokenAddress = _avatarTokenAddress;\n        IDCardInfo[_tokenId].avatarTokenId = _avatarTokenId;\n        IDCardInfo[_tokenId].pseudonym = _pseudonym;\n        //Assumes Mainnet if not specified...\n        IDCardInfo[_tokenId].avatarNetworkId = 1;\n\n        SocialHandle[_socialHandle] = _tokenId;\n        Pseudonym[_pseudonym] = _tokenId;\n    }\n\n    function _setBadgeInfo(string memory _pseudonym, string memory _socialHandle, address _avatarTokenAddress, uint _avatarTokenId, uint _avatarNetworkId, uint _tokenId) internal {\n        \n        require(_checkAvailibility(_socialHandle, _pseudonym));\n\n        IDCardInfo[_tokenId].socialHandle = _socialHandle;\n        IDCardInfo[_tokenId].avatarTokenAddress = _avatarTokenAddress;\n        IDCardInfo[_tokenId].avatarTokenId = _avatarTokenId;\n        IDCardInfo[_tokenId].pseudonym = _pseudonym;\n        IDCardInfo[_tokenId].avatarNetworkId = _avatarNetworkId;\n\n        SocialHandle[_socialHandle] = _tokenId;\n        Pseudonym[_pseudonym] = _tokenId;\n    }\n\n    function updateAvatar(address _avatarTokenAddress, uint _avatarTokenId) public {\n        require(balanceOf(msg.sender) > 0);\n        uint _tokenId = tokenOfOwnerByIndex(msg.sender, 0);\n        _updateAvatar(_tokenId, _avatarTokenAddress, _avatarTokenId);\n    }\n\n    function updateAvatar(uint _tokenId, address _avatarTokenAddress, uint _avatarTokenId) public {\n        require(_isApprovedOrOwner(msg.sender, _tokenId));\n        _updateAvatar(_tokenId, _avatarTokenAddress, _avatarTokenId);\n    }\n\n    function updateAvatar(uint _tokenId, address _avatarTokenAddress, uint _avatarTokenId, uint _avatarNetworkId) public {\n        require(_isApprovedOrOwner(msg.sender, _tokenId));\n        _updateAvatar(_tokenId, _avatarTokenAddress, _avatarTokenId, _avatarNetworkId);\n    }\n\n    function updateImageHash(uint256 _tokenId, string memory _contentHash) public {\n        require(_isApprovedOrOwner(msg.sender, _tokenId));\n        _setTokenURI( _tokenId, _contentHash);\n    }\n\n    function _updateAvatar(uint _tokenId, address _avatarTokenAddress, uint _avatarTokenId) internal {\n        IDCardInfo[_tokenId].avatarTokenAddress = _avatarTokenAddress; \n        IDCardInfo[_tokenId].avatarTokenId = _avatarTokenId;\n    }\n\n    function _updateAvatar(uint _tokenId, address _avatarTokenAddress, uint _avatarTokenId, uint _avatarNetworkId) internal {\n        IDCardInfo[_tokenId].avatarTokenAddress = _avatarTokenAddress; \n        IDCardInfo[_tokenId].avatarTokenId = _avatarTokenId;\n        IDCardInfo[_tokenId].avatarNetworkId = _avatarNetworkId;\n    }\n\n    function getIDFromHandle(string memory _SocialHandle) public view returns (uint _tokenId) {\n        _tokenId = SocialHandle[_SocialHandle];\n        return ( _tokenId );\n    }\n\n    function getBadgeInfo(uint _tokenId) public view returns (string memory _pseudonym, string memory _socialHandle, address _avatarTokenAddress, uint _avatarTokenId ) {\n        _pseudonym = IDCardInfo[_tokenId].pseudonym;\n        _avatarTokenAddress = IDCardInfo[_tokenId].avatarTokenAddress;\n        _avatarTokenId = IDCardInfo[_tokenId].avatarTokenId;\n        _socialHandle =IDCardInfo[_tokenId].socialHandle;\n        return (_pseudonym, _socialHandle, _avatarTokenAddress, _avatarTokenId );\n    }\n\n\n\n    /////////////////////////////////////////////////////////////////////////////////////////////////\n    /////////////////////////////////////////////////////////////////////////////////////////////////\n    /// @dev                                                                                     ////\n    /// Issuance Desk                                                                            ////\n    /////////////////////////////////////////////////////////////////////////////////////////////////\n    /////////////////////////////////////////////////////////////////////////////////////////////////\n\n\n    function issueBadge(address receivingAddress, string memory _pseudonym, string memory _socialHandle,\n                            address _avatarTokenAddress, uint _avatarTokenId, string memory _TokenURI) public virtual\n        BAILIFF\n        returns(uint newId) {\n            uint _avatarNetworkId = 1;\n            string memory _tokenURI = \"\";\n            newId = _issueBadge(receivingAddress, _pseudonym, _socialHandle, _avatarTokenAddress, _avatarTokenId, _avatarNetworkId, _tokenURI); \n     }\n\n    function issueBadge(address receivingAddress, string memory _pseudonym, string memory _socialHandle, address _avatarTokenAddress,\n                            uint _avatarTokenId) public virtual\n        BAILIFF\n        returns(uint newId) {\n        string memory _tokenURI = \"\";\n        uint _avatarNetworkId = 1;\n        newId = _issueBadge(receivingAddress, _pseudonym, _socialHandle, _avatarTokenAddress, _avatarTokenId, _avatarNetworkId, _tokenURI);\n       \n    }\n    \n    function issueBadge(address receivingAddress, string memory _pseudonym, string memory _socialHandle, address _avatarTokenAddress,\n                            uint _avatarTokenId, uint _avatarNetworkId, uint _tokenId, string memory _tokenURI) public virtual\n        BAILIFF\n        returns(uint newId) {\n        newId = _issueBadge(receivingAddress, _pseudonym, _socialHandle, _avatarTokenAddress, _avatarTokenId, _avatarNetworkId, _tokenURI);       \n    }\n\n    function _issueBadge(address _receivingAddress, string memory _pseudonym, string memory _socialHandle, address _avatarTokenAddress,\n                            uint _avatarTokenId, uint _avatarNetworkId, string memory _tokenURI) internal virtual\n        returns(uint newId) { // Right now function also increments and returns tokenId, this will be removed.\n        require((_receivingAddress != msg.sender) && (_receivingAddress != address(0)));\n        require(balanceOf(_receivingAddress) <= 0, \"Only one ID per wallet\");\n        newId = _tokenIdGenerator;\n        _setBadgeInfo(_pseudonym, _socialHandle, _avatarTokenAddress, _avatarTokenId, _avatarNetworkId, newId);\n        _safeMint(_receivingAddress, newId);\n        _setTokenURI(newId, _tokenURI);\n        _paySubsidy(_receivingAddress);\n        _tokenIdGenerator += 1;            \n     }\n\n\n    function revokeBadge(uint _tokenId) public {\n        require(isApprovedForAll(ownerOf(_tokenId), msg.sender),\n                    \"Please visit the DAO to renounce your citizenship!\") ;\n        _burn(_tokenId);\n    }\n\n    function _withdrawlAvatar(uint _badgeTokenId)  internal virtual returns (bool){\n\n        address badgeOwner = ownerOf(_badgeTokenId);\n        address avatarAddress = IDCardInfo[_badgeTokenId].avatarTokenAddress;\n        uint avatarTokenId = IDCardInfo[_badgeTokenId].avatarTokenId;\n\n        ERC721 avatar = ERC721(avatarAddress);\n\n        if (avatar.ownerOf(avatarTokenId) == address(this)) {\n            ERC721(avatarAddress).safeTransferFrom(address(this), badgeOwner, avatarTokenId);\n        }\n\n        return true;\n    }\n\n    function onERC721Received(address operator, address from, uint256 tokenId, bytes calldata data)\n     external returns (bytes4) {\n        require(this.balanceOf(from) >= 1);\n\n        uint badgeNumber = tokenOfOwnerByIndex(from, 1);\n\n        ERC721 tokenRecieved = ERC721(msg.sender);\n\n        ERC721(msg.sender).approve(from, tokenId);\n\n        _withdrawlAvatar(badgeNumber);        \n        require(tokenRecieved.ownerOf(tokenId) == address(this));\n        _updateAvatar(badgeNumber, msg.sender, tokenId);\n        return this.onERC721Received.selector;\n     }\n\n\n    /////////////////////////////////////////////////////////////////////////////////////////////////\n    /////////////////////////////////////////////////////////////////////////////////////////////////\n    /// @dev                                                                                     ////\n    /// Maintanence\\\\\\\\\\\\\\\\\\\\\\\\\\\\\\\\\\\\\\\\\\\\\\\\\\\\\\                                                   ////\n    /////////////////////////////////////////////////////////////////////////////////////////////////\n    /////////////////////////////////////////////////////////////////////////////////////////////////\n    // Pause the contract if neccesary. Only the Gavels can do this.\n    function pause() public GAVELS {\n        _pause();\n    }\n\n    function unpause() public GAVELS {\n        require(isForeverLocked == false);\n        _unpause();\n    }\n\n    function _burnAllBadges() internal returns (bool) {\n        // burn all badges\n        uint256 index = 0;\n        for (index = 0; index < _tokenIdGenerator; index++) {\n            if (_exists(index)) {\n                _burn(index);\n            }   \n        }\n        _tokenIdGenerator = 0;\n        return true;\n    }\n\n    function refreshBadges(bool _thisIsNotReversible) public THE_COURT returns (bool) {\n\n        if(_thisIsNotReversible == true) {\n            // burn all badges\n            _burnAllBadges();\n            return true;\n        } else {return false;}\n    }\n\n\n    function destroyAndLockContract(uint _valueMustBe69) public THE_COURT returns (bool) {\n\n        if(_valueMustBe69 == 69) {\n            // burn all badges\n            _burnAllBadges();\n            // set protocol to locked\n            _pause();\n            isForeverLocked = true;\n            return isForeverLocked;\n        } else {return false;}\n    }\n\n    function setBaseURI(string memory _baseURIString) public BAILIFF returns (bool) {\n        _setBaseURI(_baseURIString);\n        return true;\n    }\n\n    function _setBaseURI(string memory _baseURIString) internal returns (bool) {\n        baseURI_ = _baseURIString;\n        return true;\n    }\n\n    function _baseURI() internal view virtual override returns (string memory) {\n        return baseURI_;\n    }\n    function tokenURI(uint256 _tokenId) public view virtual override(ERC721, ERC721URIStorage) returns (string memory _URI) {\n        _URI = ERC721URIStorage.tokenURI(_tokenId);\n    }\n\n    /////////////////////////////////////////////////////////////////////////////////////////////////\n    /////////////////////////////////////////////////////////////////////////////////////////////////\n    /// @dev                                                                                     ////\n    /// Transfer rules                                                                           ////\n    /////////////////////////////////////////////////////////////////////////////////////////////////\n    /////////////////////////////////////////////////////////////////////////////////////////////////\n    \n\n    function approveUserTransfer(uint _tokenId) public BAILIFF{\n        require(_approveTransfer(_tokenId));\n    }\n\n    function _approveTransfer(uint _tokenId) internal returns (bool) {\n        UserTransferApproved[_tokenId] = true;\n        return true;\n    }\n\n    function _undoApproveTransfer(uint _tokenId) internal returns (bool) {\n        UserTransferApproved[_tokenId] = false;\n    }\n\n    function isApprovedForAll(address owner, address operator)\n    public view virtual\n    override (ERC721)\n    returns (bool) {\n\n        bool isApproved = ( hasRole(THE_COURT_ROLE, operator)\n                            || hasRole(JURY_BAILIFF, operator));\n        return isApproved;\n    }\n\n    function setApprovalForAll(address operator, bool approved)\n    public virtual\n    override (ERC721) {\n        \n         require(   hasRole(THE_COURT_ROLE, msg.sender)\n                    || hasRole(JURY_BAILIFF, msg.sender),\n                    \"You do not have permission to set approval for all\");\n        super.setApprovalForAll(operator, approved);\n    }\n\n    function _beforeTokenTransfer(address from, address to, uint256 _tokenId)\n        internal\n        override(ERC721, ERC721Enumerable)\n    {\n        require(isApprovedForAll(from, msg.sender) || UserTransferApproved[_tokenId], \"Please visit the DAO to change your address!\");\n         \n        if (UserTransferApproved[_tokenId] && _isApprovedOrOwner(msg.sender, _tokenId)) {\n            require(UserTransferApproved[_tokenId]);\n            require(_undoApproveTransfer(_tokenId));\n            super._beforeTokenTransfer(from, to, _tokenId);\n        } else {\n            super._beforeTokenTransfer(from, to, _tokenId);\n        }\n\n    }\n    \n    function _burn(uint256 tokenId) internal virtual override (ERC721, ERC721URIStorage){\n        ERC721URIStorage._burn(tokenId);\n    }\n\n    function supportsInterface(bytes4 interfaceId)\n        public\n        view\n        override(ERC721, ERC721Enumerable, AccessControlEnumerable)\n        returns (bool)\n    {\n        return super.supportsInterface(interfaceId);\n    }\n\n    /////////////////////////////////////////////////////////////////////////////////////////////////\n    /////////////////////////////////////////////////////////////////////////////////////////////////\n    /// @dev                                                                                     ////\n    /// End                                                                                      ////\n    /////////////////////////////////////////////////////////////////////////////////////////////////\n    /////////////////////////////////////////////////////////////////////////////////////////////////\n}",
  "sourcePath": "/home/n/Desktop/PinkSlips_FrontEnd_REFORMAT/contracts/src/ERC721/IdentityBadge.sol",
  "compiler": {
    "name": "solc",
    "version": "0.8.7+commit.e28d00a7.Emscripten.clang"
  },
  "schemaVersion": "3.4.1",
  "updatedAt": "2021-08-18T01:04:44.165Z",
  "devdoc": {
    "kind": "dev",
    "methods": {
      "approve(address,uint256)": {
        "details": "See {IERC721-approve}."
      },
      "approveUserTransfer(uint256)": {
        "details": "//// Transfer rules                                                                           ////"
      },
      "balanceOf(address)": {
        "details": "See {IERC721-balanceOf}."
      },
      "getApproved(uint256)": {
        "details": "See {IERC721-getApproved}."
      },
      "getRoleAdmin(bytes32)": {
        "details": "Returns the admin role that controls `role`. See {grantRole} and {revokeRole}. To change a role's admin, use {_setRoleAdmin}."
      },
      "getRoleMember(bytes32,uint256)": {
        "details": "Returns one of the accounts that have `role`. `index` must be a value between 0 and {getRoleMemberCount}, non-inclusive. Role bearers are not sorted in any particular way, and their ordering may change at any point. WARNING: When using {getRoleMember} and {getRoleMemberCount}, make sure you perform all queries on the same block. See the following https://forum.openzeppelin.com/t/iterating-over-elements-on-enumerableset-in-openzeppelin-contracts/2296[forum post] for more information."
      },
      "getRoleMemberCount(bytes32)": {
        "details": "Returns the number of accounts that have `role`. Can be used together with {getRoleMember} to enumerate all bearers of a role."
      },
      "grantRole(bytes32,address)": {
        "details": "Overload {grantRole} to track enumerable memberships"
      },
      "hasRole(bytes32,address)": {
        "details": "Returns `true` if `account` has been granted `role`."
      },
      "isApprovedForAll(address,address)": {
        "details": "See {IERC721-isApprovedForAll}."
      },
      "issueBadge(address,string,string,address,uint256,string)": {
        "details": "//// Issuance Desk                                                                            ////"
      },
      "name()": {
        "details": "See {IERC721Metadata-name}."
      },
      "ownerOf(uint256)": {
        "details": "See {IERC721-ownerOf}."
      },
      "pause()": {
        "details": "//// Maintanence\\\\\\\\\\\\\\\\\\\\\\\\\\\\\\\\\\\\\\\\\\\\\\\\\\\\\\                                                   ////"
      },
      "paused()": {
        "details": "Returns true if the contract is paused, and false otherwise."
      },
      "renounceRole(bytes32,address)": {
        "details": "Overload {renounceRole} to track enumerable memberships"
      },
      "revokeRole(bytes32,address)": {
        "details": "Overload {revokeRole} to track enumerable memberships"
      },
      "safeTransferFrom(address,address,uint256)": {
        "details": "See {IERC721-safeTransferFrom}."
      },
      "safeTransferFrom(address,address,uint256,bytes)": {
        "details": "See {IERC721-safeTransferFrom}."
      },
      "setApprovalForAll(address,bool)": {
        "details": "See {IERC721-setApprovalForAll}."
      },
      "symbol()": {
        "details": "See {IERC721Metadata-symbol}."
      },
      "tokenByIndex(uint256)": {
        "details": "See {IERC721Enumerable-tokenByIndex}."
      },
      "tokenOfOwnerByIndex(address,uint256)": {
        "details": "See {IERC721Enumerable-tokenOfOwnerByIndex}."
      },
      "totalSupply()": {
        "details": "See {IERC721Enumerable-totalSupply}."
      },
      "transferFrom(address,address,uint256)": {
        "details": "See {IERC721-transferFrom}."
      }
    },
    "version": 1
  },
  "userdoc": {
    "kind": "user",
    "methods": {},
    "version": 1
  }
}