{
  "contractName": "IdentityBadge",
  "abi": [
    {
      "inputs": [
        {
          "internalType": "string",
          "name": "_badgeName",
          "type": "string"
        },
        {
          "internalType": "string",
          "name": "_badgeSymbol",
          "type": "string"
        },
        {
          "internalType": "string",
          "name": "_socialPlatform",
          "type": "string"
        },
        {
          "internalType": "address",
          "name": "_AddressManagerAddress",
          "type": "address"
        }
      ],
      "stateMutability": "nonpayable",
      "type": "constructor"
    },
    {
      "anonymous": false,
      "inputs": [
        {
          "indexed": true,
          "internalType": "address",
          "name": "owner",
          "type": "address"
        },
        {
          "indexed": true,
          "internalType": "address",
          "name": "approved",
          "type": "address"
        },
        {
          "indexed": true,
          "internalType": "uint256",
          "name": "tokenId",
          "type": "uint256"
        }
      ],
      "name": "Approval",
      "type": "event"
    },
    {
      "anonymous": false,
      "inputs": [
        {
          "indexed": true,
          "internalType": "address",
          "name": "owner",
          "type": "address"
        },
        {
          "indexed": true,
          "internalType": "address",
          "name": "operator",
          "type": "address"
        },
        {
          "indexed": false,
          "internalType": "bool",
          "name": "approved",
          "type": "bool"
        }
      ],
      "name": "ApprovalForAll",
      "type": "event"
    },
    {
      "anonymous": false,
      "inputs": [
        {
          "indexed": false,
          "internalType": "address",
          "name": "account",
          "type": "address"
        }
      ],
      "name": "Paused",
      "type": "event"
    },
    {
      "anonymous": false,
      "inputs": [
        {
          "indexed": true,
          "internalType": "bytes32",
          "name": "role",
          "type": "bytes32"
        },
        {
          "indexed": true,
          "internalType": "bytes32",
          "name": "previousAdminRole",
          "type": "bytes32"
        },
        {
          "indexed": true,
          "internalType": "bytes32",
          "name": "newAdminRole",
          "type": "bytes32"
        }
      ],
      "name": "RoleAdminChanged",
      "type": "event"
    },
    {
      "anonymous": false,
      "inputs": [
        {
          "indexed": true,
          "internalType": "bytes32",
          "name": "role",
          "type": "bytes32"
        },
        {
          "indexed": true,
          "internalType": "address",
          "name": "account",
          "type": "address"
        },
        {
          "indexed": true,
          "internalType": "address",
          "name": "sender",
          "type": "address"
        }
      ],
      "name": "RoleGranted",
      "type": "event"
    },
    {
      "anonymous": false,
      "inputs": [
        {
          "indexed": true,
          "internalType": "bytes32",
          "name": "role",
          "type": "bytes32"
        },
        {
          "indexed": true,
          "internalType": "address",
          "name": "account",
          "type": "address"
        },
        {
          "indexed": true,
          "internalType": "address",
          "name": "sender",
          "type": "address"
        }
      ],
      "name": "RoleRevoked",
      "type": "event"
    },
    {
      "anonymous": false,
      "inputs": [
        {
          "indexed": true,
          "internalType": "address",
          "name": "from",
          "type": "address"
        },
        {
          "indexed": true,
          "internalType": "address",
          "name": "to",
          "type": "address"
        },
        {
          "indexed": true,
          "internalType": "uint256",
          "name": "tokenId",
          "type": "uint256"
        }
      ],
      "name": "Transfer",
      "type": "event"
    },
    {
      "anonymous": false,
      "inputs": [
        {
          "indexed": false,
          "internalType": "address",
          "name": "account",
          "type": "address"
        }
      ],
      "name": "Unpaused",
      "type": "event"
    },
    {
      "inputs": [],
      "name": "AddressManagerAddress",
      "outputs": [
        {
          "internalType": "address",
          "name": "",
          "type": "address"
        }
      ],
      "stateMutability": "view",
      "type": "function"
    },
    {
      "inputs": [],
      "name": "ChadBadgeAddress",
      "outputs": [
        {
          "internalType": "address",
          "name": "",
          "type": "address"
        }
      ],
      "stateMutability": "view",
      "type": "function"
    },
    {
      "inputs": [],
      "name": "ColoredIDAddress",
      "outputs": [
        {
          "internalType": "address",
          "name": "",
          "type": "address"
        }
      ],
      "stateMutability": "view",
      "type": "function"
    },
    {
      "inputs": [],
      "name": "CourtClerk",
      "outputs": [
        {
          "internalType": "address",
          "name": "",
          "type": "address"
        }
      ],
      "stateMutability": "view",
      "type": "function"
    },
    {
      "inputs": [],
      "name": "DEFAULT_ADMIN_ROLE",
      "outputs": [
        {
          "internalType": "bytes32",
          "name": "",
          "type": "bytes32"
        }
      ],
      "stateMutability": "view",
      "type": "function"
    },
    {
      "inputs": [],
      "name": "GAVELS_BAILIFF",
      "outputs": [
        {
          "internalType": "bytes32",
          "name": "",
          "type": "bytes32"
        }
      ],
      "stateMutability": "view",
      "type": "function"
    },
    {
      "inputs": [],
      "name": "GavelDAOAgent",
      "outputs": [
        {
          "internalType": "address",
          "name": "",
          "type": "address"
        }
      ],
      "stateMutability": "view",
      "type": "function"
    },
    {
      "inputs": [],
      "name": "GavelTokenAddress",
      "outputs": [
        {
          "internalType": "address",
          "name": "",
          "type": "address"
        }
      ],
      "stateMutability": "view",
      "type": "function"
    },
    {
      "inputs": [],
      "name": "GavelVote",
      "outputs": [
        {
          "internalType": "bool",
          "name": "",
          "type": "bool"
        }
      ],
      "stateMutability": "view",
      "type": "function"
    },
    {
      "inputs": [],
      "name": "GoldStarAddress",
      "outputs": [
        {
          "internalType": "address",
          "name": "",
          "type": "address"
        }
      ],
      "stateMutability": "view",
      "type": "function"
    },
    {
      "inputs": [
        {
          "internalType": "uint256",
          "name": "",
          "type": "uint256"
        }
      ],
      "name": "IDCardInfo",
      "outputs": [
        {
          "internalType": "string",
          "name": "pseudonym",
          "type": "string"
        },
        {
          "internalType": "string",
          "name": "socialHandle",
          "type": "string"
        },
        {
          "internalType": "address",
          "name": "avatarTokenAddress",
          "type": "address"
        },
        {
          "internalType": "uint256",
          "name": "avatarTokenId",
          "type": "uint256"
        },
        {
          "internalType": "uint256",
          "name": "avatarNetworkId",
          "type": "uint256"
        }
      ],
      "stateMutability": "view",
      "type": "function"
    },
    {
      "inputs": [],
      "name": "JERK_ROLE",
      "outputs": [
        {
          "internalType": "bytes32",
          "name": "",
          "type": "bytes32"
        }
      ],
      "stateMutability": "view",
      "type": "function"
    },
    {
      "inputs": [],
      "name": "JURY_BAILIFF",
      "outputs": [
        {
          "internalType": "bytes32",
          "name": "",
          "type": "bytes32"
        }
      ],
      "stateMutability": "view",
      "type": "function"
    },
    {
      "inputs": [],
      "name": "JuryDAOAgent",
      "outputs": [
        {
          "internalType": "address",
          "name": "",
          "type": "address"
        }
      ],
      "stateMutability": "view",
      "type": "function"
    },
    {
      "inputs": [],
      "name": "JuryPoolAddress",
      "outputs": [
        {
          "internalType": "address",
          "name": "",
          "type": "address"
        }
      ],
      "stateMutability": "view",
      "type": "function"
    },
    {
      "inputs": [],
      "name": "JuryVote",
      "outputs": [
        {
          "internalType": "bool",
          "name": "",
          "type": "bool"
        }
      ],
      "stateMutability": "view",
      "type": "function"
    },
    {
      "inputs": [],
      "name": "MINI_BAILIFF_ROLE",
      "outputs": [
        {
          "internalType": "bytes32",
          "name": "",
          "type": "bytes32"
        }
      ],
      "stateMutability": "view",
      "type": "function"
    },
    {
      "inputs": [],
      "name": "MiniBailiff",
      "outputs": [
        {
          "internalType": "address",
          "name": "",
          "type": "address"
        }
      ],
      "stateMutability": "view",
      "type": "function"
    },
    {
      "inputs": [],
      "name": "PinkSlipAddress",
      "outputs": [
        {
          "internalType": "address",
          "name": "",
          "type": "address"
        }
      ],
      "stateMutability": "view",
      "type": "function"
    },
    {
      "inputs": [
        {
          "internalType": "string",
          "name": "",
          "type": "string"
        }
      ],
      "name": "Pseudonym",
      "outputs": [
        {
          "internalType": "uint256",
          "name": "",
          "type": "uint256"
        }
      ],
      "stateMutability": "view",
      "type": "function"
    },
    {
      "inputs": [],
      "name": "RedPenTokenAddress",
      "outputs": [
        {
          "internalType": "address",
          "name": "",
          "type": "address"
        }
      ],
      "stateMutability": "view",
      "type": "function"
    },
    {
      "inputs": [
        {
          "internalType": "string",
          "name": "",
          "type": "string"
        }
      ],
      "name": "SocialHandle",
      "outputs": [
        {
          "internalType": "uint256",
          "name": "",
          "type": "uint256"
        }
      ],
      "stateMutability": "view",
      "type": "function"
    },
    {
      "inputs": [],
      "name": "THE_COURT_ROLE",
      "outputs": [
        {
          "internalType": "bytes32",
          "name": "",
          "type": "bytes32"
        }
      ],
      "stateMutability": "view",
      "type": "function"
    },
    {
      "inputs": [],
      "name": "TheCourtAddress",
      "outputs": [
        {
          "internalType": "address",
          "name": "",
          "type": "address"
        }
      ],
      "stateMutability": "view",
      "type": "function"
    },
    {
      "inputs": [],
      "name": "TreasuryAddress",
      "outputs": [
        {
          "internalType": "address",
          "name": "",
          "type": "address"
        }
      ],
      "stateMutability": "view",
      "type": "function"
    },
    {
      "inputs": [
        {
          "internalType": "uint256",
          "name": "",
          "type": "uint256"
        }
      ],
      "name": "UserTransferApproved",
      "outputs": [
        {
          "internalType": "bool",
          "name": "",
          "type": "bool"
        }
      ],
      "stateMutability": "view",
      "type": "function"
    },
    {
      "inputs": [],
      "name": "addressManager",
      "outputs": [
        {
          "internalType": "contract AddressManager",
          "name": "",
          "type": "address"
        }
      ],
      "stateMutability": "view",
      "type": "function"
    },
    {
      "inputs": [
        {
          "internalType": "address",
          "name": "to",
          "type": "address"
        },
        {
          "internalType": "uint256",
          "name": "tokenId",
          "type": "uint256"
        }
      ],
      "name": "approve",
      "outputs": [],
      "stateMutability": "nonpayable",
      "type": "function"
    },
    {
      "inputs": [],
      "name": "badgeColor",
      "outputs": [
        {
          "internalType": "string",
          "name": "",
          "type": "string"
        }
      ],
      "stateMutability": "view",
      "type": "function"
    },
    {
      "inputs": [],
      "name": "badgeName",
      "outputs": [
        {
          "internalType": "string",
          "name": "",
          "type": "string"
        }
      ],
      "stateMutability": "view",
      "type": "function"
    },
    {
      "inputs": [
        {
          "internalType": "address",
          "name": "owner",
          "type": "address"
        }
      ],
      "name": "balanceOf",
      "outputs": [
        {
          "internalType": "uint256",
          "name": "",
          "type": "uint256"
        }
      ],
      "stateMutability": "view",
      "type": "function"
    },
    {
      "inputs": [],
      "name": "baseURI_",
      "outputs": [
        {
          "internalType": "string",
          "name": "",
          "type": "string"
        }
      ],
      "stateMutability": "view",
      "type": "function"
    },
    {
      "inputs": [
        {
          "internalType": "uint256",
          "name": "tokenId",
          "type": "uint256"
        }
      ],
      "name": "getApproved",
      "outputs": [
        {
          "internalType": "address",
          "name": "",
          "type": "address"
        }
      ],
      "stateMutability": "view",
      "type": "function"
    },
    {
      "inputs": [
        {
          "internalType": "bytes32",
          "name": "role",
          "type": "bytes32"
        }
      ],
      "name": "getRoleAdmin",
      "outputs": [
        {
          "internalType": "bytes32",
          "name": "",
          "type": "bytes32"
        }
      ],
      "stateMutability": "view",
      "type": "function"
    },
    {
      "inputs": [
        {
          "internalType": "bytes32",
          "name": "role",
          "type": "bytes32"
        },
        {
          "internalType": "uint256",
          "name": "index",
          "type": "uint256"
        }
      ],
      "name": "getRoleMember",
      "outputs": [
        {
          "internalType": "address",
          "name": "",
          "type": "address"
        }
      ],
      "stateMutability": "view",
      "type": "function"
    },
    {
      "inputs": [
        {
          "internalType": "bytes32",
          "name": "role",
          "type": "bytes32"
        }
      ],
      "name": "getRoleMemberCount",
      "outputs": [
        {
          "internalType": "uint256",
          "name": "",
          "type": "uint256"
        }
      ],
      "stateMutability": "view",
      "type": "function"
    },
    {
      "inputs": [
        {
          "internalType": "bytes32",
          "name": "role",
          "type": "bytes32"
        },
        {
          "internalType": "address",
          "name": "account",
          "type": "address"
        }
      ],
      "name": "grantRole",
      "outputs": [],
      "stateMutability": "nonpayable",
      "type": "function"
    },
    {
      "inputs": [
        {
          "internalType": "bytes32",
          "name": "role",
          "type": "bytes32"
        },
        {
          "internalType": "address",
          "name": "account",
          "type": "address"
        }
      ],
      "name": "hasRole",
      "outputs": [
        {
          "internalType": "bool",
          "name": "",
          "type": "bool"
        }
      ],
      "stateMutability": "view",
      "type": "function"
    },
    {
      "inputs": [],
      "name": "isForeverLocked",
      "outputs": [
        {
          "internalType": "bool",
          "name": "",
          "type": "bool"
        }
      ],
      "stateMutability": "view",
      "type": "function"
    },
    {
      "inputs": [],
      "name": "jerkSanctions",
      "outputs": [
        {
          "internalType": "bool",
          "name": "",
          "type": "bool"
        }
      ],
      "stateMutability": "view",
      "type": "function"
    },
    {
      "inputs": [],
      "name": "mintingCost",
      "outputs": [
        {
          "internalType": "uint256",
          "name": "",
          "type": "uint256"
        }
      ],
      "stateMutability": "view",
      "type": "function"
    },
    {
      "inputs": [],
      "name": "name",
      "outputs": [
        {
          "internalType": "string",
          "name": "",
          "type": "string"
        }
      ],
      "stateMutability": "view",
      "type": "function"
    },
    {
      "inputs": [
        {
          "internalType": "uint256",
          "name": "tokenId",
          "type": "uint256"
        }
      ],
      "name": "ownerOf",
      "outputs": [
        {
          "internalType": "address",
          "name": "",
          "type": "address"
        }
      ],
      "stateMutability": "view",
      "type": "function"
    },
    {
      "inputs": [],
      "name": "paused",
      "outputs": [
        {
          "internalType": "bool",
          "name": "",
          "type": "bool"
        }
      ],
      "stateMutability": "view",
      "type": "function"
    },
    {
      "inputs": [
        {
          "internalType": "bytes32",
          "name": "role",
          "type": "bytes32"
        },
        {
          "internalType": "address",
          "name": "account",
          "type": "address"
        }
      ],
      "name": "renounceRole",
      "outputs": [],
      "stateMutability": "nonpayable",
      "type": "function"
    },
    {
      "inputs": [],
      "name": "resetVote",
      "outputs": [],
      "stateMutability": "nonpayable",
      "type": "function"
    },
    {
      "inputs": [
        {
          "internalType": "bytes32",
          "name": "role",
          "type": "bytes32"
        },
        {
          "internalType": "address",
          "name": "account",
          "type": "address"
        }
      ],
      "name": "revokeRole",
      "outputs": [],
      "stateMutability": "nonpayable",
      "type": "function"
    },
    {
      "inputs": [
        {
          "internalType": "address",
          "name": "from",
          "type": "address"
        },
        {
          "internalType": "address",
          "name": "to",
          "type": "address"
        },
        {
          "internalType": "uint256",
          "name": "tokenId",
          "type": "uint256"
        }
      ],
      "name": "safeTransferFrom",
      "outputs": [],
      "stateMutability": "nonpayable",
      "type": "function"
    },
    {
      "inputs": [
        {
          "internalType": "address",
          "name": "from",
          "type": "address"
        },
        {
          "internalType": "address",
          "name": "to",
          "type": "address"
        },
        {
          "internalType": "uint256",
          "name": "tokenId",
          "type": "uint256"
        },
        {
          "internalType": "bytes",
          "name": "_data",
          "type": "bytes"
        }
      ],
      "name": "safeTransferFrom",
      "outputs": [],
      "stateMutability": "nonpayable",
      "type": "function"
    },
    {
      "inputs": [],
      "name": "socialPlatform",
      "outputs": [
        {
          "internalType": "string",
          "name": "",
          "type": "string"
        }
      ],
      "stateMutability": "view",
      "type": "function"
    },
    {
      "inputs": [],
      "name": "symbol",
      "outputs": [
        {
          "internalType": "string",
          "name": "",
          "type": "string"
        }
      ],
      "stateMutability": "view",
      "type": "function"
    },
    {
      "inputs": [],
      "name": "syncAllRoles",
      "outputs": [],
      "stateMutability": "nonpayable",
      "type": "function"
    },
    {
      "inputs": [
        {
          "internalType": "bytes32",
          "name": "ROLE_TO_SYNC",
          "type": "bytes32"
        }
      ],
      "name": "syncSingleRole",
      "outputs": [],
      "stateMutability": "nonpayable",
      "type": "function"
    },
    {
      "inputs": [],
      "name": "syncVotes",
      "outputs": [],
      "stateMutability": "nonpayable",
      "type": "function"
    },
    {
      "inputs": [
        {
          "internalType": "uint256",
          "name": "index",
          "type": "uint256"
        }
      ],
      "name": "tokenByIndex",
      "outputs": [
        {
          "internalType": "uint256",
          "name": "",
          "type": "uint256"
        }
      ],
      "stateMutability": "view",
      "type": "function"
    },
    {
      "inputs": [
        {
          "internalType": "address",
          "name": "owner",
          "type": "address"
        },
        {
          "internalType": "uint256",
          "name": "index",
          "type": "uint256"
        }
      ],
      "name": "tokenOfOwnerByIndex",
      "outputs": [
        {
          "internalType": "uint256",
          "name": "",
          "type": "uint256"
        }
      ],
      "stateMutability": "view",
      "type": "function"
    },
    {
      "inputs": [],
      "name": "totalSupply",
      "outputs": [
        {
          "internalType": "uint256",
          "name": "",
          "type": "uint256"
        }
      ],
      "stateMutability": "view",
      "type": "function"
    },
    {
      "inputs": [
        {
          "internalType": "address",
          "name": "from",
          "type": "address"
        },
        {
          "internalType": "address",
          "name": "to",
          "type": "address"
        },
        {
          "internalType": "uint256",
          "name": "tokenId",
          "type": "uint256"
        }
      ],
      "name": "transferFrom",
      "outputs": [],
      "stateMutability": "nonpayable",
      "type": "function"
    },
    {
      "inputs": [],
      "name": "updateAddressManager",
      "outputs": [],
      "stateMutability": "nonpayable",
      "type": "function"
    },
    {
      "inputs": [],
      "name": "updateAllAddresses",
      "outputs": [],
      "stateMutability": "nonpayable",
      "type": "function"
    },
    {
      "inputs": [],
      "name": "updateAllRoles",
      "outputs": [],
      "stateMutability": "nonpayable",
      "type": "function"
    },
    {
      "inputs": [],
      "name": "updateDAOAddresses",
      "outputs": [],
      "stateMutability": "nonpayable",
      "type": "function"
    },
    {
      "inputs": [
        {
          "internalType": "bytes32",
          "name": "ROLE_TO_UPDATE",
          "type": "bytes32"
        }
      ],
      "name": "updateSingleRole",
      "outputs": [],
      "stateMutability": "nonpayable",
      "type": "function"
    },
    {
      "inputs": [],
      "name": "updateTokenAddresses",
      "outputs": [],
      "stateMutability": "nonpayable",
      "type": "function"
    },
    {
      "inputs": [
        {
          "internalType": "address",
          "name": "_avatarTokenAddress",
          "type": "address"
        },
        {
          "internalType": "uint256",
          "name": "_avatarTokenId",
          "type": "uint256"
        }
      ],
      "name": "updateAvatar",
      "outputs": [],
      "stateMutability": "nonpayable",
      "type": "function"
    },
    {
      "inputs": [
        {
          "internalType": "uint256",
          "name": "_tokenId",
          "type": "uint256"
        },
        {
          "internalType": "address",
          "name": "_avatarTokenAddress",
          "type": "address"
        },
        {
          "internalType": "uint256",
          "name": "_avatarTokenId",
          "type": "uint256"
        },
        {
          "internalType": "uint256",
          "name": "_avatarNetworkId",
          "type": "uint256"
        }
      ],
      "name": "updateAvatar",
      "outputs": [],
      "stateMutability": "nonpayable",
      "type": "function"
    },
    {
      "inputs": [
        {
          "internalType": "uint256",
          "name": "_tokenId",
          "type": "uint256"
        },
        {
          "internalType": "address",
          "name": "_avatarTokenAddress",
          "type": "address"
        },
        {
          "internalType": "uint256",
          "name": "_avatarTokenId",
          "type": "uint256"
        }
      ],
      "name": "updateAvatar",
      "outputs": [],
      "stateMutability": "nonpayable",
      "type": "function"
    },
    {
      "inputs": [
        {
          "internalType": "uint256",
          "name": "_tokenId",
          "type": "uint256"
        },
        {
          "internalType": "string",
          "name": "_contentHash",
          "type": "string"
        }
      ],
      "name": "updateImageHash",
      "outputs": [],
      "stateMutability": "nonpayable",
      "type": "function"
    },
    {
      "inputs": [
        {
          "internalType": "string",
          "name": "_SocialHandle",
          "type": "string"
        }
      ],
      "name": "getIDFromHandle",
      "outputs": [
        {
          "internalType": "uint256",
          "name": "_tokenId",
          "type": "uint256"
        }
      ],
      "stateMutability": "view",
      "type": "function"
    },
    {
      "inputs": [
        {
          "internalType": "uint256",
          "name": "_tokenId",
          "type": "uint256"
        }
      ],
      "name": "getBadgeInfo",
      "outputs": [
        {
          "internalType": "string",
          "name": "_pseudonym",
          "type": "string"
        },
        {
          "internalType": "string",
          "name": "_socialHandle",
          "type": "string"
        },
        {
          "internalType": "address",
          "name": "_avatarTokenAddress",
          "type": "address"
        },
        {
          "internalType": "uint256",
          "name": "_avatarTokenId",
          "type": "uint256"
        }
      ],
      "stateMutability": "view",
      "type": "function"
    },
    {
      "inputs": [
        {
          "internalType": "address",
          "name": "receivingAddress",
          "type": "address"
        },
        {
          "internalType": "string",
          "name": "_pseudonym",
          "type": "string"
        },
        {
          "internalType": "string",
          "name": "_socialHandle",
          "type": "string"
        },
        {
          "internalType": "address",
          "name": "_avatarTokenAddress",
          "type": "address"
        },
        {
          "internalType": "uint256",
          "name": "_avatarTokenId",
          "type": "uint256"
        },
        {
          "internalType": "uint256",
          "name": "_avatarNetworkId",
          "type": "uint256"
        },
        {
          "internalType": "string",
          "name": "_tokenURI",
          "type": "string"
        }
      ],
      "name": "issueBadge",
      "outputs": [
        {
          "internalType": "uint256",
          "name": "newId",
          "type": "uint256"
        }
      ],
      "stateMutability": "nonpayable",
      "type": "function"
    },
    {
      "inputs": [
        {
          "internalType": "address",
          "name": "receivingAddress",
          "type": "address"
        },
        {
          "internalType": "string",
          "name": "_pseudonym",
          "type": "string"
        },
        {
          "internalType": "string",
          "name": "_socialHandle",
          "type": "string"
        },
        {
          "internalType": "address",
          "name": "_avatarTokenAddress",
          "type": "address"
        },
        {
          "internalType": "uint256",
          "name": "_avatarTokenId",
          "type": "uint256"
        }
      ],
      "name": "issueBadge",
      "outputs": [
        {
          "internalType": "uint256",
          "name": "newId",
          "type": "uint256"
        }
      ],
      "stateMutability": "nonpayable",
      "type": "function"
    },
    {
      "inputs": [
        {
          "internalType": "address",
          "name": "receivingAddress",
          "type": "address"
        },
        {
          "internalType": "string",
          "name": "_pseudonym",
          "type": "string"
        },
        {
          "internalType": "string",
          "name": "_socialHandle",
          "type": "string"
        },
        {
          "internalType": "address",
          "name": "_avatarTokenAddress",
          "type": "address"
        },
        {
          "internalType": "uint256",
          "name": "_avatarTokenId",
          "type": "uint256"
        },
        {
          "internalType": "string",
          "name": "_tokenURI",
          "type": "string"
        }
      ],
      "name": "issueBadge",
      "outputs": [
        {
          "internalType": "uint256",
          "name": "newId",
          "type": "uint256"
        }
      ],
      "stateMutability": "nonpayable",
      "type": "function"
    },
    {
      "inputs": [
        {
          "internalType": "uint256",
          "name": "_tokenId",
          "type": "uint256"
        }
      ],
      "name": "revokeBadge",
      "outputs": [],
      "stateMutability": "nonpayable",
      "type": "function"
    },
    {
      "inputs": [
        {
          "internalType": "address",
          "name": "operator",
          "type": "address"
        },
        {
          "internalType": "address",
          "name": "from",
          "type": "address"
        },
        {
          "internalType": "uint256",
          "name": "tokenId",
          "type": "uint256"
        },
        {
          "internalType": "bytes",
          "name": "data",
          "type": "bytes"
        }
      ],
      "name": "onERC721Received",
      "outputs": [
        {
          "internalType": "bytes4",
          "name": "",
          "type": "bytes4"
        }
      ],
      "stateMutability": "nonpayable",
      "type": "function"
    },
    {
      "inputs": [],
      "name": "pause",
      "outputs": [],
      "stateMutability": "nonpayable",
      "type": "function"
    },
    {
      "inputs": [],
      "name": "unpause",
      "outputs": [],
      "stateMutability": "nonpayable",
      "type": "function"
    },
    {
      "inputs": [
        {
          "internalType": "bool",
          "name": "_thisIsNotReversible",
          "type": "bool"
        }
      ],
      "name": "refreshBadges",
      "outputs": [
        {
          "internalType": "bool",
          "name": "",
          "type": "bool"
        }
      ],
      "stateMutability": "nonpayable",
      "type": "function"
    },
    {
      "inputs": [
        {
          "internalType": "uint256",
          "name": "_valueMustBe69",
          "type": "uint256"
        }
      ],
      "name": "destroyAndLockContract",
      "outputs": [
        {
          "internalType": "bool",
          "name": "",
          "type": "bool"
        }
      ],
      "stateMutability": "nonpayable",
      "type": "function"
    },
    {
      "inputs": [
        {
          "internalType": "string",
          "name": "_baseURIString",
          "type": "string"
        }
      ],
      "name": "setBaseURI",
      "outputs": [
        {
          "internalType": "bool",
          "name": "",
          "type": "bool"
        }
      ],
      "stateMutability": "nonpayable",
      "type": "function"
    },
    {
      "inputs": [
        {
          "internalType": "uint256",
          "name": "_tokenId",
          "type": "uint256"
        }
      ],
      "name": "tokenURI",
      "outputs": [
        {
          "internalType": "string",
          "name": "_URI",
          "type": "string"
        }
      ],
      "stateMutability": "view",
      "type": "function"
    },
    {
      "inputs": [
        {
          "internalType": "uint256",
          "name": "_tokenId",
          "type": "uint256"
        }
      ],
      "name": "approveUserTransfer",
      "outputs": [],
      "stateMutability": "nonpayable",
      "type": "function"
    },
    {
      "inputs": [
        {
          "internalType": "address",
          "name": "owner",
          "type": "address"
        },
        {
          "internalType": "address",
          "name": "operator",
          "type": "address"
        }
      ],
      "name": "isApprovedForAll",
      "outputs": [
        {
          "internalType": "bool",
          "name": "",
          "type": "bool"
        }
      ],
      "stateMutability": "view",
      "type": "function"
    },
    {
      "inputs": [
        {
          "internalType": "address",
          "name": "operator",
          "type": "address"
        },
        {
          "internalType": "bool",
          "name": "approved",
          "type": "bool"
        }
      ],
      "name": "setApprovalForAll",
      "outputs": [],
      "stateMutability": "nonpayable",
      "type": "function"
    },
    {
      "inputs": [
        {
          "internalType": "bytes4",
          "name": "interfaceId",
          "type": "bytes4"
        }
      ],
      "name": "supportsInterface",
      "outputs": [
        {
          "internalType": "bool",
          "name": "",
          "type": "bool"
        }
      ],
      "stateMutability": "view",
      "type": "function"
    }
  ],
  "bytecode": "0x6000805460ff199081169091556011805463ffffffff60a01b191690556001601e5560b4601f55602080549091169055636970667360e01b60a0908152601d60f91b60a452602f60f81b60a581905260a6526007608081905260a76040526200006b9160249162000c77565b503480156200007957600080fd5b5060405162006929380380620069298339810160408190526200009c9162000ebe565b600380546001600160a01b0383166001600160a01b03199182168117909255601180549091169091179055838382620000d4620002a0565b620000de620002b6565b600f54620000f8906000906001600160a01b031662000401565b600f5462000131907f0538d24a8b7882d7b2e36af243d4af61c23e86e3daa6cb8c887b53220b2f5720906001600160a01b031662000401565b600c546200016a907f048bc71fa1cb2c119c339cf9cf00a97996a19a9d991ce5fe049f2fa5459e7990906001600160a01b031662000401565b600d54620001a3907ffa8e4989e1d689f7bc5c4b25b87efb51fecdecb19ba62847e29c759e12a89acd906001600160a01b031662000401565b601054620001dc907ff0f4b159a6e2a4815eb3ca3df080bfa70c9270662c59bcaa4479a456220183e6906001600160a01b031662000401565b620002097f7c9d7f6f02908185bffb3f7fc9afb29fd7bf93675af8fd4b655ee05c2cee1e0e600062000401565b5081516200021f90601290602085019062000c77565b5080516200023590601390602084019062000c77565b50506018805460ff19169055506200024c620002a0565b82516200026190602290602086019062000c77565b5083516200027790602390602087019062000c77565b506021808054620002889062000f62565b6200029592919062000d06565b505050505062000fb5565b620002aa62000444565b620002b462000744565b565b601160009054906101000a90046001600160a01b03166001600160a01b031663ff7e88ec6040518163ffffffff1660e01b815260040160206040518083038186803b1580156200030557600080fd5b505afa1580156200031a573d6000803e3d6000fd5b505050506040513d601f19601f8201168201806040525081019062000340919062000e93565b601160156101000a81548160ff021916908315150217905550601160009054906101000a90046001600160a01b03166001600160a01b0316632fb565856040518163ffffffff1660e01b815260040160206040518083038186803b158015620003a857600080fd5b505afa158015620003bd573d6000803e3d6000fd5b505050506040513d601f19601f82011682018060405250810190620003e3919062000e93565b60118054911515600160b01b0260ff60b01b19909216919091179055565b62000418828262000b6d60201b620020771760201c565b60008281526002602090815260409091206200043f9183906200208162000b7d821b17901c565b505050565b601160009054906101000a90046001600160a01b03166001600160a01b031663dadf56ac6040518163ffffffff1660e01b815260040160206040518083038186803b1580156200049357600080fd5b505afa158015620004a8573d6000803e3d6000fd5b505050506040513d601f19601f82011682018060405250810190620004ce919062000e75565b600c80546001600160a01b0319166001600160a01b039283161790556011546040805163024bebe960e01b81529051919092169163024bebe9916004808301926020929190829003018186803b1580156200052857600080fd5b505afa1580156200053d573d6000803e3d6000fd5b505050506040513d601f19601f8201168201806040525081019062000563919062000e75565b600d80546001600160a01b0319166001600160a01b0392831617905560115460408051635b5c251f60e01b815290519190921691635b5c251f916004808301926020929190829003018186803b158015620005bd57600080fd5b505afa158015620005d2573d6000803e3d6000fd5b505050506040513d601f19601f82011682018060405250810190620005f8919062000e75565b600e80546001600160a01b0319166001600160a01b0392831617905560115460408051637310bf1d60e11b81529051919092169163e6217e3a916004808301926020929190829003018186803b1580156200065257600080fd5b505afa15801562000667573d6000803e3d6000fd5b505050506040513d601f19601f820116820180604052508101906200068d919062000e75565b601080546001600160a01b0319166001600160a01b039283161790556011546040805163d88127a160e01b81529051919092169163d88127a1916004808301926020929190829003018186803b158015620006e757600080fd5b505afa158015620006fc573d6000803e3d6000fd5b505050506040513d601f19601f8201168201806040525081019062000722919062000e75565b600b80546001600160a01b0319166001600160a01b0392909216919091179055565b601160009054906101000a90046001600160a01b03166001600160a01b03166321d7f0086040518163ffffffff1660e01b815260040160206040518083038186803b1580156200079357600080fd5b505afa158015620007a8573d6000803e3d6000fd5b505050506040513d601f19601f82011682018060405250810190620007ce919062000e75565b600480546001600160a01b0319166001600160a01b039283161781556011546040805163762ddb5960e01b81529051919093169263762ddb599281810192602092909190829003018186803b1580156200082757600080fd5b505afa1580156200083c573d6000803e3d6000fd5b505050506040513d601f19601f8201168201806040525081019062000862919062000e75565b600580546001600160a01b0319166001600160a01b039283161790556011546040805163bfb7dc9960e01b81529051919092169163bfb7dc99916004808301926020929190829003018186803b158015620008bc57600080fd5b505afa158015620008d1573d6000803e3d6000fd5b505050506040513d601f19601f82011682018060405250810190620008f7919062000e75565b600680546001600160a01b0319166001600160a01b0392831617905560115460408051633e6111eb60e21b81529051919092169163f98447ac916004808301926020929190829003018186803b1580156200095157600080fd5b505afa15801562000966573d6000803e3d6000fd5b505050506040513d601f19601f820116820180604052508101906200098c919062000e75565b600780546001600160a01b0319166001600160a01b0392831617905560115460408051630fe1ba9f60e21b815290519190921691633f86ea7c916004808301926020929190829003018186803b158015620009e657600080fd5b505afa158015620009fb573d6000803e3d6000fd5b505050506040513d601f19601f8201168201806040525081019062000a21919062000e75565b600880546001600160a01b0319166001600160a01b0392831617905560115460408051632b90024160e11b8152905191909216916357200482916004808301926020929190829003018186803b15801562000a7b57600080fd5b505afa15801562000a90573d6000803e3d6000fd5b505050506040513d601f19601f8201168201806040525081019062000ab6919062000e75565b600980546001600160a01b0319166001600160a01b0392831617905560115460408051636b58477560e01b815290519190921691636b584775916004808301926020929190829003018186803b15801562000b1057600080fd5b505afa15801562000b25573d6000803e3d6000fd5b505050506040513d601f19601f8201168201806040525081019062000b4b919062000e75565b600a80546001600160a01b0319166001600160a01b0392909216919091179055565b62000b79828262000b9d565b5050565b600062000b94836001600160a01b03841662000c25565b90505b92915050565b60008281526001602090815260408083206001600160a01b038516845290915290205460ff1662000b795760008281526001602081815260408084206001600160a01b0386168086529252808420805460ff19169093179092559051339285917f2f8788117e7eff1d82e926ec794901d17c78024a50270940304540a733656f0d9190a45050565b600081815260018301602052604081205462000c6e5750815460018181018455600084815260208082209093018490558454848252828601909352604090209190915562000b97565b50600062000b97565b82805462000c859062000f62565b90600052602060002090601f01602090048101928262000ca9576000855562000cf4565b82601f1062000cc457805160ff191683800117855562000cf4565b8280016001018555821562000cf4579182015b8281111562000cf457825182559160200191906001019062000cd7565b5062000d0292915062000d8a565b5090565b82805462000d149062000f62565b90600052602060002090601f01602090048101928262000d38576000855562000cf4565b82601f1062000d4b578054855562000cf4565b8280016001018555821562000cf457600052602060002091601f016020900482015b8281111562000cf457825482559160010191906001019062000d6d565b5b8082111562000d02576000815560010162000d8b565b80516001600160a01b038116811462000db957600080fd5b919050565b600082601f83011262000dd057600080fd5b81516001600160401b038082111562000ded5762000ded62000f9f565b604051601f8301601f19908116603f0116810190828211818310171562000e185762000e1862000f9f565b8160405283815260209250868385880101111562000e3557600080fd5b600091505b8382101562000e59578582018301518183018401529082019062000e3a565b8382111562000e6b5760008385830101525b9695505050505050565b60006020828403121562000e8857600080fd5b62000b948262000da1565b60006020828403121562000ea657600080fd5b8151801515811462000eb757600080fd5b9392505050565b6000806000806080858703121562000ed557600080fd5b84516001600160401b038082111562000eed57600080fd5b62000efb8883890162000dbe565b9550602087015191508082111562000f1257600080fd5b62000f208883890162000dbe565b9450604087015191508082111562000f3757600080fd5b5062000f468782880162000dbe565b92505062000f576060860162000da1565b905092959194509250565b600181811c9082168062000f7757607f821691505b6020821081141562000f9957634e487b7160e01b600052602260045260246000fd5b50919050565b634e487b7160e01b600052604160045260246000fd5b6159648062000fc56000396000f3fe608060405234801561001057600080fd5b50600436106104b75760003560e01c8063610c300911610278578063c46459d31161015c578063e346195a116100ce578063ebf98abf11610092578063ebf98abf14610ac3578063f1132b3014610acc578063f259a29e14610ad4578063f7d92d8614610adc578063f98447ac14610ae4578063ff7e88ec14610af757600080fd5b8063e346195a14610a4a578063e6217e3a14610a75578063e78c266c14610a88578063e985e9c514610a9b578063e9a5323014610aae57600080fd5b8063cf4ece1511610120578063cf4ece15146109d1578063d547741f146109e6578063d88127a1146109f9578063dadf56ac14610a0c578063dea6f9c814610a1f578063e2045b5e14610a2757600080fd5b8063c46459d314610970578063c62b28e814610983578063c87b56dd14610996578063ca15c873146109a9578063cce84392146109bc57600080fd5b806391d14854116101f5578063a22cb465116101b9578063a22cb465146108fb578063a32c5e591461090e578063a4369b7114610923578063a78e746f14610936578063b88d4fde1461094a578063bfb7dc991461095d57600080fd5b806391d14854146108b857806395d89b41146108cb57806396ac6bf0146108d35780639ac3eaa7146108e6578063a217fddf146108f357600080fd5b8063762ddb591161023c578063762ddb59146108645780637651607814610877578063822dc85e1461088a5780638456cb591461089d5780639010d07c146108a557600080fd5b8063610c3009146108105780636352211e146108185780636b5847751461082b5780636de9b54f1461083e57806370a082311461085157600080fd5b80632fb565851161039f5780634a47f1471161031c57806357200482116102e057806357200482146107b157806357f276ff146107c45780635b5c251f146107d75780635c975abb146107ea5780635db531a1146107f55780635f413466146107fd57600080fd5b80634a47f147146107685780634d84c6d81461077b5780634e0ba968146107835780634f6ccce71461078b57806355f804b31461079e57600080fd5b80633f4ba83a116103635780633f4ba83a1461071f5780633f86ea7c14610727578063422d68e91461073a57806342842e0e1461074d57806349b5e1051461076057600080fd5b80632fb56585146106d5578063326a55e0146106e9578063329a8cfa146106f157806336568abe146106f95780633ab76e9f1461070c57600080fd5b806318160ddd116104385780632436329d116103fc5780632436329d14610628578063248a9ca31461063d5780632be48d34146106615780632f2e8fda1461068c5780632f2ff15d146106af5780632f745c59146106c257600080fd5b806318160ddd146105b95780631fb4f43b146105cb5780631fb58ad9146105ef57806321d7f0081461060257806323b872dd1461061557600080fd5b80630cf8e42f1161047f5780630cf8e42f1461054c5780630e957b0b1461055f578063130f632014610572578063150b7a021461058557806317314d5a146105b157600080fd5b806301ffc9a7146104bc578063024bebe9146104e457806306fdde031461050f578063081812fc14610524578063095ea7b314610537575b600080fd5b6104cf6104ca366004615308565b610b0b565b60405190151581526020015b60405180910390f35b600d546104f7906001600160a01b031681565b6040516001600160a01b0390911681526020016104db565b610517610b1c565b6040516104db9190615564565b6104f76105323660046152a8565b610bae565b61054a610545366004615242565b610c3b565b005b61054a61055a366004615242565b610d51565b61054a61056d3660046153b7565b610d80565b61054a6105803660046152a8565b610dd2565b610598610593366004614ee9565b610e3f565b6040516001600160e01b031990911681526020016104db565b61054a610fef565b601c545b6040519081526020016104db565b6105de6105d93660046152a8565b611050565b6040516104db9594939291906155b9565b61054a6105fd3660046152a8565b61119a565b6004546104f7906001600160a01b031681565b61054a610623366004614ea8565b611225565b6105bd60008051602061588f83398151915281565b6105bd61064b3660046152a8565b6000908152600160208190526040909120015490565b6105bd61066f366004615342565b805160208183018101805160288252928201919093012091525481565b6104cf61069a3660046152a8565b60256020526000908152604090205460ff1681565b61054a6106bd3660046152c1565b611256565b6105bd6106d0366004615242565b611278565b6011546104cf90600160b01b900460ff1681565b61054a61130e565b61054a61131e565b61054a6107073660046152c1565b6113fe565b6011546104f7906001600160a01b031681565b61054a611420565b6008546104f7906001600160a01b031681565b61054a610748366004615390565b6114b2565b61054a61075b366004614ea8565b6114d0565b61054a6114eb565b61054a6107763660046153f4565b6114f3565b61054a611316565b610517611514565b6105bd6107993660046152a8565b6115a2565b6104cf6107ac366004615342565b611635565b6009546104f7906001600160a01b031681565b61054a6107d23660046152a8565b6116b9565b600e546104f7906001600160a01b031681565b60185460ff166104cf565b61054a6116cd565b600f546104f7906001600160a01b031681565b6105176116d5565b6104f76108263660046152a8565b6116e2565b600a546104f7906001600160a01b031681565b6105bd61084c36600461517f565b611759565b6105bd61085f366004614e35565b6117e6565b6005546104f7906001600160a01b031681565b6104cf61088536600461526e565b61186d565b6105bd610898366004615036565b611964565b61054a6119f6565b6104f76108b33660046152e6565b611a78565b6104cf6108c63660046152c1565b611a97565b610517611ac2565b6104cf6108e13660046152a8565b611ad1565b6020546104cf9060ff1681565b6105bd600081565b61054a610909366004615008565b611bdd565b6105bd6000805160206158ef83398151915281565b6105bd610931366004615342565b611c84565b6011546104cf90600160a01b900460ff1681565b61054a610958366004614f88565b611cac565b6006546104f7906001600160a01b031681565b6105bd61097e3660046150c7565b611cde565b61054a6109913660046152a8565b611d61565b6105176109a43660046152a8565b611de3565b6105bd6109b73660046152a8565b611dee565b6105bd60008051602061590f83398151915281565b6105bd6000805160206158cf83398151915281565b61054a6109f43660046152c1565b611e05565b600b546104f7906001600160a01b031681565b600c546104f7906001600160a01b031681565b610517611e0f565b610a3a610a353660046152a8565b611e1c565b6040516104db9493929190615577565b6105bd610a58366004615342565b805160208183018101805160278252928201919093012091525481565b6010546104f7906001600160a01b031681565b6003546104f7906001600160a01b031681565b6104cf610aa9366004614e6f565b611f81565b6105bd6000805160206158af83398151915281565b6105bd601f5481565b61054a611fc2565b610517611fca565b61054a611fd7565b6007546104f7906001600160a01b031681565b6011546104cf90600160a81b900460ff1681565b6000610b1682612096565b92915050565b606060128054610b2b9061577d565b80601f0160208091040260200160405190810160405280929190818152602001828054610b579061577d565b8015610ba45780601f10610b7957610100808354040283529160200191610ba4565b820191906000526020600020905b815481529060010190602001808311610b8757829003601f168201915b5050505050905090565b6000610bb9826120bb565b610c1f5760405162461bcd60e51b815260206004820152602c60248201527f4552433732313a20617070726f76656420717565727920666f72206e6f6e657860448201526b34b9ba32b73a103a37b5b2b760a11b60648201526084015b60405180910390fd5b506000908152601660205260409020546001600160a01b031690565b6000610c46826116e2565b9050806001600160a01b0316836001600160a01b03161415610cb45760405162461bcd60e51b815260206004820152602160248201527f4552433732313a20617070726f76616c20746f2063757272656e74206f776e656044820152603960f91b6064820152608401610c16565b336001600160a01b0382161480610cd05750610cd08133611f81565b610d425760405162461bcd60e51b815260206004820152603860248201527f4552433732313a20617070726f76652063616c6c6572206973206e6f74206f7760448201527f6e6572206e6f7220617070726f76656420666f7220616c6c00000000000000006064820152608401610c16565b610d4c83836120d8565b505050565b6000610d5c336117e6565b11610d6657600080fd5b6000610d73336000611278565b9050610d4c818484612146565b610d8a338561217e565b610d9357600080fd5b60008481526026602052604090206002810180546001600160a01b0319166001600160a01b038616179055600381018390556004018190555b50505050565b610ddc6001612240565b50610de6816122f2565b50610df08161246d565b50610dfb6000612240565b610e3c5760405162461bcd60e51b81526020600482015260126024820152711cd8599d195e481b9bdd08199b1a5c1c195960721b6044820152606401610c16565b50565b6040516370a0823160e01b81526001600160a01b038516600482015260009060019030906370a082319060240160206040518083038186803b158015610e8457600080fd5b505afa158015610e98573d6000803e3d6000fd5b505050506040513d601f19601f82011682018060405250810190610ebc9190615377565b1015610ec757600080fd5b6000610ed4866001611278565b60405163095ea7b360e01b81526001600160a01b0388166004820152602481018790529091503390819063095ea7b390604401600060405180830381600087803b158015610f2157600080fd5b505af1158015610f35573d6000803e3d6000fd5b50505050610f42826125f6565b506040516331a9108f60e11b81526004810187905230906001600160a01b03831690636352211e9060240160206040518083038186803b158015610f8557600080fd5b505afa158015610f99573d6000803e3d6000fd5b505050506040513d601f19601f82011682018060405250810190610fbd9190614e52565b6001600160a01b031614610fd057600080fd5b610fdb823388612146565b50630a85bd0160e11b979650505050505050565b610ff96001612240565b50611002612720565b5061100d6000612240565b61104e5760405162461bcd60e51b81526020600482015260126024820152711cd8599d195e481b9bdd08199b1a5c1c195960721b6044820152606401610c16565b565b60266020526000908152604090208054819061106b9061577d565b80601f01602080910402602001604051908101604052809291908181526020018280546110979061577d565b80156110e45780601f106110b9576101008083540402835291602001916110e4565b820191906000526020600020905b8154815290600101906020018083116110c757829003601f168201915b5050505050908060010180546110f99061577d565b80601f01602080910402602001604051908101604052809291908181526020018280546111259061577d565b80156111725780601f1061114757610100808354040283529160200191611172565b820191906000526020600020905b81548152906001019060200180831161115557829003601f168201915b505050506002830154600384015460049094015492936001600160a01b039091169290915085565b6111b26000805160206158ef83398151915233611a97565b806111d057506111d06000805160206158af83398151915233611a97565b806111ee57506111ee60008051602061588f83398151915233611a97565b61120a5760405162461bcd60e51b8152600401610c1690615605565b6000908152602560205260409020805460ff19166001179055565b61122f338261217e565b61124b5760405162461bcd60e51b8152600401610c1690615687565b610d4c838383612866565b6112608282612a11565b6000828152600260205260409020610d4c9082612081565b6000611283836117e6565b82106112e55760405162461bcd60e51b815260206004820152602b60248201527f455243373231456e756d657261626c653a206f776e657220696e646578206f7560448201526a74206f6620626f756e647360a81b6064820152608401610c16565b506001600160a01b03919091166000908152601a60209081526040808320938352929052205490565b611316612a4b565b61104e612d37565b6113366000805160206158ef83398151915233611a97565b8061135457506113546000805160206158af83398151915233611a97565b80611372575061137260008051602061588f83398151915233611a97565b61138e5760405162461bcd60e51b8152600401610c1690615605565b601160009054906101000a90046001600160a01b03166001600160a01b031663329a8cfa6040518163ffffffff1660e01b8152600401600060405180830381600087803b1580156113de57600080fd5b505af11580156113f2573d6000803e3d6000fd5b5050505061104e6116cd565b6114088282613144565b6000828152600260205260409020610d4c90826131be565b6114386000805160206158af83398151915233611a97565b8061145657506114566000805160206158ef83398151915233611a97565b61149a5760405162461bcd60e51b8152602060048201526015602482015274596f75277265206e6f742074686520476176656c7360581b6044820152606401610c16565b60205460ff16156114aa57600080fd5b61104e6131d3565b6114bc338461217e565b6114c557600080fd5b610d4c838383612146565b610d4c83838360405180602001604052806000815250611cac565b61104e612a4b565b6114fd338361217e565b61150657600080fd5b6115108282613266565b5050565b602180546115219061577d565b80601f016020809104026020016040519081016040528092919081815260200182805461154d9061577d565b801561159a5780601f1061156f5761010080835404028352916020019161159a565b820191906000526020600020905b81548152906001019060200180831161157d57829003601f168201915b505050505081565b60006115ad601c5490565b82106116105760405162461bcd60e51b815260206004820152602c60248201527f455243373231456e756d657261626c653a20676c6f62616c20696e646578206f60448201526b7574206f6620626f756e647360a01b6064820152608401610c16565b601c828154811061162357611623615829565b90600052602060002001549050919050565b600061164f6000805160206158ef83398151915233611a97565b8061166d575061166d6000805160206158af83398151915233611a97565b8061168b575061168b60008051602061588f83398151915233611a97565b6116a75760405162461bcd60e51b8152600401610c1690615605565b6116b0826132f1565b50600192915050565b6116c36001612240565b50610df081613307565b61104e613556565b602380546115219061577d565b6000818152601460205260408120546001600160a01b031680610b165760405162461bcd60e51b815260206004820152602960248201527f4552433732313a206f776e657220717565727920666f72206e6f6e657869737460448201526832b73a103a37b5b2b760b91b6064820152608401610c16565b60006117736000805160206158ef83398151915233611a97565b8061179157506117916000805160206158af83398151915233611a97565b806117af57506117af60008051602061588f83398151915233611a97565b6117cb5760405162461bcd60e51b8152600401610c1690615605565b6117da88888888888888613699565b98975050505050505050565b60006001600160a01b0382166118515760405162461bcd60e51b815260206004820152602a60248201527f4552433732313a2062616c616e636520717565727920666f7220746865207a65604482015269726f206164647265737360b01b6064820152608401610c16565b506001600160a01b031660009081526015602052604090205490565b60006118876000805160206158af83398151915233611a97565b806118a557506118a560008051602061588f83398151915233611a97565b806118c357506118c36000805160206158ef83398151915233611a97565b6118cc57600080fd5b601154600160b01b810460ff9081161515600160a81b909204161515146001148061190a575061190a6000805160206158ef83398151915233611a97565b6119495760405162461bcd60e51b815260206004820152601060248201526f436f757274204d75737420416772656560801b6044820152606401610c16565b6001821515141561195c576116b0613797565b506000919050565b600061197e6000805160206158ef83398151915233611a97565b8061199c575061199c6000805160206158af83398151915233611a97565b806119ba57506119ba60008051602061588f83398151915233611a97565b6119d65760405162461bcd60e51b8152600401610c1690615605565b60408051602081019091526000815260016117da88888888888688613699565b611a0e6000805160206158af83398151915233611a97565b80611a2c5750611a2c6000805160206158ef83398151915233611a97565b611a705760405162461bcd60e51b8152602060048201526015602482015274596f75277265206e6f742074686520476176656c7360581b6044820152606401610c16565b61104e6137da565b6000828152600260205260408120611a909083613855565b9392505050565b60009182526001602090815260408084206001600160a01b0393909316845291905290205460ff1690565b606060138054610b2b9061577d565b6000611aeb6000805160206158af83398151915233611a97565b80611b095750611b0960008051602061588f83398151915233611a97565b80611b275750611b276000805160206158ef83398151915233611a97565b611b3057600080fd5b601154600160b01b810460ff9081161515600160a81b9092041615151460011480611b6e5750611b6e6000805160206158ef83398151915233611a97565b611bad5760405162461bcd60e51b815260206004820152601060248201526f436f757274204d75737420416772656560801b6044820152606401610c16565b816045141561195c57611bbe613797565b50611bc76137da565b506020805460ff19166001908117909155919050565b611bf56000805160206158ef83398151915233611a97565b80611c135750611c1360008051602061588f83398151915233611a97565b611c7a5760405162461bcd60e51b815260206004820152603260248201527f596f7520646f206e6f742068617665207065726d697373696f6e20746f2073656044820152711d08185c1c1c9bdd985b08199bdc88185b1b60721b6064820152608401610c16565b6115108282613861565b6000602782604051611c969190615467565b9081526020016040518091039020549050919050565b611cb6338361217e565b611cd25760405162461bcd60e51b8152600401610c1690615687565b610dcc84848484613926565b6000611cf86000805160206158ef83398151915233611a97565b80611d165750611d166000805160206158af83398151915233611a97565b80611d345750611d3460008051602061588f83398151915233611a97565b611d505760405162461bcd60e51b8152600401610c1690615605565b60016117da88888888888689613699565b611d73611d6d826116e2565b33611f81565b611dda5760405162461bcd60e51b815260206004820152603260248201527f506c65617365207669736974207468652044414f20746f2072656e6f756e636560448201527120796f757220636974697a656e736869702160701b6064820152608401610c16565b610e3c81613959565b6060610b1682613962565b6000818152600260205260408120610b1690613ac4565b6114088282613ace565b602280546115219061577d565b6000818152602660205260408120805460609283929091829190611e3f9061577d565b80601f0160208091040260200160405190810160405280929190818152602001828054611e6b9061577d565b8015611eb85780601f10611e8d57610100808354040283529160200191611eb8565b820191906000526020600020905b815481529060010190602001808311611e9b57829003601f168201915b505050600088815260266020526040902060028101546003820154600190920180549599506001600160a01b03909116965090945092611efa9250905061577d565b80601f0160208091040260200160405190810160405280929190818152602001828054611f269061577d565b8015611f735780601f10611f4857610100808354040283529160200191611f73565b820191906000526020600020905b815481529060010190602001808311611f5657829003601f168201915b505050505092509193509193565b600080611f9c6000805160206158ef83398151915284611a97565b80611fba5750611fba60008051602061588f83398151915284611a97565b949350505050565b61104e613b08565b602480546115219061577d565b611fe16001612240565b50611ff96000805160206158ef833981519152613307565b506120116000805160206158af833981519152613307565b5061202960008051602061588f833981519152613307565b506120416000805160206158cf833981519152613307565b5061205960008051602061590f833981519152613307565b506120646000613307565b5061206d613556565b61100d6000612240565b6115108282613c3f565b6000611a90836001600160a01b038416613caa565b60006001600160e01b0319821663780e9d6360e01b1480610b165750610b1682613cf9565b6000908152601460205260409020546001600160a01b0316151590565b600081815260166020526040902080546001600160a01b0319166001600160a01b038416908117909155819061210d826116e2565b6001600160a01b03167f8c5be1e5ebec7d5bd14f71427d1e84f3dd0314c0f7b2291e5b200ac8c7c3b92560405160405180910390a45050565b6000928352602660205260409092206002810180546001600160a01b0319166001600160a01b03939093169290921790915560030155565b6000612189826120bb565b6121ea5760405162461bcd60e51b815260206004820152602c60248201527f4552433732313a206f70657261746f7220717565727920666f72206e6f6e657860448201526b34b9ba32b73a103a37b5b2b760a11b6064820152608401610c16565b60006121f5836116e2565b9050806001600160a01b0316846001600160a01b031614806122305750836001600160a01b031661222584610bae565b6001600160a01b0316145b80611fba5750611fba8185611f81565b6000805460ff16821515811515141561229b5760405162461bcd60e51b815260206004820152601960248201527f416c72656164792053657420746f20746861742076616c7565000000000000006044820152606401610c16565b6000805484151560ff19909116811790915560ff16151581151514156116b05760405162461bcd60e51b815260206004820152600c60248201526b29b0b33a32bc9022b93937b960a11b6044820152606401610c16565b60405163ca15c87360e01b8152600481018290526000908190309063ca15c8739060240160206040518083038186803b15801561232e57600080fd5b505afa158015612342573d6000803e3d6000fd5b505050506040513d601f19601f820116820180604052508101906123669190615377565b905060005b8181101561246357604051632404341f60e21b815260048101859052602481018290526000903090639010d07c9060440160206040518083038186803b1580156123b457600080fd5b505afa1580156123c8573d6000803e3d6000fd5b505050506040513d601f19601f820116820180604052508101906123ec9190614e52565b60405163d547741f60e01b8152600481018790526001600160a01b0382166024820152909150309063d547741f90604401600060405180830381600087803b15801561243757600080fd5b505af115801561244b573d6000803e3d6000fd5b5050505050808061245b906157b8565b91505061236b565b5060019392505050565b60115460405163ca15c87360e01b81526004810183905260009182916001600160a01b039091169063ca15c8739060240160206040518083038186803b1580156124b657600080fd5b505afa1580156124ca573d6000803e3d6000fd5b505050506040513d601f19601f820116820180604052508101906124ee9190615377565b905060005b8181101561246357601154604051632404341f60e21b815260048101869052602481018390526000916001600160a01b031690639010d07c9060440160206040518083038186803b15801561254757600080fd5b505afa15801561255b573d6000803e3d6000fd5b505050506040513d601f19601f8201168201806040525081019061257f9190614e52565b604051632f2ff15d60e01b8152600481018790526001600160a01b03821660248201529091503090632f2ff15d90604401600060405180830381600087803b1580156125ca57600080fd5b505af11580156125de573d6000803e3d6000fd5b505050505080806125ee906157b8565b9150506124f3565b600080612602836116e2565b60008481526026602052604090819020600281015460039091015491516331a9108f60e11b8152600481018390529293506001600160a01b031691829030908290636352211e9060240160206040518083038186803b15801561266457600080fd5b505afa158015612678573d6000803e3d6000fd5b505050506040513d601f19601f8201168201806040525081019061269c9190614e52565b6001600160a01b0316141561271457604051632142170760e11b81523060048201526001600160a01b038581166024830152604482018490528416906342842e0e90606401600060405180830381600087803b1580156126fb57600080fd5b505af115801561270f573d6000803e3d6000fd5b505050505b50600195945050505050565b60006127396000805160206158ef8339815191526122f2565b506127516000805160206158ef83398151915261246d565b61275a57600080fd5b6127716000805160206158af8339815191526122f2565b506127896000805160206158af83398151915261246d565b61279257600080fd5b6127a960008051602061588f8339815191526122f2565b506127c160008051602061588f83398151915261246d565b6127ca57600080fd5b6127e16000805160206158cf8339815191526122f2565b506127f96000805160206158cf83398151915261246d565b61280257600080fd5b61281960008051602061590f8339815191526122f2565b5061283160008051602061590f83398151915261246d565b61283a57600080fd5b61284460006122f2565b5061284f600061246d565b61285857600080fd5b612860613556565b50600190565b826001600160a01b0316612879826116e2565b6001600160a01b0316146128e15760405162461bcd60e51b815260206004820152602960248201527f4552433732313a207472616e73666572206f6620746f6b656e2074686174206960448201526839903737ba1037bbb760b91b6064820152608401610c16565b6001600160a01b0382166129435760405162461bcd60e51b8152602060048201526024808201527f4552433732313a207472616e7366657220746f20746865207a65726f206164646044820152637265737360e01b6064820152608401610c16565b61294e838383613d39565b6129596000826120d8565b6001600160a01b0383166000908152601560205260408120805460019290612982908490615723565b90915550506001600160a01b03821660009081526015602052604081208054600192906129b09084906156d8565b909155505060008181526014602052604080822080546001600160a01b0319166001600160a01b0386811691821790925591518493918716917fddf252ad1be2c89b69c2b068fc378daa952ba7f163c4a11628f55a4df523b3ef91a4505050565b600082815260016020819052604082200154905460ff1615612a3757610d4c8383613c3f565b612a418133613ece565b610d4c8383613c3f565b601160009054906101000a90046001600160a01b03166001600160a01b031663dadf56ac6040518163ffffffff1660e01b815260040160206040518083038186803b158015612a9957600080fd5b505afa158015612aad573d6000803e3d6000fd5b505050506040513d601f19601f82011682018060405250810190612ad19190614e52565b600c80546001600160a01b0319166001600160a01b039283161790556011546040805163024bebe960e01b81529051919092169163024bebe9916004808301926020929190829003018186803b158015612b2a57600080fd5b505afa158015612b3e573d6000803e3d6000fd5b505050506040513d601f19601f82011682018060405250810190612b629190614e52565b600d80546001600160a01b0319166001600160a01b0392831617905560115460408051635b5c251f60e01b815290519190921691635b5c251f916004808301926020929190829003018186803b158015612bbb57600080fd5b505afa158015612bcf573d6000803e3d6000fd5b505050506040513d601f19601f82011682018060405250810190612bf39190614e52565b600e80546001600160a01b0319166001600160a01b0392831617905560115460408051637310bf1d60e11b81529051919092169163e6217e3a916004808301926020929190829003018186803b158015612c4c57600080fd5b505afa158015612c60573d6000803e3d6000fd5b505050506040513d601f19601f82011682018060405250810190612c849190614e52565b601080546001600160a01b0319166001600160a01b039283161790556011546040805163d88127a160e01b81529051919092169163d88127a1916004808301926020929190829003018186803b158015612cdd57600080fd5b505afa158015612cf1573d6000803e3d6000fd5b505050506040513d601f19601f82011682018060405250810190612d159190614e52565b600b80546001600160a01b0319166001600160a01b0392909216919091179055565b601160009054906101000a90046001600160a01b03166001600160a01b03166321d7f0086040518163ffffffff1660e01b815260040160206040518083038186803b158015612d8557600080fd5b505afa158015612d99573d6000803e3d6000fd5b505050506040513d601f19601f82011682018060405250810190612dbd9190614e52565b600480546001600160a01b0319166001600160a01b039283161781556011546040805163762ddb5960e01b81529051919093169263762ddb599281810192602092909190829003018186803b158015612e1557600080fd5b505afa158015612e29573d6000803e3d6000fd5b505050506040513d601f19601f82011682018060405250810190612e4d9190614e52565b600580546001600160a01b0319166001600160a01b039283161790556011546040805163bfb7dc9960e01b81529051919092169163bfb7dc99916004808301926020929190829003018186803b158015612ea657600080fd5b505afa158015612eba573d6000803e3d6000fd5b505050506040513d601f19601f82011682018060405250810190612ede9190614e52565b600680546001600160a01b0319166001600160a01b0392831617905560115460408051633e6111eb60e21b81529051919092169163f98447ac916004808301926020929190829003018186803b158015612f3757600080fd5b505afa158015612f4b573d6000803e3d6000fd5b505050506040513d601f19601f82011682018060405250810190612f6f9190614e52565b600780546001600160a01b0319166001600160a01b0392831617905560115460408051630fe1ba9f60e21b815290519190921691633f86ea7c916004808301926020929190829003018186803b158015612fc857600080fd5b505afa158015612fdc573d6000803e3d6000fd5b505050506040513d601f19601f820116820180604052508101906130009190614e52565b600880546001600160a01b0319166001600160a01b0392831617905560115460408051632b90024160e11b8152905191909216916357200482916004808301926020929190829003018186803b15801561305957600080fd5b505afa15801561306d573d6000803e3d6000fd5b505050506040513d601f19601f820116820180604052508101906130919190614e52565b600980546001600160a01b0319166001600160a01b0392831617905560115460408051636b58477560e01b815290519190921691636b584775916004808301926020929190829003018186803b1580156130ea57600080fd5b505afa1580156130fe573d6000803e3d6000fd5b505050506040513d601f19601f820116820180604052508101906131229190614e52565b600a80546001600160a01b0319166001600160a01b0392909216919091179055565b6001600160a01b03811633146131b45760405162461bcd60e51b815260206004820152602f60248201527f416363657373436f6e74726f6c3a2063616e206f6e6c792072656e6f756e636560448201526e103937b632b9903337b91039b2b63360891b6064820152608401610c16565b6115108282613f32565b6000611a90836001600160a01b038416613f99565b60185460ff1661321c5760405162461bcd60e51b815260206004820152601460248201527314185d5cd8589b194e881b9bdd081c185d5cd95960621b6044820152606401610c16565b6018805460ff191690557f5db9ee0a495bf2e6ff9c91a7834c1ba4fdd244a5e8aa4e537bd38aeae4b073aa335b6040516001600160a01b03909116815260200160405180910390a1565b61326f826120bb565b6132d25760405162461bcd60e51b815260206004820152602e60248201527f45524337323155524953746f726167653a2055524920736574206f66206e6f6e60448201526d32bc34b9ba32b73a103a37b5b2b760911b6064820152608401610c16565b60008281526019602090815260409091208251610d4c92840190614cd0565b80516000906116b0906024906020850190614cd0565b60115460405163ca15c87360e01b81526004810183905260009182916001600160a01b039091169063ca15c8739060240160206040518083038186803b15801561335057600080fd5b505afa158015613364573d6000803e3d6000fd5b505050506040513d601f19601f820116820180604052508101906133889190615377565b60405163ca15c87360e01b815260048101859052909150600090309063ca15c8739060240160206040518083038186803b1580156133c557600080fd5b505afa1580156133d9573d6000803e3d6000fd5b505050506040513d601f19601f820116820180604052508101906133fd9190615377565b9050600061340b8284615723565b9050600081116134505760405162461bcd60e51b815260206004820152601060248201526f4e6f7468696e6720746f2073796e632160801b6044820152606401610c16565b60005b8181101561271457601154604051632404341f60e21b815260048101889052602481018390526000916001600160a01b031690639010d07c9060440160206040518083038186803b1580156134a757600080fd5b505afa1580156134bb573d6000803e3d6000fd5b505050506040513d601f19601f820116820180604052508101906134df9190614e52565b604051632f2ff15d60e01b8152600481018990526001600160a01b03821660248201529091503090632f2ff15d90604401600060405180830381600087803b15801561352a57600080fd5b505af115801561353e573d6000803e3d6000fd5b5050505050808061354e906157b8565b915050613453565b601160009054906101000a90046001600160a01b03166001600160a01b031663ff7e88ec6040518163ffffffff1660e01b815260040160206040518083038186803b1580156135a457600080fd5b505afa1580156135b8573d6000803e3d6000fd5b505050506040513d601f19601f820116820180604052508101906135dc919061528b565b601160156101000a81548160ff021916908315150217905550601160009054906101000a90046001600160a01b03166001600160a01b0316632fb565856040518163ffffffff1660e01b815260040160206040518083038186803b15801561364357600080fd5b505afa158015613657573d6000803e3d6000fd5b505050506040513d601f19601f8201168201806040525081019061367b919061528b565b60118054911515600160b01b0260ff60b01b19909216919091179055565b60006001600160a01b03881633148015906136bc57506001600160a01b03881615155b6136fb5760405162461bcd60e51b815260206004820152601060248201526f4e6f2053656c662049737375616e636560801b6044820152606401610c16565b6000613706896117e6565b111561374d5760405162461bcd60e51b815260206004820152601660248201527513db9b1e481bdb99481251081c195c881dd85b1b195d60521b6044820152606401610c16565b50601e5461375f878787878786614086565b61376988826141a8565b6137738183613266565b6001601e600082825461378691906156d8565b909155509098975050505050505050565b6000805b601e548110156137ce576137ae816120bb565b156137bc576137bc81613959565b806137c6816157b8565b91505061379b565b50506000601e55600190565b60185460ff16156138205760405162461bcd60e51b815260206004820152601060248201526f14185d5cd8589b194e881c185d5cd95960821b6044820152606401610c16565b6018805460ff191660011790557f62e78cea01bee320cd4e420270b5ea74000d11b0c9f74754ebdbfc544b05a2586132493390565b6000611a9083836141c2565b6001600160a01b0382163314156138ba5760405162461bcd60e51b815260206004820152601960248201527f4552433732313a20617070726f766520746f2063616c6c6572000000000000006044820152606401610c16565b3360008181526017602090815260408083206001600160a01b03871680855290835292819020805460ff191686151590811790915590519081529192917f17307eab39ab6107e8899845ad3d59bd9653f200f220920489ca2b5937696c31910160405180910390a35050565b613931848484612866565b61393d84848484614248565b610dcc5760405162461bcd60e51b8152600401610c1690615635565b610e3c81614355565b606061396d826120bb565b6139d35760405162461bcd60e51b815260206004820152603160248201527f45524337323155524953746f726167653a2055524920717565727920666f72206044820152703737b732bc34b9ba32b73a103a37b5b2b760791b6064820152608401610c16565b600082815260196020526040812080546139ec9061577d565b80601f0160208091040260200160405190810160405280929190818152602001828054613a189061577d565b8015613a655780601f10613a3a57610100808354040283529160200191613a65565b820191906000526020600020905b815481529060010190602001808311613a4857829003601f168201915b505050505090506000613a76614395565b9050805160001415613a89575092915050565b815115613abb578082604051602001613aa3929190615483565b60405160208183030381529060405292505050919050565b611fba846143a4565b6000610b16825490565b600082815260016020819052604082200154905460ff1615613af457610d4c8383613f32565b613afe8133613ece565b610d4c8383613f32565b601160009054906101000a90046001600160a01b03166001600160a01b031663a44b93256040518163ffffffff1660e01b815260040160206040518083038186803b158015613b5657600080fd5b505afa158015613b6a573d6000803e3d6000fd5b505050506040513d601f19601f82011682018060405250810190613b8e919061528b565b613b9757600080fd5b601160009054906101000a90046001600160a01b03166001600160a01b031663ac7cfac36040518163ffffffff1660e01b815260040160206040518083038186803b158015613be557600080fd5b505afa158015613bf9573d6000803e3d6000fd5b505050506040513d601f19601f82011682018060405250810190613c1d9190614e52565b600380546001600160a01b0319166001600160a01b0392909216919091179055565b613c498282611a97565b6115105760008281526001602081815260408084206001600160a01b0386168086529252808420805460ff19169093179092559051339285917f2f8788117e7eff1d82e926ec794901d17c78024a50270940304540a733656f0d9190a45050565b6000818152600183016020526040812054613cf157508154600181810184556000848152602080822090930184905584548482528286019093526040902091909155610b16565b506000610b16565b60006001600160e01b031982166380ac58cd60e01b1480613d2a57506001600160e01b03198216635b5e139f60e01b145b80610b165750610b168261446e565b613d438333611f81565b80613d5c575060008181526025602052604090205460ff165b613dbd5760405162461bcd60e51b815260206004820152602c60248201527f506c65617365207669736974207468652044414f20746f206368616e6765207960448201526b6f757220616464726573732160a01b6064820152608401610c16565b60008181526025602052604090205460ff168015613de05750613de0338261217e565b15613ec35760008181526025602052604090205460ff16613e545760405162461bcd60e51b815260206004820152602860248201527f7265717569726528557365725472616e73666572417070726f7665645b5f746f6044820152676b656e49645d293b60c01b6064820152608401610c16565b6000818152602560205260409020805460ff1916905560405162461bcd60e51b815260206004820152602860248201527f72657175697265285f756e646f417070726f76655472616e73666572285f746f6044820152676b656e496429293b60c01b6064820152608401610c16565b610d4c838383614493565b613ed88282611a97565b61151057613ef0816001600160a01b0316601461454b565b613efb83602061454b565b604051602001613f0c9291906154b2565b60408051601f198184030181529082905262461bcd60e51b8252610c1691600401615564565b613f3c8282611a97565b156115105760008281526001602090815260408083206001600160a01b0385168085529252808320805460ff1916905551339285917ff6391f5c32d9c69d2a47ea670b442974b53935d1edc7fd64eb21e047a839171b9190a45050565b6000818152600183016020526040812054801561407c576000613fbd600183615723565b8554909150600090613fd190600190615723565b90506000866000018281548110613fea57613fea615829565b906000526020600020015490508087600001848154811061400d5761400d615829565b60009182526020808320909101929092558281526001890190915260409020849055865487908061404057614040615813565b60019003818190600052602060002001600090559055866001016000878152602001908152602001600020600090556001945050505050610b16565b6000915050610b16565b61409085876146e7565b6140dc5760405162461bcd60e51b815260206004820152601a60248201527f446f20796f7520616c7265616479206861766520616e2049443f0000000000006044820152606401610c16565b6000818152602660209081526040909120865161410192600190920191880190614cd0565b5060008181526026602090815260409091206002810180546001600160a01b0319166001600160a01b03881617905560038101859055875161414592890190614cd0565b506000818152602660205260409081902060040183905551819060279061416d908890615467565b908152602001604051809103902081905550806028876040516141909190615467565b90815260405190819003602001902055505050505050565b6115108282604051806020016040528060008152506147f4565b815460009082106142205760405162461bcd60e51b815260206004820152602260248201527f456e756d657261626c655365743a20696e646578206f7574206f6620626f756e604482015261647360f01b6064820152608401610c16565b82600001828154811061423557614235615829565b9060005260206000200154905092915050565b60006001600160a01b0384163b1561434a57604051630a85bd0160e11b81526001600160a01b0385169063150b7a029061428c903390899088908890600401615527565b602060405180830381600087803b1580156142a657600080fd5b505af19250505080156142d6575060408051601f3d908101601f191682019092526142d391810190615325565b60015b614330573d808015614304576040519150601f19603f3d011682016040523d82523d6000602084013e614309565b606091505b5080516143285760405162461bcd60e51b8152600401610c1690615635565b805181602001fd5b6001600160e01b031916630a85bd0160e11b149050611fba565b506001949350505050565b61435e81614827565b600081815260196020526040902080546143779061577d565b159050610e3c576000818152601960205260408120610e3c91614d54565b606060248054610b2b9061577d565b60606143af826120bb565b6144135760405162461bcd60e51b815260206004820152602f60248201527f4552433732314d657461646174613a2055524920717565727920666f72206e6f60448201526e3732bc34b9ba32b73a103a37b5b2b760891b6064820152608401610c16565b600061441d614395565b9050600081511161443d5760405180602001604052806000815250611a90565b80614447846148ce565b604051602001614458929190615483565b6040516020818303038152906040529392505050565b60006001600160e01b03198216635a05180f60e01b1480610b165750610b16826149cc565b6001600160a01b0383166144ee576144e981601c80546000838152601d60205260408120829055600182018355919091527f0e4562a10381dec21b205ed72637e6b1b523bdd0e4d4d50af5cd23dd4500a2110155565b614511565b816001600160a01b0316836001600160a01b031614614511576145118382614a01565b6001600160a01b03821661452857610d4c81614a9e565b826001600160a01b0316826001600160a01b031614610d4c57610d4c8282614b4d565b6060600061455a836002615704565b6145659060026156d8565b67ffffffffffffffff81111561457d5761457d61583f565b6040519080825280601f01601f1916602001820160405280156145a7576020820181803683370190505b509050600360fc1b816000815181106145c2576145c2615829565b60200101906001600160f81b031916908160001a905350600f60fb1b816001815181106145f1576145f1615829565b60200101906001600160f81b031916908160001a9053506000614615846002615704565b6146209060016156d8565b90505b6001811115614698576f181899199a1a9b1b9c1cb0b131b232b360811b85600f166010811061465457614654615829565b1a60f81b82828151811061466a5761466a615829565b60200101906001600160f81b031916908160001a90535060049490941c9361469181615766565b9050614623565b508315611a905760405162461bcd60e51b815260206004820181905260248201527f537472696e67733a20686578206c656e67746820696e73756666696369656e746044820152606401610c16565b600060016027846040516146fb9190615467565b908152602001604051809103902054106147715760405162461bcd60e51b815260206004820152603160248201527f416c726561647920616e204944206173736f63696174656420776974682074686044820152701a5cc81cdbd8da585b081858d8dbdd5b9d607a1b6064820152608401610c16565b60016028836040516147839190615467565b908152602001604051809103902054106116b05760405162461bcd60e51b815260206004820152602c60248201527f416c726561647920616e204944206173736f636961746564207769746820746860448201526b69732070736575646f6e796d60a01b6064820152608401610c16565b6147fe8383614b91565b61480b6000848484614248565b610d4c5760405162461bcd60e51b8152600401610c1690615635565b6000614832826116e2565b905061484081600084613d39565b61484b6000836120d8565b6001600160a01b0381166000908152601560205260408120805460019290614874908490615723565b909155505060008281526014602052604080822080546001600160a01b0319169055518391906001600160a01b038416907fddf252ad1be2c89b69c2b068fc378daa952ba7f163c4a11628f55a4df523b3ef908390a45050565b6060816148f25750506040805180820190915260018152600360fc1b602082015290565b8160005b811561491c5780614906816157b8565b91506149159050600a836156f0565b91506148f6565b60008167ffffffffffffffff8111156149375761493761583f565b6040519080825280601f01601f191660200182016040528015614961576020820181803683370190505b5090505b8415611fba57614976600183615723565b9150614983600a866157d3565b61498e9060306156d8565b60f81b8183815181106149a3576149a3615829565b60200101906001600160f81b031916908160001a9053506149c5600a866156f0565b9450614965565b60006001600160e01b03198216637965db0b60e01b1480610b1657506301ffc9a760e01b6001600160e01b0319831614610b16565b60006001614a0e846117e6565b614a189190615723565b6000838152601b6020526040902054909150808214614a6b576001600160a01b0384166000908152601a602090815260408083208584528252808320548484528184208190558352601b90915290208190555b506000918252601b602090815260408084208490556001600160a01b039094168352601a81528383209183525290812055565b601c54600090614ab090600190615723565b6000838152601d6020526040812054601c8054939450909284908110614ad857614ad8615829565b9060005260206000200154905080601c8381548110614af957614af9615829565b6000918252602080832090910192909255828152601d9091526040808220849055858252812055601c805480614b3157614b31615813565b6001900381819060005260206000200160009055905550505050565b6000614b58836117e6565b6001600160a01b039093166000908152601a602090815260408083208684528252808320859055938252601b9052919091209190915550565b6001600160a01b038216614be75760405162461bcd60e51b815260206004820181905260248201527f4552433732313a206d696e7420746f20746865207a65726f20616464726573736044820152606401610c16565b614bf0816120bb565b15614c3d5760405162461bcd60e51b815260206004820152601c60248201527f4552433732313a20746f6b656e20616c7265616479206d696e746564000000006044820152606401610c16565b614c4960008383613d39565b6001600160a01b0382166000908152601560205260408120805460019290614c729084906156d8565b909155505060008181526014602052604080822080546001600160a01b0319166001600160a01b03861690811790915590518392907fddf252ad1be2c89b69c2b068fc378daa952ba7f163c4a11628f55a4df523b3ef908290a45050565b828054614cdc9061577d565b90600052602060002090601f016020900481019282614cfe5760008555614d44565b82601f10614d1757805160ff1916838001178555614d44565b82800160010185558215614d44579182015b82811115614d44578251825591602001919060010190614d29565b50614d50929150614d8a565b5090565b508054614d609061577d565b6000825580601f10614d70575050565b601f016020900490600052602060002090810190610e3c91905b5b80821115614d505760008155600101614d8b565b600067ffffffffffffffff80841115614dba57614dba61583f565b604051601f8501601f19908116603f01168101908282118183101715614de257614de261583f565b81604052809350858152868686011115614dfb57600080fd5b858560208301376000602087830101525050509392505050565b600082601f830112614e2657600080fd5b611a9083833560208501614d9f565b600060208284031215614e4757600080fd5b8135611a9081615855565b600060208284031215614e6457600080fd5b8151611a9081615855565b60008060408385031215614e8257600080fd5b8235614e8d81615855565b91506020830135614e9d81615855565b809150509250929050565b600080600060608486031215614ebd57600080fd5b8335614ec881615855565b92506020840135614ed881615855565b929592945050506040919091013590565b600080600080600060808688031215614f0157600080fd5b8535614f0c81615855565b94506020860135614f1c81615855565b935060408601359250606086013567ffffffffffffffff80821115614f4057600080fd5b818801915088601f830112614f5457600080fd5b813581811115614f6357600080fd5b896020828501011115614f7557600080fd5b9699959850939650602001949392505050565b60008060008060808587031215614f9e57600080fd5b8435614fa981615855565b93506020850135614fb981615855565b925060408501359150606085013567ffffffffffffffff811115614fdc57600080fd5b8501601f81018713614fed57600080fd5b614ffc87823560208401614d9f565b91505092959194509250565b6000806040838503121561501b57600080fd5b823561502681615855565b91506020830135614e9d8161586a565b600080600080600060a0868803121561504e57600080fd5b853561505981615855565b9450602086013567ffffffffffffffff8082111561507657600080fd5b61508289838a01614e15565b9550604088013591508082111561509857600080fd5b506150a588828901614e15565b93505060608601356150b681615855565b949793965091946080013592915050565b60008060008060008060c087890312156150e057600080fd5b86356150eb81615855565b9550602087013567ffffffffffffffff8082111561510857600080fd5b6151148a838b01614e15565b9650604089013591508082111561512a57600080fd5b6151368a838b01614e15565b95506060890135915061514882615855565b9093506080880135925060a0880135908082111561516557600080fd5b5061517289828a01614e15565b9150509295509295509295565b600080600080600080600060e0888a03121561519a57600080fd5b87356151a581615855565b9650602088013567ffffffffffffffff808211156151c257600080fd5b6151ce8b838c01614e15565b975060408a01359150808211156151e457600080fd5b6151f08b838c01614e15565b965060608a0135915061520282615855565b9094506080890135935060a0890135925060c0890135908082111561522657600080fd5b506152338a828b01614e15565b91505092959891949750929550565b6000806040838503121561525557600080fd5b823561526081615855565b946020939093013593505050565b60006020828403121561528057600080fd5b8135611a908161586a565b60006020828403121561529d57600080fd5b8151611a908161586a565b6000602082840312156152ba57600080fd5b5035919050565b600080604083850312156152d457600080fd5b823591506020830135614e9d81615855565b600080604083850312156152f957600080fd5b50508035926020909101359150565b60006020828403121561531a57600080fd5b8135611a9081615878565b60006020828403121561533757600080fd5b8151611a9081615878565b60006020828403121561535457600080fd5b813567ffffffffffffffff81111561536b57600080fd5b611fba84828501614e15565b60006020828403121561538957600080fd5b5051919050565b6000806000606084860312156153a557600080fd5b833592506020840135614ed881615855565b600080600080608085870312156153cd57600080fd5b8435935060208501356153df81615855565b93969395505050506040820135916060013590565b6000806040838503121561540757600080fd5b82359150602083013567ffffffffffffffff81111561542557600080fd5b61543185828601614e15565b9150509250929050565b6000815180845261545381602086016020860161573a565b601f01601f19169290920160200192915050565b6000825161547981846020870161573a565b9190910192915050565b6000835161549581846020880161573a565b8351908301906154a981836020880161573a565b01949350505050565b7f416363657373436f6e74726f6c3a206163636f756e74200000000000000000008152600083516154ea81601785016020880161573a565b7001034b99036b4b9b9b4b733903937b6329607d1b601791840191820152835161551b81602884016020880161573a565b01602801949350505050565b6001600160a01b038581168252841660208201526040810183905260806060820181905260009061555a9083018461543b565b9695505050505050565b602081526000611a90602083018461543b565b60808152600061558a608083018761543b565b828103602084015261559c818761543b565b6001600160a01b0395909516604084015250506060015292915050565b60a0815260006155cc60a083018861543b565b82810360208401526155de818861543b565b6001600160a01b039690961660408401525050606081019290925260809091015292915050565b6020808252601690820152752cb7ba93b932903737ba103a3432903130b4b634b33360511b604082015260600190565b60208082526032908201527f4552433732313a207472616e7366657220746f206e6f6e20455243373231526560408201527131b2b4bb32b91034b6b83632b6b2b73a32b960711b606082015260800190565b60208082526031908201527f4552433732313a207472616e736665722063616c6c6572206973206e6f74206f6040820152701ddb995c881b9bdc88185c1c1c9bdd9959607a1b606082015260800190565b600082198211156156eb576156eb6157e7565b500190565b6000826156ff576156ff6157fd565b500490565b600081600019048311821515161561571e5761571e6157e7565b500290565b600082821015615735576157356157e7565b500390565b60005b8381101561575557818101518382015260200161573d565b83811115610dcc5750506000910152565b600081615775576157756157e7565b506000190190565b600181811c9082168061579157607f821691505b602082108114156157b257634e487b7160e01b600052602260045260246000fd5b50919050565b60006000198214156157cc576157cc6157e7565b5060010190565b6000826157e2576157e26157fd565b500690565b634e487b7160e01b600052601160045260246000fd5b634e487b7160e01b600052601260045260246000fd5b634e487b7160e01b600052603160045260246000fd5b634e487b7160e01b600052603260045260246000fd5b634e487b7160e01b600052604160045260246000fd5b6001600160a01b0381168114610e3c57600080fd5b8015158114610e3c57600080fd5b6001600160e01b031981168114610e3c57600080fdfefa8e4989e1d689f7bc5c4b25b87efb51fecdecb19ba62847e29c759e12a89acd048bc71fa1cb2c119c339cf9cf00a97996a19a9d991ce5fe049f2fa5459e7990f0f4b159a6e2a4815eb3ca3df080bfa70c9270662c59bcaa4479a456220183e60538d24a8b7882d7b2e36af243d4af61c23e86e3daa6cb8c887b53220b2f57207c9d7f6f02908185bffb3f7fc9afb29fd7bf93675af8fd4b655ee05c2cee1e0ea2646970667358221220db8aaa87c4e3898df8838047ec9f457be249d14d841ab2a419c173ba48cd822864736f6c63430008070033",
  "immutableReferences": {},
  "source": "pragma solidity ^0.8.0;\n\nimport \"../SmartConsensusMachine.sol\";\nimport \"../AddressManagerReciever.sol\";\n\nimport \"@openzeppelin/contracts/token/ERC721/IERC721Receiver.sol\";\nimport \"@openzeppelin/contracts/token/ERC721/extensions/ERC721Enumerable.sol\";\nimport \"@openzeppelin/contracts/token/ERC721/extensions/ERC721URIStorage.sol\";\nimport \"@openzeppelin/contracts/token/ERC721/ERC721.sol\";\nimport \"@openzeppelin/contracts/security/Pausable.sol\";\n\ncontract IdentityBadge is SmartConsensusMachine, ERC721, Pausable, ERC721URIStorage, ERC721Enumerable {\n\n\n    uint256 private _tokenIdGenerator = 1;\n\n    uint256 public mintingCost = 1 * 10 * 18;\n\n\n    bool public isForeverLocked = false;\n\n    string public socialPlatform;\n    string public badgeColor;\n    string public badgeName;\n    string public baseURI_ = string(abi.encodePacked(\"ipfs\", \":\", \"/\", \"/\"));\n\n    constructor(string memory _badgeName, string memory _badgeSymbol, string memory _socialPlatform, address _AddressManagerAddress)\n        ERC721(_badgeName, _badgeSymbol)\n        SmartConsensusMachine(_AddressManagerAddress) {\n       \n        updateAllAddresses();\n        \n        badgeColor = _badgeSymbol;\n        badgeName = _badgeName;\n        socialPlatform = socialPlatform;\n\n    }      \n    \n    //******************************\n    //                            **\n    //     Setup mapping          ** \n    //                            **\n    //******************************\n    struct IDCard { // struct will store the psuedonym and avatar NFT information.\n        string pseudonym;\n        string socialHandle;\n        address avatarTokenAddress;\n        uint avatarTokenId;\n        uint avatarNetworkId;\n    }\n\n\n    mapping (uint => bool) public UserTransferApproved;\n    mapping (uint => IDCard) public IDCardInfo; \n    mapping (string => uint) public SocialHandle;\n    mapping (string => uint) public Pseudonym;\n\n    function _checkAvailibility(string memory _socialHandle, string memory _pseudonym) internal returns (bool) {\n        require(SocialHandle[_socialHandle] < 1, \"Already an ID associated with this social account\");\n        require(Pseudonym[_pseudonym] < 1, \"Already an ID associated with this pseudonym\");\n        return true;\n    }\n\n    \n    function _setBadgeInfo(string memory _pseudonym, string memory _socialHandle, address _avatarTokenAddress, uint _avatarTokenId, uint _tokenId) internal {\n        \n        \n        require(_checkAvailibility(_socialHandle, _pseudonym), \"Do you already have an ID?\");\n        IDCardInfo[_tokenId].socialHandle = _socialHandle;\n        IDCardInfo[_tokenId].avatarTokenAddress = _avatarTokenAddress;\n        IDCardInfo[_tokenId].avatarTokenId = _avatarTokenId;\n        IDCardInfo[_tokenId].pseudonym = _pseudonym;\n        //Assumes Mainnet if not specified...\n        IDCardInfo[_tokenId].avatarNetworkId = 1;\n\n        SocialHandle[_socialHandle] = _tokenId;\n        Pseudonym[_pseudonym] = _tokenId;\n    }\n\n    function _setBadgeInfo(string memory _pseudonym, string memory _socialHandle, address _avatarTokenAddress, uint _avatarTokenId, uint _avatarNetworkId, uint _tokenId) internal {\n        \n        require(_checkAvailibility(_socialHandle, _pseudonym), \"Do you already have an ID?\");\n\n        IDCardInfo[_tokenId].socialHandle = _socialHandle;\n        IDCardInfo[_tokenId].avatarTokenAddress = _avatarTokenAddress;\n        IDCardInfo[_tokenId].avatarTokenId = _avatarTokenId;\n        IDCardInfo[_tokenId].pseudonym = _pseudonym;\n        IDCardInfo[_tokenId].avatarNetworkId = _avatarNetworkId;\n\n        SocialHandle[_socialHandle] = _tokenId;\n        Pseudonym[_pseudonym] = _tokenId;\n    }\n\n    function updateAvatar(address _avatarTokenAddress, uint _avatarTokenId) public {\n        require(balanceOf(msg.sender) > 0);\n        uint _tokenId = tokenOfOwnerByIndex(msg.sender, 0);\n        _updateAvatar(_tokenId, _avatarTokenAddress, _avatarTokenId);\n    }\n\n    function updateAvatar(uint _tokenId, address _avatarTokenAddress, uint _avatarTokenId) public {\n        require(_isApprovedOrOwner(msg.sender, _tokenId));\n        _updateAvatar(_tokenId, _avatarTokenAddress, _avatarTokenId);\n    }\n\n    function updateAvatar(uint _tokenId, address _avatarTokenAddress, uint _avatarTokenId, uint _avatarNetworkId) public {\n        require(_isApprovedOrOwner(msg.sender, _tokenId));\n        _updateAvatar(_tokenId, _avatarTokenAddress, _avatarTokenId, _avatarNetworkId);\n    }\n\n    function updateImageHash(uint256 _tokenId, string memory _contentHash) public {\n        require(_isApprovedOrOwner(msg.sender, _tokenId));\n        _setTokenURI( _tokenId, _contentHash);\n    }\n\n    function _updateAvatar(uint _tokenId, address _avatarTokenAddress, uint _avatarTokenId) internal {\n        IDCardInfo[_tokenId].avatarTokenAddress = _avatarTokenAddress; \n        IDCardInfo[_tokenId].avatarTokenId = _avatarTokenId;\n    }\n\n    function _updateAvatar(uint _tokenId, address _avatarTokenAddress, uint _avatarTokenId, uint _avatarNetworkId) internal {\n        IDCardInfo[_tokenId].avatarTokenAddress = _avatarTokenAddress; \n        IDCardInfo[_tokenId].avatarTokenId = _avatarTokenId;\n        IDCardInfo[_tokenId].avatarNetworkId = _avatarNetworkId;\n    }\n\n    function getIDFromHandle(string memory _SocialHandle) public view returns (uint _tokenId) {\n        _tokenId = SocialHandle[_SocialHandle];\n        return ( _tokenId );\n    }\n\n    function getBadgeInfo(uint _tokenId) public view returns (string memory _pseudonym, string memory _socialHandle, address _avatarTokenAddress, uint _avatarTokenId ) {\n        _pseudonym = IDCardInfo[_tokenId].pseudonym;\n        _avatarTokenAddress = IDCardInfo[_tokenId].avatarTokenAddress;\n        _avatarTokenId = IDCardInfo[_tokenId].avatarTokenId;\n        _socialHandle =IDCardInfo[_tokenId].socialHandle;\n        return (_pseudonym, _socialHandle, _avatarTokenAddress, _avatarTokenId );\n    }\n\n\n\n    /////////////////////////////////////////////////////////////////////////////////////////////////\n    /////////////////////////////////////////////////////////////////////////////////////////////////\n    /// @dev                                                                                     ////\n    /// Issuance Desk                                                                            ////\n    /////////////////////////////////////////////////////////////////////////////////////////////////\n    /////////////////////////////////////////////////////////////////////////////////////////////////\n\n\n    function issueBadge(address receivingAddress, string memory _pseudonym, string memory _socialHandle,\n                            address _avatarTokenAddress, uint _avatarTokenId, string memory _tokenURI) public virtual\n        BAILIFF\n        returns(uint newId) {\n            uint _avatarNetworkId = 1;\n            newId = _issueBadge(receivingAddress, _pseudonym, _socialHandle, _avatarTokenAddress, _avatarTokenId, _avatarNetworkId, _tokenURI); \n     }\n\n    function issueBadge(address receivingAddress, string memory _pseudonym, string memory _socialHandle, address _avatarTokenAddress,\n                            uint _avatarTokenId) public virtual\n        BAILIFF\n        returns(uint newId) {\n        string memory _tokenURI = \"\";\n        uint _avatarNetworkId = 1;\n        newId = _issueBadge(receivingAddress, _pseudonym, _socialHandle, _avatarTokenAddress, _avatarTokenId, _avatarNetworkId, _tokenURI);\n       \n    }\n    \n    function issueBadge(address receivingAddress, string memory _pseudonym, string memory _socialHandle, address _avatarTokenAddress,\n                            uint _avatarTokenId, uint _avatarNetworkId, string memory _tokenURI) public virtual\n        BAILIFF\n        returns(uint newId) {\n        newId = _issueBadge(receivingAddress, _pseudonym, _socialHandle, _avatarTokenAddress, _avatarTokenId, _avatarNetworkId, _tokenURI);       \n    }\n\n    function _issueBadge(address _receivingAddress, string memory _pseudonym, string memory _socialHandle, address _avatarTokenAddress,\n                            uint _avatarTokenId, uint _avatarNetworkId, string memory _tokenURI) internal virtual\n        returns(uint newId) { // Right now function also increments and returns tokenId, this will be removed.\n        require((_receivingAddress != msg.sender) && (_receivingAddress != address(0)), \"No Self Issuance\");\n        require(balanceOf(_receivingAddress) <= 0, \"Only one ID per wallet\");\n        newId = _tokenIdGenerator;\n        _setBadgeInfo(_pseudonym, _socialHandle, _avatarTokenAddress, _avatarTokenId, _avatarNetworkId, newId);\n        _safeMint(_receivingAddress, newId);\n        _setTokenURI(newId, _tokenURI);\n        _tokenIdGenerator += 1;            \n     }\n\n\n    function revokeBadge(uint _tokenId) public {\n        require(isApprovedForAll(ownerOf(_tokenId), msg.sender),\n                    \"Please visit the DAO to renounce your citizenship!\") ;\n        _burn(_tokenId);\n    }\n\n    function _withdrawlAvatar(uint _badgeTokenId)  internal virtual returns (bool){\n\n        address badgeOwner = ownerOf(_badgeTokenId);\n        address avatarAddress = IDCardInfo[_badgeTokenId].avatarTokenAddress;\n        uint avatarTokenId = IDCardInfo[_badgeTokenId].avatarTokenId;\n\n        ERC721 avatar = ERC721(avatarAddress);\n\n        if (avatar.ownerOf(avatarTokenId) == address(this)) {\n            ERC721(avatarAddress).safeTransferFrom(address(this), badgeOwner, avatarTokenId);\n        }\n\n        return true;\n    }\n\n    function onERC721Received(address operator, address from, uint256 tokenId, bytes calldata data)\n     external returns (bytes4) {\n        require(this.balanceOf(from) >= 1);\n\n        uint badgeNumber = tokenOfOwnerByIndex(from, 1);\n\n        ERC721 tokenRecieved = ERC721(msg.sender);\n\n        ERC721(msg.sender).approve(from, tokenId);\n\n        _withdrawlAvatar(badgeNumber);        \n        require(tokenRecieved.ownerOf(tokenId) == address(this));\n        _updateAvatar(badgeNumber, msg.sender, tokenId);\n        return this.onERC721Received.selector;\n     }\n\n\n    /////////////////////////////////////////////////////////////////////////////////////////////////\n    /////////////////////////////////////////////////////////////////////////////////////////////////\n    /// @dev                                                                                     ////\n    /// Maintanence\\\\\\\\\\\\\\\\\\\\\\\\\\\\\\\\\\\\\\\\\\\\\\\\\\\\\\                                                   ////\n    /////////////////////////////////////////////////////////////////////////////////////////////////\n    /////////////////////////////////////////////////////////////////////////////////////////////////\n    // Pause the contract if neccesary. Only the Gavels can do this.\n    function pause() public GAVELS {\n        _pause();\n    }\n\n    function unpause() public GAVELS {\n        require(isForeverLocked == false);\n        _unpause();\n    }\n\n    function _burnAllBadges() internal returns (bool) {\n        // burn all badges\n        uint256 index = 0;\n        for (index = 0; index < _tokenIdGenerator; index++) {\n            if (_exists(index)) {\n                _burn(index);\n            }   \n        }\n        _tokenIdGenerator = 0;\n        return true;\n    }\n\n    function refreshBadges(bool _thisIsNotReversible) public THE_COURT returns (bool) {\n\n        if(_thisIsNotReversible == true) {\n            // burn all badges\n            _burnAllBadges();\n            return true;\n        } else {return false;}\n    }\n\n\n    function destroyAndLockContract(uint _valueMustBe69) public THE_COURT returns (bool) {\n\n        if(_valueMustBe69 == 69) {\n            // burn all badges\n            _burnAllBadges();\n            // set protocol to locked\n            _pause();\n            isForeverLocked = true;\n            return isForeverLocked;\n        } else {return false;}\n    }\n\n    function setBaseURI(string memory _baseURIString) public BAILIFF returns (bool) {\n        _setBaseURI(_baseURIString);\n        return true;\n    }\n\n    function _setBaseURI(string memory _baseURIString) internal returns (bool) {\n        baseURI_ = _baseURIString;\n        return true;\n    }\n\n    function _baseURI() internal view virtual override returns (string memory) {\n        return baseURI_;\n    }\n    function tokenURI(uint256 _tokenId) public view virtual override(ERC721, ERC721URIStorage) returns (string memory _URI) {\n        _URI = ERC721URIStorage.tokenURI(_tokenId);\n    }\n\n    /////////////////////////////////////////////////////////////////////////////////////////////////\n    /////////////////////////////////////////////////////////////////////////////////////////////////\n    /// @dev                                                                                     ////\n    /// Transfer rules                                                                           ////\n    /////////////////////////////////////////////////////////////////////////////////////////////////\n    /////////////////////////////////////////////////////////////////////////////////////////////////\n    \n\n    function approveUserTransfer(uint _tokenId) public BAILIFF{\n        require(_approveTransfer(_tokenId), \"require(_approveTransfer(_tokenId))\");\n    }\n\n    function _approveTransfer(uint _tokenId) internal returns (bool) {\n        UserTransferApproved[_tokenId] = true;\n        return true;\n    }\n\n    function _undoApproveTransfer(uint _tokenId) internal returns (bool) {\n        UserTransferApproved[_tokenId] = false;\n    }\n\n    function isApprovedForAll(address owner, address operator)\n    public view virtual\n    override (ERC721)\n    returns (bool) {\n\n        bool isApproved = ( hasRole(THE_COURT_ROLE, operator)\n                            || hasRole(JURY_BAILIFF, operator));\n        return isApproved;\n    }\n\n    function setApprovalForAll(address operator, bool approved)\n    public virtual\n    override (ERC721) {\n        \n         require(   hasRole(THE_COURT_ROLE, msg.sender)\n                    || hasRole(JURY_BAILIFF, msg.sender),\n                    \"You do not have permission to set approval for all\");\n        super.setApprovalForAll(operator, approved);\n    }\n\n    function _beforeTokenTransfer(address from, address to, uint256 _tokenId)\n        internal\n        override(ERC721, ERC721Enumerable)\n    {\n        require(isApprovedForAll(from, msg.sender) || UserTransferApproved[_tokenId], \"Please visit the DAO to change your address!\");\n         \n        if (UserTransferApproved[_tokenId] && _isApprovedOrOwner(msg.sender, _tokenId)) {\n            require(UserTransferApproved[_tokenId], \"require(UserTransferApproved[_tokenId]);\");\n            require(_undoApproveTransfer(_tokenId), \"require(_undoApproveTransfer(_tokenId));\");\n            super._beforeTokenTransfer(from, to, _tokenId);\n        } else {\n            super._beforeTokenTransfer(from, to, _tokenId);\n        }\n\n    }\n    \n    function _burn(uint256 tokenId) internal virtual override (ERC721, ERC721URIStorage){\n        ERC721URIStorage._burn(tokenId);\n    }\n\n    function supportsInterface(bytes4 interfaceId)\n        public\n        view\n        override(ERC721, ERC721Enumerable, AccessControlEnumerable)\n        returns (bool)\n    {\n        return super.supportsInterface(interfaceId);\n    }\n\n    /////////////////////////////////////////////////////////////////////////////////////////////////\n    /////////////////////////////////////////////////////////////////////////////////////////////////\n    /// @dev                                                                                     ////\n    /// End                                                                                      ////\n    /////////////////////////////////////////////////////////////////////////////////////////////////\n    /////////////////////////////////////////////////////////////////////////////////////////////////\n}",
  "sourcePath": "/home/n/Desktop/PinkSlips_FrontEnd_REFORMAT/contracts/src/ERC721/IdentityBadge.sol",
  "compiler": {
    "name": "solc",
    "version": "0.8.7+commit.e28d00a7.Emscripten.clang"
  },
  "schemaVersion": "3.4.1",
  "updatedAt": "2021-08-19T03:42:00.023Z",
  "devdoc": {
    "kind": "dev",
    "methods": {
      "approve(address,uint256)": {
        "details": "See {IERC721-approve}."
      },
      "approveUserTransfer(uint256)": {
        "details": "//// Transfer rules                                                                           ////"
      },
      "balanceOf(address)": {
        "details": "See {IERC721-balanceOf}."
      },
      "getApproved(uint256)": {
        "details": "See {IERC721-getApproved}."
      },
      "getRoleAdmin(bytes32)": {
        "details": "Returns the admin role that controls `role`. See {grantRole} and {revokeRole}. To change a role's admin, use {_setRoleAdmin}."
      },
      "getRoleMember(bytes32,uint256)": {
        "details": "Returns one of the accounts that have `role`. `index` must be a value between 0 and {getRoleMemberCount}, non-inclusive. Role bearers are not sorted in any particular way, and their ordering may change at any point. WARNING: When using {getRoleMember} and {getRoleMemberCount}, make sure you perform all queries on the same block. See the following https://forum.openzeppelin.com/t/iterating-over-elements-on-enumerableset-in-openzeppelin-contracts/2296[forum post] for more information."
      },
      "getRoleMemberCount(bytes32)": {
        "details": "Returns the number of accounts that have `role`. Can be used together with {getRoleMember} to enumerate all bearers of a role."
      },
      "grantRole(bytes32,address)": {
        "details": "Overload {grantRole} to track enumerable memberships"
      },
      "hasRole(bytes32,address)": {
        "details": "Returns `true` if `account` has been granted `role`."
      },
      "isApprovedForAll(address,address)": {
        "details": "See {IERC721-isApprovedForAll}."
      },
      "issueBadge(address,string,string,address,uint256,string)": {
        "details": "//// Issuance Desk                                                                            ////"
      },
      "name()": {
        "details": "See {IERC721Metadata-name}."
      },
      "ownerOf(uint256)": {
        "details": "See {IERC721-ownerOf}."
      },
      "pause()": {
        "details": "//// Maintanence\\\\\\\\\\\\\\\\\\\\\\\\\\\\\\\\\\\\\\\\\\\\\\\\\\\\\\                                                   ////"
      },
      "paused()": {
        "details": "Returns true if the contract is paused, and false otherwise."
      },
      "renounceRole(bytes32,address)": {
        "details": "Overload {renounceRole} to track enumerable memberships"
      },
      "revokeRole(bytes32,address)": {
        "details": "Overload {revokeRole} to track enumerable memberships"
      },
      "safeTransferFrom(address,address,uint256)": {
        "details": "See {IERC721-safeTransferFrom}."
      },
      "safeTransferFrom(address,address,uint256,bytes)": {
        "details": "See {IERC721-safeTransferFrom}."
      },
      "setApprovalForAll(address,bool)": {
        "details": "See {IERC721-setApprovalForAll}."
      },
      "symbol()": {
        "details": "See {IERC721Metadata-symbol}."
      },
      "tokenByIndex(uint256)": {
        "details": "See {IERC721Enumerable-tokenByIndex}."
      },
      "tokenOfOwnerByIndex(address,uint256)": {
        "details": "See {IERC721Enumerable-tokenOfOwnerByIndex}."
      },
      "totalSupply()": {
        "details": "See {IERC721Enumerable-totalSupply}."
      },
      "transferFrom(address,address,uint256)": {
        "details": "See {IERC721-transferFrom}."
      }
    },
    "version": 1
  },
  "userdoc": {
    "kind": "user",
    "methods": {},
    "version": 1
  }
}