{
  "contractName": "IdentityBadge",
  "abi": [
    {
      "inputs": [
        {
          "internalType": "string",
          "name": "_badgeName",
          "type": "string"
        },
        {
          "internalType": "string",
          "name": "_badgeSymbol",
          "type": "string"
        },
        {
          "internalType": "string",
          "name": "_socialPlatform",
          "type": "string"
        },
        {
          "internalType": "address",
          "name": "_AddressManagerAddress",
          "type": "address"
        }
      ],
      "stateMutability": "nonpayable",
      "type": "constructor"
    },
    {
      "anonymous": false,
      "inputs": [
        {
          "indexed": true,
          "internalType": "address",
          "name": "owner",
          "type": "address"
        },
        {
          "indexed": true,
          "internalType": "address",
          "name": "approved",
          "type": "address"
        },
        {
          "indexed": true,
          "internalType": "uint256",
          "name": "tokenId",
          "type": "uint256"
        }
      ],
      "name": "Approval",
      "type": "event"
    },
    {
      "anonymous": false,
      "inputs": [
        {
          "indexed": true,
          "internalType": "address",
          "name": "owner",
          "type": "address"
        },
        {
          "indexed": true,
          "internalType": "address",
          "name": "operator",
          "type": "address"
        },
        {
          "indexed": false,
          "internalType": "bool",
          "name": "approved",
          "type": "bool"
        }
      ],
      "name": "ApprovalForAll",
      "type": "event"
    },
    {
      "anonymous": false,
      "inputs": [
        {
          "indexed": false,
          "internalType": "address",
          "name": "account",
          "type": "address"
        }
      ],
      "name": "Paused",
      "type": "event"
    },
    {
      "anonymous": false,
      "inputs": [
        {
          "indexed": true,
          "internalType": "bytes32",
          "name": "role",
          "type": "bytes32"
        },
        {
          "indexed": true,
          "internalType": "bytes32",
          "name": "previousAdminRole",
          "type": "bytes32"
        },
        {
          "indexed": true,
          "internalType": "bytes32",
          "name": "newAdminRole",
          "type": "bytes32"
        }
      ],
      "name": "RoleAdminChanged",
      "type": "event"
    },
    {
      "anonymous": false,
      "inputs": [
        {
          "indexed": true,
          "internalType": "bytes32",
          "name": "role",
          "type": "bytes32"
        },
        {
          "indexed": true,
          "internalType": "address",
          "name": "account",
          "type": "address"
        },
        {
          "indexed": true,
          "internalType": "address",
          "name": "sender",
          "type": "address"
        }
      ],
      "name": "RoleGranted",
      "type": "event"
    },
    {
      "anonymous": false,
      "inputs": [
        {
          "indexed": true,
          "internalType": "bytes32",
          "name": "role",
          "type": "bytes32"
        },
        {
          "indexed": true,
          "internalType": "address",
          "name": "account",
          "type": "address"
        },
        {
          "indexed": true,
          "internalType": "address",
          "name": "sender",
          "type": "address"
        }
      ],
      "name": "RoleRevoked",
      "type": "event"
    },
    {
      "anonymous": false,
      "inputs": [
        {
          "indexed": true,
          "internalType": "address",
          "name": "from",
          "type": "address"
        },
        {
          "indexed": true,
          "internalType": "address",
          "name": "to",
          "type": "address"
        },
        {
          "indexed": true,
          "internalType": "uint256",
          "name": "tokenId",
          "type": "uint256"
        }
      ],
      "name": "Transfer",
      "type": "event"
    },
    {
      "anonymous": false,
      "inputs": [
        {
          "indexed": false,
          "internalType": "address",
          "name": "account",
          "type": "address"
        }
      ],
      "name": "Unpaused",
      "type": "event"
    },
    {
      "inputs": [],
      "name": "AddressManagerAddress",
      "outputs": [
        {
          "internalType": "address",
          "name": "",
          "type": "address"
        }
      ],
      "stateMutability": "view",
      "type": "function"
    },
    {
      "inputs": [],
      "name": "ChadBadgeAddress",
      "outputs": [
        {
          "internalType": "address",
          "name": "",
          "type": "address"
        }
      ],
      "stateMutability": "view",
      "type": "function"
    },
    {
      "inputs": [],
      "name": "ColoredIDAddress",
      "outputs": [
        {
          "internalType": "address",
          "name": "",
          "type": "address"
        }
      ],
      "stateMutability": "view",
      "type": "function"
    },
    {
      "inputs": [],
      "name": "CourtClerk",
      "outputs": [
        {
          "internalType": "address",
          "name": "",
          "type": "address"
        }
      ],
      "stateMutability": "view",
      "type": "function"
    },
    {
      "inputs": [],
      "name": "DEFAULT_ADMIN_ROLE",
      "outputs": [
        {
          "internalType": "bytes32",
          "name": "",
          "type": "bytes32"
        }
      ],
      "stateMutability": "view",
      "type": "function"
    },
    {
      "inputs": [],
      "name": "GAVELS_BAILIFF",
      "outputs": [
        {
          "internalType": "bytes32",
          "name": "",
          "type": "bytes32"
        }
      ],
      "stateMutability": "view",
      "type": "function"
    },
    {
      "inputs": [],
      "name": "GavelDAOAgent",
      "outputs": [
        {
          "internalType": "address",
          "name": "",
          "type": "address"
        }
      ],
      "stateMutability": "view",
      "type": "function"
    },
    {
      "inputs": [],
      "name": "GavelTokenAddress",
      "outputs": [
        {
          "internalType": "address",
          "name": "",
          "type": "address"
        }
      ],
      "stateMutability": "view",
      "type": "function"
    },
    {
      "inputs": [],
      "name": "GavelVote",
      "outputs": [
        {
          "internalType": "bool",
          "name": "",
          "type": "bool"
        }
      ],
      "stateMutability": "view",
      "type": "function"
    },
    {
      "inputs": [],
      "name": "GoldStarAddress",
      "outputs": [
        {
          "internalType": "address",
          "name": "",
          "type": "address"
        }
      ],
      "stateMutability": "view",
      "type": "function"
    },
    {
      "inputs": [
        {
          "internalType": "uint256",
          "name": "",
          "type": "uint256"
        }
      ],
      "name": "IDCardInfo",
      "outputs": [
        {
          "internalType": "string",
          "name": "pseudonym",
          "type": "string"
        },
        {
          "internalType": "string",
          "name": "socialHandle",
          "type": "string"
        },
        {
          "internalType": "address",
          "name": "avatarTokenAddress",
          "type": "address"
        },
        {
          "internalType": "uint256",
          "name": "avatarTokenId",
          "type": "uint256"
        },
        {
          "internalType": "uint256",
          "name": "avatarNetworkId",
          "type": "uint256"
        }
      ],
      "stateMutability": "view",
      "type": "function"
    },
    {
      "inputs": [],
      "name": "JERK_ROLE",
      "outputs": [
        {
          "internalType": "bytes32",
          "name": "",
          "type": "bytes32"
        }
      ],
      "stateMutability": "view",
      "type": "function"
    },
    {
      "inputs": [],
      "name": "JURY_BAILIFF",
      "outputs": [
        {
          "internalType": "bytes32",
          "name": "",
          "type": "bytes32"
        }
      ],
      "stateMutability": "view",
      "type": "function"
    },
    {
      "inputs": [],
      "name": "JuryDAOAgent",
      "outputs": [
        {
          "internalType": "address",
          "name": "",
          "type": "address"
        }
      ],
      "stateMutability": "view",
      "type": "function"
    },
    {
      "inputs": [],
      "name": "JuryPoolAddress",
      "outputs": [
        {
          "internalType": "address",
          "name": "",
          "type": "address"
        }
      ],
      "stateMutability": "view",
      "type": "function"
    },
    {
      "inputs": [],
      "name": "JuryVote",
      "outputs": [
        {
          "internalType": "bool",
          "name": "",
          "type": "bool"
        }
      ],
      "stateMutability": "view",
      "type": "function"
    },
    {
      "inputs": [],
      "name": "MINI_BAILIFF_ROLE",
      "outputs": [
        {
          "internalType": "bytes32",
          "name": "",
          "type": "bytes32"
        }
      ],
      "stateMutability": "view",
      "type": "function"
    },
    {
      "inputs": [],
      "name": "MiniBailiff",
      "outputs": [
        {
          "internalType": "address",
          "name": "",
          "type": "address"
        }
      ],
      "stateMutability": "view",
      "type": "function"
    },
    {
      "inputs": [],
      "name": "PinkSlipAddress",
      "outputs": [
        {
          "internalType": "address",
          "name": "",
          "type": "address"
        }
      ],
      "stateMutability": "view",
      "type": "function"
    },
    {
      "inputs": [
        {
          "internalType": "string",
          "name": "",
          "type": "string"
        }
      ],
      "name": "Pseudonym",
      "outputs": [
        {
          "internalType": "uint256",
          "name": "",
          "type": "uint256"
        }
      ],
      "stateMutability": "view",
      "type": "function"
    },
    {
      "inputs": [],
      "name": "RedPenTokenAddress",
      "outputs": [
        {
          "internalType": "address",
          "name": "",
          "type": "address"
        }
      ],
      "stateMutability": "view",
      "type": "function"
    },
    {
      "inputs": [
        {
          "internalType": "string",
          "name": "",
          "type": "string"
        }
      ],
      "name": "SocialHandle",
      "outputs": [
        {
          "internalType": "uint256",
          "name": "",
          "type": "uint256"
        }
      ],
      "stateMutability": "view",
      "type": "function"
    },
    {
      "inputs": [],
      "name": "THE_COURT_ROLE",
      "outputs": [
        {
          "internalType": "bytes32",
          "name": "",
          "type": "bytes32"
        }
      ],
      "stateMutability": "view",
      "type": "function"
    },
    {
      "inputs": [],
      "name": "TheCourtAddress",
      "outputs": [
        {
          "internalType": "address",
          "name": "",
          "type": "address"
        }
      ],
      "stateMutability": "view",
      "type": "function"
    },
    {
      "inputs": [],
      "name": "TreasuryAddress",
      "outputs": [
        {
          "internalType": "address",
          "name": "",
          "type": "address"
        }
      ],
      "stateMutability": "view",
      "type": "function"
    },
    {
      "inputs": [
        {
          "internalType": "uint256",
          "name": "",
          "type": "uint256"
        }
      ],
      "name": "UserTransferApproved",
      "outputs": [
        {
          "internalType": "bool",
          "name": "",
          "type": "bool"
        }
      ],
      "stateMutability": "view",
      "type": "function"
    },
    {
      "inputs": [],
      "name": "addressManager",
      "outputs": [
        {
          "internalType": "contract AddressManager",
          "name": "",
          "type": "address"
        }
      ],
      "stateMutability": "view",
      "type": "function"
    },
    {
      "inputs": [
        {
          "internalType": "address",
          "name": "to",
          "type": "address"
        },
        {
          "internalType": "uint256",
          "name": "tokenId",
          "type": "uint256"
        }
      ],
      "name": "approve",
      "outputs": [],
      "stateMutability": "nonpayable",
      "type": "function"
    },
    {
      "inputs": [],
      "name": "badgeColor",
      "outputs": [
        {
          "internalType": "string",
          "name": "",
          "type": "string"
        }
      ],
      "stateMutability": "view",
      "type": "function"
    },
    {
      "inputs": [],
      "name": "badgeName",
      "outputs": [
        {
          "internalType": "string",
          "name": "",
          "type": "string"
        }
      ],
      "stateMutability": "view",
      "type": "function"
    },
    {
      "inputs": [
        {
          "internalType": "address",
          "name": "owner",
          "type": "address"
        }
      ],
      "name": "balanceOf",
      "outputs": [
        {
          "internalType": "uint256",
          "name": "",
          "type": "uint256"
        }
      ],
      "stateMutability": "view",
      "type": "function"
    },
    {
      "inputs": [],
      "name": "baseURI_",
      "outputs": [
        {
          "internalType": "string",
          "name": "",
          "type": "string"
        }
      ],
      "stateMutability": "view",
      "type": "function"
    },
    {
      "inputs": [
        {
          "internalType": "uint256",
          "name": "tokenId",
          "type": "uint256"
        }
      ],
      "name": "getApproved",
      "outputs": [
        {
          "internalType": "address",
          "name": "",
          "type": "address"
        }
      ],
      "stateMutability": "view",
      "type": "function"
    },
    {
      "inputs": [
        {
          "internalType": "bytes32",
          "name": "role",
          "type": "bytes32"
        }
      ],
      "name": "getRoleAdmin",
      "outputs": [
        {
          "internalType": "bytes32",
          "name": "",
          "type": "bytes32"
        }
      ],
      "stateMutability": "view",
      "type": "function"
    },
    {
      "inputs": [
        {
          "internalType": "bytes32",
          "name": "role",
          "type": "bytes32"
        },
        {
          "internalType": "uint256",
          "name": "index",
          "type": "uint256"
        }
      ],
      "name": "getRoleMember",
      "outputs": [
        {
          "internalType": "address",
          "name": "",
          "type": "address"
        }
      ],
      "stateMutability": "view",
      "type": "function"
    },
    {
      "inputs": [
        {
          "internalType": "bytes32",
          "name": "role",
          "type": "bytes32"
        }
      ],
      "name": "getRoleMemberCount",
      "outputs": [
        {
          "internalType": "uint256",
          "name": "",
          "type": "uint256"
        }
      ],
      "stateMutability": "view",
      "type": "function"
    },
    {
      "inputs": [
        {
          "internalType": "bytes32",
          "name": "role",
          "type": "bytes32"
        },
        {
          "internalType": "address",
          "name": "account",
          "type": "address"
        }
      ],
      "name": "grantRole",
      "outputs": [],
      "stateMutability": "nonpayable",
      "type": "function"
    },
    {
      "inputs": [
        {
          "internalType": "bytes32",
          "name": "role",
          "type": "bytes32"
        },
        {
          "internalType": "address",
          "name": "account",
          "type": "address"
        }
      ],
      "name": "hasRole",
      "outputs": [
        {
          "internalType": "bool",
          "name": "",
          "type": "bool"
        }
      ],
      "stateMutability": "view",
      "type": "function"
    },
    {
      "inputs": [],
      "name": "isForeverLocked",
      "outputs": [
        {
          "internalType": "bool",
          "name": "",
          "type": "bool"
        }
      ],
      "stateMutability": "view",
      "type": "function"
    },
    {
      "inputs": [],
      "name": "jerkSanctions",
      "outputs": [
        {
          "internalType": "bool",
          "name": "",
          "type": "bool"
        }
      ],
      "stateMutability": "view",
      "type": "function"
    },
    {
      "inputs": [],
      "name": "name",
      "outputs": [
        {
          "internalType": "string",
          "name": "",
          "type": "string"
        }
      ],
      "stateMutability": "view",
      "type": "function"
    },
    {
      "inputs": [
        {
          "internalType": "uint256",
          "name": "tokenId",
          "type": "uint256"
        }
      ],
      "name": "ownerOf",
      "outputs": [
        {
          "internalType": "address",
          "name": "",
          "type": "address"
        }
      ],
      "stateMutability": "view",
      "type": "function"
    },
    {
      "inputs": [],
      "name": "paused",
      "outputs": [
        {
          "internalType": "bool",
          "name": "",
          "type": "bool"
        }
      ],
      "stateMutability": "view",
      "type": "function"
    },
    {
      "inputs": [
        {
          "internalType": "bytes32",
          "name": "role",
          "type": "bytes32"
        },
        {
          "internalType": "address",
          "name": "account",
          "type": "address"
        }
      ],
      "name": "renounceRole",
      "outputs": [],
      "stateMutability": "nonpayable",
      "type": "function"
    },
    {
      "inputs": [],
      "name": "resetVote",
      "outputs": [],
      "stateMutability": "nonpayable",
      "type": "function"
    },
    {
      "inputs": [
        {
          "internalType": "bytes32",
          "name": "role",
          "type": "bytes32"
        },
        {
          "internalType": "address",
          "name": "account",
          "type": "address"
        }
      ],
      "name": "revokeRole",
      "outputs": [],
      "stateMutability": "nonpayable",
      "type": "function"
    },
    {
      "inputs": [
        {
          "internalType": "address",
          "name": "from",
          "type": "address"
        },
        {
          "internalType": "address",
          "name": "to",
          "type": "address"
        },
        {
          "internalType": "uint256",
          "name": "tokenId",
          "type": "uint256"
        }
      ],
      "name": "safeTransferFrom",
      "outputs": [],
      "stateMutability": "nonpayable",
      "type": "function"
    },
    {
      "inputs": [
        {
          "internalType": "address",
          "name": "from",
          "type": "address"
        },
        {
          "internalType": "address",
          "name": "to",
          "type": "address"
        },
        {
          "internalType": "uint256",
          "name": "tokenId",
          "type": "uint256"
        },
        {
          "internalType": "bytes",
          "name": "_data",
          "type": "bytes"
        }
      ],
      "name": "safeTransferFrom",
      "outputs": [],
      "stateMutability": "nonpayable",
      "type": "function"
    },
    {
      "inputs": [],
      "name": "socialPlatform",
      "outputs": [
        {
          "internalType": "string",
          "name": "",
          "type": "string"
        }
      ],
      "stateMutability": "view",
      "type": "function"
    },
    {
      "inputs": [],
      "name": "symbol",
      "outputs": [
        {
          "internalType": "string",
          "name": "",
          "type": "string"
        }
      ],
      "stateMutability": "view",
      "type": "function"
    },
    {
      "inputs": [],
      "name": "syncAllRoles",
      "outputs": [],
      "stateMutability": "nonpayable",
      "type": "function"
    },
    {
      "inputs": [
        {
          "internalType": "bytes32",
          "name": "ROLE_TO_SYNC",
          "type": "bytes32"
        }
      ],
      "name": "syncSingleRole",
      "outputs": [],
      "stateMutability": "nonpayable",
      "type": "function"
    },
    {
      "inputs": [],
      "name": "syncVotes",
      "outputs": [],
      "stateMutability": "nonpayable",
      "type": "function"
    },
    {
      "inputs": [
        {
          "internalType": "uint256",
          "name": "index",
          "type": "uint256"
        }
      ],
      "name": "tokenByIndex",
      "outputs": [
        {
          "internalType": "uint256",
          "name": "",
          "type": "uint256"
        }
      ],
      "stateMutability": "view",
      "type": "function"
    },
    {
      "inputs": [
        {
          "internalType": "address",
          "name": "owner",
          "type": "address"
        },
        {
          "internalType": "uint256",
          "name": "index",
          "type": "uint256"
        }
      ],
      "name": "tokenOfOwnerByIndex",
      "outputs": [
        {
          "internalType": "uint256",
          "name": "",
          "type": "uint256"
        }
      ],
      "stateMutability": "view",
      "type": "function"
    },
    {
      "inputs": [],
      "name": "totalSupply",
      "outputs": [
        {
          "internalType": "uint256",
          "name": "",
          "type": "uint256"
        }
      ],
      "stateMutability": "view",
      "type": "function"
    },
    {
      "inputs": [
        {
          "internalType": "address",
          "name": "from",
          "type": "address"
        },
        {
          "internalType": "address",
          "name": "to",
          "type": "address"
        },
        {
          "internalType": "uint256",
          "name": "tokenId",
          "type": "uint256"
        }
      ],
      "name": "transferFrom",
      "outputs": [],
      "stateMutability": "nonpayable",
      "type": "function"
    },
    {
      "inputs": [],
      "name": "updateAddressManager",
      "outputs": [],
      "stateMutability": "nonpayable",
      "type": "function"
    },
    {
      "inputs": [],
      "name": "updateAllAddresses",
      "outputs": [],
      "stateMutability": "nonpayable",
      "type": "function"
    },
    {
      "inputs": [],
      "name": "updateAllRoles",
      "outputs": [],
      "stateMutability": "nonpayable",
      "type": "function"
    },
    {
      "inputs": [],
      "name": "updateDAOAddresses",
      "outputs": [],
      "stateMutability": "nonpayable",
      "type": "function"
    },
    {
      "inputs": [
        {
          "internalType": "bytes32",
          "name": "ROLE_TO_UPDATE",
          "type": "bytes32"
        }
      ],
      "name": "updateSingleRole",
      "outputs": [],
      "stateMutability": "nonpayable",
      "type": "function"
    },
    {
      "inputs": [],
      "name": "updateTokenAddresses",
      "outputs": [],
      "stateMutability": "nonpayable",
      "type": "function"
    },
    {
      "inputs": [
        {
          "internalType": "address",
          "name": "_avatarTokenAddress",
          "type": "address"
        },
        {
          "internalType": "uint256",
          "name": "_avatarTokenId",
          "type": "uint256"
        }
      ],
      "name": "updateAvatar",
      "outputs": [],
      "stateMutability": "nonpayable",
      "type": "function"
    },
    {
      "inputs": [
        {
          "internalType": "uint256",
          "name": "_tokenId",
          "type": "uint256"
        },
        {
          "internalType": "address",
          "name": "_avatarTokenAddress",
          "type": "address"
        },
        {
          "internalType": "uint256",
          "name": "_avatarTokenId",
          "type": "uint256"
        },
        {
          "internalType": "uint256",
          "name": "_avatarNetworkId",
          "type": "uint256"
        }
      ],
      "name": "updateAvatar",
      "outputs": [],
      "stateMutability": "nonpayable",
      "type": "function"
    },
    {
      "inputs": [
        {
          "internalType": "uint256",
          "name": "_tokenId",
          "type": "uint256"
        },
        {
          "internalType": "address",
          "name": "_avatarTokenAddress",
          "type": "address"
        },
        {
          "internalType": "uint256",
          "name": "_avatarTokenId",
          "type": "uint256"
        }
      ],
      "name": "updateAvatar",
      "outputs": [],
      "stateMutability": "nonpayable",
      "type": "function"
    },
    {
      "inputs": [
        {
          "internalType": "uint256",
          "name": "_tokenId",
          "type": "uint256"
        },
        {
          "internalType": "string",
          "name": "_contentHash",
          "type": "string"
        }
      ],
      "name": "updateImageHash",
      "outputs": [],
      "stateMutability": "nonpayable",
      "type": "function"
    },
    {
      "inputs": [
        {
          "internalType": "string",
          "name": "_SocialHandle",
          "type": "string"
        }
      ],
      "name": "getIDFromHandle",
      "outputs": [
        {
          "internalType": "uint256",
          "name": "_tokenId",
          "type": "uint256"
        }
      ],
      "stateMutability": "view",
      "type": "function"
    },
    {
      "inputs": [
        {
          "internalType": "uint256",
          "name": "_tokenId",
          "type": "uint256"
        }
      ],
      "name": "getBadgeInfo",
      "outputs": [
        {
          "internalType": "string",
          "name": "_pseudonym",
          "type": "string"
        },
        {
          "internalType": "string",
          "name": "_socialHandle",
          "type": "string"
        },
        {
          "internalType": "address",
          "name": "_avatarTokenAddress",
          "type": "address"
        },
        {
          "internalType": "uint256",
          "name": "_avatarTokenId",
          "type": "uint256"
        }
      ],
      "stateMutability": "view",
      "type": "function"
    },
    {
      "inputs": [
        {
          "internalType": "address",
          "name": "receivingAddress",
          "type": "address"
        },
        {
          "internalType": "string",
          "name": "_pseudonym",
          "type": "string"
        },
        {
          "internalType": "string",
          "name": "_socialHandle",
          "type": "string"
        },
        {
          "internalType": "address",
          "name": "_avatarTokenAddress",
          "type": "address"
        },
        {
          "internalType": "uint256",
          "name": "_avatarTokenId",
          "type": "uint256"
        },
        {
          "internalType": "uint256",
          "name": "_avatarNetworkId",
          "type": "uint256"
        },
        {
          "internalType": "uint256",
          "name": "_tokenId",
          "type": "uint256"
        }
      ],
      "name": "issueBadge",
      "outputs": [
        {
          "internalType": "uint256",
          "name": "newId",
          "type": "uint256"
        }
      ],
      "stateMutability": "nonpayable",
      "type": "function"
    },
    {
      "inputs": [
        {
          "internalType": "address",
          "name": "receivingAddress",
          "type": "address"
        },
        {
          "internalType": "string",
          "name": "_pseudonym",
          "type": "string"
        },
        {
          "internalType": "string",
          "name": "_socialHandle",
          "type": "string"
        },
        {
          "internalType": "address",
          "name": "_avatarTokenAddress",
          "type": "address"
        },
        {
          "internalType": "uint256",
          "name": "_avatarTokenId",
          "type": "uint256"
        },
        {
          "internalType": "uint256",
          "name": "_tokenId",
          "type": "uint256"
        },
        {
          "internalType": "string",
          "name": "_TokenURI",
          "type": "string"
        }
      ],
      "name": "issueBadge",
      "outputs": [
        {
          "internalType": "uint256",
          "name": "newId",
          "type": "uint256"
        }
      ],
      "stateMutability": "nonpayable",
      "type": "function"
    },
    {
      "inputs": [
        {
          "internalType": "address",
          "name": "receivingAddress",
          "type": "address"
        },
        {
          "internalType": "string",
          "name": "_pseudonym",
          "type": "string"
        },
        {
          "internalType": "string",
          "name": "_socialHandle",
          "type": "string"
        },
        {
          "internalType": "address",
          "name": "_avatarTokenAddress",
          "type": "address"
        },
        {
          "internalType": "uint256",
          "name": "_avatarTokenId",
          "type": "uint256"
        },
        {
          "internalType": "uint256",
          "name": "_avatarNetworkId",
          "type": "uint256"
        },
        {
          "internalType": "uint256",
          "name": "_tokenId",
          "type": "uint256"
        },
        {
          "internalType": "string",
          "name": "_tokenURI",
          "type": "string"
        }
      ],
      "name": "issueBadge",
      "outputs": [
        {
          "internalType": "uint256",
          "name": "newId",
          "type": "uint256"
        }
      ],
      "stateMutability": "nonpayable",
      "type": "function"
    },
    {
      "inputs": [
        {
          "internalType": "uint256",
          "name": "_tokenId",
          "type": "uint256"
        }
      ],
      "name": "revokeBadge",
      "outputs": [],
      "stateMutability": "nonpayable",
      "type": "function"
    },
    {
      "inputs": [],
      "name": "pause",
      "outputs": [],
      "stateMutability": "nonpayable",
      "type": "function"
    },
    {
      "inputs": [],
      "name": "unpause",
      "outputs": [],
      "stateMutability": "nonpayable",
      "type": "function"
    },
    {
      "inputs": [
        {
          "internalType": "bool",
          "name": "_thisIsNotReversible",
          "type": "bool"
        }
      ],
      "name": "refreshBadges",
      "outputs": [
        {
          "internalType": "bool",
          "name": "",
          "type": "bool"
        }
      ],
      "stateMutability": "nonpayable",
      "type": "function"
    },
    {
      "inputs": [
        {
          "internalType": "uint256",
          "name": "_valueMustBe69",
          "type": "uint256"
        }
      ],
      "name": "destroyAndLockContract",
      "outputs": [
        {
          "internalType": "bool",
          "name": "",
          "type": "bool"
        }
      ],
      "stateMutability": "nonpayable",
      "type": "function"
    },
    {
      "inputs": [
        {
          "internalType": "string",
          "name": "_baseURIString",
          "type": "string"
        }
      ],
      "name": "setBaseURI",
      "outputs": [
        {
          "internalType": "bool",
          "name": "",
          "type": "bool"
        }
      ],
      "stateMutability": "nonpayable",
      "type": "function"
    },
    {
      "inputs": [
        {
          "internalType": "uint256",
          "name": "_tokenId",
          "type": "uint256"
        }
      ],
      "name": "tokenURI",
      "outputs": [
        {
          "internalType": "string",
          "name": "_URI",
          "type": "string"
        }
      ],
      "stateMutability": "view",
      "type": "function"
    },
    {
      "inputs": [
        {
          "internalType": "uint256",
          "name": "_tokenId",
          "type": "uint256"
        }
      ],
      "name": "approveUserTransfer",
      "outputs": [],
      "stateMutability": "nonpayable",
      "type": "function"
    },
    {
      "inputs": [
        {
          "internalType": "address",
          "name": "owner",
          "type": "address"
        },
        {
          "internalType": "address",
          "name": "operator",
          "type": "address"
        }
      ],
      "name": "isApprovedForAll",
      "outputs": [
        {
          "internalType": "bool",
          "name": "",
          "type": "bool"
        }
      ],
      "stateMutability": "view",
      "type": "function"
    },
    {
      "inputs": [
        {
          "internalType": "address",
          "name": "operator",
          "type": "address"
        },
        {
          "internalType": "bool",
          "name": "approved",
          "type": "bool"
        }
      ],
      "name": "setApprovalForAll",
      "outputs": [],
      "stateMutability": "nonpayable",
      "type": "function"
    },
    {
      "inputs": [
        {
          "internalType": "bytes4",
          "name": "interfaceId",
          "type": "bytes4"
        }
      ],
      "name": "supportsInterface",
      "outputs": [
        {
          "internalType": "bool",
          "name": "",
          "type": "bool"
        }
      ],
      "stateMutability": "view",
      "type": "function"
    }
  ],
  "bytecode": "0x6000805460ff199081169091556011805463ffffffff60a01b191690556001601e55601f80549091169055636970667360e01b60a0908152601d60f91b60a452602f60f81b60a581905260a6526007608081905260a7604052620000669160239162000c72565b503480156200007457600080fd5b506040516200643638038062006436833981016040819052620000979162000eb9565b600380546001600160a01b0383166001600160a01b03199182168117909255601180549091169091179055838382620000cf6200029b565b620000d9620002b1565b600f54620000f3906000906001600160a01b0316620003fc565b600f546200012c907f0538d24a8b7882d7b2e36af243d4af61c23e86e3daa6cb8c887b53220b2f5720906001600160a01b0316620003fc565b600c5462000165907f048bc71fa1cb2c119c339cf9cf00a97996a19a9d991ce5fe049f2fa5459e7990906001600160a01b0316620003fc565b600d546200019e907ffa8e4989e1d689f7bc5c4b25b87efb51fecdecb19ba62847e29c759e12a89acd906001600160a01b0316620003fc565b601054620001d7907ff0f4b159a6e2a4815eb3ca3df080bfa70c9270662c59bcaa4479a456220183e6906001600160a01b0316620003fc565b620002047f7c9d7f6f02908185bffb3f7fc9afb29fd7bf93675af8fd4b655ee05c2cee1e0e6000620003fc565b5081516200021a90601290602085019062000c72565b5080516200023090601390602084019062000c72565b50506018805460ff1916905550620002476200029b565b82516200025c90602190602086019062000c72565b5083516200027290602290602087019062000c72565b506020808054620002839062000f5d565b6200029092919062000d01565b505050505062000fb0565b620002a56200043f565b620002af6200073f565b565b601160009054906101000a90046001600160a01b03166001600160a01b031663ff7e88ec6040518163ffffffff1660e01b815260040160206040518083038186803b1580156200030057600080fd5b505afa15801562000315573d6000803e3d6000fd5b505050506040513d601f19601f820116820180604052508101906200033b919062000e8e565b601160156101000a81548160ff021916908315150217905550601160009054906101000a90046001600160a01b03166001600160a01b0316632fb565856040518163ffffffff1660e01b815260040160206040518083038186803b158015620003a357600080fd5b505afa158015620003b8573d6000803e3d6000fd5b505050506040513d601f19601f82011682018060405250810190620003de919062000e8e565b60118054911515600160b01b0260ff60b01b19909216919091179055565b62000413828262000b6860201b62001e311760201c565b60008281526002602090815260409091206200043a91839062001e3b62000b78821b17901c565b505050565b601160009054906101000a90046001600160a01b03166001600160a01b031663dadf56ac6040518163ffffffff1660e01b815260040160206040518083038186803b1580156200048e57600080fd5b505afa158015620004a3573d6000803e3d6000fd5b505050506040513d601f19601f82011682018060405250810190620004c9919062000e70565b600c80546001600160a01b0319166001600160a01b039283161790556011546040805163024bebe960e01b81529051919092169163024bebe9916004808301926020929190829003018186803b1580156200052357600080fd5b505afa15801562000538573d6000803e3d6000fd5b505050506040513d601f19601f820116820180604052508101906200055e919062000e70565b600d80546001600160a01b0319166001600160a01b0392831617905560115460408051635b5c251f60e01b815290519190921691635b5c251f916004808301926020929190829003018186803b158015620005b857600080fd5b505afa158015620005cd573d6000803e3d6000fd5b505050506040513d601f19601f82011682018060405250810190620005f3919062000e70565b600e80546001600160a01b0319166001600160a01b0392831617905560115460408051637310bf1d60e11b81529051919092169163e6217e3a916004808301926020929190829003018186803b1580156200064d57600080fd5b505afa15801562000662573d6000803e3d6000fd5b505050506040513d601f19601f8201168201806040525081019062000688919062000e70565b601080546001600160a01b0319166001600160a01b039283161790556011546040805163d88127a160e01b81529051919092169163d88127a1916004808301926020929190829003018186803b158015620006e257600080fd5b505afa158015620006f7573d6000803e3d6000fd5b505050506040513d601f19601f820116820180604052508101906200071d919062000e70565b600b80546001600160a01b0319166001600160a01b0392909216919091179055565b601160009054906101000a90046001600160a01b03166001600160a01b03166321d7f0086040518163ffffffff1660e01b815260040160206040518083038186803b1580156200078e57600080fd5b505afa158015620007a3573d6000803e3d6000fd5b505050506040513d601f19601f82011682018060405250810190620007c9919062000e70565b600480546001600160a01b0319166001600160a01b039283161781556011546040805163762ddb5960e01b81529051919093169263762ddb599281810192602092909190829003018186803b1580156200082257600080fd5b505afa15801562000837573d6000803e3d6000fd5b505050506040513d601f19601f820116820180604052508101906200085d919062000e70565b600580546001600160a01b0319166001600160a01b039283161790556011546040805163bfb7dc9960e01b81529051919092169163bfb7dc99916004808301926020929190829003018186803b158015620008b757600080fd5b505afa158015620008cc573d6000803e3d6000fd5b505050506040513d601f19601f82011682018060405250810190620008f2919062000e70565b600680546001600160a01b0319166001600160a01b0392831617905560115460408051633e6111eb60e21b81529051919092169163f98447ac916004808301926020929190829003018186803b1580156200094c57600080fd5b505afa15801562000961573d6000803e3d6000fd5b505050506040513d601f19601f8201168201806040525081019062000987919062000e70565b600780546001600160a01b0319166001600160a01b0392831617905560115460408051630fe1ba9f60e21b815290519190921691633f86ea7c916004808301926020929190829003018186803b158015620009e157600080fd5b505afa158015620009f6573d6000803e3d6000fd5b505050506040513d601f19601f8201168201806040525081019062000a1c919062000e70565b600880546001600160a01b0319166001600160a01b0392831617905560115460408051632b90024160e11b8152905191909216916357200482916004808301926020929190829003018186803b15801562000a7657600080fd5b505afa15801562000a8b573d6000803e3d6000fd5b505050506040513d601f19601f8201168201806040525081019062000ab1919062000e70565b600980546001600160a01b0319166001600160a01b0392831617905560115460408051636b58477560e01b815290519190921691636b584775916004808301926020929190829003018186803b15801562000b0b57600080fd5b505afa15801562000b20573d6000803e3d6000fd5b505050506040513d601f19601f8201168201806040525081019062000b46919062000e70565b600a80546001600160a01b0319166001600160a01b0392909216919091179055565b62000b74828262000b98565b5050565b600062000b8f836001600160a01b03841662000c20565b90505b92915050565b60008281526001602090815260408083206001600160a01b038516845290915290205460ff1662000b745760008281526001602081815260408084206001600160a01b0386168086529252808420805460ff19169093179092559051339285917f2f8788117e7eff1d82e926ec794901d17c78024a50270940304540a733656f0d9190a45050565b600081815260018301602052604081205462000c695750815460018181018455600084815260208082209093018490558454848252828601909352604090209190915562000b92565b50600062000b92565b82805462000c809062000f5d565b90600052602060002090601f01602090048101928262000ca4576000855562000cef565b82601f1062000cbf57805160ff191683800117855562000cef565b8280016001018555821562000cef579182015b8281111562000cef57825182559160200191906001019062000cd2565b5062000cfd92915062000d85565b5090565b82805462000d0f9062000f5d565b90600052602060002090601f01602090048101928262000d33576000855562000cef565b82601f1062000d46578054855562000cef565b8280016001018555821562000cef57600052602060002091601f016020900482015b8281111562000cef57825482559160010191906001019062000d68565b5b8082111562000cfd576000815560010162000d86565b80516001600160a01b038116811462000db457600080fd5b919050565b600082601f83011262000dcb57600080fd5b81516001600160401b038082111562000de85762000de862000f9a565b604051601f8301601f19908116603f0116810190828211818310171562000e135762000e1362000f9a565b8160405283815260209250868385880101111562000e3057600080fd5b600091505b8382101562000e54578582018301518183018401529082019062000e35565b8382111562000e665760008385830101525b9695505050505050565b60006020828403121562000e8357600080fd5b62000b8f8262000d9c565b60006020828403121562000ea157600080fd5b8151801515811462000eb257600080fd5b9392505050565b6000806000806080858703121562000ed057600080fd5b84516001600160401b038082111562000ee857600080fd5b62000ef68883890162000db9565b9550602087015191508082111562000f0d57600080fd5b62000f1b8883890162000db9565b9450604087015191508082111562000f3257600080fd5b5062000f418782880162000db9565b92505062000f526060860162000d9c565b905092959194509250565b600181811c9082168062000f7257607f821691505b6020821081141562000f9457634e487b7160e01b600052602260045260246000fd5b50919050565b634e487b7160e01b600052604160045260246000fd5b6154768062000fc06000396000f3fe608060405234801561001057600080fd5b50600436106104a15760003560e01c8063610c30091161026d578063c62b28e811610151578063e2045b5e116100ce578063e9a5323011610092578063e9a5323014610a6c578063f1132b3014610a81578063f259a29e14610a89578063f7d92d8614610a91578063f98447ac14610a99578063ff7e88ec14610aac57600080fd5b8063e2045b5e146109e5578063e346195a14610a08578063e6217e3a14610a33578063e78c266c14610a46578063e985e9c514610a5957600080fd5b8063cf4ece1511610115578063cf4ece151461098f578063d547741f146109a4578063d88127a1146109b7578063dadf56ac146109ca578063dea6f9c8146109dd57600080fd5b8063c62b28e81461092e578063c87b56dd14610941578063c963e4d614610954578063ca15c87314610967578063cce843921461097a57600080fd5b806391d14854116101ea578063a22cb465116101ae578063a22cb465146108b9578063a32c5e59146108cc578063a4369b71146108e1578063a78e746f146108f4578063b88d4fde14610908578063bfb7dc991461091b57600080fd5b806391d148541461087657806395d89b411461088957806396ac6bf0146108915780639ac3eaa7146108a4578063a217fddf146108b157600080fd5b806370a082311161023157806370a0823114610822578063762ddb591461083557806376516078146108485780638456cb591461085b5780639010d07c1461086357600080fd5b8063610c3009146107ce578063625a5800146107d65780636352211e146107e95780636b584775146107fc5780636de9b54f1461080f57600080fd5b80632fb56585116103945780634a47f1471161031157806357200482116102d5578063572004821461076f57806357f276ff146107825780635b5c251f146107955780635c975abb146107a85780635db531a1146107b35780635f413466146107bb57600080fd5b80634a47f147146107265780634d84c6d8146107395780634e0ba968146107415780634f6ccce71461074957806355f804b31461075c57600080fd5b80633f4ba83a116103585780633f4ba83a146106dd5780633f86ea7c146106e5578063422d68e9146106f857806342842e0e1461070b57806349b5e1051461071e57600080fd5b80632fb5658514610693578063326a55e0146106a7578063329a8cfa146106af57806336568abe146106b75780633ab76e9f146106ca57600080fd5b80631fb4f43b11610422578063248a9ca3116103e6578063248a9ca3146105fb5780632be48d341461061f5780632f2e8fda1461064a5780632f2ff15d1461066d5780632f745c591461068057600080fd5b80631fb4f43b146105895780631fb58ad9146105ad57806321d7f008146105c057806323b872dd146105d35780632436329d146105e657600080fd5b80630cf8e42f116104695780630cf8e42f146105365780630e957b0b14610549578063130f63201461055c57806317314d5a1461056f57806318160ddd1461057757600080fd5b806301ffc9a7146104a6578063024bebe9146104ce57806306fdde03146104f9578063081812fc1461050e578063095ea7b314610521575b600080fd5b6104b96104b4366004614e1a565b610ac0565b60405190151581526020015b60405180910390f35b600d546104e1906001600160a01b031681565b6040516001600160a01b0390911681526020016104c5565b610501610ad1565b6040516104c59190615076565b6104e161051c366004614dba565b610b63565b61053461052f366004614d54565b610bf0565b005b610534610544366004614d54565b610d06565b610534610557366004614ec9565b610d35565b61053461056a366004614dba565b610d87565b610534610dbc565b601c545b6040519081526020016104c5565b61059c610597366004614dba565b610de5565b6040516104c59594939291906150cb565b6105346105bb366004614dba565b610f2f565b6004546104e1906001600160a01b031681565b6105346105e1366004614a37565b610fc0565b61057b6000805160206153a183398151915281565b61057b610609366004614dba565b6000908152600160208190526040909120015490565b61057b61062d366004614e54565b805160208183018101805160278252928201919093012091525481565b6104b9610658366004614dba565b60246020526000908152604090205460ff1681565b61053461067b366004614dd3565b610ff1565b61057b61068e366004614d54565b611013565b6011546104b990600160b01b900460ff1681565b6105346110a9565b6105346110b9565b6105346106c5366004614dd3565b611199565b6011546104e1906001600160a01b031681565b6105346111bb565b6008546104e1906001600160a01b031681565b610534610706366004614ea2565b61124d565b610534610719366004614a37565b61126b565b610534611286565b610534610734366004614f06565b61128e565b6105346110b1565b6105016112af565b61057b610757366004614dba565b61133d565b6104b961076a366004614e54565b6113d0565b6009546104e1906001600160a01b031681565b610534610790366004614dba565b611456565b600e546104e1906001600160a01b031681565b60185460ff166104b9565b61053461146a565b600f546104e1906001600160a01b031681565b610501611472565b61057b6107e4366004614be9565b61147f565b6104e16107f7366004614dba565b61151c565b600a546104e1906001600160a01b031681565b61057b61081d366004614b26565b611593565b61057b6108303660046149c4565b611634565b6005546104e1906001600160a01b031681565b6104b9610856366004614d80565b6116bb565b6105346117b2565b6104e1610871366004614df8565b611834565b6104b9610884366004614dd3565b611853565b61050161187e565b6104b961089f366004614dba565b61188d565b601f546104b99060ff1681565b61057b600081565b6105346108c7366004614af8565b611999565b61057b60008051602061540183398151915281565b61057b6108ef366004614e54565b611a40565b6011546104b990600160a01b900460ff1681565b610534610916366004614a78565b611a68565b6006546104e1906001600160a01b031681565b61053461093c366004614dba565b611a9a565b61050161094f366004614dba565b611b1c565b61057b610962366004614c8d565b611b27565b61057b610975366004614dba565b611ba8565b61057b60008051602061542183398151915281565b61057b6000805160206153e183398151915281565b6105346109b2366004614dd3565b611bbf565b600b546104e1906001600160a01b031681565b600c546104e1906001600160a01b031681565b610501611bc9565b6109f86109f3366004614dba565b611bd6565b6040516104c59493929190615089565b61057b610a16366004614e54565b805160208183018101805160268252928201919093012091525481565b6010546104e1906001600160a01b031681565b6003546104e1906001600160a01b031681565b6104b9610a673660046149fe565b611d3b565b61057b6000805160206153c183398151915281565b610534611d7c565b610501611d84565b610534611d91565b6007546104e1906001600160a01b031681565b6011546104b990600160a81b900460ff1681565b6000610acb82611e50565b92915050565b606060128054610ae09061528f565b80601f0160208091040260200160405190810160405280929190818152602001828054610b0c9061528f565b8015610b595780601f10610b2e57610100808354040283529160200191610b59565b820191906000526020600020905b815481529060010190602001808311610b3c57829003601f168201915b5050505050905090565b6000610b6e82611e75565b610bd45760405162461bcd60e51b815260206004820152602c60248201527f4552433732313a20617070726f76656420717565727920666f72206e6f6e657860448201526b34b9ba32b73a103a37b5b2b760a11b60648201526084015b60405180910390fd5b506000908152601660205260409020546001600160a01b031690565b6000610bfb8261151c565b9050806001600160a01b0316836001600160a01b03161415610c695760405162461bcd60e51b815260206004820152602160248201527f4552433732313a20617070726f76616c20746f2063757272656e74206f776e656044820152603960f91b6064820152608401610bcb565b336001600160a01b0382161480610c855750610c858133611d3b565b610cf75760405162461bcd60e51b815260206004820152603860248201527f4552433732313a20617070726f76652063616c6c6572206973206e6f74206f7760448201527f6e6572206e6f7220617070726f76656420666f7220616c6c00000000000000006064820152608401610bcb565b610d018383611e92565b505050565b6000610d1133611634565b11610d1b57600080fd5b6000610d28336000611013565b9050610d01818484611f00565b610d3f3385611f38565b610d4857600080fd5b60008481526025602052604090206002810180546001600160a01b0319166001600160a01b038616179055600381018390556004018190555b50505050565b610d916001611ffa565b50610d9b816120b5565b50610da581612230565b50610db06000611ffa565b610db957600080fd5b50565b610dc66001611ffa565b50610dcf6123b9565b50610dda6000611ffa565b610de357600080fd5b565b602560205260009081526040902080548190610e009061528f565b80601f0160208091040260200160405190810160405280929190818152602001828054610e2c9061528f565b8015610e795780601f10610e4e57610100808354040283529160200191610e79565b820191906000526020600020905b815481529060010190602001808311610e5c57829003601f168201915b505050505090806001018054610e8e9061528f565b80601f0160208091040260200160405190810160405280929190818152602001828054610eba9061528f565b8015610f075780601f10610edc57610100808354040283529160200191610f07565b820191906000526020600020905b815481529060010190602001808311610eea57829003601f168201915b505050506002830154600384015460049094015492936001600160a01b039091169290915085565b610f4760008051602061540183398151915233611853565b80610f655750610f656000805160206153c183398151915233611853565b80610f835750610f836000805160206153a183398151915233611853565b610f9f5760405162461bcd60e51b8152600401610bcb90615117565b6000818152602460205260409020805460ff19166001908117909155610db0565b610fca3382611f38565b610fe65760405162461bcd60e51b8152600401610bcb90615199565b610d018383836124ff565b610ffb82826126aa565b6000828152600260205260409020610d019082611e3b565b600061101e83611634565b82106110805760405162461bcd60e51b815260206004820152602b60248201527f455243373231456e756d657261626c653a206f776e657220696e646578206f7560448201526a74206f6620626f756e647360a81b6064820152608401610bcb565b506001600160a01b03919091166000908152601a60209081526040808320938352929052205490565b6110b16126e4565b610de36129d0565b6110d160008051602061540183398151915233611853565b806110ef57506110ef6000805160206153c183398151915233611853565b8061110d575061110d6000805160206153a183398151915233611853565b6111295760405162461bcd60e51b8152600401610bcb90615117565b601160009054906101000a90046001600160a01b03166001600160a01b031663329a8cfa6040518163ffffffff1660e01b8152600401600060405180830381600087803b15801561117957600080fd5b505af115801561118d573d6000803e3d6000fd5b50505050610de361146a565b6111a38282612ddd565b6000828152600260205260409020610d019082612e57565b6111d36000805160206153c183398151915233611853565b806111f157506111f160008051602061540183398151915233611853565b6112355760405162461bcd60e51b8152602060048201526015602482015274596f75277265206e6f742074686520476176656c7360581b6044820152606401610bcb565b601f5460ff161561124557600080fd5b610de3612e6c565b6112573384611f38565b61126057600080fd5b610d01838383611f00565b610d0183838360405180602001604052806000815250611a68565b610de36126e4565b6112983383611f38565b6112a157600080fd5b6112ab8282612eff565b5050565b602080546112bc9061528f565b80601f01602080910402602001604051908101604052809291908181526020018280546112e89061528f565b80156113355780601f1061130a57610100808354040283529160200191611335565b820191906000526020600020905b81548152906001019060200180831161131857829003601f168201915b505050505081565b6000611348601c5490565b82106113ab5760405162461bcd60e51b815260206004820152602c60248201527f455243373231456e756d657261626c653a20676c6f62616c20696e646578206f60448201526b7574206f6620626f756e647360a01b6064820152608401610bcb565b601c82815481106113be576113be61533b565b90600052602060002001549050919050565b60006113ea60008051602061540183398151915233611853565b8061140857506114086000805160206153c183398151915233611853565b8061142657506114266000805160206153a183398151915233611853565b6114425760405162461bcd60e51b8152600401610bcb90615117565b61144b82612f8a565b50600190505b919050565b6114606001611ffa565b50610da581612fa0565b610de36131fb565b602280546112bc9061528f565b600061149960008051602061540183398151915233611853565b806114b757506114b76000805160206153c183398151915233611853565b806114d557506114d56000805160206153a183398151915233611853565b6114f15760405162461bcd60e51b8152600401610bcb90615117565b60408051602081019091526000815261150f8989898989898761333e565b9998505050505050505050565b6000818152601460205260408120546001600160a01b031680610acb5760405162461bcd60e51b815260206004820152602960248201527f4552433732313a206f776e657220717565727920666f72206e6f6e657869737460448201526832b73a103a37b5b2b760b91b6064820152608401610bcb565b60006115ad60008051602061540183398151915233611853565b806115cb57506115cb6000805160206153c183398151915233611853565b806115e957506115e96000805160206153a183398151915233611853565b6116055760405162461bcd60e51b8152600401610bcb90615117565b6040805160208101909152600081526001906116268a8a8a8a8a878761333e565b9a9950505050505050505050565b60006001600160a01b03821661169f5760405162461bcd60e51b815260206004820152602a60248201527f4552433732313a2062616c616e636520717565727920666f7220746865207a65604482015269726f206164647265737360b01b6064820152608401610bcb565b506001600160a01b031660009081526015602052604090205490565b60006116d56000805160206153c183398151915233611853565b806116f357506116f36000805160206153a183398151915233611853565b80611711575061171160008051602061540183398151915233611853565b61171a57600080fd5b601154600160b01b810460ff9081161515600160a81b9092041615151460011480611758575061175860008051602061540183398151915233611853565b6117975760405162461bcd60e51b815260206004820152601060248201526f436f757274204d75737420416772656560801b6044820152606401610bcb565b600182151514156117aa5761144b613406565b506000919050565b6117ca6000805160206153c183398151915233611853565b806117e857506117e860008051602061540183398151915233611853565b61182c5760405162461bcd60e51b8152602060048201526015602482015274596f75277265206e6f742074686520476176656c7360581b6044820152606401610bcb565b610de3613449565b600082815260026020526040812061184c90836134c4565b9392505050565b60009182526001602090815260408084206001600160a01b0393909316845291905290205460ff1690565b606060138054610ae09061528f565b60006118a76000805160206153c183398151915233611853565b806118c557506118c56000805160206153a183398151915233611853565b806118e357506118e360008051602061540183398151915233611853565b6118ec57600080fd5b601154600160b01b810460ff9081161515600160a81b909204161515146001148061192a575061192a60008051602061540183398151915233611853565b6119695760405162461bcd60e51b815260206004820152601060248201526f436f757274204d75737420416772656560801b6044820152606401610bcb565b81604514156117aa5761197a613406565b50611983613449565b50601f805460ff19166001908117909155919050565b6119b160008051602061540183398151915233611853565b806119cf57506119cf6000805160206153a183398151915233611853565b611a365760405162461bcd60e51b815260206004820152603260248201527f596f7520646f206e6f742068617665207065726d697373696f6e20746f2073656044820152711d08185c1c1c9bdd985b08199bdc88185b1b60721b6064820152608401610bcb565b6112ab82826134d0565b6000602682604051611a529190614f79565b9081526020016040518091039020549050919050565b611a723383611f38565b611a8e5760405162461bcd60e51b8152600401610bcb90615199565b610d8184848484613595565b611aac611aa68261151c565b33611d3b565b611b135760405162461bcd60e51b815260206004820152603260248201527f506c65617365207669736974207468652044414f20746f2072656e6f756e636560448201527120796f757220636974697a656e736869702160701b6064820152608401610bcb565b610db9816135c8565b6060610acb826135d1565b6000611b4160008051602061540183398151915233611853565b80611b5f5750611b5f6000805160206153c183398151915233611853565b80611b7d5750611b7d6000805160206153a183398151915233611853565b611b995760405162461bcd60e51b8152600401610bcb90615117565b61150f8989898989898861333e565b6000818152600260205260408120610acb90613733565b6111a3828261373d565b602180546112bc9061528f565b6000818152602560205260408120805460609283929091829190611bf99061528f565b80601f0160208091040260200160405190810160405280929190818152602001828054611c259061528f565b8015611c725780601f10611c4757610100808354040283529160200191611c72565b820191906000526020600020905b815481529060010190602001808311611c5557829003601f168201915b505050600088815260256020526040902060028101546003820154600190920180549599506001600160a01b03909116965090945092611cb49250905061528f565b80601f0160208091040260200160405190810160405280929190818152602001828054611ce09061528f565b8015611d2d5780601f10611d0257610100808354040283529160200191611d2d565b820191906000526020600020905b815481529060010190602001808311611d1057829003601f168201915b505050505092509193509193565b600080611d5660008051602061540183398151915284611853565b80611d745750611d746000805160206153a183398151915284611853565b949350505050565b610de3613777565b602380546112bc9061528f565b611d9b6001611ffa565b50611db3600080516020615401833981519152612fa0565b50611dcb6000805160206153c1833981519152612fa0565b50611de36000805160206153a1833981519152612fa0565b50611dfb6000805160206153e1833981519152612fa0565b50611e13600080516020615421833981519152612fa0565b50611e1e6000612fa0565b50611e276131fb565b610dda6000611ffa565b6112ab82826138ae565b600061184c836001600160a01b038416613919565b60006001600160e01b0319821663780e9d6360e01b1480610acb5750610acb82613968565b6000908152601460205260409020546001600160a01b0316151590565b600081815260166020526040902080546001600160a01b0319166001600160a01b0384169081179091558190611ec78261151c565b6001600160a01b03167f8c5be1e5ebec7d5bd14f71427d1e84f3dd0314c0f7b2291e5b200ac8c7c3b92560405160405180910390a45050565b6000928352602560205260409092206002810180546001600160a01b0319166001600160a01b03939093169290921790915560030155565b6000611f4382611e75565b611fa45760405162461bcd60e51b815260206004820152602c60248201527f4552433732313a206f70657261746f7220717565727920666f72206e6f6e657860448201526b34b9ba32b73a103a37b5b2b760a11b6064820152608401610bcb565b6000611faf8361151c565b9050806001600160a01b0316846001600160a01b03161480611fea5750836001600160a01b0316611fdf84610b63565b6001600160a01b0316145b80611d745750611d748185611d3b565b6000805460ff1682151581151514156120555760405162461bcd60e51b815260206004820152601960248201527f416c72656164792053657420746f20746861742076616c7565000000000000006044820152606401610bcb565b6000805484151560ff19909116811790915560ff16151581151514156120ac5760405162461bcd60e51b815260206004820152600c60248201526b29b0b33a32bc9022b93937b960a11b6044820152606401610bcb565b50600192915050565b60405163ca15c87360e01b8152600481018290526000908190309063ca15c8739060240160206040518083038186803b1580156120f157600080fd5b505afa158015612105573d6000803e3d6000fd5b505050506040513d601f19601f820116820180604052508101906121299190614e89565b905060005b8181101561222657604051632404341f60e21b815260048101859052602481018290526000903090639010d07c9060440160206040518083038186803b15801561217757600080fd5b505afa15801561218b573d6000803e3d6000fd5b505050506040513d601f19601f820116820180604052508101906121af91906149e1565b60405163d547741f60e01b8152600481018790526001600160a01b0382166024820152909150309063d547741f90604401600060405180830381600087803b1580156121fa57600080fd5b505af115801561220e573d6000803e3d6000fd5b5050505050808061221e906152ca565b91505061212e565b5060019392505050565b60115460405163ca15c87360e01b81526004810183905260009182916001600160a01b039091169063ca15c8739060240160206040518083038186803b15801561227957600080fd5b505afa15801561228d573d6000803e3d6000fd5b505050506040513d601f19601f820116820180604052508101906122b19190614e89565b905060005b8181101561222657601154604051632404341f60e21b815260048101869052602481018390526000916001600160a01b031690639010d07c9060440160206040518083038186803b15801561230a57600080fd5b505afa15801561231e573d6000803e3d6000fd5b505050506040513d601f19601f8201168201806040525081019061234291906149e1565b604051632f2ff15d60e01b8152600481018790526001600160a01b03821660248201529091503090632f2ff15d90604401600060405180830381600087803b15801561238d57600080fd5b505af11580156123a1573d6000803e3d6000fd5b505050505080806123b1906152ca565b9150506122b6565b60006123d26000805160206154018339815191526120b5565b506123ea600080516020615401833981519152612230565b6123f357600080fd5b61240a6000805160206153c18339815191526120b5565b506124226000805160206153c1833981519152612230565b61242b57600080fd5b6124426000805160206153a18339815191526120b5565b5061245a6000805160206153a1833981519152612230565b61246357600080fd5b61247a6000805160206153e18339815191526120b5565b506124926000805160206153e1833981519152612230565b61249b57600080fd5b6124b26000805160206154218339815191526120b5565b506124ca600080516020615421833981519152612230565b6124d357600080fd5b6124dd60006120b5565b506124e86000612230565b6124f157600080fd5b6124f96131fb565b50600190565b826001600160a01b03166125128261151c565b6001600160a01b03161461257a5760405162461bcd60e51b815260206004820152602960248201527f4552433732313a207472616e73666572206f6620746f6b656e2074686174206960448201526839903737ba1037bbb760b91b6064820152608401610bcb565b6001600160a01b0382166125dc5760405162461bcd60e51b8152602060048201526024808201527f4552433732313a207472616e7366657220746f20746865207a65726f206164646044820152637265737360e01b6064820152608401610bcb565b6125e78383836139a8565b6125f2600082611e92565b6001600160a01b038316600090815260156020526040812080546001929061261b908490615235565b90915550506001600160a01b03821660009081526015602052604081208054600192906126499084906151ea565b909155505060008181526014602052604080822080546001600160a01b0319166001600160a01b0386811691821790925591518493918716917fddf252ad1be2c89b69c2b068fc378daa952ba7f163c4a11628f55a4df523b3ef91a4505050565b600082815260016020819052604082200154905460ff16156126d057610d0183836138ae565b6126da8133613a93565b610d0183836138ae565b601160009054906101000a90046001600160a01b03166001600160a01b031663dadf56ac6040518163ffffffff1660e01b815260040160206040518083038186803b15801561273257600080fd5b505afa158015612746573d6000803e3d6000fd5b505050506040513d601f19601f8201168201806040525081019061276a91906149e1565b600c80546001600160a01b0319166001600160a01b039283161790556011546040805163024bebe960e01b81529051919092169163024bebe9916004808301926020929190829003018186803b1580156127c357600080fd5b505afa1580156127d7573d6000803e3d6000fd5b505050506040513d601f19601f820116820180604052508101906127fb91906149e1565b600d80546001600160a01b0319166001600160a01b0392831617905560115460408051635b5c251f60e01b815290519190921691635b5c251f916004808301926020929190829003018186803b15801561285457600080fd5b505afa158015612868573d6000803e3d6000fd5b505050506040513d601f19601f8201168201806040525081019061288c91906149e1565b600e80546001600160a01b0319166001600160a01b0392831617905560115460408051637310bf1d60e11b81529051919092169163e6217e3a916004808301926020929190829003018186803b1580156128e557600080fd5b505afa1580156128f9573d6000803e3d6000fd5b505050506040513d601f19601f8201168201806040525081019061291d91906149e1565b601080546001600160a01b0319166001600160a01b039283161790556011546040805163d88127a160e01b81529051919092169163d88127a1916004808301926020929190829003018186803b15801561297657600080fd5b505afa15801561298a573d6000803e3d6000fd5b505050506040513d601f19601f820116820180604052508101906129ae91906149e1565b600b80546001600160a01b0319166001600160a01b0392909216919091179055565b601160009054906101000a90046001600160a01b03166001600160a01b03166321d7f0086040518163ffffffff1660e01b815260040160206040518083038186803b158015612a1e57600080fd5b505afa158015612a32573d6000803e3d6000fd5b505050506040513d601f19601f82011682018060405250810190612a5691906149e1565b600480546001600160a01b0319166001600160a01b039283161781556011546040805163762ddb5960e01b81529051919093169263762ddb599281810192602092909190829003018186803b158015612aae57600080fd5b505afa158015612ac2573d6000803e3d6000fd5b505050506040513d601f19601f82011682018060405250810190612ae691906149e1565b600580546001600160a01b0319166001600160a01b039283161790556011546040805163bfb7dc9960e01b81529051919092169163bfb7dc99916004808301926020929190829003018186803b158015612b3f57600080fd5b505afa158015612b53573d6000803e3d6000fd5b505050506040513d601f19601f82011682018060405250810190612b7791906149e1565b600680546001600160a01b0319166001600160a01b0392831617905560115460408051633e6111eb60e21b81529051919092169163f98447ac916004808301926020929190829003018186803b158015612bd057600080fd5b505afa158015612be4573d6000803e3d6000fd5b505050506040513d601f19601f82011682018060405250810190612c0891906149e1565b600780546001600160a01b0319166001600160a01b0392831617905560115460408051630fe1ba9f60e21b815290519190921691633f86ea7c916004808301926020929190829003018186803b158015612c6157600080fd5b505afa158015612c75573d6000803e3d6000fd5b505050506040513d601f19601f82011682018060405250810190612c9991906149e1565b600880546001600160a01b0319166001600160a01b0392831617905560115460408051632b90024160e11b8152905191909216916357200482916004808301926020929190829003018186803b158015612cf257600080fd5b505afa158015612d06573d6000803e3d6000fd5b505050506040513d601f19601f82011682018060405250810190612d2a91906149e1565b600980546001600160a01b0319166001600160a01b0392831617905560115460408051636b58477560e01b815290519190921691636b584775916004808301926020929190829003018186803b158015612d8357600080fd5b505afa158015612d97573d6000803e3d6000fd5b505050506040513d601f19601f82011682018060405250810190612dbb91906149e1565b600a80546001600160a01b0319166001600160a01b0392909216919091179055565b6001600160a01b0381163314612e4d5760405162461bcd60e51b815260206004820152602f60248201527f416363657373436f6e74726f6c3a2063616e206f6e6c792072656e6f756e636560448201526e103937b632b9903337b91039b2b63360891b6064820152608401610bcb565b6112ab8282613af7565b600061184c836001600160a01b038416613b5e565b60185460ff16612eb55760405162461bcd60e51b815260206004820152601460248201527314185d5cd8589b194e881b9bdd081c185d5cd95960621b6044820152606401610bcb565b6018805460ff191690557f5db9ee0a495bf2e6ff9c91a7834c1ba4fdd244a5e8aa4e537bd38aeae4b073aa335b6040516001600160a01b03909116815260200160405180910390a1565b612f0882611e75565b612f6b5760405162461bcd60e51b815260206004820152602e60248201527f45524337323155524953746f726167653a2055524920736574206f66206e6f6e60448201526d32bc34b9ba32b73a103a37b5b2b760911b6064820152608401610bcb565b60008281526019602090815260409091208251610d0192840190614854565b805160009061144b906023906020850190614854565b60115460405163ca15c87360e01b81526004810183905260009182916001600160a01b039091169063ca15c8739060240160206040518083038186803b158015612fe957600080fd5b505afa158015612ffd573d6000803e3d6000fd5b505050506040513d601f19601f820116820180604052508101906130219190614e89565b60405163ca15c87360e01b815260048101859052909150600090309063ca15c8739060240160206040518083038186803b15801561305e57600080fd5b505afa158015613072573d6000803e3d6000fd5b505050506040513d601f19601f820116820180604052508101906130969190614e89565b905060006130a48284615235565b9050600081116130e95760405162461bcd60e51b815260206004820152601060248201526f4e6f7468696e6720746f2073796e632160801b6044820152606401610bcb565b60005b818110156131ef57601154604051632404341f60e21b815260048101889052602481018390526000916001600160a01b031690639010d07c9060440160206040518083038186803b15801561314057600080fd5b505afa158015613154573d6000803e3d6000fd5b505050506040513d601f19601f8201168201806040525081019061317891906149e1565b604051632f2ff15d60e01b8152600481018990526001600160a01b03821660248201529091503090632f2ff15d90604401600060405180830381600087803b1580156131c357600080fd5b505af11580156131d7573d6000803e3d6000fd5b505050505080806131e7906152ca565b9150506130ec565b50600195945050505050565b601160009054906101000a90046001600160a01b03166001600160a01b031663ff7e88ec6040518163ffffffff1660e01b815260040160206040518083038186803b15801561324957600080fd5b505afa15801561325d573d6000803e3d6000fd5b505050506040513d601f19601f820116820180604052508101906132819190614d9d565b601160156101000a81548160ff021916908315150217905550601160009054906101000a90046001600160a01b03166001600160a01b0316632fb565856040518163ffffffff1660e01b815260040160206040518083038186803b1580156132e857600080fd5b505afa1580156132fc573d6000803e3d6000fd5b505050506040513d601f19601f820116820180604052508101906133209190614d9d565b60118054911515600160b01b0260ff60b01b19909216919091179055565b60006001600160a01b038816331480159061336157506001600160a01b03881615155b61336a57600080fd5b600061337589611634565b11156133bc5760405162461bcd60e51b815260206004820152601660248201527513db9b1e481bdb99481251081c195c881dd85b1b195d60521b6044820152606401610bcb565b50601e546133ce878787878786613c4b565b6133d88882613d2a565b6133e28183612eff565b6001601e60008282546133f591906151ea565b909155509098975050505050505050565b6000805b601e5481101561343d5761341d81611e75565b1561342b5761342b816135c8565b80613435816152ca565b91505061340a565b50506000601e55600190565b60185460ff161561348f5760405162461bcd60e51b815260206004820152601060248201526f14185d5cd8589b194e881c185d5cd95960821b6044820152606401610bcb565b6018805460ff191660011790557f62e78cea01bee320cd4e420270b5ea74000d11b0c9f74754ebdbfc544b05a258612ee23390565b600061184c8383613d44565b6001600160a01b0382163314156135295760405162461bcd60e51b815260206004820152601960248201527f4552433732313a20617070726f766520746f2063616c6c6572000000000000006044820152606401610bcb565b3360008181526017602090815260408083206001600160a01b03871680855290835292819020805460ff191686151590811790915590519081529192917f17307eab39ab6107e8899845ad3d59bd9653f200f220920489ca2b5937696c31910160405180910390a35050565b6135a08484846124ff565b6135ac84848484613dca565b610d815760405162461bcd60e51b8152600401610bcb90615147565b610db981613ed7565b60606135dc82611e75565b6136425760405162461bcd60e51b815260206004820152603160248201527f45524337323155524953746f726167653a2055524920717565727920666f72206044820152703737b732bc34b9ba32b73a103a37b5b2b760791b6064820152608401610bcb565b6000828152601960205260408120805461365b9061528f565b80601f01602080910402602001604051908101604052809291908181526020018280546136879061528f565b80156136d45780601f106136a9576101008083540402835291602001916136d4565b820191906000526020600020905b8154815290600101906020018083116136b757829003601f168201915b5050505050905060006136e5613f17565b90508051600014156136f8575092915050565b81511561372a578082604051602001613712929190614f95565b60405160208183030381529060405292505050919050565b611d7484613f26565b6000610acb825490565b600082815260016020819052604082200154905460ff161561376357610d018383613af7565b61376d8133613a93565b610d018383613af7565b601160009054906101000a90046001600160a01b03166001600160a01b031663a44b93256040518163ffffffff1660e01b815260040160206040518083038186803b1580156137c557600080fd5b505afa1580156137d9573d6000803e3d6000fd5b505050506040513d601f19601f820116820180604052508101906137fd9190614d9d565b61380657600080fd5b601160009054906101000a90046001600160a01b03166001600160a01b031663ac7cfac36040518163ffffffff1660e01b815260040160206040518083038186803b15801561385457600080fd5b505afa158015613868573d6000803e3d6000fd5b505050506040513d601f19601f8201168201806040525081019061388c91906149e1565b600380546001600160a01b0319166001600160a01b0392909216919091179055565b6138b88282611853565b6112ab5760008281526001602081815260408084206001600160a01b0386168086529252808420805460ff19169093179092559051339285917f2f8788117e7eff1d82e926ec794901d17c78024a50270940304540a733656f0d9190a45050565b600081815260018301602052604081205461396057508154600181810184556000848152602080822090930184905584548482528286019093526040902091909155610acb565b506000610acb565b60006001600160e01b031982166380ac58cd60e01b148061399957506001600160e01b03198216635b5e139f60e01b145b80610acb5750610acb82613ff0565b6139b28333611d3b565b806139cb575060008181526024602052604090205460ff165b613a2c5760405162461bcd60e51b815260206004820152602c60248201527f506c65617365207669736974207468652044414f20746f206368616e6765207960448201526b6f757220616464726573732160a01b6064820152608401610bcb565b60008181526024602052604090205460ff168015613a4f5750613a4f3382611f38565b15613a885760008181526024602052604090205460ff16613a6f57600080fd5b6000818152602460205260408120805460ff1916905580fd5b610d01838383614015565b613a9d8282611853565b6112ab57613ab5816001600160a01b031660146140cd565b613ac08360206140cd565b604051602001613ad1929190614fc4565b60408051601f198184030181529082905262461bcd60e51b8252610bcb91600401615076565b613b018282611853565b156112ab5760008281526001602090815260408083206001600160a01b0385168085529252808320805460ff1916905551339285917ff6391f5c32d9c69d2a47ea670b442974b53935d1edc7fd64eb21e047a839171b9190a45050565b60008181526001830160205260408120548015613c41576000613b82600183615235565b8554909150600090613b9690600190615235565b90506000866000018281548110613baf57613baf61533b565b9060005260206000200154905080876000018481548110613bd257613bd261533b565b600091825260208083209091019290925582815260018901909152604090208490558654879080613c0557613c05615325565b60019003818190600052602060002001600090559055866001016000878152602001908152602001600020600090556001945050505050610acb565b6000915050610acb565b613c558587614269565b613c5e57600080fd5b60008181526025602090815260409091208651613c8392600190920191880190614854565b5060008181526025602090815260409091206002810180546001600160a01b0319166001600160a01b038816179055600381018590558751613cc792890190614854565b5060008181526025602052604090819020600401839055518190602690613cef908890614f79565b90815260200160405180910390208190555080602787604051613d129190614f79565b90815260405190819003602001902055505050505050565b6112ab828260405180602001604052806000815250614378565b81546000908210613da25760405162461bcd60e51b815260206004820152602260248201527f456e756d657261626c655365743a20696e646578206f7574206f6620626f756e604482015261647360f01b6064820152608401610bcb565b826000018281548110613db757613db761533b565b9060005260206000200154905092915050565b60006001600160a01b0384163b15613ecc57604051630a85bd0160e11b81526001600160a01b0385169063150b7a0290613e0e903390899088908890600401615039565b602060405180830381600087803b158015613e2857600080fd5b505af1925050508015613e58575060408051601f3d908101601f19168201909252613e5591810190614e37565b60015b613eb2573d808015613e86576040519150601f19603f3d011682016040523d82523d6000602084013e613e8b565b606091505b508051613eaa5760405162461bcd60e51b8152600401610bcb90615147565b805181602001fd5b6001600160e01b031916630a85bd0160e11b149050611d74565b506001949350505050565b613ee0816143ab565b60008181526019602052604090208054613ef99061528f565b159050610db9576000818152601960205260408120610db9916148d8565b606060238054610ae09061528f565b6060613f3182611e75565b613f955760405162461bcd60e51b815260206004820152602f60248201527f4552433732314d657461646174613a2055524920717565727920666f72206e6f60448201526e3732bc34b9ba32b73a103a37b5b2b760891b6064820152608401610bcb565b6000613f9f613f17565b90506000815111613fbf576040518060200160405280600081525061184c565b80613fc984614452565b604051602001613fda929190614f95565b6040516020818303038152906040529392505050565b60006001600160e01b03198216635a05180f60e01b1480610acb5750610acb82614550565b6001600160a01b0383166140705761406b81601c80546000838152601d60205260408120829055600182018355919091527f0e4562a10381dec21b205ed72637e6b1b523bdd0e4d4d50af5cd23dd4500a2110155565b614093565b816001600160a01b0316836001600160a01b031614614093576140938382614585565b6001600160a01b0382166140aa57610d0181614622565b826001600160a01b0316826001600160a01b031614610d0157610d0182826146d1565b606060006140dc836002615216565b6140e79060026151ea565b67ffffffffffffffff8111156140ff576140ff615351565b6040519080825280601f01601f191660200182016040528015614129576020820181803683370190505b509050600360fc1b816000815181106141445761414461533b565b60200101906001600160f81b031916908160001a905350600f60fb1b816001815181106141735761417361533b565b60200101906001600160f81b031916908160001a9053506000614197846002615216565b6141a29060016151ea565b90505b600181111561421a576f181899199a1a9b1b9c1cb0b131b232b360811b85600f16601081106141d6576141d661533b565b1a60f81b8282815181106141ec576141ec61533b565b60200101906001600160f81b031916908160001a90535060049490941c9361421381615278565b90506141a5565b50831561184c5760405162461bcd60e51b815260206004820181905260248201527f537472696e67733a20686578206c656e67746820696e73756666696369656e746044820152606401610bcb565b6000600160268460405161427d9190614f79565b90815260200160405180910390205411156142f45760405162461bcd60e51b815260206004820152603160248201527f416c726561647920616e204944206173736f63696174656420776974682074686044820152701a5cc81cdbd8da585b081858d8dbdd5b9d607a1b6064820152608401610bcb565b60016027836040516143069190614f79565b90815260200160405180910390205411156120ac5760405162461bcd60e51b815260206004820152602c60248201527f416c726561647920616e204944206173736f636961746564207769746820746860448201526b69732070736575646f6e796d60a01b6064820152608401610bcb565b6143828383614715565b61438f6000848484613dca565b610d015760405162461bcd60e51b8152600401610bcb90615147565b60006143b68261151c565b90506143c4816000846139a8565b6143cf600083611e92565b6001600160a01b03811660009081526015602052604081208054600192906143f8908490615235565b909155505060008281526014602052604080822080546001600160a01b0319169055518391906001600160a01b038416907fddf252ad1be2c89b69c2b068fc378daa952ba7f163c4a11628f55a4df523b3ef908390a45050565b6060816144765750506040805180820190915260018152600360fc1b602082015290565b8160005b81156144a0578061448a816152ca565b91506144999050600a83615202565b915061447a565b60008167ffffffffffffffff8111156144bb576144bb615351565b6040519080825280601f01601f1916602001820160405280156144e5576020820181803683370190505b5090505b8415611d74576144fa600183615235565b9150614507600a866152e5565b6145129060306151ea565b60f81b8183815181106145275761452761533b565b60200101906001600160f81b031916908160001a905350614549600a86615202565b94506144e9565b60006001600160e01b03198216637965db0b60e01b1480610acb57506301ffc9a760e01b6001600160e01b0319831614610acb565b6000600161459284611634565b61459c9190615235565b6000838152601b60205260409020549091508082146145ef576001600160a01b0384166000908152601a602090815260408083208584528252808320548484528184208190558352601b90915290208190555b506000918252601b602090815260408084208490556001600160a01b039094168352601a81528383209183525290812055565b601c5460009061463490600190615235565b6000838152601d6020526040812054601c805493945090928490811061465c5761465c61533b565b9060005260206000200154905080601c838154811061467d5761467d61533b565b6000918252602080832090910192909255828152601d9091526040808220849055858252812055601c8054806146b5576146b5615325565b6001900381819060005260206000200160009055905550505050565b60006146dc83611634565b6001600160a01b039093166000908152601a602090815260408083208684528252808320859055938252601b9052919091209190915550565b6001600160a01b03821661476b5760405162461bcd60e51b815260206004820181905260248201527f4552433732313a206d696e7420746f20746865207a65726f20616464726573736044820152606401610bcb565b61477481611e75565b156147c15760405162461bcd60e51b815260206004820152601c60248201527f4552433732313a20746f6b656e20616c7265616479206d696e746564000000006044820152606401610bcb565b6147cd600083836139a8565b6001600160a01b03821660009081526015602052604081208054600192906147f69084906151ea565b909155505060008181526014602052604080822080546001600160a01b0319166001600160a01b03861690811790915590518392907fddf252ad1be2c89b69c2b068fc378daa952ba7f163c4a11628f55a4df523b3ef908290a45050565b8280546148609061528f565b90600052602060002090601f01602090048101928261488257600085556148c8565b82601f1061489b57805160ff19168380011785556148c8565b828001600101855582156148c8579182015b828111156148c85782518255916020019190600101906148ad565b506148d492915061490e565b5090565b5080546148e49061528f565b6000825580601f106148f4575050565b601f016020900490600052602060002090810190610db991905b5b808211156148d4576000815560010161490f565b600067ffffffffffffffff8084111561493e5761493e615351565b604051601f8501601f19908116603f0116810190828211818310171561496657614966615351565b8160405280935085815286868601111561497f57600080fd5b858560208301376000602087830101525050509392505050565b803561145181615367565b600082601f8301126149b557600080fd5b61184c83833560208501614923565b6000602082840312156149d657600080fd5b813561184c81615367565b6000602082840312156149f357600080fd5b815161184c81615367565b60008060408385031215614a1157600080fd5b8235614a1c81615367565b91506020830135614a2c81615367565b809150509250929050565b600080600060608486031215614a4c57600080fd5b8335614a5781615367565b92506020840135614a6781615367565b929592945050506040919091013590565b60008060008060808587031215614a8e57600080fd5b8435614a9981615367565b93506020850135614aa981615367565b925060408501359150606085013567ffffffffffffffff811115614acc57600080fd5b8501601f81018713614add57600080fd5b614aec87823560208401614923565b91505092959194509250565b60008060408385031215614b0b57600080fd5b8235614b1681615367565b91506020830135614a2c8161537c565b600080600080600080600060e0888a031215614b4157600080fd5b8735614b4c81615367565b9650602088013567ffffffffffffffff80821115614b6957600080fd5b614b758b838c016149a4565b975060408a0135915080821115614b8b57600080fd5b614b978b838c016149a4565b965060608a01359150614ba982615367565b9094506080890135935060a0890135925060c08901359080821115614bcd57600080fd5b50614bda8a828b016149a4565b91505092959891949750929550565b600080600080600080600060e0888a031215614c0457600080fd5b8735614c0f81615367565b9650602088013567ffffffffffffffff80821115614c2c57600080fd5b614c388b838c016149a4565b975060408a0135915080821115614c4e57600080fd5b50614c5b8a828b016149a4565b9550506060880135614c6c81615367565b9699959850939660808101359560a0820135955060c0909101359350915050565b600080600080600080600080610100898b031215614caa57600080fd5b614cb389614999565b9750602089013567ffffffffffffffff80821115614cd057600080fd5b614cdc8c838d016149a4565b985060408b0135915080821115614cf257600080fd5b614cfe8c838d016149a4565b9750614d0c60608c01614999565b965060808b0135955060a08b0135945060c08b0135935060e08b0135915080821115614d3757600080fd5b50614d448b828c016149a4565b9150509295985092959890939650565b60008060408385031215614d6757600080fd5b8235614d7281615367565b946020939093013593505050565b600060208284031215614d9257600080fd5b813561184c8161537c565b600060208284031215614daf57600080fd5b815161184c8161537c565b600060208284031215614dcc57600080fd5b5035919050565b60008060408385031215614de657600080fd5b823591506020830135614a2c81615367565b60008060408385031215614e0b57600080fd5b50508035926020909101359150565b600060208284031215614e2c57600080fd5b813561184c8161538a565b600060208284031215614e4957600080fd5b815161184c8161538a565b600060208284031215614e6657600080fd5b813567ffffffffffffffff811115614e7d57600080fd5b611d74848285016149a4565b600060208284031215614e9b57600080fd5b5051919050565b600080600060608486031215614eb757600080fd5b833592506020840135614a6781615367565b60008060008060808587031215614edf57600080fd5b843593506020850135614ef181615367565b93969395505050506040820135916060013590565b60008060408385031215614f1957600080fd5b82359150602083013567ffffffffffffffff811115614f3757600080fd5b614f43858286016149a4565b9150509250929050565b60008151808452614f6581602086016020860161524c565b601f01601f19169290920160200192915050565b60008251614f8b81846020870161524c565b9190910192915050565b60008351614fa781846020880161524c565b835190830190614fbb81836020880161524c565b01949350505050565b7f416363657373436f6e74726f6c3a206163636f756e7420000000000000000000815260008351614ffc81601785016020880161524c565b7001034b99036b4b9b9b4b733903937b6329607d1b601791840191820152835161502d81602884016020880161524c565b01602801949350505050565b6001600160a01b038581168252841660208201526040810183905260806060820181905260009061506c90830184614f4d565b9695505050505050565b60208152600061184c6020830184614f4d565b60808152600061509c6080830187614f4d565b82810360208401526150ae8187614f4d565b6001600160a01b0395909516604084015250506060015292915050565b60a0815260006150de60a0830188614f4d565b82810360208401526150f08188614f4d565b6001600160a01b039690961660408401525050606081019290925260809091015292915050565b6020808252601690820152752cb7ba93b932903737ba103a3432903130b4b634b33360511b604082015260600190565b60208082526032908201527f4552433732313a207472616e7366657220746f206e6f6e20455243373231526560408201527131b2b4bb32b91034b6b83632b6b2b73a32b960711b606082015260800190565b60208082526031908201527f4552433732313a207472616e736665722063616c6c6572206973206e6f74206f6040820152701ddb995c881b9bdc88185c1c1c9bdd9959607a1b606082015260800190565b600082198211156151fd576151fd6152f9565b500190565b6000826152115761521161530f565b500490565b6000816000190483118215151615615230576152306152f9565b500290565b600082821015615247576152476152f9565b500390565b60005b8381101561526757818101518382015260200161524f565b83811115610d815750506000910152565b600081615287576152876152f9565b506000190190565b600181811c908216806152a357607f821691505b602082108114156152c457634e487b7160e01b600052602260045260246000fd5b50919050565b60006000198214156152de576152de6152f9565b5060010190565b6000826152f4576152f461530f565b500690565b634e487b7160e01b600052601160045260246000fd5b634e487b7160e01b600052601260045260246000fd5b634e487b7160e01b600052603160045260246000fd5b634e487b7160e01b600052603260045260246000fd5b634e487b7160e01b600052604160045260246000fd5b6001600160a01b0381168114610db957600080fd5b8015158114610db957600080fd5b6001600160e01b031981168114610db957600080fdfefa8e4989e1d689f7bc5c4b25b87efb51fecdecb19ba62847e29c759e12a89acd048bc71fa1cb2c119c339cf9cf00a97996a19a9d991ce5fe049f2fa5459e7990f0f4b159a6e2a4815eb3ca3df080bfa70c9270662c59bcaa4479a456220183e60538d24a8b7882d7b2e36af243d4af61c23e86e3daa6cb8c887b53220b2f57207c9d7f6f02908185bffb3f7fc9afb29fd7bf93675af8fd4b655ee05c2cee1e0ea2646970667358221220d99047c6e1ae561d048d2acf9902ea18f8b18bd841f2ed31127096d3acf00e8e64736f6c63430008070033",
  "immutableReferences": {},
  "source": "pragma solidity ^0.8.0;\n\nimport \"../SmartConsensusMachine.sol\";\nimport \"../AddressManagerReciever.sol\";\n\nimport \"@openzeppelin/contracts/token/ERC721/extensions/ERC721Enumerable.sol\";\nimport \"@openzeppelin/contracts/token/ERC721/extensions/ERC721URIStorage.sol\";\nimport \"@openzeppelin/contracts/token/ERC721/ERC721.sol\";\nimport \"@openzeppelin/contracts/security/Pausable.sol\";\n\ncontract IdentityBadge is SmartConsensusMachine, ERC721, Pausable, ERC721URIStorage, ERC721Enumerable {\n    \n    uint256 private _tokenIdGenerator = 1;\n\n    bool public isForeverLocked = false;\n\n    string public socialPlatform;\n    string public badgeColor;\n    string public badgeName;\n    string public baseURI_ = string(abi.encodePacked(\"ipfs\", \":\", \"/\", \"/\"));\n\n    constructor(string memory _badgeName, string memory _badgeSymbol, string memory _socialPlatform, address _AddressManagerAddress)\n        ERC721(_badgeName, _badgeSymbol)\n        SmartConsensusMachine(_AddressManagerAddress) {\n       \n        updateAllAddresses();\n        \n        badgeColor = _badgeSymbol;\n        badgeName = _badgeName;\n        socialPlatform = socialPlatform;\n\n    }      \n    \n    //******************************\n    //                            **\n    //     Setup mapping          ** \n    //                            **\n    //******************************\n    struct IDCard { // struct will store the psuedonym and avatar NFT information.\n        string pseudonym;\n        string socialHandle;\n        address avatarTokenAddress;\n        uint avatarTokenId;\n        uint avatarNetworkId;\n    }\n\n\n    mapping (uint => bool) public UserTransferApproved;\n    mapping (uint => IDCard) public IDCardInfo; \n    mapping (string => uint) public SocialHandle;\n    mapping (string => uint) public Pseudonym;\n\n    function _checkAvailibility(string memory _socialHandle, string memory _pseudonym) internal returns (bool) {\n        require(SocialHandle[_socialHandle] <= 1, \"Already an ID associated with this social account\");\n        require(Pseudonym[_pseudonym] <= 1, \"Already an ID associated with this pseudonym\");\n        return true;\n    }\n\n    \n    function _setBadgeInfo(string memory _pseudonym, string memory _socialHandle, address _avatarTokenAddress, uint _avatarTokenId, uint _tokenId) internal {\n        \n        \n        require(_checkAvailibility(_socialHandle, _pseudonym));\n        IDCardInfo[_tokenId].socialHandle = _socialHandle;\n        IDCardInfo[_tokenId].avatarTokenAddress = _avatarTokenAddress; \n        IDCardInfo[_tokenId].avatarTokenId = _avatarTokenId;\n        IDCardInfo[_tokenId].pseudonym = _pseudonym;\n\n        //Assumes Mainnet if not specified...\n        IDCardInfo[_tokenId].avatarNetworkId = 1;\n\n        SocialHandle[_socialHandle] = _tokenId;\n        Pseudonym[_pseudonym] = _tokenId;\n    }\n\n    function _setBadgeInfo(string memory _pseudonym, string memory _socialHandle, address _avatarTokenAddress, uint _avatarTokenId, uint _avatarNetworkId, uint _tokenId) internal {\n        \n        require(_checkAvailibility(_socialHandle, _pseudonym));\n\n        IDCardInfo[_tokenId].socialHandle = _socialHandle;\n        IDCardInfo[_tokenId].avatarTokenAddress = _avatarTokenAddress; \n        IDCardInfo[_tokenId].avatarTokenId = _avatarTokenId;\n        IDCardInfo[_tokenId].pseudonym = _pseudonym;\n        IDCardInfo[_tokenId].avatarNetworkId = _avatarNetworkId;\n\n        SocialHandle[_socialHandle] = _tokenId;\n        Pseudonym[_pseudonym] = _tokenId;\n    }\n\n    function updateAvatar(address _avatarTokenAddress, uint _avatarTokenId) public {\n        require(balanceOf(msg.sender) > 0);\n        uint _tokenId = tokenOfOwnerByIndex(msg.sender, 0);\n        _updateAvatar(_tokenId, _avatarTokenAddress, _avatarTokenId);\n    }\n\n    function updateAvatar(uint _tokenId, address _avatarTokenAddress, uint _avatarTokenId) public {\n        require(_isApprovedOrOwner(msg.sender, _tokenId));\n        _updateAvatar(_tokenId, _avatarTokenAddress, _avatarTokenId);\n    }\n\n    function updateAvatar(uint _tokenId, address _avatarTokenAddress, uint _avatarTokenId, uint _avatarNetworkId) public {\n        require(_isApprovedOrOwner(msg.sender, _tokenId));\n        _updateAvatar(_tokenId, _avatarTokenAddress, _avatarTokenId, _avatarNetworkId);\n    }\n\n    function updateImageHash(uint256 _tokenId, string memory _contentHash) public {\n        require(_isApprovedOrOwner(msg.sender, _tokenId));\n        _setTokenURI( _tokenId, _contentHash);\n    }\n\n    function _updateAvatar(uint _tokenId, address _avatarTokenAddress, uint _avatarTokenId) internal {\n        IDCardInfo[_tokenId].avatarTokenAddress = _avatarTokenAddress; \n        IDCardInfo[_tokenId].avatarTokenId = _avatarTokenId;\n    }\n\n    function _updateAvatar(uint _tokenId, address _avatarTokenAddress, uint _avatarTokenId, uint _avatarNetworkId) internal {\n        IDCardInfo[_tokenId].avatarTokenAddress = _avatarTokenAddress; \n        IDCardInfo[_tokenId].avatarTokenId = _avatarTokenId;\n        IDCardInfo[_tokenId].avatarNetworkId = _avatarNetworkId;\n    }\n\n    function getIDFromHandle(string memory _SocialHandle) public view returns (uint _tokenId) {\n        _tokenId = SocialHandle[_SocialHandle];\n        return ( _tokenId );\n    }\n\n    function getBadgeInfo(uint _tokenId) public view returns (string memory _pseudonym, string memory _socialHandle, address _avatarTokenAddress, uint _avatarTokenId ) {\n        _pseudonym = IDCardInfo[_tokenId].pseudonym;\n        _avatarTokenAddress = IDCardInfo[_tokenId].avatarTokenAddress;\n        _avatarTokenId = IDCardInfo[_tokenId].avatarTokenId;\n        _socialHandle =IDCardInfo[_tokenId].socialHandle;\n        return (_pseudonym, _socialHandle, _avatarTokenAddress, _avatarTokenId );\n    }\n\n\n\n    /////////////////////////////////////////////////////////////////////////////////////////////////\n    /////////////////////////////////////////////////////////////////////////////////////////////////\n    /// @dev                                                                                     ////\n    /// Issuance Desk                                                                            ////\n    /////////////////////////////////////////////////////////////////////////////////////////////////\n    /////////////////////////////////////////////////////////////////////////////////////////////////\n\n\n    function issueBadge(address receivingAddress, string memory _pseudonym, string memory _socialHandle,\n                            address _avatarTokenAddress, uint _avatarTokenId, uint _tokenId, string memory _TokenURI) public virtual\n        BAILIFF\n        returns(uint newId) {\n            uint _avatarNetworkId = 1;\n            string memory _tokenURI = \"\";\n            newId = _issueBadge(receivingAddress, _pseudonym, _socialHandle, _avatarTokenAddress, _avatarTokenId, _avatarNetworkId, _tokenURI); \n     }\n\n    function issueBadge(address receivingAddress, string memory _pseudonym, string memory _socialHandle, address _avatarTokenAddress,\n                            uint _avatarTokenId, uint _avatarNetworkId, uint _tokenId) public virtual\n        BAILIFF\n        returns(uint newId) {\n        string memory _tokenURI = \"\";\n        newId = _issueBadge(receivingAddress, _pseudonym, _socialHandle, _avatarTokenAddress, _avatarTokenId, _avatarNetworkId, _tokenURI);\n       \n    }\n    \n    function issueBadge(address receivingAddress, string memory _pseudonym, string memory _socialHandle, address _avatarTokenAddress,\n                            uint _avatarTokenId, uint _avatarNetworkId, uint _tokenId, string memory _tokenURI) public virtual\n        BAILIFF\n        returns(uint newId) {\n        newId = _issueBadge(receivingAddress, _pseudonym, _socialHandle, _avatarTokenAddress, _avatarTokenId, _avatarNetworkId, _tokenURI);       \n    }\n\n    function _issueBadge(address receivingAddress, string memory _pseudonym, string memory _socialHandle, address _avatarTokenAddress,\n                            uint _avatarTokenId, uint _avatarNetworkId, string memory _tokenURI) internal virtual\n        returns(uint newId) { // Right now function also increments and returns tokenId, this will be removed.\n        require((receivingAddress != msg.sender) && (receivingAddress != address(0)));\n        require(balanceOf(receivingAddress) <= 0, \"Only one ID per wallet\");\n        newId = _tokenIdGenerator;\n        _setBadgeInfo(_pseudonym, _socialHandle, _avatarTokenAddress, _avatarTokenId, _avatarNetworkId, newId);\n        _safeMint(receivingAddress, newId);\n        _setTokenURI(newId, _tokenURI);\n        _tokenIdGenerator += 1;\n        \n       \n     }\n\n\n    function revokeBadge(uint _tokenId) public {\n        require(isApprovedForAll(ownerOf(_tokenId), msg.sender),\n                    \"Please visit the DAO to renounce your citizenship!\") ;\n        _burn(_tokenId);\n    }\n\n\n    /////////////////////////////////////////////////////////////////////////////////////////////////\n    /////////////////////////////////////////////////////////////////////////////////////////////////\n    /// @dev                                                                                     ////\n    /// Maintanence\\\\\\\\\\\\\\\\\\\\\\\\\\\\\\\\\\\\\\\\\\\\\\\\\\\\\\                                                   ////\n    /////////////////////////////////////////////////////////////////////////////////////////////////\n    /////////////////////////////////////////////////////////////////////////////////////////////////\n    // Pause the contract if neccesary. Only the Gavels can do this.\n    function pause() public GAVELS {\n        _pause();\n    }\n\n    function unpause() public GAVELS {\n        require(isForeverLocked == false);\n        _unpause();\n    }\n\n    function _burnAllBadges() internal returns (bool) {\n        // burn all badges\n        uint256 index = 0;\n        for (index = 0; index < _tokenIdGenerator; index++) {\n            if (_exists(index)) {\n                _burn(index);\n            }   \n        }\n        _tokenIdGenerator = 0;\n        return true;\n    }\n\n    function refreshBadges(bool _thisIsNotReversible) public THE_COURT returns (bool) {\n\n        if(_thisIsNotReversible == true) {\n            // burn all badges\n            _burnAllBadges();\n            return true;\n        } else {return false;}\n    }\n\n\n    function destroyAndLockContract(uint _valueMustBe69) public THE_COURT returns (bool) {\n\n        if(_valueMustBe69 == 69) {\n            // burn all badges\n            _burnAllBadges();\n            // set protocol to locked\n            _pause();\n            isForeverLocked = true;\n            return isForeverLocked;\n        } else {return false;}\n    }\n\n    function setBaseURI(string memory _baseURIString) public BAILIFF returns (bool) {\n        _setBaseURI(_baseURIString);\n        return true;\n    }\n\n    function _setBaseURI(string memory _baseURIString) internal returns (bool) {\n        baseURI_ = _baseURIString;\n        return true;\n    }\n\n    function _baseURI() internal view virtual override returns (string memory) {\n        return baseURI_;\n    }\n    function tokenURI(uint256 _tokenId) public view virtual override(ERC721, ERC721URIStorage) returns (string memory _URI) {\n        _URI = ERC721URIStorage.tokenURI(_tokenId);\n    }\n\n    /////////////////////////////////////////////////////////////////////////////////////////////////\n    /////////////////////////////////////////////////////////////////////////////////////////////////\n    /// @dev                                                                                     ////\n    /// Transfer rules                                                                           ////\n    /////////////////////////////////////////////////////////////////////////////////////////////////\n    /////////////////////////////////////////////////////////////////////////////////////////////////\n    \n\n    function approveUserTransfer(uint _tokenId) public BAILIFF{\n        require(_approveTransfer(_tokenId));\n    }\n\n    function _approveTransfer(uint _tokenId) internal returns (bool) {\n        UserTransferApproved[_tokenId] = true;\n        return true;\n    }\n\n    function _undoApproveTransfer(uint _tokenId) internal returns (bool) {\n        UserTransferApproved[_tokenId] = false;\n    }\n\n    function isApprovedForAll(address owner, address operator)\n    public view virtual\n    override (ERC721)\n    returns (bool) {\n\n        bool isApproved = ( hasRole(THE_COURT_ROLE, operator)\n                            || hasRole(JURY_BAILIFF, operator));\n        return isApproved;\n    }\n\n    function setApprovalForAll(address operator, bool approved)\n    public virtual\n    override (ERC721) {\n        \n         require(   hasRole(THE_COURT_ROLE, msg.sender)\n                    || hasRole(JURY_BAILIFF, msg.sender),\n                    \"You do not have permission to set approval for all\");\n        super.setApprovalForAll(operator, approved);\n    }\n\n    function _beforeTokenTransfer(address from, address to, uint256 _tokenId)\n        internal\n        override(ERC721, ERC721Enumerable)\n    {\n        require(isApprovedForAll(from, msg.sender) || UserTransferApproved[_tokenId], \"Please visit the DAO to change your address!\");\n         \n        if (UserTransferApproved[_tokenId] && _isApprovedOrOwner(msg.sender, _tokenId)) {\n            require(UserTransferApproved[_tokenId]);\n            require(_undoApproveTransfer(_tokenId));\n            super._beforeTokenTransfer(from, to, _tokenId);\n        } else {\n            super._beforeTokenTransfer(from, to, _tokenId);\n        }\n\n    }\n    \n    function _burn(uint256 tokenId) internal virtual override (ERC721, ERC721URIStorage){\n        ERC721URIStorage._burn(tokenId);\n    }\n\n    function supportsInterface(bytes4 interfaceId)\n        public\n        view\n        override(ERC721, ERC721Enumerable, AccessControlEnumerable)\n        returns (bool)\n    {\n        return super.supportsInterface(interfaceId);\n    }\n\n    /////////////////////////////////////////////////////////////////////////////////////////////////\n    /////////////////////////////////////////////////////////////////////////////////////////////////\n    /// @dev                                                                                     ////\n    /// End                                                                                      ////\n    /////////////////////////////////////////////////////////////////////////////////////////////////\n    /////////////////////////////////////////////////////////////////////////////////////////////////\n}",
  "sourcePath": "/home/n/Desktop/PinkSlips_FrontEnd_REFORMAT/contracts/src/ERC721/IdentityBadge.sol",
  "compiler": {
    "name": "solc",
    "version": "0.8.7+commit.e28d00a7.Emscripten.clang"
  },
  "schemaVersion": "3.4.1",
  "updatedAt": "2021-08-12T05:21:27.957Z",
  "devdoc": {
    "kind": "dev",
    "methods": {
      "approve(address,uint256)": {
        "details": "See {IERC721-approve}."
      },
      "approveUserTransfer(uint256)": {
        "details": "//// Transfer rules                                                                           ////"
      },
      "balanceOf(address)": {
        "details": "See {IERC721-balanceOf}."
      },
      "getApproved(uint256)": {
        "details": "See {IERC721-getApproved}."
      },
      "getRoleAdmin(bytes32)": {
        "details": "Returns the admin role that controls `role`. See {grantRole} and {revokeRole}. To change a role's admin, use {_setRoleAdmin}."
      },
      "getRoleMember(bytes32,uint256)": {
        "details": "Returns one of the accounts that have `role`. `index` must be a value between 0 and {getRoleMemberCount}, non-inclusive. Role bearers are not sorted in any particular way, and their ordering may change at any point. WARNING: When using {getRoleMember} and {getRoleMemberCount}, make sure you perform all queries on the same block. See the following https://forum.openzeppelin.com/t/iterating-over-elements-on-enumerableset-in-openzeppelin-contracts/2296[forum post] for more information."
      },
      "getRoleMemberCount(bytes32)": {
        "details": "Returns the number of accounts that have `role`. Can be used together with {getRoleMember} to enumerate all bearers of a role."
      },
      "grantRole(bytes32,address)": {
        "details": "Overload {grantRole} to track enumerable memberships"
      },
      "hasRole(bytes32,address)": {
        "details": "Returns `true` if `account` has been granted `role`."
      },
      "isApprovedForAll(address,address)": {
        "details": "See {IERC721-isApprovedForAll}."
      },
      "issueBadge(address,string,string,address,uint256,uint256,string)": {
        "details": "//// Issuance Desk                                                                            ////"
      },
      "name()": {
        "details": "See {IERC721Metadata-name}."
      },
      "ownerOf(uint256)": {
        "details": "See {IERC721-ownerOf}."
      },
      "pause()": {
        "details": "//// Maintanence\\\\\\\\\\\\\\\\\\\\\\\\\\\\\\\\\\\\\\\\\\\\\\\\\\\\\\                                                   ////"
      },
      "paused()": {
        "details": "Returns true if the contract is paused, and false otherwise."
      },
      "renounceRole(bytes32,address)": {
        "details": "Overload {renounceRole} to track enumerable memberships"
      },
      "revokeRole(bytes32,address)": {
        "details": "Overload {revokeRole} to track enumerable memberships"
      },
      "safeTransferFrom(address,address,uint256)": {
        "details": "See {IERC721-safeTransferFrom}."
      },
      "safeTransferFrom(address,address,uint256,bytes)": {
        "details": "See {IERC721-safeTransferFrom}."
      },
      "setApprovalForAll(address,bool)": {
        "details": "See {IERC721-setApprovalForAll}."
      },
      "symbol()": {
        "details": "See {IERC721Metadata-symbol}."
      },
      "tokenByIndex(uint256)": {
        "details": "See {IERC721Enumerable-tokenByIndex}."
      },
      "tokenOfOwnerByIndex(address,uint256)": {
        "details": "See {IERC721Enumerable-tokenOfOwnerByIndex}."
      },
      "totalSupply()": {
        "details": "See {IERC721Enumerable-totalSupply}."
      },
      "transferFrom(address,address,uint256)": {
        "details": "See {IERC721-transferFrom}."
      }
    },
    "version": 1
  },
  "userdoc": {
    "kind": "user",
    "methods": {},
    "version": 1
  }
}