{
  "contractName": "JuryPool",
  "abi": [
    {
      "inputs": [
        {
          "internalType": "address",
          "name": "_AddressManagerAddress",
          "type": "address"
        }
      ],
      "stateMutability": "nonpayable",
      "type": "constructor"
    },
    {
      "anonymous": false,
      "inputs": [
        {
          "indexed": true,
          "internalType": "address",
          "name": "owner",
          "type": "address"
        },
        {
          "indexed": true,
          "internalType": "address",
          "name": "spender",
          "type": "address"
        },
        {
          "indexed": false,
          "internalType": "uint256",
          "name": "value",
          "type": "uint256"
        }
      ],
      "name": "Approval",
      "type": "event"
    },
    {
      "anonymous": false,
      "inputs": [
        {
          "indexed": true,
          "internalType": "bytes32",
          "name": "role",
          "type": "bytes32"
        },
        {
          "indexed": true,
          "internalType": "bytes32",
          "name": "previousAdminRole",
          "type": "bytes32"
        },
        {
          "indexed": true,
          "internalType": "bytes32",
          "name": "newAdminRole",
          "type": "bytes32"
        }
      ],
      "name": "RoleAdminChanged",
      "type": "event"
    },
    {
      "anonymous": false,
      "inputs": [
        {
          "indexed": true,
          "internalType": "bytes32",
          "name": "role",
          "type": "bytes32"
        },
        {
          "indexed": true,
          "internalType": "address",
          "name": "account",
          "type": "address"
        },
        {
          "indexed": true,
          "internalType": "address",
          "name": "sender",
          "type": "address"
        }
      ],
      "name": "RoleGranted",
      "type": "event"
    },
    {
      "anonymous": false,
      "inputs": [
        {
          "indexed": true,
          "internalType": "bytes32",
          "name": "role",
          "type": "bytes32"
        },
        {
          "indexed": true,
          "internalType": "address",
          "name": "account",
          "type": "address"
        },
        {
          "indexed": true,
          "internalType": "address",
          "name": "sender",
          "type": "address"
        }
      ],
      "name": "RoleRevoked",
      "type": "event"
    },
    {
      "anonymous": false,
      "inputs": [
        {
          "indexed": false,
          "internalType": "uint256",
          "name": "id",
          "type": "uint256"
        }
      ],
      "name": "Snapshot",
      "type": "event"
    },
    {
      "anonymous": false,
      "inputs": [
        {
          "indexed": true,
          "internalType": "address",
          "name": "from",
          "type": "address"
        },
        {
          "indexed": true,
          "internalType": "address",
          "name": "to",
          "type": "address"
        },
        {
          "indexed": false,
          "internalType": "uint256",
          "name": "value",
          "type": "uint256"
        }
      ],
      "name": "Transfer",
      "type": "event"
    },
    {
      "inputs": [],
      "name": "AddressManagerAddress",
      "outputs": [
        {
          "internalType": "address",
          "name": "",
          "type": "address"
        }
      ],
      "stateMutability": "view",
      "type": "function"
    },
    {
      "inputs": [],
      "name": "ChadBadgeAddress",
      "outputs": [
        {
          "internalType": "address",
          "name": "",
          "type": "address"
        }
      ],
      "stateMutability": "view",
      "type": "function"
    },
    {
      "inputs": [],
      "name": "DEFAULT_ADMIN_ROLE",
      "outputs": [
        {
          "internalType": "bytes32",
          "name": "",
          "type": "bytes32"
        }
      ],
      "stateMutability": "view",
      "type": "function"
    },
    {
      "inputs": [],
      "name": "GAVELS_BAILIFF",
      "outputs": [
        {
          "internalType": "bytes32",
          "name": "",
          "type": "bytes32"
        }
      ],
      "stateMutability": "view",
      "type": "function"
    },
    {
      "inputs": [],
      "name": "GavelDAOAgent",
      "outputs": [
        {
          "internalType": "address",
          "name": "",
          "type": "address"
        }
      ],
      "stateMutability": "view",
      "type": "function"
    },
    {
      "inputs": [],
      "name": "GavelTokenAddress",
      "outputs": [
        {
          "internalType": "address",
          "name": "",
          "type": "address"
        }
      ],
      "stateMutability": "view",
      "type": "function"
    },
    {
      "inputs": [],
      "name": "GavelVote",
      "outputs": [
        {
          "internalType": "bool",
          "name": "",
          "type": "bool"
        }
      ],
      "stateMutability": "view",
      "type": "function"
    },
    {
      "inputs": [],
      "name": "GoldStarAddress",
      "outputs": [
        {
          "internalType": "address",
          "name": "",
          "type": "address"
        }
      ],
      "stateMutability": "view",
      "type": "function"
    },
    {
      "inputs": [],
      "name": "JERK_ROLE",
      "outputs": [
        {
          "internalType": "bytes32",
          "name": "",
          "type": "bytes32"
        }
      ],
      "stateMutability": "view",
      "type": "function"
    },
    {
      "inputs": [],
      "name": "JURY_BAILIFF",
      "outputs": [
        {
          "internalType": "bytes32",
          "name": "",
          "type": "bytes32"
        }
      ],
      "stateMutability": "view",
      "type": "function"
    },
    {
      "inputs": [],
      "name": "JuryDAOAgent",
      "outputs": [
        {
          "internalType": "address",
          "name": "",
          "type": "address"
        }
      ],
      "stateMutability": "view",
      "type": "function"
    },
    {
      "inputs": [],
      "name": "JuryPoolAddress",
      "outputs": [
        {
          "internalType": "address",
          "name": "",
          "type": "address"
        }
      ],
      "stateMutability": "view",
      "type": "function"
    },
    {
      "inputs": [],
      "name": "JuryVote",
      "outputs": [
        {
          "internalType": "bool",
          "name": "",
          "type": "bool"
        }
      ],
      "stateMutability": "view",
      "type": "function"
    },
    {
      "inputs": [],
      "name": "MINI_BAILIFF_ROLE",
      "outputs": [
        {
          "internalType": "bytes32",
          "name": "",
          "type": "bytes32"
        }
      ],
      "stateMutability": "view",
      "type": "function"
    },
    {
      "inputs": [],
      "name": "MiniBailiff",
      "outputs": [
        {
          "internalType": "address",
          "name": "",
          "type": "address"
        }
      ],
      "stateMutability": "view",
      "type": "function"
    },
    {
      "inputs": [],
      "name": "PinkSlipAddress",
      "outputs": [
        {
          "internalType": "address",
          "name": "",
          "type": "address"
        }
      ],
      "stateMutability": "view",
      "type": "function"
    },
    {
      "inputs": [],
      "name": "RedPenTokenAddress",
      "outputs": [
        {
          "internalType": "address",
          "name": "",
          "type": "address"
        }
      ],
      "stateMutability": "view",
      "type": "function"
    },
    {
      "inputs": [],
      "name": "THE_COURT_ROLE",
      "outputs": [
        {
          "internalType": "bytes32",
          "name": "",
          "type": "bytes32"
        }
      ],
      "stateMutability": "view",
      "type": "function"
    },
    {
      "inputs": [],
      "name": "TheCourtAddress",
      "outputs": [
        {
          "internalType": "address",
          "name": "",
          "type": "address"
        }
      ],
      "stateMutability": "view",
      "type": "function"
    },
    {
      "inputs": [],
      "name": "TreasuryAddress",
      "outputs": [
        {
          "internalType": "address",
          "name": "",
          "type": "address"
        }
      ],
      "stateMutability": "view",
      "type": "function"
    },
    {
      "inputs": [],
      "name": "addressManager",
      "outputs": [
        {
          "internalType": "contract AddressManager",
          "name": "",
          "type": "address"
        }
      ],
      "stateMutability": "view",
      "type": "function"
    },
    {
      "inputs": [
        {
          "internalType": "address",
          "name": "owner",
          "type": "address"
        },
        {
          "internalType": "address",
          "name": "spender",
          "type": "address"
        }
      ],
      "name": "allowance",
      "outputs": [
        {
          "internalType": "uint256",
          "name": "",
          "type": "uint256"
        }
      ],
      "stateMutability": "view",
      "type": "function"
    },
    {
      "inputs": [
        {
          "internalType": "address",
          "name": "spender",
          "type": "address"
        },
        {
          "internalType": "uint256",
          "name": "amount",
          "type": "uint256"
        }
      ],
      "name": "approve",
      "outputs": [
        {
          "internalType": "bool",
          "name": "",
          "type": "bool"
        }
      ],
      "stateMutability": "nonpayable",
      "type": "function"
    },
    {
      "inputs": [
        {
          "internalType": "address",
          "name": "account",
          "type": "address"
        }
      ],
      "name": "balanceOf",
      "outputs": [
        {
          "internalType": "uint256",
          "name": "",
          "type": "uint256"
        }
      ],
      "stateMutability": "view",
      "type": "function"
    },
    {
      "inputs": [
        {
          "internalType": "address",
          "name": "account",
          "type": "address"
        },
        {
          "internalType": "uint256",
          "name": "snapshotId",
          "type": "uint256"
        }
      ],
      "name": "balanceOfAt",
      "outputs": [
        {
          "internalType": "uint256",
          "name": "",
          "type": "uint256"
        }
      ],
      "stateMutability": "view",
      "type": "function"
    },
    {
      "inputs": [],
      "name": "decimals",
      "outputs": [
        {
          "internalType": "uint8",
          "name": "",
          "type": "uint8"
        }
      ],
      "stateMutability": "view",
      "type": "function"
    },
    {
      "inputs": [
        {
          "internalType": "address",
          "name": "spender",
          "type": "address"
        },
        {
          "internalType": "uint256",
          "name": "subtractedValue",
          "type": "uint256"
        }
      ],
      "name": "decreaseAllowance",
      "outputs": [
        {
          "internalType": "bool",
          "name": "",
          "type": "bool"
        }
      ],
      "stateMutability": "nonpayable",
      "type": "function"
    },
    {
      "inputs": [
        {
          "internalType": "bytes32",
          "name": "role",
          "type": "bytes32"
        }
      ],
      "name": "getRoleAdmin",
      "outputs": [
        {
          "internalType": "bytes32",
          "name": "",
          "type": "bytes32"
        }
      ],
      "stateMutability": "view",
      "type": "function"
    },
    {
      "inputs": [
        {
          "internalType": "bytes32",
          "name": "role",
          "type": "bytes32"
        },
        {
          "internalType": "uint256",
          "name": "index",
          "type": "uint256"
        }
      ],
      "name": "getRoleMember",
      "outputs": [
        {
          "internalType": "address",
          "name": "",
          "type": "address"
        }
      ],
      "stateMutability": "view",
      "type": "function"
    },
    {
      "inputs": [
        {
          "internalType": "bytes32",
          "name": "role",
          "type": "bytes32"
        }
      ],
      "name": "getRoleMemberCount",
      "outputs": [
        {
          "internalType": "uint256",
          "name": "",
          "type": "uint256"
        }
      ],
      "stateMutability": "view",
      "type": "function"
    },
    {
      "inputs": [
        {
          "internalType": "bytes32",
          "name": "role",
          "type": "bytes32"
        },
        {
          "internalType": "address",
          "name": "account",
          "type": "address"
        }
      ],
      "name": "grantRole",
      "outputs": [],
      "stateMutability": "nonpayable",
      "type": "function"
    },
    {
      "inputs": [
        {
          "internalType": "bytes32",
          "name": "role",
          "type": "bytes32"
        },
        {
          "internalType": "address",
          "name": "account",
          "type": "address"
        }
      ],
      "name": "hasRole",
      "outputs": [
        {
          "internalType": "bool",
          "name": "",
          "type": "bool"
        }
      ],
      "stateMutability": "view",
      "type": "function"
    },
    {
      "inputs": [
        {
          "internalType": "address",
          "name": "spender",
          "type": "address"
        },
        {
          "internalType": "uint256",
          "name": "addedValue",
          "type": "uint256"
        }
      ],
      "name": "increaseAllowance",
      "outputs": [
        {
          "internalType": "bool",
          "name": "",
          "type": "bool"
        }
      ],
      "stateMutability": "nonpayable",
      "type": "function"
    },
    {
      "inputs": [],
      "name": "jerkSanctions",
      "outputs": [
        {
          "internalType": "bool",
          "name": "",
          "type": "bool"
        }
      ],
      "stateMutability": "view",
      "type": "function"
    },
    {
      "inputs": [],
      "name": "name",
      "outputs": [
        {
          "internalType": "string",
          "name": "",
          "type": "string"
        }
      ],
      "stateMutability": "view",
      "type": "function"
    },
    {
      "inputs": [],
      "name": "redPens",
      "outputs": [
        {
          "internalType": "contract ERC20",
          "name": "",
          "type": "address"
        }
      ],
      "stateMutability": "view",
      "type": "function"
    },
    {
      "inputs": [
        {
          "internalType": "bytes32",
          "name": "role",
          "type": "bytes32"
        },
        {
          "internalType": "address",
          "name": "account",
          "type": "address"
        }
      ],
      "name": "renounceRole",
      "outputs": [],
      "stateMutability": "nonpayable",
      "type": "function"
    },
    {
      "inputs": [],
      "name": "resetVote",
      "outputs": [],
      "stateMutability": "nonpayable",
      "type": "function"
    },
    {
      "inputs": [
        {
          "internalType": "bytes32",
          "name": "role",
          "type": "bytes32"
        },
        {
          "internalType": "address",
          "name": "account",
          "type": "address"
        }
      ],
      "name": "revokeRole",
      "outputs": [],
      "stateMutability": "nonpayable",
      "type": "function"
    },
    {
      "inputs": [
        {
          "internalType": "bytes4",
          "name": "interfaceId",
          "type": "bytes4"
        }
      ],
      "name": "supportsInterface",
      "outputs": [
        {
          "internalType": "bool",
          "name": "",
          "type": "bool"
        }
      ],
      "stateMutability": "view",
      "type": "function"
    },
    {
      "inputs": [],
      "name": "symbol",
      "outputs": [
        {
          "internalType": "string",
          "name": "",
          "type": "string"
        }
      ],
      "stateMutability": "view",
      "type": "function"
    },
    {
      "inputs": [],
      "name": "syncAllRoles",
      "outputs": [],
      "stateMutability": "nonpayable",
      "type": "function"
    },
    {
      "inputs": [
        {
          "internalType": "bytes32",
          "name": "ROLE_TO_SYNC",
          "type": "bytes32"
        }
      ],
      "name": "syncSingleRole",
      "outputs": [],
      "stateMutability": "nonpayable",
      "type": "function"
    },
    {
      "inputs": [],
      "name": "syncVotes",
      "outputs": [],
      "stateMutability": "nonpayable",
      "type": "function"
    },
    {
      "inputs": [],
      "name": "totalSupply",
      "outputs": [
        {
          "internalType": "uint256",
          "name": "",
          "type": "uint256"
        }
      ],
      "stateMutability": "view",
      "type": "function"
    },
    {
      "inputs": [
        {
          "internalType": "uint256",
          "name": "snapshotId",
          "type": "uint256"
        }
      ],
      "name": "totalSupplyAt",
      "outputs": [
        {
          "internalType": "uint256",
          "name": "",
          "type": "uint256"
        }
      ],
      "stateMutability": "view",
      "type": "function"
    },
    {
      "inputs": [
        {
          "internalType": "address",
          "name": "recipient",
          "type": "address"
        },
        {
          "internalType": "uint256",
          "name": "amount",
          "type": "uint256"
        }
      ],
      "name": "transfer",
      "outputs": [
        {
          "internalType": "bool",
          "name": "",
          "type": "bool"
        }
      ],
      "stateMutability": "nonpayable",
      "type": "function"
    },
    {
      "inputs": [
        {
          "internalType": "address",
          "name": "sender",
          "type": "address"
        },
        {
          "internalType": "address",
          "name": "recipient",
          "type": "address"
        },
        {
          "internalType": "uint256",
          "name": "amount",
          "type": "uint256"
        }
      ],
      "name": "transferFrom",
      "outputs": [
        {
          "internalType": "bool",
          "name": "",
          "type": "bool"
        }
      ],
      "stateMutability": "nonpayable",
      "type": "function"
    },
    {
      "inputs": [],
      "name": "updateAddressManager",
      "outputs": [],
      "stateMutability": "nonpayable",
      "type": "function"
    },
    {
      "inputs": [],
      "name": "updateAllAddresses",
      "outputs": [],
      "stateMutability": "nonpayable",
      "type": "function"
    },
    {
      "inputs": [],
      "name": "updateAllRoles",
      "outputs": [],
      "stateMutability": "nonpayable",
      "type": "function"
    },
    {
      "inputs": [],
      "name": "updateDAOAddresses",
      "outputs": [],
      "stateMutability": "nonpayable",
      "type": "function"
    },
    {
      "inputs": [
        {
          "internalType": "bytes32",
          "name": "ROLE_TO_UPDATE",
          "type": "bytes32"
        }
      ],
      "name": "updateSingleRole",
      "outputs": [],
      "stateMutability": "nonpayable",
      "type": "function"
    },
    {
      "inputs": [],
      "name": "updateTokenAddresses",
      "outputs": [],
      "stateMutability": "nonpayable",
      "type": "function"
    },
    {
      "inputs": [],
      "name": "updateStakingToken",
      "outputs": [],
      "stateMutability": "nonpayable",
      "type": "function"
    },
    {
      "inputs": [],
      "name": "stakePens",
      "outputs": [],
      "stateMutability": "nonpayable",
      "type": "function"
    },
    {
      "inputs": [
        {
          "internalType": "uint256",
          "name": "_amount",
          "type": "uint256"
        }
      ],
      "name": "stakePens",
      "outputs": [],
      "stateMutability": "nonpayable",
      "type": "function"
    },
    {
      "inputs": [
        {
          "internalType": "uint256",
          "name": "_amount",
          "type": "uint256"
        }
      ],
      "name": "returnHats",
      "outputs": [],
      "stateMutability": "nonpayable",
      "type": "function"
    },
    {
      "inputs": [],
      "name": "returnHats",
      "outputs": [],
      "stateMutability": "nonpayable",
      "type": "function"
    },
    {
      "inputs": [
        {
          "internalType": "address",
          "name": "userToSlash",
          "type": "address"
        },
        {
          "internalType": "uint256",
          "name": "percentToSlashInWholeNumber",
          "type": "uint256"
        }
      ],
      "name": "slashUser",
      "outputs": [],
      "stateMutability": "nonpayable",
      "type": "function"
    },
    {
      "inputs": [],
      "name": "snapshot",
      "outputs": [],
      "stateMutability": "nonpayable",
      "type": "function"
    }
  ],
  "bytecode": "0x60806040526014805463ffffffff191690553480156200001e57600080fd5b506040516200439438038062004394833981016040819052620000419162000baa565b60408051808201825260098152684a757279204861747360b81b6020808301918252835180850190945260048452634841545360e01b90840152600280546001600160a01b038087166001600160a01b03199283161792839055600e805490921692169190911790558151849391620000be916012919062000b04565b508051620000d490601390602084019062000b04565b50620000e29150506200021f565b620000ec62000235565b600c5462000106906000906001600160a01b031662000374565b600c546200013f907f0538d24a8b7882d7b2e36af243d4af61c23e86e3daa6cb8c887b53220b2f5720906001600160a01b031662000374565b60095462000178907f048bc71fa1cb2c119c339cf9cf00a97996a19a9d991ce5fe049f2fa5459e7990906001600160a01b031662000374565b600a54620001b1907ffa8e4989e1d689f7bc5c4b25b87efb51fecdecb19ba62847e29c759e12a89acd906001600160a01b031662000374565b600d54620001ea907ff0f4b159a6e2a4815eb3ca3df080bfa70c9270662c59bcaa4479a456220183e6906001600160a01b031662000374565b620002177f7c9d7f6f02908185bffb3f7fc9afb29fd7bf93675af8fd4b655ee05c2cee1e0e600062000374565b505062000c39565b62000229620003b7565b6200023362000622565b565b600e60009054906101000a90046001600160a01b03166001600160a01b031663ff7e88ec6040518163ffffffff1660e01b815260040160206040518083038186803b1580156200028457600080fd5b505afa15801562000299573d6000803e3d6000fd5b505050506040513d601f19601f82011682018060405250810190620002bf919062000bda565b601480549115156101000261ff0019909216919091179055600e5460408051632fb5658560e01b815290516001600160a01b0390921691632fb5658591600480820192602092909190829003018186803b1580156200031d57600080fd5b505afa15801562000332573d6000803e3d6000fd5b505050506040513d601f19601f8201168201806040525081019062000358919062000bda565b60148054911515620100000262ff000019909216919091179055565b6200038b8282620009b660201b6200124c1760201c565b6000828152600160209081526040909120620003b291839062001256620009c6821b17901c565b505050565b600e60009054906101000a90046001600160a01b03166001600160a01b031663dadf56ac6040518163ffffffff1660e01b815260040160206040518083038186803b1580156200040657600080fd5b505afa1580156200041b573d6000803e3d6000fd5b505050506040513d601f19601f8201168201806040525081019062000441919062000baa565b600980546001600160a01b0319166001600160a01b03928316179055600e546040805163024bebe960e01b81529051919092169163024bebe9916004808301926020929190829003018186803b1580156200049b57600080fd5b505afa158015620004b0573d6000803e3d6000fd5b505050506040513d601f19601f82011682018060405250810190620004d6919062000baa565b600a80546001600160a01b0319166001600160a01b03928316179055600e5460408051635b5c251f60e01b815290519190921691635b5c251f916004808301926020929190829003018186803b1580156200053057600080fd5b505afa15801562000545573d6000803e3d6000fd5b505050506040513d601f19601f820116820180604052508101906200056b919062000baa565b600b80546001600160a01b0319166001600160a01b03928316179055600e5460408051637310bf1d60e11b81529051919092169163e6217e3a916004808301926020929190829003018186803b158015620005c557600080fd5b505afa158015620005da573d6000803e3d6000fd5b505050506040513d601f19601f8201168201806040525081019062000600919062000baa565b600d80546001600160a01b0319166001600160a01b0392909216919091179055565b600e60009054906101000a90046001600160a01b03166001600160a01b03166321d7f0086040518163ffffffff1660e01b815260040160206040518083038186803b1580156200067157600080fd5b505afa15801562000686573d6000803e3d6000fd5b505050506040513d601f19601f82011682018060405250810190620006ac919062000baa565b600380546001600160a01b0319166001600160a01b03928316179055600e546040805163762ddb5960e01b81529051919092169163762ddb59916004808301926020929190829003018186803b1580156200070657600080fd5b505afa1580156200071b573d6000803e3d6000fd5b505050506040513d601f19601f8201168201806040525081019062000741919062000baa565b600480546001600160a01b0319166001600160a01b03928316178155600e546040805163bfb7dc9960e01b81529051919093169263bfb7dc999281810192602092909190829003018186803b1580156200079a57600080fd5b505afa158015620007af573d6000803e3d6000fd5b505050506040513d601f19601f82011682018060405250810190620007d5919062000baa565b600580546001600160a01b0319166001600160a01b03928316179055600e5460408051633e6111eb60e21b81529051919092169163f98447ac916004808301926020929190829003018186803b1580156200082f57600080fd5b505afa15801562000844573d6000803e3d6000fd5b505050506040513d601f19601f820116820180604052508101906200086a919062000baa565b600680546001600160a01b0319166001600160a01b03928316179055600e5460408051630fe1ba9f60e21b815290519190921691633f86ea7c916004808301926020929190829003018186803b158015620008c457600080fd5b505afa158015620008d9573d6000803e3d6000fd5b505050506040513d601f19601f82011682018060405250810190620008ff919062000baa565b600780546001600160a01b0319166001600160a01b03928316179055600e5460408051636b58477560e01b815290519190921691636b584775916004808301926020929190829003018186803b1580156200095957600080fd5b505afa1580156200096e573d6000803e3d6000fd5b505050506040513d601f19601f8201168201806040525081019062000994919062000baa565b600880546001600160a01b0319166001600160a01b0392909216919091179055565b620009c28282620009e6565b5050565b6000620009dd836001600160a01b03841662000a70565b90505b92915050565b620009f2828262000abf565b620009c2576000828152602081815260408083206001600160a01b03851684529091529020805460ff1916600117905562000a2c62000ae8565b6001600160a01b0316816001600160a01b0316837f2f8788117e7eff1d82e926ec794901d17c78024a50270940304540a733656f0d60405160405180910390a45050565b600062000a7e838362000aec565b62000ab657508154600181810184556000848152602080822090930184905584548482528286019093526040902091909155620009e0565b506000620009e0565b6000918252602082815260408084206001600160a01b0393909316845291905290205460ff1690565b3390565b60009081526001919091016020526040902054151590565b82805462000b129062000bfc565b90600052602060002090601f01602090048101928262000b36576000855562000b81565b82601f1062000b5157805160ff191683800117855562000b81565b8280016001018555821562000b81579182015b8281111562000b8157825182559160200191906001019062000b64565b5062000b8f92915062000b93565b5090565b5b8082111562000b8f576000815560010162000b94565b60006020828403121562000bbc578081fd5b81516001600160a01b038116811462000bd3578182fd5b9392505050565b60006020828403121562000bec578081fd5b8151801515811462000bd3578182fd5b60028104600182168062000c1157607f821691505b6020821081141562000c3357634e487b7160e01b600052602260045260246000fd5b50919050565b61374b8062000c496000396000f3fe608060405234801561001057600080fd5b50600436106103af5760003560e01c806370a08231116101f4578063ca15c8731161011a578063e6217e3a116100ad578063f3e941421161007c578063f3e94142146106af578063f7d92d86146106c2578063f98447ac146106ca578063ff7e88ec146106d2576103af565b8063e6217e3a1461068f578063e78c266c14610697578063e9a532301461069f578063f1132b30146106a7576103af565b8063d547741f116100e9578063d547741f14610659578063dadf56ac1461066c578063dd62ed3e14610674578063e3a4795514610687576103af565b8063ca15c8731461062e578063cce8439214610641578063cd19182c14610649578063cf4ece1514610651576103af565b8063981b24d011610192578063a78e746f11610161578063a78e746f146105f8578063a80a132114610600578063a9059cbb14610613578063bfb7dc9914610626576103af565b8063981b24d0146105c2578063a217fddf146105d5578063a32c5e59146105dd578063a457c2d7146105e5576103af565b80639010d07c116101ce5780639010d07c1461058c57806391d148541461059f57806395d89b41146105b25780639711715a146105ba576103af565b806370a082311461055e578063762ddb591461057157806378b5867514610579576103af565b8063329a8cfa116102d95780634ee2cd7e116102775780635f413466116102465780635f4134661461053e57806367a14f06146105465780636ad8118b1461054e5780636b58477514610556576103af565b80634ee2cd7e1461050857806357f276ff1461051b5780635b5c251f1461052e5780635db531a114610536576103af565b80633ab76e9f116102b35780633ab76e9f146104e85780633f86ea7c146104f057806349b5e105146104f85780634d84c6d814610500576103af565b8063329a8cfa146104ba57806336568abe146104c257806339509351146104d5576103af565b806321d7f008116103515780632f2ff15d116103205780632f2ff15d146104825780632fb5658514610495578063313ce5671461049d578063326a55e0146104b2576103af565b806321d7f0081461044c57806323b872dd146104545780632436329d14610467578063248a9ca31461046f576103af565b8063095ea7b31161038d578063095ea7b314610407578063130f63201461041a57806317314d5a1461042f57806318160ddd14610437576103af565b806301ffc9a7146103b4578063024bebe9146103dd57806306fdde03146103f2575b600080fd5b6103c76103c2366004612f55565b6106da565b6040516103d4919061305b565b60405180910390f35b6103e5610707565b6040516103d4919061300a565b6103fa610716565b6040516103d49190613094565b6103c7610415366004612ead565b6107a8565b61042d610428366004612ef8565b6107c6565b005b61042d6107dd565b61043f6107e8565b6040516103d49190613066565b6103e56107ee565b6103c7610462366004612e6d565b6107fd565b61043f61089d565b61043f61047d366004612ef8565b6108af565b61042d610490366004612f10565b6108c4565b6103c76108eb565b6104a56108fa565b6040516103d49190613517565b61042d6108ff565b61042d610911565b61042d6104d0366004612f10565b6109f1565b6103c76104e3366004612ead565b610a13565b6103e5610a62565b6103e5610a71565b61042d610a80565b61042d610907565b61043f610516366004612ead565b610a88565b61042d610529366004612ef8565b610ad1565b6103e5610ada565b61042d610ae9565b6103e5610af1565b6103e5610b00565b61042d610b0f565b6103e5610b3b565b61043f61056c366004612dfd565b610b4a565b6103e5610b65565b61042d610587366004612ead565b610b74565b6103e561059a366004612f34565b610c12565b6103c76105ad366004612f10565b610c31565b6103fa610c5a565b61042d610c69565b61043f6105d0366004612ef8565b610cff565b61043f610d2f565b61043f610d34565b6103c76105f3366004612ead565b610d46565b6103c7610dc1565b61042d61060e366004612ef8565b610dca565b6103c7610621366004612ead565b610f2c565b6103e5610f40565b61043f61063c366004612ef8565b610f4f565b61043f610f66565b61042d610f78565b61043f611004565b61042d610667366004612f10565b611016565b6103e5611020565b61043f610682366004612e35565b61102f565b61042d61105a565b6103e5611070565b6103e561107f565b61043f61108e565b61042d6110a0565b61042d6106bd366004612ef8565b6110a8565b61042d6111a4565b6103e561122f565b6103c761123e565b60006001600160e01b03198216635a05180f60e01b14806106ff57506106ff8261126b565b90505b919050565b600a546001600160a01b031681565b606060128054610725906135ca565b80601f0160208091040260200160405190810160405280929190818152602001828054610751906135ca565b801561079e5780601f106107735761010080835404028352916020019161079e565b820191906000526020600020905b81548152906001019060200180831161078157829003601f168201915b5050505050905090565b60006107bc6107b5611290565b8484611294565b5060015b92915050565b6107cf81611348565b506107d9816114b3565b5050565b6107e5611636565b50565b60115490565b6003546001600160a01b031681565b600061080a84848461177c565b6001600160a01b03841660009081526010602052604081208161082b611290565b6001600160a01b03166001600160a01b03168152602001908152602001600020549050828110156108775760405162461bcd60e51b815260040161086e9061330a565b60405180910390fd5b61089285610883611290565b61088d8685613570565b611294565b506001949350505050565b60008051602061367683398151915281565b60009081526020819052604090206001015490565b6108ce82826118a4565b60008281526001602052604090206108e69082611256565b505050565b60145462010000900460ff1681565b601290565b6109076118c8565b61090f611b23565b565b6109296000805160206136d683398151915233610c31565b80610947575061094760008051602061369683398151915233610c31565b80610965575061096560008051602061367683398151915233610c31565b6109815760405162461bcd60e51b815260040161086e906131b8565b600e60009054906101000a90046001600160a01b03166001600160a01b031663329a8cfa6040518163ffffffff1660e01b8152600401600060405180830381600087803b1580156109d157600080fd5b505af11580156109e5573d6000803e3d6000fd5b5050505061090f610ae9565b6109fb8282611e9f565b60008281526001602052604090206108e69082611ee1565b60006107bc610a20611290565b848460106000610a2e611290565b6001600160a01b03908116825260208083019390935260409182016000908120918b168152925290205461088d9190613525565b600e546001600160a01b031681565b6007546001600160a01b031681565b61090f6118c8565b6001600160a01b038216600090815260156020526040812081908190610aaf908590611ef6565b9150915081610ac657610ac185610b4a565b610ac8565b805b95945050505050565b6107d981611fa4565b600b546001600160a01b031681565b61090f6121da565b600c546001600160a01b031681565b6019546001600160a01b031681565b610b17610907565b600454601980546001600160a01b0319166001600160a01b03909216919091179055565b6008546001600160a01b031681565b6001600160a01b03166000908152600f602052604090205490565b6004546001600160a01b031681565b610b8c6000805160206136d683398151915233610c31565b80610baa5750610baa60008051602061369683398151915233610c31565b80610bc85750610bc860008051602061367683398151915233610c31565b610be45760405162461bcd60e51b815260040161086e906131b8565b6000606482610bf285610b4a565b610bfc9190613551565b610c06919061353d565b90506108e68382612311565b6000828152600160205260408120610c2a90836123f7565b9392505050565b6000918252602082815260408084206001600160a01b0393909316845291905290205460ff1690565b606060138054610725906135ca565b610c816000805160206136d683398151915233610c31565b80610c9f5750610c9f60008051602061369683398151915233610c31565b80610cbd5750610cbd60008051602061367683398151915233610c31565b80610cdb5750610cdb6000805160206136b683398151915233610c31565b610cf75760405162461bcd60e51b815260040161086e906131b8565b6107e5612403565b6000806000610d0f846016611ef6565b9150915081610d2557610d206107e8565b610d27565b805b949350505050565b600081565b6000805160206136d683398151915281565b60008060106000610d55611290565b6001600160a01b0390811682526020808301939093526040918201600090812091881681529252902054905082811015610da15760405162461bcd60e51b815260040161086e9061344c565b610db7610dac611290565b8561088d8685613570565b5060019392505050565b60145460ff1681565b80610dd433610b4a565b1015610df25760405162461bcd60e51b815260040161086e906132dc565b6000610dfc6107e8565b6019546040516370a0823160e01b815291925060009183916001600160a01b0316906370a0823190610e3290309060040161300a565b60206040518083038186803b158015610e4a57600080fd5b505afa158015610e5e573d6000803e3d6000fd5b505050506040513d601f19601f82011682018060405250810190610e829190612f7d565b610e8c9085613551565b610e96919061353d565b9050610ea23384612311565b60195460405163a9059cbb60e01b81526001600160a01b039091169063a9059cbb90610ed49033908590600401613042565b602060405180830381600087803b158015610eee57600080fd5b505af1158015610f02573d6000803e3d6000fd5b505050506040513d601f19601f82011682018060405250810190610f269190612ed8565b50505050565b60006107bc610f39611290565b848461177c565b6005546001600160a01b031681565b60008181526001602052604081206106ff90612459565b6000805160206136f683398151915281565b6019546040516370a0823160e01b81526000916001600160a01b0316906370a0823190610fa990339060040161300a565b60206040518083038186803b158015610fc157600080fd5b505afa158015610fd5573d6000803e3d6000fd5b505050506040513d601f19601f82011682018060405250810190610ff99190612f7d565b90506107e5816110a8565b6000805160206136b683398151915281565b6109fb8282612464565b6009546001600160a01b031681565b6001600160a01b03918216600090815260106020908152604080832093909416825291909152205490565b600061106533610b4a565b90506107e581610dca565b600d546001600160a01b031681565b6002546001600160a01b031681565b60008051602061369683398151915281565b61090f612483565b6019546040516370a0823160e01b81526000916001600160a01b0316906370a08231906110d990309060040161300a565b60206040518083038186803b1580156110f157600080fd5b505afa158015611105573d6000803e3d6000fd5b505050506040513d601f19601f820116820180604052508101906111299190612f7d565b905060006111356107e8565b90508061114b5761114633846125ba565b611170565b6000826111588386613551565b611162919061353d565b905061116e33826125ba565b505b6019546040516323b872dd60e01b81526001600160a01b03909116906323b872dd90610ed49033903090889060040161301e565b6111bb6000805160206136d6833981519152611fa4565b506111d3600080516020613696833981519152611fa4565b506111eb600080516020613676833981519152611fa4565b506112036000805160206136b6833981519152611fa4565b5061121b6000805160206136f6833981519152611fa4565b506112266000611fa4565b5061090f6121da565b6006546001600160a01b031681565b601454610100900460ff1681565b6107d9828261267a565b6000610c2a836001600160a01b0384166126ff565b60006001600160e01b03198216637965db0b60e01b14806106ff57506106ff82612749565b3390565b6001600160a01b0383166112ba5760405162461bcd60e51b815260040161086e906133d8565b6001600160a01b0382166112e05760405162461bcd60e51b815260040161086e9061322a565b6001600160a01b0380841660008181526010602090815260408083209487168084529490915290819020849055517f8c5be1e5ebec7d5bd14f71427d1e84f3dd0314c0f7b2291e5b200ac8c7c3b9259061133b908590613066565b60405180910390a3505050565b60405163ca15c87360e01b81526000908190309063ca15c87390611370908690600401613066565b60206040518083038186803b15801561138857600080fd5b505afa15801561139c573d6000803e3d6000fd5b505050506040513d601f19601f820116820180604052508101906113c09190612f7d565b905060005b81811015610db757604051632404341f60e21b81526000903090639010d07c906113f59088908690600401613086565b60206040518083038186803b15801561140d57600080fd5b505afa158015611421573d6000803e3d6000fd5b505050506040513d601f19601f820116820180604052508101906114459190612e19565b60405163d547741f60e01b8152909150309063d547741f9061146d908890859060040161306f565b600060405180830381600087803b15801561148757600080fd5b505af115801561149b573d6000803e3d6000fd5b505050505080806114ab90613605565b9150506113c5565b600e5460405163ca15c87360e01b815260009182916001600160a01b039091169063ca15c873906114e8908690600401613066565b60206040518083038186803b15801561150057600080fd5b505afa158015611514573d6000803e3d6000fd5b505050506040513d601f19601f820116820180604052508101906115389190612f7d565b905060005b81811015610db757600e54604051632404341f60e21b81526000916001600160a01b031690639010d07c906115789088908690600401613086565b60206040518083038186803b15801561159057600080fd5b505afa1580156115a4573d6000803e3d6000fd5b505050506040513d601f19601f820116820180604052508101906115c89190612e19565b604051632f2ff15d60e01b81529091503090632f2ff15d906115f0908890859060040161306f565b600060405180830381600087803b15801561160a57600080fd5b505af115801561161e573d6000803e3d6000fd5b5050505050808061162e90613605565b91505061153d565b600061164f6000805160206136d6833981519152611348565b506116676000805160206136d68339815191526114b3565b61167057600080fd5b611687600080516020613696833981519152611348565b5061169f6000805160206136968339815191526114b3565b6116a857600080fd5b6116bf600080516020613676833981519152611348565b506116d76000805160206136768339815191526114b3565b6116e057600080fd5b6116f76000805160206136b6833981519152611348565b5061170f6000805160206136b68339815191526114b3565b61171857600080fd5b61172f6000805160206136f6833981519152611348565b506117476000805160206136f68339815191526114b3565b61175057600080fd5b61175a6000611348565b5061176560006114b3565b61176e57600080fd5b6117766121da565b50600190565b6001600160a01b0383166117a25760405162461bcd60e51b815260040161086e90613393565b6001600160a01b0382166117c85760405162461bcd60e51b815260040161086e90613175565b6117d3838383612762565b6001600160a01b0383166000908152600f60205260409020548181101561180c5760405162461bcd60e51b815260040161086e9061326c565b6118168282613570565b6001600160a01b038086166000908152600f6020526040808220939093559085168152908120805484929061184c908490613525565b92505081905550826001600160a01b0316846001600160a01b03167fddf252ad1be2c89b69c2b068fc378daa952ba7f163c4a11628f55a4df523b3ef846040516118969190613066565b60405180910390a350505050565b6118ad826108af565b6118be816118b9611290565b61276d565b6108e6838361267a565b600e60009054906101000a90046001600160a01b03166001600160a01b031663dadf56ac6040518163ffffffff1660e01b815260040160206040518083038186803b15801561191657600080fd5b505afa15801561192a573d6000803e3d6000fd5b505050506040513d601f19601f8201168201806040525081019061194e9190612e19565b600980546001600160a01b0319166001600160a01b03928316179055600e546040805163024bebe960e01b81529051919092169163024bebe9916004808301926020929190829003018186803b1580156119a757600080fd5b505afa1580156119bb573d6000803e3d6000fd5b505050506040513d601f19601f820116820180604052508101906119df9190612e19565b600a80546001600160a01b0319166001600160a01b03928316179055600e5460408051635b5c251f60e01b815290519190921691635b5c251f916004808301926020929190829003018186803b158015611a3857600080fd5b505afa158015611a4c573d6000803e3d6000fd5b505050506040513d601f19601f82011682018060405250810190611a709190612e19565b600b80546001600160a01b0319166001600160a01b03928316179055600e5460408051637310bf1d60e11b81529051919092169163e6217e3a916004808301926020929190829003018186803b158015611ac957600080fd5b505afa158015611add573d6000803e3d6000fd5b505050506040513d601f19601f82011682018060405250810190611b019190612e19565b600d80546001600160a01b0319166001600160a01b0392909216919091179055565b600e60009054906101000a90046001600160a01b03166001600160a01b03166321d7f0086040518163ffffffff1660e01b815260040160206040518083038186803b158015611b7157600080fd5b505afa158015611b85573d6000803e3d6000fd5b505050506040513d601f19601f82011682018060405250810190611ba99190612e19565b600380546001600160a01b0319166001600160a01b03928316179055600e546040805163762ddb5960e01b81529051919092169163762ddb59916004808301926020929190829003018186803b158015611c0257600080fd5b505afa158015611c16573d6000803e3d6000fd5b505050506040513d601f19601f82011682018060405250810190611c3a9190612e19565b600480546001600160a01b0319166001600160a01b03928316178155600e546040805163bfb7dc9960e01b81529051919093169263bfb7dc999281810192602092909190829003018186803b158015611c9257600080fd5b505afa158015611ca6573d6000803e3d6000fd5b505050506040513d601f19601f82011682018060405250810190611cca9190612e19565b600580546001600160a01b0319166001600160a01b03928316179055600e5460408051633e6111eb60e21b81529051919092169163f98447ac916004808301926020929190829003018186803b158015611d2357600080fd5b505afa158015611d37573d6000803e3d6000fd5b505050506040513d601f19601f82011682018060405250810190611d5b9190612e19565b600680546001600160a01b0319166001600160a01b03928316179055600e5460408051630fe1ba9f60e21b815290519190921691633f86ea7c916004808301926020929190829003018186803b158015611db457600080fd5b505afa158015611dc8573d6000803e3d6000fd5b505050506040513d601f19601f82011682018060405250810190611dec9190612e19565b600780546001600160a01b0319166001600160a01b03928316179055600e5460408051636b58477560e01b815290519190921691636b584775916004808301926020929190829003018186803b158015611e4557600080fd5b505afa158015611e59573d6000803e3d6000fd5b505050506040513d601f19601f82011682018060405250810190611e7d9190612e19565b600880546001600160a01b0319166001600160a01b0392909216919091179055565b611ea7611290565b6001600160a01b0316816001600160a01b031614611ed75760405162461bcd60e51b815260040161086e90613491565b6107d982826127d1565b6000610c2a836001600160a01b038416612854565b60008060008411611f195760405162461bcd60e51b815260040161086e9061341c565b611f23601861296b565b841115611f425760405162461bcd60e51b815260040161086e906130c7565b6000611f4e848661296f565b8454909150811415611f67576000809250925050611f9d565b6001846001018281548110611f8c57634e487b7160e01b600052603260045260246000fd5b906000526020600020015492509250505b9250929050565b600e5460405163ca15c87360e01b815260009182916001600160a01b039091169063ca15c87390611fd9908690600401613066565b60206040518083038186803b158015611ff157600080fd5b505afa158015612005573d6000803e3d6000fd5b505050506040513d601f19601f820116820180604052508101906120299190612f7d565b60405163ca15c87360e01b8152909150600090309063ca15c87390612052908790600401613066565b60206040518083038186803b15801561206a57600080fd5b505afa15801561207e573d6000803e3d6000fd5b505050506040513d601f19601f820116820180604052508101906120a29190612f7d565b905060006120b08284613570565b9050600081116120d25760405162461bcd60e51b815260040161086e906132b2565b60005b818110156121ce57600e54604051632404341f60e21b81526000916001600160a01b031690639010d07c90612110908a908690600401613086565b60206040518083038186803b15801561212857600080fd5b505afa15801561213c573d6000803e3d6000fd5b505050506040513d601f19601f820116820180604052508101906121609190612e19565b604051632f2ff15d60e01b81529091503090632f2ff15d90612188908a90859060040161306f565b600060405180830381600087803b1580156121a257600080fd5b505af11580156121b6573d6000803e3d6000fd5b505050505080806121c690613605565b9150506120d5565b50600195945050505050565b600e60009054906101000a90046001600160a01b03166001600160a01b031663ff7e88ec6040518163ffffffff1660e01b815260040160206040518083038186803b15801561222857600080fd5b505afa15801561223c573d6000803e3d6000fd5b505050506040513d601f19601f820116820180604052508101906122609190612ed8565b601480549115156101000261ff0019909216919091179055600e5460408051632fb5658560e01b815290516001600160a01b0390921691632fb5658591600480820192602092909190829003018186803b1580156122bd57600080fd5b505afa1580156122d1573d6000803e3d6000fd5b505050506040513d601f19601f820116820180604052508101906122f59190612ed8565b60148054911515620100000262ff000019909216919091179055565b6001600160a01b0382166123375760405162461bcd60e51b815260040161086e90613352565b61234382600083612762565b6001600160a01b0382166000908152600f60205260409020548181101561237c5760405162461bcd60e51b815260040161086e906131e8565b6123868282613570565b6001600160a01b0384166000908152600f6020526040812091909155601180548492906123b4908490613570565b90915550506040516000906001600160a01b038516907fddf252ad1be2c89b69c2b068fc378daa952ba7f163c4a11628f55a4df523b3ef9061133b908690613066565b6000610c2a8383612a4e565b600061240f6018612aa7565b600061241b601861296b565b90507f8030e83b04d87bef53480e26263266d6ca66863aa8506aca6f2559d18aa1cb678160405161244c9190613066565b60405180910390a1905090565b60006106ff8261296b565b61246d826108af565b612479816118b9611290565b6108e683836127d1565b600e60009054906101000a90046001600160a01b03166001600160a01b031663a44b93256040518163ffffffff1660e01b815260040160206040518083038186803b1580156124d157600080fd5b505afa1580156124e5573d6000803e3d6000fd5b505050506040513d601f19601f820116820180604052508101906125099190612ed8565b61251257600080fd5b600e60009054906101000a90046001600160a01b03166001600160a01b031663ac7cfac36040518163ffffffff1660e01b815260040160206040518083038186803b15801561256057600080fd5b505afa158015612574573d6000803e3d6000fd5b505050506040513d601f19601f820116820180604052508101906125989190612e19565b600280546001600160a01b0319166001600160a01b0392909216919091179055565b6001600160a01b0382166125e05760405162461bcd60e51b815260040161086e906134e0565b6125ec60008383612762565b80601160008282546125fe9190613525565b90915550506001600160a01b0382166000908152600f60205260408120805483929061262b908490613525565b90915550506040516001600160a01b038316906000907fddf252ad1be2c89b69c2b068fc378daa952ba7f163c4a11628f55a4df523b3ef9061266e908590613066565b60405180910390a35050565b6126848282610c31565b6107d9576000828152602081815260408083206001600160a01b03851684529091529020805460ff191660011790556126bb611290565b6001600160a01b0316816001600160a01b0316837f2f8788117e7eff1d82e926ec794901d17c78024a50270940304540a733656f0d60405160405180910390a45050565b600061270b8383612ab0565b612741575081546001818101845560008481526020808220909301849055845484825282860190935260409020919091556107c0565b5060006107c0565b6001600160e01b031981166301ffc9a760e01b14919050565b6108e6838383612ac8565b6127778282610c31565b6107d95761278f816001600160a01b03166014612b20565b61279a836020612b20565b6040516020016127ab929190612f95565b60408051601f198184030181529082905262461bcd60e51b825261086e91600401613094565b6127db8282610c31565b156107d9576000828152602081815260408083206001600160a01b03851684529091529020805460ff19169055612810611290565b6001600160a01b0316816001600160a01b0316837ff6391f5c32d9c69d2a47ea670b442974b53935d1edc7fd64eb21e047a839171b60405160405180910390a45050565b60008181526001830160205260408120548015612961576000612878600183613570565b855490915060009061288c90600190613570565b905060008660000182815481106128b357634e487b7160e01b600052603260045260246000fd5b90600052602060002001549050808760000184815481106128e457634e487b7160e01b600052603260045260246000fd5b60009182526020808320909101929092558281526001890190915260409020849055865487908061292557634e487b7160e01b600052603160045260246000fd5b600190038181906000526020600020016000905590558660010160008781526020019081526020016000206000905560019450505050506107c0565b60009150506107c0565b5490565b8154600090612980575060006107c0565b82546000905b808210156129ea57600061299a8383612cd2565b9050848682815481106129bd57634e487b7160e01b600052603260045260246000fd5b906000526020600020015411156129d6578091506129e4565b6129e1816001613525565b92505b50612986565b600082118015612a2d57508385612a02600185613570565b81548110612a2057634e487b7160e01b600052603260045260246000fd5b9060005260206000200154145b15612a4657612a3d600183613570565b925050506107c0565b5090506107c0565b81546000908210612a715760405162461bcd60e51b815260040161086e906130fe565b826000018281548110612a9457634e487b7160e01b600052603260045260246000fd5b9060005260206000200154905092915050565b80546001019055565b60009081526001919091016020526040902054151590565b612ad38383836108e6565b6001600160a01b038316612af757612aea82612d29565b612af2612d53565b6108e6565b6001600160a01b038216612b0e57612aea83612d29565b612b1783612d29565b6108e682612d29565b60606000612b2f836002613551565b612b3a906002613525565b67ffffffffffffffff811115612b6057634e487b7160e01b600052604160045260246000fd5b6040519080825280601f01601f191660200182016040528015612b8a576020820181803683370190505b509050600360fc1b81600081518110612bb357634e487b7160e01b600052603260045260246000fd5b60200101906001600160f81b031916908160001a905350600f60fb1b81600181518110612bf057634e487b7160e01b600052603260045260246000fd5b60200101906001600160f81b031916908160001a9053506000612c14846002613551565b612c1f906001613525565b90505b6001811115612cb3576f181899199a1a9b1b9c1cb0b131b232b360811b85600f1660108110612c6157634e487b7160e01b600052603260045260246000fd5b1a60f81b828281518110612c8557634e487b7160e01b600052603260045260246000fd5b60200101906001600160f81b031916908160001a90535060049490941c93612cac816135b3565b9050612c22565b508315610c2a5760405162461bcd60e51b815260040161086e90613140565b60006002612ce08184613620565b612ceb600286613620565b612cf59190613525565b612cff919061353d565b612d0a60028461353d565b612d1560028661353d565b612d1f9190613525565b610c2a9190613525565b6001600160a01b03811660009081526015602052604090206107e590612d4e83610b4a565b612d60565b61090f6016612d4e6107e8565b6000612d6c601861296b565b905080612d7884612dac565b10156108e6578254600180820185556000858152602080822090930193909355938401805494850181558252902090910155565b8054600090612dbd57506000610702565b81548290612dcd90600190613570565b81548110612deb57634e487b7160e01b600052603260045260246000fd5b90600052602060002001549050610702565b600060208284031215612e0e578081fd5b8135610c2a81613660565b600060208284031215612e2a578081fd5b8151610c2a81613660565b60008060408385031215612e47578081fd5b8235612e5281613660565b91506020830135612e6281613660565b809150509250929050565b600080600060608486031215612e81578081fd5b8335612e8c81613660565b92506020840135612e9c81613660565b929592945050506040919091013590565b60008060408385031215612ebf578182fd5b8235612eca81613660565b946020939093013593505050565b600060208284031215612ee9578081fd5b81518015158114610c2a578182fd5b600060208284031215612f09578081fd5b5035919050565b60008060408385031215612f22578182fd5b823591506020830135612e6281613660565b60008060408385031215612f46578182fd5b50508035926020909101359150565b600060208284031215612f66578081fd5b81356001600160e01b031981168114610c2a578182fd5b600060208284031215612f8e578081fd5b5051919050565b60007f416363657373436f6e74726f6c3a206163636f756e742000000000000000000082528351612fcd816017850160208801613587565b7001034b99036b4b9b9b4b733903937b6329607d1b6017918401918201528351612ffe816028840160208801613587565b01602801949350505050565b6001600160a01b0391909116815260200190565b6001600160a01b039384168152919092166020820152604081019190915260600190565b6001600160a01b03929092168252602082015260400190565b901515815260200190565b90815260200190565b9182526001600160a01b0316602082015260400190565b918252602082015260400190565b60006020825282518060208401526130b3816040850160208701613587565b601f01601f19169190910160400192915050565b6020808252601d908201527f4552433230536e617073686f743a206e6f6e6578697374656e74206964000000604082015260600190565b60208082526022908201527f456e756d657261626c655365743a20696e646578206f7574206f6620626f756e604082015261647360f01b606082015260800190565b6020808252818101527f537472696e67733a20686578206c656e67746820696e73756666696369656e74604082015260600190565b60208082526023908201527f45524332303a207472616e7366657220746f20746865207a65726f206164647260408201526265737360e81b606082015260800190565b6020808252601690820152752cb7ba93b932903737ba103a3432903130b4b634b33360511b604082015260600190565b60208082526022908201527f45524332303a206275726e20616d6f756e7420657863656564732062616c616e604082015261636560f01b606082015260800190565b60208082526022908201527f45524332303a20617070726f766520746f20746865207a65726f206164647265604082015261737360f01b606082015260800190565b60208082526026908201527f45524332303a207472616e7366657220616d6f756e7420657863656564732062604082015265616c616e636560d01b606082015260800190565b60208082526010908201526f4e6f7468696e6720746f2073796e632160801b604082015260600190565b602080825260149082015273165bdd48191bdb89dd081a185d994818481a185d60621b604082015260600190565b60208082526028908201527f45524332303a207472616e7366657220616d6f756e74206578636565647320616040820152676c6c6f77616e636560c01b606082015260800190565b60208082526021908201527f45524332303a206275726e2066726f6d20746865207a65726f206164647265736040820152607360f81b606082015260800190565b60208082526025908201527f45524332303a207472616e736665722066726f6d20746865207a65726f206164604082015264647265737360d81b606082015260800190565b60208082526024908201527f45524332303a20617070726f76652066726f6d20746865207a65726f206164646040820152637265737360e01b606082015260800190565b60208082526016908201527504552433230536e617073686f743a20696420697320360541b604082015260600190565b60208082526025908201527f45524332303a2064656372656173656420616c6c6f77616e63652062656c6f77604082015264207a65726f60d81b606082015260800190565b6020808252602f908201527f416363657373436f6e74726f6c3a2063616e206f6e6c792072656e6f756e636560408201526e103937b632b9903337b91039b2b63360891b606082015260800190565b6020808252601f908201527f45524332303a206d696e7420746f20746865207a65726f206164647265737300604082015260600190565b60ff91909116815260200190565b6000821982111561353857613538613634565b500190565b60008261354c5761354c61364a565b500490565b600081600019048311821515161561356b5761356b613634565b500290565b60008282101561358257613582613634565b500390565b60005b838110156135a257818101518382015260200161358a565b83811115610f265750506000910152565b6000816135c2576135c2613634565b506000190190565b6002810460018216806135de57607f821691505b602082108114156135ff57634e487b7160e01b600052602260045260246000fd5b50919050565b600060001982141561361957613619613634565b5060010190565b60008261362f5761362f61364a565b500690565b634e487b7160e01b600052601160045260246000fd5b634e487b7160e01b600052601260045260246000fd5b6001600160a01b03811681146107e557600080fdfefa8e4989e1d689f7bc5c4b25b87efb51fecdecb19ba62847e29c759e12a89acd048bc71fa1cb2c119c339cf9cf00a97996a19a9d991ce5fe049f2fa5459e7990f0f4b159a6e2a4815eb3ca3df080bfa70c9270662c59bcaa4479a456220183e60538d24a8b7882d7b2e36af243d4af61c23e86e3daa6cb8c887b53220b2f57207c9d7f6f02908185bffb3f7fc9afb29fd7bf93675af8fd4b655ee05c2cee1e0ea264697066735822122046e64f588360beeb0b8832f3c88cc2d23e2d41bf13fcdf1a925e5b0ebcc41a5364736f6c63430008000033",
  "immutableReferences": {},
  "source": "// SPDX-License-Identifier: MIT\n// Inspired by SushiSwap SushiBar\n\n\n// I have not implemented slashing or anything fancy yet. This is a functional placeholder.\npragma solidity 0.8.0;\n\nimport \"../src/SmartConsensusMachine.sol\";\nimport \"@openzeppelin/contracts/token/ERC20/IERC20.sol\";\nimport \"@openzeppelin/contracts/token/ERC20/ERC20.sol\";\nimport \"@openzeppelin/contracts/token/ERC20/extensions/ERC20Snapshot.sol\";\n\n\ncontract JuryPool is ERC20(\"Jury Hats\", \"HATS\"), SmartConsensusMachine, ERC20Snapshot {\n\n    ERC20 public redPens;\n\n\n    constructor(address _AddressManagerAddress) SmartConsensusMachine(_AddressManagerAddress)  {\n\n    }\n    \n    function updateStakingToken() public {\n        updateTokenAddresses();\n        redPens = ERC20(RedPenTokenAddress);\n    }\n    \n    function stakePens() public {\n        uint256 amountToStake = redPens.balanceOf(msg.sender);\n        stakePens(amountToStake);\n    }\n\n    function stakePens(uint256 _amount) public {\n \n        uint256 totalPensInPool = redPens.balanceOf(address(this));\n        uint256 totalHatsCirculating = totalSupply();\n\n        if (totalHatsCirculating == 0) {\n            _mint(msg.sender, _amount);\n        } else {\n            uint256 hatsToDistribute = (_amount * totalHatsCirculating / totalPensInPool);\n            _mint(msg.sender, hatsToDistribute);\n        }\n\n        redPens.transferFrom(msg.sender, address(this), _amount);\n    }\n\n    function returnHats() public {\n         uint256 _amount = balanceOf(msg.sender);\n         returnHats(_amount);\n    }\n\n    function returnHats(uint256 _amount) public {\n\n        require(balanceOf(msg.sender) >= _amount, \"You don't have a hat\");\n        uint256 totalHats = totalSupply();\n        uint256 pensToDistrubute = (_amount * (redPens.balanceOf(address(this))) / totalHats);\n       \n        _burn(msg.sender, _amount);\n        redPens.transfer(msg.sender, pensToDistrubute);\n    \n    }\n\n    function slashUser(address userToSlash, uint percentToSlashInWholeNumber) public BAILIFF {\n\n        uint256 amountToSlash = balanceOf(userToSlash) * percentToSlashInWholeNumber / 100;\n        _burn(userToSlash, amountToSlash);\n\n    }\n\n    function snapshot() public MINI_BAILIFF {\n        _snapshot();\n    }\n\n    function _beforeTokenTransfer(address from, address to, uint256 amount)\n        internal\n        override(ERC20, ERC20Snapshot)\n    {\n        super._beforeTokenTransfer(from, to, amount);\n    }\n}",
  "sourcePath": "/home/n/Desktop/v3_fronternd/PinkSlips_FrontEnd_ROUGH/contracts/juryAndAppeals/JuryPool.sol",
  "compiler": {
    "name": "solc",
    "version": "0.8.0+commit.c7dfd78e.Emscripten.clang"
  },
  "schemaVersion": "3.4.1",
  "updatedAt": "2021-07-05T08:05:53.766Z",
  "devdoc": {
    "kind": "dev",
    "methods": {
      "allowance(address,address)": {
        "details": "See {IERC20-allowance}."
      },
      "approve(address,uint256)": {
        "details": "See {IERC20-approve}. Requirements: - `spender` cannot be the zero address."
      },
      "balanceOf(address)": {
        "details": "See {IERC20-balanceOf}."
      },
      "balanceOfAt(address,uint256)": {
        "details": "Retrieves the balance of `account` at the time `snapshotId` was created."
      },
      "decimals()": {
        "details": "Returns the number of decimals used to get its user representation. For example, if `decimals` equals `2`, a balance of `505` tokens should be displayed to a user as `5,05` (`505 / 10 ** 2`). Tokens usually opt for a value of 18, imitating the relationship between Ether and Wei. This is the value {ERC20} uses, unless this function is overridden; NOTE: This information is only used for _display_ purposes: it in no way affects any of the arithmetic of the contract, including {IERC20-balanceOf} and {IERC20-transfer}."
      },
      "decreaseAllowance(address,uint256)": {
        "details": "Atomically decreases the allowance granted to `spender` by the caller. This is an alternative to {approve} that can be used as a mitigation for problems described in {IERC20-approve}. Emits an {Approval} event indicating the updated allowance. Requirements: - `spender` cannot be the zero address. - `spender` must have allowance for the caller of at least `subtractedValue`."
      },
      "getRoleAdmin(bytes32)": {
        "details": "Returns the admin role that controls `role`. See {grantRole} and {revokeRole}. To change a role's admin, use {_setRoleAdmin}."
      },
      "getRoleMember(bytes32,uint256)": {
        "details": "Returns one of the accounts that have `role`. `index` must be a value between 0 and {getRoleMemberCount}, non-inclusive. Role bearers are not sorted in any particular way, and their ordering may change at any point. WARNING: When using {getRoleMember} and {getRoleMemberCount}, make sure you perform all queries on the same block. See the following https://forum.openzeppelin.com/t/iterating-over-elements-on-enumerableset-in-openzeppelin-contracts/2296[forum post] for more information."
      },
      "getRoleMemberCount(bytes32)": {
        "details": "Returns the number of accounts that have `role`. Can be used together with {getRoleMember} to enumerate all bearers of a role."
      },
      "grantRole(bytes32,address)": {
        "details": "Overload {grantRole} to track enumerable memberships"
      },
      "hasRole(bytes32,address)": {
        "details": "Returns `true` if `account` has been granted `role`."
      },
      "increaseAllowance(address,uint256)": {
        "details": "Atomically increases the allowance granted to `spender` by the caller. This is an alternative to {approve} that can be used as a mitigation for problems described in {IERC20-approve}. Emits an {Approval} event indicating the updated allowance. Requirements: - `spender` cannot be the zero address."
      },
      "name()": {
        "details": "Returns the name of the token."
      },
      "renounceRole(bytes32,address)": {
        "details": "Overload {renounceRole} to track enumerable memberships"
      },
      "revokeRole(bytes32,address)": {
        "details": "Overload {revokeRole} to track enumerable memberships"
      },
      "supportsInterface(bytes4)": {
        "details": "See {IERC165-supportsInterface}."
      },
      "symbol()": {
        "details": "Returns the symbol of the token, usually a shorter version of the name."
      },
      "totalSupply()": {
        "details": "See {IERC20-totalSupply}."
      },
      "totalSupplyAt(uint256)": {
        "details": "Retrieves the total supply at the time `snapshotId` was created."
      },
      "transfer(address,uint256)": {
        "details": "See {IERC20-transfer}. Requirements: - `recipient` cannot be the zero address. - the caller must have a balance of at least `amount`."
      },
      "transferFrom(address,address,uint256)": {
        "details": "See {IERC20-transferFrom}. Emits an {Approval} event indicating the updated allowance. This is not required by the EIP. See the note at the beginning of {ERC20}. Requirements: - `sender` and `recipient` cannot be the zero address. - `sender` must have a balance of at least `amount`. - the caller must have allowance for ``sender``'s tokens of at least `amount`."
      }
    },
    "version": 1
  },
  "userdoc": {
    "kind": "user",
    "methods": {},
    "version": 1
  }
}