{
  "contractName": "JuryPool",
  "abi": [
    {
      "inputs": [
        {
          "internalType": "address",
          "name": "_AddressManagerAddress",
          "type": "address"
        }
      ],
      "stateMutability": "nonpayable",
      "type": "constructor"
    },
    {
      "anonymous": false,
      "inputs": [
        {
          "indexed": true,
          "internalType": "address",
          "name": "owner",
          "type": "address"
        },
        {
          "indexed": true,
          "internalType": "address",
          "name": "approved",
          "type": "address"
        },
        {
          "indexed": true,
          "internalType": "uint256",
          "name": "tokenId",
          "type": "uint256"
        }
      ],
      "name": "Approval",
      "type": "event"
    },
    {
      "anonymous": false,
      "inputs": [
        {
          "indexed": true,
          "internalType": "address",
          "name": "owner",
          "type": "address"
        },
        {
          "indexed": true,
          "internalType": "address",
          "name": "operator",
          "type": "address"
        },
        {
          "indexed": false,
          "internalType": "bool",
          "name": "approved",
          "type": "bool"
        }
      ],
      "name": "ApprovalForAll",
      "type": "event"
    },
    {
      "anonymous": false,
      "inputs": [
        {
          "indexed": true,
          "internalType": "bytes32",
          "name": "role",
          "type": "bytes32"
        },
        {
          "indexed": true,
          "internalType": "bytes32",
          "name": "previousAdminRole",
          "type": "bytes32"
        },
        {
          "indexed": true,
          "internalType": "bytes32",
          "name": "newAdminRole",
          "type": "bytes32"
        }
      ],
      "name": "RoleAdminChanged",
      "type": "event"
    },
    {
      "anonymous": false,
      "inputs": [
        {
          "indexed": true,
          "internalType": "bytes32",
          "name": "role",
          "type": "bytes32"
        },
        {
          "indexed": true,
          "internalType": "address",
          "name": "account",
          "type": "address"
        },
        {
          "indexed": true,
          "internalType": "address",
          "name": "sender",
          "type": "address"
        }
      ],
      "name": "RoleGranted",
      "type": "event"
    },
    {
      "anonymous": false,
      "inputs": [
        {
          "indexed": true,
          "internalType": "bytes32",
          "name": "role",
          "type": "bytes32"
        },
        {
          "indexed": true,
          "internalType": "address",
          "name": "account",
          "type": "address"
        },
        {
          "indexed": true,
          "internalType": "address",
          "name": "sender",
          "type": "address"
        }
      ],
      "name": "RoleRevoked",
      "type": "event"
    },
    {
      "anonymous": false,
      "inputs": [
        {
          "indexed": true,
          "internalType": "address",
          "name": "from",
          "type": "address"
        },
        {
          "indexed": true,
          "internalType": "address",
          "name": "to",
          "type": "address"
        },
        {
          "indexed": true,
          "internalType": "uint256",
          "name": "tokenId",
          "type": "uint256"
        }
      ],
      "name": "Transfer",
      "type": "event"
    },
    {
      "inputs": [],
      "name": "AddressManagerAddress",
      "outputs": [
        {
          "internalType": "address",
          "name": "",
          "type": "address"
        }
      ],
      "stateMutability": "view",
      "type": "function",
      "constant": true
    },
    {
      "inputs": [],
      "name": "ChadBadgeAddress",
      "outputs": [
        {
          "internalType": "address",
          "name": "",
          "type": "address"
        }
      ],
      "stateMutability": "view",
      "type": "function",
      "constant": true
    },
    {
      "inputs": [],
      "name": "ColoredIDAddress",
      "outputs": [
        {
          "internalType": "address",
          "name": "",
          "type": "address"
        }
      ],
      "stateMutability": "view",
      "type": "function",
      "constant": true
    },
    {
      "inputs": [],
      "name": "CourtClerk",
      "outputs": [
        {
          "internalType": "address",
          "name": "",
          "type": "address"
        }
      ],
      "stateMutability": "view",
      "type": "function",
      "constant": true
    },
    {
      "inputs": [],
      "name": "DEFAULT_ADMIN_ROLE",
      "outputs": [
        {
          "internalType": "bytes32",
          "name": "",
          "type": "bytes32"
        }
      ],
      "stateMutability": "view",
      "type": "function",
      "constant": true
    },
    {
      "inputs": [],
      "name": "GAVELS_BAILIFF",
      "outputs": [
        {
          "internalType": "bytes32",
          "name": "",
          "type": "bytes32"
        }
      ],
      "stateMutability": "view",
      "type": "function",
      "constant": true
    },
    {
      "inputs": [],
      "name": "GavelDAOAgent",
      "outputs": [
        {
          "internalType": "address",
          "name": "",
          "type": "address"
        }
      ],
      "stateMutability": "view",
      "type": "function",
      "constant": true
    },
    {
      "inputs": [],
      "name": "GavelTokenAddress",
      "outputs": [
        {
          "internalType": "address",
          "name": "",
          "type": "address"
        }
      ],
      "stateMutability": "view",
      "type": "function",
      "constant": true
    },
    {
      "inputs": [],
      "name": "GavelVote",
      "outputs": [
        {
          "internalType": "bool",
          "name": "",
          "type": "bool"
        }
      ],
      "stateMutability": "view",
      "type": "function",
      "constant": true
    },
    {
      "inputs": [],
      "name": "GoldStarAddress",
      "outputs": [
        {
          "internalType": "address",
          "name": "",
          "type": "address"
        }
      ],
      "stateMutability": "view",
      "type": "function",
      "constant": true
    },
    {
      "inputs": [],
      "name": "JERK_ROLE",
      "outputs": [
        {
          "internalType": "bytes32",
          "name": "",
          "type": "bytes32"
        }
      ],
      "stateMutability": "view",
      "type": "function",
      "constant": true
    },
    {
      "inputs": [],
      "name": "JURY_BAILIFF",
      "outputs": [
        {
          "internalType": "bytes32",
          "name": "",
          "type": "bytes32"
        }
      ],
      "stateMutability": "view",
      "type": "function",
      "constant": true
    },
    {
      "inputs": [
        {
          "internalType": "uint256",
          "name": "",
          "type": "uint256"
        }
      ],
      "name": "JurrorStake",
      "outputs": [
        {
          "internalType": "uint256",
          "name": "",
          "type": "uint256"
        }
      ],
      "stateMutability": "view",
      "type": "function",
      "constant": true
    },
    {
      "inputs": [],
      "name": "JuryDAOAgent",
      "outputs": [
        {
          "internalType": "address",
          "name": "",
          "type": "address"
        }
      ],
      "stateMutability": "view",
      "type": "function",
      "constant": true
    },
    {
      "inputs": [],
      "name": "JuryPoolAddress",
      "outputs": [
        {
          "internalType": "address",
          "name": "",
          "type": "address"
        }
      ],
      "stateMutability": "view",
      "type": "function",
      "constant": true
    },
    {
      "inputs": [],
      "name": "JuryVote",
      "outputs": [
        {
          "internalType": "bool",
          "name": "",
          "type": "bool"
        }
      ],
      "stateMutability": "view",
      "type": "function",
      "constant": true
    },
    {
      "inputs": [],
      "name": "MINI_BAILIFF_ROLE",
      "outputs": [
        {
          "internalType": "bytes32",
          "name": "",
          "type": "bytes32"
        }
      ],
      "stateMutability": "view",
      "type": "function",
      "constant": true
    },
    {
      "inputs": [],
      "name": "MiniBailiff",
      "outputs": [
        {
          "internalType": "address",
          "name": "",
          "type": "address"
        }
      ],
      "stateMutability": "view",
      "type": "function",
      "constant": true
    },
    {
      "inputs": [],
      "name": "PinkSlipAddress",
      "outputs": [
        {
          "internalType": "address",
          "name": "",
          "type": "address"
        }
      ],
      "stateMutability": "view",
      "type": "function",
      "constant": true
    },
    {
      "inputs": [],
      "name": "RedPenTokenAddress",
      "outputs": [
        {
          "internalType": "address",
          "name": "",
          "type": "address"
        }
      ],
      "stateMutability": "view",
      "type": "function",
      "constant": true
    },
    {
      "inputs": [],
      "name": "THE_COURT_ROLE",
      "outputs": [
        {
          "internalType": "bytes32",
          "name": "",
          "type": "bytes32"
        }
      ],
      "stateMutability": "view",
      "type": "function",
      "constant": true
    },
    {
      "inputs": [],
      "name": "TheCourtAddress",
      "outputs": [
        {
          "internalType": "address",
          "name": "",
          "type": "address"
        }
      ],
      "stateMutability": "view",
      "type": "function",
      "constant": true
    },
    {
      "inputs": [],
      "name": "TreasuryAddress",
      "outputs": [
        {
          "internalType": "address",
          "name": "",
          "type": "address"
        }
      ],
      "stateMutability": "view",
      "type": "function",
      "constant": true
    },
    {
      "inputs": [],
      "name": "addressManager",
      "outputs": [
        {
          "internalType": "contract AddressManager",
          "name": "",
          "type": "address"
        }
      ],
      "stateMutability": "view",
      "type": "function",
      "constant": true
    },
    {
      "inputs": [
        {
          "internalType": "address",
          "name": "to",
          "type": "address"
        },
        {
          "internalType": "uint256",
          "name": "tokenId",
          "type": "uint256"
        }
      ],
      "name": "approve",
      "outputs": [],
      "stateMutability": "nonpayable",
      "type": "function"
    },
    {
      "inputs": [
        {
          "internalType": "address",
          "name": "owner",
          "type": "address"
        }
      ],
      "name": "balanceOf",
      "outputs": [
        {
          "internalType": "uint256",
          "name": "",
          "type": "uint256"
        }
      ],
      "stateMutability": "view",
      "type": "function",
      "constant": true
    },
    {
      "inputs": [
        {
          "internalType": "uint256",
          "name": "tokenId",
          "type": "uint256"
        }
      ],
      "name": "getApproved",
      "outputs": [
        {
          "internalType": "address",
          "name": "",
          "type": "address"
        }
      ],
      "stateMutability": "view",
      "type": "function",
      "constant": true
    },
    {
      "inputs": [
        {
          "internalType": "bytes32",
          "name": "role",
          "type": "bytes32"
        }
      ],
      "name": "getRoleAdmin",
      "outputs": [
        {
          "internalType": "bytes32",
          "name": "",
          "type": "bytes32"
        }
      ],
      "stateMutability": "view",
      "type": "function",
      "constant": true
    },
    {
      "inputs": [
        {
          "internalType": "bytes32",
          "name": "role",
          "type": "bytes32"
        },
        {
          "internalType": "uint256",
          "name": "index",
          "type": "uint256"
        }
      ],
      "name": "getRoleMember",
      "outputs": [
        {
          "internalType": "address",
          "name": "",
          "type": "address"
        }
      ],
      "stateMutability": "view",
      "type": "function",
      "constant": true
    },
    {
      "inputs": [
        {
          "internalType": "bytes32",
          "name": "role",
          "type": "bytes32"
        }
      ],
      "name": "getRoleMemberCount",
      "outputs": [
        {
          "internalType": "uint256",
          "name": "",
          "type": "uint256"
        }
      ],
      "stateMutability": "view",
      "type": "function",
      "constant": true
    },
    {
      "inputs": [
        {
          "internalType": "bytes32",
          "name": "role",
          "type": "bytes32"
        },
        {
          "internalType": "address",
          "name": "account",
          "type": "address"
        }
      ],
      "name": "grantRole",
      "outputs": [],
      "stateMutability": "nonpayable",
      "type": "function"
    },
    {
      "inputs": [
        {
          "internalType": "bytes32",
          "name": "role",
          "type": "bytes32"
        },
        {
          "internalType": "address",
          "name": "account",
          "type": "address"
        }
      ],
      "name": "hasRole",
      "outputs": [
        {
          "internalType": "bool",
          "name": "",
          "type": "bool"
        }
      ],
      "stateMutability": "view",
      "type": "function",
      "constant": true
    },
    {
      "inputs": [
        {
          "internalType": "address",
          "name": "owner",
          "type": "address"
        },
        {
          "internalType": "address",
          "name": "operator",
          "type": "address"
        }
      ],
      "name": "isApprovedForAll",
      "outputs": [
        {
          "internalType": "bool",
          "name": "",
          "type": "bool"
        }
      ],
      "stateMutability": "view",
      "type": "function",
      "constant": true
    },
    {
      "inputs": [],
      "name": "jerkSanctions",
      "outputs": [
        {
          "internalType": "bool",
          "name": "",
          "type": "bool"
        }
      ],
      "stateMutability": "view",
      "type": "function",
      "constant": true
    },
    {
      "inputs": [],
      "name": "name",
      "outputs": [
        {
          "internalType": "string",
          "name": "",
          "type": "string"
        }
      ],
      "stateMutability": "view",
      "type": "function",
      "constant": true
    },
    {
      "inputs": [
        {
          "internalType": "uint256",
          "name": "tokenId",
          "type": "uint256"
        }
      ],
      "name": "ownerOf",
      "outputs": [
        {
          "internalType": "address",
          "name": "",
          "type": "address"
        }
      ],
      "stateMutability": "view",
      "type": "function",
      "constant": true
    },
    {
      "inputs": [],
      "name": "redPens",
      "outputs": [
        {
          "internalType": "contract ERC20",
          "name": "",
          "type": "address"
        }
      ],
      "stateMutability": "view",
      "type": "function",
      "constant": true
    },
    {
      "inputs": [
        {
          "internalType": "bytes32",
          "name": "role",
          "type": "bytes32"
        },
        {
          "internalType": "address",
          "name": "account",
          "type": "address"
        }
      ],
      "name": "renounceRole",
      "outputs": [],
      "stateMutability": "nonpayable",
      "type": "function"
    },
    {
      "inputs": [],
      "name": "resetVote",
      "outputs": [],
      "stateMutability": "nonpayable",
      "type": "function"
    },
    {
      "inputs": [
        {
          "internalType": "bytes32",
          "name": "role",
          "type": "bytes32"
        },
        {
          "internalType": "address",
          "name": "account",
          "type": "address"
        }
      ],
      "name": "revokeRole",
      "outputs": [],
      "stateMutability": "nonpayable",
      "type": "function"
    },
    {
      "inputs": [
        {
          "internalType": "address",
          "name": "from",
          "type": "address"
        },
        {
          "internalType": "address",
          "name": "to",
          "type": "address"
        },
        {
          "internalType": "uint256",
          "name": "tokenId",
          "type": "uint256"
        }
      ],
      "name": "safeTransferFrom",
      "outputs": [],
      "stateMutability": "nonpayable",
      "type": "function"
    },
    {
      "inputs": [
        {
          "internalType": "address",
          "name": "from",
          "type": "address"
        },
        {
          "internalType": "address",
          "name": "to",
          "type": "address"
        },
        {
          "internalType": "uint256",
          "name": "tokenId",
          "type": "uint256"
        },
        {
          "internalType": "bytes",
          "name": "_data",
          "type": "bytes"
        }
      ],
      "name": "safeTransferFrom",
      "outputs": [],
      "stateMutability": "nonpayable",
      "type": "function"
    },
    {
      "inputs": [
        {
          "internalType": "address",
          "name": "operator",
          "type": "address"
        },
        {
          "internalType": "bool",
          "name": "approved",
          "type": "bool"
        }
      ],
      "name": "setApprovalForAll",
      "outputs": [],
      "stateMutability": "nonpayable",
      "type": "function"
    },
    {
      "inputs": [],
      "name": "symbol",
      "outputs": [
        {
          "internalType": "string",
          "name": "",
          "type": "string"
        }
      ],
      "stateMutability": "view",
      "type": "function",
      "constant": true
    },
    {
      "inputs": [],
      "name": "syncAllRoles",
      "outputs": [],
      "stateMutability": "nonpayable",
      "type": "function"
    },
    {
      "inputs": [
        {
          "internalType": "bytes32",
          "name": "ROLE_TO_SYNC",
          "type": "bytes32"
        }
      ],
      "name": "syncSingleRole",
      "outputs": [],
      "stateMutability": "nonpayable",
      "type": "function"
    },
    {
      "inputs": [],
      "name": "syncVotes",
      "outputs": [],
      "stateMutability": "nonpayable",
      "type": "function"
    },
    {
      "inputs": [
        {
          "internalType": "uint256",
          "name": "index",
          "type": "uint256"
        }
      ],
      "name": "tokenByIndex",
      "outputs": [
        {
          "internalType": "uint256",
          "name": "",
          "type": "uint256"
        }
      ],
      "stateMutability": "view",
      "type": "function",
      "constant": true
    },
    {
      "inputs": [
        {
          "internalType": "address",
          "name": "owner",
          "type": "address"
        },
        {
          "internalType": "uint256",
          "name": "index",
          "type": "uint256"
        }
      ],
      "name": "tokenOfOwnerByIndex",
      "outputs": [
        {
          "internalType": "uint256",
          "name": "",
          "type": "uint256"
        }
      ],
      "stateMutability": "view",
      "type": "function",
      "constant": true
    },
    {
      "inputs": [
        {
          "internalType": "uint256",
          "name": "tokenId",
          "type": "uint256"
        }
      ],
      "name": "tokenURI",
      "outputs": [
        {
          "internalType": "string",
          "name": "",
          "type": "string"
        }
      ],
      "stateMutability": "view",
      "type": "function",
      "constant": true
    },
    {
      "inputs": [],
      "name": "totalShares",
      "outputs": [
        {
          "internalType": "uint256",
          "name": "",
          "type": "uint256"
        }
      ],
      "stateMutability": "view",
      "type": "function",
      "constant": true
    },
    {
      "inputs": [],
      "name": "totalSupply",
      "outputs": [
        {
          "internalType": "uint256",
          "name": "",
          "type": "uint256"
        }
      ],
      "stateMutability": "view",
      "type": "function",
      "constant": true
    },
    {
      "inputs": [
        {
          "internalType": "address",
          "name": "from",
          "type": "address"
        },
        {
          "internalType": "address",
          "name": "to",
          "type": "address"
        },
        {
          "internalType": "uint256",
          "name": "tokenId",
          "type": "uint256"
        }
      ],
      "name": "transferFrom",
      "outputs": [],
      "stateMutability": "nonpayable",
      "type": "function"
    },
    {
      "inputs": [],
      "name": "updateAddressManager",
      "outputs": [],
      "stateMutability": "nonpayable",
      "type": "function"
    },
    {
      "inputs": [],
      "name": "updateAllAddresses",
      "outputs": [],
      "stateMutability": "nonpayable",
      "type": "function"
    },
    {
      "inputs": [],
      "name": "updateAllRoles",
      "outputs": [],
      "stateMutability": "nonpayable",
      "type": "function"
    },
    {
      "inputs": [],
      "name": "updateDAOAddresses",
      "outputs": [],
      "stateMutability": "nonpayable",
      "type": "function"
    },
    {
      "inputs": [
        {
          "internalType": "bytes32",
          "name": "ROLE_TO_UPDATE",
          "type": "bytes32"
        }
      ],
      "name": "updateSingleRole",
      "outputs": [],
      "stateMutability": "nonpayable",
      "type": "function"
    },
    {
      "inputs": [],
      "name": "updateTokenAddresses",
      "outputs": [],
      "stateMutability": "nonpayable",
      "type": "function"
    },
    {
      "inputs": [],
      "name": "updateStakingToken",
      "outputs": [],
      "stateMutability": "nonpayable",
      "type": "function"
    },
    {
      "inputs": [
        {
          "internalType": "uint256",
          "name": "_tokenId",
          "type": "uint256"
        }
      ],
      "name": "getHatBalance",
      "outputs": [
        {
          "internalType": "uint256",
          "name": "hatBalance",
          "type": "uint256"
        }
      ],
      "stateMutability": "nonpayable",
      "type": "function"
    },
    {
      "inputs": [
        {
          "internalType": "uint256",
          "name": "_amount",
          "type": "uint256"
        },
        {
          "internalType": "uint256",
          "name": "tokenIdToStakeWith",
          "type": "uint256"
        }
      ],
      "name": "stakePens",
      "outputs": [],
      "stateMutability": "nonpayable",
      "type": "function"
    },
    {
      "inputs": [],
      "name": "stakePens",
      "outputs": [],
      "stateMutability": "nonpayable",
      "type": "function"
    },
    {
      "inputs": [
        {
          "internalType": "uint256",
          "name": "_amount",
          "type": "uint256"
        }
      ],
      "name": "stakePens",
      "outputs": [],
      "stateMutability": "nonpayable",
      "type": "function"
    },
    {
      "inputs": [
        {
          "internalType": "uint256",
          "name": "_amount",
          "type": "uint256"
        },
        {
          "internalType": "uint256",
          "name": "_tokenId",
          "type": "uint256"
        }
      ],
      "name": "returnHats",
      "outputs": [],
      "stateMutability": "nonpayable",
      "type": "function"
    },
    {
      "inputs": [
        {
          "internalType": "uint256",
          "name": "_tokenId",
          "type": "uint256"
        }
      ],
      "name": "returnHats",
      "outputs": [],
      "stateMutability": "nonpayable",
      "type": "function"
    },
    {
      "inputs": [],
      "name": "returnHats",
      "outputs": [],
      "stateMutability": "nonpayable",
      "type": "function"
    },
    {
      "inputs": [
        {
          "internalType": "uint256",
          "name": "_tokenIdToSlash",
          "type": "uint256"
        },
        {
          "internalType": "uint256",
          "name": "_percentToSlashInWholeNumber",
          "type": "uint256"
        }
      ],
      "name": "slashToken",
      "outputs": [],
      "stateMutability": "nonpayable",
      "type": "function"
    },
    {
      "inputs": [
        {
          "internalType": "bytes4",
          "name": "interfaceId",
          "type": "bytes4"
        }
      ],
      "name": "supportsInterface",
      "outputs": [
        {
          "internalType": "bool",
          "name": "",
          "type": "bool"
        }
      ],
      "stateMutability": "view",
      "type": "function",
      "constant": true
    }
  ],
  "bytecode": "0x6080604052600a805460ff19169055601b805463ffffffff60a01b191690556001601d556000601e553480156200003557600080fd5b506040516200520238038062005202833981016040819052620000589162000d99565b604080518082018252600a8152694a75727279204861747360b01b60208083019182528351808501909452600384526212185d60ea1b90840152815184938493929091620000a99160009162000cf3565b508051620000bf90600190602084019062000cf3565b5050600d80546001600160a01b039093166001600160a01b03199384168117909155601b80549093161790915550620000f762000234565b620001016200024a565b6019546200011b906000906001600160a01b031662000395565b60195462000154907f0538d24a8b7882d7b2e36af243d4af61c23e86e3daa6cb8c887b53220b2f5720906001600160a01b031662000395565b6016546200018d907f048bc71fa1cb2c119c339cf9cf00a97996a19a9d991ce5fe049f2fa5459e7990906001600160a01b031662000395565b601754620001c6907ffa8e4989e1d689f7bc5c4b25b87efb51fecdecb19ba62847e29c759e12a89acd906001600160a01b031662000395565b601a54620001ff907ff0f4b159a6e2a4815eb3ca3df080bfa70c9270662c59bcaa4479a456220183e6906001600160a01b031662000395565b6200022c7f7c9d7f6f02908185bffb3f7fc9afb29fd7bf93675af8fd4b655ee05c2cee1e0e600062000395565b505062000e2c565b6200023e620003d8565b62000248620006d8565b565b601b60009054906101000a90046001600160a01b03166001600160a01b031663ff7e88ec6040518163ffffffff1660e01b815260040160206040518083038186803b1580156200029957600080fd5b505afa158015620002ae573d6000803e3d6000fd5b505050506040513d601f19601f82011682018060405250810190620002d4919062000dcb565b601b60156101000a81548160ff021916908315150217905550601b60009054906101000a90046001600160a01b03166001600160a01b0316632fb565856040518163ffffffff1660e01b815260040160206040518083038186803b1580156200033c57600080fd5b505afa15801562000351573d6000803e3d6000fd5b505050506040513d601f19601f8201168201806040525081019062000377919062000dcb565b601b8054911515600160b01b0260ff60b01b19909216919091179055565b620003ac8282620006f760201b62001b1d1760201c565b6000828152600c60209081526040909120620003d391839062001b2b62000707821b17901c565b505050565b601b60009054906101000a90046001600160a01b03166001600160a01b031663dadf56ac6040518163ffffffff1660e01b815260040160206040518083038186803b1580156200042757600080fd5b505afa1580156200043c573d6000803e3d6000fd5b505050506040513d601f19601f8201168201806040525081019062000462919062000d99565b601680546001600160a01b0319166001600160a01b03928316179055601b546040805163024bebe960e01b81529051919092169163024bebe9916004808301926020929190829003018186803b158015620004bc57600080fd5b505afa158015620004d1573d6000803e3d6000fd5b505050506040513d601f19601f82011682018060405250810190620004f7919062000d99565b601780546001600160a01b0319166001600160a01b03928316179055601b5460408051635b5c251f60e01b815290519190921691635b5c251f916004808301926020929190829003018186803b1580156200055157600080fd5b505afa15801562000566573d6000803e3d6000fd5b505050506040513d601f19601f820116820180604052508101906200058c919062000d99565b601880546001600160a01b0319166001600160a01b03928316179055601b5460408051637310bf1d60e11b81529051919092169163e6217e3a916004808301926020929190829003018186803b158015620005e657600080fd5b505afa158015620005fb573d6000803e3d6000fd5b505050506040513d601f19601f8201168201806040525081019062000621919062000d99565b601a80546001600160a01b0319166001600160a01b03928316179055601b546040805163d88127a160e01b81529051919092169163d88127a1916004808301926020929190829003018186803b1580156200067b57600080fd5b505afa15801562000690573d6000803e3d6000fd5b505050506040513d601f19601f82011682018060405250810190620006b6919062000d99565b601580546001600160a01b0319166001600160a01b0392909216919091179055565b620006e262000727565b62000248620007d360201b62001b401760201c565b62000703828262000bfd565b5050565b60006200071e836001600160a01b03841662000ca1565b90505b92915050565b601b60009054906101000a90046001600160a01b03166001600160a01b031663762ddb596040518163ffffffff1660e01b815260040160206040518083038186803b1580156200077657600080fd5b505afa1580156200078b573d6000803e3d6000fd5b505050506040513d601f19601f82011682018060405250810190620007b1919062000d99565b601c80546001600160a01b0319166001600160a01b0392909216919091179055565b601b60009054906101000a90046001600160a01b03166001600160a01b03166321d7f0086040518163ffffffff1660e01b815260040160206040518083038186803b1580156200082257600080fd5b505afa15801562000837573d6000803e3d6000fd5b505050506040513d601f19601f820116820180604052508101906200085d919062000d99565b600e80546001600160a01b0319166001600160a01b03928316179055601b546040805163762ddb5960e01b81529051919092169163762ddb59916004808301926020929190829003018186803b158015620008b757600080fd5b505afa158015620008cc573d6000803e3d6000fd5b505050506040513d601f19601f82011682018060405250810190620008f2919062000d99565b600f80546001600160a01b0319166001600160a01b03928316179055601b546040805163bfb7dc9960e01b81529051919092169163bfb7dc99916004808301926020929190829003018186803b1580156200094c57600080fd5b505afa15801562000961573d6000803e3d6000fd5b505050506040513d601f19601f8201168201806040525081019062000987919062000d99565b601080546001600160a01b0319166001600160a01b03928316179055601b5460408051633e6111eb60e21b81529051919092169163f98447ac916004808301926020929190829003018186803b158015620009e157600080fd5b505afa158015620009f6573d6000803e3d6000fd5b505050506040513d601f19601f8201168201806040525081019062000a1c919062000d99565b601180546001600160a01b0319166001600160a01b03928316179055601b5460408051630fe1ba9f60e21b815290519190921691633f86ea7c916004808301926020929190829003018186803b15801562000a7657600080fd5b505afa15801562000a8b573d6000803e3d6000fd5b505050506040513d601f19601f8201168201806040525081019062000ab1919062000d99565b601280546001600160a01b0319166001600160a01b03928316179055601b5460408051632b90024160e11b8152905191909216916357200482916004808301926020929190829003018186803b15801562000b0b57600080fd5b505afa15801562000b20573d6000803e3d6000fd5b505050506040513d601f19601f8201168201806040525081019062000b46919062000d99565b601380546001600160a01b0319166001600160a01b03928316179055601b5460408051636b58477560e01b815290519190921691636b584775916004808301926020929190829003018186803b15801562000ba057600080fd5b505afa15801562000bb5573d6000803e3d6000fd5b505050506040513d601f19601f8201168201806040525081019062000bdb919062000d99565b601480546001600160a01b0319166001600160a01b0392909216919091179055565b6000828152600b602090815260408083206001600160a01b038516845290915290205460ff1662000703576000828152600b602090815260408083206001600160a01b03851684529091529020805460ff1916600117905562000c5d3390565b6001600160a01b0316816001600160a01b0316837f2f8788117e7eff1d82e926ec794901d17c78024a50270940304540a733656f0d60405160405180910390a45050565b600081815260018301602052604081205462000cea5750815460018181018455600084815260208082209093018490558454848252828601909352604090209190915562000721565b50600062000721565b82805462000d019062000def565b90600052602060002090601f01602090048101928262000d25576000855562000d70565b82601f1062000d4057805160ff191683800117855562000d70565b8280016001018555821562000d70579182015b8281111562000d7057825182559160200191906001019062000d53565b5062000d7e92915062000d82565b5090565b5b8082111562000d7e576000815560010162000d83565b60006020828403121562000dac57600080fd5b81516001600160a01b038116811462000dc457600080fd5b9392505050565b60006020828403121562000dde57600080fd5b8151801515811462000dc457600080fd5b600181811c9082168062000e0457607f821691505b6020821081141562000e2657634e487b7160e01b600052602260045260246000fd5b50919050565b6143c68062000e3c6000396000f3fe608060405234801561001057600080fd5b50600436106104075760003560e01c80636ad8118b11610220578063c87b56dd11610130578063e6217e3a116100b8578063f1132b3011610087578063f1132b30146108d8578063f3e94142146108e0578063f7d92d86146108f3578063f98447ac146108fb578063ff7e88ec1461090e57600080fd5b8063e6217e3a14610861578063e78c266c14610874578063e985e9c514610887578063e9a53230146108c357600080fd5b8063cf4ece15116100ff578063cf4ece151461080b578063d547741f14610820578063d88127a114610833578063dadf56ac14610846578063e3a479551461085957600080fd5b8063c87b56dd146107c8578063ca15c873146107db578063cce84392146107ee578063cd19182c1461080357600080fd5b80639996abde116101b3578063a78e746f11610182578063a78e746f1461075b578063a80a13211461076f578063b366d0ef14610782578063b88d4fde146107a2578063bfb7dc99146107b557600080fd5b80639996abde14610718578063a217fddf1461072b578063a22cb46514610733578063a32c5e591461074657600080fd5b8063762ddb59116101ef578063762ddb59146106d75780639010d07c146106ea57806391d14854146106fd57806395d89b411461071057600080fd5b80636ad8118b146106895780636b5847751461069157806370a08231146106a457806374f015f4146106b757600080fd5b8063329a8cfa1161031b5780634d84c6d8116102ae5780635b5c251f1161027d5780635b5c251f146106355780635db531a1146106485780635f413466146106505780636352211e1461066357806367a14f061461067657600080fd5b80634d84c6d8146105f45780634f6ccce7146105fc578063572004821461060f57806357f276ff1461062257600080fd5b80633ab76e9f116102ea5780633ab76e9f146105b35780633f86ea7c146105c657806342842e0e146105d957806349b5e105146105ec57600080fd5b8063329a8cfa1461057c57806336568abe14610584578063398b6d66146105975780633a98ef39146105aa57600080fd5b80631db5f0d11161039e578063248a9ca31161036d578063248a9ca3146105175780632f2ff15d1461053a5780632f745c591461054d5780632fb5658514610560578063326a55e01461057457600080fd5b80631db5f0d1146104c957806321d7f008146104dc57806323b872dd146104ef5780632436329d1461050257600080fd5b8063095ea7b3116103da578063095ea7b314610487578063130f63201461049c57806317314d5a146104af57806318160ddd146104b757600080fd5b806301ffc9a71461040c578063024bebe91461043457806306fdde031461045f578063081812fc14610474575b600080fd5b61041f61041a366004613f24565b610922565b60405190151581526020015b60405180910390f35b601754610447906001600160a01b031681565b6040516001600160a01b03909116815260200161042b565b610467610983565b60405161042b9190614084565b610447610482366004613ec4565b610a15565b61049a610495366004613e7b565b610aaf565b005b61049a6104aa366004613ec4565b610bc5565b61049a610bfa565b6008545b60405190815260200161042b565b61049a6104d7366004613f02565b610c23565b600e54610447906001600160a01b031681565b61049a6104fd366004613d2c565b610cfc565b6104bb6000805160206142f183398151915281565b6104bb610525366004613ec4565b6000908152600b602052604090206001015490565b61049a610548366004613edd565b610d2d565b6104bb61055b366004613e7b565b610d4f565b601b5461041f90600160b01b900460ff1681565b61049a610de5565b61049a610df5565b61049a610592366004613edd565b610efe565b61049a6105a5366004613f02565b610f20565b6104bb601e5481565b601b54610447906001600160a01b031681565b601254610447906001600160a01b031681565b61049a6105e7366004613d2c565b611108565b61049a611123565b61049a610ded565b6104bb61060a366004613ec4565b61112b565b601354610447906001600160a01b031681565b61049a610630366004613ec4565b6111be565b601854610447906001600160a01b031681565b61049a6111d2565b601954610447906001600160a01b031681565b610447610671366004613ec4565b6111da565b601c54610447906001600160a01b031681565b61049a611251565b601454610447906001600160a01b031681565b6104bb6106b2366004613cb9565b6112f9565b6104bb6106c5366004613ec4565b601f6020526000908152604090205481565b600f54610447906001600160a01b031681565b6104476106f8366004613f02565b611380565b61041f61070b366004613edd565b61139f565b6104676113ca565b61049a610726366004613f02565b6113d9565b6104bb600081565b61049a610741366004613e4d565b61154c565b6104bb60008051602061435183398151915281565b601b5461041f90600160a01b900460ff1681565b61049a61077d366004613ec4565b611611565b6104bb610790366004613ec4565b6000908152601f602052604090205490565b61049a6107b0366004613d6d565b61170b565b601054610447906001600160a01b031681565b6104676107d6366004613ec4565b61173d565b6104bb6107e9366004613ec4565b611824565b6104bb60008051602061437183398151915281565b61049a61183b565b6104bb60008051602061433183398151915281565b61049a61082e366004613edd565b6118c2565b601554610447906001600160a01b031681565b601654610447906001600160a01b031681565b61049a6118cc565b601a54610447906001600160a01b031681565b600d54610447906001600160a01b031681565b61041f610895366004613cf3565b6001600160a01b03918216600090815260056020908152604080832093909416825291909152205460ff1690565b6104bb60008051602061431183398151915281565b61049a6118f9565b61049a6108ee366004613ec4565b611901565b61049a611a7d565b601154610447906001600160a01b031681565b601b5461041f90600160a81b900460ff1681565b60006001600160e01b031982166380ac58cd60e01b148061095357506001600160e01b031982166336372b0760e01b145b8061096e57506001600160e01b03198216635b5e139f60e01b145b8061097d575061097d82611f4e565b92915050565b606060008054610992906141df565b80601f01602080910402602001604051908101604052809291908181526020018280546109be906141df565b8015610a0b5780601f106109e057610100808354040283529160200191610a0b565b820191906000526020600020905b8154815290600101906020018083116109ee57829003601f168201915b5050505050905090565b6000818152600260205260408120546001600160a01b0316610a935760405162461bcd60e51b815260206004820152602c60248201527f4552433732313a20617070726f76656420717565727920666f72206e6f6e657860448201526b34b9ba32b73a103a37b5b2b760a11b60648201526084015b60405180910390fd5b506000908152600460205260409020546001600160a01b031690565b6000610aba826111da565b9050806001600160a01b0316836001600160a01b03161415610b285760405162461bcd60e51b815260206004820152602160248201527f4552433732313a20617070726f76616c20746f2063757272656e74206f776e656044820152603960f91b6064820152608401610a8a565b336001600160a01b0382161480610b445750610b448133610895565b610bb65760405162461bcd60e51b815260206004820152603860248201527f4552433732313a20617070726f76652063616c6c6572206973206e6f74206f7760448201527f6e6572206e6f7220617070726f76656420666f7220616c6c00000000000000006064820152608401610a8a565b610bc08383611f73565b505050565b610bcf6001611fe1565b50610bd98161209e565b50610be381612219565b50610bee6000611fe1565b610bf757600080fd5b50565b610c046001611fe1565b50610c0d6123a2565b50610c186000611fe1565b610c2157600080fd5b565b610c3b6000805160206143518339815191523361139f565b80610c595750610c596000805160206143118339815191523361139f565b80610c775750610c776000805160206142f18339815191523361139f565b610cbc5760405162461bcd60e51b81526020600482015260166024820152752cb7ba93b932903737ba103a3432903130b4b634b33360511b6044820152606401610a8a565b60648110610cc957600080fd5b6000828152601f6020526040812054606490610ce6908490614166565b610cf09190614152565b9050610bc083826124e8565b610d06338261250f565b610d225760405162461bcd60e51b8152600401610a8a906140e9565b610bc0838383612606565b610d3782826127b1565b6000828152600c60205260409020610bc09082611b2b565b6000610d5a836112f9565b8210610dbc5760405162461bcd60e51b815260206004820152602b60248201527f455243373231456e756d657261626c653a206f776e657220696e646578206f7560448201526a74206f6620626f756e647360a81b6064820152608401610a8a565b506001600160a01b03919091166000908152600660209081526040808320938352929052205490565b610ded6127ec565b610c21612ad8565b610e0d6000805160206143518339815191523361139f565b80610e2b5750610e2b6000805160206143118339815191523361139f565b80610e495750610e496000805160206142f18339815191523361139f565b610e8e5760405162461bcd60e51b81526020600482015260166024820152752cb7ba93b932903737ba103a3432903130b4b634b33360511b6044820152606401610a8a565b601b60009054906101000a90046001600160a01b03166001600160a01b031663329a8cfa6040518163ffffffff1660e01b8152600401600060405180830381600087803b158015610ede57600080fd5b505af1158015610ef2573d6000803e3d6000fd5b50505050610c216111d2565b610f088282612ae8565b6000828152600c60205260409020610bc09082612b62565b33610f2a826111da565b6001600160a01b031614610f3d57600080fd5b6000818152601f60205260409020548210610f64576000818152601f602052604090205491505b601e54601c546040516370a0823160e01b8152306004820152600092916001600160a01b0316906370a082319060240160206040518083038186803b158015610fac57600080fd5b505afa158015610fc0573d6000803e3d6000fd5b505050506040513d601f19601f82011682018060405250810190610fe49190613f5e565b610fee9085614166565b610ff89190614152565b905082601e600082825461100c9190614185565b90915550506000828152601f60205260409020548314156110445761103082612b77565b6000828152601f602052604081205561107e565b6000828152601f602052604090205483101561107e576000828152601f602052604081208054859290611078908490614185565b90915550505b601c5460405163a9059cbb60e01b8152336004820152602481018390526001600160a01b039091169063a9059cbb90604401602060405180830381600087803b1580156110ca57600080fd5b505af11580156110de573d6000803e3d6000fd5b505050506040513d601f19601f820116820180604052508101906111029190613ea7565b50505050565b610bc08383836040518060200160405280600081525061170b565b610c216127ec565b600061113660085490565b82106111995760405162461bcd60e51b815260206004820152602c60248201527f455243373231456e756d657261626c653a20676c6f62616c20696e646578206f60448201526b7574206f6620626f756e647360a01b6064820152608401610a8a565b600882815481106111ac576111ac61428b565b90600052602060002001549050919050565b6111c86001611fe1565b50610be381612c1e565b610c21612e79565b6000818152600260205260408120546001600160a01b03168061097d5760405162461bcd60e51b815260206004820152602960248201527f4552433732313a206f776e657220717565727920666f72206e6f6e657869737460448201526832b73a103a37b5b2b760b91b6064820152608401610a8a565b601b60009054906101000a90046001600160a01b03166001600160a01b031663762ddb596040518163ffffffff1660e01b815260040160206040518083038186803b15801561129f57600080fd5b505afa1580156112b3573d6000803e3d6000fd5b505050506040513d601f19601f820116820180604052508101906112d79190613cd6565b601c80546001600160a01b0319166001600160a01b0392909216919091179055565b60006001600160a01b0382166113645760405162461bcd60e51b815260206004820152602a60248201527f4552433732313a2062616c616e636520717565727920666f7220746865207a65604482015269726f206164647265737360b01b6064820152608401610a8a565b506001600160a01b031660009081526003602052604090205490565b6000828152600c602052604081206113989083612fbc565b9392505050565b6000918252600b602090815260408084206001600160a01b0393909316845291905290205460ff1690565b606060018054610992906141df565b601c546040516370a0823160e01b81523060048201526000916001600160a01b0316906370a082319060240160206040518083038186803b15801561141d57600080fd5b505afa158015611431573d6000803e3d6000fd5b505050506040513d601f19601f820116820180604052508101906114559190613f5e565b601c546040516323b872dd60e01b8152336004820152306024820152604481018690529192506000916001600160a01b03909116906323b872dd90606401602060405180830381600087803b1580156114ad57600080fd5b505af11580156114c1573d6000803e3d6000fd5b505050506040513d601f19601f820116820180604052508101906114e59190613ea7565b50601e541561150a5781601e54856114fd9190614166565b6115079190614152565b93505b6000818152601f60205260408120805486929061152890849061413a565b9250508190555083601e6000828254611541919061413a565b909155505050505050565b6001600160a01b0382163314156115a55760405162461bcd60e51b815260206004820152601960248201527f4552433732313a20617070726f766520746f2063616c6c6572000000000000006044820152606401610a8a565b3360008181526005602090815260408083206001600160a01b03871680855290835292819020805460ff191686151590811790915590519081529192917f17307eab39ab6107e8899845ad3d59bd9653f200f220920489ca2b5937696c31910160405180910390a35050565b3361161b826111da565b6001600160a01b03161461162e57600080fd5b6000818152601f602052604080822054601e54601c5492516370a0823160e01b815230600482015291939290916001600160a01b03909116906370a082319060240160206040518083038186803b15801561168857600080fd5b505afa15801561169c573d6000803e3d6000fd5b505050506040513d601f19601f820116820180604052508101906116c09190613f5e565b6116ca9084614166565b6116d49190614152565b6000848152601f60205260408120819055601e805492935084929091906116fc908490614185565b9091555061107e905083612b77565b611715338361250f565b6117315760405162461bcd60e51b8152600401610a8a906140e9565b61110284848484612fc8565b6000818152600260205260409020546060906001600160a01b03166117bc5760405162461bcd60e51b815260206004820152602f60248201527f4552433732314d657461646174613a2055524920717565727920666f72206e6f60448201526e3732bc34b9ba32b73a103a37b5b2b760891b6064820152608401610a8a565b60006117d360408051602081019091526000815290565b905060008151116117f35760405180602001604052806000815250611398565b806117fd84612ffb565b60405160200161180e929190613fa3565b6040516020818303038152906040529392505050565b6000818152600c6020526040812061097d906130f9565b601c546040516370a0823160e01b81523360048201526000916001600160a01b0316906370a082319060240160206040518083038186803b15801561187f57600080fd5b505afa158015611893573d6000803e3d6000fd5b505050506040513d601f19601f820116820180604052508101906118b79190613f5e565b9050610bf781611901565b610f088282613103565b60006118d7336112f9565b116118e157600080fd5b60006118ee336001610d4f565b9050610bf781611611565b610c2161313e565b601c546040516370a0823160e01b81523060048201526000916001600160a01b0316906370a082319060240160206040518083038186803b15801561194557600080fd5b505afa158015611959573d6000803e3d6000fd5b505050506040513d601f19601f8201168201806040525081019061197d9190613f5e565b601e54601c546040516323b872dd60e01b81523360048201523060248201526044810186905292935090916000916001600160a01b0316906323b872dd90606401602060405180830381600087803b1580156119d857600080fd5b505af11580156119ec573d6000803e3d6000fd5b505050506040513d601f19601f82011682018060405250810190611a109190613ea7565b506001611a1c336112f9565b1015611a4e5750601d54611a303382613275565b6001601d6000828254611a43919061413a565b90915550611a6c9050565b6001611a59336112f9565b10611a6c57611a69336001610d4f565b90505b811561150a57826114fd8386614166565b611a876001611fe1565b50611a9f600080516020614351833981519152612c1e565b50611ab7600080516020614311833981519152612c1e565b50611acf6000805160206142f1833981519152612c1e565b50611ae7600080516020614331833981519152612c1e565b50611aff600080516020614371833981519152612c1e565b50611b0a6000612c1e565b50611b13612e79565b610c186000611fe1565b611b27828261328f565b5050565b6000611398836001600160a01b038416613315565b601b60009054906101000a90046001600160a01b03166001600160a01b03166321d7f0086040518163ffffffff1660e01b815260040160206040518083038186803b158015611b8e57600080fd5b505afa158015611ba2573d6000803e3d6000fd5b505050506040513d601f19601f82011682018060405250810190611bc69190613cd6565b600e80546001600160a01b0319166001600160a01b03928316179055601b546040805163762ddb5960e01b81529051919092169163762ddb59916004808301926020929190829003018186803b158015611c1f57600080fd5b505afa158015611c33573d6000803e3d6000fd5b505050506040513d601f19601f82011682018060405250810190611c579190613cd6565b600f80546001600160a01b0319166001600160a01b03928316179055601b546040805163bfb7dc9960e01b81529051919092169163bfb7dc99916004808301926020929190829003018186803b158015611cb057600080fd5b505afa158015611cc4573d6000803e3d6000fd5b505050506040513d601f19601f82011682018060405250810190611ce89190613cd6565b601080546001600160a01b0319166001600160a01b03928316179055601b5460408051633e6111eb60e21b81529051919092169163f98447ac916004808301926020929190829003018186803b158015611d4157600080fd5b505afa158015611d55573d6000803e3d6000fd5b505050506040513d601f19601f82011682018060405250810190611d799190613cd6565b601180546001600160a01b0319166001600160a01b03928316179055601b5460408051630fe1ba9f60e21b815290519190921691633f86ea7c916004808301926020929190829003018186803b158015611dd257600080fd5b505afa158015611de6573d6000803e3d6000fd5b505050506040513d601f19601f82011682018060405250810190611e0a9190613cd6565b601280546001600160a01b0319166001600160a01b03928316179055601b5460408051632b90024160e11b8152905191909216916357200482916004808301926020929190829003018186803b158015611e6357600080fd5b505afa158015611e77573d6000803e3d6000fd5b505050506040513d601f19601f82011682018060405250810190611e9b9190613cd6565b601380546001600160a01b0319166001600160a01b03928316179055601b5460408051636b58477560e01b815290519190921691636b584775916004808301926020929190829003018186803b158015611ef457600080fd5b505afa158015611f08573d6000803e3d6000fd5b505050506040513d601f19601f82011682018060405250810190611f2c9190613cd6565b601480546001600160a01b0319166001600160a01b0392909216919091179055565b60006001600160e01b03198216635a05180f60e01b148061097d575061097d82613364565b600081815260046020526040902080546001600160a01b0319166001600160a01b0384169081179091558190611fa8826111da565b6001600160a01b03167f8c5be1e5ebec7d5bd14f71427d1e84f3dd0314c0f7b2291e5b200ac8c7c3b92560405160405180910390a45050565b600a5460009060ff16821515811515141561203e5760405162461bcd60e51b815260206004820152601960248201527f416c72656164792053657420746f20746861742076616c7565000000000000006044820152606401610a8a565b600a805484151560ff19909116811790915560ff16151581151514156120955760405162461bcd60e51b815260206004820152600c60248201526b29b0b33a32bc9022b93937b960a11b6044820152606401610a8a565b50600192915050565b60405163ca15c87360e01b8152600481018290526000908190309063ca15c8739060240160206040518083038186803b1580156120da57600080fd5b505afa1580156120ee573d6000803e3d6000fd5b505050506040513d601f19601f820116820180604052508101906121129190613f5e565b905060005b8181101561220f57604051632404341f60e21b815260048101859052602481018290526000903090639010d07c9060440160206040518083038186803b15801561216057600080fd5b505afa158015612174573d6000803e3d6000fd5b505050506040513d601f19601f820116820180604052508101906121989190613cd6565b60405163d547741f60e01b8152600481018790526001600160a01b0382166024820152909150309063d547741f90604401600060405180830381600087803b1580156121e357600080fd5b505af11580156121f7573d6000803e3d6000fd5b505050505080806122079061421a565b915050612117565b5060019392505050565b601b5460405163ca15c87360e01b81526004810183905260009182916001600160a01b039091169063ca15c8739060240160206040518083038186803b15801561226257600080fd5b505afa158015612276573d6000803e3d6000fd5b505050506040513d601f19601f8201168201806040525081019061229a9190613f5e565b905060005b8181101561220f57601b54604051632404341f60e21b815260048101869052602481018390526000916001600160a01b031690639010d07c9060440160206040518083038186803b1580156122f357600080fd5b505afa158015612307573d6000803e3d6000fd5b505050506040513d601f19601f8201168201806040525081019061232b9190613cd6565b604051632f2ff15d60e01b8152600481018790526001600160a01b03821660248201529091503090632f2ff15d90604401600060405180830381600087803b15801561237657600080fd5b505af115801561238a573d6000803e3d6000fd5b5050505050808061239a9061421a565b91505061229f565b60006123bb60008051602061435183398151915261209e565b506123d3600080516020614351833981519152612219565b6123dc57600080fd5b6123f360008051602061431183398151915261209e565b5061240b600080516020614311833981519152612219565b61241457600080fd5b61242b6000805160206142f183398151915261209e565b506124436000805160206142f1833981519152612219565b61244c57600080fd5b61246360008051602061433183398151915261209e565b5061247b600080516020614331833981519152612219565b61248457600080fd5b61249b60008051602061437183398151915261209e565b506124b3600080516020614371833981519152612219565b6124bc57600080fd5b6124c6600061209e565b506124d16000612219565b6124da57600080fd5b6124e2612e79565b50600190565b6000828152601f602052604081208054839290612506908490614185565b90915550505050565b6000818152600260205260408120546001600160a01b03166125885760405162461bcd60e51b815260206004820152602c60248201527f4552433732313a206f70657261746f7220717565727920666f72206e6f6e657860448201526b34b9ba32b73a103a37b5b2b760a11b6064820152608401610a8a565b6000612593836111da565b9050806001600160a01b0316846001600160a01b031614806125ce5750836001600160a01b03166125c384610a15565b6001600160a01b0316145b806125fe57506001600160a01b0380821660009081526005602090815260408083209388168352929052205460ff165b949350505050565b826001600160a01b0316612619826111da565b6001600160a01b0316146126815760405162461bcd60e51b815260206004820152602960248201527f4552433732313a207472616e73666572206f6620746f6b656e2074686174206960448201526839903737ba1037bbb760b91b6064820152608401610a8a565b6001600160a01b0382166126e35760405162461bcd60e51b8152602060048201526024808201527f4552433732313a207472616e7366657220746f20746865207a65726f206164646044820152637265737360e01b6064820152608401610a8a565b6126ee838383613389565b6126f9600082611f73565b6001600160a01b0383166000908152600360205260408120805460019290612722908490614185565b90915550506001600160a01b038216600090815260036020526040812080546001929061275090849061413a565b909155505060008181526002602052604080822080546001600160a01b0319166001600160a01b0386811691821790925591518493918716917fddf252ad1be2c89b69c2b068fc378daa952ba7f163c4a11628f55a4df523b3ef91a4505050565b6000828152600b6020526040902060010154600a5460ff16156127d857610bc0838361328f565b6127e28133613394565b610bc0838361328f565b601b60009054906101000a90046001600160a01b03166001600160a01b031663dadf56ac6040518163ffffffff1660e01b815260040160206040518083038186803b15801561283a57600080fd5b505afa15801561284e573d6000803e3d6000fd5b505050506040513d601f19601f820116820180604052508101906128729190613cd6565b601680546001600160a01b0319166001600160a01b03928316179055601b546040805163024bebe960e01b81529051919092169163024bebe9916004808301926020929190829003018186803b1580156128cb57600080fd5b505afa1580156128df573d6000803e3d6000fd5b505050506040513d601f19601f820116820180604052508101906129039190613cd6565b601780546001600160a01b0319166001600160a01b03928316179055601b5460408051635b5c251f60e01b815290519190921691635b5c251f916004808301926020929190829003018186803b15801561295c57600080fd5b505afa158015612970573d6000803e3d6000fd5b505050506040513d601f19601f820116820180604052508101906129949190613cd6565b601880546001600160a01b0319166001600160a01b03928316179055601b5460408051637310bf1d60e11b81529051919092169163e6217e3a916004808301926020929190829003018186803b1580156129ed57600080fd5b505afa158015612a01573d6000803e3d6000fd5b505050506040513d601f19601f82011682018060405250810190612a259190613cd6565b601a80546001600160a01b0319166001600160a01b03928316179055601b546040805163d88127a160e01b81529051919092169163d88127a1916004808301926020929190829003018186803b158015612a7e57600080fd5b505afa158015612a92573d6000803e3d6000fd5b505050506040513d601f19601f82011682018060405250810190612ab69190613cd6565b601580546001600160a01b0319166001600160a01b0392909216919091179055565b612ae0611251565b610c21611b40565b6001600160a01b0381163314612b585760405162461bcd60e51b815260206004820152602f60248201527f416363657373436f6e74726f6c3a2063616e206f6e6c792072656e6f756e636560448201526e103937b632b9903337b91039b2b63360891b6064820152608401610a8a565b611b2782826133f8565b6000611398836001600160a01b03841661345f565b6000612b82826111da565b9050612b9081600084613389565b612b9b600083611f73565b6001600160a01b0381166000908152600360205260408120805460019290612bc4908490614185565b909155505060008281526002602052604080822080546001600160a01b0319169055518391906001600160a01b038416907fddf252ad1be2c89b69c2b068fc378daa952ba7f163c4a11628f55a4df523b3ef908390a45050565b601b5460405163ca15c87360e01b81526004810183905260009182916001600160a01b039091169063ca15c8739060240160206040518083038186803b158015612c6757600080fd5b505afa158015612c7b573d6000803e3d6000fd5b505050506040513d601f19601f82011682018060405250810190612c9f9190613f5e565b60405163ca15c87360e01b815260048101859052909150600090309063ca15c8739060240160206040518083038186803b158015612cdc57600080fd5b505afa158015612cf0573d6000803e3d6000fd5b505050506040513d601f19601f82011682018060405250810190612d149190613f5e565b90506000612d228284614185565b905060008111612d675760405162461bcd60e51b815260206004820152601060248201526f4e6f7468696e6720746f2073796e632160801b6044820152606401610a8a565b60005b81811015612e6d57601b54604051632404341f60e21b815260048101889052602481018390526000916001600160a01b031690639010d07c9060440160206040518083038186803b158015612dbe57600080fd5b505afa158015612dd2573d6000803e3d6000fd5b505050506040513d601f19601f82011682018060405250810190612df69190613cd6565b604051632f2ff15d60e01b8152600481018990526001600160a01b03821660248201529091503090632f2ff15d90604401600060405180830381600087803b158015612e4157600080fd5b505af1158015612e55573d6000803e3d6000fd5b50505050508080612e659061421a565b915050612d6a565b50600195945050505050565b601b60009054906101000a90046001600160a01b03166001600160a01b031663ff7e88ec6040518163ffffffff1660e01b815260040160206040518083038186803b158015612ec757600080fd5b505afa158015612edb573d6000803e3d6000fd5b505050506040513d601f19601f82011682018060405250810190612eff9190613ea7565b601b60156101000a81548160ff021916908315150217905550601b60009054906101000a90046001600160a01b03166001600160a01b0316632fb565856040518163ffffffff1660e01b815260040160206040518083038186803b158015612f6657600080fd5b505afa158015612f7a573d6000803e3d6000fd5b505050506040513d601f19601f82011682018060405250810190612f9e9190613ea7565b601b8054911515600160b01b0260ff60b01b19909216919091179055565b6000611398838361354c565b612fd3848484612606565b612fdf848484846135d2565b6111025760405162461bcd60e51b8152600401610a8a90614097565b60608161301f5750506040805180820190915260018152600360fc1b602082015290565b8160005b811561304957806130338161421a565b91506130429050600a83614152565b9150613023565b60008167ffffffffffffffff811115613064576130646142a1565b6040519080825280601f01601f19166020018201604052801561308e576020820181803683370190505b5090505b84156125fe576130a3600183614185565b91506130b0600a86614235565b6130bb90603061413a565b60f81b8183815181106130d0576130d061428b565b60200101906001600160f81b031916908160001a9053506130f2600a86614152565b9450613092565b600061097d825490565b6000828152600b6020526040902060010154600a5460ff161561312a57610bc083836133f8565b6131348133613394565b610bc083836133f8565b601b60009054906101000a90046001600160a01b03166001600160a01b031663a44b93256040518163ffffffff1660e01b815260040160206040518083038186803b15801561318c57600080fd5b505afa1580156131a0573d6000803e3d6000fd5b505050506040513d601f19601f820116820180604052508101906131c49190613ea7565b6131cd57600080fd5b601b60009054906101000a90046001600160a01b03166001600160a01b031663ac7cfac36040518163ffffffff1660e01b815260040160206040518083038186803b15801561321b57600080fd5b505afa15801561322f573d6000803e3d6000fd5b505050506040513d601f19601f820116820180604052508101906132539190613cd6565b600d80546001600160a01b0319166001600160a01b0392909216919091179055565b611b278282604051806020016040528060008152506136df565b613299828261139f565b611b27576000828152600b602090815260408083206001600160a01b03851684529091529020805460ff191660011790556132d13390565b6001600160a01b0316816001600160a01b0316837f2f8788117e7eff1d82e926ec794901d17c78024a50270940304540a733656f0d60405160405180910390a45050565b600081815260018301602052604081205461335c5750815460018181018455600084815260208082209093018490558454848252828601909352604090209190915561097d565b50600061097d565b60006001600160e01b03198216637965db0b60e01b148061097d575061097d82613712565b610bc0838383613737565b61339e828261139f565b611b27576133b6816001600160a01b031660146137ef565b6133c18360206137ef565b6040516020016133d2929190613fd2565b60408051601f198184030181529082905262461bcd60e51b8252610a8a91600401614084565b613402828261139f565b15611b27576000828152600b602090815260408083206001600160a01b0385168085529252808320805460ff1916905551339285917ff6391f5c32d9c69d2a47ea670b442974b53935d1edc7fd64eb21e047a839171b9190a45050565b60008181526001830160205260408120548015613542576000613483600183614185565b855490915060009061349790600190614185565b905060008660000182815481106134b0576134b061428b565b90600052602060002001549050808760000184815481106134d3576134d361428b565b60009182526020808320909101929092558281526001890190915260409020849055865487908061350657613506614275565b6001900381819060005260206000200160009055905586600101600087815260200190815260200160002060009055600194505050505061097d565b600091505061097d565b815460009082106135aa5760405162461bcd60e51b815260206004820152602260248201527f456e756d657261626c655365743a20696e646578206f7574206f6620626f756e604482015261647360f01b6064820152608401610a8a565b8260000182815481106135bf576135bf61428b565b9060005260206000200154905092915050565b60006001600160a01b0384163b156136d457604051630a85bd0160e11b81526001600160a01b0385169063150b7a0290613616903390899088908890600401614047565b602060405180830381600087803b15801561363057600080fd5b505af1925050508015613660575060408051601f3d908101601f1916820190925261365d91810190613f41565b60015b6136ba573d80801561368e576040519150601f19603f3d011682016040523d82523d6000602084013e613693565b606091505b5080516136b25760405162461bcd60e51b8152600401610a8a90614097565b805181602001fd5b6001600160e01b031916630a85bd0160e11b1490506125fe565b506001949350505050565b6136e9838361398b565b6136f660008484846135d2565b610bc05760405162461bcd60e51b8152600401610a8a90614097565b60006001600160e01b0319821663780e9d6360e01b148061097d575061097d82613ad9565b6001600160a01b0383166137925761378d81600880546000838152600960205260408120829055600182018355919091527ff3f7a9fe364faab93b216da50a3214154f22a0a2b415b23a84c8169e8b636ee30155565b6137b5565b816001600160a01b0316836001600160a01b0316146137b5576137b58382613b29565b6001600160a01b0382166137cc57610bc081613bc6565b826001600160a01b0316826001600160a01b031614610bc057610bc08282613c75565b606060006137fe836002614166565b61380990600261413a565b67ffffffffffffffff811115613821576138216142a1565b6040519080825280601f01601f19166020018201604052801561384b576020820181803683370190505b509050600360fc1b816000815181106138665761386661428b565b60200101906001600160f81b031916908160001a905350600f60fb1b816001815181106138955761389561428b565b60200101906001600160f81b031916908160001a90535060006138b9846002614166565b6138c490600161413a565b90505b600181111561393c576f181899199a1a9b1b9c1cb0b131b232b360811b85600f16601081106138f8576138f861428b565b1a60f81b82828151811061390e5761390e61428b565b60200101906001600160f81b031916908160001a90535060049490941c93613935816141c8565b90506138c7565b5083156113985760405162461bcd60e51b815260206004820181905260248201527f537472696e67733a20686578206c656e67746820696e73756666696369656e746044820152606401610a8a565b6001600160a01b0382166139e15760405162461bcd60e51b815260206004820181905260248201527f4552433732313a206d696e7420746f20746865207a65726f20616464726573736044820152606401610a8a565b6000818152600260205260409020546001600160a01b031615613a465760405162461bcd60e51b815260206004820152601c60248201527f4552433732313a20746f6b656e20616c7265616479206d696e746564000000006044820152606401610a8a565b613a5260008383613389565b6001600160a01b0382166000908152600360205260408120805460019290613a7b90849061413a565b909155505060008181526002602052604080822080546001600160a01b0319166001600160a01b03861690811790915590518392907fddf252ad1be2c89b69c2b068fc378daa952ba7f163c4a11628f55a4df523b3ef908290a45050565b60006001600160e01b031982166380ac58cd60e01b1480613b0a57506001600160e01b03198216635b5e139f60e01b145b8061097d57506301ffc9a760e01b6001600160e01b031983161461097d565b60006001613b36846112f9565b613b409190614185565b600083815260076020526040902054909150808214613b93576001600160a01b03841660009081526006602090815260408083208584528252808320548484528184208190558352600790915290208190555b5060009182526007602090815260408084208490556001600160a01b039094168352600681528383209183525290812055565b600854600090613bd890600190614185565b60008381526009602052604081205460088054939450909284908110613c0057613c0061428b565b906000526020600020015490508060088381548110613c2157613c2161428b565b6000918252602080832090910192909255828152600990915260408082208490558582528120556008805480613c5957613c59614275565b6001900381819060005260206000200160009055905550505050565b6000613c80836112f9565b6001600160a01b039093166000908152600660209081526040808320868452825280832085905593825260079052919091209190915550565b600060208284031215613ccb57600080fd5b8135611398816142b7565b600060208284031215613ce857600080fd5b8151611398816142b7565b60008060408385031215613d0657600080fd5b8235613d11816142b7565b91506020830135613d21816142b7565b809150509250929050565b600080600060608486031215613d4157600080fd5b8335613d4c816142b7565b92506020840135613d5c816142b7565b929592945050506040919091013590565b60008060008060808587031215613d8357600080fd5b8435613d8e816142b7565b93506020850135613d9e816142b7565b925060408501359150606085013567ffffffffffffffff80821115613dc257600080fd5b818701915087601f830112613dd657600080fd5b813581811115613de857613de86142a1565b604051601f8201601f19908116603f01168101908382118183101715613e1057613e106142a1565b816040528281528a6020848701011115613e2957600080fd5b82602086016020830137600060208483010152809550505050505092959194509250565b60008060408385031215613e6057600080fd5b8235613e6b816142b7565b91506020830135613d21816142cc565b60008060408385031215613e8e57600080fd5b8235613e99816142b7565b946020939093013593505050565b600060208284031215613eb957600080fd5b8151611398816142cc565b600060208284031215613ed657600080fd5b5035919050565b60008060408385031215613ef057600080fd5b823591506020830135613d21816142b7565b60008060408385031215613f1557600080fd5b50508035926020909101359150565b600060208284031215613f3657600080fd5b8135611398816142da565b600060208284031215613f5357600080fd5b8151611398816142da565b600060208284031215613f7057600080fd5b5051919050565b60008151808452613f8f81602086016020860161419c565b601f01601f19169290920160200192915050565b60008351613fb581846020880161419c565b835190830190613fc981836020880161419c565b01949350505050565b7f416363657373436f6e74726f6c3a206163636f756e742000000000000000000081526000835161400a81601785016020880161419c565b7001034b99036b4b9b9b4b733903937b6329607d1b601791840191820152835161403b81602884016020880161419c565b01602801949350505050565b6001600160a01b038581168252841660208201526040810183905260806060820181905260009061407a90830184613f77565b9695505050505050565b6020815260006113986020830184613f77565b60208082526032908201527f4552433732313a207472616e7366657220746f206e6f6e20455243373231526560408201527131b2b4bb32b91034b6b83632b6b2b73a32b960711b606082015260800190565b60208082526031908201527f4552433732313a207472616e736665722063616c6c6572206973206e6f74206f6040820152701ddb995c881b9bdc88185c1c1c9bdd9959607a1b606082015260800190565b6000821982111561414d5761414d614249565b500190565b6000826141615761416161425f565b500490565b600081600019048311821515161561418057614180614249565b500290565b60008282101561419757614197614249565b500390565b60005b838110156141b757818101518382015260200161419f565b838111156111025750506000910152565b6000816141d7576141d7614249565b506000190190565b600181811c908216806141f357607f821691505b6020821081141561421457634e487b7160e01b600052602260045260246000fd5b50919050565b600060001982141561422e5761422e614249565b5060010190565b6000826142445761424461425f565b500690565b634e487b7160e01b600052601160045260246000fd5b634e487b7160e01b600052601260045260246000fd5b634e487b7160e01b600052603160045260246000fd5b634e487b7160e01b600052603260045260246000fd5b634e487b7160e01b600052604160045260246000fd5b6001600160a01b0381168114610bf757600080fd5b8015158114610bf757600080fd5b6001600160e01b031981168114610bf757600080fdfefa8e4989e1d689f7bc5c4b25b87efb51fecdecb19ba62847e29c759e12a89acd048bc71fa1cb2c119c339cf9cf00a97996a19a9d991ce5fe049f2fa5459e7990f0f4b159a6e2a4815eb3ca3df080bfa70c9270662c59bcaa4479a456220183e60538d24a8b7882d7b2e36af243d4af61c23e86e3daa6cb8c887b53220b2f57207c9d7f6f02908185bffb3f7fc9afb29fd7bf93675af8fd4b655ee05c2cee1e0ea2646970667358221220782c273bc15173b0a25245b7e6d48ce7af8ecacd37d002f09a81c436173697f564736f6c63430008060033",
  "immutableReferences": {},
  "source": "// SPDX-License-Identifier: MIT\n// Inspired by SushiSwap SushiBar\n\npragma solidity ^0.8.0;\n\nimport \"../src/SmartConsensusMachine.sol\";\nimport \"@openzeppelin/contracts/token/ERC721/extensions/ERC721Enumerable.sol\";\nimport \"@openzeppelin/contracts/token/ERC721/ERC721.sol\";\nimport \"@openzeppelin/contracts/token/ERC20/ERC20.sol\";\n\ncontract JuryPool is ERC721, ERC721Enumerable, SmartConsensusMachine {\n\n    ERC20 public redPens;\n    uint private tokenIdGenerator = 1;\n    uint256 public totalShares = 0;\n\n    constructor(address _AddressManagerAddress) SmartConsensusMachine(_AddressManagerAddress) ERC721(\"Jurry Hats\", \"Hat\")  {\n\n\n    }\n\n    mapping (uint => uint256) public JurrorStake;\n\n    \n    function updateStakingToken() public {\n        redPens = ERC20(addressManager.RedPenTokenAddress());\n    }\n\n    function getHatBalance(uint _tokenId) public returns (uint256 hatBalance) {\n\n        // hatBalance = JurrorStake[_tokenId];\n        return JurrorStake[_tokenId];\n    }\n    \n    function stakePens() public {\n        uint256 amountToStake = redPens.balanceOf(msg.sender);\n        stakePens(amountToStake);\n    }\n\n    function stakePens(uint256 _amount) public {\n \n        uint256 totalPensInPool = redPens.balanceOf(address(this));\n        uint256 totalSharesCirculating = totalShares;\n        uint _tokenId;\n        redPens.transferFrom(msg.sender, address(this), _amount);\n\n\n        if ( balanceOf(msg.sender) < 1) {\n            _tokenId = tokenIdGenerator;\n            _safeMint(msg.sender, _tokenId);\n            tokenIdGenerator += 1;\n        } else if (balanceOf(msg.sender) >= 1) {\n            _tokenId = tokenOfOwnerByIndex(msg.sender, 1);\n        }   \n\n        if (totalSharesCirculating > 0) {\n            _amount = (_amount * totalSharesCirculating / totalPensInPool);\n        }\n\n        JurrorStake[_tokenId] += _amount; \n        totalShares += _amount;\n\n    }\n\n    // Only use this one if you have multiple staked positions that you are managing manually.\n    function stakePens(uint256 _amount, uint tokenIdToStakeWith) public {\n \n        uint256 totalPensInPool = redPens.balanceOf(address(this));\n        uint _tokenId;\n        redPens.transferFrom(msg.sender, address(this), _amount);\n\n        if (totalShares > 0) {\n            _amount = (_amount * totalShares / totalPensInPool);\n        }\n\n        JurrorStake[_tokenId] += _amount; \n        totalShares += _amount;\n\n    }\n\n\n    function returnHats() public {\n        require(balanceOf(msg.sender) > 0);\n         uint256 _tokenId = tokenOfOwnerByIndex(msg.sender, 1);\n         returnHats(_tokenId);\n    }\n\n    function returnHats(uint256 _tokenId) public {\n\n        require (ownerOf(_tokenId) == msg.sender);\n        uint256 _amount = JurrorStake[_tokenId];\n        uint256 pensToDistrubute = (_amount * (redPens.balanceOf(address(this))) / totalShares);\n        JurrorStake[_tokenId] = 0;\n        totalShares -= _amount;\n        _burn(_tokenId);\n        redPens.transfer(msg.sender, pensToDistrubute);\n    \n    }\n\n    function returnHats(uint256 _amount, uint256 _tokenId) public {\n\n        require (ownerOf(_tokenId) == msg.sender);\n        if (JurrorStake[_tokenId] <= _amount) {\n            _amount = JurrorStake[_tokenId];\n        }\n        uint256 pensToDistrubute = (_amount * (redPens.balanceOf(address(this))) / totalShares);\n        totalShares -= _amount;\n\n        if (JurrorStake[_tokenId] == _amount) {\n            _burn(_tokenId);\n            JurrorStake[_tokenId] = 0;\n\n        } else if (JurrorStake[_tokenId] > _amount) {\n            JurrorStake[_tokenId] -= _amount;\n        }\n        \n        redPens.transfer(msg.sender, pensToDistrubute);\n    \n    }\n\n    function slashToken(uint _tokenIdToSlash, uint _percentToSlashInWholeNumber) public BAILIFF {\n\n        require(_percentToSlashInWholeNumber < 100);\n        uint256 amountToSlash = JurrorStake[_tokenIdToSlash] * _percentToSlashInWholeNumber / 100;\n        _slash(_tokenIdToSlash, amountToSlash);\n\n    }\n\n    function _slash(uint _tokenIdToSlash, uint _amountToSlash) internal {\n        JurrorStake[_tokenIdToSlash] -= _amountToSlash;\n    }\n\n    function _updateTokenAddresses() internal override {\n\n        updateStakingToken();\n        super._updateTokenAddresses();\n        \n    }\n\n    function _beforeTokenTransfer(address from, address to, uint256 amount)\n        internal\n        override (ERC721, ERC721Enumerable)\n    {\n        super._beforeTokenTransfer(from, to, amount);\n    }\n\n    function supportsInterface(bytes4 interfaceId) public view virtual override (AccessControlEnumerable, ERC721, ERC721Enumerable) returns (bool) {\n        return\n            interfaceId == type(IERC721).interfaceId ||\n            interfaceId == type(IERC20).interfaceId ||\n            interfaceId == type(IERC721Metadata).interfaceId ||\n            super.supportsInterface(interfaceId);\n    }\n\n}",
  "sourcePath": "/home/n/Desktop/PinkSlips_FrontEnd_REFORMAT/contracts/juryAndAppeals/JuryPool.sol",
  "compiler": {
    "name": "solc",
    "version": "0.8.6+commit.11564f7e.Emscripten.clang"
  },
  "schemaVersion": "3.4.1",
  "updatedAt": "2021-08-09T09:06:52.956Z",
  "networkType": "ethereum",
  "devdoc": {
    "kind": "dev",
    "methods": {
      "approve(address,uint256)": {
        "details": "See {IERC721-approve}."
      },
      "balanceOf(address)": {
        "details": "See {IERC721-balanceOf}."
      },
      "getApproved(uint256)": {
        "details": "See {IERC721-getApproved}."
      },
      "getRoleAdmin(bytes32)": {
        "details": "Returns the admin role that controls `role`. See {grantRole} and {revokeRole}. To change a role's admin, use {_setRoleAdmin}."
      },
      "getRoleMember(bytes32,uint256)": {
        "details": "Returns one of the accounts that have `role`. `index` must be a value between 0 and {getRoleMemberCount}, non-inclusive. Role bearers are not sorted in any particular way, and their ordering may change at any point. WARNING: When using {getRoleMember} and {getRoleMemberCount}, make sure you perform all queries on the same block. See the following https://forum.openzeppelin.com/t/iterating-over-elements-on-enumerableset-in-openzeppelin-contracts/2296[forum post] for more information."
      },
      "getRoleMemberCount(bytes32)": {
        "details": "Returns the number of accounts that have `role`. Can be used together with {getRoleMember} to enumerate all bearers of a role."
      },
      "grantRole(bytes32,address)": {
        "details": "Overload {grantRole} to track enumerable memberships"
      },
      "hasRole(bytes32,address)": {
        "details": "Returns `true` if `account` has been granted `role`."
      },
      "isApprovedForAll(address,address)": {
        "details": "See {IERC721-isApprovedForAll}."
      },
      "name()": {
        "details": "See {IERC721Metadata-name}."
      },
      "ownerOf(uint256)": {
        "details": "See {IERC721-ownerOf}."
      },
      "renounceRole(bytes32,address)": {
        "details": "Overload {renounceRole} to track enumerable memberships"
      },
      "revokeRole(bytes32,address)": {
        "details": "Overload {revokeRole} to track enumerable memberships"
      },
      "safeTransferFrom(address,address,uint256)": {
        "details": "See {IERC721-safeTransferFrom}."
      },
      "safeTransferFrom(address,address,uint256,bytes)": {
        "details": "See {IERC721-safeTransferFrom}."
      },
      "setApprovalForAll(address,bool)": {
        "details": "See {IERC721-setApprovalForAll}."
      },
      "symbol()": {
        "details": "See {IERC721Metadata-symbol}."
      },
      "tokenByIndex(uint256)": {
        "details": "See {IERC721Enumerable-tokenByIndex}."
      },
      "tokenOfOwnerByIndex(address,uint256)": {
        "details": "See {IERC721Enumerable-tokenOfOwnerByIndex}."
      },
      "tokenURI(uint256)": {
        "details": "See {IERC721Metadata-tokenURI}."
      },
      "totalSupply()": {
        "details": "See {IERC721Enumerable-totalSupply}."
      },
      "transferFrom(address,address,uint256)": {
        "details": "See {IERC721-transferFrom}."
      }
    },
    "version": 1
  },
  "userdoc": {
    "kind": "user",
    "methods": {},
    "version": 1
  }
}