{
  "contractName": "JuryPool",
  "abi": [
    {
      "inputs": [
        {
          "internalType": "address",
          "name": "_AddressManagerAddress",
          "type": "address"
        }
      ],
      "stateMutability": "nonpayable",
      "type": "constructor"
    },
    {
      "anonymous": false,
      "inputs": [
        {
          "indexed": true,
          "internalType": "address",
          "name": "owner",
          "type": "address"
        },
        {
          "indexed": true,
          "internalType": "address",
          "name": "approved",
          "type": "address"
        },
        {
          "indexed": true,
          "internalType": "uint256",
          "name": "tokenId",
          "type": "uint256"
        }
      ],
      "name": "Approval",
      "type": "event"
    },
    {
      "anonymous": false,
      "inputs": [
        {
          "indexed": true,
          "internalType": "address",
          "name": "owner",
          "type": "address"
        },
        {
          "indexed": true,
          "internalType": "address",
          "name": "operator",
          "type": "address"
        },
        {
          "indexed": false,
          "internalType": "bool",
          "name": "approved",
          "type": "bool"
        }
      ],
      "name": "ApprovalForAll",
      "type": "event"
    },
    {
      "anonymous": false,
      "inputs": [
        {
          "indexed": true,
          "internalType": "bytes32",
          "name": "role",
          "type": "bytes32"
        },
        {
          "indexed": true,
          "internalType": "bytes32",
          "name": "previousAdminRole",
          "type": "bytes32"
        },
        {
          "indexed": true,
          "internalType": "bytes32",
          "name": "newAdminRole",
          "type": "bytes32"
        }
      ],
      "name": "RoleAdminChanged",
      "type": "event"
    },
    {
      "anonymous": false,
      "inputs": [
        {
          "indexed": true,
          "internalType": "bytes32",
          "name": "role",
          "type": "bytes32"
        },
        {
          "indexed": true,
          "internalType": "address",
          "name": "account",
          "type": "address"
        },
        {
          "indexed": true,
          "internalType": "address",
          "name": "sender",
          "type": "address"
        }
      ],
      "name": "RoleGranted",
      "type": "event"
    },
    {
      "anonymous": false,
      "inputs": [
        {
          "indexed": true,
          "internalType": "bytes32",
          "name": "role",
          "type": "bytes32"
        },
        {
          "indexed": true,
          "internalType": "address",
          "name": "account",
          "type": "address"
        },
        {
          "indexed": true,
          "internalType": "address",
          "name": "sender",
          "type": "address"
        }
      ],
      "name": "RoleRevoked",
      "type": "event"
    },
    {
      "anonymous": false,
      "inputs": [
        {
          "indexed": true,
          "internalType": "address",
          "name": "from",
          "type": "address"
        },
        {
          "indexed": true,
          "internalType": "address",
          "name": "to",
          "type": "address"
        },
        {
          "indexed": true,
          "internalType": "uint256",
          "name": "tokenId",
          "type": "uint256"
        }
      ],
      "name": "Transfer",
      "type": "event"
    },
    {
      "inputs": [],
      "name": "AddressManagerAddress",
      "outputs": [
        {
          "internalType": "address",
          "name": "",
          "type": "address"
        }
      ],
      "stateMutability": "view",
      "type": "function",
      "constant": true
    },
    {
      "inputs": [],
      "name": "ChadBadgeAddress",
      "outputs": [
        {
          "internalType": "address",
          "name": "",
          "type": "address"
        }
      ],
      "stateMutability": "view",
      "type": "function",
      "constant": true
    },
    {
      "inputs": [],
      "name": "DEFAULT_ADMIN_ROLE",
      "outputs": [
        {
          "internalType": "bytes32",
          "name": "",
          "type": "bytes32"
        }
      ],
      "stateMutability": "view",
      "type": "function",
      "constant": true
    },
    {
      "inputs": [],
      "name": "GAVELS_BAILIFF",
      "outputs": [
        {
          "internalType": "bytes32",
          "name": "",
          "type": "bytes32"
        }
      ],
      "stateMutability": "view",
      "type": "function",
      "constant": true
    },
    {
      "inputs": [],
      "name": "GavelDAOAgent",
      "outputs": [
        {
          "internalType": "address",
          "name": "",
          "type": "address"
        }
      ],
      "stateMutability": "view",
      "type": "function",
      "constant": true
    },
    {
      "inputs": [],
      "name": "GavelTokenAddress",
      "outputs": [
        {
          "internalType": "address",
          "name": "",
          "type": "address"
        }
      ],
      "stateMutability": "view",
      "type": "function",
      "constant": true
    },
    {
      "inputs": [],
      "name": "GavelVote",
      "outputs": [
        {
          "internalType": "bool",
          "name": "",
          "type": "bool"
        }
      ],
      "stateMutability": "view",
      "type": "function",
      "constant": true
    },
    {
      "inputs": [],
      "name": "GoldStarAddress",
      "outputs": [
        {
          "internalType": "address",
          "name": "",
          "type": "address"
        }
      ],
      "stateMutability": "view",
      "type": "function",
      "constant": true
    },
    {
      "inputs": [],
      "name": "JERK_ROLE",
      "outputs": [
        {
          "internalType": "bytes32",
          "name": "",
          "type": "bytes32"
        }
      ],
      "stateMutability": "view",
      "type": "function",
      "constant": true
    },
    {
      "inputs": [],
      "name": "JURY_BAILIFF",
      "outputs": [
        {
          "internalType": "bytes32",
          "name": "",
          "type": "bytes32"
        }
      ],
      "stateMutability": "view",
      "type": "function",
      "constant": true
    },
    {
      "inputs": [
        {
          "internalType": "uint256",
          "name": "",
          "type": "uint256"
        }
      ],
      "name": "JurrorStake",
      "outputs": [
        {
          "internalType": "uint256",
          "name": "",
          "type": "uint256"
        }
      ],
      "stateMutability": "view",
      "type": "function",
      "constant": true
    },
    {
      "inputs": [],
      "name": "JuryDAOAgent",
      "outputs": [
        {
          "internalType": "address",
          "name": "",
          "type": "address"
        }
      ],
      "stateMutability": "view",
      "type": "function",
      "constant": true
    },
    {
      "inputs": [],
      "name": "JuryPoolAddress",
      "outputs": [
        {
          "internalType": "address",
          "name": "",
          "type": "address"
        }
      ],
      "stateMutability": "view",
      "type": "function",
      "constant": true
    },
    {
      "inputs": [],
      "name": "JuryVote",
      "outputs": [
        {
          "internalType": "bool",
          "name": "",
          "type": "bool"
        }
      ],
      "stateMutability": "view",
      "type": "function",
      "constant": true
    },
    {
      "inputs": [],
      "name": "MINI_BAILIFF_ROLE",
      "outputs": [
        {
          "internalType": "bytes32",
          "name": "",
          "type": "bytes32"
        }
      ],
      "stateMutability": "view",
      "type": "function",
      "constant": true
    },
    {
      "inputs": [],
      "name": "MiniBailiff",
      "outputs": [
        {
          "internalType": "address",
          "name": "",
          "type": "address"
        }
      ],
      "stateMutability": "view",
      "type": "function",
      "constant": true
    },
    {
      "inputs": [],
      "name": "PinkSlipAddress",
      "outputs": [
        {
          "internalType": "address",
          "name": "",
          "type": "address"
        }
      ],
      "stateMutability": "view",
      "type": "function",
      "constant": true
    },
    {
      "inputs": [],
      "name": "RedPenTokenAddress",
      "outputs": [
        {
          "internalType": "address",
          "name": "",
          "type": "address"
        }
      ],
      "stateMutability": "view",
      "type": "function",
      "constant": true
    },
    {
      "inputs": [],
      "name": "THE_COURT_ROLE",
      "outputs": [
        {
          "internalType": "bytes32",
          "name": "",
          "type": "bytes32"
        }
      ],
      "stateMutability": "view",
      "type": "function",
      "constant": true
    },
    {
      "inputs": [],
      "name": "TheCourtAddress",
      "outputs": [
        {
          "internalType": "address",
          "name": "",
          "type": "address"
        }
      ],
      "stateMutability": "view",
      "type": "function",
      "constant": true
    },
    {
      "inputs": [],
      "name": "TreasuryAddress",
      "outputs": [
        {
          "internalType": "address",
          "name": "",
          "type": "address"
        }
      ],
      "stateMutability": "view",
      "type": "function",
      "constant": true
    },
    {
      "inputs": [],
      "name": "addressManager",
      "outputs": [
        {
          "internalType": "contract AddressManager",
          "name": "",
          "type": "address"
        }
      ],
      "stateMutability": "view",
      "type": "function",
      "constant": true
    },
    {
      "inputs": [
        {
          "internalType": "address",
          "name": "to",
          "type": "address"
        },
        {
          "internalType": "uint256",
          "name": "tokenId",
          "type": "uint256"
        }
      ],
      "name": "approve",
      "outputs": [],
      "stateMutability": "nonpayable",
      "type": "function"
    },
    {
      "inputs": [
        {
          "internalType": "address",
          "name": "owner",
          "type": "address"
        }
      ],
      "name": "balanceOf",
      "outputs": [
        {
          "internalType": "uint256",
          "name": "",
          "type": "uint256"
        }
      ],
      "stateMutability": "view",
      "type": "function",
      "constant": true
    },
    {
      "inputs": [
        {
          "internalType": "uint256",
          "name": "tokenId",
          "type": "uint256"
        }
      ],
      "name": "getApproved",
      "outputs": [
        {
          "internalType": "address",
          "name": "",
          "type": "address"
        }
      ],
      "stateMutability": "view",
      "type": "function",
      "constant": true
    },
    {
      "inputs": [
        {
          "internalType": "bytes32",
          "name": "role",
          "type": "bytes32"
        }
      ],
      "name": "getRoleAdmin",
      "outputs": [
        {
          "internalType": "bytes32",
          "name": "",
          "type": "bytes32"
        }
      ],
      "stateMutability": "view",
      "type": "function",
      "constant": true
    },
    {
      "inputs": [
        {
          "internalType": "bytes32",
          "name": "role",
          "type": "bytes32"
        },
        {
          "internalType": "uint256",
          "name": "index",
          "type": "uint256"
        }
      ],
      "name": "getRoleMember",
      "outputs": [
        {
          "internalType": "address",
          "name": "",
          "type": "address"
        }
      ],
      "stateMutability": "view",
      "type": "function",
      "constant": true
    },
    {
      "inputs": [
        {
          "internalType": "bytes32",
          "name": "role",
          "type": "bytes32"
        }
      ],
      "name": "getRoleMemberCount",
      "outputs": [
        {
          "internalType": "uint256",
          "name": "",
          "type": "uint256"
        }
      ],
      "stateMutability": "view",
      "type": "function",
      "constant": true
    },
    {
      "inputs": [
        {
          "internalType": "bytes32",
          "name": "role",
          "type": "bytes32"
        },
        {
          "internalType": "address",
          "name": "account",
          "type": "address"
        }
      ],
      "name": "grantRole",
      "outputs": [],
      "stateMutability": "nonpayable",
      "type": "function"
    },
    {
      "inputs": [
        {
          "internalType": "bytes32",
          "name": "role",
          "type": "bytes32"
        },
        {
          "internalType": "address",
          "name": "account",
          "type": "address"
        }
      ],
      "name": "hasRole",
      "outputs": [
        {
          "internalType": "bool",
          "name": "",
          "type": "bool"
        }
      ],
      "stateMutability": "view",
      "type": "function",
      "constant": true
    },
    {
      "inputs": [
        {
          "internalType": "address",
          "name": "owner",
          "type": "address"
        },
        {
          "internalType": "address",
          "name": "operator",
          "type": "address"
        }
      ],
      "name": "isApprovedForAll",
      "outputs": [
        {
          "internalType": "bool",
          "name": "",
          "type": "bool"
        }
      ],
      "stateMutability": "view",
      "type": "function",
      "constant": true
    },
    {
      "inputs": [],
      "name": "jerkSanctions",
      "outputs": [
        {
          "internalType": "bool",
          "name": "",
          "type": "bool"
        }
      ],
      "stateMutability": "view",
      "type": "function",
      "constant": true
    },
    {
      "inputs": [],
      "name": "name",
      "outputs": [
        {
          "internalType": "string",
          "name": "",
          "type": "string"
        }
      ],
      "stateMutability": "view",
      "type": "function",
      "constant": true
    },
    {
      "inputs": [
        {
          "internalType": "uint256",
          "name": "tokenId",
          "type": "uint256"
        }
      ],
      "name": "ownerOf",
      "outputs": [
        {
          "internalType": "address",
          "name": "",
          "type": "address"
        }
      ],
      "stateMutability": "view",
      "type": "function",
      "constant": true
    },
    {
      "inputs": [],
      "name": "redPens",
      "outputs": [
        {
          "internalType": "contract ERC20",
          "name": "",
          "type": "address"
        }
      ],
      "stateMutability": "view",
      "type": "function",
      "constant": true
    },
    {
      "inputs": [
        {
          "internalType": "bytes32",
          "name": "role",
          "type": "bytes32"
        },
        {
          "internalType": "address",
          "name": "account",
          "type": "address"
        }
      ],
      "name": "renounceRole",
      "outputs": [],
      "stateMutability": "nonpayable",
      "type": "function"
    },
    {
      "inputs": [],
      "name": "resetVote",
      "outputs": [],
      "stateMutability": "nonpayable",
      "type": "function"
    },
    {
      "inputs": [
        {
          "internalType": "bytes32",
          "name": "role",
          "type": "bytes32"
        },
        {
          "internalType": "address",
          "name": "account",
          "type": "address"
        }
      ],
      "name": "revokeRole",
      "outputs": [],
      "stateMutability": "nonpayable",
      "type": "function"
    },
    {
      "inputs": [
        {
          "internalType": "address",
          "name": "from",
          "type": "address"
        },
        {
          "internalType": "address",
          "name": "to",
          "type": "address"
        },
        {
          "internalType": "uint256",
          "name": "tokenId",
          "type": "uint256"
        }
      ],
      "name": "safeTransferFrom",
      "outputs": [],
      "stateMutability": "nonpayable",
      "type": "function"
    },
    {
      "inputs": [
        {
          "internalType": "address",
          "name": "from",
          "type": "address"
        },
        {
          "internalType": "address",
          "name": "to",
          "type": "address"
        },
        {
          "internalType": "uint256",
          "name": "tokenId",
          "type": "uint256"
        },
        {
          "internalType": "bytes",
          "name": "_data",
          "type": "bytes"
        }
      ],
      "name": "safeTransferFrom",
      "outputs": [],
      "stateMutability": "nonpayable",
      "type": "function"
    },
    {
      "inputs": [
        {
          "internalType": "address",
          "name": "operator",
          "type": "address"
        },
        {
          "internalType": "bool",
          "name": "approved",
          "type": "bool"
        }
      ],
      "name": "setApprovalForAll",
      "outputs": [],
      "stateMutability": "nonpayable",
      "type": "function"
    },
    {
      "inputs": [],
      "name": "symbol",
      "outputs": [
        {
          "internalType": "string",
          "name": "",
          "type": "string"
        }
      ],
      "stateMutability": "view",
      "type": "function",
      "constant": true
    },
    {
      "inputs": [],
      "name": "syncAllRoles",
      "outputs": [],
      "stateMutability": "nonpayable",
      "type": "function"
    },
    {
      "inputs": [
        {
          "internalType": "bytes32",
          "name": "ROLE_TO_SYNC",
          "type": "bytes32"
        }
      ],
      "name": "syncSingleRole",
      "outputs": [],
      "stateMutability": "nonpayable",
      "type": "function"
    },
    {
      "inputs": [],
      "name": "syncVotes",
      "outputs": [],
      "stateMutability": "nonpayable",
      "type": "function"
    },
    {
      "inputs": [
        {
          "internalType": "uint256",
          "name": "index",
          "type": "uint256"
        }
      ],
      "name": "tokenByIndex",
      "outputs": [
        {
          "internalType": "uint256",
          "name": "",
          "type": "uint256"
        }
      ],
      "stateMutability": "view",
      "type": "function",
      "constant": true
    },
    {
      "inputs": [
        {
          "internalType": "address",
          "name": "owner",
          "type": "address"
        },
        {
          "internalType": "uint256",
          "name": "index",
          "type": "uint256"
        }
      ],
      "name": "tokenOfOwnerByIndex",
      "outputs": [
        {
          "internalType": "uint256",
          "name": "",
          "type": "uint256"
        }
      ],
      "stateMutability": "view",
      "type": "function",
      "constant": true
    },
    {
      "inputs": [
        {
          "internalType": "uint256",
          "name": "tokenId",
          "type": "uint256"
        }
      ],
      "name": "tokenURI",
      "outputs": [
        {
          "internalType": "string",
          "name": "",
          "type": "string"
        }
      ],
      "stateMutability": "view",
      "type": "function",
      "constant": true
    },
    {
      "inputs": [],
      "name": "totalShares",
      "outputs": [
        {
          "internalType": "uint256",
          "name": "",
          "type": "uint256"
        }
      ],
      "stateMutability": "view",
      "type": "function",
      "constant": true
    },
    {
      "inputs": [],
      "name": "totalSupply",
      "outputs": [
        {
          "internalType": "uint256",
          "name": "",
          "type": "uint256"
        }
      ],
      "stateMutability": "view",
      "type": "function",
      "constant": true
    },
    {
      "inputs": [
        {
          "internalType": "address",
          "name": "from",
          "type": "address"
        },
        {
          "internalType": "address",
          "name": "to",
          "type": "address"
        },
        {
          "internalType": "uint256",
          "name": "tokenId",
          "type": "uint256"
        }
      ],
      "name": "transferFrom",
      "outputs": [],
      "stateMutability": "nonpayable",
      "type": "function"
    },
    {
      "inputs": [],
      "name": "updateAddressManager",
      "outputs": [],
      "stateMutability": "nonpayable",
      "type": "function"
    },
    {
      "inputs": [],
      "name": "updateAllAddresses",
      "outputs": [],
      "stateMutability": "nonpayable",
      "type": "function"
    },
    {
      "inputs": [],
      "name": "updateAllRoles",
      "outputs": [],
      "stateMutability": "nonpayable",
      "type": "function"
    },
    {
      "inputs": [],
      "name": "updateDAOAddresses",
      "outputs": [],
      "stateMutability": "nonpayable",
      "type": "function"
    },
    {
      "inputs": [
        {
          "internalType": "bytes32",
          "name": "ROLE_TO_UPDATE",
          "type": "bytes32"
        }
      ],
      "name": "updateSingleRole",
      "outputs": [],
      "stateMutability": "nonpayable",
      "type": "function"
    },
    {
      "inputs": [],
      "name": "updateTokenAddresses",
      "outputs": [],
      "stateMutability": "nonpayable",
      "type": "function"
    },
    {
      "inputs": [],
      "name": "updateStakingToken",
      "outputs": [],
      "stateMutability": "nonpayable",
      "type": "function"
    },
    {
      "inputs": [
        {
          "internalType": "uint256",
          "name": "_tokenId",
          "type": "uint256"
        }
      ],
      "name": "getHatBalance",
      "outputs": [
        {
          "internalType": "uint256",
          "name": "hatBalance",
          "type": "uint256"
        }
      ],
      "stateMutability": "nonpayable",
      "type": "function"
    },
    {
      "inputs": [],
      "name": "stakePens",
      "outputs": [],
      "stateMutability": "nonpayable",
      "type": "function"
    },
    {
      "inputs": [
        {
          "internalType": "uint256",
          "name": "_amount",
          "type": "uint256"
        }
      ],
      "name": "stakePens",
      "outputs": [],
      "stateMutability": "nonpayable",
      "type": "function"
    },
    {
      "inputs": [
        {
          "internalType": "uint256",
          "name": "_amount",
          "type": "uint256"
        },
        {
          "internalType": "uint256",
          "name": "tokenIdToStakeWith",
          "type": "uint256"
        }
      ],
      "name": "stakePensAdvanced",
      "outputs": [],
      "stateMutability": "nonpayable",
      "type": "function"
    },
    {
      "inputs": [
        {
          "internalType": "uint256",
          "name": "_tokenId",
          "type": "uint256"
        }
      ],
      "name": "returnHats",
      "outputs": [],
      "stateMutability": "nonpayable",
      "type": "function"
    },
    {
      "inputs": [],
      "name": "returnHats",
      "outputs": [],
      "stateMutability": "nonpayable",
      "type": "function"
    },
    {
      "inputs": [
        {
          "internalType": "uint256",
          "name": "_amount",
          "type": "uint256"
        },
        {
          "internalType": "uint256",
          "name": "_tokenId",
          "type": "uint256"
        }
      ],
      "name": "returnHatsAdvanced",
      "outputs": [],
      "stateMutability": "nonpayable",
      "type": "function"
    },
    {
      "inputs": [
        {
          "internalType": "uint256",
          "name": "_tokenIdToSlash",
          "type": "uint256"
        },
        {
          "internalType": "uint256",
          "name": "_percentToSlashInWholeNumber",
          "type": "uint256"
        }
      ],
      "name": "slashToken",
      "outputs": [],
      "stateMutability": "nonpayable",
      "type": "function"
    },
    {
      "inputs": [
        {
          "internalType": "bytes4",
          "name": "interfaceId",
          "type": "bytes4"
        }
      ],
      "name": "supportsInterface",
      "outputs": [
        {
          "internalType": "bool",
          "name": "",
          "type": "bool"
        }
      ],
      "stateMutability": "view",
      "type": "function",
      "constant": true
    }
  ],
  "bytecode": "0x60806040526018805463ffffffff60a01b191690556001601a556000601b553480156200002b57600080fd5b50604051620050d0380380620050d08339810160408190526200004e9162000c8d565b604080518082018252600a8152694a75727279204861747360b01b60208083019182528351808501909452600384526212185d60ea1b908401528151849384939290916200009f9160009162000be7565b508051620000b590600190602084019062000be7565b5050600c80546001600160a01b03199081166001600160a01b039485161791829055601880549290941691161790915550620000f06200022d565b620000fa62000243565b60165462000114906000906001600160a01b031662000387565b6016546200014d907f0538d24a8b7882d7b2e36af243d4af61c23e86e3daa6cb8c887b53220b2f5720906001600160a01b031662000387565b60135462000186907f048bc71fa1cb2c119c339cf9cf00a97996a19a9d991ce5fe049f2fa5459e7990906001600160a01b031662000387565b601454620001bf907ffa8e4989e1d689f7bc5c4b25b87efb51fecdecb19ba62847e29c759e12a89acd906001600160a01b031662000387565b601754620001f8907ff0f4b159a6e2a4815eb3ca3df080bfa70c9270662c59bcaa4479a456220183e6906001600160a01b031662000387565b620002257f7c9d7f6f02908185bffb3f7fc9afb29fd7bf93675af8fd4b655ee05c2cee1e0e600062000387565b505062000d1c565b62000237620003ca565b6200024162000635565b565b601860009054906101000a90046001600160a01b03166001600160a01b031663ff7e88ec6040518163ffffffff1660e01b815260040160206040518083038186803b1580156200029257600080fd5b505afa158015620002a7573d6000803e3d6000fd5b505050506040513d601f19601f82011682018060405250810190620002cd919062000cbd565b60188054911515600160a81b0260ff60a81b19909216919091179081905560408051632fb5658560e01b815290516001600160a01b0390921691632fb5658591600480820192602092909190829003018186803b1580156200032e57600080fd5b505afa15801562000343573d6000803e3d6000fd5b505050506040513d601f19601f8201168201806040525081019062000369919062000cbd565b60188054911515600160b01b0260ff60b01b19909216919091179055565b6200039e82826200065460201b620018aa1760201c565b6000828152600b60209081526040909120620003c5918390620018b462000664821b17901c565b505050565b601860009054906101000a90046001600160a01b03166001600160a01b031663dadf56ac6040518163ffffffff1660e01b815260040160206040518083038186803b1580156200041957600080fd5b505afa1580156200042e573d6000803e3d6000fd5b505050506040513d601f19601f8201168201806040525081019062000454919062000c8d565b601380546001600160a01b0319166001600160a01b039283161790556018546040805163024bebe960e01b81529051919092169163024bebe9916004808301926020929190829003018186803b158015620004ae57600080fd5b505afa158015620004c3573d6000803e3d6000fd5b505050506040513d601f19601f82011682018060405250810190620004e9919062000c8d565b601480546001600160a01b0319166001600160a01b0392831617905560185460408051635b5c251f60e01b815290519190921691635b5c251f916004808301926020929190829003018186803b1580156200054357600080fd5b505afa15801562000558573d6000803e3d6000fd5b505050506040513d601f19601f820116820180604052508101906200057e919062000c8d565b601580546001600160a01b0319166001600160a01b0392831617905560185460408051637310bf1d60e11b81529051919092169163e6217e3a916004808301926020929190829003018186803b158015620005d857600080fd5b505afa158015620005ed573d6000803e3d6000fd5b505050506040513d601f19601f8201168201806040525081019062000613919062000c8d565b601780546001600160a01b0319166001600160a01b0392909216919091179055565b6200063f62000684565b620002416200073060201b620018c91760201c565b62000660828262000ac5565b5050565b60006200067b836001600160a01b03841662000b51565b90505b92915050565b601860009054906101000a90046001600160a01b03166001600160a01b031663762ddb596040518163ffffffff1660e01b815260040160206040518083038186803b158015620006d357600080fd5b505afa158015620006e8573d6000803e3d6000fd5b505050506040513d601f19601f820116820180604052508101906200070e919062000c8d565b601980546001600160a01b0319166001600160a01b0392909216919091179055565b601860009054906101000a90046001600160a01b03166001600160a01b03166321d7f0086040518163ffffffff1660e01b815260040160206040518083038186803b1580156200077f57600080fd5b505afa15801562000794573d6000803e3d6000fd5b505050506040513d601f19601f82011682018060405250810190620007ba919062000c8d565b600d80546001600160a01b0319166001600160a01b039283161790556018546040805163762ddb5960e01b81529051919092169163762ddb59916004808301926020929190829003018186803b1580156200081457600080fd5b505afa15801562000829573d6000803e3d6000fd5b505050506040513d601f19601f820116820180604052508101906200084f919062000c8d565b600e80546001600160a01b0319166001600160a01b039283161790556018546040805163bfb7dc9960e01b81529051919092169163bfb7dc99916004808301926020929190829003018186803b158015620008a957600080fd5b505afa158015620008be573d6000803e3d6000fd5b505050506040513d601f19601f82011682018060405250810190620008e4919062000c8d565b600f80546001600160a01b0319166001600160a01b0392831617905560185460408051633e6111eb60e21b81529051919092169163f98447ac916004808301926020929190829003018186803b1580156200093e57600080fd5b505afa15801562000953573d6000803e3d6000fd5b505050506040513d601f19601f8201168201806040525081019062000979919062000c8d565b601080546001600160a01b0319166001600160a01b0392831617905560185460408051630fe1ba9f60e21b815290519190921691633f86ea7c916004808301926020929190829003018186803b158015620009d357600080fd5b505afa158015620009e8573d6000803e3d6000fd5b505050506040513d601f19601f8201168201806040525081019062000a0e919062000c8d565b601180546001600160a01b0319166001600160a01b0392831617905560185460408051636b58477560e01b815290519190921691636b584775916004808301926020929190829003018186803b15801562000a6857600080fd5b505afa15801562000a7d573d6000803e3d6000fd5b505050506040513d601f19601f8201168201806040525081019062000aa3919062000c8d565b601280546001600160a01b0319166001600160a01b0392909216919091179055565b62000ad1828262000ba0565b62000660576000828152600a602090815260408083206001600160a01b03851684529091529020805460ff1916600117905562000b0d62000bcb565b6001600160a01b0316816001600160a01b0316837f2f8788117e7eff1d82e926ec794901d17c78024a50270940304540a733656f0d60405160405180910390a45050565b600062000b5f838362000bcf565b62000b97575081546001818101845560008481526020808220909301849055845484825282860190935260409020919091556200067e565b5060006200067e565b6000918252600a602090815260408084206001600160a01b0393909316845291905290205460ff1690565b3390565b60009081526001919091016020526040902054151590565b82805462000bf59062000cdf565b90600052602060002090601f01602090048101928262000c19576000855562000c64565b82601f1062000c3457805160ff191683800117855562000c64565b8280016001018555821562000c64579182015b8281111562000c6457825182559160200191906001019062000c47565b5062000c7292915062000c76565b5090565b5b8082111562000c72576000815560010162000c77565b60006020828403121562000c9f578081fd5b81516001600160a01b038116811462000cb6578182fd5b9392505050565b60006020828403121562000ccf578081fd5b8151801515811462000cb6578182fd5b60028104600182168062000cf457607f821691505b6020821081141562000d1657634e487b7160e01b600052602260045260246000fd5b50919050565b6143a48062000d2c6000396000f3fe608060405234801561001057600080fd5b50600436106103f15760003560e01c80636b58477511610215578063c87b56dd11610125578063e6217e3a116100b8578063f1132b3011610087578063f1132b3014610759578063f3e9414214610761578063f7d92d8614610774578063f98447ac1461077c578063ff7e88ec14610784576103f1565b8063e6217e3a1461072e578063e78c266c14610736578063e985e9c51461073e578063e9a5323014610751576103f1565b8063cf4ece15116100f4578063cf4ece1514610703578063d547741f1461070b578063dadf56ac1461071e578063e3a4795514610726576103f1565b8063c87b56dd146106cd578063ca15c873146106e0578063cce84392146106f3578063cd19182c146106fb576103f1565b8063a22cb465116101a8578063a80a132111610177578063a80a132114610679578063ab9b963f1461068c578063b366d0ef1461069f578063b88d4fde146106b2578063bfb7dc99146106c5576103f1565b8063a22cb46514610643578063a2b3bef014610656578063a32c5e5914610669578063a78e746f14610671576103f1565b80639010d07c116101e45780639010d07c1461060d57806391d148541461062057806395d89b4114610633578063a217fddf1461063b576103f1565b80636b584775146105d757806370a08231146105df57806374f015f4146105f2578063762ddb5914610605576103f1565b8063326a55e0116103105780634d84c6d8116102a35780635db531a1116102725780635db531a1146105a45780635f413466146105ac5780636352211e146105b457806367a14f06146105c75780636ad8118b146105cf576103f1565b80634d84c6d81461056e5780634f6ccce71461057657806357f276ff146105895780635b5c251f1461059c576103f1565b80633ab76e9f116102df5780633ab76e9f146105435780633f86ea7c1461054b57806342842e0e1461055357806349b5e10514610566576103f1565b8063326a55e014610518578063329a8cfa1461052057806336568abe146105285780633a98ef391461053b576103f1565b80631db5f0d111610388578063248a9ca311610357578063248a9ca3146104d75780632f2ff15d146104ea5780632f745c59146104fd5780632fb5658514610510576103f1565b80631db5f0d1146104a157806321d7f008146104b457806323b872dd146104bc5780632436329d146104cf576103f1565b8063095ea7b3116103c4578063095ea7b31461045c578063130f63201461047157806317314d5a1461048457806318160ddd1461048c576103f1565b806301ffc9a7146103f6578063024bebe91461041f57806306fdde0314610434578063081812fc14610449575b600080fd5b6104096104043660046139a8565b61078c565b6040516104169190613b56565b60405180910390f35b6104276107ef565b6040516104169190613ac8565b61043c6107fe565b6040516104169190613b8f565b61042761045736600461394b565b610890565b61046f61046a366004613904565b6108dc565b005b61046f61047f36600461394b565b610974565b61046f61098b565b610494610996565b6040516104169190613b61565b61046f6104af366004613987565b61099c565b610427610a4c565b61046f6104ca3660046137c7565b610a5b565b610494610a93565b6104946104e536600461394b565b610aa5565b61046f6104f8366004613963565b610aba565b61049461050b366004613904565b610adc565b610409610b31565b61046f610b41565b61046f610b53565b61046f610536366004613963565b610c33565b610494610c55565b610427610c5b565b610427610c6a565b61046f6105613660046137c7565b610c79565b61046f610c94565b61046f610b49565b61049461058436600461394b565b610c9c565b61046f61059736600461394b565b610cf7565b610427610d00565b61046f610d0f565b610427610d17565b6104276105c236600461394b565b610d26565b610427610d5b565b61046f610d6a565b610427610e12565b6104946105ed366004613757565b610e21565b61049461060036600461394b565b610e65565b610427610e77565b61042761061b366004613987565b610e86565b61040961062e366004613963565b610ea5565b61043c610ed0565b610494610edf565b61046f6106513660046138d7565b610ee4565b61046f610664366004613987565b610fb2565b61049461119f565b6104096111b1565b61046f61068736600461394b565b6111c1565b61046f61069a366004613987565b6112c0565b6104946106ad36600461394b565b611434565b61046f6106c0366004613807565b611446565b61042761147f565b61043c6106db36600461394b565b61148e565b6104946106ee36600461394b565b611510565b610494611527565b61046f611539565b6104946115c5565b61046f610719366004613963565b6115d7565b6104276115e1565b61046f6115f0565b61042761161d565b61042761162c565b61040961074c36600461378f565b61163b565b610494611669565b61046f61167b565b61046f61076f36600461394b565b611683565b61046f611800565b61042761188b565b61040961189a565b60006001600160e01b031982166380ac58cd60e01b14806107bd57506001600160e01b031982166336372b0760e01b145b806107d857506001600160e01b03198216635b5e139f60e01b145b806107e757506107e782611c46565b90505b919050565b6014546001600160a01b031681565b60606000805461080d906141e9565b80601f0160208091040260200160405190810160405280929190818152602001828054610839906141e9565b80156108865780601f1061085b57610100808354040283529160200191610886565b820191906000526020600020905b81548152906001019060200180831161086957829003601f168201915b5050505050905090565b600061089b82611c6b565b6108c05760405162461bcd60e51b81526004016108b790613f33565b60405180910390fd5b506000908152600460205260409020546001600160a01b031690565b60006108e782610d26565b9050806001600160a01b0316836001600160a01b0316141561091b5760405162461bcd60e51b81526004016108b790614017565b806001600160a01b031661092d611c88565b6001600160a01b0316148061094957506109498161074c611c88565b6109655760405162461bcd60e51b81526004016108b790613e0e565b61096f8383611c8c565b505050565b61097d81611cfa565b5061098781611e6f565b5050565b610993611ff2565b50565b60085490565b6109b460008051602061432f83398151915233610ea5565b806109d257506109d26000805160206142ef83398151915233610ea5565b806109f057506109f06000805160206142cf83398151915233610ea5565b610a0c5760405162461bcd60e51b81526004016108b790613c19565b60648110610a1957600080fd5b6000828152601c6020526040812054606490610a36908490614170565b610a40919061415c565b905061096f8382612138565b600d546001600160a01b031681565b610a6c610a66611c88565b8261215f565b610a885760405162461bcd60e51b81526004016108b790614058565b61096f8383836121e4565b6000805160206142cf83398151915281565b6000908152600a602052604090206001015490565b610ac48282612311565b6000828152600b6020526040902061096f90826118b4565b6000610ae783610e21565b8210610b055760405162461bcd60e51b81526004016108b790613c49565b506001600160a01b03821660009081526006602090815260408083208484529091529020545b92915050565b601854600160b01b900460ff1681565b610b49612335565b610b51612590565b565b610b6b60008051602061432f83398151915233610ea5565b80610b895750610b896000805160206142ef83398151915233610ea5565b80610ba75750610ba76000805160206142cf83398151915233610ea5565b610bc35760405162461bcd60e51b81526004016108b790613c19565b601860009054906101000a90046001600160a01b03166001600160a01b031663329a8cfa6040518163ffffffff1660e01b8152600401600060405180830381600087803b158015610c1357600080fd5b505af1158015610c27573d6000803e3d6000fd5b50505050610b51610d0f565b610c3d82826125a0565b6000828152600b6020526040902061096f90826125e2565b601b5481565b6018546001600160a01b031681565b6011546001600160a01b031681565b61096f83838360405180602001604052806000815250611446565b610b51612335565b6000610ca6610996565b8210610cc45760405162461bcd60e51b81526004016108b7906140a9565b60088281548110610ce557634e487b7160e01b600052603260045260246000fd5b90600052602060002001549050919050565b610987816125f7565b6015546001600160a01b031681565b610b5161282d565b6016546001600160a01b031681565b6000818152600260205260408120546001600160a01b0316806107e75760405162461bcd60e51b81526004016108b790613eb5565b6019546001600160a01b031681565b601860009054906101000a90046001600160a01b03166001600160a01b031663762ddb596040518163ffffffff1660e01b815260040160206040518083038186803b158015610db857600080fd5b505afa158015610dcc573d6000803e3d6000fd5b505050506040513d601f19601f82011682018060405250810190610df09190613773565b601980546001600160a01b0319166001600160a01b0392909216919091179055565b6012546001600160a01b031681565b60006001600160a01b038216610e495760405162461bcd60e51b81526004016108b790613e6b565b506001600160a01b031660009081526003602052604090205490565b601c6020526000908152604090205481565b600e546001600160a01b031681565b6000828152600b60205260408120610e9e9083612969565b9392505050565b6000918252600a602090815260408084206001600160a01b0393909316845291905290205460ff1690565b60606001805461080d906141e9565b600081565b610eec611c88565b6001600160a01b0316826001600160a01b03161415610f1d5760405162461bcd60e51b81526004016108b790613d61565b8060056000610f2a611c88565b6001600160a01b03908116825260208083019390935260409182016000908120918716808252919093529120805460ff191692151592909217909155610f6e611c88565b6001600160a01b03167f17307eab39ab6107e8899845ad3d59bd9653f200f220920489ca2b5937696c3183604051610fa69190613b56565b60405180910390a35050565b33610fbc82610d26565b6001600160a01b031614610fcf57600080fd5b6000818152601c60205260409020548210610ff6576000818152601c602052604090205491505b601b546019546040516370a0823160e01b8152600092916001600160a01b0316906370a082319061102b903090600401613ac8565b60206040518083038186803b15801561104357600080fd5b505afa158015611057573d6000803e3d6000fd5b505050506040513d601f19601f8201168201806040525081019061107b91906139e0565b6110859085614170565b61108f919061415c565b905082601b60008282546110a3919061418f565b90915550506000828152601c60205260409020548314156110db576110c782612975565b6000828152601c6020526040812055611115565b6000828152601c6020526040902054831015611115576000828152601c60205260408120805485929061110f90849061418f565b90915550505b60195460405163a9059cbb60e01b81526001600160a01b039091169063a9059cbb906111479033908590600401613b3d565b602060405180830381600087803b15801561116157600080fd5b505af1158015611175573d6000803e3d6000fd5b505050506040513d601f19601f82011682018060405250810190611199919061392f565b50505050565b60008051602061432f83398151915281565b601854600160a01b900460ff1681565b336111cb82610d26565b6001600160a01b0316146111de57600080fd5b6000818152601c602052604080822054601b5460195492516370a0823160e01b815291939290916001600160a01b03909116906370a0823190611225903090600401613ac8565b60206040518083038186803b15801561123d57600080fd5b505afa158015611251573d6000803e3d6000fd5b505050506040513d601f19601f8201168201806040525081019061127591906139e0565b61127f9084614170565b611289919061415c565b6000848152601c60205260408120819055601b805492935084929091906112b190849061418f565b90915550611115905083612975565b6019546040516370a0823160e01b81526000916001600160a01b0316906370a08231906112f1903090600401613ac8565b60206040518083038186803b15801561130957600080fd5b505afa15801561131d573d6000803e3d6000fd5b505050506040513d601f19601f8201168201806040525081019061134191906139e0565b6019546040516323b872dd60e01b81529192506000916001600160a01b03909116906323b872dd9061137b90339030908990600401613adc565b602060405180830381600087803b15801561139557600080fd5b505af11580156113a9573d6000803e3d6000fd5b505050506040513d601f19601f820116820180604052508101906113cd919061392f565b50601b54156113f25781601b54856113e59190614170565b6113ef919061415c565b93505b6000818152601c602052604081208054869290611410908490614144565b9250508190555083601b60008282546114299190614144565b909155505050505050565b6000908152601c602052604090205490565b611457611451611c88565b8361215f565b6114735760405162461bcd60e51b81526004016108b790614058565b61119984848484612a1c565b600f546001600160a01b031681565b606061149982611c6b565b6114b55760405162461bcd60e51b81526004016108b790613fc8565b60006114bf612a4f565b905060008151116114df5760405180602001604052806000815250610e9e565b806114e984612a61565b6040516020016114fa929190613a24565b6040516020818303038152906040529392505050565b6000818152600b602052604081206107e790612b7c565b60008051602061434f83398151915281565b6019546040516370a0823160e01b81526000916001600160a01b0316906370a082319061156a903390600401613ac8565b60206040518083038186803b15801561158257600080fd5b505afa158015611596573d6000803e3d6000fd5b505050506040513d601f19601f820116820180604052508101906115ba91906139e0565b905061099381611683565b60008051602061430f83398151915281565b610c3d8282612b87565b6013546001600160a01b031681565b60006115fb33610e21565b1161160557600080fd5b6000611612336001610adc565b9050610993816111c1565b6017546001600160a01b031681565b600c546001600160a01b031681565b6001600160a01b03918216600090815260056020908152604080832093909416825291909152205460ff1690565b6000805160206142ef83398151915281565b610b51612ba6565b6019546040516370a0823160e01b81526000916001600160a01b0316906370a08231906116b4903090600401613ac8565b60206040518083038186803b1580156116cc57600080fd5b505afa1580156116e0573d6000803e3d6000fd5b505050506040513d601f19601f8201168201806040525081019061170491906139e0565b601b546019546040516323b872dd60e01b815292935090916000916001600160a01b0316906323b872dd9061174190339030908990600401613adc565b602060405180830381600087803b15801561175b57600080fd5b505af115801561176f573d6000803e3d6000fd5b505050506040513d601f19601f82011682018060405250810190611793919061392f565b50600161179f33610e21565b10156117d15750601a546117b33382612cdd565b6001601a60008282546117c69190614144565b909155506117ef9050565b60016117dc33610e21565b106117ef576117ec336001610adc565b90505b81156113f257826113e58386614170565b61181760008051602061432f8339815191526125f7565b5061182f6000805160206142ef8339815191526125f7565b506118476000805160206142cf8339815191526125f7565b5061185f60008051602061430f8339815191526125f7565b5061187760008051602061434f8339815191526125f7565b5061188260006125f7565b50610b5161282d565b6010546001600160a01b031681565b601854600160a81b900460ff1681565b6109878282612cf7565b6000610e9e836001600160a01b038416612d7e565b601860009054906101000a90046001600160a01b03166001600160a01b03166321d7f0086040518163ffffffff1660e01b815260040160206040518083038186803b15801561191757600080fd5b505afa15801561192b573d6000803e3d6000fd5b505050506040513d601f19601f8201168201806040525081019061194f9190613773565b600d80546001600160a01b0319166001600160a01b039283161790556018546040805163762ddb5960e01b81529051919092169163762ddb59916004808301926020929190829003018186803b1580156119a857600080fd5b505afa1580156119bc573d6000803e3d6000fd5b505050506040513d601f19601f820116820180604052508101906119e09190613773565b600e80546001600160a01b0319166001600160a01b039283161790556018546040805163bfb7dc9960e01b81529051919092169163bfb7dc99916004808301926020929190829003018186803b158015611a3957600080fd5b505afa158015611a4d573d6000803e3d6000fd5b505050506040513d601f19601f82011682018060405250810190611a719190613773565b600f80546001600160a01b0319166001600160a01b0392831617905560185460408051633e6111eb60e21b81529051919092169163f98447ac916004808301926020929190829003018186803b158015611aca57600080fd5b505afa158015611ade573d6000803e3d6000fd5b505050506040513d601f19601f82011682018060405250810190611b029190613773565b601080546001600160a01b0319166001600160a01b0392831617905560185460408051630fe1ba9f60e21b815290519190921691633f86ea7c916004808301926020929190829003018186803b158015611b5b57600080fd5b505afa158015611b6f573d6000803e3d6000fd5b505050506040513d601f19601f82011682018060405250810190611b939190613773565b601180546001600160a01b0319166001600160a01b0392831617905560185460408051636b58477560e01b815290519190921691636b584775916004808301926020929190829003018186803b158015611bec57600080fd5b505afa158015611c00573d6000803e3d6000fd5b505050506040513d601f19601f82011682018060405250810190611c249190613773565b601280546001600160a01b0319166001600160a01b0392909216919091179055565b60006001600160e01b03198216635a05180f60e01b14806107e757506107e782612dc8565b6000908152600260205260409020546001600160a01b0316151590565b3390565b600081815260046020526040902080546001600160a01b0319166001600160a01b0384169081179091558190611cc182610d26565b6001600160a01b03167f8c5be1e5ebec7d5bd14f71427d1e84f3dd0314c0f7b2291e5b200ac8c7c3b92560405160405180910390a45050565b60405163ca15c87360e01b81526000908190309063ca15c87390611d22908690600401613b61565b60206040518083038186803b158015611d3a57600080fd5b505afa158015611d4e573d6000803e3d6000fd5b505050506040513d601f19601f82011682018060405250810190611d7291906139e0565b905060005b81811015611e6557604051632404341f60e21b81526000903090639010d07c90611da79088908690600401613b81565b60206040518083038186803b158015611dbf57600080fd5b505afa158015611dd3573d6000803e3d6000fd5b505050506040513d601f19601f82011682018060405250810190611df79190613773565b60405163d547741f60e01b8152909150309063d547741f90611e1f9088908590600401613b6a565b600060405180830381600087803b158015611e3957600080fd5b505af1158015611e4d573d6000803e3d6000fd5b50505050508080611e5d90614224565b915050611d77565b5060019392505050565b60185460405163ca15c87360e01b815260009182916001600160a01b039091169063ca15c87390611ea4908690600401613b61565b60206040518083038186803b158015611ebc57600080fd5b505afa158015611ed0573d6000803e3d6000fd5b505050506040513d601f19601f82011682018060405250810190611ef491906139e0565b905060005b81811015611e6557601854604051632404341f60e21b81526000916001600160a01b031690639010d07c90611f349088908690600401613b81565b60206040518083038186803b158015611f4c57600080fd5b505afa158015611f60573d6000803e3d6000fd5b505050506040513d601f19601f82011682018060405250810190611f849190613773565b604051632f2ff15d60e01b81529091503090632f2ff15d90611fac9088908590600401613b6a565b600060405180830381600087803b158015611fc657600080fd5b505af1158015611fda573d6000803e3d6000fd5b50505050508080611fea90614224565b915050611ef9565b600061200b60008051602061432f833981519152611cfa565b5061202360008051602061432f833981519152611e6f565b61202c57600080fd5b6120436000805160206142ef833981519152611cfa565b5061205b6000805160206142ef833981519152611e6f565b61206457600080fd5b61207b6000805160206142cf833981519152611cfa565b506120936000805160206142cf833981519152611e6f565b61209c57600080fd5b6120b360008051602061430f833981519152611cfa565b506120cb60008051602061430f833981519152611e6f565b6120d457600080fd5b6120eb60008051602061434f833981519152611cfa565b5061210360008051602061434f833981519152611e6f565b61210c57600080fd5b6121166000611cfa565b506121216000611e6f565b61212a57600080fd5b61213261282d565b50600190565b6000828152601c60205260408120805483929061215690849061418f565b90915550505050565b600061216a82611c6b565b6121865760405162461bcd60e51b81526004016108b790613d98565b600061219183610d26565b9050806001600160a01b0316846001600160a01b031614806121cc5750836001600160a01b03166121c184610890565b6001600160a01b0316145b806121dc57506121dc818561163b565b949350505050565b826001600160a01b03166121f782610d26565b6001600160a01b03161461221d5760405162461bcd60e51b81526004016108b790613f7f565b6001600160a01b0382166122435760405162461bcd60e51b81526004016108b790613d1d565b61224e838383612ded565b612259600082611c8c565b6001600160a01b038316600090815260036020526040812080546001929061228290849061418f565b90915550506001600160a01b03821660009081526003602052604081208054600192906122b0908490614144565b909155505060008181526002602052604080822080546001600160a01b0319166001600160a01b0386811691821790925591518493918716917fddf252ad1be2c89b69c2b068fc378daa952ba7f163c4a11628f55a4df523b3ef91a4505050565b61231a82610aa5565b61232b81612326611c88565b612df8565b61096f8383612cf7565b601860009054906101000a90046001600160a01b03166001600160a01b031663dadf56ac6040518163ffffffff1660e01b815260040160206040518083038186803b15801561238357600080fd5b505afa158015612397573d6000803e3d6000fd5b505050506040513d601f19601f820116820180604052508101906123bb9190613773565b601380546001600160a01b0319166001600160a01b039283161790556018546040805163024bebe960e01b81529051919092169163024bebe9916004808301926020929190829003018186803b15801561241457600080fd5b505afa158015612428573d6000803e3d6000fd5b505050506040513d601f19601f8201168201806040525081019061244c9190613773565b601480546001600160a01b0319166001600160a01b0392831617905560185460408051635b5c251f60e01b815290519190921691635b5c251f916004808301926020929190829003018186803b1580156124a557600080fd5b505afa1580156124b9573d6000803e3d6000fd5b505050506040513d601f19601f820116820180604052508101906124dd9190613773565b601580546001600160a01b0319166001600160a01b0392831617905560185460408051637310bf1d60e11b81529051919092169163e6217e3a916004808301926020929190829003018186803b15801561253657600080fd5b505afa15801561254a573d6000803e3d6000fd5b505050506040513d601f19601f8201168201806040525081019061256e9190613773565b601780546001600160a01b0319166001600160a01b0392909216919091179055565b612598610d6a565b610b516118c9565b6125a8611c88565b6001600160a01b0316816001600160a01b0316146125d85760405162461bcd60e51b81526004016108b7906140f5565b6109878282612e5c565b6000610e9e836001600160a01b038416612ee1565b60185460405163ca15c87360e01b815260009182916001600160a01b039091169063ca15c8739061262c908690600401613b61565b60206040518083038186803b15801561264457600080fd5b505afa158015612658573d6000803e3d6000fd5b505050506040513d601f19601f8201168201806040525081019061267c91906139e0565b60405163ca15c87360e01b8152909150600090309063ca15c873906126a5908790600401613b61565b60206040518083038186803b1580156126bd57600080fd5b505afa1580156126d1573d6000803e3d6000fd5b505050506040513d601f19601f820116820180604052508101906126f591906139e0565b90506000612703828461418f565b9050600081116127255760405162461bcd60e51b81526004016108b790613de4565b60005b8181101561282157601854604051632404341f60e21b81526000916001600160a01b031690639010d07c90612763908a908690600401613b81565b60206040518083038186803b15801561277b57600080fd5b505afa15801561278f573d6000803e3d6000fd5b505050506040513d601f19601f820116820180604052508101906127b39190613773565b604051632f2ff15d60e01b81529091503090632f2ff15d906127db908a908590600401613b6a565b600060405180830381600087803b1580156127f557600080fd5b505af1158015612809573d6000803e3d6000fd5b5050505050808061281990614224565b915050612728565b50600195945050505050565b601860009054906101000a90046001600160a01b03166001600160a01b031663ff7e88ec6040518163ffffffff1660e01b815260040160206040518083038186803b15801561287b57600080fd5b505afa15801561288f573d6000803e3d6000fd5b505050506040513d601f19601f820116820180604052508101906128b3919061392f565b60188054911515600160a81b0260ff60a81b19909216919091179081905560408051632fb5658560e01b815290516001600160a01b0390921691632fb5658591600480820192602092909190829003018186803b15801561291357600080fd5b505afa158015612927573d6000803e3d6000fd5b505050506040513d601f19601f8201168201806040525081019061294b919061392f565b60188054911515600160b01b0260ff60b01b19909216919091179055565b6000610e9e8383612ff8565b600061298082610d26565b905061298e81600084612ded565b612999600083611c8c565b6001600160a01b03811660009081526003602052604081208054600192906129c290849061418f565b909155505060008281526002602052604080822080546001600160a01b0319169055518391906001600160a01b038416907fddf252ad1be2c89b69c2b068fc378daa952ba7f163c4a11628f55a4df523b3ef908390a45050565b612a278484846121e4565b612a3384848484613051565b6111995760405162461bcd60e51b81526004016108b790613c94565b60408051602081019091526000815290565b606081612a8657506040805180820190915260018152600360fc1b60208201526107ea565b8160005b8115612ab05780612a9a81614224565b9150612aa99050600a8361415c565b9150612a8a565b60008167ffffffffffffffff811115612ad957634e487b7160e01b600052604160045260246000fd5b6040519080825280601f01601f191660200182016040528015612b03576020820181803683370190505b5090505b84156121dc57612b1860018361418f565b9150612b25600a8661423f565b612b30906030614144565b60f81b818381518110612b5357634e487b7160e01b600052603260045260246000fd5b60200101906001600160f81b031916908160001a905350612b75600a8661415c565b9450612b07565b60006107e78261316c565b612b9082610aa5565b612b9c81612326611c88565b61096f8383612e5c565b601860009054906101000a90046001600160a01b03166001600160a01b031663a44b93256040518163ffffffff1660e01b815260040160206040518083038186803b158015612bf457600080fd5b505afa158015612c08573d6000803e3d6000fd5b505050506040513d601f19601f82011682018060405250810190612c2c919061392f565b612c3557600080fd5b601860009054906101000a90046001600160a01b03166001600160a01b031663ac7cfac36040518163ffffffff1660e01b815260040160206040518083038186803b158015612c8357600080fd5b505afa158015612c97573d6000803e3d6000fd5b505050506040513d601f19601f82011682018060405250810190612cbb9190613773565b600c80546001600160a01b0319166001600160a01b0392909216919091179055565b610987828260405180602001604052806000815250613170565b612d018282610ea5565b610987576000828152600a602090815260408083206001600160a01b03851684529091529020805460ff19166001179055612d3a611c88565b6001600160a01b0316816001600160a01b0316837f2f8788117e7eff1d82e926ec794901d17c78024a50270940304540a733656f0d60405160405180910390a45050565b6000612d8a83836131a3565b612dc057508154600181810184556000848152602080822090930184905584548482528286019093526040902091909155610b2b565b506000610b2b565b60006001600160e01b03198216637965db0b60e01b14806107e757506107e7826131bb565b61096f8383836131e0565b612e028282610ea5565b61098757612e1a816001600160a01b03166014613269565b612e25836020613269565b604051602001612e36929190613a53565b60408051601f198184030181529082905262461bcd60e51b82526108b791600401613b8f565b612e668282610ea5565b15610987576000828152600a602090815260408083206001600160a01b03851684529091529020805460ff19169055612e9d611c88565b6001600160a01b0316816001600160a01b0316837ff6391f5c32d9c69d2a47ea670b442974b53935d1edc7fd64eb21e047a839171b60405160405180910390a45050565b60008181526001830160205260408120548015612fee576000612f0560018361418f565b8554909150600090612f199060019061418f565b90506000866000018281548110612f4057634e487b7160e01b600052603260045260246000fd5b9060005260206000200154905080876000018481548110612f7157634e487b7160e01b600052603260045260246000fd5b600091825260208083209091019290925582815260018901909152604090208490558654879080612fb257634e487b7160e01b600052603160045260246000fd5b60019003818190600052602060002001600090559055866001016000878152602001908152602001600020600090556001945050505050610b2b565b6000915050610b2b565b8154600090821061301b5760405162461bcd60e51b81526004016108b790613ba2565b82600001828154811061303e57634e487b7160e01b600052603260045260246000fd5b9060005260206000200154905092915050565b6000613065846001600160a01b031661341b565b1561316157836001600160a01b031663150b7a02613081611c88565b8786866040518563ffffffff1660e01b81526004016130a39493929190613b00565b602060405180830381600087803b1580156130bd57600080fd5b505af19250505080156130ed575060408051601f3d908101601f191682019092526130ea918101906139c4565b60015b613147573d80801561311b576040519150601f19603f3d011682016040523d82523d6000602084013e613120565b606091505b50805161313f5760405162461bcd60e51b81526004016108b790613c94565b805181602001fd5b6001600160e01b031916630a85bd0160e11b1490506121dc565b506001949350505050565b5490565b61317a8383613421565b6131876000848484613051565b61096f5760405162461bcd60e51b81526004016108b790613c94565b60009081526001919091016020526040902054151590565b60006001600160e01b0319821663780e9d6360e01b14806107e757506107e782613500565b6131eb83838361096f565b6001600160a01b0383166132075761320281613540565b61322a565b816001600160a01b0316836001600160a01b03161461322a5761322a8382613584565b6001600160a01b0382166132465761324181613621565b61096f565b826001600160a01b0316826001600160a01b03161461096f5761096f82826136fa565b60606000613278836002614170565b613283906002614144565b67ffffffffffffffff8111156132a957634e487b7160e01b600052604160045260246000fd5b6040519080825280601f01601f1916602001820160405280156132d3576020820181803683370190505b509050600360fc1b816000815181106132fc57634e487b7160e01b600052603260045260246000fd5b60200101906001600160f81b031916908160001a905350600f60fb1b8160018151811061333957634e487b7160e01b600052603260045260246000fd5b60200101906001600160f81b031916908160001a905350600061335d846002614170565b613368906001614144565b90505b60018111156133fc576f181899199a1a9b1b9c1cb0b131b232b360811b85600f16601081106133aa57634e487b7160e01b600052603260045260246000fd5b1a60f81b8282815181106133ce57634e487b7160e01b600052603260045260246000fd5b60200101906001600160f81b031916908160001a90535060049490941c936133f5816141d2565b905061336b565b508315610e9e5760405162461bcd60e51b81526004016108b790613be4565b3b151590565b6001600160a01b0382166134475760405162461bcd60e51b81526004016108b790613efe565b61345081611c6b565b1561346d5760405162461bcd60e51b81526004016108b790613ce6565b61347960008383612ded565b6001600160a01b03821660009081526003602052604081208054600192906134a2908490614144565b909155505060008181526002602052604080822080546001600160a01b0319166001600160a01b03861690811790915590518392907fddf252ad1be2c89b69c2b068fc378daa952ba7f163c4a11628f55a4df523b3ef908290a45050565b60006001600160e01b031982166380ac58cd60e01b148061353157506001600160e01b03198216635b5e139f60e01b145b806107e757506107e78261373e565b600880546000838152600960205260408120829055600182018355919091527ff3f7a9fe364faab93b216da50a3214154f22a0a2b415b23a84c8169e8b636ee30155565b6000600161359184610e21565b61359b919061418f565b6000838152600760205260409020549091508082146135ee576001600160a01b03841660009081526006602090815260408083208584528252808320548484528184208190558352600790915290208190555b5060009182526007602090815260408084208490556001600160a01b039094168352600681528383209183525290812055565b6008546000906136339060019061418f565b6000838152600960205260408120546008805493945090928490811061366957634e487b7160e01b600052603260045260246000fd5b90600052602060002001549050806008838154811061369857634e487b7160e01b600052603260045260246000fd5b60009182526020808320909101929092558281526009909152604080822084905585825281205560088054806136de57634e487b7160e01b600052603160045260246000fd5b6001900381819060005260206000200160009055905550505050565b600061370583610e21565b6001600160a01b039093166000908152600660209081526040808320868452825280832085905593825260079052919091209190915550565b6001600160e01b031981166301ffc9a760e01b14919050565b600060208284031215613768578081fd5b8135610e9e81614295565b600060208284031215613784578081fd5b8151610e9e81614295565b600080604083850312156137a1578081fd5b82356137ac81614295565b915060208301356137bc81614295565b809150509250929050565b6000806000606084860312156137db578081fd5b83356137e681614295565b925060208401356137f681614295565b929592945050506040919091013590565b6000806000806080858703121561381c578081fd5b843561382781614295565b935060208581013561383881614295565b935060408601359250606086013567ffffffffffffffff8082111561385b578384fd5b818801915088601f83011261386e578384fd5b8135818111156138805761388061427f565b604051601f8201601f19168101850183811182821017156138a3576138a361427f565b60405281815283820185018b10156138b9578586fd5b81858501868301379081019093019390935250939692955090935050565b600080604083850312156138e9578182fd5b82356138f481614295565b915060208301356137bc816142aa565b60008060408385031215613916578182fd5b823561392181614295565b946020939093013593505050565b600060208284031215613940578081fd5b8151610e9e816142aa565b60006020828403121561395c578081fd5b5035919050565b60008060408385031215613975578182fd5b8235915060208301356137bc81614295565b60008060408385031215613999578182fd5b50508035926020909101359150565b6000602082840312156139b9578081fd5b8135610e9e816142b8565b6000602082840312156139d5578081fd5b8151610e9e816142b8565b6000602082840312156139f1578081fd5b5051919050565b60008151808452613a108160208601602086016141a6565b601f01601f19169290920160200192915050565b60008351613a368184602088016141a6565b835190830190613a4a8183602088016141a6565b01949350505050565b60007f416363657373436f6e74726f6c3a206163636f756e742000000000000000000082528351613a8b8160178501602088016141a6565b7001034b99036b4b9b9b4b733903937b6329607d1b6017918401918201528351613abc8160288401602088016141a6565b01602801949350505050565b6001600160a01b0391909116815260200190565b6001600160a01b039384168152919092166020820152604081019190915260600190565b6001600160a01b0385811682528416602082015260408101839052608060608201819052600090613b33908301846139f8565b9695505050505050565b6001600160a01b03929092168252602082015260400190565b901515815260200190565b90815260200190565b9182526001600160a01b0316602082015260400190565b918252602082015260400190565b600060208252610e9e60208301846139f8565b60208082526022908201527f456e756d657261626c655365743a20696e646578206f7574206f6620626f756e604082015261647360f01b606082015260800190565b6020808252818101527f537472696e67733a20686578206c656e67746820696e73756666696369656e74604082015260600190565b6020808252601690820152752cb7ba93b932903737ba103a3432903130b4b634b33360511b604082015260600190565b6020808252602b908201527f455243373231456e756d657261626c653a206f776e657220696e646578206f7560408201526a74206f6620626f756e647360a81b606082015260800190565b60208082526032908201527f4552433732313a207472616e7366657220746f206e6f6e20455243373231526560408201527131b2b4bb32b91034b6b83632b6b2b73a32b960711b606082015260800190565b6020808252601c908201527f4552433732313a20746f6b656e20616c7265616479206d696e74656400000000604082015260600190565b60208082526024908201527f4552433732313a207472616e7366657220746f20746865207a65726f206164646040820152637265737360e01b606082015260800190565b60208082526019908201527f4552433732313a20617070726f766520746f2063616c6c657200000000000000604082015260600190565b6020808252602c908201527f4552433732313a206f70657261746f7220717565727920666f72206e6f6e657860408201526b34b9ba32b73a103a37b5b2b760a11b606082015260800190565b60208082526010908201526f4e6f7468696e6720746f2073796e632160801b604082015260600190565b60208082526038908201527f4552433732313a20617070726f76652063616c6c6572206973206e6f74206f7760408201527f6e6572206e6f7220617070726f76656420666f7220616c6c0000000000000000606082015260800190565b6020808252602a908201527f4552433732313a2062616c616e636520717565727920666f7220746865207a65604082015269726f206164647265737360b01b606082015260800190565b60208082526029908201527f4552433732313a206f776e657220717565727920666f72206e6f6e657869737460408201526832b73a103a37b5b2b760b91b606082015260800190565b6020808252818101527f4552433732313a206d696e7420746f20746865207a65726f2061646472657373604082015260600190565b6020808252602c908201527f4552433732313a20617070726f76656420717565727920666f72206e6f6e657860408201526b34b9ba32b73a103a37b5b2b760a11b606082015260800190565b60208082526029908201527f4552433732313a207472616e73666572206f6620746f6b656e2074686174206960408201526839903737ba1037bbb760b91b606082015260800190565b6020808252602f908201527f4552433732314d657461646174613a2055524920717565727920666f72206e6f60408201526e3732bc34b9ba32b73a103a37b5b2b760891b606082015260800190565b60208082526021908201527f4552433732313a20617070726f76616c20746f2063757272656e74206f776e656040820152603960f91b606082015260800190565b60208082526031908201527f4552433732313a207472616e736665722063616c6c6572206973206e6f74206f6040820152701ddb995c881b9bdc88185c1c1c9bdd9959607a1b606082015260800190565b6020808252602c908201527f455243373231456e756d657261626c653a20676c6f62616c20696e646578206f60408201526b7574206f6620626f756e647360a01b606082015260800190565b6020808252602f908201527f416363657373436f6e74726f6c3a2063616e206f6e6c792072656e6f756e636560408201526e103937b632b9903337b91039b2b63360891b606082015260800190565b6000821982111561415757614157614253565b500190565b60008261416b5761416b614269565b500490565b600081600019048311821515161561418a5761418a614253565b500290565b6000828210156141a1576141a1614253565b500390565b60005b838110156141c15781810151838201526020016141a9565b838111156111995750506000910152565b6000816141e1576141e1614253565b506000190190565b6002810460018216806141fd57607f821691505b6020821081141561421e57634e487b7160e01b600052602260045260246000fd5b50919050565b600060001982141561423857614238614253565b5060010190565b60008261424e5761424e614269565b500690565b634e487b7160e01b600052601160045260246000fd5b634e487b7160e01b600052601260045260246000fd5b634e487b7160e01b600052604160045260246000fd5b6001600160a01b038116811461099357600080fd5b801515811461099357600080fd5b6001600160e01b03198116811461099357600080fdfefa8e4989e1d689f7bc5c4b25b87efb51fecdecb19ba62847e29c759e12a89acd048bc71fa1cb2c119c339cf9cf00a97996a19a9d991ce5fe049f2fa5459e7990f0f4b159a6e2a4815eb3ca3df080bfa70c9270662c59bcaa4479a456220183e60538d24a8b7882d7b2e36af243d4af61c23e86e3daa6cb8c887b53220b2f57207c9d7f6f02908185bffb3f7fc9afb29fd7bf93675af8fd4b655ee05c2cee1e0ea2646970667358221220fd1fbd5c7e4a4c536bc31275c73d5228b843b26339c4a6c19de95313afea58f564736f6c63430008000033",
  "immutableReferences": {},
  "source": "// SPDX-License-Identifier: MIT\n// Inspired by SushiSwap SushiBar\n\npragma solidity 0.8.0;\n\nimport \"../src/SmartConsensusMachine.sol\";\nimport \"@openzeppelin/contracts/token/ERC721/extensions/ERC721Enumerable.sol\";\nimport \"@openzeppelin/contracts/token/ERC721/ERC721.sol\";\nimport \"@openzeppelin/contracts/token/ERC20/ERC20.sol\";\n\ncontract JuryPool is ERC721, ERC721Enumerable, SmartConsensusMachine {\n\n    ERC20 public redPens;\n    uint private tokenIdGenerator = 1;\n    uint256 public totalShares = 0;\n\n    constructor(address _AddressManagerAddress) SmartConsensusMachine(_AddressManagerAddress) ERC721(\"Jurry Hats\", \"Hat\")  {\n\n\n    }\n\n    mapping (uint => uint256) public JurrorStake;\n\n    \n    function updateStakingToken() public {\n        redPens = ERC20(addressManager.RedPenTokenAddress());\n    }\n\n    function getHatBalance(uint _tokenId) public returns (uint256 hatBalance) {\n\n        // hatBalance = JurrorStake[_tokenId];\n        return JurrorStake[_tokenId];\n    }\n    \n    function stakePens() public {\n        uint256 amountToStake = redPens.balanceOf(msg.sender);\n        stakePens(amountToStake);\n    }\n\n    function stakePens(uint256 _amount) public {\n \n        uint256 totalPensInPool = redPens.balanceOf(address(this));\n        uint256 totalSharesCirculating = totalShares;\n        uint _tokenId;\n        redPens.transferFrom(msg.sender, address(this), _amount);\n\n\n        if ( balanceOf(msg.sender) < 1) {\n            _tokenId = tokenIdGenerator;\n            _safeMint(msg.sender, _tokenId);\n            tokenIdGenerator += 1;\n        } else if (balanceOf(msg.sender) >= 1) {\n            _tokenId = tokenOfOwnerByIndex(msg.sender, 1);\n        }   \n\n        if (totalSharesCirculating > 0) {\n            _amount = (_amount * totalSharesCirculating / totalPensInPool);\n        }\n\n        JurrorStake[_tokenId] += _amount; \n        totalShares += _amount;\n\n    }\n\n    // Only use this one if you have multiple staked positions that you are managing manually.\n    function stakePensAdvanced(uint256 _amount, uint tokenIdToStakeWith) public {\n \n        uint256 totalPensInPool = redPens.balanceOf(address(this));\n        uint _tokenId;\n        redPens.transferFrom(msg.sender, address(this), _amount);\n\n        if (totalShares > 0) {\n            _amount = (_amount * totalShares / totalPensInPool);\n        }\n\n        JurrorStake[_tokenId] += _amount; \n        totalShares += _amount;\n\n    }\n\n\n    function returnHats() public {\n        require(balanceOf(msg.sender) > 0);\n         uint256 _tokenId = tokenOfOwnerByIndex(msg.sender, 1);\n         returnHats(_tokenId);\n    }\n\n    function returnHats(uint256 _tokenId) public {\n\n        require (ownerOf(_tokenId) == msg.sender);\n        uint256 _amount = JurrorStake[_tokenId];\n        uint256 pensToDistrubute = (_amount * (redPens.balanceOf(address(this))) / totalShares);\n        JurrorStake[_tokenId] = 0;\n        totalShares -= _amount;\n        _burn(_tokenId);\n        redPens.transfer(msg.sender, pensToDistrubute);\n    \n    }\n\n    function returnHatsAdvanced(uint256 _amount, uint256 _tokenId) public {\n\n        require (ownerOf(_tokenId) == msg.sender);\n        if (JurrorStake[_tokenId] <= _amount) {\n            _amount = JurrorStake[_tokenId];\n        }\n        uint256 pensToDistrubute = (_amount * (redPens.balanceOf(address(this))) / totalShares);\n        totalShares -= _amount;\n\n        if (JurrorStake[_tokenId] == _amount) {\n            _burn(_tokenId);\n            JurrorStake[_tokenId] = 0;\n\n        } else if (JurrorStake[_tokenId] > _amount) {\n            JurrorStake[_tokenId] -= _amount;\n        }\n        \n        redPens.transfer(msg.sender, pensToDistrubute);\n    \n    }\n\n    function slashToken(uint _tokenIdToSlash, uint _percentToSlashInWholeNumber) public BAILIFF {\n\n        require(_percentToSlashInWholeNumber < 100);\n        uint256 amountToSlash = JurrorStake[_tokenIdToSlash] * _percentToSlashInWholeNumber / 100;\n        _slash(_tokenIdToSlash, amountToSlash);\n\n    }\n\n    function _slash(uint _tokenIdToSlash, uint _amountToSlash) internal {\n        JurrorStake[_tokenIdToSlash] -= _amountToSlash;\n    }\n\n    function _updateTokenAddresses() internal override {\n\n        updateStakingToken();\n        super._updateTokenAddresses();\n        \n    }\n\n    function _beforeTokenTransfer(address from, address to, uint256 amount)\n        internal\n        override (ERC721, ERC721Enumerable)\n    {\n        super._beforeTokenTransfer(from, to, amount);\n    }\n\n    function supportsInterface(bytes4 interfaceId) public view virtual override (AccessControlEnumerable, ERC721, ERC721Enumerable) returns (bool) {\n        return\n            interfaceId == type(IERC721).interfaceId ||\n            interfaceId == type(IERC20).interfaceId ||\n            interfaceId == type(IERC721Metadata).interfaceId ||\n            super.supportsInterface(interfaceId);\n    }\n\n}",
  "sourcePath": "/home/n/Desktop/PinkSlips_FrontEnd_REFORMAT/contracts/juryAndAppeals/JuryPool.sol",
  "compiler": {
    "name": "solc",
    "version": "0.8.0+commit.c7dfd78e.Emscripten.clang"
  },
  "schemaVersion": "3.4.1",
  "updatedAt": "2021-07-29T07:01:32.524Z",
  "networkType": "ethereum",
  "devdoc": {
    "kind": "dev",
    "methods": {
      "approve(address,uint256)": {
        "details": "See {IERC721-approve}."
      },
      "balanceOf(address)": {
        "details": "See {IERC721-balanceOf}."
      },
      "getApproved(uint256)": {
        "details": "See {IERC721-getApproved}."
      },
      "getRoleAdmin(bytes32)": {
        "details": "Returns the admin role that controls `role`. See {grantRole} and {revokeRole}. To change a role's admin, use {_setRoleAdmin}."
      },
      "getRoleMember(bytes32,uint256)": {
        "details": "Returns one of the accounts that have `role`. `index` must be a value between 0 and {getRoleMemberCount}, non-inclusive. Role bearers are not sorted in any particular way, and their ordering may change at any point. WARNING: When using {getRoleMember} and {getRoleMemberCount}, make sure you perform all queries on the same block. See the following https://forum.openzeppelin.com/t/iterating-over-elements-on-enumerableset-in-openzeppelin-contracts/2296[forum post] for more information."
      },
      "getRoleMemberCount(bytes32)": {
        "details": "Returns the number of accounts that have `role`. Can be used together with {getRoleMember} to enumerate all bearers of a role."
      },
      "grantRole(bytes32,address)": {
        "details": "Overload {grantRole} to track enumerable memberships"
      },
      "hasRole(bytes32,address)": {
        "details": "Returns `true` if `account` has been granted `role`."
      },
      "isApprovedForAll(address,address)": {
        "details": "See {IERC721-isApprovedForAll}."
      },
      "name()": {
        "details": "See {IERC721Metadata-name}."
      },
      "ownerOf(uint256)": {
        "details": "See {IERC721-ownerOf}."
      },
      "renounceRole(bytes32,address)": {
        "details": "Overload {renounceRole} to track enumerable memberships"
      },
      "revokeRole(bytes32,address)": {
        "details": "Overload {revokeRole} to track enumerable memberships"
      },
      "safeTransferFrom(address,address,uint256)": {
        "details": "See {IERC721-safeTransferFrom}."
      },
      "safeTransferFrom(address,address,uint256,bytes)": {
        "details": "See {IERC721-safeTransferFrom}."
      },
      "setApprovalForAll(address,bool)": {
        "details": "See {IERC721-setApprovalForAll}."
      },
      "symbol()": {
        "details": "See {IERC721Metadata-symbol}."
      },
      "tokenByIndex(uint256)": {
        "details": "See {IERC721Enumerable-tokenByIndex}."
      },
      "tokenOfOwnerByIndex(address,uint256)": {
        "details": "See {IERC721Enumerable-tokenOfOwnerByIndex}."
      },
      "tokenURI(uint256)": {
        "details": "See {IERC721Metadata-tokenURI}."
      },
      "totalSupply()": {
        "details": "See {IERC721Enumerable-totalSupply}."
      },
      "transferFrom(address,address,uint256)": {
        "details": "See {IERC721-transferFrom}."
      }
    },
    "version": 1
  },
  "userdoc": {
    "kind": "user",
    "methods": {},
    "version": 1
  }
}