{
  "contractName": "JuryPool",
  "abi": [
    {
      "inputs": [
        {
          "internalType": "address",
          "name": "_AddressManagerAddress",
          "type": "address"
        }
      ],
      "stateMutability": "nonpayable",
      "type": "constructor"
    },
    {
      "anonymous": false,
      "inputs": [
        {
          "indexed": true,
          "internalType": "address",
          "name": "owner",
          "type": "address"
        },
        {
          "indexed": true,
          "internalType": "address",
          "name": "approved",
          "type": "address"
        },
        {
          "indexed": true,
          "internalType": "uint256",
          "name": "tokenId",
          "type": "uint256"
        }
      ],
      "name": "Approval",
      "type": "event"
    },
    {
      "anonymous": false,
      "inputs": [
        {
          "indexed": true,
          "internalType": "address",
          "name": "owner",
          "type": "address"
        },
        {
          "indexed": true,
          "internalType": "address",
          "name": "operator",
          "type": "address"
        },
        {
          "indexed": false,
          "internalType": "bool",
          "name": "approved",
          "type": "bool"
        }
      ],
      "name": "ApprovalForAll",
      "type": "event"
    },
    {
      "anonymous": false,
      "inputs": [
        {
          "indexed": true,
          "internalType": "bytes32",
          "name": "role",
          "type": "bytes32"
        },
        {
          "indexed": true,
          "internalType": "bytes32",
          "name": "previousAdminRole",
          "type": "bytes32"
        },
        {
          "indexed": true,
          "internalType": "bytes32",
          "name": "newAdminRole",
          "type": "bytes32"
        }
      ],
      "name": "RoleAdminChanged",
      "type": "event"
    },
    {
      "anonymous": false,
      "inputs": [
        {
          "indexed": true,
          "internalType": "bytes32",
          "name": "role",
          "type": "bytes32"
        },
        {
          "indexed": true,
          "internalType": "address",
          "name": "account",
          "type": "address"
        },
        {
          "indexed": true,
          "internalType": "address",
          "name": "sender",
          "type": "address"
        }
      ],
      "name": "RoleGranted",
      "type": "event"
    },
    {
      "anonymous": false,
      "inputs": [
        {
          "indexed": true,
          "internalType": "bytes32",
          "name": "role",
          "type": "bytes32"
        },
        {
          "indexed": true,
          "internalType": "address",
          "name": "account",
          "type": "address"
        },
        {
          "indexed": true,
          "internalType": "address",
          "name": "sender",
          "type": "address"
        }
      ],
      "name": "RoleRevoked",
      "type": "event"
    },
    {
      "anonymous": false,
      "inputs": [
        {
          "indexed": true,
          "internalType": "address",
          "name": "from",
          "type": "address"
        },
        {
          "indexed": true,
          "internalType": "address",
          "name": "to",
          "type": "address"
        },
        {
          "indexed": true,
          "internalType": "uint256",
          "name": "tokenId",
          "type": "uint256"
        }
      ],
      "name": "Transfer",
      "type": "event"
    },
    {
      "inputs": [],
      "name": "AddressManagerAddress",
      "outputs": [
        {
          "internalType": "address",
          "name": "",
          "type": "address"
        }
      ],
      "stateMutability": "view",
      "type": "function",
      "constant": true
    },
    {
      "inputs": [],
      "name": "ChadBadgeAddress",
      "outputs": [
        {
          "internalType": "address",
          "name": "",
          "type": "address"
        }
      ],
      "stateMutability": "view",
      "type": "function",
      "constant": true
    },
    {
      "inputs": [],
      "name": "DEFAULT_ADMIN_ROLE",
      "outputs": [
        {
          "internalType": "bytes32",
          "name": "",
          "type": "bytes32"
        }
      ],
      "stateMutability": "view",
      "type": "function",
      "constant": true
    },
    {
      "inputs": [],
      "name": "GAVELS_BAILIFF",
      "outputs": [
        {
          "internalType": "bytes32",
          "name": "",
          "type": "bytes32"
        }
      ],
      "stateMutability": "view",
      "type": "function",
      "constant": true
    },
    {
      "inputs": [],
      "name": "GavelDAOAddress",
      "outputs": [
        {
          "internalType": "address",
          "name": "",
          "type": "address"
        }
      ],
      "stateMutability": "view",
      "type": "function",
      "constant": true
    },
    {
      "inputs": [],
      "name": "GavelDAOAgent",
      "outputs": [
        {
          "internalType": "address",
          "name": "",
          "type": "address"
        }
      ],
      "stateMutability": "view",
      "type": "function",
      "constant": true
    },
    {
      "inputs": [],
      "name": "GavelTokenAddress",
      "outputs": [
        {
          "internalType": "address",
          "name": "",
          "type": "address"
        }
      ],
      "stateMutability": "view",
      "type": "function",
      "constant": true
    },
    {
      "inputs": [],
      "name": "GavelVote",
      "outputs": [
        {
          "internalType": "bool",
          "name": "",
          "type": "bool"
        }
      ],
      "stateMutability": "view",
      "type": "function",
      "constant": true
    },
    {
      "inputs": [],
      "name": "GoldStarAddress",
      "outputs": [
        {
          "internalType": "address",
          "name": "",
          "type": "address"
        }
      ],
      "stateMutability": "view",
      "type": "function",
      "constant": true
    },
    {
      "inputs": [],
      "name": "JERK_ROLE",
      "outputs": [
        {
          "internalType": "bytes32",
          "name": "",
          "type": "bytes32"
        }
      ],
      "stateMutability": "view",
      "type": "function",
      "constant": true
    },
    {
      "inputs": [],
      "name": "JURY_BAILIFF",
      "outputs": [
        {
          "internalType": "bytes32",
          "name": "",
          "type": "bytes32"
        }
      ],
      "stateMutability": "view",
      "type": "function",
      "constant": true
    },
    {
      "inputs": [
        {
          "internalType": "uint256",
          "name": "",
          "type": "uint256"
        }
      ],
      "name": "JurrorStake",
      "outputs": [
        {
          "internalType": "uint256",
          "name": "",
          "type": "uint256"
        }
      ],
      "stateMutability": "view",
      "type": "function",
      "constant": true
    },
    {
      "inputs": [],
      "name": "JuryDAOAddress",
      "outputs": [
        {
          "internalType": "address",
          "name": "",
          "type": "address"
        }
      ],
      "stateMutability": "view",
      "type": "function",
      "constant": true
    },
    {
      "inputs": [],
      "name": "JuryDAOAgent",
      "outputs": [
        {
          "internalType": "address",
          "name": "",
          "type": "address"
        }
      ],
      "stateMutability": "view",
      "type": "function",
      "constant": true
    },
    {
      "inputs": [],
      "name": "JuryPoolAddress",
      "outputs": [
        {
          "internalType": "address",
          "name": "",
          "type": "address"
        }
      ],
      "stateMutability": "view",
      "type": "function",
      "constant": true
    },
    {
      "inputs": [],
      "name": "JuryVote",
      "outputs": [
        {
          "internalType": "bool",
          "name": "",
          "type": "bool"
        }
      ],
      "stateMutability": "view",
      "type": "function",
      "constant": true
    },
    {
      "inputs": [],
      "name": "MINI_BAILIFF_ROLE",
      "outputs": [
        {
          "internalType": "bytes32",
          "name": "",
          "type": "bytes32"
        }
      ],
      "stateMutability": "view",
      "type": "function",
      "constant": true
    },
    {
      "inputs": [],
      "name": "MiniBailiff",
      "outputs": [
        {
          "internalType": "address",
          "name": "",
          "type": "address"
        }
      ],
      "stateMutability": "view",
      "type": "function",
      "constant": true
    },
    {
      "inputs": [],
      "name": "PinkSlipAddress",
      "outputs": [
        {
          "internalType": "address",
          "name": "",
          "type": "address"
        }
      ],
      "stateMutability": "view",
      "type": "function",
      "constant": true
    },
    {
      "inputs": [],
      "name": "RedPenTokenAddress",
      "outputs": [
        {
          "internalType": "address",
          "name": "",
          "type": "address"
        }
      ],
      "stateMutability": "view",
      "type": "function",
      "constant": true
    },
    {
      "inputs": [],
      "name": "THE_COURT_ROLE",
      "outputs": [
        {
          "internalType": "bytes32",
          "name": "",
          "type": "bytes32"
        }
      ],
      "stateMutability": "view",
      "type": "function",
      "constant": true
    },
    {
      "inputs": [],
      "name": "TheCourtDAOAddress",
      "outputs": [
        {
          "internalType": "address",
          "name": "",
          "type": "address"
        }
      ],
      "stateMutability": "view",
      "type": "function",
      "constant": true
    },
    {
      "inputs": [],
      "name": "TheCourtDAOAgent",
      "outputs": [
        {
          "internalType": "address",
          "name": "",
          "type": "address"
        }
      ],
      "stateMutability": "view",
      "type": "function",
      "constant": true
    },
    {
      "inputs": [],
      "name": "TreasuryAddress",
      "outputs": [
        {
          "internalType": "address",
          "name": "",
          "type": "address"
        }
      ],
      "stateMutability": "view",
      "type": "function",
      "constant": true
    },
    {
      "inputs": [],
      "name": "addressManager",
      "outputs": [
        {
          "internalType": "contract AddressManager",
          "name": "",
          "type": "address"
        }
      ],
      "stateMutability": "view",
      "type": "function",
      "constant": true
    },
    {
      "inputs": [
        {
          "internalType": "address",
          "name": "to",
          "type": "address"
        },
        {
          "internalType": "uint256",
          "name": "tokenId",
          "type": "uint256"
        }
      ],
      "name": "approve",
      "outputs": [],
      "stateMutability": "nonpayable",
      "type": "function"
    },
    {
      "inputs": [
        {
          "internalType": "address",
          "name": "owner",
          "type": "address"
        }
      ],
      "name": "balanceOf",
      "outputs": [
        {
          "internalType": "uint256",
          "name": "",
          "type": "uint256"
        }
      ],
      "stateMutability": "view",
      "type": "function",
      "constant": true
    },
    {
      "inputs": [
        {
          "internalType": "uint256",
          "name": "tokenId",
          "type": "uint256"
        }
      ],
      "name": "getApproved",
      "outputs": [
        {
          "internalType": "address",
          "name": "",
          "type": "address"
        }
      ],
      "stateMutability": "view",
      "type": "function",
      "constant": true
    },
    {
      "inputs": [
        {
          "internalType": "bytes32",
          "name": "role",
          "type": "bytes32"
        }
      ],
      "name": "getRoleAdmin",
      "outputs": [
        {
          "internalType": "bytes32",
          "name": "",
          "type": "bytes32"
        }
      ],
      "stateMutability": "view",
      "type": "function",
      "constant": true
    },
    {
      "inputs": [
        {
          "internalType": "bytes32",
          "name": "role",
          "type": "bytes32"
        },
        {
          "internalType": "uint256",
          "name": "index",
          "type": "uint256"
        }
      ],
      "name": "getRoleMember",
      "outputs": [
        {
          "internalType": "address",
          "name": "",
          "type": "address"
        }
      ],
      "stateMutability": "view",
      "type": "function",
      "constant": true
    },
    {
      "inputs": [
        {
          "internalType": "bytes32",
          "name": "role",
          "type": "bytes32"
        }
      ],
      "name": "getRoleMemberCount",
      "outputs": [
        {
          "internalType": "uint256",
          "name": "",
          "type": "uint256"
        }
      ],
      "stateMutability": "view",
      "type": "function",
      "constant": true
    },
    {
      "inputs": [
        {
          "internalType": "bytes32",
          "name": "role",
          "type": "bytes32"
        },
        {
          "internalType": "address",
          "name": "account",
          "type": "address"
        }
      ],
      "name": "grantRole",
      "outputs": [],
      "stateMutability": "nonpayable",
      "type": "function"
    },
    {
      "inputs": [
        {
          "internalType": "bytes32",
          "name": "role",
          "type": "bytes32"
        },
        {
          "internalType": "address",
          "name": "account",
          "type": "address"
        }
      ],
      "name": "hasRole",
      "outputs": [
        {
          "internalType": "bool",
          "name": "",
          "type": "bool"
        }
      ],
      "stateMutability": "view",
      "type": "function",
      "constant": true
    },
    {
      "inputs": [
        {
          "internalType": "address",
          "name": "owner",
          "type": "address"
        },
        {
          "internalType": "address",
          "name": "operator",
          "type": "address"
        }
      ],
      "name": "isApprovedForAll",
      "outputs": [
        {
          "internalType": "bool",
          "name": "",
          "type": "bool"
        }
      ],
      "stateMutability": "view",
      "type": "function",
      "constant": true
    },
    {
      "inputs": [],
      "name": "jerkSanctions",
      "outputs": [
        {
          "internalType": "bool",
          "name": "",
          "type": "bool"
        }
      ],
      "stateMutability": "view",
      "type": "function",
      "constant": true
    },
    {
      "inputs": [],
      "name": "name",
      "outputs": [
        {
          "internalType": "string",
          "name": "",
          "type": "string"
        }
      ],
      "stateMutability": "view",
      "type": "function",
      "constant": true
    },
    {
      "inputs": [
        {
          "internalType": "uint256",
          "name": "tokenId",
          "type": "uint256"
        }
      ],
      "name": "ownerOf",
      "outputs": [
        {
          "internalType": "address",
          "name": "",
          "type": "address"
        }
      ],
      "stateMutability": "view",
      "type": "function",
      "constant": true
    },
    {
      "inputs": [],
      "name": "redPens",
      "outputs": [
        {
          "internalType": "contract ERC20",
          "name": "",
          "type": "address"
        }
      ],
      "stateMutability": "view",
      "type": "function",
      "constant": true
    },
    {
      "inputs": [
        {
          "internalType": "bytes32",
          "name": "role",
          "type": "bytes32"
        },
        {
          "internalType": "address",
          "name": "account",
          "type": "address"
        }
      ],
      "name": "renounceRole",
      "outputs": [],
      "stateMutability": "nonpayable",
      "type": "function"
    },
    {
      "inputs": [],
      "name": "resetVote",
      "outputs": [],
      "stateMutability": "nonpayable",
      "type": "function"
    },
    {
      "inputs": [
        {
          "internalType": "bytes32",
          "name": "role",
          "type": "bytes32"
        },
        {
          "internalType": "address",
          "name": "account",
          "type": "address"
        }
      ],
      "name": "revokeRole",
      "outputs": [],
      "stateMutability": "nonpayable",
      "type": "function"
    },
    {
      "inputs": [
        {
          "internalType": "address",
          "name": "from",
          "type": "address"
        },
        {
          "internalType": "address",
          "name": "to",
          "type": "address"
        },
        {
          "internalType": "uint256",
          "name": "tokenId",
          "type": "uint256"
        }
      ],
      "name": "safeTransferFrom",
      "outputs": [],
      "stateMutability": "nonpayable",
      "type": "function"
    },
    {
      "inputs": [
        {
          "internalType": "address",
          "name": "from",
          "type": "address"
        },
        {
          "internalType": "address",
          "name": "to",
          "type": "address"
        },
        {
          "internalType": "uint256",
          "name": "tokenId",
          "type": "uint256"
        },
        {
          "internalType": "bytes",
          "name": "_data",
          "type": "bytes"
        }
      ],
      "name": "safeTransferFrom",
      "outputs": [],
      "stateMutability": "nonpayable",
      "type": "function"
    },
    {
      "inputs": [
        {
          "internalType": "address",
          "name": "operator",
          "type": "address"
        },
        {
          "internalType": "bool",
          "name": "approved",
          "type": "bool"
        }
      ],
      "name": "setApprovalForAll",
      "outputs": [],
      "stateMutability": "nonpayable",
      "type": "function"
    },
    {
      "inputs": [],
      "name": "symbol",
      "outputs": [
        {
          "internalType": "string",
          "name": "",
          "type": "string"
        }
      ],
      "stateMutability": "view",
      "type": "function",
      "constant": true
    },
    {
      "inputs": [],
      "name": "syncAllRoles",
      "outputs": [],
      "stateMutability": "nonpayable",
      "type": "function"
    },
    {
      "inputs": [
        {
          "internalType": "bytes32",
          "name": "ROLE_TO_SYNC",
          "type": "bytes32"
        }
      ],
      "name": "syncSingleRole",
      "outputs": [],
      "stateMutability": "nonpayable",
      "type": "function"
    },
    {
      "inputs": [],
      "name": "syncVotes",
      "outputs": [],
      "stateMutability": "nonpayable",
      "type": "function"
    },
    {
      "inputs": [
        {
          "internalType": "uint256",
          "name": "index",
          "type": "uint256"
        }
      ],
      "name": "tokenByIndex",
      "outputs": [
        {
          "internalType": "uint256",
          "name": "",
          "type": "uint256"
        }
      ],
      "stateMutability": "view",
      "type": "function",
      "constant": true
    },
    {
      "inputs": [
        {
          "internalType": "address",
          "name": "owner",
          "type": "address"
        },
        {
          "internalType": "uint256",
          "name": "index",
          "type": "uint256"
        }
      ],
      "name": "tokenOfOwnerByIndex",
      "outputs": [
        {
          "internalType": "uint256",
          "name": "",
          "type": "uint256"
        }
      ],
      "stateMutability": "view",
      "type": "function",
      "constant": true
    },
    {
      "inputs": [
        {
          "internalType": "uint256",
          "name": "tokenId",
          "type": "uint256"
        }
      ],
      "name": "tokenURI",
      "outputs": [
        {
          "internalType": "string",
          "name": "",
          "type": "string"
        }
      ],
      "stateMutability": "view",
      "type": "function",
      "constant": true
    },
    {
      "inputs": [],
      "name": "totalShares",
      "outputs": [
        {
          "internalType": "uint256",
          "name": "",
          "type": "uint256"
        }
      ],
      "stateMutability": "view",
      "type": "function",
      "constant": true
    },
    {
      "inputs": [],
      "name": "totalSupply",
      "outputs": [
        {
          "internalType": "uint256",
          "name": "",
          "type": "uint256"
        }
      ],
      "stateMutability": "view",
      "type": "function",
      "constant": true
    },
    {
      "inputs": [
        {
          "internalType": "address",
          "name": "from",
          "type": "address"
        },
        {
          "internalType": "address",
          "name": "to",
          "type": "address"
        },
        {
          "internalType": "uint256",
          "name": "tokenId",
          "type": "uint256"
        }
      ],
      "name": "transferFrom",
      "outputs": [],
      "stateMutability": "nonpayable",
      "type": "function"
    },
    {
      "inputs": [],
      "name": "updateAddressManager",
      "outputs": [],
      "stateMutability": "nonpayable",
      "type": "function"
    },
    {
      "inputs": [],
      "name": "updateAllAddresses",
      "outputs": [],
      "stateMutability": "nonpayable",
      "type": "function"
    },
    {
      "inputs": [],
      "name": "updateAllRoles",
      "outputs": [],
      "stateMutability": "nonpayable",
      "type": "function"
    },
    {
      "inputs": [],
      "name": "updateDAOAddresses",
      "outputs": [],
      "stateMutability": "nonpayable",
      "type": "function"
    },
    {
      "inputs": [],
      "name": "updateDAOAgents",
      "outputs": [],
      "stateMutability": "nonpayable",
      "type": "function"
    },
    {
      "inputs": [
        {
          "internalType": "bytes32",
          "name": "ROLE_TO_UPDATE",
          "type": "bytes32"
        }
      ],
      "name": "updateSingleRole",
      "outputs": [],
      "stateMutability": "nonpayable",
      "type": "function"
    },
    {
      "inputs": [],
      "name": "updateTokenAddresses",
      "outputs": [],
      "stateMutability": "nonpayable",
      "type": "function"
    },
    {
      "inputs": [],
      "name": "updateStakingToken",
      "outputs": [],
      "stateMutability": "nonpayable",
      "type": "function"
    },
    {
      "inputs": [
        {
          "internalType": "uint256",
          "name": "_tokenId",
          "type": "uint256"
        }
      ],
      "name": "getHatBalance",
      "outputs": [
        {
          "internalType": "uint256",
          "name": "hatBalance",
          "type": "uint256"
        }
      ],
      "stateMutability": "nonpayable",
      "type": "function"
    },
    {
      "inputs": [],
      "name": "stakePens",
      "outputs": [],
      "stateMutability": "nonpayable",
      "type": "function"
    },
    {
      "inputs": [
        {
          "internalType": "uint256",
          "name": "_amount",
          "type": "uint256"
        }
      ],
      "name": "stakePens",
      "outputs": [],
      "stateMutability": "nonpayable",
      "type": "function"
    },
    {
      "inputs": [
        {
          "internalType": "uint256",
          "name": "_amount",
          "type": "uint256"
        },
        {
          "internalType": "uint256",
          "name": "tokenIdToStakeWith",
          "type": "uint256"
        }
      ],
      "name": "stakePensAdvanced",
      "outputs": [],
      "stateMutability": "nonpayable",
      "type": "function"
    },
    {
      "inputs": [
        {
          "internalType": "uint256",
          "name": "_tokenId",
          "type": "uint256"
        }
      ],
      "name": "returnHats",
      "outputs": [],
      "stateMutability": "nonpayable",
      "type": "function"
    },
    {
      "inputs": [],
      "name": "returnHats",
      "outputs": [],
      "stateMutability": "nonpayable",
      "type": "function"
    },
    {
      "inputs": [
        {
          "internalType": "uint256",
          "name": "_amount",
          "type": "uint256"
        },
        {
          "internalType": "uint256",
          "name": "_tokenId",
          "type": "uint256"
        }
      ],
      "name": "returnHatsAdvanced",
      "outputs": [],
      "stateMutability": "nonpayable",
      "type": "function"
    },
    {
      "inputs": [
        {
          "internalType": "uint256",
          "name": "_tokenIdToSlash",
          "type": "uint256"
        },
        {
          "internalType": "uint256",
          "name": "_percentToSlashInWholeNumber",
          "type": "uint256"
        }
      ],
      "name": "slashToken",
      "outputs": [],
      "stateMutability": "nonpayable",
      "type": "function"
    },
    {
      "inputs": [
        {
          "internalType": "bytes4",
          "name": "interfaceId",
          "type": "bytes4"
        }
      ],
      "name": "supportsInterface",
      "outputs": [
        {
          "internalType": "bool",
          "name": "",
          "type": "bool"
        }
      ],
      "stateMutability": "view",
      "type": "function",
      "constant": true
    }
  ],
  "bytecode": "0x6080604052601b805463ffffffff60a01b191690556001601d556000601e553480156200002b57600080fd5b5060405162005378380380620053788339810160408190526200004e9162000eda565b604080518082018252600a8152694a75727279204861747360b01b60208083019182528351808501909452600384526212185d60ea1b908401528151849384939290916200009f9160009162000e34565b508051620000b590600190602084019062000e34565b5050600c80546001600160a01b039093166001600160a01b03199384168117909155601b80549093161790915550620000ed6200022a565b620000f76200024a565b60165462000111906000906001600160a01b031662000395565b6016546200014a907f0538d24a8b7882d7b2e36af243d4af61c23e86e3daa6cb8c887b53220b2f5720906001600160a01b031662000395565b60175462000183907f048bc71fa1cb2c119c339cf9cf00a97996a19a9d991ce5fe049f2fa5459e7990906001600160a01b031662000395565b601854620001bc907ffa8e4989e1d689f7bc5c4b25b87efb51fecdecb19ba62847e29c759e12a89acd906001600160a01b031662000395565b601a54620001f5907ff0f4b159a6e2a4815eb3ca3df080bfa70c9270662c59bcaa4479a456220183e6906001600160a01b031662000395565b620002227f7c9d7f6f02908185bffb3f7fc9afb29fd7bf93675af8fd4b655ee05c2cee1e0e600062000395565b505062000f6d565b62000234620003d8565b6200023e620006d8565b6200024862000943565b565b601b60009054906101000a90046001600160a01b03166001600160a01b031663ff7e88ec6040518163ffffffff1660e01b815260040160206040518083038186803b1580156200029957600080fd5b505afa158015620002ae573d6000803e3d6000fd5b505050506040513d601f19601f82011682018060405250810190620002d4919062000f0c565b601b60156101000a81548160ff021916908315150217905550601b60009054906101000a90046001600160a01b03166001600160a01b0316632fb565856040518163ffffffff1660e01b815260040160206040518083038186803b1580156200033c57600080fd5b505afa15801562000351573d6000803e3d6000fd5b505050506040513d601f19601f8201168201806040525081019062000377919062000f0c565b601b8054911515600160b01b0260ff60b01b19909216919091179055565b620003ac82826200096260201b62001b041760201c565b6000828152600b60209081526040909120620003d391839062001b0e62000972821b17901c565b505050565b601b60009054906101000a90046001600160a01b03166001600160a01b0316637dad1ad56040518163ffffffff1660e01b815260040160206040518083038186803b1580156200042757600080fd5b505afa1580156200043c573d6000803e3d6000fd5b505050506040513d601f19601f8201168201806040525081019062000462919062000eda565b601480546001600160a01b0319166001600160a01b03928316179055601b546040805163a99b273560e01b81529051919092169163a99b2735916004808301926020929190829003018186803b158015620004bc57600080fd5b505afa158015620004d1573d6000803e3d6000fd5b505050506040513d601f19601f82011682018060405250810190620004f7919062000eda565b601580546001600160a01b0319166001600160a01b03928316179055601b5460408051637ef7fe1960e11b81529051919092169163fdeffc32916004808301926020929190829003018186803b1580156200055157600080fd5b505afa15801562000566573d6000803e3d6000fd5b505050506040513d601f19601f820116820180604052508101906200058c919062000eda565b601680546001600160a01b0319166001600160a01b03928316179055601b5460408051635b5c251f60e01b815290519190921691635b5c251f916004808301926020929190829003018186803b158015620005e657600080fd5b505afa158015620005fb573d6000803e3d6000fd5b505050506040513d601f19601f8201168201806040525081019062000621919062000eda565b601280546001600160a01b0319166001600160a01b03928316179055601b5460408051636b58477560e01b815290519190921691636b584775916004808301926020929190829003018186803b1580156200067b57600080fd5b505afa15801562000690573d6000803e3d6000fd5b505050506040513d601f19601f82011682018060405250810190620006b6919062000eda565b601380546001600160a01b0319166001600160a01b0392909216919091179055565b601b60009054906101000a90046001600160a01b03166001600160a01b031663dadf56ac6040518163ffffffff1660e01b815260040160206040518083038186803b1580156200072757600080fd5b505afa1580156200073c573d6000803e3d6000fd5b505050506040513d601f19601f8201168201806040525081019062000762919062000eda565b601780546001600160a01b0319166001600160a01b03928316179055601b546040805163024bebe960e01b81529051919092169163024bebe9916004808301926020929190829003018186803b158015620007bc57600080fd5b505afa158015620007d1573d6000803e3d6000fd5b505050506040513d601f19601f82011682018060405250810190620007f7919062000eda565b601880546001600160a01b0319166001600160a01b03928316179055601b546040805163320a28f960e11b81529051919092169163641451f2916004808301926020929190829003018186803b1580156200085157600080fd5b505afa15801562000866573d6000803e3d6000fd5b505050506040513d601f19601f820116820180604052508101906200088c919062000eda565b601980546001600160a01b0319166001600160a01b03928316179055601b5460408051637310bf1d60e11b81529051919092169163e6217e3a916004808301926020929190829003018186803b158015620008e657600080fd5b505afa158015620008fb573d6000803e3d6000fd5b505050506040513d601f19601f8201168201806040525081019062000921919062000eda565b601a80546001600160a01b0319166001600160a01b0392909216919091179055565b6200094d62000992565b6200024862000a3e60201b62001b231760201c565b6200096e828262000d3e565b5050565b600062000989836001600160a01b03841662000de2565b90505b92915050565b601b60009054906101000a90046001600160a01b03166001600160a01b031663762ddb596040518163ffffffff1660e01b815260040160206040518083038186803b158015620009e157600080fd5b505afa158015620009f6573d6000803e3d6000fd5b505050506040513d601f19601f8201168201806040525081019062000a1c919062000eda565b601c80546001600160a01b0319166001600160a01b0392909216919091179055565b601b60009054906101000a90046001600160a01b03166001600160a01b03166321d7f0086040518163ffffffff1660e01b815260040160206040518083038186803b15801562000a8d57600080fd5b505afa15801562000aa2573d6000803e3d6000fd5b505050506040513d601f19601f8201168201806040525081019062000ac8919062000eda565b600d80546001600160a01b0319166001600160a01b03928316179055601b546040805163762ddb5960e01b81529051919092169163762ddb59916004808301926020929190829003018186803b15801562000b2257600080fd5b505afa15801562000b37573d6000803e3d6000fd5b505050506040513d601f19601f8201168201806040525081019062000b5d919062000eda565b600e80546001600160a01b0319166001600160a01b03928316179055601b546040805163bfb7dc9960e01b81529051919092169163bfb7dc99916004808301926020929190829003018186803b15801562000bb757600080fd5b505afa15801562000bcc573d6000803e3d6000fd5b505050506040513d601f19601f8201168201806040525081019062000bf2919062000eda565b600f80546001600160a01b0319166001600160a01b03928316179055601b5460408051633e6111eb60e21b81529051919092169163f98447ac916004808301926020929190829003018186803b15801562000c4c57600080fd5b505afa15801562000c61573d6000803e3d6000fd5b505050506040513d601f19601f8201168201806040525081019062000c87919062000eda565b601080546001600160a01b0319166001600160a01b03928316179055601b5460408051630fe1ba9f60e21b815290519190921691633f86ea7c916004808301926020929190829003018186803b15801562000ce157600080fd5b505afa15801562000cf6573d6000803e3d6000fd5b505050506040513d601f19601f8201168201806040525081019062000d1c919062000eda565b601180546001600160a01b0319166001600160a01b0392909216919091179055565b6000828152600a602090815260408083206001600160a01b038516845290915290205460ff166200096e576000828152600a602090815260408083206001600160a01b03851684529091529020805460ff1916600117905562000d9e3390565b6001600160a01b0316816001600160a01b0316837f2f8788117e7eff1d82e926ec794901d17c78024a50270940304540a733656f0d60405160405180910390a45050565b600081815260018301602052604081205462000e2b575081546001818101845560008481526020808220909301849055845484825282860190935260409020919091556200098c565b5060006200098c565b82805462000e429062000f30565b90600052602060002090601f01602090048101928262000e66576000855562000eb1565b82601f1062000e8157805160ff191683800117855562000eb1565b8280016001018555821562000eb1579182015b8281111562000eb157825182559160200191906001019062000e94565b5062000ebf92915062000ec3565b5090565b5b8082111562000ebf576000815560010162000ec4565b60006020828403121562000eed57600080fd5b81516001600160a01b038116811462000f0557600080fd5b9392505050565b60006020828403121562000f1f57600080fd5b8151801515811462000f0557600080fd5b600181811c9082168062000f4557607f821691505b6020821081141562000f6757634e487b7160e01b600052602260045260246000fd5b50919050565b6143fb8062000f7d6000396000f3fe608060405234801561001057600080fd5b506004361061041d5760003560e01c806374f015f41161022b578063c87b56dd11610130578063e78c266c116100b8578063f3e9414211610087578063f3e94142146108fe578063f7d92d8614610911578063f98447ac14610919578063fdeffc321461092c578063ff7e88ec1461093f57600080fd5b8063e78c266c14610892578063e985e9c5146108a5578063e9a53230146108e1578063f1132b30146108f657600080fd5b8063cf4ece15116100ff578063cf4ece151461083c578063d547741f14610851578063dadf56ac14610864578063e3a4795514610877578063e6217e3a1461087f57600080fd5b8063c87b56dd146107f9578063ca15c8731461080c578063cce843921461081f578063cd19182c1461083457600080fd5b8063a32c5e59116101b3578063ab9b963f11610182578063ab9b963f14610798578063b366d0ef146107ab578063b6085bf5146107cb578063b88d4fde146107d3578063bfb7dc99146107e657600080fd5b8063a32c5e5914610749578063a78e746f1461075e578063a80a132114610772578063a99b27351461078557600080fd5b806391d14854116101fa57806391d148541461070057806395d89b4114610713578063a217fddf1461071b578063a22cb46514610723578063a2b3bef01461073657600080fd5b806374f015f4146106a7578063762ddb59146106c75780637dad1ad5146106da5780639010d07c146106ed57600080fd5b8063329a8cfa1161033157806357f276ff116102b9578063641451f211610288578063641451f21461065357806367a14f06146106665780636ad8118b146106795780636b5847751461068157806370a082311461069457600080fd5b806357f276ff146106125780635b5c251f146106255780635db531a1146106385780636352211e1461064057600080fd5b80633f86ea7c116103005780633f86ea7c146105c957806342842e0e146105dc57806349b5e105146105ef5780634d84c6d8146105f75780634f6ccce7146105ff57600080fd5b8063329a8cfa1461059257806336568abe1461059a5780633a98ef39146105ad5780633ab76e9f146105b657600080fd5b80631db5f0d1116103b4578063248a9ca311610383578063248a9ca31461052d5780632f2ff15d146105505780632f745c59146105635780632fb5658514610576578063326a55e01461058a57600080fd5b80631db5f0d1146104df57806321d7f008146104f257806323b872dd146105055780632436329d1461051857600080fd5b8063095ea7b3116103f0578063095ea7b31461049d578063130f6320146104b257806317314d5a146104c557806318160ddd146104cd57600080fd5b806301ffc9a714610422578063024bebe91461044a57806306fdde0314610475578063081812fc1461048a575b600080fd5b610435610430366004613f59565b610953565b60405190151581526020015b60405180910390f35b60185461045d906001600160a01b031681565b6040516001600160a01b039091168152602001610441565b61047d6109b4565b60405161044191906140b9565b61045d610498366004613ef9565b610a46565b6104b06104ab366004613eb0565b610ae0565b005b6104b06104c0366004613ef9565b610bf6565b6104b0610c0d565b6008545b604051908152602001610441565b6104b06104ed366004613f37565b610c18565b600d5461045d906001600160a01b031681565b6104b0610513366004613d61565b610cf1565b6104d160008051602061432683398151915281565b6104d161053b366004613ef9565b6000908152600a602052604090206001015490565b6104b061055e366004613f12565b610d22565b6104d1610571366004613eb0565b610d44565b601b5461043590600160b01b900460ff1681565b6104b0610dda565b6104b0610df4565b6104b06105a8366004613f12565b610efd565b6104d1601e5481565b601b5461045d906001600160a01b031681565b60115461045d906001600160a01b031681565b6104b06105ea366004613d61565b610f1f565b6104b0610f3a565b6104b0610dea565b6104d161060d366004613ef9565b610f42565b6104b0610620366004613ef9565b610fd5565b60125461045d906001600160a01b031681565b6104b0610fde565b61045d61064e366004613ef9565b610fe6565b60195461045d906001600160a01b031681565b601c5461045d906001600160a01b031681565b6104b061105d565b60135461045d906001600160a01b031681565b6104d16106a2366004613cee565b611105565b6104d16106b5366004613ef9565b601f6020526000908152604090205481565b600e5461045d906001600160a01b031681565b60145461045d906001600160a01b031681565b61045d6106fb366004613f37565b61118c565b61043561070e366004613f12565b6111ab565b61047d6111d6565b6104d1600081565b6104b0610731366004613e82565b6111e5565b6104b0610744366004613f37565b6112aa565b6104d160008051602061438683398151915281565b601b5461043590600160a01b900460ff1681565b6104b0610780366004613ef9565b611492565b60155461045d906001600160a01b031681565b6104b06107a6366004613f37565b61158c565b6104d16107b9366004613ef9565b6000908152601f602052604090205490565b6104b06116ff565b6104b06107e1366004613da2565b611707565b600f5461045d906001600160a01b031681565b61047d610807366004613ef9565b611739565b6104d161081a366004613ef9565b611820565b6104d16000805160206143a683398151915281565b6104b0611837565b6104d160008051602061436683398151915281565b6104b061085f366004613f12565b6118be565b60175461045d906001600160a01b031681565b6104b06118c8565b601a5461045d906001600160a01b031681565b600c5461045d906001600160a01b031681565b6104356108b3366004613d28565b6001600160a01b03918216600090815260056020908152604080832093909416825291909152205460ff1690565b6104d160008051602061434683398151915281565b6104b06118f5565b6104b061090c366004613ef9565b6118fd565b6104b0611a79565b60105461045d906001600160a01b031681565b60165461045d906001600160a01b031681565b601b5461043590600160a81b900460ff1681565b60006001600160e01b031982166380ac58cd60e01b148061098457506001600160e01b031982166336372b0760e01b145b8061099f57506001600160e01b03198216635b5e139f60e01b145b806109ae57506109ae82611e0f565b92915050565b6060600080546109c390614214565b80601f01602080910402602001604051908101604052809291908181526020018280546109ef90614214565b8015610a3c5780601f10610a1157610100808354040283529160200191610a3c565b820191906000526020600020905b815481529060010190602001808311610a1f57829003601f168201915b5050505050905090565b6000818152600260205260408120546001600160a01b0316610ac45760405162461bcd60e51b815260206004820152602c60248201527f4552433732313a20617070726f76656420717565727920666f72206e6f6e657860448201526b34b9ba32b73a103a37b5b2b760a11b60648201526084015b60405180910390fd5b506000908152600460205260409020546001600160a01b031690565b6000610aeb82610fe6565b9050806001600160a01b0316836001600160a01b03161415610b595760405162461bcd60e51b815260206004820152602160248201527f4552433732313a20617070726f76616c20746f2063757272656e74206f776e656044820152603960f91b6064820152608401610abb565b336001600160a01b0382161480610b755750610b7581336108b3565b610be75760405162461bcd60e51b815260206004820152603860248201527f4552433732313a20617070726f76652063616c6c6572206973206e6f74206f7760448201527f6e6572206e6f7220617070726f76656420666f7220616c6c00000000000000006064820152608401610abb565b610bf18383611e34565b505050565b610bff81611ea2565b50610c098161201d565b5050565b610c156121a6565b50565b610c30600080516020614386833981519152336111ab565b80610c4e5750610c4e600080516020614346833981519152336111ab565b80610c6c5750610c6c600080516020614326833981519152336111ab565b610cb15760405162461bcd60e51b81526020600482015260166024820152752cb7ba93b932903737ba103a3432903130b4b634b33360511b6044820152606401610abb565b60648110610cbe57600080fd5b6000828152601f6020526040812054606490610cdb90849061419b565b610ce59190614187565b9050610bf183826122ec565b610cfb3382612313565b610d175760405162461bcd60e51b8152600401610abb9061411e565b610bf183838361240a565b610d2c82826125b5565b6000828152600b60205260409020610bf19082611b0e565b6000610d4f83611105565b8210610db15760405162461bcd60e51b815260206004820152602b60248201527f455243373231456e756d657261626c653a206f776e657220696e646578206f7560448201526a74206f6620626f756e647360a81b6064820152608401610abb565b506001600160a01b03919091166000908152600660209081526040808320938352929052205490565b610de26125db565b610dea6128c7565b610df2612b22565b565b610e0c600080516020614386833981519152336111ab565b80610e2a5750610e2a600080516020614346833981519152336111ab565b80610e485750610e48600080516020614326833981519152336111ab565b610e8d5760405162461bcd60e51b81526020600482015260166024820152752cb7ba93b932903737ba103a3432903130b4b634b33360511b6044820152606401610abb565b601b60009054906101000a90046001600160a01b03166001600160a01b031663329a8cfa6040518163ffffffff1660e01b8152600401600060405180830381600087803b158015610edd57600080fd5b505af1158015610ef1573d6000803e3d6000fd5b50505050610df2610fde565b610f078282612b32565b6000828152600b60205260409020610bf19082612bac565b610bf183838360405180602001604052806000815250611707565b610df26125db565b6000610f4d60085490565b8210610fb05760405162461bcd60e51b815260206004820152602c60248201527f455243373231456e756d657261626c653a20676c6f62616c20696e646578206f60448201526b7574206f6620626f756e647360a01b6064820152608401610abb565b60088281548110610fc357610fc36142c0565b90600052602060002001549050919050565b610c0981612bc1565b610df2612e1c565b6000818152600260205260408120546001600160a01b0316806109ae5760405162461bcd60e51b815260206004820152602960248201527f4552433732313a206f776e657220717565727920666f72206e6f6e657869737460448201526832b73a103a37b5b2b760b91b6064820152608401610abb565b601b60009054906101000a90046001600160a01b03166001600160a01b031663762ddb596040518163ffffffff1660e01b815260040160206040518083038186803b1580156110ab57600080fd5b505afa1580156110bf573d6000803e3d6000fd5b505050506040513d601f19601f820116820180604052508101906110e39190613d0b565b601c80546001600160a01b0319166001600160a01b0392909216919091179055565b60006001600160a01b0382166111705760405162461bcd60e51b815260206004820152602a60248201527f4552433732313a2062616c616e636520717565727920666f7220746865207a65604482015269726f206164647265737360b01b6064820152608401610abb565b506001600160a01b031660009081526003602052604090205490565b6000828152600b602052604081206111a49083612f5f565b9392505050565b6000918252600a602090815260408084206001600160a01b0393909316845291905290205460ff1690565b6060600180546109c390614214565b6001600160a01b03821633141561123e5760405162461bcd60e51b815260206004820152601960248201527f4552433732313a20617070726f766520746f2063616c6c6572000000000000006044820152606401610abb565b3360008181526005602090815260408083206001600160a01b03871680855290835292819020805460ff191686151590811790915590519081529192917f17307eab39ab6107e8899845ad3d59bd9653f200f220920489ca2b5937696c31910160405180910390a35050565b336112b482610fe6565b6001600160a01b0316146112c757600080fd5b6000818152601f602052604090205482106112ee576000818152601f602052604090205491505b601e54601c546040516370a0823160e01b8152306004820152600092916001600160a01b0316906370a082319060240160206040518083038186803b15801561133657600080fd5b505afa15801561134a573d6000803e3d6000fd5b505050506040513d601f19601f8201168201806040525081019061136e9190613f93565b611378908561419b565b6113829190614187565b905082601e600082825461139691906141ba565b90915550506000828152601f60205260409020548314156113ce576113ba82612f6b565b6000828152601f6020526040812055611408565b6000828152601f6020526040902054831015611408576000828152601f6020526040812080548592906114029084906141ba565b90915550505b601c5460405163a9059cbb60e01b8152336004820152602481018390526001600160a01b039091169063a9059cbb90604401602060405180830381600087803b15801561145457600080fd5b505af1158015611468573d6000803e3d6000fd5b505050506040513d601f19601f8201168201806040525081019061148c9190613edc565b50505050565b3361149c82610fe6565b6001600160a01b0316146114af57600080fd5b6000818152601f602052604080822054601e54601c5492516370a0823160e01b815230600482015291939290916001600160a01b03909116906370a082319060240160206040518083038186803b15801561150957600080fd5b505afa15801561151d573d6000803e3d6000fd5b505050506040513d601f19601f820116820180604052508101906115419190613f93565b61154b908461419b565b6115559190614187565b6000848152601f60205260408120819055601e8054929350849290919061157d9084906141ba565b90915550611408905083612f6b565b601c546040516370a0823160e01b81523060048201526000916001600160a01b0316906370a082319060240160206040518083038186803b1580156115d057600080fd5b505afa1580156115e4573d6000803e3d6000fd5b505050506040513d601f19601f820116820180604052508101906116089190613f93565b601c546040516323b872dd60e01b8152336004820152306024820152604481018690529192506000916001600160a01b03909116906323b872dd90606401602060405180830381600087803b15801561166057600080fd5b505af1158015611674573d6000803e3d6000fd5b505050506040513d601f19601f820116820180604052508101906116989190613edc565b50601e54156116bd5781601e54856116b0919061419b565b6116ba9190614187565b93505b6000818152601f6020526040812080548692906116db90849061416f565b9250508190555083601e60008282546116f4919061416f565b909155505050505050565b610df26128c7565b6117113383612313565b61172d5760405162461bcd60e51b8152600401610abb9061411e565b61148c84848484613012565b6000818152600260205260409020546060906001600160a01b03166117b85760405162461bcd60e51b815260206004820152602f60248201527f4552433732314d657461646174613a2055524920717565727920666f72206e6f60448201526e3732bc34b9ba32b73a103a37b5b2b760891b6064820152608401610abb565b60006117cf60408051602081019091526000815290565b905060008151116117ef57604051806020016040528060008152506111a4565b806117f984613045565b60405160200161180a929190613fd8565b6040516020818303038152906040529392505050565b6000818152600b602052604081206109ae90613143565b601c546040516370a0823160e01b81523360048201526000916001600160a01b0316906370a082319060240160206040518083038186803b15801561187b57600080fd5b505afa15801561188f573d6000803e3d6000fd5b505050506040513d601f19601f820116820180604052508101906118b39190613f93565b9050610c15816118fd565b610f07828261314d565b60006118d333611105565b116118dd57600080fd5b60006118ea336001610d44565b9050610c1581611492565b610df2613173565b601c546040516370a0823160e01b81523060048201526000916001600160a01b0316906370a082319060240160206040518083038186803b15801561194157600080fd5b505afa158015611955573d6000803e3d6000fd5b505050506040513d601f19601f820116820180604052508101906119799190613f93565b601e54601c546040516323b872dd60e01b81523360048201523060248201526044810186905292935090916000916001600160a01b0316906323b872dd90606401602060405180830381600087803b1580156119d457600080fd5b505af11580156119e8573d6000803e3d6000fd5b505050506040513d601f19601f82011682018060405250810190611a0c9190613edc565b506001611a1833611105565b1015611a4a5750601d54611a2c33826132aa565b6001601d6000828254611a3f919061416f565b90915550611a689050565b6001611a5533611105565b10611a6857611a65336001610d44565b90505b81156116bd57826116b0838661419b565b611a90600080516020614386833981519152612bc1565b50611aa8600080516020614346833981519152612bc1565b50611ac0600080516020614326833981519152612bc1565b50611ad8600080516020614366833981519152612bc1565b50611af06000805160206143a6833981519152612bc1565b50611afb6000612bc1565b50610df2612e1c565b610c0982826132c4565b60006111a4836001600160a01b03841661334a565b601b60009054906101000a90046001600160a01b03166001600160a01b03166321d7f0086040518163ffffffff1660e01b815260040160206040518083038186803b158015611b7157600080fd5b505afa158015611b85573d6000803e3d6000fd5b505050506040513d601f19601f82011682018060405250810190611ba99190613d0b565b600d80546001600160a01b0319166001600160a01b03928316179055601b546040805163762ddb5960e01b81529051919092169163762ddb59916004808301926020929190829003018186803b158015611c0257600080fd5b505afa158015611c16573d6000803e3d6000fd5b505050506040513d601f19601f82011682018060405250810190611c3a9190613d0b565b600e80546001600160a01b0319166001600160a01b03928316179055601b546040805163bfb7dc9960e01b81529051919092169163bfb7dc99916004808301926020929190829003018186803b158015611c9357600080fd5b505afa158015611ca7573d6000803e3d6000fd5b505050506040513d601f19601f82011682018060405250810190611ccb9190613d0b565b600f80546001600160a01b0319166001600160a01b03928316179055601b5460408051633e6111eb60e21b81529051919092169163f98447ac916004808301926020929190829003018186803b158015611d2457600080fd5b505afa158015611d38573d6000803e3d6000fd5b505050506040513d601f19601f82011682018060405250810190611d5c9190613d0b565b601080546001600160a01b0319166001600160a01b03928316179055601b5460408051630fe1ba9f60e21b815290519190921691633f86ea7c916004808301926020929190829003018186803b158015611db557600080fd5b505afa158015611dc9573d6000803e3d6000fd5b505050506040513d601f19601f82011682018060405250810190611ded9190613d0b565b601180546001600160a01b0319166001600160a01b0392909216919091179055565b60006001600160e01b03198216635a05180f60e01b14806109ae57506109ae82613399565b600081815260046020526040902080546001600160a01b0319166001600160a01b0384169081179091558190611e6982610fe6565b6001600160a01b03167f8c5be1e5ebec7d5bd14f71427d1e84f3dd0314c0f7b2291e5b200ac8c7c3b92560405160405180910390a45050565b60405163ca15c87360e01b8152600481018290526000908190309063ca15c8739060240160206040518083038186803b158015611ede57600080fd5b505afa158015611ef2573d6000803e3d6000fd5b505050506040513d601f19601f82011682018060405250810190611f169190613f93565b905060005b8181101561201357604051632404341f60e21b815260048101859052602481018290526000903090639010d07c9060440160206040518083038186803b158015611f6457600080fd5b505afa158015611f78573d6000803e3d6000fd5b505050506040513d601f19601f82011682018060405250810190611f9c9190613d0b565b60405163d547741f60e01b8152600481018790526001600160a01b0382166024820152909150309063d547741f90604401600060405180830381600087803b158015611fe757600080fd5b505af1158015611ffb573d6000803e3d6000fd5b5050505050808061200b9061424f565b915050611f1b565b5060019392505050565b601b5460405163ca15c87360e01b81526004810183905260009182916001600160a01b039091169063ca15c8739060240160206040518083038186803b15801561206657600080fd5b505afa15801561207a573d6000803e3d6000fd5b505050506040513d601f19601f8201168201806040525081019061209e9190613f93565b905060005b8181101561201357601b54604051632404341f60e21b815260048101869052602481018390526000916001600160a01b031690639010d07c9060440160206040518083038186803b1580156120f757600080fd5b505afa15801561210b573d6000803e3d6000fd5b505050506040513d601f19601f8201168201806040525081019061212f9190613d0b565b604051632f2ff15d60e01b8152600481018790526001600160a01b03821660248201529091503090632f2ff15d90604401600060405180830381600087803b15801561217a57600080fd5b505af115801561218e573d6000803e3d6000fd5b5050505050808061219e9061424f565b9150506120a3565b60006121bf600080516020614386833981519152611ea2565b506121d760008051602061438683398151915261201d565b6121e057600080fd5b6121f7600080516020614346833981519152611ea2565b5061220f60008051602061434683398151915261201d565b61221857600080fd5b61222f600080516020614326833981519152611ea2565b5061224760008051602061432683398151915261201d565b61225057600080fd5b612267600080516020614366833981519152611ea2565b5061227f60008051602061436683398151915261201d565b61228857600080fd5b61229f6000805160206143a6833981519152611ea2565b506122b76000805160206143a683398151915261201d565b6122c057600080fd5b6122ca6000611ea2565b506122d5600061201d565b6122de57600080fd5b6122e6612e1c565b50600190565b6000828152601f60205260408120805483929061230a9084906141ba565b90915550505050565b6000818152600260205260408120546001600160a01b031661238c5760405162461bcd60e51b815260206004820152602c60248201527f4552433732313a206f70657261746f7220717565727920666f72206e6f6e657860448201526b34b9ba32b73a103a37b5b2b760a11b6064820152608401610abb565b600061239783610fe6565b9050806001600160a01b0316846001600160a01b031614806123d25750836001600160a01b03166123c784610a46565b6001600160a01b0316145b8061240257506001600160a01b0380821660009081526005602090815260408083209388168352929052205460ff165b949350505050565b826001600160a01b031661241d82610fe6565b6001600160a01b0316146124855760405162461bcd60e51b815260206004820152602960248201527f4552433732313a207472616e73666572206f6620746f6b656e2074686174206960448201526839903737ba1037bbb760b91b6064820152608401610abb565b6001600160a01b0382166124e75760405162461bcd60e51b8152602060048201526024808201527f4552433732313a207472616e7366657220746f20746865207a65726f206164646044820152637265737360e01b6064820152608401610abb565b6124f28383836133be565b6124fd600082611e34565b6001600160a01b03831660009081526003602052604081208054600192906125269084906141ba565b90915550506001600160a01b038216600090815260036020526040812080546001929061255490849061416f565b909155505060008181526002602052604080822080546001600160a01b0319166001600160a01b0386811691821790925591518493918716917fddf252ad1be2c89b69c2b068fc378daa952ba7f163c4a11628f55a4df523b3ef91a4505050565b6000828152600a60205260409020600101546125d181336133c9565b610bf183836132c4565b601b60009054906101000a90046001600160a01b03166001600160a01b0316637dad1ad56040518163ffffffff1660e01b815260040160206040518083038186803b15801561262957600080fd5b505afa15801561263d573d6000803e3d6000fd5b505050506040513d601f19601f820116820180604052508101906126619190613d0b565b601480546001600160a01b0319166001600160a01b03928316179055601b546040805163a99b273560e01b81529051919092169163a99b2735916004808301926020929190829003018186803b1580156126ba57600080fd5b505afa1580156126ce573d6000803e3d6000fd5b505050506040513d601f19601f820116820180604052508101906126f29190613d0b565b601580546001600160a01b0319166001600160a01b03928316179055601b5460408051637ef7fe1960e11b81529051919092169163fdeffc32916004808301926020929190829003018186803b15801561274b57600080fd5b505afa15801561275f573d6000803e3d6000fd5b505050506040513d601f19601f820116820180604052508101906127839190613d0b565b601680546001600160a01b0319166001600160a01b03928316179055601b5460408051635b5c251f60e01b815290519190921691635b5c251f916004808301926020929190829003018186803b1580156127dc57600080fd5b505afa1580156127f0573d6000803e3d6000fd5b505050506040513d601f19601f820116820180604052508101906128149190613d0b565b601280546001600160a01b0319166001600160a01b03928316179055601b5460408051636b58477560e01b815290519190921691636b584775916004808301926020929190829003018186803b15801561286d57600080fd5b505afa158015612881573d6000803e3d6000fd5b505050506040513d601f19601f820116820180604052508101906128a59190613d0b565b601380546001600160a01b0319166001600160a01b0392909216919091179055565b601b60009054906101000a90046001600160a01b03166001600160a01b031663dadf56ac6040518163ffffffff1660e01b815260040160206040518083038186803b15801561291557600080fd5b505afa158015612929573d6000803e3d6000fd5b505050506040513d601f19601f8201168201806040525081019061294d9190613d0b565b601780546001600160a01b0319166001600160a01b03928316179055601b546040805163024bebe960e01b81529051919092169163024bebe9916004808301926020929190829003018186803b1580156129a657600080fd5b505afa1580156129ba573d6000803e3d6000fd5b505050506040513d601f19601f820116820180604052508101906129de9190613d0b565b601880546001600160a01b0319166001600160a01b03928316179055601b546040805163320a28f960e11b81529051919092169163641451f2916004808301926020929190829003018186803b158015612a3757600080fd5b505afa158015612a4b573d6000803e3d6000fd5b505050506040513d601f19601f82011682018060405250810190612a6f9190613d0b565b601980546001600160a01b0319166001600160a01b03928316179055601b5460408051637310bf1d60e11b81529051919092169163e6217e3a916004808301926020929190829003018186803b158015612ac857600080fd5b505afa158015612adc573d6000803e3d6000fd5b505050506040513d601f19601f82011682018060405250810190612b009190613d0b565b601a80546001600160a01b0319166001600160a01b0392909216919091179055565b612b2a61105d565b610df2611b23565b6001600160a01b0381163314612ba25760405162461bcd60e51b815260206004820152602f60248201527f416363657373436f6e74726f6c3a2063616e206f6e6c792072656e6f756e636560448201526e103937b632b9903337b91039b2b63360891b6064820152608401610abb565b610c09828261342d565b60006111a4836001600160a01b038416613494565b601b5460405163ca15c87360e01b81526004810183905260009182916001600160a01b039091169063ca15c8739060240160206040518083038186803b158015612c0a57600080fd5b505afa158015612c1e573d6000803e3d6000fd5b505050506040513d601f19601f82011682018060405250810190612c429190613f93565b60405163ca15c87360e01b815260048101859052909150600090309063ca15c8739060240160206040518083038186803b158015612c7f57600080fd5b505afa158015612c93573d6000803e3d6000fd5b505050506040513d601f19601f82011682018060405250810190612cb79190613f93565b90506000612cc582846141ba565b905060008111612d0a5760405162461bcd60e51b815260206004820152601060248201526f4e6f7468696e6720746f2073796e632160801b6044820152606401610abb565b60005b81811015612e1057601b54604051632404341f60e21b815260048101889052602481018390526000916001600160a01b031690639010d07c9060440160206040518083038186803b158015612d6157600080fd5b505afa158015612d75573d6000803e3d6000fd5b505050506040513d601f19601f82011682018060405250810190612d999190613d0b565b604051632f2ff15d60e01b8152600481018990526001600160a01b03821660248201529091503090632f2ff15d90604401600060405180830381600087803b158015612de457600080fd5b505af1158015612df8573d6000803e3d6000fd5b50505050508080612e089061424f565b915050612d0d565b50600195945050505050565b601b60009054906101000a90046001600160a01b03166001600160a01b031663ff7e88ec6040518163ffffffff1660e01b815260040160206040518083038186803b158015612e6a57600080fd5b505afa158015612e7e573d6000803e3d6000fd5b505050506040513d601f19601f82011682018060405250810190612ea29190613edc565b601b60156101000a81548160ff021916908315150217905550601b60009054906101000a90046001600160a01b03166001600160a01b0316632fb565856040518163ffffffff1660e01b815260040160206040518083038186803b158015612f0957600080fd5b505afa158015612f1d573d6000803e3d6000fd5b505050506040513d601f19601f82011682018060405250810190612f419190613edc565b601b8054911515600160b01b0260ff60b01b19909216919091179055565b60006111a48383613581565b6000612f7682610fe6565b9050612f84816000846133be565b612f8f600083611e34565b6001600160a01b0381166000908152600360205260408120805460019290612fb89084906141ba565b909155505060008281526002602052604080822080546001600160a01b0319169055518391906001600160a01b038416907fddf252ad1be2c89b69c2b068fc378daa952ba7f163c4a11628f55a4df523b3ef908390a45050565b61301d84848461240a565b61302984848484613607565b61148c5760405162461bcd60e51b8152600401610abb906140cc565b6060816130695750506040805180820190915260018152600360fc1b602082015290565b8160005b8115613093578061307d8161424f565b915061308c9050600a83614187565b915061306d565b60008167ffffffffffffffff8111156130ae576130ae6142d6565b6040519080825280601f01601f1916602001820160405280156130d8576020820181803683370190505b5090505b8415612402576130ed6001836141ba565b91506130fa600a8661426a565b61310590603061416f565b60f81b81838151811061311a5761311a6142c0565b60200101906001600160f81b031916908160001a90535061313c600a86614187565b94506130dc565b60006109ae825490565b6000828152600a602052604090206001015461316981336133c9565b610bf1838361342d565b601b60009054906101000a90046001600160a01b03166001600160a01b031663a44b93256040518163ffffffff1660e01b815260040160206040518083038186803b1580156131c157600080fd5b505afa1580156131d5573d6000803e3d6000fd5b505050506040513d601f19601f820116820180604052508101906131f99190613edc565b61320257600080fd5b601b60009054906101000a90046001600160a01b03166001600160a01b031663ac7cfac36040518163ffffffff1660e01b815260040160206040518083038186803b15801561325057600080fd5b505afa158015613264573d6000803e3d6000fd5b505050506040513d601f19601f820116820180604052508101906132889190613d0b565b600c80546001600160a01b0319166001600160a01b0392909216919091179055565b610c09828260405180602001604052806000815250613714565b6132ce82826111ab565b610c09576000828152600a602090815260408083206001600160a01b03851684529091529020805460ff191660011790556133063390565b6001600160a01b0316816001600160a01b0316837f2f8788117e7eff1d82e926ec794901d17c78024a50270940304540a733656f0d60405160405180910390a45050565b6000818152600183016020526040812054613391575081546001818101845560008481526020808220909301849055845484825282860190935260409020919091556109ae565b5060006109ae565b60006001600160e01b03198216637965db0b60e01b14806109ae57506109ae82613747565b610bf183838361376c565b6133d382826111ab565b610c09576133eb816001600160a01b03166014613824565b6133f6836020613824565b604051602001613407929190614007565b60408051601f198184030181529082905262461bcd60e51b8252610abb916004016140b9565b61343782826111ab565b15610c09576000828152600a602090815260408083206001600160a01b0385168085529252808320805460ff1916905551339285917ff6391f5c32d9c69d2a47ea670b442974b53935d1edc7fd64eb21e047a839171b9190a45050565b600081815260018301602052604081205480156135775760006134b86001836141ba565b85549091506000906134cc906001906141ba565b905060008660000182815481106134e5576134e56142c0565b9060005260206000200154905080876000018481548110613508576135086142c0565b60009182526020808320909101929092558281526001890190915260409020849055865487908061353b5761353b6142aa565b600190038181906000526020600020016000905590558660010160008781526020019081526020016000206000905560019450505050506109ae565b60009150506109ae565b815460009082106135df5760405162461bcd60e51b815260206004820152602260248201527f456e756d657261626c655365743a20696e646578206f7574206f6620626f756e604482015261647360f01b6064820152608401610abb565b8260000182815481106135f4576135f46142c0565b9060005260206000200154905092915050565b60006001600160a01b0384163b1561370957604051630a85bd0160e11b81526001600160a01b0385169063150b7a029061364b90339089908890889060040161407c565b602060405180830381600087803b15801561366557600080fd5b505af1925050508015613695575060408051601f3d908101601f1916820190925261369291810190613f76565b60015b6136ef573d8080156136c3576040519150601f19603f3d011682016040523d82523d6000602084013e6136c8565b606091505b5080516136e75760405162461bcd60e51b8152600401610abb906140cc565b805181602001fd5b6001600160e01b031916630a85bd0160e11b149050612402565b506001949350505050565b61371e83836139c0565b61372b6000848484613607565b610bf15760405162461bcd60e51b8152600401610abb906140cc565b60006001600160e01b0319821663780e9d6360e01b14806109ae57506109ae82613b0e565b6001600160a01b0383166137c7576137c281600880546000838152600960205260408120829055600182018355919091527ff3f7a9fe364faab93b216da50a3214154f22a0a2b415b23a84c8169e8b636ee30155565b6137ea565b816001600160a01b0316836001600160a01b0316146137ea576137ea8382613b5e565b6001600160a01b03821661380157610bf181613bfb565b826001600160a01b0316826001600160a01b031614610bf157610bf18282613caa565b6060600061383383600261419b565b61383e90600261416f565b67ffffffffffffffff811115613856576138566142d6565b6040519080825280601f01601f191660200182016040528015613880576020820181803683370190505b509050600360fc1b8160008151811061389b5761389b6142c0565b60200101906001600160f81b031916908160001a905350600f60fb1b816001815181106138ca576138ca6142c0565b60200101906001600160f81b031916908160001a90535060006138ee84600261419b565b6138f990600161416f565b90505b6001811115613971576f181899199a1a9b1b9c1cb0b131b232b360811b85600f166010811061392d5761392d6142c0565b1a60f81b828281518110613943576139436142c0565b60200101906001600160f81b031916908160001a90535060049490941c9361396a816141fd565b90506138fc565b5083156111a45760405162461bcd60e51b815260206004820181905260248201527f537472696e67733a20686578206c656e67746820696e73756666696369656e746044820152606401610abb565b6001600160a01b038216613a165760405162461bcd60e51b815260206004820181905260248201527f4552433732313a206d696e7420746f20746865207a65726f20616464726573736044820152606401610abb565b6000818152600260205260409020546001600160a01b031615613a7b5760405162461bcd60e51b815260206004820152601c60248201527f4552433732313a20746f6b656e20616c7265616479206d696e746564000000006044820152606401610abb565b613a87600083836133be565b6001600160a01b0382166000908152600360205260408120805460019290613ab090849061416f565b909155505060008181526002602052604080822080546001600160a01b0319166001600160a01b03861690811790915590518392907fddf252ad1be2c89b69c2b068fc378daa952ba7f163c4a11628f55a4df523b3ef908290a45050565b60006001600160e01b031982166380ac58cd60e01b1480613b3f57506001600160e01b03198216635b5e139f60e01b145b806109ae57506301ffc9a760e01b6001600160e01b03198316146109ae565b60006001613b6b84611105565b613b7591906141ba565b600083815260076020526040902054909150808214613bc8576001600160a01b03841660009081526006602090815260408083208584528252808320548484528184208190558352600790915290208190555b5060009182526007602090815260408084208490556001600160a01b039094168352600681528383209183525290812055565b600854600090613c0d906001906141ba565b60008381526009602052604081205460088054939450909284908110613c3557613c356142c0565b906000526020600020015490508060088381548110613c5657613c566142c0565b6000918252602080832090910192909255828152600990915260408082208490558582528120556008805480613c8e57613c8e6142aa565b6001900381819060005260206000200160009055905550505050565b6000613cb583611105565b6001600160a01b039093166000908152600660209081526040808320868452825280832085905593825260079052919091209190915550565b600060208284031215613d0057600080fd5b81356111a4816142ec565b600060208284031215613d1d57600080fd5b81516111a4816142ec565b60008060408385031215613d3b57600080fd5b8235613d46816142ec565b91506020830135613d56816142ec565b809150509250929050565b600080600060608486031215613d7657600080fd5b8335613d81816142ec565b92506020840135613d91816142ec565b929592945050506040919091013590565b60008060008060808587031215613db857600080fd5b8435613dc3816142ec565b93506020850135613dd3816142ec565b925060408501359150606085013567ffffffffffffffff80821115613df757600080fd5b818701915087601f830112613e0b57600080fd5b813581811115613e1d57613e1d6142d6565b604051601f8201601f19908116603f01168101908382118183101715613e4557613e456142d6565b816040528281528a6020848701011115613e5e57600080fd5b82602086016020830137600060208483010152809550505050505092959194509250565b60008060408385031215613e9557600080fd5b8235613ea0816142ec565b91506020830135613d5681614301565b60008060408385031215613ec357600080fd5b8235613ece816142ec565b946020939093013593505050565b600060208284031215613eee57600080fd5b81516111a481614301565b600060208284031215613f0b57600080fd5b5035919050565b60008060408385031215613f2557600080fd5b823591506020830135613d56816142ec565b60008060408385031215613f4a57600080fd5b50508035926020909101359150565b600060208284031215613f6b57600080fd5b81356111a48161430f565b600060208284031215613f8857600080fd5b81516111a48161430f565b600060208284031215613fa557600080fd5b5051919050565b60008151808452613fc48160208601602086016141d1565b601f01601f19169290920160200192915050565b60008351613fea8184602088016141d1565b835190830190613ffe8183602088016141d1565b01949350505050565b7f416363657373436f6e74726f6c3a206163636f756e742000000000000000000081526000835161403f8160178501602088016141d1565b7001034b99036b4b9b9b4b733903937b6329607d1b60179184019182015283516140708160288401602088016141d1565b01602801949350505050565b6001600160a01b03858116825284166020820152604081018390526080606082018190526000906140af90830184613fac565b9695505050505050565b6020815260006111a46020830184613fac565b60208082526032908201527f4552433732313a207472616e7366657220746f206e6f6e20455243373231526560408201527131b2b4bb32b91034b6b83632b6b2b73a32b960711b606082015260800190565b60208082526031908201527f4552433732313a207472616e736665722063616c6c6572206973206e6f74206f6040820152701ddb995c881b9bdc88185c1c1c9bdd9959607a1b606082015260800190565b600082198211156141825761418261427e565b500190565b60008261419657614196614294565b500490565b60008160001904831182151516156141b5576141b561427e565b500290565b6000828210156141cc576141cc61427e565b500390565b60005b838110156141ec5781810151838201526020016141d4565b8381111561148c5750506000910152565b60008161420c5761420c61427e565b506000190190565b600181811c9082168061422857607f821691505b6020821081141561424957634e487b7160e01b600052602260045260246000fd5b50919050565b60006000198214156142635761426361427e565b5060010190565b60008261427957614279614294565b500690565b634e487b7160e01b600052601160045260246000fd5b634e487b7160e01b600052601260045260246000fd5b634e487b7160e01b600052603160045260246000fd5b634e487b7160e01b600052603260045260246000fd5b634e487b7160e01b600052604160045260246000fd5b6001600160a01b0381168114610c1557600080fd5b8015158114610c1557600080fd5b6001600160e01b031981168114610c1557600080fdfefa8e4989e1d689f7bc5c4b25b87efb51fecdecb19ba62847e29c759e12a89acd048bc71fa1cb2c119c339cf9cf00a97996a19a9d991ce5fe049f2fa5459e7990f0f4b159a6e2a4815eb3ca3df080bfa70c9270662c59bcaa4479a456220183e60538d24a8b7882d7b2e36af243d4af61c23e86e3daa6cb8c887b53220b2f57207c9d7f6f02908185bffb3f7fc9afb29fd7bf93675af8fd4b655ee05c2cee1e0ea2646970667358221220c507bd8f8ee9d68f48ad1e647b866b690e9117adc12989a0899309a9326b4f3564736f6c63430008060033",
  "immutableReferences": {},
  "source": "// SPDX-License-Identifier: MIT\n// Inspired by SushiSwap SushiBar\n\npragma solidity ^0.8.0;\n\nimport \"../src/SmartConsensusMachine.sol\";\nimport \"@openzeppelin/contracts/token/ERC721/extensions/ERC721Enumerable.sol\";\nimport \"@openzeppelin/contracts/token/ERC721/ERC721.sol\";\nimport \"@openzeppelin/contracts/token/ERC20/ERC20.sol\";\n\ncontract JuryPool is ERC721, ERC721Enumerable, SmartConsensusMachine {\n\n    ERC20 public redPens;\n    uint private tokenIdGenerator = 1;\n    uint256 public totalShares = 0;\n\n    constructor(address _AddressManagerAddress) SmartConsensusMachine(_AddressManagerAddress) ERC721(\"Jurry Hats\", \"Hat\")  {\n\n\n    }\n\n    mapping (uint => uint256) public JurrorStake;\n\n    \n    function updateStakingToken() public {\n        redPens = ERC20(addressManager.RedPenTokenAddress());\n    }\n\n    function getHatBalance(uint _tokenId) public returns (uint256 hatBalance) {\n\n        // hatBalance = JurrorStake[_tokenId];\n        return JurrorStake[_tokenId];\n    }\n    \n    function stakePens() public {\n        uint256 amountToStake = redPens.balanceOf(msg.sender);\n        stakePens(amountToStake);\n    }\n\n    function stakePens(uint256 _amount) public {\n \n        uint256 totalPensInPool = redPens.balanceOf(address(this));\n        uint256 totalSharesCirculating = totalShares;\n        uint _tokenId;\n        redPens.transferFrom(msg.sender, address(this), _amount);\n\n\n        if ( balanceOf(msg.sender) < 1) {\n            _tokenId = tokenIdGenerator;\n            _safeMint(msg.sender, _tokenId);\n            tokenIdGenerator += 1;\n        } else if (balanceOf(msg.sender) >= 1) {\n            _tokenId = tokenOfOwnerByIndex(msg.sender, 1);\n        }   \n\n        if (totalSharesCirculating > 0) {\n            _amount = (_amount * totalSharesCirculating / totalPensInPool);\n        }\n\n        JurrorStake[_tokenId] += _amount; \n        totalShares += _amount;\n\n    }\n\n    // Only use this one if you have multiple staked positions that you are managing manually.\n    function stakePensAdvanced(uint256 _amount, uint tokenIdToStakeWith) public {\n \n        uint256 totalPensInPool = redPens.balanceOf(address(this));\n        uint _tokenId;\n        redPens.transferFrom(msg.sender, address(this), _amount);\n\n        if (totalShares > 0) {\n            _amount = (_amount * totalShares / totalPensInPool);\n        }\n\n        JurrorStake[_tokenId] += _amount; \n        totalShares += _amount;\n\n    }\n\n\n    function returnHats() public {\n        require(balanceOf(msg.sender) > 0);\n         uint256 _tokenId = tokenOfOwnerByIndex(msg.sender, 1);\n         returnHats(_tokenId);\n    }\n\n    function returnHats(uint256 _tokenId) public {\n\n        require (ownerOf(_tokenId) == msg.sender);\n        uint256 _amount = JurrorStake[_tokenId];\n        uint256 pensToDistrubute = (_amount * (redPens.balanceOf(address(this))) / totalShares);\n        JurrorStake[_tokenId] = 0;\n        totalShares -= _amount;\n        _burn(_tokenId);\n        redPens.transfer(msg.sender, pensToDistrubute);\n    \n    }\n\n    function returnHatsAdvanced(uint256 _amount, uint256 _tokenId) public {\n\n        require (ownerOf(_tokenId) == msg.sender);\n        if (JurrorStake[_tokenId] <= _amount) {\n            _amount = JurrorStake[_tokenId];\n        }\n        uint256 pensToDistrubute = (_amount * (redPens.balanceOf(address(this))) / totalShares);\n        totalShares -= _amount;\n\n        if (JurrorStake[_tokenId] == _amount) {\n            _burn(_tokenId);\n            JurrorStake[_tokenId] = 0;\n\n        } else if (JurrorStake[_tokenId] > _amount) {\n            JurrorStake[_tokenId] -= _amount;\n        }\n        \n        redPens.transfer(msg.sender, pensToDistrubute);\n    \n    }\n\n    function slashToken(uint _tokenIdToSlash, uint _percentToSlashInWholeNumber) public BAILIFF {\n\n        require(_percentToSlashInWholeNumber < 100);\n        uint256 amountToSlash = JurrorStake[_tokenIdToSlash] * _percentToSlashInWholeNumber / 100;\n        _slash(_tokenIdToSlash, amountToSlash);\n\n    }\n\n    function _slash(uint _tokenIdToSlash, uint _amountToSlash) internal {\n        JurrorStake[_tokenIdToSlash] -= _amountToSlash;\n    }\n\n    function _updateTokenAddresses() internal override {\n\n        updateStakingToken();\n        super._updateTokenAddresses();\n        \n    }\n\n    function _beforeTokenTransfer(address from, address to, uint256 amount)\n        internal\n        override (ERC721, ERC721Enumerable)\n    {\n        super._beforeTokenTransfer(from, to, amount);\n    }\n\n    function supportsInterface(bytes4 interfaceId) public view virtual override (AccessControlEnumerable, ERC721, ERC721Enumerable) returns (bool) {\n        return\n            interfaceId == type(IERC721).interfaceId ||\n            interfaceId == type(IERC20).interfaceId ||\n            interfaceId == type(IERC721Metadata).interfaceId ||\n            super.supportsInterface(interfaceId);\n    }\n\n}",
  "sourcePath": "/home/n/Desktop/PinkSlips_FrontEnd_REFORMAT/contracts/juryAndAppeals/JuryPool.sol",
  "compiler": {
    "name": "solc",
    "version": "0.8.6+commit.11564f7e.Emscripten.clang"
  },
  "schemaVersion": "3.4.1",
  "updatedAt": "2021-08-06T05:30:53.065Z",
  "networkType": "ethereum",
  "devdoc": {
    "kind": "dev",
    "methods": {
      "approve(address,uint256)": {
        "details": "See {IERC721-approve}."
      },
      "balanceOf(address)": {
        "details": "See {IERC721-balanceOf}."
      },
      "getApproved(uint256)": {
        "details": "See {IERC721-getApproved}."
      },
      "getRoleAdmin(bytes32)": {
        "details": "Returns the admin role that controls `role`. See {grantRole} and {revokeRole}. To change a role's admin, use {_setRoleAdmin}."
      },
      "getRoleMember(bytes32,uint256)": {
        "details": "Returns one of the accounts that have `role`. `index` must be a value between 0 and {getRoleMemberCount}, non-inclusive. Role bearers are not sorted in any particular way, and their ordering may change at any point. WARNING: When using {getRoleMember} and {getRoleMemberCount}, make sure you perform all queries on the same block. See the following https://forum.openzeppelin.com/t/iterating-over-elements-on-enumerableset-in-openzeppelin-contracts/2296[forum post] for more information."
      },
      "getRoleMemberCount(bytes32)": {
        "details": "Returns the number of accounts that have `role`. Can be used together with {getRoleMember} to enumerate all bearers of a role."
      },
      "grantRole(bytes32,address)": {
        "details": "Overload {grantRole} to track enumerable memberships"
      },
      "hasRole(bytes32,address)": {
        "details": "Returns `true` if `account` has been granted `role`."
      },
      "isApprovedForAll(address,address)": {
        "details": "See {IERC721-isApprovedForAll}."
      },
      "name()": {
        "details": "See {IERC721Metadata-name}."
      },
      "ownerOf(uint256)": {
        "details": "See {IERC721-ownerOf}."
      },
      "renounceRole(bytes32,address)": {
        "details": "Overload {renounceRole} to track enumerable memberships"
      },
      "revokeRole(bytes32,address)": {
        "details": "Overload {revokeRole} to track enumerable memberships"
      },
      "safeTransferFrom(address,address,uint256)": {
        "details": "See {IERC721-safeTransferFrom}."
      },
      "safeTransferFrom(address,address,uint256,bytes)": {
        "details": "See {IERC721-safeTransferFrom}."
      },
      "setApprovalForAll(address,bool)": {
        "details": "See {IERC721-setApprovalForAll}."
      },
      "symbol()": {
        "details": "See {IERC721Metadata-symbol}."
      },
      "tokenByIndex(uint256)": {
        "details": "See {IERC721Enumerable-tokenByIndex}."
      },
      "tokenOfOwnerByIndex(address,uint256)": {
        "details": "See {IERC721Enumerable-tokenOfOwnerByIndex}."
      },
      "tokenURI(uint256)": {
        "details": "See {IERC721Metadata-tokenURI}."
      },
      "totalSupply()": {
        "details": "See {IERC721Enumerable-totalSupply}."
      },
      "transferFrom(address,address,uint256)": {
        "details": "See {IERC721-transferFrom}."
      }
    },
    "version": 1
  },
  "userdoc": {
    "kind": "user",
    "methods": {},
    "version": 1
  }
}