{
  "contractName": "JuryPool",
  "abi": [
    {
      "inputs": [
        {
          "internalType": "address",
          "name": "_AddressManagerAddress",
          "type": "address"
        }
      ],
      "stateMutability": "nonpayable",
      "type": "constructor"
    },
    {
      "anonymous": false,
      "inputs": [
        {
          "indexed": true,
          "internalType": "address",
          "name": "owner",
          "type": "address"
        },
        {
          "indexed": true,
          "internalType": "address",
          "name": "approved",
          "type": "address"
        },
        {
          "indexed": true,
          "internalType": "uint256",
          "name": "tokenId",
          "type": "uint256"
        }
      ],
      "name": "Approval",
      "type": "event"
    },
    {
      "anonymous": false,
      "inputs": [
        {
          "indexed": true,
          "internalType": "address",
          "name": "owner",
          "type": "address"
        },
        {
          "indexed": true,
          "internalType": "address",
          "name": "operator",
          "type": "address"
        },
        {
          "indexed": false,
          "internalType": "bool",
          "name": "approved",
          "type": "bool"
        }
      ],
      "name": "ApprovalForAll",
      "type": "event"
    },
    {
      "anonymous": false,
      "inputs": [
        {
          "indexed": true,
          "internalType": "bytes32",
          "name": "role",
          "type": "bytes32"
        },
        {
          "indexed": true,
          "internalType": "bytes32",
          "name": "previousAdminRole",
          "type": "bytes32"
        },
        {
          "indexed": true,
          "internalType": "bytes32",
          "name": "newAdminRole",
          "type": "bytes32"
        }
      ],
      "name": "RoleAdminChanged",
      "type": "event"
    },
    {
      "anonymous": false,
      "inputs": [
        {
          "indexed": true,
          "internalType": "bytes32",
          "name": "role",
          "type": "bytes32"
        },
        {
          "indexed": true,
          "internalType": "address",
          "name": "account",
          "type": "address"
        },
        {
          "indexed": true,
          "internalType": "address",
          "name": "sender",
          "type": "address"
        }
      ],
      "name": "RoleGranted",
      "type": "event"
    },
    {
      "anonymous": false,
      "inputs": [
        {
          "indexed": true,
          "internalType": "bytes32",
          "name": "role",
          "type": "bytes32"
        },
        {
          "indexed": true,
          "internalType": "address",
          "name": "account",
          "type": "address"
        },
        {
          "indexed": true,
          "internalType": "address",
          "name": "sender",
          "type": "address"
        }
      ],
      "name": "RoleRevoked",
      "type": "event"
    },
    {
      "anonymous": false,
      "inputs": [
        {
          "indexed": true,
          "internalType": "address",
          "name": "from",
          "type": "address"
        },
        {
          "indexed": true,
          "internalType": "address",
          "name": "to",
          "type": "address"
        },
        {
          "indexed": true,
          "internalType": "uint256",
          "name": "tokenId",
          "type": "uint256"
        }
      ],
      "name": "Transfer",
      "type": "event"
    },
    {
      "inputs": [],
      "name": "AddressManagerAddress",
      "outputs": [
        {
          "internalType": "address",
          "name": "",
          "type": "address"
        }
      ],
      "stateMutability": "view",
      "type": "function",
      "constant": true
    },
    {
      "inputs": [],
      "name": "ChadBadgeAddress",
      "outputs": [
        {
          "internalType": "address",
          "name": "",
          "type": "address"
        }
      ],
      "stateMutability": "view",
      "type": "function",
      "constant": true
    },
    {
      "inputs": [],
      "name": "ColoredIDAddress",
      "outputs": [
        {
          "internalType": "address",
          "name": "",
          "type": "address"
        }
      ],
      "stateMutability": "view",
      "type": "function",
      "constant": true
    },
    {
      "inputs": [],
      "name": "CourtClerk",
      "outputs": [
        {
          "internalType": "address",
          "name": "",
          "type": "address"
        }
      ],
      "stateMutability": "view",
      "type": "function",
      "constant": true
    },
    {
      "inputs": [],
      "name": "DEFAULT_ADMIN_ROLE",
      "outputs": [
        {
          "internalType": "bytes32",
          "name": "",
          "type": "bytes32"
        }
      ],
      "stateMutability": "view",
      "type": "function",
      "constant": true
    },
    {
      "inputs": [],
      "name": "GAVELS_BAILIFF",
      "outputs": [
        {
          "internalType": "bytes32",
          "name": "",
          "type": "bytes32"
        }
      ],
      "stateMutability": "view",
      "type": "function",
      "constant": true
    },
    {
      "inputs": [],
      "name": "GavelDAOAgent",
      "outputs": [
        {
          "internalType": "address",
          "name": "",
          "type": "address"
        }
      ],
      "stateMutability": "view",
      "type": "function",
      "constant": true
    },
    {
      "inputs": [],
      "name": "GavelTokenAddress",
      "outputs": [
        {
          "internalType": "address",
          "name": "",
          "type": "address"
        }
      ],
      "stateMutability": "view",
      "type": "function",
      "constant": true
    },
    {
      "inputs": [],
      "name": "GavelVote",
      "outputs": [
        {
          "internalType": "bool",
          "name": "",
          "type": "bool"
        }
      ],
      "stateMutability": "view",
      "type": "function",
      "constant": true
    },
    {
      "inputs": [],
      "name": "GoldStarAddress",
      "outputs": [
        {
          "internalType": "address",
          "name": "",
          "type": "address"
        }
      ],
      "stateMutability": "view",
      "type": "function",
      "constant": true
    },
    {
      "inputs": [],
      "name": "JERK_ROLE",
      "outputs": [
        {
          "internalType": "bytes32",
          "name": "",
          "type": "bytes32"
        }
      ],
      "stateMutability": "view",
      "type": "function",
      "constant": true
    },
    {
      "inputs": [],
      "name": "JURY_BAILIFF",
      "outputs": [
        {
          "internalType": "bytes32",
          "name": "",
          "type": "bytes32"
        }
      ],
      "stateMutability": "view",
      "type": "function",
      "constant": true
    },
    {
      "inputs": [
        {
          "internalType": "uint256",
          "name": "",
          "type": "uint256"
        }
      ],
      "name": "JurrorStake",
      "outputs": [
        {
          "internalType": "uint256",
          "name": "",
          "type": "uint256"
        }
      ],
      "stateMutability": "view",
      "type": "function",
      "constant": true
    },
    {
      "inputs": [],
      "name": "JuryDAOAgent",
      "outputs": [
        {
          "internalType": "address",
          "name": "",
          "type": "address"
        }
      ],
      "stateMutability": "view",
      "type": "function",
      "constant": true
    },
    {
      "inputs": [],
      "name": "JuryPoolAddress",
      "outputs": [
        {
          "internalType": "address",
          "name": "",
          "type": "address"
        }
      ],
      "stateMutability": "view",
      "type": "function",
      "constant": true
    },
    {
      "inputs": [],
      "name": "JuryVote",
      "outputs": [
        {
          "internalType": "bool",
          "name": "",
          "type": "bool"
        }
      ],
      "stateMutability": "view",
      "type": "function",
      "constant": true
    },
    {
      "inputs": [],
      "name": "MINI_BAILIFF_ROLE",
      "outputs": [
        {
          "internalType": "bytes32",
          "name": "",
          "type": "bytes32"
        }
      ],
      "stateMutability": "view",
      "type": "function",
      "constant": true
    },
    {
      "inputs": [],
      "name": "MiniBailiff",
      "outputs": [
        {
          "internalType": "address",
          "name": "",
          "type": "address"
        }
      ],
      "stateMutability": "view",
      "type": "function",
      "constant": true
    },
    {
      "inputs": [],
      "name": "PinkSlipAddress",
      "outputs": [
        {
          "internalType": "address",
          "name": "",
          "type": "address"
        }
      ],
      "stateMutability": "view",
      "type": "function",
      "constant": true
    },
    {
      "inputs": [],
      "name": "RedPenTokenAddress",
      "outputs": [
        {
          "internalType": "address",
          "name": "",
          "type": "address"
        }
      ],
      "stateMutability": "view",
      "type": "function",
      "constant": true
    },
    {
      "inputs": [],
      "name": "THE_COURT_ROLE",
      "outputs": [
        {
          "internalType": "bytes32",
          "name": "",
          "type": "bytes32"
        }
      ],
      "stateMutability": "view",
      "type": "function",
      "constant": true
    },
    {
      "inputs": [],
      "name": "TheCourtAddress",
      "outputs": [
        {
          "internalType": "address",
          "name": "",
          "type": "address"
        }
      ],
      "stateMutability": "view",
      "type": "function",
      "constant": true
    },
    {
      "inputs": [],
      "name": "TreasuryAddress",
      "outputs": [
        {
          "internalType": "address",
          "name": "",
          "type": "address"
        }
      ],
      "stateMutability": "view",
      "type": "function",
      "constant": true
    },
    {
      "inputs": [],
      "name": "addressManager",
      "outputs": [
        {
          "internalType": "contract AddressManager",
          "name": "",
          "type": "address"
        }
      ],
      "stateMutability": "view",
      "type": "function",
      "constant": true
    },
    {
      "inputs": [
        {
          "internalType": "address",
          "name": "to",
          "type": "address"
        },
        {
          "internalType": "uint256",
          "name": "tokenId",
          "type": "uint256"
        }
      ],
      "name": "approve",
      "outputs": [],
      "stateMutability": "nonpayable",
      "type": "function"
    },
    {
      "inputs": [
        {
          "internalType": "address",
          "name": "owner",
          "type": "address"
        }
      ],
      "name": "balanceOf",
      "outputs": [
        {
          "internalType": "uint256",
          "name": "",
          "type": "uint256"
        }
      ],
      "stateMutability": "view",
      "type": "function",
      "constant": true
    },
    {
      "inputs": [
        {
          "internalType": "uint256",
          "name": "tokenId",
          "type": "uint256"
        }
      ],
      "name": "getApproved",
      "outputs": [
        {
          "internalType": "address",
          "name": "",
          "type": "address"
        }
      ],
      "stateMutability": "view",
      "type": "function",
      "constant": true
    },
    {
      "inputs": [
        {
          "internalType": "bytes32",
          "name": "role",
          "type": "bytes32"
        }
      ],
      "name": "getRoleAdmin",
      "outputs": [
        {
          "internalType": "bytes32",
          "name": "",
          "type": "bytes32"
        }
      ],
      "stateMutability": "view",
      "type": "function",
      "constant": true
    },
    {
      "inputs": [
        {
          "internalType": "bytes32",
          "name": "role",
          "type": "bytes32"
        },
        {
          "internalType": "uint256",
          "name": "index",
          "type": "uint256"
        }
      ],
      "name": "getRoleMember",
      "outputs": [
        {
          "internalType": "address",
          "name": "",
          "type": "address"
        }
      ],
      "stateMutability": "view",
      "type": "function",
      "constant": true
    },
    {
      "inputs": [
        {
          "internalType": "bytes32",
          "name": "role",
          "type": "bytes32"
        }
      ],
      "name": "getRoleMemberCount",
      "outputs": [
        {
          "internalType": "uint256",
          "name": "",
          "type": "uint256"
        }
      ],
      "stateMutability": "view",
      "type": "function",
      "constant": true
    },
    {
      "inputs": [
        {
          "internalType": "bytes32",
          "name": "role",
          "type": "bytes32"
        },
        {
          "internalType": "address",
          "name": "account",
          "type": "address"
        }
      ],
      "name": "grantRole",
      "outputs": [],
      "stateMutability": "nonpayable",
      "type": "function"
    },
    {
      "inputs": [
        {
          "internalType": "bytes32",
          "name": "role",
          "type": "bytes32"
        },
        {
          "internalType": "address",
          "name": "account",
          "type": "address"
        }
      ],
      "name": "hasRole",
      "outputs": [
        {
          "internalType": "bool",
          "name": "",
          "type": "bool"
        }
      ],
      "stateMutability": "view",
      "type": "function",
      "constant": true
    },
    {
      "inputs": [
        {
          "internalType": "address",
          "name": "owner",
          "type": "address"
        },
        {
          "internalType": "address",
          "name": "operator",
          "type": "address"
        }
      ],
      "name": "isApprovedForAll",
      "outputs": [
        {
          "internalType": "bool",
          "name": "",
          "type": "bool"
        }
      ],
      "stateMutability": "view",
      "type": "function",
      "constant": true
    },
    {
      "inputs": [],
      "name": "jerkSanctions",
      "outputs": [
        {
          "internalType": "bool",
          "name": "",
          "type": "bool"
        }
      ],
      "stateMutability": "view",
      "type": "function",
      "constant": true
    },
    {
      "inputs": [],
      "name": "name",
      "outputs": [
        {
          "internalType": "string",
          "name": "",
          "type": "string"
        }
      ],
      "stateMutability": "view",
      "type": "function",
      "constant": true
    },
    {
      "inputs": [
        {
          "internalType": "uint256",
          "name": "tokenId",
          "type": "uint256"
        }
      ],
      "name": "ownerOf",
      "outputs": [
        {
          "internalType": "address",
          "name": "",
          "type": "address"
        }
      ],
      "stateMutability": "view",
      "type": "function",
      "constant": true
    },
    {
      "inputs": [],
      "name": "redPens",
      "outputs": [
        {
          "internalType": "contract ERC20",
          "name": "",
          "type": "address"
        }
      ],
      "stateMutability": "view",
      "type": "function",
      "constant": true
    },
    {
      "inputs": [
        {
          "internalType": "bytes32",
          "name": "role",
          "type": "bytes32"
        },
        {
          "internalType": "address",
          "name": "account",
          "type": "address"
        }
      ],
      "name": "renounceRole",
      "outputs": [],
      "stateMutability": "nonpayable",
      "type": "function"
    },
    {
      "inputs": [],
      "name": "resetVote",
      "outputs": [],
      "stateMutability": "nonpayable",
      "type": "function"
    },
    {
      "inputs": [
        {
          "internalType": "bytes32",
          "name": "role",
          "type": "bytes32"
        },
        {
          "internalType": "address",
          "name": "account",
          "type": "address"
        }
      ],
      "name": "revokeRole",
      "outputs": [],
      "stateMutability": "nonpayable",
      "type": "function"
    },
    {
      "inputs": [
        {
          "internalType": "address",
          "name": "from",
          "type": "address"
        },
        {
          "internalType": "address",
          "name": "to",
          "type": "address"
        },
        {
          "internalType": "uint256",
          "name": "tokenId",
          "type": "uint256"
        }
      ],
      "name": "safeTransferFrom",
      "outputs": [],
      "stateMutability": "nonpayable",
      "type": "function"
    },
    {
      "inputs": [
        {
          "internalType": "address",
          "name": "from",
          "type": "address"
        },
        {
          "internalType": "address",
          "name": "to",
          "type": "address"
        },
        {
          "internalType": "uint256",
          "name": "tokenId",
          "type": "uint256"
        },
        {
          "internalType": "bytes",
          "name": "_data",
          "type": "bytes"
        }
      ],
      "name": "safeTransferFrom",
      "outputs": [],
      "stateMutability": "nonpayable",
      "type": "function"
    },
    {
      "inputs": [
        {
          "internalType": "address",
          "name": "operator",
          "type": "address"
        },
        {
          "internalType": "bool",
          "name": "approved",
          "type": "bool"
        }
      ],
      "name": "setApprovalForAll",
      "outputs": [],
      "stateMutability": "nonpayable",
      "type": "function"
    },
    {
      "inputs": [],
      "name": "symbol",
      "outputs": [
        {
          "internalType": "string",
          "name": "",
          "type": "string"
        }
      ],
      "stateMutability": "view",
      "type": "function",
      "constant": true
    },
    {
      "inputs": [],
      "name": "syncAllRoles",
      "outputs": [],
      "stateMutability": "nonpayable",
      "type": "function"
    },
    {
      "inputs": [
        {
          "internalType": "bytes32",
          "name": "ROLE_TO_SYNC",
          "type": "bytes32"
        }
      ],
      "name": "syncSingleRole",
      "outputs": [],
      "stateMutability": "nonpayable",
      "type": "function"
    },
    {
      "inputs": [],
      "name": "syncVotes",
      "outputs": [],
      "stateMutability": "nonpayable",
      "type": "function"
    },
    {
      "inputs": [
        {
          "internalType": "uint256",
          "name": "index",
          "type": "uint256"
        }
      ],
      "name": "tokenByIndex",
      "outputs": [
        {
          "internalType": "uint256",
          "name": "",
          "type": "uint256"
        }
      ],
      "stateMutability": "view",
      "type": "function",
      "constant": true
    },
    {
      "inputs": [
        {
          "internalType": "address",
          "name": "owner",
          "type": "address"
        },
        {
          "internalType": "uint256",
          "name": "index",
          "type": "uint256"
        }
      ],
      "name": "tokenOfOwnerByIndex",
      "outputs": [
        {
          "internalType": "uint256",
          "name": "",
          "type": "uint256"
        }
      ],
      "stateMutability": "view",
      "type": "function",
      "constant": true
    },
    {
      "inputs": [
        {
          "internalType": "uint256",
          "name": "tokenId",
          "type": "uint256"
        }
      ],
      "name": "tokenURI",
      "outputs": [
        {
          "internalType": "string",
          "name": "",
          "type": "string"
        }
      ],
      "stateMutability": "view",
      "type": "function",
      "constant": true
    },
    {
      "inputs": [],
      "name": "totalShares",
      "outputs": [
        {
          "internalType": "uint256",
          "name": "",
          "type": "uint256"
        }
      ],
      "stateMutability": "view",
      "type": "function",
      "constant": true
    },
    {
      "inputs": [],
      "name": "totalSupply",
      "outputs": [
        {
          "internalType": "uint256",
          "name": "",
          "type": "uint256"
        }
      ],
      "stateMutability": "view",
      "type": "function",
      "constant": true
    },
    {
      "inputs": [
        {
          "internalType": "address",
          "name": "from",
          "type": "address"
        },
        {
          "internalType": "address",
          "name": "to",
          "type": "address"
        },
        {
          "internalType": "uint256",
          "name": "tokenId",
          "type": "uint256"
        }
      ],
      "name": "transferFrom",
      "outputs": [],
      "stateMutability": "nonpayable",
      "type": "function"
    },
    {
      "inputs": [],
      "name": "updateAddressManager",
      "outputs": [],
      "stateMutability": "nonpayable",
      "type": "function"
    },
    {
      "inputs": [],
      "name": "updateAllAddresses",
      "outputs": [],
      "stateMutability": "nonpayable",
      "type": "function"
    },
    {
      "inputs": [],
      "name": "updateAllRoles",
      "outputs": [],
      "stateMutability": "nonpayable",
      "type": "function"
    },
    {
      "inputs": [],
      "name": "updateDAOAddresses",
      "outputs": [],
      "stateMutability": "nonpayable",
      "type": "function"
    },
    {
      "inputs": [
        {
          "internalType": "bytes32",
          "name": "ROLE_TO_UPDATE",
          "type": "bytes32"
        }
      ],
      "name": "updateSingleRole",
      "outputs": [],
      "stateMutability": "nonpayable",
      "type": "function"
    },
    {
      "inputs": [],
      "name": "updateTokenAddresses",
      "outputs": [],
      "stateMutability": "nonpayable",
      "type": "function"
    },
    {
      "inputs": [],
      "name": "updateStakingToken",
      "outputs": [],
      "stateMutability": "nonpayable",
      "type": "function"
    },
    {
      "inputs": [
        {
          "internalType": "uint256",
          "name": "_tokenId",
          "type": "uint256"
        }
      ],
      "name": "getHatBalance",
      "outputs": [
        {
          "internalType": "uint256",
          "name": "hatBalance",
          "type": "uint256"
        }
      ],
      "stateMutability": "nonpayable",
      "type": "function"
    },
    {
      "inputs": [
        {
          "internalType": "uint256",
          "name": "_amount",
          "type": "uint256"
        },
        {
          "internalType": "uint256",
          "name": "tokenIdToStakeWith",
          "type": "uint256"
        }
      ],
      "name": "stakePens",
      "outputs": [],
      "stateMutability": "nonpayable",
      "type": "function"
    },
    {
      "inputs": [],
      "name": "stakePens",
      "outputs": [],
      "stateMutability": "nonpayable",
      "type": "function"
    },
    {
      "inputs": [
        {
          "internalType": "uint256",
          "name": "_amount",
          "type": "uint256"
        }
      ],
      "name": "stakePens",
      "outputs": [],
      "stateMutability": "nonpayable",
      "type": "function"
    },
    {
      "inputs": [
        {
          "internalType": "uint256",
          "name": "_amount",
          "type": "uint256"
        },
        {
          "internalType": "uint256",
          "name": "_tokenId",
          "type": "uint256"
        }
      ],
      "name": "returnHats",
      "outputs": [],
      "stateMutability": "nonpayable",
      "type": "function"
    },
    {
      "inputs": [
        {
          "internalType": "uint256",
          "name": "_tokenId",
          "type": "uint256"
        }
      ],
      "name": "returnHats",
      "outputs": [],
      "stateMutability": "nonpayable",
      "type": "function"
    },
    {
      "inputs": [],
      "name": "returnHats",
      "outputs": [],
      "stateMutability": "nonpayable",
      "type": "function"
    },
    {
      "inputs": [
        {
          "internalType": "uint256",
          "name": "_tokenIdToSlash",
          "type": "uint256"
        },
        {
          "internalType": "uint256",
          "name": "_percentToSlashInWholeNumber",
          "type": "uint256"
        }
      ],
      "name": "slashToken",
      "outputs": [],
      "stateMutability": "nonpayable",
      "type": "function"
    },
    {
      "inputs": [
        {
          "internalType": "bytes4",
          "name": "interfaceId",
          "type": "bytes4"
        }
      ],
      "name": "supportsInterface",
      "outputs": [
        {
          "internalType": "bool",
          "name": "",
          "type": "bool"
        }
      ],
      "stateMutability": "view",
      "type": "function",
      "constant": true
    }
  ],
  "bytecode": "0x6080604052600a805460ff19169055601b805463ffffffff60a01b191690556001601d556000601e553480156200003557600080fd5b506040516200527238038062005272833981016040819052620000589162000d99565b604080518082018252600a8152694a75727279204861747360b01b60208083019182528351808501909452600384526212185d60ea1b90840152815184938493929091620000a99160009162000cf3565b508051620000bf90600190602084019062000cf3565b5050600d80546001600160a01b039093166001600160a01b03199384168117909155601b80549093161790915550620000f762000234565b620001016200024a565b6019546200011b906000906001600160a01b031662000395565b60195462000154907f0538d24a8b7882d7b2e36af243d4af61c23e86e3daa6cb8c887b53220b2f5720906001600160a01b031662000395565b6016546200018d907f048bc71fa1cb2c119c339cf9cf00a97996a19a9d991ce5fe049f2fa5459e7990906001600160a01b031662000395565b601754620001c6907ffa8e4989e1d689f7bc5c4b25b87efb51fecdecb19ba62847e29c759e12a89acd906001600160a01b031662000395565b601a54620001ff907ff0f4b159a6e2a4815eb3ca3df080bfa70c9270662c59bcaa4479a456220183e6906001600160a01b031662000395565b6200022c7f7c9d7f6f02908185bffb3f7fc9afb29fd7bf93675af8fd4b655ee05c2cee1e0e600062000395565b505062000e2c565b6200023e620003d8565b62000248620006d8565b565b601b60009054906101000a90046001600160a01b03166001600160a01b031663ff7e88ec6040518163ffffffff1660e01b815260040160206040518083038186803b1580156200029957600080fd5b505afa158015620002ae573d6000803e3d6000fd5b505050506040513d601f19601f82011682018060405250810190620002d4919062000dcb565b601b60156101000a81548160ff021916908315150217905550601b60009054906101000a90046001600160a01b03166001600160a01b0316632fb565856040518163ffffffff1660e01b815260040160206040518083038186803b1580156200033c57600080fd5b505afa15801562000351573d6000803e3d6000fd5b505050506040513d601f19601f8201168201806040525081019062000377919062000dcb565b601b8054911515600160b01b0260ff60b01b19909216919091179055565b620003ac8282620006f760201b62001b8d1760201c565b6000828152600c60209081526040909120620003d391839062001b9b62000707821b17901c565b505050565b601b60009054906101000a90046001600160a01b03166001600160a01b031663dadf56ac6040518163ffffffff1660e01b815260040160206040518083038186803b1580156200042757600080fd5b505afa1580156200043c573d6000803e3d6000fd5b505050506040513d601f19601f8201168201806040525081019062000462919062000d99565b601680546001600160a01b0319166001600160a01b03928316179055601b546040805163024bebe960e01b81529051919092169163024bebe9916004808301926020929190829003018186803b158015620004bc57600080fd5b505afa158015620004d1573d6000803e3d6000fd5b505050506040513d601f19601f82011682018060405250810190620004f7919062000d99565b601780546001600160a01b0319166001600160a01b03928316179055601b5460408051635b5c251f60e01b815290519190921691635b5c251f916004808301926020929190829003018186803b1580156200055157600080fd5b505afa15801562000566573d6000803e3d6000fd5b505050506040513d601f19601f820116820180604052508101906200058c919062000d99565b601880546001600160a01b0319166001600160a01b03928316179055601b5460408051637310bf1d60e11b81529051919092169163e6217e3a916004808301926020929190829003018186803b158015620005e657600080fd5b505afa158015620005fb573d6000803e3d6000fd5b505050506040513d601f19601f8201168201806040525081019062000621919062000d99565b601a80546001600160a01b0319166001600160a01b03928316179055601b546040805163d88127a160e01b81529051919092169163d88127a1916004808301926020929190829003018186803b1580156200067b57600080fd5b505afa15801562000690573d6000803e3d6000fd5b505050506040513d601f19601f82011682018060405250810190620006b6919062000d99565b601580546001600160a01b0319166001600160a01b0392909216919091179055565b620006e262000727565b62000248620007d360201b62001bb01760201c565b62000703828262000bfd565b5050565b60006200071e836001600160a01b03841662000ca1565b90505b92915050565b601b60009054906101000a90046001600160a01b03166001600160a01b031663762ddb596040518163ffffffff1660e01b815260040160206040518083038186803b1580156200077657600080fd5b505afa1580156200078b573d6000803e3d6000fd5b505050506040513d601f19601f82011682018060405250810190620007b1919062000d99565b601c80546001600160a01b0319166001600160a01b0392909216919091179055565b601b60009054906101000a90046001600160a01b03166001600160a01b03166321d7f0086040518163ffffffff1660e01b815260040160206040518083038186803b1580156200082257600080fd5b505afa15801562000837573d6000803e3d6000fd5b505050506040513d601f19601f820116820180604052508101906200085d919062000d99565b600e80546001600160a01b0319166001600160a01b03928316179055601b546040805163762ddb5960e01b81529051919092169163762ddb59916004808301926020929190829003018186803b158015620008b757600080fd5b505afa158015620008cc573d6000803e3d6000fd5b505050506040513d601f19601f82011682018060405250810190620008f2919062000d99565b600f80546001600160a01b0319166001600160a01b03928316179055601b546040805163bfb7dc9960e01b81529051919092169163bfb7dc99916004808301926020929190829003018186803b1580156200094c57600080fd5b505afa15801562000961573d6000803e3d6000fd5b505050506040513d601f19601f8201168201806040525081019062000987919062000d99565b601080546001600160a01b0319166001600160a01b03928316179055601b5460408051633e6111eb60e21b81529051919092169163f98447ac916004808301926020929190829003018186803b158015620009e157600080fd5b505afa158015620009f6573d6000803e3d6000fd5b505050506040513d601f19601f8201168201806040525081019062000a1c919062000d99565b601180546001600160a01b0319166001600160a01b03928316179055601b5460408051630fe1ba9f60e21b815290519190921691633f86ea7c916004808301926020929190829003018186803b15801562000a7657600080fd5b505afa15801562000a8b573d6000803e3d6000fd5b505050506040513d601f19601f8201168201806040525081019062000ab1919062000d99565b601280546001600160a01b0319166001600160a01b03928316179055601b5460408051632b90024160e11b8152905191909216916357200482916004808301926020929190829003018186803b15801562000b0b57600080fd5b505afa15801562000b20573d6000803e3d6000fd5b505050506040513d601f19601f8201168201806040525081019062000b46919062000d99565b601380546001600160a01b0319166001600160a01b03928316179055601b5460408051636b58477560e01b815290519190921691636b584775916004808301926020929190829003018186803b15801562000ba057600080fd5b505afa15801562000bb5573d6000803e3d6000fd5b505050506040513d601f19601f8201168201806040525081019062000bdb919062000d99565b601480546001600160a01b0319166001600160a01b0392909216919091179055565b6000828152600b602090815260408083206001600160a01b038516845290915290205460ff1662000703576000828152600b602090815260408083206001600160a01b03851684529091529020805460ff1916600117905562000c5d3390565b6001600160a01b0316816001600160a01b0316837f2f8788117e7eff1d82e926ec794901d17c78024a50270940304540a733656f0d60405160405180910390a45050565b600081815260018301602052604081205462000cea5750815460018181018455600084815260208082209093018490558454848252828601909352604090209190915562000721565b50600062000721565b82805462000d019062000def565b90600052602060002090601f01602090048101928262000d25576000855562000d70565b82601f1062000d4057805160ff191683800117855562000d70565b8280016001018555821562000d70579182015b8281111562000d7057825182559160200191906001019062000d53565b5062000d7e92915062000d82565b5090565b5b8082111562000d7e576000815560010162000d83565b60006020828403121562000dac57600080fd5b81516001600160a01b038116811462000dc457600080fd5b9392505050565b60006020828403121562000dde57600080fd5b8151801515811462000dc457600080fd5b600181811c9082168062000e0457607f821691505b6020821081141562000e2657634e487b7160e01b600052602260045260246000fd5b50919050565b6144368062000e3c6000396000f3fe608060405234801561001057600080fd5b50600436106104075760003560e01c80636ad8118b11610220578063c87b56dd11610130578063e6217e3a116100b8578063f1132b3011610087578063f1132b30146108d8578063f3e94142146108e0578063f7d92d86146108f3578063f98447ac146108fb578063ff7e88ec1461090e57600080fd5b8063e6217e3a14610861578063e78c266c14610874578063e985e9c514610887578063e9a53230146108c357600080fd5b8063cf4ece15116100ff578063cf4ece151461080b578063d547741f14610820578063d88127a114610833578063dadf56ac14610846578063e3a479551461085957600080fd5b8063c87b56dd146107c8578063ca15c873146107db578063cce84392146107ee578063cd19182c1461080357600080fd5b80639996abde116101b3578063a78e746f11610182578063a78e746f1461075b578063a80a13211461076f578063b366d0ef14610782578063b88d4fde146107a2578063bfb7dc99146107b557600080fd5b80639996abde14610718578063a217fddf1461072b578063a22cb46514610733578063a32c5e591461074657600080fd5b8063762ddb59116101ef578063762ddb59146106d75780639010d07c146106ea57806391d14854146106fd57806395d89b411461071057600080fd5b80636ad8118b146106895780636b5847751461069157806370a08231146106a457806374f015f4146106b757600080fd5b8063329a8cfa1161031b5780634d84c6d8116102ae5780635b5c251f1161027d5780635b5c251f146106355780635db531a1146106485780635f413466146106505780636352211e1461066357806367a14f061461067657600080fd5b80634d84c6d8146105f45780634f6ccce7146105fc578063572004821461060f57806357f276ff1461062257600080fd5b80633ab76e9f116102ea5780633ab76e9f146105b35780633f86ea7c146105c657806342842e0e146105d957806349b5e105146105ec57600080fd5b8063329a8cfa1461057c57806336568abe14610584578063398b6d66146105975780633a98ef39146105aa57600080fd5b80631db5f0d11161039e578063248a9ca31161036d578063248a9ca3146105175780632f2ff15d1461053a5780632f745c591461054d5780632fb5658514610560578063326a55e01461057457600080fd5b80631db5f0d1146104c957806321d7f008146104dc57806323b872dd146104ef5780632436329d1461050257600080fd5b8063095ea7b3116103da578063095ea7b314610487578063130f63201461049c57806317314d5a146104af57806318160ddd146104b757600080fd5b806301ffc9a71461040c578063024bebe91461043457806306fdde031461045f578063081812fc14610474575b600080fd5b61041f61041a366004613f94565b610922565b60405190151581526020015b60405180910390f35b601754610447906001600160a01b031681565b6040516001600160a01b03909116815260200161042b565b610467610983565b60405161042b91906140f4565b610447610482366004613f34565b610a15565b61049a610495366004613eeb565b610aaf565b005b61049a6104aa366004613f34565b610bc5565b61049a610c32565b6008545b60405190815260200161042b565b61049a6104d7366004613f72565b610c93565b600e54610447906001600160a01b031681565b61049a6104fd366004613d9c565b610d6c565b6104bb60008051602061436183398151915281565b6104bb610525366004613f34565b6000908152600b602052604090206001015490565b61049a610548366004613f4d565b610d9d565b6104bb61055b366004613eeb565b610dbf565b601b5461041f90600160b01b900460ff1681565b61049a610e55565b61049a610e65565b61049a610592366004613f4d565b610f6e565b61049a6105a5366004613f72565b610f90565b6104bb601e5481565b601b54610447906001600160a01b031681565b601254610447906001600160a01b031681565b61049a6105e7366004613d9c565b611178565b61049a611193565b61049a610e5d565b6104bb61060a366004613f34565b61119b565b601354610447906001600160a01b031681565b61049a610630366004613f34565b61122e565b601854610447906001600160a01b031681565b61049a611242565b601954610447906001600160a01b031681565b610447610671366004613f34565b61124a565b601c54610447906001600160a01b031681565b61049a6112c1565b601454610447906001600160a01b031681565b6104bb6106b2366004613d29565b611369565b6104bb6106c5366004613f34565b601f6020526000908152604090205481565b600f54610447906001600160a01b031681565b6104476106f8366004613f72565b6113f0565b61041f61070b366004613f4d565b61140f565b61046761143a565b61049a610726366004613f72565b611449565b6104bb600081565b61049a610741366004613ebd565b6115bc565b6104bb6000805160206143c183398151915281565b601b5461041f90600160a01b900460ff1681565b61049a61077d366004613f34565b611681565b6104bb610790366004613f34565b6000908152601f602052604090205490565b61049a6107b0366004613ddd565b61177b565b601054610447906001600160a01b031681565b6104676107d6366004613f34565b6117ad565b6104bb6107e9366004613f34565b611894565b6104bb6000805160206143e183398151915281565b61049a6118ab565b6104bb6000805160206143a183398151915281565b61049a61082e366004613f4d565b611932565b601554610447906001600160a01b031681565b601654610447906001600160a01b031681565b61049a61193c565b601a54610447906001600160a01b031681565b600d54610447906001600160a01b031681565b61041f610895366004613d63565b6001600160a01b03918216600090815260056020908152604080832093909416825291909152205460ff1690565b6104bb60008051602061438183398151915281565b61049a611969565b61049a6108ee366004613f34565b611971565b61049a611aed565b601154610447906001600160a01b031681565b601b5461041f90600160a81b900460ff1681565b60006001600160e01b031982166380ac58cd60e01b148061095357506001600160e01b031982166336372b0760e01b145b8061096e57506001600160e01b03198216635b5e139f60e01b145b8061097d575061097d82611fbe565b92915050565b6060600080546109929061424f565b80601f01602080910402602001604051908101604052809291908181526020018280546109be9061424f565b8015610a0b5780601f106109e057610100808354040283529160200191610a0b565b820191906000526020600020905b8154815290600101906020018083116109ee57829003601f168201915b5050505050905090565b6000818152600260205260408120546001600160a01b0316610a935760405162461bcd60e51b815260206004820152602c60248201527f4552433732313a20617070726f76656420717565727920666f72206e6f6e657860448201526b34b9ba32b73a103a37b5b2b760a11b60648201526084015b60405180910390fd5b506000908152600460205260409020546001600160a01b031690565b6000610aba8261124a565b9050806001600160a01b0316836001600160a01b03161415610b285760405162461bcd60e51b815260206004820152602160248201527f4552433732313a20617070726f76616c20746f2063757272656e74206f776e656044820152603960f91b6064820152608401610a8a565b336001600160a01b0382161480610b445750610b448133610895565b610bb65760405162461bcd60e51b815260206004820152603860248201527f4552433732313a20617070726f76652063616c6c6572206973206e6f74206f7760448201527f6e6572206e6f7220617070726f76656420666f7220616c6c00000000000000006064820152608401610a8a565b610bc08383611fe3565b505050565b610bcf6001612051565b50610bd98161210e565b50610be381612289565b50610bee6000612051565b610c2f5760405162461bcd60e51b81526020600482015260126024820152711cd8599d195e481b9bdd08199b1a5c1c195960721b6044820152606401610a8a565b50565b610c3c6001612051565b50610c45612412565b50610c506000612051565b610c915760405162461bcd60e51b81526020600482015260126024820152711cd8599d195e481b9bdd08199b1a5c1c195960721b6044820152606401610a8a565b565b610cab6000805160206143c18339815191523361140f565b80610cc95750610cc96000805160206143818339815191523361140f565b80610ce75750610ce76000805160206143618339815191523361140f565b610d2c5760405162461bcd60e51b81526020600482015260166024820152752cb7ba93b932903737ba103a3432903130b4b634b33360511b6044820152606401610a8a565b60648110610d3957600080fd5b6000828152601f6020526040812054606490610d569084906141d6565b610d6091906141c2565b9050610bc08382612558565b610d76338261257f565b610d925760405162461bcd60e51b8152600401610a8a90614159565b610bc0838383612676565b610da78282612821565b6000828152600c60205260409020610bc09082611b9b565b6000610dca83611369565b8210610e2c5760405162461bcd60e51b815260206004820152602b60248201527f455243373231456e756d657261626c653a206f776e657220696e646578206f7560448201526a74206f6620626f756e647360a81b6064820152608401610a8a565b506001600160a01b03919091166000908152600660209081526040808320938352929052205490565b610e5d61285c565b610c91612b48565b610e7d6000805160206143c18339815191523361140f565b80610e9b5750610e9b6000805160206143818339815191523361140f565b80610eb95750610eb96000805160206143618339815191523361140f565b610efe5760405162461bcd60e51b81526020600482015260166024820152752cb7ba93b932903737ba103a3432903130b4b634b33360511b6044820152606401610a8a565b601b60009054906101000a90046001600160a01b03166001600160a01b031663329a8cfa6040518163ffffffff1660e01b8152600401600060405180830381600087803b158015610f4e57600080fd5b505af1158015610f62573d6000803e3d6000fd5b50505050610c91611242565b610f788282612b58565b6000828152600c60205260409020610bc09082612bd2565b33610f9a8261124a565b6001600160a01b031614610fad57600080fd5b6000818152601f60205260409020548210610fd4576000818152601f602052604090205491505b601e54601c546040516370a0823160e01b8152306004820152600092916001600160a01b0316906370a082319060240160206040518083038186803b15801561101c57600080fd5b505afa158015611030573d6000803e3d6000fd5b505050506040513d601f19601f820116820180604052508101906110549190613fce565b61105e90856141d6565b61106891906141c2565b905082601e600082825461107c91906141f5565b90915550506000828152601f60205260409020548314156110b4576110a082612be7565b6000828152601f60205260408120556110ee565b6000828152601f60205260409020548310156110ee576000828152601f6020526040812080548592906110e89084906141f5565b90915550505b601c5460405163a9059cbb60e01b8152336004820152602481018390526001600160a01b039091169063a9059cbb90604401602060405180830381600087803b15801561113a57600080fd5b505af115801561114e573d6000803e3d6000fd5b505050506040513d601f19601f820116820180604052508101906111729190613f17565b50505050565b610bc08383836040518060200160405280600081525061177b565b610c9161285c565b60006111a660085490565b82106112095760405162461bcd60e51b815260206004820152602c60248201527f455243373231456e756d657261626c653a20676c6f62616c20696e646578206f60448201526b7574206f6620626f756e647360a01b6064820152608401610a8a565b6008828154811061121c5761121c6142fb565b90600052602060002001549050919050565b6112386001612051565b50610be381612c8e565b610c91612ee9565b6000818152600260205260408120546001600160a01b03168061097d5760405162461bcd60e51b815260206004820152602960248201527f4552433732313a206f776e657220717565727920666f72206e6f6e657869737460448201526832b73a103a37b5b2b760b91b6064820152608401610a8a565b601b60009054906101000a90046001600160a01b03166001600160a01b031663762ddb596040518163ffffffff1660e01b815260040160206040518083038186803b15801561130f57600080fd5b505afa158015611323573d6000803e3d6000fd5b505050506040513d601f19601f820116820180604052508101906113479190613d46565b601c80546001600160a01b0319166001600160a01b0392909216919091179055565b60006001600160a01b0382166113d45760405162461bcd60e51b815260206004820152602a60248201527f4552433732313a2062616c616e636520717565727920666f7220746865207a65604482015269726f206164647265737360b01b6064820152608401610a8a565b506001600160a01b031660009081526003602052604090205490565b6000828152600c60205260408120611408908361302c565b9392505050565b6000918252600b602090815260408084206001600160a01b0393909316845291905290205460ff1690565b6060600180546109929061424f565b601c546040516370a0823160e01b81523060048201526000916001600160a01b0316906370a082319060240160206040518083038186803b15801561148d57600080fd5b505afa1580156114a1573d6000803e3d6000fd5b505050506040513d601f19601f820116820180604052508101906114c59190613fce565b601c546040516323b872dd60e01b8152336004820152306024820152604481018690529192506000916001600160a01b03909116906323b872dd90606401602060405180830381600087803b15801561151d57600080fd5b505af1158015611531573d6000803e3d6000fd5b505050506040513d601f19601f820116820180604052508101906115559190613f17565b50601e541561157a5781601e548561156d91906141d6565b61157791906141c2565b93505b6000818152601f6020526040812080548692906115989084906141aa565b9250508190555083601e60008282546115b191906141aa565b909155505050505050565b6001600160a01b0382163314156116155760405162461bcd60e51b815260206004820152601960248201527f4552433732313a20617070726f766520746f2063616c6c6572000000000000006044820152606401610a8a565b3360008181526005602090815260408083206001600160a01b03871680855290835292819020805460ff191686151590811790915590519081529192917f17307eab39ab6107e8899845ad3d59bd9653f200f220920489ca2b5937696c31910160405180910390a35050565b3361168b8261124a565b6001600160a01b03161461169e57600080fd5b6000818152601f602052604080822054601e54601c5492516370a0823160e01b815230600482015291939290916001600160a01b03909116906370a082319060240160206040518083038186803b1580156116f857600080fd5b505afa15801561170c573d6000803e3d6000fd5b505050506040513d601f19601f820116820180604052508101906117309190613fce565b61173a90846141d6565b61174491906141c2565b6000848152601f60205260408120819055601e8054929350849290919061176c9084906141f5565b909155506110ee905083612be7565b611785338361257f565b6117a15760405162461bcd60e51b8152600401610a8a90614159565b61117284848484613038565b6000818152600260205260409020546060906001600160a01b031661182c5760405162461bcd60e51b815260206004820152602f60248201527f4552433732314d657461646174613a2055524920717565727920666f72206e6f60448201526e3732bc34b9ba32b73a103a37b5b2b760891b6064820152608401610a8a565b600061184360408051602081019091526000815290565b905060008151116118635760405180602001604052806000815250611408565b8061186d8461306b565b60405160200161187e929190614013565b6040516020818303038152906040529392505050565b6000818152600c6020526040812061097d90613169565b601c546040516370a0823160e01b81523360048201526000916001600160a01b0316906370a082319060240160206040518083038186803b1580156118ef57600080fd5b505afa158015611903573d6000803e3d6000fd5b505050506040513d601f19601f820116820180604052508101906119279190613fce565b9050610c2f81611971565b610f788282613173565b600061194733611369565b1161195157600080fd5b600061195e336001610dbf565b9050610c2f81611681565b610c916131ae565b601c546040516370a0823160e01b81523060048201526000916001600160a01b0316906370a082319060240160206040518083038186803b1580156119b557600080fd5b505afa1580156119c9573d6000803e3d6000fd5b505050506040513d601f19601f820116820180604052508101906119ed9190613fce565b601e54601c546040516323b872dd60e01b81523360048201523060248201526044810186905292935090916000916001600160a01b0316906323b872dd90606401602060405180830381600087803b158015611a4857600080fd5b505af1158015611a5c573d6000803e3d6000fd5b505050506040513d601f19601f82011682018060405250810190611a809190613f17565b506001611a8c33611369565b1015611abe5750601d54611aa033826132e5565b6001601d6000828254611ab391906141aa565b90915550611adc9050565b6001611ac933611369565b10611adc57611ad9336001610dbf565b90505b811561157a578261156d83866141d6565b611af76001612051565b50611b0f6000805160206143c1833981519152612c8e565b50611b27600080516020614381833981519152612c8e565b50611b3f600080516020614361833981519152612c8e565b50611b576000805160206143a1833981519152612c8e565b50611b6f6000805160206143e1833981519152612c8e565b50611b7a6000612c8e565b50611b83612ee9565b610c506000612051565b611b9782826132ff565b5050565b6000611408836001600160a01b038416613385565b601b60009054906101000a90046001600160a01b03166001600160a01b03166321d7f0086040518163ffffffff1660e01b815260040160206040518083038186803b158015611bfe57600080fd5b505afa158015611c12573d6000803e3d6000fd5b505050506040513d601f19601f82011682018060405250810190611c369190613d46565b600e80546001600160a01b0319166001600160a01b03928316179055601b546040805163762ddb5960e01b81529051919092169163762ddb59916004808301926020929190829003018186803b158015611c8f57600080fd5b505afa158015611ca3573d6000803e3d6000fd5b505050506040513d601f19601f82011682018060405250810190611cc79190613d46565b600f80546001600160a01b0319166001600160a01b03928316179055601b546040805163bfb7dc9960e01b81529051919092169163bfb7dc99916004808301926020929190829003018186803b158015611d2057600080fd5b505afa158015611d34573d6000803e3d6000fd5b505050506040513d601f19601f82011682018060405250810190611d589190613d46565b601080546001600160a01b0319166001600160a01b03928316179055601b5460408051633e6111eb60e21b81529051919092169163f98447ac916004808301926020929190829003018186803b158015611db157600080fd5b505afa158015611dc5573d6000803e3d6000fd5b505050506040513d601f19601f82011682018060405250810190611de99190613d46565b601180546001600160a01b0319166001600160a01b03928316179055601b5460408051630fe1ba9f60e21b815290519190921691633f86ea7c916004808301926020929190829003018186803b158015611e4257600080fd5b505afa158015611e56573d6000803e3d6000fd5b505050506040513d601f19601f82011682018060405250810190611e7a9190613d46565b601280546001600160a01b0319166001600160a01b03928316179055601b5460408051632b90024160e11b8152905191909216916357200482916004808301926020929190829003018186803b158015611ed357600080fd5b505afa158015611ee7573d6000803e3d6000fd5b505050506040513d601f19601f82011682018060405250810190611f0b9190613d46565b601380546001600160a01b0319166001600160a01b03928316179055601b5460408051636b58477560e01b815290519190921691636b584775916004808301926020929190829003018186803b158015611f6457600080fd5b505afa158015611f78573d6000803e3d6000fd5b505050506040513d601f19601f82011682018060405250810190611f9c9190613d46565b601480546001600160a01b0319166001600160a01b0392909216919091179055565b60006001600160e01b03198216635a05180f60e01b148061097d575061097d826133d4565b600081815260046020526040902080546001600160a01b0319166001600160a01b03841690811790915581906120188261124a565b6001600160a01b03167f8c5be1e5ebec7d5bd14f71427d1e84f3dd0314c0f7b2291e5b200ac8c7c3b92560405160405180910390a45050565b600a5460009060ff1682151581151514156120ae5760405162461bcd60e51b815260206004820152601960248201527f416c72656164792053657420746f20746861742076616c7565000000000000006044820152606401610a8a565b600a805484151560ff19909116811790915560ff16151581151514156121055760405162461bcd60e51b815260206004820152600c60248201526b29b0b33a32bc9022b93937b960a11b6044820152606401610a8a565b50600192915050565b60405163ca15c87360e01b8152600481018290526000908190309063ca15c8739060240160206040518083038186803b15801561214a57600080fd5b505afa15801561215e573d6000803e3d6000fd5b505050506040513d601f19601f820116820180604052508101906121829190613fce565b905060005b8181101561227f57604051632404341f60e21b815260048101859052602481018290526000903090639010d07c9060440160206040518083038186803b1580156121d057600080fd5b505afa1580156121e4573d6000803e3d6000fd5b505050506040513d601f19601f820116820180604052508101906122089190613d46565b60405163d547741f60e01b8152600481018790526001600160a01b0382166024820152909150309063d547741f90604401600060405180830381600087803b15801561225357600080fd5b505af1158015612267573d6000803e3d6000fd5b505050505080806122779061428a565b915050612187565b5060019392505050565b601b5460405163ca15c87360e01b81526004810183905260009182916001600160a01b039091169063ca15c8739060240160206040518083038186803b1580156122d257600080fd5b505afa1580156122e6573d6000803e3d6000fd5b505050506040513d601f19601f8201168201806040525081019061230a9190613fce565b905060005b8181101561227f57601b54604051632404341f60e21b815260048101869052602481018390526000916001600160a01b031690639010d07c9060440160206040518083038186803b15801561236357600080fd5b505afa158015612377573d6000803e3d6000fd5b505050506040513d601f19601f8201168201806040525081019061239b9190613d46565b604051632f2ff15d60e01b8152600481018790526001600160a01b03821660248201529091503090632f2ff15d90604401600060405180830381600087803b1580156123e657600080fd5b505af11580156123fa573d6000803e3d6000fd5b5050505050808061240a9061428a565b91505061230f565b600061242b6000805160206143c183398151915261210e565b506124436000805160206143c1833981519152612289565b61244c57600080fd5b61246360008051602061438183398151915261210e565b5061247b600080516020614381833981519152612289565b61248457600080fd5b61249b60008051602061436183398151915261210e565b506124b3600080516020614361833981519152612289565b6124bc57600080fd5b6124d36000805160206143a183398151915261210e565b506124eb6000805160206143a1833981519152612289565b6124f457600080fd5b61250b6000805160206143e183398151915261210e565b506125236000805160206143e1833981519152612289565b61252c57600080fd5b612536600061210e565b506125416000612289565b61254a57600080fd5b612552612ee9565b50600190565b6000828152601f6020526040812080548392906125769084906141f5565b90915550505050565b6000818152600260205260408120546001600160a01b03166125f85760405162461bcd60e51b815260206004820152602c60248201527f4552433732313a206f70657261746f7220717565727920666f72206e6f6e657860448201526b34b9ba32b73a103a37b5b2b760a11b6064820152608401610a8a565b60006126038361124a565b9050806001600160a01b0316846001600160a01b0316148061263e5750836001600160a01b031661263384610a15565b6001600160a01b0316145b8061266e57506001600160a01b0380821660009081526005602090815260408083209388168352929052205460ff165b949350505050565b826001600160a01b03166126898261124a565b6001600160a01b0316146126f15760405162461bcd60e51b815260206004820152602960248201527f4552433732313a207472616e73666572206f6620746f6b656e2074686174206960448201526839903737ba1037bbb760b91b6064820152608401610a8a565b6001600160a01b0382166127535760405162461bcd60e51b8152602060048201526024808201527f4552433732313a207472616e7366657220746f20746865207a65726f206164646044820152637265737360e01b6064820152608401610a8a565b61275e8383836133f9565b612769600082611fe3565b6001600160a01b03831660009081526003602052604081208054600192906127929084906141f5565b90915550506001600160a01b03821660009081526003602052604081208054600192906127c09084906141aa565b909155505060008181526002602052604080822080546001600160a01b0319166001600160a01b0386811691821790925591518493918716917fddf252ad1be2c89b69c2b068fc378daa952ba7f163c4a11628f55a4df523b3ef91a4505050565b6000828152600b6020526040902060010154600a5460ff161561284857610bc083836132ff565b6128528133613404565b610bc083836132ff565b601b60009054906101000a90046001600160a01b03166001600160a01b031663dadf56ac6040518163ffffffff1660e01b815260040160206040518083038186803b1580156128aa57600080fd5b505afa1580156128be573d6000803e3d6000fd5b505050506040513d601f19601f820116820180604052508101906128e29190613d46565b601680546001600160a01b0319166001600160a01b03928316179055601b546040805163024bebe960e01b81529051919092169163024bebe9916004808301926020929190829003018186803b15801561293b57600080fd5b505afa15801561294f573d6000803e3d6000fd5b505050506040513d601f19601f820116820180604052508101906129739190613d46565b601780546001600160a01b0319166001600160a01b03928316179055601b5460408051635b5c251f60e01b815290519190921691635b5c251f916004808301926020929190829003018186803b1580156129cc57600080fd5b505afa1580156129e0573d6000803e3d6000fd5b505050506040513d601f19601f82011682018060405250810190612a049190613d46565b601880546001600160a01b0319166001600160a01b03928316179055601b5460408051637310bf1d60e11b81529051919092169163e6217e3a916004808301926020929190829003018186803b158015612a5d57600080fd5b505afa158015612a71573d6000803e3d6000fd5b505050506040513d601f19601f82011682018060405250810190612a959190613d46565b601a80546001600160a01b0319166001600160a01b03928316179055601b546040805163d88127a160e01b81529051919092169163d88127a1916004808301926020929190829003018186803b158015612aee57600080fd5b505afa158015612b02573d6000803e3d6000fd5b505050506040513d601f19601f82011682018060405250810190612b269190613d46565b601580546001600160a01b0319166001600160a01b0392909216919091179055565b612b506112c1565b610c91611bb0565b6001600160a01b0381163314612bc85760405162461bcd60e51b815260206004820152602f60248201527f416363657373436f6e74726f6c3a2063616e206f6e6c792072656e6f756e636560448201526e103937b632b9903337b91039b2b63360891b6064820152608401610a8a565b611b978282613468565b6000611408836001600160a01b0384166134cf565b6000612bf28261124a565b9050612c00816000846133f9565b612c0b600083611fe3565b6001600160a01b0381166000908152600360205260408120805460019290612c349084906141f5565b909155505060008281526002602052604080822080546001600160a01b0319169055518391906001600160a01b038416907fddf252ad1be2c89b69c2b068fc378daa952ba7f163c4a11628f55a4df523b3ef908390a45050565b601b5460405163ca15c87360e01b81526004810183905260009182916001600160a01b039091169063ca15c8739060240160206040518083038186803b158015612cd757600080fd5b505afa158015612ceb573d6000803e3d6000fd5b505050506040513d601f19601f82011682018060405250810190612d0f9190613fce565b60405163ca15c87360e01b815260048101859052909150600090309063ca15c8739060240160206040518083038186803b158015612d4c57600080fd5b505afa158015612d60573d6000803e3d6000fd5b505050506040513d601f19601f82011682018060405250810190612d849190613fce565b90506000612d9282846141f5565b905060008111612dd75760405162461bcd60e51b815260206004820152601060248201526f4e6f7468696e6720746f2073796e632160801b6044820152606401610a8a565b60005b81811015612edd57601b54604051632404341f60e21b815260048101889052602481018390526000916001600160a01b031690639010d07c9060440160206040518083038186803b158015612e2e57600080fd5b505afa158015612e42573d6000803e3d6000fd5b505050506040513d601f19601f82011682018060405250810190612e669190613d46565b604051632f2ff15d60e01b8152600481018990526001600160a01b03821660248201529091503090632f2ff15d90604401600060405180830381600087803b158015612eb157600080fd5b505af1158015612ec5573d6000803e3d6000fd5b50505050508080612ed59061428a565b915050612dda565b50600195945050505050565b601b60009054906101000a90046001600160a01b03166001600160a01b031663ff7e88ec6040518163ffffffff1660e01b815260040160206040518083038186803b158015612f3757600080fd5b505afa158015612f4b573d6000803e3d6000fd5b505050506040513d601f19601f82011682018060405250810190612f6f9190613f17565b601b60156101000a81548160ff021916908315150217905550601b60009054906101000a90046001600160a01b03166001600160a01b0316632fb565856040518163ffffffff1660e01b815260040160206040518083038186803b158015612fd657600080fd5b505afa158015612fea573d6000803e3d6000fd5b505050506040513d601f19601f8201168201806040525081019061300e9190613f17565b601b8054911515600160b01b0260ff60b01b19909216919091179055565b600061140883836135bc565b613043848484612676565b61304f84848484613642565b6111725760405162461bcd60e51b8152600401610a8a90614107565b60608161308f5750506040805180820190915260018152600360fc1b602082015290565b8160005b81156130b957806130a38161428a565b91506130b29050600a836141c2565b9150613093565b60008167ffffffffffffffff8111156130d4576130d4614311565b6040519080825280601f01601f1916602001820160405280156130fe576020820181803683370190505b5090505b841561266e576131136001836141f5565b9150613120600a866142a5565b61312b9060306141aa565b60f81b818381518110613140576131406142fb565b60200101906001600160f81b031916908160001a905350613162600a866141c2565b9450613102565b600061097d825490565b6000828152600b6020526040902060010154600a5460ff161561319a57610bc08383613468565b6131a48133613404565b610bc08383613468565b601b60009054906101000a90046001600160a01b03166001600160a01b031663a44b93256040518163ffffffff1660e01b815260040160206040518083038186803b1580156131fc57600080fd5b505afa158015613210573d6000803e3d6000fd5b505050506040513d601f19601f820116820180604052508101906132349190613f17565b61323d57600080fd5b601b60009054906101000a90046001600160a01b03166001600160a01b031663ac7cfac36040518163ffffffff1660e01b815260040160206040518083038186803b15801561328b57600080fd5b505afa15801561329f573d6000803e3d6000fd5b505050506040513d601f19601f820116820180604052508101906132c39190613d46565b600d80546001600160a01b0319166001600160a01b0392909216919091179055565b611b9782826040518060200160405280600081525061374f565b613309828261140f565b611b97576000828152600b602090815260408083206001600160a01b03851684529091529020805460ff191660011790556133413390565b6001600160a01b0316816001600160a01b0316837f2f8788117e7eff1d82e926ec794901d17c78024a50270940304540a733656f0d60405160405180910390a45050565b60008181526001830160205260408120546133cc5750815460018181018455600084815260208082209093018490558454848252828601909352604090209190915561097d565b50600061097d565b60006001600160e01b03198216637965db0b60e01b148061097d575061097d82613782565b610bc08383836137a7565b61340e828261140f565b611b9757613426816001600160a01b0316601461385f565b61343183602061385f565b604051602001613442929190614042565b60408051601f198184030181529082905262461bcd60e51b8252610a8a916004016140f4565b613472828261140f565b15611b97576000828152600b602090815260408083206001600160a01b0385168085529252808320805460ff1916905551339285917ff6391f5c32d9c69d2a47ea670b442974b53935d1edc7fd64eb21e047a839171b9190a45050565b600081815260018301602052604081205480156135b25760006134f36001836141f5565b8554909150600090613507906001906141f5565b90506000866000018281548110613520576135206142fb565b9060005260206000200154905080876000018481548110613543576135436142fb565b600091825260208083209091019290925582815260018901909152604090208490558654879080613576576135766142e5565b6001900381819060005260206000200160009055905586600101600087815260200190815260200160002060009055600194505050505061097d565b600091505061097d565b8154600090821061361a5760405162461bcd60e51b815260206004820152602260248201527f456e756d657261626c655365743a20696e646578206f7574206f6620626f756e604482015261647360f01b6064820152608401610a8a565b82600001828154811061362f5761362f6142fb565b9060005260206000200154905092915050565b60006001600160a01b0384163b1561374457604051630a85bd0160e11b81526001600160a01b0385169063150b7a02906136869033908990889088906004016140b7565b602060405180830381600087803b1580156136a057600080fd5b505af19250505080156136d0575060408051601f3d908101601f191682019092526136cd91810190613fb1565b60015b61372a573d8080156136fe576040519150601f19603f3d011682016040523d82523d6000602084013e613703565b606091505b5080516137225760405162461bcd60e51b8152600401610a8a90614107565b805181602001fd5b6001600160e01b031916630a85bd0160e11b14905061266e565b506001949350505050565b61375983836139fb565b6137666000848484613642565b610bc05760405162461bcd60e51b8152600401610a8a90614107565b60006001600160e01b0319821663780e9d6360e01b148061097d575061097d82613b49565b6001600160a01b038316613802576137fd81600880546000838152600960205260408120829055600182018355919091527ff3f7a9fe364faab93b216da50a3214154f22a0a2b415b23a84c8169e8b636ee30155565b613825565b816001600160a01b0316836001600160a01b031614613825576138258382613b99565b6001600160a01b03821661383c57610bc081613c36565b826001600160a01b0316826001600160a01b031614610bc057610bc08282613ce5565b6060600061386e8360026141d6565b6138799060026141aa565b67ffffffffffffffff81111561389157613891614311565b6040519080825280601f01601f1916602001820160405280156138bb576020820181803683370190505b509050600360fc1b816000815181106138d6576138d66142fb565b60200101906001600160f81b031916908160001a905350600f60fb1b81600181518110613905576139056142fb565b60200101906001600160f81b031916908160001a90535060006139298460026141d6565b6139349060016141aa565b90505b60018111156139ac576f181899199a1a9b1b9c1cb0b131b232b360811b85600f1660108110613968576139686142fb565b1a60f81b82828151811061397e5761397e6142fb565b60200101906001600160f81b031916908160001a90535060049490941c936139a581614238565b9050613937565b5083156114085760405162461bcd60e51b815260206004820181905260248201527f537472696e67733a20686578206c656e67746820696e73756666696369656e746044820152606401610a8a565b6001600160a01b038216613a515760405162461bcd60e51b815260206004820181905260248201527f4552433732313a206d696e7420746f20746865207a65726f20616464726573736044820152606401610a8a565b6000818152600260205260409020546001600160a01b031615613ab65760405162461bcd60e51b815260206004820152601c60248201527f4552433732313a20746f6b656e20616c7265616479206d696e746564000000006044820152606401610a8a565b613ac2600083836133f9565b6001600160a01b0382166000908152600360205260408120805460019290613aeb9084906141aa565b909155505060008181526002602052604080822080546001600160a01b0319166001600160a01b03861690811790915590518392907fddf252ad1be2c89b69c2b068fc378daa952ba7f163c4a11628f55a4df523b3ef908290a45050565b60006001600160e01b031982166380ac58cd60e01b1480613b7a57506001600160e01b03198216635b5e139f60e01b145b8061097d57506301ffc9a760e01b6001600160e01b031983161461097d565b60006001613ba684611369565b613bb091906141f5565b600083815260076020526040902054909150808214613c03576001600160a01b03841660009081526006602090815260408083208584528252808320548484528184208190558352600790915290208190555b5060009182526007602090815260408084208490556001600160a01b039094168352600681528383209183525290812055565b600854600090613c48906001906141f5565b60008381526009602052604081205460088054939450909284908110613c7057613c706142fb565b906000526020600020015490508060088381548110613c9157613c916142fb565b6000918252602080832090910192909255828152600990915260408082208490558582528120556008805480613cc957613cc96142e5565b6001900381819060005260206000200160009055905550505050565b6000613cf083611369565b6001600160a01b039093166000908152600660209081526040808320868452825280832085905593825260079052919091209190915550565b600060208284031215613d3b57600080fd5b813561140881614327565b600060208284031215613d5857600080fd5b815161140881614327565b60008060408385031215613d7657600080fd5b8235613d8181614327565b91506020830135613d9181614327565b809150509250929050565b600080600060608486031215613db157600080fd5b8335613dbc81614327565b92506020840135613dcc81614327565b929592945050506040919091013590565b60008060008060808587031215613df357600080fd5b8435613dfe81614327565b93506020850135613e0e81614327565b925060408501359150606085013567ffffffffffffffff80821115613e3257600080fd5b818701915087601f830112613e4657600080fd5b813581811115613e5857613e58614311565b604051601f8201601f19908116603f01168101908382118183101715613e8057613e80614311565b816040528281528a6020848701011115613e9957600080fd5b82602086016020830137600060208483010152809550505050505092959194509250565b60008060408385031215613ed057600080fd5b8235613edb81614327565b91506020830135613d918161433c565b60008060408385031215613efe57600080fd5b8235613f0981614327565b946020939093013593505050565b600060208284031215613f2957600080fd5b81516114088161433c565b600060208284031215613f4657600080fd5b5035919050565b60008060408385031215613f6057600080fd5b823591506020830135613d9181614327565b60008060408385031215613f8557600080fd5b50508035926020909101359150565b600060208284031215613fa657600080fd5b81356114088161434a565b600060208284031215613fc357600080fd5b81516114088161434a565b600060208284031215613fe057600080fd5b5051919050565b60008151808452613fff81602086016020860161420c565b601f01601f19169290920160200192915050565b6000835161402581846020880161420c565b83519083019061403981836020880161420c565b01949350505050565b7f416363657373436f6e74726f6c3a206163636f756e742000000000000000000081526000835161407a81601785016020880161420c565b7001034b99036b4b9b9b4b733903937b6329607d1b60179184019182015283516140ab81602884016020880161420c565b01602801949350505050565b6001600160a01b03858116825284166020820152604081018390526080606082018190526000906140ea90830184613fe7565b9695505050505050565b6020815260006114086020830184613fe7565b60208082526032908201527f4552433732313a207472616e7366657220746f206e6f6e20455243373231526560408201527131b2b4bb32b91034b6b83632b6b2b73a32b960711b606082015260800190565b60208082526031908201527f4552433732313a207472616e736665722063616c6c6572206973206e6f74206f6040820152701ddb995c881b9bdc88185c1c1c9bdd9959607a1b606082015260800190565b600082198211156141bd576141bd6142b9565b500190565b6000826141d1576141d16142cf565b500490565b60008160001904831182151516156141f0576141f06142b9565b500290565b600082821015614207576142076142b9565b500390565b60005b8381101561422757818101518382015260200161420f565b838111156111725750506000910152565b600081614247576142476142b9565b506000190190565b600181811c9082168061426357607f821691505b6020821081141561428457634e487b7160e01b600052602260045260246000fd5b50919050565b600060001982141561429e5761429e6142b9565b5060010190565b6000826142b4576142b46142cf565b500690565b634e487b7160e01b600052601160045260246000fd5b634e487b7160e01b600052601260045260246000fd5b634e487b7160e01b600052603160045260246000fd5b634e487b7160e01b600052603260045260246000fd5b634e487b7160e01b600052604160045260246000fd5b6001600160a01b0381168114610c2f57600080fd5b8015158114610c2f57600080fd5b6001600160e01b031981168114610c2f57600080fdfefa8e4989e1d689f7bc5c4b25b87efb51fecdecb19ba62847e29c759e12a89acd048bc71fa1cb2c119c339cf9cf00a97996a19a9d991ce5fe049f2fa5459e7990f0f4b159a6e2a4815eb3ca3df080bfa70c9270662c59bcaa4479a456220183e60538d24a8b7882d7b2e36af243d4af61c23e86e3daa6cb8c887b53220b2f57207c9d7f6f02908185bffb3f7fc9afb29fd7bf93675af8fd4b655ee05c2cee1e0ea264697066735822122044337dea7acb60689f89e1ba1a436ba7cbe3cc4110c2ec60eb8b32fbc7fbdc7d64736f6c63430008070033",
  "immutableReferences": {},
  "source": "// SPDX-License-Identifier: MIT\n// Inspired by SushiSwap SushiBar\n\npragma solidity ^0.8.0;\n\nimport \"../src/SmartConsensusMachine.sol\";\nimport \"@openzeppelin/contracts/token/ERC721/extensions/ERC721Enumerable.sol\";\nimport \"@openzeppelin/contracts/token/ERC721/ERC721.sol\";\nimport \"@openzeppelin/contracts/token/ERC20/ERC20.sol\";\n\ncontract JuryPool is ERC721, ERC721Enumerable, SmartConsensusMachine {\n\n    ERC20 public redPens;\n    uint private tokenIdGenerator = 1;\n    uint256 public totalShares = 0;\n\n    constructor(address _AddressManagerAddress) SmartConsensusMachine(_AddressManagerAddress) ERC721(\"Jurry Hats\", \"Hat\")  {\n\n\n    }\n\n    mapping (uint => uint256) public JurrorStake;\n\n    \n    function updateStakingToken() public {\n        redPens = ERC20(addressManager.RedPenTokenAddress());\n    }\n\n    function getHatBalance(uint _tokenId) public returns (uint256 hatBalance) {\n\n        // hatBalance = JurrorStake[_tokenId];\n        return JurrorStake[_tokenId];\n    }\n    \n    function stakePens() public {\n        uint256 amountToStake = redPens.balanceOf(msg.sender);\n        stakePens(amountToStake);\n    }\n\n    function stakePens(uint256 _amount) public {\n \n        uint256 totalPensInPool = redPens.balanceOf(address(this));\n        uint256 totalSharesCirculating = totalShares;\n        uint _tokenId;\n        redPens.transferFrom(msg.sender, address(this), _amount);\n\n\n        if ( balanceOf(msg.sender) < 1) {\n            _tokenId = tokenIdGenerator;\n            _safeMint(msg.sender, _tokenId);\n            tokenIdGenerator += 1;\n        } else if (balanceOf(msg.sender) >= 1) {\n            _tokenId = tokenOfOwnerByIndex(msg.sender, 1);\n        }   \n\n        if (totalSharesCirculating > 0) {\n            _amount = (_amount * totalSharesCirculating / totalPensInPool);\n        }\n\n        JurrorStake[_tokenId] += _amount; \n        totalShares += _amount;\n\n    }\n\n    // Only use this one if you have multiple staked positions that you are managing manually.\n    function stakePens(uint256 _amount, uint tokenIdToStakeWith) public {\n \n        uint256 totalPensInPool = redPens.balanceOf(address(this));\n        uint _tokenId;\n        redPens.transferFrom(msg.sender, address(this), _amount);\n\n        if (totalShares > 0) {\n            _amount = (_amount * totalShares / totalPensInPool);\n        }\n\n        JurrorStake[_tokenId] += _amount; \n        totalShares += _amount;\n\n    }\n\n\n    function returnHats() public {\n        require(balanceOf(msg.sender) > 0);\n         uint256 _tokenId = tokenOfOwnerByIndex(msg.sender, 1);\n         returnHats(_tokenId);\n    }\n\n    function returnHats(uint256 _tokenId) public {\n\n        require (ownerOf(_tokenId) == msg.sender);\n        uint256 _amount = JurrorStake[_tokenId];\n        uint256 pensToDistrubute = (_amount * (redPens.balanceOf(address(this))) / totalShares);\n        JurrorStake[_tokenId] = 0;\n        totalShares -= _amount;\n        _burn(_tokenId);\n        redPens.transfer(msg.sender, pensToDistrubute);\n    \n    }\n\n    function returnHats(uint256 _amount, uint256 _tokenId) public {\n\n        require (ownerOf(_tokenId) == msg.sender);\n        if (JurrorStake[_tokenId] <= _amount) {\n            _amount = JurrorStake[_tokenId];\n        }\n        uint256 pensToDistrubute = (_amount * (redPens.balanceOf(address(this))) / totalShares);\n        totalShares -= _amount;\n\n        if (JurrorStake[_tokenId] == _amount) {\n            _burn(_tokenId);\n            JurrorStake[_tokenId] = 0;\n\n        } else if (JurrorStake[_tokenId] > _amount) {\n            JurrorStake[_tokenId] -= _amount;\n        }\n        \n        redPens.transfer(msg.sender, pensToDistrubute);\n    \n    }\n\n    function slashToken(uint _tokenIdToSlash, uint _percentToSlashInWholeNumber) public BAILIFF {\n\n        require(_percentToSlashInWholeNumber < 100);\n        uint256 amountToSlash = JurrorStake[_tokenIdToSlash] * _percentToSlashInWholeNumber / 100;\n        _slash(_tokenIdToSlash, amountToSlash);\n\n    }\n\n    function _slash(uint _tokenIdToSlash, uint _amountToSlash) internal {\n        JurrorStake[_tokenIdToSlash] -= _amountToSlash;\n    }\n\n    function _updateTokenAddresses() internal override {\n\n        updateStakingToken();\n        super._updateTokenAddresses();\n        \n    }\n\n    function _beforeTokenTransfer(address from, address to, uint256 amount)\n        internal\n        override (ERC721, ERC721Enumerable)\n    {\n        super._beforeTokenTransfer(from, to, amount);\n    }\n\n    function supportsInterface(bytes4 interfaceId) public view virtual override (AccessControlEnumerable, ERC721, ERC721Enumerable) returns (bool) {\n        return\n            interfaceId == type(IERC721).interfaceId ||\n            interfaceId == type(IERC20).interfaceId ||\n            interfaceId == type(IERC721Metadata).interfaceId ||\n            super.supportsInterface(interfaceId);\n    }\n\n}",
  "sourcePath": "/home/n/Desktop/PinkSlips_FrontEnd_REFORMAT/contracts/juryAndAppeals/JuryPool.sol",
  "compiler": {
    "name": "solc",
    "version": "0.8.7+commit.e28d00a7.Emscripten.clang"
  },
  "schemaVersion": "3.4.1",
  "updatedAt": "2021-08-19T06:45:05.558Z",
  "networkType": "ethereum",
  "devdoc": {
    "kind": "dev",
    "methods": {
      "approve(address,uint256)": {
        "details": "See {IERC721-approve}."
      },
      "balanceOf(address)": {
        "details": "See {IERC721-balanceOf}."
      },
      "getApproved(uint256)": {
        "details": "See {IERC721-getApproved}."
      },
      "getRoleAdmin(bytes32)": {
        "details": "Returns the admin role that controls `role`. See {grantRole} and {revokeRole}. To change a role's admin, use {_setRoleAdmin}."
      },
      "getRoleMember(bytes32,uint256)": {
        "details": "Returns one of the accounts that have `role`. `index` must be a value between 0 and {getRoleMemberCount}, non-inclusive. Role bearers are not sorted in any particular way, and their ordering may change at any point. WARNING: When using {getRoleMember} and {getRoleMemberCount}, make sure you perform all queries on the same block. See the following https://forum.openzeppelin.com/t/iterating-over-elements-on-enumerableset-in-openzeppelin-contracts/2296[forum post] for more information."
      },
      "getRoleMemberCount(bytes32)": {
        "details": "Returns the number of accounts that have `role`. Can be used together with {getRoleMember} to enumerate all bearers of a role."
      },
      "grantRole(bytes32,address)": {
        "details": "Overload {grantRole} to track enumerable memberships"
      },
      "hasRole(bytes32,address)": {
        "details": "Returns `true` if `account` has been granted `role`."
      },
      "isApprovedForAll(address,address)": {
        "details": "See {IERC721-isApprovedForAll}."
      },
      "name()": {
        "details": "See {IERC721Metadata-name}."
      },
      "ownerOf(uint256)": {
        "details": "See {IERC721-ownerOf}."
      },
      "renounceRole(bytes32,address)": {
        "details": "Overload {renounceRole} to track enumerable memberships"
      },
      "revokeRole(bytes32,address)": {
        "details": "Overload {revokeRole} to track enumerable memberships"
      },
      "safeTransferFrom(address,address,uint256)": {
        "details": "See {IERC721-safeTransferFrom}."
      },
      "safeTransferFrom(address,address,uint256,bytes)": {
        "details": "See {IERC721-safeTransferFrom}."
      },
      "setApprovalForAll(address,bool)": {
        "details": "See {IERC721-setApprovalForAll}."
      },
      "symbol()": {
        "details": "See {IERC721Metadata-symbol}."
      },
      "tokenByIndex(uint256)": {
        "details": "See {IERC721Enumerable-tokenByIndex}."
      },
      "tokenOfOwnerByIndex(address,uint256)": {
        "details": "See {IERC721Enumerable-tokenOfOwnerByIndex}."
      },
      "tokenURI(uint256)": {
        "details": "See {IERC721Metadata-tokenURI}."
      },
      "totalSupply()": {
        "details": "See {IERC721Enumerable-totalSupply}."
      },
      "transferFrom(address,address,uint256)": {
        "details": "See {IERC721-transferFrom}."
      }
    },
    "version": 1
  },
  "userdoc": {
    "kind": "user",
    "methods": {},
    "version": 1
  }
}