{
  "contractName": "JuryPool",
  "abi": [
    {
      "inputs": [
        {
          "internalType": "address",
          "name": "_AddressManagerAddress",
          "type": "address"
        }
      ],
      "stateMutability": "nonpayable",
      "type": "constructor"
    },
    {
      "anonymous": false,
      "inputs": [
        {
          "indexed": true,
          "internalType": "address",
          "name": "owner",
          "type": "address"
        },
        {
          "indexed": true,
          "internalType": "address",
          "name": "approved",
          "type": "address"
        },
        {
          "indexed": true,
          "internalType": "uint256",
          "name": "tokenId",
          "type": "uint256"
        }
      ],
      "name": "Approval",
      "type": "event"
    },
    {
      "anonymous": false,
      "inputs": [
        {
          "indexed": true,
          "internalType": "address",
          "name": "owner",
          "type": "address"
        },
        {
          "indexed": true,
          "internalType": "address",
          "name": "operator",
          "type": "address"
        },
        {
          "indexed": false,
          "internalType": "bool",
          "name": "approved",
          "type": "bool"
        }
      ],
      "name": "ApprovalForAll",
      "type": "event"
    },
    {
      "anonymous": false,
      "inputs": [
        {
          "indexed": true,
          "internalType": "bytes32",
          "name": "role",
          "type": "bytes32"
        },
        {
          "indexed": true,
          "internalType": "bytes32",
          "name": "previousAdminRole",
          "type": "bytes32"
        },
        {
          "indexed": true,
          "internalType": "bytes32",
          "name": "newAdminRole",
          "type": "bytes32"
        }
      ],
      "name": "RoleAdminChanged",
      "type": "event"
    },
    {
      "anonymous": false,
      "inputs": [
        {
          "indexed": true,
          "internalType": "bytes32",
          "name": "role",
          "type": "bytes32"
        },
        {
          "indexed": true,
          "internalType": "address",
          "name": "account",
          "type": "address"
        },
        {
          "indexed": true,
          "internalType": "address",
          "name": "sender",
          "type": "address"
        }
      ],
      "name": "RoleGranted",
      "type": "event"
    },
    {
      "anonymous": false,
      "inputs": [
        {
          "indexed": true,
          "internalType": "bytes32",
          "name": "role",
          "type": "bytes32"
        },
        {
          "indexed": true,
          "internalType": "address",
          "name": "account",
          "type": "address"
        },
        {
          "indexed": true,
          "internalType": "address",
          "name": "sender",
          "type": "address"
        }
      ],
      "name": "RoleRevoked",
      "type": "event"
    },
    {
      "anonymous": false,
      "inputs": [
        {
          "indexed": true,
          "internalType": "address",
          "name": "from",
          "type": "address"
        },
        {
          "indexed": true,
          "internalType": "address",
          "name": "to",
          "type": "address"
        },
        {
          "indexed": true,
          "internalType": "uint256",
          "name": "tokenId",
          "type": "uint256"
        }
      ],
      "name": "Transfer",
      "type": "event"
    },
    {
      "inputs": [],
      "name": "AddressManagerAddress",
      "outputs": [
        {
          "internalType": "address",
          "name": "",
          "type": "address"
        }
      ],
      "stateMutability": "view",
      "type": "function",
      "constant": true
    },
    {
      "inputs": [],
      "name": "ChadBadgeAddress",
      "outputs": [
        {
          "internalType": "address",
          "name": "",
          "type": "address"
        }
      ],
      "stateMutability": "view",
      "type": "function",
      "constant": true
    },
    {
      "inputs": [],
      "name": "DEFAULT_ADMIN_ROLE",
      "outputs": [
        {
          "internalType": "bytes32",
          "name": "",
          "type": "bytes32"
        }
      ],
      "stateMutability": "view",
      "type": "function",
      "constant": true
    },
    {
      "inputs": [],
      "name": "GAVELS_BAILIFF",
      "outputs": [
        {
          "internalType": "bytes32",
          "name": "",
          "type": "bytes32"
        }
      ],
      "stateMutability": "view",
      "type": "function",
      "constant": true
    },
    {
      "inputs": [],
      "name": "GavelDAOAgent",
      "outputs": [
        {
          "internalType": "address",
          "name": "",
          "type": "address"
        }
      ],
      "stateMutability": "view",
      "type": "function",
      "constant": true
    },
    {
      "inputs": [],
      "name": "GavelTokenAddress",
      "outputs": [
        {
          "internalType": "address",
          "name": "",
          "type": "address"
        }
      ],
      "stateMutability": "view",
      "type": "function",
      "constant": true
    },
    {
      "inputs": [],
      "name": "GavelVote",
      "outputs": [
        {
          "internalType": "bool",
          "name": "",
          "type": "bool"
        }
      ],
      "stateMutability": "view",
      "type": "function",
      "constant": true
    },
    {
      "inputs": [],
      "name": "GoldStarAddress",
      "outputs": [
        {
          "internalType": "address",
          "name": "",
          "type": "address"
        }
      ],
      "stateMutability": "view",
      "type": "function",
      "constant": true
    },
    {
      "inputs": [],
      "name": "JERK_ROLE",
      "outputs": [
        {
          "internalType": "bytes32",
          "name": "",
          "type": "bytes32"
        }
      ],
      "stateMutability": "view",
      "type": "function",
      "constant": true
    },
    {
      "inputs": [],
      "name": "JURY_BAILIFF",
      "outputs": [
        {
          "internalType": "bytes32",
          "name": "",
          "type": "bytes32"
        }
      ],
      "stateMutability": "view",
      "type": "function",
      "constant": true
    },
    {
      "inputs": [
        {
          "internalType": "uint256",
          "name": "",
          "type": "uint256"
        }
      ],
      "name": "JurrorStake",
      "outputs": [
        {
          "internalType": "uint256",
          "name": "",
          "type": "uint256"
        }
      ],
      "stateMutability": "view",
      "type": "function",
      "constant": true
    },
    {
      "inputs": [],
      "name": "JuryDAOAgent",
      "outputs": [
        {
          "internalType": "address",
          "name": "",
          "type": "address"
        }
      ],
      "stateMutability": "view",
      "type": "function",
      "constant": true
    },
    {
      "inputs": [],
      "name": "JuryPoolAddress",
      "outputs": [
        {
          "internalType": "address",
          "name": "",
          "type": "address"
        }
      ],
      "stateMutability": "view",
      "type": "function",
      "constant": true
    },
    {
      "inputs": [],
      "name": "JuryVote",
      "outputs": [
        {
          "internalType": "bool",
          "name": "",
          "type": "bool"
        }
      ],
      "stateMutability": "view",
      "type": "function",
      "constant": true
    },
    {
      "inputs": [],
      "name": "MINI_BAILIFF_ROLE",
      "outputs": [
        {
          "internalType": "bytes32",
          "name": "",
          "type": "bytes32"
        }
      ],
      "stateMutability": "view",
      "type": "function",
      "constant": true
    },
    {
      "inputs": [],
      "name": "MiniBailiff",
      "outputs": [
        {
          "internalType": "address",
          "name": "",
          "type": "address"
        }
      ],
      "stateMutability": "view",
      "type": "function",
      "constant": true
    },
    {
      "inputs": [],
      "name": "PinkSlipAddress",
      "outputs": [
        {
          "internalType": "address",
          "name": "",
          "type": "address"
        }
      ],
      "stateMutability": "view",
      "type": "function",
      "constant": true
    },
    {
      "inputs": [],
      "name": "RedPenTokenAddress",
      "outputs": [
        {
          "internalType": "address",
          "name": "",
          "type": "address"
        }
      ],
      "stateMutability": "view",
      "type": "function",
      "constant": true
    },
    {
      "inputs": [],
      "name": "THE_COURT_ROLE",
      "outputs": [
        {
          "internalType": "bytes32",
          "name": "",
          "type": "bytes32"
        }
      ],
      "stateMutability": "view",
      "type": "function",
      "constant": true
    },
    {
      "inputs": [],
      "name": "TheCourtAddress",
      "outputs": [
        {
          "internalType": "address",
          "name": "",
          "type": "address"
        }
      ],
      "stateMutability": "view",
      "type": "function",
      "constant": true
    },
    {
      "inputs": [],
      "name": "TreasuryAddress",
      "outputs": [
        {
          "internalType": "address",
          "name": "",
          "type": "address"
        }
      ],
      "stateMutability": "view",
      "type": "function",
      "constant": true
    },
    {
      "inputs": [],
      "name": "addressManager",
      "outputs": [
        {
          "internalType": "contract AddressManager",
          "name": "",
          "type": "address"
        }
      ],
      "stateMutability": "view",
      "type": "function",
      "constant": true
    },
    {
      "inputs": [
        {
          "internalType": "address",
          "name": "to",
          "type": "address"
        },
        {
          "internalType": "uint256",
          "name": "tokenId",
          "type": "uint256"
        }
      ],
      "name": "approve",
      "outputs": [],
      "stateMutability": "nonpayable",
      "type": "function"
    },
    {
      "inputs": [
        {
          "internalType": "address",
          "name": "owner",
          "type": "address"
        }
      ],
      "name": "balanceOf",
      "outputs": [
        {
          "internalType": "uint256",
          "name": "",
          "type": "uint256"
        }
      ],
      "stateMutability": "view",
      "type": "function",
      "constant": true
    },
    {
      "inputs": [
        {
          "internalType": "uint256",
          "name": "tokenId",
          "type": "uint256"
        }
      ],
      "name": "getApproved",
      "outputs": [
        {
          "internalType": "address",
          "name": "",
          "type": "address"
        }
      ],
      "stateMutability": "view",
      "type": "function",
      "constant": true
    },
    {
      "inputs": [
        {
          "internalType": "bytes32",
          "name": "role",
          "type": "bytes32"
        }
      ],
      "name": "getRoleAdmin",
      "outputs": [
        {
          "internalType": "bytes32",
          "name": "",
          "type": "bytes32"
        }
      ],
      "stateMutability": "view",
      "type": "function",
      "constant": true
    },
    {
      "inputs": [
        {
          "internalType": "bytes32",
          "name": "role",
          "type": "bytes32"
        },
        {
          "internalType": "uint256",
          "name": "index",
          "type": "uint256"
        }
      ],
      "name": "getRoleMember",
      "outputs": [
        {
          "internalType": "address",
          "name": "",
          "type": "address"
        }
      ],
      "stateMutability": "view",
      "type": "function",
      "constant": true
    },
    {
      "inputs": [
        {
          "internalType": "bytes32",
          "name": "role",
          "type": "bytes32"
        }
      ],
      "name": "getRoleMemberCount",
      "outputs": [
        {
          "internalType": "uint256",
          "name": "",
          "type": "uint256"
        }
      ],
      "stateMutability": "view",
      "type": "function",
      "constant": true
    },
    {
      "inputs": [
        {
          "internalType": "bytes32",
          "name": "role",
          "type": "bytes32"
        },
        {
          "internalType": "address",
          "name": "account",
          "type": "address"
        }
      ],
      "name": "grantRole",
      "outputs": [],
      "stateMutability": "nonpayable",
      "type": "function"
    },
    {
      "inputs": [
        {
          "internalType": "bytes32",
          "name": "role",
          "type": "bytes32"
        },
        {
          "internalType": "address",
          "name": "account",
          "type": "address"
        }
      ],
      "name": "hasRole",
      "outputs": [
        {
          "internalType": "bool",
          "name": "",
          "type": "bool"
        }
      ],
      "stateMutability": "view",
      "type": "function",
      "constant": true
    },
    {
      "inputs": [
        {
          "internalType": "address",
          "name": "owner",
          "type": "address"
        },
        {
          "internalType": "address",
          "name": "operator",
          "type": "address"
        }
      ],
      "name": "isApprovedForAll",
      "outputs": [
        {
          "internalType": "bool",
          "name": "",
          "type": "bool"
        }
      ],
      "stateMutability": "view",
      "type": "function",
      "constant": true
    },
    {
      "inputs": [],
      "name": "jerkSanctions",
      "outputs": [
        {
          "internalType": "bool",
          "name": "",
          "type": "bool"
        }
      ],
      "stateMutability": "view",
      "type": "function",
      "constant": true
    },
    {
      "inputs": [],
      "name": "name",
      "outputs": [
        {
          "internalType": "string",
          "name": "",
          "type": "string"
        }
      ],
      "stateMutability": "view",
      "type": "function",
      "constant": true
    },
    {
      "inputs": [
        {
          "internalType": "uint256",
          "name": "tokenId",
          "type": "uint256"
        }
      ],
      "name": "ownerOf",
      "outputs": [
        {
          "internalType": "address",
          "name": "",
          "type": "address"
        }
      ],
      "stateMutability": "view",
      "type": "function",
      "constant": true
    },
    {
      "inputs": [],
      "name": "redPens",
      "outputs": [
        {
          "internalType": "contract ERC20",
          "name": "",
          "type": "address"
        }
      ],
      "stateMutability": "view",
      "type": "function",
      "constant": true
    },
    {
      "inputs": [
        {
          "internalType": "bytes32",
          "name": "role",
          "type": "bytes32"
        },
        {
          "internalType": "address",
          "name": "account",
          "type": "address"
        }
      ],
      "name": "renounceRole",
      "outputs": [],
      "stateMutability": "nonpayable",
      "type": "function"
    },
    {
      "inputs": [],
      "name": "resetVote",
      "outputs": [],
      "stateMutability": "nonpayable",
      "type": "function"
    },
    {
      "inputs": [
        {
          "internalType": "bytes32",
          "name": "role",
          "type": "bytes32"
        },
        {
          "internalType": "address",
          "name": "account",
          "type": "address"
        }
      ],
      "name": "revokeRole",
      "outputs": [],
      "stateMutability": "nonpayable",
      "type": "function"
    },
    {
      "inputs": [
        {
          "internalType": "address",
          "name": "from",
          "type": "address"
        },
        {
          "internalType": "address",
          "name": "to",
          "type": "address"
        },
        {
          "internalType": "uint256",
          "name": "tokenId",
          "type": "uint256"
        }
      ],
      "name": "safeTransferFrom",
      "outputs": [],
      "stateMutability": "nonpayable",
      "type": "function"
    },
    {
      "inputs": [
        {
          "internalType": "address",
          "name": "from",
          "type": "address"
        },
        {
          "internalType": "address",
          "name": "to",
          "type": "address"
        },
        {
          "internalType": "uint256",
          "name": "tokenId",
          "type": "uint256"
        },
        {
          "internalType": "bytes",
          "name": "_data",
          "type": "bytes"
        }
      ],
      "name": "safeTransferFrom",
      "outputs": [],
      "stateMutability": "nonpayable",
      "type": "function"
    },
    {
      "inputs": [
        {
          "internalType": "address",
          "name": "operator",
          "type": "address"
        },
        {
          "internalType": "bool",
          "name": "approved",
          "type": "bool"
        }
      ],
      "name": "setApprovalForAll",
      "outputs": [],
      "stateMutability": "nonpayable",
      "type": "function"
    },
    {
      "inputs": [],
      "name": "symbol",
      "outputs": [
        {
          "internalType": "string",
          "name": "",
          "type": "string"
        }
      ],
      "stateMutability": "view",
      "type": "function",
      "constant": true
    },
    {
      "inputs": [],
      "name": "syncAllRoles",
      "outputs": [],
      "stateMutability": "nonpayable",
      "type": "function"
    },
    {
      "inputs": [
        {
          "internalType": "bytes32",
          "name": "ROLE_TO_SYNC",
          "type": "bytes32"
        }
      ],
      "name": "syncSingleRole",
      "outputs": [],
      "stateMutability": "nonpayable",
      "type": "function"
    },
    {
      "inputs": [],
      "name": "syncVotes",
      "outputs": [],
      "stateMutability": "nonpayable",
      "type": "function"
    },
    {
      "inputs": [
        {
          "internalType": "uint256",
          "name": "index",
          "type": "uint256"
        }
      ],
      "name": "tokenByIndex",
      "outputs": [
        {
          "internalType": "uint256",
          "name": "",
          "type": "uint256"
        }
      ],
      "stateMutability": "view",
      "type": "function",
      "constant": true
    },
    {
      "inputs": [
        {
          "internalType": "address",
          "name": "owner",
          "type": "address"
        },
        {
          "internalType": "uint256",
          "name": "index",
          "type": "uint256"
        }
      ],
      "name": "tokenOfOwnerByIndex",
      "outputs": [
        {
          "internalType": "uint256",
          "name": "",
          "type": "uint256"
        }
      ],
      "stateMutability": "view",
      "type": "function",
      "constant": true
    },
    {
      "inputs": [
        {
          "internalType": "uint256",
          "name": "tokenId",
          "type": "uint256"
        }
      ],
      "name": "tokenURI",
      "outputs": [
        {
          "internalType": "string",
          "name": "",
          "type": "string"
        }
      ],
      "stateMutability": "view",
      "type": "function",
      "constant": true
    },
    {
      "inputs": [],
      "name": "totalShares",
      "outputs": [
        {
          "internalType": "uint256",
          "name": "",
          "type": "uint256"
        }
      ],
      "stateMutability": "view",
      "type": "function",
      "constant": true
    },
    {
      "inputs": [],
      "name": "totalSupply",
      "outputs": [
        {
          "internalType": "uint256",
          "name": "",
          "type": "uint256"
        }
      ],
      "stateMutability": "view",
      "type": "function",
      "constant": true
    },
    {
      "inputs": [
        {
          "internalType": "address",
          "name": "from",
          "type": "address"
        },
        {
          "internalType": "address",
          "name": "to",
          "type": "address"
        },
        {
          "internalType": "uint256",
          "name": "tokenId",
          "type": "uint256"
        }
      ],
      "name": "transferFrom",
      "outputs": [],
      "stateMutability": "nonpayable",
      "type": "function"
    },
    {
      "inputs": [],
      "name": "updateAddressManager",
      "outputs": [],
      "stateMutability": "nonpayable",
      "type": "function"
    },
    {
      "inputs": [],
      "name": "updateAllAddresses",
      "outputs": [],
      "stateMutability": "nonpayable",
      "type": "function"
    },
    {
      "inputs": [],
      "name": "updateAllRoles",
      "outputs": [],
      "stateMutability": "nonpayable",
      "type": "function"
    },
    {
      "inputs": [],
      "name": "updateDAOAddresses",
      "outputs": [],
      "stateMutability": "nonpayable",
      "type": "function"
    },
    {
      "inputs": [
        {
          "internalType": "bytes32",
          "name": "ROLE_TO_UPDATE",
          "type": "bytes32"
        }
      ],
      "name": "updateSingleRole",
      "outputs": [],
      "stateMutability": "nonpayable",
      "type": "function"
    },
    {
      "inputs": [],
      "name": "updateTokenAddresses",
      "outputs": [],
      "stateMutability": "nonpayable",
      "type": "function"
    },
    {
      "inputs": [],
      "name": "updateStakingToken",
      "outputs": [],
      "stateMutability": "nonpayable",
      "type": "function"
    },
    {
      "inputs": [
        {
          "internalType": "uint256",
          "name": "_tokenId",
          "type": "uint256"
        }
      ],
      "name": "getHatBalance",
      "outputs": [
        {
          "internalType": "uint256",
          "name": "hatBalance",
          "type": "uint256"
        }
      ],
      "stateMutability": "nonpayable",
      "type": "function"
    },
    {
      "inputs": [
        {
          "internalType": "uint256",
          "name": "_amount",
          "type": "uint256"
        },
        {
          "internalType": "uint256",
          "name": "tokenIdToStakeWith",
          "type": "uint256"
        }
      ],
      "name": "stakePens",
      "outputs": [],
      "stateMutability": "nonpayable",
      "type": "function"
    },
    {
      "inputs": [],
      "name": "stakePens",
      "outputs": [],
      "stateMutability": "nonpayable",
      "type": "function"
    },
    {
      "inputs": [
        {
          "internalType": "uint256",
          "name": "_amount",
          "type": "uint256"
        }
      ],
      "name": "stakePens",
      "outputs": [],
      "stateMutability": "nonpayable",
      "type": "function"
    },
    {
      "inputs": [
        {
          "internalType": "uint256",
          "name": "_amount",
          "type": "uint256"
        },
        {
          "internalType": "uint256",
          "name": "_tokenId",
          "type": "uint256"
        }
      ],
      "name": "returnHats",
      "outputs": [],
      "stateMutability": "nonpayable",
      "type": "function"
    },
    {
      "inputs": [
        {
          "internalType": "uint256",
          "name": "_tokenId",
          "type": "uint256"
        }
      ],
      "name": "returnHats",
      "outputs": [],
      "stateMutability": "nonpayable",
      "type": "function"
    },
    {
      "inputs": [],
      "name": "returnHats",
      "outputs": [],
      "stateMutability": "nonpayable",
      "type": "function"
    },
    {
      "inputs": [
        {
          "internalType": "uint256",
          "name": "_tokenIdToSlash",
          "type": "uint256"
        },
        {
          "internalType": "uint256",
          "name": "_percentToSlashInWholeNumber",
          "type": "uint256"
        }
      ],
      "name": "slashToken",
      "outputs": [],
      "stateMutability": "nonpayable",
      "type": "function"
    },
    {
      "inputs": [
        {
          "internalType": "bytes4",
          "name": "interfaceId",
          "type": "bytes4"
        }
      ],
      "name": "supportsInterface",
      "outputs": [
        {
          "internalType": "bool",
          "name": "",
          "type": "bool"
        }
      ],
      "stateMutability": "view",
      "type": "function",
      "constant": true
    }
  ],
  "bytecode": "0x6080604052600a805460ff191690556019805463ffffffff60a01b191690556001601b556000601c553480156200003557600080fd5b5060405162004f7138038062004f71833981016040819052620000589162000c6f565b604080518082018252600a8152694a75727279204861747360b01b60208083019182528351808501909452600384526212185d60ea1b90840152815184938493929091620000a99160009162000bc9565b508051620000bf90600190602084019062000bc9565b5050600d80546001600160a01b039093166001600160a01b03199384168117909155601980549093161790915550620000f762000234565b620001016200024a565b6017546200011b906000906001600160a01b031662000395565b60175462000154907f0538d24a8b7882d7b2e36af243d4af61c23e86e3daa6cb8c887b53220b2f5720906001600160a01b031662000395565b6014546200018d907f048bc71fa1cb2c119c339cf9cf00a97996a19a9d991ce5fe049f2fa5459e7990906001600160a01b031662000395565b601554620001c6907ffa8e4989e1d689f7bc5c4b25b87efb51fecdecb19ba62847e29c759e12a89acd906001600160a01b031662000395565b601854620001ff907ff0f4b159a6e2a4815eb3ca3df080bfa70c9270662c59bcaa4479a456220183e6906001600160a01b031662000395565b6200022c7f7c9d7f6f02908185bffb3f7fc9afb29fd7bf93675af8fd4b655ee05c2cee1e0e600062000395565b505062000d02565b6200023e620003d8565b6200024862000643565b565b601960009054906101000a90046001600160a01b03166001600160a01b031663ff7e88ec6040518163ffffffff1660e01b815260040160206040518083038186803b1580156200029957600080fd5b505afa158015620002ae573d6000803e3d6000fd5b505050506040513d601f19601f82011682018060405250810190620002d4919062000ca1565b601960156101000a81548160ff021916908315150217905550601960009054906101000a90046001600160a01b03166001600160a01b0316632fb565856040518163ffffffff1660e01b815260040160206040518083038186803b1580156200033c57600080fd5b505afa15801562000351573d6000803e3d6000fd5b505050506040513d601f19601f8201168201806040525081019062000377919062000ca1565b60198054911515600160b01b0260ff60b01b19909216919091179055565b620003ac82826200066260201b62001adc1760201c565b6000828152600c60209081526040909120620003d391839062001ae662000672821b17901c565b505050565b601960009054906101000a90046001600160a01b03166001600160a01b031663dadf56ac6040518163ffffffff1660e01b815260040160206040518083038186803b1580156200042757600080fd5b505afa1580156200043c573d6000803e3d6000fd5b505050506040513d601f19601f8201168201806040525081019062000462919062000c6f565b601480546001600160a01b0319166001600160a01b039283161790556019546040805163024bebe960e01b81529051919092169163024bebe9916004808301926020929190829003018186803b158015620004bc57600080fd5b505afa158015620004d1573d6000803e3d6000fd5b505050506040513d601f19601f82011682018060405250810190620004f7919062000c6f565b601580546001600160a01b0319166001600160a01b0392831617905560195460408051635b5c251f60e01b815290519190921691635b5c251f916004808301926020929190829003018186803b1580156200055157600080fd5b505afa15801562000566573d6000803e3d6000fd5b505050506040513d601f19601f820116820180604052508101906200058c919062000c6f565b601680546001600160a01b0319166001600160a01b0392831617905560195460408051637310bf1d60e11b81529051919092169163e6217e3a916004808301926020929190829003018186803b158015620005e657600080fd5b505afa158015620005fb573d6000803e3d6000fd5b505050506040513d601f19601f8201168201806040525081019062000621919062000c6f565b601880546001600160a01b0319166001600160a01b0392909216919091179055565b6200064d62000692565b620002486200073e60201b62001afb1760201c565b6200066e828262000ad3565b5050565b600062000689836001600160a01b03841662000b77565b90505b92915050565b601960009054906101000a90046001600160a01b03166001600160a01b031663762ddb596040518163ffffffff1660e01b815260040160206040518083038186803b158015620006e157600080fd5b505afa158015620006f6573d6000803e3d6000fd5b505050506040513d601f19601f820116820180604052508101906200071c919062000c6f565b601a80546001600160a01b0319166001600160a01b0392909216919091179055565b601960009054906101000a90046001600160a01b03166001600160a01b03166321d7f0086040518163ffffffff1660e01b815260040160206040518083038186803b1580156200078d57600080fd5b505afa158015620007a2573d6000803e3d6000fd5b505050506040513d601f19601f82011682018060405250810190620007c8919062000c6f565b600e80546001600160a01b0319166001600160a01b039283161790556019546040805163762ddb5960e01b81529051919092169163762ddb59916004808301926020929190829003018186803b1580156200082257600080fd5b505afa15801562000837573d6000803e3d6000fd5b505050506040513d601f19601f820116820180604052508101906200085d919062000c6f565b600f80546001600160a01b0319166001600160a01b039283161790556019546040805163bfb7dc9960e01b81529051919092169163bfb7dc99916004808301926020929190829003018186803b158015620008b757600080fd5b505afa158015620008cc573d6000803e3d6000fd5b505050506040513d601f19601f82011682018060405250810190620008f2919062000c6f565b601080546001600160a01b0319166001600160a01b0392831617905560195460408051633e6111eb60e21b81529051919092169163f98447ac916004808301926020929190829003018186803b1580156200094c57600080fd5b505afa15801562000961573d6000803e3d6000fd5b505050506040513d601f19601f8201168201806040525081019062000987919062000c6f565b601180546001600160a01b0319166001600160a01b0392831617905560195460408051630fe1ba9f60e21b815290519190921691633f86ea7c916004808301926020929190829003018186803b158015620009e157600080fd5b505afa158015620009f6573d6000803e3d6000fd5b505050506040513d601f19601f8201168201806040525081019062000a1c919062000c6f565b601280546001600160a01b0319166001600160a01b0392831617905560195460408051636b58477560e01b815290519190921691636b584775916004808301926020929190829003018186803b15801562000a7657600080fd5b505afa15801562000a8b573d6000803e3d6000fd5b505050506040513d601f19601f8201168201806040525081019062000ab1919062000c6f565b601380546001600160a01b0319166001600160a01b0392909216919091179055565b6000828152600b602090815260408083206001600160a01b038516845290915290205460ff166200066e576000828152600b602090815260408083206001600160a01b03851684529091529020805460ff1916600117905562000b333390565b6001600160a01b0316816001600160a01b0316837f2f8788117e7eff1d82e926ec794901d17c78024a50270940304540a733656f0d60405160405180910390a45050565b600081815260018301602052604081205462000bc0575081546001818101845560008481526020808220909301849055845484825282860190935260409020919091556200068c565b5060006200068c565b82805462000bd79062000cc5565b90600052602060002090601f01602090048101928262000bfb576000855562000c46565b82601f1062000c1657805160ff191683800117855562000c46565b8280016001018555821562000c46579182015b8281111562000c4657825182559160200191906001019062000c29565b5062000c5492915062000c58565b5090565b5b8082111562000c54576000815560010162000c59565b60006020828403121562000c8257600080fd5b81516001600160a01b038116811462000c9a57600080fd5b9392505050565b60006020828403121562000cb457600080fd5b8151801515811462000c9a57600080fd5b600181811c9082168062000cda57607f821691505b6020821081141562000cfc57634e487b7160e01b600052602260045260246000fd5b50919050565b61425f8062000d126000396000f3fe608060405234801561001057600080fd5b50600436106103f15760003560e01c80636ad8118b11610215578063c87b56dd11610125578063e6217e3a116100b8578063f1132b3011610087578063f1132b301461089c578063f3e94142146108a4578063f7d92d86146108b7578063f98447ac146108bf578063ff7e88ec146108d257600080fd5b8063e6217e3a14610825578063e78c266c14610838578063e985e9c51461084b578063e9a532301461088757600080fd5b8063cf4ece15116100f4578063cf4ece15146107e2578063d547741f146107f7578063dadf56ac1461080a578063e3a479551461081d57600080fd5b8063c87b56dd1461079f578063ca15c873146107b2578063cce84392146107c5578063cd19182c146107da57600080fd5b80639996abde116101a8578063a78e746f11610177578063a78e746f14610732578063a80a132114610746578063b366d0ef14610759578063b88d4fde14610779578063bfb7dc991461078c57600080fd5b80639996abde146106ef578063a217fddf14610702578063a22cb4651461070a578063a32c5e591461071d57600080fd5b8063762ddb59116101e4578063762ddb59146106ae5780639010d07c146106c157806391d14854146106d457806395d89b41146106e757600080fd5b80636ad8118b146106605780636b5847751461066857806370a082311461067b57806374f015f41461068e57600080fd5b8063326a55e01161031057806349b5e105116102a35780635b5c251f116102725780635b5c251f1461060c5780635db531a11461061f5780635f413466146106275780636352211e1461063a57806367a14f061461064d57600080fd5b806349b5e105146105d65780634d84c6d8146105de5780634f6ccce7146105e657806357f276ff146105f957600080fd5b80633a98ef39116102df5780633a98ef39146105945780633ab76e9f1461059d5780633f86ea7c146105b057806342842e0e146105c357600080fd5b8063326a55e01461055e578063329a8cfa1461056657806336568abe1461056e578063398b6d661461058157600080fd5b80631db5f0d111610388578063248a9ca311610357578063248a9ca3146105015780632f2ff15d146105245780632f745c59146105375780632fb565851461054a57600080fd5b80631db5f0d1146104b357806321d7f008146104c657806323b872dd146104d95780632436329d146104ec57600080fd5b8063095ea7b3116103c4578063095ea7b314610471578063130f63201461048657806317314d5a1461049957806318160ddd146104a157600080fd5b806301ffc9a7146103f6578063024bebe91461041e57806306fdde0314610449578063081812fc1461045e575b600080fd5b610409610404366004613dbd565b6108e6565b60405190151581526020015b60405180910390f35b601554610431906001600160a01b031681565b6040516001600160a01b039091168152602001610415565b610451610947565b6040516104159190613f1d565b61043161046c366004613d5d565b6109d9565b61048461047f366004613d14565b610a73565b005b610484610494366004613d5d565b610b89565b610484610bb6565b6008545b604051908152602001610415565b6104846104c1366004613d9b565b610bd7565b600e54610431906001600160a01b031681565b6104846104e7366004613bc5565b610cb0565b6104a560008051602061418a83398151915281565b6104a561050f366004613d5d565b6000908152600b602052604090206001015490565b610484610532366004613d76565b610ce1565b6104a5610545366004613d14565b610d03565b60195461040990600160b01b900460ff1681565b610484610d99565b610484610dab565b61048461057c366004613d76565b610eb4565b61048461058f366004613d9b565b610ed6565b6104a5601c5481565b601954610431906001600160a01b031681565b601254610431906001600160a01b031681565b6104846105d1366004613bc5565b6110be565b6104846110d9565b610484610da1565b6104a56105f4366004613d5d565b6110e1565b610484610607366004613d5d565b611174565b601654610431906001600160a01b031681565b610484611188565b601754610431906001600160a01b031681565b610431610648366004613d5d565b611190565b601a54610431906001600160a01b031681565b610484611207565b601354610431906001600160a01b031681565b6104a5610689366004613b52565b6112af565b6104a561069c366004613d5d565b601d6020526000908152604090205481565b600f54610431906001600160a01b031681565b6104316106cf366004613d9b565b611336565b6104096106e2366004613d76565b611355565b610451611380565b6104846106fd366004613d9b565b61138f565b6104a5600081565b610484610718366004613ce6565b611502565b6104a56000805160206141ea83398151915281565b60195461040990600160a01b900460ff1681565b610484610754366004613d5d565b6115c7565b6104a5610767366004613d5d565b6000908152601d602052604090205490565b610484610787366004613c06565b6116c1565b601054610431906001600160a01b031681565b6104516107ad366004613d5d565b6116f3565b6104a56107c0366004613d5d565b6117da565b6104a560008051602061420a83398151915281565b6104846117f1565b6104a56000805160206141ca83398151915281565b610484610805366004613d76565b611878565b601454610431906001600160a01b031681565b610484611882565b601854610431906001600160a01b031681565b600d54610431906001600160a01b031681565b610409610859366004613b8c565b6001600160a01b03918216600090815260056020908152604080832093909416825291909152205460ff1690565b6104a56000805160206141aa83398151915281565b6104846118af565b6104846108b2366004613d5d565b6118b7565b610484611a33565b601154610431906001600160a01b031681565b60195461040990600160a81b900460ff1681565b60006001600160e01b031982166380ac58cd60e01b148061091757506001600160e01b031982166336372b0760e01b145b8061093257506001600160e01b03198216635b5e139f60e01b145b80610941575061094182611e78565b92915050565b60606000805461095690614078565b80601f016020809104026020016040519081016040528092919081815260200182805461098290614078565b80156109cf5780601f106109a4576101008083540402835291602001916109cf565b820191906000526020600020905b8154815290600101906020018083116109b257829003601f168201915b5050505050905090565b6000818152600260205260408120546001600160a01b0316610a575760405162461bcd60e51b815260206004820152602c60248201527f4552433732313a20617070726f76656420717565727920666f72206e6f6e657860448201526b34b9ba32b73a103a37b5b2b760a11b60648201526084015b60405180910390fd5b506000908152600460205260409020546001600160a01b031690565b6000610a7e82611190565b9050806001600160a01b0316836001600160a01b03161415610aec5760405162461bcd60e51b815260206004820152602160248201527f4552433732313a20617070726f76616c20746f2063757272656e74206f776e656044820152603960f91b6064820152608401610a4e565b336001600160a01b0382161480610b085750610b088133610859565b610b7a5760405162461bcd60e51b815260206004820152603860248201527f4552433732313a20617070726f76652063616c6c6572206973206e6f74206f7760448201527f6e6572206e6f7220617070726f76656420666f7220616c6c00000000000000006064820152608401610a4e565b610b848383611e9d565b505050565b610b936001611f0b565b50610b9d81611fc8565b50610ba781612143565b50610bb26000611f0b565b5050565b610bc06001611f0b565b50610bc96122cc565b50610bd46000611f0b565b50565b610bef6000805160206141ea83398151915233611355565b80610c0d5750610c0d6000805160206141aa83398151915233611355565b80610c2b5750610c2b60008051602061418a83398151915233611355565b610c705760405162461bcd60e51b81526020600482015260166024820152752cb7ba93b932903737ba103a3432903130b4b634b33360511b6044820152606401610a4e565b60648110610c7d57600080fd5b6000828152601d6020526040812054606490610c9a908490613fff565b610ca49190613feb565b9050610b848382612412565b610cba3382612439565b610cd65760405162461bcd60e51b8152600401610a4e90613f82565b610b84838383612530565b610ceb82826126db565b6000828152600c60205260409020610b849082611ae6565b6000610d0e836112af565b8210610d705760405162461bcd60e51b815260206004820152602b60248201527f455243373231456e756d657261626c653a206f776e657220696e646578206f7560448201526a74206f6620626f756e647360a81b6064820152608401610a4e565b506001600160a01b03919091166000908152600660209081526040808320938352929052205490565b610da1612716565b610da9612971565b565b610dc36000805160206141ea83398151915233611355565b80610de15750610de16000805160206141aa83398151915233611355565b80610dff5750610dff60008051602061418a83398151915233611355565b610e445760405162461bcd60e51b81526020600482015260166024820152752cb7ba93b932903737ba103a3432903130b4b634b33360511b6044820152606401610a4e565b601960009054906101000a90046001600160a01b03166001600160a01b031663329a8cfa6040518163ffffffff1660e01b8152600401600060405180830381600087803b158015610e9457600080fd5b505af1158015610ea8573d6000803e3d6000fd5b50505050610da9611188565b610ebe8282612981565b6000828152600c60205260409020610b8490826129fb565b33610ee082611190565b6001600160a01b031614610ef357600080fd5b6000818152601d60205260409020548210610f1a576000818152601d602052604090205491505b601c54601a546040516370a0823160e01b8152306004820152600092916001600160a01b0316906370a082319060240160206040518083038186803b158015610f6257600080fd5b505afa158015610f76573d6000803e3d6000fd5b505050506040513d601f19601f82011682018060405250810190610f9a9190613df7565b610fa49085613fff565b610fae9190613feb565b905082601c6000828254610fc2919061401e565b90915550506000828152601d6020526040902054831415610ffa57610fe682612a10565b6000828152601d6020526040812055611034565b6000828152601d6020526040902054831015611034576000828152601d60205260408120805485929061102e90849061401e565b90915550505b601a5460405163a9059cbb60e01b8152336004820152602481018390526001600160a01b039091169063a9059cbb90604401602060405180830381600087803b15801561108057600080fd5b505af1158015611094573d6000803e3d6000fd5b505050506040513d601f19601f820116820180604052508101906110b89190613d40565b50505050565b610b84838383604051806020016040528060008152506116c1565b610da9612716565b60006110ec60085490565b821061114f5760405162461bcd60e51b815260206004820152602c60248201527f455243373231456e756d657261626c653a20676c6f62616c20696e646578206f60448201526b7574206f6620626f756e647360a01b6064820152608401610a4e565b6008828154811061116257611162614124565b90600052602060002001549050919050565b61117e6001611f0b565b50610ba781612ab7565b610da9612d12565b6000818152600260205260408120546001600160a01b0316806109415760405162461bcd60e51b815260206004820152602960248201527f4552433732313a206f776e657220717565727920666f72206e6f6e657869737460448201526832b73a103a37b5b2b760b91b6064820152608401610a4e565b601960009054906101000a90046001600160a01b03166001600160a01b031663762ddb596040518163ffffffff1660e01b815260040160206040518083038186803b15801561125557600080fd5b505afa158015611269573d6000803e3d6000fd5b505050506040513d601f19601f8201168201806040525081019061128d9190613b6f565b601a80546001600160a01b0319166001600160a01b0392909216919091179055565b60006001600160a01b03821661131a5760405162461bcd60e51b815260206004820152602a60248201527f4552433732313a2062616c616e636520717565727920666f7220746865207a65604482015269726f206164647265737360b01b6064820152608401610a4e565b506001600160a01b031660009081526003602052604090205490565b6000828152600c6020526040812061134e9083612e55565b9392505050565b6000918252600b602090815260408084206001600160a01b0393909316845291905290205460ff1690565b60606001805461095690614078565b601a546040516370a0823160e01b81523060048201526000916001600160a01b0316906370a082319060240160206040518083038186803b1580156113d357600080fd5b505afa1580156113e7573d6000803e3d6000fd5b505050506040513d601f19601f8201168201806040525081019061140b9190613df7565b601a546040516323b872dd60e01b8152336004820152306024820152604481018690529192506000916001600160a01b03909116906323b872dd90606401602060405180830381600087803b15801561146357600080fd5b505af1158015611477573d6000803e3d6000fd5b505050506040513d601f19601f8201168201806040525081019061149b9190613d40565b50601c54156114c05781601c54856114b39190613fff565b6114bd9190613feb565b93505b6000818152601d6020526040812080548692906114de908490613fd3565b9250508190555083601c60008282546114f79190613fd3565b909155505050505050565b6001600160a01b03821633141561155b5760405162461bcd60e51b815260206004820152601960248201527f4552433732313a20617070726f766520746f2063616c6c6572000000000000006044820152606401610a4e565b3360008181526005602090815260408083206001600160a01b03871680855290835292819020805460ff191686151590811790915590519081529192917f17307eab39ab6107e8899845ad3d59bd9653f200f220920489ca2b5937696c31910160405180910390a35050565b336115d182611190565b6001600160a01b0316146115e457600080fd5b6000818152601d602052604080822054601c54601a5492516370a0823160e01b815230600482015291939290916001600160a01b03909116906370a082319060240160206040518083038186803b15801561163e57600080fd5b505afa158015611652573d6000803e3d6000fd5b505050506040513d601f19601f820116820180604052508101906116769190613df7565b6116809084613fff565b61168a9190613feb565b6000848152601d60205260408120819055601c805492935084929091906116b290849061401e565b90915550611034905083612a10565b6116cb3383612439565b6116e75760405162461bcd60e51b8152600401610a4e90613f82565b6110b884848484612e61565b6000818152600260205260409020546060906001600160a01b03166117725760405162461bcd60e51b815260206004820152602f60248201527f4552433732314d657461646174613a2055524920717565727920666f72206e6f60448201526e3732bc34b9ba32b73a103a37b5b2b760891b6064820152608401610a4e565b600061178960408051602081019091526000815290565b905060008151116117a9576040518060200160405280600081525061134e565b806117b384612e94565b6040516020016117c4929190613e3c565b6040516020818303038152906040529392505050565b6000818152600c6020526040812061094190612f92565b601a546040516370a0823160e01b81523360048201526000916001600160a01b0316906370a082319060240160206040518083038186803b15801561183557600080fd5b505afa158015611849573d6000803e3d6000fd5b505050506040513d601f19601f8201168201806040525081019061186d9190613df7565b9050610bd4816118b7565b610ebe8282612f9c565b600061188d336112af565b1161189757600080fd5b60006118a4336001610d03565b9050610bd4816115c7565b610da9612fd7565b601a546040516370a0823160e01b81523060048201526000916001600160a01b0316906370a082319060240160206040518083038186803b1580156118fb57600080fd5b505afa15801561190f573d6000803e3d6000fd5b505050506040513d601f19601f820116820180604052508101906119339190613df7565b601c54601a546040516323b872dd60e01b81523360048201523060248201526044810186905292935090916000916001600160a01b0316906323b872dd90606401602060405180830381600087803b15801561198e57600080fd5b505af11580156119a2573d6000803e3d6000fd5b505050506040513d601f19601f820116820180604052508101906119c69190613d40565b5060016119d2336112af565b1015611a045750601b546119e6338261310e565b6001601b60008282546119f99190613fd3565b90915550611a229050565b6001611a0f336112af565b10611a2257611a1f336001610d03565b90505b81156114c057826114b38386613fff565b611a3d6001611f0b565b50611a556000805160206141ea833981519152612ab7565b50611a6d6000805160206141aa833981519152612ab7565b50611a8560008051602061418a833981519152612ab7565b50611a9d6000805160206141ca833981519152612ab7565b50611ab560008051602061420a833981519152612ab7565b50611ac06000612ab7565b50611ac9612d12565b611ad36000611f0b565b610da957600080fd5b610bb28282613128565b600061134e836001600160a01b0384166131ae565b601960009054906101000a90046001600160a01b03166001600160a01b03166321d7f0086040518163ffffffff1660e01b815260040160206040518083038186803b158015611b4957600080fd5b505afa158015611b5d573d6000803e3d6000fd5b505050506040513d601f19601f82011682018060405250810190611b819190613b6f565b600e80546001600160a01b0319166001600160a01b039283161790556019546040805163762ddb5960e01b81529051919092169163762ddb59916004808301926020929190829003018186803b158015611bda57600080fd5b505afa158015611bee573d6000803e3d6000fd5b505050506040513d601f19601f82011682018060405250810190611c129190613b6f565b600f80546001600160a01b0319166001600160a01b039283161790556019546040805163bfb7dc9960e01b81529051919092169163bfb7dc99916004808301926020929190829003018186803b158015611c6b57600080fd5b505afa158015611c7f573d6000803e3d6000fd5b505050506040513d601f19601f82011682018060405250810190611ca39190613b6f565b601080546001600160a01b0319166001600160a01b0392831617905560195460408051633e6111eb60e21b81529051919092169163f98447ac916004808301926020929190829003018186803b158015611cfc57600080fd5b505afa158015611d10573d6000803e3d6000fd5b505050506040513d601f19601f82011682018060405250810190611d349190613b6f565b601180546001600160a01b0319166001600160a01b0392831617905560195460408051630fe1ba9f60e21b815290519190921691633f86ea7c916004808301926020929190829003018186803b158015611d8d57600080fd5b505afa158015611da1573d6000803e3d6000fd5b505050506040513d601f19601f82011682018060405250810190611dc59190613b6f565b601280546001600160a01b0319166001600160a01b0392831617905560195460408051636b58477560e01b815290519190921691636b584775916004808301926020929190829003018186803b158015611e1e57600080fd5b505afa158015611e32573d6000803e3d6000fd5b505050506040513d601f19601f82011682018060405250810190611e569190613b6f565b601380546001600160a01b0319166001600160a01b0392909216919091179055565b60006001600160e01b03198216635a05180f60e01b14806109415750610941826131fd565b600081815260046020526040902080546001600160a01b0319166001600160a01b0384169081179091558190611ed282611190565b6001600160a01b03167f8c5be1e5ebec7d5bd14f71427d1e84f3dd0314c0f7b2291e5b200ac8c7c3b92560405160405180910390a45050565b600a5460009060ff168215158115151415611f685760405162461bcd60e51b815260206004820152601960248201527f416c72656164792053657420746f20746861742076616c7565000000000000006044820152606401610a4e565b600a805484151560ff19909116811790915560ff1615158115151415611fbf5760405162461bcd60e51b815260206004820152600c60248201526b29b0b33a32bc9022b93937b960a11b6044820152606401610a4e565b50600192915050565b60405163ca15c87360e01b8152600481018290526000908190309063ca15c8739060240160206040518083038186803b15801561200457600080fd5b505afa158015612018573d6000803e3d6000fd5b505050506040513d601f19601f8201168201806040525081019061203c9190613df7565b905060005b8181101561213957604051632404341f60e21b815260048101859052602481018290526000903090639010d07c9060440160206040518083038186803b15801561208a57600080fd5b505afa15801561209e573d6000803e3d6000fd5b505050506040513d601f19601f820116820180604052508101906120c29190613b6f565b60405163d547741f60e01b8152600481018790526001600160a01b0382166024820152909150309063d547741f90604401600060405180830381600087803b15801561210d57600080fd5b505af1158015612121573d6000803e3d6000fd5b50505050508080612131906140b3565b915050612041565b5060019392505050565b60195460405163ca15c87360e01b81526004810183905260009182916001600160a01b039091169063ca15c8739060240160206040518083038186803b15801561218c57600080fd5b505afa1580156121a0573d6000803e3d6000fd5b505050506040513d601f19601f820116820180604052508101906121c49190613df7565b905060005b8181101561213957601954604051632404341f60e21b815260048101869052602481018390526000916001600160a01b031690639010d07c9060440160206040518083038186803b15801561221d57600080fd5b505afa158015612231573d6000803e3d6000fd5b505050506040513d601f19601f820116820180604052508101906122559190613b6f565b604051632f2ff15d60e01b8152600481018790526001600160a01b03821660248201529091503090632f2ff15d90604401600060405180830381600087803b1580156122a057600080fd5b505af11580156122b4573d6000803e3d6000fd5b505050505080806122c4906140b3565b9150506121c9565b60006122e56000805160206141ea833981519152611fc8565b506122fd6000805160206141ea833981519152612143565b61230657600080fd5b61231d6000805160206141aa833981519152611fc8565b506123356000805160206141aa833981519152612143565b61233e57600080fd5b61235560008051602061418a833981519152611fc8565b5061236d60008051602061418a833981519152612143565b61237657600080fd5b61238d6000805160206141ca833981519152611fc8565b506123a56000805160206141ca833981519152612143565b6123ae57600080fd5b6123c560008051602061420a833981519152611fc8565b506123dd60008051602061420a833981519152612143565b6123e657600080fd5b6123f06000611fc8565b506123fb6000612143565b61240457600080fd5b61240c612d12565b50600190565b6000828152601d60205260408120805483929061243090849061401e565b90915550505050565b6000818152600260205260408120546001600160a01b03166124b25760405162461bcd60e51b815260206004820152602c60248201527f4552433732313a206f70657261746f7220717565727920666f72206e6f6e657860448201526b34b9ba32b73a103a37b5b2b760a11b6064820152608401610a4e565b60006124bd83611190565b9050806001600160a01b0316846001600160a01b031614806124f85750836001600160a01b03166124ed846109d9565b6001600160a01b0316145b8061252857506001600160a01b0380821660009081526005602090815260408083209388168352929052205460ff165b949350505050565b826001600160a01b031661254382611190565b6001600160a01b0316146125ab5760405162461bcd60e51b815260206004820152602960248201527f4552433732313a207472616e73666572206f6620746f6b656e2074686174206960448201526839903737ba1037bbb760b91b6064820152608401610a4e565b6001600160a01b03821661260d5760405162461bcd60e51b8152602060048201526024808201527f4552433732313a207472616e7366657220746f20746865207a65726f206164646044820152637265737360e01b6064820152608401610a4e565b612618838383613222565b612623600082611e9d565b6001600160a01b038316600090815260036020526040812080546001929061264c90849061401e565b90915550506001600160a01b038216600090815260036020526040812080546001929061267a908490613fd3565b909155505060008181526002602052604080822080546001600160a01b0319166001600160a01b0386811691821790925591518493918716917fddf252ad1be2c89b69c2b068fc378daa952ba7f163c4a11628f55a4df523b3ef91a4505050565b6000828152600b6020526040902060010154600a5460ff161561270257610b848383613128565b61270c813361322d565b610b848383613128565b601960009054906101000a90046001600160a01b03166001600160a01b031663dadf56ac6040518163ffffffff1660e01b815260040160206040518083038186803b15801561276457600080fd5b505afa158015612778573d6000803e3d6000fd5b505050506040513d601f19601f8201168201806040525081019061279c9190613b6f565b601480546001600160a01b0319166001600160a01b039283161790556019546040805163024bebe960e01b81529051919092169163024bebe9916004808301926020929190829003018186803b1580156127f557600080fd5b505afa158015612809573d6000803e3d6000fd5b505050506040513d601f19601f8201168201806040525081019061282d9190613b6f565b601580546001600160a01b0319166001600160a01b0392831617905560195460408051635b5c251f60e01b815290519190921691635b5c251f916004808301926020929190829003018186803b15801561288657600080fd5b505afa15801561289a573d6000803e3d6000fd5b505050506040513d601f19601f820116820180604052508101906128be9190613b6f565b601680546001600160a01b0319166001600160a01b0392831617905560195460408051637310bf1d60e11b81529051919092169163e6217e3a916004808301926020929190829003018186803b15801561291757600080fd5b505afa15801561292b573d6000803e3d6000fd5b505050506040513d601f19601f8201168201806040525081019061294f9190613b6f565b601880546001600160a01b0319166001600160a01b0392909216919091179055565b612979611207565b610da9611afb565b6001600160a01b03811633146129f15760405162461bcd60e51b815260206004820152602f60248201527f416363657373436f6e74726f6c3a2063616e206f6e6c792072656e6f756e636560448201526e103937b632b9903337b91039b2b63360891b6064820152608401610a4e565b610bb28282613291565b600061134e836001600160a01b0384166132f8565b6000612a1b82611190565b9050612a2981600084613222565b612a34600083611e9d565b6001600160a01b0381166000908152600360205260408120805460019290612a5d90849061401e565b909155505060008281526002602052604080822080546001600160a01b0319169055518391906001600160a01b038416907fddf252ad1be2c89b69c2b068fc378daa952ba7f163c4a11628f55a4df523b3ef908390a45050565b60195460405163ca15c87360e01b81526004810183905260009182916001600160a01b039091169063ca15c8739060240160206040518083038186803b158015612b0057600080fd5b505afa158015612b14573d6000803e3d6000fd5b505050506040513d601f19601f82011682018060405250810190612b389190613df7565b60405163ca15c87360e01b815260048101859052909150600090309063ca15c8739060240160206040518083038186803b158015612b7557600080fd5b505afa158015612b89573d6000803e3d6000fd5b505050506040513d601f19601f82011682018060405250810190612bad9190613df7565b90506000612bbb828461401e565b905060008111612c005760405162461bcd60e51b815260206004820152601060248201526f4e6f7468696e6720746f2073796e632160801b6044820152606401610a4e565b60005b81811015612d0657601954604051632404341f60e21b815260048101889052602481018390526000916001600160a01b031690639010d07c9060440160206040518083038186803b158015612c5757600080fd5b505afa158015612c6b573d6000803e3d6000fd5b505050506040513d601f19601f82011682018060405250810190612c8f9190613b6f565b604051632f2ff15d60e01b8152600481018990526001600160a01b03821660248201529091503090632f2ff15d90604401600060405180830381600087803b158015612cda57600080fd5b505af1158015612cee573d6000803e3d6000fd5b50505050508080612cfe906140b3565b915050612c03565b50600195945050505050565b601960009054906101000a90046001600160a01b03166001600160a01b031663ff7e88ec6040518163ffffffff1660e01b815260040160206040518083038186803b158015612d6057600080fd5b505afa158015612d74573d6000803e3d6000fd5b505050506040513d601f19601f82011682018060405250810190612d989190613d40565b601960156101000a81548160ff021916908315150217905550601960009054906101000a90046001600160a01b03166001600160a01b0316632fb565856040518163ffffffff1660e01b815260040160206040518083038186803b158015612dff57600080fd5b505afa158015612e13573d6000803e3d6000fd5b505050506040513d601f19601f82011682018060405250810190612e379190613d40565b60198054911515600160b01b0260ff60b01b19909216919091179055565b600061134e83836133e5565b612e6c848484612530565b612e788484848461346b565b6110b85760405162461bcd60e51b8152600401610a4e90613f30565b606081612eb85750506040805180820190915260018152600360fc1b602082015290565b8160005b8115612ee25780612ecc816140b3565b9150612edb9050600a83613feb565b9150612ebc565b60008167ffffffffffffffff811115612efd57612efd61413a565b6040519080825280601f01601f191660200182016040528015612f27576020820181803683370190505b5090505b841561252857612f3c60018361401e565b9150612f49600a866140ce565b612f54906030613fd3565b60f81b818381518110612f6957612f69614124565b60200101906001600160f81b031916908160001a905350612f8b600a86613feb565b9450612f2b565b6000610941825490565b6000828152600b6020526040902060010154600a5460ff1615612fc357610b848383613291565b612fcd813361322d565b610b848383613291565b601960009054906101000a90046001600160a01b03166001600160a01b031663a44b93256040518163ffffffff1660e01b815260040160206040518083038186803b15801561302557600080fd5b505afa158015613039573d6000803e3d6000fd5b505050506040513d601f19601f8201168201806040525081019061305d9190613d40565b61306657600080fd5b601960009054906101000a90046001600160a01b03166001600160a01b031663ac7cfac36040518163ffffffff1660e01b815260040160206040518083038186803b1580156130b457600080fd5b505afa1580156130c8573d6000803e3d6000fd5b505050506040513d601f19601f820116820180604052508101906130ec9190613b6f565b600d80546001600160a01b0319166001600160a01b0392909216919091179055565b610bb2828260405180602001604052806000815250613578565b6131328282611355565b610bb2576000828152600b602090815260408083206001600160a01b03851684529091529020805460ff1916600117905561316a3390565b6001600160a01b0316816001600160a01b0316837f2f8788117e7eff1d82e926ec794901d17c78024a50270940304540a733656f0d60405160405180910390a45050565b60008181526001830160205260408120546131f557508154600181810184556000848152602080822090930184905584548482528286019093526040902091909155610941565b506000610941565b60006001600160e01b03198216637965db0b60e01b14806109415750610941826135ab565b610b848383836135d0565b6132378282611355565b610bb25761324f816001600160a01b03166014613688565b61325a836020613688565b60405160200161326b929190613e6b565b60408051601f198184030181529082905262461bcd60e51b8252610a4e91600401613f1d565b61329b8282611355565b15610bb2576000828152600b602090815260408083206001600160a01b0385168085529252808320805460ff1916905551339285917ff6391f5c32d9c69d2a47ea670b442974b53935d1edc7fd64eb21e047a839171b9190a45050565b600081815260018301602052604081205480156133db57600061331c60018361401e565b85549091506000906133309060019061401e565b9050600086600001828154811061334957613349614124565b906000526020600020015490508087600001848154811061336c5761336c614124565b60009182526020808320909101929092558281526001890190915260409020849055865487908061339f5761339f61410e565b60019003818190600052602060002001600090559055866001016000878152602001908152602001600020600090556001945050505050610941565b6000915050610941565b815460009082106134435760405162461bcd60e51b815260206004820152602260248201527f456e756d657261626c655365743a20696e646578206f7574206f6620626f756e604482015261647360f01b6064820152608401610a4e565b82600001828154811061345857613458614124565b9060005260206000200154905092915050565b60006001600160a01b0384163b1561356d57604051630a85bd0160e11b81526001600160a01b0385169063150b7a02906134af903390899088908890600401613ee0565b602060405180830381600087803b1580156134c957600080fd5b505af19250505080156134f9575060408051601f3d908101601f191682019092526134f691810190613dda565b60015b613553573d808015613527576040519150601f19603f3d011682016040523d82523d6000602084013e61352c565b606091505b50805161354b5760405162461bcd60e51b8152600401610a4e90613f30565b805181602001fd5b6001600160e01b031916630a85bd0160e11b149050612528565b506001949350505050565b6135828383613824565b61358f600084848461346b565b610b845760405162461bcd60e51b8152600401610a4e90613f30565b60006001600160e01b0319821663780e9d6360e01b1480610941575061094182613972565b6001600160a01b03831661362b5761362681600880546000838152600960205260408120829055600182018355919091527ff3f7a9fe364faab93b216da50a3214154f22a0a2b415b23a84c8169e8b636ee30155565b61364e565b816001600160a01b0316836001600160a01b03161461364e5761364e83826139c2565b6001600160a01b03821661366557610b8481613a5f565b826001600160a01b0316826001600160a01b031614610b8457610b848282613b0e565b60606000613697836002613fff565b6136a2906002613fd3565b67ffffffffffffffff8111156136ba576136ba61413a565b6040519080825280601f01601f1916602001820160405280156136e4576020820181803683370190505b509050600360fc1b816000815181106136ff576136ff614124565b60200101906001600160f81b031916908160001a905350600f60fb1b8160018151811061372e5761372e614124565b60200101906001600160f81b031916908160001a9053506000613752846002613fff565b61375d906001613fd3565b90505b60018111156137d5576f181899199a1a9b1b9c1cb0b131b232b360811b85600f166010811061379157613791614124565b1a60f81b8282815181106137a7576137a7614124565b60200101906001600160f81b031916908160001a90535060049490941c936137ce81614061565b9050613760565b50831561134e5760405162461bcd60e51b815260206004820181905260248201527f537472696e67733a20686578206c656e67746820696e73756666696369656e746044820152606401610a4e565b6001600160a01b03821661387a5760405162461bcd60e51b815260206004820181905260248201527f4552433732313a206d696e7420746f20746865207a65726f20616464726573736044820152606401610a4e565b6000818152600260205260409020546001600160a01b0316156138df5760405162461bcd60e51b815260206004820152601c60248201527f4552433732313a20746f6b656e20616c7265616479206d696e746564000000006044820152606401610a4e565b6138eb60008383613222565b6001600160a01b0382166000908152600360205260408120805460019290613914908490613fd3565b909155505060008181526002602052604080822080546001600160a01b0319166001600160a01b03861690811790915590518392907fddf252ad1be2c89b69c2b068fc378daa952ba7f163c4a11628f55a4df523b3ef908290a45050565b60006001600160e01b031982166380ac58cd60e01b14806139a357506001600160e01b03198216635b5e139f60e01b145b8061094157506301ffc9a760e01b6001600160e01b0319831614610941565b600060016139cf846112af565b6139d9919061401e565b600083815260076020526040902054909150808214613a2c576001600160a01b03841660009081526006602090815260408083208584528252808320548484528184208190558352600790915290208190555b5060009182526007602090815260408084208490556001600160a01b039094168352600681528383209183525290812055565b600854600090613a719060019061401e565b60008381526009602052604081205460088054939450909284908110613a9957613a99614124565b906000526020600020015490508060088381548110613aba57613aba614124565b6000918252602080832090910192909255828152600990915260408082208490558582528120556008805480613af257613af261410e565b6001900381819060005260206000200160009055905550505050565b6000613b19836112af565b6001600160a01b039093166000908152600660209081526040808320868452825280832085905593825260079052919091209190915550565b600060208284031215613b6457600080fd5b813561134e81614150565b600060208284031215613b8157600080fd5b815161134e81614150565b60008060408385031215613b9f57600080fd5b8235613baa81614150565b91506020830135613bba81614150565b809150509250929050565b600080600060608486031215613bda57600080fd5b8335613be581614150565b92506020840135613bf581614150565b929592945050506040919091013590565b60008060008060808587031215613c1c57600080fd5b8435613c2781614150565b93506020850135613c3781614150565b925060408501359150606085013567ffffffffffffffff80821115613c5b57600080fd5b818701915087601f830112613c6f57600080fd5b813581811115613c8157613c8161413a565b604051601f8201601f19908116603f01168101908382118183101715613ca957613ca961413a565b816040528281528a6020848701011115613cc257600080fd5b82602086016020830137600060208483010152809550505050505092959194509250565b60008060408385031215613cf957600080fd5b8235613d0481614150565b91506020830135613bba81614165565b60008060408385031215613d2757600080fd5b8235613d3281614150565b946020939093013593505050565b600060208284031215613d5257600080fd5b815161134e81614165565b600060208284031215613d6f57600080fd5b5035919050565b60008060408385031215613d8957600080fd5b823591506020830135613bba81614150565b60008060408385031215613dae57600080fd5b50508035926020909101359150565b600060208284031215613dcf57600080fd5b813561134e81614173565b600060208284031215613dec57600080fd5b815161134e81614173565b600060208284031215613e0957600080fd5b5051919050565b60008151808452613e28816020860160208601614035565b601f01601f19169290920160200192915050565b60008351613e4e818460208801614035565b835190830190613e62818360208801614035565b01949350505050565b7f416363657373436f6e74726f6c3a206163636f756e7420000000000000000000815260008351613ea3816017850160208801614035565b7001034b99036b4b9b9b4b733903937b6329607d1b6017918401918201528351613ed4816028840160208801614035565b01602801949350505050565b6001600160a01b0385811682528416602082015260408101839052608060608201819052600090613f1390830184613e10565b9695505050505050565b60208152600061134e6020830184613e10565b60208082526032908201527f4552433732313a207472616e7366657220746f206e6f6e20455243373231526560408201527131b2b4bb32b91034b6b83632b6b2b73a32b960711b606082015260800190565b60208082526031908201527f4552433732313a207472616e736665722063616c6c6572206973206e6f74206f6040820152701ddb995c881b9bdc88185c1c1c9bdd9959607a1b606082015260800190565b60008219821115613fe657613fe66140e2565b500190565b600082613ffa57613ffa6140f8565b500490565b6000816000190483118215151615614019576140196140e2565b500290565b600082821015614030576140306140e2565b500390565b60005b83811015614050578181015183820152602001614038565b838111156110b85750506000910152565b600081614070576140706140e2565b506000190190565b600181811c9082168061408c57607f821691505b602082108114156140ad57634e487b7160e01b600052602260045260246000fd5b50919050565b60006000198214156140c7576140c76140e2565b5060010190565b6000826140dd576140dd6140f8565b500690565b634e487b7160e01b600052601160045260246000fd5b634e487b7160e01b600052601260045260246000fd5b634e487b7160e01b600052603160045260246000fd5b634e487b7160e01b600052603260045260246000fd5b634e487b7160e01b600052604160045260246000fd5b6001600160a01b0381168114610bd457600080fd5b8015158114610bd457600080fd5b6001600160e01b031981168114610bd457600080fdfefa8e4989e1d689f7bc5c4b25b87efb51fecdecb19ba62847e29c759e12a89acd048bc71fa1cb2c119c339cf9cf00a97996a19a9d991ce5fe049f2fa5459e7990f0f4b159a6e2a4815eb3ca3df080bfa70c9270662c59bcaa4479a456220183e60538d24a8b7882d7b2e36af243d4af61c23e86e3daa6cb8c887b53220b2f57207c9d7f6f02908185bffb3f7fc9afb29fd7bf93675af8fd4b655ee05c2cee1e0ea26469706673582212202d022c0690feeae1b683dd62d06d5ea240e0348f9390d9d04376966c34f1ea2764736f6c63430008060033",
  "immutableReferences": {},
  "source": "// SPDX-License-Identifier: MIT\n// Inspired by SushiSwap SushiBar\n\npragma solidity ^0.8.0;\n\nimport \"../src/SmartConsensusMachine.sol\";\nimport \"@openzeppelin/contracts/token/ERC721/extensions/ERC721Enumerable.sol\";\nimport \"@openzeppelin/contracts/token/ERC721/ERC721.sol\";\nimport \"@openzeppelin/contracts/token/ERC20/ERC20.sol\";\n\ncontract JuryPool is ERC721, ERC721Enumerable, SmartConsensusMachine {\n\n    ERC20 public redPens;\n    uint private tokenIdGenerator = 1;\n    uint256 public totalShares = 0;\n\n    constructor(address _AddressManagerAddress) SmartConsensusMachine(_AddressManagerAddress) ERC721(\"Jurry Hats\", \"Hat\")  {\n\n\n    }\n\n    mapping (uint => uint256) public JurrorStake;\n\n    \n    function updateStakingToken() public {\n        redPens = ERC20(addressManager.RedPenTokenAddress());\n    }\n\n    function getHatBalance(uint _tokenId) public returns (uint256 hatBalance) {\n\n        // hatBalance = JurrorStake[_tokenId];\n        return JurrorStake[_tokenId];\n    }\n    \n    function stakePens() public {\n        uint256 amountToStake = redPens.balanceOf(msg.sender);\n        stakePens(amountToStake);\n    }\n\n    function stakePens(uint256 _amount) public {\n \n        uint256 totalPensInPool = redPens.balanceOf(address(this));\n        uint256 totalSharesCirculating = totalShares;\n        uint _tokenId;\n        redPens.transferFrom(msg.sender, address(this), _amount);\n\n\n        if ( balanceOf(msg.sender) < 1) {\n            _tokenId = tokenIdGenerator;\n            _safeMint(msg.sender, _tokenId);\n            tokenIdGenerator += 1;\n        } else if (balanceOf(msg.sender) >= 1) {\n            _tokenId = tokenOfOwnerByIndex(msg.sender, 1);\n        }   \n\n        if (totalSharesCirculating > 0) {\n            _amount = (_amount * totalSharesCirculating / totalPensInPool);\n        }\n\n        JurrorStake[_tokenId] += _amount; \n        totalShares += _amount;\n\n    }\n\n    // Only use this one if you have multiple staked positions that you are managing manually.\n    function stakePens(uint256 _amount, uint tokenIdToStakeWith) public {\n \n        uint256 totalPensInPool = redPens.balanceOf(address(this));\n        uint _tokenId;\n        redPens.transferFrom(msg.sender, address(this), _amount);\n\n        if (totalShares > 0) {\n            _amount = (_amount * totalShares / totalPensInPool);\n        }\n\n        JurrorStake[_tokenId] += _amount; \n        totalShares += _amount;\n\n    }\n\n\n    function returnHats() public {\n        require(balanceOf(msg.sender) > 0);\n         uint256 _tokenId = tokenOfOwnerByIndex(msg.sender, 1);\n         returnHats(_tokenId);\n    }\n\n    function returnHats(uint256 _tokenId) public {\n\n        require (ownerOf(_tokenId) == msg.sender);\n        uint256 _amount = JurrorStake[_tokenId];\n        uint256 pensToDistrubute = (_amount * (redPens.balanceOf(address(this))) / totalShares);\n        JurrorStake[_tokenId] = 0;\n        totalShares -= _amount;\n        _burn(_tokenId);\n        redPens.transfer(msg.sender, pensToDistrubute);\n    \n    }\n\n    function returnHats(uint256 _amount, uint256 _tokenId) public {\n\n        require (ownerOf(_tokenId) == msg.sender);\n        if (JurrorStake[_tokenId] <= _amount) {\n            _amount = JurrorStake[_tokenId];\n        }\n        uint256 pensToDistrubute = (_amount * (redPens.balanceOf(address(this))) / totalShares);\n        totalShares -= _amount;\n\n        if (JurrorStake[_tokenId] == _amount) {\n            _burn(_tokenId);\n            JurrorStake[_tokenId] = 0;\n\n        } else if (JurrorStake[_tokenId] > _amount) {\n            JurrorStake[_tokenId] -= _amount;\n        }\n        \n        redPens.transfer(msg.sender, pensToDistrubute);\n    \n    }\n\n    function slashToken(uint _tokenIdToSlash, uint _percentToSlashInWholeNumber) public BAILIFF {\n\n        require(_percentToSlashInWholeNumber < 100);\n        uint256 amountToSlash = JurrorStake[_tokenIdToSlash] * _percentToSlashInWholeNumber / 100;\n        _slash(_tokenIdToSlash, amountToSlash);\n\n    }\n\n    function _slash(uint _tokenIdToSlash, uint _amountToSlash) internal {\n        JurrorStake[_tokenIdToSlash] -= _amountToSlash;\n    }\n\n    function _updateTokenAddresses() internal override {\n\n        updateStakingToken();\n        super._updateTokenAddresses();\n        \n    }\n\n    function _beforeTokenTransfer(address from, address to, uint256 amount)\n        internal\n        override (ERC721, ERC721Enumerable)\n    {\n        super._beforeTokenTransfer(from, to, amount);\n    }\n\n    function supportsInterface(bytes4 interfaceId) public view virtual override (AccessControlEnumerable, ERC721, ERC721Enumerable) returns (bool) {\n        return\n            interfaceId == type(IERC721).interfaceId ||\n            interfaceId == type(IERC20).interfaceId ||\n            interfaceId == type(IERC721Metadata).interfaceId ||\n            super.supportsInterface(interfaceId);\n    }\n\n}",
  "sourcePath": "/home/n/Desktop/PinkSlips_FrontEnd_REFORMAT (copy)/contracts/juryAndAppeals/JuryPool.sol",
  "compiler": {
    "name": "solc",
    "version": "0.8.6+commit.11564f7e.Emscripten.clang"
  },
  "schemaVersion": "3.4.1",
  "updatedAt": "2021-08-08T03:03:57.664Z",
  "networkType": "ethereum",
  "devdoc": {
    "kind": "dev",
    "methods": {
      "approve(address,uint256)": {
        "details": "See {IERC721-approve}."
      },
      "balanceOf(address)": {
        "details": "See {IERC721-balanceOf}."
      },
      "getApproved(uint256)": {
        "details": "See {IERC721-getApproved}."
      },
      "getRoleAdmin(bytes32)": {
        "details": "Returns the admin role that controls `role`. See {grantRole} and {revokeRole}. To change a role's admin, use {_setRoleAdmin}."
      },
      "getRoleMember(bytes32,uint256)": {
        "details": "Returns one of the accounts that have `role`. `index` must be a value between 0 and {getRoleMemberCount}, non-inclusive. Role bearers are not sorted in any particular way, and their ordering may change at any point. WARNING: When using {getRoleMember} and {getRoleMemberCount}, make sure you perform all queries on the same block. See the following https://forum.openzeppelin.com/t/iterating-over-elements-on-enumerableset-in-openzeppelin-contracts/2296[forum post] for more information."
      },
      "getRoleMemberCount(bytes32)": {
        "details": "Returns the number of accounts that have `role`. Can be used together with {getRoleMember} to enumerate all bearers of a role."
      },
      "grantRole(bytes32,address)": {
        "details": "Overload {grantRole} to track enumerable memberships"
      },
      "hasRole(bytes32,address)": {
        "details": "Returns `true` if `account` has been granted `role`."
      },
      "isApprovedForAll(address,address)": {
        "details": "See {IERC721-isApprovedForAll}."
      },
      "name()": {
        "details": "See {IERC721Metadata-name}."
      },
      "ownerOf(uint256)": {
        "details": "See {IERC721-ownerOf}."
      },
      "renounceRole(bytes32,address)": {
        "details": "Overload {renounceRole} to track enumerable memberships"
      },
      "revokeRole(bytes32,address)": {
        "details": "Overload {revokeRole} to track enumerable memberships"
      },
      "safeTransferFrom(address,address,uint256)": {
        "details": "See {IERC721-safeTransferFrom}."
      },
      "safeTransferFrom(address,address,uint256,bytes)": {
        "details": "See {IERC721-safeTransferFrom}."
      },
      "setApprovalForAll(address,bool)": {
        "details": "See {IERC721-setApprovalForAll}."
      },
      "symbol()": {
        "details": "See {IERC721Metadata-symbol}."
      },
      "tokenByIndex(uint256)": {
        "details": "See {IERC721Enumerable-tokenByIndex}."
      },
      "tokenOfOwnerByIndex(address,uint256)": {
        "details": "See {IERC721Enumerable-tokenOfOwnerByIndex}."
      },
      "tokenURI(uint256)": {
        "details": "See {IERC721Metadata-tokenURI}."
      },
      "totalSupply()": {
        "details": "See {IERC721Enumerable-totalSupply}."
      },
      "transferFrom(address,address,uint256)": {
        "details": "See {IERC721-transferFrom}."
      }
    },
    "version": 1
  },
  "userdoc": {
    "kind": "user",
    "methods": {},
    "version": 1
  }
}