{
  "contractName": "JuryPool",
  "abi": [
    {
      "inputs": [
        {
          "internalType": "address",
          "name": "_AddressManagerAddress",
          "type": "address"
        }
      ],
      "stateMutability": "nonpayable",
      "type": "constructor"
    },
    {
      "anonymous": false,
      "inputs": [
        {
          "indexed": true,
          "internalType": "address",
          "name": "owner",
          "type": "address"
        },
        {
          "indexed": true,
          "internalType": "address",
          "name": "spender",
          "type": "address"
        },
        {
          "indexed": false,
          "internalType": "uint256",
          "name": "value",
          "type": "uint256"
        }
      ],
      "name": "Approval",
      "type": "event"
    },
    {
      "anonymous": false,
      "inputs": [
        {
          "indexed": true,
          "internalType": "bytes32",
          "name": "role",
          "type": "bytes32"
        },
        {
          "indexed": true,
          "internalType": "bytes32",
          "name": "previousAdminRole",
          "type": "bytes32"
        },
        {
          "indexed": true,
          "internalType": "bytes32",
          "name": "newAdminRole",
          "type": "bytes32"
        }
      ],
      "name": "RoleAdminChanged",
      "type": "event"
    },
    {
      "anonymous": false,
      "inputs": [
        {
          "indexed": true,
          "internalType": "bytes32",
          "name": "role",
          "type": "bytes32"
        },
        {
          "indexed": true,
          "internalType": "address",
          "name": "account",
          "type": "address"
        },
        {
          "indexed": true,
          "internalType": "address",
          "name": "sender",
          "type": "address"
        }
      ],
      "name": "RoleGranted",
      "type": "event"
    },
    {
      "anonymous": false,
      "inputs": [
        {
          "indexed": true,
          "internalType": "bytes32",
          "name": "role",
          "type": "bytes32"
        },
        {
          "indexed": true,
          "internalType": "address",
          "name": "account",
          "type": "address"
        },
        {
          "indexed": true,
          "internalType": "address",
          "name": "sender",
          "type": "address"
        }
      ],
      "name": "RoleRevoked",
      "type": "event"
    },
    {
      "anonymous": false,
      "inputs": [
        {
          "indexed": false,
          "internalType": "uint256",
          "name": "id",
          "type": "uint256"
        }
      ],
      "name": "Snapshot",
      "type": "event"
    },
    {
      "anonymous": false,
      "inputs": [
        {
          "indexed": true,
          "internalType": "address",
          "name": "from",
          "type": "address"
        },
        {
          "indexed": true,
          "internalType": "address",
          "name": "to",
          "type": "address"
        },
        {
          "indexed": false,
          "internalType": "uint256",
          "name": "value",
          "type": "uint256"
        }
      ],
      "name": "Transfer",
      "type": "event"
    },
    {
      "inputs": [],
      "name": "AddressManagerAddress",
      "outputs": [
        {
          "internalType": "address",
          "name": "",
          "type": "address"
        }
      ],
      "stateMutability": "view",
      "type": "function",
      "constant": true
    },
    {
      "inputs": [],
      "name": "ChadBadgeAddress",
      "outputs": [
        {
          "internalType": "address",
          "name": "",
          "type": "address"
        }
      ],
      "stateMutability": "view",
      "type": "function",
      "constant": true
    },
    {
      "inputs": [],
      "name": "DEFAULT_ADMIN_ROLE",
      "outputs": [
        {
          "internalType": "bytes32",
          "name": "",
          "type": "bytes32"
        }
      ],
      "stateMutability": "view",
      "type": "function",
      "constant": true
    },
    {
      "inputs": [],
      "name": "GAVELS_BAILIFF",
      "outputs": [
        {
          "internalType": "bytes32",
          "name": "",
          "type": "bytes32"
        }
      ],
      "stateMutability": "view",
      "type": "function",
      "constant": true
    },
    {
      "inputs": [],
      "name": "GavelDAOAgent",
      "outputs": [
        {
          "internalType": "address",
          "name": "",
          "type": "address"
        }
      ],
      "stateMutability": "view",
      "type": "function",
      "constant": true
    },
    {
      "inputs": [],
      "name": "GavelTokenAddress",
      "outputs": [
        {
          "internalType": "address",
          "name": "",
          "type": "address"
        }
      ],
      "stateMutability": "view",
      "type": "function",
      "constant": true
    },
    {
      "inputs": [],
      "name": "GavelVote",
      "outputs": [
        {
          "internalType": "bool",
          "name": "",
          "type": "bool"
        }
      ],
      "stateMutability": "view",
      "type": "function",
      "constant": true
    },
    {
      "inputs": [],
      "name": "GoldStarAddress",
      "outputs": [
        {
          "internalType": "address",
          "name": "",
          "type": "address"
        }
      ],
      "stateMutability": "view",
      "type": "function",
      "constant": true
    },
    {
      "inputs": [],
      "name": "JERK_ROLE",
      "outputs": [
        {
          "internalType": "bytes32",
          "name": "",
          "type": "bytes32"
        }
      ],
      "stateMutability": "view",
      "type": "function",
      "constant": true
    },
    {
      "inputs": [],
      "name": "JURY_BAILIFF",
      "outputs": [
        {
          "internalType": "bytes32",
          "name": "",
          "type": "bytes32"
        }
      ],
      "stateMutability": "view",
      "type": "function",
      "constant": true
    },
    {
      "inputs": [],
      "name": "JuryDAOAgent",
      "outputs": [
        {
          "internalType": "address",
          "name": "",
          "type": "address"
        }
      ],
      "stateMutability": "view",
      "type": "function",
      "constant": true
    },
    {
      "inputs": [],
      "name": "JuryPoolAddress",
      "outputs": [
        {
          "internalType": "address",
          "name": "",
          "type": "address"
        }
      ],
      "stateMutability": "view",
      "type": "function",
      "constant": true
    },
    {
      "inputs": [],
      "name": "JuryVote",
      "outputs": [
        {
          "internalType": "bool",
          "name": "",
          "type": "bool"
        }
      ],
      "stateMutability": "view",
      "type": "function",
      "constant": true
    },
    {
      "inputs": [],
      "name": "MINI_BAILIFF_ROLE",
      "outputs": [
        {
          "internalType": "bytes32",
          "name": "",
          "type": "bytes32"
        }
      ],
      "stateMutability": "view",
      "type": "function",
      "constant": true
    },
    {
      "inputs": [],
      "name": "MiniBailiff",
      "outputs": [
        {
          "internalType": "address",
          "name": "",
          "type": "address"
        }
      ],
      "stateMutability": "view",
      "type": "function",
      "constant": true
    },
    {
      "inputs": [],
      "name": "PinkSlipAddress",
      "outputs": [
        {
          "internalType": "address",
          "name": "",
          "type": "address"
        }
      ],
      "stateMutability": "view",
      "type": "function",
      "constant": true
    },
    {
      "inputs": [],
      "name": "RedPenTokenAddress",
      "outputs": [
        {
          "internalType": "address",
          "name": "",
          "type": "address"
        }
      ],
      "stateMutability": "view",
      "type": "function",
      "constant": true
    },
    {
      "inputs": [],
      "name": "THE_COURT_ROLE",
      "outputs": [
        {
          "internalType": "bytes32",
          "name": "",
          "type": "bytes32"
        }
      ],
      "stateMutability": "view",
      "type": "function",
      "constant": true
    },
    {
      "inputs": [],
      "name": "TheCourtAddress",
      "outputs": [
        {
          "internalType": "address",
          "name": "",
          "type": "address"
        }
      ],
      "stateMutability": "view",
      "type": "function",
      "constant": true
    },
    {
      "inputs": [],
      "name": "TreasuryAddress",
      "outputs": [
        {
          "internalType": "address",
          "name": "",
          "type": "address"
        }
      ],
      "stateMutability": "view",
      "type": "function",
      "constant": true
    },
    {
      "inputs": [],
      "name": "addressManager",
      "outputs": [
        {
          "internalType": "contract AddressManager",
          "name": "",
          "type": "address"
        }
      ],
      "stateMutability": "view",
      "type": "function",
      "constant": true
    },
    {
      "inputs": [
        {
          "internalType": "address",
          "name": "owner",
          "type": "address"
        },
        {
          "internalType": "address",
          "name": "spender",
          "type": "address"
        }
      ],
      "name": "allowance",
      "outputs": [
        {
          "internalType": "uint256",
          "name": "",
          "type": "uint256"
        }
      ],
      "stateMutability": "view",
      "type": "function",
      "constant": true
    },
    {
      "inputs": [
        {
          "internalType": "address",
          "name": "spender",
          "type": "address"
        },
        {
          "internalType": "uint256",
          "name": "amount",
          "type": "uint256"
        }
      ],
      "name": "approve",
      "outputs": [
        {
          "internalType": "bool",
          "name": "",
          "type": "bool"
        }
      ],
      "stateMutability": "nonpayable",
      "type": "function"
    },
    {
      "inputs": [
        {
          "internalType": "address",
          "name": "account",
          "type": "address"
        }
      ],
      "name": "balanceOf",
      "outputs": [
        {
          "internalType": "uint256",
          "name": "",
          "type": "uint256"
        }
      ],
      "stateMutability": "view",
      "type": "function",
      "constant": true
    },
    {
      "inputs": [
        {
          "internalType": "address",
          "name": "account",
          "type": "address"
        },
        {
          "internalType": "uint256",
          "name": "snapshotId",
          "type": "uint256"
        }
      ],
      "name": "balanceOfAt",
      "outputs": [
        {
          "internalType": "uint256",
          "name": "",
          "type": "uint256"
        }
      ],
      "stateMutability": "view",
      "type": "function",
      "constant": true
    },
    {
      "inputs": [],
      "name": "decimals",
      "outputs": [
        {
          "internalType": "uint8",
          "name": "",
          "type": "uint8"
        }
      ],
      "stateMutability": "view",
      "type": "function",
      "constant": true
    },
    {
      "inputs": [
        {
          "internalType": "address",
          "name": "spender",
          "type": "address"
        },
        {
          "internalType": "uint256",
          "name": "subtractedValue",
          "type": "uint256"
        }
      ],
      "name": "decreaseAllowance",
      "outputs": [
        {
          "internalType": "bool",
          "name": "",
          "type": "bool"
        }
      ],
      "stateMutability": "nonpayable",
      "type": "function"
    },
    {
      "inputs": [
        {
          "internalType": "bytes32",
          "name": "role",
          "type": "bytes32"
        }
      ],
      "name": "getRoleAdmin",
      "outputs": [
        {
          "internalType": "bytes32",
          "name": "",
          "type": "bytes32"
        }
      ],
      "stateMutability": "view",
      "type": "function",
      "constant": true
    },
    {
      "inputs": [
        {
          "internalType": "bytes32",
          "name": "role",
          "type": "bytes32"
        },
        {
          "internalType": "uint256",
          "name": "index",
          "type": "uint256"
        }
      ],
      "name": "getRoleMember",
      "outputs": [
        {
          "internalType": "address",
          "name": "",
          "type": "address"
        }
      ],
      "stateMutability": "view",
      "type": "function",
      "constant": true
    },
    {
      "inputs": [
        {
          "internalType": "bytes32",
          "name": "role",
          "type": "bytes32"
        }
      ],
      "name": "getRoleMemberCount",
      "outputs": [
        {
          "internalType": "uint256",
          "name": "",
          "type": "uint256"
        }
      ],
      "stateMutability": "view",
      "type": "function",
      "constant": true
    },
    {
      "inputs": [
        {
          "internalType": "bytes32",
          "name": "role",
          "type": "bytes32"
        },
        {
          "internalType": "address",
          "name": "account",
          "type": "address"
        }
      ],
      "name": "grantRole",
      "outputs": [],
      "stateMutability": "nonpayable",
      "type": "function"
    },
    {
      "inputs": [
        {
          "internalType": "bytes32",
          "name": "role",
          "type": "bytes32"
        },
        {
          "internalType": "address",
          "name": "account",
          "type": "address"
        }
      ],
      "name": "hasRole",
      "outputs": [
        {
          "internalType": "bool",
          "name": "",
          "type": "bool"
        }
      ],
      "stateMutability": "view",
      "type": "function",
      "constant": true
    },
    {
      "inputs": [
        {
          "internalType": "address",
          "name": "spender",
          "type": "address"
        },
        {
          "internalType": "uint256",
          "name": "addedValue",
          "type": "uint256"
        }
      ],
      "name": "increaseAllowance",
      "outputs": [
        {
          "internalType": "bool",
          "name": "",
          "type": "bool"
        }
      ],
      "stateMutability": "nonpayable",
      "type": "function"
    },
    {
      "inputs": [],
      "name": "jerkSanctions",
      "outputs": [
        {
          "internalType": "bool",
          "name": "",
          "type": "bool"
        }
      ],
      "stateMutability": "view",
      "type": "function",
      "constant": true
    },
    {
      "inputs": [],
      "name": "name",
      "outputs": [
        {
          "internalType": "string",
          "name": "",
          "type": "string"
        }
      ],
      "stateMutability": "view",
      "type": "function",
      "constant": true
    },
    {
      "inputs": [],
      "name": "redPens",
      "outputs": [
        {
          "internalType": "contract ERC20",
          "name": "",
          "type": "address"
        }
      ],
      "stateMutability": "view",
      "type": "function",
      "constant": true
    },
    {
      "inputs": [
        {
          "internalType": "bytes32",
          "name": "role",
          "type": "bytes32"
        },
        {
          "internalType": "address",
          "name": "account",
          "type": "address"
        }
      ],
      "name": "renounceRole",
      "outputs": [],
      "stateMutability": "nonpayable",
      "type": "function"
    },
    {
      "inputs": [],
      "name": "resetVote",
      "outputs": [],
      "stateMutability": "nonpayable",
      "type": "function"
    },
    {
      "inputs": [
        {
          "internalType": "bytes32",
          "name": "role",
          "type": "bytes32"
        },
        {
          "internalType": "address",
          "name": "account",
          "type": "address"
        }
      ],
      "name": "revokeRole",
      "outputs": [],
      "stateMutability": "nonpayable",
      "type": "function"
    },
    {
      "inputs": [
        {
          "internalType": "bytes4",
          "name": "interfaceId",
          "type": "bytes4"
        }
      ],
      "name": "supportsInterface",
      "outputs": [
        {
          "internalType": "bool",
          "name": "",
          "type": "bool"
        }
      ],
      "stateMutability": "view",
      "type": "function",
      "constant": true
    },
    {
      "inputs": [],
      "name": "symbol",
      "outputs": [
        {
          "internalType": "string",
          "name": "",
          "type": "string"
        }
      ],
      "stateMutability": "view",
      "type": "function",
      "constant": true
    },
    {
      "inputs": [],
      "name": "syncAllRoles",
      "outputs": [],
      "stateMutability": "nonpayable",
      "type": "function"
    },
    {
      "inputs": [
        {
          "internalType": "bytes32",
          "name": "ROLE_TO_SYNC",
          "type": "bytes32"
        }
      ],
      "name": "syncSingleRole",
      "outputs": [],
      "stateMutability": "nonpayable",
      "type": "function"
    },
    {
      "inputs": [],
      "name": "syncVotes",
      "outputs": [],
      "stateMutability": "nonpayable",
      "type": "function"
    },
    {
      "inputs": [],
      "name": "totalSupply",
      "outputs": [
        {
          "internalType": "uint256",
          "name": "",
          "type": "uint256"
        }
      ],
      "stateMutability": "view",
      "type": "function",
      "constant": true
    },
    {
      "inputs": [
        {
          "internalType": "uint256",
          "name": "snapshotId",
          "type": "uint256"
        }
      ],
      "name": "totalSupplyAt",
      "outputs": [
        {
          "internalType": "uint256",
          "name": "",
          "type": "uint256"
        }
      ],
      "stateMutability": "view",
      "type": "function",
      "constant": true
    },
    {
      "inputs": [
        {
          "internalType": "address",
          "name": "recipient",
          "type": "address"
        },
        {
          "internalType": "uint256",
          "name": "amount",
          "type": "uint256"
        }
      ],
      "name": "transfer",
      "outputs": [
        {
          "internalType": "bool",
          "name": "",
          "type": "bool"
        }
      ],
      "stateMutability": "nonpayable",
      "type": "function"
    },
    {
      "inputs": [
        {
          "internalType": "address",
          "name": "sender",
          "type": "address"
        },
        {
          "internalType": "address",
          "name": "recipient",
          "type": "address"
        },
        {
          "internalType": "uint256",
          "name": "amount",
          "type": "uint256"
        }
      ],
      "name": "transferFrom",
      "outputs": [
        {
          "internalType": "bool",
          "name": "",
          "type": "bool"
        }
      ],
      "stateMutability": "nonpayable",
      "type": "function"
    },
    {
      "inputs": [],
      "name": "updateAddressManager",
      "outputs": [],
      "stateMutability": "nonpayable",
      "type": "function"
    },
    {
      "inputs": [],
      "name": "updateAllAddresses",
      "outputs": [],
      "stateMutability": "nonpayable",
      "type": "function"
    },
    {
      "inputs": [],
      "name": "updateAllRoles",
      "outputs": [],
      "stateMutability": "nonpayable",
      "type": "function"
    },
    {
      "inputs": [],
      "name": "updateDAOAddresses",
      "outputs": [],
      "stateMutability": "nonpayable",
      "type": "function"
    },
    {
      "inputs": [
        {
          "internalType": "bytes32",
          "name": "ROLE_TO_UPDATE",
          "type": "bytes32"
        }
      ],
      "name": "updateSingleRole",
      "outputs": [],
      "stateMutability": "nonpayable",
      "type": "function"
    },
    {
      "inputs": [],
      "name": "updateTokenAddresses",
      "outputs": [],
      "stateMutability": "nonpayable",
      "type": "function"
    },
    {
      "inputs": [],
      "name": "updateStakingToken",
      "outputs": [],
      "stateMutability": "nonpayable",
      "type": "function"
    },
    {
      "inputs": [],
      "name": "stakePens",
      "outputs": [],
      "stateMutability": "nonpayable",
      "type": "function"
    },
    {
      "inputs": [
        {
          "internalType": "uint256",
          "name": "_amount",
          "type": "uint256"
        }
      ],
      "name": "stakePens",
      "outputs": [],
      "stateMutability": "nonpayable",
      "type": "function"
    },
    {
      "inputs": [
        {
          "internalType": "uint256",
          "name": "_amount",
          "type": "uint256"
        }
      ],
      "name": "returnHats",
      "outputs": [],
      "stateMutability": "nonpayable",
      "type": "function"
    },
    {
      "inputs": [],
      "name": "returnHats",
      "outputs": [],
      "stateMutability": "nonpayable",
      "type": "function"
    },
    {
      "inputs": [],
      "name": "snapshot",
      "outputs": [],
      "stateMutability": "nonpayable",
      "type": "function"
    }
  ],
  "bytecode": "0x60806040526014805463ffffffff191690553480156200001e57600080fd5b506040516200428238038062004282833981016040819052620000419162000baa565b60408051808201825260098152684a757279204861747360b81b6020808301918252835180850190945260048452634841545360e01b90840152600280546001600160a01b038087166001600160a01b03199283161792839055600e805490921692169190911790558151849391620000be916012919062000b04565b508051620000d490601390602084019062000b04565b50620000e29150506200021f565b620000ec62000235565b600c5462000106906000906001600160a01b031662000374565b600c546200013f907f0538d24a8b7882d7b2e36af243d4af61c23e86e3daa6cb8c887b53220b2f5720906001600160a01b031662000374565b60095462000178907f048bc71fa1cb2c119c339cf9cf00a97996a19a9d991ce5fe049f2fa5459e7990906001600160a01b031662000374565b600a54620001b1907ffa8e4989e1d689f7bc5c4b25b87efb51fecdecb19ba62847e29c759e12a89acd906001600160a01b031662000374565b600d54620001ea907ff0f4b159a6e2a4815eb3ca3df080bfa70c9270662c59bcaa4479a456220183e6906001600160a01b031662000374565b620002177f7c9d7f6f02908185bffb3f7fc9afb29fd7bf93675af8fd4b655ee05c2cee1e0e600062000374565b505062000c39565b62000229620003b7565b6200023362000622565b565b600e60009054906101000a90046001600160a01b03166001600160a01b031663ff7e88ec6040518163ffffffff1660e01b815260040160206040518083038186803b1580156200028457600080fd5b505afa15801562000299573d6000803e3d6000fd5b505050506040513d601f19601f82011682018060405250810190620002bf919062000bda565b601480549115156101000261ff0019909216919091179055600e5460408051632fb5658560e01b815290516001600160a01b0390921691632fb5658591600480820192602092909190829003018186803b1580156200031d57600080fd5b505afa15801562000332573d6000803e3d6000fd5b505050506040513d601f19601f8201168201806040525081019062000358919062000bda565b60148054911515620100000262ff000019909216919091179055565b6200038b8282620009b660201b620011681760201c565b6000828152600160209081526040909120620003b291839062001172620009c6821b17901c565b505050565b600e60009054906101000a90046001600160a01b03166001600160a01b031663dadf56ac6040518163ffffffff1660e01b815260040160206040518083038186803b1580156200040657600080fd5b505afa1580156200041b573d6000803e3d6000fd5b505050506040513d601f19601f8201168201806040525081019062000441919062000baa565b600980546001600160a01b0319166001600160a01b03928316179055600e546040805163024bebe960e01b81529051919092169163024bebe9916004808301926020929190829003018186803b1580156200049b57600080fd5b505afa158015620004b0573d6000803e3d6000fd5b505050506040513d601f19601f82011682018060405250810190620004d6919062000baa565b600a80546001600160a01b0319166001600160a01b03928316179055600e5460408051635b5c251f60e01b815290519190921691635b5c251f916004808301926020929190829003018186803b1580156200053057600080fd5b505afa15801562000545573d6000803e3d6000fd5b505050506040513d601f19601f820116820180604052508101906200056b919062000baa565b600b80546001600160a01b0319166001600160a01b03928316179055600e5460408051637310bf1d60e11b81529051919092169163e6217e3a916004808301926020929190829003018186803b158015620005c557600080fd5b505afa158015620005da573d6000803e3d6000fd5b505050506040513d601f19601f8201168201806040525081019062000600919062000baa565b600d80546001600160a01b0319166001600160a01b0392909216919091179055565b600e60009054906101000a90046001600160a01b03166001600160a01b03166321d7f0086040518163ffffffff1660e01b815260040160206040518083038186803b1580156200067157600080fd5b505afa15801562000686573d6000803e3d6000fd5b505050506040513d601f19601f82011682018060405250810190620006ac919062000baa565b600380546001600160a01b0319166001600160a01b03928316179055600e546040805163762ddb5960e01b81529051919092169163762ddb59916004808301926020929190829003018186803b1580156200070657600080fd5b505afa1580156200071b573d6000803e3d6000fd5b505050506040513d601f19601f8201168201806040525081019062000741919062000baa565b600480546001600160a01b0319166001600160a01b03928316178155600e546040805163bfb7dc9960e01b81529051919093169263bfb7dc999281810192602092909190829003018186803b1580156200079a57600080fd5b505afa158015620007af573d6000803e3d6000fd5b505050506040513d601f19601f82011682018060405250810190620007d5919062000baa565b600580546001600160a01b0319166001600160a01b03928316179055600e5460408051633e6111eb60e21b81529051919092169163f98447ac916004808301926020929190829003018186803b1580156200082f57600080fd5b505afa15801562000844573d6000803e3d6000fd5b505050506040513d601f19601f820116820180604052508101906200086a919062000baa565b600680546001600160a01b0319166001600160a01b03928316179055600e5460408051630fe1ba9f60e21b815290519190921691633f86ea7c916004808301926020929190829003018186803b158015620008c457600080fd5b505afa158015620008d9573d6000803e3d6000fd5b505050506040513d601f19601f82011682018060405250810190620008ff919062000baa565b600780546001600160a01b0319166001600160a01b03928316179055600e5460408051636b58477560e01b815290519190921691636b584775916004808301926020929190829003018186803b1580156200095957600080fd5b505afa1580156200096e573d6000803e3d6000fd5b505050506040513d601f19601f8201168201806040525081019062000994919062000baa565b600880546001600160a01b0319166001600160a01b0392909216919091179055565b620009c28282620009e6565b5050565b6000620009dd836001600160a01b03841662000a70565b90505b92915050565b620009f2828262000abf565b620009c2576000828152602081815260408083206001600160a01b03851684529091529020805460ff1916600117905562000a2c62000ae8565b6001600160a01b0316816001600160a01b0316837f2f8788117e7eff1d82e926ec794901d17c78024a50270940304540a733656f0d60405160405180910390a45050565b600062000a7e838362000aec565b62000ab657508154600181810184556000848152602080822090930184905584548482528286019093526040902091909155620009e0565b506000620009e0565b6000918252602082815260408084206001600160a01b0393909316845291905290205460ff1690565b3390565b60009081526001919091016020526040902054151590565b82805462000b129062000bfc565b90600052602060002090601f01602090048101928262000b36576000855562000b81565b82601f1062000b5157805160ff191683800117855562000b81565b8280016001018555821562000b81579182015b8281111562000b8157825182559160200191906001019062000b64565b5062000b8f92915062000b93565b5090565b5b8082111562000b8f576000815560010162000b94565b60006020828403121562000bbc578081fd5b81516001600160a01b038116811462000bd3578182fd5b9392505050565b60006020828403121562000bec578081fd5b8151801515811462000bd3578182fd5b60028104600182168062000c1157607f821691505b6020821081141562000c3357634e487b7160e01b600052602260045260246000fd5b50919050565b6136398062000c496000396000f3fe608060405234801561001057600080fd5b50600436106103a45760003560e01c806370a08231116101e9578063cce843921161010f578063e6217e3a116100ad578063f3e941421161007c578063f3e9414214610691578063f7d92d86146106a4578063f98447ac146106ac578063ff7e88ec146106b4576103a4565b8063e6217e3a14610671578063e78c266c14610679578063e9a5323014610681578063f1132b3014610689576103a4565b8063d547741f116100e9578063d547741f1461063b578063dadf56ac1461064e578063dd62ed3e14610656578063e3a4795514610669576103a4565b8063cce8439214610623578063cd19182c1461062b578063cf4ece1514610633576103a4565b8063a217fddf11610187578063a80a132111610156578063a80a1321146105e2578063a9059cbb146105f5578063bfb7dc9914610608578063ca15c87314610610576103a4565b8063a217fddf146105b7578063a32c5e59146105bf578063a457c2d7146105c7578063a78e746f146105da576103a4565b806391d14854116101c357806391d148541461058157806395d89b41146105945780639711715a1461059c578063981b24d0146105a4576103a4565b806370a0823114610553578063762ddb59146105665780639010d07c1461056e576103a4565b8063329a8cfa116102ce5780634ee2cd7e1161026c5780635f4134661161023b5780635f4134661461053357806367a14f061461053b5780636ad8118b146105435780636b5847751461054b576103a4565b80634ee2cd7e146104fd57806357f276ff146105105780635b5c251f146105235780635db531a11461052b576103a4565b80633ab76e9f116102a85780633ab76e9f146104dd5780633f86ea7c146104e557806349b5e105146104ed5780634d84c6d8146104f5576103a4565b8063329a8cfa146104af57806336568abe146104b757806339509351146104ca576103a4565b806321d7f008116103465780632f2ff15d116103155780632f2ff15d146104775780632fb565851461048a578063313ce56714610492578063326a55e0146104a7576103a4565b806321d7f0081461044157806323b872dd146104495780632436329d1461045c578063248a9ca314610464576103a4565b8063095ea7b311610382578063095ea7b3146103fc578063130f63201461040f57806317314d5a1461042457806318160ddd1461042c576103a4565b806301ffc9a7146103a9578063024bebe9146103d257806306fdde03146103e7575b600080fd5b6103bc6103b7366004612e71565b6106bc565b6040516103c99190612f77565b60405180910390f35b6103da6106e9565b6040516103c99190612f26565b6103ef6106f8565b6040516103c99190612fb0565b6103bc61040a366004612dc9565b61078a565b61042261041d366004612e14565b6107a8565b005b6104226107bf565b6104346107ca565b6040516103c99190612f82565b6103da6107d0565b6103bc610457366004612d89565b6107df565b61043461087f565b610434610472366004612e14565b610891565b610422610485366004612e2c565b6108a6565b6103bc6108cd565b61049a6108dc565b6040516103c99190613405565b6104226108e1565b6104226108f3565b6104226104c5366004612e2c565b6109d3565b6103bc6104d8366004612dc9565b6109f5565b6103da610a44565b6103da610a53565b610422610a62565b6104226108e9565b61043461050b366004612dc9565b610a6a565b61042261051e366004612e14565b610ab3565b6103da610abc565b610422610acb565b6103da610ad3565b6103da610ae2565b610422610af1565b6103da610b1d565b610434610561366004612d19565b610b2c565b6103da610b47565b6103da61057c366004612e50565b610b56565b6103bc61058f366004612e2c565b610b75565b6103ef610b9e565b610422610bad565b6104346105b2366004612e14565b610c43565b610434610c73565b610434610c78565b6103bc6105d5366004612dc9565b610c8a565b6103bc610d05565b6104226105f0366004612e14565b610d0e565b6103bc610603366004612dc9565b610e48565b6103da610e5c565b61043461061e366004612e14565b610e6b565b610434610e82565b610422610e94565b610434610f20565b610422610649366004612e2c565b610f32565b6103da610f3c565b610434610664366004612d51565b610f4b565b610422610f76565b6103da610f8c565b6103da610f9b565b610434610faa565b610422610fbc565b61042261069f366004612e14565b610fc4565b6104226110c0565b6103da61114b565b6103bc61115a565b60006001600160e01b03198216635a05180f60e01b14806106e157506106e182611187565b90505b919050565b600a546001600160a01b031681565b606060128054610707906134b8565b80601f0160208091040260200160405190810160405280929190818152602001828054610733906134b8565b80156107805780601f1061075557610100808354040283529160200191610780565b820191906000526020600020905b81548152906001019060200180831161076357829003601f168201915b5050505050905090565b600061079e6107976111ac565b84846111b0565b5060015b92915050565b6107b181611264565b506107bb816113cf565b5050565b6107c7611552565b50565b60115490565b6003546001600160a01b031681565b60006107ec848484611698565b6001600160a01b03841660009081526010602052604081208161080d6111ac565b6001600160a01b03166001600160a01b03168152602001908152602001600020549050828110156108595760405162461bcd60e51b8152600401610850906131f8565b60405180910390fd5b610874856108656111ac565b61086f868561345e565b6111b0565b506001949350505050565b60008051602061356483398151915281565b60009081526020819052604090206001015490565b6108b082826117c0565b60008281526001602052604090206108c89082611172565b505050565b60145462010000900460ff1681565b601290565b6108e96117e4565b6108f1611a3f565b565b61090b6000805160206135c483398151915233610b75565b80610929575061092960008051602061358483398151915233610b75565b80610947575061094760008051602061356483398151915233610b75565b6109635760405162461bcd60e51b8152600401610850906130d4565b600e60009054906101000a90046001600160a01b03166001600160a01b031663329a8cfa6040518163ffffffff1660e01b8152600401600060405180830381600087803b1580156109b357600080fd5b505af11580156109c7573d6000803e3d6000fd5b505050506108f1610acb565b6109dd8282611dbb565b60008281526001602052604090206108c89082611dfd565b600061079e610a026111ac565b848460106000610a106111ac565b6001600160a01b03908116825260208083019390935260409182016000908120918b168152925290205461086f9190613413565b600e546001600160a01b031681565b6007546001600160a01b031681565b6108f16117e4565b6001600160a01b038216600090815260156020526040812081908190610a91908590611e12565b9150915081610aa857610aa385610b2c565b610aaa565b805b95945050505050565b6107bb81611ec0565b600b546001600160a01b031681565b6108f16120f6565b600c546001600160a01b031681565b6019546001600160a01b031681565b610af96108e9565b600454601980546001600160a01b0319166001600160a01b03909216919091179055565b6008546001600160a01b031681565b6001600160a01b03166000908152600f602052604090205490565b6004546001600160a01b031681565b6000828152600160205260408120610b6e908361222d565b9392505050565b6000918252602082815260408084206001600160a01b0393909316845291905290205460ff1690565b606060138054610707906134b8565b610bc56000805160206135c483398151915233610b75565b80610be35750610be360008051602061358483398151915233610b75565b80610c015750610c0160008051602061356483398151915233610b75565b80610c1f5750610c1f6000805160206135a483398151915233610b75565b610c3b5760405162461bcd60e51b8152600401610850906130d4565b6107c7612239565b6000806000610c53846016611e12565b9150915081610c6957610c646107ca565b610c6b565b805b949350505050565b600081565b6000805160206135c483398151915281565b60008060106000610c996111ac565b6001600160a01b0390811682526020808301939093526040918201600090812091881681529252902054905082811015610ce55760405162461bcd60e51b81526004016108509061333a565b610cfb610cf06111ac565b8561086f868561345e565b5060019392505050565b60145460ff1681565b6000610d186107ca565b6019546040516370a0823160e01b815291925060009183916001600160a01b0316906370a0823190610d4e903090600401612f26565b60206040518083038186803b158015610d6657600080fd5b505afa158015610d7a573d6000803e3d6000fd5b505050506040513d601f19601f82011682018060405250810190610d9e9190612e99565b610da8908561343f565b610db2919061342b565b9050610dbe338461228f565b60195460405163a9059cbb60e01b81526001600160a01b039091169063a9059cbb90610df09033908590600401612f5e565b602060405180830381600087803b158015610e0a57600080fd5b505af1158015610e1e573d6000803e3d6000fd5b505050506040513d601f19601f82011682018060405250810190610e429190612df4565b50505050565b600061079e610e556111ac565b8484611698565b6005546001600160a01b031681565b60008181526001602052604081206106e190612375565b6000805160206135e483398151915281565b6019546040516370a0823160e01b81526000916001600160a01b0316906370a0823190610ec5903090600401612f26565b60206040518083038186803b158015610edd57600080fd5b505afa158015610ef1573d6000803e3d6000fd5b505050506040513d601f19601f82011682018060405250810190610f159190612e99565b90506107c781610fc4565b6000805160206135a483398151915281565b6109dd8282612380565b6009546001600160a01b031681565b6001600160a01b03918216600090815260106020908152604080832093909416825291909152205490565b6000610f8133610b2c565b90506107c781610d0e565b600d546001600160a01b031681565b6002546001600160a01b031681565b60008051602061358483398151915281565b6108f161239f565b6019546040516370a0823160e01b81526000916001600160a01b0316906370a0823190610ff5903090600401612f26565b60206040518083038186803b15801561100d57600080fd5b505afa158015611021573d6000803e3d6000fd5b505050506040513d601f19601f820116820180604052508101906110459190612e99565b905060006110516107ca565b9050806110675761106233846124d6565b61108c565b600082611074838661343f565b61107e919061342b565b905061108a33826124d6565b505b6019546040516323b872dd60e01b81526001600160a01b03909116906323b872dd90610df090339030908890600401612f3a565b6110d76000805160206135c4833981519152611ec0565b506110ef600080516020613584833981519152611ec0565b50611107600080516020613564833981519152611ec0565b5061111f6000805160206135a4833981519152611ec0565b506111376000805160206135e4833981519152611ec0565b506111426000611ec0565b506108f16120f6565b6006546001600160a01b031681565b601454610100900460ff1681565b6107bb8282612596565b6000610b6e836001600160a01b03841661261b565b60006001600160e01b03198216637965db0b60e01b14806106e157506106e182612665565b3390565b6001600160a01b0383166111d65760405162461bcd60e51b8152600401610850906132c6565b6001600160a01b0382166111fc5760405162461bcd60e51b815260040161085090613146565b6001600160a01b0380841660008181526010602090815260408083209487168084529490915290819020849055517f8c5be1e5ebec7d5bd14f71427d1e84f3dd0314c0f7b2291e5b200ac8c7c3b92590611257908590612f82565b60405180910390a3505050565b60405163ca15c87360e01b81526000908190309063ca15c8739061128c908690600401612f82565b60206040518083038186803b1580156112a457600080fd5b505afa1580156112b8573d6000803e3d6000fd5b505050506040513d601f19601f820116820180604052508101906112dc9190612e99565b905060005b81811015610cfb57604051632404341f60e21b81526000903090639010d07c906113119088908690600401612fa2565b60206040518083038186803b15801561132957600080fd5b505afa15801561133d573d6000803e3d6000fd5b505050506040513d601f19601f820116820180604052508101906113619190612d35565b60405163d547741f60e01b8152909150309063d547741f906113899088908590600401612f8b565b600060405180830381600087803b1580156113a357600080fd5b505af11580156113b7573d6000803e3d6000fd5b505050505080806113c7906134f3565b9150506112e1565b600e5460405163ca15c87360e01b815260009182916001600160a01b039091169063ca15c87390611404908690600401612f82565b60206040518083038186803b15801561141c57600080fd5b505afa158015611430573d6000803e3d6000fd5b505050506040513d601f19601f820116820180604052508101906114549190612e99565b905060005b81811015610cfb57600e54604051632404341f60e21b81526000916001600160a01b031690639010d07c906114949088908690600401612fa2565b60206040518083038186803b1580156114ac57600080fd5b505afa1580156114c0573d6000803e3d6000fd5b505050506040513d601f19601f820116820180604052508101906114e49190612d35565b604051632f2ff15d60e01b81529091503090632f2ff15d9061150c9088908590600401612f8b565b600060405180830381600087803b15801561152657600080fd5b505af115801561153a573d6000803e3d6000fd5b5050505050808061154a906134f3565b915050611459565b600061156b6000805160206135c4833981519152611264565b506115836000805160206135c48339815191526113cf565b61158c57600080fd5b6115a3600080516020613584833981519152611264565b506115bb6000805160206135848339815191526113cf565b6115c457600080fd5b6115db600080516020613564833981519152611264565b506115f36000805160206135648339815191526113cf565b6115fc57600080fd5b6116136000805160206135a4833981519152611264565b5061162b6000805160206135a48339815191526113cf565b61163457600080fd5b61164b6000805160206135e4833981519152611264565b506116636000805160206135e48339815191526113cf565b61166c57600080fd5b6116766000611264565b5061168160006113cf565b61168a57600080fd5b6116926120f6565b50600190565b6001600160a01b0383166116be5760405162461bcd60e51b815260040161085090613281565b6001600160a01b0382166116e45760405162461bcd60e51b815260040161085090613091565b6116ef83838361267e565b6001600160a01b0383166000908152600f6020526040902054818110156117285760405162461bcd60e51b815260040161085090613188565b611732828261345e565b6001600160a01b038086166000908152600f60205260408082209390935590851681529081208054849290611768908490613413565b92505081905550826001600160a01b0316846001600160a01b03167fddf252ad1be2c89b69c2b068fc378daa952ba7f163c4a11628f55a4df523b3ef846040516117b29190612f82565b60405180910390a350505050565b6117c982610891565b6117da816117d56111ac565b612689565b6108c88383612596565b600e60009054906101000a90046001600160a01b03166001600160a01b031663dadf56ac6040518163ffffffff1660e01b815260040160206040518083038186803b15801561183257600080fd5b505afa158015611846573d6000803e3d6000fd5b505050506040513d601f19601f8201168201806040525081019061186a9190612d35565b600980546001600160a01b0319166001600160a01b03928316179055600e546040805163024bebe960e01b81529051919092169163024bebe9916004808301926020929190829003018186803b1580156118c357600080fd5b505afa1580156118d7573d6000803e3d6000fd5b505050506040513d601f19601f820116820180604052508101906118fb9190612d35565b600a80546001600160a01b0319166001600160a01b03928316179055600e5460408051635b5c251f60e01b815290519190921691635b5c251f916004808301926020929190829003018186803b15801561195457600080fd5b505afa158015611968573d6000803e3d6000fd5b505050506040513d601f19601f8201168201806040525081019061198c9190612d35565b600b80546001600160a01b0319166001600160a01b03928316179055600e5460408051637310bf1d60e11b81529051919092169163e6217e3a916004808301926020929190829003018186803b1580156119e557600080fd5b505afa1580156119f9573d6000803e3d6000fd5b505050506040513d601f19601f82011682018060405250810190611a1d9190612d35565b600d80546001600160a01b0319166001600160a01b0392909216919091179055565b600e60009054906101000a90046001600160a01b03166001600160a01b03166321d7f0086040518163ffffffff1660e01b815260040160206040518083038186803b158015611a8d57600080fd5b505afa158015611aa1573d6000803e3d6000fd5b505050506040513d601f19601f82011682018060405250810190611ac59190612d35565b600380546001600160a01b0319166001600160a01b03928316179055600e546040805163762ddb5960e01b81529051919092169163762ddb59916004808301926020929190829003018186803b158015611b1e57600080fd5b505afa158015611b32573d6000803e3d6000fd5b505050506040513d601f19601f82011682018060405250810190611b569190612d35565b600480546001600160a01b0319166001600160a01b03928316178155600e546040805163bfb7dc9960e01b81529051919093169263bfb7dc999281810192602092909190829003018186803b158015611bae57600080fd5b505afa158015611bc2573d6000803e3d6000fd5b505050506040513d601f19601f82011682018060405250810190611be69190612d35565b600580546001600160a01b0319166001600160a01b03928316179055600e5460408051633e6111eb60e21b81529051919092169163f98447ac916004808301926020929190829003018186803b158015611c3f57600080fd5b505afa158015611c53573d6000803e3d6000fd5b505050506040513d601f19601f82011682018060405250810190611c779190612d35565b600680546001600160a01b0319166001600160a01b03928316179055600e5460408051630fe1ba9f60e21b815290519190921691633f86ea7c916004808301926020929190829003018186803b158015611cd057600080fd5b505afa158015611ce4573d6000803e3d6000fd5b505050506040513d601f19601f82011682018060405250810190611d089190612d35565b600780546001600160a01b0319166001600160a01b03928316179055600e5460408051636b58477560e01b815290519190921691636b584775916004808301926020929190829003018186803b158015611d6157600080fd5b505afa158015611d75573d6000803e3d6000fd5b505050506040513d601f19601f82011682018060405250810190611d999190612d35565b600880546001600160a01b0319166001600160a01b0392909216919091179055565b611dc36111ac565b6001600160a01b0316816001600160a01b031614611df35760405162461bcd60e51b81526004016108509061337f565b6107bb82826126ed565b6000610b6e836001600160a01b038416612770565b60008060008411611e355760405162461bcd60e51b81526004016108509061330a565b611e3f6018612887565b841115611e5e5760405162461bcd60e51b815260040161085090612fe3565b6000611e6a848661288b565b8454909150811415611e83576000809250925050611eb9565b6001846001018281548110611ea857634e487b7160e01b600052603260045260246000fd5b906000526020600020015492509250505b9250929050565b600e5460405163ca15c87360e01b815260009182916001600160a01b039091169063ca15c87390611ef5908690600401612f82565b60206040518083038186803b158015611f0d57600080fd5b505afa158015611f21573d6000803e3d6000fd5b505050506040513d601f19601f82011682018060405250810190611f459190612e99565b60405163ca15c87360e01b8152909150600090309063ca15c87390611f6e908790600401612f82565b60206040518083038186803b158015611f8657600080fd5b505afa158015611f9a573d6000803e3d6000fd5b505050506040513d601f19601f82011682018060405250810190611fbe9190612e99565b90506000611fcc828461345e565b905060008111611fee5760405162461bcd60e51b8152600401610850906131ce565b60005b818110156120ea57600e54604051632404341f60e21b81526000916001600160a01b031690639010d07c9061202c908a908690600401612fa2565b60206040518083038186803b15801561204457600080fd5b505afa158015612058573d6000803e3d6000fd5b505050506040513d601f19601f8201168201806040525081019061207c9190612d35565b604051632f2ff15d60e01b81529091503090632f2ff15d906120a4908a908590600401612f8b565b600060405180830381600087803b1580156120be57600080fd5b505af11580156120d2573d6000803e3d6000fd5b505050505080806120e2906134f3565b915050611ff1565b50600195945050505050565b600e60009054906101000a90046001600160a01b03166001600160a01b031663ff7e88ec6040518163ffffffff1660e01b815260040160206040518083038186803b15801561214457600080fd5b505afa158015612158573d6000803e3d6000fd5b505050506040513d601f19601f8201168201806040525081019061217c9190612df4565b601480549115156101000261ff0019909216919091179055600e5460408051632fb5658560e01b815290516001600160a01b0390921691632fb5658591600480820192602092909190829003018186803b1580156121d957600080fd5b505afa1580156121ed573d6000803e3d6000fd5b505050506040513d601f19601f820116820180604052508101906122119190612df4565b60148054911515620100000262ff000019909216919091179055565b6000610b6e838361296a565b600061224560186129c3565b60006122516018612887565b90507f8030e83b04d87bef53480e26263266d6ca66863aa8506aca6f2559d18aa1cb67816040516122829190612f82565b60405180910390a1905090565b6001600160a01b0382166122b55760405162461bcd60e51b815260040161085090613240565b6122c18260008361267e565b6001600160a01b0382166000908152600f6020526040902054818110156122fa5760405162461bcd60e51b815260040161085090613104565b612304828261345e565b6001600160a01b0384166000908152600f60205260408120919091556011805484929061233290849061345e565b90915550506040516000906001600160a01b038516907fddf252ad1be2c89b69c2b068fc378daa952ba7f163c4a11628f55a4df523b3ef90611257908690612f82565b60006106e182612887565b61238982610891565b612395816117d56111ac565b6108c883836126ed565b600e60009054906101000a90046001600160a01b03166001600160a01b031663a44b93256040518163ffffffff1660e01b815260040160206040518083038186803b1580156123ed57600080fd5b505afa158015612401573d6000803e3d6000fd5b505050506040513d601f19601f820116820180604052508101906124259190612df4565b61242e57600080fd5b600e60009054906101000a90046001600160a01b03166001600160a01b031663ac7cfac36040518163ffffffff1660e01b815260040160206040518083038186803b15801561247c57600080fd5b505afa158015612490573d6000803e3d6000fd5b505050506040513d601f19601f820116820180604052508101906124b49190612d35565b600280546001600160a01b0319166001600160a01b0392909216919091179055565b6001600160a01b0382166124fc5760405162461bcd60e51b8152600401610850906133ce565b6125086000838361267e565b806011600082825461251a9190613413565b90915550506001600160a01b0382166000908152600f602052604081208054839290612547908490613413565b90915550506040516001600160a01b038316906000907fddf252ad1be2c89b69c2b068fc378daa952ba7f163c4a11628f55a4df523b3ef9061258a908590612f82565b60405180910390a35050565b6125a08282610b75565b6107bb576000828152602081815260408083206001600160a01b03851684529091529020805460ff191660011790556125d76111ac565b6001600160a01b0316816001600160a01b0316837f2f8788117e7eff1d82e926ec794901d17c78024a50270940304540a733656f0d60405160405180910390a45050565b600061262783836129cc565b61265d575081546001818101845560008481526020808220909301849055845484825282860190935260409020919091556107a2565b5060006107a2565b6001600160e01b031981166301ffc9a760e01b14919050565b6108c88383836129e4565b6126938282610b75565b6107bb576126ab816001600160a01b03166014612a3c565b6126b6836020612a3c565b6040516020016126c7929190612eb1565b60408051601f198184030181529082905262461bcd60e51b825261085091600401612fb0565b6126f78282610b75565b156107bb576000828152602081815260408083206001600160a01b03851684529091529020805460ff1916905561272c6111ac565b6001600160a01b0316816001600160a01b0316837ff6391f5c32d9c69d2a47ea670b442974b53935d1edc7fd64eb21e047a839171b60405160405180910390a45050565b6000818152600183016020526040812054801561287d57600061279460018361345e565b85549091506000906127a89060019061345e565b905060008660000182815481106127cf57634e487b7160e01b600052603260045260246000fd5b906000526020600020015490508087600001848154811061280057634e487b7160e01b600052603260045260246000fd5b60009182526020808320909101929092558281526001890190915260409020849055865487908061284157634e487b7160e01b600052603160045260246000fd5b600190038181906000526020600020016000905590558660010160008781526020019081526020016000206000905560019450505050506107a2565b60009150506107a2565b5490565b815460009061289c575060006107a2565b82546000905b808210156129065760006128b68383612bee565b9050848682815481106128d957634e487b7160e01b600052603260045260246000fd5b906000526020600020015411156128f257809150612900565b6128fd816001613413565b92505b506128a2565b6000821180156129495750838561291e60018561345e565b8154811061293c57634e487b7160e01b600052603260045260246000fd5b9060005260206000200154145b156129625761295960018361345e565b925050506107a2565b5090506107a2565b8154600090821061298d5760405162461bcd60e51b81526004016108509061301a565b8260000182815481106129b057634e487b7160e01b600052603260045260246000fd5b9060005260206000200154905092915050565b80546001019055565b60009081526001919091016020526040902054151590565b6129ef8383836108c8565b6001600160a01b038316612a1357612a0682612c45565b612a0e612c6f565b6108c8565b6001600160a01b038216612a2a57612a0683612c45565b612a3383612c45565b6108c882612c45565b60606000612a4b83600261343f565b612a56906002613413565b67ffffffffffffffff811115612a7c57634e487b7160e01b600052604160045260246000fd5b6040519080825280601f01601f191660200182016040528015612aa6576020820181803683370190505b509050600360fc1b81600081518110612acf57634e487b7160e01b600052603260045260246000fd5b60200101906001600160f81b031916908160001a905350600f60fb1b81600181518110612b0c57634e487b7160e01b600052603260045260246000fd5b60200101906001600160f81b031916908160001a9053506000612b3084600261343f565b612b3b906001613413565b90505b6001811115612bcf576f181899199a1a9b1b9c1cb0b131b232b360811b85600f1660108110612b7d57634e487b7160e01b600052603260045260246000fd5b1a60f81b828281518110612ba157634e487b7160e01b600052603260045260246000fd5b60200101906001600160f81b031916908160001a90535060049490941c93612bc8816134a1565b9050612b3e565b508315610b6e5760405162461bcd60e51b81526004016108509061305c565b60006002612bfc818461350e565b612c0760028661350e565b612c119190613413565b612c1b919061342b565b612c2660028461342b565b612c3160028661342b565b612c3b9190613413565b610b6e9190613413565b6001600160a01b03811660009081526015602052604090206107c790612c6a83610b2c565b612c7c565b6108f16016612c6a6107ca565b6000612c886018612887565b905080612c9484612cc8565b10156108c8578254600180820185556000858152602080822090930193909355938401805494850181558252902090910155565b8054600090612cd9575060006106e4565b81548290612ce99060019061345e565b81548110612d0757634e487b7160e01b600052603260045260246000fd5b906000526020600020015490506106e4565b600060208284031215612d2a578081fd5b8135610b6e8161354e565b600060208284031215612d46578081fd5b8151610b6e8161354e565b60008060408385031215612d63578081fd5b8235612d6e8161354e565b91506020830135612d7e8161354e565b809150509250929050565b600080600060608486031215612d9d578081fd5b8335612da88161354e565b92506020840135612db88161354e565b929592945050506040919091013590565b60008060408385031215612ddb578182fd5b8235612de68161354e565b946020939093013593505050565b600060208284031215612e05578081fd5b81518015158114610b6e578182fd5b600060208284031215612e25578081fd5b5035919050565b60008060408385031215612e3e578182fd5b823591506020830135612d7e8161354e565b60008060408385031215612e62578182fd5b50508035926020909101359150565b600060208284031215612e82578081fd5b81356001600160e01b031981168114610b6e578182fd5b600060208284031215612eaa578081fd5b5051919050565b60007f416363657373436f6e74726f6c3a206163636f756e742000000000000000000082528351612ee9816017850160208801613475565b7001034b99036b4b9b9b4b733903937b6329607d1b6017918401918201528351612f1a816028840160208801613475565b01602801949350505050565b6001600160a01b0391909116815260200190565b6001600160a01b039384168152919092166020820152604081019190915260600190565b6001600160a01b03929092168252602082015260400190565b901515815260200190565b90815260200190565b9182526001600160a01b0316602082015260400190565b918252602082015260400190565b6000602082528251806020840152612fcf816040850160208701613475565b601f01601f19169190910160400192915050565b6020808252601d908201527f4552433230536e617073686f743a206e6f6e6578697374656e74206964000000604082015260600190565b60208082526022908201527f456e756d657261626c655365743a20696e646578206f7574206f6620626f756e604082015261647360f01b606082015260800190565b6020808252818101527f537472696e67733a20686578206c656e67746820696e73756666696369656e74604082015260600190565b60208082526023908201527f45524332303a207472616e7366657220746f20746865207a65726f206164647260408201526265737360e81b606082015260800190565b6020808252601690820152752cb7ba93b932903737ba103a3432903130b4b634b33360511b604082015260600190565b60208082526022908201527f45524332303a206275726e20616d6f756e7420657863656564732062616c616e604082015261636560f01b606082015260800190565b60208082526022908201527f45524332303a20617070726f766520746f20746865207a65726f206164647265604082015261737360f01b606082015260800190565b60208082526026908201527f45524332303a207472616e7366657220616d6f756e7420657863656564732062604082015265616c616e636560d01b606082015260800190565b60208082526010908201526f4e6f7468696e6720746f2073796e632160801b604082015260600190565b60208082526028908201527f45524332303a207472616e7366657220616d6f756e74206578636565647320616040820152676c6c6f77616e636560c01b606082015260800190565b60208082526021908201527f45524332303a206275726e2066726f6d20746865207a65726f206164647265736040820152607360f81b606082015260800190565b60208082526025908201527f45524332303a207472616e736665722066726f6d20746865207a65726f206164604082015264647265737360d81b606082015260800190565b60208082526024908201527f45524332303a20617070726f76652066726f6d20746865207a65726f206164646040820152637265737360e01b606082015260800190565b60208082526016908201527504552433230536e617073686f743a20696420697320360541b604082015260600190565b60208082526025908201527f45524332303a2064656372656173656420616c6c6f77616e63652062656c6f77604082015264207a65726f60d81b606082015260800190565b6020808252602f908201527f416363657373436f6e74726f6c3a2063616e206f6e6c792072656e6f756e636560408201526e103937b632b9903337b91039b2b63360891b606082015260800190565b6020808252601f908201527f45524332303a206d696e7420746f20746865207a65726f206164647265737300604082015260600190565b60ff91909116815260200190565b6000821982111561342657613426613522565b500190565b60008261343a5761343a613538565b500490565b600081600019048311821515161561345957613459613522565b500290565b60008282101561347057613470613522565b500390565b60005b83811015613490578181015183820152602001613478565b83811115610e425750506000910152565b6000816134b0576134b0613522565b506000190190565b6002810460018216806134cc57607f821691505b602082108114156134ed57634e487b7160e01b600052602260045260246000fd5b50919050565b600060001982141561350757613507613522565b5060010190565b60008261351d5761351d613538565b500690565b634e487b7160e01b600052601160045260246000fd5b634e487b7160e01b600052601260045260246000fd5b6001600160a01b03811681146107c757600080fdfefa8e4989e1d689f7bc5c4b25b87efb51fecdecb19ba62847e29c759e12a89acd048bc71fa1cb2c119c339cf9cf00a97996a19a9d991ce5fe049f2fa5459e7990f0f4b159a6e2a4815eb3ca3df080bfa70c9270662c59bcaa4479a456220183e60538d24a8b7882d7b2e36af243d4af61c23e86e3daa6cb8c887b53220b2f57207c9d7f6f02908185bffb3f7fc9afb29fd7bf93675af8fd4b655ee05c2cee1e0ea26469706673582212204c0eea3979054be6f620743dbbe18ca370fe8fab21d1b833223bc2ef2abbafe264736f6c63430008000033",
  "immutableReferences": {},
  "source": "// SPDX-License-Identifier: MIT\n// Inspired by SushiSwap SushiBar\n\n\n// I have not implemented slashing or anything fancy yet. This is a functional placeholder.\npragma solidity 0.8.0;\n\nimport \"../src/SmartConsensusMachine.sol\";\nimport \"@openzeppelin/contracts/token/ERC20/IERC20.sol\";\nimport \"@openzeppelin/contracts/token/ERC20/ERC20.sol\";\nimport \"@openzeppelin/contracts/token/ERC20/extensions/ERC20Snapshot.sol\";\n\n\ncontract JuryPool is ERC20(\"Jury Hats\", \"HATS\"), SmartConsensusMachine, ERC20Snapshot {\n\n    ERC20 public redPens;\n\n\n    constructor(address _AddressManagerAddress) SmartConsensusMachine(_AddressManagerAddress)  {\n\n    }\n\n\n    function updateStakingToken() public {\n        updateTokenAddresses();\n        redPens = ERC20(RedPenTokenAddress);\n    }\n    \n    function stakePens() public {\n        uint256 amountToStake = redPens.balanceOf(address(this));\n        stakePens(amountToStake);\n    }\n\n    function stakePens(uint256 _amount) public {\n \n        uint256 totalPensStaked = redPens.balanceOf(address(this));\n        uint256 totalHatsCirculating = totalSupply();\n\n        if (totalHatsCirculating == 0) {\n            _mint(msg.sender, _amount);\n        } else {\n            uint256 hatsToDistribute = (_amount * totalHatsCirculating / totalPensStaked);\n            _mint(msg.sender, hatsToDistribute);\n        }\n\n        redPens.transferFrom(msg.sender, address(this), _amount);\n    }\n\n     function returnHats() public {\n         uint256 _amount = balanceOf(msg.sender);\n         returnHats(_amount);\n    }\n\n    function returnHats(uint256 _amount) public {\n        uint256 totalHats = totalSupply();\n        uint256 pensToDistrubute = (_amount * (redPens.balanceOf(address(this))) / totalHats);\n       \n        _burn(msg.sender, _amount);\n        redPens.transfer(msg.sender, pensToDistrubute);\n    \n    }\n\n    function snapshot() public MINI_BAILIFF {\n        _snapshot();\n    }\n\n    function _beforeTokenTransfer(address from, address to, uint256 amount)\n        internal\n        override(ERC20, ERC20Snapshot)\n    {\n        super._beforeTokenTransfer(from, to, amount);\n    }\n}",
  "sourcePath": "/home/n/Desktop/v3_fronternd/PinkSlips_FrontEnd (reformat)3/contracts/govTokens/JuryPool.sol",
  "compiler": {
    "name": "solc",
    "version": "0.8.0+commit.c7dfd78e.Emscripten.clang"
  },
  "schemaVersion": "3.4.1",
  "updatedAt": "2021-07-01T07:12:52.779Z",
  "networkType": "ethereum",
  "devdoc": {
    "kind": "dev",
    "methods": {
      "allowance(address,address)": {
        "details": "See {IERC20-allowance}."
      },
      "approve(address,uint256)": {
        "details": "See {IERC20-approve}. Requirements: - `spender` cannot be the zero address."
      },
      "balanceOf(address)": {
        "details": "See {IERC20-balanceOf}."
      },
      "balanceOfAt(address,uint256)": {
        "details": "Retrieves the balance of `account` at the time `snapshotId` was created."
      },
      "decimals()": {
        "details": "Returns the number of decimals used to get its user representation. For example, if `decimals` equals `2`, a balance of `505` tokens should be displayed to a user as `5,05` (`505 / 10 ** 2`). Tokens usually opt for a value of 18, imitating the relationship between Ether and Wei. This is the value {ERC20} uses, unless this function is overridden; NOTE: This information is only used for _display_ purposes: it in no way affects any of the arithmetic of the contract, including {IERC20-balanceOf} and {IERC20-transfer}."
      },
      "decreaseAllowance(address,uint256)": {
        "details": "Atomically decreases the allowance granted to `spender` by the caller. This is an alternative to {approve} that can be used as a mitigation for problems described in {IERC20-approve}. Emits an {Approval} event indicating the updated allowance. Requirements: - `spender` cannot be the zero address. - `spender` must have allowance for the caller of at least `subtractedValue`."
      },
      "getRoleAdmin(bytes32)": {
        "details": "Returns the admin role that controls `role`. See {grantRole} and {revokeRole}. To change a role's admin, use {_setRoleAdmin}."
      },
      "getRoleMember(bytes32,uint256)": {
        "details": "Returns one of the accounts that have `role`. `index` must be a value between 0 and {getRoleMemberCount}, non-inclusive. Role bearers are not sorted in any particular way, and their ordering may change at any point. WARNING: When using {getRoleMember} and {getRoleMemberCount}, make sure you perform all queries on the same block. See the following https://forum.openzeppelin.com/t/iterating-over-elements-on-enumerableset-in-openzeppelin-contracts/2296[forum post] for more information."
      },
      "getRoleMemberCount(bytes32)": {
        "details": "Returns the number of accounts that have `role`. Can be used together with {getRoleMember} to enumerate all bearers of a role."
      },
      "grantRole(bytes32,address)": {
        "details": "Overload {grantRole} to track enumerable memberships"
      },
      "hasRole(bytes32,address)": {
        "details": "Returns `true` if `account` has been granted `role`."
      },
      "increaseAllowance(address,uint256)": {
        "details": "Atomically increases the allowance granted to `spender` by the caller. This is an alternative to {approve} that can be used as a mitigation for problems described in {IERC20-approve}. Emits an {Approval} event indicating the updated allowance. Requirements: - `spender` cannot be the zero address."
      },
      "name()": {
        "details": "Returns the name of the token."
      },
      "renounceRole(bytes32,address)": {
        "details": "Overload {renounceRole} to track enumerable memberships"
      },
      "revokeRole(bytes32,address)": {
        "details": "Overload {revokeRole} to track enumerable memberships"
      },
      "supportsInterface(bytes4)": {
        "details": "See {IERC165-supportsInterface}."
      },
      "symbol()": {
        "details": "Returns the symbol of the token, usually a shorter version of the name."
      },
      "totalSupply()": {
        "details": "See {IERC20-totalSupply}."
      },
      "totalSupplyAt(uint256)": {
        "details": "Retrieves the total supply at the time `snapshotId` was created."
      },
      "transfer(address,uint256)": {
        "details": "See {IERC20-transfer}. Requirements: - `recipient` cannot be the zero address. - the caller must have a balance of at least `amount`."
      },
      "transferFrom(address,address,uint256)": {
        "details": "See {IERC20-transferFrom}. Emits an {Approval} event indicating the updated allowance. This is not required by the EIP. See the note at the beginning of {ERC20}. Requirements: - `sender` and `recipient` cannot be the zero address. - `sender` must have a balance of at least `amount`. - the caller must have allowance for ``sender``'s tokens of at least `amount`."
      }
    },
    "version": 1
  },
  "userdoc": {
    "kind": "user",
    "methods": {},
    "version": 1
  }
}