{
  "contractName": "Minion",
  "abi": [
    {
      "inputs": [
        {
          "internalType": "address",
          "name": "_moloch",
          "type": "address"
        }
      ],
      "payable": false,
      "stateMutability": "nonpayable",
      "type": "constructor"
    },
    {
      "anonymous": false,
      "inputs": [
        {
          "indexed": false,
          "internalType": "uint256",
          "name": "proposalId",
          "type": "uint256"
        },
        {
          "indexed": false,
          "internalType": "address",
          "name": "executor",
          "type": "address"
        }
      ],
      "name": "ActionExecuted",
      "type": "event"
    },
    {
      "anonymous": false,
      "inputs": [
        {
          "indexed": false,
          "internalType": "uint256",
          "name": "proposalId",
          "type": "uint256"
        },
        {
          "indexed": false,
          "internalType": "address",
          "name": "proposer",
          "type": "address"
        }
      ],
      "name": "ActionProposed",
      "type": "event"
    },
    {
      "payable": true,
      "stateMutability": "payable",
      "type": "fallback"
    },
    {
      "constant": true,
      "inputs": [],
      "name": "MINION_ACTION_DETAILS",
      "outputs": [
        {
          "internalType": "string",
          "name": "",
          "type": "string"
        }
      ],
      "payable": false,
      "stateMutability": "view",
      "type": "function"
    },
    {
      "constant": true,
      "inputs": [
        {
          "internalType": "uint256",
          "name": "",
          "type": "uint256"
        }
      ],
      "name": "actions",
      "outputs": [
        {
          "internalType": "uint256",
          "name": "value",
          "type": "uint256"
        },
        {
          "internalType": "address",
          "name": "to",
          "type": "address"
        },
        {
          "internalType": "address",
          "name": "proposer",
          "type": "address"
        },
        {
          "internalType": "bool",
          "name": "executed",
          "type": "bool"
        },
        {
          "internalType": "bytes",
          "name": "data",
          "type": "bytes"
        }
      ],
      "payable": false,
      "stateMutability": "view",
      "type": "function"
    },
    {
      "constant": true,
      "inputs": [],
      "name": "moloch",
      "outputs": [
        {
          "internalType": "contract Moloch",
          "name": "",
          "type": "address"
        }
      ],
      "payable": false,
      "stateMutability": "view",
      "type": "function"
    },
    {
      "constant": true,
      "inputs": [],
      "name": "molochApprovedToken",
      "outputs": [
        {
          "internalType": "address",
          "name": "",
          "type": "address"
        }
      ],
      "payable": false,
      "stateMutability": "view",
      "type": "function"
    },
    {
      "constant": false,
      "inputs": [
        {
          "internalType": "address",
          "name": "_token",
          "type": "address"
        },
        {
          "internalType": "uint256",
          "name": "_amount",
          "type": "uint256"
        }
      ],
      "name": "doWithdraw",
      "outputs": [],
      "payable": false,
      "stateMutability": "nonpayable",
      "type": "function"
    },
    {
      "constant": false,
      "inputs": [
        {
          "internalType": "address",
          "name": "_actionTo",
          "type": "address"
        },
        {
          "internalType": "uint256",
          "name": "_actionValue",
          "type": "uint256"
        },
        {
          "internalType": "bytes",
          "name": "_actionData",
          "type": "bytes"
        },
        {
          "internalType": "string",
          "name": "_description",
          "type": "string"
        }
      ],
      "name": "proposeAction",
      "outputs": [
        {
          "internalType": "uint256",
          "name": "",
          "type": "uint256"
        }
      ],
      "payable": false,
      "stateMutability": "nonpayable",
      "type": "function"
    },
    {
      "constant": false,
      "inputs": [
        {
          "internalType": "uint256",
          "name": "_proposalId",
          "type": "uint256"
        }
      ],
      "name": "executeAction",
      "outputs": [
        {
          "internalType": "bytes",
          "name": "",
          "type": "bytes"
        }
      ],
      "payable": false,
      "stateMutability": "nonpayable",
      "type": "function"
    }
  ],
  "bytecode": "0x608060405234801561001057600080fd5b50604051610fcd380380610fcd8339818101604052602081101561003357600080fd5b5051600080546001600160a01b0319166001600160a01b038084169190911791829055604080517fc89039c50000000000000000000000000000000000000000000000000000000081529051929091169163c89039c591600480820192602092909190829003018186803b1580156100aa57600080fd5b505afa1580156100be573d6000803e3d6000fd5b505050506040513d60208110156100d457600080fd5b5051600180546001600160a01b0319166001600160a01b0390921691909117905550610ec8806101056000396000f3fe6080604052600436106100705760003560e01c8063623d9ac91161004e578063623d9ac91461023d578063730d43761461025257806383240f83146102dc578063c0c1cf55146103c257610070565b8063138bd1a7146100725780633381114b146100a35780635670dd48146100dc575b005b34801561007e57600080fd5b506100876103ec565b604080516001600160a01b039092168252519081900360200190f35b3480156100af57600080fd5b50610070600480360360408110156100c657600080fd5b506001600160a01b0381351690602001356103fb565b3480156100e857600080fd5b5061022b600480360360808110156100ff57600080fd5b6001600160a01b038235169160208101359181019060608101604082013564010000000081111561012f57600080fd5b82018360208201111561014157600080fd5b8035906020019184600183028401116401000000008311171561016357600080fd5b91908080601f01602080910402602001604051908101604052809392919081815260200183838082843760009201919091525092959493602081019350359150506401000000008111156101b657600080fd5b8201836020820111156101c857600080fd5b803590602001918460018302840111640100000000831117156101ea57600080fd5b91908080601f016020809104026020016040519081016040528093929190818152602001838380828437600092019190915250929550610469945050505050565b60408051918252519081900360200190f35b34801561024957600080fd5b506100876107c4565b34801561025e57600080fd5b506102676107d3565b6040805160208082528351818301528351919283929083019185019080838360005b838110156102a1578181015183820152602001610289565b50505050905090810190601f1680156102ce5780820380516001836020036101000a031916815260200191505b509250505060405180910390f35b3480156102e857600080fd5b50610306600480360360208110156102ff57600080fd5b50356107ef565b60405180868152602001856001600160a01b03166001600160a01b03168152602001846001600160a01b03166001600160a01b031681526020018315151515815260200180602001828103825283818151815260200191508051906020019080838360005b8381101561038357818101518382015260200161036b565b50505050905090810190601f1680156103b05780820380516001836020036101000a031916815260200191505b50965050505050505060405180910390f35b3480156103ce57600080fd5b50610267600480360360208110156103e557600080fd5b50356108b6565b6001546001600160a01b031681565b6000805460408051630cf20cc960e01b81526001600160a01b0386811660048301526024820186905291519190921692630cf20cc9926044808201939182900301818387803b15801561044d57600080fd5b505af1158015610461573d6000803e3d6000fd5b505050505050565b60006001600160a01b0385166104c6576040805162461bcd60e51b815260206004820152601960248201527f4d696e696f6e3a3a696e76616c6964205f616374696f6e546f00000000000000604482015290519081900360640190fd5b6060604051806060016040528060348152602001610e6060349139836040516020018083805190602001908083835b602083106105145780518252601f1990920191602091820191016104f5565b51815160209384036101000a600019018019909216911617905285519190930192850191508083835b6020831061055c5780518252601f19909201916020918201910161053d565b518151602093840361010090810a600019018019909316929091169190911790915261227d60f01b9290940191825260408051808403601d1901815260028401918290526000805460015463590f940b60e01b90945230600687018181526026880184905260468801849052606688018490526001600160a01b039586166086890181905260a6890185905260c6890181905260e689019a8b5285516101068a01528551959e50939c5094909116995063590f940b9850968a9650869586959294869486948f9492936101260191908501908083838a5b8381101561064b578181015183820152602001610633565b50505050905090810190601f1680156106785780820380516001836020036101000a031916815260200191505b509950505050505050505050602060405180830381600087803b15801561069e57600080fd5b505af11580156106b2573d6000803e3d6000fd5b505050506040513d60208110156106c857600080fd5b505190506106d4610d63565b506040805160a0810182528781526001600160a01b03808a16602080840191825233848601908152600060608601818152608087018d81528983526002808652989092208751815594516001860180549188166001600160a01b03199283161790559251978501805491511515600160a01b0260ff60a01b1999909716919093161796909616939093179092559251805192938493909261077c926003850192910190610da6565b50506040805184815233602082015281517fe9e306cc0069882f06f093ec95c40360810b4100c76789c94ca44645345d217f93509081900390910190a1509695505050505050565b6000546001600160a01b031681565b604051806060016040528060348152602001610e606034913981565b60026020818152600092835260409283902080546001808301548386015460038501805489516101009582161595909502600019011697909704601f810187900487028401870190985287835292966001600160a01b039182169691841695600160a01b90940460ff1694938301828280156108ac5780601f10610881576101008083540402835291602001916108ac565b820191906000526020600020905b81548152906001019060200180831161088f57829003601f168201915b5050505050905085565b60606108c0610d63565b600083815260026020818152604092839020835160a081018552815481526001808301546001600160a01b03908116838601528386015490811683880152600160a01b900460ff161515606083015260038301805487516101009382161593909302600019011695909504601f81018590048502820185019096528581529094919360808601939192909183018282801561099c5780601f106109715761010080835404028352916020019161099c565b820191906000526020600020905b81548152906001019060200180831161097f57829003601f168201915b50505050508152505090506109af610e24565b6000546040805163b2643aab60e01b81526004810187905290516001600160a01b039092169163b2643aab9160248082019260c092909190829003018186803b1580156109fb57600080fd5b505afa158015610a0f573d6000803e3d6000fd5b505050506040513d601f19601f8201168201806040525060c0811015610a3457600080fd5b5060208301519091506001600160a01b0316610a97576040805162461bcd60e51b815260206004820152601b60248201527f4d696e696f6e3a3a696e76616c6964205f70726f706f73616c49640000000000604482015290519081900360640190fd5b60005460208301516001600160a01b0390811691161415610af8576040805162461bcd60e51b8152602060048201526016602482015275135a5b9a5bdb8e8e9a5b9d985b1a59081d185c99d95d60521b604482015290519081900360640190fd5b816060015115610b4f576040805162461bcd60e51b815260206004820152601760248201527f4d696e696f6e3a3a616374696f6e206578656375746564000000000000000000604482015290519081900360640190fd5b815130311015610ba6576040805162461bcd60e51b815260206004820152601860248201527f4d696e696f6e3a3a696e73756666696369656e74206574680000000000000000604482015290519081900360640190fd5b6040810151610bfc576040805162461bcd60e51b815260206004820152601b60248201527f4d696e696f6e3a3a70726f706f73616c206e6f74207061737365640000000000604482015290519081900360640190fd5b6000848152600260208181526040808420909201805460ff60a01b1916600160a01b1790558481015185516080870151935184516060956001600160a01b03909416949293928291908401908083835b60208310610c6b5780518252601f199092019160209182019101610c4c565b6001836020036101000a03801982511681845116808217855250505050505090500191505060006040518083038185875af1925050503d8060008114610ccd576040519150601f19603f3d011682016040523d82523d6000602084013e610cd2565b606091505b509150915081610d20576040805162461bcd60e51b81526020600482015260146024820152734d696e696f6e3a3a63616c6c206661696c75726560601b604482015290519081900360640190fd5b6040805187815233602082015281517f78a7d64f64ef6891bedfc1b6854447113cca07ace8747b8a6cf32a0fd5a80b17929181900390910190a195945050505050565b6040518060a001604052806000815260200160006001600160a01b0316815260200160006001600160a01b03168152602001600015158152602001606081525090565b828054600181600116156101000203166002900490600052602060002090601f016020900481019282601f10610de757805160ff1916838001178555610e14565b82800160010185558215610e14579182015b82811115610e14578251825591602001919060010190610df9565b50610e20929150610e42565b5090565b6040518060c001604052806006906020820280388339509192915050565b610e5c91905b80821115610e205760008155600101610e48565b9056fe7b2269734d696e696f6e223a20747275652c20227469746c65223a224d494e494f4e222c20226465736372697074696f6e223a22a265627a7a723158206acf0fef942fc5929a9241d6121f6b96ac7f0c4c04b144884bf235677a7b4b8364736f6c634300050c0032",
  "source": "pragma solidity 0.5.12;\n\nimport \"./moloch/Moloch.sol\";\n\ncontract Minion {\n\n    string public constant MINION_ACTION_DETAILS = '{\"isMinion\": true, \"title\":\"MINION\", \"description\":\"';\n\n    Moloch public moloch;\n    address public molochApprovedToken;\n    mapping (uint256 => Action) public actions; // proposalId => Action\n\n    struct Action {\n        uint256 value;\n        address to;\n        address proposer;\n        bool executed;\n        bytes data;\n    }\n\n    event ActionProposed(uint256 proposalId, address proposer);\n    event ActionExecuted(uint256 proposalId, address executor);\n\n    constructor(address _moloch) public {\n        moloch = Moloch(_moloch);\n        molochApprovedToken = moloch.depositToken();\n    }\n\n    // withdraw funds from the moloch\n    function doWithdraw(address _token, uint256 _amount) public {\n        moloch.withdrawBalance(_token, _amount);\n    }\n\n    function proposeAction(\n        address _actionTo,\n        uint256 _actionValue,\n        bytes memory _actionData,\n        string memory _description\n    )\n        public\n        returns (uint256)\n    {\n        // No calls to zero address allows us to check that Minion submitted\n        // the proposal without getting the proposal struct from the moloch\n        require(_actionTo != address(0), \"Minion::invalid _actionTo\");\n\n        string memory details = string(abi.encodePacked(MINION_ACTION_DETAILS, _description, '\"}'));\n\n        uint256 proposalId = moloch.submitProposal(\n            address(this),\n            0,\n            0,\n            0,\n            molochApprovedToken,\n            0,\n            molochApprovedToken,\n            details\n        );\n\n        Action memory action = Action({\n            value: _actionValue,\n            to: _actionTo,\n            proposer: msg.sender,\n            executed: false,\n            data: _actionData\n        });\n\n        actions[proposalId] = action;\n\n        emit ActionProposed(proposalId, msg.sender);\n        return proposalId;\n    }\n\n    function executeAction(uint256 _proposalId) public returns (bytes memory) {\n        Action memory action = actions[_proposalId];\n        bool[6] memory flags = moloch.getProposalFlags(_proposalId);\n\n        // minion did not submit this proposal\n        require(action.to != address(0), \"Minion::invalid _proposalId\");\n        // can't call arbitrary functions on parent moloch\n        require(action.to != address(moloch), \"Minion::invalid target\");\n        require(!action.executed, \"Minion::action executed\");\n        require(address(this).balance >= action.value, \"Minion::insufficient eth\");\n        require(flags[2], \"Minion::proposal not passed\");\n\n        // execute call\n        actions[_proposalId].executed = true;\n        (bool success, bytes memory retData) = action.to.call.value(action.value)(action.data);\n        require(success, \"Minion::call failure\");\n        emit ActionExecuted(_proposalId, msg.sender);\n        return retData;\n    }\n\n    function() external payable { }\n}\n",
  "sourcePath": "/home/n/Desktop/moloch-minion/contracts/Minion.sol",
  "compiler": {
    "name": "solc",
    "version": "0.5.12+commit.7709ece9.Emscripten.clang"
  },
  "schemaVersion": "3.4.1",
  "updatedAt": "2021-08-04T21:45:37.702Z",
  "networkType": "ethereum",
  "devdoc": {
    "methods": {}
  },
  "userdoc": {
    "methods": {}
  }
}