{
  "contractName": "PenaltyBadge",
  "abi": [
    {
      "inputs": [
        {
          "internalType": "string",
          "name": "_badgeName",
          "type": "string"
        },
        {
          "internalType": "string",
          "name": "_badgeSymbol",
          "type": "string"
        },
        {
          "internalType": "address",
          "name": "_AddressManagerAddress",
          "type": "address"
        }
      ],
      "stateMutability": "nonpayable",
      "type": "constructor"
    },
    {
      "anonymous": false,
      "inputs": [
        {
          "indexed": true,
          "internalType": "address",
          "name": "owner",
          "type": "address"
        },
        {
          "indexed": true,
          "internalType": "address",
          "name": "approved",
          "type": "address"
        },
        {
          "indexed": true,
          "internalType": "uint256",
          "name": "tokenId",
          "type": "uint256"
        }
      ],
      "name": "Approval",
      "type": "event"
    },
    {
      "anonymous": false,
      "inputs": [
        {
          "indexed": true,
          "internalType": "address",
          "name": "owner",
          "type": "address"
        },
        {
          "indexed": true,
          "internalType": "address",
          "name": "operator",
          "type": "address"
        },
        {
          "indexed": false,
          "internalType": "bool",
          "name": "approved",
          "type": "bool"
        }
      ],
      "name": "ApprovalForAll",
      "type": "event"
    },
    {
      "anonymous": false,
      "inputs": [
        {
          "indexed": false,
          "internalType": "address",
          "name": "account",
          "type": "address"
        }
      ],
      "name": "Paused",
      "type": "event"
    },
    {
      "anonymous": false,
      "inputs": [
        {
          "indexed": true,
          "internalType": "bytes32",
          "name": "role",
          "type": "bytes32"
        },
        {
          "indexed": true,
          "internalType": "bytes32",
          "name": "previousAdminRole",
          "type": "bytes32"
        },
        {
          "indexed": true,
          "internalType": "bytes32",
          "name": "newAdminRole",
          "type": "bytes32"
        }
      ],
      "name": "RoleAdminChanged",
      "type": "event"
    },
    {
      "anonymous": false,
      "inputs": [
        {
          "indexed": true,
          "internalType": "bytes32",
          "name": "role",
          "type": "bytes32"
        },
        {
          "indexed": true,
          "internalType": "address",
          "name": "account",
          "type": "address"
        },
        {
          "indexed": true,
          "internalType": "address",
          "name": "sender",
          "type": "address"
        }
      ],
      "name": "RoleGranted",
      "type": "event"
    },
    {
      "anonymous": false,
      "inputs": [
        {
          "indexed": true,
          "internalType": "bytes32",
          "name": "role",
          "type": "bytes32"
        },
        {
          "indexed": true,
          "internalType": "address",
          "name": "account",
          "type": "address"
        },
        {
          "indexed": true,
          "internalType": "address",
          "name": "sender",
          "type": "address"
        }
      ],
      "name": "RoleRevoked",
      "type": "event"
    },
    {
      "anonymous": false,
      "inputs": [
        {
          "indexed": true,
          "internalType": "address",
          "name": "from",
          "type": "address"
        },
        {
          "indexed": true,
          "internalType": "address",
          "name": "to",
          "type": "address"
        },
        {
          "indexed": true,
          "internalType": "uint256",
          "name": "tokenId",
          "type": "uint256"
        }
      ],
      "name": "Transfer",
      "type": "event"
    },
    {
      "anonymous": false,
      "inputs": [
        {
          "indexed": false,
          "internalType": "address",
          "name": "account",
          "type": "address"
        }
      ],
      "name": "Unpaused",
      "type": "event"
    },
    {
      "inputs": [],
      "name": "AddressManagerAddress",
      "outputs": [
        {
          "internalType": "address",
          "name": "",
          "type": "address"
        }
      ],
      "stateMutability": "view",
      "type": "function"
    },
    {
      "inputs": [
        {
          "internalType": "uint256",
          "name": "",
          "type": "uint256"
        }
      ],
      "name": "BadgeInfo",
      "outputs": [
        {
          "internalType": "address",
          "name": "gifter",
          "type": "address"
        },
        {
          "internalType": "string",
          "name": "reason",
          "type": "string"
        }
      ],
      "stateMutability": "view",
      "type": "function"
    },
    {
      "inputs": [
        {
          "internalType": "address",
          "name": "",
          "type": "address"
        },
        {
          "internalType": "uint256",
          "name": "",
          "type": "uint256"
        }
      ],
      "name": "BadgesSent",
      "outputs": [
        {
          "internalType": "uint256",
          "name": "",
          "type": "uint256"
        }
      ],
      "stateMutability": "view",
      "type": "function"
    },
    {
      "inputs": [],
      "name": "ChadBadgeAddress",
      "outputs": [
        {
          "internalType": "address",
          "name": "",
          "type": "address"
        }
      ],
      "stateMutability": "view",
      "type": "function"
    },
    {
      "inputs": [],
      "name": "ColoredIDAddress",
      "outputs": [
        {
          "internalType": "address",
          "name": "",
          "type": "address"
        }
      ],
      "stateMutability": "view",
      "type": "function"
    },
    {
      "inputs": [],
      "name": "CourtClerk",
      "outputs": [
        {
          "internalType": "address",
          "name": "",
          "type": "address"
        }
      ],
      "stateMutability": "view",
      "type": "function"
    },
    {
      "inputs": [],
      "name": "DEFAULT_ADMIN_ROLE",
      "outputs": [
        {
          "internalType": "bytes32",
          "name": "",
          "type": "bytes32"
        }
      ],
      "stateMutability": "view",
      "type": "function"
    },
    {
      "inputs": [],
      "name": "GAVELS_BAILIFF",
      "outputs": [
        {
          "internalType": "bytes32",
          "name": "",
          "type": "bytes32"
        }
      ],
      "stateMutability": "view",
      "type": "function"
    },
    {
      "inputs": [],
      "name": "GavelDAOAgent",
      "outputs": [
        {
          "internalType": "address",
          "name": "",
          "type": "address"
        }
      ],
      "stateMutability": "view",
      "type": "function"
    },
    {
      "inputs": [],
      "name": "GavelTokenAddress",
      "outputs": [
        {
          "internalType": "address",
          "name": "",
          "type": "address"
        }
      ],
      "stateMutability": "view",
      "type": "function"
    },
    {
      "inputs": [],
      "name": "GavelVote",
      "outputs": [
        {
          "internalType": "bool",
          "name": "",
          "type": "bool"
        }
      ],
      "stateMutability": "view",
      "type": "function"
    },
    {
      "inputs": [],
      "name": "GoldStarAddress",
      "outputs": [
        {
          "internalType": "address",
          "name": "",
          "type": "address"
        }
      ],
      "stateMutability": "view",
      "type": "function"
    },
    {
      "inputs": [],
      "name": "JERK_ROLE",
      "outputs": [
        {
          "internalType": "bytes32",
          "name": "",
          "type": "bytes32"
        }
      ],
      "stateMutability": "view",
      "type": "function"
    },
    {
      "inputs": [],
      "name": "JURY_BAILIFF",
      "outputs": [
        {
          "internalType": "bytes32",
          "name": "",
          "type": "bytes32"
        }
      ],
      "stateMutability": "view",
      "type": "function"
    },
    {
      "inputs": [],
      "name": "JuryDAOAgent",
      "outputs": [
        {
          "internalType": "address",
          "name": "",
          "type": "address"
        }
      ],
      "stateMutability": "view",
      "type": "function"
    },
    {
      "inputs": [],
      "name": "JuryPoolAddress",
      "outputs": [
        {
          "internalType": "address",
          "name": "",
          "type": "address"
        }
      ],
      "stateMutability": "view",
      "type": "function"
    },
    {
      "inputs": [],
      "name": "JuryVote",
      "outputs": [
        {
          "internalType": "bool",
          "name": "",
          "type": "bool"
        }
      ],
      "stateMutability": "view",
      "type": "function"
    },
    {
      "inputs": [],
      "name": "MINI_BAILIFF_ROLE",
      "outputs": [
        {
          "internalType": "bytes32",
          "name": "",
          "type": "bytes32"
        }
      ],
      "stateMutability": "view",
      "type": "function"
    },
    {
      "inputs": [],
      "name": "MiniBailiff",
      "outputs": [
        {
          "internalType": "address",
          "name": "",
          "type": "address"
        }
      ],
      "stateMutability": "view",
      "type": "function"
    },
    {
      "inputs": [
        {
          "internalType": "uint256",
          "name": "",
          "type": "uint256"
        }
      ],
      "name": "Penalty",
      "outputs": [
        {
          "internalType": "uint256",
          "name": "",
          "type": "uint256"
        }
      ],
      "stateMutability": "view",
      "type": "function"
    },
    {
      "inputs": [],
      "name": "PinkSlipAddress",
      "outputs": [
        {
          "internalType": "address",
          "name": "",
          "type": "address"
        }
      ],
      "stateMutability": "view",
      "type": "function"
    },
    {
      "inputs": [],
      "name": "RedPenTokenAddress",
      "outputs": [
        {
          "internalType": "address",
          "name": "",
          "type": "address"
        }
      ],
      "stateMutability": "view",
      "type": "function"
    },
    {
      "inputs": [],
      "name": "THE_COURT_ROLE",
      "outputs": [
        {
          "internalType": "bytes32",
          "name": "",
          "type": "bytes32"
        }
      ],
      "stateMutability": "view",
      "type": "function"
    },
    {
      "inputs": [],
      "name": "TheCourtAddress",
      "outputs": [
        {
          "internalType": "address",
          "name": "",
          "type": "address"
        }
      ],
      "stateMutability": "view",
      "type": "function"
    },
    {
      "inputs": [],
      "name": "TreasuryAddress",
      "outputs": [
        {
          "internalType": "address",
          "name": "",
          "type": "address"
        }
      ],
      "stateMutability": "view",
      "type": "function"
    },
    {
      "inputs": [],
      "name": "addressManager",
      "outputs": [
        {
          "internalType": "contract AddressManager",
          "name": "",
          "type": "address"
        }
      ],
      "stateMutability": "view",
      "type": "function"
    },
    {
      "inputs": [
        {
          "internalType": "address",
          "name": "to",
          "type": "address"
        },
        {
          "internalType": "uint256",
          "name": "tokenId",
          "type": "uint256"
        }
      ],
      "name": "approve",
      "outputs": [],
      "stateMutability": "nonpayable",
      "type": "function"
    },
    {
      "inputs": [],
      "name": "badgeColor",
      "outputs": [
        {
          "internalType": "string",
          "name": "",
          "type": "string"
        }
      ],
      "stateMutability": "view",
      "type": "function"
    },
    {
      "inputs": [],
      "name": "badgeName",
      "outputs": [
        {
          "internalType": "string",
          "name": "",
          "type": "string"
        }
      ],
      "stateMutability": "view",
      "type": "function"
    },
    {
      "inputs": [
        {
          "internalType": "address",
          "name": "owner",
          "type": "address"
        }
      ],
      "name": "balanceOf",
      "outputs": [
        {
          "internalType": "uint256",
          "name": "",
          "type": "uint256"
        }
      ],
      "stateMutability": "view",
      "type": "function"
    },
    {
      "inputs": [],
      "name": "baseURI_",
      "outputs": [
        {
          "internalType": "string",
          "name": "",
          "type": "string"
        }
      ],
      "stateMutability": "view",
      "type": "function"
    },
    {
      "inputs": [
        {
          "internalType": "uint256",
          "name": "valueMustBe69",
          "type": "uint256"
        }
      ],
      "name": "destroyAndLockContract",
      "outputs": [
        {
          "internalType": "bool",
          "name": "",
          "type": "bool"
        }
      ],
      "stateMutability": "nonpayable",
      "type": "function"
    },
    {
      "inputs": [
        {
          "internalType": "uint256",
          "name": "tokenId",
          "type": "uint256"
        }
      ],
      "name": "getApproved",
      "outputs": [
        {
          "internalType": "address",
          "name": "",
          "type": "address"
        }
      ],
      "stateMutability": "view",
      "type": "function"
    },
    {
      "inputs": [
        {
          "internalType": "uint256",
          "name": "_tokenId",
          "type": "uint256"
        }
      ],
      "name": "getBadgeReason",
      "outputs": [
        {
          "internalType": "string",
          "name": "_theReason",
          "type": "string"
        }
      ],
      "stateMutability": "view",
      "type": "function"
    },
    {
      "inputs": [
        {
          "internalType": "uint256",
          "name": "_tokenId",
          "type": "uint256"
        }
      ],
      "name": "getBadgeSender",
      "outputs": [
        {
          "internalType": "address",
          "name": "_theGifter",
          "type": "address"
        }
      ],
      "stateMutability": "view",
      "type": "function"
    },
    {
      "inputs": [
        {
          "internalType": "address",
          "name": "_gifter",
          "type": "address"
        }
      ],
      "name": "getBadgesSent",
      "outputs": [
        {
          "internalType": "uint256[]",
          "name": "_BadgesSent",
          "type": "uint256[]"
        }
      ],
      "stateMutability": "view",
      "type": "function"
    },
    {
      "inputs": [
        {
          "internalType": "bytes32",
          "name": "role",
          "type": "bytes32"
        }
      ],
      "name": "getRoleAdmin",
      "outputs": [
        {
          "internalType": "bytes32",
          "name": "",
          "type": "bytes32"
        }
      ],
      "stateMutability": "view",
      "type": "function"
    },
    {
      "inputs": [
        {
          "internalType": "bytes32",
          "name": "role",
          "type": "bytes32"
        },
        {
          "internalType": "uint256",
          "name": "index",
          "type": "uint256"
        }
      ],
      "name": "getRoleMember",
      "outputs": [
        {
          "internalType": "address",
          "name": "",
          "type": "address"
        }
      ],
      "stateMutability": "view",
      "type": "function"
    },
    {
      "inputs": [
        {
          "internalType": "bytes32",
          "name": "role",
          "type": "bytes32"
        }
      ],
      "name": "getRoleMemberCount",
      "outputs": [
        {
          "internalType": "uint256",
          "name": "",
          "type": "uint256"
        }
      ],
      "stateMutability": "view",
      "type": "function"
    },
    {
      "inputs": [
        {
          "internalType": "bytes32",
          "name": "role",
          "type": "bytes32"
        },
        {
          "internalType": "address",
          "name": "account",
          "type": "address"
        }
      ],
      "name": "grantRole",
      "outputs": [],
      "stateMutability": "nonpayable",
      "type": "function"
    },
    {
      "inputs": [
        {
          "internalType": "bytes32",
          "name": "role",
          "type": "bytes32"
        },
        {
          "internalType": "address",
          "name": "account",
          "type": "address"
        }
      ],
      "name": "hasRole",
      "outputs": [
        {
          "internalType": "bool",
          "name": "",
          "type": "bool"
        }
      ],
      "stateMutability": "view",
      "type": "function"
    },
    {
      "inputs": [
        {
          "internalType": "address",
          "name": "owner",
          "type": "address"
        },
        {
          "internalType": "address",
          "name": "operator",
          "type": "address"
        }
      ],
      "name": "isApprovedForAll",
      "outputs": [
        {
          "internalType": "bool",
          "name": "",
          "type": "bool"
        }
      ],
      "stateMutability": "view",
      "type": "function"
    },
    {
      "inputs": [
        {
          "internalType": "address",
          "name": "addressToCheck",
          "type": "address"
        },
        {
          "internalType": "uint256",
          "name": "badgeTokenID",
          "type": "uint256"
        }
      ],
      "name": "isBadgeSender",
      "outputs": [
        {
          "internalType": "bool",
          "name": "",
          "type": "bool"
        }
      ],
      "stateMutability": "view",
      "type": "function"
    },
    {
      "inputs": [],
      "name": "isForeverLocked",
      "outputs": [
        {
          "internalType": "bool",
          "name": "",
          "type": "bool"
        }
      ],
      "stateMutability": "view",
      "type": "function"
    },
    {
      "inputs": [],
      "name": "jerkSanctions",
      "outputs": [
        {
          "internalType": "bool",
          "name": "",
          "type": "bool"
        }
      ],
      "stateMutability": "view",
      "type": "function"
    },
    {
      "inputs": [],
      "name": "name",
      "outputs": [
        {
          "internalType": "string",
          "name": "",
          "type": "string"
        }
      ],
      "stateMutability": "view",
      "type": "function"
    },
    {
      "inputs": [],
      "name": "nextTokenId",
      "outputs": [
        {
          "internalType": "uint256",
          "name": "_nextTokenId",
          "type": "uint256"
        }
      ],
      "stateMutability": "view",
      "type": "function"
    },
    {
      "inputs": [
        {
          "internalType": "uint256",
          "name": "tokenId",
          "type": "uint256"
        }
      ],
      "name": "ownerOf",
      "outputs": [
        {
          "internalType": "address",
          "name": "",
          "type": "address"
        }
      ],
      "stateMutability": "view",
      "type": "function"
    },
    {
      "inputs": [],
      "name": "pause",
      "outputs": [],
      "stateMutability": "nonpayable",
      "type": "function"
    },
    {
      "inputs": [],
      "name": "paused",
      "outputs": [
        {
          "internalType": "bool",
          "name": "",
          "type": "bool"
        }
      ],
      "stateMutability": "view",
      "type": "function"
    },
    {
      "inputs": [],
      "name": "redPens",
      "outputs": [
        {
          "internalType": "contract ERC20",
          "name": "",
          "type": "address"
        }
      ],
      "stateMutability": "view",
      "type": "function"
    },
    {
      "inputs": [
        {
          "internalType": "bool",
          "name": "thisIsNotReversible",
          "type": "bool"
        }
      ],
      "name": "refreshBadges",
      "outputs": [
        {
          "internalType": "bool",
          "name": "",
          "type": "bool"
        }
      ],
      "stateMutability": "nonpayable",
      "type": "function"
    },
    {
      "inputs": [
        {
          "internalType": "bytes32",
          "name": "role",
          "type": "bytes32"
        },
        {
          "internalType": "address",
          "name": "account",
          "type": "address"
        }
      ],
      "name": "renounceRole",
      "outputs": [],
      "stateMutability": "nonpayable",
      "type": "function"
    },
    {
      "inputs": [],
      "name": "resetVote",
      "outputs": [],
      "stateMutability": "nonpayable",
      "type": "function"
    },
    {
      "inputs": [
        {
          "internalType": "uint256",
          "name": "tokenId",
          "type": "uint256"
        }
      ],
      "name": "revokeBadge",
      "outputs": [],
      "stateMutability": "nonpayable",
      "type": "function"
    },
    {
      "inputs": [
        {
          "internalType": "bytes32",
          "name": "role",
          "type": "bytes32"
        },
        {
          "internalType": "address",
          "name": "account",
          "type": "address"
        }
      ],
      "name": "revokeRole",
      "outputs": [],
      "stateMutability": "nonpayable",
      "type": "function"
    },
    {
      "inputs": [
        {
          "internalType": "address",
          "name": "from",
          "type": "address"
        },
        {
          "internalType": "address",
          "name": "to",
          "type": "address"
        },
        {
          "internalType": "uint256",
          "name": "tokenId",
          "type": "uint256"
        }
      ],
      "name": "safeTransferFrom",
      "outputs": [],
      "stateMutability": "nonpayable",
      "type": "function"
    },
    {
      "inputs": [
        {
          "internalType": "address",
          "name": "from",
          "type": "address"
        },
        {
          "internalType": "address",
          "name": "to",
          "type": "address"
        },
        {
          "internalType": "uint256",
          "name": "tokenId",
          "type": "uint256"
        },
        {
          "internalType": "bytes",
          "name": "_data",
          "type": "bytes"
        }
      ],
      "name": "safeTransferFrom",
      "outputs": [],
      "stateMutability": "nonpayable",
      "type": "function"
    },
    {
      "inputs": [
        {
          "internalType": "address",
          "name": "operator",
          "type": "address"
        },
        {
          "internalType": "bool",
          "name": "approved",
          "type": "bool"
        }
      ],
      "name": "setApprovalForAll",
      "outputs": [],
      "stateMutability": "nonpayable",
      "type": "function"
    },
    {
      "inputs": [
        {
          "internalType": "string",
          "name": "_baseURIString",
          "type": "string"
        }
      ],
      "name": "setBaseURI",
      "outputs": [
        {
          "internalType": "bool",
          "name": "",
          "type": "bool"
        }
      ],
      "stateMutability": "nonpayable",
      "type": "function"
    },
    {
      "inputs": [
        {
          "internalType": "bytes4",
          "name": "interfaceId",
          "type": "bytes4"
        }
      ],
      "name": "supportsInterface",
      "outputs": [
        {
          "internalType": "bool",
          "name": "",
          "type": "bool"
        }
      ],
      "stateMutability": "view",
      "type": "function"
    },
    {
      "inputs": [],
      "name": "symbol",
      "outputs": [
        {
          "internalType": "string",
          "name": "",
          "type": "string"
        }
      ],
      "stateMutability": "view",
      "type": "function"
    },
    {
      "inputs": [],
      "name": "syncAllRoles",
      "outputs": [],
      "stateMutability": "nonpayable",
      "type": "function"
    },
    {
      "inputs": [
        {
          "internalType": "bytes32",
          "name": "ROLE_TO_SYNC",
          "type": "bytes32"
        }
      ],
      "name": "syncSingleRole",
      "outputs": [],
      "stateMutability": "nonpayable",
      "type": "function"
    },
    {
      "inputs": [],
      "name": "syncVotes",
      "outputs": [],
      "stateMutability": "nonpayable",
      "type": "function"
    },
    {
      "inputs": [
        {
          "internalType": "uint256",
          "name": "index",
          "type": "uint256"
        }
      ],
      "name": "tokenByIndex",
      "outputs": [
        {
          "internalType": "uint256",
          "name": "",
          "type": "uint256"
        }
      ],
      "stateMutability": "view",
      "type": "function"
    },
    {
      "inputs": [
        {
          "internalType": "address",
          "name": "owner",
          "type": "address"
        },
        {
          "internalType": "uint256",
          "name": "index",
          "type": "uint256"
        }
      ],
      "name": "tokenOfOwnerByIndex",
      "outputs": [
        {
          "internalType": "uint256",
          "name": "",
          "type": "uint256"
        }
      ],
      "stateMutability": "view",
      "type": "function"
    },
    {
      "inputs": [
        {
          "internalType": "uint256",
          "name": "_tokenId",
          "type": "uint256"
        }
      ],
      "name": "tokenURI",
      "outputs": [
        {
          "internalType": "string",
          "name": "_URI",
          "type": "string"
        }
      ],
      "stateMutability": "view",
      "type": "function"
    },
    {
      "inputs": [],
      "name": "totalSupply",
      "outputs": [
        {
          "internalType": "uint256",
          "name": "",
          "type": "uint256"
        }
      ],
      "stateMutability": "view",
      "type": "function"
    },
    {
      "inputs": [
        {
          "internalType": "address",
          "name": "from",
          "type": "address"
        },
        {
          "internalType": "address",
          "name": "to",
          "type": "address"
        },
        {
          "internalType": "uint256",
          "name": "tokenId",
          "type": "uint256"
        }
      ],
      "name": "transferFrom",
      "outputs": [],
      "stateMutability": "nonpayable",
      "type": "function"
    },
    {
      "inputs": [],
      "name": "unpause",
      "outputs": [],
      "stateMutability": "nonpayable",
      "type": "function"
    },
    {
      "inputs": [],
      "name": "updateAddressManager",
      "outputs": [],
      "stateMutability": "nonpayable",
      "type": "function"
    },
    {
      "inputs": [],
      "name": "updateAllAddresses",
      "outputs": [],
      "stateMutability": "nonpayable",
      "type": "function"
    },
    {
      "inputs": [],
      "name": "updateAllRoles",
      "outputs": [],
      "stateMutability": "nonpayable",
      "type": "function"
    },
    {
      "inputs": [],
      "name": "updateDAOAddresses",
      "outputs": [],
      "stateMutability": "nonpayable",
      "type": "function"
    },
    {
      "inputs": [
        {
          "internalType": "bytes32",
          "name": "ROLE_TO_UPDATE",
          "type": "bytes32"
        }
      ],
      "name": "updateSingleRole",
      "outputs": [],
      "stateMutability": "nonpayable",
      "type": "function"
    },
    {
      "inputs": [],
      "name": "updateTokenAddresses",
      "outputs": [],
      "stateMutability": "nonpayable",
      "type": "function"
    },
    {
      "inputs": [
        {
          "internalType": "uint256",
          "name": "_tokenId",
          "type": "uint256"
        }
      ],
      "name": "payPenalty",
      "outputs": [
        {
          "internalType": "bool",
          "name": "",
          "type": "bool"
        }
      ],
      "stateMutability": "nonpayable",
      "type": "function"
    },
    {
      "inputs": [
        {
          "internalType": "address",
          "name": "receivingAddress",
          "type": "address"
        },
        {
          "internalType": "string",
          "name": "_reason",
          "type": "string"
        }
      ],
      "name": "issueBadge",
      "outputs": [
        {
          "internalType": "uint256",
          "name": "newId",
          "type": "uint256"
        }
      ],
      "stateMutability": "nonpayable",
      "type": "function"
    },
    {
      "inputs": [
        {
          "internalType": "address",
          "name": "receivingAddress",
          "type": "address"
        },
        {
          "internalType": "string",
          "name": "_reason",
          "type": "string"
        },
        {
          "internalType": "uint256",
          "name": "_penalty",
          "type": "uint256"
        }
      ],
      "name": "issueBadge",
      "outputs": [
        {
          "internalType": "uint256",
          "name": "newId",
          "type": "uint256"
        }
      ],
      "stateMutability": "nonpayable",
      "type": "function"
    },
    {
      "inputs": [
        {
          "internalType": "address",
          "name": "receivingAddress",
          "type": "address"
        },
        {
          "internalType": "string",
          "name": "_reason",
          "type": "string"
        },
        {
          "internalType": "string",
          "name": "_tokenURI",
          "type": "string"
        }
      ],
      "name": "issueBadge",
      "outputs": [
        {
          "internalType": "uint256",
          "name": "newId",
          "type": "uint256"
        }
      ],
      "stateMutability": "nonpayable",
      "type": "function"
    },
    {
      "inputs": [],
      "name": "updatePaymentToken",
      "outputs": [],
      "stateMutability": "nonpayable",
      "type": "function"
    }
  ],
  "bytecode": "0x6000805460ff1990811682556011805463ffffffff60a01b19169055601e91909155601f80549091169055636970667360e01b60a0908152601d60f91b60a452602f60f81b60a581905260a6526007608081905260a7604052620000669160229162000c93565b50600554602680546001600160a01b0319166001600160a01b039092169190911790553480156200009657600080fd5b50604051620060ba380380620060ba833981016040819052620000b99162000e56565b600380546001600160a01b0383166001600160a01b03199182168117909255601180549091169091179055828282828282620000f4620002bc565b620000fe620002d2565b600f5462000118906000906001600160a01b03166200041d565b600f5462000151907f0538d24a8b7882d7b2e36af243d4af61c23e86e3daa6cb8c887b53220b2f5720906001600160a01b03166200041d565b600c546200018a907f048bc71fa1cb2c119c339cf9cf00a97996a19a9d991ce5fe049f2fa5459e7990906001600160a01b03166200041d565b600d54620001c3907ffa8e4989e1d689f7bc5c4b25b87efb51fecdecb19ba62847e29c759e12a89acd906001600160a01b03166200041d565b601054620001fc907ff0f4b159a6e2a4815eb3ca3df080bfa70c9270662c59bcaa4479a456220183e6906001600160a01b03166200041d565b620002297f7c9d7f6f02908185bffb3f7fc9afb29fd7bf93675af8fd4b655ee05c2cee1e0e60006200041d565b5081516200023f90601290602085019062000c93565b5080516200025590601390602084019062000c93565b50506018805460ff1916905550815162000276906020908185019062000c93565b5082516200028c90602190602086019062000c93565b5050600554602680546001600160a01b0319166001600160a01b039092169190911790555062000f259350505050565b620002c662000460565b620002d062000760565b565b601160009054906101000a90046001600160a01b03166001600160a01b031663ff7e88ec6040518163ffffffff1660e01b815260040160206040518083038186803b1580156200032157600080fd5b505afa15801562000336573d6000803e3d6000fd5b505050506040513d601f19601f820116820180604052508101906200035c919062000e2b565b601160156101000a81548160ff021916908315150217905550601160009054906101000a90046001600160a01b03166001600160a01b0316632fb565856040518163ffffffff1660e01b815260040160206040518083038186803b158015620003c457600080fd5b505afa158015620003d9573d6000803e3d6000fd5b505050506040513d601f19601f82011682018060405250810190620003ff919062000e2b565b60118054911515600160b01b0260ff60b01b19909216919091179055565b62000434828262000b8960201b62001b2c1760201c565b60008281526002602090815260409091206200045b91839062001b3662000b99821b17901c565b505050565b601160009054906101000a90046001600160a01b03166001600160a01b031663dadf56ac6040518163ffffffff1660e01b815260040160206040518083038186803b158015620004af57600080fd5b505afa158015620004c4573d6000803e3d6000fd5b505050506040513d601f19601f82011682018060405250810190620004ea919062000e0d565b600c80546001600160a01b0319166001600160a01b039283161790556011546040805163024bebe960e01b81529051919092169163024bebe9916004808301926020929190829003018186803b1580156200054457600080fd5b505afa15801562000559573d6000803e3d6000fd5b505050506040513d601f19601f820116820180604052508101906200057f919062000e0d565b600d80546001600160a01b0319166001600160a01b0392831617905560115460408051635b5c251f60e01b815290519190921691635b5c251f916004808301926020929190829003018186803b158015620005d957600080fd5b505afa158015620005ee573d6000803e3d6000fd5b505050506040513d601f19601f8201168201806040525081019062000614919062000e0d565b600e80546001600160a01b0319166001600160a01b0392831617905560115460408051637310bf1d60e11b81529051919092169163e6217e3a916004808301926020929190829003018186803b1580156200066e57600080fd5b505afa15801562000683573d6000803e3d6000fd5b505050506040513d601f19601f82011682018060405250810190620006a9919062000e0d565b601080546001600160a01b0319166001600160a01b039283161790556011546040805163d88127a160e01b81529051919092169163d88127a1916004808301926020929190829003018186803b1580156200070357600080fd5b505afa15801562000718573d6000803e3d6000fd5b505050506040513d601f19601f820116820180604052508101906200073e919062000e0d565b600b80546001600160a01b0319166001600160a01b0392909216919091179055565b601160009054906101000a90046001600160a01b03166001600160a01b03166321d7f0086040518163ffffffff1660e01b815260040160206040518083038186803b158015620007af57600080fd5b505afa158015620007c4573d6000803e3d6000fd5b505050506040513d601f19601f82011682018060405250810190620007ea919062000e0d565b600480546001600160a01b0319166001600160a01b039283161781556011546040805163762ddb5960e01b81529051919093169263762ddb599281810192602092909190829003018186803b1580156200084357600080fd5b505afa15801562000858573d6000803e3d6000fd5b505050506040513d601f19601f820116820180604052508101906200087e919062000e0d565b600580546001600160a01b0319166001600160a01b039283161790556011546040805163bfb7dc9960e01b81529051919092169163bfb7dc99916004808301926020929190829003018186803b158015620008d857600080fd5b505afa158015620008ed573d6000803e3d6000fd5b505050506040513d601f19601f8201168201806040525081019062000913919062000e0d565b600680546001600160a01b0319166001600160a01b0392831617905560115460408051633e6111eb60e21b81529051919092169163f98447ac916004808301926020929190829003018186803b1580156200096d57600080fd5b505afa15801562000982573d6000803e3d6000fd5b505050506040513d601f19601f82011682018060405250810190620009a8919062000e0d565b600780546001600160a01b0319166001600160a01b0392831617905560115460408051630fe1ba9f60e21b815290519190921691633f86ea7c916004808301926020929190829003018186803b15801562000a0257600080fd5b505afa15801562000a17573d6000803e3d6000fd5b505050506040513d601f19601f8201168201806040525081019062000a3d919062000e0d565b600880546001600160a01b0319166001600160a01b0392831617905560115460408051632b90024160e11b8152905191909216916357200482916004808301926020929190829003018186803b15801562000a9757600080fd5b505afa15801562000aac573d6000803e3d6000fd5b505050506040513d601f19601f8201168201806040525081019062000ad2919062000e0d565b600980546001600160a01b0319166001600160a01b0392831617905560115460408051636b58477560e01b815290519190921691636b584775916004808301926020929190829003018186803b15801562000b2c57600080fd5b505afa15801562000b41573d6000803e3d6000fd5b505050506040513d601f19601f8201168201806040525081019062000b67919062000e0d565b600a80546001600160a01b0319166001600160a01b0392909216919091179055565b62000b95828262000bb9565b5050565b600062000bb0836001600160a01b03841662000c41565b90505b92915050565b60008281526001602090815260408083206001600160a01b038516845290915290205460ff1662000b955760008281526001602081815260408084206001600160a01b0386168086529252808420805460ff19169093179092559051339285917f2f8788117e7eff1d82e926ec794901d17c78024a50270940304540a733656f0d9190a45050565b600081815260018301602052604081205462000c8a5750815460018181018455600084815260208082209093018490558454848252828601909352604090209190915562000bb3565b50600062000bb3565b82805462000ca19062000ed2565b90600052602060002090601f01602090048101928262000cc5576000855562000d10565b82601f1062000ce057805160ff191683800117855562000d10565b8280016001018555821562000d10579182015b8281111562000d1057825182559160200191906001019062000cf3565b5062000d1e92915062000d22565b5090565b5b8082111562000d1e576000815560010162000d23565b80516001600160a01b038116811462000d5157600080fd5b919050565b600082601f83011262000d6857600080fd5b81516001600160401b038082111562000d855762000d8562000f0f565b604051601f8301601f19908116603f0116810190828211818310171562000db05762000db062000f0f565b8160405283815260209250868385880101111562000dcd57600080fd5b600091505b8382101562000df1578582018301518183018401529082019062000dd2565b8382111562000e035760008385830101525b9695505050505050565b60006020828403121562000e2057600080fd5b62000bb08262000d39565b60006020828403121562000e3e57600080fd5b8151801515811462000e4f57600080fd5b9392505050565b60008060006060848603121562000e6c57600080fd5b83516001600160401b038082111562000e8457600080fd5b62000e928783880162000d56565b9450602086015191508082111562000ea957600080fd5b5062000eb88682870162000d56565b92505062000ec96040850162000d39565b90509250925092565b600181811c9082168062000ee757607f821691505b6020821081141562000f0957634e487b7160e01b600052602260045260246000fd5b50919050565b634e487b7160e01b600052604160045260246000fd5b6151858062000f356000396000f3fe608060405234801561001057600080fd5b50600436106104965760003560e01c806370a0823111610262578063c62b28e811610151578063dea6f9c8116100ce578063f1132b3011610092578063f1132b3014610a26578063f259a29e14610a2e578063f7d92d8614610a36578063f98447ac14610a3e578063f98db25314610a51578063ff7e88ec14610a6457600080fd5b8063dea6f9c8146109d0578063e6217e3a146109d8578063e78c266c146109eb578063e985e9c5146109fe578063e9a5323014610a1157600080fd5b8063d331925411610115578063d331925414610964578063d547741f14610984578063d88127a114610997578063dadf56ac146109aa578063de2cff03146109bd57600080fd5b8063c62b28e814610901578063c87b56dd14610914578063ca15c87314610927578063cce843921461093a578063cf4ece151461094f57600080fd5b806396ac6bf0116101df578063a78e746f116101a3578063a78e746f14610893578063b88d4fde146108a7578063bf796967146108ba578063bfb7dc99146108cd578063c04e17e3146108e057600080fd5b806396ac6bf0146108435780639ac3eaa714610856578063a217fddf14610863578063a22cb4651461086b578063a32c5e591461087e57600080fd5b8063794ccf6c11610226578063794ccf6c146107fa5780638456cb591461080d5780639010d07c1461081557806391d148541461082857806395d89b411461083b57600080fd5b806370a082311461079057806373c89822146107a357806375794a3c146107cc578063762ddb59146107d457806376516078146107e757600080fd5b80633ab76e9f1161038957806359e6f78711610306578063610c3009116102ca578063610c3009146107275780636352211e1461072f57806363ebc6771461074257806367a14f06146107625780636b584775146107755780636c353e341461078857600080fd5b806359e6f787146106db5780635b5c251f146106ee5780635c975abb146107015780635db531a11461070c5780635f4134661461071457600080fd5b80634d84c6d81161034d5780634d84c6d8146106875780634f6ccce71461068f57806355f804b3146106a257806357200482146106b557806357f276ff146106c857600080fd5b80633ab76e9f1461063e5780633f4ba83a146106515780633f86ea7c1461065957806342842e0e1461066c57806349b5e1051461067f57600080fd5b806321d7f008116104175780632f745c59116103db5780632f745c59146105f45780632fb5658514610607578063326a55e01461061b578063329a8cfa1461062357806336568abe1461062b57600080fd5b806321d7f0081461058257806323b872dd146105955780632436329d146105a8578063248a9ca3146105bd5780632f2ff15d146105e157600080fd5b80630ad17f8f1161045e5780630ad17f8f1461052b5780631142c4b01461054c578063130f63201461055f57806317314d5a1461057257806318160ddd1461057a57600080fd5b806301ffc9a71461049b578063024bebe9146104c357806306fdde03146104ee578063081812fc14610503578063095ea7b314610516575b600080fd5b6104ae6104a9366004614bc9565b610a78565b60405190151581526020015b60405180910390f35b600d546104d6906001600160a01b031681565b6040516001600160a01b0390911681526020016104ba565b6104f6610a89565b6040516104ba9190614dc6565b6104d6610511366004614b69565b610b1b565b610529610524366004614b03565b610ba8565b005b61053e610539366004614b03565b610cbe565b6040519081526020016104ba565b6104ae61055a366004614b69565b610cef565b61052961056d366004614b69565b610d03565b610529610d38565b601c5461053e565b6004546104d6906001600160a01b031681565b6105296105a33660046148f5565b610d61565b61053e6000805160206150b083398151915281565b61053e6105cb366004614b69565b6000908152600160208190526040909120015490565b6105296105ef366004614b82565b610d92565b61053e610602366004614b03565b610db4565b6011546104ae90600160b01b900460ff1681565b610529610e4a565b610529610e5a565b610529610639366004614b82565b610f3a565b6011546104d6906001600160a01b031681565b610529610f5c565b6008546104d6906001600160a01b031681565b61052961067a3660046148f5565b610fee565b61052961101f565b610529610e52565b61053e61069d366004614b69565b611027565b6104ae6106b0366004614c03565b6110ba565b6009546104d6906001600160a01b031681565b6105296106d6366004614b69565b611135565b6104ae6106e9366004614b03565b611149565b600e546104d6906001600160a01b031681565b60185460ff166104ae565b61052961117b565b600f546104d6906001600160a01b031681565b6104f6611183565b6104d661073d366004614b69565b611211565b610755610750366004614882565b611288565b6040516104ba9190614d82565b6026546104d6906001600160a01b031681565b600a546104d6906001600160a01b031681565b6105296112f4565b61053e61079e366004614882565b611320565b6104d66107b1366004614b69565b6000908152602360205260409020546001600160a01b031690565b601e5461053e565b6005546104d6906001600160a01b031681565b6104ae6107f5366004614b2f565b6113a7565b61053e6108083660046149e4565b61149e565b610529611525565b6104d6610823366004614ba7565b6115a7565b6104ae610836366004614b82565b6115c6565b6104f66115f1565b6104ae610851366004614b69565b611600565b601f546104ae9060ff1681565b61053e600081565b6105296108793660046149b6565b61170c565b61053e60008051602061511083398151915281565b6011546104ae90600160a01b900460ff1681565b6105296108b5366004614936565b61178a565b61053e6108c8366004614aaa565b6117c2565b6006546104d6906001600160a01b031681565b6108f36108ee366004614b69565b61183f565b6040516104ba929190614d5e565b61052961090f366004614b69565b6118ee565b6104f6610922366004614b69565b61193f565b61053e610935366004614b69565b61194a565b61053e60008051602061513083398151915281565b61053e6000805160206150f083398151915281565b61053e610972366004614b69565b60256020526000908152604090205481565b610529610992366004614b82565b611961565b600b546104d6906001600160a01b031681565b600c546104d6906001600160a01b031681565b61053e6109cb366004614a34565b61196b565b6104f6611978565b6010546104d6906001600160a01b031681565b6003546104d6906001600160a01b031681565b6104ae610a0c3660046148bc565b611985565b61053e6000805160206150d083398151915281565b6105296119dc565b6104f66119e4565b6105296119f1565b6007546104d6906001600160a01b031681565b6104f6610a5f366004614b69565b611a91565b6011546104ae90600160a81b900460ff1681565b6000610a8382611b4b565b92915050565b606060128054610a9890614f9e565b80601f0160208091040260200160405190810160405280929190818152602001828054610ac490614f9e565b8015610b115780601f10610ae657610100808354040283529160200191610b11565b820191906000526020600020905b815481529060010190602001808311610af457829003601f168201915b5050505050905090565b6000610b2682611b70565b610b8c5760405162461bcd60e51b815260206004820152602c60248201527f4552433732313a20617070726f76656420717565727920666f72206e6f6e657860448201526b34b9ba32b73a103a37b5b2b760a11b60648201526084015b60405180910390fd5b506000908152601660205260409020546001600160a01b031690565b6000610bb382611211565b9050806001600160a01b0316836001600160a01b03161415610c215760405162461bcd60e51b815260206004820152602160248201527f4552433732313a20617070726f76616c20746f2063757272656e74206f776e656044820152603960f91b6064820152608401610b83565b336001600160a01b0382161480610c3d5750610c3d8133611985565b610caf5760405162461bcd60e51b815260206004820152603860248201527f4552433732313a20617070726f76652063616c6c6572206973206e6f74206f7760448201527f6e6572206e6f7220617070726f76656420666f7220616c6c00000000000000006064820152608401610b83565b610cb98383611b8d565b505050565b60246020528160005260406000208181548110610cda57600080fd5b90600052602060002001600091509150505481565b6000610cfa82611bb4565b50600192915050565b610d0d6001611ec4565b50610d1781611f76565b50610d21816120f1565b50610d2c6000611ec4565b610d3557600080fd5b50565b610d426001611ec4565b50610d4b61227a565b50610d566000611ec4565b610d5f57600080fd5b565b610d6b33826123c0565b610d875760405162461bcd60e51b8152600401610b8390614e5b565b610cb98383836124cb565b610d9c82826124fc565b6000828152600260205260409020610cb99082611b36565b6000610dbf83611320565b8210610e215760405162461bcd60e51b815260206004820152602b60248201527f455243373231456e756d657261626c653a206f776e657220696e646578206f7560448201526a74206f6620626f756e647360a81b6064820152608401610b83565b506001600160a01b03919091166000908152601a60209081526040808320938352929052205490565b610e52612536565b610d5f612822565b610e72600080516020615110833981519152336115c6565b80610e905750610e906000805160206150d0833981519152336115c6565b80610eae5750610eae6000805160206150b0833981519152336115c6565b610eca5760405162461bcd60e51b8152600401610b8390614dd9565b601160009054906101000a90046001600160a01b03166001600160a01b031663329a8cfa6040518163ffffffff1660e01b8152600401600060405180830381600087803b158015610f1a57600080fd5b505af1158015610f2e573d6000803e3d6000fd5b50505050610d5f61117b565b610f448282612c2f565b6000828152600260205260409020610cb99082612ca9565b610f746000805160206150d0833981519152336115c6565b80610f925750610f92600080516020615110833981519152336115c6565b610fd65760405162461bcd60e51b8152602060048201526015602482015274596f75277265206e6f742074686520476176656c7360581b6044820152606401610b83565b601f5460ff1615610fe657600080fd5b610d5f612cbe565b610ff833826123c0565b6110145760405162461bcd60e51b8152600401610b8390614e5b565b610cb9838383612d51565b610d5f612536565b6000611032601c5490565b82106110955760405162461bcd60e51b815260206004820152602c60248201527f455243373231456e756d657261626c653a20676c6f62616c20696e646578206f60448201526b7574206f6620626f756e647360a01b6064820152608401610b83565b601c82815481106110a8576110a861504a565b90600052602060002001549050919050565b60006110d4600080516020615110833981519152336115c6565b806110f257506110f26000805160206150d0833981519152336115c6565b8061111057506111106000805160206150b0833981519152336115c6565b61112c5760405162461bcd60e51b8152600401610b8390614dd9565b610cfa82612d6c565b61113f6001611ec4565b50610d2181612d82565b6000818152602360205260408120546001600160a01b038481169116141561117357506001610a83565b506000610a83565b610d5f612fdd565b6021805461119090614f9e565b80601f01602080910402602001604051908101604052809291908181526020018280546111bc90614f9e565b80156112095780601f106111de57610100808354040283529160200191611209565b820191906000526020600020905b8154815290600101906020018083116111ec57829003601f168201915b505050505081565b6000818152601460205260408120546001600160a01b031680610a835760405162461bcd60e51b815260206004820152602960248201527f4552433732313a206f776e657220717565727920666f72206e6f6e657869737460448201526832b73a103a37b5b2b760b91b6064820152608401610b83565b6001600160a01b0381166000908152602460209081526040918290208054835181840281018401909452808452606093928301828280156112e857602002820191906000526020600020905b8154815260200190600101908083116112d4575b50505050509050919050565b6112fc612822565b600554602680546001600160a01b0319166001600160a01b03909216919091179055565b60006001600160a01b03821661138b5760405162461bcd60e51b815260206004820152602a60248201527f4552433732313a2062616c616e636520717565727920666f7220746865207a65604482015269726f206164647265737360b01b6064820152608401610b83565b506001600160a01b031660009081526015602052604090205490565b60006113c16000805160206150d0833981519152336115c6565b806113df57506113df6000805160206150b0833981519152336115c6565b806113fd57506113fd600080516020615110833981519152336115c6565b61140657600080fd5b601154600160b01b810460ff9081161515600160a81b90920416151514600114806114445750611444600080516020615110833981519152336115c6565b6114835760405162461bcd60e51b815260206004820152601060248201526f436f757274204d75737420416772656560801b6044820152606401610b83565b6001821515141561149657610cfa613120565b506000919050565b60006114b8600080516020615110833981519152336115c6565b806114d657506114d66000805160206150d0833981519152336115c6565b806114f457506114f46000805160206150b0833981519152336115c6565b6115105760405162461bcd60e51b8152600401610b8390614dd9565b600061151d848483613163565b949350505050565b61153d6000805160206150d0833981519152336115c6565b8061155b575061155b600080516020615110833981519152336115c6565b61159f5760405162461bcd60e51b8152602060048201526015602482015274596f75277265206e6f742074686520476176656c7360581b6044820152606401610b83565b610d5f6131f8565b60008281526002602052604081206115bf9083613273565b9392505050565b60009182526001602090815260408084206001600160a01b0393909316845291905290205460ff1690565b606060138054610a9890614f9e565b600061161a6000805160206150d0833981519152336115c6565b8061163857506116386000805160206150b0833981519152336115c6565b806116565750611656600080516020615110833981519152336115c6565b61165f57600080fd5b601154600160b01b810460ff9081161515600160a81b909204161515146001148061169d575061169d600080516020615110833981519152336115c6565b6116dc5760405162461bcd60e51b815260206004820152601060248201526f436f757274204d75737420416772656560801b6044820152606401610b83565b8160451415611496576116ed613120565b506116f66131f8565b50601f805460ff19166001908117909155919050565b611724600080516020615110833981519152336115c6565b8061174257506117426000805160206150d0833981519152336115c6565b8061176057506117606000805160206150b0833981519152336115c6565b61177c5760405162461bcd60e51b8152600401610b8390614e5b565b611786828261327f565b5050565b61179433836123c0565b6117b05760405162461bcd60e51b8152600401610b8390614ea8565b6117bc84848484613344565b50505050565b60006117dc600080516020615110833981519152336115c6565b806117fa57506117fa6000805160206150d0833981519152336115c6565b8061181857506118186000805160206150b0833981519152336115c6565b6118345760405162461bcd60e51b8152600401610b8390614dd9565b61151d848484613163565b602360205260009081526040902080546001820180546001600160a01b03909216929161186b90614f9e565b80601f016020809104026020016040519081016040528092919081815260200182805461189790614f9e565b80156118e45780601f106118b9576101008083540402835291602001916118e4565b820191906000526020600020905b8154815290600101906020018083116118c757829003601f168201915b5050505050905082565b6118f833826123c0565b6119365760405162461bcd60e51b815260206004820152600f60248201526e4e696365205472792c204275636b6f60881b6044820152606401610b83565b610d3581613377565b6060610a8382613380565b6000818152600260205260408120610a83906134e2565b610f4482826134ec565b600061151d848484613526565b6020805461119090614f9e565b6000806119a0600080516020615110833981519152846115c6565b806119be57506119be6000805160206150d0833981519152846115c6565b8061151d575061151d6000805160206150b0833981519152846115c6565b610d5f613594565b6022805461119090614f9e565b6119fb6001611ec4565b50611a13600080516020615110833981519152612d82565b50611a2b6000805160206150d0833981519152612d82565b50611a436000805160206150b0833981519152612d82565b50611a5b6000805160206150f0833981519152612d82565b50611a73600080516020615130833981519152612d82565b50611a7e6000612d82565b50611a87612fdd565b610d566000611ec4565b6000818152602360205260409020600101805460609190611ab190614f9e565b80601f0160208091040260200160405190810160405280929190818152602001828054611add90614f9e565b80156112e85780601f10611aff576101008083540402835291602001916112e8565b820191906000526020600020905b815481529060010190602001808311611b0d5750939695505050505050565b61178682826136cb565b60006115bf836001600160a01b038416613736565b60006001600160e01b0319821663780e9d6360e01b1480610a835750610a838261377d565b6000908152601460205260409020546001600160a01b0316151590565b611ba5600080516020615110833981519152336115c6565b156117865761178682826137bd565b600081815260256020526040812054819080611c125760405162461bcd60e51b815260206004820152601c60248201527f4e6f2070656e616c747920666f72207468697320746f6b656e496421000000006044820152606401610b83565b6026546040516370a0823160e01b815233600482015282916001600160a01b0316906370a082319060240160206040518083038186803b158015611c5557600080fd5b505afa158015611c69573d6000803e3d6000fd5b505050506040513d601f19601f82011682018060405250810190611c8d9190614c38565b1015611cdb5760405162461bcd60e51b815260206004820152601a60248201527f596f7520446f6e2774204861766520456e6f75676820215265640000000000006044820152606401610b83565b6026546040516370a0823160e01b815230600482015282916001600160a01b0316906370a082319060240160206040518083038186803b158015611d1e57600080fd5b505afa158015611d32573d6000803e3d6000fd5b505050506040513d601f19601f82011682018060405250810190611d569190614c38565b611d609190614ef9565b6026546040516323b872dd60e01b8152336004820152306024820152604481018490529193506001600160a01b0316906323b872dd90606401602060405180830381600087803b158015611db357600080fd5b505af1158015611dc7573d6000803e3d6000fd5b505050506040513d601f19601f82011682018060405250810190611deb9190614b4c565b506026546040516370a0823160e01b815230600482015283916001600160a01b0316906370a082319060240160206040518083038186803b158015611e2f57600080fd5b505afa158015611e43573d6000803e3d6000fd5b505050506040513d601f19601f82011682018060405250810190611e679190614c38565b14611ead5760405162461bcd60e51b8152602060048201526016602482015275115c9c9bdc88151c985b9cd9995c9a5b99c80854915160521b6044820152606401610b83565b505050600090815260256020526040812055600190565b6000805460ff168215158115151415611f1f5760405162461bcd60e51b815260206004820152601960248201527f416c72656164792053657420746f20746861742076616c7565000000000000006044820152606401610b83565b6000805484151560ff19909116811790915560ff1615158115151415610cfa5760405162461bcd60e51b815260206004820152600c60248201526b29b0b33a32bc9022b93937b960a11b6044820152606401610b83565b60405163ca15c87360e01b8152600481018290526000908190309063ca15c8739060240160206040518083038186803b158015611fb257600080fd5b505afa158015611fc6573d6000803e3d6000fd5b505050506040513d601f19601f82011682018060405250810190611fea9190614c38565b905060005b818110156120e757604051632404341f60e21b815260048101859052602481018290526000903090639010d07c9060440160206040518083038186803b15801561203857600080fd5b505afa15801561204c573d6000803e3d6000fd5b505050506040513d601f19601f82011682018060405250810190612070919061489f565b60405163d547741f60e01b8152600481018790526001600160a01b0382166024820152909150309063d547741f90604401600060405180830381600087803b1580156120bb57600080fd5b505af11580156120cf573d6000803e3d6000fd5b505050505080806120df90614fd9565b915050611fef565b5060019392505050565b60115460405163ca15c87360e01b81526004810183905260009182916001600160a01b039091169063ca15c8739060240160206040518083038186803b15801561213a57600080fd5b505afa15801561214e573d6000803e3d6000fd5b505050506040513d601f19601f820116820180604052508101906121729190614c38565b905060005b818110156120e757601154604051632404341f60e21b815260048101869052602481018390526000916001600160a01b031690639010d07c9060440160206040518083038186803b1580156121cb57600080fd5b505afa1580156121df573d6000803e3d6000fd5b505050506040513d601f19601f82011682018060405250810190612203919061489f565b604051632f2ff15d60e01b8152600481018790526001600160a01b03821660248201529091503090632f2ff15d90604401600060405180830381600087803b15801561224e57600080fd5b505af1158015612262573d6000803e3d6000fd5b5050505050808061227290614fd9565b915050612177565b6000612293600080516020615110833981519152611f76565b506122ab6000805160206151108339815191526120f1565b6122b457600080fd5b6122cb6000805160206150d0833981519152611f76565b506122e36000805160206150d08339815191526120f1565b6122ec57600080fd5b6123036000805160206150b0833981519152611f76565b5061231b6000805160206150b08339815191526120f1565b61232457600080fd5b61233b6000805160206150f0833981519152611f76565b506123536000805160206150f08339815191526120f1565b61235c57600080fd5b612373600080516020615130833981519152611f76565b5061238b6000805160206151308339815191526120f1565b61239457600080fd5b61239e6000611f76565b506123a960006120f1565b6123b257600080fd5b6123ba612fdd565b50600190565b60006123cb82611b70565b61242c5760405162461bcd60e51b815260206004820152602c60248201527f4552433732313a206f70657261746f7220717565727920666f72206e6f6e657860448201526b34b9ba32b73a103a37b5b2b760a11b6064820152608401610b83565b600061243783611211565b9050806001600160a01b0316846001600160a01b031614156124b957600083815260256020526040902054156124af5760405162461bcd60e51b815260206004820152601760248201527f506c656173652050617920596f75722050656e616c74790000000000000000006044820152606401610b83565b6001915050610a83565b6124c38185611985565b915050610a83565b6124d533826123c0565b6124f15760405162461bcd60e51b8152600401610b8390614ea8565b610cb983838361382b565b600082815260016020819052604082200154905460ff161561252257610cb983836136cb565b61252c81336139d6565b610cb983836136cb565b601160009054906101000a90046001600160a01b03166001600160a01b031663dadf56ac6040518163ffffffff1660e01b815260040160206040518083038186803b15801561258457600080fd5b505afa158015612598573d6000803e3d6000fd5b505050506040513d601f19601f820116820180604052508101906125bc919061489f565b600c80546001600160a01b0319166001600160a01b039283161790556011546040805163024bebe960e01b81529051919092169163024bebe9916004808301926020929190829003018186803b15801561261557600080fd5b505afa158015612629573d6000803e3d6000fd5b505050506040513d601f19601f8201168201806040525081019061264d919061489f565b600d80546001600160a01b0319166001600160a01b0392831617905560115460408051635b5c251f60e01b815290519190921691635b5c251f916004808301926020929190829003018186803b1580156126a657600080fd5b505afa1580156126ba573d6000803e3d6000fd5b505050506040513d601f19601f820116820180604052508101906126de919061489f565b600e80546001600160a01b0319166001600160a01b0392831617905560115460408051637310bf1d60e11b81529051919092169163e6217e3a916004808301926020929190829003018186803b15801561273757600080fd5b505afa15801561274b573d6000803e3d6000fd5b505050506040513d601f19601f8201168201806040525081019061276f919061489f565b601080546001600160a01b0319166001600160a01b039283161790556011546040805163d88127a160e01b81529051919092169163d88127a1916004808301926020929190829003018186803b1580156127c857600080fd5b505afa1580156127dc573d6000803e3d6000fd5b505050506040513d601f19601f82011682018060405250810190612800919061489f565b600b80546001600160a01b0319166001600160a01b0392909216919091179055565b601160009054906101000a90046001600160a01b03166001600160a01b03166321d7f0086040518163ffffffff1660e01b815260040160206040518083038186803b15801561287057600080fd5b505afa158015612884573d6000803e3d6000fd5b505050506040513d601f19601f820116820180604052508101906128a8919061489f565b600480546001600160a01b0319166001600160a01b039283161781556011546040805163762ddb5960e01b81529051919093169263762ddb599281810192602092909190829003018186803b15801561290057600080fd5b505afa158015612914573d6000803e3d6000fd5b505050506040513d601f19601f82011682018060405250810190612938919061489f565b600580546001600160a01b0319166001600160a01b039283161790556011546040805163bfb7dc9960e01b81529051919092169163bfb7dc99916004808301926020929190829003018186803b15801561299157600080fd5b505afa1580156129a5573d6000803e3d6000fd5b505050506040513d601f19601f820116820180604052508101906129c9919061489f565b600680546001600160a01b0319166001600160a01b0392831617905560115460408051633e6111eb60e21b81529051919092169163f98447ac916004808301926020929190829003018186803b158015612a2257600080fd5b505afa158015612a36573d6000803e3d6000fd5b505050506040513d601f19601f82011682018060405250810190612a5a919061489f565b600780546001600160a01b0319166001600160a01b0392831617905560115460408051630fe1ba9f60e21b815290519190921691633f86ea7c916004808301926020929190829003018186803b158015612ab357600080fd5b505afa158015612ac7573d6000803e3d6000fd5b505050506040513d601f19601f82011682018060405250810190612aeb919061489f565b600880546001600160a01b0319166001600160a01b0392831617905560115460408051632b90024160e11b8152905191909216916357200482916004808301926020929190829003018186803b158015612b4457600080fd5b505afa158015612b58573d6000803e3d6000fd5b505050506040513d601f19601f82011682018060405250810190612b7c919061489f565b600980546001600160a01b0319166001600160a01b0392831617905560115460408051636b58477560e01b815290519190921691636b584775916004808301926020929190829003018186803b158015612bd557600080fd5b505afa158015612be9573d6000803e3d6000fd5b505050506040513d601f19601f82011682018060405250810190612c0d919061489f565b600a80546001600160a01b0319166001600160a01b0392909216919091179055565b6001600160a01b0381163314612c9f5760405162461bcd60e51b815260206004820152602f60248201527f416363657373436f6e74726f6c3a2063616e206f6e6c792072656e6f756e636560448201526e103937b632b9903337b91039b2b63360891b6064820152608401610b83565b6117868282613a3a565b60006115bf836001600160a01b038416613aa1565b60185460ff16612d075760405162461bcd60e51b815260206004820152601460248201527314185d5cd8589b194e881b9bdd081c185d5cd95960621b6044820152606401610b83565b6018805460ff191690557f5db9ee0a495bf2e6ff9c91a7834c1ba4fdd244a5e8aa4e537bd38aeae4b073aa335b6040516001600160a01b03909116815260200160405180910390a1565b610cb98383836040518060200160405280600081525061178a565b8051600090610cfa90602290602085019061471d565b60115460405163ca15c87360e01b81526004810183905260009182916001600160a01b039091169063ca15c8739060240160206040518083038186803b158015612dcb57600080fd5b505afa158015612ddf573d6000803e3d6000fd5b505050506040513d601f19601f82011682018060405250810190612e039190614c38565b60405163ca15c87360e01b815260048101859052909150600090309063ca15c8739060240160206040518083038186803b158015612e4057600080fd5b505afa158015612e54573d6000803e3d6000fd5b505050506040513d601f19601f82011682018060405250810190612e789190614c38565b90506000612e868284614f44565b905060008111612ecb5760405162461bcd60e51b815260206004820152601060248201526f4e6f7468696e6720746f2073796e632160801b6044820152606401610b83565b60005b81811015612fd157601154604051632404341f60e21b815260048101889052602481018390526000916001600160a01b031690639010d07c9060440160206040518083038186803b158015612f2257600080fd5b505afa158015612f36573d6000803e3d6000fd5b505050506040513d601f19601f82011682018060405250810190612f5a919061489f565b604051632f2ff15d60e01b8152600481018990526001600160a01b03821660248201529091503090632f2ff15d90604401600060405180830381600087803b158015612fa557600080fd5b505af1158015612fb9573d6000803e3d6000fd5b50505050508080612fc990614fd9565b915050612ece565b50600195945050505050565b601160009054906101000a90046001600160a01b03166001600160a01b031663ff7e88ec6040518163ffffffff1660e01b815260040160206040518083038186803b15801561302b57600080fd5b505afa15801561303f573d6000803e3d6000fd5b505050506040513d601f19601f820116820180604052508101906130639190614b4c565b601160156101000a81548160ff021916908315150217905550601160009054906101000a90046001600160a01b03166001600160a01b0316632fb565856040518163ffffffff1660e01b815260040160206040518083038186803b1580156130ca57600080fd5b505afa1580156130de573d6000803e3d6000fd5b505050506040513d601f19601f820116820180604052508101906131029190614b4c565b60118054911515600160b01b0260ff60b01b19909216919091179055565b6000805b601e548110156131575761313781611b70565b156131455761314581613377565b8061314f81614fd9565b915050613124565b50506000601e55600190565b600061317d600080516020615110833981519152336115c6565b8061319b575061319b6000805160206150d0833981519152336115c6565b806131b957506131b96000805160206150b0833981519152336115c6565b6131d55760405162461bcd60e51b8152600401610b8390614dd9565b6131df8484613b8e565b6000818152602560205260409020929092555092915050565b60185460ff161561323e5760405162461bcd60e51b815260206004820152601060248201526f14185d5cd8589b194e881c185d5cd95960821b6044820152606401610b83565b6018805460ff191660011790557f62e78cea01bee320cd4e420270b5ea74000d11b0c9f74754ebdbfc544b05a258612d343390565b60006115bf8383613b9a565b6001600160a01b0382163314156132d85760405162461bcd60e51b815260206004820152601960248201527f4552433732313a20617070726f766520746f2063616c6c6572000000000000006044820152606401610b83565b3360008181526017602090815260408083206001600160a01b03871680855290835292819020805460ff191686151590811790915590519081529192917f17307eab39ab6107e8899845ad3d59bd9653f200f220920489ca2b5937696c31910160405180910390a35050565b61334f84848461382b565b61335b84848484613c20565b6117bc5760405162461bcd60e51b8152600401610b8390614e09565b610d3581613d2d565b606061338b82611b70565b6133f15760405162461bcd60e51b815260206004820152603160248201527f45524337323155524953746f726167653a2055524920717565727920666f72206044820152703737b732bc34b9ba32b73a103a37b5b2b760791b6064820152608401610b83565b6000828152601960205260408120805461340a90614f9e565b80601f016020809104026020016040519081016040528092919081815260200182805461343690614f9e565b80156134835780601f1061345857610100808354040283529160200191613483565b820191906000526020600020905b81548152906001019060200180831161346657829003601f168201915b505050505090506000613494613d6d565b90508051600014156134a7575092915050565b8151156134d95780826040516020016134c1929190614c7d565b60405160208183030381529060405292505050919050565b61151d84613d7c565b6000610a83825490565b600082815260016020819052604082200154905460ff161561351257610cb98383613a3a565b61351c81336139d6565b610cb98383613a3a565b60006001600160a01b038416331480159061354957506001600160a01b03841615155b61355257600080fd5b50601e54613561338483613e46565b61356b8482613eb5565b6135758183613ecf565b6001601e60008282546135889190614ef9565b90915550509392505050565b601160009054906101000a90046001600160a01b03166001600160a01b031663a44b93256040518163ffffffff1660e01b815260040160206040518083038186803b1580156135e257600080fd5b505afa1580156135f6573d6000803e3d6000fd5b505050506040513d601f19601f8201168201806040525081019061361a9190614b4c565b61362357600080fd5b601160009054906101000a90046001600160a01b03166001600160a01b031663ac7cfac36040518163ffffffff1660e01b815260040160206040518083038186803b15801561367157600080fd5b505afa158015613685573d6000803e3d6000fd5b505050506040513d601f19601f820116820180604052508101906136a9919061489f565b600380546001600160a01b0319166001600160a01b0392909216919091179055565b6136d582826115c6565b6117865760008281526001602081815260408084206001600160a01b0386168086529252808420805460ff19169093179092559051339285917f2f8788117e7eff1d82e926ec794901d17c78024a50270940304540a733656f0d9190a45050565b600081815260018301602052604081205461117357508154600181810184556000848152602080822090930184905584548482528286019093526040902091909155610a83565b60006001600160e01b031982166380ac58cd60e01b14806137ae57506001600160e01b03198216635b5e139f60e01b145b80610a835750610a8382613f5a565b600081815260166020526040902080546001600160a01b0319166001600160a01b03841690811790915581906137f282611211565b6001600160a01b03167f8c5be1e5ebec7d5bd14f71427d1e84f3dd0314c0f7b2291e5b200ac8c7c3b92560405160405180910390a45050565b826001600160a01b031661383e82611211565b6001600160a01b0316146138a65760405162461bcd60e51b815260206004820152602960248201527f4552433732313a207472616e73666572206f6620746f6b656e2074686174206960448201526839903737ba1037bbb760b91b6064820152608401610b83565b6001600160a01b0382166139085760405162461bcd60e51b8152602060048201526024808201527f4552433732313a207472616e7366657220746f20746865207a65726f206164646044820152637265737360e01b6064820152608401610b83565b613913838383613f7f565b61391e600082611b8d565b6001600160a01b0383166000908152601560205260408120805460019290613947908490614f44565b90915550506001600160a01b0382166000908152601560205260408120805460019290613975908490614ef9565b909155505060008181526014602052604080822080546001600160a01b0319166001600160a01b0386811691821790925591518493918716917fddf252ad1be2c89b69c2b068fc378daa952ba7f163c4a11628f55a4df523b3ef91a4505050565b6139e082826115c6565b611786576139f8816001600160a01b03166014613f8a565b613a03836020613f8a565b604051602001613a14929190614cac565b60408051601f198184030181529082905262461bcd60e51b8252610b8391600401614dc6565b613a4482826115c6565b156117865760008281526001602090815260408083206001600160a01b0385168085529252808320805460ff1916905551339285917ff6391f5c32d9c69d2a47ea670b442974b53935d1edc7fd64eb21e047a839171b9190a45050565b60008181526001830160205260408120548015613b84576000613ac5600183614f44565b8554909150600090613ad990600190614f44565b90506000866000018281548110613af257613af261504a565b9060005260206000200154905080876000018481548110613b1557613b1561504a565b600091825260208083209091019290925582815260018901909152604090208490558654879080613b4857613b48615034565b60019003818190600052602060002001600090559055866001016000878152602001908152602001600020600090556001945050505050610a83565b6000915050610a83565b60006115bf8383614126565b81546000908210613bf85760405162461bcd60e51b815260206004820152602260248201527f456e756d657261626c655365743a20696e646578206f7574206f6620626f756e604482015261647360f01b6064820152608401610b83565b826000018281548110613c0d57613c0d61504a565b9060005260206000200154905092915050565b60006001600160a01b0384163b15613d2257604051630a85bd0160e11b81526001600160a01b0385169063150b7a0290613c64903390899088908890600401614d21565b602060405180830381600087803b158015613c7e57600080fd5b505af1925050508015613cae575060408051601f3d908101601f19168201909252613cab91810190614be6565b60015b613d08573d808015613cdc576040519150601f19603f3d011682016040523d82523d6000602084013e613ce1565b606091505b508051613d005760405162461bcd60e51b8152600401610b8390614e09565b805181602001fd5b6001600160e01b031916630a85bd0160e11b14905061151d565b506001949350505050565b613d3681614189565b60008181526019602052604090208054613d4f90614f9e565b159050610d35576000818152601960205260408120610d35916147a1565b606060228054610a9890614f9e565b6060613d8782611b70565b613deb5760405162461bcd60e51b815260206004820152602f60248201527f4552433732314d657461646174613a2055524920717565727920666f72206e6f60448201526e3732bc34b9ba32b73a103a37b5b2b760891b6064820152608401610b83565b6000613df5613d6d565b90506000815111613e1557604051806020016040528060008152506115bf565b80613e1f84614230565b604051602001613e30929190614c7d565b6040516020818303038152906040529392505050565b600081815260236020908152604090912080546001600160a01b0319166001600160a01b0386161781558351613e849260019092019185019061471d565b506001600160a01b039092166000908152602460209081526040822080546001810182559083529120019190915550565b61178682826040518060200160405280600081525061432e565b613ed882611b70565b613f3b5760405162461bcd60e51b815260206004820152602e60248201527f45524337323155524953746f726167653a2055524920736574206f66206e6f6e60448201526d32bc34b9ba32b73a103a37b5b2b760911b6064820152608401610b83565b60008281526019602090815260409091208251610cb99284019061471d565b60006001600160e01b03198216635a05180f60e01b1480610a835750610a8382614361565b610cb9838383614396565b60606000613f99836002614f25565b613fa4906002614ef9565b67ffffffffffffffff811115613fbc57613fbc615060565b6040519080825280601f01601f191660200182016040528015613fe6576020820181803683370190505b509050600360fc1b816000815181106140015761400161504a565b60200101906001600160f81b031916908160001a905350600f60fb1b816001815181106140305761403061504a565b60200101906001600160f81b031916908160001a9053506000614054846002614f25565b61405f906001614ef9565b90505b60018111156140d7576f181899199a1a9b1b9c1cb0b131b232b360811b85600f16601081106140935761409361504a565b1a60f81b8282815181106140a9576140a961504a565b60200101906001600160f81b031916908160001a90535060049490941c936140d081614f87565b9050614062565b5083156115bf5760405162461bcd60e51b815260206004820181905260248201527f537472696e67733a20686578206c656e67746820696e73756666696369656e746044820152606401610b83565b60006001600160a01b038316331480159061414957506001600160a01b03831615155b61415257600080fd5b50601e54614161338383613e46565b61416b8382613eb5565b6001601e600082825461417e9190614ef9565b909155505092915050565b600061419482611211565b90506141a281600084613f7f565b6141ad600083611b8d565b6001600160a01b03811660009081526015602052604081208054600192906141d6908490614f44565b909155505060008281526014602052604080822080546001600160a01b0319169055518391906001600160a01b038416907fddf252ad1be2c89b69c2b068fc378daa952ba7f163c4a11628f55a4df523b3ef908390a45050565b6060816142545750506040805180820190915260018152600360fc1b602082015290565b8160005b811561427e578061426881614fd9565b91506142779050600a83614f11565b9150614258565b60008167ffffffffffffffff81111561429957614299615060565b6040519080825280601f01601f1916602001820160405280156142c3576020820181803683370190505b5090505b841561151d576142d8600183614f44565b91506142e5600a86614ff4565b6142f0906030614ef9565b60f81b8183815181106143055761430561504a565b60200101906001600160f81b031916908160001a905350614327600a86614f11565b94506142c7565b614338838361444e565b6143456000848484613c20565b610cb95760405162461bcd60e51b8152600401610b8390614e09565b60006001600160e01b03198216637965db0b60e01b1480610a8357506301ffc9a760e01b6001600160e01b0319831614610a83565b6001600160a01b0383166143f1576143ec81601c80546000838152601d60205260408120829055600182018355919091527f0e4562a10381dec21b205ed72637e6b1b523bdd0e4d4d50af5cd23dd4500a2110155565b614414565b816001600160a01b0316836001600160a01b03161461441457614414838261458d565b6001600160a01b03821661442b57610cb98161462a565b826001600160a01b0316826001600160a01b031614610cb957610cb982826146d9565b6001600160a01b0382166144a45760405162461bcd60e51b815260206004820181905260248201527f4552433732313a206d696e7420746f20746865207a65726f20616464726573736044820152606401610b83565b6144ad81611b70565b156144fa5760405162461bcd60e51b815260206004820152601c60248201527f4552433732313a20746f6b656e20616c7265616479206d696e746564000000006044820152606401610b83565b61450660008383613f7f565b6001600160a01b038216600090815260156020526040812080546001929061452f908490614ef9565b909155505060008181526014602052604080822080546001600160a01b0319166001600160a01b03861690811790915590518392907fddf252ad1be2c89b69c2b068fc378daa952ba7f163c4a11628f55a4df523b3ef908290a45050565b6000600161459a84611320565b6145a49190614f44565b6000838152601b60205260409020549091508082146145f7576001600160a01b0384166000908152601a602090815260408083208584528252808320548484528184208190558352601b90915290208190555b506000918252601b602090815260408084208490556001600160a01b039094168352601a81528383209183525290812055565b601c5460009061463c90600190614f44565b6000838152601d6020526040812054601c80549394509092849081106146645761466461504a565b9060005260206000200154905080601c83815481106146855761468561504a565b6000918252602080832090910192909255828152601d9091526040808220849055858252812055601c8054806146bd576146bd615034565b6001900381819060005260206000200160009055905550505050565b60006146e483611320565b6001600160a01b039093166000908152601a602090815260408083208684528252808320859055938252601b9052919091209190915550565b82805461472990614f9e565b90600052602060002090601f01602090048101928261474b5760008555614791565b82601f1061476457805160ff1916838001178555614791565b82800160010185558215614791579182015b82811115614791578251825591602001919060010190614776565b5061479d9291506147d7565b5090565b5080546147ad90614f9e565b6000825580601f106147bd575050565b601f016020900490600052602060002090810190610d3591905b5b8082111561479d57600081556001016147d8565b600067ffffffffffffffff8084111561480757614807615060565b604051601f8501601f19908116603f0116810190828211818310171561482f5761482f615060565b8160405280935085815286868601111561484857600080fd5b858560208301376000602087830101525050509392505050565b600082601f83011261487357600080fd5b6115bf838335602085016147ec565b60006020828403121561489457600080fd5b81356115bf81615076565b6000602082840312156148b157600080fd5b81516115bf81615076565b600080604083850312156148cf57600080fd5b82356148da81615076565b915060208301356148ea81615076565b809150509250929050565b60008060006060848603121561490a57600080fd5b833561491581615076565b9250602084013561492581615076565b929592945050506040919091013590565b6000806000806080858703121561494c57600080fd5b843561495781615076565b9350602085013561496781615076565b925060408501359150606085013567ffffffffffffffff81111561498a57600080fd5b8501601f8101871361499b57600080fd5b6149aa878235602084016147ec565b91505092959194509250565b600080604083850312156149c957600080fd5b82356149d481615076565b915060208301356148ea8161508b565b600080604083850312156149f757600080fd5b8235614a0281615076565b9150602083013567ffffffffffffffff811115614a1e57600080fd5b614a2a85828601614862565b9150509250929050565b600080600060608486031215614a4957600080fd5b8335614a5481615076565b9250602084013567ffffffffffffffff80821115614a7157600080fd5b614a7d87838801614862565b93506040860135915080821115614a9357600080fd5b50614aa086828701614862565b9150509250925092565b600080600060608486031215614abf57600080fd5b8335614aca81615076565b9250602084013567ffffffffffffffff811115614ae657600080fd5b614af286828701614862565b925050604084013590509250925092565b60008060408385031215614b1657600080fd5b8235614b2181615076565b946020939093013593505050565b600060208284031215614b4157600080fd5b81356115bf8161508b565b600060208284031215614b5e57600080fd5b81516115bf8161508b565b600060208284031215614b7b57600080fd5b5035919050565b60008060408385031215614b9557600080fd5b8235915060208301356148ea81615076565b60008060408385031215614bba57600080fd5b50508035926020909101359150565b600060208284031215614bdb57600080fd5b81356115bf81615099565b600060208284031215614bf857600080fd5b81516115bf81615099565b600060208284031215614c1557600080fd5b813567ffffffffffffffff811115614c2c57600080fd5b61151d84828501614862565b600060208284031215614c4a57600080fd5b5051919050565b60008151808452614c69816020860160208601614f5b565b601f01601f19169290920160200192915050565b60008351614c8f818460208801614f5b565b835190830190614ca3818360208801614f5b565b01949350505050565b7f416363657373436f6e74726f6c3a206163636f756e7420000000000000000000815260008351614ce4816017850160208801614f5b565b7001034b99036b4b9b9b4b733903937b6329607d1b6017918401918201528351614d15816028840160208801614f5b565b01602801949350505050565b6001600160a01b0385811682528416602082015260408101839052608060608201819052600090614d5490830184614c51565b9695505050505050565b6001600160a01b038316815260406020820181905260009061151d90830184614c51565b6020808252825182820181905260009190848201906040850190845b81811015614dba57835183529284019291840191600101614d9e565b50909695505050505050565b6020815260006115bf6020830184614c51565b6020808252601690820152752cb7ba93b932903737ba103a3432903130b4b634b33360511b604082015260600190565b60208082526032908201527f4552433732313a207472616e7366657220746f206e6f6e20455243373231526560408201527131b2b4bb32b91034b6b83632b6b2b73a32b960711b606082015260800190565b6020808252602d908201527f596f7520646f206e6f742068617665207065726d697373696f6e20746f206d6f60408201526c7665207468697320626164676560981b606082015260800190565b60208082526031908201527f4552433732313a207472616e736665722063616c6c6572206973206e6f74206f6040820152701ddb995c881b9bdc88185c1c1c9bdd9959607a1b606082015260800190565b60008219821115614f0c57614f0c615008565b500190565b600082614f2057614f2061501e565b500490565b6000816000190483118215151615614f3f57614f3f615008565b500290565b600082821015614f5657614f56615008565b500390565b60005b83811015614f76578181015183820152602001614f5e565b838111156117bc5750506000910152565b600081614f9657614f96615008565b506000190190565b600181811c90821680614fb257607f821691505b60208210811415614fd357634e487b7160e01b600052602260045260246000fd5b50919050565b6000600019821415614fed57614fed615008565b5060010190565b6000826150035761500361501e565b500690565b634e487b7160e01b600052601160045260246000fd5b634e487b7160e01b600052601260045260246000fd5b634e487b7160e01b600052603160045260246000fd5b634e487b7160e01b600052603260045260246000fd5b634e487b7160e01b600052604160045260246000fd5b6001600160a01b0381168114610d3557600080fd5b8015158114610d3557600080fd5b6001600160e01b031981168114610d3557600080fdfefa8e4989e1d689f7bc5c4b25b87efb51fecdecb19ba62847e29c759e12a89acd048bc71fa1cb2c119c339cf9cf00a97996a19a9d991ce5fe049f2fa5459e7990f0f4b159a6e2a4815eb3ca3df080bfa70c9270662c59bcaa4479a456220183e60538d24a8b7882d7b2e36af243d4af61c23e86e3daa6cb8c887b53220b2f57207c9d7f6f02908185bffb3f7fc9afb29fd7bf93675af8fd4b655ee05c2cee1e0ea26469706673582212206ef4b42d1c3305797827ac1118aa1c682ce843f3ddc3616bcea6f03b9918bd0264736f6c63430008070033",
  "immutableReferences": {},
  "source": "// SPDX-License-Identifier: MIT\n\npragma solidity ^0.8.0;\n\nimport \"@openzeppelin/contracts/token/ERC20/ERC20.sol\";\n\nimport \"./GenericBadge.sol\";\n\n\ncontract PenaltyBadge is GenericBadge {\n\n    mapping (uint => uint) public Penalty;\n\n    ERC20 public redPens = ERC20(RedPenTokenAddress);\n \n    constructor(string memory _badgeName, string memory _badgeSymbol, address _AddressManagerAddress)\n        GenericBadge(_badgeName, _badgeSymbol, _AddressManagerAddress)\n    {\n        redPens = ERC20(RedPenTokenAddress);\n    }      \n\n    function payPenalty(uint _tokenId) public virtual returns (bool) {\n       \n        _payPenalty(_tokenId);\n\n        return true;\n    }\n\n    function _payPenalty(uint _tokenId) internal virtual returns (bool) {\n        uint256 expectedContractBalance;\n        uint256 penaltyCost = Penalty[_tokenId];\n    \n        require (penaltyCost > 0, \"No penalty for this tokenId!\");\n        \n        require(redPens.balanceOf(msg.sender) >= penaltyCost, \"You Don't Have Enough !Red\");\n        expectedContractBalance = redPens.balanceOf(address(this)) + penaltyCost;\n        redPens.transferFrom(msg.sender, address(this), penaltyCost);\n        require(redPens.balanceOf(address(this)) == expectedContractBalance, \"Error Transfering !RED\");\n        Penalty[_tokenId] = 0;\n        return true;\n    }\n\n    function issueBadge(address receivingAddress, string memory _reason) public virtual override\n        BAILIFF \n        returns(uint newId) {\n            uint _penalty = 0;\n            newId = _issueBadge(receivingAddress, _reason, _penalty);\n            return newId;\n    }\n\n    function issueBadge(address receivingAddress, string memory _reason, uint _penalty) public virtual\n        BAILIFF \n        returns(uint newId) {\n            newId = _issueBadge(receivingAddress, _reason, _penalty);\n            return newId;\n    }\n\n    function _issueBadge(address receivingAddress, string memory _reason, uint _penalty) internal virtual\n        BAILIFF \n        returns(uint newId) {\n            newId = super.issueBadge(receivingAddress, _reason);\n            Penalty[newId] = _penalty;\n    }\n\n     /////////////////////////////////////////////////////////////////////////////////////////////////\n    /////////////////////////////////////////////////////////////////////////////////////////////////\n    /// @dev                                                                                     ////\n    /// Update Payment Token                                                                      ////\n    /////////////////////////////////////////////////////////////////////////////////////////////////\n    /////////////////////////////////////////////////////////////////////////////////////////////////\n\n\n    function updatePaymentToken() public {\n        _updateTokenAddresses();\n        redPens = ERC20(RedPenTokenAddress);\n    }\n\n     /////////////////////////////////////////////////////////////////////////////////////////////////\n    /////////////////////////////////////////////////////////////////////////////////////////////////\n    /// @dev                                                                                     ////\n    /// Transfer rules                                                                           ////\n    /////////////////////////////////////////////////////////////////////////////////////////////////\n    /////////////////////////////////////////////////////////////////////////////////////////////////\n\n\n    function _isApprovedOrOwner(address spender, uint256 tokenId)\n        internal view virtual\n        override(GenericBadge)\n        returns (bool)\n    {\n        require(_exists(tokenId), \"ERC721: operator query for nonexistent token\");\n        \n        address owner = ownerOf(tokenId);\n       \n        if (spender == owner) {\n            require (Penalty[tokenId] == 0, \"Please Pay Your Penalty\");\n            return true;\n        } else {\n            return (isApprovedForAll(owner, spender));\n        }\n    }\n        \n}",
  "sourcePath": "/home/n/Desktop/PinkSlips_FrontEnd_REFORMAT/contracts/src/ERC721/PenaltyBadge.sol",
  "compiler": {
    "name": "solc",
    "version": "0.8.7+commit.e28d00a7.Emscripten.clang"
  },
  "schemaVersion": "3.4.1",
  "updatedAt": "2021-08-12T06:23:42.117Z",
  "devdoc": {
    "kind": "dev",
    "methods": {
      "approve(address,uint256)": {
        "details": "See {IERC721-approve}."
      },
      "balanceOf(address)": {
        "details": "See {IERC721-balanceOf}."
      },
      "getApproved(uint256)": {
        "details": "See {IERC721-getApproved}."
      },
      "getRoleAdmin(bytes32)": {
        "details": "Returns the admin role that controls `role`. See {grantRole} and {revokeRole}. To change a role's admin, use {_setRoleAdmin}."
      },
      "getRoleMember(bytes32,uint256)": {
        "details": "Returns one of the accounts that have `role`. `index` must be a value between 0 and {getRoleMemberCount}, non-inclusive. Role bearers are not sorted in any particular way, and their ordering may change at any point. WARNING: When using {getRoleMember} and {getRoleMemberCount}, make sure you perform all queries on the same block. See the following https://forum.openzeppelin.com/t/iterating-over-elements-on-enumerableset-in-openzeppelin-contracts/2296[forum post] for more information."
      },
      "getRoleMemberCount(bytes32)": {
        "details": "Returns the number of accounts that have `role`. Can be used together with {getRoleMember} to enumerate all bearers of a role."
      },
      "grantRole(bytes32,address)": {
        "details": "Overload {grantRole} to track enumerable memberships"
      },
      "hasRole(bytes32,address)": {
        "details": "Returns `true` if `account` has been granted `role`."
      },
      "isApprovedForAll(address,address)": {
        "details": "See {IERC721-isApprovedForAll}."
      },
      "issueBadge(address,string)": {
        "details": "//// Issuance Desk                                                                            ////"
      },
      "name()": {
        "details": "See {IERC721Metadata-name}."
      },
      "ownerOf(uint256)": {
        "details": "See {IERC721-ownerOf}."
      },
      "pause()": {
        "details": "//// Maintanence\\\\\\\\\\\\\\\\\\\\\\\\\\\\\\\\\\\\\\\\\\\\\\\\\\\\\\                                                   ////"
      },
      "paused()": {
        "details": "Returns true if the contract is paused, and false otherwise."
      },
      "renounceRole(bytes32,address)": {
        "details": "Overload {renounceRole} to track enumerable memberships"
      },
      "revokeRole(bytes32,address)": {
        "details": "Overload {revokeRole} to track enumerable memberships"
      },
      "safeTransferFrom(address,address,uint256)": {
        "details": "See {IERC721-safeTransferFrom}."
      },
      "safeTransferFrom(address,address,uint256,bytes)": {
        "details": "See {IERC721-safeTransferFrom}."
      },
      "setApprovalForAll(address,bool)": {
        "details": "See {IERC721-setApprovalForAll}."
      },
      "symbol()": {
        "details": "See {IERC721Metadata-symbol}."
      },
      "tokenByIndex(uint256)": {
        "details": "See {IERC721Enumerable-tokenByIndex}."
      },
      "tokenOfOwnerByIndex(address,uint256)": {
        "details": "See {IERC721Enumerable-tokenOfOwnerByIndex}."
      },
      "totalSupply()": {
        "details": "See {IERC721Enumerable-totalSupply}."
      },
      "transferFrom(address,address,uint256)": {
        "details": "See {IERC721-transferFrom}."
      },
      "updatePaymentToken()": {
        "details": "//// Update Payment Token                                                                      ////"
      }
    },
    "version": 1
  },
  "userdoc": {
    "kind": "user",
    "methods": {},
    "version": 1
  }
}