{
  "contractName": "PenaltyBadge",
  "abi": [
    {
      "inputs": [
        {
          "internalType": "string",
          "name": "_badgeName",
          "type": "string"
        },
        {
          "internalType": "string",
          "name": "_badgeSymbol",
          "type": "string"
        },
        {
          "internalType": "address",
          "name": "_AddressManagerAddress",
          "type": "address"
        }
      ],
      "stateMutability": "nonpayable",
      "type": "constructor"
    },
    {
      "anonymous": false,
      "inputs": [
        {
          "indexed": true,
          "internalType": "address",
          "name": "owner",
          "type": "address"
        },
        {
          "indexed": true,
          "internalType": "address",
          "name": "approved",
          "type": "address"
        },
        {
          "indexed": true,
          "internalType": "uint256",
          "name": "tokenId",
          "type": "uint256"
        }
      ],
      "name": "Approval",
      "type": "event"
    },
    {
      "anonymous": false,
      "inputs": [
        {
          "indexed": true,
          "internalType": "address",
          "name": "owner",
          "type": "address"
        },
        {
          "indexed": true,
          "internalType": "address",
          "name": "operator",
          "type": "address"
        },
        {
          "indexed": false,
          "internalType": "bool",
          "name": "approved",
          "type": "bool"
        }
      ],
      "name": "ApprovalForAll",
      "type": "event"
    },
    {
      "anonymous": false,
      "inputs": [
        {
          "indexed": false,
          "internalType": "address",
          "name": "account",
          "type": "address"
        }
      ],
      "name": "Paused",
      "type": "event"
    },
    {
      "anonymous": false,
      "inputs": [
        {
          "indexed": true,
          "internalType": "bytes32",
          "name": "role",
          "type": "bytes32"
        },
        {
          "indexed": true,
          "internalType": "bytes32",
          "name": "previousAdminRole",
          "type": "bytes32"
        },
        {
          "indexed": true,
          "internalType": "bytes32",
          "name": "newAdminRole",
          "type": "bytes32"
        }
      ],
      "name": "RoleAdminChanged",
      "type": "event"
    },
    {
      "anonymous": false,
      "inputs": [
        {
          "indexed": true,
          "internalType": "bytes32",
          "name": "role",
          "type": "bytes32"
        },
        {
          "indexed": true,
          "internalType": "address",
          "name": "account",
          "type": "address"
        },
        {
          "indexed": true,
          "internalType": "address",
          "name": "sender",
          "type": "address"
        }
      ],
      "name": "RoleGranted",
      "type": "event"
    },
    {
      "anonymous": false,
      "inputs": [
        {
          "indexed": true,
          "internalType": "bytes32",
          "name": "role",
          "type": "bytes32"
        },
        {
          "indexed": true,
          "internalType": "address",
          "name": "account",
          "type": "address"
        },
        {
          "indexed": true,
          "internalType": "address",
          "name": "sender",
          "type": "address"
        }
      ],
      "name": "RoleRevoked",
      "type": "event"
    },
    {
      "anonymous": false,
      "inputs": [
        {
          "indexed": true,
          "internalType": "address",
          "name": "from",
          "type": "address"
        },
        {
          "indexed": true,
          "internalType": "address",
          "name": "to",
          "type": "address"
        },
        {
          "indexed": true,
          "internalType": "uint256",
          "name": "tokenId",
          "type": "uint256"
        }
      ],
      "name": "Transfer",
      "type": "event"
    },
    {
      "anonymous": false,
      "inputs": [
        {
          "indexed": false,
          "internalType": "address",
          "name": "account",
          "type": "address"
        }
      ],
      "name": "Unpaused",
      "type": "event"
    },
    {
      "inputs": [],
      "name": "AddressManagerAddress",
      "outputs": [
        {
          "internalType": "address",
          "name": "",
          "type": "address"
        }
      ],
      "stateMutability": "view",
      "type": "function"
    },
    {
      "inputs": [
        {
          "internalType": "uint256",
          "name": "",
          "type": "uint256"
        }
      ],
      "name": "BadgeInfo",
      "outputs": [
        {
          "internalType": "address",
          "name": "gifter",
          "type": "address"
        },
        {
          "internalType": "string",
          "name": "reason",
          "type": "string"
        }
      ],
      "stateMutability": "view",
      "type": "function"
    },
    {
      "inputs": [
        {
          "internalType": "address",
          "name": "",
          "type": "address"
        },
        {
          "internalType": "uint256",
          "name": "",
          "type": "uint256"
        }
      ],
      "name": "BadgesSent",
      "outputs": [
        {
          "internalType": "uint256",
          "name": "",
          "type": "uint256"
        }
      ],
      "stateMutability": "view",
      "type": "function"
    },
    {
      "inputs": [],
      "name": "ChadBadgeAddress",
      "outputs": [
        {
          "internalType": "address",
          "name": "",
          "type": "address"
        }
      ],
      "stateMutability": "view",
      "type": "function"
    },
    {
      "inputs": [],
      "name": "ColoredIDAddress",
      "outputs": [
        {
          "internalType": "address",
          "name": "",
          "type": "address"
        }
      ],
      "stateMutability": "view",
      "type": "function"
    },
    {
      "inputs": [],
      "name": "CourtClerk",
      "outputs": [
        {
          "internalType": "address",
          "name": "",
          "type": "address"
        }
      ],
      "stateMutability": "view",
      "type": "function"
    },
    {
      "inputs": [],
      "name": "DEFAULT_ADMIN_ROLE",
      "outputs": [
        {
          "internalType": "bytes32",
          "name": "",
          "type": "bytes32"
        }
      ],
      "stateMutability": "view",
      "type": "function"
    },
    {
      "inputs": [],
      "name": "GAVELS_BAILIFF",
      "outputs": [
        {
          "internalType": "bytes32",
          "name": "",
          "type": "bytes32"
        }
      ],
      "stateMutability": "view",
      "type": "function"
    },
    {
      "inputs": [],
      "name": "GavelDAOAgent",
      "outputs": [
        {
          "internalType": "address",
          "name": "",
          "type": "address"
        }
      ],
      "stateMutability": "view",
      "type": "function"
    },
    {
      "inputs": [],
      "name": "GavelTokenAddress",
      "outputs": [
        {
          "internalType": "address",
          "name": "",
          "type": "address"
        }
      ],
      "stateMutability": "view",
      "type": "function"
    },
    {
      "inputs": [],
      "name": "GavelVote",
      "outputs": [
        {
          "internalType": "bool",
          "name": "",
          "type": "bool"
        }
      ],
      "stateMutability": "view",
      "type": "function"
    },
    {
      "inputs": [],
      "name": "GoldStarAddress",
      "outputs": [
        {
          "internalType": "address",
          "name": "",
          "type": "address"
        }
      ],
      "stateMutability": "view",
      "type": "function"
    },
    {
      "inputs": [],
      "name": "JERK_ROLE",
      "outputs": [
        {
          "internalType": "bytes32",
          "name": "",
          "type": "bytes32"
        }
      ],
      "stateMutability": "view",
      "type": "function"
    },
    {
      "inputs": [],
      "name": "JURY_BAILIFF",
      "outputs": [
        {
          "internalType": "bytes32",
          "name": "",
          "type": "bytes32"
        }
      ],
      "stateMutability": "view",
      "type": "function"
    },
    {
      "inputs": [],
      "name": "JuryDAOAgent",
      "outputs": [
        {
          "internalType": "address",
          "name": "",
          "type": "address"
        }
      ],
      "stateMutability": "view",
      "type": "function"
    },
    {
      "inputs": [],
      "name": "JuryPoolAddress",
      "outputs": [
        {
          "internalType": "address",
          "name": "",
          "type": "address"
        }
      ],
      "stateMutability": "view",
      "type": "function"
    },
    {
      "inputs": [],
      "name": "JuryVote",
      "outputs": [
        {
          "internalType": "bool",
          "name": "",
          "type": "bool"
        }
      ],
      "stateMutability": "view",
      "type": "function"
    },
    {
      "inputs": [],
      "name": "MINI_BAILIFF_ROLE",
      "outputs": [
        {
          "internalType": "bytes32",
          "name": "",
          "type": "bytes32"
        }
      ],
      "stateMutability": "view",
      "type": "function"
    },
    {
      "inputs": [],
      "name": "MiniBailiff",
      "outputs": [
        {
          "internalType": "address",
          "name": "",
          "type": "address"
        }
      ],
      "stateMutability": "view",
      "type": "function"
    },
    {
      "inputs": [
        {
          "internalType": "uint256",
          "name": "",
          "type": "uint256"
        }
      ],
      "name": "Penalty",
      "outputs": [
        {
          "internalType": "uint256",
          "name": "",
          "type": "uint256"
        }
      ],
      "stateMutability": "view",
      "type": "function"
    },
    {
      "inputs": [],
      "name": "PinkSlipAddress",
      "outputs": [
        {
          "internalType": "address",
          "name": "",
          "type": "address"
        }
      ],
      "stateMutability": "view",
      "type": "function"
    },
    {
      "inputs": [],
      "name": "RedPenTokenAddress",
      "outputs": [
        {
          "internalType": "address",
          "name": "",
          "type": "address"
        }
      ],
      "stateMutability": "view",
      "type": "function"
    },
    {
      "inputs": [],
      "name": "THE_COURT_ROLE",
      "outputs": [
        {
          "internalType": "bytes32",
          "name": "",
          "type": "bytes32"
        }
      ],
      "stateMutability": "view",
      "type": "function"
    },
    {
      "inputs": [],
      "name": "TheCourtAddress",
      "outputs": [
        {
          "internalType": "address",
          "name": "",
          "type": "address"
        }
      ],
      "stateMutability": "view",
      "type": "function"
    },
    {
      "inputs": [],
      "name": "TreasuryAddress",
      "outputs": [
        {
          "internalType": "address",
          "name": "",
          "type": "address"
        }
      ],
      "stateMutability": "view",
      "type": "function"
    },
    {
      "inputs": [],
      "name": "addressManager",
      "outputs": [
        {
          "internalType": "contract AddressManager",
          "name": "",
          "type": "address"
        }
      ],
      "stateMutability": "view",
      "type": "function"
    },
    {
      "inputs": [
        {
          "internalType": "address",
          "name": "to",
          "type": "address"
        },
        {
          "internalType": "uint256",
          "name": "tokenId",
          "type": "uint256"
        }
      ],
      "name": "approve",
      "outputs": [],
      "stateMutability": "nonpayable",
      "type": "function"
    },
    {
      "inputs": [],
      "name": "badgeColor",
      "outputs": [
        {
          "internalType": "string",
          "name": "",
          "type": "string"
        }
      ],
      "stateMutability": "view",
      "type": "function"
    },
    {
      "inputs": [],
      "name": "badgeName",
      "outputs": [
        {
          "internalType": "string",
          "name": "",
          "type": "string"
        }
      ],
      "stateMutability": "view",
      "type": "function"
    },
    {
      "inputs": [
        {
          "internalType": "address",
          "name": "owner",
          "type": "address"
        }
      ],
      "name": "balanceOf",
      "outputs": [
        {
          "internalType": "uint256",
          "name": "",
          "type": "uint256"
        }
      ],
      "stateMutability": "view",
      "type": "function"
    },
    {
      "inputs": [],
      "name": "baseURI_",
      "outputs": [
        {
          "internalType": "string",
          "name": "",
          "type": "string"
        }
      ],
      "stateMutability": "view",
      "type": "function"
    },
    {
      "inputs": [
        {
          "internalType": "uint256",
          "name": "valueMustBe69",
          "type": "uint256"
        }
      ],
      "name": "destroyAndLockContract",
      "outputs": [
        {
          "internalType": "bool",
          "name": "",
          "type": "bool"
        }
      ],
      "stateMutability": "nonpayable",
      "type": "function"
    },
    {
      "inputs": [
        {
          "internalType": "uint256",
          "name": "tokenId",
          "type": "uint256"
        }
      ],
      "name": "getApproved",
      "outputs": [
        {
          "internalType": "address",
          "name": "",
          "type": "address"
        }
      ],
      "stateMutability": "view",
      "type": "function"
    },
    {
      "inputs": [
        {
          "internalType": "uint256",
          "name": "_tokenId",
          "type": "uint256"
        }
      ],
      "name": "getBadgeReason",
      "outputs": [
        {
          "internalType": "string",
          "name": "_theReason",
          "type": "string"
        }
      ],
      "stateMutability": "view",
      "type": "function"
    },
    {
      "inputs": [
        {
          "internalType": "uint256",
          "name": "_tokenId",
          "type": "uint256"
        }
      ],
      "name": "getBadgeSender",
      "outputs": [
        {
          "internalType": "address",
          "name": "_theGifter",
          "type": "address"
        }
      ],
      "stateMutability": "view",
      "type": "function"
    },
    {
      "inputs": [
        {
          "internalType": "address",
          "name": "_gifter",
          "type": "address"
        }
      ],
      "name": "getBadgesSent",
      "outputs": [
        {
          "internalType": "uint256[]",
          "name": "_BadgesSent",
          "type": "uint256[]"
        }
      ],
      "stateMutability": "view",
      "type": "function"
    },
    {
      "inputs": [
        {
          "internalType": "bytes32",
          "name": "role",
          "type": "bytes32"
        }
      ],
      "name": "getRoleAdmin",
      "outputs": [
        {
          "internalType": "bytes32",
          "name": "",
          "type": "bytes32"
        }
      ],
      "stateMutability": "view",
      "type": "function"
    },
    {
      "inputs": [
        {
          "internalType": "bytes32",
          "name": "role",
          "type": "bytes32"
        },
        {
          "internalType": "uint256",
          "name": "index",
          "type": "uint256"
        }
      ],
      "name": "getRoleMember",
      "outputs": [
        {
          "internalType": "address",
          "name": "",
          "type": "address"
        }
      ],
      "stateMutability": "view",
      "type": "function"
    },
    {
      "inputs": [
        {
          "internalType": "bytes32",
          "name": "role",
          "type": "bytes32"
        }
      ],
      "name": "getRoleMemberCount",
      "outputs": [
        {
          "internalType": "uint256",
          "name": "",
          "type": "uint256"
        }
      ],
      "stateMutability": "view",
      "type": "function"
    },
    {
      "inputs": [
        {
          "internalType": "bytes32",
          "name": "role",
          "type": "bytes32"
        },
        {
          "internalType": "address",
          "name": "account",
          "type": "address"
        }
      ],
      "name": "grantRole",
      "outputs": [],
      "stateMutability": "nonpayable",
      "type": "function"
    },
    {
      "inputs": [
        {
          "internalType": "bytes32",
          "name": "role",
          "type": "bytes32"
        },
        {
          "internalType": "address",
          "name": "account",
          "type": "address"
        }
      ],
      "name": "hasRole",
      "outputs": [
        {
          "internalType": "bool",
          "name": "",
          "type": "bool"
        }
      ],
      "stateMutability": "view",
      "type": "function"
    },
    {
      "inputs": [
        {
          "internalType": "address",
          "name": "owner",
          "type": "address"
        },
        {
          "internalType": "address",
          "name": "operator",
          "type": "address"
        }
      ],
      "name": "isApprovedForAll",
      "outputs": [
        {
          "internalType": "bool",
          "name": "",
          "type": "bool"
        }
      ],
      "stateMutability": "view",
      "type": "function"
    },
    {
      "inputs": [
        {
          "internalType": "address",
          "name": "addressToCheck",
          "type": "address"
        },
        {
          "internalType": "uint256",
          "name": "badgeTokenID",
          "type": "uint256"
        }
      ],
      "name": "isBadgeSender",
      "outputs": [
        {
          "internalType": "bool",
          "name": "",
          "type": "bool"
        }
      ],
      "stateMutability": "view",
      "type": "function"
    },
    {
      "inputs": [],
      "name": "isForeverLocked",
      "outputs": [
        {
          "internalType": "bool",
          "name": "",
          "type": "bool"
        }
      ],
      "stateMutability": "view",
      "type": "function"
    },
    {
      "inputs": [],
      "name": "jerkSanctions",
      "outputs": [
        {
          "internalType": "bool",
          "name": "",
          "type": "bool"
        }
      ],
      "stateMutability": "view",
      "type": "function"
    },
    {
      "inputs": [],
      "name": "name",
      "outputs": [
        {
          "internalType": "string",
          "name": "",
          "type": "string"
        }
      ],
      "stateMutability": "view",
      "type": "function"
    },
    {
      "inputs": [],
      "name": "nextTokenId",
      "outputs": [
        {
          "internalType": "uint256",
          "name": "_nextTokenId",
          "type": "uint256"
        }
      ],
      "stateMutability": "view",
      "type": "function"
    },
    {
      "inputs": [
        {
          "internalType": "uint256",
          "name": "tokenId",
          "type": "uint256"
        }
      ],
      "name": "ownerOf",
      "outputs": [
        {
          "internalType": "address",
          "name": "",
          "type": "address"
        }
      ],
      "stateMutability": "view",
      "type": "function"
    },
    {
      "inputs": [],
      "name": "pause",
      "outputs": [],
      "stateMutability": "nonpayable",
      "type": "function"
    },
    {
      "inputs": [],
      "name": "paused",
      "outputs": [
        {
          "internalType": "bool",
          "name": "",
          "type": "bool"
        }
      ],
      "stateMutability": "view",
      "type": "function"
    },
    {
      "inputs": [],
      "name": "redPens",
      "outputs": [
        {
          "internalType": "contract ERC20",
          "name": "",
          "type": "address"
        }
      ],
      "stateMutability": "view",
      "type": "function"
    },
    {
      "inputs": [
        {
          "internalType": "bool",
          "name": "thisIsNotReversible",
          "type": "bool"
        }
      ],
      "name": "refreshBadges",
      "outputs": [
        {
          "internalType": "bool",
          "name": "",
          "type": "bool"
        }
      ],
      "stateMutability": "nonpayable",
      "type": "function"
    },
    {
      "inputs": [
        {
          "internalType": "bytes32",
          "name": "role",
          "type": "bytes32"
        },
        {
          "internalType": "address",
          "name": "account",
          "type": "address"
        }
      ],
      "name": "renounceRole",
      "outputs": [],
      "stateMutability": "nonpayable",
      "type": "function"
    },
    {
      "inputs": [],
      "name": "resetVote",
      "outputs": [],
      "stateMutability": "nonpayable",
      "type": "function"
    },
    {
      "inputs": [
        {
          "internalType": "uint256",
          "name": "tokenId",
          "type": "uint256"
        }
      ],
      "name": "revokeBadge",
      "outputs": [],
      "stateMutability": "nonpayable",
      "type": "function"
    },
    {
      "inputs": [
        {
          "internalType": "bytes32",
          "name": "role",
          "type": "bytes32"
        },
        {
          "internalType": "address",
          "name": "account",
          "type": "address"
        }
      ],
      "name": "revokeRole",
      "outputs": [],
      "stateMutability": "nonpayable",
      "type": "function"
    },
    {
      "inputs": [
        {
          "internalType": "address",
          "name": "from",
          "type": "address"
        },
        {
          "internalType": "address",
          "name": "to",
          "type": "address"
        },
        {
          "internalType": "uint256",
          "name": "tokenId",
          "type": "uint256"
        }
      ],
      "name": "safeTransferFrom",
      "outputs": [],
      "stateMutability": "nonpayable",
      "type": "function"
    },
    {
      "inputs": [
        {
          "internalType": "address",
          "name": "from",
          "type": "address"
        },
        {
          "internalType": "address",
          "name": "to",
          "type": "address"
        },
        {
          "internalType": "uint256",
          "name": "tokenId",
          "type": "uint256"
        },
        {
          "internalType": "bytes",
          "name": "_data",
          "type": "bytes"
        }
      ],
      "name": "safeTransferFrom",
      "outputs": [],
      "stateMutability": "nonpayable",
      "type": "function"
    },
    {
      "inputs": [
        {
          "internalType": "address",
          "name": "operator",
          "type": "address"
        },
        {
          "internalType": "bool",
          "name": "approved",
          "type": "bool"
        }
      ],
      "name": "setApprovalForAll",
      "outputs": [],
      "stateMutability": "nonpayable",
      "type": "function"
    },
    {
      "inputs": [
        {
          "internalType": "string",
          "name": "_baseURIString",
          "type": "string"
        }
      ],
      "name": "setBaseURI",
      "outputs": [
        {
          "internalType": "bool",
          "name": "",
          "type": "bool"
        }
      ],
      "stateMutability": "nonpayable",
      "type": "function"
    },
    {
      "inputs": [
        {
          "internalType": "bytes4",
          "name": "interfaceId",
          "type": "bytes4"
        }
      ],
      "name": "supportsInterface",
      "outputs": [
        {
          "internalType": "bool",
          "name": "",
          "type": "bool"
        }
      ],
      "stateMutability": "view",
      "type": "function"
    },
    {
      "inputs": [],
      "name": "symbol",
      "outputs": [
        {
          "internalType": "string",
          "name": "",
          "type": "string"
        }
      ],
      "stateMutability": "view",
      "type": "function"
    },
    {
      "inputs": [],
      "name": "syncAllRoles",
      "outputs": [],
      "stateMutability": "nonpayable",
      "type": "function"
    },
    {
      "inputs": [
        {
          "internalType": "bytes32",
          "name": "ROLE_TO_SYNC",
          "type": "bytes32"
        }
      ],
      "name": "syncSingleRole",
      "outputs": [],
      "stateMutability": "nonpayable",
      "type": "function"
    },
    {
      "inputs": [],
      "name": "syncVotes",
      "outputs": [],
      "stateMutability": "nonpayable",
      "type": "function"
    },
    {
      "inputs": [
        {
          "internalType": "uint256",
          "name": "index",
          "type": "uint256"
        }
      ],
      "name": "tokenByIndex",
      "outputs": [
        {
          "internalType": "uint256",
          "name": "",
          "type": "uint256"
        }
      ],
      "stateMutability": "view",
      "type": "function"
    },
    {
      "inputs": [
        {
          "internalType": "address",
          "name": "owner",
          "type": "address"
        },
        {
          "internalType": "uint256",
          "name": "index",
          "type": "uint256"
        }
      ],
      "name": "tokenOfOwnerByIndex",
      "outputs": [
        {
          "internalType": "uint256",
          "name": "",
          "type": "uint256"
        }
      ],
      "stateMutability": "view",
      "type": "function"
    },
    {
      "inputs": [
        {
          "internalType": "uint256",
          "name": "_tokenId",
          "type": "uint256"
        }
      ],
      "name": "tokenURI",
      "outputs": [
        {
          "internalType": "string",
          "name": "_URI",
          "type": "string"
        }
      ],
      "stateMutability": "view",
      "type": "function"
    },
    {
      "inputs": [],
      "name": "totalSupply",
      "outputs": [
        {
          "internalType": "uint256",
          "name": "",
          "type": "uint256"
        }
      ],
      "stateMutability": "view",
      "type": "function"
    },
    {
      "inputs": [
        {
          "internalType": "address",
          "name": "from",
          "type": "address"
        },
        {
          "internalType": "address",
          "name": "to",
          "type": "address"
        },
        {
          "internalType": "uint256",
          "name": "tokenId",
          "type": "uint256"
        }
      ],
      "name": "transferFrom",
      "outputs": [],
      "stateMutability": "nonpayable",
      "type": "function"
    },
    {
      "inputs": [],
      "name": "unpause",
      "outputs": [],
      "stateMutability": "nonpayable",
      "type": "function"
    },
    {
      "inputs": [],
      "name": "updateAddressManager",
      "outputs": [],
      "stateMutability": "nonpayable",
      "type": "function"
    },
    {
      "inputs": [],
      "name": "updateAllAddresses",
      "outputs": [],
      "stateMutability": "nonpayable",
      "type": "function"
    },
    {
      "inputs": [],
      "name": "updateAllRoles",
      "outputs": [],
      "stateMutability": "nonpayable",
      "type": "function"
    },
    {
      "inputs": [],
      "name": "updateDAOAddresses",
      "outputs": [],
      "stateMutability": "nonpayable",
      "type": "function"
    },
    {
      "inputs": [
        {
          "internalType": "bytes32",
          "name": "ROLE_TO_UPDATE",
          "type": "bytes32"
        }
      ],
      "name": "updateSingleRole",
      "outputs": [],
      "stateMutability": "nonpayable",
      "type": "function"
    },
    {
      "inputs": [],
      "name": "updateTokenAddresses",
      "outputs": [],
      "stateMutability": "nonpayable",
      "type": "function"
    },
    {
      "inputs": [
        {
          "internalType": "uint256",
          "name": "_tokenId",
          "type": "uint256"
        }
      ],
      "name": "payPenalty",
      "outputs": [
        {
          "internalType": "bool",
          "name": "",
          "type": "bool"
        }
      ],
      "stateMutability": "nonpayable",
      "type": "function"
    },
    {
      "inputs": [
        {
          "internalType": "address",
          "name": "receivingAddress",
          "type": "address"
        },
        {
          "internalType": "string",
          "name": "_reason",
          "type": "string"
        }
      ],
      "name": "issueBadge",
      "outputs": [
        {
          "internalType": "uint256",
          "name": "newId",
          "type": "uint256"
        }
      ],
      "stateMutability": "nonpayable",
      "type": "function"
    },
    {
      "inputs": [
        {
          "internalType": "address",
          "name": "receivingAddress",
          "type": "address"
        },
        {
          "internalType": "string",
          "name": "_reason",
          "type": "string"
        },
        {
          "internalType": "uint256",
          "name": "_penalty",
          "type": "uint256"
        }
      ],
      "name": "issueBadge",
      "outputs": [
        {
          "internalType": "uint256",
          "name": "newId",
          "type": "uint256"
        }
      ],
      "stateMutability": "nonpayable",
      "type": "function"
    },
    {
      "inputs": [
        {
          "internalType": "address",
          "name": "receivingAddress",
          "type": "address"
        },
        {
          "internalType": "string",
          "name": "_reason",
          "type": "string"
        },
        {
          "internalType": "string",
          "name": "_tokenURI",
          "type": "string"
        }
      ],
      "name": "issueBadge",
      "outputs": [
        {
          "internalType": "uint256",
          "name": "newId",
          "type": "uint256"
        }
      ],
      "stateMutability": "nonpayable",
      "type": "function"
    },
    {
      "inputs": [],
      "name": "updatePaymentToken",
      "outputs": [],
      "stateMutability": "nonpayable",
      "type": "function"
    }
  ],
  "bytecode": "0x6000805460ff1990811682556011805463ffffffff60a01b19169055601e91909155601f80549091169055636970667360e01b60a0908152601d60f91b60a452602f60f81b60a581905260a6526007608081905260a7604052620000669160229162000c93565b50600554602680546001600160a01b0319166001600160a01b039092169190911790553480156200009657600080fd5b506040516200621a3803806200621a833981016040819052620000b99162000e56565b600380546001600160a01b0383166001600160a01b03199182168117909255601180549091169091179055828282828282620000f4620002bc565b620000fe620002d2565b600f5462000118906000906001600160a01b03166200041d565b600f5462000151907f0538d24a8b7882d7b2e36af243d4af61c23e86e3daa6cb8c887b53220b2f5720906001600160a01b03166200041d565b600c546200018a907f048bc71fa1cb2c119c339cf9cf00a97996a19a9d991ce5fe049f2fa5459e7990906001600160a01b03166200041d565b600d54620001c3907ffa8e4989e1d689f7bc5c4b25b87efb51fecdecb19ba62847e29c759e12a89acd906001600160a01b03166200041d565b601054620001fc907ff0f4b159a6e2a4815eb3ca3df080bfa70c9270662c59bcaa4479a456220183e6906001600160a01b03166200041d565b620002297f7c9d7f6f02908185bffb3f7fc9afb29fd7bf93675af8fd4b655ee05c2cee1e0e60006200041d565b5081516200023f90601290602085019062000c93565b5080516200025590601390602084019062000c93565b50506018805460ff1916905550815162000276906020908185019062000c93565b5082516200028c90602190602086019062000c93565b5050600554602680546001600160a01b0319166001600160a01b039092169190911790555062000f259350505050565b620002c662000460565b620002d062000760565b565b601160009054906101000a90046001600160a01b03166001600160a01b031663ff7e88ec6040518163ffffffff1660e01b815260040160206040518083038186803b1580156200032157600080fd5b505afa15801562000336573d6000803e3d6000fd5b505050506040513d601f19601f820116820180604052508101906200035c919062000e2b565b601160156101000a81548160ff021916908315150217905550601160009054906101000a90046001600160a01b03166001600160a01b0316632fb565856040518163ffffffff1660e01b815260040160206040518083038186803b158015620003c457600080fd5b505afa158015620003d9573d6000803e3d6000fd5b505050506040513d601f19601f82011682018060405250810190620003ff919062000e2b565b60118054911515600160b01b0260ff60b01b19909216919091179055565b62000434828262000b8960201b62001c141760201c565b60008281526002602090815260409091206200045b91839062001c1e62000b99821b17901c565b505050565b601160009054906101000a90046001600160a01b03166001600160a01b031663dadf56ac6040518163ffffffff1660e01b815260040160206040518083038186803b158015620004af57600080fd5b505afa158015620004c4573d6000803e3d6000fd5b505050506040513d601f19601f82011682018060405250810190620004ea919062000e0d565b600c80546001600160a01b0319166001600160a01b039283161790556011546040805163024bebe960e01b81529051919092169163024bebe9916004808301926020929190829003018186803b1580156200054457600080fd5b505afa15801562000559573d6000803e3d6000fd5b505050506040513d601f19601f820116820180604052508101906200057f919062000e0d565b600d80546001600160a01b0319166001600160a01b0392831617905560115460408051635b5c251f60e01b815290519190921691635b5c251f916004808301926020929190829003018186803b158015620005d957600080fd5b505afa158015620005ee573d6000803e3d6000fd5b505050506040513d601f19601f8201168201806040525081019062000614919062000e0d565b600e80546001600160a01b0319166001600160a01b0392831617905560115460408051637310bf1d60e11b81529051919092169163e6217e3a916004808301926020929190829003018186803b1580156200066e57600080fd5b505afa15801562000683573d6000803e3d6000fd5b505050506040513d601f19601f82011682018060405250810190620006a9919062000e0d565b601080546001600160a01b0319166001600160a01b039283161790556011546040805163d88127a160e01b81529051919092169163d88127a1916004808301926020929190829003018186803b1580156200070357600080fd5b505afa15801562000718573d6000803e3d6000fd5b505050506040513d601f19601f820116820180604052508101906200073e919062000e0d565b600b80546001600160a01b0319166001600160a01b0392909216919091179055565b601160009054906101000a90046001600160a01b03166001600160a01b03166321d7f0086040518163ffffffff1660e01b815260040160206040518083038186803b158015620007af57600080fd5b505afa158015620007c4573d6000803e3d6000fd5b505050506040513d601f19601f82011682018060405250810190620007ea919062000e0d565b600480546001600160a01b0319166001600160a01b039283161781556011546040805163762ddb5960e01b81529051919093169263762ddb599281810192602092909190829003018186803b1580156200084357600080fd5b505afa15801562000858573d6000803e3d6000fd5b505050506040513d601f19601f820116820180604052508101906200087e919062000e0d565b600580546001600160a01b0319166001600160a01b039283161790556011546040805163bfb7dc9960e01b81529051919092169163bfb7dc99916004808301926020929190829003018186803b158015620008d857600080fd5b505afa158015620008ed573d6000803e3d6000fd5b505050506040513d601f19601f8201168201806040525081019062000913919062000e0d565b600680546001600160a01b0319166001600160a01b0392831617905560115460408051633e6111eb60e21b81529051919092169163f98447ac916004808301926020929190829003018186803b1580156200096d57600080fd5b505afa15801562000982573d6000803e3d6000fd5b505050506040513d601f19601f82011682018060405250810190620009a8919062000e0d565b600780546001600160a01b0319166001600160a01b0392831617905560115460408051630fe1ba9f60e21b815290519190921691633f86ea7c916004808301926020929190829003018186803b15801562000a0257600080fd5b505afa15801562000a17573d6000803e3d6000fd5b505050506040513d601f19601f8201168201806040525081019062000a3d919062000e0d565b600880546001600160a01b0319166001600160a01b0392831617905560115460408051632b90024160e11b8152905191909216916357200482916004808301926020929190829003018186803b15801562000a9757600080fd5b505afa15801562000aac573d6000803e3d6000fd5b505050506040513d601f19601f8201168201806040525081019062000ad2919062000e0d565b600980546001600160a01b0319166001600160a01b0392831617905560115460408051636b58477560e01b815290519190921691636b584775916004808301926020929190829003018186803b15801562000b2c57600080fd5b505afa15801562000b41573d6000803e3d6000fd5b505050506040513d601f19601f8201168201806040525081019062000b67919062000e0d565b600a80546001600160a01b0319166001600160a01b0392909216919091179055565b62000b95828262000bb9565b5050565b600062000bb0836001600160a01b03841662000c41565b90505b92915050565b60008281526001602090815260408083206001600160a01b038516845290915290205460ff1662000b955760008281526001602081815260408084206001600160a01b0386168086529252808420805460ff19169093179092559051339285917f2f8788117e7eff1d82e926ec794901d17c78024a50270940304540a733656f0d9190a45050565b600081815260018301602052604081205462000c8a5750815460018181018455600084815260208082209093018490558454848252828601909352604090209190915562000bb3565b50600062000bb3565b82805462000ca19062000ed2565b90600052602060002090601f01602090048101928262000cc5576000855562000d10565b82601f1062000ce057805160ff191683800117855562000d10565b8280016001018555821562000d10579182015b8281111562000d1057825182559160200191906001019062000cf3565b5062000d1e92915062000d22565b5090565b5b8082111562000d1e576000815560010162000d23565b80516001600160a01b038116811462000d5157600080fd5b919050565b600082601f83011262000d6857600080fd5b81516001600160401b038082111562000d855762000d8562000f0f565b604051601f8301601f19908116603f0116810190828211818310171562000db05762000db062000f0f565b8160405283815260209250868385880101111562000dcd57600080fd5b600091505b8382101562000df1578582018301518183018401529082019062000dd2565b8382111562000e035760008385830101525b9695505050505050565b60006020828403121562000e2057600080fd5b62000bb08262000d39565b60006020828403121562000e3e57600080fd5b8151801515811462000e4f57600080fd5b9392505050565b60008060006060848603121562000e6c57600080fd5b83516001600160401b038082111562000e8457600080fd5b62000e928783880162000d56565b9450602086015191508082111562000ea957600080fd5b5062000eb88682870162000d56565b92505062000ec96040850162000d39565b90509250925092565b600181811c9082168062000ee757607f821691505b6020821081141562000f0957634e487b7160e01b600052602260045260246000fd5b50919050565b634e487b7160e01b600052604160045260246000fd5b6152e58062000f356000396000f3fe608060405234801561001057600080fd5b50600436106104965760003560e01c806370a0823111610262578063c62b28e811610151578063dea6f9c8116100ce578063f1132b3011610092578063f1132b3014610a26578063f259a29e14610a2e578063f7d92d8614610a36578063f98447ac14610a3e578063f98db25314610a51578063ff7e88ec14610a6457600080fd5b8063dea6f9c8146109d0578063e6217e3a146109d8578063e78c266c146109eb578063e985e9c5146109fe578063e9a5323014610a1157600080fd5b8063d331925411610115578063d331925414610964578063d547741f14610984578063d88127a114610997578063dadf56ac146109aa578063de2cff03146109bd57600080fd5b8063c62b28e814610901578063c87b56dd14610914578063ca15c87314610927578063cce843921461093a578063cf4ece151461094f57600080fd5b806396ac6bf0116101df578063a78e746f116101a3578063a78e746f14610893578063b88d4fde146108a7578063bf796967146108ba578063bfb7dc99146108cd578063c04e17e3146108e057600080fd5b806396ac6bf0146108435780639ac3eaa714610856578063a217fddf14610863578063a22cb4651461086b578063a32c5e591461087e57600080fd5b8063794ccf6c11610226578063794ccf6c146107fa5780638456cb591461080d5780639010d07c1461081557806391d148541461082857806395d89b411461083b57600080fd5b806370a082311461079057806373c89822146107a357806375794a3c146107cc578063762ddb59146107d457806376516078146107e757600080fd5b80633ab76e9f1161038957806359e6f78711610306578063610c3009116102ca578063610c3009146107275780636352211e1461072f57806363ebc6771461074257806367a14f06146107625780636b584775146107755780636c353e341461078857600080fd5b806359e6f787146106db5780635b5c251f146106ee5780635c975abb146107015780635db531a11461070c5780635f4134661461071457600080fd5b80634d84c6d81161034d5780634d84c6d8146106875780634f6ccce71461068f57806355f804b3146106a257806357200482146106b557806357f276ff146106c857600080fd5b80633ab76e9f1461063e5780633f4ba83a146106515780633f86ea7c1461065957806342842e0e1461066c57806349b5e1051461067f57600080fd5b806321d7f008116104175780632f745c59116103db5780632f745c59146105f45780632fb5658514610607578063326a55e01461061b578063329a8cfa1461062357806336568abe1461062b57600080fd5b806321d7f0081461058257806323b872dd146105955780632436329d146105a8578063248a9ca3146105bd5780632f2ff15d146105e157600080fd5b80630ad17f8f1161045e5780630ad17f8f1461052b5780631142c4b01461054c578063130f63201461055f57806317314d5a1461057257806318160ddd1461057a57600080fd5b806301ffc9a71461049b578063024bebe9146104c357806306fdde03146104ee578063081812fc14610503578063095ea7b314610516575b600080fd5b6104ae6104a9366004614d29565b610a78565b60405190151581526020015b60405180910390f35b600d546104d6906001600160a01b031681565b6040516001600160a01b0390911681526020016104ba565b6104f6610a89565b6040516104ba9190614f26565b6104d6610511366004614cc9565b610b1b565b610529610524366004614c63565b610ba8565b005b61053e610539366004614c63565b610cbe565b6040519081526020016104ba565b6104ae61055a366004614cc9565b610cef565b61052961056d366004614cc9565b610d03565b610529610d70565b601c5461053e565b6004546104d6906001600160a01b031681565b6105296105a3366004614a55565b610dd1565b61053e60008051602061521083398151915281565b61053e6105cb366004614cc9565b6000908152600160208190526040909120015490565b6105296105ef366004614ce2565b610e02565b61053e610602366004614c63565b610e24565b6011546104ae90600160b01b900460ff1681565b610529610eba565b610529610eca565b610529610639366004614ce2565b610faa565b6011546104d6906001600160a01b031681565b610529610fcc565b6008546104d6906001600160a01b031681565b61052961067a366004614a55565b61105e565b61052961108f565b610529610ec2565b61053e61069d366004614cc9565b611097565b6104ae6106b0366004614d63565b61112a565b6009546104d6906001600160a01b031681565b6105296106d6366004614cc9565b6111a5565b6104ae6106e9366004614c63565b6111b9565b600e546104d6906001600160a01b031681565b60185460ff166104ae565b6105296111eb565b600f546104d6906001600160a01b031681565b6104f66111f3565b6104d661073d366004614cc9565b611281565b6107556107503660046149e2565b6112f8565b6040516104ba9190614ee2565b6026546104d6906001600160a01b031681565b600a546104d6906001600160a01b031681565b610529611364565b61053e61079e3660046149e2565b611390565b6104d66107b1366004614cc9565b6000908152602360205260409020546001600160a01b031690565b601e5461053e565b6005546104d6906001600160a01b031681565b6104ae6107f5366004614c8f565b611417565b61053e610808366004614b44565b61150e565b610529611595565b6104d6610823366004614d07565b611617565b6104ae610836366004614ce2565b611636565b6104f6611661565b6104ae610851366004614cc9565b611670565b601f546104ae9060ff1681565b61053e600081565b610529610879366004614b16565b61177c565b61053e60008051602061527083398151915281565b6011546104ae90600160a01b900460ff1681565b6105296108b5366004614a96565b6117fa565b61053e6108c8366004614c0a565b611832565b6006546104d6906001600160a01b031681565b6108f36108ee366004614cc9565b6118af565b6040516104ba929190614ebe565b61052961090f366004614cc9565b61195e565b6104f6610922366004614cc9565b6119af565b61053e610935366004614cc9565b6119ba565b61053e60008051602061529083398151915281565b61053e60008051602061525083398151915281565b61053e610972366004614cc9565b60256020526000908152604090205481565b610529610992366004614ce2565b6119d1565b600b546104d6906001600160a01b031681565b600c546104d6906001600160a01b031681565b61053e6109cb366004614b94565b6119db565b6104f6611a60565b6010546104d6906001600160a01b031681565b6003546104d6906001600160a01b031681565b6104ae610a0c366004614a1c565b611a6d565b61053e60008051602061523083398151915281565b610529611ac4565b6104f6611acc565b610529611ad9565b6007546104d6906001600160a01b031681565b6104f6610a5f366004614cc9565b611b79565b6011546104ae90600160a81b900460ff1681565b6000610a8382611c33565b92915050565b606060128054610a98906150fe565b80601f0160208091040260200160405190810160405280929190818152602001828054610ac4906150fe565b8015610b115780601f10610ae657610100808354040283529160200191610b11565b820191906000526020600020905b815481529060010190602001808311610af457829003601f168201915b5050505050905090565b6000610b2682611c58565b610b8c5760405162461bcd60e51b815260206004820152602c60248201527f4552433732313a20617070726f76656420717565727920666f72206e6f6e657860448201526b34b9ba32b73a103a37b5b2b760a11b60648201526084015b60405180910390fd5b506000908152601660205260409020546001600160a01b031690565b6000610bb382611281565b9050806001600160a01b0316836001600160a01b03161415610c215760405162461bcd60e51b815260206004820152602160248201527f4552433732313a20617070726f76616c20746f2063757272656e74206f776e656044820152603960f91b6064820152608401610b83565b336001600160a01b0382161480610c3d5750610c3d8133611a6d565b610caf5760405162461bcd60e51b815260206004820152603860248201527f4552433732313a20617070726f76652063616c6c6572206973206e6f74206f7760448201527f6e6572206e6f7220617070726f76656420666f7220616c6c00000000000000006064820152608401610b83565b610cb98383611c75565b505050565b60246020528160005260406000208181548110610cda57600080fd5b90600052602060002001600091509150505481565b6000610cfa82611c9c565b50600192915050565b610d0d6001611fac565b50610d178161205e565b50610d21816121d9565b50610d2c6000611fac565b610d6d5760405162461bcd60e51b81526020600482015260126024820152711cd8599d195e481b9bdd08199b1a5c1c195960721b6044820152606401610b83565b50565b610d7a6001611fac565b50610d83612362565b50610d8e6000611fac565b610dcf5760405162461bcd60e51b81526020600482015260126024820152711cd8599d195e481b9bdd08199b1a5c1c195960721b6044820152606401610b83565b565b610ddb33826124a8565b610df75760405162461bcd60e51b8152600401610b8390614fbb565b610cb98383836125b3565b610e0c82826125e4565b6000828152600260205260409020610cb99082611c1e565b6000610e2f83611390565b8210610e915760405162461bcd60e51b815260206004820152602b60248201527f455243373231456e756d657261626c653a206f776e657220696e646578206f7560448201526a74206f6620626f756e647360a81b6064820152608401610b83565b506001600160a01b03919091166000908152601a60209081526040808320938352929052205490565b610ec261261e565b610dcf61290a565b610ee260008051602061527083398151915233611636565b80610f005750610f0060008051602061523083398151915233611636565b80610f1e5750610f1e60008051602061521083398151915233611636565b610f3a5760405162461bcd60e51b8152600401610b8390614f39565b601160009054906101000a90046001600160a01b03166001600160a01b031663329a8cfa6040518163ffffffff1660e01b8152600401600060405180830381600087803b158015610f8a57600080fd5b505af1158015610f9e573d6000803e3d6000fd5b50505050610dcf6111eb565b610fb48282612d17565b6000828152600260205260409020610cb99082612d91565b610fe460008051602061523083398151915233611636565b80611002575061100260008051602061527083398151915233611636565b6110465760405162461bcd60e51b8152602060048201526015602482015274596f75277265206e6f742074686520476176656c7360581b6044820152606401610b83565b601f5460ff161561105657600080fd5b610dcf612da6565b61106833826124a8565b6110845760405162461bcd60e51b8152600401610b8390614fbb565b610cb9838383612e39565b610dcf61261e565b60006110a2601c5490565b82106111055760405162461bcd60e51b815260206004820152602c60248201527f455243373231456e756d657261626c653a20676c6f62616c20696e646578206f60448201526b7574206f6620626f756e647360a01b6064820152608401610b83565b601c8281548110611118576111186151aa565b90600052602060002001549050919050565b600061114460008051602061527083398151915233611636565b80611162575061116260008051602061523083398151915233611636565b80611180575061118060008051602061521083398151915233611636565b61119c5760405162461bcd60e51b8152600401610b8390614f39565b610cfa82612e54565b6111af6001611fac565b50610d2181612e6a565b6000818152602360205260408120546001600160a01b03848116911614156111e357506001610a83565b506000610a83565b610dcf6130c5565b60218054611200906150fe565b80601f016020809104026020016040519081016040528092919081815260200182805461122c906150fe565b80156112795780601f1061124e57610100808354040283529160200191611279565b820191906000526020600020905b81548152906001019060200180831161125c57829003601f168201915b505050505081565b6000818152601460205260408120546001600160a01b031680610a835760405162461bcd60e51b815260206004820152602960248201527f4552433732313a206f776e657220717565727920666f72206e6f6e657869737460448201526832b73a103a37b5b2b760b91b6064820152608401610b83565b6001600160a01b03811660009081526024602090815260409182902080548351818402810184019094528084526060939283018282801561135857602002820191906000526020600020905b815481526020019060010190808311611344575b50505050509050919050565b61136c61290a565b600554602680546001600160a01b0319166001600160a01b03909216919091179055565b60006001600160a01b0382166113fb5760405162461bcd60e51b815260206004820152602a60248201527f4552433732313a2062616c616e636520717565727920666f7220746865207a65604482015269726f206164647265737360b01b6064820152608401610b83565b506001600160a01b031660009081526015602052604090205490565b600061143160008051602061523083398151915233611636565b8061144f575061144f60008051602061521083398151915233611636565b8061146d575061146d60008051602061527083398151915233611636565b61147657600080fd5b601154600160b01b810460ff9081161515600160a81b90920416151514600114806114b457506114b460008051602061527083398151915233611636565b6114f35760405162461bcd60e51b815260206004820152601060248201526f436f757274204d75737420416772656560801b6044820152606401610b83565b6001821515141561150657610cfa613208565b506000919050565b600061152860008051602061527083398151915233611636565b80611546575061154660008051602061523083398151915233611636565b80611564575061156460008051602061521083398151915233611636565b6115805760405162461bcd60e51b8152600401610b8390614f39565b600061158d84848361324b565b949350505050565b6115ad60008051602061523083398151915233611636565b806115cb57506115cb60008051602061527083398151915233611636565b61160f5760405162461bcd60e51b8152602060048201526015602482015274596f75277265206e6f742074686520476176656c7360581b6044820152606401610b83565b610dcf6132e0565b600082815260026020526040812061162f908361335b565b9392505050565b60009182526001602090815260408084206001600160a01b0393909316845291905290205460ff1690565b606060138054610a98906150fe565b600061168a60008051602061523083398151915233611636565b806116a857506116a860008051602061521083398151915233611636565b806116c657506116c660008051602061527083398151915233611636565b6116cf57600080fd5b601154600160b01b810460ff9081161515600160a81b909204161515146001148061170d575061170d60008051602061527083398151915233611636565b61174c5760405162461bcd60e51b815260206004820152601060248201526f436f757274204d75737420416772656560801b6044820152606401610b83565b81604514156115065761175d613208565b506117666132e0565b50601f805460ff19166001908117909155919050565b61179460008051602061527083398151915233611636565b806117b257506117b260008051602061523083398151915233611636565b806117d057506117d060008051602061521083398151915233611636565b6117ec5760405162461bcd60e51b8152600401610b8390614fbb565b6117f68282613367565b5050565b61180433836124a8565b6118205760405162461bcd60e51b8152600401610b8390615008565b61182c8484848461342c565b50505050565b600061184c60008051602061527083398151915233611636565b8061186a575061186a60008051602061523083398151915233611636565b80611888575061188860008051602061521083398151915233611636565b6118a45760405162461bcd60e51b8152600401610b8390614f39565b61158d84848461324b565b602360205260009081526040902080546001820180546001600160a01b0390921692916118db906150fe565b80601f0160208091040260200160405190810160405280929190818152602001828054611907906150fe565b80156119545780601f1061192957610100808354040283529160200191611954565b820191906000526020600020905b81548152906001019060200180831161193757829003601f168201915b5050505050905082565b61196833826124a8565b6119a65760405162461bcd60e51b815260206004820152600f60248201526e4e696365205472792c204275636b6f60881b6044820152606401610b83565b610d6d8161345f565b6060610a8382613468565b6000818152600260205260408120610a83906135ca565b610fb482826135d4565b60006119f560008051602061521083398151915233611636565b80611a135750611a1360008051602061527083398151915233611636565b611a555760405162461bcd60e51b8152602060048201526013602482015272596f75277265206e6f7420746865204a75727960681b6044820152606401610b83565b61158d84848461360e565b60208054611200906150fe565b600080611a8860008051602061527083398151915284611636565b80611aa65750611aa660008051602061523083398151915284611636565b8061158d575061158d60008051602061521083398151915284611636565b610dcf61367c565b60228054611200906150fe565b611ae36001611fac565b50611afb600080516020615270833981519152612e6a565b50611b13600080516020615230833981519152612e6a565b50611b2b600080516020615210833981519152612e6a565b50611b43600080516020615250833981519152612e6a565b50611b5b600080516020615290833981519152612e6a565b50611b666000612e6a565b50611b6f6130c5565b610d8e6000611fac565b6000818152602360205260409020600101805460609190611b99906150fe565b80601f0160208091040260200160405190810160405280929190818152602001828054611bc5906150fe565b80156113585780601f10611be757610100808354040283529160200191611358565b820191906000526020600020905b815481529060010190602001808311611bf55750939695505050505050565b6117f682826137b3565b600061162f836001600160a01b03841661381e565b60006001600160e01b0319821663780e9d6360e01b1480610a835750610a8382613865565b6000908152601460205260409020546001600160a01b0316151590565b611c8d60008051602061527083398151915233611636565b156117f6576117f682826138a5565b600081815260256020526040812054819080611cfa5760405162461bcd60e51b815260206004820152601c60248201527f4e6f2070656e616c747920666f72207468697320746f6b656e496421000000006044820152606401610b83565b6026546040516370a0823160e01b815233600482015282916001600160a01b0316906370a082319060240160206040518083038186803b158015611d3d57600080fd5b505afa158015611d51573d6000803e3d6000fd5b505050506040513d601f19601f82011682018060405250810190611d759190614d98565b1015611dc35760405162461bcd60e51b815260206004820152601a60248201527f596f7520446f6e2774204861766520456e6f75676820215265640000000000006044820152606401610b83565b6026546040516370a0823160e01b815230600482015282916001600160a01b0316906370a082319060240160206040518083038186803b158015611e0657600080fd5b505afa158015611e1a573d6000803e3d6000fd5b505050506040513d601f19601f82011682018060405250810190611e3e9190614d98565b611e489190615059565b6026546040516323b872dd60e01b8152336004820152306024820152604481018490529193506001600160a01b0316906323b872dd90606401602060405180830381600087803b158015611e9b57600080fd5b505af1158015611eaf573d6000803e3d6000fd5b505050506040513d601f19601f82011682018060405250810190611ed39190614cac565b506026546040516370a0823160e01b815230600482015283916001600160a01b0316906370a082319060240160206040518083038186803b158015611f1757600080fd5b505afa158015611f2b573d6000803e3d6000fd5b505050506040513d601f19601f82011682018060405250810190611f4f9190614d98565b14611f955760405162461bcd60e51b8152602060048201526016602482015275115c9c9bdc88151c985b9cd9995c9a5b99c80854915160521b6044820152606401610b83565b505050600090815260256020526040812055600190565b6000805460ff1682151581151514156120075760405162461bcd60e51b815260206004820152601960248201527f416c72656164792053657420746f20746861742076616c7565000000000000006044820152606401610b83565b6000805484151560ff19909116811790915560ff1615158115151415610cfa5760405162461bcd60e51b815260206004820152600c60248201526b29b0b33a32bc9022b93937b960a11b6044820152606401610b83565b60405163ca15c87360e01b8152600481018290526000908190309063ca15c8739060240160206040518083038186803b15801561209a57600080fd5b505afa1580156120ae573d6000803e3d6000fd5b505050506040513d601f19601f820116820180604052508101906120d29190614d98565b905060005b818110156121cf57604051632404341f60e21b815260048101859052602481018290526000903090639010d07c9060440160206040518083038186803b15801561212057600080fd5b505afa158015612134573d6000803e3d6000fd5b505050506040513d601f19601f8201168201806040525081019061215891906149ff565b60405163d547741f60e01b8152600481018790526001600160a01b0382166024820152909150309063d547741f90604401600060405180830381600087803b1580156121a357600080fd5b505af11580156121b7573d6000803e3d6000fd5b505050505080806121c790615139565b9150506120d7565b5060019392505050565b60115460405163ca15c87360e01b81526004810183905260009182916001600160a01b039091169063ca15c8739060240160206040518083038186803b15801561222257600080fd5b505afa158015612236573d6000803e3d6000fd5b505050506040513d601f19601f8201168201806040525081019061225a9190614d98565b905060005b818110156121cf57601154604051632404341f60e21b815260048101869052602481018390526000916001600160a01b031690639010d07c9060440160206040518083038186803b1580156122b357600080fd5b505afa1580156122c7573d6000803e3d6000fd5b505050506040513d601f19601f820116820180604052508101906122eb91906149ff565b604051632f2ff15d60e01b8152600481018790526001600160a01b03821660248201529091503090632f2ff15d90604401600060405180830381600087803b15801561233657600080fd5b505af115801561234a573d6000803e3d6000fd5b5050505050808061235a90615139565b91505061225f565b600061237b60008051602061527083398151915261205e565b506123936000805160206152708339815191526121d9565b61239c57600080fd5b6123b360008051602061523083398151915261205e565b506123cb6000805160206152308339815191526121d9565b6123d457600080fd5b6123eb60008051602061521083398151915261205e565b506124036000805160206152108339815191526121d9565b61240c57600080fd5b61242360008051602061525083398151915261205e565b5061243b6000805160206152508339815191526121d9565b61244457600080fd5b61245b60008051602061529083398151915261205e565b506124736000805160206152908339815191526121d9565b61247c57600080fd5b612486600061205e565b5061249160006121d9565b61249a57600080fd5b6124a26130c5565b50600190565b60006124b382611c58565b6125145760405162461bcd60e51b815260206004820152602c60248201527f4552433732313a206f70657261746f7220717565727920666f72206e6f6e657860448201526b34b9ba32b73a103a37b5b2b760a11b6064820152608401610b83565b600061251f83611281565b9050806001600160a01b0316846001600160a01b031614156125a157600083815260256020526040902054156125975760405162461bcd60e51b815260206004820152601760248201527f506c656173652050617920596f75722050656e616c74790000000000000000006044820152606401610b83565b6001915050610a83565b6125ab8185611a6d565b915050610a83565b6125bd33826124a8565b6125d95760405162461bcd60e51b8152600401610b8390615008565b610cb9838383613913565b600082815260016020819052604082200154905460ff161561260a57610cb983836137b3565b6126148133613abe565b610cb983836137b3565b601160009054906101000a90046001600160a01b03166001600160a01b031663dadf56ac6040518163ffffffff1660e01b815260040160206040518083038186803b15801561266c57600080fd5b505afa158015612680573d6000803e3d6000fd5b505050506040513d601f19601f820116820180604052508101906126a491906149ff565b600c80546001600160a01b0319166001600160a01b039283161790556011546040805163024bebe960e01b81529051919092169163024bebe9916004808301926020929190829003018186803b1580156126fd57600080fd5b505afa158015612711573d6000803e3d6000fd5b505050506040513d601f19601f8201168201806040525081019061273591906149ff565b600d80546001600160a01b0319166001600160a01b0392831617905560115460408051635b5c251f60e01b815290519190921691635b5c251f916004808301926020929190829003018186803b15801561278e57600080fd5b505afa1580156127a2573d6000803e3d6000fd5b505050506040513d601f19601f820116820180604052508101906127c691906149ff565b600e80546001600160a01b0319166001600160a01b0392831617905560115460408051637310bf1d60e11b81529051919092169163e6217e3a916004808301926020929190829003018186803b15801561281f57600080fd5b505afa158015612833573d6000803e3d6000fd5b505050506040513d601f19601f8201168201806040525081019061285791906149ff565b601080546001600160a01b0319166001600160a01b039283161790556011546040805163d88127a160e01b81529051919092169163d88127a1916004808301926020929190829003018186803b1580156128b057600080fd5b505afa1580156128c4573d6000803e3d6000fd5b505050506040513d601f19601f820116820180604052508101906128e891906149ff565b600b80546001600160a01b0319166001600160a01b0392909216919091179055565b601160009054906101000a90046001600160a01b03166001600160a01b03166321d7f0086040518163ffffffff1660e01b815260040160206040518083038186803b15801561295857600080fd5b505afa15801561296c573d6000803e3d6000fd5b505050506040513d601f19601f8201168201806040525081019061299091906149ff565b600480546001600160a01b0319166001600160a01b039283161781556011546040805163762ddb5960e01b81529051919093169263762ddb599281810192602092909190829003018186803b1580156129e857600080fd5b505afa1580156129fc573d6000803e3d6000fd5b505050506040513d601f19601f82011682018060405250810190612a2091906149ff565b600580546001600160a01b0319166001600160a01b039283161790556011546040805163bfb7dc9960e01b81529051919092169163bfb7dc99916004808301926020929190829003018186803b158015612a7957600080fd5b505afa158015612a8d573d6000803e3d6000fd5b505050506040513d601f19601f82011682018060405250810190612ab191906149ff565b600680546001600160a01b0319166001600160a01b0392831617905560115460408051633e6111eb60e21b81529051919092169163f98447ac916004808301926020929190829003018186803b158015612b0a57600080fd5b505afa158015612b1e573d6000803e3d6000fd5b505050506040513d601f19601f82011682018060405250810190612b4291906149ff565b600780546001600160a01b0319166001600160a01b0392831617905560115460408051630fe1ba9f60e21b815290519190921691633f86ea7c916004808301926020929190829003018186803b158015612b9b57600080fd5b505afa158015612baf573d6000803e3d6000fd5b505050506040513d601f19601f82011682018060405250810190612bd391906149ff565b600880546001600160a01b0319166001600160a01b0392831617905560115460408051632b90024160e11b8152905191909216916357200482916004808301926020929190829003018186803b158015612c2c57600080fd5b505afa158015612c40573d6000803e3d6000fd5b505050506040513d601f19601f82011682018060405250810190612c6491906149ff565b600980546001600160a01b0319166001600160a01b0392831617905560115460408051636b58477560e01b815290519190921691636b584775916004808301926020929190829003018186803b158015612cbd57600080fd5b505afa158015612cd1573d6000803e3d6000fd5b505050506040513d601f19601f82011682018060405250810190612cf591906149ff565b600a80546001600160a01b0319166001600160a01b0392909216919091179055565b6001600160a01b0381163314612d875760405162461bcd60e51b815260206004820152602f60248201527f416363657373436f6e74726f6c3a2063616e206f6e6c792072656e6f756e636560448201526e103937b632b9903337b91039b2b63360891b6064820152608401610b83565b6117f68282613b22565b600061162f836001600160a01b038416613b89565b60185460ff16612def5760405162461bcd60e51b815260206004820152601460248201527314185d5cd8589b194e881b9bdd081c185d5cd95960621b6044820152606401610b83565b6018805460ff191690557f5db9ee0a495bf2e6ff9c91a7834c1ba4fdd244a5e8aa4e537bd38aeae4b073aa335b6040516001600160a01b03909116815260200160405180910390a1565b610cb9838383604051806020016040528060008152506117fa565b8051600090610cfa90602290602085019061487d565b60115460405163ca15c87360e01b81526004810183905260009182916001600160a01b039091169063ca15c8739060240160206040518083038186803b158015612eb357600080fd5b505afa158015612ec7573d6000803e3d6000fd5b505050506040513d601f19601f82011682018060405250810190612eeb9190614d98565b60405163ca15c87360e01b815260048101859052909150600090309063ca15c8739060240160206040518083038186803b158015612f2857600080fd5b505afa158015612f3c573d6000803e3d6000fd5b505050506040513d601f19601f82011682018060405250810190612f609190614d98565b90506000612f6e82846150a4565b905060008111612fb35760405162461bcd60e51b815260206004820152601060248201526f4e6f7468696e6720746f2073796e632160801b6044820152606401610b83565b60005b818110156130b957601154604051632404341f60e21b815260048101889052602481018390526000916001600160a01b031690639010d07c9060440160206040518083038186803b15801561300a57600080fd5b505afa15801561301e573d6000803e3d6000fd5b505050506040513d601f19601f8201168201806040525081019061304291906149ff565b604051632f2ff15d60e01b8152600481018990526001600160a01b03821660248201529091503090632f2ff15d90604401600060405180830381600087803b15801561308d57600080fd5b505af11580156130a1573d6000803e3d6000fd5b505050505080806130b190615139565b915050612fb6565b50600195945050505050565b601160009054906101000a90046001600160a01b03166001600160a01b031663ff7e88ec6040518163ffffffff1660e01b815260040160206040518083038186803b15801561311357600080fd5b505afa158015613127573d6000803e3d6000fd5b505050506040513d601f19601f8201168201806040525081019061314b9190614cac565b601160156101000a81548160ff021916908315150217905550601160009054906101000a90046001600160a01b03166001600160a01b0316632fb565856040518163ffffffff1660e01b815260040160206040518083038186803b1580156131b257600080fd5b505afa1580156131c6573d6000803e3d6000fd5b505050506040513d601f19601f820116820180604052508101906131ea9190614cac565b60118054911515600160b01b0260ff60b01b19909216919091179055565b6000805b601e5481101561323f5761321f81611c58565b1561322d5761322d8161345f565b8061323781615139565b91505061320c565b50506000601e55600190565b600061326560008051602061527083398151915233611636565b80613283575061328360008051602061523083398151915233611636565b806132a157506132a160008051602061521083398151915233611636565b6132bd5760405162461bcd60e51b8152600401610b8390614f39565b6132c78484613c76565b6000818152602560205260409020929092555092915050565b60185460ff16156133265760405162461bcd60e51b815260206004820152601060248201526f14185d5cd8589b194e881c185d5cd95960821b6044820152606401610b83565b6018805460ff191660011790557f62e78cea01bee320cd4e420270b5ea74000d11b0c9f74754ebdbfc544b05a258612e1c3390565b600061162f8383613cfa565b6001600160a01b0382163314156133c05760405162461bcd60e51b815260206004820152601960248201527f4552433732313a20617070726f766520746f2063616c6c6572000000000000006044820152606401610b83565b3360008181526017602090815260408083206001600160a01b03871680855290835292819020805460ff191686151590811790915590519081529192917f17307eab39ab6107e8899845ad3d59bd9653f200f220920489ca2b5937696c31910160405180910390a35050565b613437848484613913565b61344384848484613d80565b61182c5760405162461bcd60e51b8152600401610b8390614f69565b610d6d81613e8d565b606061347382611c58565b6134d95760405162461bcd60e51b815260206004820152603160248201527f45524337323155524953746f726167653a2055524920717565727920666f72206044820152703737b732bc34b9ba32b73a103a37b5b2b760791b6064820152608401610b83565b600082815260196020526040812080546134f2906150fe565b80601f016020809104026020016040519081016040528092919081815260200182805461351e906150fe565b801561356b5780601f106135405761010080835404028352916020019161356b565b820191906000526020600020905b81548152906001019060200180831161354e57829003601f168201915b50505050509050600061357c613ecd565b905080516000141561358f575092915050565b8151156135c15780826040516020016135a9929190614ddd565b60405160208183030381529060405292505050919050565b61158d84613edc565b6000610a83825490565b600082815260016020819052604082200154905460ff16156135fa57610cb98383613b22565b6136048133613abe565b610cb98383613b22565b60006001600160a01b038416331480159061363157506001600160a01b03841615155b61363a57600080fd5b50601e54613649338483613fa6565b6136538482614015565b61365d818361402f565b6001601e60008282546136709190615059565b90915550509392505050565b601160009054906101000a90046001600160a01b03166001600160a01b031663a44b93256040518163ffffffff1660e01b815260040160206040518083038186803b1580156136ca57600080fd5b505afa1580156136de573d6000803e3d6000fd5b505050506040513d601f19601f820116820180604052508101906137029190614cac565b61370b57600080fd5b601160009054906101000a90046001600160a01b03166001600160a01b031663ac7cfac36040518163ffffffff1660e01b815260040160206040518083038186803b15801561375957600080fd5b505afa15801561376d573d6000803e3d6000fd5b505050506040513d601f19601f8201168201806040525081019061379191906149ff565b600380546001600160a01b0319166001600160a01b0392909216919091179055565b6137bd8282611636565b6117f65760008281526001602081815260408084206001600160a01b0386168086529252808420805460ff19169093179092559051339285917f2f8788117e7eff1d82e926ec794901d17c78024a50270940304540a733656f0d9190a45050565b60008181526001830160205260408120546111e357508154600181810184556000848152602080822090930184905584548482528286019093526040902091909155610a83565b60006001600160e01b031982166380ac58cd60e01b148061389657506001600160e01b03198216635b5e139f60e01b145b80610a835750610a83826140ba565b600081815260166020526040902080546001600160a01b0319166001600160a01b03841690811790915581906138da82611281565b6001600160a01b03167f8c5be1e5ebec7d5bd14f71427d1e84f3dd0314c0f7b2291e5b200ac8c7c3b92560405160405180910390a45050565b826001600160a01b031661392682611281565b6001600160a01b03161461398e5760405162461bcd60e51b815260206004820152602960248201527f4552433732313a207472616e73666572206f6620746f6b656e2074686174206960448201526839903737ba1037bbb760b91b6064820152608401610b83565b6001600160a01b0382166139f05760405162461bcd60e51b8152602060048201526024808201527f4552433732313a207472616e7366657220746f20746865207a65726f206164646044820152637265737360e01b6064820152608401610b83565b6139fb8383836140df565b613a06600082611c75565b6001600160a01b0383166000908152601560205260408120805460019290613a2f9084906150a4565b90915550506001600160a01b0382166000908152601560205260408120805460019290613a5d908490615059565b909155505060008181526014602052604080822080546001600160a01b0319166001600160a01b0386811691821790925591518493918716917fddf252ad1be2c89b69c2b068fc378daa952ba7f163c4a11628f55a4df523b3ef91a4505050565b613ac88282611636565b6117f657613ae0816001600160a01b031660146140ea565b613aeb8360206140ea565b604051602001613afc929190614e0c565b60408051601f198184030181529082905262461bcd60e51b8252610b8391600401614f26565b613b2c8282611636565b156117f65760008281526001602090815260408083206001600160a01b0385168085529252808320805460ff1916905551339285917ff6391f5c32d9c69d2a47ea670b442974b53935d1edc7fd64eb21e047a839171b9190a45050565b60008181526001830160205260408120548015613c6c576000613bad6001836150a4565b8554909150600090613bc1906001906150a4565b90506000866000018281548110613bda57613bda6151aa565b9060005260206000200154905080876000018481548110613bfd57613bfd6151aa565b600091825260208083209091019290925582815260018901909152604090208490558654879080613c3057613c30615194565b60019003818190600052602060002001600090559055866001016000878152602001908152602001600020600090556001945050505050610a83565b6000915050610a83565b6000613c9060008051602061521083398151915233611636565b80613cae5750613cae60008051602061527083398151915233611636565b613cf05760405162461bcd60e51b8152602060048201526013602482015272596f75277265206e6f7420746865204a75727960681b6044820152606401610b83565b61162f8383614286565b81546000908210613d585760405162461bcd60e51b815260206004820152602260248201527f456e756d657261626c655365743a20696e646578206f7574206f6620626f756e604482015261647360f01b6064820152608401610b83565b826000018281548110613d6d57613d6d6151aa565b9060005260206000200154905092915050565b60006001600160a01b0384163b15613e8257604051630a85bd0160e11b81526001600160a01b0385169063150b7a0290613dc4903390899088908890600401614e81565b602060405180830381600087803b158015613dde57600080fd5b505af1925050508015613e0e575060408051601f3d908101601f19168201909252613e0b91810190614d46565b60015b613e68573d808015613e3c576040519150601f19603f3d011682016040523d82523d6000602084013e613e41565b606091505b508051613e605760405162461bcd60e51b8152600401610b8390614f69565b805181602001fd5b6001600160e01b031916630a85bd0160e11b14905061158d565b506001949350505050565b613e96816142e9565b60008181526019602052604090208054613eaf906150fe565b159050610d6d576000818152601960205260408120610d6d91614901565b606060228054610a98906150fe565b6060613ee782611c58565b613f4b5760405162461bcd60e51b815260206004820152602f60248201527f4552433732314d657461646174613a2055524920717565727920666f72206e6f60448201526e3732bc34b9ba32b73a103a37b5b2b760891b6064820152608401610b83565b6000613f55613ecd565b90506000815111613f75576040518060200160405280600081525061162f565b80613f7f84614390565b604051602001613f90929190614ddd565b6040516020818303038152906040529392505050565b600081815260236020908152604090912080546001600160a01b0319166001600160a01b0386161781558351613fe49260019092019185019061487d565b506001600160a01b039092166000908152602460209081526040822080546001810182559083529120019190915550565b6117f682826040518060200160405280600081525061448e565b61403882611c58565b61409b5760405162461bcd60e51b815260206004820152602e60248201527f45524337323155524953746f726167653a2055524920736574206f66206e6f6e60448201526d32bc34b9ba32b73a103a37b5b2b760911b6064820152608401610b83565b60008281526019602090815260409091208251610cb99284019061487d565b60006001600160e01b03198216635a05180f60e01b1480610a835750610a83826144c1565b610cb98383836144f6565b606060006140f9836002615085565b614104906002615059565b67ffffffffffffffff81111561411c5761411c6151c0565b6040519080825280601f01601f191660200182016040528015614146576020820181803683370190505b509050600360fc1b81600081518110614161576141616151aa565b60200101906001600160f81b031916908160001a905350600f60fb1b81600181518110614190576141906151aa565b60200101906001600160f81b031916908160001a90535060006141b4846002615085565b6141bf906001615059565b90505b6001811115614237576f181899199a1a9b1b9c1cb0b131b232b360811b85600f16601081106141f3576141f36151aa565b1a60f81b828281518110614209576142096151aa565b60200101906001600160f81b031916908160001a90535060049490941c93614230816150e7565b90506141c2565b50831561162f5760405162461bcd60e51b815260206004820181905260248201527f537472696e67733a20686578206c656e67746820696e73756666696369656e746044820152606401610b83565b60006001600160a01b03831633148015906142a957506001600160a01b03831615155b6142b257600080fd5b50601e546142c1338383613fa6565b6142cb8382614015565b6001601e60008282546142de9190615059565b909155505092915050565b60006142f482611281565b9050614302816000846140df565b61430d600083611c75565b6001600160a01b03811660009081526015602052604081208054600192906143369084906150a4565b909155505060008281526014602052604080822080546001600160a01b0319169055518391906001600160a01b038416907fddf252ad1be2c89b69c2b068fc378daa952ba7f163c4a11628f55a4df523b3ef908390a45050565b6060816143b45750506040805180820190915260018152600360fc1b602082015290565b8160005b81156143de57806143c881615139565b91506143d79050600a83615071565b91506143b8565b60008167ffffffffffffffff8111156143f9576143f96151c0565b6040519080825280601f01601f191660200182016040528015614423576020820181803683370190505b5090505b841561158d576144386001836150a4565b9150614445600a86615154565b614450906030615059565b60f81b818381518110614465576144656151aa565b60200101906001600160f81b031916908160001a905350614487600a86615071565b9450614427565b61449883836145ae565b6144a56000848484613d80565b610cb95760405162461bcd60e51b8152600401610b8390614f69565b60006001600160e01b03198216637965db0b60e01b1480610a8357506301ffc9a760e01b6001600160e01b0319831614610a83565b6001600160a01b0383166145515761454c81601c80546000838152601d60205260408120829055600182018355919091527f0e4562a10381dec21b205ed72637e6b1b523bdd0e4d4d50af5cd23dd4500a2110155565b614574565b816001600160a01b0316836001600160a01b0316146145745761457483826146ed565b6001600160a01b03821661458b57610cb98161478a565b826001600160a01b0316826001600160a01b031614610cb957610cb98282614839565b6001600160a01b0382166146045760405162461bcd60e51b815260206004820181905260248201527f4552433732313a206d696e7420746f20746865207a65726f20616464726573736044820152606401610b83565b61460d81611c58565b1561465a5760405162461bcd60e51b815260206004820152601c60248201527f4552433732313a20746f6b656e20616c7265616479206d696e746564000000006044820152606401610b83565b614666600083836140df565b6001600160a01b038216600090815260156020526040812080546001929061468f908490615059565b909155505060008181526014602052604080822080546001600160a01b0319166001600160a01b03861690811790915590518392907fddf252ad1be2c89b69c2b068fc378daa952ba7f163c4a11628f55a4df523b3ef908290a45050565b600060016146fa84611390565b61470491906150a4565b6000838152601b6020526040902054909150808214614757576001600160a01b0384166000908152601a602090815260408083208584528252808320548484528184208190558352601b90915290208190555b506000918252601b602090815260408084208490556001600160a01b039094168352601a81528383209183525290812055565b601c5460009061479c906001906150a4565b6000838152601d6020526040812054601c80549394509092849081106147c4576147c46151aa565b9060005260206000200154905080601c83815481106147e5576147e56151aa565b6000918252602080832090910192909255828152601d9091526040808220849055858252812055601c80548061481d5761481d615194565b6001900381819060005260206000200160009055905550505050565b600061484483611390565b6001600160a01b039093166000908152601a602090815260408083208684528252808320859055938252601b9052919091209190915550565b828054614889906150fe565b90600052602060002090601f0160209004810192826148ab57600085556148f1565b82601f106148c457805160ff19168380011785556148f1565b828001600101855582156148f1579182015b828111156148f15782518255916020019190600101906148d6565b506148fd929150614937565b5090565b50805461490d906150fe565b6000825580601f1061491d575050565b601f016020900490600052602060002090810190610d6d91905b5b808211156148fd5760008155600101614938565b600067ffffffffffffffff80841115614967576149676151c0565b604051601f8501601f19908116603f0116810190828211818310171561498f5761498f6151c0565b816040528093508581528686860111156149a857600080fd5b858560208301376000602087830101525050509392505050565b600082601f8301126149d357600080fd5b61162f8383356020850161494c565b6000602082840312156149f457600080fd5b813561162f816151d6565b600060208284031215614a1157600080fd5b815161162f816151d6565b60008060408385031215614a2f57600080fd5b8235614a3a816151d6565b91506020830135614a4a816151d6565b809150509250929050565b600080600060608486031215614a6a57600080fd5b8335614a75816151d6565b92506020840135614a85816151d6565b929592945050506040919091013590565b60008060008060808587031215614aac57600080fd5b8435614ab7816151d6565b93506020850135614ac7816151d6565b925060408501359150606085013567ffffffffffffffff811115614aea57600080fd5b8501601f81018713614afb57600080fd5b614b0a8782356020840161494c565b91505092959194509250565b60008060408385031215614b2957600080fd5b8235614b34816151d6565b91506020830135614a4a816151eb565b60008060408385031215614b5757600080fd5b8235614b62816151d6565b9150602083013567ffffffffffffffff811115614b7e57600080fd5b614b8a858286016149c2565b9150509250929050565b600080600060608486031215614ba957600080fd5b8335614bb4816151d6565b9250602084013567ffffffffffffffff80821115614bd157600080fd5b614bdd878388016149c2565b93506040860135915080821115614bf357600080fd5b50614c00868287016149c2565b9150509250925092565b600080600060608486031215614c1f57600080fd5b8335614c2a816151d6565b9250602084013567ffffffffffffffff811115614c4657600080fd5b614c52868287016149c2565b925050604084013590509250925092565b60008060408385031215614c7657600080fd5b8235614c81816151d6565b946020939093013593505050565b600060208284031215614ca157600080fd5b813561162f816151eb565b600060208284031215614cbe57600080fd5b815161162f816151eb565b600060208284031215614cdb57600080fd5b5035919050565b60008060408385031215614cf557600080fd5b823591506020830135614a4a816151d6565b60008060408385031215614d1a57600080fd5b50508035926020909101359150565b600060208284031215614d3b57600080fd5b813561162f816151f9565b600060208284031215614d5857600080fd5b815161162f816151f9565b600060208284031215614d7557600080fd5b813567ffffffffffffffff811115614d8c57600080fd5b61158d848285016149c2565b600060208284031215614daa57600080fd5b5051919050565b60008151808452614dc98160208601602086016150bb565b601f01601f19169290920160200192915050565b60008351614def8184602088016150bb565b835190830190614e038183602088016150bb565b01949350505050565b7f416363657373436f6e74726f6c3a206163636f756e7420000000000000000000815260008351614e448160178501602088016150bb565b7001034b99036b4b9b9b4b733903937b6329607d1b6017918401918201528351614e758160288401602088016150bb565b01602801949350505050565b6001600160a01b0385811682528416602082015260408101839052608060608201819052600090614eb490830184614db1565b9695505050505050565b6001600160a01b038316815260406020820181905260009061158d90830184614db1565b6020808252825182820181905260009190848201906040850190845b81811015614f1a57835183529284019291840191600101614efe565b50909695505050505050565b60208152600061162f6020830184614db1565b6020808252601690820152752cb7ba93b932903737ba103a3432903130b4b634b33360511b604082015260600190565b60208082526032908201527f4552433732313a207472616e7366657220746f206e6f6e20455243373231526560408201527131b2b4bb32b91034b6b83632b6b2b73a32b960711b606082015260800190565b6020808252602d908201527f596f7520646f206e6f742068617665207065726d697373696f6e20746f206d6f60408201526c7665207468697320626164676560981b606082015260800190565b60208082526031908201527f4552433732313a207472616e736665722063616c6c6572206973206e6f74206f6040820152701ddb995c881b9bdc88185c1c1c9bdd9959607a1b606082015260800190565b6000821982111561506c5761506c615168565b500190565b6000826150805761508061517e565b500490565b600081600019048311821515161561509f5761509f615168565b500290565b6000828210156150b6576150b6615168565b500390565b60005b838110156150d65781810151838201526020016150be565b8381111561182c5750506000910152565b6000816150f6576150f6615168565b506000190190565b600181811c9082168061511257607f821691505b6020821081141561513357634e487b7160e01b600052602260045260246000fd5b50919050565b600060001982141561514d5761514d615168565b5060010190565b6000826151635761516361517e565b500690565b634e487b7160e01b600052601160045260246000fd5b634e487b7160e01b600052601260045260246000fd5b634e487b7160e01b600052603160045260246000fd5b634e487b7160e01b600052603260045260246000fd5b634e487b7160e01b600052604160045260246000fd5b6001600160a01b0381168114610d6d57600080fd5b8015158114610d6d57600080fd5b6001600160e01b031981168114610d6d57600080fdfefa8e4989e1d689f7bc5c4b25b87efb51fecdecb19ba62847e29c759e12a89acd048bc71fa1cb2c119c339cf9cf00a97996a19a9d991ce5fe049f2fa5459e7990f0f4b159a6e2a4815eb3ca3df080bfa70c9270662c59bcaa4479a456220183e60538d24a8b7882d7b2e36af243d4af61c23e86e3daa6cb8c887b53220b2f57207c9d7f6f02908185bffb3f7fc9afb29fd7bf93675af8fd4b655ee05c2cee1e0ea264697066735822122066bbc53cb2ad203856dcbe8e13e48fa06ebb02717747bc7823110274630addc464736f6c63430008070033",
  "immutableReferences": {},
  "source": "// SPDX-License-Identifier: MIT\n\npragma solidity ^0.8.0;\n\nimport \"@openzeppelin/contracts/token/ERC20/ERC20.sol\";\n\nimport \"./GenericBadge.sol\";\n\n\ncontract PenaltyBadge is GenericBadge {\n\n    mapping (uint => uint) public Penalty;\n\n    ERC20 public redPens = ERC20(RedPenTokenAddress);\n \n    constructor(string memory _badgeName, string memory _badgeSymbol, address _AddressManagerAddress)\n        GenericBadge(_badgeName, _badgeSymbol, _AddressManagerAddress)\n    {\n        redPens = ERC20(RedPenTokenAddress);\n    }      \n\n    function payPenalty(uint _tokenId) public virtual returns (bool) {\n       \n        _payPenalty(_tokenId);\n\n        return true;\n    }\n\n    function _payPenalty(uint _tokenId) internal virtual returns (bool) {\n        uint256 expectedContractBalance;\n        uint256 penaltyCost = Penalty[_tokenId];\n    \n        require (penaltyCost > 0, \"No penalty for this tokenId!\");\n        \n        require(redPens.balanceOf(msg.sender) >= penaltyCost, \"You Don't Have Enough !Red\");\n        expectedContractBalance = redPens.balanceOf(address(this)) + penaltyCost;\n        redPens.transferFrom(msg.sender, address(this), penaltyCost);\n        require(redPens.balanceOf(address(this)) == expectedContractBalance, \"Error Transfering !RED\");\n        Penalty[_tokenId] = 0;\n        return true;\n    }\n\n    function issueBadge(address receivingAddress, string memory _reason) public virtual override\n        BAILIFF \n        returns(uint newId) {\n            uint _penalty = 0;\n            newId = _issueBadge(receivingAddress, _reason, _penalty);\n            return newId;\n    }\n\n    function issueBadge(address receivingAddress, string memory _reason, uint _penalty) public virtual\n        BAILIFF \n        returns(uint newId) {\n            newId = _issueBadge(receivingAddress, _reason, _penalty);\n            return newId;\n    }\n\n    function _issueBadge(address receivingAddress, string memory _reason, uint _penalty) internal virtual\n        BAILIFF \n        returns(uint newId) {\n            newId = super.issueBadge(receivingAddress, _reason);\n            Penalty[newId] = _penalty;\n    }\n\n     /////////////////////////////////////////////////////////////////////////////////////////////////\n    /////////////////////////////////////////////////////////////////////////////////////////////////\n    /// @dev                                                                                     ////\n    /// Update Payment Token                                                                      ////\n    /////////////////////////////////////////////////////////////////////////////////////////////////\n    /////////////////////////////////////////////////////////////////////////////////////////////////\n\n\n    function updatePaymentToken() public {\n        _updateTokenAddresses();\n        redPens = ERC20(RedPenTokenAddress);\n    }\n\n     /////////////////////////////////////////////////////////////////////////////////////////////////\n    /////////////////////////////////////////////////////////////////////////////////////////////////\n    /// @dev                                                                                     ////\n    /// Transfer rules                                                                           ////\n    /////////////////////////////////////////////////////////////////////////////////////////////////\n    /////////////////////////////////////////////////////////////////////////////////////////////////\n\n\n    function _isApprovedOrOwner(address spender, uint256 tokenId)\n        internal view virtual\n        override(GenericBadge)\n        returns (bool)\n    {\n        require(_exists(tokenId), \"ERC721: operator query for nonexistent token\");\n        \n        address owner = ownerOf(tokenId);\n       \n        if (spender == owner) {\n            require (Penalty[tokenId] == 0, \"Please Pay Your Penalty\");\n            return true;\n        } else {\n            return (isApprovedForAll(owner, spender));\n        }\n    }\n        \n}",
  "sourcePath": "/home/n/Desktop/PinkSlips_FrontEnd_REFORMAT/contracts/src/ERC721/PenaltyBadge.sol",
  "compiler": {
    "name": "solc",
    "version": "0.8.7+commit.e28d00a7.Emscripten.clang"
  },
  "schemaVersion": "3.4.1",
  "updatedAt": "2021-08-19T03:42:00.061Z",
  "devdoc": {
    "kind": "dev",
    "methods": {
      "approve(address,uint256)": {
        "details": "See {IERC721-approve}."
      },
      "balanceOf(address)": {
        "details": "See {IERC721-balanceOf}."
      },
      "getApproved(uint256)": {
        "details": "See {IERC721-getApproved}."
      },
      "getRoleAdmin(bytes32)": {
        "details": "Returns the admin role that controls `role`. See {grantRole} and {revokeRole}. To change a role's admin, use {_setRoleAdmin}."
      },
      "getRoleMember(bytes32,uint256)": {
        "details": "Returns one of the accounts that have `role`. `index` must be a value between 0 and {getRoleMemberCount}, non-inclusive. Role bearers are not sorted in any particular way, and their ordering may change at any point. WARNING: When using {getRoleMember} and {getRoleMemberCount}, make sure you perform all queries on the same block. See the following https://forum.openzeppelin.com/t/iterating-over-elements-on-enumerableset-in-openzeppelin-contracts/2296[forum post] for more information."
      },
      "getRoleMemberCount(bytes32)": {
        "details": "Returns the number of accounts that have `role`. Can be used together with {getRoleMember} to enumerate all bearers of a role."
      },
      "grantRole(bytes32,address)": {
        "details": "Overload {grantRole} to track enumerable memberships"
      },
      "hasRole(bytes32,address)": {
        "details": "Returns `true` if `account` has been granted `role`."
      },
      "isApprovedForAll(address,address)": {
        "details": "See {IERC721-isApprovedForAll}."
      },
      "issueBadge(address,string)": {
        "details": "//// Issuance Desk                                                                            ////"
      },
      "name()": {
        "details": "See {IERC721Metadata-name}."
      },
      "ownerOf(uint256)": {
        "details": "See {IERC721-ownerOf}."
      },
      "pause()": {
        "details": "//// Maintanence\\\\\\\\\\\\\\\\\\\\\\\\\\\\\\\\\\\\\\\\\\\\\\\\\\\\\\                                                   ////"
      },
      "paused()": {
        "details": "Returns true if the contract is paused, and false otherwise."
      },
      "renounceRole(bytes32,address)": {
        "details": "Overload {renounceRole} to track enumerable memberships"
      },
      "revokeRole(bytes32,address)": {
        "details": "Overload {revokeRole} to track enumerable memberships"
      },
      "safeTransferFrom(address,address,uint256)": {
        "details": "See {IERC721-safeTransferFrom}."
      },
      "safeTransferFrom(address,address,uint256,bytes)": {
        "details": "See {IERC721-safeTransferFrom}."
      },
      "setApprovalForAll(address,bool)": {
        "details": "See {IERC721-setApprovalForAll}."
      },
      "symbol()": {
        "details": "See {IERC721Metadata-symbol}."
      },
      "tokenByIndex(uint256)": {
        "details": "See {IERC721Enumerable-tokenByIndex}."
      },
      "tokenOfOwnerByIndex(address,uint256)": {
        "details": "See {IERC721Enumerable-tokenOfOwnerByIndex}."
      },
      "totalSupply()": {
        "details": "See {IERC721Enumerable-totalSupply}."
      },
      "transferFrom(address,address,uint256)": {
        "details": "See {IERC721-transferFrom}."
      },
      "updatePaymentToken()": {
        "details": "//// Update Payment Token                                                                      ////"
      }
    },
    "version": 1
  },
  "userdoc": {
    "kind": "user",
    "methods": {},
    "version": 1
  }
}