{
  "contractName": "PenaltyBadge",
  "abi": [
    {
      "inputs": [
        {
          "internalType": "string",
          "name": "_badgeName",
          "type": "string"
        },
        {
          "internalType": "string",
          "name": "_badgeSymbol",
          "type": "string"
        },
        {
          "internalType": "address",
          "name": "_AddressManagerAddress",
          "type": "address"
        }
      ],
      "stateMutability": "nonpayable",
      "type": "constructor"
    },
    {
      "anonymous": false,
      "inputs": [
        {
          "indexed": true,
          "internalType": "address",
          "name": "owner",
          "type": "address"
        },
        {
          "indexed": true,
          "internalType": "address",
          "name": "approved",
          "type": "address"
        },
        {
          "indexed": true,
          "internalType": "uint256",
          "name": "tokenId",
          "type": "uint256"
        }
      ],
      "name": "Approval",
      "type": "event"
    },
    {
      "anonymous": false,
      "inputs": [
        {
          "indexed": true,
          "internalType": "address",
          "name": "owner",
          "type": "address"
        },
        {
          "indexed": true,
          "internalType": "address",
          "name": "operator",
          "type": "address"
        },
        {
          "indexed": false,
          "internalType": "bool",
          "name": "approved",
          "type": "bool"
        }
      ],
      "name": "ApprovalForAll",
      "type": "event"
    },
    {
      "anonymous": false,
      "inputs": [
        {
          "indexed": false,
          "internalType": "address",
          "name": "account",
          "type": "address"
        }
      ],
      "name": "Paused",
      "type": "event"
    },
    {
      "anonymous": false,
      "inputs": [
        {
          "indexed": true,
          "internalType": "bytes32",
          "name": "role",
          "type": "bytes32"
        },
        {
          "indexed": true,
          "internalType": "bytes32",
          "name": "previousAdminRole",
          "type": "bytes32"
        },
        {
          "indexed": true,
          "internalType": "bytes32",
          "name": "newAdminRole",
          "type": "bytes32"
        }
      ],
      "name": "RoleAdminChanged",
      "type": "event"
    },
    {
      "anonymous": false,
      "inputs": [
        {
          "indexed": true,
          "internalType": "bytes32",
          "name": "role",
          "type": "bytes32"
        },
        {
          "indexed": true,
          "internalType": "address",
          "name": "account",
          "type": "address"
        },
        {
          "indexed": true,
          "internalType": "address",
          "name": "sender",
          "type": "address"
        }
      ],
      "name": "RoleGranted",
      "type": "event"
    },
    {
      "anonymous": false,
      "inputs": [
        {
          "indexed": true,
          "internalType": "bytes32",
          "name": "role",
          "type": "bytes32"
        },
        {
          "indexed": true,
          "internalType": "address",
          "name": "account",
          "type": "address"
        },
        {
          "indexed": true,
          "internalType": "address",
          "name": "sender",
          "type": "address"
        }
      ],
      "name": "RoleRevoked",
      "type": "event"
    },
    {
      "anonymous": false,
      "inputs": [
        {
          "indexed": true,
          "internalType": "address",
          "name": "from",
          "type": "address"
        },
        {
          "indexed": true,
          "internalType": "address",
          "name": "to",
          "type": "address"
        },
        {
          "indexed": true,
          "internalType": "uint256",
          "name": "tokenId",
          "type": "uint256"
        }
      ],
      "name": "Transfer",
      "type": "event"
    },
    {
      "anonymous": false,
      "inputs": [
        {
          "indexed": false,
          "internalType": "address",
          "name": "account",
          "type": "address"
        }
      ],
      "name": "Unpaused",
      "type": "event"
    },
    {
      "inputs": [],
      "name": "AddressManagerAddress",
      "outputs": [
        {
          "internalType": "address",
          "name": "",
          "type": "address"
        }
      ],
      "stateMutability": "view",
      "type": "function"
    },
    {
      "inputs": [
        {
          "internalType": "uint256",
          "name": "",
          "type": "uint256"
        }
      ],
      "name": "BadgeInfo",
      "outputs": [
        {
          "internalType": "address",
          "name": "gifter",
          "type": "address"
        },
        {
          "internalType": "string",
          "name": "reason",
          "type": "string"
        }
      ],
      "stateMutability": "view",
      "type": "function"
    },
    {
      "inputs": [
        {
          "internalType": "address",
          "name": "",
          "type": "address"
        },
        {
          "internalType": "uint256",
          "name": "",
          "type": "uint256"
        }
      ],
      "name": "BadgesSent",
      "outputs": [
        {
          "internalType": "uint256",
          "name": "",
          "type": "uint256"
        }
      ],
      "stateMutability": "view",
      "type": "function"
    },
    {
      "inputs": [],
      "name": "ChadBadgeAddress",
      "outputs": [
        {
          "internalType": "address",
          "name": "",
          "type": "address"
        }
      ],
      "stateMutability": "view",
      "type": "function"
    },
    {
      "inputs": [],
      "name": "ColoredIDAddress",
      "outputs": [
        {
          "internalType": "address",
          "name": "",
          "type": "address"
        }
      ],
      "stateMutability": "view",
      "type": "function"
    },
    {
      "inputs": [],
      "name": "CourtClerk",
      "outputs": [
        {
          "internalType": "address",
          "name": "",
          "type": "address"
        }
      ],
      "stateMutability": "view",
      "type": "function"
    },
    {
      "inputs": [],
      "name": "DEFAULT_ADMIN_ROLE",
      "outputs": [
        {
          "internalType": "bytes32",
          "name": "",
          "type": "bytes32"
        }
      ],
      "stateMutability": "view",
      "type": "function"
    },
    {
      "inputs": [],
      "name": "GAVELS_BAILIFF",
      "outputs": [
        {
          "internalType": "bytes32",
          "name": "",
          "type": "bytes32"
        }
      ],
      "stateMutability": "view",
      "type": "function"
    },
    {
      "inputs": [],
      "name": "GavelDAOAgent",
      "outputs": [
        {
          "internalType": "address",
          "name": "",
          "type": "address"
        }
      ],
      "stateMutability": "view",
      "type": "function"
    },
    {
      "inputs": [],
      "name": "GavelTokenAddress",
      "outputs": [
        {
          "internalType": "address",
          "name": "",
          "type": "address"
        }
      ],
      "stateMutability": "view",
      "type": "function"
    },
    {
      "inputs": [],
      "name": "GavelVote",
      "outputs": [
        {
          "internalType": "bool",
          "name": "",
          "type": "bool"
        }
      ],
      "stateMutability": "view",
      "type": "function"
    },
    {
      "inputs": [],
      "name": "GoldStarAddress",
      "outputs": [
        {
          "internalType": "address",
          "name": "",
          "type": "address"
        }
      ],
      "stateMutability": "view",
      "type": "function"
    },
    {
      "inputs": [],
      "name": "JERK_ROLE",
      "outputs": [
        {
          "internalType": "bytes32",
          "name": "",
          "type": "bytes32"
        }
      ],
      "stateMutability": "view",
      "type": "function"
    },
    {
      "inputs": [],
      "name": "JURY_BAILIFF",
      "outputs": [
        {
          "internalType": "bytes32",
          "name": "",
          "type": "bytes32"
        }
      ],
      "stateMutability": "view",
      "type": "function"
    },
    {
      "inputs": [],
      "name": "JuryDAOAgent",
      "outputs": [
        {
          "internalType": "address",
          "name": "",
          "type": "address"
        }
      ],
      "stateMutability": "view",
      "type": "function"
    },
    {
      "inputs": [],
      "name": "JuryPoolAddress",
      "outputs": [
        {
          "internalType": "address",
          "name": "",
          "type": "address"
        }
      ],
      "stateMutability": "view",
      "type": "function"
    },
    {
      "inputs": [],
      "name": "JuryVote",
      "outputs": [
        {
          "internalType": "bool",
          "name": "",
          "type": "bool"
        }
      ],
      "stateMutability": "view",
      "type": "function"
    },
    {
      "inputs": [],
      "name": "MINI_BAILIFF_ROLE",
      "outputs": [
        {
          "internalType": "bytes32",
          "name": "",
          "type": "bytes32"
        }
      ],
      "stateMutability": "view",
      "type": "function"
    },
    {
      "inputs": [],
      "name": "MiniBailiff",
      "outputs": [
        {
          "internalType": "address",
          "name": "",
          "type": "address"
        }
      ],
      "stateMutability": "view",
      "type": "function"
    },
    {
      "inputs": [
        {
          "internalType": "uint256",
          "name": "",
          "type": "uint256"
        }
      ],
      "name": "Penalty",
      "outputs": [
        {
          "internalType": "uint256",
          "name": "",
          "type": "uint256"
        }
      ],
      "stateMutability": "view",
      "type": "function"
    },
    {
      "inputs": [],
      "name": "PinkSlipAddress",
      "outputs": [
        {
          "internalType": "address",
          "name": "",
          "type": "address"
        }
      ],
      "stateMutability": "view",
      "type": "function"
    },
    {
      "inputs": [],
      "name": "RedPenTokenAddress",
      "outputs": [
        {
          "internalType": "address",
          "name": "",
          "type": "address"
        }
      ],
      "stateMutability": "view",
      "type": "function"
    },
    {
      "inputs": [],
      "name": "THE_COURT_ROLE",
      "outputs": [
        {
          "internalType": "bytes32",
          "name": "",
          "type": "bytes32"
        }
      ],
      "stateMutability": "view",
      "type": "function"
    },
    {
      "inputs": [],
      "name": "TheCourtAddress",
      "outputs": [
        {
          "internalType": "address",
          "name": "",
          "type": "address"
        }
      ],
      "stateMutability": "view",
      "type": "function"
    },
    {
      "inputs": [],
      "name": "TreasuryAddress",
      "outputs": [
        {
          "internalType": "address",
          "name": "",
          "type": "address"
        }
      ],
      "stateMutability": "view",
      "type": "function"
    },
    {
      "inputs": [],
      "name": "addressManager",
      "outputs": [
        {
          "internalType": "contract AddressManager",
          "name": "",
          "type": "address"
        }
      ],
      "stateMutability": "view",
      "type": "function"
    },
    {
      "inputs": [
        {
          "internalType": "address",
          "name": "to",
          "type": "address"
        },
        {
          "internalType": "uint256",
          "name": "tokenId",
          "type": "uint256"
        }
      ],
      "name": "approve",
      "outputs": [],
      "stateMutability": "nonpayable",
      "type": "function"
    },
    {
      "inputs": [],
      "name": "badgeColor",
      "outputs": [
        {
          "internalType": "string",
          "name": "",
          "type": "string"
        }
      ],
      "stateMutability": "view",
      "type": "function"
    },
    {
      "inputs": [],
      "name": "badgeName",
      "outputs": [
        {
          "internalType": "string",
          "name": "",
          "type": "string"
        }
      ],
      "stateMutability": "view",
      "type": "function"
    },
    {
      "inputs": [
        {
          "internalType": "address",
          "name": "owner",
          "type": "address"
        }
      ],
      "name": "balanceOf",
      "outputs": [
        {
          "internalType": "uint256",
          "name": "",
          "type": "uint256"
        }
      ],
      "stateMutability": "view",
      "type": "function"
    },
    {
      "inputs": [
        {
          "internalType": "uint256",
          "name": "valueMustBe69",
          "type": "uint256"
        }
      ],
      "name": "destroyAndLockContract",
      "outputs": [
        {
          "internalType": "bool",
          "name": "",
          "type": "bool"
        }
      ],
      "stateMutability": "nonpayable",
      "type": "function"
    },
    {
      "inputs": [
        {
          "internalType": "uint256",
          "name": "tokenId",
          "type": "uint256"
        }
      ],
      "name": "getApproved",
      "outputs": [
        {
          "internalType": "address",
          "name": "",
          "type": "address"
        }
      ],
      "stateMutability": "view",
      "type": "function"
    },
    {
      "inputs": [
        {
          "internalType": "uint256",
          "name": "_tokenId",
          "type": "uint256"
        }
      ],
      "name": "getBadgeReason",
      "outputs": [
        {
          "internalType": "string",
          "name": "_theReason",
          "type": "string"
        }
      ],
      "stateMutability": "view",
      "type": "function"
    },
    {
      "inputs": [
        {
          "internalType": "uint256",
          "name": "_tokenId",
          "type": "uint256"
        }
      ],
      "name": "getBadgeSender",
      "outputs": [
        {
          "internalType": "address",
          "name": "_theGifter",
          "type": "address"
        }
      ],
      "stateMutability": "view",
      "type": "function"
    },
    {
      "inputs": [
        {
          "internalType": "address",
          "name": "_gifter",
          "type": "address"
        }
      ],
      "name": "getBadgesSent",
      "outputs": [
        {
          "internalType": "uint256[]",
          "name": "_BadgesSent",
          "type": "uint256[]"
        }
      ],
      "stateMutability": "view",
      "type": "function"
    },
    {
      "inputs": [
        {
          "internalType": "bytes32",
          "name": "role",
          "type": "bytes32"
        }
      ],
      "name": "getRoleAdmin",
      "outputs": [
        {
          "internalType": "bytes32",
          "name": "",
          "type": "bytes32"
        }
      ],
      "stateMutability": "view",
      "type": "function"
    },
    {
      "inputs": [
        {
          "internalType": "bytes32",
          "name": "role",
          "type": "bytes32"
        },
        {
          "internalType": "uint256",
          "name": "index",
          "type": "uint256"
        }
      ],
      "name": "getRoleMember",
      "outputs": [
        {
          "internalType": "address",
          "name": "",
          "type": "address"
        }
      ],
      "stateMutability": "view",
      "type": "function"
    },
    {
      "inputs": [
        {
          "internalType": "bytes32",
          "name": "role",
          "type": "bytes32"
        }
      ],
      "name": "getRoleMemberCount",
      "outputs": [
        {
          "internalType": "uint256",
          "name": "",
          "type": "uint256"
        }
      ],
      "stateMutability": "view",
      "type": "function"
    },
    {
      "inputs": [
        {
          "internalType": "bytes32",
          "name": "role",
          "type": "bytes32"
        },
        {
          "internalType": "address",
          "name": "account",
          "type": "address"
        }
      ],
      "name": "grantRole",
      "outputs": [],
      "stateMutability": "nonpayable",
      "type": "function"
    },
    {
      "inputs": [
        {
          "internalType": "bytes32",
          "name": "role",
          "type": "bytes32"
        },
        {
          "internalType": "address",
          "name": "account",
          "type": "address"
        }
      ],
      "name": "hasRole",
      "outputs": [
        {
          "internalType": "bool",
          "name": "",
          "type": "bool"
        }
      ],
      "stateMutability": "view",
      "type": "function"
    },
    {
      "inputs": [
        {
          "internalType": "address",
          "name": "owner",
          "type": "address"
        },
        {
          "internalType": "address",
          "name": "operator",
          "type": "address"
        }
      ],
      "name": "isApprovedForAll",
      "outputs": [
        {
          "internalType": "bool",
          "name": "",
          "type": "bool"
        }
      ],
      "stateMutability": "view",
      "type": "function"
    },
    {
      "inputs": [
        {
          "internalType": "address",
          "name": "addressToCheck",
          "type": "address"
        },
        {
          "internalType": "uint256",
          "name": "badgeTokenID",
          "type": "uint256"
        }
      ],
      "name": "isBadgeSender",
      "outputs": [
        {
          "internalType": "bool",
          "name": "",
          "type": "bool"
        }
      ],
      "stateMutability": "view",
      "type": "function"
    },
    {
      "inputs": [],
      "name": "isForeverLocked",
      "outputs": [
        {
          "internalType": "bool",
          "name": "",
          "type": "bool"
        }
      ],
      "stateMutability": "view",
      "type": "function"
    },
    {
      "inputs": [],
      "name": "jerkSanctions",
      "outputs": [
        {
          "internalType": "bool",
          "name": "",
          "type": "bool"
        }
      ],
      "stateMutability": "view",
      "type": "function"
    },
    {
      "inputs": [],
      "name": "name",
      "outputs": [
        {
          "internalType": "string",
          "name": "",
          "type": "string"
        }
      ],
      "stateMutability": "view",
      "type": "function"
    },
    {
      "inputs": [
        {
          "internalType": "uint256",
          "name": "tokenId",
          "type": "uint256"
        }
      ],
      "name": "ownerOf",
      "outputs": [
        {
          "internalType": "address",
          "name": "",
          "type": "address"
        }
      ],
      "stateMutability": "view",
      "type": "function"
    },
    {
      "inputs": [],
      "name": "pause",
      "outputs": [],
      "stateMutability": "nonpayable",
      "type": "function"
    },
    {
      "inputs": [],
      "name": "paused",
      "outputs": [
        {
          "internalType": "bool",
          "name": "",
          "type": "bool"
        }
      ],
      "stateMutability": "view",
      "type": "function"
    },
    {
      "inputs": [],
      "name": "redPens",
      "outputs": [
        {
          "internalType": "contract ERC20",
          "name": "",
          "type": "address"
        }
      ],
      "stateMutability": "view",
      "type": "function"
    },
    {
      "inputs": [
        {
          "internalType": "bool",
          "name": "thisIsNotReversible",
          "type": "bool"
        }
      ],
      "name": "refreshBadges",
      "outputs": [
        {
          "internalType": "bool",
          "name": "",
          "type": "bool"
        }
      ],
      "stateMutability": "nonpayable",
      "type": "function"
    },
    {
      "inputs": [
        {
          "internalType": "bytes32",
          "name": "role",
          "type": "bytes32"
        },
        {
          "internalType": "address",
          "name": "account",
          "type": "address"
        }
      ],
      "name": "renounceRole",
      "outputs": [],
      "stateMutability": "nonpayable",
      "type": "function"
    },
    {
      "inputs": [],
      "name": "resetVote",
      "outputs": [],
      "stateMutability": "nonpayable",
      "type": "function"
    },
    {
      "inputs": [
        {
          "internalType": "uint256",
          "name": "tokenId",
          "type": "uint256"
        }
      ],
      "name": "revokeBadge",
      "outputs": [],
      "stateMutability": "nonpayable",
      "type": "function"
    },
    {
      "inputs": [
        {
          "internalType": "bytes32",
          "name": "role",
          "type": "bytes32"
        },
        {
          "internalType": "address",
          "name": "account",
          "type": "address"
        }
      ],
      "name": "revokeRole",
      "outputs": [],
      "stateMutability": "nonpayable",
      "type": "function"
    },
    {
      "inputs": [
        {
          "internalType": "address",
          "name": "from",
          "type": "address"
        },
        {
          "internalType": "address",
          "name": "to",
          "type": "address"
        },
        {
          "internalType": "uint256",
          "name": "tokenId",
          "type": "uint256"
        }
      ],
      "name": "safeTransferFrom",
      "outputs": [],
      "stateMutability": "nonpayable",
      "type": "function"
    },
    {
      "inputs": [
        {
          "internalType": "address",
          "name": "from",
          "type": "address"
        },
        {
          "internalType": "address",
          "name": "to",
          "type": "address"
        },
        {
          "internalType": "uint256",
          "name": "tokenId",
          "type": "uint256"
        },
        {
          "internalType": "bytes",
          "name": "_data",
          "type": "bytes"
        }
      ],
      "name": "safeTransferFrom",
      "outputs": [],
      "stateMutability": "nonpayable",
      "type": "function"
    },
    {
      "inputs": [
        {
          "internalType": "address",
          "name": "operator",
          "type": "address"
        },
        {
          "internalType": "bool",
          "name": "approved",
          "type": "bool"
        }
      ],
      "name": "setApprovalForAll",
      "outputs": [],
      "stateMutability": "nonpayable",
      "type": "function"
    },
    {
      "inputs": [
        {
          "internalType": "bytes4",
          "name": "interfaceId",
          "type": "bytes4"
        }
      ],
      "name": "supportsInterface",
      "outputs": [
        {
          "internalType": "bool",
          "name": "",
          "type": "bool"
        }
      ],
      "stateMutability": "view",
      "type": "function"
    },
    {
      "inputs": [],
      "name": "symbol",
      "outputs": [
        {
          "internalType": "string",
          "name": "",
          "type": "string"
        }
      ],
      "stateMutability": "view",
      "type": "function"
    },
    {
      "inputs": [],
      "name": "syncAllRoles",
      "outputs": [],
      "stateMutability": "nonpayable",
      "type": "function"
    },
    {
      "inputs": [
        {
          "internalType": "bytes32",
          "name": "ROLE_TO_SYNC",
          "type": "bytes32"
        }
      ],
      "name": "syncSingleRole",
      "outputs": [],
      "stateMutability": "nonpayable",
      "type": "function"
    },
    {
      "inputs": [],
      "name": "syncVotes",
      "outputs": [],
      "stateMutability": "nonpayable",
      "type": "function"
    },
    {
      "inputs": [
        {
          "internalType": "uint256",
          "name": "index",
          "type": "uint256"
        }
      ],
      "name": "tokenByIndex",
      "outputs": [
        {
          "internalType": "uint256",
          "name": "",
          "type": "uint256"
        }
      ],
      "stateMutability": "view",
      "type": "function"
    },
    {
      "inputs": [
        {
          "internalType": "address",
          "name": "owner",
          "type": "address"
        },
        {
          "internalType": "uint256",
          "name": "index",
          "type": "uint256"
        }
      ],
      "name": "tokenOfOwnerByIndex",
      "outputs": [
        {
          "internalType": "uint256",
          "name": "",
          "type": "uint256"
        }
      ],
      "stateMutability": "view",
      "type": "function"
    },
    {
      "inputs": [
        {
          "internalType": "uint256",
          "name": "tokenId",
          "type": "uint256"
        }
      ],
      "name": "tokenURI",
      "outputs": [
        {
          "internalType": "string",
          "name": "",
          "type": "string"
        }
      ],
      "stateMutability": "view",
      "type": "function"
    },
    {
      "inputs": [],
      "name": "totalSupply",
      "outputs": [
        {
          "internalType": "uint256",
          "name": "",
          "type": "uint256"
        }
      ],
      "stateMutability": "view",
      "type": "function"
    },
    {
      "inputs": [
        {
          "internalType": "address",
          "name": "from",
          "type": "address"
        },
        {
          "internalType": "address",
          "name": "to",
          "type": "address"
        },
        {
          "internalType": "uint256",
          "name": "tokenId",
          "type": "uint256"
        }
      ],
      "name": "transferFrom",
      "outputs": [],
      "stateMutability": "nonpayable",
      "type": "function"
    },
    {
      "inputs": [],
      "name": "unpause",
      "outputs": [],
      "stateMutability": "nonpayable",
      "type": "function"
    },
    {
      "inputs": [],
      "name": "updateAddressManager",
      "outputs": [],
      "stateMutability": "nonpayable",
      "type": "function"
    },
    {
      "inputs": [],
      "name": "updateAllAddresses",
      "outputs": [],
      "stateMutability": "nonpayable",
      "type": "function"
    },
    {
      "inputs": [],
      "name": "updateAllRoles",
      "outputs": [],
      "stateMutability": "nonpayable",
      "type": "function"
    },
    {
      "inputs": [],
      "name": "updateDAOAddresses",
      "outputs": [],
      "stateMutability": "nonpayable",
      "type": "function"
    },
    {
      "inputs": [
        {
          "internalType": "bytes32",
          "name": "ROLE_TO_UPDATE",
          "type": "bytes32"
        }
      ],
      "name": "updateSingleRole",
      "outputs": [],
      "stateMutability": "nonpayable",
      "type": "function"
    },
    {
      "inputs": [],
      "name": "updateTokenAddresses",
      "outputs": [],
      "stateMutability": "nonpayable",
      "type": "function"
    },
    {
      "inputs": [
        {
          "internalType": "uint256",
          "name": "_tokenId",
          "type": "uint256"
        }
      ],
      "name": "payPenalty",
      "outputs": [
        {
          "internalType": "bool",
          "name": "",
          "type": "bool"
        }
      ],
      "stateMutability": "nonpayable",
      "type": "function"
    },
    {
      "inputs": [
        {
          "internalType": "address",
          "name": "receivingAddress",
          "type": "address"
        },
        {
          "internalType": "string",
          "name": "_reason",
          "type": "string"
        }
      ],
      "name": "issueBadge",
      "outputs": [
        {
          "internalType": "uint256",
          "name": "newId",
          "type": "uint256"
        }
      ],
      "stateMutability": "nonpayable",
      "type": "function"
    },
    {
      "inputs": [
        {
          "internalType": "address",
          "name": "receivingAddress",
          "type": "address"
        },
        {
          "internalType": "string",
          "name": "_reason",
          "type": "string"
        },
        {
          "internalType": "uint256",
          "name": "_penalty",
          "type": "uint256"
        }
      ],
      "name": "issueBadge",
      "outputs": [
        {
          "internalType": "uint256",
          "name": "newId",
          "type": "uint256"
        }
      ],
      "stateMutability": "nonpayable",
      "type": "function"
    },
    {
      "inputs": [],
      "name": "updatePaymentToken",
      "outputs": [],
      "stateMutability": "nonpayable",
      "type": "function"
    }
  ],
  "bytecode": "0x60806040526000805460ff1990811682556011805463ffffffff60a01b19169055601d91909155601e80549091169055600554602480546001600160a01b0319166001600160a01b039092169190911790553480156200005e57600080fd5b5060405162005c8838038062005c88833981016040819052620000819162000e1e565b600380546001600160a01b0383166001600160a01b03199182168117909255601180549091169091179055828282828282620000bc62000284565b620000c66200029a565b600f54620000e0906000906001600160a01b0316620003e5565b600f5462000119907f0538d24a8b7882d7b2e36af243d4af61c23e86e3daa6cb8c887b53220b2f5720906001600160a01b0316620003e5565b600c5462000152907f048bc71fa1cb2c119c339cf9cf00a97996a19a9d991ce5fe049f2fa5459e7990906001600160a01b0316620003e5565b600d546200018b907ffa8e4989e1d689f7bc5c4b25b87efb51fecdecb19ba62847e29c759e12a89acd906001600160a01b0316620003e5565b601054620001c4907ff0f4b159a6e2a4815eb3ca3df080bfa70c9270662c59bcaa4479a456220183e6906001600160a01b0316620003e5565b620001f17f7c9d7f6f02908185bffb3f7fc9afb29fd7bf93675af8fd4b655ee05c2cee1e0e6000620003e5565b5081516200020790601290602085019062000c5b565b5080516200021d90601390602084019062000c5b565b50506018805460ff191690555081516200023f90601f90602085019062000c5b565b50825162000254906020908186019062000c5b565b5050600554602480546001600160a01b0319166001600160a01b039092169190911790555062000eed9350505050565b6200028e62000428565b6200029862000728565b565b601160009054906101000a90046001600160a01b03166001600160a01b031663ff7e88ec6040518163ffffffff1660e01b815260040160206040518083038186803b158015620002e957600080fd5b505afa158015620002fe573d6000803e3d6000fd5b505050506040513d601f19601f8201168201806040525081019062000324919062000df3565b601160156101000a81548160ff021916908315150217905550601160009054906101000a90046001600160a01b03166001600160a01b0316632fb565856040518163ffffffff1660e01b815260040160206040518083038186803b1580156200038c57600080fd5b505afa158015620003a1573d6000803e3d6000fd5b505050506040513d601f19601f82011682018060405250810190620003c7919062000df3565b60118054911515600160b01b0260ff60b01b19909216919091179055565b620003fc828262000b5160201b62001b1e1760201c565b60008281526002602090815260409091206200042391839062001b2862000b61821b17901c565b505050565b601160009054906101000a90046001600160a01b03166001600160a01b031663dadf56ac6040518163ffffffff1660e01b815260040160206040518083038186803b1580156200047757600080fd5b505afa1580156200048c573d6000803e3d6000fd5b505050506040513d601f19601f82011682018060405250810190620004b2919062000dd5565b600c80546001600160a01b0319166001600160a01b039283161790556011546040805163024bebe960e01b81529051919092169163024bebe9916004808301926020929190829003018186803b1580156200050c57600080fd5b505afa15801562000521573d6000803e3d6000fd5b505050506040513d601f19601f8201168201806040525081019062000547919062000dd5565b600d80546001600160a01b0319166001600160a01b0392831617905560115460408051635b5c251f60e01b815290519190921691635b5c251f916004808301926020929190829003018186803b158015620005a157600080fd5b505afa158015620005b6573d6000803e3d6000fd5b505050506040513d601f19601f82011682018060405250810190620005dc919062000dd5565b600e80546001600160a01b0319166001600160a01b0392831617905560115460408051637310bf1d60e11b81529051919092169163e6217e3a916004808301926020929190829003018186803b1580156200063657600080fd5b505afa1580156200064b573d6000803e3d6000fd5b505050506040513d601f19601f8201168201806040525081019062000671919062000dd5565b601080546001600160a01b0319166001600160a01b039283161790556011546040805163d88127a160e01b81529051919092169163d88127a1916004808301926020929190829003018186803b158015620006cb57600080fd5b505afa158015620006e0573d6000803e3d6000fd5b505050506040513d601f19601f8201168201806040525081019062000706919062000dd5565b600b80546001600160a01b0319166001600160a01b0392909216919091179055565b601160009054906101000a90046001600160a01b03166001600160a01b03166321d7f0086040518163ffffffff1660e01b815260040160206040518083038186803b1580156200077757600080fd5b505afa1580156200078c573d6000803e3d6000fd5b505050506040513d601f19601f82011682018060405250810190620007b2919062000dd5565b600480546001600160a01b0319166001600160a01b039283161781556011546040805163762ddb5960e01b81529051919093169263762ddb599281810192602092909190829003018186803b1580156200080b57600080fd5b505afa15801562000820573d6000803e3d6000fd5b505050506040513d601f19601f8201168201806040525081019062000846919062000dd5565b600580546001600160a01b0319166001600160a01b039283161790556011546040805163bfb7dc9960e01b81529051919092169163bfb7dc99916004808301926020929190829003018186803b158015620008a057600080fd5b505afa158015620008b5573d6000803e3d6000fd5b505050506040513d601f19601f82011682018060405250810190620008db919062000dd5565b600680546001600160a01b0319166001600160a01b0392831617905560115460408051633e6111eb60e21b81529051919092169163f98447ac916004808301926020929190829003018186803b1580156200093557600080fd5b505afa1580156200094a573d6000803e3d6000fd5b505050506040513d601f19601f8201168201806040525081019062000970919062000dd5565b600780546001600160a01b0319166001600160a01b0392831617905560115460408051630fe1ba9f60e21b815290519190921691633f86ea7c916004808301926020929190829003018186803b158015620009ca57600080fd5b505afa158015620009df573d6000803e3d6000fd5b505050506040513d601f19601f8201168201806040525081019062000a05919062000dd5565b600880546001600160a01b0319166001600160a01b0392831617905560115460408051632b90024160e11b8152905191909216916357200482916004808301926020929190829003018186803b15801562000a5f57600080fd5b505afa15801562000a74573d6000803e3d6000fd5b505050506040513d601f19601f8201168201806040525081019062000a9a919062000dd5565b600980546001600160a01b0319166001600160a01b0392831617905560115460408051636b58477560e01b815290519190921691636b584775916004808301926020929190829003018186803b15801562000af457600080fd5b505afa15801562000b09573d6000803e3d6000fd5b505050506040513d601f19601f8201168201806040525081019062000b2f919062000dd5565b600a80546001600160a01b0319166001600160a01b0392909216919091179055565b62000b5d828262000b81565b5050565b600062000b78836001600160a01b03841662000c09565b90505b92915050565b60008281526001602090815260408083206001600160a01b038516845290915290205460ff1662000b5d5760008281526001602081815260408084206001600160a01b0386168086529252808420805460ff19169093179092559051339285917f2f8788117e7eff1d82e926ec794901d17c78024a50270940304540a733656f0d9190a45050565b600081815260018301602052604081205462000c525750815460018181018455600084815260208082209093018490558454848252828601909352604090209190915562000b7b565b50600062000b7b565b82805462000c699062000e9a565b90600052602060002090601f01602090048101928262000c8d576000855562000cd8565b82601f1062000ca857805160ff191683800117855562000cd8565b8280016001018555821562000cd8579182015b8281111562000cd857825182559160200191906001019062000cbb565b5062000ce692915062000cea565b5090565b5b8082111562000ce6576000815560010162000ceb565b80516001600160a01b038116811462000d1957600080fd5b919050565b600082601f83011262000d3057600080fd5b81516001600160401b038082111562000d4d5762000d4d62000ed7565b604051601f8301601f19908116603f0116810190828211818310171562000d785762000d7862000ed7565b8160405283815260209250868385880101111562000d9557600080fd5b600091505b8382101562000db9578582018301518183018401529082019062000d9a565b8382111562000dcb5760008385830101525b9695505050505050565b60006020828403121562000de857600080fd5b62000b788262000d01565b60006020828403121562000e0657600080fd5b8151801515811462000e1757600080fd5b9392505050565b60008060006060848603121562000e3457600080fd5b83516001600160401b038082111562000e4c57600080fd5b62000e5a8783880162000d1e565b9450602086015191508082111562000e7157600080fd5b5062000e808682870162000d1e565b92505062000e916040850162000d01565b90509250925092565b600181811c9082168062000eaf57607f821691505b6020821081141562000ed157634e487b7160e01b600052602260045260246000fd5b50919050565b634e487b7160e01b600052604160045260246000fd5b614d8b8062000efd6000396000f3fe608060405234801561001057600080fd5b506004361061046a5760003560e01c80636c353e341161024c578063c04e17e311610146578063dea6f9c8116100c3578063f1132b3011610087578063f1132b30146109cc578063f7d92d86146109d4578063f98447ac146109dc578063f98db253146109ef578063ff7e88ec14610a0257600080fd5b8063dea6f9c814610976578063e6217e3a1461097e578063e78c266c14610991578063e985e9c5146109a4578063e9a53230146109b757600080fd5b8063cf4ece151161010a578063cf4ece1514610908578063d33192541461091d578063d547741f1461093d578063d88127a114610950578063dadf56ac1461096357600080fd5b8063c04e17e314610899578063c62b28e8146108ba578063c87b56dd146108cd578063ca15c873146108e0578063cce84392146108f357600080fd5b806395d89b41116101d4578063a32c5e5911610198578063a32c5e5914610837578063a78e746f1461084c578063b88d4fde14610860578063bf79696714610873578063bfb7dc991461088657600080fd5b806395d89b41146107f457806396ac6bf0146107fc5780639ac3eaa71461080f578063a217fddf1461081c578063a22cb4651461082457600080fd5b8063765160781161021b57806376516078146107a0578063794ccf6c146107b35780638456cb59146107c65780639010d07c146107ce57806391d14854146107e157600080fd5b80636c353e341461074957806370a082311461075157806373c8982214610764578063762ddb591461078d57600080fd5b806336568abe1161036857806359e6f787116102e5578063610c3009116102a9578063610c3009146106e85780636352211e146106f057806363ebc6771461070357806367a14f06146107235780636b5847751461073657600080fd5b806359e6f7871461069c5780635b5c251f146106af5780635c975abb146106c25780635db531a1146106cd5780635f413466146106d557600080fd5b806349b5e1051161032c57806349b5e105146106535780634d84c6d81461065b5780634f6ccce714610663578063572004821461067657806357f276ff1461068957600080fd5b806336568abe146105ff5780633ab76e9f146106125780633f4ba83a146106255780633f86ea7c1461062d57806342842e0e1461064057600080fd5b806318160ddd116103f65780632f2ff15d116103ba5780632f2ff15d146105b55780632f745c59146105c85780632fb56585146105db578063326a55e0146105ef578063329a8cfa146105f757600080fd5b806318160ddd1461054e57806321d7f0081461055657806323b872dd146105695780632436329d1461057c578063248a9ca31461059157600080fd5b8063095ea7b31161043d578063095ea7b3146104ea5780630ad17f8f146104ff5780631142c4b014610520578063130f63201461053357806317314d5a1461054657600080fd5b806301ffc9a71461046f578063024bebe91461049757806306fdde03146104c2578063081812fc146104d7575b600080fd5b61048261047d366004614804565b610a16565b60405190151581526020015b60405180910390f35b600d546104aa906001600160a01b031681565b6040516001600160a01b03909116815260200161048e565b6104ca610a27565b60405161048e91906149cc565b6104aa6104e53660046147a4565b610ab9565b6104fd6104f836600461473e565b610b53565b005b61051261050d36600461473e565b610c69565b60405190815260200161048e565b61048261052e3660046147a4565b610c9a565b6104fd6105413660046147a4565b610cae565b6104fd610ce3565b601b54610512565b6004546104aa906001600160a01b031681565b6104fd6105773660046145a6565b610d0c565b610512600080516020614cb683398151915281565b61051261059f3660046147a4565b6000908152600160208190526040909120015490565b6104fd6105c33660046147bd565b610d3d565b6105126105d636600461473e565b610d5f565b60115461048290600160b01b900460ff1681565b6104fd610df5565b6104fd610e05565b6104fd61060d3660046147bd565b610ee5565b6011546104aa906001600160a01b031681565b6104fd610f07565b6008546104aa906001600160a01b031681565b6104fd61064e3660046145a6565b610f99565b6104fd610fca565b6104fd610dfd565b6105126106713660046147a4565b610fd2565b6009546104aa906001600160a01b031681565b6104fd6106973660046147a4565b611065565b6104826106aa36600461473e565b611079565b600e546104aa906001600160a01b031681565b60185460ff16610482565b6104fd6110ab565b600f546104aa906001600160a01b031681565b6104ca6110b3565b6104aa6106fe3660046147a4565b611141565b610716610711366004614533565b6111b8565b60405161048e9190614988565b6024546104aa906001600160a01b031681565b600a546104aa906001600160a01b031681565b6104fd611224565b61051261075f366004614533565b611250565b6104aa6107723660046147a4565b6000908152602160205260409020546001600160a01b031690565b6005546104aa906001600160a01b031681565b6104826107ae36600461476a565b6112d7565b6105126107c1366004614695565b6113ce565b6104fd611455565b6104aa6107dc3660046147e2565b6114d7565b6104826107ef3660046147bd565b6114f6565b6104ca611521565b61048261080a3660046147a4565b611530565b601e546104829060ff1681565b610512600081565b6104fd610832366004614667565b61163c565b610512600080516020614d1683398151915281565b60115461048290600160a01b900460ff1681565b6104fd61086e3660046145e7565b6116ba565b6105126108813660046146e5565b6116f2565b6006546104aa906001600160a01b031681565b6108ac6108a73660046147a4565b61176f565b60405161048e929190614964565b6104fd6108c83660046147a4565b61181e565b6104ca6108db3660046147a4565b61186f565b6105126108ee3660046147a4565b611956565b610512600080516020614d3683398151915281565b610512600080516020614cf683398151915281565b61051261092b3660046147a4565b60236020526000908152604090205481565b6104fd61094b3660046147bd565b61196d565b600b546104aa906001600160a01b031681565b600c546104aa906001600160a01b031681565b6104ca611977565b6010546104aa906001600160a01b031681565b6003546104aa906001600160a01b031681565b6104826109b236600461456d565b611984565b610512600080516020614cd683398151915281565b6104fd6119db565b6104fd6119e3565b6007546104aa906001600160a01b031681565b6104ca6109fd3660046147a4565b611a83565b60115461048290600160a81b900460ff1681565b6000610a2182611b3d565b92915050565b606060128054610a3690614ba4565b80601f0160208091040260200160405190810160405280929190818152602001828054610a6290614ba4565b8015610aaf5780601f10610a8457610100808354040283529160200191610aaf565b820191906000526020600020905b815481529060010190602001808311610a9257829003601f168201915b5050505050905090565b6000818152601460205260408120546001600160a01b0316610b375760405162461bcd60e51b815260206004820152602c60248201527f4552433732313a20617070726f76656420717565727920666f72206e6f6e657860448201526b34b9ba32b73a103a37b5b2b760a11b60648201526084015b60405180910390fd5b506000908152601660205260409020546001600160a01b031690565b6000610b5e82611141565b9050806001600160a01b0316836001600160a01b03161415610bcc5760405162461bcd60e51b815260206004820152602160248201527f4552433732313a20617070726f76616c20746f2063757272656e74206f776e656044820152603960f91b6064820152608401610b2e565b336001600160a01b0382161480610be85750610be88133611984565b610c5a5760405162461bcd60e51b815260206004820152603860248201527f4552433732313a20617070726f76652063616c6c6572206973206e6f74206f7760448201527f6e6572206e6f7220617070726f76656420666f7220616c6c00000000000000006064820152608401610b2e565b610c648383611b62565b505050565b60226020528160005260406000208181548110610c8557600080fd5b90600052602060002001600091509150505481565b6000610ca582611b89565b50600192915050565b610cb86001611ea1565b50610cc281611f53565b50610ccc816120ce565b50610cd76000611ea1565b610ce057600080fd5b50565b610ced6001611ea1565b50610cf6612257565b50610d016000611ea1565b610d0a57600080fd5b565b610d16338261239d565b610d325760405162461bcd60e51b8152600401610b2e90614a61565b610c648383836124b5565b610d4782826124e6565b6000828152600260205260409020610c649082611b28565b6000610d6a83611250565b8210610dcc5760405162461bcd60e51b815260206004820152602b60248201527f455243373231456e756d657261626c653a206f776e657220696e646578206f7560448201526a74206f6620626f756e647360a81b6064820152608401610b2e565b506001600160a01b03919091166000908152601960209081526040808320938352929052205490565b610dfd612520565b610d0a61280c565b610e1d600080516020614d16833981519152336114f6565b80610e3b5750610e3b600080516020614cd6833981519152336114f6565b80610e595750610e59600080516020614cb6833981519152336114f6565b610e755760405162461bcd60e51b8152600401610b2e906149df565b601160009054906101000a90046001600160a01b03166001600160a01b031663329a8cfa6040518163ffffffff1660e01b8152600401600060405180830381600087803b158015610ec557600080fd5b505af1158015610ed9573d6000803e3d6000fd5b50505050610d0a6110ab565b610eef8282612c19565b6000828152600260205260409020610c649082612c93565b610f1f600080516020614cd6833981519152336114f6565b80610f3d5750610f3d600080516020614d16833981519152336114f6565b610f815760405162461bcd60e51b8152602060048201526015602482015274596f75277265206e6f742074686520476176656c7360581b6044820152606401610b2e565b601e5460ff1615610f9157600080fd5b610d0a612ca8565b610fa3338261239d565b610fbf5760405162461bcd60e51b8152600401610b2e90614a61565b610c64838383612d3b565b610d0a612520565b6000610fdd601b5490565b82106110405760405162461bcd60e51b815260206004820152602c60248201527f455243373231456e756d657261626c653a20676c6f62616c20696e646578206f60448201526b7574206f6620626f756e647360a01b6064820152608401610b2e565b601b828154811061105357611053614c50565b90600052602060002001549050919050565b61106f6001611ea1565b50610ccc81612d56565b6000818152602160205260408120546001600160a01b03848116911614156110a357506001610a21565b506000610a21565b610d0a612fb1565b602080546110c090614ba4565b80601f01602080910402602001604051908101604052809291908181526020018280546110ec90614ba4565b80156111395780601f1061110e57610100808354040283529160200191611139565b820191906000526020600020905b81548152906001019060200180831161111c57829003601f168201915b505050505081565b6000818152601460205260408120546001600160a01b031680610a215760405162461bcd60e51b815260206004820152602960248201527f4552433732313a206f776e657220717565727920666f72206e6f6e657869737460448201526832b73a103a37b5b2b760b91b6064820152608401610b2e565b6001600160a01b03811660009081526022602090815260409182902080548351818402810184019094528084526060939283018282801561121857602002820191906000526020600020905b815481526020019060010190808311611204575b50505050509050919050565b61122c61280c565b600554602480546001600160a01b0319166001600160a01b03909216919091179055565b60006001600160a01b0382166112bb5760405162461bcd60e51b815260206004820152602a60248201527f4552433732313a2062616c616e636520717565727920666f7220746865207a65604482015269726f206164647265737360b01b6064820152608401610b2e565b506001600160a01b031660009081526015602052604090205490565b60006112f1600080516020614cd6833981519152336114f6565b8061130f575061130f600080516020614cb6833981519152336114f6565b8061132d575061132d600080516020614d16833981519152336114f6565b61133657600080fd5b601154600160b01b810460ff9081161515600160a81b90920416151514600114806113745750611374600080516020614d16833981519152336114f6565b6113b35760405162461bcd60e51b815260206004820152601060248201526f436f757274204d75737420416772656560801b6044820152606401610b2e565b600182151514156113c657610ca56130f4565b506000919050565b60006113e8600080516020614d16833981519152336114f6565b806114065750611406600080516020614cd6833981519152336114f6565b806114245750611424600080516020614cb6833981519152336114f6565b6114405760405162461bcd60e51b8152600401610b2e906149df565b600061144d848483613146565b949350505050565b61146d600080516020614cd6833981519152336114f6565b8061148b575061148b600080516020614d16833981519152336114f6565b6114cf5760405162461bcd60e51b8152602060048201526015602482015274596f75277265206e6f742074686520476176656c7360581b6044820152606401610b2e565b610d0a6131db565b60008281526002602052604081206114ef9083613256565b9392505050565b60009182526001602090815260408084206001600160a01b0393909316845291905290205460ff1690565b606060138054610a3690614ba4565b600061154a600080516020614cd6833981519152336114f6565b806115685750611568600080516020614cb6833981519152336114f6565b806115865750611586600080516020614d16833981519152336114f6565b61158f57600080fd5b601154600160b01b810460ff9081161515600160a81b90920416151514600114806115cd57506115cd600080516020614d16833981519152336114f6565b61160c5760405162461bcd60e51b815260206004820152601060248201526f436f757274204d75737420416772656560801b6044820152606401610b2e565b81604514156113c65761161d6130f4565b506116266131db565b50601e805460ff19166001908117909155919050565b611654600080516020614d16833981519152336114f6565b806116725750611672600080516020614cd6833981519152336114f6565b806116905750611690600080516020614cb6833981519152336114f6565b6116ac5760405162461bcd60e51b8152600401610b2e90614a61565b6116b68282613262565b5050565b6116c4338361239d565b6116e05760405162461bcd60e51b8152600401610b2e90614aae565b6116ec84848484613327565b50505050565b600061170c600080516020614d16833981519152336114f6565b8061172a575061172a600080516020614cd6833981519152336114f6565b806117485750611748600080516020614cb6833981519152336114f6565b6117645760405162461bcd60e51b8152600401610b2e906149df565b61144d848484613146565b602160205260009081526040902080546001820180546001600160a01b03909216929161179b90614ba4565b80601f01602080910402602001604051908101604052809291908181526020018280546117c790614ba4565b80156118145780601f106117e957610100808354040283529160200191611814565b820191906000526020600020905b8154815290600101906020018083116117f757829003601f168201915b5050505050905082565b611828338261239d565b6118665760405162461bcd60e51b815260206004820152600f60248201526e4e696365205472792c204275636b6f60881b6044820152606401610b2e565b610ce08161335a565b6000818152601460205260409020546060906001600160a01b03166118ee5760405162461bcd60e51b815260206004820152602f60248201527f4552433732314d657461646174613a2055524920717565727920666f72206e6f60448201526e3732bc34b9ba32b73a103a37b5b2b760891b6064820152608401610b2e565b600061190560408051602081019091526000815290565b9050600081511161192557604051806020016040528060008152506114ef565b8061192f84613401565b604051602001611940929190614883565b6040516020818303038152906040529392505050565b6000818152600260205260408120610a21906134ff565b610eef8282613509565b601f80546110c090614ba4565b60008061199f600080516020614d16833981519152846114f6565b806119bd57506119bd600080516020614cd6833981519152846114f6565b8061144d575061144d600080516020614cb6833981519152846114f6565b610d0a613543565b6119ed6001611ea1565b50611a05600080516020614d16833981519152612d56565b50611a1d600080516020614cd6833981519152612d56565b50611a35600080516020614cb6833981519152612d56565b50611a4d600080516020614cf6833981519152612d56565b50611a65600080516020614d36833981519152612d56565b50611a706000612d56565b50611a79612fb1565b610d016000611ea1565b6000818152602160205260409020600101805460609190611aa390614ba4565b80601f0160208091040260200160405190810160405280929190818152602001828054611acf90614ba4565b80156112185780601f10611af157610100808354040283529160200191611218565b820191906000526020600020905b815481529060010190602001808311611aff5750939695505050505050565b6116b6828261367a565b60006114ef836001600160a01b0384166136e5565b60006001600160e01b0319821663780e9d6360e01b1480610a215750610a218261372c565b611b7a600080516020614d16833981519152336114f6565b156116b6576116b6828261376c565b600081815260236020526040812054819080611be75760405162461bcd60e51b815260206004820152601c60248201527f4e6f2070656e616c747920666f72207468697320746f6b656e496421000000006044820152606401610b2e565b602480546040516370a0823160e01b815233600482015283926001600160a01b03909216916370a08231910160206040518083038186803b158015611c2b57600080fd5b505afa158015611c3f573d6000803e3d6000fd5b505050506040513d601f19601f82011682018060405250810190611c63919061483e565b1015611cb15760405162461bcd60e51b815260206004820152601a60248201527f596f7520446f6e2774204861766520456e6f75676820215265640000000000006044820152606401610b2e565b602480546040516370a0823160e01b815230600482015283926001600160a01b03909216916370a08231910160206040518083038186803b158015611cf557600080fd5b505afa158015611d09573d6000803e3d6000fd5b505050506040513d601f19601f82011682018060405250810190611d2d919061483e565b611d379190614aff565b602480546040516323b872dd60e01b81523360048201523092810192909252604482018490529193506001600160a01b03909116906323b872dd90606401602060405180830381600087803b158015611d8f57600080fd5b505af1158015611da3573d6000803e3d6000fd5b505050506040513d601f19601f82011682018060405250810190611dc79190614787565b50602480546040516370a0823160e01b815230600482015284926001600160a01b03909216916370a08231910160206040518083038186803b158015611e0c57600080fd5b505afa158015611e20573d6000803e3d6000fd5b505050506040513d601f19601f82011682018060405250810190611e44919061483e565b14611e8a5760405162461bcd60e51b8152602060048201526016602482015275115c9c9bdc88151c985b9cd9995c9a5b99c80854915160521b6044820152606401610b2e565b505050600090815260236020526040812055600190565b6000805460ff168215158115151415611efc5760405162461bcd60e51b815260206004820152601960248201527f416c72656164792053657420746f20746861742076616c7565000000000000006044820152606401610b2e565b6000805484151560ff19909116811790915560ff1615158115151415610ca55760405162461bcd60e51b815260206004820152600c60248201526b29b0b33a32bc9022b93937b960a11b6044820152606401610b2e565b60405163ca15c87360e01b8152600481018290526000908190309063ca15c8739060240160206040518083038186803b158015611f8f57600080fd5b505afa158015611fa3573d6000803e3d6000fd5b505050506040513d601f19601f82011682018060405250810190611fc7919061483e565b905060005b818110156120c457604051632404341f60e21b815260048101859052602481018290526000903090639010d07c9060440160206040518083038186803b15801561201557600080fd5b505afa158015612029573d6000803e3d6000fd5b505050506040513d601f19601f8201168201806040525081019061204d9190614550565b60405163d547741f60e01b8152600481018790526001600160a01b0382166024820152909150309063d547741f90604401600060405180830381600087803b15801561209857600080fd5b505af11580156120ac573d6000803e3d6000fd5b505050505080806120bc90614bdf565b915050611fcc565b5060019392505050565b60115460405163ca15c87360e01b81526004810183905260009182916001600160a01b039091169063ca15c8739060240160206040518083038186803b15801561211757600080fd5b505afa15801561212b573d6000803e3d6000fd5b505050506040513d601f19601f8201168201806040525081019061214f919061483e565b905060005b818110156120c457601154604051632404341f60e21b815260048101869052602481018390526000916001600160a01b031690639010d07c9060440160206040518083038186803b1580156121a857600080fd5b505afa1580156121bc573d6000803e3d6000fd5b505050506040513d601f19601f820116820180604052508101906121e09190614550565b604051632f2ff15d60e01b8152600481018790526001600160a01b03821660248201529091503090632f2ff15d90604401600060405180830381600087803b15801561222b57600080fd5b505af115801561223f573d6000803e3d6000fd5b5050505050808061224f90614bdf565b915050612154565b6000612270600080516020614d16833981519152611f53565b50612288600080516020614d168339815191526120ce565b61229157600080fd5b6122a8600080516020614cd6833981519152611f53565b506122c0600080516020614cd68339815191526120ce565b6122c957600080fd5b6122e0600080516020614cb6833981519152611f53565b506122f8600080516020614cb68339815191526120ce565b61230157600080fd5b612318600080516020614cf6833981519152611f53565b50612330600080516020614cf68339815191526120ce565b61233957600080fd5b612350600080516020614d36833981519152611f53565b50612368600080516020614d368339815191526120ce565b61237157600080fd5b61237b6000611f53565b5061238660006120ce565b61238f57600080fd5b612397612fb1565b50600190565b6000818152601460205260408120546001600160a01b03166124165760405162461bcd60e51b815260206004820152602c60248201527f4552433732313a206f70657261746f7220717565727920666f72206e6f6e657860448201526b34b9ba32b73a103a37b5b2b760a11b6064820152608401610b2e565b600061242183611141565b9050806001600160a01b0316846001600160a01b031614156124a357600083815260236020526040902054156124995760405162461bcd60e51b815260206004820152601760248201527f506c656173652050617920596f75722050656e616c74790000000000000000006044820152606401610b2e565b6001915050610a21565b6124ad8185611984565b915050610a21565b6124bf338261239d565b6124db5760405162461bcd60e51b8152600401610b2e90614aae565b610c648383836137da565b600082815260016020819052604082200154905460ff161561250c57610c64838361367a565b6125168133613985565b610c64838361367a565b601160009054906101000a90046001600160a01b03166001600160a01b031663dadf56ac6040518163ffffffff1660e01b815260040160206040518083038186803b15801561256e57600080fd5b505afa158015612582573d6000803e3d6000fd5b505050506040513d601f19601f820116820180604052508101906125a69190614550565b600c80546001600160a01b0319166001600160a01b039283161790556011546040805163024bebe960e01b81529051919092169163024bebe9916004808301926020929190829003018186803b1580156125ff57600080fd5b505afa158015612613573d6000803e3d6000fd5b505050506040513d601f19601f820116820180604052508101906126379190614550565b600d80546001600160a01b0319166001600160a01b0392831617905560115460408051635b5c251f60e01b815290519190921691635b5c251f916004808301926020929190829003018186803b15801561269057600080fd5b505afa1580156126a4573d6000803e3d6000fd5b505050506040513d601f19601f820116820180604052508101906126c89190614550565b600e80546001600160a01b0319166001600160a01b0392831617905560115460408051637310bf1d60e11b81529051919092169163e6217e3a916004808301926020929190829003018186803b15801561272157600080fd5b505afa158015612735573d6000803e3d6000fd5b505050506040513d601f19601f820116820180604052508101906127599190614550565b601080546001600160a01b0319166001600160a01b039283161790556011546040805163d88127a160e01b81529051919092169163d88127a1916004808301926020929190829003018186803b1580156127b257600080fd5b505afa1580156127c6573d6000803e3d6000fd5b505050506040513d601f19601f820116820180604052508101906127ea9190614550565b600b80546001600160a01b0319166001600160a01b0392909216919091179055565b601160009054906101000a90046001600160a01b03166001600160a01b03166321d7f0086040518163ffffffff1660e01b815260040160206040518083038186803b15801561285a57600080fd5b505afa15801561286e573d6000803e3d6000fd5b505050506040513d601f19601f820116820180604052508101906128929190614550565b600480546001600160a01b0319166001600160a01b039283161781556011546040805163762ddb5960e01b81529051919093169263762ddb599281810192602092909190829003018186803b1580156128ea57600080fd5b505afa1580156128fe573d6000803e3d6000fd5b505050506040513d601f19601f820116820180604052508101906129229190614550565b600580546001600160a01b0319166001600160a01b039283161790556011546040805163bfb7dc9960e01b81529051919092169163bfb7dc99916004808301926020929190829003018186803b15801561297b57600080fd5b505afa15801561298f573d6000803e3d6000fd5b505050506040513d601f19601f820116820180604052508101906129b39190614550565b600680546001600160a01b0319166001600160a01b0392831617905560115460408051633e6111eb60e21b81529051919092169163f98447ac916004808301926020929190829003018186803b158015612a0c57600080fd5b505afa158015612a20573d6000803e3d6000fd5b505050506040513d601f19601f82011682018060405250810190612a449190614550565b600780546001600160a01b0319166001600160a01b0392831617905560115460408051630fe1ba9f60e21b815290519190921691633f86ea7c916004808301926020929190829003018186803b158015612a9d57600080fd5b505afa158015612ab1573d6000803e3d6000fd5b505050506040513d601f19601f82011682018060405250810190612ad59190614550565b600880546001600160a01b0319166001600160a01b0392831617905560115460408051632b90024160e11b8152905191909216916357200482916004808301926020929190829003018186803b158015612b2e57600080fd5b505afa158015612b42573d6000803e3d6000fd5b505050506040513d601f19601f82011682018060405250810190612b669190614550565b600980546001600160a01b0319166001600160a01b0392831617905560115460408051636b58477560e01b815290519190921691636b584775916004808301926020929190829003018186803b158015612bbf57600080fd5b505afa158015612bd3573d6000803e3d6000fd5b505050506040513d601f19601f82011682018060405250810190612bf79190614550565b600a80546001600160a01b0319166001600160a01b0392909216919091179055565b6001600160a01b0381163314612c895760405162461bcd60e51b815260206004820152602f60248201527f416363657373436f6e74726f6c3a2063616e206f6e6c792072656e6f756e636560448201526e103937b632b9903337b91039b2b63360891b6064820152608401610b2e565b6116b682826139e9565b60006114ef836001600160a01b038416613a50565b60185460ff16612cf15760405162461bcd60e51b815260206004820152601460248201527314185d5cd8589b194e881b9bdd081c185d5cd95960621b6044820152606401610b2e565b6018805460ff191690557f5db9ee0a495bf2e6ff9c91a7834c1ba4fdd244a5e8aa4e537bd38aeae4b073aa335b6040516001600160a01b03909116815260200160405180910390a1565b610c64838383604051806020016040528060008152506116ba565b60115460405163ca15c87360e01b81526004810183905260009182916001600160a01b039091169063ca15c8739060240160206040518083038186803b158015612d9f57600080fd5b505afa158015612db3573d6000803e3d6000fd5b505050506040513d601f19601f82011682018060405250810190612dd7919061483e565b60405163ca15c87360e01b815260048101859052909150600090309063ca15c8739060240160206040518083038186803b158015612e1457600080fd5b505afa158015612e28573d6000803e3d6000fd5b505050506040513d601f19601f82011682018060405250810190612e4c919061483e565b90506000612e5a8284614b4a565b905060008111612e9f5760405162461bcd60e51b815260206004820152601060248201526f4e6f7468696e6720746f2073796e632160801b6044820152606401610b2e565b60005b81811015612fa557601154604051632404341f60e21b815260048101889052602481018390526000916001600160a01b031690639010d07c9060440160206040518083038186803b158015612ef657600080fd5b505afa158015612f0a573d6000803e3d6000fd5b505050506040513d601f19601f82011682018060405250810190612f2e9190614550565b604051632f2ff15d60e01b8152600481018990526001600160a01b03821660248201529091503090632f2ff15d90604401600060405180830381600087803b158015612f7957600080fd5b505af1158015612f8d573d6000803e3d6000fd5b50505050508080612f9d90614bdf565b915050612ea2565b50600195945050505050565b601160009054906101000a90046001600160a01b03166001600160a01b031663ff7e88ec6040518163ffffffff1660e01b815260040160206040518083038186803b158015612fff57600080fd5b505afa158015613013573d6000803e3d6000fd5b505050506040513d601f19601f820116820180604052508101906130379190614787565b601160156101000a81548160ff021916908315150217905550601160009054906101000a90046001600160a01b03166001600160a01b0316632fb565856040518163ffffffff1660e01b815260040160206040518083038186803b15801561309e57600080fd5b505afa1580156130b2573d6000803e3d6000fd5b505050506040513d601f19601f820116820180604052508101906130d69190614787565b60118054911515600160b01b0260ff60b01b19909216919091179055565b6000805b601d5481101561313a576000818152601460205260409020546001600160a01b031615613128576131288161335a565b8061313281614bdf565b9150506130f8565b50506000601d55600190565b6000613160600080516020614d16833981519152336114f6565b8061317e575061317e600080516020614cd6833981519152336114f6565b8061319c575061319c600080516020614cb6833981519152336114f6565b6131b85760405162461bcd60e51b8152600401610b2e906149df565b6131c28484613b3d565b6000818152602360205260409020929092555092915050565b60185460ff16156132215760405162461bcd60e51b815260206004820152601060248201526f14185d5cd8589b194e881c185d5cd95960821b6044820152606401610b2e565b6018805460ff191660011790557f62e78cea01bee320cd4e420270b5ea74000d11b0c9f74754ebdbfc544b05a258612d1e3390565b60006114ef8383613bb9565b6001600160a01b0382163314156132bb5760405162461bcd60e51b815260206004820152601960248201527f4552433732313a20617070726f766520746f2063616c6c6572000000000000006044820152606401610b2e565b3360008181526017602090815260408083206001600160a01b03871680855290835292819020805460ff191686151590811790915590519081529192917f17307eab39ab6107e8899845ad3d59bd9653f200f220920489ca2b5937696c31910160405180910390a35050565b6133328484846137da565b61333e84848484613c3f565b6116ec5760405162461bcd60e51b8152600401610b2e90614a0f565b600061336582611141565b905061337381600084613d4c565b61337e600083611b62565b6001600160a01b03811660009081526015602052604081208054600192906133a7908490614b4a565b909155505060008281526014602052604080822080546001600160a01b0319169055518391906001600160a01b038416907fddf252ad1be2c89b69c2b068fc378daa952ba7f163c4a11628f55a4df523b3ef908390a45050565b6060816134255750506040805180820190915260018152600360fc1b602082015290565b8160005b811561344f578061343981614bdf565b91506134489050600a83614b17565b9150613429565b60008167ffffffffffffffff81111561346a5761346a614c66565b6040519080825280601f01601f191660200182016040528015613494576020820181803683370190505b5090505b841561144d576134a9600183614b4a565b91506134b6600a86614bfa565b6134c1906030614aff565b60f81b8183815181106134d6576134d6614c50565b60200101906001600160f81b031916908160001a9053506134f8600a86614b17565b9450613498565b6000610a21825490565b600082815260016020819052604082200154905460ff161561352f57610c6483836139e9565b6135398133613985565b610c6483836139e9565b601160009054906101000a90046001600160a01b03166001600160a01b031663a44b93256040518163ffffffff1660e01b815260040160206040518083038186803b15801561359157600080fd5b505afa1580156135a5573d6000803e3d6000fd5b505050506040513d601f19601f820116820180604052508101906135c99190614787565b6135d257600080fd5b601160009054906101000a90046001600160a01b03166001600160a01b031663ac7cfac36040518163ffffffff1660e01b815260040160206040518083038186803b15801561362057600080fd5b505afa158015613634573d6000803e3d6000fd5b505050506040513d601f19601f820116820180604052508101906136589190614550565b600380546001600160a01b0319166001600160a01b0392909216919091179055565b61368482826114f6565b6116b65760008281526001602081815260408084206001600160a01b0386168086529252808420805460ff19169093179092559051339285917f2f8788117e7eff1d82e926ec794901d17c78024a50270940304540a733656f0d9190a45050565b60008181526001830160205260408120546110a357508154600181810184556000848152602080822090930184905584548482528286019093526040902091909155610a21565b60006001600160e01b031982166380ac58cd60e01b148061375d57506001600160e01b03198216635b5e139f60e01b145b80610a215750610a2182613d57565b600081815260166020526040902080546001600160a01b0319166001600160a01b03841690811790915581906137a182611141565b6001600160a01b03167f8c5be1e5ebec7d5bd14f71427d1e84f3dd0314c0f7b2291e5b200ac8c7c3b92560405160405180910390a45050565b826001600160a01b03166137ed82611141565b6001600160a01b0316146138555760405162461bcd60e51b815260206004820152602960248201527f4552433732313a207472616e73666572206f6620746f6b656e2074686174206960448201526839903737ba1037bbb760b91b6064820152608401610b2e565b6001600160a01b0382166138b75760405162461bcd60e51b8152602060048201526024808201527f4552433732313a207472616e7366657220746f20746865207a65726f206164646044820152637265737360e01b6064820152608401610b2e565b6138c2838383613d4c565b6138cd600082611b62565b6001600160a01b03831660009081526015602052604081208054600192906138f6908490614b4a565b90915550506001600160a01b0382166000908152601560205260408120805460019290613924908490614aff565b909155505060008181526014602052604080822080546001600160a01b0319166001600160a01b0386811691821790925591518493918716917fddf252ad1be2c89b69c2b068fc378daa952ba7f163c4a11628f55a4df523b3ef91a4505050565b61398f82826114f6565b6116b6576139a7816001600160a01b03166014613d7c565b6139b2836020613d7c565b6040516020016139c39291906148b2565b60408051601f198184030181529082905262461bcd60e51b8252610b2e916004016149cc565b6139f382826114f6565b156116b65760008281526001602090815260408083206001600160a01b0385168085529252808320805460ff1916905551339285917ff6391f5c32d9c69d2a47ea670b442974b53935d1edc7fd64eb21e047a839171b9190a45050565b60008181526001830160205260408120548015613b33576000613a74600183614b4a565b8554909150600090613a8890600190614b4a565b90506000866000018281548110613aa157613aa1614c50565b9060005260206000200154905080876000018481548110613ac457613ac4614c50565b600091825260208083209091019290925582815260018901909152604090208490558654879080613af757613af7614c3a565b60019003818190600052602060002001600090559055866001016000878152602001908152602001600020600090556001945050505050610a21565b6000915050610a21565b6000613b57600080516020614d16833981519152336114f6565b80613b755750613b75600080516020614cd6833981519152336114f6565b80613b935750613b93600080516020614cb6833981519152336114f6565b613baf5760405162461bcd60e51b8152600401610b2e906149df565b6114ef8383613f18565b81546000908210613c175760405162461bcd60e51b815260206004820152602260248201527f456e756d657261626c655365743a20696e646578206f7574206f6620626f756e604482015261647360f01b6064820152608401610b2e565b826000018281548110613c2c57613c2c614c50565b9060005260206000200154905092915050565b60006001600160a01b0384163b15613d4157604051630a85bd0160e11b81526001600160a01b0385169063150b7a0290613c83903390899088908890600401614927565b602060405180830381600087803b158015613c9d57600080fd5b505af1925050508015613ccd575060408051601f3d908101601f19168201909252613cca91810190614821565b60015b613d27573d808015613cfb576040519150601f19603f3d011682016040523d82523d6000602084013e613d00565b606091505b508051613d1f5760405162461bcd60e51b8152600401610b2e90614a0f565b805181602001fd5b6001600160e01b031916630a85bd0160e11b14905061144d565b506001949350505050565b610c64838383613f7d565b60006001600160e01b03198216635a05180f60e01b1480610a215750610a2182614035565b60606000613d8b836002614b2b565b613d96906002614aff565b67ffffffffffffffff811115613dae57613dae614c66565b6040519080825280601f01601f191660200182016040528015613dd8576020820181803683370190505b509050600360fc1b81600081518110613df357613df3614c50565b60200101906001600160f81b031916908160001a905350600f60fb1b81600181518110613e2257613e22614c50565b60200101906001600160f81b031916908160001a9053506000613e46846002614b2b565b613e51906001614aff565b90505b6001811115613ec9576f181899199a1a9b1b9c1cb0b131b232b360811b85600f1660108110613e8557613e85614c50565b1a60f81b828281518110613e9b57613e9b614c50565b60200101906001600160f81b031916908160001a90535060049490941c93613ec281614b8d565b9050613e54565b5083156114ef5760405162461bcd60e51b815260206004820181905260248201527f537472696e67733a20686578206c656e67746820696e73756666696369656e746044820152606401610b2e565b60006001600160a01b0383163314801590613f3b57506001600160a01b03831615155b613f4457600080fd5b50601d54613f5333838361406a565b613f5f83601d546140d9565b6001601d6000828254613f729190614aff565b909155505092915050565b6001600160a01b038316613fd857613fd381601b80546000838152601c60205260408120829055600182018355919091527f3ad8aa4f87544323a9d1e5dd902f40c356527a7955687113db5f9a85ad579dc10155565b613ffb565b816001600160a01b0316836001600160a01b031614613ffb57613ffb83826140f3565b6001600160a01b03821661401257610c6481614190565b826001600160a01b0316826001600160a01b031614610c6457610c64828261423f565b60006001600160e01b03198216637965db0b60e01b1480610a2157506301ffc9a760e01b6001600160e01b0319831614610a21565b600081815260216020908152604090912080546001600160a01b0319166001600160a01b03861617815583516140a892600190920191850190614404565b506001600160a01b039092166000908152602260209081526040822080546001810182559083529120019190915550565b6116b6828260405180602001604052806000815250614283565b6000600161410084611250565b61410a9190614b4a565b6000838152601a602052604090205490915080821461415d576001600160a01b03841660009081526019602090815260408083208584528252808320548484528184208190558352601a90915290208190555b506000918252601a602090815260408084208490556001600160a01b039094168352601981528383209183525290812055565b601b546000906141a290600190614b4a565b6000838152601c6020526040812054601b80549394509092849081106141ca576141ca614c50565b9060005260206000200154905080601b83815481106141eb576141eb614c50565b6000918252602080832090910192909255828152601c9091526040808220849055858252812055601b80548061422357614223614c3a565b6001900381819060005260206000200160009055905550505050565b600061424a83611250565b6001600160a01b0390931660009081526019602090815260408083208684528252808320859055938252601a9052919091209190915550565b61428d83836142b6565b61429a6000848484613c3f565b610c645760405162461bcd60e51b8152600401610b2e90614a0f565b6001600160a01b03821661430c5760405162461bcd60e51b815260206004820181905260248201527f4552433732313a206d696e7420746f20746865207a65726f20616464726573736044820152606401610b2e565b6000818152601460205260409020546001600160a01b0316156143715760405162461bcd60e51b815260206004820152601c60248201527f4552433732313a20746f6b656e20616c7265616479206d696e746564000000006044820152606401610b2e565b61437d60008383613d4c565b6001600160a01b03821660009081526015602052604081208054600192906143a6908490614aff565b909155505060008181526014602052604080822080546001600160a01b0319166001600160a01b03861690811790915590518392907fddf252ad1be2c89b69c2b068fc378daa952ba7f163c4a11628f55a4df523b3ef908290a45050565b82805461441090614ba4565b90600052602060002090601f0160209004810192826144325760008555614478565b82601f1061444b57805160ff1916838001178555614478565b82800160010185558215614478579182015b8281111561447857825182559160200191906001019061445d565b50614484929150614488565b5090565b5b808211156144845760008155600101614489565b600067ffffffffffffffff808411156144b8576144b8614c66565b604051601f8501601f19908116603f011681019082821181831017156144e0576144e0614c66565b816040528093508581528686860111156144f957600080fd5b858560208301376000602087830101525050509392505050565b600082601f83011261452457600080fd5b6114ef8383356020850161449d565b60006020828403121561454557600080fd5b81356114ef81614c7c565b60006020828403121561456257600080fd5b81516114ef81614c7c565b6000806040838503121561458057600080fd5b823561458b81614c7c565b9150602083013561459b81614c7c565b809150509250929050565b6000806000606084860312156145bb57600080fd5b83356145c681614c7c565b925060208401356145d681614c7c565b929592945050506040919091013590565b600080600080608085870312156145fd57600080fd5b843561460881614c7c565b9350602085013561461881614c7c565b925060408501359150606085013567ffffffffffffffff81111561463b57600080fd5b8501601f8101871361464c57600080fd5b61465b8782356020840161449d565b91505092959194509250565b6000806040838503121561467a57600080fd5b823561468581614c7c565b9150602083013561459b81614c91565b600080604083850312156146a857600080fd5b82356146b381614c7c565b9150602083013567ffffffffffffffff8111156146cf57600080fd5b6146db85828601614513565b9150509250929050565b6000806000606084860312156146fa57600080fd5b833561470581614c7c565b9250602084013567ffffffffffffffff81111561472157600080fd5b61472d86828701614513565b925050604084013590509250925092565b6000806040838503121561475157600080fd5b823561475c81614c7c565b946020939093013593505050565b60006020828403121561477c57600080fd5b81356114ef81614c91565b60006020828403121561479957600080fd5b81516114ef81614c91565b6000602082840312156147b657600080fd5b5035919050565b600080604083850312156147d057600080fd5b82359150602083013561459b81614c7c565b600080604083850312156147f557600080fd5b50508035926020909101359150565b60006020828403121561481657600080fd5b81356114ef81614c9f565b60006020828403121561483357600080fd5b81516114ef81614c9f565b60006020828403121561485057600080fd5b5051919050565b6000815180845261486f816020860160208601614b61565b601f01601f19169290920160200192915050565b60008351614895818460208801614b61565b8351908301906148a9818360208801614b61565b01949350505050565b7f416363657373436f6e74726f6c3a206163636f756e74200000000000000000008152600083516148ea816017850160208801614b61565b7001034b99036b4b9b9b4b733903937b6329607d1b601791840191820152835161491b816028840160208801614b61565b01602801949350505050565b6001600160a01b038581168252841660208201526040810183905260806060820181905260009061495a90830184614857565b9695505050505050565b6001600160a01b038316815260406020820181905260009061144d90830184614857565b6020808252825182820181905260009190848201906040850190845b818110156149c0578351835292840192918401916001016149a4565b50909695505050505050565b6020815260006114ef6020830184614857565b6020808252601690820152752cb7ba93b932903737ba103a3432903130b4b634b33360511b604082015260600190565b60208082526032908201527f4552433732313a207472616e7366657220746f206e6f6e20455243373231526560408201527131b2b4bb32b91034b6b83632b6b2b73a32b960711b606082015260800190565b6020808252602d908201527f596f7520646f206e6f742068617665207065726d697373696f6e20746f206d6f60408201526c7665207468697320626164676560981b606082015260800190565b60208082526031908201527f4552433732313a207472616e736665722063616c6c6572206973206e6f74206f6040820152701ddb995c881b9bdc88185c1c1c9bdd9959607a1b606082015260800190565b60008219821115614b1257614b12614c0e565b500190565b600082614b2657614b26614c24565b500490565b6000816000190483118215151615614b4557614b45614c0e565b500290565b600082821015614b5c57614b5c614c0e565b500390565b60005b83811015614b7c578181015183820152602001614b64565b838111156116ec5750506000910152565b600081614b9c57614b9c614c0e565b506000190190565b600181811c90821680614bb857607f821691505b60208210811415614bd957634e487b7160e01b600052602260045260246000fd5b50919050565b6000600019821415614bf357614bf3614c0e565b5060010190565b600082614c0957614c09614c24565b500690565b634e487b7160e01b600052601160045260246000fd5b634e487b7160e01b600052601260045260246000fd5b634e487b7160e01b600052603160045260246000fd5b634e487b7160e01b600052603260045260246000fd5b634e487b7160e01b600052604160045260246000fd5b6001600160a01b0381168114610ce057600080fd5b8015158114610ce057600080fd5b6001600160e01b031981168114610ce057600080fdfefa8e4989e1d689f7bc5c4b25b87efb51fecdecb19ba62847e29c759e12a89acd048bc71fa1cb2c119c339cf9cf00a97996a19a9d991ce5fe049f2fa5459e7990f0f4b159a6e2a4815eb3ca3df080bfa70c9270662c59bcaa4479a456220183e60538d24a8b7882d7b2e36af243d4af61c23e86e3daa6cb8c887b53220b2f57207c9d7f6f02908185bffb3f7fc9afb29fd7bf93675af8fd4b655ee05c2cee1e0ea26469706673582212208b41fda847c83f4cac95aae7246a5b96a4b0af313ba1ab7813cea95e547b532164736f6c63430008060033",
  "immutableReferences": {},
  "source": "// SPDX-License-Identifier: MIT\n\npragma solidity ^0.8.0;\n\nimport \"@openzeppelin/contracts/token/ERC20/ERC20.sol\";\n\nimport \"./GenericBadge.sol\";\n\n\ncontract PenaltyBadge is GenericBadge {\n\n    mapping (uint => uint) public Penalty;\n\n    ERC20 public redPens = ERC20(RedPenTokenAddress);\n \n    constructor(string memory _badgeName, string memory _badgeSymbol, address _AddressManagerAddress)\n        GenericBadge(_badgeName, _badgeSymbol, _AddressManagerAddress)\n    {\n        redPens = ERC20(RedPenTokenAddress);\n    }      \n\n    function payPenalty(uint _tokenId) public virtual returns (bool) {\n       \n        _payPenalty(_tokenId);\n\n        return true;\n    }\n\n    function _payPenalty(uint _tokenId) internal virtual returns (bool) {\n        uint256 expectedContractBalance;\n        uint256 penaltyCost = Penalty[_tokenId];\n    \n        require (penaltyCost > 0, \"No penalty for this tokenId!\");\n        \n        require(redPens.balanceOf(msg.sender) >= penaltyCost, \"You Don't Have Enough !Red\");\n        expectedContractBalance = redPens.balanceOf(address(this)) + penaltyCost;\n        redPens.transferFrom(msg.sender, address(this), penaltyCost);\n        require(redPens.balanceOf(address(this)) == expectedContractBalance, \"Error Transfering !RED\");\n        Penalty[_tokenId] = 0;\n        return true;\n    }\n\n    function issueBadge(address receivingAddress, string memory _reason) public virtual override\n        BAILIFF \n        returns(uint newId) {\n            uint _penalty = 0;\n            newId = _issueBadge(receivingAddress, _reason, _penalty);\n            return newId;\n    }\n\n    function issueBadge(address receivingAddress, string memory _reason, uint _penalty) public virtual\n        BAILIFF \n        returns(uint newId) {\n            newId = _issueBadge(receivingAddress, _reason, _penalty);\n            return newId;\n    }\n\n    function _issueBadge(address receivingAddress, string memory _reason, uint _penalty) internal virtual\n        BAILIFF \n        returns(uint newId) {\n            newId = super.issueBadge(receivingAddress, _reason);\n            Penalty[newId] = _penalty;\n    }\n\n     /////////////////////////////////////////////////////////////////////////////////////////////////\n    /////////////////////////////////////////////////////////////////////////////////////////////////\n    /// @dev                                                                                     ////\n    /// Update Payment Token                                                                      ////\n    /////////////////////////////////////////////////////////////////////////////////////////////////\n    /////////////////////////////////////////////////////////////////////////////////////////////////\n\n\n    function updatePaymentToken() public {\n        _updateTokenAddresses();\n        redPens = ERC20(RedPenTokenAddress);\n    }\n\n     /////////////////////////////////////////////////////////////////////////////////////////////////\n    /////////////////////////////////////////////////////////////////////////////////////////////////\n    /// @dev                                                                                     ////\n    /// Transfer rules                                                                           ////\n    /////////////////////////////////////////////////////////////////////////////////////////////////\n    /////////////////////////////////////////////////////////////////////////////////////////////////\n\n\n    function _isApprovedOrOwner(address spender, uint256 tokenId)\n        internal view virtual\n        override(GenericBadge)\n        returns (bool)\n    {\n        require(_exists(tokenId), \"ERC721: operator query for nonexistent token\");\n        \n        address owner = ownerOf(tokenId);\n       \n        if (spender == owner) {\n            require (Penalty[tokenId] == 0, \"Please Pay Your Penalty\");\n            return true;\n        } else {\n            return (isApprovedForAll(owner, spender));\n        }\n    }\n        \n}",
  "sourcePath": "/home/n/Desktop/PinkSlips_FrontEnd_REFORMAT/contracts/src/ERC721/PenaltyBadge.sol",
  "compiler": {
    "name": "solc",
    "version": "0.8.6+commit.11564f7e.Emscripten.clang"
  },
  "schemaVersion": "3.4.1",
  "updatedAt": "2021-08-09T08:59:15.490Z",
  "devdoc": {
    "kind": "dev",
    "methods": {
      "approve(address,uint256)": {
        "details": "See {IERC721-approve}."
      },
      "balanceOf(address)": {
        "details": "See {IERC721-balanceOf}."
      },
      "getApproved(uint256)": {
        "details": "See {IERC721-getApproved}."
      },
      "getRoleAdmin(bytes32)": {
        "details": "Returns the admin role that controls `role`. See {grantRole} and {revokeRole}. To change a role's admin, use {_setRoleAdmin}."
      },
      "getRoleMember(bytes32,uint256)": {
        "details": "Returns one of the accounts that have `role`. `index` must be a value between 0 and {getRoleMemberCount}, non-inclusive. Role bearers are not sorted in any particular way, and their ordering may change at any point. WARNING: When using {getRoleMember} and {getRoleMemberCount}, make sure you perform all queries on the same block. See the following https://forum.openzeppelin.com/t/iterating-over-elements-on-enumerableset-in-openzeppelin-contracts/2296[forum post] for more information."
      },
      "getRoleMemberCount(bytes32)": {
        "details": "Returns the number of accounts that have `role`. Can be used together with {getRoleMember} to enumerate all bearers of a role."
      },
      "grantRole(bytes32,address)": {
        "details": "Overload {grantRole} to track enumerable memberships"
      },
      "hasRole(bytes32,address)": {
        "details": "Returns `true` if `account` has been granted `role`."
      },
      "isApprovedForAll(address,address)": {
        "details": "See {IERC721-isApprovedForAll}."
      },
      "issueBadge(address,string)": {
        "details": "//// Issuance Desk                                                                            ////"
      },
      "name()": {
        "details": "See {IERC721Metadata-name}."
      },
      "ownerOf(uint256)": {
        "details": "See {IERC721-ownerOf}."
      },
      "pause()": {
        "details": "//// Maintanence\\\\\\\\\\\\\\\\\\\\\\\\\\\\\\\\\\\\\\\\\\\\\\\\\\\\\\                                                   ////"
      },
      "paused()": {
        "details": "Returns true if the contract is paused, and false otherwise."
      },
      "renounceRole(bytes32,address)": {
        "details": "Overload {renounceRole} to track enumerable memberships"
      },
      "revokeRole(bytes32,address)": {
        "details": "Overload {revokeRole} to track enumerable memberships"
      },
      "safeTransferFrom(address,address,uint256)": {
        "details": "See {IERC721-safeTransferFrom}."
      },
      "safeTransferFrom(address,address,uint256,bytes)": {
        "details": "See {IERC721-safeTransferFrom}."
      },
      "setApprovalForAll(address,bool)": {
        "details": "See {IERC721-setApprovalForAll}."
      },
      "symbol()": {
        "details": "See {IERC721Metadata-symbol}."
      },
      "tokenByIndex(uint256)": {
        "details": "See {IERC721Enumerable-tokenByIndex}."
      },
      "tokenOfOwnerByIndex(address,uint256)": {
        "details": "See {IERC721Enumerable-tokenOfOwnerByIndex}."
      },
      "tokenURI(uint256)": {
        "details": "See {IERC721Metadata-tokenURI}."
      },
      "totalSupply()": {
        "details": "See {IERC721Enumerable-totalSupply}."
      },
      "transferFrom(address,address,uint256)": {
        "details": "See {IERC721-transferFrom}."
      },
      "updatePaymentToken()": {
        "details": "//// Update Payment Token                                                                      ////"
      }
    },
    "version": 1
  },
  "userdoc": {
    "kind": "user",
    "methods": {},
    "version": 1
  }
}