{
  "contractName": "PenaltyBadge",
  "abi": [
    {
      "inputs": [
        {
          "internalType": "string",
          "name": "_badgeName",
          "type": "string"
        },
        {
          "internalType": "string",
          "name": "_badgeSymbol",
          "type": "string"
        },
        {
          "internalType": "address",
          "name": "_AddressManagerAddress",
          "type": "address"
        }
      ],
      "stateMutability": "nonpayable",
      "type": "constructor"
    },
    {
      "anonymous": false,
      "inputs": [
        {
          "indexed": true,
          "internalType": "address",
          "name": "owner",
          "type": "address"
        },
        {
          "indexed": true,
          "internalType": "address",
          "name": "approved",
          "type": "address"
        },
        {
          "indexed": true,
          "internalType": "uint256",
          "name": "tokenId",
          "type": "uint256"
        }
      ],
      "name": "Approval",
      "type": "event"
    },
    {
      "anonymous": false,
      "inputs": [
        {
          "indexed": true,
          "internalType": "address",
          "name": "owner",
          "type": "address"
        },
        {
          "indexed": true,
          "internalType": "address",
          "name": "operator",
          "type": "address"
        },
        {
          "indexed": false,
          "internalType": "bool",
          "name": "approved",
          "type": "bool"
        }
      ],
      "name": "ApprovalForAll",
      "type": "event"
    },
    {
      "anonymous": false,
      "inputs": [
        {
          "indexed": false,
          "internalType": "address",
          "name": "account",
          "type": "address"
        }
      ],
      "name": "Paused",
      "type": "event"
    },
    {
      "anonymous": false,
      "inputs": [
        {
          "indexed": true,
          "internalType": "bytes32",
          "name": "role",
          "type": "bytes32"
        },
        {
          "indexed": true,
          "internalType": "bytes32",
          "name": "previousAdminRole",
          "type": "bytes32"
        },
        {
          "indexed": true,
          "internalType": "bytes32",
          "name": "newAdminRole",
          "type": "bytes32"
        }
      ],
      "name": "RoleAdminChanged",
      "type": "event"
    },
    {
      "anonymous": false,
      "inputs": [
        {
          "indexed": true,
          "internalType": "bytes32",
          "name": "role",
          "type": "bytes32"
        },
        {
          "indexed": true,
          "internalType": "address",
          "name": "account",
          "type": "address"
        },
        {
          "indexed": true,
          "internalType": "address",
          "name": "sender",
          "type": "address"
        }
      ],
      "name": "RoleGranted",
      "type": "event"
    },
    {
      "anonymous": false,
      "inputs": [
        {
          "indexed": true,
          "internalType": "bytes32",
          "name": "role",
          "type": "bytes32"
        },
        {
          "indexed": true,
          "internalType": "address",
          "name": "account",
          "type": "address"
        },
        {
          "indexed": true,
          "internalType": "address",
          "name": "sender",
          "type": "address"
        }
      ],
      "name": "RoleRevoked",
      "type": "event"
    },
    {
      "anonymous": false,
      "inputs": [
        {
          "indexed": true,
          "internalType": "address",
          "name": "from",
          "type": "address"
        },
        {
          "indexed": true,
          "internalType": "address",
          "name": "to",
          "type": "address"
        },
        {
          "indexed": true,
          "internalType": "uint256",
          "name": "tokenId",
          "type": "uint256"
        }
      ],
      "name": "Transfer",
      "type": "event"
    },
    {
      "anonymous": false,
      "inputs": [
        {
          "indexed": false,
          "internalType": "address",
          "name": "account",
          "type": "address"
        }
      ],
      "name": "Unpaused",
      "type": "event"
    },
    {
      "inputs": [],
      "name": "AddressManagerAddress",
      "outputs": [
        {
          "internalType": "address",
          "name": "",
          "type": "address"
        }
      ],
      "stateMutability": "view",
      "type": "function"
    },
    {
      "inputs": [
        {
          "internalType": "uint256",
          "name": "",
          "type": "uint256"
        }
      ],
      "name": "BadgeInfo",
      "outputs": [
        {
          "internalType": "address",
          "name": "gifter",
          "type": "address"
        },
        {
          "internalType": "string",
          "name": "reason",
          "type": "string"
        }
      ],
      "stateMutability": "view",
      "type": "function"
    },
    {
      "inputs": [
        {
          "internalType": "address",
          "name": "",
          "type": "address"
        },
        {
          "internalType": "uint256",
          "name": "",
          "type": "uint256"
        }
      ],
      "name": "BadgesSent",
      "outputs": [
        {
          "internalType": "uint256",
          "name": "",
          "type": "uint256"
        }
      ],
      "stateMutability": "view",
      "type": "function"
    },
    {
      "inputs": [],
      "name": "ChadBadgeAddress",
      "outputs": [
        {
          "internalType": "address",
          "name": "",
          "type": "address"
        }
      ],
      "stateMutability": "view",
      "type": "function"
    },
    {
      "inputs": [],
      "name": "DEFAULT_ADMIN_ROLE",
      "outputs": [
        {
          "internalType": "bytes32",
          "name": "",
          "type": "bytes32"
        }
      ],
      "stateMutability": "view",
      "type": "function"
    },
    {
      "inputs": [],
      "name": "GAVELS_BAILIFF",
      "outputs": [
        {
          "internalType": "bytes32",
          "name": "",
          "type": "bytes32"
        }
      ],
      "stateMutability": "view",
      "type": "function"
    },
    {
      "inputs": [],
      "name": "GavelDAOAgent",
      "outputs": [
        {
          "internalType": "address",
          "name": "",
          "type": "address"
        }
      ],
      "stateMutability": "view",
      "type": "function"
    },
    {
      "inputs": [],
      "name": "GavelTokenAddress",
      "outputs": [
        {
          "internalType": "address",
          "name": "",
          "type": "address"
        }
      ],
      "stateMutability": "view",
      "type": "function"
    },
    {
      "inputs": [],
      "name": "GavelVote",
      "outputs": [
        {
          "internalType": "bool",
          "name": "",
          "type": "bool"
        }
      ],
      "stateMutability": "view",
      "type": "function"
    },
    {
      "inputs": [],
      "name": "GoldStarAddress",
      "outputs": [
        {
          "internalType": "address",
          "name": "",
          "type": "address"
        }
      ],
      "stateMutability": "view",
      "type": "function"
    },
    {
      "inputs": [],
      "name": "JERK_ROLE",
      "outputs": [
        {
          "internalType": "bytes32",
          "name": "",
          "type": "bytes32"
        }
      ],
      "stateMutability": "view",
      "type": "function"
    },
    {
      "inputs": [],
      "name": "JURY_BAILIFF",
      "outputs": [
        {
          "internalType": "bytes32",
          "name": "",
          "type": "bytes32"
        }
      ],
      "stateMutability": "view",
      "type": "function"
    },
    {
      "inputs": [],
      "name": "JuryDAOAgent",
      "outputs": [
        {
          "internalType": "address",
          "name": "",
          "type": "address"
        }
      ],
      "stateMutability": "view",
      "type": "function"
    },
    {
      "inputs": [],
      "name": "JuryPoolAddress",
      "outputs": [
        {
          "internalType": "address",
          "name": "",
          "type": "address"
        }
      ],
      "stateMutability": "view",
      "type": "function"
    },
    {
      "inputs": [],
      "name": "JuryVote",
      "outputs": [
        {
          "internalType": "bool",
          "name": "",
          "type": "bool"
        }
      ],
      "stateMutability": "view",
      "type": "function"
    },
    {
      "inputs": [],
      "name": "MINI_BAILIFF_ROLE",
      "outputs": [
        {
          "internalType": "bytes32",
          "name": "",
          "type": "bytes32"
        }
      ],
      "stateMutability": "view",
      "type": "function"
    },
    {
      "inputs": [],
      "name": "MiniBailiff",
      "outputs": [
        {
          "internalType": "address",
          "name": "",
          "type": "address"
        }
      ],
      "stateMutability": "view",
      "type": "function"
    },
    {
      "inputs": [
        {
          "internalType": "uint256",
          "name": "",
          "type": "uint256"
        }
      ],
      "name": "Penalty",
      "outputs": [
        {
          "internalType": "uint256",
          "name": "",
          "type": "uint256"
        }
      ],
      "stateMutability": "view",
      "type": "function"
    },
    {
      "inputs": [],
      "name": "PinkSlipAddress",
      "outputs": [
        {
          "internalType": "address",
          "name": "",
          "type": "address"
        }
      ],
      "stateMutability": "view",
      "type": "function"
    },
    {
      "inputs": [],
      "name": "RedPenTokenAddress",
      "outputs": [
        {
          "internalType": "address",
          "name": "",
          "type": "address"
        }
      ],
      "stateMutability": "view",
      "type": "function"
    },
    {
      "inputs": [],
      "name": "THE_COURT_ROLE",
      "outputs": [
        {
          "internalType": "bytes32",
          "name": "",
          "type": "bytes32"
        }
      ],
      "stateMutability": "view",
      "type": "function"
    },
    {
      "inputs": [],
      "name": "TheCourtAddress",
      "outputs": [
        {
          "internalType": "address",
          "name": "",
          "type": "address"
        }
      ],
      "stateMutability": "view",
      "type": "function"
    },
    {
      "inputs": [],
      "name": "TreasuryAddress",
      "outputs": [
        {
          "internalType": "address",
          "name": "",
          "type": "address"
        }
      ],
      "stateMutability": "view",
      "type": "function"
    },
    {
      "inputs": [],
      "name": "addressManager",
      "outputs": [
        {
          "internalType": "contract AddressManager",
          "name": "",
          "type": "address"
        }
      ],
      "stateMutability": "view",
      "type": "function"
    },
    {
      "inputs": [
        {
          "internalType": "address",
          "name": "to",
          "type": "address"
        },
        {
          "internalType": "uint256",
          "name": "tokenId",
          "type": "uint256"
        }
      ],
      "name": "approve",
      "outputs": [],
      "stateMutability": "nonpayable",
      "type": "function"
    },
    {
      "inputs": [],
      "name": "badgeColor",
      "outputs": [
        {
          "internalType": "string",
          "name": "",
          "type": "string"
        }
      ],
      "stateMutability": "view",
      "type": "function"
    },
    {
      "inputs": [],
      "name": "badgeName",
      "outputs": [
        {
          "internalType": "string",
          "name": "",
          "type": "string"
        }
      ],
      "stateMutability": "view",
      "type": "function"
    },
    {
      "inputs": [
        {
          "internalType": "address",
          "name": "owner",
          "type": "address"
        }
      ],
      "name": "balanceOf",
      "outputs": [
        {
          "internalType": "uint256",
          "name": "",
          "type": "uint256"
        }
      ],
      "stateMutability": "view",
      "type": "function"
    },
    {
      "inputs": [
        {
          "internalType": "uint256",
          "name": "valueMustBe69",
          "type": "uint256"
        }
      ],
      "name": "destroyAndLockContract",
      "outputs": [
        {
          "internalType": "bool",
          "name": "",
          "type": "bool"
        }
      ],
      "stateMutability": "nonpayable",
      "type": "function"
    },
    {
      "inputs": [
        {
          "internalType": "uint256",
          "name": "tokenId",
          "type": "uint256"
        }
      ],
      "name": "getApproved",
      "outputs": [
        {
          "internalType": "address",
          "name": "",
          "type": "address"
        }
      ],
      "stateMutability": "view",
      "type": "function"
    },
    {
      "inputs": [
        {
          "internalType": "uint256",
          "name": "_tokenId",
          "type": "uint256"
        }
      ],
      "name": "getBadgeReason",
      "outputs": [
        {
          "internalType": "string",
          "name": "_theReason",
          "type": "string"
        }
      ],
      "stateMutability": "view",
      "type": "function"
    },
    {
      "inputs": [
        {
          "internalType": "uint256",
          "name": "_tokenId",
          "type": "uint256"
        }
      ],
      "name": "getBadgeSender",
      "outputs": [
        {
          "internalType": "address",
          "name": "_theGifter",
          "type": "address"
        }
      ],
      "stateMutability": "view",
      "type": "function"
    },
    {
      "inputs": [
        {
          "internalType": "address",
          "name": "_gifter",
          "type": "address"
        }
      ],
      "name": "getBadgesSent",
      "outputs": [
        {
          "internalType": "uint256[]",
          "name": "_BadgesSent",
          "type": "uint256[]"
        }
      ],
      "stateMutability": "view",
      "type": "function"
    },
    {
      "inputs": [
        {
          "internalType": "bytes32",
          "name": "role",
          "type": "bytes32"
        }
      ],
      "name": "getRoleAdmin",
      "outputs": [
        {
          "internalType": "bytes32",
          "name": "",
          "type": "bytes32"
        }
      ],
      "stateMutability": "view",
      "type": "function"
    },
    {
      "inputs": [
        {
          "internalType": "bytes32",
          "name": "role",
          "type": "bytes32"
        },
        {
          "internalType": "uint256",
          "name": "index",
          "type": "uint256"
        }
      ],
      "name": "getRoleMember",
      "outputs": [
        {
          "internalType": "address",
          "name": "",
          "type": "address"
        }
      ],
      "stateMutability": "view",
      "type": "function"
    },
    {
      "inputs": [
        {
          "internalType": "bytes32",
          "name": "role",
          "type": "bytes32"
        }
      ],
      "name": "getRoleMemberCount",
      "outputs": [
        {
          "internalType": "uint256",
          "name": "",
          "type": "uint256"
        }
      ],
      "stateMutability": "view",
      "type": "function"
    },
    {
      "inputs": [
        {
          "internalType": "bytes32",
          "name": "role",
          "type": "bytes32"
        },
        {
          "internalType": "address",
          "name": "account",
          "type": "address"
        }
      ],
      "name": "grantRole",
      "outputs": [],
      "stateMutability": "nonpayable",
      "type": "function"
    },
    {
      "inputs": [
        {
          "internalType": "bytes32",
          "name": "role",
          "type": "bytes32"
        },
        {
          "internalType": "address",
          "name": "account",
          "type": "address"
        }
      ],
      "name": "hasRole",
      "outputs": [
        {
          "internalType": "bool",
          "name": "",
          "type": "bool"
        }
      ],
      "stateMutability": "view",
      "type": "function"
    },
    {
      "inputs": [
        {
          "internalType": "address",
          "name": "owner",
          "type": "address"
        },
        {
          "internalType": "address",
          "name": "operator",
          "type": "address"
        }
      ],
      "name": "isApprovedForAll",
      "outputs": [
        {
          "internalType": "bool",
          "name": "",
          "type": "bool"
        }
      ],
      "stateMutability": "view",
      "type": "function"
    },
    {
      "inputs": [
        {
          "internalType": "address",
          "name": "addressToCheck",
          "type": "address"
        },
        {
          "internalType": "uint256",
          "name": "badgeTokenID",
          "type": "uint256"
        }
      ],
      "name": "isBadgeSender",
      "outputs": [
        {
          "internalType": "bool",
          "name": "",
          "type": "bool"
        }
      ],
      "stateMutability": "view",
      "type": "function"
    },
    {
      "inputs": [],
      "name": "isForeverLocked",
      "outputs": [
        {
          "internalType": "bool",
          "name": "",
          "type": "bool"
        }
      ],
      "stateMutability": "view",
      "type": "function"
    },
    {
      "inputs": [],
      "name": "jerkSanctions",
      "outputs": [
        {
          "internalType": "bool",
          "name": "",
          "type": "bool"
        }
      ],
      "stateMutability": "view",
      "type": "function"
    },
    {
      "inputs": [],
      "name": "name",
      "outputs": [
        {
          "internalType": "string",
          "name": "",
          "type": "string"
        }
      ],
      "stateMutability": "view",
      "type": "function"
    },
    {
      "inputs": [
        {
          "internalType": "uint256",
          "name": "tokenId",
          "type": "uint256"
        }
      ],
      "name": "ownerOf",
      "outputs": [
        {
          "internalType": "address",
          "name": "",
          "type": "address"
        }
      ],
      "stateMutability": "view",
      "type": "function"
    },
    {
      "inputs": [],
      "name": "pause",
      "outputs": [],
      "stateMutability": "nonpayable",
      "type": "function"
    },
    {
      "inputs": [],
      "name": "paused",
      "outputs": [
        {
          "internalType": "bool",
          "name": "",
          "type": "bool"
        }
      ],
      "stateMutability": "view",
      "type": "function"
    },
    {
      "inputs": [],
      "name": "redPens",
      "outputs": [
        {
          "internalType": "contract ERC20",
          "name": "",
          "type": "address"
        }
      ],
      "stateMutability": "view",
      "type": "function"
    },
    {
      "inputs": [
        {
          "internalType": "bool",
          "name": "thisIsNotReversible",
          "type": "bool"
        }
      ],
      "name": "refreshBadges",
      "outputs": [
        {
          "internalType": "bool",
          "name": "",
          "type": "bool"
        }
      ],
      "stateMutability": "nonpayable",
      "type": "function"
    },
    {
      "inputs": [
        {
          "internalType": "bytes32",
          "name": "role",
          "type": "bytes32"
        },
        {
          "internalType": "address",
          "name": "account",
          "type": "address"
        }
      ],
      "name": "renounceRole",
      "outputs": [],
      "stateMutability": "nonpayable",
      "type": "function"
    },
    {
      "inputs": [],
      "name": "resetVote",
      "outputs": [],
      "stateMutability": "nonpayable",
      "type": "function"
    },
    {
      "inputs": [
        {
          "internalType": "uint256",
          "name": "tokenId",
          "type": "uint256"
        }
      ],
      "name": "revokeBadge",
      "outputs": [],
      "stateMutability": "nonpayable",
      "type": "function"
    },
    {
      "inputs": [
        {
          "internalType": "bytes32",
          "name": "role",
          "type": "bytes32"
        },
        {
          "internalType": "address",
          "name": "account",
          "type": "address"
        }
      ],
      "name": "revokeRole",
      "outputs": [],
      "stateMutability": "nonpayable",
      "type": "function"
    },
    {
      "inputs": [
        {
          "internalType": "address",
          "name": "from",
          "type": "address"
        },
        {
          "internalType": "address",
          "name": "to",
          "type": "address"
        },
        {
          "internalType": "uint256",
          "name": "tokenId",
          "type": "uint256"
        }
      ],
      "name": "safeTransferFrom",
      "outputs": [],
      "stateMutability": "nonpayable",
      "type": "function"
    },
    {
      "inputs": [
        {
          "internalType": "address",
          "name": "from",
          "type": "address"
        },
        {
          "internalType": "address",
          "name": "to",
          "type": "address"
        },
        {
          "internalType": "uint256",
          "name": "tokenId",
          "type": "uint256"
        },
        {
          "internalType": "bytes",
          "name": "_data",
          "type": "bytes"
        }
      ],
      "name": "safeTransferFrom",
      "outputs": [],
      "stateMutability": "nonpayable",
      "type": "function"
    },
    {
      "inputs": [
        {
          "internalType": "address",
          "name": "operator",
          "type": "address"
        },
        {
          "internalType": "bool",
          "name": "approved",
          "type": "bool"
        }
      ],
      "name": "setApprovalForAll",
      "outputs": [],
      "stateMutability": "nonpayable",
      "type": "function"
    },
    {
      "inputs": [
        {
          "internalType": "bytes4",
          "name": "interfaceId",
          "type": "bytes4"
        }
      ],
      "name": "supportsInterface",
      "outputs": [
        {
          "internalType": "bool",
          "name": "",
          "type": "bool"
        }
      ],
      "stateMutability": "view",
      "type": "function"
    },
    {
      "inputs": [],
      "name": "symbol",
      "outputs": [
        {
          "internalType": "string",
          "name": "",
          "type": "string"
        }
      ],
      "stateMutability": "view",
      "type": "function"
    },
    {
      "inputs": [],
      "name": "syncAllRoles",
      "outputs": [],
      "stateMutability": "nonpayable",
      "type": "function"
    },
    {
      "inputs": [
        {
          "internalType": "bytes32",
          "name": "ROLE_TO_SYNC",
          "type": "bytes32"
        }
      ],
      "name": "syncSingleRole",
      "outputs": [],
      "stateMutability": "nonpayable",
      "type": "function"
    },
    {
      "inputs": [],
      "name": "syncVotes",
      "outputs": [],
      "stateMutability": "nonpayable",
      "type": "function"
    },
    {
      "inputs": [
        {
          "internalType": "uint256",
          "name": "index",
          "type": "uint256"
        }
      ],
      "name": "tokenByIndex",
      "outputs": [
        {
          "internalType": "uint256",
          "name": "",
          "type": "uint256"
        }
      ],
      "stateMutability": "view",
      "type": "function"
    },
    {
      "inputs": [
        {
          "internalType": "address",
          "name": "owner",
          "type": "address"
        },
        {
          "internalType": "uint256",
          "name": "index",
          "type": "uint256"
        }
      ],
      "name": "tokenOfOwnerByIndex",
      "outputs": [
        {
          "internalType": "uint256",
          "name": "",
          "type": "uint256"
        }
      ],
      "stateMutability": "view",
      "type": "function"
    },
    {
      "inputs": [
        {
          "internalType": "uint256",
          "name": "tokenId",
          "type": "uint256"
        }
      ],
      "name": "tokenURI",
      "outputs": [
        {
          "internalType": "string",
          "name": "",
          "type": "string"
        }
      ],
      "stateMutability": "view",
      "type": "function"
    },
    {
      "inputs": [],
      "name": "totalSupply",
      "outputs": [
        {
          "internalType": "uint256",
          "name": "",
          "type": "uint256"
        }
      ],
      "stateMutability": "view",
      "type": "function"
    },
    {
      "inputs": [
        {
          "internalType": "address",
          "name": "from",
          "type": "address"
        },
        {
          "internalType": "address",
          "name": "to",
          "type": "address"
        },
        {
          "internalType": "uint256",
          "name": "tokenId",
          "type": "uint256"
        }
      ],
      "name": "transferFrom",
      "outputs": [],
      "stateMutability": "nonpayable",
      "type": "function"
    },
    {
      "inputs": [],
      "name": "unpause",
      "outputs": [],
      "stateMutability": "nonpayable",
      "type": "function"
    },
    {
      "inputs": [],
      "name": "updateAddressManager",
      "outputs": [],
      "stateMutability": "nonpayable",
      "type": "function"
    },
    {
      "inputs": [],
      "name": "updateAllAddresses",
      "outputs": [],
      "stateMutability": "nonpayable",
      "type": "function"
    },
    {
      "inputs": [],
      "name": "updateAllRoles",
      "outputs": [],
      "stateMutability": "nonpayable",
      "type": "function"
    },
    {
      "inputs": [],
      "name": "updateDAOAddresses",
      "outputs": [],
      "stateMutability": "nonpayable",
      "type": "function"
    },
    {
      "inputs": [
        {
          "internalType": "bytes32",
          "name": "ROLE_TO_UPDATE",
          "type": "bytes32"
        }
      ],
      "name": "updateSingleRole",
      "outputs": [],
      "stateMutability": "nonpayable",
      "type": "function"
    },
    {
      "inputs": [],
      "name": "updateTokenAddresses",
      "outputs": [],
      "stateMutability": "nonpayable",
      "type": "function"
    },
    {
      "inputs": [
        {
          "internalType": "uint256",
          "name": "_tokenId",
          "type": "uint256"
        }
      ],
      "name": "payPenalty",
      "outputs": [
        {
          "internalType": "bool",
          "name": "",
          "type": "bool"
        }
      ],
      "stateMutability": "nonpayable",
      "type": "function"
    },
    {
      "inputs": [
        {
          "internalType": "address",
          "name": "receivingAddress",
          "type": "address"
        },
        {
          "internalType": "string",
          "name": "_reason",
          "type": "string"
        }
      ],
      "name": "issueBadge",
      "outputs": [
        {
          "internalType": "uint256",
          "name": "newId",
          "type": "uint256"
        }
      ],
      "stateMutability": "nonpayable",
      "type": "function"
    },
    {
      "inputs": [
        {
          "internalType": "address",
          "name": "receivingAddress",
          "type": "address"
        },
        {
          "internalType": "string",
          "name": "_reason",
          "type": "string"
        },
        {
          "internalType": "uint256",
          "name": "_penalty",
          "type": "uint256"
        }
      ],
      "name": "issueBadge",
      "outputs": [
        {
          "internalType": "uint256",
          "name": "newId",
          "type": "uint256"
        }
      ],
      "stateMutability": "nonpayable",
      "type": "function"
    },
    {
      "inputs": [],
      "name": "updatePaymentToken",
      "outputs": [],
      "stateMutability": "nonpayable",
      "type": "function"
    }
  ],
  "bytecode": "0x60806040526000805460ff199081168255600f805463ffffffff60a01b19169055601b91909155601c80549091169055600554602280546001600160a01b0319166001600160a01b039092169190911790553480156200005e57600080fd5b50604051620059f4380380620059f4833981016040819052620000819162000cf5565b600380546001600160a01b0383166001600160a01b03199182168117909255600f80549091169091179055828282828282620000bc62000285565b620000c66200029b565b600d54620000e0906000906001600160a01b0316620003e6565b600d5462000119907f0538d24a8b7882d7b2e36af243d4af61c23e86e3daa6cb8c887b53220b2f5720906001600160a01b0316620003e6565b600a5462000152907f048bc71fa1cb2c119c339cf9cf00a97996a19a9d991ce5fe049f2fa5459e7990906001600160a01b0316620003e6565b600b546200018b907ffa8e4989e1d689f7bc5c4b25b87efb51fecdecb19ba62847e29c759e12a89acd906001600160a01b0316620003e6565b600e54620001c4907ff0f4b159a6e2a4815eb3ca3df080bfa70c9270662c59bcaa4479a456220183e6906001600160a01b0316620003e6565b620001f17f7c9d7f6f02908185bffb3f7fc9afb29fd7bf93675af8fd4b655ee05c2cee1e0e6000620003e6565b5081516200020790601090602085019062000b32565b5080516200021d90601190602084019062000b32565b50506016805460ff191690555081516200023f90601d90602085019062000b32565b5082516200025590601e90602086019062000b32565b5050600554602280546001600160a01b0319166001600160a01b039092169190911790555062000dc49350505050565b6200028f62000429565b6200029962000694565b565b600f60009054906101000a90046001600160a01b03166001600160a01b031663ff7e88ec6040518163ffffffff1660e01b815260040160206040518083038186803b158015620002ea57600080fd5b505afa158015620002ff573d6000803e3d6000fd5b505050506040513d601f19601f8201168201806040525081019062000325919062000cca565b600f60156101000a81548160ff021916908315150217905550600f60009054906101000a90046001600160a01b03166001600160a01b0316632fb565856040518163ffffffff1660e01b815260040160206040518083038186803b1580156200038d57600080fd5b505afa158015620003a2573d6000803e3d6000fd5b505050506040513d601f19601f82011682018060405250810190620003c8919062000cca565b600f8054911515600160b01b0260ff60b01b19909216919091179055565b620003fd828262000a2860201b62001adf1760201c565b60008281526002602090815260409091206200042491839062001ae962000a38821b17901c565b505050565b600f60009054906101000a90046001600160a01b03166001600160a01b031663dadf56ac6040518163ffffffff1660e01b815260040160206040518083038186803b1580156200047857600080fd5b505afa1580156200048d573d6000803e3d6000fd5b505050506040513d601f19601f82011682018060405250810190620004b3919062000cac565b600a80546001600160a01b0319166001600160a01b03928316179055600f546040805163024bebe960e01b81529051919092169163024bebe9916004808301926020929190829003018186803b1580156200050d57600080fd5b505afa15801562000522573d6000803e3d6000fd5b505050506040513d601f19601f8201168201806040525081019062000548919062000cac565b600b80546001600160a01b0319166001600160a01b03928316179055600f5460408051635b5c251f60e01b815290519190921691635b5c251f916004808301926020929190829003018186803b158015620005a257600080fd5b505afa158015620005b7573d6000803e3d6000fd5b505050506040513d601f19601f82011682018060405250810190620005dd919062000cac565b600c80546001600160a01b0319166001600160a01b03928316179055600f5460408051637310bf1d60e11b81529051919092169163e6217e3a916004808301926020929190829003018186803b1580156200063757600080fd5b505afa1580156200064c573d6000803e3d6000fd5b505050506040513d601f19601f8201168201806040525081019062000672919062000cac565b600e80546001600160a01b0319166001600160a01b0392909216919091179055565b600f60009054906101000a90046001600160a01b03166001600160a01b03166321d7f0086040518163ffffffff1660e01b815260040160206040518083038186803b158015620006e357600080fd5b505afa158015620006f8573d6000803e3d6000fd5b505050506040513d601f19601f820116820180604052508101906200071e919062000cac565b600480546001600160a01b0319166001600160a01b03928316178155600f546040805163762ddb5960e01b81529051919093169263762ddb599281810192602092909190829003018186803b1580156200077757600080fd5b505afa1580156200078c573d6000803e3d6000fd5b505050506040513d601f19601f82011682018060405250810190620007b2919062000cac565b600580546001600160a01b0319166001600160a01b03928316179055600f546040805163bfb7dc9960e01b81529051919092169163bfb7dc99916004808301926020929190829003018186803b1580156200080c57600080fd5b505afa15801562000821573d6000803e3d6000fd5b505050506040513d601f19601f8201168201806040525081019062000847919062000cac565b600680546001600160a01b0319166001600160a01b03928316179055600f5460408051633e6111eb60e21b81529051919092169163f98447ac916004808301926020929190829003018186803b158015620008a157600080fd5b505afa158015620008b6573d6000803e3d6000fd5b505050506040513d601f19601f82011682018060405250810190620008dc919062000cac565b600780546001600160a01b0319166001600160a01b03928316179055600f5460408051630fe1ba9f60e21b815290519190921691633f86ea7c916004808301926020929190829003018186803b1580156200093657600080fd5b505afa1580156200094b573d6000803e3d6000fd5b505050506040513d601f19601f8201168201806040525081019062000971919062000cac565b600880546001600160a01b0319166001600160a01b03928316179055600f5460408051636b58477560e01b815290519190921691636b584775916004808301926020929190829003018186803b158015620009cb57600080fd5b505afa158015620009e0573d6000803e3d6000fd5b505050506040513d601f19601f8201168201806040525081019062000a06919062000cac565b600980546001600160a01b0319166001600160a01b0392909216919091179055565b62000a34828262000a58565b5050565b600062000a4f836001600160a01b03841662000ae0565b90505b92915050565b60008281526001602090815260408083206001600160a01b038516845290915290205460ff1662000a345760008281526001602081815260408084206001600160a01b0386168086529252808420805460ff19169093179092559051339285917f2f8788117e7eff1d82e926ec794901d17c78024a50270940304540a733656f0d9190a45050565b600081815260018301602052604081205462000b295750815460018181018455600084815260208082209093018490558454848252828601909352604090209190915562000a52565b50600062000a52565b82805462000b409062000d71565b90600052602060002090601f01602090048101928262000b64576000855562000baf565b82601f1062000b7f57805160ff191683800117855562000baf565b8280016001018555821562000baf579182015b8281111562000baf57825182559160200191906001019062000b92565b5062000bbd92915062000bc1565b5090565b5b8082111562000bbd576000815560010162000bc2565b80516001600160a01b038116811462000bf057600080fd5b919050565b600082601f83011262000c0757600080fd5b81516001600160401b038082111562000c245762000c2462000dae565b604051601f8301601f19908116603f0116810190828211818310171562000c4f5762000c4f62000dae565b8160405283815260209250868385880101111562000c6c57600080fd5b600091505b8382101562000c90578582018301518183018401529082019062000c71565b8382111562000ca25760008385830101525b9695505050505050565b60006020828403121562000cbf57600080fd5b62000a4f8262000bd8565b60006020828403121562000cdd57600080fd5b8151801515811462000cee57600080fd5b9392505050565b60008060006060848603121562000d0b57600080fd5b83516001600160401b038082111562000d2357600080fd5b62000d318783880162000bf5565b9450602086015191508082111562000d4857600080fd5b5062000d578682870162000bf5565b92505062000d686040850162000bd8565b90509250925092565b600181811c9082168062000d8657607f821691505b6020821081141562000da857634e487b7160e01b600052602260045260246000fd5b50919050565b634e487b7160e01b600052604160045260246000fd5b614c208062000dd46000396000f3fe608060405234801561001057600080fd5b50600436106104545760003560e01c80636c353e3411610241578063c04e17e31161013b578063dea6f9c8116100c3578063f1132b3011610087578063f1132b3014610990578063f7d92d8614610998578063f98447ac146109a0578063f98db253146109b3578063ff7e88ec146109c657600080fd5b8063dea6f9c81461093a578063e6217e3a14610942578063e78c266c14610955578063e985e9c514610968578063e9a532301461097b57600080fd5b8063cce843921161010a578063cce84392146108ca578063cf4ece15146108df578063d3319254146108f4578063d547741f14610914578063dadf56ac1461092757600080fd5b8063c04e17e314610870578063c62b28e814610891578063c87b56dd146108a4578063ca15c873146108b757600080fd5b806395d89b41116101c9578063a32c5e591161018d578063a32c5e591461080e578063a78e746f14610823578063b88d4fde14610837578063bf7969671461084a578063bfb7dc991461085d57600080fd5b806395d89b41146107cb57806396ac6bf0146107d35780639ac3eaa7146107e6578063a217fddf146107f3578063a22cb465146107fb57600080fd5b806376516078116102105780637651607814610777578063794ccf6c1461078a5780638456cb591461079d5780639010d07c146107a557806391d14854146107b857600080fd5b80636c353e341461072057806370a082311461072857806373c898221461073b578063762ddb591461076457600080fd5b806336568abe1161035257806359e6f787116102da578063610c30091161029e578063610c3009146106bf5780636352211e146106c757806363ebc677146106da57806367a14f06146106fa5780636b5847751461070d57600080fd5b806359e6f787146106735780635b5c251f146106865780635c975abb146106995780635db531a1146106a45780635f413466146106ac57600080fd5b806342842e0e1161032157806342842e0e1461062a57806349b5e1051461063d5780634d84c6d8146106455780634f6ccce71461064d57806357f276ff1461066057600080fd5b806336568abe146105e95780633ab76e9f146105fc5780633f4ba83a1461060f5780633f86ea7c1461061757600080fd5b806318160ddd116103e05780632f2ff15d116103a45780632f2ff15d1461059f5780632f745c59146105b25780632fb56585146105c5578063326a55e0146105d9578063329a8cfa146105e157600080fd5b806318160ddd1461053857806321d7f0081461054057806323b872dd146105535780632436329d14610566578063248a9ca31461057b57600080fd5b8063095ea7b311610427578063095ea7b3146104d45780630ad17f8f146104e95780631142c4b01461050a578063130f63201461051d57806317314d5a1461053057600080fd5b806301ffc9a714610459578063024bebe91461048157806306fdde03146104ac578063081812fc146104c1575b600080fd5b61046c610467366004614699565b6109da565b60405190151581526020015b60405180910390f35b600b54610494906001600160a01b031681565b6040516001600160a01b039091168152602001610478565b6104b46109eb565b6040516104789190614861565b6104946104cf366004614639565b610a7d565b6104e76104e23660046145d3565b610b17565b005b6104fc6104f73660046145d3565b610c2d565b604051908152602001610478565b61046c610518366004614639565b610c5d565b6104e761052b366004614639565b610c71565b6104e7610ca6565b6019546104fc565b600454610494906001600160a01b031681565b6104e761056136600461443b565b610ccf565b6104fc600080516020614b4b83398151915281565b6104fc610589366004614639565b6000908152600160208190526040909120015490565b6104e76105ad366004614652565b610d00565b6104fc6105c03660046145d3565b610d22565b600f5461046c90600160b01b900460ff1681565b6104e7610db8565b6104e7610dc8565b6104e76105f7366004614652565b610ea8565b600f54610494906001600160a01b031681565b6104e7610eca565b600854610494906001600160a01b031681565b6104e761063836600461443b565b610f5c565b6104e7610f8d565b6104e7610dc0565b6104fc61065b366004614639565b610f95565b6104e761066e366004614639565b611028565b61046c6106813660046145d3565b61103c565b600c54610494906001600160a01b031681565b60165460ff1661046c565b6104e761106e565b600d54610494906001600160a01b031681565b6104b4611076565b6104946106d5366004614639565b611104565b6106ed6106e83660046143c8565b61117b565b604051610478919061481d565b602254610494906001600160a01b031681565b600954610494906001600160a01b031681565b6104e76111e5565b6104fc6107363660046143c8565b611211565b610494610749366004614639565b6000908152601f60205260409020546001600160a01b031690565b600554610494906001600160a01b031681565b61046c6107853660046145ff565b611298565b6104fc61079836600461452a565b61138f565b6104e7611416565b6104946107b3366004614677565b611498565b61046c6107c6366004614652565b6114b7565b6104b46114e2565b61046c6107e1366004614639565b6114f1565b601c5461046c9060ff1681565b6104fc600081565b6104e76108093660046144fc565b6115fd565b6104fc600080516020614bab83398151915281565b600f5461046c90600160a01b900460ff1681565b6104e761084536600461447c565b61167b565b6104fc61085836600461457a565b6116b3565b600654610494906001600160a01b031681565b61088361087e366004614639565b611730565b6040516104789291906147f9565b6104e761089f366004614639565b6117df565b6104b46108b2366004614639565b611830565b6104fc6108c5366004614639565b611917565b6104fc600080516020614bcb83398151915281565b6104fc600080516020614b8b83398151915281565b6104fc610902366004614639565b60216020526000908152604090205481565b6104e7610922366004614652565b61192e565b600a54610494906001600160a01b031681565b6104b4611938565b600e54610494906001600160a01b031681565b600354610494906001600160a01b031681565b61046c610976366004614402565b611945565b6104fc600080516020614b6b83398151915281565b6104e761199c565b6104e76119a4565b600754610494906001600160a01b031681565b6104b46109c1366004614639565b611a44565b600f5461046c90600160a81b900460ff1681565b60006109e582611afe565b92915050565b6060601080546109fa90614a39565b80601f0160208091040260200160405190810160405280929190818152602001828054610a2690614a39565b8015610a735780601f10610a4857610100808354040283529160200191610a73565b820191906000526020600020905b815481529060010190602001808311610a5657829003601f168201915b5050505050905090565b6000818152601260205260408120546001600160a01b0316610afb5760405162461bcd60e51b815260206004820152602c60248201527f4552433732313a20617070726f76656420717565727920666f72206e6f6e657860448201526b34b9ba32b73a103a37b5b2b760a11b60648201526084015b60405180910390fd5b506000908152601460205260409020546001600160a01b031690565b6000610b2282611104565b9050806001600160a01b0316836001600160a01b03161415610b905760405162461bcd60e51b815260206004820152602160248201527f4552433732313a20617070726f76616c20746f2063757272656e74206f776e656044820152603960f91b6064820152608401610af2565b336001600160a01b0382161480610bac5750610bac8133611945565b610c1e5760405162461bcd60e51b815260206004820152603860248201527f4552433732313a20617070726f76652063616c6c6572206973206e6f74206f7760448201527f6e6572206e6f7220617070726f76656420666f7220616c6c00000000000000006064820152608401610af2565b610c288383611b23565b505050565b602080528160005260406000208181548110610c4857600080fd5b90600052602060002001600091509150505481565b6000610c6882611b4a565b50600192915050565b610c7b6001611e5a565b50610c8581611f0c565b50610c8f81612087565b50610c9a6000611e5a565b610ca357600080fd5b50565b610cb06001611e5a565b50610cb9612210565b50610cc46000611e5a565b610ccd57600080fd5b565b610cd93382612356565b610cf55760405162461bcd60e51b8152600401610af2906148f6565b610c2883838361246e565b610d0a828261249f565b6000828152600260205260409020610c289082611ae9565b6000610d2d83611211565b8210610d8f5760405162461bcd60e51b815260206004820152602b60248201527f455243373231456e756d657261626c653a206f776e657220696e646578206f7560448201526a74206f6620626f756e647360a81b6064820152608401610af2565b506001600160a01b03919091166000908152601760209081526040808320938352929052205490565b610dc06124d9565b610ccd612734565b610de0600080516020614bab833981519152336114b7565b80610dfe5750610dfe600080516020614b6b833981519152336114b7565b80610e1c5750610e1c600080516020614b4b833981519152336114b7565b610e385760405162461bcd60e51b8152600401610af290614874565b600f60009054906101000a90046001600160a01b03166001600160a01b031663329a8cfa6040518163ffffffff1660e01b8152600401600060405180830381600087803b158015610e8857600080fd5b505af1158015610e9c573d6000803e3d6000fd5b50505050610ccd61106e565b610eb28282612ab0565b6000828152600260205260409020610c289082612b2a565b610ee2600080516020614b6b833981519152336114b7565b80610f005750610f00600080516020614bab833981519152336114b7565b610f445760405162461bcd60e51b8152602060048201526015602482015274596f75277265206e6f742074686520476176656c7360581b6044820152606401610af2565b601c5460ff1615610f5457600080fd5b610ccd612b3f565b610f663382612356565b610f825760405162461bcd60e51b8152600401610af2906148f6565b610c28838383612bd2565b610ccd6124d9565b6000610fa060195490565b82106110035760405162461bcd60e51b815260206004820152602c60248201527f455243373231456e756d657261626c653a20676c6f62616c20696e646578206f60448201526b7574206f6620626f756e647360a01b6064820152608401610af2565b6019828154811061101657611016614ae5565b90600052602060002001549050919050565b6110326001611e5a565b50610c8f81612bed565b6000818152601f60205260408120546001600160a01b0384811691161415611066575060016109e5565b5060006109e5565b610ccd612e48565b601e805461108390614a39565b80601f01602080910402602001604051908101604052809291908181526020018280546110af90614a39565b80156110fc5780601f106110d1576101008083540402835291602001916110fc565b820191906000526020600020905b8154815290600101906020018083116110df57829003601f168201915b505050505081565b6000818152601260205260408120546001600160a01b0316806109e55760405162461bcd60e51b815260206004820152602960248201527f4552433732313a206f776e657220717565727920666f72206e6f6e657869737460448201526832b73a103a37b5b2b760b91b6064820152608401610af2565b6001600160a01b038116600090815260208080526040918290208054835181840281018401909452808452606093928301828280156111d957602002820191906000526020600020905b8154815260200190600101908083116111c5575b50505050509050919050565b6111ed612734565b600554602280546001600160a01b0319166001600160a01b03909216919091179055565b60006001600160a01b03821661127c5760405162461bcd60e51b815260206004820152602a60248201527f4552433732313a2062616c616e636520717565727920666f7220746865207a65604482015269726f206164647265737360b01b6064820152608401610af2565b506001600160a01b031660009081526013602052604090205490565b60006112b2600080516020614b6b833981519152336114b7565b806112d057506112d0600080516020614b4b833981519152336114b7565b806112ee57506112ee600080516020614bab833981519152336114b7565b6112f757600080fd5b600f54600160b01b810460ff9081161515600160a81b90920416151514600114806113355750611335600080516020614bab833981519152336114b7565b6113745760405162461bcd60e51b815260206004820152601060248201526f436f757274204d75737420416772656560801b6044820152606401610af2565b6001821515141561138757610c68612f8b565b506000919050565b60006113a9600080516020614bab833981519152336114b7565b806113c757506113c7600080516020614b6b833981519152336114b7565b806113e557506113e5600080516020614b4b833981519152336114b7565b6114015760405162461bcd60e51b8152600401610af290614874565b600061140e848483612fdd565b949350505050565b61142e600080516020614b6b833981519152336114b7565b8061144c575061144c600080516020614bab833981519152336114b7565b6114905760405162461bcd60e51b8152602060048201526015602482015274596f75277265206e6f742074686520476176656c7360581b6044820152606401610af2565b610ccd613072565b60008281526002602052604081206114b090836130ed565b9392505050565b60009182526001602090815260408084206001600160a01b0393909316845291905290205460ff1690565b6060601180546109fa90614a39565b600061150b600080516020614b6b833981519152336114b7565b806115295750611529600080516020614b4b833981519152336114b7565b806115475750611547600080516020614bab833981519152336114b7565b61155057600080fd5b600f54600160b01b810460ff9081161515600160a81b909204161515146001148061158e575061158e600080516020614bab833981519152336114b7565b6115cd5760405162461bcd60e51b815260206004820152601060248201526f436f757274204d75737420416772656560801b6044820152606401610af2565b8160451415611387576115de612f8b565b506115e7613072565b50601c805460ff19166001908117909155919050565b611615600080516020614bab833981519152336114b7565b806116335750611633600080516020614b6b833981519152336114b7565b806116515750611651600080516020614b4b833981519152336114b7565b61166d5760405162461bcd60e51b8152600401610af2906148f6565b61167782826130f9565b5050565b6116853383612356565b6116a15760405162461bcd60e51b8152600401610af290614943565b6116ad848484846131be565b50505050565b60006116cd600080516020614bab833981519152336114b7565b806116eb57506116eb600080516020614b6b833981519152336114b7565b806117095750611709600080516020614b4b833981519152336114b7565b6117255760405162461bcd60e51b8152600401610af290614874565b61140e848484612fdd565b601f60205260009081526040902080546001820180546001600160a01b03909216929161175c90614a39565b80601f016020809104026020016040519081016040528092919081815260200182805461178890614a39565b80156117d55780601f106117aa576101008083540402835291602001916117d5565b820191906000526020600020905b8154815290600101906020018083116117b857829003601f168201915b5050505050905082565b6117e93382612356565b6118275760405162461bcd60e51b815260206004820152600f60248201526e4e696365205472792c204275636b6f60881b6044820152606401610af2565b610ca3816131f1565b6000818152601260205260409020546060906001600160a01b03166118af5760405162461bcd60e51b815260206004820152602f60248201527f4552433732314d657461646174613a2055524920717565727920666f72206e6f60448201526e3732bc34b9ba32b73a103a37b5b2b760891b6064820152608401610af2565b60006118c660408051602081019091526000815290565b905060008151116118e657604051806020016040528060008152506114b0565b806118f084613298565b604051602001611901929190614718565b6040516020818303038152906040529392505050565b60008181526002602052604081206109e590613396565b610eb282826133a0565b601d805461108390614a39565b600080611960600080516020614bab833981519152846114b7565b8061197e575061197e600080516020614b6b833981519152846114b7565b8061140e575061140e600080516020614b4b833981519152846114b7565b610ccd6133da565b6119ae6001611e5a565b506119c6600080516020614bab833981519152612bed565b506119de600080516020614b6b833981519152612bed565b506119f6600080516020614b4b833981519152612bed565b50611a0e600080516020614b8b833981519152612bed565b50611a26600080516020614bcb833981519152612bed565b50611a316000612bed565b50611a3a612e48565b610cc46000611e5a565b6000818152601f60205260409020600101805460609190611a6490614a39565b80601f0160208091040260200160405190810160405280929190818152602001828054611a9090614a39565b80156111d95780601f10611ab2576101008083540402835291602001916111d9565b820191906000526020600020905b815481529060010190602001808311611ac05750939695505050505050565b6116778282613511565b60006114b0836001600160a01b03841661357c565b60006001600160e01b0319821663780e9d6360e01b14806109e557506109e5826135c3565b611b3b600080516020614bab833981519152336114b7565b15611677576116778282613603565b600081815260216020526040812054819080611ba85760405162461bcd60e51b815260206004820152601c60248201527f4e6f2070656e616c747920666f72207468697320746f6b656e496421000000006044820152606401610af2565b6022546040516370a0823160e01b815233600482015282916001600160a01b0316906370a082319060240160206040518083038186803b158015611beb57600080fd5b505afa158015611bff573d6000803e3d6000fd5b505050506040513d601f19601f82011682018060405250810190611c2391906146d3565b1015611c715760405162461bcd60e51b815260206004820152601a60248201527f596f7520446f6e2774204861766520456e6f75676820215265640000000000006044820152606401610af2565b6022546040516370a0823160e01b815230600482015282916001600160a01b0316906370a082319060240160206040518083038186803b158015611cb457600080fd5b505afa158015611cc8573d6000803e3d6000fd5b505050506040513d601f19601f82011682018060405250810190611cec91906146d3565b611cf69190614994565b6022546040516323b872dd60e01b8152336004820152306024820152604481018490529193506001600160a01b0316906323b872dd90606401602060405180830381600087803b158015611d4957600080fd5b505af1158015611d5d573d6000803e3d6000fd5b505050506040513d601f19601f82011682018060405250810190611d81919061461c565b506022546040516370a0823160e01b815230600482015283916001600160a01b0316906370a082319060240160206040518083038186803b158015611dc557600080fd5b505afa158015611dd9573d6000803e3d6000fd5b505050506040513d601f19601f82011682018060405250810190611dfd91906146d3565b14611e435760405162461bcd60e51b8152602060048201526016602482015275115c9c9bdc88151c985b9cd9995c9a5b99c80854915160521b6044820152606401610af2565b505050600090815260216020526040812055600190565b6000805460ff168215158115151415611eb55760405162461bcd60e51b815260206004820152601960248201527f416c72656164792053657420746f20746861742076616c7565000000000000006044820152606401610af2565b6000805484151560ff19909116811790915560ff1615158115151415610c685760405162461bcd60e51b815260206004820152600c60248201526b29b0b33a32bc9022b93937b960a11b6044820152606401610af2565b60405163ca15c87360e01b8152600481018290526000908190309063ca15c8739060240160206040518083038186803b158015611f4857600080fd5b505afa158015611f5c573d6000803e3d6000fd5b505050506040513d601f19601f82011682018060405250810190611f8091906146d3565b905060005b8181101561207d57604051632404341f60e21b815260048101859052602481018290526000903090639010d07c9060440160206040518083038186803b158015611fce57600080fd5b505afa158015611fe2573d6000803e3d6000fd5b505050506040513d601f19601f8201168201806040525081019061200691906143e5565b60405163d547741f60e01b8152600481018790526001600160a01b0382166024820152909150309063d547741f90604401600060405180830381600087803b15801561205157600080fd5b505af1158015612065573d6000803e3d6000fd5b5050505050808061207590614a74565b915050611f85565b5060019392505050565b600f5460405163ca15c87360e01b81526004810183905260009182916001600160a01b039091169063ca15c8739060240160206040518083038186803b1580156120d057600080fd5b505afa1580156120e4573d6000803e3d6000fd5b505050506040513d601f19601f8201168201806040525081019061210891906146d3565b905060005b8181101561207d57600f54604051632404341f60e21b815260048101869052602481018390526000916001600160a01b031690639010d07c9060440160206040518083038186803b15801561216157600080fd5b505afa158015612175573d6000803e3d6000fd5b505050506040513d601f19601f8201168201806040525081019061219991906143e5565b604051632f2ff15d60e01b8152600481018790526001600160a01b03821660248201529091503090632f2ff15d90604401600060405180830381600087803b1580156121e457600080fd5b505af11580156121f8573d6000803e3d6000fd5b5050505050808061220890614a74565b91505061210d565b6000612229600080516020614bab833981519152611f0c565b50612241600080516020614bab833981519152612087565b61224a57600080fd5b612261600080516020614b6b833981519152611f0c565b50612279600080516020614b6b833981519152612087565b61228257600080fd5b612299600080516020614b4b833981519152611f0c565b506122b1600080516020614b4b833981519152612087565b6122ba57600080fd5b6122d1600080516020614b8b833981519152611f0c565b506122e9600080516020614b8b833981519152612087565b6122f257600080fd5b612309600080516020614bcb833981519152611f0c565b50612321600080516020614bcb833981519152612087565b61232a57600080fd5b6123346000611f0c565b5061233f6000612087565b61234857600080fd5b612350612e48565b50600190565b6000818152601260205260408120546001600160a01b03166123cf5760405162461bcd60e51b815260206004820152602c60248201527f4552433732313a206f70657261746f7220717565727920666f72206e6f6e657860448201526b34b9ba32b73a103a37b5b2b760a11b6064820152608401610af2565b60006123da83611104565b9050806001600160a01b0316846001600160a01b0316141561245c57600083815260216020526040902054156124525760405162461bcd60e51b815260206004820152601760248201527f506c656173652050617920596f75722050656e616c74790000000000000000006044820152606401610af2565b60019150506109e5565b6124668185611945565b9150506109e5565b6124783382612356565b6124945760405162461bcd60e51b8152600401610af290614943565b610c28838383613671565b600082815260016020819052604082200154905460ff16156124c557610c288383613511565b6124cf813361381c565b610c288383613511565b600f60009054906101000a90046001600160a01b03166001600160a01b031663dadf56ac6040518163ffffffff1660e01b815260040160206040518083038186803b15801561252757600080fd5b505afa15801561253b573d6000803e3d6000fd5b505050506040513d601f19601f8201168201806040525081019061255f91906143e5565b600a80546001600160a01b0319166001600160a01b03928316179055600f546040805163024bebe960e01b81529051919092169163024bebe9916004808301926020929190829003018186803b1580156125b857600080fd5b505afa1580156125cc573d6000803e3d6000fd5b505050506040513d601f19601f820116820180604052508101906125f091906143e5565b600b80546001600160a01b0319166001600160a01b03928316179055600f5460408051635b5c251f60e01b815290519190921691635b5c251f916004808301926020929190829003018186803b15801561264957600080fd5b505afa15801561265d573d6000803e3d6000fd5b505050506040513d601f19601f8201168201806040525081019061268191906143e5565b600c80546001600160a01b0319166001600160a01b03928316179055600f5460408051637310bf1d60e11b81529051919092169163e6217e3a916004808301926020929190829003018186803b1580156126da57600080fd5b505afa1580156126ee573d6000803e3d6000fd5b505050506040513d601f19601f8201168201806040525081019061271291906143e5565b600e80546001600160a01b0319166001600160a01b0392909216919091179055565b600f60009054906101000a90046001600160a01b03166001600160a01b03166321d7f0086040518163ffffffff1660e01b815260040160206040518083038186803b15801561278257600080fd5b505afa158015612796573d6000803e3d6000fd5b505050506040513d601f19601f820116820180604052508101906127ba91906143e5565b600480546001600160a01b0319166001600160a01b03928316178155600f546040805163762ddb5960e01b81529051919093169263762ddb599281810192602092909190829003018186803b15801561281257600080fd5b505afa158015612826573d6000803e3d6000fd5b505050506040513d601f19601f8201168201806040525081019061284a91906143e5565b600580546001600160a01b0319166001600160a01b03928316179055600f546040805163bfb7dc9960e01b81529051919092169163bfb7dc99916004808301926020929190829003018186803b1580156128a357600080fd5b505afa1580156128b7573d6000803e3d6000fd5b505050506040513d601f19601f820116820180604052508101906128db91906143e5565b600680546001600160a01b0319166001600160a01b03928316179055600f5460408051633e6111eb60e21b81529051919092169163f98447ac916004808301926020929190829003018186803b15801561293457600080fd5b505afa158015612948573d6000803e3d6000fd5b505050506040513d601f19601f8201168201806040525081019061296c91906143e5565b600780546001600160a01b0319166001600160a01b03928316179055600f5460408051630fe1ba9f60e21b815290519190921691633f86ea7c916004808301926020929190829003018186803b1580156129c557600080fd5b505afa1580156129d9573d6000803e3d6000fd5b505050506040513d601f19601f820116820180604052508101906129fd91906143e5565b600880546001600160a01b0319166001600160a01b03928316179055600f5460408051636b58477560e01b815290519190921691636b584775916004808301926020929190829003018186803b158015612a5657600080fd5b505afa158015612a6a573d6000803e3d6000fd5b505050506040513d601f19601f82011682018060405250810190612a8e91906143e5565b600980546001600160a01b0319166001600160a01b0392909216919091179055565b6001600160a01b0381163314612b205760405162461bcd60e51b815260206004820152602f60248201527f416363657373436f6e74726f6c3a2063616e206f6e6c792072656e6f756e636560448201526e103937b632b9903337b91039b2b63360891b6064820152608401610af2565b6116778282613880565b60006114b0836001600160a01b0384166138e7565b60165460ff16612b885760405162461bcd60e51b815260206004820152601460248201527314185d5cd8589b194e881b9bdd081c185d5cd95960621b6044820152606401610af2565b6016805460ff191690557f5db9ee0a495bf2e6ff9c91a7834c1ba4fdd244a5e8aa4e537bd38aeae4b073aa335b6040516001600160a01b03909116815260200160405180910390a1565b610c288383836040518060200160405280600081525061167b565b600f5460405163ca15c87360e01b81526004810183905260009182916001600160a01b039091169063ca15c8739060240160206040518083038186803b158015612c3657600080fd5b505afa158015612c4a573d6000803e3d6000fd5b505050506040513d601f19601f82011682018060405250810190612c6e91906146d3565b60405163ca15c87360e01b815260048101859052909150600090309063ca15c8739060240160206040518083038186803b158015612cab57600080fd5b505afa158015612cbf573d6000803e3d6000fd5b505050506040513d601f19601f82011682018060405250810190612ce391906146d3565b90506000612cf182846149df565b905060008111612d365760405162461bcd60e51b815260206004820152601060248201526f4e6f7468696e6720746f2073796e632160801b6044820152606401610af2565b60005b81811015612e3c57600f54604051632404341f60e21b815260048101889052602481018390526000916001600160a01b031690639010d07c9060440160206040518083038186803b158015612d8d57600080fd5b505afa158015612da1573d6000803e3d6000fd5b505050506040513d601f19601f82011682018060405250810190612dc591906143e5565b604051632f2ff15d60e01b8152600481018990526001600160a01b03821660248201529091503090632f2ff15d90604401600060405180830381600087803b158015612e1057600080fd5b505af1158015612e24573d6000803e3d6000fd5b50505050508080612e3490614a74565b915050612d39565b50600195945050505050565b600f60009054906101000a90046001600160a01b03166001600160a01b031663ff7e88ec6040518163ffffffff1660e01b815260040160206040518083038186803b158015612e9657600080fd5b505afa158015612eaa573d6000803e3d6000fd5b505050506040513d601f19601f82011682018060405250810190612ece919061461c565b600f60156101000a81548160ff021916908315150217905550600f60009054906101000a90046001600160a01b03166001600160a01b0316632fb565856040518163ffffffff1660e01b815260040160206040518083038186803b158015612f3557600080fd5b505afa158015612f49573d6000803e3d6000fd5b505050506040513d601f19601f82011682018060405250810190612f6d919061461c565b600f8054911515600160b01b0260ff60b01b19909216919091179055565b6000805b601b54811015612fd1576000818152601260205260409020546001600160a01b031615612fbf57612fbf816131f1565b80612fc981614a74565b915050612f8f565b50506000601b55600190565b6000612ff7600080516020614bab833981519152336114b7565b806130155750613015600080516020614b6b833981519152336114b7565b806130335750613033600080516020614b4b833981519152336114b7565b61304f5760405162461bcd60e51b8152600401610af290614874565b61305984846139d4565b6000818152602160205260409020929092555092915050565b60165460ff16156130b85760405162461bcd60e51b815260206004820152601060248201526f14185d5cd8589b194e881c185d5cd95960821b6044820152606401610af2565b6016805460ff191660011790557f62e78cea01bee320cd4e420270b5ea74000d11b0c9f74754ebdbfc544b05a258612bb53390565b60006114b08383613a50565b6001600160a01b0382163314156131525760405162461bcd60e51b815260206004820152601960248201527f4552433732313a20617070726f766520746f2063616c6c6572000000000000006044820152606401610af2565b3360008181526015602090815260408083206001600160a01b03871680855290835292819020805460ff191686151590811790915590519081529192917f17307eab39ab6107e8899845ad3d59bd9653f200f220920489ca2b5937696c31910160405180910390a35050565b6131c9848484613671565b6131d584848484613ad6565b6116ad5760405162461bcd60e51b8152600401610af2906148a4565b60006131fc82611104565b905061320a81600084613be3565b613215600083611b23565b6001600160a01b038116600090815260136020526040812080546001929061323e9084906149df565b909155505060008281526012602052604080822080546001600160a01b0319169055518391906001600160a01b038416907fddf252ad1be2c89b69c2b068fc378daa952ba7f163c4a11628f55a4df523b3ef908390a45050565b6060816132bc5750506040805180820190915260018152600360fc1b602082015290565b8160005b81156132e657806132d081614a74565b91506132df9050600a836149ac565b91506132c0565b60008167ffffffffffffffff81111561330157613301614afb565b6040519080825280601f01601f19166020018201604052801561332b576020820181803683370190505b5090505b841561140e576133406001836149df565b915061334d600a86614a8f565b613358906030614994565b60f81b81838151811061336d5761336d614ae5565b60200101906001600160f81b031916908160001a90535061338f600a866149ac565b945061332f565b60006109e5825490565b600082815260016020819052604082200154905460ff16156133c657610c288383613880565b6133d0813361381c565b610c288383613880565b600f60009054906101000a90046001600160a01b03166001600160a01b031663a44b93256040518163ffffffff1660e01b815260040160206040518083038186803b15801561342857600080fd5b505afa15801561343c573d6000803e3d6000fd5b505050506040513d601f19601f82011682018060405250810190613460919061461c565b61346957600080fd5b600f60009054906101000a90046001600160a01b03166001600160a01b031663ac7cfac36040518163ffffffff1660e01b815260040160206040518083038186803b1580156134b757600080fd5b505afa1580156134cb573d6000803e3d6000fd5b505050506040513d601f19601f820116820180604052508101906134ef91906143e5565b600380546001600160a01b0319166001600160a01b0392909216919091179055565b61351b82826114b7565b6116775760008281526001602081815260408084206001600160a01b0386168086529252808420805460ff19169093179092559051339285917f2f8788117e7eff1d82e926ec794901d17c78024a50270940304540a733656f0d9190a45050565b6000818152600183016020526040812054611066575081546001818101845560008481526020808220909301849055845484825282860190935260409020919091556109e5565b60006001600160e01b031982166380ac58cd60e01b14806135f457506001600160e01b03198216635b5e139f60e01b145b806109e557506109e582613bee565b600081815260146020526040902080546001600160a01b0319166001600160a01b038416908117909155819061363882611104565b6001600160a01b03167f8c5be1e5ebec7d5bd14f71427d1e84f3dd0314c0f7b2291e5b200ac8c7c3b92560405160405180910390a45050565b826001600160a01b031661368482611104565b6001600160a01b0316146136ec5760405162461bcd60e51b815260206004820152602960248201527f4552433732313a207472616e73666572206f6620746f6b656e2074686174206960448201526839903737ba1037bbb760b91b6064820152608401610af2565b6001600160a01b03821661374e5760405162461bcd60e51b8152602060048201526024808201527f4552433732313a207472616e7366657220746f20746865207a65726f206164646044820152637265737360e01b6064820152608401610af2565b613759838383613be3565b613764600082611b23565b6001600160a01b038316600090815260136020526040812080546001929061378d9084906149df565b90915550506001600160a01b03821660009081526013602052604081208054600192906137bb908490614994565b909155505060008181526012602052604080822080546001600160a01b0319166001600160a01b0386811691821790925591518493918716917fddf252ad1be2c89b69c2b068fc378daa952ba7f163c4a11628f55a4df523b3ef91a4505050565b61382682826114b7565b6116775761383e816001600160a01b03166014613c13565b613849836020613c13565b60405160200161385a929190614747565b60408051601f198184030181529082905262461bcd60e51b8252610af291600401614861565b61388a82826114b7565b156116775760008281526001602090815260408083206001600160a01b0385168085529252808320805460ff1916905551339285917ff6391f5c32d9c69d2a47ea670b442974b53935d1edc7fd64eb21e047a839171b9190a45050565b600081815260018301602052604081205480156139ca57600061390b6001836149df565b855490915060009061391f906001906149df565b9050600086600001828154811061393857613938614ae5565b906000526020600020015490508087600001848154811061395b5761395b614ae5565b60009182526020808320909101929092558281526001890190915260409020849055865487908061398e5761398e614acf565b600190038181906000526020600020016000905590558660010160008781526020019081526020016000206000905560019450505050506109e5565b60009150506109e5565b60006139ee600080516020614bab833981519152336114b7565b80613a0c5750613a0c600080516020614b6b833981519152336114b7565b80613a2a5750613a2a600080516020614b4b833981519152336114b7565b613a465760405162461bcd60e51b8152600401610af290614874565b6114b08383613daf565b81546000908210613aae5760405162461bcd60e51b815260206004820152602260248201527f456e756d657261626c655365743a20696e646578206f7574206f6620626f756e604482015261647360f01b6064820152608401610af2565b826000018281548110613ac357613ac3614ae5565b9060005260206000200154905092915050565b60006001600160a01b0384163b15613bd857604051630a85bd0160e11b81526001600160a01b0385169063150b7a0290613b1a9033908990889088906004016147bc565b602060405180830381600087803b158015613b3457600080fd5b505af1925050508015613b64575060408051601f3d908101601f19168201909252613b61918101906146b6565b60015b613bbe573d808015613b92576040519150601f19603f3d011682016040523d82523d6000602084013e613b97565b606091505b508051613bb65760405162461bcd60e51b8152600401610af2906148a4565b805181602001fd5b6001600160e01b031916630a85bd0160e11b14905061140e565b506001949350505050565b610c28838383613e14565b60006001600160e01b03198216635a05180f60e01b14806109e557506109e582613ecc565b60606000613c228360026149c0565b613c2d906002614994565b67ffffffffffffffff811115613c4557613c45614afb565b6040519080825280601f01601f191660200182016040528015613c6f576020820181803683370190505b509050600360fc1b81600081518110613c8a57613c8a614ae5565b60200101906001600160f81b031916908160001a905350600f60fb1b81600181518110613cb957613cb9614ae5565b60200101906001600160f81b031916908160001a9053506000613cdd8460026149c0565b613ce8906001614994565b90505b6001811115613d60576f181899199a1a9b1b9c1cb0b131b232b360811b85600f1660108110613d1c57613d1c614ae5565b1a60f81b828281518110613d3257613d32614ae5565b60200101906001600160f81b031916908160001a90535060049490941c93613d5981614a22565b9050613ceb565b5083156114b05760405162461bcd60e51b815260206004820181905260248201527f537472696e67733a20686578206c656e67746820696e73756666696369656e746044820152606401610af2565b60006001600160a01b0383163314801590613dd257506001600160a01b03831615155b613ddb57600080fd5b50601b54613dea338383613f01565b613df683601b54613f6e565b6001601b6000828254613e099190614994565b909155505092915050565b6001600160a01b038316613e6f57613e6a81601980546000838152601a60205260408120829055600182018355919091527f944998273e477b495144fb8794c914197f3ccb46be2900f4698fd0ef743c96950155565b613e92565b816001600160a01b0316836001600160a01b031614613e9257613e928382613f88565b6001600160a01b038216613ea957610c2881614025565b826001600160a01b0316826001600160a01b031614610c2857610c2882826140d4565b60006001600160e01b03198216637965db0b60e01b14806109e557506301ffc9a760e01b6001600160e01b03198316146109e5565b6000818152601f6020908152604090912080546001600160a01b0319166001600160a01b0386161781558351613f3f92600190920191850190614299565b506001600160a01b03909216600090815260208080526040822080546001810182559083529120019190915550565b611677828260405180602001604052806000815250614118565b60006001613f9584611211565b613f9f91906149df565b600083815260186020526040902054909150808214613ff2576001600160a01b03841660009081526017602090815260408083208584528252808320548484528184208190558352601890915290208190555b5060009182526018602090815260408084208490556001600160a01b039094168352601781528383209183525290812055565b601954600090614037906001906149df565b6000838152601a60205260408120546019805493945090928490811061405f5761405f614ae5565b90600052602060002001549050806019838154811061408057614080614ae5565b6000918252602080832090910192909255828152601a909152604080822084905585825281205560198054806140b8576140b8614acf565b6001900381819060005260206000200160009055905550505050565b60006140df83611211565b6001600160a01b039093166000908152601760209081526040808320868452825280832085905593825260189052919091209190915550565b614122838361414b565b61412f6000848484613ad6565b610c285760405162461bcd60e51b8152600401610af2906148a4565b6001600160a01b0382166141a15760405162461bcd60e51b815260206004820181905260248201527f4552433732313a206d696e7420746f20746865207a65726f20616464726573736044820152606401610af2565b6000818152601260205260409020546001600160a01b0316156142065760405162461bcd60e51b815260206004820152601c60248201527f4552433732313a20746f6b656e20616c7265616479206d696e746564000000006044820152606401610af2565b61421260008383613be3565b6001600160a01b038216600090815260136020526040812080546001929061423b908490614994565b909155505060008181526012602052604080822080546001600160a01b0319166001600160a01b03861690811790915590518392907fddf252ad1be2c89b69c2b068fc378daa952ba7f163c4a11628f55a4df523b3ef908290a45050565b8280546142a590614a39565b90600052602060002090601f0160209004810192826142c7576000855561430d565b82601f106142e057805160ff191683800117855561430d565b8280016001018555821561430d579182015b8281111561430d5782518255916020019190600101906142f2565b5061431992915061431d565b5090565b5b80821115614319576000815560010161431e565b600067ffffffffffffffff8084111561434d5761434d614afb565b604051601f8501601f19908116603f0116810190828211818310171561437557614375614afb565b8160405280935085815286868601111561438e57600080fd5b858560208301376000602087830101525050509392505050565b600082601f8301126143b957600080fd5b6114b083833560208501614332565b6000602082840312156143da57600080fd5b81356114b081614b11565b6000602082840312156143f757600080fd5b81516114b081614b11565b6000806040838503121561441557600080fd5b823561442081614b11565b9150602083013561443081614b11565b809150509250929050565b60008060006060848603121561445057600080fd5b833561445b81614b11565b9250602084013561446b81614b11565b929592945050506040919091013590565b6000806000806080858703121561449257600080fd5b843561449d81614b11565b935060208501356144ad81614b11565b925060408501359150606085013567ffffffffffffffff8111156144d057600080fd5b8501601f810187136144e157600080fd5b6144f087823560208401614332565b91505092959194509250565b6000806040838503121561450f57600080fd5b823561451a81614b11565b9150602083013561443081614b26565b6000806040838503121561453d57600080fd5b823561454881614b11565b9150602083013567ffffffffffffffff81111561456457600080fd5b614570858286016143a8565b9150509250929050565b60008060006060848603121561458f57600080fd5b833561459a81614b11565b9250602084013567ffffffffffffffff8111156145b657600080fd5b6145c2868287016143a8565b925050604084013590509250925092565b600080604083850312156145e657600080fd5b82356145f181614b11565b946020939093013593505050565b60006020828403121561461157600080fd5b81356114b081614b26565b60006020828403121561462e57600080fd5b81516114b081614b26565b60006020828403121561464b57600080fd5b5035919050565b6000806040838503121561466557600080fd5b82359150602083013561443081614b11565b6000806040838503121561468a57600080fd5b50508035926020909101359150565b6000602082840312156146ab57600080fd5b81356114b081614b34565b6000602082840312156146c857600080fd5b81516114b081614b34565b6000602082840312156146e557600080fd5b5051919050565b600081518084526147048160208601602086016149f6565b601f01601f19169290920160200192915050565b6000835161472a8184602088016149f6565b83519083019061473e8183602088016149f6565b01949350505050565b7f416363657373436f6e74726f6c3a206163636f756e742000000000000000000081526000835161477f8160178501602088016149f6565b7001034b99036b4b9b9b4b733903937b6329607d1b60179184019182015283516147b08160288401602088016149f6565b01602801949350505050565b6001600160a01b03858116825284166020820152604081018390526080606082018190526000906147ef908301846146ec565b9695505050505050565b6001600160a01b038316815260406020820181905260009061140e908301846146ec565b6020808252825182820181905260009190848201906040850190845b8181101561485557835183529284019291840191600101614839565b50909695505050505050565b6020815260006114b060208301846146ec565b6020808252601690820152752cb7ba93b932903737ba103a3432903130b4b634b33360511b604082015260600190565b60208082526032908201527f4552433732313a207472616e7366657220746f206e6f6e20455243373231526560408201527131b2b4bb32b91034b6b83632b6b2b73a32b960711b606082015260800190565b6020808252602d908201527f596f7520646f206e6f742068617665207065726d697373696f6e20746f206d6f60408201526c7665207468697320626164676560981b606082015260800190565b60208082526031908201527f4552433732313a207472616e736665722063616c6c6572206973206e6f74206f6040820152701ddb995c881b9bdc88185c1c1c9bdd9959607a1b606082015260800190565b600082198211156149a7576149a7614aa3565b500190565b6000826149bb576149bb614ab9565b500490565b60008160001904831182151516156149da576149da614aa3565b500290565b6000828210156149f1576149f1614aa3565b500390565b60005b83811015614a115781810151838201526020016149f9565b838111156116ad5750506000910152565b600081614a3157614a31614aa3565b506000190190565b600181811c90821680614a4d57607f821691505b60208210811415614a6e57634e487b7160e01b600052602260045260246000fd5b50919050565b6000600019821415614a8857614a88614aa3565b5060010190565b600082614a9e57614a9e614ab9565b500690565b634e487b7160e01b600052601160045260246000fd5b634e487b7160e01b600052601260045260246000fd5b634e487b7160e01b600052603160045260246000fd5b634e487b7160e01b600052603260045260246000fd5b634e487b7160e01b600052604160045260246000fd5b6001600160a01b0381168114610ca357600080fd5b8015158114610ca357600080fd5b6001600160e01b031981168114610ca357600080fdfefa8e4989e1d689f7bc5c4b25b87efb51fecdecb19ba62847e29c759e12a89acd048bc71fa1cb2c119c339cf9cf00a97996a19a9d991ce5fe049f2fa5459e7990f0f4b159a6e2a4815eb3ca3df080bfa70c9270662c59bcaa4479a456220183e60538d24a8b7882d7b2e36af243d4af61c23e86e3daa6cb8c887b53220b2f57207c9d7f6f02908185bffb3f7fc9afb29fd7bf93675af8fd4b655ee05c2cee1e0ea26469706673582212208c118837929a7c700789394b881ef43920286e237a0573472713df19469e364364736f6c63430008060033",
  "immutableReferences": {},
  "source": "// SPDX-License-Identifier: MIT\n\npragma solidity ^0.8.0;\n\nimport \"@openzeppelin/contracts/token/ERC20/ERC20.sol\";\n\nimport \"./GenericBadge.sol\";\n\n\ncontract PenaltyBadge is GenericBadge {\n\n    mapping (uint => uint) public Penalty;\n\n    ERC20 public redPens = ERC20(RedPenTokenAddress);\n \n    constructor(string memory _badgeName, string memory _badgeSymbol, address _AddressManagerAddress)\n        GenericBadge(_badgeName, _badgeSymbol, _AddressManagerAddress)\n    {\n        redPens = ERC20(RedPenTokenAddress);\n    }      \n\n    function payPenalty(uint _tokenId) public virtual returns (bool) {\n       \n        _payPenalty(_tokenId);\n\n        return true;\n    }\n\n    function _payPenalty(uint _tokenId) internal virtual returns (bool) {\n        uint256 expectedContractBalance;\n        uint256 penaltyCost = Penalty[_tokenId];\n    \n        require (penaltyCost > 0, \"No penalty for this tokenId!\");\n        \n        require(redPens.balanceOf(msg.sender) >= penaltyCost, \"You Don't Have Enough !Red\");\n        expectedContractBalance = redPens.balanceOf(address(this)) + penaltyCost;\n        redPens.transferFrom(msg.sender, address(this), penaltyCost);\n        require(redPens.balanceOf(address(this)) == expectedContractBalance, \"Error Transfering !RED\");\n        Penalty[_tokenId] = 0;\n        return true;\n    }\n\n    function issueBadge(address receivingAddress, string memory _reason) public virtual override\n        BAILIFF \n        returns(uint newId) {\n            uint _penalty = 0;\n            newId = _issueBadge(receivingAddress, _reason, _penalty);\n            return newId;\n    }\n\n    function issueBadge(address receivingAddress, string memory _reason, uint _penalty) public virtual\n        BAILIFF \n        returns(uint newId) {\n            newId = _issueBadge(receivingAddress, _reason, _penalty);\n            return newId;\n    }\n\n    function _issueBadge(address receivingAddress, string memory _reason, uint _penalty) internal virtual\n        BAILIFF \n        returns(uint newId) {\n            newId = super.issueBadge(receivingAddress, _reason);\n            Penalty[newId] = _penalty;\n    }\n\n     /////////////////////////////////////////////////////////////////////////////////////////////////\n    /////////////////////////////////////////////////////////////////////////////////////////////////\n    /// @dev                                                                                     ////\n    /// Update Payment Token                                                                      ////\n    /////////////////////////////////////////////////////////////////////////////////////////////////\n    /////////////////////////////////////////////////////////////////////////////////////////////////\n\n\n    function updatePaymentToken() public {\n        _updateTokenAddresses();\n        redPens = ERC20(RedPenTokenAddress);\n    }\n\n     /////////////////////////////////////////////////////////////////////////////////////////////////\n    /////////////////////////////////////////////////////////////////////////////////////////////////\n    /// @dev                                                                                     ////\n    /// Transfer rules                                                                           ////\n    /////////////////////////////////////////////////////////////////////////////////////////////////\n    /////////////////////////////////////////////////////////////////////////////////////////////////\n\n\n    function _isApprovedOrOwner(address spender, uint256 tokenId)\n        internal view virtual\n        override(GenericBadge)\n        returns (bool)\n    {\n        require(_exists(tokenId), \"ERC721: operator query for nonexistent token\");\n        \n        address owner = ownerOf(tokenId);\n       \n        if (spender == owner) {\n            require (Penalty[tokenId] == 0, \"Please Pay Your Penalty\");\n            return true;\n        } else {\n            return (isApprovedForAll(owner, spender));\n        }\n    }\n        \n}",
  "sourcePath": "/home/n/Desktop/PinkSlips_FrontEnd_REFORMAT (copy)/contracts/src/ERC721/PenaltyBadge.sol",
  "compiler": {
    "name": "solc",
    "version": "0.8.6+commit.11564f7e.Emscripten.clang"
  },
  "schemaVersion": "3.4.1",
  "updatedAt": "2021-08-08T02:58:40.427Z",
  "devdoc": {
    "kind": "dev",
    "methods": {
      "approve(address,uint256)": {
        "details": "See {IERC721-approve}."
      },
      "balanceOf(address)": {
        "details": "See {IERC721-balanceOf}."
      },
      "getApproved(uint256)": {
        "details": "See {IERC721-getApproved}."
      },
      "getRoleAdmin(bytes32)": {
        "details": "Returns the admin role that controls `role`. See {grantRole} and {revokeRole}. To change a role's admin, use {_setRoleAdmin}."
      },
      "getRoleMember(bytes32,uint256)": {
        "details": "Returns one of the accounts that have `role`. `index` must be a value between 0 and {getRoleMemberCount}, non-inclusive. Role bearers are not sorted in any particular way, and their ordering may change at any point. WARNING: When using {getRoleMember} and {getRoleMemberCount}, make sure you perform all queries on the same block. See the following https://forum.openzeppelin.com/t/iterating-over-elements-on-enumerableset-in-openzeppelin-contracts/2296[forum post] for more information."
      },
      "getRoleMemberCount(bytes32)": {
        "details": "Returns the number of accounts that have `role`. Can be used together with {getRoleMember} to enumerate all bearers of a role."
      },
      "grantRole(bytes32,address)": {
        "details": "Overload {grantRole} to track enumerable memberships"
      },
      "hasRole(bytes32,address)": {
        "details": "Returns `true` if `account` has been granted `role`."
      },
      "isApprovedForAll(address,address)": {
        "details": "See {IERC721-isApprovedForAll}."
      },
      "issueBadge(address,string)": {
        "details": "//// Issuance Desk                                                                            ////"
      },
      "name()": {
        "details": "See {IERC721Metadata-name}."
      },
      "ownerOf(uint256)": {
        "details": "See {IERC721-ownerOf}."
      },
      "pause()": {
        "details": "//// Maintanence\\\\\\\\\\\\\\\\\\\\\\\\\\\\\\\\\\\\\\\\\\\\\\\\\\\\\\                                                   ////"
      },
      "paused()": {
        "details": "Returns true if the contract is paused, and false otherwise."
      },
      "renounceRole(bytes32,address)": {
        "details": "Overload {renounceRole} to track enumerable memberships"
      },
      "revokeRole(bytes32,address)": {
        "details": "Overload {revokeRole} to track enumerable memberships"
      },
      "safeTransferFrom(address,address,uint256)": {
        "details": "See {IERC721-safeTransferFrom}."
      },
      "safeTransferFrom(address,address,uint256,bytes)": {
        "details": "See {IERC721-safeTransferFrom}."
      },
      "setApprovalForAll(address,bool)": {
        "details": "See {IERC721-setApprovalForAll}."
      },
      "symbol()": {
        "details": "See {IERC721Metadata-symbol}."
      },
      "tokenByIndex(uint256)": {
        "details": "See {IERC721Enumerable-tokenByIndex}."
      },
      "tokenOfOwnerByIndex(address,uint256)": {
        "details": "See {IERC721Enumerable-tokenOfOwnerByIndex}."
      },
      "tokenURI(uint256)": {
        "details": "See {IERC721Metadata-tokenURI}."
      },
      "totalSupply()": {
        "details": "See {IERC721Enumerable-totalSupply}."
      },
      "transferFrom(address,address,uint256)": {
        "details": "See {IERC721-transferFrom}."
      },
      "updatePaymentToken()": {
        "details": "//// Update Payment Token                                                                      ////"
      }
    },
    "version": 1
  },
  "userdoc": {
    "kind": "user",
    "methods": {},
    "version": 1
  }
}