{
  "contractName": "PinkSlips",
  "abi": [
    {
      "inputs": [
        {
          "internalType": "address",
          "name": "_AddressManagerAddress",
          "type": "address"
        }
      ],
      "stateMutability": "nonpayable",
      "type": "constructor"
    },
    {
      "anonymous": false,
      "inputs": [
        {
          "indexed": true,
          "internalType": "address",
          "name": "owner",
          "type": "address"
        },
        {
          "indexed": true,
          "internalType": "address",
          "name": "approved",
          "type": "address"
        },
        {
          "indexed": true,
          "internalType": "uint256",
          "name": "tokenId",
          "type": "uint256"
        }
      ],
      "name": "Approval",
      "type": "event"
    },
    {
      "anonymous": false,
      "inputs": [
        {
          "indexed": true,
          "internalType": "address",
          "name": "owner",
          "type": "address"
        },
        {
          "indexed": true,
          "internalType": "address",
          "name": "operator",
          "type": "address"
        },
        {
          "indexed": false,
          "internalType": "bool",
          "name": "approved",
          "type": "bool"
        }
      ],
      "name": "ApprovalForAll",
      "type": "event"
    },
    {
      "anonymous": false,
      "inputs": [
        {
          "indexed": false,
          "internalType": "address",
          "name": "account",
          "type": "address"
        }
      ],
      "name": "Paused",
      "type": "event"
    },
    {
      "anonymous": false,
      "inputs": [
        {
          "indexed": true,
          "internalType": "bytes32",
          "name": "role",
          "type": "bytes32"
        },
        {
          "indexed": true,
          "internalType": "bytes32",
          "name": "previousAdminRole",
          "type": "bytes32"
        },
        {
          "indexed": true,
          "internalType": "bytes32",
          "name": "newAdminRole",
          "type": "bytes32"
        }
      ],
      "name": "RoleAdminChanged",
      "type": "event"
    },
    {
      "anonymous": false,
      "inputs": [
        {
          "indexed": true,
          "internalType": "bytes32",
          "name": "role",
          "type": "bytes32"
        },
        {
          "indexed": true,
          "internalType": "address",
          "name": "account",
          "type": "address"
        },
        {
          "indexed": true,
          "internalType": "address",
          "name": "sender",
          "type": "address"
        }
      ],
      "name": "RoleGranted",
      "type": "event"
    },
    {
      "anonymous": false,
      "inputs": [
        {
          "indexed": true,
          "internalType": "bytes32",
          "name": "role",
          "type": "bytes32"
        },
        {
          "indexed": true,
          "internalType": "address",
          "name": "account",
          "type": "address"
        },
        {
          "indexed": true,
          "internalType": "address",
          "name": "sender",
          "type": "address"
        }
      ],
      "name": "RoleRevoked",
      "type": "event"
    },
    {
      "anonymous": false,
      "inputs": [
        {
          "indexed": true,
          "internalType": "address",
          "name": "from",
          "type": "address"
        },
        {
          "indexed": true,
          "internalType": "address",
          "name": "to",
          "type": "address"
        },
        {
          "indexed": true,
          "internalType": "uint256",
          "name": "tokenId",
          "type": "uint256"
        }
      ],
      "name": "Transfer",
      "type": "event"
    },
    {
      "anonymous": false,
      "inputs": [
        {
          "indexed": false,
          "internalType": "address",
          "name": "account",
          "type": "address"
        }
      ],
      "name": "Unpaused",
      "type": "event"
    },
    {
      "inputs": [],
      "name": "AddressManagerAddress",
      "outputs": [
        {
          "internalType": "address",
          "name": "",
          "type": "address"
        }
      ],
      "stateMutability": "view",
      "type": "function",
      "constant": true
    },
    {
      "inputs": [
        {
          "internalType": "uint256",
          "name": "",
          "type": "uint256"
        }
      ],
      "name": "BadgeInfo",
      "outputs": [
        {
          "internalType": "address",
          "name": "gifter",
          "type": "address"
        },
        {
          "internalType": "string",
          "name": "reason",
          "type": "string"
        }
      ],
      "stateMutability": "view",
      "type": "function",
      "constant": true
    },
    {
      "inputs": [
        {
          "internalType": "address",
          "name": "",
          "type": "address"
        },
        {
          "internalType": "uint256",
          "name": "",
          "type": "uint256"
        }
      ],
      "name": "BadgesSent",
      "outputs": [
        {
          "internalType": "uint256",
          "name": "",
          "type": "uint256"
        }
      ],
      "stateMutability": "view",
      "type": "function",
      "constant": true
    },
    {
      "inputs": [],
      "name": "ChadBadgeAddress",
      "outputs": [
        {
          "internalType": "address",
          "name": "",
          "type": "address"
        }
      ],
      "stateMutability": "view",
      "type": "function",
      "constant": true
    },
    {
      "inputs": [],
      "name": "ColoredIDAddress",
      "outputs": [
        {
          "internalType": "address",
          "name": "",
          "type": "address"
        }
      ],
      "stateMutability": "view",
      "type": "function",
      "constant": true
    },
    {
      "inputs": [],
      "name": "CourtClerk",
      "outputs": [
        {
          "internalType": "address",
          "name": "",
          "type": "address"
        }
      ],
      "stateMutability": "view",
      "type": "function",
      "constant": true
    },
    {
      "inputs": [],
      "name": "DEFAULT_ADMIN_ROLE",
      "outputs": [
        {
          "internalType": "bytes32",
          "name": "",
          "type": "bytes32"
        }
      ],
      "stateMutability": "view",
      "type": "function",
      "constant": true
    },
    {
      "inputs": [],
      "name": "GAVELS_BAILIFF",
      "outputs": [
        {
          "internalType": "bytes32",
          "name": "",
          "type": "bytes32"
        }
      ],
      "stateMutability": "view",
      "type": "function",
      "constant": true
    },
    {
      "inputs": [],
      "name": "GavelDAOAgent",
      "outputs": [
        {
          "internalType": "address",
          "name": "",
          "type": "address"
        }
      ],
      "stateMutability": "view",
      "type": "function",
      "constant": true
    },
    {
      "inputs": [],
      "name": "GavelTokenAddress",
      "outputs": [
        {
          "internalType": "address",
          "name": "",
          "type": "address"
        }
      ],
      "stateMutability": "view",
      "type": "function",
      "constant": true
    },
    {
      "inputs": [],
      "name": "GavelVote",
      "outputs": [
        {
          "internalType": "bool",
          "name": "",
          "type": "bool"
        }
      ],
      "stateMutability": "view",
      "type": "function",
      "constant": true
    },
    {
      "inputs": [],
      "name": "GoldStarAddress",
      "outputs": [
        {
          "internalType": "address",
          "name": "",
          "type": "address"
        }
      ],
      "stateMutability": "view",
      "type": "function",
      "constant": true
    },
    {
      "inputs": [],
      "name": "JERK_ROLE",
      "outputs": [
        {
          "internalType": "bytes32",
          "name": "",
          "type": "bytes32"
        }
      ],
      "stateMutability": "view",
      "type": "function",
      "constant": true
    },
    {
      "inputs": [],
      "name": "JURY_BAILIFF",
      "outputs": [
        {
          "internalType": "bytes32",
          "name": "",
          "type": "bytes32"
        }
      ],
      "stateMutability": "view",
      "type": "function",
      "constant": true
    },
    {
      "inputs": [],
      "name": "JuryDAOAgent",
      "outputs": [
        {
          "internalType": "address",
          "name": "",
          "type": "address"
        }
      ],
      "stateMutability": "view",
      "type": "function",
      "constant": true
    },
    {
      "inputs": [],
      "name": "JuryPoolAddress",
      "outputs": [
        {
          "internalType": "address",
          "name": "",
          "type": "address"
        }
      ],
      "stateMutability": "view",
      "type": "function",
      "constant": true
    },
    {
      "inputs": [],
      "name": "JuryVote",
      "outputs": [
        {
          "internalType": "bool",
          "name": "",
          "type": "bool"
        }
      ],
      "stateMutability": "view",
      "type": "function",
      "constant": true
    },
    {
      "inputs": [],
      "name": "MINI_BAILIFF_ROLE",
      "outputs": [
        {
          "internalType": "bytes32",
          "name": "",
          "type": "bytes32"
        }
      ],
      "stateMutability": "view",
      "type": "function",
      "constant": true
    },
    {
      "inputs": [],
      "name": "MiniBailiff",
      "outputs": [
        {
          "internalType": "address",
          "name": "",
          "type": "address"
        }
      ],
      "stateMutability": "view",
      "type": "function",
      "constant": true
    },
    {
      "inputs": [],
      "name": "PinkSlipAddress",
      "outputs": [
        {
          "internalType": "address",
          "name": "",
          "type": "address"
        }
      ],
      "stateMutability": "view",
      "type": "function",
      "constant": true
    },
    {
      "inputs": [],
      "name": "RedPenTokenAddress",
      "outputs": [
        {
          "internalType": "address",
          "name": "",
          "type": "address"
        }
      ],
      "stateMutability": "view",
      "type": "function",
      "constant": true
    },
    {
      "inputs": [],
      "name": "THE_COURT_ROLE",
      "outputs": [
        {
          "internalType": "bytes32",
          "name": "",
          "type": "bytes32"
        }
      ],
      "stateMutability": "view",
      "type": "function",
      "constant": true
    },
    {
      "inputs": [],
      "name": "TheCourtAddress",
      "outputs": [
        {
          "internalType": "address",
          "name": "",
          "type": "address"
        }
      ],
      "stateMutability": "view",
      "type": "function",
      "constant": true
    },
    {
      "inputs": [],
      "name": "TreasuryAddress",
      "outputs": [
        {
          "internalType": "address",
          "name": "",
          "type": "address"
        }
      ],
      "stateMutability": "view",
      "type": "function",
      "constant": true
    },
    {
      "inputs": [],
      "name": "addressManager",
      "outputs": [
        {
          "internalType": "contract AddressManager",
          "name": "",
          "type": "address"
        }
      ],
      "stateMutability": "view",
      "type": "function",
      "constant": true
    },
    {
      "inputs": [
        {
          "internalType": "address",
          "name": "to",
          "type": "address"
        },
        {
          "internalType": "uint256",
          "name": "tokenId",
          "type": "uint256"
        }
      ],
      "name": "approve",
      "outputs": [],
      "stateMutability": "nonpayable",
      "type": "function"
    },
    {
      "inputs": [],
      "name": "badgeColor",
      "outputs": [
        {
          "internalType": "string",
          "name": "",
          "type": "string"
        }
      ],
      "stateMutability": "view",
      "type": "function",
      "constant": true
    },
    {
      "inputs": [],
      "name": "badgeName",
      "outputs": [
        {
          "internalType": "string",
          "name": "",
          "type": "string"
        }
      ],
      "stateMutability": "view",
      "type": "function",
      "constant": true
    },
    {
      "inputs": [
        {
          "internalType": "address",
          "name": "owner",
          "type": "address"
        }
      ],
      "name": "balanceOf",
      "outputs": [
        {
          "internalType": "uint256",
          "name": "",
          "type": "uint256"
        }
      ],
      "stateMutability": "view",
      "type": "function",
      "constant": true
    },
    {
      "inputs": [],
      "name": "baseURI_",
      "outputs": [
        {
          "internalType": "string",
          "name": "",
          "type": "string"
        }
      ],
      "stateMutability": "view",
      "type": "function",
      "constant": true
    },
    {
      "inputs": [
        {
          "internalType": "uint256",
          "name": "valueMustBe69",
          "type": "uint256"
        }
      ],
      "name": "destroyAndLockContract",
      "outputs": [
        {
          "internalType": "bool",
          "name": "",
          "type": "bool"
        }
      ],
      "stateMutability": "nonpayable",
      "type": "function"
    },
    {
      "inputs": [
        {
          "internalType": "uint256",
          "name": "tokenId",
          "type": "uint256"
        }
      ],
      "name": "getApproved",
      "outputs": [
        {
          "internalType": "address",
          "name": "",
          "type": "address"
        }
      ],
      "stateMutability": "view",
      "type": "function",
      "constant": true
    },
    {
      "inputs": [
        {
          "internalType": "uint256",
          "name": "_tokenId",
          "type": "uint256"
        }
      ],
      "name": "getBadgeReason",
      "outputs": [
        {
          "internalType": "string",
          "name": "_theReason",
          "type": "string"
        }
      ],
      "stateMutability": "view",
      "type": "function",
      "constant": true
    },
    {
      "inputs": [
        {
          "internalType": "uint256",
          "name": "_tokenId",
          "type": "uint256"
        }
      ],
      "name": "getBadgeSender",
      "outputs": [
        {
          "internalType": "address",
          "name": "_theGifter",
          "type": "address"
        }
      ],
      "stateMutability": "view",
      "type": "function",
      "constant": true
    },
    {
      "inputs": [
        {
          "internalType": "address",
          "name": "_gifter",
          "type": "address"
        }
      ],
      "name": "getBadgesSent",
      "outputs": [
        {
          "internalType": "uint256[]",
          "name": "_BadgesSent",
          "type": "uint256[]"
        }
      ],
      "stateMutability": "view",
      "type": "function",
      "constant": true
    },
    {
      "inputs": [
        {
          "internalType": "bytes32",
          "name": "role",
          "type": "bytes32"
        }
      ],
      "name": "getRoleAdmin",
      "outputs": [
        {
          "internalType": "bytes32",
          "name": "",
          "type": "bytes32"
        }
      ],
      "stateMutability": "view",
      "type": "function",
      "constant": true
    },
    {
      "inputs": [
        {
          "internalType": "bytes32",
          "name": "role",
          "type": "bytes32"
        },
        {
          "internalType": "uint256",
          "name": "index",
          "type": "uint256"
        }
      ],
      "name": "getRoleMember",
      "outputs": [
        {
          "internalType": "address",
          "name": "",
          "type": "address"
        }
      ],
      "stateMutability": "view",
      "type": "function",
      "constant": true
    },
    {
      "inputs": [
        {
          "internalType": "bytes32",
          "name": "role",
          "type": "bytes32"
        }
      ],
      "name": "getRoleMemberCount",
      "outputs": [
        {
          "internalType": "uint256",
          "name": "",
          "type": "uint256"
        }
      ],
      "stateMutability": "view",
      "type": "function",
      "constant": true
    },
    {
      "inputs": [
        {
          "internalType": "bytes32",
          "name": "role",
          "type": "bytes32"
        },
        {
          "internalType": "address",
          "name": "account",
          "type": "address"
        }
      ],
      "name": "grantRole",
      "outputs": [],
      "stateMutability": "nonpayable",
      "type": "function"
    },
    {
      "inputs": [
        {
          "internalType": "bytes32",
          "name": "role",
          "type": "bytes32"
        },
        {
          "internalType": "address",
          "name": "account",
          "type": "address"
        }
      ],
      "name": "hasRole",
      "outputs": [
        {
          "internalType": "bool",
          "name": "",
          "type": "bool"
        }
      ],
      "stateMutability": "view",
      "type": "function",
      "constant": true
    },
    {
      "inputs": [
        {
          "internalType": "address",
          "name": "owner",
          "type": "address"
        },
        {
          "internalType": "address",
          "name": "operator",
          "type": "address"
        }
      ],
      "name": "isApprovedForAll",
      "outputs": [
        {
          "internalType": "bool",
          "name": "",
          "type": "bool"
        }
      ],
      "stateMutability": "view",
      "type": "function",
      "constant": true
    },
    {
      "inputs": [
        {
          "internalType": "address",
          "name": "addressToCheck",
          "type": "address"
        },
        {
          "internalType": "uint256",
          "name": "badgeTokenID",
          "type": "uint256"
        }
      ],
      "name": "isBadgeSender",
      "outputs": [
        {
          "internalType": "bool",
          "name": "",
          "type": "bool"
        }
      ],
      "stateMutability": "view",
      "type": "function",
      "constant": true
    },
    {
      "inputs": [],
      "name": "isForeverLocked",
      "outputs": [
        {
          "internalType": "bool",
          "name": "",
          "type": "bool"
        }
      ],
      "stateMutability": "view",
      "type": "function",
      "constant": true
    },
    {
      "inputs": [
        {
          "internalType": "address",
          "name": "receivingAddress",
          "type": "address"
        },
        {
          "internalType": "string",
          "name": "_reason",
          "type": "string"
        }
      ],
      "name": "issueBadge",
      "outputs": [
        {
          "internalType": "uint256",
          "name": "newId",
          "type": "uint256"
        }
      ],
      "stateMutability": "nonpayable",
      "type": "function"
    },
    {
      "inputs": [
        {
          "internalType": "address",
          "name": "receivingAddress",
          "type": "address"
        },
        {
          "internalType": "string",
          "name": "_reason",
          "type": "string"
        },
        {
          "internalType": "string",
          "name": "_tokenURI",
          "type": "string"
        }
      ],
      "name": "issueBadge",
      "outputs": [
        {
          "internalType": "uint256",
          "name": "newId",
          "type": "uint256"
        }
      ],
      "stateMutability": "nonpayable",
      "type": "function"
    },
    {
      "inputs": [],
      "name": "jerkSanctions",
      "outputs": [
        {
          "internalType": "bool",
          "name": "",
          "type": "bool"
        }
      ],
      "stateMutability": "view",
      "type": "function",
      "constant": true
    },
    {
      "inputs": [],
      "name": "mintingCost",
      "outputs": [
        {
          "internalType": "uint256",
          "name": "",
          "type": "uint256"
        }
      ],
      "stateMutability": "view",
      "type": "function",
      "constant": true
    },
    {
      "inputs": [],
      "name": "mintingCostFloor",
      "outputs": [
        {
          "internalType": "uint256",
          "name": "",
          "type": "uint256"
        }
      ],
      "stateMutability": "view",
      "type": "function",
      "constant": true
    },
    {
      "inputs": [],
      "name": "name",
      "outputs": [
        {
          "internalType": "string",
          "name": "",
          "type": "string"
        }
      ],
      "stateMutability": "view",
      "type": "function",
      "constant": true
    },
    {
      "inputs": [],
      "name": "nextTokenId",
      "outputs": [
        {
          "internalType": "uint256",
          "name": "_nextTokenId",
          "type": "uint256"
        }
      ],
      "stateMutability": "view",
      "type": "function",
      "constant": true
    },
    {
      "inputs": [
        {
          "internalType": "uint256",
          "name": "tokenId",
          "type": "uint256"
        }
      ],
      "name": "ownerOf",
      "outputs": [
        {
          "internalType": "address",
          "name": "",
          "type": "address"
        }
      ],
      "stateMutability": "view",
      "type": "function",
      "constant": true
    },
    {
      "inputs": [],
      "name": "pause",
      "outputs": [],
      "stateMutability": "nonpayable",
      "type": "function"
    },
    {
      "inputs": [],
      "name": "paused",
      "outputs": [
        {
          "internalType": "bool",
          "name": "",
          "type": "bool"
        }
      ],
      "stateMutability": "view",
      "type": "function",
      "constant": true
    },
    {
      "inputs": [],
      "name": "redPens",
      "outputs": [
        {
          "internalType": "contract ERC20",
          "name": "",
          "type": "address"
        }
      ],
      "stateMutability": "view",
      "type": "function",
      "constant": true
    },
    {
      "inputs": [
        {
          "internalType": "bool",
          "name": "thisIsNotReversible",
          "type": "bool"
        }
      ],
      "name": "refreshBadges",
      "outputs": [
        {
          "internalType": "bool",
          "name": "",
          "type": "bool"
        }
      ],
      "stateMutability": "nonpayable",
      "type": "function"
    },
    {
      "inputs": [
        {
          "internalType": "bytes32",
          "name": "role",
          "type": "bytes32"
        },
        {
          "internalType": "address",
          "name": "account",
          "type": "address"
        }
      ],
      "name": "renounceRole",
      "outputs": [],
      "stateMutability": "nonpayable",
      "type": "function"
    },
    {
      "inputs": [],
      "name": "resetVote",
      "outputs": [],
      "stateMutability": "nonpayable",
      "type": "function"
    },
    {
      "inputs": [
        {
          "internalType": "uint256",
          "name": "tokenId",
          "type": "uint256"
        }
      ],
      "name": "revokeBadge",
      "outputs": [],
      "stateMutability": "nonpayable",
      "type": "function"
    },
    {
      "inputs": [
        {
          "internalType": "bytes32",
          "name": "role",
          "type": "bytes32"
        },
        {
          "internalType": "address",
          "name": "account",
          "type": "address"
        }
      ],
      "name": "revokeRole",
      "outputs": [],
      "stateMutability": "nonpayable",
      "type": "function"
    },
    {
      "inputs": [
        {
          "internalType": "address",
          "name": "from",
          "type": "address"
        },
        {
          "internalType": "address",
          "name": "to",
          "type": "address"
        },
        {
          "internalType": "uint256",
          "name": "tokenId",
          "type": "uint256"
        }
      ],
      "name": "safeTransferFrom",
      "outputs": [],
      "stateMutability": "nonpayable",
      "type": "function"
    },
    {
      "inputs": [
        {
          "internalType": "address",
          "name": "from",
          "type": "address"
        },
        {
          "internalType": "address",
          "name": "to",
          "type": "address"
        },
        {
          "internalType": "uint256",
          "name": "tokenId",
          "type": "uint256"
        },
        {
          "internalType": "bytes",
          "name": "_data",
          "type": "bytes"
        }
      ],
      "name": "safeTransferFrom",
      "outputs": [],
      "stateMutability": "nonpayable",
      "type": "function"
    },
    {
      "inputs": [
        {
          "internalType": "address",
          "name": "operator",
          "type": "address"
        },
        {
          "internalType": "bool",
          "name": "approved",
          "type": "bool"
        }
      ],
      "name": "setApprovalForAll",
      "outputs": [],
      "stateMutability": "nonpayable",
      "type": "function"
    },
    {
      "inputs": [
        {
          "internalType": "string",
          "name": "_baseURIString",
          "type": "string"
        }
      ],
      "name": "setBaseURI",
      "outputs": [
        {
          "internalType": "bool",
          "name": "",
          "type": "bool"
        }
      ],
      "stateMutability": "nonpayable",
      "type": "function"
    },
    {
      "inputs": [
        {
          "internalType": "uint256",
          "name": "costInWei",
          "type": "uint256"
        }
      ],
      "name": "setMintingCost",
      "outputs": [
        {
          "internalType": "bool",
          "name": "",
          "type": "bool"
        }
      ],
      "stateMutability": "nonpayable",
      "type": "function"
    },
    {
      "inputs": [
        {
          "internalType": "uint256",
          "name": "costFloorInWei",
          "type": "uint256"
        }
      ],
      "name": "setMintingCostFloor",
      "outputs": [
        {
          "internalType": "bool",
          "name": "",
          "type": "bool"
        }
      ],
      "stateMutability": "nonpayable",
      "type": "function"
    },
    {
      "inputs": [
        {
          "internalType": "bytes4",
          "name": "interfaceId",
          "type": "bytes4"
        }
      ],
      "name": "supportsInterface",
      "outputs": [
        {
          "internalType": "bool",
          "name": "",
          "type": "bool"
        }
      ],
      "stateMutability": "view",
      "type": "function",
      "constant": true
    },
    {
      "inputs": [],
      "name": "symbol",
      "outputs": [
        {
          "internalType": "string",
          "name": "",
          "type": "string"
        }
      ],
      "stateMutability": "view",
      "type": "function",
      "constant": true
    },
    {
      "inputs": [],
      "name": "syncAllRoles",
      "outputs": [],
      "stateMutability": "nonpayable",
      "type": "function"
    },
    {
      "inputs": [
        {
          "internalType": "bytes32",
          "name": "ROLE_TO_SYNC",
          "type": "bytes32"
        }
      ],
      "name": "syncSingleRole",
      "outputs": [],
      "stateMutability": "nonpayable",
      "type": "function"
    },
    {
      "inputs": [],
      "name": "syncVotes",
      "outputs": [],
      "stateMutability": "nonpayable",
      "type": "function"
    },
    {
      "inputs": [
        {
          "internalType": "uint256",
          "name": "index",
          "type": "uint256"
        }
      ],
      "name": "tokenByIndex",
      "outputs": [
        {
          "internalType": "uint256",
          "name": "",
          "type": "uint256"
        }
      ],
      "stateMutability": "view",
      "type": "function",
      "constant": true
    },
    {
      "inputs": [
        {
          "internalType": "address",
          "name": "owner",
          "type": "address"
        },
        {
          "internalType": "uint256",
          "name": "index",
          "type": "uint256"
        }
      ],
      "name": "tokenOfOwnerByIndex",
      "outputs": [
        {
          "internalType": "uint256",
          "name": "",
          "type": "uint256"
        }
      ],
      "stateMutability": "view",
      "type": "function",
      "constant": true
    },
    {
      "inputs": [
        {
          "internalType": "uint256",
          "name": "_tokenId",
          "type": "uint256"
        }
      ],
      "name": "tokenURI",
      "outputs": [
        {
          "internalType": "string",
          "name": "_URI",
          "type": "string"
        }
      ],
      "stateMutability": "view",
      "type": "function",
      "constant": true
    },
    {
      "inputs": [],
      "name": "totalSupply",
      "outputs": [
        {
          "internalType": "uint256",
          "name": "",
          "type": "uint256"
        }
      ],
      "stateMutability": "view",
      "type": "function",
      "constant": true
    },
    {
      "inputs": [
        {
          "internalType": "address",
          "name": "from",
          "type": "address"
        },
        {
          "internalType": "address",
          "name": "to",
          "type": "address"
        },
        {
          "internalType": "uint256",
          "name": "tokenId",
          "type": "uint256"
        }
      ],
      "name": "transferFrom",
      "outputs": [],
      "stateMutability": "nonpayable",
      "type": "function"
    },
    {
      "inputs": [],
      "name": "unpause",
      "outputs": [],
      "stateMutability": "nonpayable",
      "type": "function"
    },
    {
      "inputs": [],
      "name": "updateAddressManager",
      "outputs": [],
      "stateMutability": "nonpayable",
      "type": "function"
    },
    {
      "inputs": [],
      "name": "updateAllAddresses",
      "outputs": [],
      "stateMutability": "nonpayable",
      "type": "function"
    },
    {
      "inputs": [],
      "name": "updateAllRoles",
      "outputs": [],
      "stateMutability": "nonpayable",
      "type": "function"
    },
    {
      "inputs": [],
      "name": "updateDAOAddresses",
      "outputs": [],
      "stateMutability": "nonpayable",
      "type": "function"
    },
    {
      "inputs": [],
      "name": "updatePaymentToken",
      "outputs": [],
      "stateMutability": "nonpayable",
      "type": "function"
    },
    {
      "inputs": [
        {
          "internalType": "bytes32",
          "name": "ROLE_TO_UPDATE",
          "type": "bytes32"
        }
      ],
      "name": "updateSingleRole",
      "outputs": [],
      "stateMutability": "nonpayable",
      "type": "function"
    },
    {
      "inputs": [],
      "name": "updateTokenAddresses",
      "outputs": [],
      "stateMutability": "nonpayable",
      "type": "function"
    }
  ],
  "bytecode": "0x6000805460ff1990811682556011805463ffffffff60a01b19169055601e91909155601f80549091169055636970667360e01b60a0908152601d60f91b60a452602f60f81b60a581905260a6526007608081905260a7604052620000669160229162000ce8565b506729a2241af62c000060255567016345785d8a0000602655600554602780546001600160a01b0319166001600160a01b03909216919091179055348015620000ae57600080fd5b506040516200601738038062006017833981016040819052620000d19162000d8e565b6040805180820182526008815267050696e6b536c69760c41b6020808301919091528251808401909352600483526350696e6b60e01b90830152600380546001600160a01b0385166001600160a01b0319918216811790925560118054909116909117905590828282828282826200014862000311565b6200015262000327565b600f546200016c906000906001600160a01b031662000472565b600f54620001a5907f0538d24a8b7882d7b2e36af243d4af61c23e86e3daa6cb8c887b53220b2f5720906001600160a01b031662000472565b600c54620001de907f048bc71fa1cb2c119c339cf9cf00a97996a19a9d991ce5fe049f2fa5459e7990906001600160a01b031662000472565b600d5462000217907ffa8e4989e1d689f7bc5c4b25b87efb51fecdecb19ba62847e29c759e12a89acd906001600160a01b031662000472565b60105462000250907ff0f4b159a6e2a4815eb3ca3df080bfa70c9270662c59bcaa4479a456220183e6906001600160a01b031662000472565b6200027d7f7c9d7f6f02908185bffb3f7fc9afb29fd7bf93675af8fd4b655ee05c2cee1e0e600062000472565b5081516200029390601290602085019062000ce8565b508051620002a990601390602084019062000ce8565b50506018805460ff19169055508151620002ca906020908185019062000ce8565b508251620002e090602190602086019062000ce8565b5050600554602780546001600160a01b0319166001600160a01b039092169190911790555062000e21945050505050565b6200031b620004b5565b62000325620007b5565b565b601160009054906101000a90046001600160a01b03166001600160a01b031663ff7e88ec6040518163ffffffff1660e01b815260040160206040518083038186803b1580156200037657600080fd5b505afa1580156200038b573d6000803e3d6000fd5b505050506040513d601f19601f82011682018060405250810190620003b1919062000dc0565b601160156101000a81548160ff021916908315150217905550601160009054906101000a90046001600160a01b03166001600160a01b0316632fb565856040518163ffffffff1660e01b815260040160206040518083038186803b1580156200041957600080fd5b505afa1580156200042e573d6000803e3d6000fd5b505050506040513d601f19601f8201168201806040525081019062000454919062000dc0565b60118054911515600160b01b0260ff60b01b19909216919091179055565b62000489828262000bde60201b620020091760201c565b6000828152600260209081526040909120620004b09183906200201362000bee821b17901c565b505050565b601160009054906101000a90046001600160a01b03166001600160a01b031663dadf56ac6040518163ffffffff1660e01b815260040160206040518083038186803b1580156200050457600080fd5b505afa15801562000519573d6000803e3d6000fd5b505050506040513d601f19601f820116820180604052508101906200053f919062000d8e565b600c80546001600160a01b0319166001600160a01b039283161790556011546040805163024bebe960e01b81529051919092169163024bebe9916004808301926020929190829003018186803b1580156200059957600080fd5b505afa158015620005ae573d6000803e3d6000fd5b505050506040513d601f19601f82011682018060405250810190620005d4919062000d8e565b600d80546001600160a01b0319166001600160a01b0392831617905560115460408051635b5c251f60e01b815290519190921691635b5c251f916004808301926020929190829003018186803b1580156200062e57600080fd5b505afa15801562000643573d6000803e3d6000fd5b505050506040513d601f19601f8201168201806040525081019062000669919062000d8e565b600e80546001600160a01b0319166001600160a01b0392831617905560115460408051637310bf1d60e11b81529051919092169163e6217e3a916004808301926020929190829003018186803b158015620006c357600080fd5b505afa158015620006d8573d6000803e3d6000fd5b505050506040513d601f19601f82011682018060405250810190620006fe919062000d8e565b601080546001600160a01b0319166001600160a01b039283161790556011546040805163d88127a160e01b81529051919092169163d88127a1916004808301926020929190829003018186803b1580156200075857600080fd5b505afa1580156200076d573d6000803e3d6000fd5b505050506040513d601f19601f8201168201806040525081019062000793919062000d8e565b600b80546001600160a01b0319166001600160a01b0392909216919091179055565b601160009054906101000a90046001600160a01b03166001600160a01b03166321d7f0086040518163ffffffff1660e01b815260040160206040518083038186803b1580156200080457600080fd5b505afa15801562000819573d6000803e3d6000fd5b505050506040513d601f19601f820116820180604052508101906200083f919062000d8e565b600480546001600160a01b0319166001600160a01b039283161781556011546040805163762ddb5960e01b81529051919093169263762ddb599281810192602092909190829003018186803b1580156200089857600080fd5b505afa158015620008ad573d6000803e3d6000fd5b505050506040513d601f19601f82011682018060405250810190620008d3919062000d8e565b600580546001600160a01b0319166001600160a01b039283161790556011546040805163bfb7dc9960e01b81529051919092169163bfb7dc99916004808301926020929190829003018186803b1580156200092d57600080fd5b505afa15801562000942573d6000803e3d6000fd5b505050506040513d601f19601f8201168201806040525081019062000968919062000d8e565b600680546001600160a01b0319166001600160a01b0392831617905560115460408051633e6111eb60e21b81529051919092169163f98447ac916004808301926020929190829003018186803b158015620009c257600080fd5b505afa158015620009d7573d6000803e3d6000fd5b505050506040513d601f19601f82011682018060405250810190620009fd919062000d8e565b600780546001600160a01b0319166001600160a01b0392831617905560115460408051630fe1ba9f60e21b815290519190921691633f86ea7c916004808301926020929190829003018186803b15801562000a5757600080fd5b505afa15801562000a6c573d6000803e3d6000fd5b505050506040513d601f19601f8201168201806040525081019062000a92919062000d8e565b600880546001600160a01b0319166001600160a01b0392831617905560115460408051632b90024160e11b8152905191909216916357200482916004808301926020929190829003018186803b15801562000aec57600080fd5b505afa15801562000b01573d6000803e3d6000fd5b505050506040513d601f19601f8201168201806040525081019062000b27919062000d8e565b600980546001600160a01b0319166001600160a01b0392831617905560115460408051636b58477560e01b815290519190921691636b584775916004808301926020929190829003018186803b15801562000b8157600080fd5b505afa15801562000b96573d6000803e3d6000fd5b505050506040513d601f19601f8201168201806040525081019062000bbc919062000d8e565b600a80546001600160a01b0319166001600160a01b0392909216919091179055565b62000bea828262000c0e565b5050565b600062000c05836001600160a01b03841662000c96565b90505b92915050565b60008281526001602090815260408083206001600160a01b038516845290915290205460ff1662000bea5760008281526001602081815260408084206001600160a01b0386168086529252808420805460ff19169093179092559051339285917f2f8788117e7eff1d82e926ec794901d17c78024a50270940304540a733656f0d9190a45050565b600081815260018301602052604081205462000cdf5750815460018181018455600084815260208082209093018490558454848252828601909352604090209190915562000c08565b50600062000c08565b82805462000cf69062000de4565b90600052602060002090601f01602090048101928262000d1a576000855562000d65565b82601f1062000d3557805160ff191683800117855562000d65565b8280016001018555821562000d65579182015b8281111562000d6557825182559160200191906001019062000d48565b5062000d7392915062000d77565b5090565b5b8082111562000d73576000815560010162000d78565b60006020828403121562000da157600080fd5b81516001600160a01b038116811462000db957600080fd5b9392505050565b60006020828403121562000dd357600080fd5b8151801515811462000db957600080fd5b600181811c9082168062000df957607f821691505b6020821081141562000e1b57634e487b7160e01b600052602260045260246000fd5b50919050565b6151e68062000e316000396000f3fe608060405234801561001057600080fd5b50600436106104a15760003560e01c80636c353e341161026d578063c87b56dd11610151578063e78c266c116100ce578063f1132b3011610092578063f1132b3014610a23578063f259a29e14610a2b578063f7d92d8614610a33578063f98447ac14610a3b578063f98db25314610a4e578063ff7e88ec14610a6157600080fd5b8063e78c266c146109cc578063e985e9c5146109df578063e9a53230146109f2578063ebf98abf14610a07578063ee0b4c3514610a1057600080fd5b8063d88127a111610115578063d88127a114610978578063dadf56ac1461098b578063de2cff031461099e578063dea6f9c8146109b1578063e6217e3a146109b957600080fd5b8063c87b56dd14610915578063ca15c87314610928578063cce843921461093b578063cf4ece1514610950578063d547741f1461096557600080fd5b806395d89b41116101ea578063a32c5e59116101ae578063a32c5e5914610892578063a78e746f146108a7578063b88d4fde146108bb578063bfb7dc99146108ce578063c04e17e3146108e1578063c62b28e81461090257600080fd5b806395d89b411461084f57806396ac6bf0146108575780639ac3eaa71461086a578063a217fddf14610877578063a22cb4651461087f57600080fd5b8063765160781161023157806376516078146107fb578063794ccf6c1461080e5780638456cb59146108215780639010d07c1461082957806391d148541461083c57600080fd5b80636c353e341461079c57806370a08231146107a457806373c89822146107b757806375794a3c146107e0578063762ddb59146107e857600080fd5b806336568abe1161039457806357f276ff116103115780635f413466116102d55780635f41346614610728578063610c30091461073b5780636352211e1461074357806363ebc6771461075657806367a14f06146107765780636b5847751461078957600080fd5b806357f276ff146106dc57806359e6f787146106ef5780635b5c251f146107025780635c975abb146107155780635db531a11461072057600080fd5b806349b5e1051161035857806349b5e105146106935780634d84c6d81461069b5780634f6ccce7146106a357806355f804b3146106b657806357200482146106c957600080fd5b806336568abe1461063f5780633ab76e9f146106525780633f4ba83a146106655780633f86ea7c1461066d57806342842e0e1461068057600080fd5b806321d7f008116104225780632f2ff15d116103e65780632f2ff15d146105f55780632f745c59146106085780632fb565851461061b578063326a55e01461062f578063329a8cfa1461063757600080fd5b806321d7f0081461058357806323b872dd146105965780632436329d146105a9578063248a9ca3146105be57806329e63f35146105e257600080fd5b80630ad17f8f116104695780630ad17f8f1461053657806310a83fcb14610557578063130f63201461056057806317314d5a1461057357806318160ddd1461057b57600080fd5b806301ffc9a7146104a6578063024bebe9146104ce57806306fdde03146104f9578063081812fc1461050e578063095ea7b314610521575b600080fd5b6104b96104b4366004614c3a565b610a75565b60405190151581526020015b60405180910390f35b600d546104e1906001600160a01b031681565b6040516001600160a01b0390911681526020016104c5565b610501610a86565b6040516104c59190614e2d565b6104e161051c366004614bda565b610b18565b61053461052f366004614b74565b610ba5565b005b610549610544366004614b74565b610cbb565b6040519081526020016104c5565b61054960265481565b61053461056e366004614bda565b610cec565b610534610d21565b601c54610549565b6004546104e1906001600160a01b031681565b6105346105a43660046149bf565b610d4a565b61054960008051602061511183398151915281565b6105496105cc366004614bda565b6000908152600160208190526040909120015490565b6104b96105f0366004614bda565b610d7b565b610534610603366004614bf3565b610e69565b610549610616366004614b74565b610e8b565b6011546104b990600160b01b900460ff1681565b610534610f21565b610534610f31565b61053461064d366004614bf3565b61103a565b6011546104e1906001600160a01b031681565b61053461105c565b6008546104e1906001600160a01b031681565b61053461068e3660046149bf565b6110ee565b61053461111f565b610534610f29565b6105496106b1366004614bda565b611127565b6104b96106c4366004614c74565b6111ba565b6009546104e1906001600160a01b031681565b6105346106ea366004614bda565b611267565b6104b96106fd366004614b74565b61127b565b600e546104e1906001600160a01b031681565b60185460ff166104b9565b6105346112ad565b600f546104e1906001600160a01b031681565b6105016112b5565b6104e1610751366004614bda565b611343565b61076961076436600461494c565b6113ba565b6040516104c59190614de9565b6027546104e1906001600160a01b031681565b600a546104e1906001600160a01b031681565b610534611426565b6105496107b236600461494c565b611452565b6104e16107c5366004614bda565b6000908152602360205260409020546001600160a01b031690565b601e54610549565b6005546104e1906001600160a01b031681565b6104b9610809366004614ba0565b6114d9565b61054961081c366004614aae565b6115ad565b6105346117b3565b6104e1610837366004614c18565b611835565b6104b961084a366004614bf3565b611854565b61050161187f565b6104b9610865366004614bda565b61188e565b601f546104b99060ff1681565b610549600081565b61053461088d366004614a80565b611977565b61054960008051602061517183398151915281565b6011546104b990600160a01b900460ff1681565b6105346108c9366004614a00565b6119f5565b6006546104e1906001600160a01b031681565b6108f46108ef366004614bda565b611a2d565b6040516104c5929190614dc5565b610534610910366004614bda565b611adc565b610501610923366004614bda565b611b2d565b610549610936366004614bda565b611b38565b61054960008051602061519183398151915281565b61054960008051602061515183398151915281565b610534610973366004614bf3565b611b4f565b600b546104e1906001600160a01b031681565b600c546104e1906001600160a01b031681565b6105496109ac366004614afe565b611b59565b610501611d61565b6010546104e1906001600160a01b031681565b6003546104e1906001600160a01b031681565b6104b96109ed366004614986565b611d6e565b61054960008051602061513183398151915281565b61054960255481565b6104b9610a1e366004614bda565b611dcd565b610534611eb9565b610501611ec1565b610534611ece565b6007546104e1906001600160a01b031681565b610501610a5c366004614bda565b611f6e565b6011546104b990600160a81b900460ff1681565b6000610a8082612028565b92915050565b606060128054610a9590614fff565b80601f0160208091040260200160405190810160405280929190818152602001828054610ac190614fff565b8015610b0e5780601f10610ae357610100808354040283529160200191610b0e565b820191906000526020600020905b815481529060010190602001808311610af157829003601f168201915b5050505050905090565b6000610b238261204d565b610b895760405162461bcd60e51b815260206004820152602c60248201527f4552433732313a20617070726f76656420717565727920666f72206e6f6e657860448201526b34b9ba32b73a103a37b5b2b760a11b60648201526084015b60405180910390fd5b506000908152601660205260409020546001600160a01b031690565b6000610bb082611343565b9050806001600160a01b0316836001600160a01b03161415610c1e5760405162461bcd60e51b815260206004820152602160248201527f4552433732313a20617070726f76616c20746f2063757272656e74206f776e656044820152603960f91b6064820152608401610b80565b336001600160a01b0382161480610c3a5750610c3a8133611d6e565b610cac5760405162461bcd60e51b815260206004820152603860248201527f4552433732313a20617070726f76652063616c6c6572206973206e6f74206f7760448201527f6e6572206e6f7220617070726f76656420666f7220616c6c00000000000000006064820152608401610b80565b610cb6838361206a565b505050565b60246020528160005260406000208181548110610cd757600080fd5b90600052602060002001600091509150505481565b610cf66001612091565b50610d0081612143565b50610d0a816122be565b50610d156000612091565b610d1e57600080fd5b50565b610d2b6001612091565b50610d34612447565b50610d3f6000612091565b610d4857600080fd5b565b610d54338261258d565b610d705760405162461bcd60e51b8152600401610b8090614ebc565b610cb6838383612636565b6000610d9560008051602061513183398151915233611854565b80610db35750610db360008051602061511183398151915233611854565b80610dd15750610dd160008051602061517183398151915233611854565b610dda57600080fd5b601154600160b01b810460ff9081161515600160a81b9092041615151460011480610e185750610e1860008051602061517183398151915233611854565b610e345760405162461bcd60e51b8152600401610b8090614e40565b60a08211610e4157600080fd5b610e4d82602655600190565b506025546026541115610e61576026546025555b506001919050565b610e738282612667565b6000828152600260205260409020610cb69082612013565b6000610e9683611452565b8210610ef85760405162461bcd60e51b815260206004820152602b60248201527f455243373231456e756d657261626c653a206f776e657220696e646578206f7560448201526a74206f6620626f756e647360a81b6064820152608401610b80565b506001600160a01b03919091166000908152601a60209081526040808320938352929052205490565b610f296126a1565b610d4861298d565b610f4960008051602061517183398151915233611854565b80610f675750610f6760008051602061513183398151915233611854565b80610f855750610f8560008051602061511183398151915233611854565b610fca5760405162461bcd60e51b81526020600482015260166024820152752cb7ba93b932903737ba103a3432903130b4b634b33360511b6044820152606401610b80565b601160009054906101000a90046001600160a01b03166001600160a01b031663329a8cfa6040518163ffffffff1660e01b8152600401600060405180830381600087803b15801561101a57600080fd5b505af115801561102e573d6000803e3d6000fd5b50505050610d486112ad565b6110448282612d9a565b6000828152600260205260409020610cb69082612e14565b61107460008051602061513183398151915233611854565b80611092575061109260008051602061517183398151915233611854565b6110d65760405162461bcd60e51b8152602060048201526015602482015274596f75277265206e6f742074686520476176656c7360581b6044820152606401610b80565b601f5460ff16156110e657600080fd5b610d48612e29565b6110f8338261258d565b6111145760405162461bcd60e51b8152600401610b8090614ebc565b610cb6838383612ebc565b610d486126a1565b6000611132601c5490565b82106111955760405162461bcd60e51b815260206004820152602c60248201527f455243373231456e756d657261626c653a20676c6f62616c20696e646578206f60448201526b7574206f6620626f756e647360a01b6064820152608401610b80565b601c82815481106111a8576111a86150ab565b90600052602060002001549050919050565b60006111d460008051602061517183398151915233611854565b806111f257506111f260008051602061513183398151915233611854565b80611210575061121060008051602061511183398151915233611854565b6112555760405162461bcd60e51b81526020600482015260166024820152752cb7ba93b932903737ba103a3432903130b4b634b33360511b6044820152606401610b80565b61125e82612ed7565b50600192915050565b6112716001612091565b50610d0a81612eed565b6000818152602360205260408120546001600160a01b03848116911614156112a557506001610a80565b506000610a80565b610d48613148565b602180546112c290614fff565b80601f01602080910402602001604051908101604052809291908181526020018280546112ee90614fff565b801561133b5780601f106113105761010080835404028352916020019161133b565b820191906000526020600020905b81548152906001019060200180831161131e57829003601f168201915b505050505081565b6000818152601460205260408120546001600160a01b031680610a805760405162461bcd60e51b815260206004820152602960248201527f4552433732313a206f776e657220717565727920666f72206e6f6e657869737460448201526832b73a103a37b5b2b760b91b6064820152608401610b80565b6001600160a01b03811660009081526024602090815260409182902080548351818402810184019094528084526060939283018282801561141a57602002820191906000526020600020905b815481526020019060010190808311611406575b50505050509050919050565b61142e61298d565b600554602780546001600160a01b0319166001600160a01b03909216919091179055565b60006001600160a01b0382166114bd5760405162461bcd60e51b815260206004820152602a60248201527f4552433732313a2062616c616e636520717565727920666f7220746865207a65604482015269726f206164647265737360b01b6064820152608401610b80565b506001600160a01b031660009081526015602052604090205490565b60006114f360008051602061513183398151915233611854565b80611511575061151160008051602061511183398151915233611854565b8061152f575061152f60008051602061517183398151915233611854565b61153857600080fd5b601154600160b01b810460ff9081161515600160a81b9092041615151460011480611576575061157660008051602061517183398151915233611854565b6115925760405162461bcd60e51b8152600401610b8090614e40565b600182151514156115a55761125e61328b565b506000919050565b602554602754600e546040516370a0823160e01b81526001600160a01b0391821660048201526000938693859391929116906370a082319060240160206040518083038186803b15801561160057600080fd5b505afa158015611614573d6000803e3d6000fd5b505050506040513d601f19601f820116820180604052508101906116389190614ca9565b6116429190614f5a565b602754600e546025546040516323b872dd60e01b81523360048201526001600160a01b039283166024820152604481019190915292935016906323b872dd90606401602060405180830381600087803b15801561169e57600080fd5b505af11580156116b2573d6000803e3d6000fd5b505050506040513d601f19601f820116820180604052508101906116d69190614bbd565b50602754600e546040516370a0823160e01b81526001600160a01b039182166004820152839291909116906370a082319060240160206040518083038186803b15801561172257600080fd5b505afa158015611736573d6000803e3d6000fd5b505050506040513d601f19601f8201168201806040525081019061175a9190614ca9565b146117a05760405162461bcd60e51b8152602060048201526016602482015275115c9c9bdc88151c985b9cd9995c9a5b99c80854915160521b6044820152606401610b80565b6117aa85856132ce565b95945050505050565b6117cb60008051602061513183398151915233611854565b806117e957506117e960008051602061517183398151915233611854565b61182d5760405162461bcd60e51b8152602060048201526015602482015274596f75277265206e6f742074686520476176656c7360581b6044820152606401610b80565b610d48613331565b600082815260026020526040812061184d90836133ac565b9392505050565b60009182526001602090815260408084206001600160a01b0393909316845291905290205460ff1690565b606060138054610a9590614fff565b60006118a860008051602061513183398151915233611854565b806118c657506118c660008051602061511183398151915233611854565b806118e457506118e460008051602061517183398151915233611854565b6118ed57600080fd5b601154600160b01b810460ff9081161515600160a81b909204161515146001148061192b575061192b60008051602061517183398151915233611854565b6119475760405162461bcd60e51b8152600401610b8090614e40565b81604514156115a55761195861328b565b50611961613331565b50601f805460ff19166001908117909155919050565b61198f60008051602061517183398151915233611854565b806119ad57506119ad60008051602061513183398151915233611854565b806119cb57506119cb60008051602061511183398151915233611854565b6119e75760405162461bcd60e51b8152600401610b8090614ebc565b6119f182826133b8565b5050565b6119ff338361258d565b611a1b5760405162461bcd60e51b8152600401610b8090614f09565b611a278484848461347d565b50505050565b602360205260009081526040902080546001820180546001600160a01b039092169291611a5990614fff565b80601f0160208091040260200160405190810160405280929190818152602001828054611a8590614fff565b8015611ad25780601f10611aa757610100808354040283529160200191611ad2565b820191906000526020600020905b815481529060010190602001808311611ab557829003601f168201915b5050505050905082565b611ae6338261258d565b611b245760405162461bcd60e51b815260206004820152600f60248201526e4e696365205472792c204275636b6f60881b6044820152606401610b80565b610d1e816134b0565b6060610a80826134b9565b6000818152600260205260408120610a809061361b565b6110448282613625565b602554602754600e546040516370a0823160e01b81526001600160a01b0391821660048201526000938793859391929116906370a082319060240160206040518083038186803b158015611bac57600080fd5b505afa158015611bc0573d6000803e3d6000fd5b505050506040513d601f19601f82011682018060405250810190611be49190614ca9565b611bee9190614f5a565b602754600e546025546040516323b872dd60e01b81523360048201526001600160a01b039283166024820152604481019190915292935016906323b872dd90606401602060405180830381600087803b158015611c4a57600080fd5b505af1158015611c5e573d6000803e3d6000fd5b505050506040513d601f19601f82011682018060405250810190611c829190614bbd565b50602754600e546040516370a0823160e01b81526001600160a01b039182166004820152839291909116906370a082319060240160206040518083038186803b158015611cce57600080fd5b505afa158015611ce2573d6000803e3d6000fd5b505050506040513d601f19601f82011682018060405250810190611d069190614ca9565b14611d4c5760405162461bcd60e51b8152602060048201526016602482015275115c9c9bdc88151c985b9cd9995c9a5b99c80854915160521b6044820152606401610b80565b611d5786868661365f565b9695505050505050565b602080546112c290614fff565b600080611d8960008051602061517183398151915284611854565b80611da75750611da760008051602061513183398151915284611854565b80611dc55750611dc560008051602061511183398151915284611854565b949350505050565b6000611de760008051602061511183398151915233611854565b80611e055750611e0560008051602061517183398151915233611854565b611e475760405162461bcd60e51b8152602060048201526013602482015272596f75277265206e6f7420746865204a75727960681b6044820152606401610b80565b602654821015611ead5760405162461bcd60e51b815260206004820152602b60248201527f536f7272792120436f7374206d7573742062652067726561746572207468616e60448201526a10181718902932b22832b760a91b6064820152608401610b80565b61125e82602555600190565b610d486136cd565b602280546112c290614fff565b611ed86001612091565b50611ef0600080516020615171833981519152612eed565b50611f08600080516020615131833981519152612eed565b50611f20600080516020615111833981519152612eed565b50611f38600080516020615151833981519152612eed565b50611f50600080516020615191833981519152612eed565b50611f5b6000612eed565b50611f64613148565b610d3f6000612091565b6000818152602360205260409020600101805460609190611f8e90614fff565b80601f0160208091040260200160405190810160405280929190818152602001828054611fba90614fff565b801561141a5780601f10611fdc5761010080835404028352916020019161141a565b820191906000526020600020905b815481529060010190602001808311611fea5750939695505050505050565b6119f18282613804565b600061184d836001600160a01b03841661386f565b60006001600160e01b0319821663780e9d6360e01b1480610a805750610a80826138b6565b6000908152601460205260409020546001600160a01b0316151590565b61208260008051602061517183398151915233611854565b156119f1576119f182826138f6565b6000805460ff1682151581151514156120ec5760405162461bcd60e51b815260206004820152601960248201527f416c72656164792053657420746f20746861742076616c7565000000000000006044820152606401610b80565b6000805484151560ff19909116811790915560ff161515811515141561125e5760405162461bcd60e51b815260206004820152600c60248201526b29b0b33a32bc9022b93937b960a11b6044820152606401610b80565b60405163ca15c87360e01b8152600481018290526000908190309063ca15c8739060240160206040518083038186803b15801561217f57600080fd5b505afa158015612193573d6000803e3d6000fd5b505050506040513d601f19601f820116820180604052508101906121b79190614ca9565b905060005b818110156122b457604051632404341f60e21b815260048101859052602481018290526000903090639010d07c9060440160206040518083038186803b15801561220557600080fd5b505afa158015612219573d6000803e3d6000fd5b505050506040513d601f19601f8201168201806040525081019061223d9190614969565b60405163d547741f60e01b8152600481018790526001600160a01b0382166024820152909150309063d547741f90604401600060405180830381600087803b15801561228857600080fd5b505af115801561229c573d6000803e3d6000fd5b505050505080806122ac9061503a565b9150506121bc565b5060019392505050565b60115460405163ca15c87360e01b81526004810183905260009182916001600160a01b039091169063ca15c8739060240160206040518083038186803b15801561230757600080fd5b505afa15801561231b573d6000803e3d6000fd5b505050506040513d601f19601f8201168201806040525081019061233f9190614ca9565b905060005b818110156122b457601154604051632404341f60e21b815260048101869052602481018390526000916001600160a01b031690639010d07c9060440160206040518083038186803b15801561239857600080fd5b505afa1580156123ac573d6000803e3d6000fd5b505050506040513d601f19601f820116820180604052508101906123d09190614969565b604051632f2ff15d60e01b8152600481018790526001600160a01b03821660248201529091503090632f2ff15d90604401600060405180830381600087803b15801561241b57600080fd5b505af115801561242f573d6000803e3d6000fd5b5050505050808061243f9061503a565b915050612344565b6000612460600080516020615171833981519152612143565b506124786000805160206151718339815191526122be565b61248157600080fd5b612498600080516020615131833981519152612143565b506124b06000805160206151318339815191526122be565b6124b957600080fd5b6124d0600080516020615111833981519152612143565b506124e86000805160206151118339815191526122be565b6124f157600080fd5b612508600080516020615151833981519152612143565b506125206000805160206151518339815191526122be565b61252957600080fd5b612540600080516020615191833981519152612143565b506125586000805160206151918339815191526122be565b61256157600080fd5b61256b6000612143565b5061257660006122be565b61257f57600080fd5b612587613148565b50600190565b60006125988261204d565b6125f95760405162461bcd60e51b815260206004820152602c60248201527f4552433732313a206f70657261746f7220717565727920666f72206e6f6e657860448201526b34b9ba32b73a103a37b5b2b760a11b6064820152608401610b80565b600061260483611343565b6000848152602360205260409020549091506001600160a01b039081169085168114806117aa57506117aa8286611d6e565b612640338261258d565b61265c5760405162461bcd60e51b8152600401610b8090614f09565b610cb6838383613964565b600082815260016020819052604082200154905460ff161561268d57610cb68383613804565b6126978133613b0f565b610cb68383613804565b601160009054906101000a90046001600160a01b03166001600160a01b031663dadf56ac6040518163ffffffff1660e01b815260040160206040518083038186803b1580156126ef57600080fd5b505afa158015612703573d6000803e3d6000fd5b505050506040513d601f19601f820116820180604052508101906127279190614969565b600c80546001600160a01b0319166001600160a01b039283161790556011546040805163024bebe960e01b81529051919092169163024bebe9916004808301926020929190829003018186803b15801561278057600080fd5b505afa158015612794573d6000803e3d6000fd5b505050506040513d601f19601f820116820180604052508101906127b89190614969565b600d80546001600160a01b0319166001600160a01b0392831617905560115460408051635b5c251f60e01b815290519190921691635b5c251f916004808301926020929190829003018186803b15801561281157600080fd5b505afa158015612825573d6000803e3d6000fd5b505050506040513d601f19601f820116820180604052508101906128499190614969565b600e80546001600160a01b0319166001600160a01b0392831617905560115460408051637310bf1d60e11b81529051919092169163e6217e3a916004808301926020929190829003018186803b1580156128a257600080fd5b505afa1580156128b6573d6000803e3d6000fd5b505050506040513d601f19601f820116820180604052508101906128da9190614969565b601080546001600160a01b0319166001600160a01b039283161790556011546040805163d88127a160e01b81529051919092169163d88127a1916004808301926020929190829003018186803b15801561293357600080fd5b505afa158015612947573d6000803e3d6000fd5b505050506040513d601f19601f8201168201806040525081019061296b9190614969565b600b80546001600160a01b0319166001600160a01b0392909216919091179055565b601160009054906101000a90046001600160a01b03166001600160a01b03166321d7f0086040518163ffffffff1660e01b815260040160206040518083038186803b1580156129db57600080fd5b505afa1580156129ef573d6000803e3d6000fd5b505050506040513d601f19601f82011682018060405250810190612a139190614969565b600480546001600160a01b0319166001600160a01b039283161781556011546040805163762ddb5960e01b81529051919093169263762ddb599281810192602092909190829003018186803b158015612a6b57600080fd5b505afa158015612a7f573d6000803e3d6000fd5b505050506040513d601f19601f82011682018060405250810190612aa39190614969565b600580546001600160a01b0319166001600160a01b039283161790556011546040805163bfb7dc9960e01b81529051919092169163bfb7dc99916004808301926020929190829003018186803b158015612afc57600080fd5b505afa158015612b10573d6000803e3d6000fd5b505050506040513d601f19601f82011682018060405250810190612b349190614969565b600680546001600160a01b0319166001600160a01b0392831617905560115460408051633e6111eb60e21b81529051919092169163f98447ac916004808301926020929190829003018186803b158015612b8d57600080fd5b505afa158015612ba1573d6000803e3d6000fd5b505050506040513d601f19601f82011682018060405250810190612bc59190614969565b600780546001600160a01b0319166001600160a01b0392831617905560115460408051630fe1ba9f60e21b815290519190921691633f86ea7c916004808301926020929190829003018186803b158015612c1e57600080fd5b505afa158015612c32573d6000803e3d6000fd5b505050506040513d601f19601f82011682018060405250810190612c569190614969565b600880546001600160a01b0319166001600160a01b0392831617905560115460408051632b90024160e11b8152905191909216916357200482916004808301926020929190829003018186803b158015612caf57600080fd5b505afa158015612cc3573d6000803e3d6000fd5b505050506040513d601f19601f82011682018060405250810190612ce79190614969565b600980546001600160a01b0319166001600160a01b0392831617905560115460408051636b58477560e01b815290519190921691636b584775916004808301926020929190829003018186803b158015612d4057600080fd5b505afa158015612d54573d6000803e3d6000fd5b505050506040513d601f19601f82011682018060405250810190612d789190614969565b600a80546001600160a01b0319166001600160a01b0392909216919091179055565b6001600160a01b0381163314612e0a5760405162461bcd60e51b815260206004820152602f60248201527f416363657373436f6e74726f6c3a2063616e206f6e6c792072656e6f756e636560448201526e103937b632b9903337b91039b2b63360891b6064820152608401610b80565b6119f18282613b73565b600061184d836001600160a01b038416613bda565b60185460ff16612e725760405162461bcd60e51b815260206004820152601460248201527314185d5cd8589b194e881b9bdd081c185d5cd95960621b6044820152606401610b80565b6018805460ff191690557f5db9ee0a495bf2e6ff9c91a7834c1ba4fdd244a5e8aa4e537bd38aeae4b073aa335b6040516001600160a01b03909116815260200160405180910390a1565b610cb6838383604051806020016040528060008152506119f5565b805160009061125e9060229060208501906147e7565b60115460405163ca15c87360e01b81526004810183905260009182916001600160a01b039091169063ca15c8739060240160206040518083038186803b158015612f3657600080fd5b505afa158015612f4a573d6000803e3d6000fd5b505050506040513d601f19601f82011682018060405250810190612f6e9190614ca9565b60405163ca15c87360e01b815260048101859052909150600090309063ca15c8739060240160206040518083038186803b158015612fab57600080fd5b505afa158015612fbf573d6000803e3d6000fd5b505050506040513d601f19601f82011682018060405250810190612fe39190614ca9565b90506000612ff18284614fa5565b9050600081116130365760405162461bcd60e51b815260206004820152601060248201526f4e6f7468696e6720746f2073796e632160801b6044820152606401610b80565b60005b8181101561313c57601154604051632404341f60e21b815260048101889052602481018390526000916001600160a01b031690639010d07c9060440160206040518083038186803b15801561308d57600080fd5b505afa1580156130a1573d6000803e3d6000fd5b505050506040513d601f19601f820116820180604052508101906130c59190614969565b604051632f2ff15d60e01b8152600481018990526001600160a01b03821660248201529091503090632f2ff15d90604401600060405180830381600087803b15801561311057600080fd5b505af1158015613124573d6000803e3d6000fd5b505050505080806131349061503a565b915050613039565b50600195945050505050565b601160009054906101000a90046001600160a01b03166001600160a01b031663ff7e88ec6040518163ffffffff1660e01b815260040160206040518083038186803b15801561319657600080fd5b505afa1580156131aa573d6000803e3d6000fd5b505050506040513d601f19601f820116820180604052508101906131ce9190614bbd565b601160156101000a81548160ff021916908315150217905550601160009054906101000a90046001600160a01b03166001600160a01b0316632fb565856040518163ffffffff1660e01b815260040160206040518083038186803b15801561323557600080fd5b505afa158015613249573d6000803e3d6000fd5b505050506040513d601f19601f8201168201806040525081019061326d9190614bbd565b60118054911515600160b01b0260ff60b01b19909216919091179055565b6000805b601e548110156132c2576132a28161204d565b156132b0576132b0816134b0565b806132ba8161503a565b91505061328f565b50506000601e55600190565b60006001600160a01b03831633148015906132f157506001600160a01b03831615155b6132fa57600080fd5b50601e54613309338383613cc7565b6133138382613d36565b6001601e60008282546133269190614f5a565b909155505092915050565b60185460ff16156133775760405162461bcd60e51b815260206004820152601060248201526f14185d5cd8589b194e881c185d5cd95960821b6044820152606401610b80565b6018805460ff191660011790557f62e78cea01bee320cd4e420270b5ea74000d11b0c9f74754ebdbfc544b05a258612e9f3390565b600061184d8383613d50565b6001600160a01b0382163314156134115760405162461bcd60e51b815260206004820152601960248201527f4552433732313a20617070726f766520746f2063616c6c6572000000000000006044820152606401610b80565b3360008181526017602090815260408083206001600160a01b03871680855290835292819020805460ff191686151590811790915590519081529192917f17307eab39ab6107e8899845ad3d59bd9653f200f220920489ca2b5937696c31910160405180910390a35050565b613488848484613964565b61349484848484613dd6565b611a275760405162461bcd60e51b8152600401610b8090614e6a565b610d1e81613ee3565b60606134c48261204d565b61352a5760405162461bcd60e51b815260206004820152603160248201527f45524337323155524953746f726167653a2055524920717565727920666f72206044820152703737b732bc34b9ba32b73a103a37b5b2b760791b6064820152608401610b80565b6000828152601960205260408120805461354390614fff565b80601f016020809104026020016040519081016040528092919081815260200182805461356f90614fff565b80156135bc5780601f10613591576101008083540402835291602001916135bc565b820191906000526020600020905b81548152906001019060200180831161359f57829003601f168201915b5050505050905060006135cd613f23565b90508051600014156135e0575092915050565b8151156136125780826040516020016135fa929190614cee565b60405160208183030381529060405292505050919050565b611dc584613f32565b6000610a80825490565b600082815260016020819052604082200154905460ff161561364b57610cb68383613b73565b6136558133613b0f565b610cb68383613b73565b60006001600160a01b038416331480159061368257506001600160a01b03841615155b61368b57600080fd5b50601e5461369a338483613cc7565b6136a48482613d36565b6136ae8183613ffc565b6001601e60008282546136c19190614f5a565b90915550509392505050565b601160009054906101000a90046001600160a01b03166001600160a01b031663a44b93256040518163ffffffff1660e01b815260040160206040518083038186803b15801561371b57600080fd5b505afa15801561372f573d6000803e3d6000fd5b505050506040513d601f19601f820116820180604052508101906137539190614bbd565b61375c57600080fd5b601160009054906101000a90046001600160a01b03166001600160a01b031663ac7cfac36040518163ffffffff1660e01b815260040160206040518083038186803b1580156137aa57600080fd5b505afa1580156137be573d6000803e3d6000fd5b505050506040513d601f19601f820116820180604052508101906137e29190614969565b600380546001600160a01b0319166001600160a01b0392909216919091179055565b61380e8282611854565b6119f15760008281526001602081815260408084206001600160a01b0386168086529252808420805460ff19169093179092559051339285917f2f8788117e7eff1d82e926ec794901d17c78024a50270940304540a733656f0d9190a45050565b60008181526001830160205260408120546112a557508154600181810184556000848152602080822090930184905584548482528286019093526040902091909155610a80565b60006001600160e01b031982166380ac58cd60e01b14806138e757506001600160e01b03198216635b5e139f60e01b145b80610a805750610a8082614087565b600081815260166020526040902080546001600160a01b0319166001600160a01b038416908117909155819061392b82611343565b6001600160a01b03167f8c5be1e5ebec7d5bd14f71427d1e84f3dd0314c0f7b2291e5b200ac8c7c3b92560405160405180910390a45050565b826001600160a01b031661397782611343565b6001600160a01b0316146139df5760405162461bcd60e51b815260206004820152602960248201527f4552433732313a207472616e73666572206f6620746f6b656e2074686174206960448201526839903737ba1037bbb760b91b6064820152608401610b80565b6001600160a01b038216613a415760405162461bcd60e51b8152602060048201526024808201527f4552433732313a207472616e7366657220746f20746865207a65726f206164646044820152637265737360e01b6064820152608401610b80565b613a4c8383836140ac565b613a5760008261206a565b6001600160a01b0383166000908152601560205260408120805460019290613a80908490614fa5565b90915550506001600160a01b0382166000908152601560205260408120805460019290613aae908490614f5a565b909155505060008181526014602052604080822080546001600160a01b0319166001600160a01b0386811691821790925591518493918716917fddf252ad1be2c89b69c2b068fc378daa952ba7f163c4a11628f55a4df523b3ef91a4505050565b613b198282611854565b6119f157613b31816001600160a01b031660146140b7565b613b3c8360206140b7565b604051602001613b4d929190614d1d565b60408051601f198184030181529082905262461bcd60e51b8252610b8091600401614e2d565b613b7d8282611854565b156119f15760008281526001602090815260408083206001600160a01b0385168085529252808320805460ff1916905551339285917ff6391f5c32d9c69d2a47ea670b442974b53935d1edc7fd64eb21e047a839171b9190a45050565b60008181526001830160205260408120548015613cbd576000613bfe600183614fa5565b8554909150600090613c1290600190614fa5565b90506000866000018281548110613c2b57613c2b6150ab565b9060005260206000200154905080876000018481548110613c4e57613c4e6150ab565b600091825260208083209091019290925582815260018901909152604090208490558654879080613c8157613c81615095565b60019003818190600052602060002001600090559055866001016000878152602001908152602001600020600090556001945050505050610a80565b6000915050610a80565b600081815260236020908152604090912080546001600160a01b0319166001600160a01b0386161781558351613d05926001909201918501906147e7565b506001600160a01b039092166000908152602460209081526040822080546001810182559083529120019190915550565b6119f1828260405180602001604052806000815250614253565b81546000908210613dae5760405162461bcd60e51b815260206004820152602260248201527f456e756d657261626c655365743a20696e646578206f7574206f6620626f756e604482015261647360f01b6064820152608401610b80565b826000018281548110613dc357613dc36150ab565b9060005260206000200154905092915050565b60006001600160a01b0384163b15613ed857604051630a85bd0160e11b81526001600160a01b0385169063150b7a0290613e1a903390899088908890600401614d92565b602060405180830381600087803b158015613e3457600080fd5b505af1925050508015613e64575060408051601f3d908101601f19168201909252613e6191810190614c57565b60015b613ebe573d808015613e92576040519150601f19603f3d011682016040523d82523d6000602084013e613e97565b606091505b508051613eb65760405162461bcd60e51b8152600401610b8090614e6a565b805181602001fd5b6001600160e01b031916630a85bd0160e11b149050611dc5565b506001949350505050565b613eec81614286565b60008181526019602052604090208054613f0590614fff565b159050610d1e576000818152601960205260408120610d1e9161486b565b606060228054610a9590614fff565b6060613f3d8261204d565b613fa15760405162461bcd60e51b815260206004820152602f60248201527f4552433732314d657461646174613a2055524920717565727920666f72206e6f60448201526e3732bc34b9ba32b73a103a37b5b2b760891b6064820152608401610b80565b6000613fab613f23565b90506000815111613fcb576040518060200160405280600081525061184d565b80613fd58461432d565b604051602001613fe6929190614cee565b6040516020818303038152906040529392505050565b6140058261204d565b6140685760405162461bcd60e51b815260206004820152602e60248201527f45524337323155524953746f726167653a2055524920736574206f66206e6f6e60448201526d32bc34b9ba32b73a103a37b5b2b760911b6064820152608401610b80565b60008281526019602090815260409091208251610cb6928401906147e7565b60006001600160e01b03198216635a05180f60e01b1480610a805750610a808261442b565b610cb6838383614460565b606060006140c6836002614f86565b6140d1906002614f5a565b67ffffffffffffffff8111156140e9576140e96150c1565b6040519080825280601f01601f191660200182016040528015614113576020820181803683370190505b509050600360fc1b8160008151811061412e5761412e6150ab565b60200101906001600160f81b031916908160001a905350600f60fb1b8160018151811061415d5761415d6150ab565b60200101906001600160f81b031916908160001a9053506000614181846002614f86565b61418c906001614f5a565b90505b6001811115614204576f181899199a1a9b1b9c1cb0b131b232b360811b85600f16601081106141c0576141c06150ab565b1a60f81b8282815181106141d6576141d66150ab565b60200101906001600160f81b031916908160001a90535060049490941c936141fd81614fe8565b905061418f565b50831561184d5760405162461bcd60e51b815260206004820181905260248201527f537472696e67733a20686578206c656e67746820696e73756666696369656e746044820152606401610b80565b61425d8383614518565b61426a6000848484613dd6565b610cb65760405162461bcd60e51b8152600401610b8090614e6a565b600061429182611343565b905061429f816000846140ac565b6142aa60008361206a565b6001600160a01b03811660009081526015602052604081208054600192906142d3908490614fa5565b909155505060008281526014602052604080822080546001600160a01b0319169055518391906001600160a01b038416907fddf252ad1be2c89b69c2b068fc378daa952ba7f163c4a11628f55a4df523b3ef908390a45050565b6060816143515750506040805180820190915260018152600360fc1b602082015290565b8160005b811561437b57806143658161503a565b91506143749050600a83614f72565b9150614355565b60008167ffffffffffffffff811115614396576143966150c1565b6040519080825280601f01601f1916602001820160405280156143c0576020820181803683370190505b5090505b8415611dc5576143d5600183614fa5565b91506143e2600a86615055565b6143ed906030614f5a565b60f81b818381518110614402576144026150ab565b60200101906001600160f81b031916908160001a905350614424600a86614f72565b94506143c4565b60006001600160e01b03198216637965db0b60e01b1480610a8057506301ffc9a760e01b6001600160e01b0319831614610a80565b6001600160a01b0383166144bb576144b681601c80546000838152601d60205260408120829055600182018355919091527f0e4562a10381dec21b205ed72637e6b1b523bdd0e4d4d50af5cd23dd4500a2110155565b6144de565b816001600160a01b0316836001600160a01b0316146144de576144de8382614657565b6001600160a01b0382166144f557610cb6816146f4565b826001600160a01b0316826001600160a01b031614610cb657610cb682826147a3565b6001600160a01b03821661456e5760405162461bcd60e51b815260206004820181905260248201527f4552433732313a206d696e7420746f20746865207a65726f20616464726573736044820152606401610b80565b6145778161204d565b156145c45760405162461bcd60e51b815260206004820152601c60248201527f4552433732313a20746f6b656e20616c7265616479206d696e746564000000006044820152606401610b80565b6145d0600083836140ac565b6001600160a01b03821660009081526015602052604081208054600192906145f9908490614f5a565b909155505060008181526014602052604080822080546001600160a01b0319166001600160a01b03861690811790915590518392907fddf252ad1be2c89b69c2b068fc378daa952ba7f163c4a11628f55a4df523b3ef908290a45050565b6000600161466484611452565b61466e9190614fa5565b6000838152601b60205260409020549091508082146146c1576001600160a01b0384166000908152601a602090815260408083208584528252808320548484528184208190558352601b90915290208190555b506000918252601b602090815260408084208490556001600160a01b039094168352601a81528383209183525290812055565b601c5460009061470690600190614fa5565b6000838152601d6020526040812054601c805493945090928490811061472e5761472e6150ab565b9060005260206000200154905080601c838154811061474f5761474f6150ab565b6000918252602080832090910192909255828152601d9091526040808220849055858252812055601c80548061478757614787615095565b6001900381819060005260206000200160009055905550505050565b60006147ae83611452565b6001600160a01b039093166000908152601a602090815260408083208684528252808320859055938252601b9052919091209190915550565b8280546147f390614fff565b90600052602060002090601f016020900481019282614815576000855561485b565b82601f1061482e57805160ff191683800117855561485b565b8280016001018555821561485b579182015b8281111561485b578251825591602001919060010190614840565b506148679291506148a1565b5090565b50805461487790614fff565b6000825580601f10614887575050565b601f016020900490600052602060002090810190610d1e91905b5b8082111561486757600081556001016148a2565b600067ffffffffffffffff808411156148d1576148d16150c1565b604051601f8501601f19908116603f011681019082821181831017156148f9576148f96150c1565b8160405280935085815286868601111561491257600080fd5b858560208301376000602087830101525050509392505050565b600082601f83011261493d57600080fd5b61184d838335602085016148b6565b60006020828403121561495e57600080fd5b813561184d816150d7565b60006020828403121561497b57600080fd5b815161184d816150d7565b6000806040838503121561499957600080fd5b82356149a4816150d7565b915060208301356149b4816150d7565b809150509250929050565b6000806000606084860312156149d457600080fd5b83356149df816150d7565b925060208401356149ef816150d7565b929592945050506040919091013590565b60008060008060808587031215614a1657600080fd5b8435614a21816150d7565b93506020850135614a31816150d7565b925060408501359150606085013567ffffffffffffffff811115614a5457600080fd5b8501601f81018713614a6557600080fd5b614a74878235602084016148b6565b91505092959194509250565b60008060408385031215614a9357600080fd5b8235614a9e816150d7565b915060208301356149b4816150ec565b60008060408385031215614ac157600080fd5b8235614acc816150d7565b9150602083013567ffffffffffffffff811115614ae857600080fd5b614af48582860161492c565b9150509250929050565b600080600060608486031215614b1357600080fd5b8335614b1e816150d7565b9250602084013567ffffffffffffffff80821115614b3b57600080fd5b614b478783880161492c565b93506040860135915080821115614b5d57600080fd5b50614b6a8682870161492c565b9150509250925092565b60008060408385031215614b8757600080fd5b8235614b92816150d7565b946020939093013593505050565b600060208284031215614bb257600080fd5b813561184d816150ec565b600060208284031215614bcf57600080fd5b815161184d816150ec565b600060208284031215614bec57600080fd5b5035919050565b60008060408385031215614c0657600080fd5b8235915060208301356149b4816150d7565b60008060408385031215614c2b57600080fd5b50508035926020909101359150565b600060208284031215614c4c57600080fd5b813561184d816150fa565b600060208284031215614c6957600080fd5b815161184d816150fa565b600060208284031215614c8657600080fd5b813567ffffffffffffffff811115614c9d57600080fd5b611dc58482850161492c565b600060208284031215614cbb57600080fd5b5051919050565b60008151808452614cda816020860160208601614fbc565b601f01601f19169290920160200192915050565b60008351614d00818460208801614fbc565b835190830190614d14818360208801614fbc565b01949350505050565b7f416363657373436f6e74726f6c3a206163636f756e7420000000000000000000815260008351614d55816017850160208801614fbc565b7001034b99036b4b9b9b4b733903937b6329607d1b6017918401918201528351614d86816028840160208801614fbc565b01602801949350505050565b6001600160a01b0385811682528416602082015260408101839052608060608201819052600090611d5790830184614cc2565b6001600160a01b0383168152604060208201819052600090611dc590830184614cc2565b6020808252825182820181905260009190848201906040850190845b81811015614e2157835183529284019291840191600101614e05565b50909695505050505050565b60208152600061184d6020830184614cc2565b60208082526010908201526f436f757274204d75737420416772656560801b604082015260600190565b60208082526032908201527f4552433732313a207472616e7366657220746f206e6f6e20455243373231526560408201527131b2b4bb32b91034b6b83632b6b2b73a32b960711b606082015260800190565b6020808252602d908201527f596f7520646f206e6f742068617665207065726d697373696f6e20746f206d6f60408201526c7665207468697320626164676560981b606082015260800190565b60208082526031908201527f4552433732313a207472616e736665722063616c6c6572206973206e6f74206f6040820152701ddb995c881b9bdc88185c1c1c9bdd9959607a1b606082015260800190565b60008219821115614f6d57614f6d615069565b500190565b600082614f8157614f8161507f565b500490565b6000816000190483118215151615614fa057614fa0615069565b500290565b600082821015614fb757614fb7615069565b500390565b60005b83811015614fd7578181015183820152602001614fbf565b83811115611a275750506000910152565b600081614ff757614ff7615069565b506000190190565b600181811c9082168061501357607f821691505b6020821081141561503457634e487b7160e01b600052602260045260246000fd5b50919050565b600060001982141561504e5761504e615069565b5060010190565b6000826150645761506461507f565b500690565b634e487b7160e01b600052601160045260246000fd5b634e487b7160e01b600052601260045260246000fd5b634e487b7160e01b600052603160045260246000fd5b634e487b7160e01b600052603260045260246000fd5b634e487b7160e01b600052604160045260246000fd5b6001600160a01b0381168114610d1e57600080fd5b8015158114610d1e57600080fd5b6001600160e01b031981168114610d1e57600080fdfefa8e4989e1d689f7bc5c4b25b87efb51fecdecb19ba62847e29c759e12a89acd048bc71fa1cb2c119c339cf9cf00a97996a19a9d991ce5fe049f2fa5459e7990f0f4b159a6e2a4815eb3ca3df080bfa70c9270662c59bcaa4479a456220183e60538d24a8b7882d7b2e36af243d4af61c23e86e3daa6cb8c887b53220b2f57207c9d7f6f02908185bffb3f7fc9afb29fd7bf93675af8fd4b655ee05c2cee1e0ea26469706673582212204d6a6fcfc460ed8e2bb607c707942f18e3a3ac3fd69cb2d89875dff3fa58e96e64736f6c63430008070033",
  "immutableReferences": {},
  "source": "pragma solidity ^0.8.0;\n\nimport \"../src/ERC721/UserSendable.sol\";\n\n\ncontract PinkSlips is UserSendable {\n\n\n     constructor(address _AddressManagerAddress)\n        UserSendable(\"PinkSlip\", \"Pink\", _AddressManagerAddress)\n    {\n    }      \n\n}",
  "sourcePath": "/home/n/Desktop/PinkSlips_FrontEnd_REFORMAT/contracts/badges/PinkSlips.sol",
  "compiler": {
    "name": "solc",
    "version": "0.8.7+commit.e28d00a7.Emscripten.clang"
  },
  "schemaVersion": "3.4.1",
  "updatedAt": "2021-08-18T01:04:55.694Z",
  "networkType": "ethereum",
  "devdoc": {
    "kind": "dev",
    "methods": {
      "approve(address,uint256)": {
        "details": "See {IERC721-approve}."
      },
      "balanceOf(address)": {
        "details": "See {IERC721-balanceOf}."
      },
      "getApproved(uint256)": {
        "details": "See {IERC721-getApproved}."
      },
      "getRoleAdmin(bytes32)": {
        "details": "Returns the admin role that controls `role`. See {grantRole} and {revokeRole}. To change a role's admin, use {_setRoleAdmin}."
      },
      "getRoleMember(bytes32,uint256)": {
        "details": "Returns one of the accounts that have `role`. `index` must be a value between 0 and {getRoleMemberCount}, non-inclusive. Role bearers are not sorted in any particular way, and their ordering may change at any point. WARNING: When using {getRoleMember} and {getRoleMemberCount}, make sure you perform all queries on the same block. See the following https://forum.openzeppelin.com/t/iterating-over-elements-on-enumerableset-in-openzeppelin-contracts/2296[forum post] for more information."
      },
      "getRoleMemberCount(bytes32)": {
        "details": "Returns the number of accounts that have `role`. Can be used together with {getRoleMember} to enumerate all bearers of a role."
      },
      "grantRole(bytes32,address)": {
        "details": "Overload {grantRole} to track enumerable memberships"
      },
      "hasRole(bytes32,address)": {
        "details": "Returns `true` if `account` has been granted `role`."
      },
      "isApprovedForAll(address,address)": {
        "details": "See {IERC721-isApprovedForAll}."
      },
      "issueBadge(address,string)": {
        "details": "//// Issuance Desk                                                                            ////"
      },
      "name()": {
        "details": "See {IERC721Metadata-name}."
      },
      "ownerOf(uint256)": {
        "details": "See {IERC721-ownerOf}."
      },
      "pause()": {
        "details": "//// Maintanence\\\\\\\\\\\\\\\\\\\\\\\\\\\\\\\\\\\\\\\\\\\\\\\\\\\\\\                                                   ////"
      },
      "paused()": {
        "details": "Returns true if the contract is paused, and false otherwise."
      },
      "renounceRole(bytes32,address)": {
        "details": "Overload {renounceRole} to track enumerable memberships"
      },
      "revokeRole(bytes32,address)": {
        "details": "Overload {revokeRole} to track enumerable memberships"
      },
      "safeTransferFrom(address,address,uint256)": {
        "details": "See {IERC721-safeTransferFrom}."
      },
      "safeTransferFrom(address,address,uint256,bytes)": {
        "details": "See {IERC721-safeTransferFrom}."
      },
      "setApprovalForAll(address,bool)": {
        "details": "See {IERC721-setApprovalForAll}."
      },
      "setMintingCost(uint256)": {
        "details": "//// Set Minting Costs                                                                        ////"
      },
      "symbol()": {
        "details": "See {IERC721Metadata-symbol}."
      },
      "tokenByIndex(uint256)": {
        "details": "See {IERC721Enumerable-tokenByIndex}."
      },
      "tokenOfOwnerByIndex(address,uint256)": {
        "details": "See {IERC721Enumerable-tokenOfOwnerByIndex}."
      },
      "totalSupply()": {
        "details": "See {IERC721Enumerable-totalSupply}."
      },
      "transferFrom(address,address,uint256)": {
        "details": "See {IERC721-transferFrom}."
      }
    },
    "version": 1
  },
  "userdoc": {
    "kind": "user",
    "methods": {},
    "version": 1
  }
}