{
  "contractName": "PinkSlips",
  "abi": [
    {
      "inputs": [
        {
          "internalType": "address",
          "name": "_AddressManagerAddress",
          "type": "address"
        }
      ],
      "stateMutability": "nonpayable",
      "type": "constructor"
    },
    {
      "anonymous": false,
      "inputs": [
        {
          "indexed": true,
          "internalType": "address",
          "name": "owner",
          "type": "address"
        },
        {
          "indexed": true,
          "internalType": "address",
          "name": "approved",
          "type": "address"
        },
        {
          "indexed": true,
          "internalType": "uint256",
          "name": "tokenId",
          "type": "uint256"
        }
      ],
      "name": "Approval",
      "type": "event"
    },
    {
      "anonymous": false,
      "inputs": [
        {
          "indexed": true,
          "internalType": "address",
          "name": "owner",
          "type": "address"
        },
        {
          "indexed": true,
          "internalType": "address",
          "name": "operator",
          "type": "address"
        },
        {
          "indexed": false,
          "internalType": "bool",
          "name": "approved",
          "type": "bool"
        }
      ],
      "name": "ApprovalForAll",
      "type": "event"
    },
    {
      "anonymous": false,
      "inputs": [
        {
          "indexed": false,
          "internalType": "address",
          "name": "account",
          "type": "address"
        }
      ],
      "name": "Paused",
      "type": "event"
    },
    {
      "anonymous": false,
      "inputs": [
        {
          "indexed": true,
          "internalType": "bytes32",
          "name": "role",
          "type": "bytes32"
        },
        {
          "indexed": true,
          "internalType": "bytes32",
          "name": "previousAdminRole",
          "type": "bytes32"
        },
        {
          "indexed": true,
          "internalType": "bytes32",
          "name": "newAdminRole",
          "type": "bytes32"
        }
      ],
      "name": "RoleAdminChanged",
      "type": "event"
    },
    {
      "anonymous": false,
      "inputs": [
        {
          "indexed": true,
          "internalType": "bytes32",
          "name": "role",
          "type": "bytes32"
        },
        {
          "indexed": true,
          "internalType": "address",
          "name": "account",
          "type": "address"
        },
        {
          "indexed": true,
          "internalType": "address",
          "name": "sender",
          "type": "address"
        }
      ],
      "name": "RoleGranted",
      "type": "event"
    },
    {
      "anonymous": false,
      "inputs": [
        {
          "indexed": true,
          "internalType": "bytes32",
          "name": "role",
          "type": "bytes32"
        },
        {
          "indexed": true,
          "internalType": "address",
          "name": "account",
          "type": "address"
        },
        {
          "indexed": true,
          "internalType": "address",
          "name": "sender",
          "type": "address"
        }
      ],
      "name": "RoleRevoked",
      "type": "event"
    },
    {
      "anonymous": false,
      "inputs": [
        {
          "indexed": true,
          "internalType": "address",
          "name": "from",
          "type": "address"
        },
        {
          "indexed": true,
          "internalType": "address",
          "name": "to",
          "type": "address"
        },
        {
          "indexed": true,
          "internalType": "uint256",
          "name": "tokenId",
          "type": "uint256"
        }
      ],
      "name": "Transfer",
      "type": "event"
    },
    {
      "anonymous": false,
      "inputs": [
        {
          "indexed": false,
          "internalType": "address",
          "name": "account",
          "type": "address"
        }
      ],
      "name": "Unpaused",
      "type": "event"
    },
    {
      "inputs": [],
      "name": "AddressManagerAddress",
      "outputs": [
        {
          "internalType": "address",
          "name": "",
          "type": "address"
        }
      ],
      "stateMutability": "view",
      "type": "function",
      "constant": true
    },
    {
      "inputs": [
        {
          "internalType": "uint256",
          "name": "",
          "type": "uint256"
        }
      ],
      "name": "BadgeInfo",
      "outputs": [
        {
          "internalType": "address",
          "name": "gifter",
          "type": "address"
        },
        {
          "internalType": "string",
          "name": "reason",
          "type": "string"
        }
      ],
      "stateMutability": "view",
      "type": "function",
      "constant": true
    },
    {
      "inputs": [
        {
          "internalType": "address",
          "name": "",
          "type": "address"
        },
        {
          "internalType": "uint256",
          "name": "",
          "type": "uint256"
        }
      ],
      "name": "BadgesSent",
      "outputs": [
        {
          "internalType": "uint256",
          "name": "",
          "type": "uint256"
        }
      ],
      "stateMutability": "view",
      "type": "function",
      "constant": true
    },
    {
      "inputs": [],
      "name": "ChadBadgeAddress",
      "outputs": [
        {
          "internalType": "address",
          "name": "",
          "type": "address"
        }
      ],
      "stateMutability": "view",
      "type": "function",
      "constant": true
    },
    {
      "inputs": [],
      "name": "ColoredIDAddress",
      "outputs": [
        {
          "internalType": "address",
          "name": "",
          "type": "address"
        }
      ],
      "stateMutability": "view",
      "type": "function",
      "constant": true
    },
    {
      "inputs": [],
      "name": "CourtClerk",
      "outputs": [
        {
          "internalType": "address",
          "name": "",
          "type": "address"
        }
      ],
      "stateMutability": "view",
      "type": "function",
      "constant": true
    },
    {
      "inputs": [],
      "name": "DEFAULT_ADMIN_ROLE",
      "outputs": [
        {
          "internalType": "bytes32",
          "name": "",
          "type": "bytes32"
        }
      ],
      "stateMutability": "view",
      "type": "function",
      "constant": true
    },
    {
      "inputs": [],
      "name": "GAVELS_BAILIFF",
      "outputs": [
        {
          "internalType": "bytes32",
          "name": "",
          "type": "bytes32"
        }
      ],
      "stateMutability": "view",
      "type": "function",
      "constant": true
    },
    {
      "inputs": [],
      "name": "GavelDAOAgent",
      "outputs": [
        {
          "internalType": "address",
          "name": "",
          "type": "address"
        }
      ],
      "stateMutability": "view",
      "type": "function",
      "constant": true
    },
    {
      "inputs": [],
      "name": "GavelTokenAddress",
      "outputs": [
        {
          "internalType": "address",
          "name": "",
          "type": "address"
        }
      ],
      "stateMutability": "view",
      "type": "function",
      "constant": true
    },
    {
      "inputs": [],
      "name": "GavelVote",
      "outputs": [
        {
          "internalType": "bool",
          "name": "",
          "type": "bool"
        }
      ],
      "stateMutability": "view",
      "type": "function",
      "constant": true
    },
    {
      "inputs": [],
      "name": "GoldStarAddress",
      "outputs": [
        {
          "internalType": "address",
          "name": "",
          "type": "address"
        }
      ],
      "stateMutability": "view",
      "type": "function",
      "constant": true
    },
    {
      "inputs": [],
      "name": "JERK_ROLE",
      "outputs": [
        {
          "internalType": "bytes32",
          "name": "",
          "type": "bytes32"
        }
      ],
      "stateMutability": "view",
      "type": "function",
      "constant": true
    },
    {
      "inputs": [],
      "name": "JURY_BAILIFF",
      "outputs": [
        {
          "internalType": "bytes32",
          "name": "",
          "type": "bytes32"
        }
      ],
      "stateMutability": "view",
      "type": "function",
      "constant": true
    },
    {
      "inputs": [],
      "name": "JuryDAOAgent",
      "outputs": [
        {
          "internalType": "address",
          "name": "",
          "type": "address"
        }
      ],
      "stateMutability": "view",
      "type": "function",
      "constant": true
    },
    {
      "inputs": [],
      "name": "JuryPoolAddress",
      "outputs": [
        {
          "internalType": "address",
          "name": "",
          "type": "address"
        }
      ],
      "stateMutability": "view",
      "type": "function",
      "constant": true
    },
    {
      "inputs": [],
      "name": "JuryVote",
      "outputs": [
        {
          "internalType": "bool",
          "name": "",
          "type": "bool"
        }
      ],
      "stateMutability": "view",
      "type": "function",
      "constant": true
    },
    {
      "inputs": [],
      "name": "MINI_BAILIFF_ROLE",
      "outputs": [
        {
          "internalType": "bytes32",
          "name": "",
          "type": "bytes32"
        }
      ],
      "stateMutability": "view",
      "type": "function",
      "constant": true
    },
    {
      "inputs": [],
      "name": "MiniBailiff",
      "outputs": [
        {
          "internalType": "address",
          "name": "",
          "type": "address"
        }
      ],
      "stateMutability": "view",
      "type": "function",
      "constant": true
    },
    {
      "inputs": [],
      "name": "PinkSlipAddress",
      "outputs": [
        {
          "internalType": "address",
          "name": "",
          "type": "address"
        }
      ],
      "stateMutability": "view",
      "type": "function",
      "constant": true
    },
    {
      "inputs": [],
      "name": "RedPenTokenAddress",
      "outputs": [
        {
          "internalType": "address",
          "name": "",
          "type": "address"
        }
      ],
      "stateMutability": "view",
      "type": "function",
      "constant": true
    },
    {
      "inputs": [],
      "name": "THE_COURT_ROLE",
      "outputs": [
        {
          "internalType": "bytes32",
          "name": "",
          "type": "bytes32"
        }
      ],
      "stateMutability": "view",
      "type": "function",
      "constant": true
    },
    {
      "inputs": [],
      "name": "TheCourtAddress",
      "outputs": [
        {
          "internalType": "address",
          "name": "",
          "type": "address"
        }
      ],
      "stateMutability": "view",
      "type": "function",
      "constant": true
    },
    {
      "inputs": [],
      "name": "TreasuryAddress",
      "outputs": [
        {
          "internalType": "address",
          "name": "",
          "type": "address"
        }
      ],
      "stateMutability": "view",
      "type": "function",
      "constant": true
    },
    {
      "inputs": [],
      "name": "addressManager",
      "outputs": [
        {
          "internalType": "contract AddressManager",
          "name": "",
          "type": "address"
        }
      ],
      "stateMutability": "view",
      "type": "function",
      "constant": true
    },
    {
      "inputs": [
        {
          "internalType": "address",
          "name": "to",
          "type": "address"
        },
        {
          "internalType": "uint256",
          "name": "tokenId",
          "type": "uint256"
        }
      ],
      "name": "approve",
      "outputs": [],
      "stateMutability": "nonpayable",
      "type": "function"
    },
    {
      "inputs": [],
      "name": "badgeColor",
      "outputs": [
        {
          "internalType": "string",
          "name": "",
          "type": "string"
        }
      ],
      "stateMutability": "view",
      "type": "function",
      "constant": true
    },
    {
      "inputs": [],
      "name": "badgeName",
      "outputs": [
        {
          "internalType": "string",
          "name": "",
          "type": "string"
        }
      ],
      "stateMutability": "view",
      "type": "function",
      "constant": true
    },
    {
      "inputs": [
        {
          "internalType": "address",
          "name": "owner",
          "type": "address"
        }
      ],
      "name": "balanceOf",
      "outputs": [
        {
          "internalType": "uint256",
          "name": "",
          "type": "uint256"
        }
      ],
      "stateMutability": "view",
      "type": "function",
      "constant": true
    },
    {
      "inputs": [
        {
          "internalType": "uint256",
          "name": "valueMustBe69",
          "type": "uint256"
        }
      ],
      "name": "destroyAndLockContract",
      "outputs": [
        {
          "internalType": "bool",
          "name": "",
          "type": "bool"
        }
      ],
      "stateMutability": "nonpayable",
      "type": "function"
    },
    {
      "inputs": [
        {
          "internalType": "uint256",
          "name": "tokenId",
          "type": "uint256"
        }
      ],
      "name": "getApproved",
      "outputs": [
        {
          "internalType": "address",
          "name": "",
          "type": "address"
        }
      ],
      "stateMutability": "view",
      "type": "function",
      "constant": true
    },
    {
      "inputs": [
        {
          "internalType": "uint256",
          "name": "_tokenId",
          "type": "uint256"
        }
      ],
      "name": "getBadgeReason",
      "outputs": [
        {
          "internalType": "string",
          "name": "_theReason",
          "type": "string"
        }
      ],
      "stateMutability": "view",
      "type": "function",
      "constant": true
    },
    {
      "inputs": [
        {
          "internalType": "uint256",
          "name": "_tokenId",
          "type": "uint256"
        }
      ],
      "name": "getBadgeSender",
      "outputs": [
        {
          "internalType": "address",
          "name": "_theGifter",
          "type": "address"
        }
      ],
      "stateMutability": "view",
      "type": "function",
      "constant": true
    },
    {
      "inputs": [
        {
          "internalType": "address",
          "name": "_gifter",
          "type": "address"
        }
      ],
      "name": "getBadgesSent",
      "outputs": [
        {
          "internalType": "uint256[]",
          "name": "_BadgesSent",
          "type": "uint256[]"
        }
      ],
      "stateMutability": "view",
      "type": "function",
      "constant": true
    },
    {
      "inputs": [
        {
          "internalType": "bytes32",
          "name": "role",
          "type": "bytes32"
        }
      ],
      "name": "getRoleAdmin",
      "outputs": [
        {
          "internalType": "bytes32",
          "name": "",
          "type": "bytes32"
        }
      ],
      "stateMutability": "view",
      "type": "function",
      "constant": true
    },
    {
      "inputs": [
        {
          "internalType": "bytes32",
          "name": "role",
          "type": "bytes32"
        },
        {
          "internalType": "uint256",
          "name": "index",
          "type": "uint256"
        }
      ],
      "name": "getRoleMember",
      "outputs": [
        {
          "internalType": "address",
          "name": "",
          "type": "address"
        }
      ],
      "stateMutability": "view",
      "type": "function",
      "constant": true
    },
    {
      "inputs": [
        {
          "internalType": "bytes32",
          "name": "role",
          "type": "bytes32"
        }
      ],
      "name": "getRoleMemberCount",
      "outputs": [
        {
          "internalType": "uint256",
          "name": "",
          "type": "uint256"
        }
      ],
      "stateMutability": "view",
      "type": "function",
      "constant": true
    },
    {
      "inputs": [
        {
          "internalType": "bytes32",
          "name": "role",
          "type": "bytes32"
        },
        {
          "internalType": "address",
          "name": "account",
          "type": "address"
        }
      ],
      "name": "grantRole",
      "outputs": [],
      "stateMutability": "nonpayable",
      "type": "function"
    },
    {
      "inputs": [
        {
          "internalType": "bytes32",
          "name": "role",
          "type": "bytes32"
        },
        {
          "internalType": "address",
          "name": "account",
          "type": "address"
        }
      ],
      "name": "hasRole",
      "outputs": [
        {
          "internalType": "bool",
          "name": "",
          "type": "bool"
        }
      ],
      "stateMutability": "view",
      "type": "function",
      "constant": true
    },
    {
      "inputs": [
        {
          "internalType": "address",
          "name": "owner",
          "type": "address"
        },
        {
          "internalType": "address",
          "name": "operator",
          "type": "address"
        }
      ],
      "name": "isApprovedForAll",
      "outputs": [
        {
          "internalType": "bool",
          "name": "",
          "type": "bool"
        }
      ],
      "stateMutability": "view",
      "type": "function",
      "constant": true
    },
    {
      "inputs": [
        {
          "internalType": "address",
          "name": "addressToCheck",
          "type": "address"
        },
        {
          "internalType": "uint256",
          "name": "badgeTokenID",
          "type": "uint256"
        }
      ],
      "name": "isBadgeSender",
      "outputs": [
        {
          "internalType": "bool",
          "name": "",
          "type": "bool"
        }
      ],
      "stateMutability": "view",
      "type": "function",
      "constant": true
    },
    {
      "inputs": [],
      "name": "isForeverLocked",
      "outputs": [
        {
          "internalType": "bool",
          "name": "",
          "type": "bool"
        }
      ],
      "stateMutability": "view",
      "type": "function",
      "constant": true
    },
    {
      "inputs": [
        {
          "internalType": "address",
          "name": "receivingAddress",
          "type": "address"
        },
        {
          "internalType": "string",
          "name": "_reason",
          "type": "string"
        }
      ],
      "name": "issueBadge",
      "outputs": [
        {
          "internalType": "uint256",
          "name": "newId",
          "type": "uint256"
        }
      ],
      "stateMutability": "nonpayable",
      "type": "function"
    },
    {
      "inputs": [],
      "name": "jerkSanctions",
      "outputs": [
        {
          "internalType": "bool",
          "name": "",
          "type": "bool"
        }
      ],
      "stateMutability": "view",
      "type": "function",
      "constant": true
    },
    {
      "inputs": [],
      "name": "mintingCost",
      "outputs": [
        {
          "internalType": "uint256",
          "name": "",
          "type": "uint256"
        }
      ],
      "stateMutability": "view",
      "type": "function",
      "constant": true
    },
    {
      "inputs": [],
      "name": "mintingCostFloor",
      "outputs": [
        {
          "internalType": "uint256",
          "name": "",
          "type": "uint256"
        }
      ],
      "stateMutability": "view",
      "type": "function",
      "constant": true
    },
    {
      "inputs": [],
      "name": "name",
      "outputs": [
        {
          "internalType": "string",
          "name": "",
          "type": "string"
        }
      ],
      "stateMutability": "view",
      "type": "function",
      "constant": true
    },
    {
      "inputs": [
        {
          "internalType": "uint256",
          "name": "tokenId",
          "type": "uint256"
        }
      ],
      "name": "ownerOf",
      "outputs": [
        {
          "internalType": "address",
          "name": "",
          "type": "address"
        }
      ],
      "stateMutability": "view",
      "type": "function",
      "constant": true
    },
    {
      "inputs": [],
      "name": "pause",
      "outputs": [],
      "stateMutability": "nonpayable",
      "type": "function"
    },
    {
      "inputs": [],
      "name": "paused",
      "outputs": [
        {
          "internalType": "bool",
          "name": "",
          "type": "bool"
        }
      ],
      "stateMutability": "view",
      "type": "function",
      "constant": true
    },
    {
      "inputs": [],
      "name": "redPens",
      "outputs": [
        {
          "internalType": "contract ERC20",
          "name": "",
          "type": "address"
        }
      ],
      "stateMutability": "view",
      "type": "function",
      "constant": true
    },
    {
      "inputs": [
        {
          "internalType": "bool",
          "name": "thisIsNotReversible",
          "type": "bool"
        }
      ],
      "name": "refreshBadges",
      "outputs": [
        {
          "internalType": "bool",
          "name": "",
          "type": "bool"
        }
      ],
      "stateMutability": "nonpayable",
      "type": "function"
    },
    {
      "inputs": [
        {
          "internalType": "bytes32",
          "name": "role",
          "type": "bytes32"
        },
        {
          "internalType": "address",
          "name": "account",
          "type": "address"
        }
      ],
      "name": "renounceRole",
      "outputs": [],
      "stateMutability": "nonpayable",
      "type": "function"
    },
    {
      "inputs": [],
      "name": "resetVote",
      "outputs": [],
      "stateMutability": "nonpayable",
      "type": "function"
    },
    {
      "inputs": [
        {
          "internalType": "uint256",
          "name": "tokenId",
          "type": "uint256"
        }
      ],
      "name": "revokeBadge",
      "outputs": [],
      "stateMutability": "nonpayable",
      "type": "function"
    },
    {
      "inputs": [
        {
          "internalType": "bytes32",
          "name": "role",
          "type": "bytes32"
        },
        {
          "internalType": "address",
          "name": "account",
          "type": "address"
        }
      ],
      "name": "revokeRole",
      "outputs": [],
      "stateMutability": "nonpayable",
      "type": "function"
    },
    {
      "inputs": [
        {
          "internalType": "address",
          "name": "from",
          "type": "address"
        },
        {
          "internalType": "address",
          "name": "to",
          "type": "address"
        },
        {
          "internalType": "uint256",
          "name": "tokenId",
          "type": "uint256"
        }
      ],
      "name": "safeTransferFrom",
      "outputs": [],
      "stateMutability": "nonpayable",
      "type": "function"
    },
    {
      "inputs": [
        {
          "internalType": "address",
          "name": "from",
          "type": "address"
        },
        {
          "internalType": "address",
          "name": "to",
          "type": "address"
        },
        {
          "internalType": "uint256",
          "name": "tokenId",
          "type": "uint256"
        },
        {
          "internalType": "bytes",
          "name": "_data",
          "type": "bytes"
        }
      ],
      "name": "safeTransferFrom",
      "outputs": [],
      "stateMutability": "nonpayable",
      "type": "function"
    },
    {
      "inputs": [
        {
          "internalType": "address",
          "name": "operator",
          "type": "address"
        },
        {
          "internalType": "bool",
          "name": "approved",
          "type": "bool"
        }
      ],
      "name": "setApprovalForAll",
      "outputs": [],
      "stateMutability": "nonpayable",
      "type": "function"
    },
    {
      "inputs": [
        {
          "internalType": "uint256",
          "name": "costInWei",
          "type": "uint256"
        }
      ],
      "name": "setMintingCost",
      "outputs": [
        {
          "internalType": "bool",
          "name": "",
          "type": "bool"
        }
      ],
      "stateMutability": "nonpayable",
      "type": "function"
    },
    {
      "inputs": [
        {
          "internalType": "uint256",
          "name": "costFloorInWei",
          "type": "uint256"
        }
      ],
      "name": "setMintingCostFloor",
      "outputs": [
        {
          "internalType": "bool",
          "name": "",
          "type": "bool"
        }
      ],
      "stateMutability": "nonpayable",
      "type": "function"
    },
    {
      "inputs": [
        {
          "internalType": "bytes4",
          "name": "interfaceId",
          "type": "bytes4"
        }
      ],
      "name": "supportsInterface",
      "outputs": [
        {
          "internalType": "bool",
          "name": "",
          "type": "bool"
        }
      ],
      "stateMutability": "view",
      "type": "function",
      "constant": true
    },
    {
      "inputs": [],
      "name": "symbol",
      "outputs": [
        {
          "internalType": "string",
          "name": "",
          "type": "string"
        }
      ],
      "stateMutability": "view",
      "type": "function",
      "constant": true
    },
    {
      "inputs": [],
      "name": "syncAllRoles",
      "outputs": [],
      "stateMutability": "nonpayable",
      "type": "function"
    },
    {
      "inputs": [
        {
          "internalType": "bytes32",
          "name": "ROLE_TO_SYNC",
          "type": "bytes32"
        }
      ],
      "name": "syncSingleRole",
      "outputs": [],
      "stateMutability": "nonpayable",
      "type": "function"
    },
    {
      "inputs": [],
      "name": "syncVotes",
      "outputs": [],
      "stateMutability": "nonpayable",
      "type": "function"
    },
    {
      "inputs": [
        {
          "internalType": "uint256",
          "name": "index",
          "type": "uint256"
        }
      ],
      "name": "tokenByIndex",
      "outputs": [
        {
          "internalType": "uint256",
          "name": "",
          "type": "uint256"
        }
      ],
      "stateMutability": "view",
      "type": "function",
      "constant": true
    },
    {
      "inputs": [
        {
          "internalType": "address",
          "name": "owner",
          "type": "address"
        },
        {
          "internalType": "uint256",
          "name": "index",
          "type": "uint256"
        }
      ],
      "name": "tokenOfOwnerByIndex",
      "outputs": [
        {
          "internalType": "uint256",
          "name": "",
          "type": "uint256"
        }
      ],
      "stateMutability": "view",
      "type": "function",
      "constant": true
    },
    {
      "inputs": [
        {
          "internalType": "uint256",
          "name": "tokenId",
          "type": "uint256"
        }
      ],
      "name": "tokenURI",
      "outputs": [
        {
          "internalType": "string",
          "name": "",
          "type": "string"
        }
      ],
      "stateMutability": "view",
      "type": "function",
      "constant": true
    },
    {
      "inputs": [],
      "name": "totalSupply",
      "outputs": [
        {
          "internalType": "uint256",
          "name": "",
          "type": "uint256"
        }
      ],
      "stateMutability": "view",
      "type": "function",
      "constant": true
    },
    {
      "inputs": [
        {
          "internalType": "address",
          "name": "from",
          "type": "address"
        },
        {
          "internalType": "address",
          "name": "to",
          "type": "address"
        },
        {
          "internalType": "uint256",
          "name": "tokenId",
          "type": "uint256"
        }
      ],
      "name": "transferFrom",
      "outputs": [],
      "stateMutability": "nonpayable",
      "type": "function"
    },
    {
      "inputs": [],
      "name": "unpause",
      "outputs": [],
      "stateMutability": "nonpayable",
      "type": "function"
    },
    {
      "inputs": [],
      "name": "updateAddressManager",
      "outputs": [],
      "stateMutability": "nonpayable",
      "type": "function"
    },
    {
      "inputs": [],
      "name": "updateAllAddresses",
      "outputs": [],
      "stateMutability": "nonpayable",
      "type": "function"
    },
    {
      "inputs": [],
      "name": "updateAllRoles",
      "outputs": [],
      "stateMutability": "nonpayable",
      "type": "function"
    },
    {
      "inputs": [],
      "name": "updateDAOAddresses",
      "outputs": [],
      "stateMutability": "nonpayable",
      "type": "function"
    },
    {
      "inputs": [],
      "name": "updatePaymentToken",
      "outputs": [],
      "stateMutability": "nonpayable",
      "type": "function"
    },
    {
      "inputs": [
        {
          "internalType": "bytes32",
          "name": "ROLE_TO_UPDATE",
          "type": "bytes32"
        }
      ],
      "name": "updateSingleRole",
      "outputs": [],
      "stateMutability": "nonpayable",
      "type": "function"
    },
    {
      "inputs": [],
      "name": "updateTokenAddresses",
      "outputs": [],
      "stateMutability": "nonpayable",
      "type": "function"
    }
  ],
  "bytecode": "0x60806040526000805460ff1990811682556011805463ffffffff60a01b19169055601d91909155601e805490911690556729a2241af62c000060235567016345785d8a0000602455600554602580546001600160a01b0319166001600160a01b039092169190911790553480156200007657600080fd5b506040516200596638038062005966833981016040819052620000999162000d56565b6040805180820182526008815267050696e6b536c69760c41b6020808301919091528251808401909352600483526350696e6b60e01b90830152600380546001600160a01b0385166001600160a01b03199182168117909255601180549091169091179055908282828282828262000110620002d9565b6200011a620002ef565b600f5462000134906000906001600160a01b03166200043a565b600f546200016d907f0538d24a8b7882d7b2e36af243d4af61c23e86e3daa6cb8c887b53220b2f5720906001600160a01b03166200043a565b600c54620001a6907f048bc71fa1cb2c119c339cf9cf00a97996a19a9d991ce5fe049f2fa5459e7990906001600160a01b03166200043a565b600d54620001df907ffa8e4989e1d689f7bc5c4b25b87efb51fecdecb19ba62847e29c759e12a89acd906001600160a01b03166200043a565b60105462000218907ff0f4b159a6e2a4815eb3ca3df080bfa70c9270662c59bcaa4479a456220183e6906001600160a01b03166200043a565b620002457f7c9d7f6f02908185bffb3f7fc9afb29fd7bf93675af8fd4b655ee05c2cee1e0e60006200043a565b5081516200025b90601290602085019062000cb0565b5080516200027190601390602084019062000cb0565b50506018805460ff191690555081516200029390601f90602085019062000cb0565b508251620002a8906020908186019062000cb0565b5050600554602580546001600160a01b0319166001600160a01b039092169190911790555062000de9945050505050565b620002e36200047d565b620002ed6200077d565b565b601160009054906101000a90046001600160a01b03166001600160a01b031663ff7e88ec6040518163ffffffff1660e01b815260040160206040518083038186803b1580156200033e57600080fd5b505afa15801562000353573d6000803e3d6000fd5b505050506040513d601f19601f8201168201806040525081019062000379919062000d88565b601160156101000a81548160ff021916908315150217905550601160009054906101000a90046001600160a01b03166001600160a01b0316632fb565856040518163ffffffff1660e01b815260040160206040518083038186803b158015620003e157600080fd5b505afa158015620003f6573d6000803e3d6000fd5b505050506040513d601f19601f820116820180604052508101906200041c919062000d88565b60118054911515600160b01b0260ff60b01b19909216919091179055565b62000451828262000ba660201b62001e201760201c565b60008281526002602090815260409091206200047891839062001e2a62000bb6821b17901c565b505050565b601160009054906101000a90046001600160a01b03166001600160a01b031663dadf56ac6040518163ffffffff1660e01b815260040160206040518083038186803b158015620004cc57600080fd5b505afa158015620004e1573d6000803e3d6000fd5b505050506040513d601f19601f8201168201806040525081019062000507919062000d56565b600c80546001600160a01b0319166001600160a01b039283161790556011546040805163024bebe960e01b81529051919092169163024bebe9916004808301926020929190829003018186803b1580156200056157600080fd5b505afa15801562000576573d6000803e3d6000fd5b505050506040513d601f19601f820116820180604052508101906200059c919062000d56565b600d80546001600160a01b0319166001600160a01b0392831617905560115460408051635b5c251f60e01b815290519190921691635b5c251f916004808301926020929190829003018186803b158015620005f657600080fd5b505afa1580156200060b573d6000803e3d6000fd5b505050506040513d601f19601f8201168201806040525081019062000631919062000d56565b600e80546001600160a01b0319166001600160a01b0392831617905560115460408051637310bf1d60e11b81529051919092169163e6217e3a916004808301926020929190829003018186803b1580156200068b57600080fd5b505afa158015620006a0573d6000803e3d6000fd5b505050506040513d601f19601f82011682018060405250810190620006c6919062000d56565b601080546001600160a01b0319166001600160a01b039283161790556011546040805163d88127a160e01b81529051919092169163d88127a1916004808301926020929190829003018186803b1580156200072057600080fd5b505afa15801562000735573d6000803e3d6000fd5b505050506040513d601f19601f820116820180604052508101906200075b919062000d56565b600b80546001600160a01b0319166001600160a01b0392909216919091179055565b601160009054906101000a90046001600160a01b03166001600160a01b03166321d7f0086040518163ffffffff1660e01b815260040160206040518083038186803b158015620007cc57600080fd5b505afa158015620007e1573d6000803e3d6000fd5b505050506040513d601f19601f8201168201806040525081019062000807919062000d56565b600480546001600160a01b0319166001600160a01b039283161781556011546040805163762ddb5960e01b81529051919093169263762ddb599281810192602092909190829003018186803b1580156200086057600080fd5b505afa15801562000875573d6000803e3d6000fd5b505050506040513d601f19601f820116820180604052508101906200089b919062000d56565b600580546001600160a01b0319166001600160a01b039283161790556011546040805163bfb7dc9960e01b81529051919092169163bfb7dc99916004808301926020929190829003018186803b158015620008f557600080fd5b505afa1580156200090a573d6000803e3d6000fd5b505050506040513d601f19601f8201168201806040525081019062000930919062000d56565b600680546001600160a01b0319166001600160a01b0392831617905560115460408051633e6111eb60e21b81529051919092169163f98447ac916004808301926020929190829003018186803b1580156200098a57600080fd5b505afa1580156200099f573d6000803e3d6000fd5b505050506040513d601f19601f82011682018060405250810190620009c5919062000d56565b600780546001600160a01b0319166001600160a01b0392831617905560115460408051630fe1ba9f60e21b815290519190921691633f86ea7c916004808301926020929190829003018186803b15801562000a1f57600080fd5b505afa15801562000a34573d6000803e3d6000fd5b505050506040513d601f19601f8201168201806040525081019062000a5a919062000d56565b600880546001600160a01b0319166001600160a01b0392831617905560115460408051632b90024160e11b8152905191909216916357200482916004808301926020929190829003018186803b15801562000ab457600080fd5b505afa15801562000ac9573d6000803e3d6000fd5b505050506040513d601f19601f8201168201806040525081019062000aef919062000d56565b600980546001600160a01b0319166001600160a01b0392831617905560115460408051636b58477560e01b815290519190921691636b584775916004808301926020929190829003018186803b15801562000b4957600080fd5b505afa15801562000b5e573d6000803e3d6000fd5b505050506040513d601f19601f8201168201806040525081019062000b84919062000d56565b600a80546001600160a01b0319166001600160a01b0392909216919091179055565b62000bb2828262000bd6565b5050565b600062000bcd836001600160a01b03841662000c5e565b90505b92915050565b60008281526001602090815260408083206001600160a01b038516845290915290205460ff1662000bb25760008281526001602081815260408084206001600160a01b0386168086529252808420805460ff19169093179092559051339285917f2f8788117e7eff1d82e926ec794901d17c78024a50270940304540a733656f0d9190a45050565b600081815260018301602052604081205462000ca75750815460018181018455600084815260208082209093018490558454848252828601909352604090209190915562000bd0565b50600062000bd0565b82805462000cbe9062000dac565b90600052602060002090601f01602090048101928262000ce2576000855562000d2d565b82601f1062000cfd57805160ff191683800117855562000d2d565b8280016001018555821562000d2d579182015b8281111562000d2d57825182559160200191906001019062000d10565b5062000d3b92915062000d3f565b5090565b5b8082111562000d3b576000815560010162000d40565b60006020828403121562000d6957600080fd5b81516001600160a01b038116811462000d8157600080fd5b9392505050565b60006020828403121562000d9b57600080fd5b8151801515811462000d8157600080fd5b600181811c9082168062000dc157607f821691505b6020821081141562000de357634e487b7160e01b600052602260045260246000fd5b50919050565b614b6d8062000df96000396000f3fe608060405234801561001057600080fd5b50600436106104755760003560e01c80636b58477511610257578063c62b28e811610146578063e78c266c116100c3578063f1132b3011610087578063f1132b30146109c9578063f7d92d86146109d1578063f98447ac146109d9578063f98db253146109ec578063ff7e88ec146109ff57600080fd5b8063e78c266c14610972578063e985e9c514610985578063e9a5323014610998578063ebf98abf146109ad578063ee0b4c35146109b657600080fd5b8063d547741f1161010a578063d547741f1461091e578063d88127a114610931578063dadf56ac14610944578063dea6f9c814610957578063e6217e3a1461095f57600080fd5b8063c62b28e8146108bb578063c87b56dd146108ce578063ca15c873146108e1578063cce84392146108f4578063cf4ece151461090957600080fd5b806395d89b41116101d4578063a32c5e5911610198578063a32c5e591461084b578063a78e746f14610860578063b88d4fde14610874578063bfb7dc9914610887578063c04e17e31461089a57600080fd5b806395d89b411461080857806396ac6bf0146108105780639ac3eaa714610823578063a217fddf14610830578063a22cb4651461083857600080fd5b8063765160781161021b57806376516078146107b4578063794ccf6c146107c75780638456cb59146107da5780639010d07c146107e257806391d14854146107f557600080fd5b80636b5847751461074a5780636c353e341461075d57806370a082311461076557806373c8982214610778578063762ddb59146107a157600080fd5b8063329a8cfa1161037357806357f276ff116102f05780635f413466116102b45780635f413466146106e9578063610c3009146106fc5780636352211e1461070457806363ebc6771461071757806367a14f061461073757600080fd5b806357f276ff1461069d57806359e6f787146106b05780635b5c251f146106c35780635c975abb146106d65780635db531a1146106e157600080fd5b806342842e0e1161033757806342842e0e1461065457806349b5e105146106675780634d84c6d81461066f5780634f6ccce714610677578063572004821461068a57600080fd5b8063329a8cfa1461060b57806336568abe146106135780633ab76e9f146106265780633f4ba83a146106395780633f86ea7c1461064157600080fd5b806318160ddd1161040157806329e63f35116103c557806329e63f35146105b65780632f2ff15d146105c95780632f745c59146105dc5780632fb56585146105ef578063326a55e01461060357600080fd5b806318160ddd1461054f57806321d7f0081461055757806323b872dd1461056a5780632436329d1461057d578063248a9ca31461059257600080fd5b8063095ea7b311610448578063095ea7b3146104f55780630ad17f8f1461050a57806310a83fcb1461052b578063130f63201461053457806317314d5a1461054757600080fd5b806301ffc9a71461047a578063024bebe9146104a257806306fdde03146104cd578063081812fc146104e2575b600080fd5b61048d610488366004614616565b610a13565b60405190151581526020015b60405180910390f35b600d546104b5906001600160a01b031681565b6040516001600160a01b039091168152602001610499565b6104d5610a24565b60405161049991906147de565b6104b56104f03660046145b6565b610ab6565b610508610503366004614550565b610b50565b005b61051d610518366004614550565b610c66565b604051908152602001610499565b61051d60245481565b6105086105423660046145b6565b610c97565b610508610ccc565b601b5461051d565b6004546104b5906001600160a01b031681565b6105086105783660046143fd565b610cf5565b61051d600080516020614a9883398151915281565b61051d6105a03660046145b6565b6000908152600160208190526040909120015490565b61048d6105c43660046145b6565b610d26565b6105086105d73660046145cf565b610e33565b61051d6105ea366004614550565b610e55565b60115461048d90600160b01b900460ff1681565b610508610eeb565b610508610efb565b6105086106213660046145cf565b611004565b6011546104b5906001600160a01b031681565b610508611026565b6008546104b5906001600160a01b031681565b6105086106623660046143fd565b6110b8565b6105086110e9565b610508610ef3565b61051d6106853660046145b6565b6110f1565b6009546104b5906001600160a01b031681565b6105086106ab3660046145b6565b611184565b61048d6106be366004614550565b611198565b600e546104b5906001600160a01b031681565b60185460ff1661048d565b6105086111ca565b600f546104b5906001600160a01b031681565b6104d56111d2565b6104b56107123660046145b6565b611260565b61072a61072536600461438a565b6112d7565b604051610499919061479a565b6025546104b5906001600160a01b031681565b600a546104b5906001600160a01b031681565b610508611343565b61051d61077336600461438a565b61136f565b6104b56107863660046145b6565b6000908152602160205260409020546001600160a01b031690565b6005546104b5906001600160a01b031681565b61048d6107c236600461457c565b6113f6565b61051d6107d53660046144ec565b6114ed565b6105086116e0565b6104b56107f03660046145f4565b611762565b61048d6108033660046145cf565b611781565b6104d56117ac565b61048d61081e3660046145b6565b6117bb565b601e5461048d9060ff1681565b61051d600081565b6105086108463660046144be565b6118c7565b61051d600080516020614af883398151915281565b60115461048d90600160a01b900460ff1681565b61050861088236600461443e565b611945565b6006546104b5906001600160a01b031681565b6108ad6108a83660046145b6565b61197d565b604051610499929190614776565b6105086108c93660046145b6565b611a2c565b6104d56108dc3660046145b6565b611a7d565b61051d6108ef3660046145b6565b611b64565b61051d600080516020614b1883398151915281565b61051d600080516020614ad883398151915281565b61050861092c3660046145cf565b611b7b565b600b546104b5906001600160a01b031681565b600c546104b5906001600160a01b031681565b6104d5611b85565b6010546104b5906001600160a01b031681565b6003546104b5906001600160a01b031681565b61048d6109933660046143c4565b611b92565b61051d600080516020614ab883398151915281565b61051d60235481565b61048d6109c43660046145b6565b611bf1565b610508611cdd565b610508611ce5565b6007546104b5906001600160a01b031681565b6104d56109fa3660046145b6565b611d85565b60115461048d90600160a81b900460ff1681565b6000610a1e82611e3f565b92915050565b606060128054610a3390614986565b80601f0160208091040260200160405190810160405280929190818152602001828054610a5f90614986565b8015610aac5780601f10610a8157610100808354040283529160200191610aac565b820191906000526020600020905b815481529060010190602001808311610a8f57829003601f168201915b5050505050905090565b6000818152601460205260408120546001600160a01b0316610b345760405162461bcd60e51b815260206004820152602c60248201527f4552433732313a20617070726f76656420717565727920666f72206e6f6e657860448201526b34b9ba32b73a103a37b5b2b760a11b60648201526084015b60405180910390fd5b506000908152601660205260409020546001600160a01b031690565b6000610b5b82611260565b9050806001600160a01b0316836001600160a01b03161415610bc95760405162461bcd60e51b815260206004820152602160248201527f4552433732313a20617070726f76616c20746f2063757272656e74206f776e656044820152603960f91b6064820152608401610b2b565b336001600160a01b0382161480610be55750610be58133611b92565b610c575760405162461bcd60e51b815260206004820152603860248201527f4552433732313a20617070726f76652063616c6c6572206973206e6f74206f7760448201527f6e6572206e6f7220617070726f76656420666f7220616c6c00000000000000006064820152608401610b2b565b610c618383611e64565b505050565b60226020528160005260406000208181548110610c8257600080fd5b90600052602060002001600091509150505481565b610ca16001611e8b565b50610cab81611f3d565b50610cb5816120b8565b50610cc06000611e8b565b610cc957600080fd5b50565b610cd66001611e8b565b50610cdf612241565b50610cea6000611e8b565b610cf357600080fd5b565b610cff3382612387565b610d1b5760405162461bcd60e51b8152600401610b2b90614843565b610c6183838361243d565b6000610d40600080516020614af883398151915233611781565b80610d5e5750610d5e600080516020614ab883398151915233611781565b80610d7c5750610d7c600080516020614a9883398151915233611781565b610dc15760405162461bcd60e51b81526020600482015260166024820152752cb7ba93b932903737ba103a3432903130b4b634b33360511b6044820152606401610b2b565b6024548210610e1e5760405162461bcd60e51b8152602060048201526024808201527f536f7272792120596f752063616e206f6e6c79206c6f7765722074686520666c6044820152636f6f722160e01b6064820152608401610b2b565b610e2a82602455600190565b50600192915050565b610e3d828261246e565b6000828152600260205260409020610c619082611e2a565b6000610e608361136f565b8210610ec25760405162461bcd60e51b815260206004820152602b60248201527f455243373231456e756d657261626c653a206f776e657220696e646578206f7560448201526a74206f6620626f756e647360a81b6064820152608401610b2b565b506001600160a01b03919091166000908152601960209081526040808320938352929052205490565b610ef36124a8565b610cf3612794565b610f13600080516020614af883398151915233611781565b80610f315750610f31600080516020614ab883398151915233611781565b80610f4f5750610f4f600080516020614a9883398151915233611781565b610f945760405162461bcd60e51b81526020600482015260166024820152752cb7ba93b932903737ba103a3432903130b4b634b33360511b6044820152606401610b2b565b601160009054906101000a90046001600160a01b03166001600160a01b031663329a8cfa6040518163ffffffff1660e01b8152600401600060405180830381600087803b158015610fe457600080fd5b505af1158015610ff8573d6000803e3d6000fd5b50505050610cf36111ca565b61100e8282612ba1565b6000828152600260205260409020610c619082612c1b565b61103e600080516020614ab883398151915233611781565b8061105c575061105c600080516020614af883398151915233611781565b6110a05760405162461bcd60e51b8152602060048201526015602482015274596f75277265206e6f742074686520476176656c7360581b6044820152606401610b2b565b601e5460ff16156110b057600080fd5b610cf3612c30565b6110c23382612387565b6110de5760405162461bcd60e51b8152600401610b2b90614843565b610c61838383612cc3565b610cf36124a8565b60006110fc601b5490565b821061115f5760405162461bcd60e51b815260206004820152602c60248201527f455243373231456e756d657261626c653a20676c6f62616c20696e646578206f60448201526b7574206f6620626f756e647360a01b6064820152608401610b2b565b601b828154811061117257611172614a32565b90600052602060002001549050919050565b61118e6001611e8b565b50610cb581612cde565b6000818152602160205260408120546001600160a01b03848116911614156111c257506001610a1e565b506000610a1e565b610cf3612f39565b602080546111df90614986565b80601f016020809104026020016040519081016040528092919081815260200182805461120b90614986565b80156112585780601f1061122d57610100808354040283529160200191611258565b820191906000526020600020905b81548152906001019060200180831161123b57829003601f168201915b505050505081565b6000818152601460205260408120546001600160a01b031680610a1e5760405162461bcd60e51b815260206004820152602960248201527f4552433732313a206f776e657220717565727920666f72206e6f6e657869737460448201526832b73a103a37b5b2b760b91b6064820152608401610b2b565b6001600160a01b03811660009081526022602090815260409182902080548351818402810184019094528084526060939283018282801561133757602002820191906000526020600020905b815481526020019060010190808311611323575b50505050509050919050565b61134b612794565b600554602580546001600160a01b0319166001600160a01b03909216919091179055565b60006001600160a01b0382166113da5760405162461bcd60e51b815260206004820152602a60248201527f4552433732313a2062616c616e636520717565727920666f7220746865207a65604482015269726f206164647265737360b01b6064820152608401610b2b565b506001600160a01b031660009081526015602052604090205490565b6000611410600080516020614ab883398151915233611781565b8061142e575061142e600080516020614a9883398151915233611781565b8061144c575061144c600080516020614af883398151915233611781565b61145557600080fd5b601154600160b01b810460ff9081161515600160a81b90920416151514600114806114935750611493600080516020614af883398151915233611781565b6114d25760405162461bcd60e51b815260206004820152601060248201526f436f757274204d75737420416772656560801b6044820152606401610b2b565b600182151514156114e557610e2a61307c565b506000919050565b6023546025546040516370a0823160e01b8152306004820152600092859284926001600160a01b03909116906370a082319060240160206040518083038186803b15801561153a57600080fd5b505afa15801561154e573d6000803e3d6000fd5b505050506040513d601f19601f820116820180604052508101906115729190614650565b61157c91906148e1565b6025546023546040516323b872dd60e01b815233600482015230602482015260448101919091529192506001600160a01b0316906323b872dd90606401602060405180830381600087803b1580156115d357600080fd5b505af11580156115e7573d6000803e3d6000fd5b505050506040513d601f19601f8201168201806040525081019061160b9190614599565b506025546040516370a0823160e01b815230600482015282916001600160a01b0316906370a082319060240160206040518083038186803b15801561164f57600080fd5b505afa158015611663573d6000803e3d6000fd5b505050506040513d601f19601f820116820180604052508101906116879190614650565b146116cd5760405162461bcd60e51b8152602060048201526016602482015275115c9c9bdc88151c985b9cd9995c9a5b99c80854915160521b6044820152606401610b2b565b6116d785856130ce565b95945050505050565b6116f8600080516020614ab883398151915233611781565b806117165750611716600080516020614af883398151915233611781565b61175a5760405162461bcd60e51b8152602060048201526015602482015274596f75277265206e6f742074686520476176656c7360581b6044820152606401610b2b565b610cf3613133565b600082815260026020526040812061177a90836131ae565b9392505050565b60009182526001602090815260408084206001600160a01b0393909316845291905290205460ff1690565b606060138054610a3390614986565b60006117d5600080516020614ab883398151915233611781565b806117f357506117f3600080516020614a9883398151915233611781565b806118115750611811600080516020614af883398151915233611781565b61181a57600080fd5b601154600160b01b810460ff9081161515600160a81b90920416151514600114806118585750611858600080516020614af883398151915233611781565b6118975760405162461bcd60e51b815260206004820152601060248201526f436f757274204d75737420416772656560801b6044820152606401610b2b565b81604514156114e5576118a861307c565b506118b1613133565b50601e805460ff19166001908117909155919050565b6118df600080516020614af883398151915233611781565b806118fd57506118fd600080516020614ab883398151915233611781565b8061191b575061191b600080516020614a9883398151915233611781565b6119375760405162461bcd60e51b8152600401610b2b90614843565b61194182826131ba565b5050565b61194f3383612387565b61196b5760405162461bcd60e51b8152600401610b2b90614890565b6119778484848461327f565b50505050565b602160205260009081526040902080546001820180546001600160a01b0390921692916119a990614986565b80601f01602080910402602001604051908101604052809291908181526020018280546119d590614986565b8015611a225780601f106119f757610100808354040283529160200191611a22565b820191906000526020600020905b815481529060010190602001808311611a0557829003601f168201915b5050505050905082565b611a363382612387565b611a745760405162461bcd60e51b815260206004820152600f60248201526e4e696365205472792c204275636b6f60881b6044820152606401610b2b565b610cc9816132b2565b6000818152601460205260409020546060906001600160a01b0316611afc5760405162461bcd60e51b815260206004820152602f60248201527f4552433732314d657461646174613a2055524920717565727920666f72206e6f60448201526e3732bc34b9ba32b73a103a37b5b2b760891b6064820152608401610b2b565b6000611b1360408051602081019091526000815290565b90506000815111611b33576040518060200160405280600081525061177a565b80611b3d84613359565b604051602001611b4e929190614695565b6040516020818303038152906040529392505050565b6000818152600260205260408120610a1e90613457565b61100e8282613461565b601f80546111df90614986565b600080611bad600080516020614af883398151915284611781565b80611bcb5750611bcb600080516020614ab883398151915284611781565b80611be95750611be9600080516020614a9883398151915284611781565b949350505050565b6000611c0b600080516020614a9883398151915233611781565b80611c295750611c29600080516020614af883398151915233611781565b611c6b5760405162461bcd60e51b8152602060048201526013602482015272596f75277265206e6f7420746865204a75727960681b6044820152606401610b2b565b602454821015611cd15760405162461bcd60e51b815260206004820152602b60248201527f536f7272792120436f7374206d7573742062652067726561746572207468616e60448201526a10181718902932b22832b760a91b6064820152608401610b2b565b610e2a82602355600190565b610cf361349b565b611cef6001611e8b565b50611d07600080516020614af8833981519152612cde565b50611d1f600080516020614ab8833981519152612cde565b50611d37600080516020614a98833981519152612cde565b50611d4f600080516020614ad8833981519152612cde565b50611d67600080516020614b18833981519152612cde565b50611d726000612cde565b50611d7b612f39565b610cea6000611e8b565b6000818152602160205260409020600101805460609190611da590614986565b80601f0160208091040260200160405190810160405280929190818152602001828054611dd190614986565b80156113375780601f10611df357610100808354040283529160200191611337565b820191906000526020600020905b815481529060010190602001808311611e015750939695505050505050565b61194182826135d2565b600061177a836001600160a01b03841661363d565b60006001600160e01b0319821663780e9d6360e01b1480610a1e5750610a1e82613684565b611e7c600080516020614af883398151915233611781565b156119415761194182826136c4565b6000805460ff168215158115151415611ee65760405162461bcd60e51b815260206004820152601960248201527f416c72656164792053657420746f20746861742076616c7565000000000000006044820152606401610b2b565b6000805484151560ff19909116811790915560ff1615158115151415610e2a5760405162461bcd60e51b815260206004820152600c60248201526b29b0b33a32bc9022b93937b960a11b6044820152606401610b2b565b60405163ca15c87360e01b8152600481018290526000908190309063ca15c8739060240160206040518083038186803b158015611f7957600080fd5b505afa158015611f8d573d6000803e3d6000fd5b505050506040513d601f19601f82011682018060405250810190611fb19190614650565b905060005b818110156120ae57604051632404341f60e21b815260048101859052602481018290526000903090639010d07c9060440160206040518083038186803b158015611fff57600080fd5b505afa158015612013573d6000803e3d6000fd5b505050506040513d601f19601f8201168201806040525081019061203791906143a7565b60405163d547741f60e01b8152600481018790526001600160a01b0382166024820152909150309063d547741f90604401600060405180830381600087803b15801561208257600080fd5b505af1158015612096573d6000803e3d6000fd5b505050505080806120a6906149c1565b915050611fb6565b5060019392505050565b60115460405163ca15c87360e01b81526004810183905260009182916001600160a01b039091169063ca15c8739060240160206040518083038186803b15801561210157600080fd5b505afa158015612115573d6000803e3d6000fd5b505050506040513d601f19601f820116820180604052508101906121399190614650565b905060005b818110156120ae57601154604051632404341f60e21b815260048101869052602481018390526000916001600160a01b031690639010d07c9060440160206040518083038186803b15801561219257600080fd5b505afa1580156121a6573d6000803e3d6000fd5b505050506040513d601f19601f820116820180604052508101906121ca91906143a7565b604051632f2ff15d60e01b8152600481018790526001600160a01b03821660248201529091503090632f2ff15d90604401600060405180830381600087803b15801561221557600080fd5b505af1158015612229573d6000803e3d6000fd5b50505050508080612239906149c1565b91505061213e565b600061225a600080516020614af8833981519152611f3d565b50612272600080516020614af88339815191526120b8565b61227b57600080fd5b612292600080516020614ab8833981519152611f3d565b506122aa600080516020614ab88339815191526120b8565b6122b357600080fd5b6122ca600080516020614a98833981519152611f3d565b506122e2600080516020614a988339815191526120b8565b6122eb57600080fd5b612302600080516020614ad8833981519152611f3d565b5061231a600080516020614ad88339815191526120b8565b61232357600080fd5b61233a600080516020614b18833981519152611f3d565b50612352600080516020614b188339815191526120b8565b61235b57600080fd5b6123656000611f3d565b5061237060006120b8565b61237957600080fd5b612381612f39565b50600190565b6000818152601460205260408120546001600160a01b03166124005760405162461bcd60e51b815260206004820152602c60248201527f4552433732313a206f70657261746f7220717565727920666f72206e6f6e657860448201526b34b9ba32b73a103a37b5b2b760a11b6064820152608401610b2b565b600061240b83611260565b6000848152602160205260409020549091506001600160a01b039081169085168114806116d757506116d78286611b92565b6124473382612387565b6124635760405162461bcd60e51b8152600401610b2b90614890565b610c61838383613732565b600082815260016020819052604082200154905460ff161561249457610c6183836135d2565b61249e81336138dd565b610c6183836135d2565b601160009054906101000a90046001600160a01b03166001600160a01b031663dadf56ac6040518163ffffffff1660e01b815260040160206040518083038186803b1580156124f657600080fd5b505afa15801561250a573d6000803e3d6000fd5b505050506040513d601f19601f8201168201806040525081019061252e91906143a7565b600c80546001600160a01b0319166001600160a01b039283161790556011546040805163024bebe960e01b81529051919092169163024bebe9916004808301926020929190829003018186803b15801561258757600080fd5b505afa15801561259b573d6000803e3d6000fd5b505050506040513d601f19601f820116820180604052508101906125bf91906143a7565b600d80546001600160a01b0319166001600160a01b0392831617905560115460408051635b5c251f60e01b815290519190921691635b5c251f916004808301926020929190829003018186803b15801561261857600080fd5b505afa15801561262c573d6000803e3d6000fd5b505050506040513d601f19601f8201168201806040525081019061265091906143a7565b600e80546001600160a01b0319166001600160a01b0392831617905560115460408051637310bf1d60e11b81529051919092169163e6217e3a916004808301926020929190829003018186803b1580156126a957600080fd5b505afa1580156126bd573d6000803e3d6000fd5b505050506040513d601f19601f820116820180604052508101906126e191906143a7565b601080546001600160a01b0319166001600160a01b039283161790556011546040805163d88127a160e01b81529051919092169163d88127a1916004808301926020929190829003018186803b15801561273a57600080fd5b505afa15801561274e573d6000803e3d6000fd5b505050506040513d601f19601f8201168201806040525081019061277291906143a7565b600b80546001600160a01b0319166001600160a01b0392909216919091179055565b601160009054906101000a90046001600160a01b03166001600160a01b03166321d7f0086040518163ffffffff1660e01b815260040160206040518083038186803b1580156127e257600080fd5b505afa1580156127f6573d6000803e3d6000fd5b505050506040513d601f19601f8201168201806040525081019061281a91906143a7565b600480546001600160a01b0319166001600160a01b039283161781556011546040805163762ddb5960e01b81529051919093169263762ddb599281810192602092909190829003018186803b15801561287257600080fd5b505afa158015612886573d6000803e3d6000fd5b505050506040513d601f19601f820116820180604052508101906128aa91906143a7565b600580546001600160a01b0319166001600160a01b039283161790556011546040805163bfb7dc9960e01b81529051919092169163bfb7dc99916004808301926020929190829003018186803b15801561290357600080fd5b505afa158015612917573d6000803e3d6000fd5b505050506040513d601f19601f8201168201806040525081019061293b91906143a7565b600680546001600160a01b0319166001600160a01b0392831617905560115460408051633e6111eb60e21b81529051919092169163f98447ac916004808301926020929190829003018186803b15801561299457600080fd5b505afa1580156129a8573d6000803e3d6000fd5b505050506040513d601f19601f820116820180604052508101906129cc91906143a7565b600780546001600160a01b0319166001600160a01b0392831617905560115460408051630fe1ba9f60e21b815290519190921691633f86ea7c916004808301926020929190829003018186803b158015612a2557600080fd5b505afa158015612a39573d6000803e3d6000fd5b505050506040513d601f19601f82011682018060405250810190612a5d91906143a7565b600880546001600160a01b0319166001600160a01b0392831617905560115460408051632b90024160e11b8152905191909216916357200482916004808301926020929190829003018186803b158015612ab657600080fd5b505afa158015612aca573d6000803e3d6000fd5b505050506040513d601f19601f82011682018060405250810190612aee91906143a7565b600980546001600160a01b0319166001600160a01b0392831617905560115460408051636b58477560e01b815290519190921691636b584775916004808301926020929190829003018186803b158015612b4757600080fd5b505afa158015612b5b573d6000803e3d6000fd5b505050506040513d601f19601f82011682018060405250810190612b7f91906143a7565b600a80546001600160a01b0319166001600160a01b0392909216919091179055565b6001600160a01b0381163314612c115760405162461bcd60e51b815260206004820152602f60248201527f416363657373436f6e74726f6c3a2063616e206f6e6c792072656e6f756e636560448201526e103937b632b9903337b91039b2b63360891b6064820152608401610b2b565b6119418282613941565b600061177a836001600160a01b0384166139a8565b60185460ff16612c795760405162461bcd60e51b815260206004820152601460248201527314185d5cd8589b194e881b9bdd081c185d5cd95960621b6044820152606401610b2b565b6018805460ff191690557f5db9ee0a495bf2e6ff9c91a7834c1ba4fdd244a5e8aa4e537bd38aeae4b073aa335b6040516001600160a01b03909116815260200160405180910390a1565b610c6183838360405180602001604052806000815250611945565b60115460405163ca15c87360e01b81526004810183905260009182916001600160a01b039091169063ca15c8739060240160206040518083038186803b158015612d2757600080fd5b505afa158015612d3b573d6000803e3d6000fd5b505050506040513d601f19601f82011682018060405250810190612d5f9190614650565b60405163ca15c87360e01b815260048101859052909150600090309063ca15c8739060240160206040518083038186803b158015612d9c57600080fd5b505afa158015612db0573d6000803e3d6000fd5b505050506040513d601f19601f82011682018060405250810190612dd49190614650565b90506000612de2828461492c565b905060008111612e275760405162461bcd60e51b815260206004820152601060248201526f4e6f7468696e6720746f2073796e632160801b6044820152606401610b2b565b60005b81811015612f2d57601154604051632404341f60e21b815260048101889052602481018390526000916001600160a01b031690639010d07c9060440160206040518083038186803b158015612e7e57600080fd5b505afa158015612e92573d6000803e3d6000fd5b505050506040513d601f19601f82011682018060405250810190612eb691906143a7565b604051632f2ff15d60e01b8152600481018990526001600160a01b03821660248201529091503090632f2ff15d90604401600060405180830381600087803b158015612f0157600080fd5b505af1158015612f15573d6000803e3d6000fd5b50505050508080612f25906149c1565b915050612e2a565b50600195945050505050565b601160009054906101000a90046001600160a01b03166001600160a01b031663ff7e88ec6040518163ffffffff1660e01b815260040160206040518083038186803b158015612f8757600080fd5b505afa158015612f9b573d6000803e3d6000fd5b505050506040513d601f19601f82011682018060405250810190612fbf9190614599565b601160156101000a81548160ff021916908315150217905550601160009054906101000a90046001600160a01b03166001600160a01b0316632fb565856040518163ffffffff1660e01b815260040160206040518083038186803b15801561302657600080fd5b505afa15801561303a573d6000803e3d6000fd5b505050506040513d601f19601f8201168201806040525081019061305e9190614599565b60118054911515600160b01b0260ff60b01b19909216919091179055565b6000805b601d548110156130c2576000818152601460205260409020546001600160a01b0316156130b0576130b0816132b2565b806130ba816149c1565b915050613080565b50506000601d55600190565b60006001600160a01b03831633148015906130f157506001600160a01b03831615155b6130fa57600080fd5b50601d54613109338383613a95565b61311583601d54613b04565b6001601d600082825461312891906148e1565b909155505092915050565b60185460ff16156131795760405162461bcd60e51b815260206004820152601060248201526f14185d5cd8589b194e881c185d5cd95960821b6044820152606401610b2b565b6018805460ff191660011790557f62e78cea01bee320cd4e420270b5ea74000d11b0c9f74754ebdbfc544b05a258612ca63390565b600061177a8383613b1e565b6001600160a01b0382163314156132135760405162461bcd60e51b815260206004820152601960248201527f4552433732313a20617070726f766520746f2063616c6c6572000000000000006044820152606401610b2b565b3360008181526017602090815260408083206001600160a01b03871680855290835292819020805460ff191686151590811790915590519081529192917f17307eab39ab6107e8899845ad3d59bd9653f200f220920489ca2b5937696c31910160405180910390a35050565b61328a848484613732565b61329684848484613ba4565b6119775760405162461bcd60e51b8152600401610b2b906147f1565b60006132bd82611260565b90506132cb81600084613cb1565b6132d6600083611e64565b6001600160a01b03811660009081526015602052604081208054600192906132ff90849061492c565b909155505060008281526014602052604080822080546001600160a01b0319169055518391906001600160a01b038416907fddf252ad1be2c89b69c2b068fc378daa952ba7f163c4a11628f55a4df523b3ef908390a45050565b60608161337d5750506040805180820190915260018152600360fc1b602082015290565b8160005b81156133a75780613391816149c1565b91506133a09050600a836148f9565b9150613381565b60008167ffffffffffffffff8111156133c2576133c2614a48565b6040519080825280601f01601f1916602001820160405280156133ec576020820181803683370190505b5090505b8415611be95761340160018361492c565b915061340e600a866149dc565b6134199060306148e1565b60f81b81838151811061342e5761342e614a32565b60200101906001600160f81b031916908160001a905350613450600a866148f9565b94506133f0565b6000610a1e825490565b600082815260016020819052604082200154905460ff161561348757610c618383613941565b61349181336138dd565b610c618383613941565b601160009054906101000a90046001600160a01b03166001600160a01b031663a44b93256040518163ffffffff1660e01b815260040160206040518083038186803b1580156134e957600080fd5b505afa1580156134fd573d6000803e3d6000fd5b505050506040513d601f19601f820116820180604052508101906135219190614599565b61352a57600080fd5b601160009054906101000a90046001600160a01b03166001600160a01b031663ac7cfac36040518163ffffffff1660e01b815260040160206040518083038186803b15801561357857600080fd5b505afa15801561358c573d6000803e3d6000fd5b505050506040513d601f19601f820116820180604052508101906135b091906143a7565b600380546001600160a01b0319166001600160a01b0392909216919091179055565b6135dc8282611781565b6119415760008281526001602081815260408084206001600160a01b0386168086529252808420805460ff19169093179092559051339285917f2f8788117e7eff1d82e926ec794901d17c78024a50270940304540a733656f0d9190a45050565b60008181526001830160205260408120546111c257508154600181810184556000848152602080822090930184905584548482528286019093526040902091909155610a1e565b60006001600160e01b031982166380ac58cd60e01b14806136b557506001600160e01b03198216635b5e139f60e01b145b80610a1e5750610a1e82613cbc565b600081815260166020526040902080546001600160a01b0319166001600160a01b03841690811790915581906136f982611260565b6001600160a01b03167f8c5be1e5ebec7d5bd14f71427d1e84f3dd0314c0f7b2291e5b200ac8c7c3b92560405160405180910390a45050565b826001600160a01b031661374582611260565b6001600160a01b0316146137ad5760405162461bcd60e51b815260206004820152602960248201527f4552433732313a207472616e73666572206f6620746f6b656e2074686174206960448201526839903737ba1037bbb760b91b6064820152608401610b2b565b6001600160a01b03821661380f5760405162461bcd60e51b8152602060048201526024808201527f4552433732313a207472616e7366657220746f20746865207a65726f206164646044820152637265737360e01b6064820152608401610b2b565b61381a838383613cb1565b613825600082611e64565b6001600160a01b038316600090815260156020526040812080546001929061384e90849061492c565b90915550506001600160a01b038216600090815260156020526040812080546001929061387c9084906148e1565b909155505060008181526014602052604080822080546001600160a01b0319166001600160a01b0386811691821790925591518493918716917fddf252ad1be2c89b69c2b068fc378daa952ba7f163c4a11628f55a4df523b3ef91a4505050565b6138e78282611781565b611941576138ff816001600160a01b03166014613ce1565b61390a836020613ce1565b60405160200161391b9291906146c4565b60408051601f198184030181529082905262461bcd60e51b8252610b2b916004016147de565b61394b8282611781565b156119415760008281526001602090815260408083206001600160a01b0385168085529252808320805460ff1916905551339285917ff6391f5c32d9c69d2a47ea670b442974b53935d1edc7fd64eb21e047a839171b9190a45050565b60008181526001830160205260408120548015613a8b5760006139cc60018361492c565b85549091506000906139e09060019061492c565b905060008660000182815481106139f9576139f9614a32565b9060005260206000200154905080876000018481548110613a1c57613a1c614a32565b600091825260208083209091019290925582815260018901909152604090208490558654879080613a4f57613a4f614a1c565b60019003818190600052602060002001600090559055866001016000878152602001908152602001600020600090556001945050505050610a1e565b6000915050610a1e565b600081815260216020908152604090912080546001600160a01b0319166001600160a01b0386161781558351613ad39260019092019185019061427b565b506001600160a01b039092166000908152602260209081526040822080546001810182559083529120019190915550565b611941828260405180602001604052806000815250613e7d565b81546000908210613b7c5760405162461bcd60e51b815260206004820152602260248201527f456e756d657261626c655365743a20696e646578206f7574206f6620626f756e604482015261647360f01b6064820152608401610b2b565b826000018281548110613b9157613b91614a32565b9060005260206000200154905092915050565b60006001600160a01b0384163b15613ca657604051630a85bd0160e11b81526001600160a01b0385169063150b7a0290613be8903390899088908890600401614739565b602060405180830381600087803b158015613c0257600080fd5b505af1925050508015613c32575060408051601f3d908101601f19168201909252613c2f91810190614633565b60015b613c8c573d808015613c60576040519150601f19603f3d011682016040523d82523d6000602084013e613c65565b606091505b508051613c845760405162461bcd60e51b8152600401610b2b906147f1565b805181602001fd5b6001600160e01b031916630a85bd0160e11b149050611be9565b506001949350505050565b610c61838383613eb0565b60006001600160e01b03198216635a05180f60e01b1480610a1e5750610a1e82613f68565b60606000613cf083600261490d565b613cfb9060026148e1565b67ffffffffffffffff811115613d1357613d13614a48565b6040519080825280601f01601f191660200182016040528015613d3d576020820181803683370190505b509050600360fc1b81600081518110613d5857613d58614a32565b60200101906001600160f81b031916908160001a905350600f60fb1b81600181518110613d8757613d87614a32565b60200101906001600160f81b031916908160001a9053506000613dab84600261490d565b613db69060016148e1565b90505b6001811115613e2e576f181899199a1a9b1b9c1cb0b131b232b360811b85600f1660108110613dea57613dea614a32565b1a60f81b828281518110613e0057613e00614a32565b60200101906001600160f81b031916908160001a90535060049490941c93613e278161496f565b9050613db9565b50831561177a5760405162461bcd60e51b815260206004820181905260248201527f537472696e67733a20686578206c656e67746820696e73756666696369656e746044820152606401610b2b565b613e878383613f9d565b613e946000848484613ba4565b610c615760405162461bcd60e51b8152600401610b2b906147f1565b6001600160a01b038316613f0b57613f0681601b80546000838152601c60205260408120829055600182018355919091527f3ad8aa4f87544323a9d1e5dd902f40c356527a7955687113db5f9a85ad579dc10155565b613f2e565b816001600160a01b0316836001600160a01b031614613f2e57613f2e83826140eb565b6001600160a01b038216613f4557610c6181614188565b826001600160a01b0316826001600160a01b031614610c6157610c618282614237565b60006001600160e01b03198216637965db0b60e01b1480610a1e57506301ffc9a760e01b6001600160e01b0319831614610a1e565b6001600160a01b038216613ff35760405162461bcd60e51b815260206004820181905260248201527f4552433732313a206d696e7420746f20746865207a65726f20616464726573736044820152606401610b2b565b6000818152601460205260409020546001600160a01b0316156140585760405162461bcd60e51b815260206004820152601c60248201527f4552433732313a20746f6b656e20616c7265616479206d696e746564000000006044820152606401610b2b565b61406460008383613cb1565b6001600160a01b038216600090815260156020526040812080546001929061408d9084906148e1565b909155505060008181526014602052604080822080546001600160a01b0319166001600160a01b03861690811790915590518392907fddf252ad1be2c89b69c2b068fc378daa952ba7f163c4a11628f55a4df523b3ef908290a45050565b600060016140f88461136f565b614102919061492c565b6000838152601a6020526040902054909150808214614155576001600160a01b03841660009081526019602090815260408083208584528252808320548484528184208190558352601a90915290208190555b506000918252601a602090815260408084208490556001600160a01b039094168352601981528383209183525290812055565b601b5460009061419a9060019061492c565b6000838152601c6020526040812054601b80549394509092849081106141c2576141c2614a32565b9060005260206000200154905080601b83815481106141e3576141e3614a32565b6000918252602080832090910192909255828152601c9091526040808220849055858252812055601b80548061421b5761421b614a1c565b6001900381819060005260206000200160009055905550505050565b60006142428361136f565b6001600160a01b0390931660009081526019602090815260408083208684528252808320859055938252601a9052919091209190915550565b82805461428790614986565b90600052602060002090601f0160209004810192826142a957600085556142ef565b82601f106142c257805160ff19168380011785556142ef565b828001600101855582156142ef579182015b828111156142ef5782518255916020019190600101906142d4565b506142fb9291506142ff565b5090565b5b808211156142fb5760008155600101614300565b600067ffffffffffffffff8084111561432f5761432f614a48565b604051601f8501601f19908116603f0116810190828211818310171561435757614357614a48565b8160405280935085815286868601111561437057600080fd5b858560208301376000602087830101525050509392505050565b60006020828403121561439c57600080fd5b813561177a81614a5e565b6000602082840312156143b957600080fd5b815161177a81614a5e565b600080604083850312156143d757600080fd5b82356143e281614a5e565b915060208301356143f281614a5e565b809150509250929050565b60008060006060848603121561441257600080fd5b833561441d81614a5e565b9250602084013561442d81614a5e565b929592945050506040919091013590565b6000806000806080858703121561445457600080fd5b843561445f81614a5e565b9350602085013561446f81614a5e565b925060408501359150606085013567ffffffffffffffff81111561449257600080fd5b8501601f810187136144a357600080fd5b6144b287823560208401614314565b91505092959194509250565b600080604083850312156144d157600080fd5b82356144dc81614a5e565b915060208301356143f281614a73565b600080604083850312156144ff57600080fd5b823561450a81614a5e565b9150602083013567ffffffffffffffff81111561452657600080fd5b8301601f8101851361453757600080fd5b61454685823560208401614314565b9150509250929050565b6000806040838503121561456357600080fd5b823561456e81614a5e565b946020939093013593505050565b60006020828403121561458e57600080fd5b813561177a81614a73565b6000602082840312156145ab57600080fd5b815161177a81614a73565b6000602082840312156145c857600080fd5b5035919050565b600080604083850312156145e257600080fd5b8235915060208301356143f281614a5e565b6000806040838503121561460757600080fd5b50508035926020909101359150565b60006020828403121561462857600080fd5b813561177a81614a81565b60006020828403121561464557600080fd5b815161177a81614a81565b60006020828403121561466257600080fd5b5051919050565b60008151808452614681816020860160208601614943565b601f01601f19169290920160200192915050565b600083516146a7818460208801614943565b8351908301906146bb818360208801614943565b01949350505050565b7f416363657373436f6e74726f6c3a206163636f756e74200000000000000000008152600083516146fc816017850160208801614943565b7001034b99036b4b9b9b4b733903937b6329607d1b601791840191820152835161472d816028840160208801614943565b01602801949350505050565b6001600160a01b038581168252841660208201526040810183905260806060820181905260009061476c90830184614669565b9695505050505050565b6001600160a01b0383168152604060208201819052600090611be990830184614669565b6020808252825182820181905260009190848201906040850190845b818110156147d2578351835292840192918401916001016147b6565b50909695505050505050565b60208152600061177a6020830184614669565b60208082526032908201527f4552433732313a207472616e7366657220746f206e6f6e20455243373231526560408201527131b2b4bb32b91034b6b83632b6b2b73a32b960711b606082015260800190565b6020808252602d908201527f596f7520646f206e6f742068617665207065726d697373696f6e20746f206d6f60408201526c7665207468697320626164676560981b606082015260800190565b60208082526031908201527f4552433732313a207472616e736665722063616c6c6572206973206e6f74206f6040820152701ddb995c881b9bdc88185c1c1c9bdd9959607a1b606082015260800190565b600082198211156148f4576148f46149f0565b500190565b60008261490857614908614a06565b500490565b6000816000190483118215151615614927576149276149f0565b500290565b60008282101561493e5761493e6149f0565b500390565b60005b8381101561495e578181015183820152602001614946565b838111156119775750506000910152565b60008161497e5761497e6149f0565b506000190190565b600181811c9082168061499a57607f821691505b602082108114156149bb57634e487b7160e01b600052602260045260246000fd5b50919050565b60006000198214156149d5576149d56149f0565b5060010190565b6000826149eb576149eb614a06565b500690565b634e487b7160e01b600052601160045260246000fd5b634e487b7160e01b600052601260045260246000fd5b634e487b7160e01b600052603160045260246000fd5b634e487b7160e01b600052603260045260246000fd5b634e487b7160e01b600052604160045260246000fd5b6001600160a01b0381168114610cc957600080fd5b8015158114610cc957600080fd5b6001600160e01b031981168114610cc957600080fdfefa8e4989e1d689f7bc5c4b25b87efb51fecdecb19ba62847e29c759e12a89acd048bc71fa1cb2c119c339cf9cf00a97996a19a9d991ce5fe049f2fa5459e7990f0f4b159a6e2a4815eb3ca3df080bfa70c9270662c59bcaa4479a456220183e60538d24a8b7882d7b2e36af243d4af61c23e86e3daa6cb8c887b53220b2f57207c9d7f6f02908185bffb3f7fc9afb29fd7bf93675af8fd4b655ee05c2cee1e0ea2646970667358221220fe27c12aedd86a38141f793a29132b4f8c8132e895f70f5a9c78fe65c03ebff564736f6c63430008060033",
  "immutableReferences": {},
  "source": "pragma solidity ^0.8.0;\n\nimport \"../src/ERC721/UserSendable.sol\";\n\n\ncontract PinkSlips is UserSendable {\n\n\n     constructor(address _AddressManagerAddress)\n        UserSendable(\"PinkSlip\", \"Pink\", _AddressManagerAddress)\n    {\n    }      \n\n}",
  "sourcePath": "/home/n/Desktop/PinkSlips_FrontEnd_REFORMAT/contracts/badges/PinkSlips.sol",
  "compiler": {
    "name": "solc",
    "version": "0.8.6+commit.11564f7e.Emscripten.clang"
  },
  "schemaVersion": "3.4.1",
  "updatedAt": "2021-08-09T09:06:52.892Z",
  "networkType": "ethereum",
  "devdoc": {
    "kind": "dev",
    "methods": {
      "approve(address,uint256)": {
        "details": "See {IERC721-approve}."
      },
      "balanceOf(address)": {
        "details": "See {IERC721-balanceOf}."
      },
      "getApproved(uint256)": {
        "details": "See {IERC721-getApproved}."
      },
      "getRoleAdmin(bytes32)": {
        "details": "Returns the admin role that controls `role`. See {grantRole} and {revokeRole}. To change a role's admin, use {_setRoleAdmin}."
      },
      "getRoleMember(bytes32,uint256)": {
        "details": "Returns one of the accounts that have `role`. `index` must be a value between 0 and {getRoleMemberCount}, non-inclusive. Role bearers are not sorted in any particular way, and their ordering may change at any point. WARNING: When using {getRoleMember} and {getRoleMemberCount}, make sure you perform all queries on the same block. See the following https://forum.openzeppelin.com/t/iterating-over-elements-on-enumerableset-in-openzeppelin-contracts/2296[forum post] for more information."
      },
      "getRoleMemberCount(bytes32)": {
        "details": "Returns the number of accounts that have `role`. Can be used together with {getRoleMember} to enumerate all bearers of a role."
      },
      "grantRole(bytes32,address)": {
        "details": "Overload {grantRole} to track enumerable memberships"
      },
      "hasRole(bytes32,address)": {
        "details": "Returns `true` if `account` has been granted `role`."
      },
      "isApprovedForAll(address,address)": {
        "details": "See {IERC721-isApprovedForAll}."
      },
      "issueBadge(address,string)": {
        "details": "//// Issuance Desk                                                                            ////"
      },
      "name()": {
        "details": "See {IERC721Metadata-name}."
      },
      "ownerOf(uint256)": {
        "details": "See {IERC721-ownerOf}."
      },
      "pause()": {
        "details": "//// Maintanence\\\\\\\\\\\\\\\\\\\\\\\\\\\\\\\\\\\\\\\\\\\\\\\\\\\\\\                                                   ////"
      },
      "paused()": {
        "details": "Returns true if the contract is paused, and false otherwise."
      },
      "renounceRole(bytes32,address)": {
        "details": "Overload {renounceRole} to track enumerable memberships"
      },
      "revokeRole(bytes32,address)": {
        "details": "Overload {revokeRole} to track enumerable memberships"
      },
      "safeTransferFrom(address,address,uint256)": {
        "details": "See {IERC721-safeTransferFrom}."
      },
      "safeTransferFrom(address,address,uint256,bytes)": {
        "details": "See {IERC721-safeTransferFrom}."
      },
      "setApprovalForAll(address,bool)": {
        "details": "See {IERC721-setApprovalForAll}."
      },
      "setMintingCost(uint256)": {
        "details": "//// Set Minting Costs                                                                        ////"
      },
      "symbol()": {
        "details": "See {IERC721Metadata-symbol}."
      },
      "tokenByIndex(uint256)": {
        "details": "See {IERC721Enumerable-tokenByIndex}."
      },
      "tokenOfOwnerByIndex(address,uint256)": {
        "details": "See {IERC721Enumerable-tokenOfOwnerByIndex}."
      },
      "tokenURI(uint256)": {
        "details": "See {IERC721Metadata-tokenURI}."
      },
      "totalSupply()": {
        "details": "See {IERC721Enumerable-totalSupply}."
      },
      "transferFrom(address,address,uint256)": {
        "details": "See {IERC721-transferFrom}."
      }
    },
    "version": 1
  },
  "userdoc": {
    "kind": "user",
    "methods": {},
    "version": 1
  }
}