{
  "contractName": "RedPens",
  "abi": [
    {
      "inputs": [
        {
          "internalType": "address",
          "name": "_AddressManagerAddress",
          "type": "address"
        }
      ],
      "stateMutability": "nonpayable",
      "type": "constructor"
    },
    {
      "anonymous": false,
      "inputs": [
        {
          "indexed": true,
          "internalType": "address",
          "name": "owner",
          "type": "address"
        },
        {
          "indexed": true,
          "internalType": "address",
          "name": "spender",
          "type": "address"
        },
        {
          "indexed": false,
          "internalType": "uint256",
          "name": "value",
          "type": "uint256"
        }
      ],
      "name": "Approval",
      "type": "event"
    },
    {
      "anonymous": false,
      "inputs": [
        {
          "indexed": true,
          "internalType": "bytes32",
          "name": "role",
          "type": "bytes32"
        },
        {
          "indexed": true,
          "internalType": "bytes32",
          "name": "previousAdminRole",
          "type": "bytes32"
        },
        {
          "indexed": true,
          "internalType": "bytes32",
          "name": "newAdminRole",
          "type": "bytes32"
        }
      ],
      "name": "RoleAdminChanged",
      "type": "event"
    },
    {
      "anonymous": false,
      "inputs": [
        {
          "indexed": true,
          "internalType": "bytes32",
          "name": "role",
          "type": "bytes32"
        },
        {
          "indexed": true,
          "internalType": "address",
          "name": "account",
          "type": "address"
        },
        {
          "indexed": true,
          "internalType": "address",
          "name": "sender",
          "type": "address"
        }
      ],
      "name": "RoleGranted",
      "type": "event"
    },
    {
      "anonymous": false,
      "inputs": [
        {
          "indexed": true,
          "internalType": "bytes32",
          "name": "role",
          "type": "bytes32"
        },
        {
          "indexed": true,
          "internalType": "address",
          "name": "account",
          "type": "address"
        },
        {
          "indexed": true,
          "internalType": "address",
          "name": "sender",
          "type": "address"
        }
      ],
      "name": "RoleRevoked",
      "type": "event"
    },
    {
      "anonymous": false,
      "inputs": [
        {
          "indexed": false,
          "internalType": "uint256",
          "name": "id",
          "type": "uint256"
        }
      ],
      "name": "Snapshot",
      "type": "event"
    },
    {
      "anonymous": false,
      "inputs": [
        {
          "indexed": true,
          "internalType": "address",
          "name": "from",
          "type": "address"
        },
        {
          "indexed": true,
          "internalType": "address",
          "name": "to",
          "type": "address"
        },
        {
          "indexed": false,
          "internalType": "uint256",
          "name": "value",
          "type": "uint256"
        }
      ],
      "name": "Transfer",
      "type": "event"
    },
    {
      "inputs": [],
      "name": "AddressManagerAddress",
      "outputs": [
        {
          "internalType": "address",
          "name": "",
          "type": "address"
        }
      ],
      "stateMutability": "view",
      "type": "function",
      "constant": true
    },
    {
      "inputs": [],
      "name": "ChadBadgeAddress",
      "outputs": [
        {
          "internalType": "address",
          "name": "",
          "type": "address"
        }
      ],
      "stateMutability": "view",
      "type": "function",
      "constant": true
    },
    {
      "inputs": [],
      "name": "DEFAULT_ADMIN_ROLE",
      "outputs": [
        {
          "internalType": "bytes32",
          "name": "",
          "type": "bytes32"
        }
      ],
      "stateMutability": "view",
      "type": "function",
      "constant": true
    },
    {
      "inputs": [],
      "name": "DOMAIN_SEPARATOR",
      "outputs": [
        {
          "internalType": "bytes32",
          "name": "",
          "type": "bytes32"
        }
      ],
      "stateMutability": "view",
      "type": "function",
      "constant": true
    },
    {
      "inputs": [],
      "name": "GAVELS_BAILIFF",
      "outputs": [
        {
          "internalType": "bytes32",
          "name": "",
          "type": "bytes32"
        }
      ],
      "stateMutability": "view",
      "type": "function",
      "constant": true
    },
    {
      "inputs": [],
      "name": "GavelDAOAddress",
      "outputs": [
        {
          "internalType": "address",
          "name": "",
          "type": "address"
        }
      ],
      "stateMutability": "view",
      "type": "function",
      "constant": true
    },
    {
      "inputs": [],
      "name": "GavelDAOAgent",
      "outputs": [
        {
          "internalType": "address",
          "name": "",
          "type": "address"
        }
      ],
      "stateMutability": "view",
      "type": "function",
      "constant": true
    },
    {
      "inputs": [],
      "name": "GavelTokenAddress",
      "outputs": [
        {
          "internalType": "address",
          "name": "",
          "type": "address"
        }
      ],
      "stateMutability": "view",
      "type": "function",
      "constant": true
    },
    {
      "inputs": [],
      "name": "GavelVote",
      "outputs": [
        {
          "internalType": "bool",
          "name": "",
          "type": "bool"
        }
      ],
      "stateMutability": "view",
      "type": "function",
      "constant": true
    },
    {
      "inputs": [],
      "name": "GoldStarAddress",
      "outputs": [
        {
          "internalType": "address",
          "name": "",
          "type": "address"
        }
      ],
      "stateMutability": "view",
      "type": "function",
      "constant": true
    },
    {
      "inputs": [],
      "name": "JERK_ROLE",
      "outputs": [
        {
          "internalType": "bytes32",
          "name": "",
          "type": "bytes32"
        }
      ],
      "stateMutability": "view",
      "type": "function",
      "constant": true
    },
    {
      "inputs": [],
      "name": "JURY_BAILIFF",
      "outputs": [
        {
          "internalType": "bytes32",
          "name": "",
          "type": "bytes32"
        }
      ],
      "stateMutability": "view",
      "type": "function",
      "constant": true
    },
    {
      "inputs": [],
      "name": "JuryDAOAddress",
      "outputs": [
        {
          "internalType": "address",
          "name": "",
          "type": "address"
        }
      ],
      "stateMutability": "view",
      "type": "function",
      "constant": true
    },
    {
      "inputs": [],
      "name": "JuryDAOAgent",
      "outputs": [
        {
          "internalType": "address",
          "name": "",
          "type": "address"
        }
      ],
      "stateMutability": "view",
      "type": "function",
      "constant": true
    },
    {
      "inputs": [],
      "name": "JuryPoolAddress",
      "outputs": [
        {
          "internalType": "address",
          "name": "",
          "type": "address"
        }
      ],
      "stateMutability": "view",
      "type": "function",
      "constant": true
    },
    {
      "inputs": [],
      "name": "JuryVote",
      "outputs": [
        {
          "internalType": "bool",
          "name": "",
          "type": "bool"
        }
      ],
      "stateMutability": "view",
      "type": "function",
      "constant": true
    },
    {
      "inputs": [],
      "name": "MINI_BAILIFF_ROLE",
      "outputs": [
        {
          "internalType": "bytes32",
          "name": "",
          "type": "bytes32"
        }
      ],
      "stateMutability": "view",
      "type": "function",
      "constant": true
    },
    {
      "inputs": [],
      "name": "MiniBailiff",
      "outputs": [
        {
          "internalType": "address",
          "name": "",
          "type": "address"
        }
      ],
      "stateMutability": "view",
      "type": "function",
      "constant": true
    },
    {
      "inputs": [],
      "name": "PinkSlipAddress",
      "outputs": [
        {
          "internalType": "address",
          "name": "",
          "type": "address"
        }
      ],
      "stateMutability": "view",
      "type": "function",
      "constant": true
    },
    {
      "inputs": [],
      "name": "RedPenTokenAddress",
      "outputs": [
        {
          "internalType": "address",
          "name": "",
          "type": "address"
        }
      ],
      "stateMutability": "view",
      "type": "function",
      "constant": true
    },
    {
      "inputs": [],
      "name": "SANCTIONS_FOREVER_DISABLED",
      "outputs": [
        {
          "internalType": "bool",
          "name": "",
          "type": "bool"
        }
      ],
      "stateMutability": "view",
      "type": "function",
      "constant": true
    },
    {
      "inputs": [],
      "name": "THE_COURT_ROLE",
      "outputs": [
        {
          "internalType": "bytes32",
          "name": "",
          "type": "bytes32"
        }
      ],
      "stateMutability": "view",
      "type": "function",
      "constant": true
    },
    {
      "inputs": [],
      "name": "TheCourtDAOAddress",
      "outputs": [
        {
          "internalType": "address",
          "name": "",
          "type": "address"
        }
      ],
      "stateMutability": "view",
      "type": "function",
      "constant": true
    },
    {
      "inputs": [],
      "name": "TheCourtDAOAgent",
      "outputs": [
        {
          "internalType": "address",
          "name": "",
          "type": "address"
        }
      ],
      "stateMutability": "view",
      "type": "function",
      "constant": true
    },
    {
      "inputs": [],
      "name": "TreasuryAddress",
      "outputs": [
        {
          "internalType": "address",
          "name": "",
          "type": "address"
        }
      ],
      "stateMutability": "view",
      "type": "function",
      "constant": true
    },
    {
      "inputs": [],
      "name": "addressManager",
      "outputs": [
        {
          "internalType": "contract AddressManager",
          "name": "",
          "type": "address"
        }
      ],
      "stateMutability": "view",
      "type": "function",
      "constant": true
    },
    {
      "inputs": [
        {
          "internalType": "address",
          "name": "owner",
          "type": "address"
        },
        {
          "internalType": "address",
          "name": "spender",
          "type": "address"
        }
      ],
      "name": "allowance",
      "outputs": [
        {
          "internalType": "uint256",
          "name": "",
          "type": "uint256"
        }
      ],
      "stateMutability": "view",
      "type": "function",
      "constant": true
    },
    {
      "inputs": [
        {
          "internalType": "address",
          "name": "spender",
          "type": "address"
        },
        {
          "internalType": "uint256",
          "name": "amount",
          "type": "uint256"
        }
      ],
      "name": "approve",
      "outputs": [
        {
          "internalType": "bool",
          "name": "",
          "type": "bool"
        }
      ],
      "stateMutability": "nonpayable",
      "type": "function"
    },
    {
      "inputs": [
        {
          "internalType": "address",
          "name": "account",
          "type": "address"
        }
      ],
      "name": "balanceOf",
      "outputs": [
        {
          "internalType": "uint256",
          "name": "",
          "type": "uint256"
        }
      ],
      "stateMutability": "view",
      "type": "function",
      "constant": true
    },
    {
      "inputs": [
        {
          "internalType": "address",
          "name": "account",
          "type": "address"
        },
        {
          "internalType": "uint256",
          "name": "snapshotId",
          "type": "uint256"
        }
      ],
      "name": "balanceOfAt",
      "outputs": [
        {
          "internalType": "uint256",
          "name": "",
          "type": "uint256"
        }
      ],
      "stateMutability": "view",
      "type": "function",
      "constant": true
    },
    {
      "inputs": [
        {
          "internalType": "uint256",
          "name": "amount",
          "type": "uint256"
        }
      ],
      "name": "burn",
      "outputs": [],
      "stateMutability": "nonpayable",
      "type": "function"
    },
    {
      "inputs": [
        {
          "internalType": "address",
          "name": "account",
          "type": "address"
        },
        {
          "internalType": "uint256",
          "name": "amount",
          "type": "uint256"
        }
      ],
      "name": "burnFrom",
      "outputs": [],
      "stateMutability": "nonpayable",
      "type": "function"
    },
    {
      "inputs": [],
      "name": "decimals",
      "outputs": [
        {
          "internalType": "uint8",
          "name": "",
          "type": "uint8"
        }
      ],
      "stateMutability": "view",
      "type": "function",
      "constant": true
    },
    {
      "inputs": [
        {
          "internalType": "address",
          "name": "spender",
          "type": "address"
        },
        {
          "internalType": "uint256",
          "name": "subtractedValue",
          "type": "uint256"
        }
      ],
      "name": "decreaseAllowance",
      "outputs": [
        {
          "internalType": "bool",
          "name": "",
          "type": "bool"
        }
      ],
      "stateMutability": "nonpayable",
      "type": "function"
    },
    {
      "inputs": [
        {
          "internalType": "bytes32",
          "name": "role",
          "type": "bytes32"
        }
      ],
      "name": "getRoleAdmin",
      "outputs": [
        {
          "internalType": "bytes32",
          "name": "",
          "type": "bytes32"
        }
      ],
      "stateMutability": "view",
      "type": "function",
      "constant": true
    },
    {
      "inputs": [
        {
          "internalType": "bytes32",
          "name": "role",
          "type": "bytes32"
        },
        {
          "internalType": "uint256",
          "name": "index",
          "type": "uint256"
        }
      ],
      "name": "getRoleMember",
      "outputs": [
        {
          "internalType": "address",
          "name": "",
          "type": "address"
        }
      ],
      "stateMutability": "view",
      "type": "function",
      "constant": true
    },
    {
      "inputs": [
        {
          "internalType": "bytes32",
          "name": "role",
          "type": "bytes32"
        }
      ],
      "name": "getRoleMemberCount",
      "outputs": [
        {
          "internalType": "uint256",
          "name": "",
          "type": "uint256"
        }
      ],
      "stateMutability": "view",
      "type": "function",
      "constant": true
    },
    {
      "inputs": [
        {
          "internalType": "bytes32",
          "name": "role",
          "type": "bytes32"
        },
        {
          "internalType": "address",
          "name": "account",
          "type": "address"
        }
      ],
      "name": "grantRole",
      "outputs": [],
      "stateMutability": "nonpayable",
      "type": "function"
    },
    {
      "inputs": [
        {
          "internalType": "bytes32",
          "name": "role",
          "type": "bytes32"
        },
        {
          "internalType": "address",
          "name": "account",
          "type": "address"
        }
      ],
      "name": "hasRole",
      "outputs": [
        {
          "internalType": "bool",
          "name": "",
          "type": "bool"
        }
      ],
      "stateMutability": "view",
      "type": "function",
      "constant": true
    },
    {
      "inputs": [
        {
          "internalType": "address",
          "name": "spender",
          "type": "address"
        },
        {
          "internalType": "uint256",
          "name": "addedValue",
          "type": "uint256"
        }
      ],
      "name": "increaseAllowance",
      "outputs": [
        {
          "internalType": "bool",
          "name": "",
          "type": "bool"
        }
      ],
      "stateMutability": "nonpayable",
      "type": "function"
    },
    {
      "inputs": [],
      "name": "jerkSanctions",
      "outputs": [
        {
          "internalType": "bool",
          "name": "",
          "type": "bool"
        }
      ],
      "stateMutability": "view",
      "type": "function",
      "constant": true
    },
    {
      "inputs": [],
      "name": "jerkSanctionsLocal",
      "outputs": [
        {
          "internalType": "bool",
          "name": "",
          "type": "bool"
        }
      ],
      "stateMutability": "view",
      "type": "function",
      "constant": true
    },
    {
      "inputs": [],
      "name": "name",
      "outputs": [
        {
          "internalType": "string",
          "name": "",
          "type": "string"
        }
      ],
      "stateMutability": "view",
      "type": "function",
      "constant": true
    },
    {
      "inputs": [
        {
          "internalType": "address",
          "name": "owner",
          "type": "address"
        }
      ],
      "name": "nonces",
      "outputs": [
        {
          "internalType": "uint256",
          "name": "",
          "type": "uint256"
        }
      ],
      "stateMutability": "view",
      "type": "function",
      "constant": true
    },
    {
      "inputs": [
        {
          "internalType": "address",
          "name": "owner",
          "type": "address"
        },
        {
          "internalType": "address",
          "name": "spender",
          "type": "address"
        },
        {
          "internalType": "uint256",
          "name": "value",
          "type": "uint256"
        },
        {
          "internalType": "uint256",
          "name": "deadline",
          "type": "uint256"
        },
        {
          "internalType": "uint8",
          "name": "v",
          "type": "uint8"
        },
        {
          "internalType": "bytes32",
          "name": "r",
          "type": "bytes32"
        },
        {
          "internalType": "bytes32",
          "name": "s",
          "type": "bytes32"
        }
      ],
      "name": "permit",
      "outputs": [],
      "stateMutability": "nonpayable",
      "type": "function"
    },
    {
      "inputs": [
        {
          "internalType": "bytes32",
          "name": "role",
          "type": "bytes32"
        },
        {
          "internalType": "address",
          "name": "account",
          "type": "address"
        }
      ],
      "name": "renounceRole",
      "outputs": [],
      "stateMutability": "nonpayable",
      "type": "function"
    },
    {
      "inputs": [],
      "name": "resetVote",
      "outputs": [],
      "stateMutability": "nonpayable",
      "type": "function"
    },
    {
      "inputs": [
        {
          "internalType": "bytes32",
          "name": "role",
          "type": "bytes32"
        },
        {
          "internalType": "address",
          "name": "account",
          "type": "address"
        }
      ],
      "name": "revokeRole",
      "outputs": [],
      "stateMutability": "nonpayable",
      "type": "function"
    },
    {
      "inputs": [
        {
          "internalType": "bytes4",
          "name": "interfaceId",
          "type": "bytes4"
        }
      ],
      "name": "supportsInterface",
      "outputs": [
        {
          "internalType": "bool",
          "name": "",
          "type": "bool"
        }
      ],
      "stateMutability": "view",
      "type": "function",
      "constant": true
    },
    {
      "inputs": [],
      "name": "symbol",
      "outputs": [
        {
          "internalType": "string",
          "name": "",
          "type": "string"
        }
      ],
      "stateMutability": "view",
      "type": "function",
      "constant": true
    },
    {
      "inputs": [],
      "name": "syncAllRoles",
      "outputs": [],
      "stateMutability": "nonpayable",
      "type": "function"
    },
    {
      "inputs": [
        {
          "internalType": "bytes32",
          "name": "ROLE_TO_SYNC",
          "type": "bytes32"
        }
      ],
      "name": "syncSingleRole",
      "outputs": [],
      "stateMutability": "nonpayable",
      "type": "function"
    },
    {
      "inputs": [],
      "name": "syncVotes",
      "outputs": [],
      "stateMutability": "nonpayable",
      "type": "function"
    },
    {
      "inputs": [],
      "name": "totalSupply",
      "outputs": [
        {
          "internalType": "uint256",
          "name": "",
          "type": "uint256"
        }
      ],
      "stateMutability": "view",
      "type": "function",
      "constant": true
    },
    {
      "inputs": [
        {
          "internalType": "uint256",
          "name": "snapshotId",
          "type": "uint256"
        }
      ],
      "name": "totalSupplyAt",
      "outputs": [
        {
          "internalType": "uint256",
          "name": "",
          "type": "uint256"
        }
      ],
      "stateMutability": "view",
      "type": "function",
      "constant": true
    },
    {
      "inputs": [
        {
          "internalType": "address",
          "name": "recipient",
          "type": "address"
        },
        {
          "internalType": "uint256",
          "name": "amount",
          "type": "uint256"
        }
      ],
      "name": "transfer",
      "outputs": [
        {
          "internalType": "bool",
          "name": "",
          "type": "bool"
        }
      ],
      "stateMutability": "nonpayable",
      "type": "function"
    },
    {
      "inputs": [
        {
          "internalType": "address",
          "name": "sender",
          "type": "address"
        },
        {
          "internalType": "address",
          "name": "recipient",
          "type": "address"
        },
        {
          "internalType": "uint256",
          "name": "amount",
          "type": "uint256"
        }
      ],
      "name": "transferFrom",
      "outputs": [
        {
          "internalType": "bool",
          "name": "",
          "type": "bool"
        }
      ],
      "stateMutability": "nonpayable",
      "type": "function"
    },
    {
      "inputs": [],
      "name": "updateAddressManager",
      "outputs": [],
      "stateMutability": "nonpayable",
      "type": "function"
    },
    {
      "inputs": [],
      "name": "updateAllAddresses",
      "outputs": [],
      "stateMutability": "nonpayable",
      "type": "function"
    },
    {
      "inputs": [],
      "name": "updateAllRoles",
      "outputs": [],
      "stateMutability": "nonpayable",
      "type": "function"
    },
    {
      "inputs": [],
      "name": "updateDAOAddresses",
      "outputs": [],
      "stateMutability": "nonpayable",
      "type": "function"
    },
    {
      "inputs": [],
      "name": "updateDAOAgents",
      "outputs": [],
      "stateMutability": "nonpayable",
      "type": "function"
    },
    {
      "inputs": [
        {
          "internalType": "bytes32",
          "name": "ROLE_TO_UPDATE",
          "type": "bytes32"
        }
      ],
      "name": "updateSingleRole",
      "outputs": [],
      "stateMutability": "nonpayable",
      "type": "function"
    },
    {
      "inputs": [],
      "name": "updateTokenAddresses",
      "outputs": [],
      "stateMutability": "nonpayable",
      "type": "function"
    },
    {
      "inputs": [
        {
          "internalType": "bool",
          "name": "turnOnSanctions",
          "type": "bool"
        }
      ],
      "name": "switchLocalJerkSanctions",
      "outputs": [],
      "stateMutability": "nonpayable",
      "type": "function"
    },
    {
      "inputs": [
        {
          "internalType": "bool",
          "name": "safteySwitch",
          "type": "bool"
        }
      ],
      "name": "foreverDisableJerkSanctions",
      "outputs": [],
      "stateMutability": "nonpayable",
      "type": "function"
    },
    {
      "inputs": [],
      "name": "snapshot",
      "outputs": [],
      "stateMutability": "nonpayable",
      "type": "function"
    }
  ],
  "bytecode": "0x6101406040527f6e71edae12b1b97f4d1f60370fef10105fa2faae0126114a169c64845d6126c961012052601b805465ffffffffffff60a01b191690553480156200004957600080fd5b5060405162004e2a38038062004e2a8339810160408190526200006c91620011ee565b8080604051806040016040528060088152602001675265642050656e7360c01b81525080604051806040016040528060018152602001603160f81b815250604051806040016040528060088152602001675265642050656e7360c01b815250604051806040016040528060048152602001630854915160e21b81525081600390805190602001906200010092919062001148565b5080516200011690600490602084019062001148565b5050825160208085019190912083518483012060c082815260e08290524660a0818152604080517f8b73c3c69bb8fe3d512ecc4cf759cc79239f7b179b0ffacaa9a75d522b39400f818901819052818301889052606082018790526080820194909452308184015281518082039093018352909301909252815191909401209193509190608052610100525050600c80546001600160a01b039095166001600160a01b03199586168117909155601b80549095161790935550620001dc9150506200033d565b620001e66200035d565b60165462000200906000906001600160a01b0316620004a8565b60165462000239907f0538d24a8b7882d7b2e36af243d4af61c23e86e3daa6cb8c887b53220b2f5720906001600160a01b0316620004a8565b60175462000272907f048bc71fa1cb2c119c339cf9cf00a97996a19a9d991ce5fe049f2fa5459e7990906001600160a01b0316620004a8565b601854620002ab907ffa8e4989e1d689f7bc5c4b25b87efb51fecdecb19ba62847e29c759e12a89acd906001600160a01b0316620004a8565b601a54620002e4907ff0f4b159a6e2a4815eb3ca3df080bfa70c9270662c59bcaa4479a456220183e6906001600160a01b0316620004a8565b620003117f7c9d7f6f02908185bffb3f7fc9afb29fd7bf93675af8fd4b655ee05c2cee1e0e6000620004a8565b5060125462000336906001600160a01b03166b02a652a5e57eeb9e3a400000620004eb565b50620012e2565b62000347620005e1565b62000351620008e1565b6200035b62000b4c565b565b601b60009054906101000a90046001600160a01b03166001600160a01b031663ff7e88ec6040518163ffffffff1660e01b815260040160206040518083038186803b158015620003ac57600080fd5b505afa158015620003c1573d6000803e3d6000fd5b505050506040513d601f19601f82011682018060405250810190620003e7919062001220565b601b60156101000a81548160ff021916908315150217905550601b60009054906101000a90046001600160a01b03166001600160a01b0316632fb565856040518163ffffffff1660e01b815260040160206040518083038186803b1580156200044f57600080fd5b505afa15801562000464573d6000803e3d6000fd5b505050506040513d601f19601f820116820180604052508101906200048a919062001220565b601b8054911515600160b01b0260ff60b01b19909216919091179055565b620004bf828262000e4c60201b6200132b1760201c565b6000828152600b60209081526040909120620004e69183906200133562000e5c821b17901c565b505050565b6001600160a01b038216620005465760405162461bcd60e51b815260206004820152601f60248201527f45524332303a206d696e7420746f20746865207a65726f206164647265737300604482015260640160405180910390fd5b620005546000838362000e7c565b806002600082825462000568919062001244565b90915550506001600160a01b038216600090815260208190526040812080548392906200059790849062001244565b90915550506040518181526001600160a01b038316906000907fddf252ad1be2c89b69c2b068fc378daa952ba7f163c4a11628f55a4df523b3ef9060200160405180910390a35050565b601b60009054906101000a90046001600160a01b03166001600160a01b0316637dad1ad56040518163ffffffff1660e01b815260040160206040518083038186803b1580156200063057600080fd5b505afa15801562000645573d6000803e3d6000fd5b505050506040513d601f19601f820116820180604052508101906200066b9190620011ee565b601480546001600160a01b0319166001600160a01b03928316179055601b546040805163a99b273560e01b81529051919092169163a99b2735916004808301926020929190829003018186803b158015620006c557600080fd5b505afa158015620006da573d6000803e3d6000fd5b505050506040513d601f19601f82011682018060405250810190620007009190620011ee565b601580546001600160a01b0319166001600160a01b03928316179055601b5460408051637ef7fe1960e11b81529051919092169163fdeffc32916004808301926020929190829003018186803b1580156200075a57600080fd5b505afa1580156200076f573d6000803e3d6000fd5b505050506040513d601f19601f82011682018060405250810190620007959190620011ee565b601680546001600160a01b0319166001600160a01b03928316179055601b5460408051635b5c251f60e01b815290519190921691635b5c251f916004808301926020929190829003018186803b158015620007ef57600080fd5b505afa15801562000804573d6000803e3d6000fd5b505050506040513d601f19601f820116820180604052508101906200082a9190620011ee565b601280546001600160a01b0319166001600160a01b03928316179055601b5460408051636b58477560e01b815290519190921691636b584775916004808301926020929190829003018186803b1580156200088457600080fd5b505afa15801562000899573d6000803e3d6000fd5b505050506040513d601f19601f82011682018060405250810190620008bf9190620011ee565b601380546001600160a01b0319166001600160a01b0392909216919091179055565b601b60009054906101000a90046001600160a01b03166001600160a01b031663dadf56ac6040518163ffffffff1660e01b815260040160206040518083038186803b1580156200093057600080fd5b505afa15801562000945573d6000803e3d6000fd5b505050506040513d601f19601f820116820180604052508101906200096b9190620011ee565b601780546001600160a01b0319166001600160a01b03928316179055601b546040805163024bebe960e01b81529051919092169163024bebe9916004808301926020929190829003018186803b158015620009c557600080fd5b505afa158015620009da573d6000803e3d6000fd5b505050506040513d601f19601f8201168201806040525081019062000a009190620011ee565b601880546001600160a01b0319166001600160a01b03928316179055601b546040805163320a28f960e11b81529051919092169163641451f2916004808301926020929190829003018186803b15801562000a5a57600080fd5b505afa15801562000a6f573d6000803e3d6000fd5b505050506040513d601f19601f8201168201806040525081019062000a959190620011ee565b601980546001600160a01b0319166001600160a01b03928316179055601b5460408051637310bf1d60e11b81529051919092169163e6217e3a916004808301926020929190829003018186803b15801562000aef57600080fd5b505afa15801562000b04573d6000803e3d6000fd5b505050506040513d601f19601f8201168201806040525081019062000b2a9190620011ee565b601a80546001600160a01b0319166001600160a01b0392909216919091179055565b601b60009054906101000a90046001600160a01b03166001600160a01b03166321d7f0086040518163ffffffff1660e01b815260040160206040518083038186803b15801562000b9b57600080fd5b505afa15801562000bb0573d6000803e3d6000fd5b505050506040513d601f19601f8201168201806040525081019062000bd69190620011ee565b600d80546001600160a01b0319166001600160a01b03928316179055601b546040805163762ddb5960e01b81529051919092169163762ddb59916004808301926020929190829003018186803b15801562000c3057600080fd5b505afa15801562000c45573d6000803e3d6000fd5b505050506040513d601f19601f8201168201806040525081019062000c6b9190620011ee565b600e80546001600160a01b0319166001600160a01b03928316179055601b546040805163bfb7dc9960e01b81529051919092169163bfb7dc99916004808301926020929190829003018186803b15801562000cc557600080fd5b505afa15801562000cda573d6000803e3d6000fd5b505050506040513d601f19601f8201168201806040525081019062000d009190620011ee565b600f80546001600160a01b0319166001600160a01b03928316179055601b5460408051633e6111eb60e21b81529051919092169163f98447ac916004808301926020929190829003018186803b15801562000d5a57600080fd5b505afa15801562000d6f573d6000803e3d6000fd5b505050506040513d601f19601f8201168201806040525081019062000d959190620011ee565b601080546001600160a01b0319166001600160a01b03928316179055601b5460408051630fe1ba9f60e21b815290519190921691633f86ea7c916004808301926020929190829003018186803b15801562000def57600080fd5b505afa15801562000e04573d6000803e3d6000fd5b505050506040513d601f19601f8201168201806040525081019062000e2a9190620011ee565b601180546001600160a01b0319166001600160a01b0392909216919091179055565b62000e58828262000efa565b5050565b600062000e73836001600160a01b03841662000f9e565b90505b92915050565b601b54600160c81b900460ff16801562000e9f5750601b54600160a01b900460ff165b1562000ee2573360009081527f6c60edbedf280a303586720ae256348c43e0aca82bb6fbc05bb1d4693759078e602052604090205460ff161562000ee257600080fd5b620004e683838362000ff060201b6200134a1760201c565b6000828152600a602090815260408083206001600160a01b038516845290915290205460ff1662000e58576000828152600a602090815260408083206001600160a01b03851684529091529020805460ff1916600117905562000f5a3390565b6001600160a01b0316816001600160a01b0316837f2f8788117e7eff1d82e926ec794901d17c78024a50270940304540a733656f0d60405160405180910390a45050565b600081815260018301602052604081205462000fe75750815460018181018455600084815260208082209093018490558454848252828601909352604090209190915562000e76565b50600062000e76565b62001008838383620004e660201b62000ab41760201c565b6001600160a01b0383166200102c57620010228262001057565b620004e66200108f565b6001600160a01b0382166200104657620010228362001057565b620010518362001057565b620004e6825b6001600160a01b038116600090815260056020908152604080832091839052909120546200108c91906200109f565b6200109f565b50565b6200035b60066200108660025490565b6000620010b86008620010fb60201b620013921760201c565b905080620010c684620010ff565b1015620004e6578254600180820185556000858152602080822090930193909355938401805494850181558252902090910155565b5490565b80546000906200111157506000919050565b8154829062001123906001906200125f565b81548110620011365762001136620012cc565b90600052602060002001549050919050565b828054620011569062001279565b90600052602060002090601f0160209004810192826200117a5760008555620011c5565b82601f106200119557805160ff1916838001178555620011c5565b82800160010185558215620011c5579182015b82811115620011c5578251825591602001919060010190620011a8565b50620011d3929150620011d7565b5090565b5b80821115620011d35760008155600101620011d8565b6000602082840312156200120157600080fd5b81516001600160a01b03811681146200121957600080fd5b9392505050565b6000602082840312156200123357600080fd5b815180151581146200121957600080fd5b600082198211156200125a576200125a620012b6565b500190565b600082821015620012745762001274620012b6565b500390565b600181811c908216806200128e57607f821691505b60208210811415620012b057634e487b7160e01b600052602260045260246000fd5b50919050565b634e487b7160e01b600052601160045260246000fd5b634e487b7160e01b600052603260045260246000fd5b60805160a05160c05160e0516101005161012051613af862001332600039600061117e015260006123c201526000612411015260006123ec01526000612370015260006123990152613af86000f3fe608060405234801561001057600080fd5b50600436106103f15760003560e01c8063762ddb5911610215578063b6085bf511610125578063dd62ed3e116100b8578063f1132b3011610087578063f1132b301461089d578063f7d92d86146108a5578063f98447ac146108ad578063fdeffc32146108c0578063ff7e88ec146108d357600080fd5b8063dd62ed3e14610829578063e6217e3a14610862578063e78c266c14610875578063e9a532301461088857600080fd5b8063cf4ece15116100f4578063cf4ece15146107db578063d505accf146107f0578063d547741f14610803578063dadf56ac1461081657600080fd5b8063b6085bf514610798578063bfb7dc99146107a0578063ca15c873146107b3578063cce84392146107c657600080fd5b80639711715a116101a8578063a457c2d711610177578063a457c2d714610737578063a78e746f1461074a578063a9059cbb1461075e578063a99b273514610771578063b12655061461078457600080fd5b80639711715a146106ff578063981b24d014610707578063a217fddf1461071a578063a32c5e591461072257600080fd5b80639010d07c116101e45780639010d07c146106be57806391d14854146106d157806393dad6e7146106e457806395d89b41146106f757600080fd5b8063762ddb591461067257806379cc6790146106855780637dad1ad5146106985780637ecebe00146106ab57600080fd5b80633644e515116103105780634ee2cd7e116102a35780635db531a1116102725780635db531a114610608578063641451f21461061057806368398887146106235780636b5847751461063657806370a082311461064957600080fd5b80634ee2cd7e146105bb57806357f276ff146105ce5780635a140696146105e15780635b5c251f146105f557600080fd5b80633f86ea7c116102df5780633f86ea7c1461058557806342966c681461059857806349b5e105146105ab5780634d84c6d8146105b357600080fd5b80633644e5151461054457806336568abe1461054c578063395093511461055f5780633ab76e9f1461057257600080fd5b806323b872dd116103885780632fb56585116103575780632fb5658514610511578063313ce56714610525578063326a55e014610534578063329a8cfa1461053c57600080fd5b806323b872dd146104b35780632436329d146104c6578063248a9ca3146104db5780632f2ff15d146104fe57600080fd5b8063130f6320116103c4578063130f63201461047157806317314d5a1461048657806318160ddd1461048e57806321d7f008146104a057600080fd5b806301ffc9a7146103f6578063024bebe91461041e57806306fdde0314610449578063095ea7b31461045e575b600080fd5b610409610404366004613799565b6108e7565b60405190151581526020015b60405180910390f35b601854610431906001600160a01b031681565b6040516001600160a01b039091168152602001610415565b610451610912565b6040516104159190613851565b61040961046c3660046136d3565b6109a4565b61048461047f366004613739565b6109ba565b005b6104846109d1565b6002545b604051908152602001610415565b600d54610431906001600160a01b031681565b6104096104c136600461361b565b6109dc565b610492600080516020613a2383398151915281565b6104926104e9366004613739565b6000908152600a602052604090206001015490565b61048461050c366004613752565b610a92565b601b5461040990600160b01b900460ff1681565b60405160128152602001610415565b610484610ab9565b610484610ad3565b610492610bdc565b61048461055a366004613752565b610beb565b61040961056d3660046136d3565b610c0d565b601b54610431906001600160a01b031681565b601154610431906001600160a01b031681565b6104846105a6366004613739565b610c44565b610484610c4e565b610484610ac9565b6104926105c93660046136d3565b610c56565b6104846105dc366004613739565b610caf565b601b5461040990600160c01b900460ff1681565b601254610431906001600160a01b031681565b610484610cb8565b601954610431906001600160a01b031681565b6104846106313660046136ff565b610cc0565b601354610431906001600160a01b031681565b6104926106573660046135a8565b6001600160a01b031660009081526020819052604090205490565b600e54610431906001600160a01b031681565b6104846106933660046136d3565b610d6d565b601454610431906001600160a01b031681565b6104926106b93660046135a8565b610df0565b6104316106cc366004613777565b610e0e565b6104096106df366004613752565b610e2d565b6104846106f23660046136ff565b610e58565b610451610f6a565b610484610f79565b610492610715366004613739565b611038565b610492600081565b610492600080516020613a8383398151915281565b6104096107453660046136d3565b611063565b601b5461040990600160a01b900460ff1681565b61040961076c3660046136d3565b6110fe565b601554610431906001600160a01b031681565b601b5461040990600160c81b900460ff1681565b61048461110b565b600f54610431906001600160a01b031681565b6104926107c1366004613739565b611113565b610492600080516020613aa383398151915281565b610492600080516020613a6383398151915281565b6104846107fe36600461365c565b61112a565b610484610811366004613752565b61128e565b601754610431906001600160a01b031681565b6104926108373660046135e2565b6001600160a01b03918216600090815260016020908152604080832093909416825291909152205490565b601a54610431906001600160a01b031681565b600c54610431906001600160a01b031681565b610492600080516020613a4383398151915281565b610484611298565b6104846112a0565b601054610431906001600160a01b031681565b601654610431906001600160a01b031681565b601b5461040990600160a81b900460ff1681565b60006001600160e01b03198216635a05180f60e01b148061090c575061090c82611396565b92915050565b6060600380546109219061392d565b80601f016020809104026020016040519081016040528092919081815260200182805461094d9061392d565b801561099a5780601f1061096f5761010080835404028352916020019161099a565b820191906000526020600020905b81548152906001019060200180831161097d57829003601f168201915b5050505050905090565b60006109b13384846113cb565b50600192915050565b6109c3816114f0565b506109cd81611661565b5050565b6109d96117ea565b50565b60006109e9848484611930565b6001600160a01b038416600090815260016020908152604080832033845290915290205482811015610a735760405162461bcd60e51b815260206004820152602860248201527f45524332303a207472616e7366657220616d6f756e74206578636565647320616044820152676c6c6f77616e636560c01b60648201526084015b60405180910390fd5b610a878533610a8286856138cf565b6113cb565b506001949350505050565b610a9c8282611b13565b6000828152600b60205260409020610ab49082611335565b505050565b610ac1611b39565b610ac9611e25565b610ad1612080565b565b610aeb600080516020613a8383398151915233610e2d565b80610b095750610b09600080516020613a4383398151915233610e2d565b80610b275750610b27600080516020613a2383398151915233610e2d565b610b6c5760405162461bcd60e51b81526020600482015260166024820152752cb7ba93b932903737ba103a3432903130b4b634b33360511b6044820152606401610a6a565b601b60009054906101000a90046001600160a01b03166001600160a01b031663329a8cfa6040518163ffffffff1660e01b8152600401600060405180830381600087803b158015610bbc57600080fd5b505af1158015610bd0573d6000803e3d6000fd5b50505050610ad1610cb8565b6000610be661236c565b905090565b610bf5828261245f565b6000828152600b60205260409020610ab490826124d9565b3360008181526001602090815260408083206001600160a01b038716845290915281205490916109b1918590610a82908690613884565b6109d933826124ee565b610ad1611b39565b6001600160a01b038216600090815260056020526040812081908190610c7d908590612649565b9150915081610ca4576001600160a01b038516600090815260208190526040902054610ca6565b805b95945050505050565b6109cd8161273b565b610ad1612996565b610cd8600080516020613a2383398151915233610e2d565b80610cf65750610cf6600080516020613a8383398151915233610e2d565b610d385760405162461bcd60e51b8152602060048201526013602482015272596f75277265206e6f7420746865204a75727960681b6044820152606401610a6a565b601b54600160c01b900460ff1615610d4f57600080fd5b601b8054911515600160c81b0260ff60c81b19909216919091179055565b6000610d798333610837565b905081811015610dd75760405162461bcd60e51b8152602060048201526024808201527f45524332303a206275726e20616d6f756e74206578636565647320616c6c6f77604482015263616e636560e01b6064820152608401610a6a565b610de68333610a8285856138cf565b610ab483836124ee565b6001600160a01b03811660009081526009602052604081205461090c565b6000828152600b60205260408120610e269083612ad9565b9392505050565b6000918252600a602090815260408084206001600160a01b0393909316845291905290205460ff1690565b610e70600080516020613a4383398151915233610e2d565b80610e8e5750610e8e600080516020613a2383398151915233610e2d565b80610eac5750610eac600080516020613a8383398151915233610e2d565b610eb557600080fd5b601b54600160b01b810460ff9081161515600160a81b9092041615151460011480610ef35750610ef3600080516020613a8383398151915233610e2d565b610f325760405162461bcd60e51b815260206004820152601060248201526f436f757274204d75737420416772656560801b6044820152606401610a6a565b80158015610f4a5750601b54600160c01b900460ff16155b610f5357600080fd5b50601b805461ffff60c01b1916600160c01b179055565b6060600480546109219061392d565b610f91600080516020613a8383398151915233610e2d565b80610faf5750610faf600080516020613a4383398151915233610e2d565b80610fcd5750610fcd600080516020613a2383398151915233610e2d565b80610feb5750610feb600080516020613a6383398151915233610e2d565b6110305760405162461bcd60e51b81526020600482015260166024820152752cb7ba93b932903737ba103a3432903130b4b634b33360511b6044820152606401610a6a565b6109d9612ae5565b6000806000611048846006612649565b91509150816110595760025461105b565b805b949350505050565b3360009081526001602090815260408083206001600160a01b0386168452909152812054828110156110e55760405162461bcd60e51b815260206004820152602560248201527f45524332303a2064656372656173656420616c6c6f77616e63652062656c6f77604482015264207a65726f60d81b6064820152608401610a6a565b6110f43385610a8286856138cf565b5060019392505050565b60006109b1338484611930565b610ad1611e25565b6000818152600b6020526040812061090c90612b40565b8342111561117a5760405162461bcd60e51b815260206004820152601d60248201527f45524332305065726d69743a206578706972656420646561646c696e650000006044820152606401610a6a565b60007f00000000000000000000000000000000000000000000000000000000000000008888886111a98c612b4a565b6040805160208101969096526001600160a01b0394851690860152929091166060840152608083015260a082015260c0810186905260e001604051602081830303815290604052805190602001209050600061120482612b72565b9050600061121482878787612bc0565b9050896001600160a01b0316816001600160a01b0316146112775760405162461bcd60e51b815260206004820152601e60248201527f45524332305065726d69743a20696e76616c6964207369676e617475726500006044820152606401610a6a565b6112828a8a8a6113cb565b50505050505050505050565b610bf58282612d60565b610ad1612d86565b6112b7600080516020613a8383398151915261273b565b506112cf600080516020613a4383398151915261273b565b506112e7600080516020613a2383398151915261273b565b506112ff600080516020613a6383398151915261273b565b50611317600080516020613aa383398151915261273b565b50611322600061273b565b50610ad1612996565b6109cd8282612ebd565b6000610e26836001600160a01b038416612f43565b6001600160a01b0383166113695761136182612f92565b610ab4612fc4565b6001600160a01b0382166113805761136183612f92565b61138983612f92565b610ab482612f92565b5490565b60006001600160e01b03198216637965db0b60e01b148061090c57506301ffc9a760e01b6001600160e01b031983161461090c565b6001600160a01b03831661142d5760405162461bcd60e51b8152602060048201526024808201527f45524332303a20617070726f76652066726f6d20746865207a65726f206164646044820152637265737360e01b6064820152608401610a6a565b6001600160a01b03821661148e5760405162461bcd60e51b815260206004820152602260248201527f45524332303a20617070726f766520746f20746865207a65726f206164647265604482015261737360f01b6064820152608401610a6a565b6001600160a01b0383811660008181526001602090815260408083209487168084529482529182902085905590518481527f8c5be1e5ebec7d5bd14f71427d1e84f3dd0314c0f7b2291e5b200ac8c7c3b92591015b60405180910390a3505050565b60405163ca15c87360e01b8152600481018290526000908190309063ca15c8739060240160206040518083038186803b15801561152c57600080fd5b505afa158015611540573d6000803e3d6000fd5b505050506040513d601f19601f8201168201806040525081019061156491906137c3565b905060005b818110156110f457604051632404341f60e21b815260048101859052602481018290526000903090639010d07c9060440160206040518083038186803b1580156115b257600080fd5b505afa1580156115c6573d6000803e3d6000fd5b505050506040513d601f19601f820116820180604052508101906115ea91906135c5565b60405163d547741f60e01b8152600481018790526001600160a01b0382166024820152909150309063d547741f90604401600060405180830381600087803b15801561163557600080fd5b505af1158015611649573d6000803e3d6000fd5b5050505050808061165990613962565b915050611569565b601b5460405163ca15c87360e01b81526004810183905260009182916001600160a01b039091169063ca15c8739060240160206040518083038186803b1580156116aa57600080fd5b505afa1580156116be573d6000803e3d6000fd5b505050506040513d601f19601f820116820180604052508101906116e291906137c3565b905060005b818110156110f457601b54604051632404341f60e21b815260048101869052602481018390526000916001600160a01b031690639010d07c9060440160206040518083038186803b15801561173b57600080fd5b505afa15801561174f573d6000803e3d6000fd5b505050506040513d601f19601f8201168201806040525081019061177391906135c5565b604051632f2ff15d60e01b8152600481018790526001600160a01b03821660248201529091503090632f2ff15d90604401600060405180830381600087803b1580156117be57600080fd5b505af11580156117d2573d6000803e3d6000fd5b505050505080806117e290613962565b9150506116e7565b6000611803600080516020613a838339815191526114f0565b5061181b600080516020613a83833981519152611661565b61182457600080fd5b61183b600080516020613a438339815191526114f0565b50611853600080516020613a43833981519152611661565b61185c57600080fd5b611873600080516020613a238339815191526114f0565b5061188b600080516020613a23833981519152611661565b61189457600080fd5b6118ab600080516020613a638339815191526114f0565b506118c3600080516020613a63833981519152611661565b6118cc57600080fd5b6118e3600080516020613aa38339815191526114f0565b506118fb600080516020613aa3833981519152611661565b61190457600080fd5b61190e60006114f0565b506119196000611661565b61192257600080fd5b61192a612996565b50600190565b6001600160a01b0383166119945760405162461bcd60e51b815260206004820152602560248201527f45524332303a207472616e736665722066726f6d20746865207a65726f206164604482015264647265737360d81b6064820152608401610a6a565b6001600160a01b0382166119f65760405162461bcd60e51b815260206004820152602360248201527f45524332303a207472616e7366657220746f20746865207a65726f206164647260448201526265737360e81b6064820152608401610a6a565b611a01838383612fd2565b6001600160a01b03831660009081526020819052604090205481811015611a795760405162461bcd60e51b815260206004820152602660248201527f45524332303a207472616e7366657220616d6f756e7420657863656564732062604482015265616c616e636560d01b6064820152608401610a6a565b611a8382826138cf565b6001600160a01b038086166000908152602081905260408082209390935590851681529081208054849290611ab9908490613884565b92505081905550826001600160a01b0316846001600160a01b03167fddf252ad1be2c89b69c2b068fc378daa952ba7f163c4a11628f55a4df523b3ef84604051611b0591815260200190565b60405180910390a350505050565b6000828152600a6020526040902060010154611b2f8133613026565b610ab48383612ebd565b601b60009054906101000a90046001600160a01b03166001600160a01b0316637dad1ad56040518163ffffffff1660e01b815260040160206040518083038186803b158015611b8757600080fd5b505afa158015611b9b573d6000803e3d6000fd5b505050506040513d601f19601f82011682018060405250810190611bbf91906135c5565b601480546001600160a01b0319166001600160a01b03928316179055601b546040805163a99b273560e01b81529051919092169163a99b2735916004808301926020929190829003018186803b158015611c1857600080fd5b505afa158015611c2c573d6000803e3d6000fd5b505050506040513d601f19601f82011682018060405250810190611c5091906135c5565b601580546001600160a01b0319166001600160a01b03928316179055601b5460408051637ef7fe1960e11b81529051919092169163fdeffc32916004808301926020929190829003018186803b158015611ca957600080fd5b505afa158015611cbd573d6000803e3d6000fd5b505050506040513d601f19601f82011682018060405250810190611ce191906135c5565b601680546001600160a01b0319166001600160a01b03928316179055601b5460408051635b5c251f60e01b815290519190921691635b5c251f916004808301926020929190829003018186803b158015611d3a57600080fd5b505afa158015611d4e573d6000803e3d6000fd5b505050506040513d601f19601f82011682018060405250810190611d7291906135c5565b601280546001600160a01b0319166001600160a01b03928316179055601b5460408051636b58477560e01b815290519190921691636b584775916004808301926020929190829003018186803b158015611dcb57600080fd5b505afa158015611ddf573d6000803e3d6000fd5b505050506040513d601f19601f82011682018060405250810190611e0391906135c5565b601380546001600160a01b0319166001600160a01b0392909216919091179055565b601b60009054906101000a90046001600160a01b03166001600160a01b031663dadf56ac6040518163ffffffff1660e01b815260040160206040518083038186803b158015611e7357600080fd5b505afa158015611e87573d6000803e3d6000fd5b505050506040513d601f19601f82011682018060405250810190611eab91906135c5565b601780546001600160a01b0319166001600160a01b03928316179055601b546040805163024bebe960e01b81529051919092169163024bebe9916004808301926020929190829003018186803b158015611f0457600080fd5b505afa158015611f18573d6000803e3d6000fd5b505050506040513d601f19601f82011682018060405250810190611f3c91906135c5565b601880546001600160a01b0319166001600160a01b03928316179055601b546040805163320a28f960e11b81529051919092169163641451f2916004808301926020929190829003018186803b158015611f9557600080fd5b505afa158015611fa9573d6000803e3d6000fd5b505050506040513d601f19601f82011682018060405250810190611fcd91906135c5565b601980546001600160a01b0319166001600160a01b03928316179055601b5460408051637310bf1d60e11b81529051919092169163e6217e3a916004808301926020929190829003018186803b15801561202657600080fd5b505afa15801561203a573d6000803e3d6000fd5b505050506040513d601f19601f8201168201806040525081019061205e91906135c5565b601a80546001600160a01b0319166001600160a01b0392909216919091179055565b601b60009054906101000a90046001600160a01b03166001600160a01b03166321d7f0086040518163ffffffff1660e01b815260040160206040518083038186803b1580156120ce57600080fd5b505afa1580156120e2573d6000803e3d6000fd5b505050506040513d601f19601f8201168201806040525081019061210691906135c5565b600d80546001600160a01b0319166001600160a01b03928316179055601b546040805163762ddb5960e01b81529051919092169163762ddb59916004808301926020929190829003018186803b15801561215f57600080fd5b505afa158015612173573d6000803e3d6000fd5b505050506040513d601f19601f8201168201806040525081019061219791906135c5565b600e80546001600160a01b0319166001600160a01b03928316179055601b546040805163bfb7dc9960e01b81529051919092169163bfb7dc99916004808301926020929190829003018186803b1580156121f057600080fd5b505afa158015612204573d6000803e3d6000fd5b505050506040513d601f19601f8201168201806040525081019061222891906135c5565b600f80546001600160a01b0319166001600160a01b03928316179055601b5460408051633e6111eb60e21b81529051919092169163f98447ac916004808301926020929190829003018186803b15801561228157600080fd5b505afa158015612295573d6000803e3d6000fd5b505050506040513d601f19601f820116820180604052508101906122b991906135c5565b601080546001600160a01b0319166001600160a01b03928316179055601b5460408051630fe1ba9f60e21b815290519190921691633f86ea7c916004808301926020929190829003018186803b15801561231257600080fd5b505afa158015612326573d6000803e3d6000fd5b505050506040513d601f19601f8201168201806040525081019061234a91906135c5565b601180546001600160a01b0319166001600160a01b0392909216919091179055565b60007f00000000000000000000000000000000000000000000000000000000000000004614156123bb57507f000000000000000000000000000000000000000000000000000000000000000090565b50604080517f00000000000000000000000000000000000000000000000000000000000000006020808301919091527f0000000000000000000000000000000000000000000000000000000000000000828401527f000000000000000000000000000000000000000000000000000000000000000060608301524660808301523060a0808401919091528351808403909101815260c0909201909252805191012090565b6001600160a01b03811633146124cf5760405162461bcd60e51b815260206004820152602f60248201527f416363657373436f6e74726f6c3a2063616e206f6e6c792072656e6f756e636560448201526e103937b632b9903337b91039b2b63360891b6064820152608401610a6a565b6109cd828261308a565b6000610e26836001600160a01b0384166130f1565b6001600160a01b03821661254e5760405162461bcd60e51b815260206004820152602160248201527f45524332303a206275726e2066726f6d20746865207a65726f206164647265736044820152607360f81b6064820152608401610a6a565b61255a82600083612fd2565b6001600160a01b038216600090815260208190526040902054818110156125ce5760405162461bcd60e51b815260206004820152602260248201527f45524332303a206275726e20616d6f756e7420657863656564732062616c616e604482015261636560f01b6064820152608401610a6a565b6125d882826138cf565b6001600160a01b038416600090815260208190526040812091909155600280548492906126069084906138cf565b90915550506040518281526000906001600160a01b038516907fddf252ad1be2c89b69c2b068fc378daa952ba7f163c4a11628f55a4df523b3ef906020016114e3565b600080600084116126955760405162461bcd60e51b815260206004820152601660248201527504552433230536e617073686f743a20696420697320360541b6044820152606401610a6a565b6008548411156126e75760405162461bcd60e51b815260206004820152601d60248201527f4552433230536e617073686f743a206e6f6e6578697374656e742069640000006044820152606401610a6a565b60006126f384866131de565b845490915081141561270c576000809250925050612734565b6001846001018281548110612723576127236139d3565b906000526020600020015492509250505b9250929050565b601b5460405163ca15c87360e01b81526004810183905260009182916001600160a01b039091169063ca15c8739060240160206040518083038186803b15801561278457600080fd5b505afa158015612798573d6000803e3d6000fd5b505050506040513d601f19601f820116820180604052508101906127bc91906137c3565b60405163ca15c87360e01b815260048101859052909150600090309063ca15c8739060240160206040518083038186803b1580156127f957600080fd5b505afa15801561280d573d6000803e3d6000fd5b505050506040513d601f19601f8201168201806040525081019061283191906137c3565b9050600061283f82846138cf565b9050600081116128845760405162461bcd60e51b815260206004820152601060248201526f4e6f7468696e6720746f2073796e632160801b6044820152606401610a6a565b60005b8181101561298a57601b54604051632404341f60e21b815260048101889052602481018390526000916001600160a01b031690639010d07c9060440160206040518083038186803b1580156128db57600080fd5b505afa1580156128ef573d6000803e3d6000fd5b505050506040513d601f19601f8201168201806040525081019061291391906135c5565b604051632f2ff15d60e01b8152600481018990526001600160a01b03821660248201529091503090632f2ff15d90604401600060405180830381600087803b15801561295e57600080fd5b505af1158015612972573d6000803e3d6000fd5b5050505050808061298290613962565b915050612887565b50600195945050505050565b601b60009054906101000a90046001600160a01b03166001600160a01b031663ff7e88ec6040518163ffffffff1660e01b815260040160206040518083038186803b1580156129e457600080fd5b505afa1580156129f8573d6000803e3d6000fd5b505050506040513d601f19601f82011682018060405250810190612a1c919061371c565b601b60156101000a81548160ff021916908315150217905550601b60009054906101000a90046001600160a01b03166001600160a01b0316632fb565856040518163ffffffff1660e01b815260040160206040518083038186803b158015612a8357600080fd5b505afa158015612a97573d6000803e3d6000fd5b505050506040513d601f19601f82011682018060405250810190612abb919061371c565b601b8054911515600160b01b0260ff60b01b19909216919091179055565b6000610e2683836132a1565b6000612af5600880546001019055565b6000612b0060085490565b90507f8030e83b04d87bef53480e26263266d6ca66863aa8506aca6f2559d18aa1cb6781604051612b3391815260200190565b60405180910390a1919050565b600061090c825490565b6001600160a01b03811660009081526009602052604090208054600181018255905b50919050565b600061090c612b7f61236c565b8360405161190160f01b6020820152602281018390526042810182905260009060620160405160208183030381529060405280519060200120905092915050565b60007f7fffffffffffffffffffffffffffffff5d576e7357a4501ddfe92f46681b20a0821115612c3d5760405162461bcd60e51b815260206004820152602260248201527f45434453413a20696e76616c6964207369676e6174757265202773272076616c604482015261756560f01b6064820152608401610a6a565b8360ff16601b1480612c5257508360ff16601c145b612ca95760405162461bcd60e51b815260206004820152602260248201527f45434453413a20696e76616c6964207369676e6174757265202776272076616c604482015261756560f01b6064820152608401610a6a565b6040805160008082526020820180845288905260ff871692820192909252606081018590526080810184905260019060a0016020604051602081039080840390855afa158015612cfd573d6000803e3d6000fd5b5050604051601f1901519150506001600160a01b038116610ca65760405162461bcd60e51b815260206004820152601860248201527f45434453413a20696e76616c6964207369676e617475726500000000000000006044820152606401610a6a565b6000828152600a6020526040902060010154612d7c8133613026565b610ab4838361308a565b601b60009054906101000a90046001600160a01b03166001600160a01b031663a44b93256040518163ffffffff1660e01b815260040160206040518083038186803b158015612dd457600080fd5b505afa158015612de8573d6000803e3d6000fd5b505050506040513d601f19601f82011682018060405250810190612e0c919061371c565b612e1557600080fd5b601b60009054906101000a90046001600160a01b03166001600160a01b031663ac7cfac36040518163ffffffff1660e01b815260040160206040518083038186803b158015612e6357600080fd5b505afa158015612e77573d6000803e3d6000fd5b505050506040513d601f19601f82011682018060405250810190612e9b91906135c5565b600c80546001600160a01b0319166001600160a01b0392909216919091179055565b612ec78282610e2d565b6109cd576000828152600a602090815260408083206001600160a01b03851684529091529020805460ff19166001179055612eff3390565b6001600160a01b0316816001600160a01b0316837f2f8788117e7eff1d82e926ec794901d17c78024a50270940304540a733656f0d60405160405180910390a45050565b6000818152600183016020526040812054612f8a5750815460018181018455600084815260208082209093018490558454848252828601909352604090209190915561090c565b50600061090c565b6001600160a01b038116600090815260056020908152604080832091839052909120546109d99190613327565b613327565b610ad16006612fbf60025490565b601b54600160c81b900460ff168015612ff45750601b54600160a01b900460ff165b1561301b57613011600080516020613aa383398151915233610e2d565b1561301b57600080fd5b610ab483838361134a565b6130308282610e2d565b6109cd57613048816001600160a01b03166014613372565b613053836020613372565b6040516020016130649291906137dc565b60408051601f198184030181529082905262461bcd60e51b8252610a6a91600401613851565b6130948282610e2d565b156109cd576000828152600a602090815260408083206001600160a01b0385168085529252808320805460ff1916905551339285917ff6391f5c32d9c69d2a47ea670b442974b53935d1edc7fd64eb21e047a839171b9190a45050565b600081815260018301602052604081205480156131d45760006131156001836138cf565b8554909150600090613129906001906138cf565b90506000866000018281548110613142576131426139d3565b9060005260206000200154905080876000018481548110613165576131656139d3565b600091825260208083209091019290925582815260018901909152604090208490558654879080613198576131986139bd565b6001900381819060005260206000200160009055905586600101600087815260200190815260200160002060009055600194505050505061090c565b600091505061090c565b81546000906131ef5750600061090c565b82546000905b8082101561324b576000613209838361350e565b90508486828154811061321e5761321e6139d3565b9060005260206000200154111561323757809150613245565b613242816001613884565b92505b506131f5565b600082118015613280575083856132636001856138cf565b81548110613273576132736139d3565b9060005260206000200154145b15613299576132906001836138cf565b9250505061090c565b50905061090c565b815460009082106132ff5760405162461bcd60e51b815260206004820152602260248201527f456e756d657261626c655365743a20696e646578206f7574206f6620626f756e604482015261647360f01b6064820152608401610a6a565b826000018281548110613314576133146139d3565b9060005260206000200154905092915050565b600061333260085490565b90508061333e84613565565b1015610ab4578254600180820185556000858152602080822090930193909355938401805494850181558252902090910155565b606060006133818360026138b0565b61338c906002613884565b67ffffffffffffffff8111156133a4576133a46139e9565b6040519080825280601f01601f1916602001820160405280156133ce576020820181803683370190505b509050600360fc1b816000815181106133e9576133e96139d3565b60200101906001600160f81b031916908160001a905350600f60fb1b81600181518110613418576134186139d3565b60200101906001600160f81b031916908160001a905350600061343c8460026138b0565b613447906001613884565b90505b60018111156134bf576f181899199a1a9b1b9c1cb0b131b232b360811b85600f166010811061347b5761347b6139d3565b1a60f81b828281518110613491576134916139d3565b60200101906001600160f81b031916908160001a90535060049490941c936134b881613916565b905061344a565b508315610e265760405162461bcd60e51b815260206004820181905260248201527f537472696e67733a20686578206c656e67746820696e73756666696369656e746044820152606401610a6a565b6000600261351c818461397d565b61352760028661397d565b6135319190613884565b61353b919061389c565b61354660028461389c565b61355160028661389c565b61355b9190613884565b610e269190613884565b805460009061357657506000919050565b81548290613586906001906138cf565b81548110613596576135966139d3565b90600052602060002001549050919050565b6000602082840312156135ba57600080fd5b8135610e26816139ff565b6000602082840312156135d757600080fd5b8151610e26816139ff565b600080604083850312156135f557600080fd5b8235613600816139ff565b91506020830135613610816139ff565b809150509250929050565b60008060006060848603121561363057600080fd5b833561363b816139ff565b9250602084013561364b816139ff565b929592945050506040919091013590565b600080600080600080600060e0888a03121561367757600080fd5b8735613682816139ff565b96506020880135613692816139ff565b95506040880135945060608801359350608088013560ff811681146136b657600080fd5b9699959850939692959460a0840135945060c09093013592915050565b600080604083850312156136e657600080fd5b82356136f1816139ff565b946020939093013593505050565b60006020828403121561371157600080fd5b8135610e2681613a14565b60006020828403121561372e57600080fd5b8151610e2681613a14565b60006020828403121561374b57600080fd5b5035919050565b6000806040838503121561376557600080fd5b823591506020830135613610816139ff565b6000806040838503121561378a57600080fd5b50508035926020909101359150565b6000602082840312156137ab57600080fd5b81356001600160e01b031981168114610e2657600080fd5b6000602082840312156137d557600080fd5b5051919050565b7f416363657373436f6e74726f6c3a206163636f756e74200000000000000000008152600083516138148160178501602088016138e6565b7001034b99036b4b9b9b4b733903937b6329607d1b60179184019182015283516138458160288401602088016138e6565b01602801949350505050565b60208152600082518060208401526138708160408501602087016138e6565b601f01601f19169190910160400192915050565b6000821982111561389757613897613991565b500190565b6000826138ab576138ab6139a7565b500490565b60008160001904831182151516156138ca576138ca613991565b500290565b6000828210156138e1576138e1613991565b500390565b60005b838110156139015781810151838201526020016138e9565b83811115613910576000848401525b50505050565b60008161392557613925613991565b506000190190565b600181811c9082168061394157607f821691505b60208210811415612b6c57634e487b7160e01b600052602260045260246000fd5b600060001982141561397657613976613991565b5060010190565b60008261398c5761398c6139a7565b500690565b634e487b7160e01b600052601160045260246000fd5b634e487b7160e01b600052601260045260246000fd5b634e487b7160e01b600052603160045260246000fd5b634e487b7160e01b600052603260045260246000fd5b634e487b7160e01b600052604160045260246000fd5b6001600160a01b03811681146109d957600080fd5b80151581146109d957600080fdfefa8e4989e1d689f7bc5c4b25b87efb51fecdecb19ba62847e29c759e12a89acd048bc71fa1cb2c119c339cf9cf00a97996a19a9d991ce5fe049f2fa5459e7990f0f4b159a6e2a4815eb3ca3df080bfa70c9270662c59bcaa4479a456220183e60538d24a8b7882d7b2e36af243d4af61c23e86e3daa6cb8c887b53220b2f57207c9d7f6f02908185bffb3f7fc9afb29fd7bf93675af8fd4b655ee05c2cee1e0ea26469706673582212201da9906366855736229d9e3aec85f86306134a3141fd57625c17be1f53b5fbf064736f6c63430008060033",
  "immutableReferences": {
    "5654": [
      {
        "length": 32,
        "start": 4478
      }
    ],
    "7997": [
      {
        "length": 32,
        "start": 9113
      }
    ],
    "7999": [
      {
        "length": 32,
        "start": 9072
      }
    ],
    "8001": [
      {
        "length": 32,
        "start": 9196
      }
    ],
    "8003": [
      {
        "length": 32,
        "start": 9233
      }
    ],
    "8005": [
      {
        "length": 32,
        "start": 9154
      }
    ]
  },
  "source": "// Disclaimer: I have literally no idea what I'm doing so take that as you will.\n// Now that thats out of the way, feel free to help improve this!\n\npragma solidity ^0.8.0;\n\nimport \"@openzeppelin/contracts/token/ERC20/ERC20.sol\";\nimport \"@openzeppelin/contracts/token/ERC20/extensions/ERC20Snapshot.sol\";\nimport \"@openzeppelin/contracts/token/ERC20/extensions/draft-ERC20Permit.sol\";\nimport \"@openzeppelin/contracts/token/ERC20/extensions/ERC20Burnable.sol\";\nimport \"../src/SmartConsensusMachine.sol\";\n\n// Token features:\n// Snapshot for governance and distrubutions\n// Burnable\n// Fixed Supply\n// Gassless Permit (Draft EIP)\n\ncontract RedPens is ERC20, ERC20Snapshot, ERC20Permit, ERC20Burnable, SmartConsensusMachine {\n\n \n    /******************************************************\n    * JERK SANCTIONS:\n    *   if 'jerkSanctionIsOn' is enabled, this prohibits jerks from using thier !Red.    *\n    *\n    * FOREVER_DISABLE_SANCTIONS:\n    *   if this setting is set to true, Jerk sanctions will be disabled forever.\n    *   THIS IS NOT REVERSABLE!\n    */\n\n    bool public SANCTIONS_FOREVER_DISABLED = false;\n    bool public jerkSanctionsLocal = false;\n\n    /***********************************************/\n\n\n    constructor(address _AddressManagerAddress) ERC20(\"Red Pens\", \"!RED\") ERC20Permit(\"Red Pens\") SmartConsensusMachine(_AddressManagerAddress) {\n    \n        _mint(TreasuryAddress, 820042000 * 10 ** 18); // Mint the entire token supply\n    }\n\n\n    //***********************************************************\n    // The DAO may choose to prohibit Jerks from using !Red\n    //********************************************************* */\n    function switchLocalJerkSanctions(bool turnOnSanctions) public JURY {\n        require(!SANCTIONS_FOREVER_DISABLED);\n\n        jerkSanctionsLocal = turnOnSanctions;\n\n    }\n\n    // This will disable the sanctions function forever (incase it was a bad idea or poses a security issue)\n    function foreverDisableJerkSanctions(bool safteySwitch) public THE_COURT {\n        // The Saftey Switch should be set to FALSE for the function to be properly executed.\n        require(!safteySwitch && !SANCTIONS_FOREVER_DISABLED);\n        jerkSanctionsLocal = false;\n        SANCTIONS_FOREVER_DISABLED = true;\n    }\n\n    /**************************************************************************\n    ***************************************************************************/\n    \n\n    // Take a snapshot of token holders (Must be the recorder, bailiff, or court)\n     function snapshot() public MINI_BAILIFF {\n        _snapshot();\n    }\n\n\n    // Only needed in the event jerk sanctions are turned on.\n    function _beforeTokenTransfer(address from, address to, uint256 amount)\n        internal\n        override(ERC20, ERC20Snapshot)\n    {\n        if (jerkSanctionsLocal && jerkSanctions) {\n           require(!hasRole(JERK_ROLE, msg.sender)); \n        }\n        super._beforeTokenTransfer(from, to, amount);\n    }\n}",
  "sourcePath": "/home/n/Desktop/PinkSlips_FrontEnd_REFORMAT/contracts/govTokens/RedPens.sol",
  "compiler": {
    "name": "solc",
    "version": "0.8.6+commit.11564f7e.Emscripten.clang"
  },
  "schemaVersion": "3.4.1",
  "updatedAt": "2021-08-05T06:59:46.127Z",
  "networkType": "ethereum",
  "devdoc": {
    "kind": "dev",
    "methods": {
      "DOMAIN_SEPARATOR()": {
        "details": "See {IERC20Permit-DOMAIN_SEPARATOR}."
      },
      "allowance(address,address)": {
        "details": "See {IERC20-allowance}."
      },
      "approve(address,uint256)": {
        "details": "See {IERC20-approve}. Requirements: - `spender` cannot be the zero address."
      },
      "balanceOf(address)": {
        "details": "See {IERC20-balanceOf}."
      },
      "balanceOfAt(address,uint256)": {
        "details": "Retrieves the balance of `account` at the time `snapshotId` was created."
      },
      "burn(uint256)": {
        "details": "Destroys `amount` tokens from the caller. See {ERC20-_burn}."
      },
      "burnFrom(address,uint256)": {
        "details": "Destroys `amount` tokens from `account`, deducting from the caller's allowance. See {ERC20-_burn} and {ERC20-allowance}. Requirements: - the caller must have allowance for ``accounts``'s tokens of at least `amount`."
      },
      "decimals()": {
        "details": "Returns the number of decimals used to get its user representation. For example, if `decimals` equals `2`, a balance of `505` tokens should be displayed to a user as `5,05` (`505 / 10 ** 2`). Tokens usually opt for a value of 18, imitating the relationship between Ether and Wei. This is the value {ERC20} uses, unless this function is overridden; NOTE: This information is only used for _display_ purposes: it in no way affects any of the arithmetic of the contract, including {IERC20-balanceOf} and {IERC20-transfer}."
      },
      "decreaseAllowance(address,uint256)": {
        "details": "Atomically decreases the allowance granted to `spender` by the caller. This is an alternative to {approve} that can be used as a mitigation for problems described in {IERC20-approve}. Emits an {Approval} event indicating the updated allowance. Requirements: - `spender` cannot be the zero address. - `spender` must have allowance for the caller of at least `subtractedValue`."
      },
      "getRoleAdmin(bytes32)": {
        "details": "Returns the admin role that controls `role`. See {grantRole} and {revokeRole}. To change a role's admin, use {_setRoleAdmin}."
      },
      "getRoleMember(bytes32,uint256)": {
        "details": "Returns one of the accounts that have `role`. `index` must be a value between 0 and {getRoleMemberCount}, non-inclusive. Role bearers are not sorted in any particular way, and their ordering may change at any point. WARNING: When using {getRoleMember} and {getRoleMemberCount}, make sure you perform all queries on the same block. See the following https://forum.openzeppelin.com/t/iterating-over-elements-on-enumerableset-in-openzeppelin-contracts/2296[forum post] for more information."
      },
      "getRoleMemberCount(bytes32)": {
        "details": "Returns the number of accounts that have `role`. Can be used together with {getRoleMember} to enumerate all bearers of a role."
      },
      "grantRole(bytes32,address)": {
        "details": "Overload {grantRole} to track enumerable memberships"
      },
      "hasRole(bytes32,address)": {
        "details": "Returns `true` if `account` has been granted `role`."
      },
      "increaseAllowance(address,uint256)": {
        "details": "Atomically increases the allowance granted to `spender` by the caller. This is an alternative to {approve} that can be used as a mitigation for problems described in {IERC20-approve}. Emits an {Approval} event indicating the updated allowance. Requirements: - `spender` cannot be the zero address."
      },
      "name()": {
        "details": "Returns the name of the token."
      },
      "nonces(address)": {
        "details": "See {IERC20Permit-nonces}."
      },
      "permit(address,address,uint256,uint256,uint8,bytes32,bytes32)": {
        "details": "See {IERC20Permit-permit}."
      },
      "renounceRole(bytes32,address)": {
        "details": "Overload {renounceRole} to track enumerable memberships"
      },
      "revokeRole(bytes32,address)": {
        "details": "Overload {revokeRole} to track enumerable memberships"
      },
      "supportsInterface(bytes4)": {
        "details": "See {IERC165-supportsInterface}."
      },
      "symbol()": {
        "details": "Returns the symbol of the token, usually a shorter version of the name."
      },
      "totalSupply()": {
        "details": "See {IERC20-totalSupply}."
      },
      "totalSupplyAt(uint256)": {
        "details": "Retrieves the total supply at the time `snapshotId` was created."
      },
      "transfer(address,uint256)": {
        "details": "See {IERC20-transfer}. Requirements: - `recipient` cannot be the zero address. - the caller must have a balance of at least `amount`."
      },
      "transferFrom(address,address,uint256)": {
        "details": "See {IERC20-transferFrom}. Emits an {Approval} event indicating the updated allowance. This is not required by the EIP. See the note at the beginning of {ERC20}. Requirements: - `sender` and `recipient` cannot be the zero address. - `sender` must have a balance of at least `amount`. - the caller must have allowance for ``sender``'s tokens of at least `amount`."
      }
    },
    "version": 1
  },
  "userdoc": {
    "kind": "user",
    "methods": {},
    "version": 1
  }
}