{
  "contractName": "RedPens",
  "abi": [
    {
      "inputs": [
        {
          "internalType": "address",
          "name": "_AddressManagerAddress",
          "type": "address"
        }
      ],
      "stateMutability": "nonpayable",
      "type": "constructor"
    },
    {
      "anonymous": false,
      "inputs": [
        {
          "indexed": true,
          "internalType": "address",
          "name": "owner",
          "type": "address"
        },
        {
          "indexed": true,
          "internalType": "address",
          "name": "spender",
          "type": "address"
        },
        {
          "indexed": false,
          "internalType": "uint256",
          "name": "value",
          "type": "uint256"
        }
      ],
      "name": "Approval",
      "type": "event"
    },
    {
      "anonymous": false,
      "inputs": [
        {
          "indexed": true,
          "internalType": "bytes32",
          "name": "role",
          "type": "bytes32"
        },
        {
          "indexed": true,
          "internalType": "bytes32",
          "name": "previousAdminRole",
          "type": "bytes32"
        },
        {
          "indexed": true,
          "internalType": "bytes32",
          "name": "newAdminRole",
          "type": "bytes32"
        }
      ],
      "name": "RoleAdminChanged",
      "type": "event"
    },
    {
      "anonymous": false,
      "inputs": [
        {
          "indexed": true,
          "internalType": "bytes32",
          "name": "role",
          "type": "bytes32"
        },
        {
          "indexed": true,
          "internalType": "address",
          "name": "account",
          "type": "address"
        },
        {
          "indexed": true,
          "internalType": "address",
          "name": "sender",
          "type": "address"
        }
      ],
      "name": "RoleGranted",
      "type": "event"
    },
    {
      "anonymous": false,
      "inputs": [
        {
          "indexed": true,
          "internalType": "bytes32",
          "name": "role",
          "type": "bytes32"
        },
        {
          "indexed": true,
          "internalType": "address",
          "name": "account",
          "type": "address"
        },
        {
          "indexed": true,
          "internalType": "address",
          "name": "sender",
          "type": "address"
        }
      ],
      "name": "RoleRevoked",
      "type": "event"
    },
    {
      "anonymous": false,
      "inputs": [
        {
          "indexed": false,
          "internalType": "uint256",
          "name": "id",
          "type": "uint256"
        }
      ],
      "name": "Snapshot",
      "type": "event"
    },
    {
      "anonymous": false,
      "inputs": [
        {
          "indexed": true,
          "internalType": "address",
          "name": "from",
          "type": "address"
        },
        {
          "indexed": true,
          "internalType": "address",
          "name": "to",
          "type": "address"
        },
        {
          "indexed": false,
          "internalType": "uint256",
          "name": "value",
          "type": "uint256"
        }
      ],
      "name": "Transfer",
      "type": "event"
    },
    {
      "inputs": [],
      "name": "AddressManagerAddress",
      "outputs": [
        {
          "internalType": "address",
          "name": "",
          "type": "address"
        }
      ],
      "stateMutability": "view",
      "type": "function",
      "constant": true
    },
    {
      "inputs": [],
      "name": "ChadBadgeAddress",
      "outputs": [
        {
          "internalType": "address",
          "name": "",
          "type": "address"
        }
      ],
      "stateMutability": "view",
      "type": "function",
      "constant": true
    },
    {
      "inputs": [],
      "name": "ColoredIDAddress",
      "outputs": [
        {
          "internalType": "address",
          "name": "",
          "type": "address"
        }
      ],
      "stateMutability": "view",
      "type": "function",
      "constant": true
    },
    {
      "inputs": [],
      "name": "CourtClerk",
      "outputs": [
        {
          "internalType": "address",
          "name": "",
          "type": "address"
        }
      ],
      "stateMutability": "view",
      "type": "function",
      "constant": true
    },
    {
      "inputs": [],
      "name": "DEFAULT_ADMIN_ROLE",
      "outputs": [
        {
          "internalType": "bytes32",
          "name": "",
          "type": "bytes32"
        }
      ],
      "stateMutability": "view",
      "type": "function",
      "constant": true
    },
    {
      "inputs": [],
      "name": "DOMAIN_SEPARATOR",
      "outputs": [
        {
          "internalType": "bytes32",
          "name": "",
          "type": "bytes32"
        }
      ],
      "stateMutability": "view",
      "type": "function",
      "constant": true
    },
    {
      "inputs": [],
      "name": "GAVELS_BAILIFF",
      "outputs": [
        {
          "internalType": "bytes32",
          "name": "",
          "type": "bytes32"
        }
      ],
      "stateMutability": "view",
      "type": "function",
      "constant": true
    },
    {
      "inputs": [],
      "name": "GavelDAOAgent",
      "outputs": [
        {
          "internalType": "address",
          "name": "",
          "type": "address"
        }
      ],
      "stateMutability": "view",
      "type": "function",
      "constant": true
    },
    {
      "inputs": [],
      "name": "GavelTokenAddress",
      "outputs": [
        {
          "internalType": "address",
          "name": "",
          "type": "address"
        }
      ],
      "stateMutability": "view",
      "type": "function",
      "constant": true
    },
    {
      "inputs": [],
      "name": "GavelVote",
      "outputs": [
        {
          "internalType": "bool",
          "name": "",
          "type": "bool"
        }
      ],
      "stateMutability": "view",
      "type": "function",
      "constant": true
    },
    {
      "inputs": [],
      "name": "GoldStarAddress",
      "outputs": [
        {
          "internalType": "address",
          "name": "",
          "type": "address"
        }
      ],
      "stateMutability": "view",
      "type": "function",
      "constant": true
    },
    {
      "inputs": [],
      "name": "JERK_ROLE",
      "outputs": [
        {
          "internalType": "bytes32",
          "name": "",
          "type": "bytes32"
        }
      ],
      "stateMutability": "view",
      "type": "function",
      "constant": true
    },
    {
      "inputs": [],
      "name": "JURY_BAILIFF",
      "outputs": [
        {
          "internalType": "bytes32",
          "name": "",
          "type": "bytes32"
        }
      ],
      "stateMutability": "view",
      "type": "function",
      "constant": true
    },
    {
      "inputs": [],
      "name": "JuryDAOAgent",
      "outputs": [
        {
          "internalType": "address",
          "name": "",
          "type": "address"
        }
      ],
      "stateMutability": "view",
      "type": "function",
      "constant": true
    },
    {
      "inputs": [],
      "name": "JuryPoolAddress",
      "outputs": [
        {
          "internalType": "address",
          "name": "",
          "type": "address"
        }
      ],
      "stateMutability": "view",
      "type": "function",
      "constant": true
    },
    {
      "inputs": [],
      "name": "JuryVote",
      "outputs": [
        {
          "internalType": "bool",
          "name": "",
          "type": "bool"
        }
      ],
      "stateMutability": "view",
      "type": "function",
      "constant": true
    },
    {
      "inputs": [],
      "name": "MINI_BAILIFF_ROLE",
      "outputs": [
        {
          "internalType": "bytes32",
          "name": "",
          "type": "bytes32"
        }
      ],
      "stateMutability": "view",
      "type": "function",
      "constant": true
    },
    {
      "inputs": [],
      "name": "MiniBailiff",
      "outputs": [
        {
          "internalType": "address",
          "name": "",
          "type": "address"
        }
      ],
      "stateMutability": "view",
      "type": "function",
      "constant": true
    },
    {
      "inputs": [],
      "name": "PinkSlipAddress",
      "outputs": [
        {
          "internalType": "address",
          "name": "",
          "type": "address"
        }
      ],
      "stateMutability": "view",
      "type": "function",
      "constant": true
    },
    {
      "inputs": [],
      "name": "RedPenTokenAddress",
      "outputs": [
        {
          "internalType": "address",
          "name": "",
          "type": "address"
        }
      ],
      "stateMutability": "view",
      "type": "function",
      "constant": true
    },
    {
      "inputs": [],
      "name": "SANCTIONS_FOREVER_DISABLED",
      "outputs": [
        {
          "internalType": "bool",
          "name": "",
          "type": "bool"
        }
      ],
      "stateMutability": "view",
      "type": "function",
      "constant": true
    },
    {
      "inputs": [],
      "name": "THE_COURT_ROLE",
      "outputs": [
        {
          "internalType": "bytes32",
          "name": "",
          "type": "bytes32"
        }
      ],
      "stateMutability": "view",
      "type": "function",
      "constant": true
    },
    {
      "inputs": [],
      "name": "TheCourtAddress",
      "outputs": [
        {
          "internalType": "address",
          "name": "",
          "type": "address"
        }
      ],
      "stateMutability": "view",
      "type": "function",
      "constant": true
    },
    {
      "inputs": [],
      "name": "TreasuryAddress",
      "outputs": [
        {
          "internalType": "address",
          "name": "",
          "type": "address"
        }
      ],
      "stateMutability": "view",
      "type": "function",
      "constant": true
    },
    {
      "inputs": [],
      "name": "addressManager",
      "outputs": [
        {
          "internalType": "contract AddressManager",
          "name": "",
          "type": "address"
        }
      ],
      "stateMutability": "view",
      "type": "function",
      "constant": true
    },
    {
      "inputs": [
        {
          "internalType": "address",
          "name": "owner",
          "type": "address"
        },
        {
          "internalType": "address",
          "name": "spender",
          "type": "address"
        }
      ],
      "name": "allowance",
      "outputs": [
        {
          "internalType": "uint256",
          "name": "",
          "type": "uint256"
        }
      ],
      "stateMutability": "view",
      "type": "function",
      "constant": true
    },
    {
      "inputs": [
        {
          "internalType": "address",
          "name": "spender",
          "type": "address"
        },
        {
          "internalType": "uint256",
          "name": "amount",
          "type": "uint256"
        }
      ],
      "name": "approve",
      "outputs": [
        {
          "internalType": "bool",
          "name": "",
          "type": "bool"
        }
      ],
      "stateMutability": "nonpayable",
      "type": "function"
    },
    {
      "inputs": [
        {
          "internalType": "address",
          "name": "account",
          "type": "address"
        }
      ],
      "name": "balanceOf",
      "outputs": [
        {
          "internalType": "uint256",
          "name": "",
          "type": "uint256"
        }
      ],
      "stateMutability": "view",
      "type": "function",
      "constant": true
    },
    {
      "inputs": [
        {
          "internalType": "address",
          "name": "account",
          "type": "address"
        },
        {
          "internalType": "uint256",
          "name": "snapshotId",
          "type": "uint256"
        }
      ],
      "name": "balanceOfAt",
      "outputs": [
        {
          "internalType": "uint256",
          "name": "",
          "type": "uint256"
        }
      ],
      "stateMutability": "view",
      "type": "function",
      "constant": true
    },
    {
      "inputs": [
        {
          "internalType": "uint256",
          "name": "amount",
          "type": "uint256"
        }
      ],
      "name": "burn",
      "outputs": [],
      "stateMutability": "nonpayable",
      "type": "function"
    },
    {
      "inputs": [
        {
          "internalType": "address",
          "name": "account",
          "type": "address"
        },
        {
          "internalType": "uint256",
          "name": "amount",
          "type": "uint256"
        }
      ],
      "name": "burnFrom",
      "outputs": [],
      "stateMutability": "nonpayable",
      "type": "function"
    },
    {
      "inputs": [],
      "name": "decimals",
      "outputs": [
        {
          "internalType": "uint8",
          "name": "",
          "type": "uint8"
        }
      ],
      "stateMutability": "view",
      "type": "function",
      "constant": true
    },
    {
      "inputs": [
        {
          "internalType": "address",
          "name": "spender",
          "type": "address"
        },
        {
          "internalType": "uint256",
          "name": "subtractedValue",
          "type": "uint256"
        }
      ],
      "name": "decreaseAllowance",
      "outputs": [
        {
          "internalType": "bool",
          "name": "",
          "type": "bool"
        }
      ],
      "stateMutability": "nonpayable",
      "type": "function"
    },
    {
      "inputs": [
        {
          "internalType": "bool",
          "name": "safteySwitch",
          "type": "bool"
        }
      ],
      "name": "foreverDisableJerkSanctions",
      "outputs": [],
      "stateMutability": "nonpayable",
      "type": "function"
    },
    {
      "inputs": [
        {
          "internalType": "bytes32",
          "name": "role",
          "type": "bytes32"
        }
      ],
      "name": "getRoleAdmin",
      "outputs": [
        {
          "internalType": "bytes32",
          "name": "",
          "type": "bytes32"
        }
      ],
      "stateMutability": "view",
      "type": "function",
      "constant": true
    },
    {
      "inputs": [
        {
          "internalType": "bytes32",
          "name": "role",
          "type": "bytes32"
        },
        {
          "internalType": "uint256",
          "name": "index",
          "type": "uint256"
        }
      ],
      "name": "getRoleMember",
      "outputs": [
        {
          "internalType": "address",
          "name": "",
          "type": "address"
        }
      ],
      "stateMutability": "view",
      "type": "function",
      "constant": true
    },
    {
      "inputs": [
        {
          "internalType": "bytes32",
          "name": "role",
          "type": "bytes32"
        }
      ],
      "name": "getRoleMemberCount",
      "outputs": [
        {
          "internalType": "uint256",
          "name": "",
          "type": "uint256"
        }
      ],
      "stateMutability": "view",
      "type": "function",
      "constant": true
    },
    {
      "inputs": [
        {
          "internalType": "bytes32",
          "name": "role",
          "type": "bytes32"
        },
        {
          "internalType": "address",
          "name": "account",
          "type": "address"
        }
      ],
      "name": "grantRole",
      "outputs": [],
      "stateMutability": "nonpayable",
      "type": "function"
    },
    {
      "inputs": [
        {
          "internalType": "bytes32",
          "name": "role",
          "type": "bytes32"
        },
        {
          "internalType": "address",
          "name": "account",
          "type": "address"
        }
      ],
      "name": "hasRole",
      "outputs": [
        {
          "internalType": "bool",
          "name": "",
          "type": "bool"
        }
      ],
      "stateMutability": "view",
      "type": "function",
      "constant": true
    },
    {
      "inputs": [
        {
          "internalType": "address",
          "name": "spender",
          "type": "address"
        },
        {
          "internalType": "uint256",
          "name": "addedValue",
          "type": "uint256"
        }
      ],
      "name": "increaseAllowance",
      "outputs": [
        {
          "internalType": "bool",
          "name": "",
          "type": "bool"
        }
      ],
      "stateMutability": "nonpayable",
      "type": "function"
    },
    {
      "inputs": [],
      "name": "jerkSanctions",
      "outputs": [
        {
          "internalType": "bool",
          "name": "",
          "type": "bool"
        }
      ],
      "stateMutability": "view",
      "type": "function",
      "constant": true
    },
    {
      "inputs": [],
      "name": "jerkSanctionsLocal",
      "outputs": [
        {
          "internalType": "bool",
          "name": "",
          "type": "bool"
        }
      ],
      "stateMutability": "view",
      "type": "function",
      "constant": true
    },
    {
      "inputs": [],
      "name": "name",
      "outputs": [
        {
          "internalType": "string",
          "name": "",
          "type": "string"
        }
      ],
      "stateMutability": "view",
      "type": "function",
      "constant": true
    },
    {
      "inputs": [
        {
          "internalType": "address",
          "name": "owner",
          "type": "address"
        }
      ],
      "name": "nonces",
      "outputs": [
        {
          "internalType": "uint256",
          "name": "",
          "type": "uint256"
        }
      ],
      "stateMutability": "view",
      "type": "function",
      "constant": true
    },
    {
      "inputs": [
        {
          "internalType": "address",
          "name": "owner",
          "type": "address"
        },
        {
          "internalType": "address",
          "name": "spender",
          "type": "address"
        },
        {
          "internalType": "uint256",
          "name": "value",
          "type": "uint256"
        },
        {
          "internalType": "uint256",
          "name": "deadline",
          "type": "uint256"
        },
        {
          "internalType": "uint8",
          "name": "v",
          "type": "uint8"
        },
        {
          "internalType": "bytes32",
          "name": "r",
          "type": "bytes32"
        },
        {
          "internalType": "bytes32",
          "name": "s",
          "type": "bytes32"
        }
      ],
      "name": "permit",
      "outputs": [],
      "stateMutability": "nonpayable",
      "type": "function"
    },
    {
      "inputs": [
        {
          "internalType": "bytes32",
          "name": "role",
          "type": "bytes32"
        },
        {
          "internalType": "address",
          "name": "account",
          "type": "address"
        }
      ],
      "name": "renounceRole",
      "outputs": [],
      "stateMutability": "nonpayable",
      "type": "function"
    },
    {
      "inputs": [],
      "name": "resetVote",
      "outputs": [],
      "stateMutability": "nonpayable",
      "type": "function"
    },
    {
      "inputs": [
        {
          "internalType": "bytes32",
          "name": "role",
          "type": "bytes32"
        },
        {
          "internalType": "address",
          "name": "account",
          "type": "address"
        }
      ],
      "name": "revokeRole",
      "outputs": [],
      "stateMutability": "nonpayable",
      "type": "function"
    },
    {
      "inputs": [],
      "name": "snapshot",
      "outputs": [],
      "stateMutability": "nonpayable",
      "type": "function"
    },
    {
      "inputs": [
        {
          "internalType": "bytes4",
          "name": "interfaceId",
          "type": "bytes4"
        }
      ],
      "name": "supportsInterface",
      "outputs": [
        {
          "internalType": "bool",
          "name": "",
          "type": "bool"
        }
      ],
      "stateMutability": "view",
      "type": "function",
      "constant": true
    },
    {
      "inputs": [
        {
          "internalType": "bool",
          "name": "turnOnSanctions",
          "type": "bool"
        }
      ],
      "name": "switchLocalJerkSanctions",
      "outputs": [],
      "stateMutability": "nonpayable",
      "type": "function"
    },
    {
      "inputs": [],
      "name": "symbol",
      "outputs": [
        {
          "internalType": "string",
          "name": "",
          "type": "string"
        }
      ],
      "stateMutability": "view",
      "type": "function",
      "constant": true
    },
    {
      "inputs": [],
      "name": "syncAllRoles",
      "outputs": [],
      "stateMutability": "nonpayable",
      "type": "function"
    },
    {
      "inputs": [
        {
          "internalType": "bytes32",
          "name": "ROLE_TO_SYNC",
          "type": "bytes32"
        }
      ],
      "name": "syncSingleRole",
      "outputs": [],
      "stateMutability": "nonpayable",
      "type": "function"
    },
    {
      "inputs": [],
      "name": "syncVotes",
      "outputs": [],
      "stateMutability": "nonpayable",
      "type": "function"
    },
    {
      "inputs": [],
      "name": "totalSupply",
      "outputs": [
        {
          "internalType": "uint256",
          "name": "",
          "type": "uint256"
        }
      ],
      "stateMutability": "view",
      "type": "function",
      "constant": true
    },
    {
      "inputs": [
        {
          "internalType": "uint256",
          "name": "snapshotId",
          "type": "uint256"
        }
      ],
      "name": "totalSupplyAt",
      "outputs": [
        {
          "internalType": "uint256",
          "name": "",
          "type": "uint256"
        }
      ],
      "stateMutability": "view",
      "type": "function",
      "constant": true
    },
    {
      "inputs": [
        {
          "internalType": "address",
          "name": "recipient",
          "type": "address"
        },
        {
          "internalType": "uint256",
          "name": "amount",
          "type": "uint256"
        }
      ],
      "name": "transfer",
      "outputs": [
        {
          "internalType": "bool",
          "name": "",
          "type": "bool"
        }
      ],
      "stateMutability": "nonpayable",
      "type": "function"
    },
    {
      "inputs": [
        {
          "internalType": "address",
          "name": "sender",
          "type": "address"
        },
        {
          "internalType": "address",
          "name": "recipient",
          "type": "address"
        },
        {
          "internalType": "uint256",
          "name": "amount",
          "type": "uint256"
        }
      ],
      "name": "transferFrom",
      "outputs": [
        {
          "internalType": "bool",
          "name": "",
          "type": "bool"
        }
      ],
      "stateMutability": "nonpayable",
      "type": "function"
    },
    {
      "inputs": [],
      "name": "updateAddressManager",
      "outputs": [],
      "stateMutability": "nonpayable",
      "type": "function"
    },
    {
      "inputs": [],
      "name": "updateAllAddresses",
      "outputs": [],
      "stateMutability": "nonpayable",
      "type": "function"
    },
    {
      "inputs": [],
      "name": "updateAllRoles",
      "outputs": [],
      "stateMutability": "nonpayable",
      "type": "function"
    },
    {
      "inputs": [],
      "name": "updateDAOAddresses",
      "outputs": [],
      "stateMutability": "nonpayable",
      "type": "function"
    },
    {
      "inputs": [
        {
          "internalType": "bytes32",
          "name": "ROLE_TO_UPDATE",
          "type": "bytes32"
        }
      ],
      "name": "updateSingleRole",
      "outputs": [],
      "stateMutability": "nonpayable",
      "type": "function"
    },
    {
      "inputs": [],
      "name": "updateTokenAddresses",
      "outputs": [],
      "stateMutability": "nonpayable",
      "type": "function"
    }
  ],
  "bytecode": "0x6101406040527f6e71edae12b1b97f4d1f60370fef10105fa2faae0126114a169c64845d6126c961012052600a805460ff19169055601b805465ffffffffffff60a01b191690553480156200005357600080fd5b5060405162004de738038062004de7833981016040819052620000769162001109565b8080604051806040016040528060088152602001675265642050656e7360c01b81525080604051806040016040528060018152602001603160f81b815250604051806040016040528060088152602001675265642050656e7360c01b815250604051806040016040528060048152602001630854915160e21b81525081600390805190602001906200010a92919062001063565b5080516200012090600490602084019062001063565b5050825160208085019190912083518483012060c082815260e08290524660a0818152604080517f8b73c3c69bb8fe3d512ecc4cf759cc79239f7b179b0ffacaa9a75d522b39400f818901819052818301889052606082018790526080820194909452308184015281518082039093018352909301909252815191909401209193509190608052610100525050600d80546001600160a01b039095166001600160a01b03199586168117909155601b80549095161790935550620001e691505062000347565b620001f06200035d565b6019546200020a906000906001600160a01b0316620004a8565b60195462000243907f0538d24a8b7882d7b2e36af243d4af61c23e86e3daa6cb8c887b53220b2f5720906001600160a01b0316620004a8565b6016546200027c907f048bc71fa1cb2c119c339cf9cf00a97996a19a9d991ce5fe049f2fa5459e7990906001600160a01b0316620004a8565b601754620002b5907ffa8e4989e1d689f7bc5c4b25b87efb51fecdecb19ba62847e29c759e12a89acd906001600160a01b0316620004a8565b601a54620002ee907ff0f4b159a6e2a4815eb3ca3df080bfa70c9270662c59bcaa4479a456220183e6906001600160a01b0316620004a8565b6200031b7f7c9d7f6f02908185bffb3f7fc9afb29fd7bf93675af8fd4b655ee05c2cee1e0e6000620004a8565b5060185462000340906001600160a01b03166b02a652a5e57eeb9e3a400000620004eb565b50620011fd565b62000351620005e1565b6200035b620008e1565b565b601b60009054906101000a90046001600160a01b03166001600160a01b031663ff7e88ec6040518163ffffffff1660e01b815260040160206040518083038186803b158015620003ac57600080fd5b505afa158015620003c1573d6000803e3d6000fd5b505050506040513d601f19601f82011682018060405250810190620003e791906200113b565b601b60156101000a81548160ff021916908315150217905550601b60009054906101000a90046001600160a01b03166001600160a01b0316632fb565856040518163ffffffff1660e01b815260040160206040518083038186803b1580156200044f57600080fd5b505afa15801562000464573d6000803e3d6000fd5b505050506040513d601f19601f820116820180604052508101906200048a91906200113b565b601b8054911515600160b01b0260ff60b01b19909216919091179055565b620004bf828262000d0b60201b620013b41760201c565b6000828152600c60209081526040909120620004e6918390620013c262000d1b821b17901c565b505050565b6001600160a01b038216620005465760405162461bcd60e51b815260206004820152601f60248201527f45524332303a206d696e7420746f20746865207a65726f206164647265737300604482015260640160405180910390fd5b620005546000838362000d3b565b80600260008282546200056891906200115f565b90915550506001600160a01b03821660009081526020819052604081208054839290620005979084906200115f565b90915550506040518181526001600160a01b038316906000907fddf252ad1be2c89b69c2b068fc378daa952ba7f163c4a11628f55a4df523b3ef9060200160405180910390a35050565b601b60009054906101000a90046001600160a01b03166001600160a01b031663dadf56ac6040518163ffffffff1660e01b815260040160206040518083038186803b1580156200063057600080fd5b505afa15801562000645573d6000803e3d6000fd5b505050506040513d601f19601f820116820180604052508101906200066b919062001109565b601680546001600160a01b0319166001600160a01b03928316179055601b546040805163024bebe960e01b81529051919092169163024bebe9916004808301926020929190829003018186803b158015620006c557600080fd5b505afa158015620006da573d6000803e3d6000fd5b505050506040513d601f19601f8201168201806040525081019062000700919062001109565b601780546001600160a01b0319166001600160a01b03928316179055601b5460408051635b5c251f60e01b815290519190921691635b5c251f916004808301926020929190829003018186803b1580156200075a57600080fd5b505afa1580156200076f573d6000803e3d6000fd5b505050506040513d601f19601f8201168201806040525081019062000795919062001109565b601880546001600160a01b0319166001600160a01b03928316179055601b5460408051637310bf1d60e11b81529051919092169163e6217e3a916004808301926020929190829003018186803b158015620007ef57600080fd5b505afa15801562000804573d6000803e3d6000fd5b505050506040513d601f19601f820116820180604052508101906200082a919062001109565b601a80546001600160a01b0319166001600160a01b03928316179055601b546040805163d88127a160e01b81529051919092169163d88127a1916004808301926020929190829003018186803b1580156200088457600080fd5b505afa15801562000899573d6000803e3d6000fd5b505050506040513d601f19601f82011682018060405250810190620008bf919062001109565b601580546001600160a01b0319166001600160a01b0392909216919091179055565b601b60009054906101000a90046001600160a01b03166001600160a01b03166321d7f0086040518163ffffffff1660e01b815260040160206040518083038186803b1580156200093057600080fd5b505afa15801562000945573d6000803e3d6000fd5b505050506040513d601f19601f820116820180604052508101906200096b919062001109565b600e80546001600160a01b0319166001600160a01b03928316179055601b546040805163762ddb5960e01b81529051919092169163762ddb59916004808301926020929190829003018186803b158015620009c557600080fd5b505afa158015620009da573d6000803e3d6000fd5b505050506040513d601f19601f8201168201806040525081019062000a00919062001109565b600f80546001600160a01b0319166001600160a01b03928316179055601b546040805163bfb7dc9960e01b81529051919092169163bfb7dc99916004808301926020929190829003018186803b15801562000a5a57600080fd5b505afa15801562000a6f573d6000803e3d6000fd5b505050506040513d601f19601f8201168201806040525081019062000a95919062001109565b601080546001600160a01b0319166001600160a01b03928316179055601b5460408051633e6111eb60e21b81529051919092169163f98447ac916004808301926020929190829003018186803b15801562000aef57600080fd5b505afa15801562000b04573d6000803e3d6000fd5b505050506040513d601f19601f8201168201806040525081019062000b2a919062001109565b601180546001600160a01b0319166001600160a01b03928316179055601b5460408051630fe1ba9f60e21b815290519190921691633f86ea7c916004808301926020929190829003018186803b15801562000b8457600080fd5b505afa15801562000b99573d6000803e3d6000fd5b505050506040513d601f19601f8201168201806040525081019062000bbf919062001109565b601280546001600160a01b0319166001600160a01b03928316179055601b5460408051632b90024160e11b8152905191909216916357200482916004808301926020929190829003018186803b15801562000c1957600080fd5b505afa15801562000c2e573d6000803e3d6000fd5b505050506040513d601f19601f8201168201806040525081019062000c54919062001109565b601380546001600160a01b0319166001600160a01b03928316179055601b5460408051636b58477560e01b815290519190921691636b584775916004808301926020929190829003018186803b15801562000cae57600080fd5b505afa15801562000cc3573d6000803e3d6000fd5b505050506040513d601f19601f8201168201806040525081019062000ce9919062001109565b601480546001600160a01b0319166001600160a01b0392909216919091179055565b62000d17828262000da8565b5050565b600062000d32836001600160a01b03841662000e4c565b90505b92915050565b601b54600160c81b900460ff16801562000d5e5750601b54600160a01b900460ff165b1562000d905733600090815260008051602062004dc7833981519152602052604090205460ff161562000d9057600080fd5b620004e683838362000e9e60201b620013d71760201c565b6000828152600b602090815260408083206001600160a01b038516845290915290205460ff1662000d17576000828152600b602090815260408083206001600160a01b03851684529091529020805460ff1916600117905562000e083390565b6001600160a01b0316816001600160a01b0316837f2f8788117e7eff1d82e926ec794901d17c78024a50270940304540a733656f0d60405160405180910390a45050565b600081815260018301602052604081205462000e955750815460018181018455600084815260208082209093018490558454848252828601909352604090209190915562000d35565b50600062000d35565b601b54600160c81b900460ff16801562000ec15750601b54600160a01b900460ff165b1562000ef35733600090815260008051602062004dc7833981519152602052604090205460ff161562000ef357600080fd5b620004e683838362000f0b60201b620014271760201c565b62000f23838383620004e660201b62000b2f1760201c565b6001600160a01b03831662000f475762000f3d8262000f72565b620004e662000faa565b6001600160a01b03821662000f615762000f3d8362000f72565b62000f6c8362000f72565b620004e6825b6001600160a01b0381166000908152600560209081526040808320918390529091205462000fa7919062000fba565b62000fba565b50565b6200035b600662000fa160025490565b600062000fd360086200101660201b6200146f1760201c565b90508062000fe1846200101a565b1015620004e6578254600180820185556000858152602080822090930193909355938401805494850181558252902090910155565b5490565b80546000906200102c57506000919050565b815482906200103e906001906200117a565b81548110620010515762001051620011e7565b90600052602060002001549050919050565b828054620010719062001194565b90600052602060002090601f016020900481019282620010955760008555620010e0565b82601f10620010b057805160ff1916838001178555620010e0565b82800160010185558215620010e0579182015b82811115620010e0578251825591602001919060010190620010c3565b50620010ee929150620010f2565b5090565b5b80821115620010ee5760008155600101620010f3565b6000602082840312156200111c57600080fd5b81516001600160a01b03811681146200113457600080fd5b9392505050565b6000602082840312156200114e57600080fd5b815180151581146200113457600080fd5b60008219821115620011755762001175620011d1565b500190565b6000828210156200118f576200118f620011d1565b500390565b600181811c90821680620011a957607f821691505b60208210811415620011cb57634e487b7160e01b600052602260045260246000fd5b50919050565b634e487b7160e01b600052601160045260246000fd5b634e487b7160e01b600052603260045260246000fd5b60805160a05160c05160e0516101005161012051613b7a6200124d60003960006111f20152600061242f0152600061247e01526000612459015260006123dd015260006124060152613b7a6000f3fe608060405234801561001057600080fd5b50600436106103db5760003560e01c80636b5847751161020a578063b126550611610125578063dadf56ac116100b8578063e9a5323011610087578063e9a532301461086a578063f1132b301461087f578063f7d92d8614610887578063f98447ac1461088f578063ff7e88ec146108a257600080fd5b8063dadf56ac146107f8578063dd62ed3e1461080b578063e6217e3a14610844578063e78c266c1461085757600080fd5b8063cf4ece15116100f4578063cf4ece15146107aa578063d505accf146107bf578063d547741f146107d2578063d88127a1146107e557600080fd5b8063b12655061461075b578063bfb7dc991461076f578063ca15c87314610782578063cce843921461079557600080fd5b806395d89b411161019d578063a32c5e591161016c578063a32c5e591461070c578063a457c2d714610721578063a78e746f14610734578063a9059cbb1461074857600080fd5b806395d89b41146106e15780639711715a146106e9578063981b24d0146106f1578063a217fddf1461070457600080fd5b80637ecebe00116101d95780637ecebe00146106955780639010d07c146106a857806391d14854146106bb57806393dad6e7146106ce57600080fd5b80636b5847751461063357806370a0823114610646578063762ddb591461066f57806379cc67901461068257600080fd5b80633644e515116102fa5780634ee2cd7e1161028d5780635b5c251f1161025c5780635b5c251f146105f25780635db531a1146106055780635f4134661461060d578063683988871461062057600080fd5b80634ee2cd7e146105a557806357200482146105b857806357f276ff146105cb5780635a140696146105de57600080fd5b80633f86ea7c116102c95780633f86ea7c1461056f57806342966c681461058257806349b5e105146105955780634d84c6d81461059d57600080fd5b80633644e5151461052e57806336568abe1461053657806339509351146105495780633ab76e9f1461055c57600080fd5b806323b872dd116103725780632fb56585116103415780632fb56585146104fb578063313ce5671461050f578063326a55e01461051e578063329a8cfa1461052657600080fd5b806323b872dd1461049d5780632436329d146104b0578063248a9ca3146104c55780632f2ff15d146104e857600080fd5b8063130f6320116103ae578063130f63201461045b57806317314d5a1461047057806318160ddd1461047857806321d7f0081461048a57600080fd5b806301ffc9a7146103e0578063024bebe91461040857806306fdde0314610433578063095ea7b314610448575b600080fd5b6103f36103ee36600461381b565b6108b6565b60405190151581526020015b60405180910390f35b60175461041b906001600160a01b031681565b6040516001600160a01b0390911681526020016103ff565b61043b6108e1565b6040516103ff91906138d3565b6103f3610456366004613755565b610973565b61046e6104693660046137bb565b610989565b005b61046e6109fb565b6002545b6040519081526020016103ff565b600e5461041b906001600160a01b031681565b6103f36104ab36600461369d565b610a5c565b61047c600080516020613aa583398151915281565b61047c6104d33660046137bb565b6000908152600b602052604090206001015490565b61046e6104f63660046137d4565b610b0d565b601b546103f390600160b01b900460ff1681565b604051601281526020016103ff565b61046e610b34565b61046e610b44565b61047c610c4d565b61046e6105443660046137d4565b610c5c565b6103f3610557366004613755565b610c7e565b601b5461041b906001600160a01b031681565b60125461041b906001600160a01b031681565b61046e6105903660046137bb565b610cb5565b61046e610cbf565b61046e610b3c565b61047c6105b3366004613755565b610cc7565b60135461041b906001600160a01b031681565b61046e6105d93660046137bb565b610d20565b601b546103f390600160c01b900460ff1681565b60185461041b906001600160a01b031681565b61046e610d34565b60195461041b906001600160a01b031681565b61046e61062e366004613781565b610d3c565b60145461041b906001600160a01b031681565b61047c61065436600461362a565b6001600160a01b031660009081526020819052604090205490565b600f5461041b906001600160a01b031681565b61046e610690366004613755565b610de9565b61047c6106a336600461362a565b610e6c565b61041b6106b63660046137f9565b610e8a565b6103f36106c93660046137d4565b610ea9565b61046e6106dc366004613781565b610ed4565b61043b610fe6565b61046e610ff5565b61047c6106ff3660046137bb565b6110b4565b61047c600081565b61047c600080516020613b0583398151915281565b6103f361072f366004613755565b6110df565b601b546103f390600160a01b900460ff1681565b6103f3610756366004613755565b61117a565b601b546103f390600160c81b900460ff1681565b60105461041b906001600160a01b031681565b61047c6107903660046137bb565b611187565b61047c600080516020613b2583398151915281565b61047c600080516020613ae583398151915281565b61046e6107cd3660046136de565b61119e565b61046e6107e03660046137d4565b611302565b60155461041b906001600160a01b031681565b60165461041b906001600160a01b031681565b61047c610819366004613664565b6001600160a01b03918216600090815260016020908152604080832093909416825291909152205490565b601a5461041b906001600160a01b031681565b600d5461041b906001600160a01b031681565b61047c600080516020613ac583398151915281565b61046e61130c565b61046e611314565b60115461041b906001600160a01b031681565b601b546103f390600160a81b900460ff1681565b60006001600160e01b03198216635a05180f60e01b14806108db57506108db82611473565b92915050565b6060600380546108f0906139af565b80601f016020809104026020016040519081016040528092919081815260200182805461091c906139af565b80156109695780601f1061093e57610100808354040283529160200191610969565b820191906000526020600020905b81548152906001019060200180831161094c57829003601f168201915b5050505050905090565b60006109803384846114a8565b50600192915050565b61099360016115cd565b5061099d81611681565b506109a7816117f2565b506109b260006115cd565b6109f85760405162461bcd60e51b81526020600482015260126024820152711cd8599d195e481b9bdd08199b1a5c1c195960721b60448201526064015b60405180910390fd5b50565b610a0560016115cd565b50610a0e61197b565b50610a1960006115cd565b610a5a5760405162461bcd60e51b81526020600482015260126024820152711cd8599d195e481b9bdd08199b1a5c1c195960721b60448201526064016109ef565b565b6000610a69848484611ac1565b6001600160a01b038416600090815260016020908152604080832033845290915290205482811015610aee5760405162461bcd60e51b815260206004820152602860248201527f45524332303a207472616e7366657220616d6f756e74206578636565647320616044820152676c6c6f77616e636560c01b60648201526084016109ef565b610b028533610afd8685613951565b6114a8565b506001949350505050565b610b178282611ca4565b6000828152600c60205260409020610b2f90826113c2565b505050565b610b3c611cdf565b610a5a611fcb565b610b5c600080516020613b0583398151915233610ea9565b80610b7a5750610b7a600080516020613ac583398151915233610ea9565b80610b985750610b98600080516020613aa583398151915233610ea9565b610bdd5760405162461bcd60e51b81526020600482015260166024820152752cb7ba93b932903737ba103a3432903130b4b634b33360511b60448201526064016109ef565b601b60009054906101000a90046001600160a01b03166001600160a01b031663329a8cfa6040518163ffffffff1660e01b8152600401600060405180830381600087803b158015610c2d57600080fd5b505af1158015610c41573d6000803e3d6000fd5b50505050610a5a610d34565b6000610c576123d9565b905090565b610c6682826124cc565b6000828152600c60205260409020610b2f9082612546565b3360008181526001602090815260408083206001600160a01b03871684529091528120549091610980918590610afd908690613906565b6109f8338261255b565b610a5a611cdf565b6001600160a01b038216600090815260056020526040812081908190610cee9085906126b6565b9150915081610d15576001600160a01b038516600090815260208190526040902054610d17565b805b95945050505050565b610d2a60016115cd565b506109a7816127a8565b610a5a612a03565b610d54600080516020613aa583398151915233610ea9565b80610d725750610d72600080516020613b0583398151915233610ea9565b610db45760405162461bcd60e51b8152602060048201526013602482015272596f75277265206e6f7420746865204a75727960681b60448201526064016109ef565b601b54600160c01b900460ff1615610dcb57600080fd5b601b8054911515600160c81b0260ff60c81b19909216919091179055565b6000610df58333610819565b905081811015610e535760405162461bcd60e51b8152602060048201526024808201527f45524332303a206275726e20616d6f756e74206578636565647320616c6c6f77604482015263616e636560e01b60648201526084016109ef565b610e628333610afd8585613951565b610b2f838361255b565b6001600160a01b0381166000908152600960205260408120546108db565b6000828152600c60205260408120610ea29083612b46565b9392505050565b6000918252600b602090815260408084206001600160a01b0393909316845291905290205460ff1690565b610eec600080516020613ac583398151915233610ea9565b80610f0a5750610f0a600080516020613aa583398151915233610ea9565b80610f285750610f28600080516020613b0583398151915233610ea9565b610f3157600080fd5b601b54600160b01b810460ff9081161515600160a81b9092041615151460011480610f6f5750610f6f600080516020613b0583398151915233610ea9565b610fae5760405162461bcd60e51b815260206004820152601060248201526f436f757274204d75737420416772656560801b60448201526064016109ef565b80158015610fc65750601b54600160c01b900460ff16155b610fcf57600080fd5b50601b805461ffff60c01b1916600160c01b179055565b6060600480546108f0906139af565b61100d600080516020613b0583398151915233610ea9565b8061102b575061102b600080516020613ac583398151915233610ea9565b806110495750611049600080516020613aa583398151915233610ea9565b806110675750611067600080516020613ae583398151915233610ea9565b6110ac5760405162461bcd60e51b81526020600482015260166024820152752cb7ba93b932903737ba103a3432903130b4b634b33360511b60448201526064016109ef565b6109f8612b52565b60008060006110c48460066126b6565b91509150816110d5576002546110d7565b805b949350505050565b3360009081526001602090815260408083206001600160a01b0386168452909152812054828110156111615760405162461bcd60e51b815260206004820152602560248201527f45524332303a2064656372656173656420616c6c6f77616e63652062656c6f77604482015264207a65726f60d81b60648201526084016109ef565b6111703385610afd8685613951565b5060019392505050565b6000610980338484611ac1565b6000818152600c602052604081206108db90612bad565b834211156111ee5760405162461bcd60e51b815260206004820152601d60248201527f45524332305065726d69743a206578706972656420646561646c696e6500000060448201526064016109ef565b60007f000000000000000000000000000000000000000000000000000000000000000088888861121d8c612bb7565b6040805160208101969096526001600160a01b0394851690860152929091166060840152608083015260a082015260c0810186905260e001604051602081830303815290604052805190602001209050600061127882612bdf565b9050600061128882878787612c2d565b9050896001600160a01b0316816001600160a01b0316146112eb5760405162461bcd60e51b815260206004820152601e60248201527f45524332305065726d69743a20696e76616c6964207369676e6174757265000060448201526064016109ef565b6112f68a8a8a6114a8565b50505050505050505050565b610c668282612dcd565b610a5a612e08565b61131e60016115cd565b50611336600080516020613b058339815191526127a8565b5061134e600080516020613ac58339815191526127a8565b50611366600080516020613aa58339815191526127a8565b5061137e600080516020613ae58339815191526127a8565b50611396600080516020613b258339815191526127a8565b506113a160006127a8565b506113aa612a03565b610a1960006115cd565b6113be8282612f3f565b5050565b6000610ea2836001600160a01b038416612fc5565b601b54600160c81b900460ff1680156113f95750601b54600160a01b900460ff165b1561142057611416600080516020613b2583398151915233610ea9565b1561142057600080fd5b610b2f8383835b6001600160a01b0383166114465761143e82613014565b610b2f613046565b6001600160a01b03821661145d5761143e83613014565b61146683613014565b610b2f82613014565b5490565b60006001600160e01b03198216637965db0b60e01b14806108db57506301ffc9a760e01b6001600160e01b03198316146108db565b6001600160a01b03831661150a5760405162461bcd60e51b8152602060048201526024808201527f45524332303a20617070726f76652066726f6d20746865207a65726f206164646044820152637265737360e01b60648201526084016109ef565b6001600160a01b03821661156b5760405162461bcd60e51b815260206004820152602260248201527f45524332303a20617070726f766520746f20746865207a65726f206164647265604482015261737360f01b60648201526084016109ef565b6001600160a01b0383811660008181526001602090815260408083209487168084529482529182902085905590518481527f8c5be1e5ebec7d5bd14f71427d1e84f3dd0314c0f7b2291e5b200ac8c7c3b92591015b60405180910390a3505050565b600a5460009060ff16821515811515141561162a5760405162461bcd60e51b815260206004820152601960248201527f416c72656164792053657420746f20746861742076616c75650000000000000060448201526064016109ef565b600a805484151560ff19909116811790915560ff16151581151514156109805760405162461bcd60e51b815260206004820152600c60248201526b29b0b33a32bc9022b93937b960a11b60448201526064016109ef565b60405163ca15c87360e01b8152600481018290526000908190309063ca15c8739060240160206040518083038186803b1580156116bd57600080fd5b505afa1580156116d1573d6000803e3d6000fd5b505050506040513d601f19601f820116820180604052508101906116f59190613845565b905060005b8181101561117057604051632404341f60e21b815260048101859052602481018290526000903090639010d07c9060440160206040518083038186803b15801561174357600080fd5b505afa158015611757573d6000803e3d6000fd5b505050506040513d601f19601f8201168201806040525081019061177b9190613647565b60405163d547741f60e01b8152600481018790526001600160a01b0382166024820152909150309063d547741f90604401600060405180830381600087803b1580156117c657600080fd5b505af11580156117da573d6000803e3d6000fd5b505050505080806117ea906139e4565b9150506116fa565b601b5460405163ca15c87360e01b81526004810183905260009182916001600160a01b039091169063ca15c8739060240160206040518083038186803b15801561183b57600080fd5b505afa15801561184f573d6000803e3d6000fd5b505050506040513d601f19601f820116820180604052508101906118739190613845565b905060005b8181101561117057601b54604051632404341f60e21b815260048101869052602481018390526000916001600160a01b031690639010d07c9060440160206040518083038186803b1580156118cc57600080fd5b505afa1580156118e0573d6000803e3d6000fd5b505050506040513d601f19601f820116820180604052508101906119049190613647565b604051632f2ff15d60e01b8152600481018790526001600160a01b03821660248201529091503090632f2ff15d90604401600060405180830381600087803b15801561194f57600080fd5b505af1158015611963573d6000803e3d6000fd5b50505050508080611973906139e4565b915050611878565b6000611994600080516020613b05833981519152611681565b506119ac600080516020613b058339815191526117f2565b6119b557600080fd5b6119cc600080516020613ac5833981519152611681565b506119e4600080516020613ac58339815191526117f2565b6119ed57600080fd5b611a04600080516020613aa5833981519152611681565b50611a1c600080516020613aa58339815191526117f2565b611a2557600080fd5b611a3c600080516020613ae5833981519152611681565b50611a54600080516020613ae58339815191526117f2565b611a5d57600080fd5b611a74600080516020613b25833981519152611681565b50611a8c600080516020613b258339815191526117f2565b611a9557600080fd5b611a9f6000611681565b50611aaa60006117f2565b611ab357600080fd5b611abb612a03565b50600190565b6001600160a01b038316611b255760405162461bcd60e51b815260206004820152602560248201527f45524332303a207472616e736665722066726f6d20746865207a65726f206164604482015264647265737360d81b60648201526084016109ef565b6001600160a01b038216611b875760405162461bcd60e51b815260206004820152602360248201527f45524332303a207472616e7366657220746f20746865207a65726f206164647260448201526265737360e81b60648201526084016109ef565b611b92838383613054565b6001600160a01b03831660009081526020819052604090205481811015611c0a5760405162461bcd60e51b815260206004820152602660248201527f45524332303a207472616e7366657220616d6f756e7420657863656564732062604482015265616c616e636560d01b60648201526084016109ef565b611c148282613951565b6001600160a01b038086166000908152602081905260408082209390935590851681529081208054849290611c4a908490613906565b92505081905550826001600160a01b0316846001600160a01b03167fddf252ad1be2c89b69c2b068fc378daa952ba7f163c4a11628f55a4df523b3ef84604051611c9691815260200190565b60405180910390a350505050565b6000828152600b6020526040902060010154600a5460ff1615611ccb57610b2f8383612f3f565b611cd581336130a8565b610b2f8383612f3f565b601b60009054906101000a90046001600160a01b03166001600160a01b031663dadf56ac6040518163ffffffff1660e01b815260040160206040518083038186803b158015611d2d57600080fd5b505afa158015611d41573d6000803e3d6000fd5b505050506040513d601f19601f82011682018060405250810190611d659190613647565b601680546001600160a01b0319166001600160a01b03928316179055601b546040805163024bebe960e01b81529051919092169163024bebe9916004808301926020929190829003018186803b158015611dbe57600080fd5b505afa158015611dd2573d6000803e3d6000fd5b505050506040513d601f19601f82011682018060405250810190611df69190613647565b601780546001600160a01b0319166001600160a01b03928316179055601b5460408051635b5c251f60e01b815290519190921691635b5c251f916004808301926020929190829003018186803b158015611e4f57600080fd5b505afa158015611e63573d6000803e3d6000fd5b505050506040513d601f19601f82011682018060405250810190611e879190613647565b601880546001600160a01b0319166001600160a01b03928316179055601b5460408051637310bf1d60e11b81529051919092169163e6217e3a916004808301926020929190829003018186803b158015611ee057600080fd5b505afa158015611ef4573d6000803e3d6000fd5b505050506040513d601f19601f82011682018060405250810190611f189190613647565b601a80546001600160a01b0319166001600160a01b03928316179055601b546040805163d88127a160e01b81529051919092169163d88127a1916004808301926020929190829003018186803b158015611f7157600080fd5b505afa158015611f85573d6000803e3d6000fd5b505050506040513d601f19601f82011682018060405250810190611fa99190613647565b601580546001600160a01b0319166001600160a01b0392909216919091179055565b601b60009054906101000a90046001600160a01b03166001600160a01b03166321d7f0086040518163ffffffff1660e01b815260040160206040518083038186803b15801561201957600080fd5b505afa15801561202d573d6000803e3d6000fd5b505050506040513d601f19601f820116820180604052508101906120519190613647565b600e80546001600160a01b0319166001600160a01b03928316179055601b546040805163762ddb5960e01b81529051919092169163762ddb59916004808301926020929190829003018186803b1580156120aa57600080fd5b505afa1580156120be573d6000803e3d6000fd5b505050506040513d601f19601f820116820180604052508101906120e29190613647565b600f80546001600160a01b0319166001600160a01b03928316179055601b546040805163bfb7dc9960e01b81529051919092169163bfb7dc99916004808301926020929190829003018186803b15801561213b57600080fd5b505afa15801561214f573d6000803e3d6000fd5b505050506040513d601f19601f820116820180604052508101906121739190613647565b601080546001600160a01b0319166001600160a01b03928316179055601b5460408051633e6111eb60e21b81529051919092169163f98447ac916004808301926020929190829003018186803b1580156121cc57600080fd5b505afa1580156121e0573d6000803e3d6000fd5b505050506040513d601f19601f820116820180604052508101906122049190613647565b601180546001600160a01b0319166001600160a01b03928316179055601b5460408051630fe1ba9f60e21b815290519190921691633f86ea7c916004808301926020929190829003018186803b15801561225d57600080fd5b505afa158015612271573d6000803e3d6000fd5b505050506040513d601f19601f820116820180604052508101906122959190613647565b601280546001600160a01b0319166001600160a01b03928316179055601b5460408051632b90024160e11b8152905191909216916357200482916004808301926020929190829003018186803b1580156122ee57600080fd5b505afa158015612302573d6000803e3d6000fd5b505050506040513d601f19601f820116820180604052508101906123269190613647565b601380546001600160a01b0319166001600160a01b03928316179055601b5460408051636b58477560e01b815290519190921691636b584775916004808301926020929190829003018186803b15801561237f57600080fd5b505afa158015612393573d6000803e3d6000fd5b505050506040513d601f19601f820116820180604052508101906123b79190613647565b601480546001600160a01b0319166001600160a01b0392909216919091179055565b60007f000000000000000000000000000000000000000000000000000000000000000046141561242857507f000000000000000000000000000000000000000000000000000000000000000090565b50604080517f00000000000000000000000000000000000000000000000000000000000000006020808301919091527f0000000000000000000000000000000000000000000000000000000000000000828401527f000000000000000000000000000000000000000000000000000000000000000060608301524660808301523060a0808401919091528351808403909101815260c0909201909252805191012090565b6001600160a01b038116331461253c5760405162461bcd60e51b815260206004820152602f60248201527f416363657373436f6e74726f6c3a2063616e206f6e6c792072656e6f756e636560448201526e103937b632b9903337b91039b2b63360891b60648201526084016109ef565b6113be828261310c565b6000610ea2836001600160a01b038416613173565b6001600160a01b0382166125bb5760405162461bcd60e51b815260206004820152602160248201527f45524332303a206275726e2066726f6d20746865207a65726f206164647265736044820152607360f81b60648201526084016109ef565b6125c782600083613054565b6001600160a01b0382166000908152602081905260409020548181101561263b5760405162461bcd60e51b815260206004820152602260248201527f45524332303a206275726e20616d6f756e7420657863656564732062616c616e604482015261636560f01b60648201526084016109ef565b6126458282613951565b6001600160a01b03841660009081526020819052604081209190915560028054849290612673908490613951565b90915550506040518281526000906001600160a01b038516907fddf252ad1be2c89b69c2b068fc378daa952ba7f163c4a11628f55a4df523b3ef906020016115c0565b600080600084116127025760405162461bcd60e51b815260206004820152601660248201527504552433230536e617073686f743a20696420697320360541b60448201526064016109ef565b6008548411156127545760405162461bcd60e51b815260206004820152601d60248201527f4552433230536e617073686f743a206e6f6e6578697374656e7420696400000060448201526064016109ef565b60006127608486613260565b84549091508114156127795760008092509250506127a1565b600184600101828154811061279057612790613a55565b906000526020600020015492509250505b9250929050565b601b5460405163ca15c87360e01b81526004810183905260009182916001600160a01b039091169063ca15c8739060240160206040518083038186803b1580156127f157600080fd5b505afa158015612805573d6000803e3d6000fd5b505050506040513d601f19601f820116820180604052508101906128299190613845565b60405163ca15c87360e01b815260048101859052909150600090309063ca15c8739060240160206040518083038186803b15801561286657600080fd5b505afa15801561287a573d6000803e3d6000fd5b505050506040513d601f19601f8201168201806040525081019061289e9190613845565b905060006128ac8284613951565b9050600081116128f15760405162461bcd60e51b815260206004820152601060248201526f4e6f7468696e6720746f2073796e632160801b60448201526064016109ef565b60005b818110156129f757601b54604051632404341f60e21b815260048101889052602481018390526000916001600160a01b031690639010d07c9060440160206040518083038186803b15801561294857600080fd5b505afa15801561295c573d6000803e3d6000fd5b505050506040513d601f19601f820116820180604052508101906129809190613647565b604051632f2ff15d60e01b8152600481018990526001600160a01b03821660248201529091503090632f2ff15d90604401600060405180830381600087803b1580156129cb57600080fd5b505af11580156129df573d6000803e3d6000fd5b505050505080806129ef906139e4565b9150506128f4565b50600195945050505050565b601b60009054906101000a90046001600160a01b03166001600160a01b031663ff7e88ec6040518163ffffffff1660e01b815260040160206040518083038186803b158015612a5157600080fd5b505afa158015612a65573d6000803e3d6000fd5b505050506040513d601f19601f82011682018060405250810190612a89919061379e565b601b60156101000a81548160ff021916908315150217905550601b60009054906101000a90046001600160a01b03166001600160a01b0316632fb565856040518163ffffffff1660e01b815260040160206040518083038186803b158015612af057600080fd5b505afa158015612b04573d6000803e3d6000fd5b505050506040513d601f19601f82011682018060405250810190612b28919061379e565b601b8054911515600160b01b0260ff60b01b19909216919091179055565b6000610ea28383613323565b6000612b62600880546001019055565b6000612b6d60085490565b90507f8030e83b04d87bef53480e26263266d6ca66863aa8506aca6f2559d18aa1cb6781604051612ba091815260200190565b60405180910390a1919050565b60006108db825490565b6001600160a01b03811660009081526009602052604090208054600181018255905b50919050565b60006108db612bec6123d9565b8360405161190160f01b6020820152602281018390526042810182905260009060620160405160208183030381529060405280519060200120905092915050565b60007f7fffffffffffffffffffffffffffffff5d576e7357a4501ddfe92f46681b20a0821115612caa5760405162461bcd60e51b815260206004820152602260248201527f45434453413a20696e76616c6964207369676e6174757265202773272076616c604482015261756560f01b60648201526084016109ef565b8360ff16601b1480612cbf57508360ff16601c145b612d165760405162461bcd60e51b815260206004820152602260248201527f45434453413a20696e76616c6964207369676e6174757265202776272076616c604482015261756560f01b60648201526084016109ef565b6040805160008082526020820180845288905260ff871692820192909252606081018590526080810184905260019060a0016020604051602081039080840390855afa158015612d6a573d6000803e3d6000fd5b5050604051601f1901519150506001600160a01b038116610d175760405162461bcd60e51b815260206004820152601860248201527f45434453413a20696e76616c6964207369676e6174757265000000000000000060448201526064016109ef565b6000828152600b6020526040902060010154600a5460ff1615612df457610b2f838361310c565b612dfe81336130a8565b610b2f838361310c565b601b60009054906101000a90046001600160a01b03166001600160a01b031663a44b93256040518163ffffffff1660e01b815260040160206040518083038186803b158015612e5657600080fd5b505afa158015612e6a573d6000803e3d6000fd5b505050506040513d601f19601f82011682018060405250810190612e8e919061379e565b612e9757600080fd5b601b60009054906101000a90046001600160a01b03166001600160a01b031663ac7cfac36040518163ffffffff1660e01b815260040160206040518083038186803b158015612ee557600080fd5b505afa158015612ef9573d6000803e3d6000fd5b505050506040513d601f19601f82011682018060405250810190612f1d9190613647565b600d80546001600160a01b0319166001600160a01b0392909216919091179055565b612f498282610ea9565b6113be576000828152600b602090815260408083206001600160a01b03851684529091529020805460ff19166001179055612f813390565b6001600160a01b0316816001600160a01b0316837f2f8788117e7eff1d82e926ec794901d17c78024a50270940304540a733656f0d60405160405180910390a45050565b600081815260018301602052604081205461300c575081546001818101845560008481526020808220909301849055845484825282860190935260409020919091556108db565b5060006108db565b6001600160a01b038116600090815260056020908152604080832091839052909120546109f891906133a9565b6133a9565b610a5a600661304160025490565b601b54600160c81b900460ff1680156130765750601b54600160a01b900460ff165b1561309d57613093600080516020613b2583398151915233610ea9565b1561309d57600080fd5b610b2f8383836113d7565b6130b28282610ea9565b6113be576130ca816001600160a01b031660146133f4565b6130d58360206133f4565b6040516020016130e692919061385e565b60408051601f198184030181529082905262461bcd60e51b82526109ef916004016138d3565b6131168282610ea9565b156113be576000828152600b602090815260408083206001600160a01b0385168085529252808320805460ff1916905551339285917ff6391f5c32d9c69d2a47ea670b442974b53935d1edc7fd64eb21e047a839171b9190a45050565b60008181526001830160205260408120548015613256576000613197600183613951565b85549091506000906131ab90600190613951565b905060008660000182815481106131c4576131c4613a55565b90600052602060002001549050808760000184815481106131e7576131e7613a55565b60009182526020808320909101929092558281526001890190915260409020849055865487908061321a5761321a613a3f565b600190038181906000526020600020016000905590558660010160008781526020019081526020016000206000905560019450505050506108db565b60009150506108db565b8154600090613271575060006108db565b82546000905b808210156132cd57600061328b8383613590565b9050848682815481106132a0576132a0613a55565b906000526020600020015411156132b9578091506132c7565b6132c4816001613906565b92505b50613277565b600082118015613302575083856132e5600185613951565b815481106132f5576132f5613a55565b9060005260206000200154145b1561331b57613312600183613951565b925050506108db565b5090506108db565b815460009082106133815760405162461bcd60e51b815260206004820152602260248201527f456e756d657261626c655365743a20696e646578206f7574206f6620626f756e604482015261647360f01b60648201526084016109ef565b82600001828154811061339657613396613a55565b9060005260206000200154905092915050565b60006133b460085490565b9050806133c0846135e7565b1015610b2f578254600180820185556000858152602080822090930193909355938401805494850181558252902090910155565b60606000613403836002613932565b61340e906002613906565b67ffffffffffffffff81111561342657613426613a6b565b6040519080825280601f01601f191660200182016040528015613450576020820181803683370190505b509050600360fc1b8160008151811061346b5761346b613a55565b60200101906001600160f81b031916908160001a905350600f60fb1b8160018151811061349a5761349a613a55565b60200101906001600160f81b031916908160001a90535060006134be846002613932565b6134c9906001613906565b90505b6001811115613541576f181899199a1a9b1b9c1cb0b131b232b360811b85600f16601081106134fd576134fd613a55565b1a60f81b82828151811061351357613513613a55565b60200101906001600160f81b031916908160001a90535060049490941c9361353a81613998565b90506134cc565b508315610ea25760405162461bcd60e51b815260206004820181905260248201527f537472696e67733a20686578206c656e67746820696e73756666696369656e7460448201526064016109ef565b6000600261359e81846139ff565b6135a96002866139ff565b6135b39190613906565b6135bd919061391e565b6135c860028461391e565b6135d360028661391e565b6135dd9190613906565b610ea29190613906565b80546000906135f857506000919050565b8154829061360890600190613951565b8154811061361857613618613a55565b90600052602060002001549050919050565b60006020828403121561363c57600080fd5b8135610ea281613a81565b60006020828403121561365957600080fd5b8151610ea281613a81565b6000806040838503121561367757600080fd5b823561368281613a81565b9150602083013561369281613a81565b809150509250929050565b6000806000606084860312156136b257600080fd5b83356136bd81613a81565b925060208401356136cd81613a81565b929592945050506040919091013590565b600080600080600080600060e0888a0312156136f957600080fd5b873561370481613a81565b9650602088013561371481613a81565b95506040880135945060608801359350608088013560ff8116811461373857600080fd5b9699959850939692959460a0840135945060c09093013592915050565b6000806040838503121561376857600080fd5b823561377381613a81565b946020939093013593505050565b60006020828403121561379357600080fd5b8135610ea281613a96565b6000602082840312156137b057600080fd5b8151610ea281613a96565b6000602082840312156137cd57600080fd5b5035919050565b600080604083850312156137e757600080fd5b82359150602083013561369281613a81565b6000806040838503121561380c57600080fd5b50508035926020909101359150565b60006020828403121561382d57600080fd5b81356001600160e01b031981168114610ea257600080fd5b60006020828403121561385757600080fd5b5051919050565b7f416363657373436f6e74726f6c3a206163636f756e7420000000000000000000815260008351613896816017850160208801613968565b7001034b99036b4b9b9b4b733903937b6329607d1b60179184019182015283516138c7816028840160208801613968565b01602801949350505050565b60208152600082518060208401526138f2816040850160208701613968565b601f01601f19169190910160400192915050565b6000821982111561391957613919613a13565b500190565b60008261392d5761392d613a29565b500490565b600081600019048311821515161561394c5761394c613a13565b500290565b60008282101561396357613963613a13565b500390565b60005b8381101561398357818101518382015260200161396b565b83811115613992576000848401525b50505050565b6000816139a7576139a7613a13565b506000190190565b600181811c908216806139c357607f821691505b60208210811415612bd957634e487b7160e01b600052602260045260246000fd5b60006000198214156139f8576139f8613a13565b5060010190565b600082613a0e57613a0e613a29565b500690565b634e487b7160e01b600052601160045260246000fd5b634e487b7160e01b600052601260045260246000fd5b634e487b7160e01b600052603160045260246000fd5b634e487b7160e01b600052603260045260246000fd5b634e487b7160e01b600052604160045260246000fd5b6001600160a01b03811681146109f857600080fd5b80151581146109f857600080fdfefa8e4989e1d689f7bc5c4b25b87efb51fecdecb19ba62847e29c759e12a89acd048bc71fa1cb2c119c339cf9cf00a97996a19a9d991ce5fe049f2fa5459e7990f0f4b159a6e2a4815eb3ca3df080bfa70c9270662c59bcaa4479a456220183e60538d24a8b7882d7b2e36af243d4af61c23e86e3daa6cb8c887b53220b2f57207c9d7f6f02908185bffb3f7fc9afb29fd7bf93675af8fd4b655ee05c2cee1e0ea264697066735822122096c28e754e146ea9534dc9a410e2b083fd9ea5a8e22de0aff2bccf7baf501fbb64736f6c63430008070033af6764c545b730f8406272d3c433b26bc54d4e183d20d8b2ddd26b7c92f55547",
  "immutableReferences": {
    "9011": [
      {
        "length": 32,
        "start": 4594
      }
    ],
    "11706": [
      {
        "length": 32,
        "start": 9222
      }
    ],
    "11708": [
      {
        "length": 32,
        "start": 9181
      }
    ],
    "11710": [
      {
        "length": 32,
        "start": 9305
      }
    ],
    "11712": [
      {
        "length": 32,
        "start": 9342
      }
    ],
    "11714": [
      {
        "length": 32,
        "start": 9263
      }
    ]
  },
  "source": "// Disclaimer: I have literally no idea what I'm doing so take that as you will.\n// Now that thats out of the way, feel free to help improve this!\n\npragma solidity ^0.8.0;\n\nimport \"@openzeppelin/contracts/token/ERC20/ERC20.sol\";\nimport \"@openzeppelin/contracts/token/ERC20/extensions/ERC20Snapshot.sol\";\nimport \"@openzeppelin/contracts/token/ERC20/extensions/draft-ERC20Permit.sol\";\nimport \"@openzeppelin/contracts/token/ERC20/extensions/ERC20Burnable.sol\";\nimport \"../src/SmartConsensusMachine.sol\";\nimport \"../src/ERC20/JerkSanctions.sol\";\n\n// Token features:\n// Snapshot for governance and distrubutions\n// Burnable\n// Fixed Supply\n// Gassless Permit (Draft EIP)\n\ncontract RedPens is ERC20, ERC20Snapshot, ERC20Permit, ERC20Burnable, SmartConsensusMachine, JerkSanctions {\n\n    constructor(address _AddressManagerAddress) ERC20(\"Red Pens\", \"!RED\") ERC20Permit(\"Red Pens\") SmartConsensusMachine(_AddressManagerAddress) {\n    \n        _mint(TreasuryAddress, 820042000 * 10 ** 18); // Mint the entire token supply\n    }\n\n    function _beforeTokenTransfer(address from, address to, uint256 amount)\n        internal\n        override(ERC20, ERC20Snapshot, JerkSanctions)\n    {\n        if (jerkSanctionsLocal && jerkSanctions) {\n           require(!hasRole(JERK_ROLE, msg.sender)); \n        }\n        super._beforeTokenTransfer(from, to, amount);\n    }\n\n}\n\n    ",
  "sourcePath": "/home/n/Desktop/PinkSlips_FrontEnd_REFORMAT/contracts/govTokens/RedPens.sol",
  "compiler": {
    "name": "solc",
    "version": "0.8.7+commit.e28d00a7.Emscripten.clang"
  },
  "schemaVersion": "3.4.1",
  "updatedAt": "2021-09-06T23:19:47.725Z",
  "networkType": "ethereum",
  "devdoc": {
    "kind": "dev",
    "methods": {
      "DOMAIN_SEPARATOR()": {
        "details": "See {IERC20Permit-DOMAIN_SEPARATOR}."
      },
      "allowance(address,address)": {
        "details": "See {IERC20-allowance}."
      },
      "approve(address,uint256)": {
        "details": "See {IERC20-approve}. Requirements: - `spender` cannot be the zero address."
      },
      "balanceOf(address)": {
        "details": "See {IERC20-balanceOf}."
      },
      "balanceOfAt(address,uint256)": {
        "details": "Retrieves the balance of `account` at the time `snapshotId` was created."
      },
      "burn(uint256)": {
        "details": "Destroys `amount` tokens from the caller. See {ERC20-_burn}."
      },
      "burnFrom(address,uint256)": {
        "details": "Destroys `amount` tokens from `account`, deducting from the caller's allowance. See {ERC20-_burn} and {ERC20-allowance}. Requirements: - the caller must have allowance for ``accounts``'s tokens of at least `amount`."
      },
      "decimals()": {
        "details": "Returns the number of decimals used to get its user representation. For example, if `decimals` equals `2`, a balance of `505` tokens should be displayed to a user as `5,05` (`505 / 10 ** 2`). Tokens usually opt for a value of 18, imitating the relationship between Ether and Wei. This is the value {ERC20} uses, unless this function is overridden; NOTE: This information is only used for _display_ purposes: it in no way affects any of the arithmetic of the contract, including {IERC20-balanceOf} and {IERC20-transfer}."
      },
      "decreaseAllowance(address,uint256)": {
        "details": "Atomically decreases the allowance granted to `spender` by the caller. This is an alternative to {approve} that can be used as a mitigation for problems described in {IERC20-approve}. Emits an {Approval} event indicating the updated allowance. Requirements: - `spender` cannot be the zero address. - `spender` must have allowance for the caller of at least `subtractedValue`."
      },
      "getRoleAdmin(bytes32)": {
        "details": "Returns the admin role that controls `role`. See {grantRole} and {revokeRole}. To change a role's admin, use {_setRoleAdmin}."
      },
      "getRoleMember(bytes32,uint256)": {
        "details": "Returns one of the accounts that have `role`. `index` must be a value between 0 and {getRoleMemberCount}, non-inclusive. Role bearers are not sorted in any particular way, and their ordering may change at any point. WARNING: When using {getRoleMember} and {getRoleMemberCount}, make sure you perform all queries on the same block. See the following https://forum.openzeppelin.com/t/iterating-over-elements-on-enumerableset-in-openzeppelin-contracts/2296[forum post] for more information."
      },
      "getRoleMemberCount(bytes32)": {
        "details": "Returns the number of accounts that have `role`. Can be used together with {getRoleMember} to enumerate all bearers of a role."
      },
      "grantRole(bytes32,address)": {
        "details": "Overload {grantRole} to track enumerable memberships"
      },
      "hasRole(bytes32,address)": {
        "details": "Returns `true` if `account` has been granted `role`."
      },
      "increaseAllowance(address,uint256)": {
        "details": "Atomically increases the allowance granted to `spender` by the caller. This is an alternative to {approve} that can be used as a mitigation for problems described in {IERC20-approve}. Emits an {Approval} event indicating the updated allowance. Requirements: - `spender` cannot be the zero address."
      },
      "name()": {
        "details": "Returns the name of the token."
      },
      "nonces(address)": {
        "details": "See {IERC20Permit-nonces}."
      },
      "permit(address,address,uint256,uint256,uint8,bytes32,bytes32)": {
        "details": "See {IERC20Permit-permit}."
      },
      "renounceRole(bytes32,address)": {
        "details": "Overload {renounceRole} to track enumerable memberships"
      },
      "revokeRole(bytes32,address)": {
        "details": "Overload {revokeRole} to track enumerable memberships"
      },
      "supportsInterface(bytes4)": {
        "details": "See {IERC165-supportsInterface}."
      },
      "symbol()": {
        "details": "Returns the symbol of the token, usually a shorter version of the name."
      },
      "totalSupply()": {
        "details": "See {IERC20-totalSupply}."
      },
      "totalSupplyAt(uint256)": {
        "details": "Retrieves the total supply at the time `snapshotId` was created."
      },
      "transfer(address,uint256)": {
        "details": "See {IERC20-transfer}. Requirements: - `recipient` cannot be the zero address. - the caller must have a balance of at least `amount`."
      },
      "transferFrom(address,address,uint256)": {
        "details": "See {IERC20-transferFrom}. Emits an {Approval} event indicating the updated allowance. This is not required by the EIP. See the note at the beginning of {ERC20}. Requirements: - `sender` and `recipient` cannot be the zero address. - `sender` must have a balance of at least `amount`. - the caller must have allowance for ``sender``'s tokens of at least `amount`."
      }
    },
    "version": 1
  },
  "userdoc": {
    "kind": "user",
    "methods": {},
    "version": 1
  }
}