{
  "contractName": "RedPens",
  "abi": [
    {
      "inputs": [
        {
          "internalType": "address",
          "name": "_AddressManagerAddress",
          "type": "address"
        }
      ],
      "stateMutability": "nonpayable",
      "type": "constructor"
    },
    {
      "anonymous": false,
      "inputs": [
        {
          "indexed": true,
          "internalType": "address",
          "name": "owner",
          "type": "address"
        },
        {
          "indexed": true,
          "internalType": "address",
          "name": "spender",
          "type": "address"
        },
        {
          "indexed": false,
          "internalType": "uint256",
          "name": "value",
          "type": "uint256"
        }
      ],
      "name": "Approval",
      "type": "event"
    },
    {
      "anonymous": false,
      "inputs": [
        {
          "indexed": true,
          "internalType": "bytes32",
          "name": "role",
          "type": "bytes32"
        },
        {
          "indexed": true,
          "internalType": "bytes32",
          "name": "previousAdminRole",
          "type": "bytes32"
        },
        {
          "indexed": true,
          "internalType": "bytes32",
          "name": "newAdminRole",
          "type": "bytes32"
        }
      ],
      "name": "RoleAdminChanged",
      "type": "event"
    },
    {
      "anonymous": false,
      "inputs": [
        {
          "indexed": true,
          "internalType": "bytes32",
          "name": "role",
          "type": "bytes32"
        },
        {
          "indexed": true,
          "internalType": "address",
          "name": "account",
          "type": "address"
        },
        {
          "indexed": true,
          "internalType": "address",
          "name": "sender",
          "type": "address"
        }
      ],
      "name": "RoleGranted",
      "type": "event"
    },
    {
      "anonymous": false,
      "inputs": [
        {
          "indexed": true,
          "internalType": "bytes32",
          "name": "role",
          "type": "bytes32"
        },
        {
          "indexed": true,
          "internalType": "address",
          "name": "account",
          "type": "address"
        },
        {
          "indexed": true,
          "internalType": "address",
          "name": "sender",
          "type": "address"
        }
      ],
      "name": "RoleRevoked",
      "type": "event"
    },
    {
      "anonymous": false,
      "inputs": [
        {
          "indexed": false,
          "internalType": "uint256",
          "name": "id",
          "type": "uint256"
        }
      ],
      "name": "Snapshot",
      "type": "event"
    },
    {
      "anonymous": false,
      "inputs": [
        {
          "indexed": true,
          "internalType": "address",
          "name": "from",
          "type": "address"
        },
        {
          "indexed": true,
          "internalType": "address",
          "name": "to",
          "type": "address"
        },
        {
          "indexed": false,
          "internalType": "uint256",
          "name": "value",
          "type": "uint256"
        }
      ],
      "name": "Transfer",
      "type": "event"
    },
    {
      "inputs": [],
      "name": "AddressManagerAddress",
      "outputs": [
        {
          "internalType": "address",
          "name": "",
          "type": "address"
        }
      ],
      "stateMutability": "view",
      "type": "function",
      "constant": true
    },
    {
      "inputs": [],
      "name": "ChadBadgeAddress",
      "outputs": [
        {
          "internalType": "address",
          "name": "",
          "type": "address"
        }
      ],
      "stateMutability": "view",
      "type": "function",
      "constant": true
    },
    {
      "inputs": [],
      "name": "DEFAULT_ADMIN_ROLE",
      "outputs": [
        {
          "internalType": "bytes32",
          "name": "",
          "type": "bytes32"
        }
      ],
      "stateMutability": "view",
      "type": "function",
      "constant": true
    },
    {
      "inputs": [],
      "name": "DOMAIN_SEPARATOR",
      "outputs": [
        {
          "internalType": "bytes32",
          "name": "",
          "type": "bytes32"
        }
      ],
      "stateMutability": "view",
      "type": "function",
      "constant": true
    },
    {
      "inputs": [],
      "name": "GAVELS_BAILIFF",
      "outputs": [
        {
          "internalType": "bytes32",
          "name": "",
          "type": "bytes32"
        }
      ],
      "stateMutability": "view",
      "type": "function",
      "constant": true
    },
    {
      "inputs": [],
      "name": "GavelDAOAgent",
      "outputs": [
        {
          "internalType": "address",
          "name": "",
          "type": "address"
        }
      ],
      "stateMutability": "view",
      "type": "function",
      "constant": true
    },
    {
      "inputs": [],
      "name": "GavelTokenAddress",
      "outputs": [
        {
          "internalType": "address",
          "name": "",
          "type": "address"
        }
      ],
      "stateMutability": "view",
      "type": "function",
      "constant": true
    },
    {
      "inputs": [],
      "name": "GavelVote",
      "outputs": [
        {
          "internalType": "bool",
          "name": "",
          "type": "bool"
        }
      ],
      "stateMutability": "view",
      "type": "function",
      "constant": true
    },
    {
      "inputs": [],
      "name": "GoldStarAddress",
      "outputs": [
        {
          "internalType": "address",
          "name": "",
          "type": "address"
        }
      ],
      "stateMutability": "view",
      "type": "function",
      "constant": true
    },
    {
      "inputs": [],
      "name": "JERK_ROLE",
      "outputs": [
        {
          "internalType": "bytes32",
          "name": "",
          "type": "bytes32"
        }
      ],
      "stateMutability": "view",
      "type": "function",
      "constant": true
    },
    {
      "inputs": [],
      "name": "JURY_BAILIFF",
      "outputs": [
        {
          "internalType": "bytes32",
          "name": "",
          "type": "bytes32"
        }
      ],
      "stateMutability": "view",
      "type": "function",
      "constant": true
    },
    {
      "inputs": [],
      "name": "JuryDAOAgent",
      "outputs": [
        {
          "internalType": "address",
          "name": "",
          "type": "address"
        }
      ],
      "stateMutability": "view",
      "type": "function",
      "constant": true
    },
    {
      "inputs": [],
      "name": "JuryPoolAddress",
      "outputs": [
        {
          "internalType": "address",
          "name": "",
          "type": "address"
        }
      ],
      "stateMutability": "view",
      "type": "function",
      "constant": true
    },
    {
      "inputs": [],
      "name": "JuryVote",
      "outputs": [
        {
          "internalType": "bool",
          "name": "",
          "type": "bool"
        }
      ],
      "stateMutability": "view",
      "type": "function",
      "constant": true
    },
    {
      "inputs": [],
      "name": "MINI_BAILIFF_ROLE",
      "outputs": [
        {
          "internalType": "bytes32",
          "name": "",
          "type": "bytes32"
        }
      ],
      "stateMutability": "view",
      "type": "function",
      "constant": true
    },
    {
      "inputs": [],
      "name": "MiniBailiff",
      "outputs": [
        {
          "internalType": "address",
          "name": "",
          "type": "address"
        }
      ],
      "stateMutability": "view",
      "type": "function",
      "constant": true
    },
    {
      "inputs": [],
      "name": "PinkSlipAddress",
      "outputs": [
        {
          "internalType": "address",
          "name": "",
          "type": "address"
        }
      ],
      "stateMutability": "view",
      "type": "function",
      "constant": true
    },
    {
      "inputs": [],
      "name": "RedPenTokenAddress",
      "outputs": [
        {
          "internalType": "address",
          "name": "",
          "type": "address"
        }
      ],
      "stateMutability": "view",
      "type": "function",
      "constant": true
    },
    {
      "inputs": [],
      "name": "SANCTIONS_FOREVER_DISABLED",
      "outputs": [
        {
          "internalType": "bool",
          "name": "",
          "type": "bool"
        }
      ],
      "stateMutability": "view",
      "type": "function",
      "constant": true
    },
    {
      "inputs": [],
      "name": "THE_COURT_ROLE",
      "outputs": [
        {
          "internalType": "bytes32",
          "name": "",
          "type": "bytes32"
        }
      ],
      "stateMutability": "view",
      "type": "function",
      "constant": true
    },
    {
      "inputs": [],
      "name": "TheCourtAddress",
      "outputs": [
        {
          "internalType": "address",
          "name": "",
          "type": "address"
        }
      ],
      "stateMutability": "view",
      "type": "function",
      "constant": true
    },
    {
      "inputs": [],
      "name": "TreasuryAddress",
      "outputs": [
        {
          "internalType": "address",
          "name": "",
          "type": "address"
        }
      ],
      "stateMutability": "view",
      "type": "function",
      "constant": true
    },
    {
      "inputs": [],
      "name": "addressManager",
      "outputs": [
        {
          "internalType": "contract AddressManager",
          "name": "",
          "type": "address"
        }
      ],
      "stateMutability": "view",
      "type": "function",
      "constant": true
    },
    {
      "inputs": [
        {
          "internalType": "address",
          "name": "owner",
          "type": "address"
        },
        {
          "internalType": "address",
          "name": "spender",
          "type": "address"
        }
      ],
      "name": "allowance",
      "outputs": [
        {
          "internalType": "uint256",
          "name": "",
          "type": "uint256"
        }
      ],
      "stateMutability": "view",
      "type": "function",
      "constant": true
    },
    {
      "inputs": [
        {
          "internalType": "address",
          "name": "spender",
          "type": "address"
        },
        {
          "internalType": "uint256",
          "name": "amount",
          "type": "uint256"
        }
      ],
      "name": "approve",
      "outputs": [
        {
          "internalType": "bool",
          "name": "",
          "type": "bool"
        }
      ],
      "stateMutability": "nonpayable",
      "type": "function"
    },
    {
      "inputs": [
        {
          "internalType": "address",
          "name": "account",
          "type": "address"
        }
      ],
      "name": "balanceOf",
      "outputs": [
        {
          "internalType": "uint256",
          "name": "",
          "type": "uint256"
        }
      ],
      "stateMutability": "view",
      "type": "function",
      "constant": true
    },
    {
      "inputs": [
        {
          "internalType": "address",
          "name": "account",
          "type": "address"
        },
        {
          "internalType": "uint256",
          "name": "snapshotId",
          "type": "uint256"
        }
      ],
      "name": "balanceOfAt",
      "outputs": [
        {
          "internalType": "uint256",
          "name": "",
          "type": "uint256"
        }
      ],
      "stateMutability": "view",
      "type": "function",
      "constant": true
    },
    {
      "inputs": [
        {
          "internalType": "uint256",
          "name": "amount",
          "type": "uint256"
        }
      ],
      "name": "burn",
      "outputs": [],
      "stateMutability": "nonpayable",
      "type": "function"
    },
    {
      "inputs": [
        {
          "internalType": "address",
          "name": "account",
          "type": "address"
        },
        {
          "internalType": "uint256",
          "name": "amount",
          "type": "uint256"
        }
      ],
      "name": "burnFrom",
      "outputs": [],
      "stateMutability": "nonpayable",
      "type": "function"
    },
    {
      "inputs": [],
      "name": "decimals",
      "outputs": [
        {
          "internalType": "uint8",
          "name": "",
          "type": "uint8"
        }
      ],
      "stateMutability": "view",
      "type": "function",
      "constant": true
    },
    {
      "inputs": [
        {
          "internalType": "address",
          "name": "spender",
          "type": "address"
        },
        {
          "internalType": "uint256",
          "name": "subtractedValue",
          "type": "uint256"
        }
      ],
      "name": "decreaseAllowance",
      "outputs": [
        {
          "internalType": "bool",
          "name": "",
          "type": "bool"
        }
      ],
      "stateMutability": "nonpayable",
      "type": "function"
    },
    {
      "inputs": [
        {
          "internalType": "bytes32",
          "name": "role",
          "type": "bytes32"
        }
      ],
      "name": "getRoleAdmin",
      "outputs": [
        {
          "internalType": "bytes32",
          "name": "",
          "type": "bytes32"
        }
      ],
      "stateMutability": "view",
      "type": "function",
      "constant": true
    },
    {
      "inputs": [
        {
          "internalType": "bytes32",
          "name": "role",
          "type": "bytes32"
        },
        {
          "internalType": "uint256",
          "name": "index",
          "type": "uint256"
        }
      ],
      "name": "getRoleMember",
      "outputs": [
        {
          "internalType": "address",
          "name": "",
          "type": "address"
        }
      ],
      "stateMutability": "view",
      "type": "function",
      "constant": true
    },
    {
      "inputs": [
        {
          "internalType": "bytes32",
          "name": "role",
          "type": "bytes32"
        }
      ],
      "name": "getRoleMemberCount",
      "outputs": [
        {
          "internalType": "uint256",
          "name": "",
          "type": "uint256"
        }
      ],
      "stateMutability": "view",
      "type": "function",
      "constant": true
    },
    {
      "inputs": [
        {
          "internalType": "bytes32",
          "name": "role",
          "type": "bytes32"
        },
        {
          "internalType": "address",
          "name": "account",
          "type": "address"
        }
      ],
      "name": "grantRole",
      "outputs": [],
      "stateMutability": "nonpayable",
      "type": "function"
    },
    {
      "inputs": [
        {
          "internalType": "bytes32",
          "name": "role",
          "type": "bytes32"
        },
        {
          "internalType": "address",
          "name": "account",
          "type": "address"
        }
      ],
      "name": "hasRole",
      "outputs": [
        {
          "internalType": "bool",
          "name": "",
          "type": "bool"
        }
      ],
      "stateMutability": "view",
      "type": "function",
      "constant": true
    },
    {
      "inputs": [
        {
          "internalType": "address",
          "name": "spender",
          "type": "address"
        },
        {
          "internalType": "uint256",
          "name": "addedValue",
          "type": "uint256"
        }
      ],
      "name": "increaseAllowance",
      "outputs": [
        {
          "internalType": "bool",
          "name": "",
          "type": "bool"
        }
      ],
      "stateMutability": "nonpayable",
      "type": "function"
    },
    {
      "inputs": [],
      "name": "jerkSanctions",
      "outputs": [
        {
          "internalType": "bool",
          "name": "",
          "type": "bool"
        }
      ],
      "stateMutability": "view",
      "type": "function",
      "constant": true
    },
    {
      "inputs": [],
      "name": "jerkSanctionsLocal",
      "outputs": [
        {
          "internalType": "bool",
          "name": "",
          "type": "bool"
        }
      ],
      "stateMutability": "view",
      "type": "function",
      "constant": true
    },
    {
      "inputs": [],
      "name": "name",
      "outputs": [
        {
          "internalType": "string",
          "name": "",
          "type": "string"
        }
      ],
      "stateMutability": "view",
      "type": "function",
      "constant": true
    },
    {
      "inputs": [
        {
          "internalType": "address",
          "name": "owner",
          "type": "address"
        }
      ],
      "name": "nonces",
      "outputs": [
        {
          "internalType": "uint256",
          "name": "",
          "type": "uint256"
        }
      ],
      "stateMutability": "view",
      "type": "function",
      "constant": true
    },
    {
      "inputs": [
        {
          "internalType": "address",
          "name": "owner",
          "type": "address"
        },
        {
          "internalType": "address",
          "name": "spender",
          "type": "address"
        },
        {
          "internalType": "uint256",
          "name": "value",
          "type": "uint256"
        },
        {
          "internalType": "uint256",
          "name": "deadline",
          "type": "uint256"
        },
        {
          "internalType": "uint8",
          "name": "v",
          "type": "uint8"
        },
        {
          "internalType": "bytes32",
          "name": "r",
          "type": "bytes32"
        },
        {
          "internalType": "bytes32",
          "name": "s",
          "type": "bytes32"
        }
      ],
      "name": "permit",
      "outputs": [],
      "stateMutability": "nonpayable",
      "type": "function"
    },
    {
      "inputs": [
        {
          "internalType": "bytes32",
          "name": "role",
          "type": "bytes32"
        },
        {
          "internalType": "address",
          "name": "account",
          "type": "address"
        }
      ],
      "name": "renounceRole",
      "outputs": [],
      "stateMutability": "nonpayable",
      "type": "function"
    },
    {
      "inputs": [],
      "name": "resetVote",
      "outputs": [],
      "stateMutability": "nonpayable",
      "type": "function"
    },
    {
      "inputs": [
        {
          "internalType": "bytes32",
          "name": "role",
          "type": "bytes32"
        },
        {
          "internalType": "address",
          "name": "account",
          "type": "address"
        }
      ],
      "name": "revokeRole",
      "outputs": [],
      "stateMutability": "nonpayable",
      "type": "function"
    },
    {
      "inputs": [
        {
          "internalType": "bytes4",
          "name": "interfaceId",
          "type": "bytes4"
        }
      ],
      "name": "supportsInterface",
      "outputs": [
        {
          "internalType": "bool",
          "name": "",
          "type": "bool"
        }
      ],
      "stateMutability": "view",
      "type": "function",
      "constant": true
    },
    {
      "inputs": [],
      "name": "symbol",
      "outputs": [
        {
          "internalType": "string",
          "name": "",
          "type": "string"
        }
      ],
      "stateMutability": "view",
      "type": "function",
      "constant": true
    },
    {
      "inputs": [],
      "name": "syncAllRoles",
      "outputs": [],
      "stateMutability": "nonpayable",
      "type": "function"
    },
    {
      "inputs": [
        {
          "internalType": "bytes32",
          "name": "ROLE_TO_SYNC",
          "type": "bytes32"
        }
      ],
      "name": "syncSingleRole",
      "outputs": [],
      "stateMutability": "nonpayable",
      "type": "function"
    },
    {
      "inputs": [],
      "name": "syncVotes",
      "outputs": [],
      "stateMutability": "nonpayable",
      "type": "function"
    },
    {
      "inputs": [],
      "name": "totalSupply",
      "outputs": [
        {
          "internalType": "uint256",
          "name": "",
          "type": "uint256"
        }
      ],
      "stateMutability": "view",
      "type": "function",
      "constant": true
    },
    {
      "inputs": [
        {
          "internalType": "uint256",
          "name": "snapshotId",
          "type": "uint256"
        }
      ],
      "name": "totalSupplyAt",
      "outputs": [
        {
          "internalType": "uint256",
          "name": "",
          "type": "uint256"
        }
      ],
      "stateMutability": "view",
      "type": "function",
      "constant": true
    },
    {
      "inputs": [
        {
          "internalType": "address",
          "name": "recipient",
          "type": "address"
        },
        {
          "internalType": "uint256",
          "name": "amount",
          "type": "uint256"
        }
      ],
      "name": "transfer",
      "outputs": [
        {
          "internalType": "bool",
          "name": "",
          "type": "bool"
        }
      ],
      "stateMutability": "nonpayable",
      "type": "function"
    },
    {
      "inputs": [
        {
          "internalType": "address",
          "name": "sender",
          "type": "address"
        },
        {
          "internalType": "address",
          "name": "recipient",
          "type": "address"
        },
        {
          "internalType": "uint256",
          "name": "amount",
          "type": "uint256"
        }
      ],
      "name": "transferFrom",
      "outputs": [
        {
          "internalType": "bool",
          "name": "",
          "type": "bool"
        }
      ],
      "stateMutability": "nonpayable",
      "type": "function"
    },
    {
      "inputs": [],
      "name": "updateAddressManager",
      "outputs": [],
      "stateMutability": "nonpayable",
      "type": "function"
    },
    {
      "inputs": [],
      "name": "updateAllAddresses",
      "outputs": [],
      "stateMutability": "nonpayable",
      "type": "function"
    },
    {
      "inputs": [],
      "name": "updateAllRoles",
      "outputs": [],
      "stateMutability": "nonpayable",
      "type": "function"
    },
    {
      "inputs": [],
      "name": "updateDAOAddresses",
      "outputs": [],
      "stateMutability": "nonpayable",
      "type": "function"
    },
    {
      "inputs": [
        {
          "internalType": "bytes32",
          "name": "ROLE_TO_UPDATE",
          "type": "bytes32"
        }
      ],
      "name": "updateSingleRole",
      "outputs": [],
      "stateMutability": "nonpayable",
      "type": "function"
    },
    {
      "inputs": [],
      "name": "updateTokenAddresses",
      "outputs": [],
      "stateMutability": "nonpayable",
      "type": "function"
    },
    {
      "inputs": [
        {
          "internalType": "bool",
          "name": "turnOnSanctions",
          "type": "bool"
        }
      ],
      "name": "switchLocalJerkSanctions",
      "outputs": [],
      "stateMutability": "nonpayable",
      "type": "function"
    },
    {
      "inputs": [
        {
          "internalType": "bool",
          "name": "safteySwitch",
          "type": "bool"
        }
      ],
      "name": "foreverDisableJerkSanctions",
      "outputs": [],
      "stateMutability": "nonpayable",
      "type": "function"
    },
    {
      "inputs": [],
      "name": "snapshot",
      "outputs": [],
      "stateMutability": "nonpayable",
      "type": "function"
    }
  ],
  "bytecode": "0x6101406040527f6e71edae12b1b97f4d1f60370fef10105fa2faae0126114a169c64845d6126c9610120526018805465ffffffffffff60a01b191690553480156200004957600080fd5b5060405162004c6a38038062004c6a8339810160408190526200006c9162000f9c565b8080604051806040016040528060088152602001675265642050656e7360c01b81525080604051806040016040528060018152602001603160f81b815250604051806040016040528060088152602001675265642050656e7360c01b815250604051806040016040528060048152602001630854915160e21b81525081600390805190602001906200010092919062000ef6565b5080516200011690600490602084019062000ef6565b5050825160208085019190912083519184019190912060c082905260e08190524660a0529091507f8b73c3c69bb8fe3d512ecc4cf759cc79239f7b179b0ffacaa9a75d522b39400f6200016b81848462000301565b608052610100525050600c80546001600160a01b039586166001600160a01b0319918216179182905560188054909116919095161790935550620001b19150506200033d565b620001bb62000353565b601654620001d5906000906001600160a01b031662000497565b6016546200020e907f0538d24a8b7882d7b2e36af243d4af61c23e86e3daa6cb8c887b53220b2f5720906001600160a01b031662000497565b60135462000247907f048bc71fa1cb2c119c339cf9cf00a97996a19a9d991ce5fe049f2fa5459e7990906001600160a01b031662000497565b60145462000280907ffa8e4989e1d689f7bc5c4b25b87efb51fecdecb19ba62847e29c759e12a89acd906001600160a01b031662000497565b601754620002b9907ff0f4b159a6e2a4815eb3ca3df080bfa70c9270662c59bcaa4479a456220183e6906001600160a01b031662000497565b620002d560008051602062004c4a833981519152600062000497565b50601554620002fa906001600160a01b03166b02a652a5e57eeb9e3a400000620004da565b50620010e2565b600083838346306040516020016200031e95949392919062000fee565b6040516020818303038152906040528051906020012090509392505050565b62000347620005ae565b6200035162000819565b565b601860009054906101000a90046001600160a01b03166001600160a01b031663ff7e88ec6040518163ffffffff1660e01b815260040160206040518083038186803b158015620003a257600080fd5b505afa158015620003b7573d6000803e3d6000fd5b505050506040513d601f19601f82011682018060405250810190620003dd919062000fcc565b60188054911515600160a81b0260ff60a81b19909216919091179081905560408051632fb5658560e01b815290516001600160a01b0390921691632fb5658591600480820192602092909190829003018186803b1580156200043e57600080fd5b505afa15801562000453573d6000803e3d6000fd5b505050506040513d601f19601f8201168201806040525081019062000479919062000fcc565b60188054911515600160b01b0260ff60b01b19909216919091179055565b620004ae828262000bae60201b620011d01760201c565b6000828152600b60209081526040909120620004d5918390620011da62000bbe821b17901c565b505050565b6001600160a01b0382166200050c5760405162461bcd60e51b815260040162000503906200101a565b60405180910390fd5b6200051a6000838362000bde565b80600260008282546200052e91906200105a565b90915550506001600160a01b038216600090815260208190526040812080548392906200055d9084906200105a565b90915550506040516001600160a01b038316906000907fddf252ad1be2c89b69c2b068fc378daa952ba7f163c4a11628f55a4df523b3ef90620005a290859062001051565b60405180910390a35050565b601860009054906101000a90046001600160a01b03166001600160a01b031663dadf56ac6040518163ffffffff1660e01b815260040160206040518083038186803b158015620005fd57600080fd5b505afa15801562000612573d6000803e3d6000fd5b505050506040513d601f19601f8201168201806040525081019062000638919062000f9c565b601380546001600160a01b0319166001600160a01b039283161790556018546040805163024bebe960e01b81529051919092169163024bebe9916004808301926020929190829003018186803b1580156200069257600080fd5b505afa158015620006a7573d6000803e3d6000fd5b505050506040513d601f19601f82011682018060405250810190620006cd919062000f9c565b601480546001600160a01b0319166001600160a01b0392831617905560185460408051635b5c251f60e01b815290519190921691635b5c251f916004808301926020929190829003018186803b1580156200072757600080fd5b505afa1580156200073c573d6000803e3d6000fd5b505050506040513d601f19601f8201168201806040525081019062000762919062000f9c565b601580546001600160a01b0319166001600160a01b0392831617905560185460408051637310bf1d60e11b81529051919092169163e6217e3a916004808301926020929190829003018186803b158015620007bc57600080fd5b505afa158015620007d1573d6000803e3d6000fd5b505050506040513d601f19601f82011682018060405250810190620007f7919062000f9c565b601780546001600160a01b0319166001600160a01b0392909216919091179055565b601860009054906101000a90046001600160a01b03166001600160a01b03166321d7f0086040518163ffffffff1660e01b815260040160206040518083038186803b1580156200086857600080fd5b505afa1580156200087d573d6000803e3d6000fd5b505050506040513d601f19601f82011682018060405250810190620008a3919062000f9c565b600d80546001600160a01b0319166001600160a01b039283161790556018546040805163762ddb5960e01b81529051919092169163762ddb59916004808301926020929190829003018186803b158015620008fd57600080fd5b505afa15801562000912573d6000803e3d6000fd5b505050506040513d601f19601f8201168201806040525081019062000938919062000f9c565b600e80546001600160a01b0319166001600160a01b039283161790556018546040805163bfb7dc9960e01b81529051919092169163bfb7dc99916004808301926020929190829003018186803b1580156200099257600080fd5b505afa158015620009a7573d6000803e3d6000fd5b505050506040513d601f19601f82011682018060405250810190620009cd919062000f9c565b600f80546001600160a01b0319166001600160a01b0392831617905560185460408051633e6111eb60e21b81529051919092169163f98447ac916004808301926020929190829003018186803b15801562000a2757600080fd5b505afa15801562000a3c573d6000803e3d6000fd5b505050506040513d601f19601f8201168201806040525081019062000a62919062000f9c565b601080546001600160a01b0319166001600160a01b0392831617905560185460408051630fe1ba9f60e21b815290519190921691633f86ea7c916004808301926020929190829003018186803b15801562000abc57600080fd5b505afa15801562000ad1573d6000803e3d6000fd5b505050506040513d601f19601f8201168201806040525081019062000af7919062000f9c565b601180546001600160a01b0319166001600160a01b0392831617905560185460408051636b58477560e01b815290519190921691636b584775916004808301926020929190829003018186803b15801562000b5157600080fd5b505afa15801562000b66573d6000803e3d6000fd5b505050506040513d601f19601f8201168201806040525081019062000b8c919062000f9c565b601280546001600160a01b0319166001600160a01b0392909216919091179055565b62000bba828262000c45565b5050565b600062000bd5836001600160a01b03841662000cd1565b90505b92915050565b601854600160c81b900460ff16801562000c015750601854600160a01b900460ff165b1562000c2d5762000c2260008051602062004c4a8339815191523362000d20565b1562000c2d57600080fd5b620004d583838362000d4b60201b620011ef1760201c565b62000c51828262000d20565b62000bba576000828152600a602090815260408083206001600160a01b03851684529091529020805460ff1916600117905562000c8d62000dbd565b6001600160a01b0316816001600160a01b0316837f2f8788117e7eff1d82e926ec794901d17c78024a50270940304540a733656f0d60405160405180910390a45050565b600062000cdf838362000dc1565b62000d175750815460018181018455600084815260208082209093018490558454848252828601909352604090209190915562000bd8565b50600062000bd8565b6000918252600a602090815260408084206001600160a01b0393909316845291905290205460ff1690565b62000d63838383620004d560201b6200092e1760201c565b6001600160a01b03831662000d8d5762000d7d8262000dd9565b62000d8762000e0a565b620004d5565b6001600160a01b03821662000da75762000d7d8362000dd9565b62000db28362000dd9565b620004d58262000dd9565b3390565b60009081526001919091016020526040902054151590565b6001600160a01b038116600090815260056020526040902062000e079062000e018362000e1a565b62000e39565b50565b62000351600662000e0162000e95565b6001600160a01b0381166000908152602081905260409020545b919050565b600062000e52600862000e9b60201b620012471760201c565b90508062000e608462000e9f565b1015620004d5578254600180820185556000858152602080822090930193909355938401805494850181558252902090910155565b60025490565b5490565b805460009062000eb25750600062000e34565b8154829062000ec49060019062001075565b8154811062000ee357634e487b7160e01b600052603260045260246000fd5b9060005260206000200154905062000e34565b82805462000f04906200108f565b90600052602060002090601f01602090048101928262000f28576000855562000f73565b82601f1062000f4357805160ff191683800117855562000f73565b8280016001018555821562000f73579182015b8281111562000f7357825182559160200191906001019062000f56565b5062000f8192915062000f85565b5090565b5b8082111562000f81576000815560010162000f86565b60006020828403121562000fae578081fd5b81516001600160a01b038116811462000fc5578182fd5b9392505050565b60006020828403121562000fde578081fd5b8151801515811462000fc5578182fd5b9485526020850193909352604084019190915260608301526001600160a01b0316608082015260a00190565b6020808252601f908201527f45524332303a206d696e7420746f20746865207a65726f206164647265737300604082015260600190565b90815260200190565b60008219821115620010705762001070620010cc565b500190565b6000828210156200108a576200108a620010cc565b500390565b600281046001821680620010a457607f821691505b60208210811415620010c657634e487b7160e01b600052602260045260246000fd5b50919050565b634e487b7160e01b600052601160045260246000fd5b60805160a05160c05160e0516101005161012051613b18620011326000396000610fec01526000611ed601526000611f1801526000611ef701526000611e8401526000611ead0152613b186000f3fe608060405234801561001057600080fd5b50600436106103c55760003560e01c80636b584775116101ff578063b12655061161011a578063dd62ed3e116100ad578063f1132b301161007c578063f1132b3014610701578063f7d92d8614610709578063f98447ac14610711578063ff7e88ec14610719576103c5565b8063dd62ed3e146106d6578063e6217e3a146106e9578063e78c266c146106f1578063e9a53230146106f9576103c5565b8063cf4ece15116100e9578063cf4ece15146106a0578063d505accf146106a8578063d547741f146106bb578063dadf56ac146106ce576103c5565b8063b126550614610675578063bfb7dc991461067d578063ca15c87314610685578063cce8439214610698576103c5565b806395d89b4111610192578063a32c5e5911610161578063a32c5e591461063f578063a457c2d714610647578063a78e746f1461065a578063a9059cbb14610662576103c5565b806395d89b41146106145780639711715a1461061c578063981b24d014610624578063a217fddf14610637576103c5565b80637ecebe00116101ce5780637ecebe00146105c85780639010d07c146105db57806391d14854146105ee57806393dad6e714610601576103c5565b80636b5847751461059257806370a082311461059a578063762ddb59146105ad57806379cc6790146105b5576103c5565b8063329a8cfa116102ef5780634d84c6d8116102825780635b5c251f116102515780635b5c251f146105675780635db531a11461056f5780635f41346614610577578063683988871461057f576103c5565b80634d84c6d8146105315780634ee2cd7e1461053957806357f276ff1461054c5780635a1406961461055f576103c5565b80633ab76e9f116102be5780633ab76e9f146105065780633f86ea7c1461050e57806342966c681461051657806349b5e10514610529576103c5565b8063329a8cfa146104d05780633644e515146104d857806336568abe146104e057806339509351146104f3576103c5565b806321d7f008116103675780632f2ff15d116103365780632f2ff15d146104985780632fb56585146104ab578063313ce567146104b3578063326a55e0146104c8576103c5565b806321d7f0081461046257806323b872dd1461046a5780632436329d1461047d578063248a9ca314610485576103c5565b8063095ea7b3116103a3578063095ea7b31461041d578063130f63201461043057806317314d5a1461044557806318160ddd1461044d576103c5565b806301ffc9a7146103ca578063024bebe9146103f357806306fdde0314610408575b600080fd5b6103dd6103d836600461315b565b610721565b6040516103ea919061323f565b60405180910390f35b6103fb61074e565b6040516103ea919061322b565b61041061075d565b6040516103ea91906132f6565b6103dd61042b36600461309b565b6107f0565b61044361043e3660046130fe565b61080e565b005b610443610825565b610455610830565b6040516103ea919061324a565b6103fb610836565b6103dd610478366004612fe6565b610845565b6104556108e5565b6104556104933660046130fe565b6108f7565b6104436104a6366004613116565b61090c565b6103dd610933565b6104bb610943565b6040516103ea91906138d8565b610443610948565b61044361095a565b610455610a3a565b6104436104ee366004613116565b610a49565b6103dd61050136600461309b565b610a6b565b6103fb610aba565b6103fb610ac9565b6104436105243660046130fe565b610ad8565b610443610ae9565b610443610950565b61045561054736600461309b565b610af1565b61044361055a3660046130fe565b610b3a565b6103dd610b43565b6103fb610b53565b610443610b62565b6103fb610b6a565b61044361058d3660046130c6565b610b79565b6103fb610c00565b6104556105a8366004612f76565b610c0f565b6103fb610c2a565b6104436105c336600461309b565b610c39565b6104556105d6366004612f76565b610c89565b6103fb6105e936600461313a565b610caa565b6103dd6105fc366004613116565b610cc9565b61044361060f3660046130c6565b610cf4565b610410610de3565b610443610df2565b6104556106323660046130fe565b610e88565b610455610eb8565b610455610ebd565b6103dd61065536600461309b565b610ecf565b6103dd610f4a565b6103dd61067036600461309b565b610f5a565b6103dd610f6e565b6103fb610f7e565b6104556106933660046130fe565b610f8d565b610455610fa4565b610455610fb6565b6104436106b6366004613026565b610fc8565b6104436106c9366004613116565b6110aa565b6103fb6110b4565b6104556106e4366004612fae565b6110c3565b6103fb6110ee565b6103fb6110fd565b61045561110c565b61044361111e565b610443611126565b6103fb6111b1565b6103dd6111c0565b60006001600160e01b03198216635a05180f60e01b148061074657506107468261124b565b90505b919050565b6014546001600160a01b031681565b60606003805461076c9061398f565b80601f01602080910402602001604051908101604052809291908181526020018280546107989061398f565b80156107e55780601f106107ba576101008083540402835291602001916107e5565b820191906000526020600020905b8154815290600101906020018083116107c857829003601f168201915b505050505090505b90565b60006108046107fd611270565b8484611274565b5060015b92915050565b61081781611328565b5061082181611493565b5050565b61082d611616565b50565b60025490565b600d546001600160a01b031681565b600061085284848461175c565b6001600160a01b038416600090815260016020526040812081610873611270565b6001600160a01b03166001600160a01b03168152602001908152602001600020549050828110156108bf5760405162461bcd60e51b81526004016108b690613691565b60405180910390fd5b6108da856108cb611270565b6108d58685613931565b611274565b506001949350505050565b600080516020613a4383398151915281565b6000908152600a602052604090206001015490565b6109168282611884565b6000828152600b6020526040902061092e90826111da565b505050565b601854600160b01b900460ff1681565b601290565b6109506118a8565b610958611b03565b565b610972600080516020613aa383398151915233610cc9565b806109905750610990600080516020613a6383398151915233610cc9565b806109ae57506109ae600080516020613a4383398151915233610cc9565b6109ca5760405162461bcd60e51b81526004016108b69061347b565b601860009054906101000a90046001600160a01b03166001600160a01b031663329a8cfa6040518163ffffffff1660e01b8152600401600060405180830381600087803b158015610a1a57600080fd5b505af1158015610a2e573d6000803e3d6000fd5b50505050610958610b62565b6000610a44611e80565b905090565b610a538282611f43565b6000828152600b6020526040902061092e9082611f85565b6000610804610a78611270565b848460016000610a86611270565b6001600160a01b03908116825260208083019390935260409182016000908120918b16815292529020546108d591906138e6565b6018546001600160a01b031681565b6011546001600160a01b031681565b61082d610ae3611270565b82611f9a565b6109586118a8565b6001600160a01b038216600090815260056020526040812081908190610b18908590612080565b9150915081610b2f57610b2a85610c0f565b610b31565b805b95945050505050565b6108218161212e565b601854600160c01b900460ff1681565b6015546001600160a01b031681565b610958612364565b6016546001600160a01b031681565b610b91600080516020613a4383398151915233610cc9565b80610baf5750610baf600080516020613aa383398151915233610cc9565b610bcb5760405162461bcd60e51b81526004016108b6906137a3565b601854600160c01b900460ff1615610be257600080fd5b60188054911515600160c81b0260ff60c81b19909216919091179055565b6012546001600160a01b031681565b6001600160a01b031660009081526020819052604090205490565b600e546001600160a01b031681565b6000610c47836106e4611270565b905081811015610c695760405162461bcd60e51b81526004016108b6906136d9565b610c7f83610c75611270565b6108d58585613931565b61092e8383611f9a565b6001600160a01b038116600090815260096020526040812061074690611247565b6000828152600b60205260408120610cc290836124a0565b9392505050565b6000918252600a602090815260408084206001600160a01b0393909316845291905290205460ff1690565b610d0c600080516020613a6383398151915233610cc9565b80610d2a5750610d2a600080516020613a4383398151915233610cc9565b80610d485750610d48600080516020613aa383398151915233610cc9565b610d5157600080fd5b601854600160b01b810460ff9081161515600160a81b9092041615151460011480610d8f5750610d8f600080516020613aa383398151915233610cc9565b610dab5760405162461bcd60e51b81526004016108b690613451565b80158015610dc35750601854600160c01b900460ff16155b610dcc57600080fd5b506018805461ffff60c01b1916600160c01b179055565b60606004805461076c9061398f565b610e0a600080516020613aa383398151915233610cc9565b80610e285750610e28600080516020613a6383398151915233610cc9565b80610e465750610e46600080516020613a4383398151915233610cc9565b80610e645750610e64600080516020613a8383398151915233610cc9565b610e805760405162461bcd60e51b81526004016108b69061347b565b61082d6124ac565b6000806000610e98846006612080565b9150915081610eae57610ea9610830565b610eb0565b805b949350505050565b600081565b600080516020613aa383398151915281565b60008060016000610ede611270565b6001600160a01b0390811682526020808301939093526040918201600090812091881681529252902054905082811015610f2a5760405162461bcd60e51b81526004016108b690613844565b610f40610f35611270565b856108d58685613931565b5060019392505050565b601854600160a01b900460ff1681565b6000610804610f67611270565b848461175c565b601854600160c81b900460ff1681565b600f546001600160a01b031681565b6000818152600b6020526040812061074690612502565b600080516020613ac383398151915281565b600080516020613a8383398151915281565b83421115610fe85760405162461bcd60e51b81526004016108b69061352f565b60007f00000000000000000000000000000000000000000000000000000000000000008888886110178c61250d565b8960405160200161102d9695949392919061326a565b60405160208183030381529060405280519060200120905060006110508261253f565b9050600061106082878787612552565b9050896001600160a01b0316816001600160a01b0316146110935760405162461bcd60e51b81526004016108b69061365a565b61109e8a8a8a611274565b50505050505050505050565b610a53828261263f565b6013546001600160a01b031681565b6001600160a01b03918216600090815260016020908152604080832093909416825291909152205490565b6017546001600160a01b031681565b600c546001600160a01b031681565b600080516020613a6383398151915281565b61095861265e565b61113d600080516020613aa383398151915261212e565b50611155600080516020613a6383398151915261212e565b5061116d600080516020613a4383398151915261212e565b50611185600080516020613a8383398151915261212e565b5061119d600080516020613ac383398151915261212e565b506111a8600061212e565b50610958612364565b6010546001600160a01b031681565b601854600160a81b900460ff1681565b6108218282612795565b6000610cc2836001600160a01b03841661281c565b6111fa83838361092e565b6001600160a01b03831661121e5761121182612866565b611219612890565b61092e565b6001600160a01b0382166112355761121183612866565b61123e83612866565b61092e82612866565b5490565b60006001600160e01b03198216637965db0b60e01b148061074657506107468261289d565b3390565b6001600160a01b03831661129a5760405162461bcd60e51b81526004016108b6906137d0565b6001600160a01b0382166112c05760405162461bcd60e51b81526004016108b6906134ed565b6001600160a01b0380841660008181526001602090815260408083209487168084529490915290819020849055517f8c5be1e5ebec7d5bd14f71427d1e84f3dd0314c0f7b2291e5b200ac8c7c3b9259061131b90859061324a565b60405180910390a3505050565b60405163ca15c87360e01b81526000908190309063ca15c8739061135090869060040161324a565b60206040518083038186803b15801561136857600080fd5b505afa15801561137c573d6000803e3d6000fd5b505050506040513d601f19601f820116820180604052508101906113a09190613183565b905060005b81811015610f4057604051632404341f60e21b81526000903090639010d07c906113d590889086906004016132ca565b60206040518083038186803b1580156113ed57600080fd5b505afa158015611401573d6000803e3d6000fd5b505050506040513d601f19601f820116820180604052508101906114259190612f92565b60405163d547741f60e01b8152909150309063d547741f9061144d9088908590600401613253565b600060405180830381600087803b15801561146757600080fd5b505af115801561147b573d6000803e3d6000fd5b5050505050808061148b906139c4565b9150506113a5565b60185460405163ca15c87360e01b815260009182916001600160a01b039091169063ca15c873906114c890869060040161324a565b60206040518083038186803b1580156114e057600080fd5b505afa1580156114f4573d6000803e3d6000fd5b505050506040513d601f19601f820116820180604052508101906115189190613183565b905060005b81811015610f4057601854604051632404341f60e21b81526000916001600160a01b031690639010d07c9061155890889086906004016132ca565b60206040518083038186803b15801561157057600080fd5b505afa158015611584573d6000803e3d6000fd5b505050506040513d601f19601f820116820180604052508101906115a89190612f92565b604051632f2ff15d60e01b81529091503090632f2ff15d906115d09088908590600401613253565b600060405180830381600087803b1580156115ea57600080fd5b505af11580156115fe573d6000803e3d6000fd5b5050505050808061160e906139c4565b91505061151d565b600061162f600080516020613aa3833981519152611328565b50611647600080516020613aa3833981519152611493565b61165057600080fd5b611667600080516020613a63833981519152611328565b5061167f600080516020613a63833981519152611493565b61168857600080fd5b61169f600080516020613a43833981519152611328565b506116b7600080516020613a43833981519152611493565b6116c057600080fd5b6116d7600080516020613a83833981519152611328565b506116ef600080516020613a83833981519152611493565b6116f857600080fd5b61170f600080516020613ac3833981519152611328565b50611727600080516020613ac3833981519152611493565b61173057600080fd5b61173a6000611328565b506117456000611493565b61174e57600080fd5b611756612364565b50600190565b6001600160a01b0383166117825760405162461bcd60e51b81526004016108b69061375e565b6001600160a01b0382166117a85760405162461bcd60e51b81526004016108b69061340e565b6117b38383836128b6565b6001600160a01b038316600090815260208190526040902054818110156117ec5760405162461bcd60e51b81526004016108b690613566565b6117f68282613931565b6001600160a01b03808616600090815260208190526040808220939093559085168152908120805484929061182c9084906138e6565b92505081905550826001600160a01b0316846001600160a01b03167fddf252ad1be2c89b69c2b068fc378daa952ba7f163c4a11628f55a4df523b3ef84604051611876919061324a565b60405180910390a350505050565b61188d826108f7565b61189e81611899611270565b61290a565b61092e8383612795565b601860009054906101000a90046001600160a01b03166001600160a01b031663dadf56ac6040518163ffffffff1660e01b815260040160206040518083038186803b1580156118f657600080fd5b505afa15801561190a573d6000803e3d6000fd5b505050506040513d601f19601f8201168201806040525081019061192e9190612f92565b601380546001600160a01b0319166001600160a01b039283161790556018546040805163024bebe960e01b81529051919092169163024bebe9916004808301926020929190829003018186803b15801561198757600080fd5b505afa15801561199b573d6000803e3d6000fd5b505050506040513d601f19601f820116820180604052508101906119bf9190612f92565b601480546001600160a01b0319166001600160a01b0392831617905560185460408051635b5c251f60e01b815290519190921691635b5c251f916004808301926020929190829003018186803b158015611a1857600080fd5b505afa158015611a2c573d6000803e3d6000fd5b505050506040513d601f19601f82011682018060405250810190611a509190612f92565b601580546001600160a01b0319166001600160a01b0392831617905560185460408051637310bf1d60e11b81529051919092169163e6217e3a916004808301926020929190829003018186803b158015611aa957600080fd5b505afa158015611abd573d6000803e3d6000fd5b505050506040513d601f19601f82011682018060405250810190611ae19190612f92565b601780546001600160a01b0319166001600160a01b0392909216919091179055565b601860009054906101000a90046001600160a01b03166001600160a01b03166321d7f0086040518163ffffffff1660e01b815260040160206040518083038186803b158015611b5157600080fd5b505afa158015611b65573d6000803e3d6000fd5b505050506040513d601f19601f82011682018060405250810190611b899190612f92565b600d80546001600160a01b0319166001600160a01b039283161790556018546040805163762ddb5960e01b81529051919092169163762ddb59916004808301926020929190829003018186803b158015611be257600080fd5b505afa158015611bf6573d6000803e3d6000fd5b505050506040513d601f19601f82011682018060405250810190611c1a9190612f92565b600e80546001600160a01b0319166001600160a01b039283161790556018546040805163bfb7dc9960e01b81529051919092169163bfb7dc99916004808301926020929190829003018186803b158015611c7357600080fd5b505afa158015611c87573d6000803e3d6000fd5b505050506040513d601f19601f82011682018060405250810190611cab9190612f92565b600f80546001600160a01b0319166001600160a01b0392831617905560185460408051633e6111eb60e21b81529051919092169163f98447ac916004808301926020929190829003018186803b158015611d0457600080fd5b505afa158015611d18573d6000803e3d6000fd5b505050506040513d601f19601f82011682018060405250810190611d3c9190612f92565b601080546001600160a01b0319166001600160a01b0392831617905560185460408051630fe1ba9f60e21b815290519190921691633f86ea7c916004808301926020929190829003018186803b158015611d9557600080fd5b505afa158015611da9573d6000803e3d6000fd5b505050506040513d601f19601f82011682018060405250810190611dcd9190612f92565b601180546001600160a01b0319166001600160a01b0392831617905560185460408051636b58477560e01b815290519190921691636b584775916004808301926020929190829003018186803b158015611e2657600080fd5b505afa158015611e3a573d6000803e3d6000fd5b505050506040513d601f19601f82011682018060405250810190611e5e9190612f92565b601280546001600160a01b0319166001600160a01b0392909216919091179055565b60007f0000000000000000000000000000000000000000000000000000000000000000461415611ed157507f00000000000000000000000000000000000000000000000000000000000000006107ed565b611f3c7f00000000000000000000000000000000000000000000000000000000000000007f00000000000000000000000000000000000000000000000000000000000000007f000000000000000000000000000000000000000000000000000000000000000061296e565b90506107ed565b611f4b611270565b6001600160a01b0316816001600160a01b031614611f7b5760405162461bcd60e51b81526004016108b690613889565b61082182826129a8565b6000610cc2836001600160a01b038416612a2d565b6001600160a01b038216611fc05760405162461bcd60e51b81526004016108b69061371d565b611fcc826000836128b6565b6001600160a01b038216600090815260208190526040902054818110156120055760405162461bcd60e51b81526004016108b6906134ab565b61200f8282613931565b6001600160a01b0384166000908152602081905260408120919091556002805484929061203d908490613931565b90915550506040516000906001600160a01b038516907fddf252ad1be2c89b69c2b068fc378daa952ba7f163c4a11628f55a4df523b3ef9061131b90869061324a565b600080600084116120a35760405162461bcd60e51b81526004016108b690613814565b6120ad6008611247565b8411156120cc5760405162461bcd60e51b81526004016108b690613360565b60006120d88486612b44565b84549091508114156120f1576000809250925050612127565b600184600101828154811061211657634e487b7160e01b600052603260045260246000fd5b906000526020600020015492509250505b9250929050565b60185460405163ca15c87360e01b815260009182916001600160a01b039091169063ca15c8739061216390869060040161324a565b60206040518083038186803b15801561217b57600080fd5b505afa15801561218f573d6000803e3d6000fd5b505050506040513d601f19601f820116820180604052508101906121b39190613183565b60405163ca15c87360e01b8152909150600090309063ca15c873906121dc90879060040161324a565b60206040518083038186803b1580156121f457600080fd5b505afa158015612208573d6000803e3d6000fd5b505050506040513d601f19601f8201168201806040525081019061222c9190613183565b9050600061223a8284613931565b90506000811161225c5760405162461bcd60e51b81526004016108b6906135ee565b60005b8181101561235857601854604051632404341f60e21b81526000916001600160a01b031690639010d07c9061229a908a9086906004016132ca565b60206040518083038186803b1580156122b257600080fd5b505afa1580156122c6573d6000803e3d6000fd5b505050506040513d601f19601f820116820180604052508101906122ea9190612f92565b604051632f2ff15d60e01b81529091503090632f2ff15d90612312908a908590600401613253565b600060405180830381600087803b15801561232c57600080fd5b505af1158015612340573d6000803e3d6000fd5b50505050508080612350906139c4565b91505061225f565b50600195945050505050565b601860009054906101000a90046001600160a01b03166001600160a01b031663ff7e88ec6040518163ffffffff1660e01b815260040160206040518083038186803b1580156123b257600080fd5b505afa1580156123c6573d6000803e3d6000fd5b505050506040513d601f19601f820116820180604052508101906123ea91906130e2565b60188054911515600160a81b0260ff60a81b19909216919091179081905560408051632fb5658560e01b815290516001600160a01b0390921691632fb5658591600480820192602092909190829003018186803b15801561244a57600080fd5b505afa15801561245e573d6000803e3d6000fd5b505050506040513d601f19601f8201168201806040525081019061248291906130e2565b60188054911515600160b01b0260ff60b01b19909216919091179055565b6000610cc28383612c23565b60006124b86008612c7c565b60006124c46008611247565b90507f8030e83b04d87bef53480e26263266d6ca66863aa8506aca6f2559d18aa1cb67816040516124f5919061324a565b60405180910390a1905090565b600061074682611247565b6001600160a01b038116600090815260096020526040812061252e81611247565b915061253981612c7c565b50919050565b600061074661254c611e80565b83612c85565b60007f7fffffffffffffffffffffffffffffff5d576e7357a4501ddfe92f46681b20a08211156125945760405162461bcd60e51b81526004016108b6906135ac565b8360ff16601b14806125a957508360ff16601c145b6125c55760405162461bcd60e51b81526004016108b690613618565b6000600186868686604051600081526020016040526040516125ea94939291906132d8565b6020604051602081039080840390855afa15801561260c573d6000803e3d6000fd5b5050604051601f1901519150506001600160a01b038116610b315760405162461bcd60e51b81526004016108b690613329565b612648826108f7565b61265481611899611270565b61092e83836129a8565b601860009054906101000a90046001600160a01b03166001600160a01b031663a44b93256040518163ffffffff1660e01b815260040160206040518083038186803b1580156126ac57600080fd5b505afa1580156126c0573d6000803e3d6000fd5b505050506040513d601f19601f820116820180604052508101906126e491906130e2565b6126ed57600080fd5b601860009054906101000a90046001600160a01b03166001600160a01b031663ac7cfac36040518163ffffffff1660e01b815260040160206040518083038186803b15801561273b57600080fd5b505afa15801561274f573d6000803e3d6000fd5b505050506040513d601f19601f820116820180604052508101906127739190612f92565b600c80546001600160a01b0319166001600160a01b0392909216919091179055565b61279f8282610cc9565b610821576000828152600a602090815260408083206001600160a01b03851684529091529020805460ff191660011790556127d8611270565b6001600160a01b0316816001600160a01b0316837f2f8788117e7eff1d82e926ec794901d17c78024a50270940304540a733656f0d60405160405180910390a45050565b60006128288383612cb8565b61285e57508154600181810184556000848152602080822090930184905584548482528286019093526040902091909155610808565b506000610808565b6001600160a01b038116600090815260056020526040902061082d9061288b83610c0f565b612cd0565b610958600661288b610830565b6001600160e01b031981166301ffc9a760e01b14919050565b601854600160c81b900460ff1680156128d85750601854600160a01b900460ff165b156128ff576128f5600080516020613ac383398151915233610cc9565b156128ff57600080fd5b61092e8383836111ef565b6129148282610cc9565b6108215761292c816001600160a01b03166014612d1c565b612937836020612d1c565b6040516020016129489291906131b6565b60408051601f198184030181529082905262461bcd60e51b82526108b6916004016132f6565b6000838383463060405160200161298995949392919061329e565b6040516020818303038152906040528051906020012090509392505050565b6129b28282610cc9565b15610821576000828152600a602090815260408083206001600160a01b03851684529091529020805460ff191690556129e9611270565b6001600160a01b0316816001600160a01b0316837ff6391f5c32d9c69d2a47ea670b442974b53935d1edc7fd64eb21e047a839171b60405160405180910390a45050565b60008181526001830160205260408120548015612b3a576000612a51600183613931565b8554909150600090612a6590600190613931565b90506000866000018281548110612a8c57634e487b7160e01b600052603260045260246000fd5b9060005260206000200154905080876000018481548110612abd57634e487b7160e01b600052603260045260246000fd5b600091825260208083209091019290925582815260018901909152604090208490558654879080612afe57634e487b7160e01b600052603160045260246000fd5b60019003818190600052602060002001600090559055866001016000878152602001908152602001600020600090556001945050505050610808565b6000915050610808565b8154600090612b5557506000610808565b82546000905b80821015612bbf576000612b6f8383612ece565b905084868281548110612b9257634e487b7160e01b600052603260045260246000fd5b90600052602060002001541115612bab57809150612bb9565b612bb68160016138e6565b92505b50612b5b565b600082118015612c0257508385612bd7600185613931565b81548110612bf557634e487b7160e01b600052603260045260246000fd5b9060005260206000200154145b15612c1b57612c12600183613931565b92505050610808565b509050610808565b81546000908210612c465760405162461bcd60e51b81526004016108b690613397565b826000018281548110612c6957634e487b7160e01b600052603260045260246000fd5b9060005260206000200154905092915050565b80546001019055565b60008282604051602001612c9a92919061319b565b60405160208183030381529060405280519060200120905092915050565b60009081526001919091016020526040902054151590565b6000612cdc6008611247565b905080612ce884612f25565b101561092e578254600180820185556000858152602080822090930193909355938401805494850181558252902090910155565b60606000612d2b836002613912565b612d369060026138e6565b67ffffffffffffffff811115612d5c57634e487b7160e01b600052604160045260246000fd5b6040519080825280601f01601f191660200182016040528015612d86576020820181803683370190505b509050600360fc1b81600081518110612daf57634e487b7160e01b600052603260045260246000fd5b60200101906001600160f81b031916908160001a905350600f60fb1b81600181518110612dec57634e487b7160e01b600052603260045260246000fd5b60200101906001600160f81b031916908160001a9053506000612e10846002613912565b612e1b9060016138e6565b90505b6001811115612eaf576f181899199a1a9b1b9c1cb0b131b232b360811b85600f1660108110612e5d57634e487b7160e01b600052603260045260246000fd5b1a60f81b828281518110612e8157634e487b7160e01b600052603260045260246000fd5b60200101906001600160f81b031916908160001a90535060049490941c93612ea881613978565b9050612e1e565b508315610cc25760405162461bcd60e51b81526004016108b6906133d9565b60006002612edc81846139df565b612ee76002866139df565b612ef191906138e6565b612efb91906138fe565b612f066002846138fe565b612f116002866138fe565b612f1b91906138e6565b610cc291906138e6565b8054600090612f3657506000610749565b81548290612f4690600190613931565b81548110612f6457634e487b7160e01b600052603260045260246000fd5b90600052602060002001549050610749565b600060208284031215612f87578081fd5b8135610cc281613a1f565b600060208284031215612fa3578081fd5b8151610cc281613a1f565b60008060408385031215612fc0578081fd5b8235612fcb81613a1f565b91506020830135612fdb81613a1f565b809150509250929050565b600080600060608486031215612ffa578081fd5b833561300581613a1f565b9250602084013561301581613a1f565b929592945050506040919091013590565b600080600080600080600060e0888a031215613040578283fd5b873561304b81613a1f565b9650602088013561305b81613a1f565b95506040880135945060608801359350608088013560ff8116811461307e578384fd5b9699959850939692959460a0840135945060c09093013592915050565b600080604083850312156130ad578182fd5b82356130b881613a1f565b946020939093013593505050565b6000602082840312156130d7578081fd5b8135610cc281613a34565b6000602082840312156130f3578081fd5b8151610cc281613a34565b60006020828403121561310f578081fd5b5035919050565b60008060408385031215613128578182fd5b823591506020830135612fdb81613a1f565b6000806040838503121561314c578182fd5b50508035926020909101359150565b60006020828403121561316c578081fd5b81356001600160e01b031981168114610cc2578182fd5b600060208284031215613194578081fd5b5051919050565b61190160f01b81526002810192909252602282015260420190565b60007f416363657373436f6e74726f6c3a206163636f756e7420000000000000000000825283516131ee816017850160208801613948565b7001034b99036b4b9b9b4b733903937b6329607d1b601791840191820152835161321f816028840160208801613948565b01602801949350505050565b6001600160a01b0391909116815260200190565b901515815260200190565b90815260200190565b9182526001600160a01b0316602082015260400190565b9586526001600160a01b0394851660208701529290931660408501526060840152608083019190915260a082015260c00190565b9485526020850193909352604084019190915260608301526001600160a01b0316608082015260a00190565b918252602082015260400190565b93845260ff9290921660208401526040830152606082015260800190565b6000602082528251806020840152613315816040850160208701613948565b601f01601f19169190910160400192915050565b60208082526018908201527f45434453413a20696e76616c6964207369676e61747572650000000000000000604082015260600190565b6020808252601d908201527f4552433230536e617073686f743a206e6f6e6578697374656e74206964000000604082015260600190565b60208082526022908201527f456e756d657261626c655365743a20696e646578206f7574206f6620626f756e604082015261647360f01b606082015260800190565b6020808252818101527f537472696e67733a20686578206c656e67746820696e73756666696369656e74604082015260600190565b60208082526023908201527f45524332303a207472616e7366657220746f20746865207a65726f206164647260408201526265737360e81b606082015260800190565b60208082526010908201526f436f757274204d75737420416772656560801b604082015260600190565b6020808252601690820152752cb7ba93b932903737ba103a3432903130b4b634b33360511b604082015260600190565b60208082526022908201527f45524332303a206275726e20616d6f756e7420657863656564732062616c616e604082015261636560f01b606082015260800190565b60208082526022908201527f45524332303a20617070726f766520746f20746865207a65726f206164647265604082015261737360f01b606082015260800190565b6020808252601d908201527f45524332305065726d69743a206578706972656420646561646c696e65000000604082015260600190565b60208082526026908201527f45524332303a207472616e7366657220616d6f756e7420657863656564732062604082015265616c616e636560d01b606082015260800190565b60208082526022908201527f45434453413a20696e76616c6964207369676e6174757265202773272076616c604082015261756560f01b606082015260800190565b60208082526010908201526f4e6f7468696e6720746f2073796e632160801b604082015260600190565b60208082526022908201527f45434453413a20696e76616c6964207369676e6174757265202776272076616c604082015261756560f01b606082015260800190565b6020808252601e908201527f45524332305065726d69743a20696e76616c6964207369676e61747572650000604082015260600190565b60208082526028908201527f45524332303a207472616e7366657220616d6f756e74206578636565647320616040820152676c6c6f77616e636560c01b606082015260800190565b60208082526024908201527f45524332303a206275726e20616d6f756e74206578636565647320616c6c6f77604082015263616e636560e01b606082015260800190565b60208082526021908201527f45524332303a206275726e2066726f6d20746865207a65726f206164647265736040820152607360f81b606082015260800190565b60208082526025908201527f45524332303a207472616e736665722066726f6d20746865207a65726f206164604082015264647265737360d81b606082015260800190565b602080825260139082015272596f75277265206e6f7420746865204a75727960681b604082015260600190565b60208082526024908201527f45524332303a20617070726f76652066726f6d20746865207a65726f206164646040820152637265737360e01b606082015260800190565b60208082526016908201527504552433230536e617073686f743a20696420697320360541b604082015260600190565b60208082526025908201527f45524332303a2064656372656173656420616c6c6f77616e63652062656c6f77604082015264207a65726f60d81b606082015260800190565b6020808252602f908201527f416363657373436f6e74726f6c3a2063616e206f6e6c792072656e6f756e636560408201526e103937b632b9903337b91039b2b63360891b606082015260800190565b60ff91909116815260200190565b600082198211156138f9576138f96139f3565b500190565b60008261390d5761390d613a09565b500490565b600081600019048311821515161561392c5761392c6139f3565b500290565b600082821015613943576139436139f3565b500390565b60005b8381101561396357818101518382015260200161394b565b83811115613972576000848401525b50505050565b600081613987576139876139f3565b506000190190565b6002810460018216806139a357607f821691505b6020821081141561253957634e487b7160e01b600052602260045260246000fd5b60006000198214156139d8576139d86139f3565b5060010190565b6000826139ee576139ee613a09565b500690565b634e487b7160e01b600052601160045260246000fd5b634e487b7160e01b600052601260045260246000fd5b6001600160a01b038116811461082d57600080fd5b801515811461082d57600080fdfefa8e4989e1d689f7bc5c4b25b87efb51fecdecb19ba62847e29c759e12a89acd048bc71fa1cb2c119c339cf9cf00a97996a19a9d991ce5fe049f2fa5459e7990f0f4b159a6e2a4815eb3ca3df080bfa70c9270662c59bcaa4479a456220183e60538d24a8b7882d7b2e36af243d4af61c23e86e3daa6cb8c887b53220b2f57207c9d7f6f02908185bffb3f7fc9afb29fd7bf93675af8fd4b655ee05c2cee1e0ea2646970667358221220e82d01dca02f9c495af034b8e26b03cf878b04607f526ac0e089eee4e3df7a6664736f6c634300080000337c9d7f6f02908185bffb3f7fc9afb29fd7bf93675af8fd4b655ee05c2cee1e0e",
  "immutableReferences": {
    "5823": [
      {
        "length": 32,
        "start": 4076
      }
    ],
    "8166": [
      {
        "length": 32,
        "start": 7853
      }
    ],
    "8168": [
      {
        "length": 32,
        "start": 7812
      }
    ],
    "8170": [
      {
        "length": 32,
        "start": 7927
      }
    ],
    "8172": [
      {
        "length": 32,
        "start": 7960
      }
    ],
    "8174": [
      {
        "length": 32,
        "start": 7894
      }
    ]
  },
  "source": "// Disclaimer: I have literally no idea what I'm doing so take that as you will.\n// Now that thats out of the way, feel free to help improve this!\n\npragma solidity ^0.8.0;\n\nimport \"@openzeppelin/contracts/token/ERC20/ERC20.sol\";\nimport \"@openzeppelin/contracts/token/ERC20/extensions/ERC20Snapshot.sol\";\nimport \"@openzeppelin/contracts/token/ERC20/extensions/draft-ERC20Permit.sol\";\nimport \"@openzeppelin/contracts/token/ERC20/extensions/ERC20Burnable.sol\";\nimport \"../src/SmartConsensusMachine.sol\";\n\n// Token features:\n// Snapshot for governance and distrubutions\n// Burnable\n// Fixed Supply\n// Gassless Permit (Draft EIP)\n\ncontract RedPens is ERC20, ERC20Snapshot, ERC20Permit, ERC20Burnable, SmartConsensusMachine {\n\n \n    /******************************************************\n    * JERK SANCTIONS:\n    *   if 'jerkSanctionIsOn' is enabled, this prohibits jerks from using thier !Red.    *\n    *\n    * FOREVER_DISABLE_SANCTIONS:\n    *   if this setting is set to true, Jerk sanctions will be disabled forever.\n    *   THIS IS NOT REVERSABLE!\n    */\n\n    bool public SANCTIONS_FOREVER_DISABLED = false;\n    bool public jerkSanctionsLocal = false;\n\n    /***********************************************/\n\n\n    constructor(address _AddressManagerAddress) ERC20(\"Red Pens\", \"!RED\") ERC20Permit(\"Red Pens\") SmartConsensusMachine(_AddressManagerAddress) {\n    \n        _mint(TreasuryAddress, 820042000 * 10 ** 18); // Mint the entire token supply\n    }\n\n\n    //***********************************************************\n    // The DAO may choose to prohibit Jerks from using !Red\n    //********************************************************* */\n    function switchLocalJerkSanctions(bool turnOnSanctions) public JURY {\n        require(!SANCTIONS_FOREVER_DISABLED);\n\n        jerkSanctionsLocal = turnOnSanctions;\n\n    }\n\n    // This will disable the sanctions function forever (incase it was a bad idea or poses a security issue)\n    function foreverDisableJerkSanctions(bool safteySwitch) public THE_COURT {\n        // The Saftey Switch should be set to FALSE for the function to be properly executed.\n        require(!safteySwitch && !SANCTIONS_FOREVER_DISABLED);\n        jerkSanctionsLocal = false;\n        SANCTIONS_FOREVER_DISABLED = true;\n    }\n\n    /**************************************************************************\n    ***************************************************************************/\n    \n\n    // Take a snapshot of token holders (Must be the recorder, bailiff, or court)\n     function snapshot() public MINI_BAILIFF {\n        _snapshot();\n    }\n\n\n    // Only needed in the event jerk sanctions are turned on.\n    function _beforeTokenTransfer(address from, address to, uint256 amount)\n        internal\n        override(ERC20, ERC20Snapshot)\n    {\n        if (jerkSanctionsLocal && jerkSanctions) {\n           require(!hasRole(JERK_ROLE, msg.sender)); \n        }\n        super._beforeTokenTransfer(from, to, amount);\n    }\n}",
  "sourcePath": "/home/n/Desktop/v3_fronternd/PinkSlips_FrontEnd_ROUGH/contracts/govTokens/RedPens.sol",
  "compiler": {
    "name": "solc",
    "version": "0.8.0+commit.c7dfd78e.Emscripten.clang"
  },
  "schemaVersion": "3.4.1",
  "updatedAt": "2021-07-06T04:56:30.613Z",
  "networkType": "ethereum",
  "devdoc": {
    "kind": "dev",
    "methods": {
      "DOMAIN_SEPARATOR()": {
        "details": "See {IERC20Permit-DOMAIN_SEPARATOR}."
      },
      "allowance(address,address)": {
        "details": "See {IERC20-allowance}."
      },
      "approve(address,uint256)": {
        "details": "See {IERC20-approve}. Requirements: - `spender` cannot be the zero address."
      },
      "balanceOf(address)": {
        "details": "See {IERC20-balanceOf}."
      },
      "balanceOfAt(address,uint256)": {
        "details": "Retrieves the balance of `account` at the time `snapshotId` was created."
      },
      "burn(uint256)": {
        "details": "Destroys `amount` tokens from the caller. See {ERC20-_burn}."
      },
      "burnFrom(address,uint256)": {
        "details": "Destroys `amount` tokens from `account`, deducting from the caller's allowance. See {ERC20-_burn} and {ERC20-allowance}. Requirements: - the caller must have allowance for ``accounts``'s tokens of at least `amount`."
      },
      "decimals()": {
        "details": "Returns the number of decimals used to get its user representation. For example, if `decimals` equals `2`, a balance of `505` tokens should be displayed to a user as `5,05` (`505 / 10 ** 2`). Tokens usually opt for a value of 18, imitating the relationship between Ether and Wei. This is the value {ERC20} uses, unless this function is overridden; NOTE: This information is only used for _display_ purposes: it in no way affects any of the arithmetic of the contract, including {IERC20-balanceOf} and {IERC20-transfer}."
      },
      "decreaseAllowance(address,uint256)": {
        "details": "Atomically decreases the allowance granted to `spender` by the caller. This is an alternative to {approve} that can be used as a mitigation for problems described in {IERC20-approve}. Emits an {Approval} event indicating the updated allowance. Requirements: - `spender` cannot be the zero address. - `spender` must have allowance for the caller of at least `subtractedValue`."
      },
      "getRoleAdmin(bytes32)": {
        "details": "Returns the admin role that controls `role`. See {grantRole} and {revokeRole}. To change a role's admin, use {_setRoleAdmin}."
      },
      "getRoleMember(bytes32,uint256)": {
        "details": "Returns one of the accounts that have `role`. `index` must be a value between 0 and {getRoleMemberCount}, non-inclusive. Role bearers are not sorted in any particular way, and their ordering may change at any point. WARNING: When using {getRoleMember} and {getRoleMemberCount}, make sure you perform all queries on the same block. See the following https://forum.openzeppelin.com/t/iterating-over-elements-on-enumerableset-in-openzeppelin-contracts/2296[forum post] for more information."
      },
      "getRoleMemberCount(bytes32)": {
        "details": "Returns the number of accounts that have `role`. Can be used together with {getRoleMember} to enumerate all bearers of a role."
      },
      "grantRole(bytes32,address)": {
        "details": "Overload {grantRole} to track enumerable memberships"
      },
      "hasRole(bytes32,address)": {
        "details": "Returns `true` if `account` has been granted `role`."
      },
      "increaseAllowance(address,uint256)": {
        "details": "Atomically increases the allowance granted to `spender` by the caller. This is an alternative to {approve} that can be used as a mitigation for problems described in {IERC20-approve}. Emits an {Approval} event indicating the updated allowance. Requirements: - `spender` cannot be the zero address."
      },
      "name()": {
        "details": "Returns the name of the token."
      },
      "nonces(address)": {
        "details": "See {IERC20Permit-nonces}."
      },
      "permit(address,address,uint256,uint256,uint8,bytes32,bytes32)": {
        "details": "See {IERC20Permit-permit}."
      },
      "renounceRole(bytes32,address)": {
        "details": "Overload {renounceRole} to track enumerable memberships"
      },
      "revokeRole(bytes32,address)": {
        "details": "Overload {revokeRole} to track enumerable memberships"
      },
      "supportsInterface(bytes4)": {
        "details": "See {IERC165-supportsInterface}."
      },
      "symbol()": {
        "details": "Returns the symbol of the token, usually a shorter version of the name."
      },
      "totalSupply()": {
        "details": "See {IERC20-totalSupply}."
      },
      "totalSupplyAt(uint256)": {
        "details": "Retrieves the total supply at the time `snapshotId` was created."
      },
      "transfer(address,uint256)": {
        "details": "See {IERC20-transfer}. Requirements: - `recipient` cannot be the zero address. - the caller must have a balance of at least `amount`."
      },
      "transferFrom(address,address,uint256)": {
        "details": "See {IERC20-transferFrom}. Emits an {Approval} event indicating the updated allowance. This is not required by the EIP. See the note at the beginning of {ERC20}. Requirements: - `sender` and `recipient` cannot be the zero address. - `sender` must have a balance of at least `amount`. - the caller must have allowance for ``sender``'s tokens of at least `amount`."
      }
    },
    "version": 1
  },
  "userdoc": {
    "kind": "user",
    "methods": {},
    "version": 1
  }
}