{
  "contractName": "RedPens",
  "abi": [
    {
      "inputs": [
        {
          "internalType": "address",
          "name": "_AddressManagerAddress",
          "type": "address"
        }
      ],
      "stateMutability": "nonpayable",
      "type": "constructor"
    },
    {
      "anonymous": false,
      "inputs": [
        {
          "indexed": true,
          "internalType": "address",
          "name": "owner",
          "type": "address"
        },
        {
          "indexed": true,
          "internalType": "address",
          "name": "spender",
          "type": "address"
        },
        {
          "indexed": false,
          "internalType": "uint256",
          "name": "value",
          "type": "uint256"
        }
      ],
      "name": "Approval",
      "type": "event"
    },
    {
      "anonymous": false,
      "inputs": [
        {
          "indexed": true,
          "internalType": "bytes32",
          "name": "role",
          "type": "bytes32"
        },
        {
          "indexed": true,
          "internalType": "bytes32",
          "name": "previousAdminRole",
          "type": "bytes32"
        },
        {
          "indexed": true,
          "internalType": "bytes32",
          "name": "newAdminRole",
          "type": "bytes32"
        }
      ],
      "name": "RoleAdminChanged",
      "type": "event"
    },
    {
      "anonymous": false,
      "inputs": [
        {
          "indexed": true,
          "internalType": "bytes32",
          "name": "role",
          "type": "bytes32"
        },
        {
          "indexed": true,
          "internalType": "address",
          "name": "account",
          "type": "address"
        },
        {
          "indexed": true,
          "internalType": "address",
          "name": "sender",
          "type": "address"
        }
      ],
      "name": "RoleGranted",
      "type": "event"
    },
    {
      "anonymous": false,
      "inputs": [
        {
          "indexed": true,
          "internalType": "bytes32",
          "name": "role",
          "type": "bytes32"
        },
        {
          "indexed": true,
          "internalType": "address",
          "name": "account",
          "type": "address"
        },
        {
          "indexed": true,
          "internalType": "address",
          "name": "sender",
          "type": "address"
        }
      ],
      "name": "RoleRevoked",
      "type": "event"
    },
    {
      "anonymous": false,
      "inputs": [
        {
          "indexed": false,
          "internalType": "uint256",
          "name": "id",
          "type": "uint256"
        }
      ],
      "name": "Snapshot",
      "type": "event"
    },
    {
      "anonymous": false,
      "inputs": [
        {
          "indexed": true,
          "internalType": "address",
          "name": "from",
          "type": "address"
        },
        {
          "indexed": true,
          "internalType": "address",
          "name": "to",
          "type": "address"
        },
        {
          "indexed": false,
          "internalType": "uint256",
          "name": "value",
          "type": "uint256"
        }
      ],
      "name": "Transfer",
      "type": "event"
    },
    {
      "inputs": [],
      "name": "AddressManagerAddress",
      "outputs": [
        {
          "internalType": "address",
          "name": "",
          "type": "address"
        }
      ],
      "stateMutability": "view",
      "type": "function",
      "constant": true
    },
    {
      "inputs": [],
      "name": "ChadBadgeAddress",
      "outputs": [
        {
          "internalType": "address",
          "name": "",
          "type": "address"
        }
      ],
      "stateMutability": "view",
      "type": "function",
      "constant": true
    },
    {
      "inputs": [],
      "name": "DEFAULT_ADMIN_ROLE",
      "outputs": [
        {
          "internalType": "bytes32",
          "name": "",
          "type": "bytes32"
        }
      ],
      "stateMutability": "view",
      "type": "function",
      "constant": true
    },
    {
      "inputs": [],
      "name": "DOMAIN_SEPARATOR",
      "outputs": [
        {
          "internalType": "bytes32",
          "name": "",
          "type": "bytes32"
        }
      ],
      "stateMutability": "view",
      "type": "function",
      "constant": true
    },
    {
      "inputs": [],
      "name": "GAVELS_BAILIFF",
      "outputs": [
        {
          "internalType": "bytes32",
          "name": "",
          "type": "bytes32"
        }
      ],
      "stateMutability": "view",
      "type": "function",
      "constant": true
    },
    {
      "inputs": [],
      "name": "GavelDAOAgent",
      "outputs": [
        {
          "internalType": "address",
          "name": "",
          "type": "address"
        }
      ],
      "stateMutability": "view",
      "type": "function",
      "constant": true
    },
    {
      "inputs": [],
      "name": "GavelTokenAddress",
      "outputs": [
        {
          "internalType": "address",
          "name": "",
          "type": "address"
        }
      ],
      "stateMutability": "view",
      "type": "function",
      "constant": true
    },
    {
      "inputs": [],
      "name": "GavelVote",
      "outputs": [
        {
          "internalType": "bool",
          "name": "",
          "type": "bool"
        }
      ],
      "stateMutability": "view",
      "type": "function",
      "constant": true
    },
    {
      "inputs": [],
      "name": "GoldStarAddress",
      "outputs": [
        {
          "internalType": "address",
          "name": "",
          "type": "address"
        }
      ],
      "stateMutability": "view",
      "type": "function",
      "constant": true
    },
    {
      "inputs": [],
      "name": "JERK_ROLE",
      "outputs": [
        {
          "internalType": "bytes32",
          "name": "",
          "type": "bytes32"
        }
      ],
      "stateMutability": "view",
      "type": "function",
      "constant": true
    },
    {
      "inputs": [],
      "name": "JURY_BAILIFF",
      "outputs": [
        {
          "internalType": "bytes32",
          "name": "",
          "type": "bytes32"
        }
      ],
      "stateMutability": "view",
      "type": "function",
      "constant": true
    },
    {
      "inputs": [],
      "name": "JuryDAOAgent",
      "outputs": [
        {
          "internalType": "address",
          "name": "",
          "type": "address"
        }
      ],
      "stateMutability": "view",
      "type": "function",
      "constant": true
    },
    {
      "inputs": [],
      "name": "JuryPoolAddress",
      "outputs": [
        {
          "internalType": "address",
          "name": "",
          "type": "address"
        }
      ],
      "stateMutability": "view",
      "type": "function",
      "constant": true
    },
    {
      "inputs": [],
      "name": "JuryVote",
      "outputs": [
        {
          "internalType": "bool",
          "name": "",
          "type": "bool"
        }
      ],
      "stateMutability": "view",
      "type": "function",
      "constant": true
    },
    {
      "inputs": [],
      "name": "MINI_BAILIFF_ROLE",
      "outputs": [
        {
          "internalType": "bytes32",
          "name": "",
          "type": "bytes32"
        }
      ],
      "stateMutability": "view",
      "type": "function",
      "constant": true
    },
    {
      "inputs": [],
      "name": "MiniBailiff",
      "outputs": [
        {
          "internalType": "address",
          "name": "",
          "type": "address"
        }
      ],
      "stateMutability": "view",
      "type": "function",
      "constant": true
    },
    {
      "inputs": [],
      "name": "PinkSlipAddress",
      "outputs": [
        {
          "internalType": "address",
          "name": "",
          "type": "address"
        }
      ],
      "stateMutability": "view",
      "type": "function",
      "constant": true
    },
    {
      "inputs": [],
      "name": "RedPenTokenAddress",
      "outputs": [
        {
          "internalType": "address",
          "name": "",
          "type": "address"
        }
      ],
      "stateMutability": "view",
      "type": "function",
      "constant": true
    },
    {
      "inputs": [],
      "name": "SANCTIONS_FOREVER_DISABLED",
      "outputs": [
        {
          "internalType": "bool",
          "name": "",
          "type": "bool"
        }
      ],
      "stateMutability": "view",
      "type": "function",
      "constant": true
    },
    {
      "inputs": [],
      "name": "THE_COURT_ROLE",
      "outputs": [
        {
          "internalType": "bytes32",
          "name": "",
          "type": "bytes32"
        }
      ],
      "stateMutability": "view",
      "type": "function",
      "constant": true
    },
    {
      "inputs": [],
      "name": "TheCourtAddress",
      "outputs": [
        {
          "internalType": "address",
          "name": "",
          "type": "address"
        }
      ],
      "stateMutability": "view",
      "type": "function",
      "constant": true
    },
    {
      "inputs": [],
      "name": "TreasuryAddress",
      "outputs": [
        {
          "internalType": "address",
          "name": "",
          "type": "address"
        }
      ],
      "stateMutability": "view",
      "type": "function",
      "constant": true
    },
    {
      "inputs": [],
      "name": "addressManager",
      "outputs": [
        {
          "internalType": "contract AddressManager",
          "name": "",
          "type": "address"
        }
      ],
      "stateMutability": "view",
      "type": "function",
      "constant": true
    },
    {
      "inputs": [
        {
          "internalType": "address",
          "name": "owner",
          "type": "address"
        },
        {
          "internalType": "address",
          "name": "spender",
          "type": "address"
        }
      ],
      "name": "allowance",
      "outputs": [
        {
          "internalType": "uint256",
          "name": "",
          "type": "uint256"
        }
      ],
      "stateMutability": "view",
      "type": "function",
      "constant": true
    },
    {
      "inputs": [
        {
          "internalType": "address",
          "name": "spender",
          "type": "address"
        },
        {
          "internalType": "uint256",
          "name": "amount",
          "type": "uint256"
        }
      ],
      "name": "approve",
      "outputs": [
        {
          "internalType": "bool",
          "name": "",
          "type": "bool"
        }
      ],
      "stateMutability": "nonpayable",
      "type": "function"
    },
    {
      "inputs": [
        {
          "internalType": "address",
          "name": "account",
          "type": "address"
        }
      ],
      "name": "balanceOf",
      "outputs": [
        {
          "internalType": "uint256",
          "name": "",
          "type": "uint256"
        }
      ],
      "stateMutability": "view",
      "type": "function",
      "constant": true
    },
    {
      "inputs": [
        {
          "internalType": "address",
          "name": "account",
          "type": "address"
        },
        {
          "internalType": "uint256",
          "name": "snapshotId",
          "type": "uint256"
        }
      ],
      "name": "balanceOfAt",
      "outputs": [
        {
          "internalType": "uint256",
          "name": "",
          "type": "uint256"
        }
      ],
      "stateMutability": "view",
      "type": "function",
      "constant": true
    },
    {
      "inputs": [
        {
          "internalType": "uint256",
          "name": "amount",
          "type": "uint256"
        }
      ],
      "name": "burn",
      "outputs": [],
      "stateMutability": "nonpayable",
      "type": "function"
    },
    {
      "inputs": [
        {
          "internalType": "address",
          "name": "account",
          "type": "address"
        },
        {
          "internalType": "uint256",
          "name": "amount",
          "type": "uint256"
        }
      ],
      "name": "burnFrom",
      "outputs": [],
      "stateMutability": "nonpayable",
      "type": "function"
    },
    {
      "inputs": [],
      "name": "decimals",
      "outputs": [
        {
          "internalType": "uint8",
          "name": "",
          "type": "uint8"
        }
      ],
      "stateMutability": "view",
      "type": "function",
      "constant": true
    },
    {
      "inputs": [
        {
          "internalType": "address",
          "name": "spender",
          "type": "address"
        },
        {
          "internalType": "uint256",
          "name": "subtractedValue",
          "type": "uint256"
        }
      ],
      "name": "decreaseAllowance",
      "outputs": [
        {
          "internalType": "bool",
          "name": "",
          "type": "bool"
        }
      ],
      "stateMutability": "nonpayable",
      "type": "function"
    },
    {
      "inputs": [
        {
          "internalType": "bool",
          "name": "safteySwitch",
          "type": "bool"
        }
      ],
      "name": "foreverDisableJerkSanctions",
      "outputs": [],
      "stateMutability": "nonpayable",
      "type": "function"
    },
    {
      "inputs": [
        {
          "internalType": "bytes32",
          "name": "role",
          "type": "bytes32"
        }
      ],
      "name": "getRoleAdmin",
      "outputs": [
        {
          "internalType": "bytes32",
          "name": "",
          "type": "bytes32"
        }
      ],
      "stateMutability": "view",
      "type": "function",
      "constant": true
    },
    {
      "inputs": [
        {
          "internalType": "bytes32",
          "name": "role",
          "type": "bytes32"
        },
        {
          "internalType": "uint256",
          "name": "index",
          "type": "uint256"
        }
      ],
      "name": "getRoleMember",
      "outputs": [
        {
          "internalType": "address",
          "name": "",
          "type": "address"
        }
      ],
      "stateMutability": "view",
      "type": "function",
      "constant": true
    },
    {
      "inputs": [
        {
          "internalType": "bytes32",
          "name": "role",
          "type": "bytes32"
        }
      ],
      "name": "getRoleMemberCount",
      "outputs": [
        {
          "internalType": "uint256",
          "name": "",
          "type": "uint256"
        }
      ],
      "stateMutability": "view",
      "type": "function",
      "constant": true
    },
    {
      "inputs": [
        {
          "internalType": "bytes32",
          "name": "role",
          "type": "bytes32"
        },
        {
          "internalType": "address",
          "name": "account",
          "type": "address"
        }
      ],
      "name": "grantRole",
      "outputs": [],
      "stateMutability": "nonpayable",
      "type": "function"
    },
    {
      "inputs": [
        {
          "internalType": "bytes32",
          "name": "role",
          "type": "bytes32"
        },
        {
          "internalType": "address",
          "name": "account",
          "type": "address"
        }
      ],
      "name": "hasRole",
      "outputs": [
        {
          "internalType": "bool",
          "name": "",
          "type": "bool"
        }
      ],
      "stateMutability": "view",
      "type": "function",
      "constant": true
    },
    {
      "inputs": [
        {
          "internalType": "address",
          "name": "spender",
          "type": "address"
        },
        {
          "internalType": "uint256",
          "name": "addedValue",
          "type": "uint256"
        }
      ],
      "name": "increaseAllowance",
      "outputs": [
        {
          "internalType": "bool",
          "name": "",
          "type": "bool"
        }
      ],
      "stateMutability": "nonpayable",
      "type": "function"
    },
    {
      "inputs": [],
      "name": "jerkSanctions",
      "outputs": [
        {
          "internalType": "bool",
          "name": "",
          "type": "bool"
        }
      ],
      "stateMutability": "view",
      "type": "function",
      "constant": true
    },
    {
      "inputs": [],
      "name": "jerkSanctionsLocal",
      "outputs": [
        {
          "internalType": "bool",
          "name": "",
          "type": "bool"
        }
      ],
      "stateMutability": "view",
      "type": "function",
      "constant": true
    },
    {
      "inputs": [],
      "name": "name",
      "outputs": [
        {
          "internalType": "string",
          "name": "",
          "type": "string"
        }
      ],
      "stateMutability": "view",
      "type": "function",
      "constant": true
    },
    {
      "inputs": [
        {
          "internalType": "address",
          "name": "owner",
          "type": "address"
        }
      ],
      "name": "nonces",
      "outputs": [
        {
          "internalType": "uint256",
          "name": "",
          "type": "uint256"
        }
      ],
      "stateMutability": "view",
      "type": "function",
      "constant": true
    },
    {
      "inputs": [
        {
          "internalType": "address",
          "name": "owner",
          "type": "address"
        },
        {
          "internalType": "address",
          "name": "spender",
          "type": "address"
        },
        {
          "internalType": "uint256",
          "name": "value",
          "type": "uint256"
        },
        {
          "internalType": "uint256",
          "name": "deadline",
          "type": "uint256"
        },
        {
          "internalType": "uint8",
          "name": "v",
          "type": "uint8"
        },
        {
          "internalType": "bytes32",
          "name": "r",
          "type": "bytes32"
        },
        {
          "internalType": "bytes32",
          "name": "s",
          "type": "bytes32"
        }
      ],
      "name": "permit",
      "outputs": [],
      "stateMutability": "nonpayable",
      "type": "function"
    },
    {
      "inputs": [
        {
          "internalType": "bytes32",
          "name": "role",
          "type": "bytes32"
        },
        {
          "internalType": "address",
          "name": "account",
          "type": "address"
        }
      ],
      "name": "renounceRole",
      "outputs": [],
      "stateMutability": "nonpayable",
      "type": "function"
    },
    {
      "inputs": [],
      "name": "resetVote",
      "outputs": [],
      "stateMutability": "nonpayable",
      "type": "function"
    },
    {
      "inputs": [
        {
          "internalType": "bytes32",
          "name": "role",
          "type": "bytes32"
        },
        {
          "internalType": "address",
          "name": "account",
          "type": "address"
        }
      ],
      "name": "revokeRole",
      "outputs": [],
      "stateMutability": "nonpayable",
      "type": "function"
    },
    {
      "inputs": [],
      "name": "snapshot",
      "outputs": [],
      "stateMutability": "nonpayable",
      "type": "function"
    },
    {
      "inputs": [
        {
          "internalType": "bytes4",
          "name": "interfaceId",
          "type": "bytes4"
        }
      ],
      "name": "supportsInterface",
      "outputs": [
        {
          "internalType": "bool",
          "name": "",
          "type": "bool"
        }
      ],
      "stateMutability": "view",
      "type": "function",
      "constant": true
    },
    {
      "inputs": [
        {
          "internalType": "bool",
          "name": "turnOnSanctions",
          "type": "bool"
        }
      ],
      "name": "switchLocalJerkSanctions",
      "outputs": [],
      "stateMutability": "nonpayable",
      "type": "function"
    },
    {
      "inputs": [],
      "name": "symbol",
      "outputs": [
        {
          "internalType": "string",
          "name": "",
          "type": "string"
        }
      ],
      "stateMutability": "view",
      "type": "function",
      "constant": true
    },
    {
      "inputs": [],
      "name": "syncAllRoles",
      "outputs": [],
      "stateMutability": "nonpayable",
      "type": "function"
    },
    {
      "inputs": [
        {
          "internalType": "bytes32",
          "name": "ROLE_TO_SYNC",
          "type": "bytes32"
        }
      ],
      "name": "syncSingleRole",
      "outputs": [],
      "stateMutability": "nonpayable",
      "type": "function"
    },
    {
      "inputs": [],
      "name": "syncVotes",
      "outputs": [],
      "stateMutability": "nonpayable",
      "type": "function"
    },
    {
      "inputs": [],
      "name": "totalSupply",
      "outputs": [
        {
          "internalType": "uint256",
          "name": "",
          "type": "uint256"
        }
      ],
      "stateMutability": "view",
      "type": "function",
      "constant": true
    },
    {
      "inputs": [
        {
          "internalType": "uint256",
          "name": "snapshotId",
          "type": "uint256"
        }
      ],
      "name": "totalSupplyAt",
      "outputs": [
        {
          "internalType": "uint256",
          "name": "",
          "type": "uint256"
        }
      ],
      "stateMutability": "view",
      "type": "function",
      "constant": true
    },
    {
      "inputs": [
        {
          "internalType": "address",
          "name": "recipient",
          "type": "address"
        },
        {
          "internalType": "uint256",
          "name": "amount",
          "type": "uint256"
        }
      ],
      "name": "transfer",
      "outputs": [
        {
          "internalType": "bool",
          "name": "",
          "type": "bool"
        }
      ],
      "stateMutability": "nonpayable",
      "type": "function"
    },
    {
      "inputs": [
        {
          "internalType": "address",
          "name": "sender",
          "type": "address"
        },
        {
          "internalType": "address",
          "name": "recipient",
          "type": "address"
        },
        {
          "internalType": "uint256",
          "name": "amount",
          "type": "uint256"
        }
      ],
      "name": "transferFrom",
      "outputs": [
        {
          "internalType": "bool",
          "name": "",
          "type": "bool"
        }
      ],
      "stateMutability": "nonpayable",
      "type": "function"
    },
    {
      "inputs": [],
      "name": "updateAddressManager",
      "outputs": [],
      "stateMutability": "nonpayable",
      "type": "function"
    },
    {
      "inputs": [],
      "name": "updateAllAddresses",
      "outputs": [],
      "stateMutability": "nonpayable",
      "type": "function"
    },
    {
      "inputs": [],
      "name": "updateAllRoles",
      "outputs": [],
      "stateMutability": "nonpayable",
      "type": "function"
    },
    {
      "inputs": [],
      "name": "updateDAOAddresses",
      "outputs": [],
      "stateMutability": "nonpayable",
      "type": "function"
    },
    {
      "inputs": [
        {
          "internalType": "bytes32",
          "name": "ROLE_TO_UPDATE",
          "type": "bytes32"
        }
      ],
      "name": "updateSingleRole",
      "outputs": [],
      "stateMutability": "nonpayable",
      "type": "function"
    },
    {
      "inputs": [],
      "name": "updateTokenAddresses",
      "outputs": [],
      "stateMutability": "nonpayable",
      "type": "function"
    }
  ],
  "bytecode": "0x6101406040527f6e71edae12b1b97f4d1f60370fef10105fa2faae0126114a169c64845d6126c961012052600a805460ff191690556019805465ffffffffffff60a01b191690553480156200005357600080fd5b5060405162004ae638038062004ae6833981016040819052620000769162000fdf565b8080604051806040016040528060088152602001675265642050656e7360c01b81525080604051806040016040528060018152602001603160f81b815250604051806040016040528060088152602001675265642050656e7360c01b815250604051806040016040528060048152602001630854915160e21b81525081600390805190602001906200010a92919062000f39565b5080516200012090600490602084019062000f39565b5050825160208085019190912083518483012060c082815260e08290524660a0818152604080517f8b73c3c69bb8fe3d512ecc4cf759cc79239f7b179b0ffacaa9a75d522b39400f818901819052818301889052606082018790526080820194909452308184015281518082039093018352909301909252815191909401209193509190608052610100525050600d80546001600160a01b039095166001600160a01b03199586168117909155601980549095161790935550620001e691505062000347565b620001f06200035d565b6017546200020a906000906001600160a01b0316620004a8565b60175462000243907f0538d24a8b7882d7b2e36af243d4af61c23e86e3daa6cb8c887b53220b2f5720906001600160a01b0316620004a8565b6014546200027c907f048bc71fa1cb2c119c339cf9cf00a97996a19a9d991ce5fe049f2fa5459e7990906001600160a01b0316620004a8565b601554620002b5907ffa8e4989e1d689f7bc5c4b25b87efb51fecdecb19ba62847e29c759e12a89acd906001600160a01b0316620004a8565b601854620002ee907ff0f4b159a6e2a4815eb3ca3df080bfa70c9270662c59bcaa4479a456220183e6906001600160a01b0316620004a8565b6200031b7f7c9d7f6f02908185bffb3f7fc9afb29fd7bf93675af8fd4b655ee05c2cee1e0e6000620004a8565b5060165462000340906001600160a01b03166b02a652a5e57eeb9e3a400000620004eb565b50620010d3565b62000351620005e1565b6200035b6200084c565b565b601960009054906101000a90046001600160a01b03166001600160a01b031663ff7e88ec6040518163ffffffff1660e01b815260040160206040518083038186803b158015620003ac57600080fd5b505afa158015620003c1573d6000803e3d6000fd5b505050506040513d601f19601f82011682018060405250810190620003e7919062001011565b601960156101000a81548160ff021916908315150217905550601960009054906101000a90046001600160a01b03166001600160a01b0316632fb565856040518163ffffffff1660e01b815260040160206040518083038186803b1580156200044f57600080fd5b505afa15801562000464573d6000803e3d6000fd5b505050506040513d601f19601f820116820180604052508101906200048a919062001011565b60198054911515600160b01b0260ff60b01b19909216919091179055565b620004bf828262000be160201b620013031760201c565b6000828152600c60209081526040909120620004e69183906200130d62000bf1821b17901c565b505050565b6001600160a01b038216620005465760405162461bcd60e51b815260206004820152601f60248201527f45524332303a206d696e7420746f20746865207a65726f206164647265737300604482015260640160405180910390fd5b620005546000838362000c11565b806002600082825462000568919062001035565b90915550506001600160a01b038216600090815260208190526040812080548392906200059790849062001035565b90915550506040518181526001600160a01b038316906000907fddf252ad1be2c89b69c2b068fc378daa952ba7f163c4a11628f55a4df523b3ef9060200160405180910390a35050565b601960009054906101000a90046001600160a01b03166001600160a01b031663dadf56ac6040518163ffffffff1660e01b815260040160206040518083038186803b1580156200063057600080fd5b505afa15801562000645573d6000803e3d6000fd5b505050506040513d601f19601f820116820180604052508101906200066b919062000fdf565b601480546001600160a01b0319166001600160a01b039283161790556019546040805163024bebe960e01b81529051919092169163024bebe9916004808301926020929190829003018186803b158015620006c557600080fd5b505afa158015620006da573d6000803e3d6000fd5b505050506040513d601f19601f8201168201806040525081019062000700919062000fdf565b601580546001600160a01b0319166001600160a01b0392831617905560195460408051635b5c251f60e01b815290519190921691635b5c251f916004808301926020929190829003018186803b1580156200075a57600080fd5b505afa1580156200076f573d6000803e3d6000fd5b505050506040513d601f19601f8201168201806040525081019062000795919062000fdf565b601680546001600160a01b0319166001600160a01b0392831617905560195460408051637310bf1d60e11b81529051919092169163e6217e3a916004808301926020929190829003018186803b158015620007ef57600080fd5b505afa15801562000804573d6000803e3d6000fd5b505050506040513d601f19601f820116820180604052508101906200082a919062000fdf565b601880546001600160a01b0319166001600160a01b0392909216919091179055565b601960009054906101000a90046001600160a01b03166001600160a01b03166321d7f0086040518163ffffffff1660e01b815260040160206040518083038186803b1580156200089b57600080fd5b505afa158015620008b0573d6000803e3d6000fd5b505050506040513d601f19601f82011682018060405250810190620008d6919062000fdf565b600e80546001600160a01b0319166001600160a01b039283161790556019546040805163762ddb5960e01b81529051919092169163762ddb59916004808301926020929190829003018186803b1580156200093057600080fd5b505afa15801562000945573d6000803e3d6000fd5b505050506040513d601f19601f820116820180604052508101906200096b919062000fdf565b600f80546001600160a01b0319166001600160a01b039283161790556019546040805163bfb7dc9960e01b81529051919092169163bfb7dc99916004808301926020929190829003018186803b158015620009c557600080fd5b505afa158015620009da573d6000803e3d6000fd5b505050506040513d601f19601f8201168201806040525081019062000a00919062000fdf565b601080546001600160a01b0319166001600160a01b0392831617905560195460408051633e6111eb60e21b81529051919092169163f98447ac916004808301926020929190829003018186803b15801562000a5a57600080fd5b505afa15801562000a6f573d6000803e3d6000fd5b505050506040513d601f19601f8201168201806040525081019062000a95919062000fdf565b601180546001600160a01b0319166001600160a01b0392831617905560195460408051630fe1ba9f60e21b815290519190921691633f86ea7c916004808301926020929190829003018186803b15801562000aef57600080fd5b505afa15801562000b04573d6000803e3d6000fd5b505050506040513d601f19601f8201168201806040525081019062000b2a919062000fdf565b601280546001600160a01b0319166001600160a01b0392831617905560195460408051636b58477560e01b815290519190921691636b584775916004808301926020929190829003018186803b15801562000b8457600080fd5b505afa15801562000b99573d6000803e3d6000fd5b505050506040513d601f19601f8201168201806040525081019062000bbf919062000fdf565b601380546001600160a01b0319166001600160a01b0392909216919091179055565b62000bed828262000c7e565b5050565b600062000c08836001600160a01b03841662000d22565b90505b92915050565b601954600160c81b900460ff16801562000c345750601954600160a01b900460ff165b1562000c665733600090815260008051602062004ac6833981519152602052604090205460ff161562000c6657600080fd5b620004e683838362000d7460201b620013221760201c565b6000828152600b602090815260408083206001600160a01b038516845290915290205460ff1662000bed576000828152600b602090815260408083206001600160a01b03851684529091529020805460ff1916600117905562000cde3390565b6001600160a01b0316816001600160a01b0316837f2f8788117e7eff1d82e926ec794901d17c78024a50270940304540a733656f0d60405160405180910390a45050565b600081815260018301602052604081205462000d6b5750815460018181018455600084815260208082209093018490558454848252828601909352604090209190915562000c0b565b50600062000c0b565b601954600160c81b900460ff16801562000d975750601954600160a01b900460ff165b1562000dc95733600090815260008051602062004ac6833981519152602052604090205460ff161562000dc957600080fd5b620004e683838362000de160201b620013721760201c565b62000df9838383620004e660201b62000a731760201c565b6001600160a01b03831662000e1d5762000e138262000e48565b620004e662000e80565b6001600160a01b03821662000e375762000e138362000e48565b62000e428362000e48565b620004e6825b6001600160a01b0381166000908152600560209081526040808320918390529091205462000e7d919062000e90565b62000e90565b50565b6200035b600662000e7760025490565b600062000ea9600862000eec60201b620013ba1760201c565b90508062000eb78462000ef0565b1015620004e6578254600180820185556000858152602080822090930193909355938401805494850181558252902090910155565b5490565b805460009062000f0257506000919050565b8154829062000f149060019062001050565b8154811062000f275762000f27620010bd565b90600052602060002001549050919050565b82805462000f47906200106a565b90600052602060002090601f01602090048101928262000f6b576000855562000fb6565b82601f1062000f8657805160ff191683800117855562000fb6565b8280016001018555821562000fb6579182015b8281111562000fb657825182559160200191906001019062000f99565b5062000fc492915062000fc8565b5090565b5b8082111562000fc4576000815560010162000fc9565b60006020828403121562000ff257600080fd5b81516001600160a01b03811681146200100a57600080fd5b9392505050565b6000602082840312156200102457600080fd5b815180151581146200100a57600080fd5b600082198211156200104b576200104b620010a7565b500190565b600082821015620010655762001065620010a7565b500390565b600181811c908216806200107f57607f821691505b60208210811415620010a157634e487b7160e01b600052602260045260246000fd5b50919050565b634e487b7160e01b600052601160045260246000fd5b634e487b7160e01b600052603260045260246000fd5b60805160a05160c05160e05161010051610120516139a362001123600039600061113801526000612258015260006122a701526000612282015260006122060152600061222f01526139a36000f3fe608060405234801561001057600080fd5b50600436106103c55760003560e01c80636b584775116101ff578063b12655061161011a578063dd62ed3e116100ad578063f1132b301161007c578063f1132b3014610843578063f7d92d861461084b578063f98447ac14610853578063ff7e88ec1461086657600080fd5b8063dd62ed3e146107cf578063e6217e3a14610808578063e78c266c1461081b578063e9a532301461082e57600080fd5b8063cf4ece15116100e9578063cf4ece1514610781578063d505accf14610796578063d547741f146107a9578063dadf56ac146107bc57600080fd5b8063b126550614610732578063bfb7dc9914610746578063ca15c87314610759578063cce843921461076c57600080fd5b806395d89b4111610192578063a32c5e5911610161578063a32c5e59146106e3578063a457c2d7146106f8578063a78e746f1461070b578063a9059cbb1461071f57600080fd5b806395d89b41146106b85780639711715a146106c0578063981b24d0146106c8578063a217fddf146106db57600080fd5b80637ecebe00116101ce5780637ecebe001461066c5780639010d07c1461067f57806391d148541461069257806393dad6e7146106a557600080fd5b80636b5847751461060a57806370a082311461061d578063762ddb591461064657806379cc67901461065957600080fd5b8063329a8cfa116102ef5780634d84c6d8116102825780635b5c251f116102515780635b5c251f146105c95780635db531a1146105dc5780635f413466146105e457806368398887146105f757600080fd5b80634d84c6d8146105875780634ee2cd7e1461058f57806357f276ff146105a25780635a140696146105b557600080fd5b80633ab76e9f116102be5780633ab76e9f146105465780633f86ea7c1461055957806342966c681461056c57806349b5e1051461057f57600080fd5b8063329a8cfa146105105780633644e5151461051857806336568abe14610520578063395093511461053357600080fd5b806321d7f008116103675780632f2ff15d116103365780632f2ff15d146104d25780632fb56585146104e5578063313ce567146104f9578063326a55e01461050857600080fd5b806321d7f0081461047457806323b872dd146104875780632436329d1461049a578063248a9ca3146104af57600080fd5b8063095ea7b3116103a3578063095ea7b314610432578063130f63201461044557806317314d5a1461045a57806318160ddd1461046257600080fd5b806301ffc9a7146103ca578063024bebe9146103f257806306fdde031461041d575b600080fd5b6103dd6103d8366004613644565b61087a565b60405190151581526020015b60405180910390f35b601554610405906001600160a01b031681565b6040516001600160a01b0390911681526020016103e9565b6104256108a5565b6040516103e991906136fc565b6103dd61044036600461357e565b610937565b6104586104533660046135e4565b61094d565b005b61045861097a565b6002545b6040519081526020016103e9565b600e54610405906001600160a01b031681565b6103dd6104953660046134c6565b61099b565b6104666000805160206138ce83398151915281565b6104666104bd3660046135e4565b6000908152600b602052604090206001015490565b6104586104e03660046135fd565b610a51565b6019546103dd90600160b01b900460ff1681565b604051601281526020016103e9565b610458610a78565b610458610a8a565b610466610b93565b61045861052e3660046135fd565b610ba2565b6103dd61054136600461357e565b610bc4565b601954610405906001600160a01b031681565b601254610405906001600160a01b031681565b61045861057a3660046135e4565b610bfb565b610458610c05565b610458610a80565b61046661059d36600461357e565b610c0d565b6104586105b03660046135e4565b610c66565b6019546103dd90600160c01b900460ff1681565b601654610405906001600160a01b031681565b610458610c7a565b601754610405906001600160a01b031681565b6104586106053660046135aa565b610c82565b601354610405906001600160a01b031681565b61046661062b366004613453565b6001600160a01b031660009081526020819052604090205490565b600f54610405906001600160a01b031681565b61045861066736600461357e565b610d2f565b61046661067a366004613453565b610db2565b61040561068d366004613622565b610dd0565b6103dd6106a03660046135fd565b610def565b6104586106b33660046135aa565b610e1a565b610425610f2c565b610458610f3b565b6104666106d63660046135e4565b610ffa565b610466600081565b61046660008051602061392e83398151915281565b6103dd61070636600461357e565b611025565b6019546103dd90600160a01b900460ff1681565b6103dd61072d36600461357e565b6110c0565b6019546103dd90600160c81b900460ff1681565b601054610405906001600160a01b031681565b6104666107673660046135e4565b6110cd565b61046660008051602061394e83398151915281565b61046660008051602061390e83398151915281565b6104586107a4366004613507565b6110e4565b6104586107b73660046135fd565b611248565b601454610405906001600160a01b031681565b6104666107dd36600461348d565b6001600160a01b03918216600090815260016020908152604080832093909416825291909152205490565b601854610405906001600160a01b031681565b600d54610405906001600160a01b031681565b6104666000805160206138ee83398151915281565b610458611252565b61045861125a565b601154610405906001600160a01b031681565b6019546103dd90600160a81b900460ff1681565b60006001600160e01b03198216635a05180f60e01b148061089f575061089f826113be565b92915050565b6060600380546108b4906137d8565b80601f01602080910402602001604051908101604052809291908181526020018280546108e0906137d8565b801561092d5780601f106109025761010080835404028352916020019161092d565b820191906000526020600020905b81548152906001019060200180831161091057829003601f168201915b5050505050905090565b60006109443384846113f3565b50600192915050565b6109576001611518565b50610961816115cc565b5061096b8161173d565b506109766000611518565b5050565b6109846001611518565b5061098d6118c6565b506109986000611518565b50565b60006109a8848484611a0c565b6001600160a01b038416600090815260016020908152604080832033845290915290205482811015610a325760405162461bcd60e51b815260206004820152602860248201527f45524332303a207472616e7366657220616d6f756e74206578636565647320616044820152676c6c6f77616e636560c01b60648201526084015b60405180910390fd5b610a468533610a41868561377a565b6113f3565b506001949350505050565b610a5b8282611bef565b6000828152600c60205260409020610a73908261130d565b505050565b610a80611c2a565b610a88611e85565b565b610aa260008051602061392e83398151915233610def565b80610ac05750610ac06000805160206138ee83398151915233610def565b80610ade5750610ade6000805160206138ce83398151915233610def565b610b235760405162461bcd60e51b81526020600482015260166024820152752cb7ba93b932903737ba103a3432903130b4b634b33360511b6044820152606401610a29565b601960009054906101000a90046001600160a01b03166001600160a01b031663329a8cfa6040518163ffffffff1660e01b8152600401600060405180830381600087803b158015610b7357600080fd5b505af1158015610b87573d6000803e3d6000fd5b50505050610a88610c7a565b6000610b9d612202565b905090565b610bac82826122f5565b6000828152600c60205260409020610a73908261236f565b3360008181526001602090815260408083206001600160a01b03871684529091528120549091610944918590610a4190869061372f565b6109983382612384565b610a88611c2a565b6001600160a01b038216600090815260056020526040812081908190610c349085906124df565b9150915081610c5b576001600160a01b038516600090815260208190526040902054610c5d565b805b95945050505050565b610c706001611518565b5061096b816125d1565b610a8861282c565b610c9a6000805160206138ce83398151915233610def565b80610cb85750610cb860008051602061392e83398151915233610def565b610cfa5760405162461bcd60e51b8152602060048201526013602482015272596f75277265206e6f7420746865204a75727960681b6044820152606401610a29565b601954600160c01b900460ff1615610d1157600080fd5b60198054911515600160c81b0260ff60c81b19909216919091179055565b6000610d3b83336107dd565b905081811015610d995760405162461bcd60e51b8152602060048201526024808201527f45524332303a206275726e20616d6f756e74206578636565647320616c6c6f77604482015263616e636560e01b6064820152608401610a29565b610da88333610a41858561377a565b610a738383612384565b6001600160a01b03811660009081526009602052604081205461089f565b6000828152600c60205260408120610de8908361296f565b9392505050565b6000918252600b602090815260408084206001600160a01b0393909316845291905290205460ff1690565b610e326000805160206138ee83398151915233610def565b80610e505750610e506000805160206138ce83398151915233610def565b80610e6e5750610e6e60008051602061392e83398151915233610def565b610e7757600080fd5b601954600160b01b810460ff9081161515600160a81b9092041615151460011480610eb55750610eb560008051602061392e83398151915233610def565b610ef45760405162461bcd60e51b815260206004820152601060248201526f436f757274204d75737420416772656560801b6044820152606401610a29565b80158015610f0c5750601954600160c01b900460ff16155b610f1557600080fd5b506019805461ffff60c01b1916600160c01b179055565b6060600480546108b4906137d8565b610f5360008051602061392e83398151915233610def565b80610f715750610f716000805160206138ee83398151915233610def565b80610f8f5750610f8f6000805160206138ce83398151915233610def565b80610fad5750610fad60008051602061390e83398151915233610def565b610ff25760405162461bcd60e51b81526020600482015260166024820152752cb7ba93b932903737ba103a3432903130b4b634b33360511b6044820152606401610a29565b61099861297b565b600080600061100a8460066124df565b915091508161101b5760025461101d565b805b949350505050565b3360009081526001602090815260408083206001600160a01b0386168452909152812054828110156110a75760405162461bcd60e51b815260206004820152602560248201527f45524332303a2064656372656173656420616c6c6f77616e63652062656c6f77604482015264207a65726f60d81b6064820152608401610a29565b6110b63385610a41868561377a565b5060019392505050565b6000610944338484611a0c565b6000818152600c6020526040812061089f906129d6565b834211156111345760405162461bcd60e51b815260206004820152601d60248201527f45524332305065726d69743a206578706972656420646561646c696e650000006044820152606401610a29565b60007f00000000000000000000000000000000000000000000000000000000000000008888886111638c6129e0565b6040805160208101969096526001600160a01b0394851690860152929091166060840152608083015260a082015260c0810186905260e00160405160208183030381529060405280519060200120905060006111be82612a08565b905060006111ce82878787612a56565b9050896001600160a01b0316816001600160a01b0316146112315760405162461bcd60e51b815260206004820152601e60248201527f45524332305065726d69743a20696e76616c6964207369676e617475726500006044820152606401610a29565b61123c8a8a8a6113f3565b50505050505050505050565b610bac8282612bf6565b610a88612c31565b6112646001611518565b5061127c60008051602061392e8339815191526125d1565b506112946000805160206138ee8339815191526125d1565b506112ac6000805160206138ce8339815191526125d1565b506112c460008051602061390e8339815191526125d1565b506112dc60008051602061394e8339815191526125d1565b506112e760006125d1565b506112f061282c565b6112fa6000611518565b610a8857600080fd5b6109768282612d68565b6000610de8836001600160a01b038416612dee565b601954600160c81b900460ff1680156113445750601954600160a01b900460ff165b1561136b5761136160008051602061394e83398151915233610def565b1561136b57600080fd5b610a738383835b6001600160a01b0383166113915761138982612e3d565b610a73612e6f565b6001600160a01b0382166113a85761138983612e3d565b6113b183612e3d565b610a7382612e3d565b5490565b60006001600160e01b03198216637965db0b60e01b148061089f57506301ffc9a760e01b6001600160e01b031983161461089f565b6001600160a01b0383166114555760405162461bcd60e51b8152602060048201526024808201527f45524332303a20617070726f76652066726f6d20746865207a65726f206164646044820152637265737360e01b6064820152608401610a29565b6001600160a01b0382166114b65760405162461bcd60e51b815260206004820152602260248201527f45524332303a20617070726f766520746f20746865207a65726f206164647265604482015261737360f01b6064820152608401610a29565b6001600160a01b0383811660008181526001602090815260408083209487168084529482529182902085905590518481527f8c5be1e5ebec7d5bd14f71427d1e84f3dd0314c0f7b2291e5b200ac8c7c3b92591015b60405180910390a3505050565b600a5460009060ff1682151581151514156115755760405162461bcd60e51b815260206004820152601960248201527f416c72656164792053657420746f20746861742076616c7565000000000000006044820152606401610a29565b600a805484151560ff19909116811790915560ff16151581151514156109445760405162461bcd60e51b815260206004820152600c60248201526b29b0b33a32bc9022b93937b960a11b6044820152606401610a29565b60405163ca15c87360e01b8152600481018290526000908190309063ca15c8739060240160206040518083038186803b15801561160857600080fd5b505afa15801561161c573d6000803e3d6000fd5b505050506040513d601f19601f82011682018060405250810190611640919061366e565b905060005b818110156110b657604051632404341f60e21b815260048101859052602481018290526000903090639010d07c9060440160206040518083038186803b15801561168e57600080fd5b505afa1580156116a2573d6000803e3d6000fd5b505050506040513d601f19601f820116820180604052508101906116c69190613470565b60405163d547741f60e01b8152600481018790526001600160a01b0382166024820152909150309063d547741f90604401600060405180830381600087803b15801561171157600080fd5b505af1158015611725573d6000803e3d6000fd5b505050505080806117359061380d565b915050611645565b60195460405163ca15c87360e01b81526004810183905260009182916001600160a01b039091169063ca15c8739060240160206040518083038186803b15801561178657600080fd5b505afa15801561179a573d6000803e3d6000fd5b505050506040513d601f19601f820116820180604052508101906117be919061366e565b905060005b818110156110b657601954604051632404341f60e21b815260048101869052602481018390526000916001600160a01b031690639010d07c9060440160206040518083038186803b15801561181757600080fd5b505afa15801561182b573d6000803e3d6000fd5b505050506040513d601f19601f8201168201806040525081019061184f9190613470565b604051632f2ff15d60e01b8152600481018790526001600160a01b03821660248201529091503090632f2ff15d90604401600060405180830381600087803b15801561189a57600080fd5b505af11580156118ae573d6000803e3d6000fd5b505050505080806118be9061380d565b9150506117c3565b60006118df60008051602061392e8339815191526115cc565b506118f760008051602061392e83398151915261173d565b61190057600080fd5b6119176000805160206138ee8339815191526115cc565b5061192f6000805160206138ee83398151915261173d565b61193857600080fd5b61194f6000805160206138ce8339815191526115cc565b506119676000805160206138ce83398151915261173d565b61197057600080fd5b61198760008051602061390e8339815191526115cc565b5061199f60008051602061390e83398151915261173d565b6119a857600080fd5b6119bf60008051602061394e8339815191526115cc565b506119d760008051602061394e83398151915261173d565b6119e057600080fd5b6119ea60006115cc565b506119f5600061173d565b6119fe57600080fd5b611a0661282c565b50600190565b6001600160a01b038316611a705760405162461bcd60e51b815260206004820152602560248201527f45524332303a207472616e736665722066726f6d20746865207a65726f206164604482015264647265737360d81b6064820152608401610a29565b6001600160a01b038216611ad25760405162461bcd60e51b815260206004820152602360248201527f45524332303a207472616e7366657220746f20746865207a65726f206164647260448201526265737360e81b6064820152608401610a29565b611add838383612e7d565b6001600160a01b03831660009081526020819052604090205481811015611b555760405162461bcd60e51b815260206004820152602660248201527f45524332303a207472616e7366657220616d6f756e7420657863656564732062604482015265616c616e636560d01b6064820152608401610a29565b611b5f828261377a565b6001600160a01b038086166000908152602081905260408082209390935590851681529081208054849290611b9590849061372f565b92505081905550826001600160a01b0316846001600160a01b03167fddf252ad1be2c89b69c2b068fc378daa952ba7f163c4a11628f55a4df523b3ef84604051611be191815260200190565b60405180910390a350505050565b6000828152600b6020526040902060010154600a5460ff1615611c1657610a738383612d68565b611c208133612ed1565b610a738383612d68565b601960009054906101000a90046001600160a01b03166001600160a01b031663dadf56ac6040518163ffffffff1660e01b815260040160206040518083038186803b158015611c7857600080fd5b505afa158015611c8c573d6000803e3d6000fd5b505050506040513d601f19601f82011682018060405250810190611cb09190613470565b601480546001600160a01b0319166001600160a01b039283161790556019546040805163024bebe960e01b81529051919092169163024bebe9916004808301926020929190829003018186803b158015611d0957600080fd5b505afa158015611d1d573d6000803e3d6000fd5b505050506040513d601f19601f82011682018060405250810190611d419190613470565b601580546001600160a01b0319166001600160a01b0392831617905560195460408051635b5c251f60e01b815290519190921691635b5c251f916004808301926020929190829003018186803b158015611d9a57600080fd5b505afa158015611dae573d6000803e3d6000fd5b505050506040513d601f19601f82011682018060405250810190611dd29190613470565b601680546001600160a01b0319166001600160a01b0392831617905560195460408051637310bf1d60e11b81529051919092169163e6217e3a916004808301926020929190829003018186803b158015611e2b57600080fd5b505afa158015611e3f573d6000803e3d6000fd5b505050506040513d601f19601f82011682018060405250810190611e639190613470565b601880546001600160a01b0319166001600160a01b0392909216919091179055565b601960009054906101000a90046001600160a01b03166001600160a01b03166321d7f0086040518163ffffffff1660e01b815260040160206040518083038186803b158015611ed357600080fd5b505afa158015611ee7573d6000803e3d6000fd5b505050506040513d601f19601f82011682018060405250810190611f0b9190613470565b600e80546001600160a01b0319166001600160a01b039283161790556019546040805163762ddb5960e01b81529051919092169163762ddb59916004808301926020929190829003018186803b158015611f6457600080fd5b505afa158015611f78573d6000803e3d6000fd5b505050506040513d601f19601f82011682018060405250810190611f9c9190613470565b600f80546001600160a01b0319166001600160a01b039283161790556019546040805163bfb7dc9960e01b81529051919092169163bfb7dc99916004808301926020929190829003018186803b158015611ff557600080fd5b505afa158015612009573d6000803e3d6000fd5b505050506040513d601f19601f8201168201806040525081019061202d9190613470565b601080546001600160a01b0319166001600160a01b0392831617905560195460408051633e6111eb60e21b81529051919092169163f98447ac916004808301926020929190829003018186803b15801561208657600080fd5b505afa15801561209a573d6000803e3d6000fd5b505050506040513d601f19601f820116820180604052508101906120be9190613470565b601180546001600160a01b0319166001600160a01b0392831617905560195460408051630fe1ba9f60e21b815290519190921691633f86ea7c916004808301926020929190829003018186803b15801561211757600080fd5b505afa15801561212b573d6000803e3d6000fd5b505050506040513d601f19601f8201168201806040525081019061214f9190613470565b601280546001600160a01b0319166001600160a01b0392831617905560195460408051636b58477560e01b815290519190921691636b584775916004808301926020929190829003018186803b1580156121a857600080fd5b505afa1580156121bc573d6000803e3d6000fd5b505050506040513d601f19601f820116820180604052508101906121e09190613470565b601380546001600160a01b0319166001600160a01b0392909216919091179055565b60007f000000000000000000000000000000000000000000000000000000000000000046141561225157507f000000000000000000000000000000000000000000000000000000000000000090565b50604080517f00000000000000000000000000000000000000000000000000000000000000006020808301919091527f0000000000000000000000000000000000000000000000000000000000000000828401527f000000000000000000000000000000000000000000000000000000000000000060608301524660808301523060a0808401919091528351808403909101815260c0909201909252805191012090565b6001600160a01b03811633146123655760405162461bcd60e51b815260206004820152602f60248201527f416363657373436f6e74726f6c3a2063616e206f6e6c792072656e6f756e636560448201526e103937b632b9903337b91039b2b63360891b6064820152608401610a29565b6109768282612f35565b6000610de8836001600160a01b038416612f9c565b6001600160a01b0382166123e45760405162461bcd60e51b815260206004820152602160248201527f45524332303a206275726e2066726f6d20746865207a65726f206164647265736044820152607360f81b6064820152608401610a29565b6123f082600083612e7d565b6001600160a01b038216600090815260208190526040902054818110156124645760405162461bcd60e51b815260206004820152602260248201527f45524332303a206275726e20616d6f756e7420657863656564732062616c616e604482015261636560f01b6064820152608401610a29565b61246e828261377a565b6001600160a01b0384166000908152602081905260408120919091556002805484929061249c90849061377a565b90915550506040518281526000906001600160a01b038516907fddf252ad1be2c89b69c2b068fc378daa952ba7f163c4a11628f55a4df523b3ef9060200161150b565b6000806000841161252b5760405162461bcd60e51b815260206004820152601660248201527504552433230536e617073686f743a20696420697320360541b6044820152606401610a29565b60085484111561257d5760405162461bcd60e51b815260206004820152601d60248201527f4552433230536e617073686f743a206e6f6e6578697374656e742069640000006044820152606401610a29565b60006125898486613089565b84549091508114156125a25760008092509250506125ca565b60018460010182815481106125b9576125b961387e565b906000526020600020015492509250505b9250929050565b60195460405163ca15c87360e01b81526004810183905260009182916001600160a01b039091169063ca15c8739060240160206040518083038186803b15801561261a57600080fd5b505afa15801561262e573d6000803e3d6000fd5b505050506040513d601f19601f82011682018060405250810190612652919061366e565b60405163ca15c87360e01b815260048101859052909150600090309063ca15c8739060240160206040518083038186803b15801561268f57600080fd5b505afa1580156126a3573d6000803e3d6000fd5b505050506040513d601f19601f820116820180604052508101906126c7919061366e565b905060006126d5828461377a565b90506000811161271a5760405162461bcd60e51b815260206004820152601060248201526f4e6f7468696e6720746f2073796e632160801b6044820152606401610a29565b60005b8181101561282057601954604051632404341f60e21b815260048101889052602481018390526000916001600160a01b031690639010d07c9060440160206040518083038186803b15801561277157600080fd5b505afa158015612785573d6000803e3d6000fd5b505050506040513d601f19601f820116820180604052508101906127a99190613470565b604051632f2ff15d60e01b8152600481018990526001600160a01b03821660248201529091503090632f2ff15d90604401600060405180830381600087803b1580156127f457600080fd5b505af1158015612808573d6000803e3d6000fd5b505050505080806128189061380d565b91505061271d565b50600195945050505050565b601960009054906101000a90046001600160a01b03166001600160a01b031663ff7e88ec6040518163ffffffff1660e01b815260040160206040518083038186803b15801561287a57600080fd5b505afa15801561288e573d6000803e3d6000fd5b505050506040513d601f19601f820116820180604052508101906128b291906135c7565b601960156101000a81548160ff021916908315150217905550601960009054906101000a90046001600160a01b03166001600160a01b0316632fb565856040518163ffffffff1660e01b815260040160206040518083038186803b15801561291957600080fd5b505afa15801561292d573d6000803e3d6000fd5b505050506040513d601f19601f8201168201806040525081019061295191906135c7565b60198054911515600160b01b0260ff60b01b19909216919091179055565b6000610de8838361314c565b600061298b600880546001019055565b600061299660085490565b90507f8030e83b04d87bef53480e26263266d6ca66863aa8506aca6f2559d18aa1cb67816040516129c991815260200190565b60405180910390a1919050565b600061089f825490565b6001600160a01b03811660009081526009602052604090208054600181018255905b50919050565b600061089f612a15612202565b8360405161190160f01b6020820152602281018390526042810182905260009060620160405160208183030381529060405280519060200120905092915050565b60007f7fffffffffffffffffffffffffffffff5d576e7357a4501ddfe92f46681b20a0821115612ad35760405162461bcd60e51b815260206004820152602260248201527f45434453413a20696e76616c6964207369676e6174757265202773272076616c604482015261756560f01b6064820152608401610a29565b8360ff16601b1480612ae857508360ff16601c145b612b3f5760405162461bcd60e51b815260206004820152602260248201527f45434453413a20696e76616c6964207369676e6174757265202776272076616c604482015261756560f01b6064820152608401610a29565b6040805160008082526020820180845288905260ff871692820192909252606081018590526080810184905260019060a0016020604051602081039080840390855afa158015612b93573d6000803e3d6000fd5b5050604051601f1901519150506001600160a01b038116610c5d5760405162461bcd60e51b815260206004820152601860248201527f45434453413a20696e76616c6964207369676e617475726500000000000000006044820152606401610a29565b6000828152600b6020526040902060010154600a5460ff1615612c1d57610a738383612f35565b612c278133612ed1565b610a738383612f35565b601960009054906101000a90046001600160a01b03166001600160a01b031663a44b93256040518163ffffffff1660e01b815260040160206040518083038186803b158015612c7f57600080fd5b505afa158015612c93573d6000803e3d6000fd5b505050506040513d601f19601f82011682018060405250810190612cb791906135c7565b612cc057600080fd5b601960009054906101000a90046001600160a01b03166001600160a01b031663ac7cfac36040518163ffffffff1660e01b815260040160206040518083038186803b158015612d0e57600080fd5b505afa158015612d22573d6000803e3d6000fd5b505050506040513d601f19601f82011682018060405250810190612d469190613470565b600d80546001600160a01b0319166001600160a01b0392909216919091179055565b612d728282610def565b610976576000828152600b602090815260408083206001600160a01b03851684529091529020805460ff19166001179055612daa3390565b6001600160a01b0316816001600160a01b0316837f2f8788117e7eff1d82e926ec794901d17c78024a50270940304540a733656f0d60405160405180910390a45050565b6000818152600183016020526040812054612e355750815460018181018455600084815260208082209093018490558454848252828601909352604090209190915561089f565b50600061089f565b6001600160a01b0381166000908152600560209081526040808320918390529091205461099891906131d2565b6131d2565b610a886006612e6a60025490565b601954600160c81b900460ff168015612e9f5750601954600160a01b900460ff165b15612ec657612ebc60008051602061394e83398151915233610def565b15612ec657600080fd5b610a73838383611322565b612edb8282610def565b61097657612ef3816001600160a01b0316601461321d565b612efe83602061321d565b604051602001612f0f929190613687565b60408051601f198184030181529082905262461bcd60e51b8252610a29916004016136fc565b612f3f8282610def565b15610976576000828152600b602090815260408083206001600160a01b0385168085529252808320805460ff1916905551339285917ff6391f5c32d9c69d2a47ea670b442974b53935d1edc7fd64eb21e047a839171b9190a45050565b6000818152600183016020526040812054801561307f576000612fc060018361377a565b8554909150600090612fd49060019061377a565b90506000866000018281548110612fed57612fed61387e565b90600052602060002001549050808760000184815481106130105761301061387e565b60009182526020808320909101929092558281526001890190915260409020849055865487908061304357613043613868565b6001900381819060005260206000200160009055905586600101600087815260200190815260200160002060009055600194505050505061089f565b600091505061089f565b815460009061309a5750600061089f565b82546000905b808210156130f65760006130b483836133b9565b9050848682815481106130c9576130c961387e565b906000526020600020015411156130e2578091506130f0565b6130ed81600161372f565b92505b506130a0565b60008211801561312b5750838561310e60018561377a565b8154811061311e5761311e61387e565b9060005260206000200154145b156131445761313b60018361377a565b9250505061089f565b50905061089f565b815460009082106131aa5760405162461bcd60e51b815260206004820152602260248201527f456e756d657261626c655365743a20696e646578206f7574206f6620626f756e604482015261647360f01b6064820152608401610a29565b8260000182815481106131bf576131bf61387e565b9060005260206000200154905092915050565b60006131dd60085490565b9050806131e984613410565b1015610a73578254600180820185556000858152602080822090930193909355938401805494850181558252902090910155565b6060600061322c83600261375b565b61323790600261372f565b67ffffffffffffffff81111561324f5761324f613894565b6040519080825280601f01601f191660200182016040528015613279576020820181803683370190505b509050600360fc1b816000815181106132945761329461387e565b60200101906001600160f81b031916908160001a905350600f60fb1b816001815181106132c3576132c361387e565b60200101906001600160f81b031916908160001a90535060006132e784600261375b565b6132f290600161372f565b90505b600181111561336a576f181899199a1a9b1b9c1cb0b131b232b360811b85600f16601081106133265761332661387e565b1a60f81b82828151811061333c5761333c61387e565b60200101906001600160f81b031916908160001a90535060049490941c93613363816137c1565b90506132f5565b508315610de85760405162461bcd60e51b815260206004820181905260248201527f537472696e67733a20686578206c656e67746820696e73756666696369656e746044820152606401610a29565b600060026133c78184613828565b6133d2600286613828565b6133dc919061372f565b6133e69190613747565b6133f1600284613747565b6133fc600286613747565b613406919061372f565b610de8919061372f565b805460009061342157506000919050565b815482906134319060019061377a565b815481106134415761344161387e565b90600052602060002001549050919050565b60006020828403121561346557600080fd5b8135610de8816138aa565b60006020828403121561348257600080fd5b8151610de8816138aa565b600080604083850312156134a057600080fd5b82356134ab816138aa565b915060208301356134bb816138aa565b809150509250929050565b6000806000606084860312156134db57600080fd5b83356134e6816138aa565b925060208401356134f6816138aa565b929592945050506040919091013590565b600080600080600080600060e0888a03121561352257600080fd5b873561352d816138aa565b9650602088013561353d816138aa565b95506040880135945060608801359350608088013560ff8116811461356157600080fd5b9699959850939692959460a0840135945060c09093013592915050565b6000806040838503121561359157600080fd5b823561359c816138aa565b946020939093013593505050565b6000602082840312156135bc57600080fd5b8135610de8816138bf565b6000602082840312156135d957600080fd5b8151610de8816138bf565b6000602082840312156135f657600080fd5b5035919050565b6000806040838503121561361057600080fd5b8235915060208301356134bb816138aa565b6000806040838503121561363557600080fd5b50508035926020909101359150565b60006020828403121561365657600080fd5b81356001600160e01b031981168114610de857600080fd5b60006020828403121561368057600080fd5b5051919050565b7f416363657373436f6e74726f6c3a206163636f756e74200000000000000000008152600083516136bf816017850160208801613791565b7001034b99036b4b9b9b4b733903937b6329607d1b60179184019182015283516136f0816028840160208801613791565b01602801949350505050565b602081526000825180602084015261371b816040850160208701613791565b601f01601f19169190910160400192915050565b600082198211156137425761374261383c565b500190565b60008261375657613756613852565b500490565b60008160001904831182151516156137755761377561383c565b500290565b60008282101561378c5761378c61383c565b500390565b60005b838110156137ac578181015183820152602001613794565b838111156137bb576000848401525b50505050565b6000816137d0576137d061383c565b506000190190565b600181811c908216806137ec57607f821691505b60208210811415612a0257634e487b7160e01b600052602260045260246000fd5b60006000198214156138215761382161383c565b5060010190565b60008261383757613837613852565b500690565b634e487b7160e01b600052601160045260246000fd5b634e487b7160e01b600052601260045260246000fd5b634e487b7160e01b600052603160045260246000fd5b634e487b7160e01b600052603260045260246000fd5b634e487b7160e01b600052604160045260246000fd5b6001600160a01b038116811461099857600080fd5b801515811461099857600080fdfefa8e4989e1d689f7bc5c4b25b87efb51fecdecb19ba62847e29c759e12a89acd048bc71fa1cb2c119c339cf9cf00a97996a19a9d991ce5fe049f2fa5459e7990f0f4b159a6e2a4815eb3ca3df080bfa70c9270662c59bcaa4479a456220183e60538d24a8b7882d7b2e36af243d4af61c23e86e3daa6cb8c887b53220b2f57207c9d7f6f02908185bffb3f7fc9afb29fd7bf93675af8fd4b655ee05c2cee1e0ea2646970667358221220d5ea179081aaa8b94d0310407553302a6bdcffc96189558e1d283aca8cbe567964736f6c63430008060033af6764c545b730f8406272d3c433b26bc54d4e183d20d8b2ddd26b7c92f55547",
  "immutableReferences": {
    "7512": [
      {
        "length": 32,
        "start": 4408
      }
    ],
    "9855": [
      {
        "length": 32,
        "start": 8751
      }
    ],
    "9857": [
      {
        "length": 32,
        "start": 8710
      }
    ],
    "9859": [
      {
        "length": 32,
        "start": 8834
      }
    ],
    "9861": [
      {
        "length": 32,
        "start": 8871
      }
    ],
    "9863": [
      {
        "length": 32,
        "start": 8792
      }
    ]
  },
  "source": "// Disclaimer: I have literally no idea what I'm doing so take that as you will.\n// Now that thats out of the way, feel free to help improve this!\n\npragma solidity ^0.8.0;\n\nimport \"@openzeppelin/contracts/token/ERC20/ERC20.sol\";\nimport \"@openzeppelin/contracts/token/ERC20/extensions/ERC20Snapshot.sol\";\nimport \"@openzeppelin/contracts/token/ERC20/extensions/draft-ERC20Permit.sol\";\nimport \"@openzeppelin/contracts/token/ERC20/extensions/ERC20Burnable.sol\";\nimport \"../src/SmartConsensusMachine.sol\";\nimport \"../src/ERC20/JerkSanctions.sol\";\n\n// Token features:\n// Snapshot for governance and distrubutions\n// Burnable\n// Fixed Supply\n// Gassless Permit (Draft EIP)\n\ncontract RedPens is ERC20, ERC20Snapshot, ERC20Permit, ERC20Burnable, SmartConsensusMachine, JerkSanctions {\n\n    constructor(address _AddressManagerAddress) ERC20(\"Red Pens\", \"!RED\") ERC20Permit(\"Red Pens\") SmartConsensusMachine(_AddressManagerAddress) {\n    \n        _mint(TreasuryAddress, 820042000 * 10 ** 18); // Mint the entire token supply\n    }\n\n    function _beforeTokenTransfer(address from, address to, uint256 amount)\n        internal\n        override(ERC20, ERC20Snapshot, JerkSanctions)\n    {\n        if (jerkSanctionsLocal && jerkSanctions) {\n           require(!hasRole(JERK_ROLE, msg.sender)); \n        }\n        super._beforeTokenTransfer(from, to, amount);\n    }\n\n}\n\n    ",
  "sourcePath": "/home/n/Desktop/PinkSlips_FrontEnd_REFORMAT (copy)/contracts/govTokens/RedPens.sol",
  "compiler": {
    "name": "solc",
    "version": "0.8.6+commit.11564f7e.Emscripten.clang"
  },
  "schemaVersion": "3.4.1",
  "updatedAt": "2021-08-08T03:03:57.528Z",
  "networkType": "ethereum",
  "devdoc": {
    "kind": "dev",
    "methods": {
      "DOMAIN_SEPARATOR()": {
        "details": "See {IERC20Permit-DOMAIN_SEPARATOR}."
      },
      "allowance(address,address)": {
        "details": "See {IERC20-allowance}."
      },
      "approve(address,uint256)": {
        "details": "See {IERC20-approve}. Requirements: - `spender` cannot be the zero address."
      },
      "balanceOf(address)": {
        "details": "See {IERC20-balanceOf}."
      },
      "balanceOfAt(address,uint256)": {
        "details": "Retrieves the balance of `account` at the time `snapshotId` was created."
      },
      "burn(uint256)": {
        "details": "Destroys `amount` tokens from the caller. See {ERC20-_burn}."
      },
      "burnFrom(address,uint256)": {
        "details": "Destroys `amount` tokens from `account`, deducting from the caller's allowance. See {ERC20-_burn} and {ERC20-allowance}. Requirements: - the caller must have allowance for ``accounts``'s tokens of at least `amount`."
      },
      "decimals()": {
        "details": "Returns the number of decimals used to get its user representation. For example, if `decimals` equals `2`, a balance of `505` tokens should be displayed to a user as `5,05` (`505 / 10 ** 2`). Tokens usually opt for a value of 18, imitating the relationship between Ether and Wei. This is the value {ERC20} uses, unless this function is overridden; NOTE: This information is only used for _display_ purposes: it in no way affects any of the arithmetic of the contract, including {IERC20-balanceOf} and {IERC20-transfer}."
      },
      "decreaseAllowance(address,uint256)": {
        "details": "Atomically decreases the allowance granted to `spender` by the caller. This is an alternative to {approve} that can be used as a mitigation for problems described in {IERC20-approve}. Emits an {Approval} event indicating the updated allowance. Requirements: - `spender` cannot be the zero address. - `spender` must have allowance for the caller of at least `subtractedValue`."
      },
      "getRoleAdmin(bytes32)": {
        "details": "Returns the admin role that controls `role`. See {grantRole} and {revokeRole}. To change a role's admin, use {_setRoleAdmin}."
      },
      "getRoleMember(bytes32,uint256)": {
        "details": "Returns one of the accounts that have `role`. `index` must be a value between 0 and {getRoleMemberCount}, non-inclusive. Role bearers are not sorted in any particular way, and their ordering may change at any point. WARNING: When using {getRoleMember} and {getRoleMemberCount}, make sure you perform all queries on the same block. See the following https://forum.openzeppelin.com/t/iterating-over-elements-on-enumerableset-in-openzeppelin-contracts/2296[forum post] for more information."
      },
      "getRoleMemberCount(bytes32)": {
        "details": "Returns the number of accounts that have `role`. Can be used together with {getRoleMember} to enumerate all bearers of a role."
      },
      "grantRole(bytes32,address)": {
        "details": "Overload {grantRole} to track enumerable memberships"
      },
      "hasRole(bytes32,address)": {
        "details": "Returns `true` if `account` has been granted `role`."
      },
      "increaseAllowance(address,uint256)": {
        "details": "Atomically increases the allowance granted to `spender` by the caller. This is an alternative to {approve} that can be used as a mitigation for problems described in {IERC20-approve}. Emits an {Approval} event indicating the updated allowance. Requirements: - `spender` cannot be the zero address."
      },
      "name()": {
        "details": "Returns the name of the token."
      },
      "nonces(address)": {
        "details": "See {IERC20Permit-nonces}."
      },
      "permit(address,address,uint256,uint256,uint8,bytes32,bytes32)": {
        "details": "See {IERC20Permit-permit}."
      },
      "renounceRole(bytes32,address)": {
        "details": "Overload {renounceRole} to track enumerable memberships"
      },
      "revokeRole(bytes32,address)": {
        "details": "Overload {revokeRole} to track enumerable memberships"
      },
      "supportsInterface(bytes4)": {
        "details": "See {IERC165-supportsInterface}."
      },
      "symbol()": {
        "details": "Returns the symbol of the token, usually a shorter version of the name."
      },
      "totalSupply()": {
        "details": "See {IERC20-totalSupply}."
      },
      "totalSupplyAt(uint256)": {
        "details": "Retrieves the total supply at the time `snapshotId` was created."
      },
      "transfer(address,uint256)": {
        "details": "See {IERC20-transfer}. Requirements: - `recipient` cannot be the zero address. - the caller must have a balance of at least `amount`."
      },
      "transferFrom(address,address,uint256)": {
        "details": "See {IERC20-transferFrom}. Emits an {Approval} event indicating the updated allowance. This is not required by the EIP. See the note at the beginning of {ERC20}. Requirements: - `sender` and `recipient` cannot be the zero address. - `sender` must have a balance of at least `amount`. - the caller must have allowance for ``sender``'s tokens of at least `amount`."
      }
    },
    "version": 1
  },
  "userdoc": {
    "kind": "user",
    "methods": {},
    "version": 1
  }
}