{
  "contractName": "RedPens",
  "abi": [
    {
      "inputs": [
        {
          "internalType": "address",
          "name": "_AddressManagerAddress",
          "type": "address"
        }
      ],
      "stateMutability": "nonpayable",
      "type": "constructor"
    },
    {
      "anonymous": false,
      "inputs": [
        {
          "indexed": true,
          "internalType": "address",
          "name": "owner",
          "type": "address"
        },
        {
          "indexed": true,
          "internalType": "address",
          "name": "spender",
          "type": "address"
        },
        {
          "indexed": false,
          "internalType": "uint256",
          "name": "value",
          "type": "uint256"
        }
      ],
      "name": "Approval",
      "type": "event"
    },
    {
      "anonymous": false,
      "inputs": [
        {
          "indexed": true,
          "internalType": "bytes32",
          "name": "role",
          "type": "bytes32"
        },
        {
          "indexed": true,
          "internalType": "bytes32",
          "name": "previousAdminRole",
          "type": "bytes32"
        },
        {
          "indexed": true,
          "internalType": "bytes32",
          "name": "newAdminRole",
          "type": "bytes32"
        }
      ],
      "name": "RoleAdminChanged",
      "type": "event"
    },
    {
      "anonymous": false,
      "inputs": [
        {
          "indexed": true,
          "internalType": "bytes32",
          "name": "role",
          "type": "bytes32"
        },
        {
          "indexed": true,
          "internalType": "address",
          "name": "account",
          "type": "address"
        },
        {
          "indexed": true,
          "internalType": "address",
          "name": "sender",
          "type": "address"
        }
      ],
      "name": "RoleGranted",
      "type": "event"
    },
    {
      "anonymous": false,
      "inputs": [
        {
          "indexed": true,
          "internalType": "bytes32",
          "name": "role",
          "type": "bytes32"
        },
        {
          "indexed": true,
          "internalType": "address",
          "name": "account",
          "type": "address"
        },
        {
          "indexed": true,
          "internalType": "address",
          "name": "sender",
          "type": "address"
        }
      ],
      "name": "RoleRevoked",
      "type": "event"
    },
    {
      "anonymous": false,
      "inputs": [
        {
          "indexed": false,
          "internalType": "uint256",
          "name": "id",
          "type": "uint256"
        }
      ],
      "name": "Snapshot",
      "type": "event"
    },
    {
      "anonymous": false,
      "inputs": [
        {
          "indexed": true,
          "internalType": "address",
          "name": "from",
          "type": "address"
        },
        {
          "indexed": true,
          "internalType": "address",
          "name": "to",
          "type": "address"
        },
        {
          "indexed": false,
          "internalType": "uint256",
          "name": "value",
          "type": "uint256"
        }
      ],
      "name": "Transfer",
      "type": "event"
    },
    {
      "inputs": [],
      "name": "AddressManagerAddress",
      "outputs": [
        {
          "internalType": "address",
          "name": "",
          "type": "address"
        }
      ],
      "stateMutability": "view",
      "type": "function",
      "constant": true
    },
    {
      "inputs": [],
      "name": "ChadBadgeAddress",
      "outputs": [
        {
          "internalType": "address",
          "name": "",
          "type": "address"
        }
      ],
      "stateMutability": "view",
      "type": "function",
      "constant": true
    },
    {
      "inputs": [],
      "name": "ColoredIDAddress",
      "outputs": [
        {
          "internalType": "address",
          "name": "",
          "type": "address"
        }
      ],
      "stateMutability": "view",
      "type": "function",
      "constant": true
    },
    {
      "inputs": [],
      "name": "CourtClerk",
      "outputs": [
        {
          "internalType": "address",
          "name": "",
          "type": "address"
        }
      ],
      "stateMutability": "view",
      "type": "function",
      "constant": true
    },
    {
      "inputs": [],
      "name": "DEFAULT_ADMIN_ROLE",
      "outputs": [
        {
          "internalType": "bytes32",
          "name": "",
          "type": "bytes32"
        }
      ],
      "stateMutability": "view",
      "type": "function",
      "constant": true
    },
    {
      "inputs": [],
      "name": "DOMAIN_SEPARATOR",
      "outputs": [
        {
          "internalType": "bytes32",
          "name": "",
          "type": "bytes32"
        }
      ],
      "stateMutability": "view",
      "type": "function",
      "constant": true
    },
    {
      "inputs": [],
      "name": "GAVELS_BAILIFF",
      "outputs": [
        {
          "internalType": "bytes32",
          "name": "",
          "type": "bytes32"
        }
      ],
      "stateMutability": "view",
      "type": "function",
      "constant": true
    },
    {
      "inputs": [],
      "name": "GavelDAOAgent",
      "outputs": [
        {
          "internalType": "address",
          "name": "",
          "type": "address"
        }
      ],
      "stateMutability": "view",
      "type": "function",
      "constant": true
    },
    {
      "inputs": [],
      "name": "GavelTokenAddress",
      "outputs": [
        {
          "internalType": "address",
          "name": "",
          "type": "address"
        }
      ],
      "stateMutability": "view",
      "type": "function",
      "constant": true
    },
    {
      "inputs": [],
      "name": "GavelVote",
      "outputs": [
        {
          "internalType": "bool",
          "name": "",
          "type": "bool"
        }
      ],
      "stateMutability": "view",
      "type": "function",
      "constant": true
    },
    {
      "inputs": [],
      "name": "GoldStarAddress",
      "outputs": [
        {
          "internalType": "address",
          "name": "",
          "type": "address"
        }
      ],
      "stateMutability": "view",
      "type": "function",
      "constant": true
    },
    {
      "inputs": [],
      "name": "JERK_ROLE",
      "outputs": [
        {
          "internalType": "bytes32",
          "name": "",
          "type": "bytes32"
        }
      ],
      "stateMutability": "view",
      "type": "function",
      "constant": true
    },
    {
      "inputs": [],
      "name": "JURY_BAILIFF",
      "outputs": [
        {
          "internalType": "bytes32",
          "name": "",
          "type": "bytes32"
        }
      ],
      "stateMutability": "view",
      "type": "function",
      "constant": true
    },
    {
      "inputs": [],
      "name": "JuryDAOAgent",
      "outputs": [
        {
          "internalType": "address",
          "name": "",
          "type": "address"
        }
      ],
      "stateMutability": "view",
      "type": "function",
      "constant": true
    },
    {
      "inputs": [],
      "name": "JuryPoolAddress",
      "outputs": [
        {
          "internalType": "address",
          "name": "",
          "type": "address"
        }
      ],
      "stateMutability": "view",
      "type": "function",
      "constant": true
    },
    {
      "inputs": [],
      "name": "JuryVote",
      "outputs": [
        {
          "internalType": "bool",
          "name": "",
          "type": "bool"
        }
      ],
      "stateMutability": "view",
      "type": "function",
      "constant": true
    },
    {
      "inputs": [],
      "name": "MINI_BAILIFF_ROLE",
      "outputs": [
        {
          "internalType": "bytes32",
          "name": "",
          "type": "bytes32"
        }
      ],
      "stateMutability": "view",
      "type": "function",
      "constant": true
    },
    {
      "inputs": [],
      "name": "MiniBailiff",
      "outputs": [
        {
          "internalType": "address",
          "name": "",
          "type": "address"
        }
      ],
      "stateMutability": "view",
      "type": "function",
      "constant": true
    },
    {
      "inputs": [],
      "name": "PinkSlipAddress",
      "outputs": [
        {
          "internalType": "address",
          "name": "",
          "type": "address"
        }
      ],
      "stateMutability": "view",
      "type": "function",
      "constant": true
    },
    {
      "inputs": [],
      "name": "RedPenTokenAddress",
      "outputs": [
        {
          "internalType": "address",
          "name": "",
          "type": "address"
        }
      ],
      "stateMutability": "view",
      "type": "function",
      "constant": true
    },
    {
      "inputs": [],
      "name": "SANCTIONS_FOREVER_DISABLED",
      "outputs": [
        {
          "internalType": "bool",
          "name": "",
          "type": "bool"
        }
      ],
      "stateMutability": "view",
      "type": "function",
      "constant": true
    },
    {
      "inputs": [],
      "name": "THE_COURT_ROLE",
      "outputs": [
        {
          "internalType": "bytes32",
          "name": "",
          "type": "bytes32"
        }
      ],
      "stateMutability": "view",
      "type": "function",
      "constant": true
    },
    {
      "inputs": [],
      "name": "TheCourtAddress",
      "outputs": [
        {
          "internalType": "address",
          "name": "",
          "type": "address"
        }
      ],
      "stateMutability": "view",
      "type": "function",
      "constant": true
    },
    {
      "inputs": [],
      "name": "TreasuryAddress",
      "outputs": [
        {
          "internalType": "address",
          "name": "",
          "type": "address"
        }
      ],
      "stateMutability": "view",
      "type": "function",
      "constant": true
    },
    {
      "inputs": [],
      "name": "addressManager",
      "outputs": [
        {
          "internalType": "contract AddressManager",
          "name": "",
          "type": "address"
        }
      ],
      "stateMutability": "view",
      "type": "function",
      "constant": true
    },
    {
      "inputs": [
        {
          "internalType": "address",
          "name": "owner",
          "type": "address"
        },
        {
          "internalType": "address",
          "name": "spender",
          "type": "address"
        }
      ],
      "name": "allowance",
      "outputs": [
        {
          "internalType": "uint256",
          "name": "",
          "type": "uint256"
        }
      ],
      "stateMutability": "view",
      "type": "function",
      "constant": true
    },
    {
      "inputs": [
        {
          "internalType": "address",
          "name": "spender",
          "type": "address"
        },
        {
          "internalType": "uint256",
          "name": "amount",
          "type": "uint256"
        }
      ],
      "name": "approve",
      "outputs": [
        {
          "internalType": "bool",
          "name": "",
          "type": "bool"
        }
      ],
      "stateMutability": "nonpayable",
      "type": "function"
    },
    {
      "inputs": [
        {
          "internalType": "address",
          "name": "account",
          "type": "address"
        }
      ],
      "name": "balanceOf",
      "outputs": [
        {
          "internalType": "uint256",
          "name": "",
          "type": "uint256"
        }
      ],
      "stateMutability": "view",
      "type": "function",
      "constant": true
    },
    {
      "inputs": [
        {
          "internalType": "address",
          "name": "account",
          "type": "address"
        },
        {
          "internalType": "uint256",
          "name": "snapshotId",
          "type": "uint256"
        }
      ],
      "name": "balanceOfAt",
      "outputs": [
        {
          "internalType": "uint256",
          "name": "",
          "type": "uint256"
        }
      ],
      "stateMutability": "view",
      "type": "function",
      "constant": true
    },
    {
      "inputs": [
        {
          "internalType": "uint256",
          "name": "amount",
          "type": "uint256"
        }
      ],
      "name": "burn",
      "outputs": [],
      "stateMutability": "nonpayable",
      "type": "function"
    },
    {
      "inputs": [
        {
          "internalType": "address",
          "name": "account",
          "type": "address"
        },
        {
          "internalType": "uint256",
          "name": "amount",
          "type": "uint256"
        }
      ],
      "name": "burnFrom",
      "outputs": [],
      "stateMutability": "nonpayable",
      "type": "function"
    },
    {
      "inputs": [],
      "name": "decimals",
      "outputs": [
        {
          "internalType": "uint8",
          "name": "",
          "type": "uint8"
        }
      ],
      "stateMutability": "view",
      "type": "function",
      "constant": true
    },
    {
      "inputs": [
        {
          "internalType": "address",
          "name": "spender",
          "type": "address"
        },
        {
          "internalType": "uint256",
          "name": "subtractedValue",
          "type": "uint256"
        }
      ],
      "name": "decreaseAllowance",
      "outputs": [
        {
          "internalType": "bool",
          "name": "",
          "type": "bool"
        }
      ],
      "stateMutability": "nonpayable",
      "type": "function"
    },
    {
      "inputs": [
        {
          "internalType": "bool",
          "name": "safteySwitch",
          "type": "bool"
        }
      ],
      "name": "foreverDisableJerkSanctions",
      "outputs": [],
      "stateMutability": "nonpayable",
      "type": "function"
    },
    {
      "inputs": [
        {
          "internalType": "bytes32",
          "name": "role",
          "type": "bytes32"
        }
      ],
      "name": "getRoleAdmin",
      "outputs": [
        {
          "internalType": "bytes32",
          "name": "",
          "type": "bytes32"
        }
      ],
      "stateMutability": "view",
      "type": "function",
      "constant": true
    },
    {
      "inputs": [
        {
          "internalType": "bytes32",
          "name": "role",
          "type": "bytes32"
        },
        {
          "internalType": "uint256",
          "name": "index",
          "type": "uint256"
        }
      ],
      "name": "getRoleMember",
      "outputs": [
        {
          "internalType": "address",
          "name": "",
          "type": "address"
        }
      ],
      "stateMutability": "view",
      "type": "function",
      "constant": true
    },
    {
      "inputs": [
        {
          "internalType": "bytes32",
          "name": "role",
          "type": "bytes32"
        }
      ],
      "name": "getRoleMemberCount",
      "outputs": [
        {
          "internalType": "uint256",
          "name": "",
          "type": "uint256"
        }
      ],
      "stateMutability": "view",
      "type": "function",
      "constant": true
    },
    {
      "inputs": [
        {
          "internalType": "bytes32",
          "name": "role",
          "type": "bytes32"
        },
        {
          "internalType": "address",
          "name": "account",
          "type": "address"
        }
      ],
      "name": "grantRole",
      "outputs": [],
      "stateMutability": "nonpayable",
      "type": "function"
    },
    {
      "inputs": [
        {
          "internalType": "bytes32",
          "name": "role",
          "type": "bytes32"
        },
        {
          "internalType": "address",
          "name": "account",
          "type": "address"
        }
      ],
      "name": "hasRole",
      "outputs": [
        {
          "internalType": "bool",
          "name": "",
          "type": "bool"
        }
      ],
      "stateMutability": "view",
      "type": "function",
      "constant": true
    },
    {
      "inputs": [
        {
          "internalType": "address",
          "name": "spender",
          "type": "address"
        },
        {
          "internalType": "uint256",
          "name": "addedValue",
          "type": "uint256"
        }
      ],
      "name": "increaseAllowance",
      "outputs": [
        {
          "internalType": "bool",
          "name": "",
          "type": "bool"
        }
      ],
      "stateMutability": "nonpayable",
      "type": "function"
    },
    {
      "inputs": [],
      "name": "jerkSanctions",
      "outputs": [
        {
          "internalType": "bool",
          "name": "",
          "type": "bool"
        }
      ],
      "stateMutability": "view",
      "type": "function",
      "constant": true
    },
    {
      "inputs": [],
      "name": "jerkSanctionsLocal",
      "outputs": [
        {
          "internalType": "bool",
          "name": "",
          "type": "bool"
        }
      ],
      "stateMutability": "view",
      "type": "function",
      "constant": true
    },
    {
      "inputs": [],
      "name": "name",
      "outputs": [
        {
          "internalType": "string",
          "name": "",
          "type": "string"
        }
      ],
      "stateMutability": "view",
      "type": "function",
      "constant": true
    },
    {
      "inputs": [
        {
          "internalType": "address",
          "name": "owner",
          "type": "address"
        }
      ],
      "name": "nonces",
      "outputs": [
        {
          "internalType": "uint256",
          "name": "",
          "type": "uint256"
        }
      ],
      "stateMutability": "view",
      "type": "function",
      "constant": true
    },
    {
      "inputs": [
        {
          "internalType": "address",
          "name": "owner",
          "type": "address"
        },
        {
          "internalType": "address",
          "name": "spender",
          "type": "address"
        },
        {
          "internalType": "uint256",
          "name": "value",
          "type": "uint256"
        },
        {
          "internalType": "uint256",
          "name": "deadline",
          "type": "uint256"
        },
        {
          "internalType": "uint8",
          "name": "v",
          "type": "uint8"
        },
        {
          "internalType": "bytes32",
          "name": "r",
          "type": "bytes32"
        },
        {
          "internalType": "bytes32",
          "name": "s",
          "type": "bytes32"
        }
      ],
      "name": "permit",
      "outputs": [],
      "stateMutability": "nonpayable",
      "type": "function"
    },
    {
      "inputs": [
        {
          "internalType": "bytes32",
          "name": "role",
          "type": "bytes32"
        },
        {
          "internalType": "address",
          "name": "account",
          "type": "address"
        }
      ],
      "name": "renounceRole",
      "outputs": [],
      "stateMutability": "nonpayable",
      "type": "function"
    },
    {
      "inputs": [],
      "name": "resetVote",
      "outputs": [],
      "stateMutability": "nonpayable",
      "type": "function"
    },
    {
      "inputs": [
        {
          "internalType": "bytes32",
          "name": "role",
          "type": "bytes32"
        },
        {
          "internalType": "address",
          "name": "account",
          "type": "address"
        }
      ],
      "name": "revokeRole",
      "outputs": [],
      "stateMutability": "nonpayable",
      "type": "function"
    },
    {
      "inputs": [],
      "name": "snapshot",
      "outputs": [],
      "stateMutability": "nonpayable",
      "type": "function"
    },
    {
      "inputs": [
        {
          "internalType": "bytes4",
          "name": "interfaceId",
          "type": "bytes4"
        }
      ],
      "name": "supportsInterface",
      "outputs": [
        {
          "internalType": "bool",
          "name": "",
          "type": "bool"
        }
      ],
      "stateMutability": "view",
      "type": "function",
      "constant": true
    },
    {
      "inputs": [
        {
          "internalType": "bool",
          "name": "turnOnSanctions",
          "type": "bool"
        }
      ],
      "name": "switchLocalJerkSanctions",
      "outputs": [],
      "stateMutability": "nonpayable",
      "type": "function"
    },
    {
      "inputs": [],
      "name": "symbol",
      "outputs": [
        {
          "internalType": "string",
          "name": "",
          "type": "string"
        }
      ],
      "stateMutability": "view",
      "type": "function",
      "constant": true
    },
    {
      "inputs": [],
      "name": "syncAllRoles",
      "outputs": [],
      "stateMutability": "nonpayable",
      "type": "function"
    },
    {
      "inputs": [
        {
          "internalType": "bytes32",
          "name": "ROLE_TO_SYNC",
          "type": "bytes32"
        }
      ],
      "name": "syncSingleRole",
      "outputs": [],
      "stateMutability": "nonpayable",
      "type": "function"
    },
    {
      "inputs": [],
      "name": "syncVotes",
      "outputs": [],
      "stateMutability": "nonpayable",
      "type": "function"
    },
    {
      "inputs": [],
      "name": "totalSupply",
      "outputs": [
        {
          "internalType": "uint256",
          "name": "",
          "type": "uint256"
        }
      ],
      "stateMutability": "view",
      "type": "function",
      "constant": true
    },
    {
      "inputs": [
        {
          "internalType": "uint256",
          "name": "snapshotId",
          "type": "uint256"
        }
      ],
      "name": "totalSupplyAt",
      "outputs": [
        {
          "internalType": "uint256",
          "name": "",
          "type": "uint256"
        }
      ],
      "stateMutability": "view",
      "type": "function",
      "constant": true
    },
    {
      "inputs": [
        {
          "internalType": "address",
          "name": "recipient",
          "type": "address"
        },
        {
          "internalType": "uint256",
          "name": "amount",
          "type": "uint256"
        }
      ],
      "name": "transfer",
      "outputs": [
        {
          "internalType": "bool",
          "name": "",
          "type": "bool"
        }
      ],
      "stateMutability": "nonpayable",
      "type": "function"
    },
    {
      "inputs": [
        {
          "internalType": "address",
          "name": "sender",
          "type": "address"
        },
        {
          "internalType": "address",
          "name": "recipient",
          "type": "address"
        },
        {
          "internalType": "uint256",
          "name": "amount",
          "type": "uint256"
        }
      ],
      "name": "transferFrom",
      "outputs": [
        {
          "internalType": "bool",
          "name": "",
          "type": "bool"
        }
      ],
      "stateMutability": "nonpayable",
      "type": "function"
    },
    {
      "inputs": [],
      "name": "updateAddressManager",
      "outputs": [],
      "stateMutability": "nonpayable",
      "type": "function"
    },
    {
      "inputs": [],
      "name": "updateAllAddresses",
      "outputs": [],
      "stateMutability": "nonpayable",
      "type": "function"
    },
    {
      "inputs": [],
      "name": "updateAllRoles",
      "outputs": [],
      "stateMutability": "nonpayable",
      "type": "function"
    },
    {
      "inputs": [],
      "name": "updateDAOAddresses",
      "outputs": [],
      "stateMutability": "nonpayable",
      "type": "function"
    },
    {
      "inputs": [
        {
          "internalType": "bytes32",
          "name": "ROLE_TO_UPDATE",
          "type": "bytes32"
        }
      ],
      "name": "updateSingleRole",
      "outputs": [],
      "stateMutability": "nonpayable",
      "type": "function"
    },
    {
      "inputs": [],
      "name": "updateTokenAddresses",
      "outputs": [],
      "stateMutability": "nonpayable",
      "type": "function"
    }
  ],
  "bytecode": "0x6101406040527f6e71edae12b1b97f4d1f60370fef10105fa2faae0126114a169c64845d6126c961012052600a805460ff19169055601b805465ffffffffffff60a01b191690553480156200005357600080fd5b5060405162004d7738038062004d77833981016040819052620000769162001109565b8080604051806040016040528060088152602001675265642050656e7360c01b81525080604051806040016040528060018152602001603160f81b815250604051806040016040528060088152602001675265642050656e7360c01b815250604051806040016040528060048152602001630854915160e21b81525081600390805190602001906200010a92919062001063565b5080516200012090600490602084019062001063565b5050825160208085019190912083518483012060c082815260e08290524660a0818152604080517f8b73c3c69bb8fe3d512ecc4cf759cc79239f7b179b0ffacaa9a75d522b39400f818901819052818301889052606082018790526080820194909452308184015281518082039093018352909301909252815191909401209193509190608052610100525050600d80546001600160a01b039095166001600160a01b03199586168117909155601b80549095161790935550620001e691505062000347565b620001f06200035d565b6019546200020a906000906001600160a01b0316620004a8565b60195462000243907f0538d24a8b7882d7b2e36af243d4af61c23e86e3daa6cb8c887b53220b2f5720906001600160a01b0316620004a8565b6016546200027c907f048bc71fa1cb2c119c339cf9cf00a97996a19a9d991ce5fe049f2fa5459e7990906001600160a01b0316620004a8565b601754620002b5907ffa8e4989e1d689f7bc5c4b25b87efb51fecdecb19ba62847e29c759e12a89acd906001600160a01b0316620004a8565b601a54620002ee907ff0f4b159a6e2a4815eb3ca3df080bfa70c9270662c59bcaa4479a456220183e6906001600160a01b0316620004a8565b6200031b7f7c9d7f6f02908185bffb3f7fc9afb29fd7bf93675af8fd4b655ee05c2cee1e0e6000620004a8565b5060185462000340906001600160a01b03166b02a652a5e57eeb9e3a400000620004eb565b50620011fd565b62000351620005e1565b6200035b620008e1565b565b601b60009054906101000a90046001600160a01b03166001600160a01b031663ff7e88ec6040518163ffffffff1660e01b815260040160206040518083038186803b158015620003ac57600080fd5b505afa158015620003c1573d6000803e3d6000fd5b505050506040513d601f19601f82011682018060405250810190620003e791906200113b565b601b60156101000a81548160ff021916908315150217905550601b60009054906101000a90046001600160a01b03166001600160a01b0316632fb565856040518163ffffffff1660e01b815260040160206040518083038186803b1580156200044f57600080fd5b505afa15801562000464573d6000803e3d6000fd5b505050506040513d601f19601f820116820180604052508101906200048a91906200113b565b601b8054911515600160b01b0260ff60b01b19909216919091179055565b620004bf828262000d0b60201b620013441760201c565b6000828152600c60209081526040909120620004e69183906200135262000d1b821b17901c565b505050565b6001600160a01b038216620005465760405162461bcd60e51b815260206004820152601f60248201527f45524332303a206d696e7420746f20746865207a65726f206164647265737300604482015260640160405180910390fd5b620005546000838362000d3b565b80600260008282546200056891906200115f565b90915550506001600160a01b03821660009081526020819052604081208054839290620005979084906200115f565b90915550506040518181526001600160a01b038316906000907fddf252ad1be2c89b69c2b068fc378daa952ba7f163c4a11628f55a4df523b3ef9060200160405180910390a35050565b601b60009054906101000a90046001600160a01b03166001600160a01b031663dadf56ac6040518163ffffffff1660e01b815260040160206040518083038186803b1580156200063057600080fd5b505afa15801562000645573d6000803e3d6000fd5b505050506040513d601f19601f820116820180604052508101906200066b919062001109565b601680546001600160a01b0319166001600160a01b03928316179055601b546040805163024bebe960e01b81529051919092169163024bebe9916004808301926020929190829003018186803b158015620006c557600080fd5b505afa158015620006da573d6000803e3d6000fd5b505050506040513d601f19601f8201168201806040525081019062000700919062001109565b601780546001600160a01b0319166001600160a01b03928316179055601b5460408051635b5c251f60e01b815290519190921691635b5c251f916004808301926020929190829003018186803b1580156200075a57600080fd5b505afa1580156200076f573d6000803e3d6000fd5b505050506040513d601f19601f8201168201806040525081019062000795919062001109565b601880546001600160a01b0319166001600160a01b03928316179055601b5460408051637310bf1d60e11b81529051919092169163e6217e3a916004808301926020929190829003018186803b158015620007ef57600080fd5b505afa15801562000804573d6000803e3d6000fd5b505050506040513d601f19601f820116820180604052508101906200082a919062001109565b601a80546001600160a01b0319166001600160a01b03928316179055601b546040805163d88127a160e01b81529051919092169163d88127a1916004808301926020929190829003018186803b1580156200088457600080fd5b505afa15801562000899573d6000803e3d6000fd5b505050506040513d601f19601f82011682018060405250810190620008bf919062001109565b601580546001600160a01b0319166001600160a01b0392909216919091179055565b601b60009054906101000a90046001600160a01b03166001600160a01b03166321d7f0086040518163ffffffff1660e01b815260040160206040518083038186803b1580156200093057600080fd5b505afa15801562000945573d6000803e3d6000fd5b505050506040513d601f19601f820116820180604052508101906200096b919062001109565b600e80546001600160a01b0319166001600160a01b03928316179055601b546040805163762ddb5960e01b81529051919092169163762ddb59916004808301926020929190829003018186803b158015620009c557600080fd5b505afa158015620009da573d6000803e3d6000fd5b505050506040513d601f19601f8201168201806040525081019062000a00919062001109565b600f80546001600160a01b0319166001600160a01b03928316179055601b546040805163bfb7dc9960e01b81529051919092169163bfb7dc99916004808301926020929190829003018186803b15801562000a5a57600080fd5b505afa15801562000a6f573d6000803e3d6000fd5b505050506040513d601f19601f8201168201806040525081019062000a95919062001109565b601080546001600160a01b0319166001600160a01b03928316179055601b5460408051633e6111eb60e21b81529051919092169163f98447ac916004808301926020929190829003018186803b15801562000aef57600080fd5b505afa15801562000b04573d6000803e3d6000fd5b505050506040513d601f19601f8201168201806040525081019062000b2a919062001109565b601180546001600160a01b0319166001600160a01b03928316179055601b5460408051630fe1ba9f60e21b815290519190921691633f86ea7c916004808301926020929190829003018186803b15801562000b8457600080fd5b505afa15801562000b99573d6000803e3d6000fd5b505050506040513d601f19601f8201168201806040525081019062000bbf919062001109565b601280546001600160a01b0319166001600160a01b03928316179055601b5460408051632b90024160e11b8152905191909216916357200482916004808301926020929190829003018186803b15801562000c1957600080fd5b505afa15801562000c2e573d6000803e3d6000fd5b505050506040513d601f19601f8201168201806040525081019062000c54919062001109565b601380546001600160a01b0319166001600160a01b03928316179055601b5460408051636b58477560e01b815290519190921691636b584775916004808301926020929190829003018186803b15801562000cae57600080fd5b505afa15801562000cc3573d6000803e3d6000fd5b505050506040513d601f19601f8201168201806040525081019062000ce9919062001109565b601480546001600160a01b0319166001600160a01b0392909216919091179055565b62000d17828262000da8565b5050565b600062000d32836001600160a01b03841662000e4c565b90505b92915050565b601b54600160c81b900460ff16801562000d5e5750601b54600160a01b900460ff165b1562000d905733600090815260008051602062004d57833981519152602052604090205460ff161562000d9057600080fd5b620004e683838362000e9e60201b620013671760201c565b6000828152600b602090815260408083206001600160a01b038516845290915290205460ff1662000d17576000828152600b602090815260408083206001600160a01b03851684529091529020805460ff1916600117905562000e083390565b6001600160a01b0316816001600160a01b0316837f2f8788117e7eff1d82e926ec794901d17c78024a50270940304540a733656f0d60405160405180910390a45050565b600081815260018301602052604081205462000e955750815460018181018455600084815260208082209093018490558454848252828601909352604090209190915562000d35565b50600062000d35565b601b54600160c81b900460ff16801562000ec15750601b54600160a01b900460ff165b1562000ef35733600090815260008051602062004d57833981519152602052604090205460ff161562000ef357600080fd5b620004e683838362000f0b60201b620013b71760201c565b62000f23838383620004e660201b62000abf1760201c565b6001600160a01b03831662000f475762000f3d8262000f72565b620004e662000faa565b6001600160a01b03821662000f615762000f3d8362000f72565b62000f6c8362000f72565b620004e6825b6001600160a01b0381166000908152600560209081526040808320918390529091205462000fa7919062000fba565b62000fba565b50565b6200035b600662000fa160025490565b600062000fd360086200101660201b620013ff1760201c565b90508062000fe1846200101a565b1015620004e6578254600180820185556000858152602080822090930193909355938401805494850181558252902090910155565b5490565b80546000906200102c57506000919050565b815482906200103e906001906200117a565b81548110620010515762001051620011e7565b90600052602060002001549050919050565b828054620010719062001194565b90600052602060002090601f016020900481019282620010955760008555620010e0565b82601f10620010b057805160ff1916838001178555620010e0565b82800160010185558215620010e0579182015b82811115620010e0578251825591602001919060010190620010c3565b50620010ee929150620010f2565b5090565b5b80821115620010ee5760008155600101620010f3565b6000602082840312156200111c57600080fd5b81516001600160a01b03811681146200113457600080fd5b9392505050565b6000602082840312156200114e57600080fd5b815180151581146200113457600080fd5b60008219821115620011755762001175620011d1565b500190565b6000828210156200118f576200118f620011d1565b500390565b600181811c90821680620011a957607f821691505b60208210811415620011cb57634e487b7160e01b600052602260045260246000fd5b50919050565b634e487b7160e01b600052601160045260246000fd5b634e487b7160e01b600052603260045260246000fd5b60805160a05160c05160e0516101005161012051613b0a6200124d6000396000611182015260006123bf0152600061240e015260006123e90152600061236d015260006123960152613b0a6000f3fe608060405234801561001057600080fd5b50600436106103db5760003560e01c80636b5847751161020a578063b126550611610125578063dadf56ac116100b8578063e9a5323011610087578063e9a532301461086a578063f1132b301461087f578063f7d92d8614610887578063f98447ac1461088f578063ff7e88ec146108a257600080fd5b8063dadf56ac146107f8578063dd62ed3e1461080b578063e6217e3a14610844578063e78c266c1461085757600080fd5b8063cf4ece15116100f4578063cf4ece15146107aa578063d505accf146107bf578063d547741f146107d2578063d88127a1146107e557600080fd5b8063b12655061461075b578063bfb7dc991461076f578063ca15c87314610782578063cce843921461079557600080fd5b806395d89b411161019d578063a32c5e591161016c578063a32c5e591461070c578063a457c2d714610721578063a78e746f14610734578063a9059cbb1461074857600080fd5b806395d89b41146106e15780639711715a146106e9578063981b24d0146106f1578063a217fddf1461070457600080fd5b80637ecebe00116101d95780637ecebe00146106955780639010d07c146106a857806391d14854146106bb57806393dad6e7146106ce57600080fd5b80636b5847751461063357806370a0823114610646578063762ddb591461066f57806379cc67901461068257600080fd5b80633644e515116102fa5780634ee2cd7e1161028d5780635b5c251f1161025c5780635b5c251f146105f25780635db531a1146106055780635f4134661461060d578063683988871461062057600080fd5b80634ee2cd7e146105a557806357200482146105b857806357f276ff146105cb5780635a140696146105de57600080fd5b80633f86ea7c116102c95780633f86ea7c1461056f57806342966c681461058257806349b5e105146105955780634d84c6d81461059d57600080fd5b80633644e5151461052e57806336568abe1461053657806339509351146105495780633ab76e9f1461055c57600080fd5b806323b872dd116103725780632fb56585116103415780632fb56585146104fb578063313ce5671461050f578063326a55e01461051e578063329a8cfa1461052657600080fd5b806323b872dd1461049d5780632436329d146104b0578063248a9ca3146104c55780632f2ff15d146104e857600080fd5b8063130f6320116103ae578063130f63201461045b57806317314d5a1461047057806318160ddd1461047857806321d7f0081461048a57600080fd5b806301ffc9a7146103e0578063024bebe91461040857806306fdde0314610433578063095ea7b314610448575b600080fd5b6103f36103ee3660046137ab565b6108b6565b60405190151581526020015b60405180910390f35b60175461041b906001600160a01b031681565b6040516001600160a01b0390911681526020016103ff565b61043b6108e1565b6040516103ff9190613863565b6103f36104563660046136e5565b610973565b61046e61046936600461374b565b610989565b005b61046e6109be565b6002545b6040519081526020016103ff565b600e5461041b906001600160a01b031681565b6103f36104ab36600461362d565b6109e7565b61047c600080516020613a3583398151915281565b61047c6104d336600461374b565b6000908152600b602052604090206001015490565b61046e6104f6366004613764565b610a9d565b601b546103f390600160b01b900460ff1681565b604051601281526020016103ff565b61046e610ac4565b61046e610ad4565b61047c610bdd565b61046e610544366004613764565b610bec565b6103f36105573660046136e5565b610c0e565b601b5461041b906001600160a01b031681565b60125461041b906001600160a01b031681565b61046e61059036600461374b565b610c45565b61046e610c4f565b61046e610acc565b61047c6105b33660046136e5565b610c57565b60135461041b906001600160a01b031681565b61046e6105d936600461374b565b610cb0565b601b546103f390600160c01b900460ff1681565b60185461041b906001600160a01b031681565b61046e610cc4565b60195461041b906001600160a01b031681565b61046e61062e366004613711565b610ccc565b60145461041b906001600160a01b031681565b61047c6106543660046135ba565b6001600160a01b031660009081526020819052604090205490565b600f5461041b906001600160a01b031681565b61046e6106903660046136e5565b610d79565b61047c6106a33660046135ba565b610dfc565b61041b6106b6366004613789565b610e1a565b6103f36106c9366004613764565b610e39565b61046e6106dc366004613711565b610e64565b61043b610f76565b61046e610f85565b61047c6106ff36600461374b565b611044565b61047c600081565b61047c600080516020613a9583398151915281565b6103f361072f3660046136e5565b61106f565b601b546103f390600160a01b900460ff1681565b6103f36107563660046136e5565b61110a565b601b546103f390600160c81b900460ff1681565b60105461041b906001600160a01b031681565b61047c61079036600461374b565b611117565b61047c600080516020613ab583398151915281565b61047c600080516020613a7583398151915281565b61046e6107cd36600461366e565b61112e565b61046e6107e0366004613764565b611292565b60155461041b906001600160a01b031681565b60165461041b906001600160a01b031681565b61047c6108193660046135f4565b6001600160a01b03918216600090815260016020908152604080832093909416825291909152205490565b601a5461041b906001600160a01b031681565b600d5461041b906001600160a01b031681565b61047c600080516020613a5583398151915281565b61046e61129c565b61046e6112a4565b60115461041b906001600160a01b031681565b601b546103f390600160a81b900460ff1681565b60006001600160e01b03198216635a05180f60e01b14806108db57506108db82611403565b92915050565b6060600380546108f09061393f565b80601f016020809104026020016040519081016040528092919081815260200182805461091c9061393f565b80156109695780601f1061093e57610100808354040283529160200191610969565b820191906000526020600020905b81548152906001019060200180831161094c57829003601f168201915b5050505050905090565b6000610980338484611438565b50600192915050565b610993600161155d565b5061099d81611611565b506109a781611782565b506109b2600061155d565b6109bb57600080fd5b50565b6109c8600161155d565b506109d161190b565b506109dc600061155d565b6109e557600080fd5b565b60006109f4848484611a51565b6001600160a01b038416600090815260016020908152604080832033845290915290205482811015610a7e5760405162461bcd60e51b815260206004820152602860248201527f45524332303a207472616e7366657220616d6f756e74206578636565647320616044820152676c6c6f77616e636560c01b60648201526084015b60405180910390fd5b610a928533610a8d86856138e1565b611438565b506001949350505050565b610aa78282611c34565b6000828152600c60205260409020610abf9082611352565b505050565b610acc611c6f565b6109e5611f5b565b610aec600080516020613a9583398151915233610e39565b80610b0a5750610b0a600080516020613a5583398151915233610e39565b80610b285750610b28600080516020613a3583398151915233610e39565b610b6d5760405162461bcd60e51b81526020600482015260166024820152752cb7ba93b932903737ba103a3432903130b4b634b33360511b6044820152606401610a75565b601b60009054906101000a90046001600160a01b03166001600160a01b031663329a8cfa6040518163ffffffff1660e01b8152600401600060405180830381600087803b158015610bbd57600080fd5b505af1158015610bd1573d6000803e3d6000fd5b505050506109e5610cc4565b6000610be7612369565b905090565b610bf6828261245c565b6000828152600c60205260409020610abf90826124d6565b3360008181526001602090815260408083206001600160a01b03871684529091528120549091610980918590610a8d908690613896565b6109bb33826124eb565b6109e5611c6f565b6001600160a01b038216600090815260056020526040812081908190610c7e908590612646565b9150915081610ca5576001600160a01b038516600090815260208190526040902054610ca7565b805b95945050505050565b610cba600161155d565b506109a781612738565b6109e5612993565b610ce4600080516020613a3583398151915233610e39565b80610d025750610d02600080516020613a9583398151915233610e39565b610d445760405162461bcd60e51b8152602060048201526013602482015272596f75277265206e6f7420746865204a75727960681b6044820152606401610a75565b601b54600160c01b900460ff1615610d5b57600080fd5b601b8054911515600160c81b0260ff60c81b19909216919091179055565b6000610d858333610819565b905081811015610de35760405162461bcd60e51b8152602060048201526024808201527f45524332303a206275726e20616d6f756e74206578636565647320616c6c6f77604482015263616e636560e01b6064820152608401610a75565b610df28333610a8d85856138e1565b610abf83836124eb565b6001600160a01b0381166000908152600960205260408120546108db565b6000828152600c60205260408120610e329083612ad6565b9392505050565b6000918252600b602090815260408084206001600160a01b0393909316845291905290205460ff1690565b610e7c600080516020613a5583398151915233610e39565b80610e9a5750610e9a600080516020613a3583398151915233610e39565b80610eb85750610eb8600080516020613a9583398151915233610e39565b610ec157600080fd5b601b54600160b01b810460ff9081161515600160a81b9092041615151460011480610eff5750610eff600080516020613a9583398151915233610e39565b610f3e5760405162461bcd60e51b815260206004820152601060248201526f436f757274204d75737420416772656560801b6044820152606401610a75565b80158015610f565750601b54600160c01b900460ff16155b610f5f57600080fd5b50601b805461ffff60c01b1916600160c01b179055565b6060600480546108f09061393f565b610f9d600080516020613a9583398151915233610e39565b80610fbb5750610fbb600080516020613a5583398151915233610e39565b80610fd95750610fd9600080516020613a3583398151915233610e39565b80610ff75750610ff7600080516020613a7583398151915233610e39565b61103c5760405162461bcd60e51b81526020600482015260166024820152752cb7ba93b932903737ba103a3432903130b4b634b33360511b6044820152606401610a75565b6109bb612ae2565b6000806000611054846006612646565b915091508161106557600254611067565b805b949350505050565b3360009081526001602090815260408083206001600160a01b0386168452909152812054828110156110f15760405162461bcd60e51b815260206004820152602560248201527f45524332303a2064656372656173656420616c6c6f77616e63652062656c6f77604482015264207a65726f60d81b6064820152608401610a75565b6111003385610a8d86856138e1565b5060019392505050565b6000610980338484611a51565b6000818152600c602052604081206108db90612b3d565b8342111561117e5760405162461bcd60e51b815260206004820152601d60248201527f45524332305065726d69743a206578706972656420646561646c696e650000006044820152606401610a75565b60007f00000000000000000000000000000000000000000000000000000000000000008888886111ad8c612b47565b6040805160208101969096526001600160a01b0394851690860152929091166060840152608083015260a082015260c0810186905260e001604051602081830303815290604052805190602001209050600061120882612b6f565b9050600061121882878787612bbd565b9050896001600160a01b0316816001600160a01b03161461127b5760405162461bcd60e51b815260206004820152601e60248201527f45524332305065726d69743a20696e76616c6964207369676e617475726500006044820152606401610a75565b6112868a8a8a611438565b50505050505050505050565b610bf68282612d5d565b6109e5612d98565b6112ae600161155d565b506112c6600080516020613a95833981519152612738565b506112de600080516020613a55833981519152612738565b506112f6600080516020613a35833981519152612738565b5061130e600080516020613a75833981519152612738565b50611326600080516020613ab5833981519152612738565b506113316000612738565b5061133a612993565b6109dc600061155d565b61134e8282612ecf565b5050565b6000610e32836001600160a01b038416612f55565b601b54600160c81b900460ff1680156113895750601b54600160a01b900460ff165b156113b0576113a6600080516020613ab583398151915233610e39565b156113b057600080fd5b610abf8383835b6001600160a01b0383166113d6576113ce82612fa4565b610abf612fd6565b6001600160a01b0382166113ed576113ce83612fa4565b6113f683612fa4565b610abf82612fa4565b5490565b60006001600160e01b03198216637965db0b60e01b14806108db57506301ffc9a760e01b6001600160e01b03198316146108db565b6001600160a01b03831661149a5760405162461bcd60e51b8152602060048201526024808201527f45524332303a20617070726f76652066726f6d20746865207a65726f206164646044820152637265737360e01b6064820152608401610a75565b6001600160a01b0382166114fb5760405162461bcd60e51b815260206004820152602260248201527f45524332303a20617070726f766520746f20746865207a65726f206164647265604482015261737360f01b6064820152608401610a75565b6001600160a01b0383811660008181526001602090815260408083209487168084529482529182902085905590518481527f8c5be1e5ebec7d5bd14f71427d1e84f3dd0314c0f7b2291e5b200ac8c7c3b92591015b60405180910390a3505050565b600a5460009060ff1682151581151514156115ba5760405162461bcd60e51b815260206004820152601960248201527f416c72656164792053657420746f20746861742076616c7565000000000000006044820152606401610a75565b600a805484151560ff19909116811790915560ff16151581151514156109805760405162461bcd60e51b815260206004820152600c60248201526b29b0b33a32bc9022b93937b960a11b6044820152606401610a75565b60405163ca15c87360e01b8152600481018290526000908190309063ca15c8739060240160206040518083038186803b15801561164d57600080fd5b505afa158015611661573d6000803e3d6000fd5b505050506040513d601f19601f8201168201806040525081019061168591906137d5565b905060005b8181101561110057604051632404341f60e21b815260048101859052602481018290526000903090639010d07c9060440160206040518083038186803b1580156116d357600080fd5b505afa1580156116e7573d6000803e3d6000fd5b505050506040513d601f19601f8201168201806040525081019061170b91906135d7565b60405163d547741f60e01b8152600481018790526001600160a01b0382166024820152909150309063d547741f90604401600060405180830381600087803b15801561175657600080fd5b505af115801561176a573d6000803e3d6000fd5b5050505050808061177a90613974565b91505061168a565b601b5460405163ca15c87360e01b81526004810183905260009182916001600160a01b039091169063ca15c8739060240160206040518083038186803b1580156117cb57600080fd5b505afa1580156117df573d6000803e3d6000fd5b505050506040513d601f19601f8201168201806040525081019061180391906137d5565b905060005b8181101561110057601b54604051632404341f60e21b815260048101869052602481018390526000916001600160a01b031690639010d07c9060440160206040518083038186803b15801561185c57600080fd5b505afa158015611870573d6000803e3d6000fd5b505050506040513d601f19601f8201168201806040525081019061189491906135d7565b604051632f2ff15d60e01b8152600481018790526001600160a01b03821660248201529091503090632f2ff15d90604401600060405180830381600087803b1580156118df57600080fd5b505af11580156118f3573d6000803e3d6000fd5b5050505050808061190390613974565b915050611808565b6000611924600080516020613a95833981519152611611565b5061193c600080516020613a95833981519152611782565b61194557600080fd5b61195c600080516020613a55833981519152611611565b50611974600080516020613a55833981519152611782565b61197d57600080fd5b611994600080516020613a35833981519152611611565b506119ac600080516020613a35833981519152611782565b6119b557600080fd5b6119cc600080516020613a75833981519152611611565b506119e4600080516020613a75833981519152611782565b6119ed57600080fd5b611a04600080516020613ab5833981519152611611565b50611a1c600080516020613ab5833981519152611782565b611a2557600080fd5b611a2f6000611611565b50611a3a6000611782565b611a4357600080fd5b611a4b612993565b50600190565b6001600160a01b038316611ab55760405162461bcd60e51b815260206004820152602560248201527f45524332303a207472616e736665722066726f6d20746865207a65726f206164604482015264647265737360d81b6064820152608401610a75565b6001600160a01b038216611b175760405162461bcd60e51b815260206004820152602360248201527f45524332303a207472616e7366657220746f20746865207a65726f206164647260448201526265737360e81b6064820152608401610a75565b611b22838383612fe4565b6001600160a01b03831660009081526020819052604090205481811015611b9a5760405162461bcd60e51b815260206004820152602660248201527f45524332303a207472616e7366657220616d6f756e7420657863656564732062604482015265616c616e636560d01b6064820152608401610a75565b611ba482826138e1565b6001600160a01b038086166000908152602081905260408082209390935590851681529081208054849290611bda908490613896565b92505081905550826001600160a01b0316846001600160a01b03167fddf252ad1be2c89b69c2b068fc378daa952ba7f163c4a11628f55a4df523b3ef84604051611c2691815260200190565b60405180910390a350505050565b6000828152600b6020526040902060010154600a5460ff1615611c5b57610abf8383612ecf565b611c658133613038565b610abf8383612ecf565b601b60009054906101000a90046001600160a01b03166001600160a01b031663dadf56ac6040518163ffffffff1660e01b815260040160206040518083038186803b158015611cbd57600080fd5b505afa158015611cd1573d6000803e3d6000fd5b505050506040513d601f19601f82011682018060405250810190611cf591906135d7565b601680546001600160a01b0319166001600160a01b03928316179055601b546040805163024bebe960e01b81529051919092169163024bebe9916004808301926020929190829003018186803b158015611d4e57600080fd5b505afa158015611d62573d6000803e3d6000fd5b505050506040513d601f19601f82011682018060405250810190611d8691906135d7565b601780546001600160a01b0319166001600160a01b03928316179055601b5460408051635b5c251f60e01b815290519190921691635b5c251f916004808301926020929190829003018186803b158015611ddf57600080fd5b505afa158015611df3573d6000803e3d6000fd5b505050506040513d601f19601f82011682018060405250810190611e1791906135d7565b601880546001600160a01b0319166001600160a01b03928316179055601b5460408051637310bf1d60e11b81529051919092169163e6217e3a916004808301926020929190829003018186803b158015611e7057600080fd5b505afa158015611e84573d6000803e3d6000fd5b505050506040513d601f19601f82011682018060405250810190611ea891906135d7565b601a80546001600160a01b0319166001600160a01b03928316179055601b546040805163d88127a160e01b81529051919092169163d88127a1916004808301926020929190829003018186803b158015611f0157600080fd5b505afa158015611f15573d6000803e3d6000fd5b505050506040513d601f19601f82011682018060405250810190611f3991906135d7565b601580546001600160a01b0319166001600160a01b0392909216919091179055565b601b60009054906101000a90046001600160a01b03166001600160a01b03166321d7f0086040518163ffffffff1660e01b815260040160206040518083038186803b158015611fa957600080fd5b505afa158015611fbd573d6000803e3d6000fd5b505050506040513d601f19601f82011682018060405250810190611fe191906135d7565b600e80546001600160a01b0319166001600160a01b03928316179055601b546040805163762ddb5960e01b81529051919092169163762ddb59916004808301926020929190829003018186803b15801561203a57600080fd5b505afa15801561204e573d6000803e3d6000fd5b505050506040513d601f19601f8201168201806040525081019061207291906135d7565b600f80546001600160a01b0319166001600160a01b03928316179055601b546040805163bfb7dc9960e01b81529051919092169163bfb7dc99916004808301926020929190829003018186803b1580156120cb57600080fd5b505afa1580156120df573d6000803e3d6000fd5b505050506040513d601f19601f8201168201806040525081019061210391906135d7565b601080546001600160a01b0319166001600160a01b03928316179055601b5460408051633e6111eb60e21b81529051919092169163f98447ac916004808301926020929190829003018186803b15801561215c57600080fd5b505afa158015612170573d6000803e3d6000fd5b505050506040513d601f19601f8201168201806040525081019061219491906135d7565b601180546001600160a01b0319166001600160a01b03928316179055601b5460408051630fe1ba9f60e21b815290519190921691633f86ea7c916004808301926020929190829003018186803b1580156121ed57600080fd5b505afa158015612201573d6000803e3d6000fd5b505050506040513d601f19601f8201168201806040525081019061222591906135d7565b601280546001600160a01b0319166001600160a01b03928316179055601b5460408051632b90024160e11b8152905191909216916357200482916004808301926020929190829003018186803b15801561227e57600080fd5b505afa158015612292573d6000803e3d6000fd5b505050506040513d601f19601f820116820180604052508101906122b691906135d7565b601380546001600160a01b0319166001600160a01b03928316179055601b5460408051636b58477560e01b815290519190921691636b584775916004808301926020929190829003018186803b15801561230f57600080fd5b505afa158015612323573d6000803e3d6000fd5b505050506040513d601f19601f8201168201806040525081019061234791906135d7565b601480546001600160a01b0319166001600160a01b0392909216919091179055565b60007f00000000000000000000000000000000000000000000000000000000000000004614156123b857507f000000000000000000000000000000000000000000000000000000000000000090565b50604080517f00000000000000000000000000000000000000000000000000000000000000006020808301919091527f0000000000000000000000000000000000000000000000000000000000000000828401527f000000000000000000000000000000000000000000000000000000000000000060608301524660808301523060a0808401919091528351808403909101815260c0909201909252805191012090565b6001600160a01b03811633146124cc5760405162461bcd60e51b815260206004820152602f60248201527f416363657373436f6e74726f6c3a2063616e206f6e6c792072656e6f756e636560448201526e103937b632b9903337b91039b2b63360891b6064820152608401610a75565b61134e828261309c565b6000610e32836001600160a01b038416613103565b6001600160a01b03821661254b5760405162461bcd60e51b815260206004820152602160248201527f45524332303a206275726e2066726f6d20746865207a65726f206164647265736044820152607360f81b6064820152608401610a75565b61255782600083612fe4565b6001600160a01b038216600090815260208190526040902054818110156125cb5760405162461bcd60e51b815260206004820152602260248201527f45524332303a206275726e20616d6f756e7420657863656564732062616c616e604482015261636560f01b6064820152608401610a75565b6125d582826138e1565b6001600160a01b038416600090815260208190526040812091909155600280548492906126039084906138e1565b90915550506040518281526000906001600160a01b038516907fddf252ad1be2c89b69c2b068fc378daa952ba7f163c4a11628f55a4df523b3ef90602001611550565b600080600084116126925760405162461bcd60e51b815260206004820152601660248201527504552433230536e617073686f743a20696420697320360541b6044820152606401610a75565b6008548411156126e45760405162461bcd60e51b815260206004820152601d60248201527f4552433230536e617073686f743a206e6f6e6578697374656e742069640000006044820152606401610a75565b60006126f084866131f0565b8454909150811415612709576000809250925050612731565b6001846001018281548110612720576127206139e5565b906000526020600020015492509250505b9250929050565b601b5460405163ca15c87360e01b81526004810183905260009182916001600160a01b039091169063ca15c8739060240160206040518083038186803b15801561278157600080fd5b505afa158015612795573d6000803e3d6000fd5b505050506040513d601f19601f820116820180604052508101906127b991906137d5565b60405163ca15c87360e01b815260048101859052909150600090309063ca15c8739060240160206040518083038186803b1580156127f657600080fd5b505afa15801561280a573d6000803e3d6000fd5b505050506040513d601f19601f8201168201806040525081019061282e91906137d5565b9050600061283c82846138e1565b9050600081116128815760405162461bcd60e51b815260206004820152601060248201526f4e6f7468696e6720746f2073796e632160801b6044820152606401610a75565b60005b8181101561298757601b54604051632404341f60e21b815260048101889052602481018390526000916001600160a01b031690639010d07c9060440160206040518083038186803b1580156128d857600080fd5b505afa1580156128ec573d6000803e3d6000fd5b505050506040513d601f19601f8201168201806040525081019061291091906135d7565b604051632f2ff15d60e01b8152600481018990526001600160a01b03821660248201529091503090632f2ff15d90604401600060405180830381600087803b15801561295b57600080fd5b505af115801561296f573d6000803e3d6000fd5b5050505050808061297f90613974565b915050612884565b50600195945050505050565b601b60009054906101000a90046001600160a01b03166001600160a01b031663ff7e88ec6040518163ffffffff1660e01b815260040160206040518083038186803b1580156129e157600080fd5b505afa1580156129f5573d6000803e3d6000fd5b505050506040513d601f19601f82011682018060405250810190612a19919061372e565b601b60156101000a81548160ff021916908315150217905550601b60009054906101000a90046001600160a01b03166001600160a01b0316632fb565856040518163ffffffff1660e01b815260040160206040518083038186803b158015612a8057600080fd5b505afa158015612a94573d6000803e3d6000fd5b505050506040513d601f19601f82011682018060405250810190612ab8919061372e565b601b8054911515600160b01b0260ff60b01b19909216919091179055565b6000610e3283836132b3565b6000612af2600880546001019055565b6000612afd60085490565b90507f8030e83b04d87bef53480e26263266d6ca66863aa8506aca6f2559d18aa1cb6781604051612b3091815260200190565b60405180910390a1919050565b60006108db825490565b6001600160a01b03811660009081526009602052604090208054600181018255905b50919050565b60006108db612b7c612369565b8360405161190160f01b6020820152602281018390526042810182905260009060620160405160208183030381529060405280519060200120905092915050565b60007f7fffffffffffffffffffffffffffffff5d576e7357a4501ddfe92f46681b20a0821115612c3a5760405162461bcd60e51b815260206004820152602260248201527f45434453413a20696e76616c6964207369676e6174757265202773272076616c604482015261756560f01b6064820152608401610a75565b8360ff16601b1480612c4f57508360ff16601c145b612ca65760405162461bcd60e51b815260206004820152602260248201527f45434453413a20696e76616c6964207369676e6174757265202776272076616c604482015261756560f01b6064820152608401610a75565b6040805160008082526020820180845288905260ff871692820192909252606081018590526080810184905260019060a0016020604051602081039080840390855afa158015612cfa573d6000803e3d6000fd5b5050604051601f1901519150506001600160a01b038116610ca75760405162461bcd60e51b815260206004820152601860248201527f45434453413a20696e76616c6964207369676e617475726500000000000000006044820152606401610a75565b6000828152600b6020526040902060010154600a5460ff1615612d8457610abf838361309c565b612d8e8133613038565b610abf838361309c565b601b60009054906101000a90046001600160a01b03166001600160a01b031663a44b93256040518163ffffffff1660e01b815260040160206040518083038186803b158015612de657600080fd5b505afa158015612dfa573d6000803e3d6000fd5b505050506040513d601f19601f82011682018060405250810190612e1e919061372e565b612e2757600080fd5b601b60009054906101000a90046001600160a01b03166001600160a01b031663ac7cfac36040518163ffffffff1660e01b815260040160206040518083038186803b158015612e7557600080fd5b505afa158015612e89573d6000803e3d6000fd5b505050506040513d601f19601f82011682018060405250810190612ead91906135d7565b600d80546001600160a01b0319166001600160a01b0392909216919091179055565b612ed98282610e39565b61134e576000828152600b602090815260408083206001600160a01b03851684529091529020805460ff19166001179055612f113390565b6001600160a01b0316816001600160a01b0316837f2f8788117e7eff1d82e926ec794901d17c78024a50270940304540a733656f0d60405160405180910390a45050565b6000818152600183016020526040812054612f9c575081546001818101845560008481526020808220909301849055845484825282860190935260409020919091556108db565b5060006108db565b6001600160a01b038116600090815260056020908152604080832091839052909120546109bb9190613339565b613339565b6109e56006612fd160025490565b601b54600160c81b900460ff1680156130065750601b54600160a01b900460ff165b1561302d57613023600080516020613ab583398151915233610e39565b1561302d57600080fd5b610abf838383611367565b6130428282610e39565b61134e5761305a816001600160a01b03166014613384565b613065836020613384565b6040516020016130769291906137ee565b60408051601f198184030181529082905262461bcd60e51b8252610a7591600401613863565b6130a68282610e39565b1561134e576000828152600b602090815260408083206001600160a01b0385168085529252808320805460ff1916905551339285917ff6391f5c32d9c69d2a47ea670b442974b53935d1edc7fd64eb21e047a839171b9190a45050565b600081815260018301602052604081205480156131e65760006131276001836138e1565b855490915060009061313b906001906138e1565b90506000866000018281548110613154576131546139e5565b9060005260206000200154905080876000018481548110613177576131776139e5565b6000918252602080832090910192909255828152600189019091526040902084905586548790806131aa576131aa6139cf565b600190038181906000526020600020016000905590558660010160008781526020019081526020016000206000905560019450505050506108db565b60009150506108db565b8154600090613201575060006108db565b82546000905b8082101561325d57600061321b8383613520565b905084868281548110613230576132306139e5565b9060005260206000200154111561324957809150613257565b613254816001613896565b92505b50613207565b600082118015613292575083856132756001856138e1565b81548110613285576132856139e5565b9060005260206000200154145b156132ab576132a26001836138e1565b925050506108db565b5090506108db565b815460009082106133115760405162461bcd60e51b815260206004820152602260248201527f456e756d657261626c655365743a20696e646578206f7574206f6620626f756e604482015261647360f01b6064820152608401610a75565b826000018281548110613326576133266139e5565b9060005260206000200154905092915050565b600061334460085490565b90508061335084613577565b1015610abf578254600180820185556000858152602080822090930193909355938401805494850181558252902090910155565b606060006133938360026138c2565b61339e906002613896565b67ffffffffffffffff8111156133b6576133b66139fb565b6040519080825280601f01601f1916602001820160405280156133e0576020820181803683370190505b509050600360fc1b816000815181106133fb576133fb6139e5565b60200101906001600160f81b031916908160001a905350600f60fb1b8160018151811061342a5761342a6139e5565b60200101906001600160f81b031916908160001a905350600061344e8460026138c2565b613459906001613896565b90505b60018111156134d1576f181899199a1a9b1b9c1cb0b131b232b360811b85600f166010811061348d5761348d6139e5565b1a60f81b8282815181106134a3576134a36139e5565b60200101906001600160f81b031916908160001a90535060049490941c936134ca81613928565b905061345c565b508315610e325760405162461bcd60e51b815260206004820181905260248201527f537472696e67733a20686578206c656e67746820696e73756666696369656e746044820152606401610a75565b6000600261352e818461398f565b61353960028661398f565b6135439190613896565b61354d91906138ae565b6135586002846138ae565b6135636002866138ae565b61356d9190613896565b610e329190613896565b805460009061358857506000919050565b81548290613598906001906138e1565b815481106135a8576135a86139e5565b90600052602060002001549050919050565b6000602082840312156135cc57600080fd5b8135610e3281613a11565b6000602082840312156135e957600080fd5b8151610e3281613a11565b6000806040838503121561360757600080fd5b823561361281613a11565b9150602083013561362281613a11565b809150509250929050565b60008060006060848603121561364257600080fd5b833561364d81613a11565b9250602084013561365d81613a11565b929592945050506040919091013590565b600080600080600080600060e0888a03121561368957600080fd5b873561369481613a11565b965060208801356136a481613a11565b95506040880135945060608801359350608088013560ff811681146136c857600080fd5b9699959850939692959460a0840135945060c09093013592915050565b600080604083850312156136f857600080fd5b823561370381613a11565b946020939093013593505050565b60006020828403121561372357600080fd5b8135610e3281613a26565b60006020828403121561374057600080fd5b8151610e3281613a26565b60006020828403121561375d57600080fd5b5035919050565b6000806040838503121561377757600080fd5b82359150602083013561362281613a11565b6000806040838503121561379c57600080fd5b50508035926020909101359150565b6000602082840312156137bd57600080fd5b81356001600160e01b031981168114610e3257600080fd5b6000602082840312156137e757600080fd5b5051919050565b7f416363657373436f6e74726f6c3a206163636f756e74200000000000000000008152600083516138268160178501602088016138f8565b7001034b99036b4b9b9b4b733903937b6329607d1b60179184019182015283516138578160288401602088016138f8565b01602801949350505050565b60208152600082518060208401526138828160408501602087016138f8565b601f01601f19169190910160400192915050565b600082198211156138a9576138a96139a3565b500190565b6000826138bd576138bd6139b9565b500490565b60008160001904831182151516156138dc576138dc6139a3565b500290565b6000828210156138f3576138f36139a3565b500390565b60005b838110156139135781810151838201526020016138fb565b83811115613922576000848401525b50505050565b600081613937576139376139a3565b506000190190565b600181811c9082168061395357607f821691505b60208210811415612b6957634e487b7160e01b600052602260045260246000fd5b6000600019821415613988576139886139a3565b5060010190565b60008261399e5761399e6139b9565b500690565b634e487b7160e01b600052601160045260246000fd5b634e487b7160e01b600052601260045260246000fd5b634e487b7160e01b600052603160045260246000fd5b634e487b7160e01b600052603260045260246000fd5b634e487b7160e01b600052604160045260246000fd5b6001600160a01b03811681146109bb57600080fd5b80151581146109bb57600080fdfefa8e4989e1d689f7bc5c4b25b87efb51fecdecb19ba62847e29c759e12a89acd048bc71fa1cb2c119c339cf9cf00a97996a19a9d991ce5fe049f2fa5459e7990f0f4b159a6e2a4815eb3ca3df080bfa70c9270662c59bcaa4479a456220183e60538d24a8b7882d7b2e36af243d4af61c23e86e3daa6cb8c887b53220b2f57207c9d7f6f02908185bffb3f7fc9afb29fd7bf93675af8fd4b655ee05c2cee1e0ea264697066735822122023831ff6a40ff39b2fa1a73556aac23dc8841a3f63d2cf2bea62547c74dedba764736f6c63430008060033af6764c545b730f8406272d3c433b26bc54d4e183d20d8b2ddd26b7c92f55547",
  "immutableReferences": {
    "8237": [
      {
        "length": 32,
        "start": 4482
      }
    ],
    "10708": [
      {
        "length": 32,
        "start": 9110
      }
    ],
    "10710": [
      {
        "length": 32,
        "start": 9069
      }
    ],
    "10712": [
      {
        "length": 32,
        "start": 9193
      }
    ],
    "10714": [
      {
        "length": 32,
        "start": 9230
      }
    ],
    "10716": [
      {
        "length": 32,
        "start": 9151
      }
    ]
  },
  "source": "// Disclaimer: I have literally no idea what I'm doing so take that as you will.\n// Now that thats out of the way, feel free to help improve this!\n\npragma solidity ^0.8.0;\n\nimport \"@openzeppelin/contracts/token/ERC20/ERC20.sol\";\nimport \"@openzeppelin/contracts/token/ERC20/extensions/ERC20Snapshot.sol\";\nimport \"@openzeppelin/contracts/token/ERC20/extensions/draft-ERC20Permit.sol\";\nimport \"@openzeppelin/contracts/token/ERC20/extensions/ERC20Burnable.sol\";\nimport \"../src/SmartConsensusMachine.sol\";\nimport \"../src/ERC20/JerkSanctions.sol\";\n\n// Token features:\n// Snapshot for governance and distrubutions\n// Burnable\n// Fixed Supply\n// Gassless Permit (Draft EIP)\n\ncontract RedPens is ERC20, ERC20Snapshot, ERC20Permit, ERC20Burnable, SmartConsensusMachine, JerkSanctions {\n\n    constructor(address _AddressManagerAddress) ERC20(\"Red Pens\", \"!RED\") ERC20Permit(\"Red Pens\") SmartConsensusMachine(_AddressManagerAddress) {\n    \n        _mint(TreasuryAddress, 820042000 * 10 ** 18); // Mint the entire token supply\n    }\n\n    function _beforeTokenTransfer(address from, address to, uint256 amount)\n        internal\n        override(ERC20, ERC20Snapshot, JerkSanctions)\n    {\n        if (jerkSanctionsLocal && jerkSanctions) {\n           require(!hasRole(JERK_ROLE, msg.sender)); \n        }\n        super._beforeTokenTransfer(from, to, amount);\n    }\n\n}\n\n    ",
  "sourcePath": "/home/n/Desktop/PinkSlips_FrontEnd_REFORMAT/contracts/govTokens/RedPens.sol",
  "compiler": {
    "name": "solc",
    "version": "0.8.6+commit.11564f7e.Emscripten.clang"
  },
  "schemaVersion": "3.4.1",
  "updatedAt": "2021-08-12T06:31:46.126Z",
  "networkType": "ethereum",
  "devdoc": {
    "kind": "dev",
    "methods": {
      "DOMAIN_SEPARATOR()": {
        "details": "See {IERC20Permit-DOMAIN_SEPARATOR}."
      },
      "allowance(address,address)": {
        "details": "See {IERC20-allowance}."
      },
      "approve(address,uint256)": {
        "details": "See {IERC20-approve}. Requirements: - `spender` cannot be the zero address."
      },
      "balanceOf(address)": {
        "details": "See {IERC20-balanceOf}."
      },
      "balanceOfAt(address,uint256)": {
        "details": "Retrieves the balance of `account` at the time `snapshotId` was created."
      },
      "burn(uint256)": {
        "details": "Destroys `amount` tokens from the caller. See {ERC20-_burn}."
      },
      "burnFrom(address,uint256)": {
        "details": "Destroys `amount` tokens from `account`, deducting from the caller's allowance. See {ERC20-_burn} and {ERC20-allowance}. Requirements: - the caller must have allowance for ``accounts``'s tokens of at least `amount`."
      },
      "decimals()": {
        "details": "Returns the number of decimals used to get its user representation. For example, if `decimals` equals `2`, a balance of `505` tokens should be displayed to a user as `5,05` (`505 / 10 ** 2`). Tokens usually opt for a value of 18, imitating the relationship between Ether and Wei. This is the value {ERC20} uses, unless this function is overridden; NOTE: This information is only used for _display_ purposes: it in no way affects any of the arithmetic of the contract, including {IERC20-balanceOf} and {IERC20-transfer}."
      },
      "decreaseAllowance(address,uint256)": {
        "details": "Atomically decreases the allowance granted to `spender` by the caller. This is an alternative to {approve} that can be used as a mitigation for problems described in {IERC20-approve}. Emits an {Approval} event indicating the updated allowance. Requirements: - `spender` cannot be the zero address. - `spender` must have allowance for the caller of at least `subtractedValue`."
      },
      "getRoleAdmin(bytes32)": {
        "details": "Returns the admin role that controls `role`. See {grantRole} and {revokeRole}. To change a role's admin, use {_setRoleAdmin}."
      },
      "getRoleMember(bytes32,uint256)": {
        "details": "Returns one of the accounts that have `role`. `index` must be a value between 0 and {getRoleMemberCount}, non-inclusive. Role bearers are not sorted in any particular way, and their ordering may change at any point. WARNING: When using {getRoleMember} and {getRoleMemberCount}, make sure you perform all queries on the same block. See the following https://forum.openzeppelin.com/t/iterating-over-elements-on-enumerableset-in-openzeppelin-contracts/2296[forum post] for more information."
      },
      "getRoleMemberCount(bytes32)": {
        "details": "Returns the number of accounts that have `role`. Can be used together with {getRoleMember} to enumerate all bearers of a role."
      },
      "grantRole(bytes32,address)": {
        "details": "Overload {grantRole} to track enumerable memberships"
      },
      "hasRole(bytes32,address)": {
        "details": "Returns `true` if `account` has been granted `role`."
      },
      "increaseAllowance(address,uint256)": {
        "details": "Atomically increases the allowance granted to `spender` by the caller. This is an alternative to {approve} that can be used as a mitigation for problems described in {IERC20-approve}. Emits an {Approval} event indicating the updated allowance. Requirements: - `spender` cannot be the zero address."
      },
      "name()": {
        "details": "Returns the name of the token."
      },
      "nonces(address)": {
        "details": "See {IERC20Permit-nonces}."
      },
      "permit(address,address,uint256,uint256,uint8,bytes32,bytes32)": {
        "details": "See {IERC20Permit-permit}."
      },
      "renounceRole(bytes32,address)": {
        "details": "Overload {renounceRole} to track enumerable memberships"
      },
      "revokeRole(bytes32,address)": {
        "details": "Overload {revokeRole} to track enumerable memberships"
      },
      "supportsInterface(bytes4)": {
        "details": "See {IERC165-supportsInterface}."
      },
      "symbol()": {
        "details": "Returns the symbol of the token, usually a shorter version of the name."
      },
      "totalSupply()": {
        "details": "See {IERC20-totalSupply}."
      },
      "totalSupplyAt(uint256)": {
        "details": "Retrieves the total supply at the time `snapshotId` was created."
      },
      "transfer(address,uint256)": {
        "details": "See {IERC20-transfer}. Requirements: - `recipient` cannot be the zero address. - the caller must have a balance of at least `amount`."
      },
      "transferFrom(address,address,uint256)": {
        "details": "See {IERC20-transferFrom}. Emits an {Approval} event indicating the updated allowance. This is not required by the EIP. See the note at the beginning of {ERC20}. Requirements: - `sender` and `recipient` cannot be the zero address. - `sender` must have a balance of at least `amount`. - the caller must have allowance for ``sender``'s tokens of at least `amount`."
      }
    },
    "version": 1
  },
  "userdoc": {
    "kind": "user",
    "methods": {},
    "version": 1
  }
}