{
  "contractName": "SimpleStorage",
  "abi": [
    {
      "inputs": [],
      "name": "storedString",
      "outputs": [
        {
          "internalType": "string",
          "name": "",
          "type": "string"
        }
      ],
      "stateMutability": "view",
      "type": "function",
      "constant": true
    },
    {
      "inputs": [
        {
          "internalType": "uint256",
          "name": "x",
          "type": "uint256"
        }
      ],
      "name": "set",
      "outputs": [],
      "stateMutability": "nonpayable",
      "type": "function"
    },
    {
      "inputs": [
        {
          "internalType": "string",
          "name": "stringData",
          "type": "string"
        }
      ],
      "name": "setString",
      "outputs": [
        {
          "internalType": "bool",
          "name": "",
          "type": "bool"
        }
      ],
      "stateMutability": "nonpayable",
      "type": "function"
    },
    {
      "inputs": [],
      "name": "get",
      "outputs": [
        {
          "internalType": "uint256",
          "name": "",
          "type": "uint256"
        }
      ],
      "stateMutability": "view",
      "type": "function",
      "constant": true
    }
  ],
  "bytecode": "0x608060405234801561001057600080fd5b506103b1806100206000396000f3fe608060405234801561001057600080fd5b506004361061004c5760003560e01c806302dd56d01461005157806360fe47b11461006f5780636d4ce63c146100845780637fcaf66614610099575b600080fd5b6100596100b9565b60405161006691906102ce565b60405180910390f35b61008261007d3660046102ab565b610147565b005b61008c61014c565b6040516100669190610321565b6100ac6100a736600461020a565b610152565b60405161006691906102c3565b600180546100c69061032a565b80601f01602080910402602001604051908101604052809291908181526020018280546100f29061032a565b801561013f5780601f106101145761010080835404028352916020019161013f565b820191906000526020600020905b81548152906001019060200180831161012257829003601f168201915b505050505081565b600055565b60005490565b8051600090610168906001906020850190610171565b50600192915050565b82805461017d9061032a565b90600052602060002090601f01602090048101928261019f57600085556101e5565b82601f106101b857805160ff19168380011785556101e5565b828001600101855582156101e5579182015b828111156101e55782518255916020019190600101906101ca565b506101f19291506101f5565b5090565b5b808211156101f157600081556001016101f6565b6000602080838503121561021c578182fd5b823567ffffffffffffffff80821115610233578384fd5b818501915085601f830112610246578384fd5b81358181111561025857610258610365565b604051601f8201601f191681018501838111828210171561027b5761027b610365565b6040528181528382018501881015610291578586fd5b818585018683013790810190930193909352509392505050565b6000602082840312156102bc578081fd5b5035919050565b901515815260200190565b6000602080835283518082850152825b818110156102fa578581018301518582016040015282016102de565b8181111561030b5783604083870101525b50601f01601f1916929092016040019392505050565b90815260200190565b60028104600182168061033e57607f821691505b6020821081141561035f57634e487b7160e01b600052602260045260246000fd5b50919050565b634e487b7160e01b600052604160045260246000fdfea2646970667358221220c2c3fc93d30ddea259ad135da204926a26cd69a8530dad74986c36eb72a6a03064736f6c63430008000033",
  "immutableReferences": {},
  "source": "// SPDX-License-Identifier: MIT\npragma solidity >=0.4.21 <=0.8.0;\n\ncontract SimpleStorage {\n  uint storedData;\n  string public storedString;\n\n  function set(uint x) public {\n    storedData = x;\n  }\n\n  function setString(string memory stringData) public returns(bool){\n    storedString = stringData;\n    return true;\n  }\n\n  function get() public view returns (uint) {\n    return storedData;\n  }\n}\n",
  "sourcePath": "/home/n/Desktop/v3_fronternd/PinkSlips_FrontEnd_ROUGH/contracts/SimpleStorage.sol",
  "compiler": {
    "name": "solc",
    "version": "0.8.0+commit.c7dfd78e.Emscripten.clang"
  },
  "schemaVersion": "3.4.1",
  "updatedAt": "2021-07-05T09:25:31.583Z",
  "networkType": "ethereum",
  "devdoc": {
    "kind": "dev",
    "methods": {},
    "version": 1
  },
  "userdoc": {
    "kind": "user",
    "methods": {},
    "version": 1
  }
}