{
  "contractName": "SmartConsensusMachine",
  "abi": [
    {
      "inputs": [
        {
          "internalType": "address",
          "name": "_AddressManagerAddress",
          "type": "address"
        }
      ],
      "stateMutability": "nonpayable",
      "type": "constructor"
    },
    {
      "anonymous": false,
      "inputs": [
        {
          "indexed": true,
          "internalType": "bytes32",
          "name": "role",
          "type": "bytes32"
        },
        {
          "indexed": true,
          "internalType": "bytes32",
          "name": "previousAdminRole",
          "type": "bytes32"
        },
        {
          "indexed": true,
          "internalType": "bytes32",
          "name": "newAdminRole",
          "type": "bytes32"
        }
      ],
      "name": "RoleAdminChanged",
      "type": "event"
    },
    {
      "anonymous": false,
      "inputs": [
        {
          "indexed": true,
          "internalType": "bytes32",
          "name": "role",
          "type": "bytes32"
        },
        {
          "indexed": true,
          "internalType": "address",
          "name": "account",
          "type": "address"
        },
        {
          "indexed": true,
          "internalType": "address",
          "name": "sender",
          "type": "address"
        }
      ],
      "name": "RoleGranted",
      "type": "event"
    },
    {
      "anonymous": false,
      "inputs": [
        {
          "indexed": true,
          "internalType": "bytes32",
          "name": "role",
          "type": "bytes32"
        },
        {
          "indexed": true,
          "internalType": "address",
          "name": "account",
          "type": "address"
        },
        {
          "indexed": true,
          "internalType": "address",
          "name": "sender",
          "type": "address"
        }
      ],
      "name": "RoleRevoked",
      "type": "event"
    },
    {
      "inputs": [],
      "name": "AddressManagerAddress",
      "outputs": [
        {
          "internalType": "address",
          "name": "",
          "type": "address"
        }
      ],
      "stateMutability": "view",
      "type": "function"
    },
    {
      "inputs": [],
      "name": "ChadBadgeAddress",
      "outputs": [
        {
          "internalType": "address",
          "name": "",
          "type": "address"
        }
      ],
      "stateMutability": "view",
      "type": "function"
    },
    {
      "inputs": [],
      "name": "DEFAULT_ADMIN_ROLE",
      "outputs": [
        {
          "internalType": "bytes32",
          "name": "",
          "type": "bytes32"
        }
      ],
      "stateMutability": "view",
      "type": "function"
    },
    {
      "inputs": [],
      "name": "GAVELS_BAILIFF",
      "outputs": [
        {
          "internalType": "bytes32",
          "name": "",
          "type": "bytes32"
        }
      ],
      "stateMutability": "view",
      "type": "function"
    },
    {
      "inputs": [],
      "name": "GavelDAOAddress",
      "outputs": [
        {
          "internalType": "address",
          "name": "",
          "type": "address"
        }
      ],
      "stateMutability": "view",
      "type": "function"
    },
    {
      "inputs": [],
      "name": "GavelDAOAgent",
      "outputs": [
        {
          "internalType": "address",
          "name": "",
          "type": "address"
        }
      ],
      "stateMutability": "view",
      "type": "function"
    },
    {
      "inputs": [],
      "name": "GavelTokenAddress",
      "outputs": [
        {
          "internalType": "address",
          "name": "",
          "type": "address"
        }
      ],
      "stateMutability": "view",
      "type": "function"
    },
    {
      "inputs": [],
      "name": "GavelVote",
      "outputs": [
        {
          "internalType": "bool",
          "name": "",
          "type": "bool"
        }
      ],
      "stateMutability": "view",
      "type": "function"
    },
    {
      "inputs": [],
      "name": "GoldStarAddress",
      "outputs": [
        {
          "internalType": "address",
          "name": "",
          "type": "address"
        }
      ],
      "stateMutability": "view",
      "type": "function"
    },
    {
      "inputs": [],
      "name": "JERK_ROLE",
      "outputs": [
        {
          "internalType": "bytes32",
          "name": "",
          "type": "bytes32"
        }
      ],
      "stateMutability": "view",
      "type": "function"
    },
    {
      "inputs": [],
      "name": "JURY_BAILIFF",
      "outputs": [
        {
          "internalType": "bytes32",
          "name": "",
          "type": "bytes32"
        }
      ],
      "stateMutability": "view",
      "type": "function"
    },
    {
      "inputs": [],
      "name": "JuryDAOAddress",
      "outputs": [
        {
          "internalType": "address",
          "name": "",
          "type": "address"
        }
      ],
      "stateMutability": "view",
      "type": "function"
    },
    {
      "inputs": [],
      "name": "JuryDAOAgent",
      "outputs": [
        {
          "internalType": "address",
          "name": "",
          "type": "address"
        }
      ],
      "stateMutability": "view",
      "type": "function"
    },
    {
      "inputs": [],
      "name": "JuryPoolAddress",
      "outputs": [
        {
          "internalType": "address",
          "name": "",
          "type": "address"
        }
      ],
      "stateMutability": "view",
      "type": "function"
    },
    {
      "inputs": [],
      "name": "JuryVote",
      "outputs": [
        {
          "internalType": "bool",
          "name": "",
          "type": "bool"
        }
      ],
      "stateMutability": "view",
      "type": "function"
    },
    {
      "inputs": [],
      "name": "MINI_BAILIFF_ROLE",
      "outputs": [
        {
          "internalType": "bytes32",
          "name": "",
          "type": "bytes32"
        }
      ],
      "stateMutability": "view",
      "type": "function"
    },
    {
      "inputs": [],
      "name": "MiniBailiff",
      "outputs": [
        {
          "internalType": "address",
          "name": "",
          "type": "address"
        }
      ],
      "stateMutability": "view",
      "type": "function"
    },
    {
      "inputs": [],
      "name": "PinkSlipAddress",
      "outputs": [
        {
          "internalType": "address",
          "name": "",
          "type": "address"
        }
      ],
      "stateMutability": "view",
      "type": "function"
    },
    {
      "inputs": [],
      "name": "RedPenTokenAddress",
      "outputs": [
        {
          "internalType": "address",
          "name": "",
          "type": "address"
        }
      ],
      "stateMutability": "view",
      "type": "function"
    },
    {
      "inputs": [],
      "name": "THE_COURT_ROLE",
      "outputs": [
        {
          "internalType": "bytes32",
          "name": "",
          "type": "bytes32"
        }
      ],
      "stateMutability": "view",
      "type": "function"
    },
    {
      "inputs": [],
      "name": "TheCourtDAOAddress",
      "outputs": [
        {
          "internalType": "address",
          "name": "",
          "type": "address"
        }
      ],
      "stateMutability": "view",
      "type": "function"
    },
    {
      "inputs": [],
      "name": "TheCourtDAOAgent",
      "outputs": [
        {
          "internalType": "address",
          "name": "",
          "type": "address"
        }
      ],
      "stateMutability": "view",
      "type": "function"
    },
    {
      "inputs": [],
      "name": "TreasuryAddress",
      "outputs": [
        {
          "internalType": "address",
          "name": "",
          "type": "address"
        }
      ],
      "stateMutability": "view",
      "type": "function"
    },
    {
      "inputs": [],
      "name": "addressManager",
      "outputs": [
        {
          "internalType": "contract AddressManager",
          "name": "",
          "type": "address"
        }
      ],
      "stateMutability": "view",
      "type": "function"
    },
    {
      "inputs": [
        {
          "internalType": "bytes32",
          "name": "role",
          "type": "bytes32"
        }
      ],
      "name": "getRoleAdmin",
      "outputs": [
        {
          "internalType": "bytes32",
          "name": "",
          "type": "bytes32"
        }
      ],
      "stateMutability": "view",
      "type": "function"
    },
    {
      "inputs": [
        {
          "internalType": "bytes32",
          "name": "role",
          "type": "bytes32"
        },
        {
          "internalType": "uint256",
          "name": "index",
          "type": "uint256"
        }
      ],
      "name": "getRoleMember",
      "outputs": [
        {
          "internalType": "address",
          "name": "",
          "type": "address"
        }
      ],
      "stateMutability": "view",
      "type": "function"
    },
    {
      "inputs": [
        {
          "internalType": "bytes32",
          "name": "role",
          "type": "bytes32"
        }
      ],
      "name": "getRoleMemberCount",
      "outputs": [
        {
          "internalType": "uint256",
          "name": "",
          "type": "uint256"
        }
      ],
      "stateMutability": "view",
      "type": "function"
    },
    {
      "inputs": [
        {
          "internalType": "bytes32",
          "name": "role",
          "type": "bytes32"
        },
        {
          "internalType": "address",
          "name": "account",
          "type": "address"
        }
      ],
      "name": "grantRole",
      "outputs": [],
      "stateMutability": "nonpayable",
      "type": "function"
    },
    {
      "inputs": [
        {
          "internalType": "bytes32",
          "name": "role",
          "type": "bytes32"
        },
        {
          "internalType": "address",
          "name": "account",
          "type": "address"
        }
      ],
      "name": "hasRole",
      "outputs": [
        {
          "internalType": "bool",
          "name": "",
          "type": "bool"
        }
      ],
      "stateMutability": "view",
      "type": "function"
    },
    {
      "inputs": [],
      "name": "jerkSanctions",
      "outputs": [
        {
          "internalType": "bool",
          "name": "",
          "type": "bool"
        }
      ],
      "stateMutability": "view",
      "type": "function"
    },
    {
      "inputs": [
        {
          "internalType": "bytes32",
          "name": "role",
          "type": "bytes32"
        },
        {
          "internalType": "address",
          "name": "account",
          "type": "address"
        }
      ],
      "name": "renounceRole",
      "outputs": [],
      "stateMutability": "nonpayable",
      "type": "function"
    },
    {
      "inputs": [
        {
          "internalType": "bytes32",
          "name": "role",
          "type": "bytes32"
        },
        {
          "internalType": "address",
          "name": "account",
          "type": "address"
        }
      ],
      "name": "revokeRole",
      "outputs": [],
      "stateMutability": "nonpayable",
      "type": "function"
    },
    {
      "inputs": [
        {
          "internalType": "bytes4",
          "name": "interfaceId",
          "type": "bytes4"
        }
      ],
      "name": "supportsInterface",
      "outputs": [
        {
          "internalType": "bool",
          "name": "",
          "type": "bool"
        }
      ],
      "stateMutability": "view",
      "type": "function"
    },
    {
      "inputs": [],
      "name": "updateAddressManager",
      "outputs": [],
      "stateMutability": "nonpayable",
      "type": "function"
    },
    {
      "inputs": [],
      "name": "updateAllAddresses",
      "outputs": [],
      "stateMutability": "nonpayable",
      "type": "function"
    },
    {
      "inputs": [],
      "name": "updateDAOAddresses",
      "outputs": [],
      "stateMutability": "nonpayable",
      "type": "function"
    },
    {
      "inputs": [],
      "name": "updateDAOAgents",
      "outputs": [],
      "stateMutability": "nonpayable",
      "type": "function"
    },
    {
      "inputs": [],
      "name": "updateTokenAddresses",
      "outputs": [],
      "stateMutability": "nonpayable",
      "type": "function"
    },
    {
      "inputs": [],
      "name": "syncVotes",
      "outputs": [],
      "stateMutability": "nonpayable",
      "type": "function"
    },
    {
      "inputs": [],
      "name": "resetVote",
      "outputs": [],
      "stateMutability": "nonpayable",
      "type": "function"
    },
    {
      "inputs": [],
      "name": "updateAllRoles",
      "outputs": [],
      "stateMutability": "nonpayable",
      "type": "function"
    },
    {
      "inputs": [
        {
          "internalType": "bytes32",
          "name": "ROLE_TO_UPDATE",
          "type": "bytes32"
        }
      ],
      "name": "updateSingleRole",
      "outputs": [],
      "stateMutability": "nonpayable",
      "type": "function"
    },
    {
      "inputs": [
        {
          "internalType": "bytes32",
          "name": "ROLE_TO_SYNC",
          "type": "bytes32"
        }
      ],
      "name": "syncSingleRole",
      "outputs": [],
      "stateMutability": "nonpayable",
      "type": "function"
    },
    {
      "inputs": [],
      "name": "syncAllRoles",
      "outputs": [],
      "stateMutability": "nonpayable",
      "type": "function"
    }
  ],
  "bytecode": "0x60806040526011805463ffffffff60a01b191690553480156200002157600080fd5b50604051620030a2380380620030a2833981016040819052620000449162000cef565b600280546001600160a01b0383166001600160a01b0319918216811790925560118054909116909117905562000079620001b5565b62000083620001d5565b600c546200009d906000906001600160a01b031662000320565b600c54620000d6907f0538d24a8b7882d7b2e36af243d4af61c23e86e3daa6cb8c887b53220b2f5720906001600160a01b031662000320565b600d546200010f907f048bc71fa1cb2c119c339cf9cf00a97996a19a9d991ce5fe049f2fa5459e7990906001600160a01b031662000320565b600e5462000148907ffa8e4989e1d689f7bc5c4b25b87efb51fecdecb19ba62847e29c759e12a89acd906001600160a01b031662000320565b60105462000181907ff0f4b159a6e2a4815eb3ca3df080bfa70c9270662c59bcaa4479a456220183e6906001600160a01b031662000320565b620001ae7f7c9d7f6f02908185bffb3f7fc9afb29fd7bf93675af8fd4b655ee05c2cee1e0e600062000320565b5062000d45565b620001bf62000363565b620001c962000663565b620001d3620008ce565b565b601160009054906101000a90046001600160a01b03166001600160a01b031663ff7e88ec6040518163ffffffff1660e01b815260040160206040518083038186803b1580156200022457600080fd5b505afa15801562000239573d6000803e3d6000fd5b505050506040513d601f19601f820116820180604052508101906200025f919062000d21565b601160156101000a81548160ff021916908315150217905550601160009054906101000a90046001600160a01b03166001600160a01b0316632fb565856040518163ffffffff1660e01b815260040160206040518083038186803b158015620002c757600080fd5b505afa158015620002dc573d6000803e3d6000fd5b505050506040513d601f19601f8201168201806040525081019062000302919062000d21565b60118054911515600160b01b0260ff60b01b19909216919091179055565b62000337828262000bcd60201b620008841760201c565b60008281526001602090815260409091206200035e9183906200088e62000bdd821b17901c565b505050565b601160009054906101000a90046001600160a01b03166001600160a01b0316637dad1ad56040518163ffffffff1660e01b815260040160206040518083038186803b158015620003b257600080fd5b505afa158015620003c7573d6000803e3d6000fd5b505050506040513d601f19601f82011682018060405250810190620003ed919062000cef565b600a80546001600160a01b0319166001600160a01b039283161790556011546040805163a99b273560e01b81529051919092169163a99b2735916004808301926020929190829003018186803b1580156200044757600080fd5b505afa1580156200045c573d6000803e3d6000fd5b505050506040513d601f19601f8201168201806040525081019062000482919062000cef565b600b80546001600160a01b0319166001600160a01b0392831617905560115460408051637ef7fe1960e11b81529051919092169163fdeffc32916004808301926020929190829003018186803b158015620004dc57600080fd5b505afa158015620004f1573d6000803e3d6000fd5b505050506040513d601f19601f8201168201806040525081019062000517919062000cef565b600c80546001600160a01b0319166001600160a01b0392831617905560115460408051635b5c251f60e01b815290519190921691635b5c251f916004808301926020929190829003018186803b1580156200057157600080fd5b505afa15801562000586573d6000803e3d6000fd5b505050506040513d601f19601f82011682018060405250810190620005ac919062000cef565b600880546001600160a01b0319166001600160a01b0392831617905560115460408051636b58477560e01b815290519190921691636b584775916004808301926020929190829003018186803b1580156200060657600080fd5b505afa1580156200061b573d6000803e3d6000fd5b505050506040513d601f19601f8201168201806040525081019062000641919062000cef565b600980546001600160a01b0319166001600160a01b0392909216919091179055565b601160009054906101000a90046001600160a01b03166001600160a01b031663dadf56ac6040518163ffffffff1660e01b815260040160206040518083038186803b158015620006b257600080fd5b505afa158015620006c7573d6000803e3d6000fd5b505050506040513d601f19601f82011682018060405250810190620006ed919062000cef565b600d80546001600160a01b0319166001600160a01b039283161790556011546040805163024bebe960e01b81529051919092169163024bebe9916004808301926020929190829003018186803b1580156200074757600080fd5b505afa1580156200075c573d6000803e3d6000fd5b505050506040513d601f19601f8201168201806040525081019062000782919062000cef565b600e80546001600160a01b0319166001600160a01b039283161790556011546040805163320a28f960e11b81529051919092169163641451f2916004808301926020929190829003018186803b158015620007dc57600080fd5b505afa158015620007f1573d6000803e3d6000fd5b505050506040513d601f19601f8201168201806040525081019062000817919062000cef565b600f80546001600160a01b0319166001600160a01b0392831617905560115460408051637310bf1d60e11b81529051919092169163e6217e3a916004808301926020929190829003018186803b1580156200087157600080fd5b505afa15801562000886573d6000803e3d6000fd5b505050506040513d601f19601f82011682018060405250810190620008ac919062000cef565b601080546001600160a01b0319166001600160a01b0392909216919091179055565b601160009054906101000a90046001600160a01b03166001600160a01b03166321d7f0086040518163ffffffff1660e01b815260040160206040518083038186803b1580156200091d57600080fd5b505afa15801562000932573d6000803e3d6000fd5b505050506040513d601f19601f8201168201806040525081019062000958919062000cef565b600380546001600160a01b0319166001600160a01b039283161790556011546040805163762ddb5960e01b81529051919092169163762ddb59916004808301926020929190829003018186803b158015620009b257600080fd5b505afa158015620009c7573d6000803e3d6000fd5b505050506040513d601f19601f82011682018060405250810190620009ed919062000cef565b600480546001600160a01b0319166001600160a01b039283161781556011546040805163bfb7dc9960e01b81529051919093169263bfb7dc999281810192602092909190829003018186803b15801562000a4657600080fd5b505afa15801562000a5b573d6000803e3d6000fd5b505050506040513d601f19601f8201168201806040525081019062000a81919062000cef565b600580546001600160a01b0319166001600160a01b0392831617905560115460408051633e6111eb60e21b81529051919092169163f98447ac916004808301926020929190829003018186803b15801562000adb57600080fd5b505afa15801562000af0573d6000803e3d6000fd5b505050506040513d601f19601f8201168201806040525081019062000b16919062000cef565b600680546001600160a01b0319166001600160a01b0392831617905560115460408051630fe1ba9f60e21b815290519190921691633f86ea7c916004808301926020929190829003018186803b15801562000b7057600080fd5b505afa15801562000b85573d6000803e3d6000fd5b505050506040513d601f19601f8201168201806040525081019062000bab919062000cef565b600780546001600160a01b0319166001600160a01b0392909216919091179055565b62000bd9828262000bfd565b5050565b600062000bf4836001600160a01b03841662000c9d565b90505b92915050565b6000828152602081815260408083206001600160a01b038516845290915290205460ff1662000bd9576000828152602081815260408083206001600160a01b03851684529091529020805460ff1916600117905562000c593390565b6001600160a01b0316816001600160a01b0316837f2f8788117e7eff1d82e926ec794901d17c78024a50270940304540a733656f0d60405160405180910390a45050565b600081815260018301602052604081205462000ce65750815460018181018455600084815260208082209093018490558454848252828601909352604090209190915562000bf7565b50600062000bf7565b60006020828403121562000d0257600080fd5b81516001600160a01b038116811462000d1a57600080fd5b9392505050565b60006020828403121562000d3457600080fd5b8151801515811462000d1a57600080fd5b61234d8062000d556000396000f3fe608060405234801561001057600080fd5b50600436106102745760003560e01c80637dad1ad511610151578063cf4ece15116100c3578063e9a5323011610087578063e9a532301461054a578063f1132b301461055f578063f7d92d8614610567578063f98447ac1461056f578063fdeffc3214610582578063ff7e88ec1461059557600080fd5b8063cf4ece15146104e9578063d547741f146104fe578063dadf56ac14610511578063e6217e3a14610524578063e78c266c1461053757600080fd5b8063a78e746f11610115578063a78e746f1461047f578063a99b273514610493578063b6085bf5146104a6578063bfb7dc99146104ae578063ca15c873146104c1578063cce84392146104d457600080fd5b80637dad1ad5146104295780639010d07c1461043c57806391d148541461044f578063a217fddf14610462578063a32c5e591461046a57600080fd5b806336568abe116101ea57806357f276ff116101ae57806357f276ff146103c25780635b5c251f146103d55780635db531a1146103e8578063641451f2146103f05780636b58477514610403578063762ddb591461041657600080fd5b806336568abe146103795780633ab76e9f1461038c5780633f86ea7c1461039f57806349b5e105146103b25780634d84c6d8146103ba57600080fd5b80632436329d1161023c5780632436329d146102fc578063248a9ca31461031f5780632f2ff15d146103425780632fb5658514610355578063326a55e014610369578063329a8cfa1461037157600080fd5b806301ffc9a714610279578063024bebe9146102a1578063130f6320146102cc57806317314d5a146102e157806321d7f008146102e9575b600080fd5b61028c61028736600461206f565b6105a9565b60405190151581526020015b60405180910390f35b600e546102b4906001600160a01b031681565b6040516001600160a01b039091168152602001610298565b6102df6102da366004612004565b6105d4565b005b6102df6105eb565b6003546102b4906001600160a01b031681565b61031160008051602061227883398151915281565b604051908152602001610298565b61031161032d366004612004565b60009081526020819052604090206001015490565b6102df61035036600461201d565b6105f6565b60115461028c90600160b01b900460ff1681565b6102df61061d565b6102df610637565b6102df61038736600461201d565b610745565b6011546102b4906001600160a01b031681565b6007546102b4906001600160a01b031681565b6102df610767565b6102df61062d565b6102df6103d0366004612004565b61076f565b6008546102b4906001600160a01b031681565b6102df610778565b600f546102b4906001600160a01b031681565b6009546102b4906001600160a01b031681565b6004546102b4906001600160a01b031681565b600a546102b4906001600160a01b031681565b6102b461044a36600461204d565b610780565b61028c61045d36600461201d565b61079f565b610311600081565b6103116000805160206122d883398151915281565b60115461028c90600160a01b900460ff1681565b600b546102b4906001600160a01b031681565b6102df6107c8565b6005546102b4906001600160a01b031681565b6103116104cf366004612004565b6107d0565b6103116000805160206122f883398151915281565b6103116000805160206122b883398151915281565b6102df61050c36600461201d565b6107e7565b600d546102b4906001600160a01b031681565b6010546102b4906001600160a01b031681565b6002546102b4906001600160a01b031681565b61031160008051602061229883398151915281565b6102df6107f1565b6102df6107f9565b6006546102b4906001600160a01b031681565b600c546102b4906001600160a01b031681565b60115461028c90600160a81b900460ff1681565b60006001600160e01b03198216635a05180f60e01b14806105ce57506105ce826108a3565b92915050565b6105dd816108d8565b506105e781610a53565b5050565b6105f3610bdc565b50565b6106008282610d22565b6000828152600160205260409020610618908261088e565b505050565b610625610d48565b61062d611034565b61063561128f565b565b61064f6000805160206122d88339815191523361079f565b8061066d575061066d6000805160206122988339815191523361079f565b8061068b575061068b6000805160206122788339815191523361079f565b6106d55760405162461bcd60e51b81526020600482015260166024820152752cb7ba93b932903737ba103a3432903130b4b634b33360511b60448201526064015b60405180910390fd5b601160009054906101000a90046001600160a01b03166001600160a01b031663329a8cfa6040518163ffffffff1660e01b8152600401600060405180830381600087803b15801561072557600080fd5b505af1158015610739573d6000803e3d6000fd5b50505050610635610778565b61074f828261157a565b600082815260016020526040902061061890826115f4565b610635610d48565b6105e781611609565b610635611864565b600082815260016020526040812061079890836119a7565b9392505050565b6000918252602082815260408084206001600160a01b0393909316845291905290205460ff1690565b610635611034565b60008181526001602052604081206105ce906119b3565b61074f82826119bd565b6106356119e3565b6108106000805160206122d8833981519152611609565b50610828600080516020612298833981519152611609565b50610840600080516020612278833981519152611609565b506108586000805160206122b8833981519152611609565b506108706000805160206122f8833981519152611609565b5061087b6000611609565b50610635611864565b6105e78282611b1a565b6000610798836001600160a01b038416611b9e565b60006001600160e01b03198216637965db0b60e01b14806105ce57506301ffc9a760e01b6001600160e01b03198316146105ce565b60405163ca15c87360e01b8152600481018290526000908190309063ca15c8739060240160206040518083038186803b15801561091457600080fd5b505afa158015610928573d6000803e3d6000fd5b505050506040513d601f19601f8201168201806040525081019061094c9190612099565b905060005b81811015610a4957604051632404341f60e21b815260048101859052602481018290526000903090639010d07c9060440160206040518083038186803b15801561099a57600080fd5b505afa1580156109ae573d6000803e3d6000fd5b505050506040513d601f19601f820116820180604052508101906109d29190611fc5565b60405163d547741f60e01b8152600481018790526001600160a01b0382166024820152909150309063d547741f90604401600060405180830381600087803b158015610a1d57600080fd5b505af1158015610a31573d6000803e3d6000fd5b50505050508080610a41906121ef565b915050610951565b5060019392505050565b60115460405163ca15c87360e01b81526004810183905260009182916001600160a01b039091169063ca15c8739060240160206040518083038186803b158015610a9c57600080fd5b505afa158015610ab0573d6000803e3d6000fd5b505050506040513d601f19601f82011682018060405250810190610ad49190612099565b905060005b81811015610a4957601154604051632404341f60e21b815260048101869052602481018390526000916001600160a01b031690639010d07c9060440160206040518083038186803b158015610b2d57600080fd5b505afa158015610b41573d6000803e3d6000fd5b505050506040513d601f19601f82011682018060405250810190610b659190611fc5565b604051632f2ff15d60e01b8152600481018790526001600160a01b03821660248201529091503090632f2ff15d90604401600060405180830381600087803b158015610bb057600080fd5b505af1158015610bc4573d6000803e3d6000fd5b50505050508080610bd4906121ef565b915050610ad9565b6000610bf56000805160206122d88339815191526108d8565b50610c0d6000805160206122d8833981519152610a53565b610c1657600080fd5b610c2d6000805160206122988339815191526108d8565b50610c45600080516020612298833981519152610a53565b610c4e57600080fd5b610c656000805160206122788339815191526108d8565b50610c7d600080516020612278833981519152610a53565b610c8657600080fd5b610c9d6000805160206122b88339815191526108d8565b50610cb56000805160206122b8833981519152610a53565b610cbe57600080fd5b610cd56000805160206122f88339815191526108d8565b50610ced6000805160206122f8833981519152610a53565b610cf657600080fd5b610d0060006108d8565b50610d0b6000610a53565b610d1457600080fd5b610d1c611864565b50600190565b600082815260208190526040902060010154610d3e8133611bed565b6106188383611b1a565b601160009054906101000a90046001600160a01b03166001600160a01b0316637dad1ad56040518163ffffffff1660e01b815260040160206040518083038186803b158015610d9657600080fd5b505afa158015610daa573d6000803e3d6000fd5b505050506040513d601f19601f82011682018060405250810190610dce9190611fc5565b600a80546001600160a01b0319166001600160a01b039283161790556011546040805163a99b273560e01b81529051919092169163a99b2735916004808301926020929190829003018186803b158015610e2757600080fd5b505afa158015610e3b573d6000803e3d6000fd5b505050506040513d601f19601f82011682018060405250810190610e5f9190611fc5565b600b80546001600160a01b0319166001600160a01b0392831617905560115460408051637ef7fe1960e11b81529051919092169163fdeffc32916004808301926020929190829003018186803b158015610eb857600080fd5b505afa158015610ecc573d6000803e3d6000fd5b505050506040513d601f19601f82011682018060405250810190610ef09190611fc5565b600c80546001600160a01b0319166001600160a01b0392831617905560115460408051635b5c251f60e01b815290519190921691635b5c251f916004808301926020929190829003018186803b158015610f4957600080fd5b505afa158015610f5d573d6000803e3d6000fd5b505050506040513d601f19601f82011682018060405250810190610f819190611fc5565b600880546001600160a01b0319166001600160a01b0392831617905560115460408051636b58477560e01b815290519190921691636b584775916004808301926020929190829003018186803b158015610fda57600080fd5b505afa158015610fee573d6000803e3d6000fd5b505050506040513d601f19601f820116820180604052508101906110129190611fc5565b600980546001600160a01b0319166001600160a01b0392909216919091179055565b601160009054906101000a90046001600160a01b03166001600160a01b031663dadf56ac6040518163ffffffff1660e01b815260040160206040518083038186803b15801561108257600080fd5b505afa158015611096573d6000803e3d6000fd5b505050506040513d601f19601f820116820180604052508101906110ba9190611fc5565b600d80546001600160a01b0319166001600160a01b039283161790556011546040805163024bebe960e01b81529051919092169163024bebe9916004808301926020929190829003018186803b15801561111357600080fd5b505afa158015611127573d6000803e3d6000fd5b505050506040513d601f19601f8201168201806040525081019061114b9190611fc5565b600e80546001600160a01b0319166001600160a01b039283161790556011546040805163320a28f960e11b81529051919092169163641451f2916004808301926020929190829003018186803b1580156111a457600080fd5b505afa1580156111b8573d6000803e3d6000fd5b505050506040513d601f19601f820116820180604052508101906111dc9190611fc5565b600f80546001600160a01b0319166001600160a01b0392831617905560115460408051637310bf1d60e11b81529051919092169163e6217e3a916004808301926020929190829003018186803b15801561123557600080fd5b505afa158015611249573d6000803e3d6000fd5b505050506040513d601f19601f8201168201806040525081019061126d9190611fc5565b601080546001600160a01b0319166001600160a01b0392909216919091179055565b601160009054906101000a90046001600160a01b03166001600160a01b03166321d7f0086040518163ffffffff1660e01b815260040160206040518083038186803b1580156112dd57600080fd5b505afa1580156112f1573d6000803e3d6000fd5b505050506040513d601f19601f820116820180604052508101906113159190611fc5565b600380546001600160a01b0319166001600160a01b039283161790556011546040805163762ddb5960e01b81529051919092169163762ddb59916004808301926020929190829003018186803b15801561136e57600080fd5b505afa158015611382573d6000803e3d6000fd5b505050506040513d601f19601f820116820180604052508101906113a69190611fc5565b600480546001600160a01b0319166001600160a01b039283161781556011546040805163bfb7dc9960e01b81529051919093169263bfb7dc999281810192602092909190829003018186803b1580156113fe57600080fd5b505afa158015611412573d6000803e3d6000fd5b505050506040513d601f19601f820116820180604052508101906114369190611fc5565b600580546001600160a01b0319166001600160a01b0392831617905560115460408051633e6111eb60e21b81529051919092169163f98447ac916004808301926020929190829003018186803b15801561148f57600080fd5b505afa1580156114a3573d6000803e3d6000fd5b505050506040513d601f19601f820116820180604052508101906114c79190611fc5565b600680546001600160a01b0319166001600160a01b0392831617905560115460408051630fe1ba9f60e21b815290519190921691633f86ea7c916004808301926020929190829003018186803b15801561152057600080fd5b505afa158015611534573d6000803e3d6000fd5b505050506040513d601f19601f820116820180604052508101906115589190611fc5565b600780546001600160a01b0319166001600160a01b0392909216919091179055565b6001600160a01b03811633146115ea5760405162461bcd60e51b815260206004820152602f60248201527f416363657373436f6e74726f6c3a2063616e206f6e6c792072656e6f756e636560448201526e103937b632b9903337b91039b2b63360891b60648201526084016106cc565b6105e78282611c51565b6000610798836001600160a01b038416611cb6565b60115460405163ca15c87360e01b81526004810183905260009182916001600160a01b039091169063ca15c8739060240160206040518083038186803b15801561165257600080fd5b505afa158015611666573d6000803e3d6000fd5b505050506040513d601f19601f8201168201806040525081019061168a9190612099565b60405163ca15c87360e01b815260048101859052909150600090309063ca15c8739060240160206040518083038186803b1580156116c757600080fd5b505afa1580156116db573d6000803e3d6000fd5b505050506040513d601f19601f820116820180604052508101906116ff9190612099565b9050600061170d8284612191565b9050600081116117525760405162461bcd60e51b815260206004820152601060248201526f4e6f7468696e6720746f2073796e632160801b60448201526064016106cc565b60005b8181101561185857601154604051632404341f60e21b815260048101889052602481018390526000916001600160a01b031690639010d07c9060440160206040518083038186803b1580156117a957600080fd5b505afa1580156117bd573d6000803e3d6000fd5b505050506040513d601f19601f820116820180604052508101906117e19190611fc5565b604051632f2ff15d60e01b8152600481018990526001600160a01b03821660248201529091503090632f2ff15d90604401600060405180830381600087803b15801561182c57600080fd5b505af1158015611840573d6000803e3d6000fd5b50505050508080611850906121ef565b915050611755565b50600195945050505050565b601160009054906101000a90046001600160a01b03166001600160a01b031663ff7e88ec6040518163ffffffff1660e01b815260040160206040518083038186803b1580156118b257600080fd5b505afa1580156118c6573d6000803e3d6000fd5b505050506040513d601f19601f820116820180604052508101906118ea9190611fe2565b601160156101000a81548160ff021916908315150217905550601160009054906101000a90046001600160a01b03166001600160a01b0316632fb565856040518163ffffffff1660e01b815260040160206040518083038186803b15801561195157600080fd5b505afa158015611965573d6000803e3d6000fd5b505050506040513d601f19601f820116820180604052508101906119899190611fe2565b60118054911515600160b01b0260ff60b01b19909216919091179055565b60006107988383611da3565b60006105ce825490565b6000828152602081905260409020600101546119d98133611bed565b6106188383611c51565b601160009054906101000a90046001600160a01b03166001600160a01b031663a44b93256040518163ffffffff1660e01b815260040160206040518083038186803b158015611a3157600080fd5b505afa158015611a45573d6000803e3d6000fd5b505050506040513d601f19601f82011682018060405250810190611a699190611fe2565b611a7257600080fd5b601160009054906101000a90046001600160a01b03166001600160a01b031663ac7cfac36040518163ffffffff1660e01b815260040160206040518083038186803b158015611ac057600080fd5b505afa158015611ad4573d6000803e3d6000fd5b505050506040513d601f19601f82011682018060405250810190611af89190611fc5565b600280546001600160a01b0319166001600160a01b0392909216919091179055565b611b24828261079f565b6105e7576000828152602081815260408083206001600160a01b03851684529091529020805460ff19166001179055611b5a3390565b6001600160a01b0316816001600160a01b0316837f2f8788117e7eff1d82e926ec794901d17c78024a50270940304540a733656f0d60405160405180910390a45050565b6000818152600183016020526040812054611be5575081546001818101845560008481526020808220909301849055845484825282860190935260409020919091556105ce565b5060006105ce565b611bf7828261079f565b6105e757611c0f816001600160a01b03166014611e29565b611c1a836020611e29565b604051602001611c2b9291906120b2565b60408051601f198184030181529082905262461bcd60e51b82526106cc91600401612127565b611c5b828261079f565b156105e7576000828152602081815260408083206001600160a01b0385168085529252808320805460ff1916905551339285917ff6391f5c32d9c69d2a47ea670b442974b53935d1edc7fd64eb21e047a839171b9190a45050565b60008181526001830160205260408120548015611d99576000611cda600183612191565b8554909150600090611cee90600190612191565b90506000866000018281548110611d0757611d07612236565b9060005260206000200154905080876000018481548110611d2a57611d2a612236565b600091825260208083209091019290925582815260018901909152604090208490558654879080611d5d57611d5d612220565b600190038181906000526020600020016000905590558660010160008781526020019081526020016000206000905560019450505050506105ce565b60009150506105ce565b81546000908210611e015760405162461bcd60e51b815260206004820152602260248201527f456e756d657261626c655365743a20696e646578206f7574206f6620626f756e604482015261647360f01b60648201526084016106cc565b826000018281548110611e1657611e16612236565b9060005260206000200154905092915050565b60606000611e38836002612172565b611e4390600261215a565b67ffffffffffffffff811115611e5b57611e5b61224c565b6040519080825280601f01601f191660200182016040528015611e85576020820181803683370190505b509050600360fc1b81600081518110611ea057611ea0612236565b60200101906001600160f81b031916908160001a905350600f60fb1b81600181518110611ecf57611ecf612236565b60200101906001600160f81b031916908160001a9053506000611ef3846002612172565b611efe90600161215a565b90505b6001811115611f76576f181899199a1a9b1b9c1cb0b131b232b360811b85600f1660108110611f3257611f32612236565b1a60f81b828281518110611f4857611f48612236565b60200101906001600160f81b031916908160001a90535060049490941c93611f6f816121d8565b9050611f01565b5083156107985760405162461bcd60e51b815260206004820181905260248201527f537472696e67733a20686578206c656e67746820696e73756666696369656e7460448201526064016106cc565b600060208284031215611fd757600080fd5b815161079881612262565b600060208284031215611ff457600080fd5b8151801515811461079857600080fd5b60006020828403121561201657600080fd5b5035919050565b6000806040838503121561203057600080fd5b82359150602083013561204281612262565b809150509250929050565b6000806040838503121561206057600080fd5b50508035926020909101359150565b60006020828403121561208157600080fd5b81356001600160e01b03198116811461079857600080fd5b6000602082840312156120ab57600080fd5b5051919050565b7f416363657373436f6e74726f6c3a206163636f756e74200000000000000000008152600083516120ea8160178501602088016121a8565b7001034b99036b4b9b9b4b733903937b6329607d1b601791840191820152835161211b8160288401602088016121a8565b01602801949350505050565b60208152600082518060208401526121468160408501602087016121a8565b601f01601f19169190910160400192915050565b6000821982111561216d5761216d61220a565b500190565b600081600019048311821515161561218c5761218c61220a565b500290565b6000828210156121a3576121a361220a565b500390565b60005b838110156121c35781810151838201526020016121ab565b838111156121d2576000848401525b50505050565b6000816121e7576121e761220a565b506000190190565b60006000198214156122035761220361220a565b5060010190565b634e487b7160e01b600052601160045260246000fd5b634e487b7160e01b600052603160045260246000fd5b634e487b7160e01b600052603260045260246000fd5b634e487b7160e01b600052604160045260246000fd5b6001600160a01b03811681146105f357600080fdfefa8e4989e1d689f7bc5c4b25b87efb51fecdecb19ba62847e29c759e12a89acd048bc71fa1cb2c119c339cf9cf00a97996a19a9d991ce5fe049f2fa5459e7990f0f4b159a6e2a4815eb3ca3df080bfa70c9270662c59bcaa4479a456220183e60538d24a8b7882d7b2e36af243d4af61c23e86e3daa6cb8c887b53220b2f57207c9d7f6f02908185bffb3f7fc9afb29fd7bf93675af8fd4b655ee05c2cee1e0ea264697066735822122001af70b005c97888218b9f9474fd6985df88fc4ae407d539ecfd2208a62a971a64736f6c63430008060033",
  "immutableReferences": {},
  "source": "    pragma solidity ^0.8.0;\n\n    import \"./AddressManagerReciever.sol\";\n\n    import \"@openzeppelin/contracts/access/AccessControlEnumerable.sol\";\n   \n    contract SmartConsensusMachine is AccessControlEnumerable, AddressManagerReciever {\n       \n        bytes32 public constant THE_COURT_ROLE = keccak256(\"THE_COURT_ROLE\");\n        bytes32 public constant GAVELS_BAILIFF = keccak256(\"GAVELS_BAILIFF\");\n        bytes32 public constant JURY_BAILIFF = keccak256(\"JURY_BAILIFF\");\n        bytes32 public constant MINI_BAILIFF_ROLE = keccak256(\"MINI_BAILIFF_ROLE\");\n        bytes32 public constant JERK_ROLE = keccak256(\"JERK_ROLE\");\n\n        bool public jerkSanctions = false;\n\n        //To generate Consensus (false by default)\n        bool public GavelVote = false;\n        bool public JuryVote = false;\n\n        bool private isSetUp = false;\n\n        constructor(address _AddressManagerAddress) AddressManagerReciever(_AddressManagerAddress) {\n\n            updateAllAddresses();\n            _syncVotes(); \n            _setupRole(DEFAULT_ADMIN_ROLE, TheCourtDAOAddress);\n            _setupRole(THE_COURT_ROLE, TheCourtDAOAddress);\n            _setupRole(GAVELS_BAILIFF, GavelDAOAgent);\n            _setupRole(JURY_BAILIFF, JuryDAOAgent);\n            _setupRole(MINI_BAILIFF_ROLE, MiniBailiff);\n            _setupRole(JERK_ROLE, address(0));\n        }\n\n\n    /////////////////////////////////////////////////////////////////////////////////////////////////\n    /////////////////////////////////////////////////////////////////////////////////////////////////\n    /// @dev                                                                                     ////\n    /// Permission Modifiers                                                                     ////\n    /////////////////////////////////////////////////////////////////////////////////////////////////\n    /////////////////////////////////////////////////////////////////////////////////////////////////\n\n        modifier BAILIFF {\n            require(hasRole(THE_COURT_ROLE, msg.sender)\n                    || hasRole(GAVELS_BAILIFF, msg.sender)\n                    || hasRole(JURY_BAILIFF, msg.sender),\n                    \"You're not the bailiff\");\n            _;\n        }\n\n        modifier MINI_BAILIFF {\n            require(hasRole(THE_COURT_ROLE, msg.sender)\n                    || hasRole(GAVELS_BAILIFF, msg.sender)\n                    || hasRole(JURY_BAILIFF, msg.sender)\n                    || hasRole(MINI_BAILIFF_ROLE, msg.sender),\n                    \"You're not the bailiff\");\n            _;\n        }\n\n        modifier NOT_JERK {\n            if (jerkSanctions == true) {\n                require(!hasRole(JERK_ROLE, msg.sender));\n            }\n            _;\n        }\n\n        modifier GAVELS {\n            require(hasRole(GAVELS_BAILIFF, msg.sender)\n                    || hasRole(THE_COURT_ROLE, msg.sender)\n                    , \"You're not the Gavels\");\n            _;\n        }\n\n        modifier JURY {\n            require(hasRole(JURY_BAILIFF, msg.sender)\n                    || hasRole(THE_COURT_ROLE, msg.sender), \"You're not the Jury\");\n            _;\n        }\n\n        // Requires a YES vote from both DAOs\n        modifier THE_COURT {\n            require(hasRole(GAVELS_BAILIFF, msg.sender)\n                    || hasRole(JURY_BAILIFF, msg.sender)\n                    || hasRole(THE_COURT_ROLE, msg.sender));\n            require((GavelVote == JuryVote == true)\n                    || hasRole(THE_COURT_ROLE, msg.sender)\n                    , \"Court Must Agree\");\n            _;\n        }\n\n\n    /////////////////////////////////////////////////////////////////////////////////////////////////\n    /////////////////////////////////////////////////////////////////////////////////////////////////\n    /// @dev                                                                                     ////\n    /// Consensus Machine                                                                        ////\n    /////////////////////////////////////////////////////////////////////////////////////////////////\n    /////////////////////////////////////////////////////////////////////////////////////////////////\n\n        function _syncVotes() internal {\n            GavelVote = addressManager.GavelVote();\n            JuryVote = addressManager.JuryVote();      \n        }\n\n        function syncVotes() public {\n            _syncVotes();      \n        }\n\n        function resetVote() public BAILIFF { \n            addressManager.resetVote();\n            syncVotes();\n        }\n\n    /////////////////////////////////////////////////////////////////////////////////////////////////\n    /////////////////////////////////////////////////////////////////////////////////////////////////\n    /// @dev UPDATE ROLES                                                                        ////\n    /// @dev                                                                                     ////\n    /////////////////////////////////////////////////////////////////////////////////////////////////\n    /////////////////////////////////////////////////////////////////////////////////////////////////\n\n\n        function _updateRole(bytes32 ROLE_TO_GRANT) internal returns(bool) {\n            // UPDATE ROLES\n            uint numberOfRoleHodlers = addressManager.getRoleMemberCount(ROLE_TO_GRANT);\n            uint index = 0;\n            for (index = 0; index < numberOfRoleHodlers; index++) {\n                address roleHolder = addressManager.getRoleMember(ROLE_TO_GRANT, index);\n                this.grantRole(ROLE_TO_GRANT, roleHolder);\n            }\n            return true;\n        }\n\n        function _clearRole(bytes32 ROLE_TO_CLEAR) internal returns(bool) {\n            // Clear Roles\n            uint numberOfRoleHodlers = this.getRoleMemberCount(ROLE_TO_CLEAR);\n            uint index = 0;\n            for (index = 0; index < numberOfRoleHodlers; index++) {\n                address roleHolder = this.getRoleMember(ROLE_TO_CLEAR, index);\n                this.revokeRole(ROLE_TO_CLEAR, roleHolder);\n            }\n            return true;\n        }\n\n\n        function _updateAllRoles() internal returns(bool) {\n            // Clear Bailiff Role\n            _clearRole(THE_COURT_ROLE);\n            require(_updateRole(THE_COURT_ROLE));\n\n            _clearRole(GAVELS_BAILIFF);\n            require(_updateRole(GAVELS_BAILIFF));\n\n            _clearRole(JURY_BAILIFF);\n            require(_updateRole(JURY_BAILIFF));\n\n            _clearRole(MINI_BAILIFF_ROLE);\n            require(_updateRole(MINI_BAILIFF_ROLE));\n\n            _clearRole(JERK_ROLE);\n            require(_updateRole(JERK_ROLE));\n\n            _clearRole(DEFAULT_ADMIN_ROLE);\n            require(_updateRole(DEFAULT_ADMIN_ROLE));\n\n            _syncVotes(); \n\n            return true;\n        }\n\n        function _syncSingleRole(bytes32 ROLE_TO_SYNC) internal returns(bool) {\n            // SYNC ROLES\n            uint numberOfAllRoleHodlers = addressManager.getRoleMemberCount(ROLE_TO_SYNC);\n            uint numberOfCurrentRoleHodlers = this.getRoleMemberCount(ROLE_TO_SYNC);\n            uint numberOfNewRoleHodlers = numberOfAllRoleHodlers - numberOfCurrentRoleHodlers;\n            \n            require(numberOfNewRoleHodlers > 0, \"Nothing to sync!\");\n            \n            uint index = 0;\n            for (index = 0; index < numberOfNewRoleHodlers; index++) {\n                address roleHolder = addressManager.getRoleMember(ROLE_TO_SYNC, index);\n                this.grantRole(ROLE_TO_SYNC, roleHolder);\n            }\n            return true;\n\n        }\n\n       \n\n        function updateAllRoles() public {\n            _updateAllRoles();\n        }\n\n        function updateSingleRole(bytes32 ROLE_TO_UPDATE) public {\n            _clearRole(ROLE_TO_UPDATE);\n            _updateRole(ROLE_TO_UPDATE);\n        }\n\n        function syncSingleRole(bytes32 ROLE_TO_SYNC) public {\n            _syncSingleRole(ROLE_TO_SYNC);\n\n        }\n\n        function syncAllRoles() public {\n            _syncSingleRole(THE_COURT_ROLE);\n            _syncSingleRole(GAVELS_BAILIFF);\n            _syncSingleRole(JURY_BAILIFF);\n            _syncSingleRole(MINI_BAILIFF_ROLE);\n            _syncSingleRole(JERK_ROLE);\n            _syncSingleRole(DEFAULT_ADMIN_ROLE);\n            _syncVotes(); \n        }\n\n\n\n    /////////////////////////////////////////////////////////////////////////////////////////////////\n    /////////////////////////////////////////////////////////////////////////////////////////////////\n    /// @dev  END                                                                                ////\n    /////////////////////////////////////////////////////////////////////////////////////////////////\n    /////////////////////////////////////////////////////////////////////////////////////////////////\n    }\n\n\n    /////////////////////////////////////////////////////////////////////////////////////////////////\n    /////////////////////////////////////////////////////////////////////////////////////////////////\n    /// @dev                                                                                     ////\n    /// @dev                                                                                     ////\n    /// @dev                                                                                     ////\n    /////////////////////////////////////////////////////////////////////////////////////////////////\n    /////////////////////////////////////////////////////////////////////////////////////////////////\n\n    /////////////////////////////////////////////////////////////////////////////////////////////////\n    /////////////////////////////////////////////////////////////////////////////////////////////////\n    /// @dev                                                                                     ////\n    /// @dev                                                                                     ////\n    /////////////////////////////////////////////////////////////////////////////////////////////////\n    /////////////////////////////////////////////////////////////////////////////////////////////////",
  "sourcePath": "/home/n/Desktop/PinkSlips_FrontEnd_REFORMAT/contracts/src/SmartConsensusMachine.sol",
  "compiler": {
    "name": "solc",
    "version": "0.8.6+commit.11564f7e.Emscripten.clang"
  },
  "schemaVersion": "3.4.1",
  "updatedAt": "2021-08-05T06:59:35.365Z",
  "devdoc": {
    "kind": "dev",
    "methods": {
      "getRoleAdmin(bytes32)": {
        "details": "Returns the admin role that controls `role`. See {grantRole} and {revokeRole}. To change a role's admin, use {_setRoleAdmin}."
      },
      "getRoleMember(bytes32,uint256)": {
        "details": "Returns one of the accounts that have `role`. `index` must be a value between 0 and {getRoleMemberCount}, non-inclusive. Role bearers are not sorted in any particular way, and their ordering may change at any point. WARNING: When using {getRoleMember} and {getRoleMemberCount}, make sure you perform all queries on the same block. See the following https://forum.openzeppelin.com/t/iterating-over-elements-on-enumerableset-in-openzeppelin-contracts/2296[forum post] for more information."
      },
      "getRoleMemberCount(bytes32)": {
        "details": "Returns the number of accounts that have `role`. Can be used together with {getRoleMember} to enumerate all bearers of a role."
      },
      "grantRole(bytes32,address)": {
        "details": "Overload {grantRole} to track enumerable memberships"
      },
      "hasRole(bytes32,address)": {
        "details": "Returns `true` if `account` has been granted `role`."
      },
      "renounceRole(bytes32,address)": {
        "details": "Overload {renounceRole} to track enumerable memberships"
      },
      "revokeRole(bytes32,address)": {
        "details": "Overload {revokeRole} to track enumerable memberships"
      },
      "supportsInterface(bytes4)": {
        "details": "See {IERC165-supportsInterface}."
      }
    },
    "version": 1
  },
  "userdoc": {
    "kind": "user",
    "methods": {},
    "version": 1
  }
}