{
  "contractName": "SmartConsensusMachine",
  "abi": [
    {
      "inputs": [
        {
          "internalType": "address",
          "name": "_AddressManagerAddress",
          "type": "address"
        }
      ],
      "stateMutability": "nonpayable",
      "type": "constructor"
    },
    {
      "anonymous": false,
      "inputs": [
        {
          "indexed": true,
          "internalType": "bytes32",
          "name": "role",
          "type": "bytes32"
        },
        {
          "indexed": true,
          "internalType": "bytes32",
          "name": "previousAdminRole",
          "type": "bytes32"
        },
        {
          "indexed": true,
          "internalType": "bytes32",
          "name": "newAdminRole",
          "type": "bytes32"
        }
      ],
      "name": "RoleAdminChanged",
      "type": "event"
    },
    {
      "anonymous": false,
      "inputs": [
        {
          "indexed": true,
          "internalType": "bytes32",
          "name": "role",
          "type": "bytes32"
        },
        {
          "indexed": true,
          "internalType": "address",
          "name": "account",
          "type": "address"
        },
        {
          "indexed": true,
          "internalType": "address",
          "name": "sender",
          "type": "address"
        }
      ],
      "name": "RoleGranted",
      "type": "event"
    },
    {
      "anonymous": false,
      "inputs": [
        {
          "indexed": true,
          "internalType": "bytes32",
          "name": "role",
          "type": "bytes32"
        },
        {
          "indexed": true,
          "internalType": "address",
          "name": "account",
          "type": "address"
        },
        {
          "indexed": true,
          "internalType": "address",
          "name": "sender",
          "type": "address"
        }
      ],
      "name": "RoleRevoked",
      "type": "event"
    },
    {
      "inputs": [],
      "name": "AddressManagerAddress",
      "outputs": [
        {
          "internalType": "address",
          "name": "",
          "type": "address"
        }
      ],
      "stateMutability": "view",
      "type": "function"
    },
    {
      "inputs": [],
      "name": "ChadBadgeAddress",
      "outputs": [
        {
          "internalType": "address",
          "name": "",
          "type": "address"
        }
      ],
      "stateMutability": "view",
      "type": "function"
    },
    {
      "inputs": [],
      "name": "DEFAULT_ADMIN_ROLE",
      "outputs": [
        {
          "internalType": "bytes32",
          "name": "",
          "type": "bytes32"
        }
      ],
      "stateMutability": "view",
      "type": "function"
    },
    {
      "inputs": [],
      "name": "GAVELS_BAILIFF",
      "outputs": [
        {
          "internalType": "bytes32",
          "name": "",
          "type": "bytes32"
        }
      ],
      "stateMutability": "view",
      "type": "function"
    },
    {
      "inputs": [],
      "name": "GavelDAOAgent",
      "outputs": [
        {
          "internalType": "address",
          "name": "",
          "type": "address"
        }
      ],
      "stateMutability": "view",
      "type": "function"
    },
    {
      "inputs": [],
      "name": "GavelTokenAddress",
      "outputs": [
        {
          "internalType": "address",
          "name": "",
          "type": "address"
        }
      ],
      "stateMutability": "view",
      "type": "function"
    },
    {
      "inputs": [],
      "name": "GavelVote",
      "outputs": [
        {
          "internalType": "bool",
          "name": "",
          "type": "bool"
        }
      ],
      "stateMutability": "view",
      "type": "function"
    },
    {
      "inputs": [],
      "name": "GoldStarAddress",
      "outputs": [
        {
          "internalType": "address",
          "name": "",
          "type": "address"
        }
      ],
      "stateMutability": "view",
      "type": "function"
    },
    {
      "inputs": [],
      "name": "JERK_ROLE",
      "outputs": [
        {
          "internalType": "bytes32",
          "name": "",
          "type": "bytes32"
        }
      ],
      "stateMutability": "view",
      "type": "function"
    },
    {
      "inputs": [],
      "name": "JURY_BAILIFF",
      "outputs": [
        {
          "internalType": "bytes32",
          "name": "",
          "type": "bytes32"
        }
      ],
      "stateMutability": "view",
      "type": "function"
    },
    {
      "inputs": [],
      "name": "JuryDAOAgent",
      "outputs": [
        {
          "internalType": "address",
          "name": "",
          "type": "address"
        }
      ],
      "stateMutability": "view",
      "type": "function"
    },
    {
      "inputs": [],
      "name": "JuryPoolAddress",
      "outputs": [
        {
          "internalType": "address",
          "name": "",
          "type": "address"
        }
      ],
      "stateMutability": "view",
      "type": "function"
    },
    {
      "inputs": [],
      "name": "JuryVote",
      "outputs": [
        {
          "internalType": "bool",
          "name": "",
          "type": "bool"
        }
      ],
      "stateMutability": "view",
      "type": "function"
    },
    {
      "inputs": [],
      "name": "MINI_BAILIFF_ROLE",
      "outputs": [
        {
          "internalType": "bytes32",
          "name": "",
          "type": "bytes32"
        }
      ],
      "stateMutability": "view",
      "type": "function"
    },
    {
      "inputs": [],
      "name": "MiniBailiff",
      "outputs": [
        {
          "internalType": "address",
          "name": "",
          "type": "address"
        }
      ],
      "stateMutability": "view",
      "type": "function"
    },
    {
      "inputs": [],
      "name": "PinkSlipAddress",
      "outputs": [
        {
          "internalType": "address",
          "name": "",
          "type": "address"
        }
      ],
      "stateMutability": "view",
      "type": "function"
    },
    {
      "inputs": [],
      "name": "RedPenTokenAddress",
      "outputs": [
        {
          "internalType": "address",
          "name": "",
          "type": "address"
        }
      ],
      "stateMutability": "view",
      "type": "function"
    },
    {
      "inputs": [],
      "name": "THE_COURT_ROLE",
      "outputs": [
        {
          "internalType": "bytes32",
          "name": "",
          "type": "bytes32"
        }
      ],
      "stateMutability": "view",
      "type": "function"
    },
    {
      "inputs": [],
      "name": "TheCourtAddress",
      "outputs": [
        {
          "internalType": "address",
          "name": "",
          "type": "address"
        }
      ],
      "stateMutability": "view",
      "type": "function"
    },
    {
      "inputs": [],
      "name": "TreasuryAddress",
      "outputs": [
        {
          "internalType": "address",
          "name": "",
          "type": "address"
        }
      ],
      "stateMutability": "view",
      "type": "function"
    },
    {
      "inputs": [],
      "name": "addressManager",
      "outputs": [
        {
          "internalType": "contract AddressManager",
          "name": "",
          "type": "address"
        }
      ],
      "stateMutability": "view",
      "type": "function"
    },
    {
      "inputs": [
        {
          "internalType": "bytes32",
          "name": "role",
          "type": "bytes32"
        }
      ],
      "name": "getRoleAdmin",
      "outputs": [
        {
          "internalType": "bytes32",
          "name": "",
          "type": "bytes32"
        }
      ],
      "stateMutability": "view",
      "type": "function"
    },
    {
      "inputs": [
        {
          "internalType": "bytes32",
          "name": "role",
          "type": "bytes32"
        },
        {
          "internalType": "uint256",
          "name": "index",
          "type": "uint256"
        }
      ],
      "name": "getRoleMember",
      "outputs": [
        {
          "internalType": "address",
          "name": "",
          "type": "address"
        }
      ],
      "stateMutability": "view",
      "type": "function"
    },
    {
      "inputs": [
        {
          "internalType": "bytes32",
          "name": "role",
          "type": "bytes32"
        }
      ],
      "name": "getRoleMemberCount",
      "outputs": [
        {
          "internalType": "uint256",
          "name": "",
          "type": "uint256"
        }
      ],
      "stateMutability": "view",
      "type": "function"
    },
    {
      "inputs": [
        {
          "internalType": "bytes32",
          "name": "role",
          "type": "bytes32"
        },
        {
          "internalType": "address",
          "name": "account",
          "type": "address"
        }
      ],
      "name": "grantRole",
      "outputs": [],
      "stateMutability": "nonpayable",
      "type": "function"
    },
    {
      "inputs": [
        {
          "internalType": "bytes32",
          "name": "role",
          "type": "bytes32"
        },
        {
          "internalType": "address",
          "name": "account",
          "type": "address"
        }
      ],
      "name": "hasRole",
      "outputs": [
        {
          "internalType": "bool",
          "name": "",
          "type": "bool"
        }
      ],
      "stateMutability": "view",
      "type": "function"
    },
    {
      "inputs": [],
      "name": "jerkSanctions",
      "outputs": [
        {
          "internalType": "bool",
          "name": "",
          "type": "bool"
        }
      ],
      "stateMutability": "view",
      "type": "function"
    },
    {
      "inputs": [
        {
          "internalType": "bytes32",
          "name": "role",
          "type": "bytes32"
        },
        {
          "internalType": "address",
          "name": "account",
          "type": "address"
        }
      ],
      "name": "renounceRole",
      "outputs": [],
      "stateMutability": "nonpayable",
      "type": "function"
    },
    {
      "inputs": [
        {
          "internalType": "bytes32",
          "name": "role",
          "type": "bytes32"
        },
        {
          "internalType": "address",
          "name": "account",
          "type": "address"
        }
      ],
      "name": "revokeRole",
      "outputs": [],
      "stateMutability": "nonpayable",
      "type": "function"
    },
    {
      "inputs": [
        {
          "internalType": "bytes4",
          "name": "interfaceId",
          "type": "bytes4"
        }
      ],
      "name": "supportsInterface",
      "outputs": [
        {
          "internalType": "bool",
          "name": "",
          "type": "bool"
        }
      ],
      "stateMutability": "view",
      "type": "function"
    },
    {
      "inputs": [],
      "name": "updateAddressManager",
      "outputs": [],
      "stateMutability": "nonpayable",
      "type": "function"
    },
    {
      "inputs": [],
      "name": "updateAllAddresses",
      "outputs": [],
      "stateMutability": "nonpayable",
      "type": "function"
    },
    {
      "inputs": [],
      "name": "updateDAOAddresses",
      "outputs": [],
      "stateMutability": "nonpayable",
      "type": "function"
    },
    {
      "inputs": [],
      "name": "updateTokenAddresses",
      "outputs": [],
      "stateMutability": "nonpayable",
      "type": "function"
    },
    {
      "inputs": [],
      "name": "syncVotes",
      "outputs": [],
      "stateMutability": "nonpayable",
      "type": "function"
    },
    {
      "inputs": [],
      "name": "resetVote",
      "outputs": [],
      "stateMutability": "nonpayable",
      "type": "function"
    },
    {
      "inputs": [],
      "name": "updateAllRoles",
      "outputs": [],
      "stateMutability": "nonpayable",
      "type": "function"
    },
    {
      "inputs": [
        {
          "internalType": "bytes32",
          "name": "ROLE_TO_UPDATE",
          "type": "bytes32"
        }
      ],
      "name": "updateSingleRole",
      "outputs": [],
      "stateMutability": "nonpayable",
      "type": "function"
    },
    {
      "inputs": [
        {
          "internalType": "bytes32",
          "name": "ROLE_TO_SYNC",
          "type": "bytes32"
        }
      ],
      "name": "syncSingleRole",
      "outputs": [],
      "stateMutability": "nonpayable",
      "type": "function"
    },
    {
      "inputs": [],
      "name": "syncAllRoles",
      "outputs": [],
      "stateMutability": "nonpayable",
      "type": "function"
    }
  ],
  "bytecode": "0x60806040526000805460ff19169055600f805463ffffffff60a01b191690553480156200002b57600080fd5b5060405162002c6b38038062002c6b8339810160408190526200004e9162000a6c565b600380546001600160a01b0383166001600160a01b03199182168117909255600f8054909116909117905562000083620001bf565b6200008d620001d5565b600d54620000a7906000906001600160a01b031662000320565b600d54620000e0907f0538d24a8b7882d7b2e36af243d4af61c23e86e3daa6cb8c887b53220b2f5720906001600160a01b031662000320565b600a5462000119907f048bc71fa1cb2c119c339cf9cf00a97996a19a9d991ce5fe049f2fa5459e7990906001600160a01b031662000320565b600b5462000152907ffa8e4989e1d689f7bc5c4b25b87efb51fecdecb19ba62847e29c759e12a89acd906001600160a01b031662000320565b600e546200018b907ff0f4b159a6e2a4815eb3ca3df080bfa70c9270662c59bcaa4479a456220183e6906001600160a01b031662000320565b620001b87f7c9d7f6f02908185bffb3f7fc9afb29fd7bf93675af8fd4b655ee05c2cee1e0e600062000320565b5062000ac2565b620001c962000363565b620001d3620005ce565b565b600f60009054906101000a90046001600160a01b03166001600160a01b031663ff7e88ec6040518163ffffffff1660e01b815260040160206040518083038186803b1580156200022457600080fd5b505afa15801562000239573d6000803e3d6000fd5b505050506040513d601f19601f820116820180604052508101906200025f919062000a9e565b600f60156101000a81548160ff021916908315150217905550600f60009054906101000a90046001600160a01b03166001600160a01b0316632fb565856040518163ffffffff1660e01b815260040160206040518083038186803b158015620002c757600080fd5b505afa158015620002dc573d6000803e3d6000fd5b505050506040513d601f19601f8201168201806040525081019062000302919062000a9e565b600f8054911515600160b01b0260ff60b01b19909216919091179055565b6200033782826200096260201b6200085f1760201c565b60008281526002602090815260409091206200035e9183906200086962000972821b17901c565b505050565b600f60009054906101000a90046001600160a01b03166001600160a01b031663dadf56ac6040518163ffffffff1660e01b815260040160206040518083038186803b158015620003b257600080fd5b505afa158015620003c7573d6000803e3d6000fd5b505050506040513d601f19601f82011682018060405250810190620003ed919062000a6c565b600a80546001600160a01b0319166001600160a01b03928316179055600f546040805163024bebe960e01b81529051919092169163024bebe9916004808301926020929190829003018186803b1580156200044757600080fd5b505afa1580156200045c573d6000803e3d6000fd5b505050506040513d601f19601f8201168201806040525081019062000482919062000a6c565b600b80546001600160a01b0319166001600160a01b03928316179055600f5460408051635b5c251f60e01b815290519190921691635b5c251f916004808301926020929190829003018186803b158015620004dc57600080fd5b505afa158015620004f1573d6000803e3d6000fd5b505050506040513d601f19601f8201168201806040525081019062000517919062000a6c565b600c80546001600160a01b0319166001600160a01b03928316179055600f5460408051637310bf1d60e11b81529051919092169163e6217e3a916004808301926020929190829003018186803b1580156200057157600080fd5b505afa15801562000586573d6000803e3d6000fd5b505050506040513d601f19601f82011682018060405250810190620005ac919062000a6c565b600e80546001600160a01b0319166001600160a01b0392909216919091179055565b600f60009054906101000a90046001600160a01b03166001600160a01b03166321d7f0086040518163ffffffff1660e01b815260040160206040518083038186803b1580156200061d57600080fd5b505afa15801562000632573d6000803e3d6000fd5b505050506040513d601f19601f8201168201806040525081019062000658919062000a6c565b600480546001600160a01b0319166001600160a01b03928316178155600f546040805163762ddb5960e01b81529051919093169263762ddb599281810192602092909190829003018186803b158015620006b157600080fd5b505afa158015620006c6573d6000803e3d6000fd5b505050506040513d601f19601f82011682018060405250810190620006ec919062000a6c565b600580546001600160a01b0319166001600160a01b03928316179055600f546040805163bfb7dc9960e01b81529051919092169163bfb7dc99916004808301926020929190829003018186803b1580156200074657600080fd5b505afa1580156200075b573d6000803e3d6000fd5b505050506040513d601f19601f8201168201806040525081019062000781919062000a6c565b600680546001600160a01b0319166001600160a01b03928316179055600f5460408051633e6111eb60e21b81529051919092169163f98447ac916004808301926020929190829003018186803b158015620007db57600080fd5b505afa158015620007f0573d6000803e3d6000fd5b505050506040513d601f19601f8201168201806040525081019062000816919062000a6c565b600780546001600160a01b0319166001600160a01b03928316179055600f5460408051630fe1ba9f60e21b815290519190921691633f86ea7c916004808301926020929190829003018186803b1580156200087057600080fd5b505afa15801562000885573d6000803e3d6000fd5b505050506040513d601f19601f82011682018060405250810190620008ab919062000a6c565b600880546001600160a01b0319166001600160a01b03928316179055600f5460408051636b58477560e01b815290519190921691636b584775916004808301926020929190829003018186803b1580156200090557600080fd5b505afa1580156200091a573d6000803e3d6000fd5b505050506040513d601f19601f8201168201806040525081019062000940919062000a6c565b600980546001600160a01b0319166001600160a01b0392909216919091179055565b6200096e828262000992565b5050565b600062000989836001600160a01b03841662000a1a565b90505b92915050565b60008281526001602090815260408083206001600160a01b038516845290915290205460ff166200096e5760008281526001602081815260408084206001600160a01b0386168086529252808420805460ff19169093179092559051339285917f2f8788117e7eff1d82e926ec794901d17c78024a50270940304540a733656f0d9190a45050565b600081815260018301602052604081205462000a63575081546001818101845560008481526020808220909301849055845484825282860190935260409020919091556200098c565b5060006200098c565b60006020828403121562000a7f57600080fd5b81516001600160a01b038116811462000a9757600080fd5b9392505050565b60006020828403121562000ab157600080fd5b8151801515811462000a9757600080fd5b6121998062000ad26000396000f3fe608060405234801561001057600080fd5b50600436106102485760003560e01c80636b5847751161013b578063cf4ece15116100b8578063e9a532301161007c578063e9a53230146104f1578063f1132b3014610506578063f7d92d861461050e578063f98447ac14610516578063ff7e88ec1461052957600080fd5b8063cf4ece1514610490578063d547741f146104a5578063dadf56ac146104b8578063e6217e3a146104cb578063e78c266c146104de57600080fd5b8063a32c5e59116100ff578063a32c5e591461042c578063a78e746f14610441578063bfb7dc9914610455578063ca15c87314610468578063cce843921461047b57600080fd5b80636b584775146103d8578063762ddb59146103eb5780639010d07c146103fe57806391d1485414610411578063a217fddf1461042457600080fd5b8063329a8cfa116101c95780634d84c6d81161018d5780634d84c6d81461038f57806357f276ff146103975780635b5c251f146103aa5780635db531a1146103bd5780635f413466146103c557600080fd5b8063329a8cfa1461034657806336568abe1461034e5780633ab76e9f146103615780633f86ea7c1461037457806349b5e1051461038757600080fd5b80632436329d116102105780632436329d146102d0578063248a9ca3146102f35780632f2ff15d146103175780632fb565851461032a578063326a55e01461033e57600080fd5b806301ffc9a71461024d578063024bebe914610275578063130f6320146102a057806317314d5a146102b557806321d7f008146102bd575b600080fd5b61026061025b366004611ebb565b61053d565b60405190151581526020015b60405180910390f35b600b54610288906001600160a01b031681565b6040516001600160a01b03909116815260200161026c565b6102b36102ae366004611e50565b610568565b005b6102b3610595565b600454610288906001600160a01b031681565b6102e56000805160206120c483398151915281565b60405190815260200161026c565b6102e5610301366004611e50565b6000908152600160208190526040909120015490565b6102b3610325366004611e69565b6105b6565b600f5461026090600160b01b900460ff1681565b6102b36105dd565b6102b36105ef565b6102b361035c366004611e69565b6106fd565b600f54610288906001600160a01b031681565b600854610288906001600160a01b031681565b6102b361071f565b6102b36105e5565b6102b36103a5366004611e50565b610727565b600c54610288906001600160a01b031681565b6102b361073b565b600d54610288906001600160a01b031681565b600954610288906001600160a01b031681565b600554610288906001600160a01b031681565b61028861040c366004611e99565b610743565b61026061041f366004611e69565b610762565b6102e5600081565b6102e560008051602061212483398151915281565b600f5461026090600160a01b900460ff1681565b600654610288906001600160a01b031681565b6102e5610476366004611e50565b61078d565b6102e560008051602061214483398151915281565b6102e560008051602061210483398151915281565b6102b36104b3366004611e69565b6107a4565b600a54610288906001600160a01b031681565b600e54610288906001600160a01b031681565b600354610288906001600160a01b031681565b6102e56000805160206120e483398151915281565b6102b36107ae565b6102b36107b6565b600754610288906001600160a01b031681565b600f5461026090600160a81b900460ff1681565b60006001600160e01b03198216635a05180f60e01b148061056257506105628261087e565b92915050565b61057260016108b3565b5061057c8161096e565b5061058681610ae9565b5061059160006108b3565b5050565b61059f60016108b3565b506105a8610c72565b506105b360006108b3565b50565b6105c08282610db8565b60008281526002602052604090206105d89082610869565b505050565b6105e5610df2565b6105ed61104d565b565b61060760008051602061212483398151915233610762565b8061062557506106256000805160206120e483398151915233610762565b8061064357506106436000805160206120c483398151915233610762565b61068d5760405162461bcd60e51b81526020600482015260166024820152752cb7ba93b932903737ba103a3432903130b4b634b33360511b60448201526064015b60405180910390fd5b600f60009054906101000a90046001600160a01b03166001600160a01b031663329a8cfa6040518163ffffffff1660e01b8152600401600060405180830381600087803b1580156106dd57600080fd5b505af11580156106f1573d6000803e3d6000fd5b505050506105ed61073b565b61070782826113c9565b60008281526002602052604090206105d89082611443565b6105ed610df2565b61073160016108b3565b5061058681611458565b6105ed6116b3565b600082815260026020526040812061075b90836117f6565b9392505050565b60009182526001602090815260408084206001600160a01b0393909316845291905290205460ff1690565b600081815260026020526040812061056290611802565b610707828261180c565b6105ed611846565b6107c060016108b3565b506107d8600080516020612124833981519152611458565b506107f06000805160206120e4833981519152611458565b506108086000805160206120c4833981519152611458565b50610820600080516020612104833981519152611458565b50610838600080516020612144833981519152611458565b506108436000611458565b5061084c6116b3565b61085660006108b3565b6105ed57600080fd5b610591828261197d565b600061075b836001600160a01b0384166119e8565b60006001600160e01b03198216637965db0b60e01b148061056257506301ffc9a760e01b6001600160e01b0319831614610562565b6000805460ff16821515811515141561090e5760405162461bcd60e51b815260206004820152601960248201527f416c72656164792053657420746f20746861742076616c7565000000000000006044820152606401610684565b6000805484151560ff19909116811790915560ff16151581151514156109655760405162461bcd60e51b815260206004820152600c60248201526b29b0b33a32bc9022b93937b960a11b6044820152606401610684565b50600192915050565b60405163ca15c87360e01b8152600481018290526000908190309063ca15c8739060240160206040518083038186803b1580156109aa57600080fd5b505afa1580156109be573d6000803e3d6000fd5b505050506040513d601f19601f820116820180604052508101906109e29190611ee5565b905060005b81811015610adf57604051632404341f60e21b815260048101859052602481018290526000903090639010d07c9060440160206040518083038186803b158015610a3057600080fd5b505afa158015610a44573d6000803e3d6000fd5b505050506040513d601f19601f82011682018060405250810190610a689190611e11565b60405163d547741f60e01b8152600481018790526001600160a01b0382166024820152909150309063d547741f90604401600060405180830381600087803b158015610ab357600080fd5b505af1158015610ac7573d6000803e3d6000fd5b50505050508080610ad79061203b565b9150506109e7565b5060019392505050565b600f5460405163ca15c87360e01b81526004810183905260009182916001600160a01b039091169063ca15c8739060240160206040518083038186803b158015610b3257600080fd5b505afa158015610b46573d6000803e3d6000fd5b505050506040513d601f19601f82011682018060405250810190610b6a9190611ee5565b905060005b81811015610adf57600f54604051632404341f60e21b815260048101869052602481018390526000916001600160a01b031690639010d07c9060440160206040518083038186803b158015610bc357600080fd5b505afa158015610bd7573d6000803e3d6000fd5b505050506040513d601f19601f82011682018060405250810190610bfb9190611e11565b604051632f2ff15d60e01b8152600481018790526001600160a01b03821660248201529091503090632f2ff15d90604401600060405180830381600087803b158015610c4657600080fd5b505af1158015610c5a573d6000803e3d6000fd5b50505050508080610c6a9061203b565b915050610b6f565b6000610c8b60008051602061212483398151915261096e565b50610ca3600080516020612124833981519152610ae9565b610cac57600080fd5b610cc36000805160206120e483398151915261096e565b50610cdb6000805160206120e4833981519152610ae9565b610ce457600080fd5b610cfb6000805160206120c483398151915261096e565b50610d136000805160206120c4833981519152610ae9565b610d1c57600080fd5b610d3360008051602061210483398151915261096e565b50610d4b600080516020612104833981519152610ae9565b610d5457600080fd5b610d6b60008051602061214483398151915261096e565b50610d83600080516020612144833981519152610ae9565b610d8c57600080fd5b610d96600061096e565b50610da16000610ae9565b610daa57600080fd5b610db26116b3565b50600190565b600082815260016020819052604082200154905460ff1615610dde576105d8838361197d565b610de88133611a37565b6105d8838361197d565b600f60009054906101000a90046001600160a01b03166001600160a01b031663dadf56ac6040518163ffffffff1660e01b815260040160206040518083038186803b158015610e4057600080fd5b505afa158015610e54573d6000803e3d6000fd5b505050506040513d601f19601f82011682018060405250810190610e789190611e11565b600a80546001600160a01b0319166001600160a01b03928316179055600f546040805163024bebe960e01b81529051919092169163024bebe9916004808301926020929190829003018186803b158015610ed157600080fd5b505afa158015610ee5573d6000803e3d6000fd5b505050506040513d601f19601f82011682018060405250810190610f099190611e11565b600b80546001600160a01b0319166001600160a01b03928316179055600f5460408051635b5c251f60e01b815290519190921691635b5c251f916004808301926020929190829003018186803b158015610f6257600080fd5b505afa158015610f76573d6000803e3d6000fd5b505050506040513d601f19601f82011682018060405250810190610f9a9190611e11565b600c80546001600160a01b0319166001600160a01b03928316179055600f5460408051637310bf1d60e11b81529051919092169163e6217e3a916004808301926020929190829003018186803b158015610ff357600080fd5b505afa158015611007573d6000803e3d6000fd5b505050506040513d601f19601f8201168201806040525081019061102b9190611e11565b600e80546001600160a01b0319166001600160a01b0392909216919091179055565b600f60009054906101000a90046001600160a01b03166001600160a01b03166321d7f0086040518163ffffffff1660e01b815260040160206040518083038186803b15801561109b57600080fd5b505afa1580156110af573d6000803e3d6000fd5b505050506040513d601f19601f820116820180604052508101906110d39190611e11565b600480546001600160a01b0319166001600160a01b03928316178155600f546040805163762ddb5960e01b81529051919093169263762ddb599281810192602092909190829003018186803b15801561112b57600080fd5b505afa15801561113f573d6000803e3d6000fd5b505050506040513d601f19601f820116820180604052508101906111639190611e11565b600580546001600160a01b0319166001600160a01b03928316179055600f546040805163bfb7dc9960e01b81529051919092169163bfb7dc99916004808301926020929190829003018186803b1580156111bc57600080fd5b505afa1580156111d0573d6000803e3d6000fd5b505050506040513d601f19601f820116820180604052508101906111f49190611e11565b600680546001600160a01b0319166001600160a01b03928316179055600f5460408051633e6111eb60e21b81529051919092169163f98447ac916004808301926020929190829003018186803b15801561124d57600080fd5b505afa158015611261573d6000803e3d6000fd5b505050506040513d601f19601f820116820180604052508101906112859190611e11565b600780546001600160a01b0319166001600160a01b03928316179055600f5460408051630fe1ba9f60e21b815290519190921691633f86ea7c916004808301926020929190829003018186803b1580156112de57600080fd5b505afa1580156112f2573d6000803e3d6000fd5b505050506040513d601f19601f820116820180604052508101906113169190611e11565b600880546001600160a01b0319166001600160a01b03928316179055600f5460408051636b58477560e01b815290519190921691636b584775916004808301926020929190829003018186803b15801561136f57600080fd5b505afa158015611383573d6000803e3d6000fd5b505050506040513d601f19601f820116820180604052508101906113a79190611e11565b600980546001600160a01b0319166001600160a01b0392909216919091179055565b6001600160a01b03811633146114395760405162461bcd60e51b815260206004820152602f60248201527f416363657373436f6e74726f6c3a2063616e206f6e6c792072656e6f756e636560448201526e103937b632b9903337b91039b2b63360891b6064820152608401610684565b6105918282611a9b565b600061075b836001600160a01b038416611b02565b600f5460405163ca15c87360e01b81526004810183905260009182916001600160a01b039091169063ca15c8739060240160206040518083038186803b1580156114a157600080fd5b505afa1580156114b5573d6000803e3d6000fd5b505050506040513d601f19601f820116820180604052508101906114d99190611ee5565b60405163ca15c87360e01b815260048101859052909150600090309063ca15c8739060240160206040518083038186803b15801561151657600080fd5b505afa15801561152a573d6000803e3d6000fd5b505050506040513d601f19601f8201168201806040525081019061154e9190611ee5565b9050600061155c8284611fdd565b9050600081116115a15760405162461bcd60e51b815260206004820152601060248201526f4e6f7468696e6720746f2073796e632160801b6044820152606401610684565b60005b818110156116a757600f54604051632404341f60e21b815260048101889052602481018390526000916001600160a01b031690639010d07c9060440160206040518083038186803b1580156115f857600080fd5b505afa15801561160c573d6000803e3d6000fd5b505050506040513d601f19601f820116820180604052508101906116309190611e11565b604051632f2ff15d60e01b8152600481018990526001600160a01b03821660248201529091503090632f2ff15d90604401600060405180830381600087803b15801561167b57600080fd5b505af115801561168f573d6000803e3d6000fd5b5050505050808061169f9061203b565b9150506115a4565b50600195945050505050565b600f60009054906101000a90046001600160a01b03166001600160a01b031663ff7e88ec6040518163ffffffff1660e01b815260040160206040518083038186803b15801561170157600080fd5b505afa158015611715573d6000803e3d6000fd5b505050506040513d601f19601f820116820180604052508101906117399190611e2e565b600f60156101000a81548160ff021916908315150217905550600f60009054906101000a90046001600160a01b03166001600160a01b0316632fb565856040518163ffffffff1660e01b815260040160206040518083038186803b1580156117a057600080fd5b505afa1580156117b4573d6000803e3d6000fd5b505050506040513d601f19601f820116820180604052508101906117d89190611e2e565b600f8054911515600160b01b0260ff60b01b19909216919091179055565b600061075b8383611bef565b6000610562825490565b600082815260016020819052604082200154905460ff1615611832576105d88383611a9b565b61183c8133611a37565b6105d88383611a9b565b600f60009054906101000a90046001600160a01b03166001600160a01b031663a44b93256040518163ffffffff1660e01b815260040160206040518083038186803b15801561189457600080fd5b505afa1580156118a8573d6000803e3d6000fd5b505050506040513d601f19601f820116820180604052508101906118cc9190611e2e565b6118d557600080fd5b600f60009054906101000a90046001600160a01b03166001600160a01b031663ac7cfac36040518163ffffffff1660e01b815260040160206040518083038186803b15801561192357600080fd5b505afa158015611937573d6000803e3d6000fd5b505050506040513d601f19601f8201168201806040525081019061195b9190611e11565b600380546001600160a01b0319166001600160a01b0392909216919091179055565b6119878282610762565b6105915760008281526001602081815260408084206001600160a01b0386168086529252808420805460ff19169093179092559051339285917f2f8788117e7eff1d82e926ec794901d17c78024a50270940304540a733656f0d9190a45050565b6000818152600183016020526040812054611a2f57508154600181810184556000848152602080822090930184905584548482528286019093526040902091909155610562565b506000610562565b611a418282610762565b61059157611a59816001600160a01b03166014611c75565b611a64836020611c75565b604051602001611a75929190611efe565b60408051601f198184030181529082905262461bcd60e51b825261068491600401611f73565b611aa58282610762565b156105915760008281526001602090815260408083206001600160a01b0385168085529252808320805460ff1916905551339285917ff6391f5c32d9c69d2a47ea670b442974b53935d1edc7fd64eb21e047a839171b9190a45050565b60008181526001830160205260408120548015611be5576000611b26600183611fdd565b8554909150600090611b3a90600190611fdd565b90506000866000018281548110611b5357611b53612082565b9060005260206000200154905080876000018481548110611b7657611b76612082565b600091825260208083209091019290925582815260018901909152604090208490558654879080611ba957611ba961206c565b60019003818190600052602060002001600090559055866001016000878152602001908152602001600020600090556001945050505050610562565b6000915050610562565b81546000908210611c4d5760405162461bcd60e51b815260206004820152602260248201527f456e756d657261626c655365743a20696e646578206f7574206f6620626f756e604482015261647360f01b6064820152608401610684565b826000018281548110611c6257611c62612082565b9060005260206000200154905092915050565b60606000611c84836002611fbe565b611c8f906002611fa6565b67ffffffffffffffff811115611ca757611ca7612098565b6040519080825280601f01601f191660200182016040528015611cd1576020820181803683370190505b509050600360fc1b81600081518110611cec57611cec612082565b60200101906001600160f81b031916908160001a905350600f60fb1b81600181518110611d1b57611d1b612082565b60200101906001600160f81b031916908160001a9053506000611d3f846002611fbe565b611d4a906001611fa6565b90505b6001811115611dc2576f181899199a1a9b1b9c1cb0b131b232b360811b85600f1660108110611d7e57611d7e612082565b1a60f81b828281518110611d9457611d94612082565b60200101906001600160f81b031916908160001a90535060049490941c93611dbb81612024565b9050611d4d565b50831561075b5760405162461bcd60e51b815260206004820181905260248201527f537472696e67733a20686578206c656e67746820696e73756666696369656e746044820152606401610684565b600060208284031215611e2357600080fd5b815161075b816120ae565b600060208284031215611e4057600080fd5b8151801515811461075b57600080fd5b600060208284031215611e6257600080fd5b5035919050565b60008060408385031215611e7c57600080fd5b823591506020830135611e8e816120ae565b809150509250929050565b60008060408385031215611eac57600080fd5b50508035926020909101359150565b600060208284031215611ecd57600080fd5b81356001600160e01b03198116811461075b57600080fd5b600060208284031215611ef757600080fd5b5051919050565b7f416363657373436f6e74726f6c3a206163636f756e7420000000000000000000815260008351611f36816017850160208801611ff4565b7001034b99036b4b9b9b4b733903937b6329607d1b6017918401918201528351611f67816028840160208801611ff4565b01602801949350505050565b6020815260008251806020840152611f92816040850160208701611ff4565b601f01601f19169190910160400192915050565b60008219821115611fb957611fb9612056565b500190565b6000816000190483118215151615611fd857611fd8612056565b500290565b600082821015611fef57611fef612056565b500390565b60005b8381101561200f578181015183820152602001611ff7565b8381111561201e576000848401525b50505050565b60008161203357612033612056565b506000190190565b600060001982141561204f5761204f612056565b5060010190565b634e487b7160e01b600052601160045260246000fd5b634e487b7160e01b600052603160045260246000fd5b634e487b7160e01b600052603260045260246000fd5b634e487b7160e01b600052604160045260246000fd5b6001600160a01b03811681146105b357600080fdfefa8e4989e1d689f7bc5c4b25b87efb51fecdecb19ba62847e29c759e12a89acd048bc71fa1cb2c119c339cf9cf00a97996a19a9d991ce5fe049f2fa5459e7990f0f4b159a6e2a4815eb3ca3df080bfa70c9270662c59bcaa4479a456220183e60538d24a8b7882d7b2e36af243d4af61c23e86e3daa6cb8c887b53220b2f57207c9d7f6f02908185bffb3f7fc9afb29fd7bf93675af8fd4b655ee05c2cee1e0ea2646970667358221220f3c8fd8c3cd8cdf0f36d33ebca4b936ebf4b6156bef52c752d5a15fbffaf33e464736f6c63430008060033",
  "immutableReferences": {},
  "source": "    pragma solidity ^0.8.0;\n\n    import \"./AddressManagerReciever.sol\";\n\n    import \"./forked/AccessControlEnumerable.sol\";\n   \n    contract SmartConsensusMachine is AccessControlEnumerable, AddressManagerReciever {\n       \n        bytes32 public constant THE_COURT_ROLE = keccak256(\"THE_COURT_ROLE\");\n        bytes32 public constant GAVELS_BAILIFF = keccak256(\"GAVELS_BAILIFF\");\n        bytes32 public constant JURY_BAILIFF = keccak256(\"JURY_BAILIFF\");\n        bytes32 public constant MINI_BAILIFF_ROLE = keccak256(\"MINI_BAILIFF_ROLE\");\n        bytes32 public constant JERK_ROLE = keccak256(\"JERK_ROLE\");\n\n        bool public jerkSanctions = false;\n\n        //To generate Consensus (false by default)\n        bool public GavelVote = false;\n        bool public JuryVote = false;\n\n        bool private isSetUp = false;\n\n        constructor(address _AddressManagerAddress) AddressManagerReciever(_AddressManagerAddress) {\n\n            updateAllAddresses();\n            _syncVotes(); \n            _setupRole(DEFAULT_ADMIN_ROLE, TheCourtAddress);\n            _setupRole(THE_COURT_ROLE, TheCourtAddress);\n            _setupRole(GAVELS_BAILIFF, GavelDAOAgent);\n            _setupRole(JURY_BAILIFF, JuryDAOAgent);\n            _setupRole(MINI_BAILIFF_ROLE, MiniBailiff);\n            _setupRole(JERK_ROLE, address(0));\n        }\n\n\n    /////////////////////////////////////////////////////////////////////////////////////////////////\n    /////////////////////////////////////////////////////////////////////////////////////////////////\n    /// @dev                                                                                     ////\n    /// Permission Modifiers                                                                     ////\n    /////////////////////////////////////////////////////////////////////////////////////////////////\n    /////////////////////////////////////////////////////////////////////////////////////////////////\n\n        modifier BAILIFF {\n            require(hasRole(THE_COURT_ROLE, msg.sender)\n                    || hasRole(GAVELS_BAILIFF, msg.sender)\n                    || hasRole(JURY_BAILIFF, msg.sender),\n                    \"You're not the bailiff\");\n            _;\n        }\n\n        modifier MINI_BAILIFF {\n            require(hasRole(THE_COURT_ROLE, msg.sender)\n                    || hasRole(GAVELS_BAILIFF, msg.sender)\n                    || hasRole(JURY_BAILIFF, msg.sender)\n                    || hasRole(MINI_BAILIFF_ROLE, msg.sender),\n                    \"You're not the bailiff\");\n            _;\n        }\n\n        modifier NOT_JERK {\n            if (jerkSanctions == true) {\n                require(!hasRole(JERK_ROLE, msg.sender));\n            }\n            _;\n        }\n\n        modifier GAVELS {\n            require(hasRole(GAVELS_BAILIFF, msg.sender)\n                    || hasRole(THE_COURT_ROLE, msg.sender)\n                    , \"You're not the Gavels\");\n            _;\n        }\n\n        modifier JURY {\n            require(hasRole(JURY_BAILIFF, msg.sender)\n                    || hasRole(THE_COURT_ROLE, msg.sender), \"You're not the Jury\");\n            _;\n        }\n\n        // Requires a YES vote from both DAOs\n        modifier THE_COURT {\n            require(hasRole(GAVELS_BAILIFF, msg.sender)\n                    || hasRole(JURY_BAILIFF, msg.sender)\n                    || hasRole(THE_COURT_ROLE, msg.sender));\n            require((GavelVote == JuryVote == true)\n                    || hasRole(THE_COURT_ROLE, msg.sender)\n                    , \"Court Must Agree\");\n            _;\n        }\n\n\n    /////////////////////////////////////////////////////////////////////////////////////////////////\n    /////////////////////////////////////////////////////////////////////////////////////////////////\n    /// @dev                                                                                     ////\n    /// Consensus Machine                                                                        ////\n    /////////////////////////////////////////////////////////////////////////////////////////////////\n    /////////////////////////////////////////////////////////////////////////////////////////////////\n\n        function _syncVotes() internal {\n            GavelVote = addressManager.GavelVote();\n            JuryVote = addressManager.JuryVote();      \n        }\n\n        function syncVotes() public {\n            _syncVotes();      \n        }\n\n        function resetVote() public BAILIFF { \n            addressManager.resetVote();\n            syncVotes();\n        }\n\n    /////////////////////////////////////////////////////////////////////////////////////////////////\n    /////////////////////////////////////////////////////////////////////////////////////////////////\n    /// @dev UPDATE ROLES                                                                        ////\n    /// @dev                                                                                     ////\n    /////////////////////////////////////////////////////////////////////////////////////////////////\n    /////////////////////////////////////////////////////////////////////////////////////////////////\n\n\n        function _updateRole(bytes32 ROLE_TO_GRANT) internal returns(bool) {\n            // UPDATE ROLES\n            uint numberOfRoleHodlers = addressManager.getRoleMemberCount(ROLE_TO_GRANT);\n            uint index = 0;\n            for (index = 0; index < numberOfRoleHodlers; index++) {\n                address roleHolder = addressManager.getRoleMember(ROLE_TO_GRANT, index);\n                this.grantRole(ROLE_TO_GRANT, roleHolder);\n            }\n            return true;\n        }\n\n        function _clearRole(bytes32 ROLE_TO_CLEAR) internal returns(bool) {\n            // Clear Roles\n            uint numberOfRoleHodlers = this.getRoleMemberCount(ROLE_TO_CLEAR);\n            uint index = 0;\n            for (index = 0; index < numberOfRoleHodlers; index++) {\n                address roleHolder = this.getRoleMember(ROLE_TO_CLEAR, index);\n                this.revokeRole(ROLE_TO_CLEAR, roleHolder);\n            }\n            return true;\n        }\n\n\n        function _updateAllRoles() internal returns(bool) {\n            // Clear Bailiff Role\n            _clearRole(THE_COURT_ROLE);\n            require(_updateRole(THE_COURT_ROLE));\n\n            _clearRole(GAVELS_BAILIFF);\n            require(_updateRole(GAVELS_BAILIFF));\n\n            _clearRole(JURY_BAILIFF);\n            require(_updateRole(JURY_BAILIFF));\n\n            _clearRole(MINI_BAILIFF_ROLE);\n            require(_updateRole(MINI_BAILIFF_ROLE));\n\n            _clearRole(JERK_ROLE);\n            require(_updateRole(JERK_ROLE));\n\n            _clearRole(DEFAULT_ADMIN_ROLE);\n            require(_updateRole(DEFAULT_ADMIN_ROLE));\n\n            _syncVotes(); \n\n            return true;\n        }\n\n        function _syncSingleRole(bytes32 ROLE_TO_SYNC) internal returns(bool) {\n            // SYNC ROLES\n            uint numberOfAllRoleHodlers = addressManager.getRoleMemberCount(ROLE_TO_SYNC);\n            uint numberOfCurrentRoleHodlers = this.getRoleMemberCount(ROLE_TO_SYNC);\n            uint numberOfNewRoleHodlers = numberOfAllRoleHodlers - numberOfCurrentRoleHodlers;\n            \n            require(numberOfNewRoleHodlers > 0, \"Nothing to sync!\");\n            \n            uint index = 0;\n            for (index = 0; index < numberOfNewRoleHodlers; index++) {\n                address roleHolder = addressManager.getRoleMember(ROLE_TO_SYNC, index);\n                this.grantRole(ROLE_TO_SYNC, roleHolder);\n            }\n            return true;\n\n        }\n\n       \n\n        function updateAllRoles() public {\n            _flipSaftey(true);\n            _updateAllRoles();\n            _flipSaftey(false);\n        }\n\n        function updateSingleRole(bytes32 ROLE_TO_UPDATE) public {\n            _flipSaftey(true);\n            _clearRole(ROLE_TO_UPDATE);\n            _updateRole(ROLE_TO_UPDATE);\n            _flipSaftey(false);\n        }\n\n        function syncSingleRole(bytes32 ROLE_TO_SYNC) public {\n            _flipSaftey(true);\n            _syncSingleRole(ROLE_TO_SYNC);\n            _flipSaftey(false);\n        }\n\n        function syncAllRoles() public {\n            _flipSaftey(true);\n            _syncSingleRole(THE_COURT_ROLE);\n            _syncSingleRole(GAVELS_BAILIFF);\n            _syncSingleRole(JURY_BAILIFF);\n            _syncSingleRole(MINI_BAILIFF_ROLE);\n            _syncSingleRole(JERK_ROLE);\n            _syncSingleRole(DEFAULT_ADMIN_ROLE);\n            _syncVotes();\n            require(_flipSaftey(false));\n        }\n\n\n    /////////////////////////////////////////////////////////////////////////////////////////////////\n    /////////////////////////////////////////////////////////////////////////////////////////////////\n    /// @dev  END                                                                                ////\n    /////////////////////////////////////////////////////////////////////////////////////////////////\n    /////////////////////////////////////////////////////////////////////////////////////////////////\n    }\n\n\n    /////////////////////////////////////////////////////////////////////////////////////////////////\n    /////////////////////////////////////////////////////////////////////////////////////////////////\n    /// @dev                                                                                     ////\n    /// @dev                                                                                     ////\n    /// @dev                                                                                     ////\n    /////////////////////////////////////////////////////////////////////////////////////////////////\n    /////////////////////////////////////////////////////////////////////////////////////////////////\n\n    /////////////////////////////////////////////////////////////////////////////////////////////////\n    /////////////////////////////////////////////////////////////////////////////////////////////////\n    /// @dev                                                                                     ////\n    /// @dev                                                                                     ////\n    /////////////////////////////////////////////////////////////////////////////////////////////////\n    /////////////////////////////////////////////////////////////////////////////////////////////////",
  "sourcePath": "/home/n/Desktop/PinkSlips_FrontEnd_REFORMAT (copy)/contracts/src/SmartConsensusMachine.sol",
  "compiler": {
    "name": "solc",
    "version": "0.8.6+commit.11564f7e.Emscripten.clang"
  },
  "schemaVersion": "3.4.1",
  "updatedAt": "2021-08-08T00:16:26.890Z",
  "devdoc": {
    "kind": "dev",
    "methods": {
      "getRoleAdmin(bytes32)": {
        "details": "Returns the admin role that controls `role`. See {grantRole} and {revokeRole}. To change a role's admin, use {_setRoleAdmin}."
      },
      "getRoleMember(bytes32,uint256)": {
        "details": "Returns one of the accounts that have `role`. `index` must be a value between 0 and {getRoleMemberCount}, non-inclusive. Role bearers are not sorted in any particular way, and their ordering may change at any point. WARNING: When using {getRoleMember} and {getRoleMemberCount}, make sure you perform all queries on the same block. See the following https://forum.openzeppelin.com/t/iterating-over-elements-on-enumerableset-in-openzeppelin-contracts/2296[forum post] for more information."
      },
      "getRoleMemberCount(bytes32)": {
        "details": "Returns the number of accounts that have `role`. Can be used together with {getRoleMember} to enumerate all bearers of a role."
      },
      "grantRole(bytes32,address)": {
        "details": "Overload {grantRole} to track enumerable memberships"
      },
      "hasRole(bytes32,address)": {
        "details": "Returns `true` if `account` has been granted `role`."
      },
      "renounceRole(bytes32,address)": {
        "details": "Overload {renounceRole} to track enumerable memberships"
      },
      "revokeRole(bytes32,address)": {
        "details": "Overload {revokeRole} to track enumerable memberships"
      },
      "supportsInterface(bytes4)": {
        "details": "See {IERC165-supportsInterface}."
      }
    },
    "version": 1
  },
  "userdoc": {
    "kind": "user",
    "methods": {},
    "version": 1
  }
}