{
  "contractName": "SmartConsensusMachine",
  "abi": [
    {
      "inputs": [
        {
          "internalType": "address",
          "name": "_AddressManagerAddress",
          "type": "address"
        }
      ],
      "stateMutability": "nonpayable",
      "type": "constructor"
    },
    {
      "anonymous": false,
      "inputs": [
        {
          "indexed": true,
          "internalType": "bytes32",
          "name": "role",
          "type": "bytes32"
        },
        {
          "indexed": true,
          "internalType": "bytes32",
          "name": "previousAdminRole",
          "type": "bytes32"
        },
        {
          "indexed": true,
          "internalType": "bytes32",
          "name": "newAdminRole",
          "type": "bytes32"
        }
      ],
      "name": "RoleAdminChanged",
      "type": "event"
    },
    {
      "anonymous": false,
      "inputs": [
        {
          "indexed": true,
          "internalType": "bytes32",
          "name": "role",
          "type": "bytes32"
        },
        {
          "indexed": true,
          "internalType": "address",
          "name": "account",
          "type": "address"
        },
        {
          "indexed": true,
          "internalType": "address",
          "name": "sender",
          "type": "address"
        }
      ],
      "name": "RoleGranted",
      "type": "event"
    },
    {
      "anonymous": false,
      "inputs": [
        {
          "indexed": true,
          "internalType": "bytes32",
          "name": "role",
          "type": "bytes32"
        },
        {
          "indexed": true,
          "internalType": "address",
          "name": "account",
          "type": "address"
        },
        {
          "indexed": true,
          "internalType": "address",
          "name": "sender",
          "type": "address"
        }
      ],
      "name": "RoleRevoked",
      "type": "event"
    },
    {
      "inputs": [],
      "name": "AddressManagerAddress",
      "outputs": [
        {
          "internalType": "address",
          "name": "",
          "type": "address"
        }
      ],
      "stateMutability": "view",
      "type": "function"
    },
    {
      "inputs": [],
      "name": "ChadBadgeAddress",
      "outputs": [
        {
          "internalType": "address",
          "name": "",
          "type": "address"
        }
      ],
      "stateMutability": "view",
      "type": "function"
    },
    {
      "inputs": [],
      "name": "DEFAULT_ADMIN_ROLE",
      "outputs": [
        {
          "internalType": "bytes32",
          "name": "",
          "type": "bytes32"
        }
      ],
      "stateMutability": "view",
      "type": "function"
    },
    {
      "inputs": [],
      "name": "GAVELS_BAILIFF",
      "outputs": [
        {
          "internalType": "bytes32",
          "name": "",
          "type": "bytes32"
        }
      ],
      "stateMutability": "view",
      "type": "function"
    },
    {
      "inputs": [],
      "name": "GavelDAOAgent",
      "outputs": [
        {
          "internalType": "address",
          "name": "",
          "type": "address"
        }
      ],
      "stateMutability": "view",
      "type": "function"
    },
    {
      "inputs": [],
      "name": "GavelTokenAddress",
      "outputs": [
        {
          "internalType": "address",
          "name": "",
          "type": "address"
        }
      ],
      "stateMutability": "view",
      "type": "function"
    },
    {
      "inputs": [],
      "name": "GavelVote",
      "outputs": [
        {
          "internalType": "bool",
          "name": "",
          "type": "bool"
        }
      ],
      "stateMutability": "view",
      "type": "function"
    },
    {
      "inputs": [],
      "name": "GoldStarAddress",
      "outputs": [
        {
          "internalType": "address",
          "name": "",
          "type": "address"
        }
      ],
      "stateMutability": "view",
      "type": "function"
    },
    {
      "inputs": [],
      "name": "JERK_ROLE",
      "outputs": [
        {
          "internalType": "bytes32",
          "name": "",
          "type": "bytes32"
        }
      ],
      "stateMutability": "view",
      "type": "function"
    },
    {
      "inputs": [],
      "name": "JURY_BAILIFF",
      "outputs": [
        {
          "internalType": "bytes32",
          "name": "",
          "type": "bytes32"
        }
      ],
      "stateMutability": "view",
      "type": "function"
    },
    {
      "inputs": [],
      "name": "JuryDAOAgent",
      "outputs": [
        {
          "internalType": "address",
          "name": "",
          "type": "address"
        }
      ],
      "stateMutability": "view",
      "type": "function"
    },
    {
      "inputs": [],
      "name": "JuryPoolAddress",
      "outputs": [
        {
          "internalType": "address",
          "name": "",
          "type": "address"
        }
      ],
      "stateMutability": "view",
      "type": "function"
    },
    {
      "inputs": [],
      "name": "JuryVote",
      "outputs": [
        {
          "internalType": "bool",
          "name": "",
          "type": "bool"
        }
      ],
      "stateMutability": "view",
      "type": "function"
    },
    {
      "inputs": [],
      "name": "MINI_BAILIFF_ROLE",
      "outputs": [
        {
          "internalType": "bytes32",
          "name": "",
          "type": "bytes32"
        }
      ],
      "stateMutability": "view",
      "type": "function"
    },
    {
      "inputs": [],
      "name": "MiniBailiff",
      "outputs": [
        {
          "internalType": "address",
          "name": "",
          "type": "address"
        }
      ],
      "stateMutability": "view",
      "type": "function"
    },
    {
      "inputs": [],
      "name": "PinkSlipAddress",
      "outputs": [
        {
          "internalType": "address",
          "name": "",
          "type": "address"
        }
      ],
      "stateMutability": "view",
      "type": "function"
    },
    {
      "inputs": [],
      "name": "RedPenTokenAddress",
      "outputs": [
        {
          "internalType": "address",
          "name": "",
          "type": "address"
        }
      ],
      "stateMutability": "view",
      "type": "function"
    },
    {
      "inputs": [],
      "name": "THE_COURT_ROLE",
      "outputs": [
        {
          "internalType": "bytes32",
          "name": "",
          "type": "bytes32"
        }
      ],
      "stateMutability": "view",
      "type": "function"
    },
    {
      "inputs": [],
      "name": "TheCourtAddress",
      "outputs": [
        {
          "internalType": "address",
          "name": "",
          "type": "address"
        }
      ],
      "stateMutability": "view",
      "type": "function"
    },
    {
      "inputs": [],
      "name": "TreasuryAddress",
      "outputs": [
        {
          "internalType": "address",
          "name": "",
          "type": "address"
        }
      ],
      "stateMutability": "view",
      "type": "function"
    },
    {
      "inputs": [],
      "name": "addressManager",
      "outputs": [
        {
          "internalType": "contract AddressManager",
          "name": "",
          "type": "address"
        }
      ],
      "stateMutability": "view",
      "type": "function"
    },
    {
      "inputs": [
        {
          "internalType": "bytes32",
          "name": "role",
          "type": "bytes32"
        }
      ],
      "name": "getRoleAdmin",
      "outputs": [
        {
          "internalType": "bytes32",
          "name": "",
          "type": "bytes32"
        }
      ],
      "stateMutability": "view",
      "type": "function"
    },
    {
      "inputs": [
        {
          "internalType": "bytes32",
          "name": "role",
          "type": "bytes32"
        },
        {
          "internalType": "uint256",
          "name": "index",
          "type": "uint256"
        }
      ],
      "name": "getRoleMember",
      "outputs": [
        {
          "internalType": "address",
          "name": "",
          "type": "address"
        }
      ],
      "stateMutability": "view",
      "type": "function"
    },
    {
      "inputs": [
        {
          "internalType": "bytes32",
          "name": "role",
          "type": "bytes32"
        }
      ],
      "name": "getRoleMemberCount",
      "outputs": [
        {
          "internalType": "uint256",
          "name": "",
          "type": "uint256"
        }
      ],
      "stateMutability": "view",
      "type": "function"
    },
    {
      "inputs": [
        {
          "internalType": "bytes32",
          "name": "role",
          "type": "bytes32"
        },
        {
          "internalType": "address",
          "name": "account",
          "type": "address"
        }
      ],
      "name": "grantRole",
      "outputs": [],
      "stateMutability": "nonpayable",
      "type": "function"
    },
    {
      "inputs": [
        {
          "internalType": "bytes32",
          "name": "role",
          "type": "bytes32"
        },
        {
          "internalType": "address",
          "name": "account",
          "type": "address"
        }
      ],
      "name": "hasRole",
      "outputs": [
        {
          "internalType": "bool",
          "name": "",
          "type": "bool"
        }
      ],
      "stateMutability": "view",
      "type": "function"
    },
    {
      "inputs": [],
      "name": "jerkSanctions",
      "outputs": [
        {
          "internalType": "bool",
          "name": "",
          "type": "bool"
        }
      ],
      "stateMutability": "view",
      "type": "function"
    },
    {
      "inputs": [
        {
          "internalType": "bytes32",
          "name": "role",
          "type": "bytes32"
        },
        {
          "internalType": "address",
          "name": "account",
          "type": "address"
        }
      ],
      "name": "renounceRole",
      "outputs": [],
      "stateMutability": "nonpayable",
      "type": "function"
    },
    {
      "inputs": [
        {
          "internalType": "bytes32",
          "name": "role",
          "type": "bytes32"
        },
        {
          "internalType": "address",
          "name": "account",
          "type": "address"
        }
      ],
      "name": "revokeRole",
      "outputs": [],
      "stateMutability": "nonpayable",
      "type": "function"
    },
    {
      "inputs": [
        {
          "internalType": "bytes4",
          "name": "interfaceId",
          "type": "bytes4"
        }
      ],
      "name": "supportsInterface",
      "outputs": [
        {
          "internalType": "bool",
          "name": "",
          "type": "bool"
        }
      ],
      "stateMutability": "view",
      "type": "function"
    },
    {
      "inputs": [],
      "name": "updateAddressManager",
      "outputs": [],
      "stateMutability": "nonpayable",
      "type": "function"
    },
    {
      "inputs": [],
      "name": "updateAllAddresses",
      "outputs": [],
      "stateMutability": "nonpayable",
      "type": "function"
    },
    {
      "inputs": [],
      "name": "updateDAOAddresses",
      "outputs": [],
      "stateMutability": "nonpayable",
      "type": "function"
    },
    {
      "inputs": [],
      "name": "updateTokenAddresses",
      "outputs": [],
      "stateMutability": "nonpayable",
      "type": "function"
    },
    {
      "inputs": [],
      "name": "syncVotes",
      "outputs": [],
      "stateMutability": "nonpayable",
      "type": "function"
    },
    {
      "inputs": [],
      "name": "resetVote",
      "outputs": [],
      "stateMutability": "nonpayable",
      "type": "function"
    },
    {
      "inputs": [],
      "name": "updateAllRoles",
      "outputs": [],
      "stateMutability": "nonpayable",
      "type": "function"
    },
    {
      "inputs": [
        {
          "internalType": "bytes32",
          "name": "ROLE_TO_UPDATE",
          "type": "bytes32"
        }
      ],
      "name": "updateSingleRole",
      "outputs": [],
      "stateMutability": "nonpayable",
      "type": "function"
    },
    {
      "inputs": [
        {
          "internalType": "bytes32",
          "name": "ROLE_TO_SYNC",
          "type": "bytes32"
        }
      ],
      "name": "syncSingleRole",
      "outputs": [],
      "stateMutability": "nonpayable",
      "type": "function"
    },
    {
      "inputs": [],
      "name": "syncAllRoles",
      "outputs": [],
      "stateMutability": "nonpayable",
      "type": "function"
    }
  ],
  "bytecode": "0x6080604052600e805463ffffffff60a01b191690553480156200002157600080fd5b5060405162002cad38038062002cad833981016040819052620000449162000aa3565b600280546001600160a01b038084166001600160a01b03199283161792839055600e805490921692169190911790556200007d620001b9565b62000087620001cf565b600c54620000a1906000906001600160a01b031662000313565b600c54620000da907f0538d24a8b7882d7b2e36af243d4af61c23e86e3daa6cb8c887b53220b2f5720906001600160a01b031662000313565b60095462000113907f048bc71fa1cb2c119c339cf9cf00a97996a19a9d991ce5fe049f2fa5459e7990906001600160a01b031662000313565b600a546200014c907ffa8e4989e1d689f7bc5c4b25b87efb51fecdecb19ba62847e29c759e12a89acd906001600160a01b031662000313565b600d5462000185907ff0f4b159a6e2a4815eb3ca3df080bfa70c9270662c59bcaa4479a456220183e6906001600160a01b031662000313565b620001b27f7c9d7f6f02908185bffb3f7fc9afb29fd7bf93675af8fd4b655ee05c2cee1e0e600062000313565b5062000af5565b620001c362000356565b620001cd620005c1565b565b600e60009054906101000a90046001600160a01b03166001600160a01b031663ff7e88ec6040518163ffffffff1660e01b815260040160206040518083038186803b1580156200021e57600080fd5b505afa15801562000233573d6000803e3d6000fd5b505050506040513d601f19601f8201168201806040525081019062000259919062000ad3565b600e8054911515600160a81b0260ff60a81b19909216919091179081905560408051632fb5658560e01b815290516001600160a01b0390921691632fb5658591600480820192602092909190829003018186803b158015620002ba57600080fd5b505afa158015620002cf573d6000803e3d6000fd5b505050506040513d601f19601f82011682018060405250810190620002f5919062000ad3565b600e8054911515600160b01b0260ff60b01b19909216919091179055565b6200032a82826200095560201b6200083a1760201c565b6000828152600160209081526040909120620003519183906200084462000965821b17901c565b505050565b600e60009054906101000a90046001600160a01b03166001600160a01b031663dadf56ac6040518163ffffffff1660e01b815260040160206040518083038186803b158015620003a557600080fd5b505afa158015620003ba573d6000803e3d6000fd5b505050506040513d601f19601f82011682018060405250810190620003e0919062000aa3565b600980546001600160a01b0319166001600160a01b03928316179055600e546040805163024bebe960e01b81529051919092169163024bebe9916004808301926020929190829003018186803b1580156200043a57600080fd5b505afa1580156200044f573d6000803e3d6000fd5b505050506040513d601f19601f8201168201806040525081019062000475919062000aa3565b600a80546001600160a01b0319166001600160a01b03928316179055600e5460408051635b5c251f60e01b815290519190921691635b5c251f916004808301926020929190829003018186803b158015620004cf57600080fd5b505afa158015620004e4573d6000803e3d6000fd5b505050506040513d601f19601f820116820180604052508101906200050a919062000aa3565b600b80546001600160a01b0319166001600160a01b03928316179055600e5460408051637310bf1d60e11b81529051919092169163e6217e3a916004808301926020929190829003018186803b1580156200056457600080fd5b505afa15801562000579573d6000803e3d6000fd5b505050506040513d601f19601f820116820180604052508101906200059f919062000aa3565b600d80546001600160a01b0319166001600160a01b0392909216919091179055565b600e60009054906101000a90046001600160a01b03166001600160a01b03166321d7f0086040518163ffffffff1660e01b815260040160206040518083038186803b1580156200061057600080fd5b505afa15801562000625573d6000803e3d6000fd5b505050506040513d601f19601f820116820180604052508101906200064b919062000aa3565b600380546001600160a01b0319166001600160a01b03928316179055600e546040805163762ddb5960e01b81529051919092169163762ddb59916004808301926020929190829003018186803b158015620006a557600080fd5b505afa158015620006ba573d6000803e3d6000fd5b505050506040513d601f19601f82011682018060405250810190620006e0919062000aa3565b600480546001600160a01b0319166001600160a01b03928316178155600e546040805163bfb7dc9960e01b81529051919093169263bfb7dc999281810192602092909190829003018186803b1580156200073957600080fd5b505afa1580156200074e573d6000803e3d6000fd5b505050506040513d601f19601f8201168201806040525081019062000774919062000aa3565b600580546001600160a01b0319166001600160a01b03928316179055600e5460408051633e6111eb60e21b81529051919092169163f98447ac916004808301926020929190829003018186803b158015620007ce57600080fd5b505afa158015620007e3573d6000803e3d6000fd5b505050506040513d601f19601f8201168201806040525081019062000809919062000aa3565b600680546001600160a01b0319166001600160a01b03928316179055600e5460408051630fe1ba9f60e21b815290519190921691633f86ea7c916004808301926020929190829003018186803b1580156200086357600080fd5b505afa15801562000878573d6000803e3d6000fd5b505050506040513d601f19601f820116820180604052508101906200089e919062000aa3565b600780546001600160a01b0319166001600160a01b03928316179055600e5460408051636b58477560e01b815290519190921691636b584775916004808301926020929190829003018186803b158015620008f857600080fd5b505afa1580156200090d573d6000803e3d6000fd5b505050506040513d601f19601f8201168201806040525081019062000933919062000aa3565b600880546001600160a01b0319166001600160a01b0392909216919091179055565b62000961828262000985565b5050565b60006200097c836001600160a01b03841662000a0f565b90505b92915050565b62000991828262000a5e565b62000961576000828152602081815260408083206001600160a01b03851684529091529020805460ff19166001179055620009cb62000a87565b6001600160a01b0316816001600160a01b0316837f2f8788117e7eff1d82e926ec794901d17c78024a50270940304540a733656f0d60405160405180910390a45050565b600062000a1d838362000a8b565b62000a55575081546001818101845560008481526020808220909301849055845484825282860190935260409020919091556200097f565b5060006200097f565b6000918252602082815260408084206001600160a01b0393909316845291905290205460ff1690565b3390565b60009081526001919091016020526040902054151590565b60006020828403121562000ab5578081fd5b81516001600160a01b038116811462000acc578182fd5b9392505050565b60006020828403121562000ae5578081fd5b8151801515811462000acc578182fd5b6121a88062000b056000396000f3fe608060405234801561001057600080fd5b50600436106102485760003560e01c80636b5847751161013b578063cf4ece15116100b8578063e9a532301161007c578063e9a5323014610405578063f1132b301461040d578063f7d92d8614610415578063f98447ac1461041d578063ff7e88ec1461042557610248565b8063cf4ece15146103d2578063d547741f146103da578063dadf56ac146103ed578063e6217e3a146103f5578063e78c266c146103fd57610248565b8063a32c5e59116100ff578063a32c5e591461039f578063a78e746f146103a7578063bfb7dc99146103af578063ca15c873146103b7578063cce84392146103ca57610248565b80636b58477514610361578063762ddb59146103695780639010d07c1461037157806391d1485414610384578063a217fddf1461039757610248565b8063329a8cfa116101c95780634d84c6d81161018d5780634d84c6d81461032e57806357f276ff146103365780635b5c251f146103495780635db531a1146103515780635f4134661461035957610248565b8063329a8cfa146102fb57806336568abe146103035780633ab76e9f146103165780633f86ea7c1461031e57806349b5e1051461032657610248565b80632436329d116102105780632436329d146102b0578063248a9ca3146102c55780632f2ff15d146102d85780632fb56585146102eb578063326a55e0146102f357610248565b806301ffc9a71461024d578063024bebe914610276578063130f63201461028b57806317314d5a146102a057806321d7f008146102a8575b600080fd5b61026061025b366004611da2565b61042d565b60405161026d9190611e6b565b60405180910390f35b61027e610458565b60405161026d9190611e57565b61029e610299366004611d3a565b610467565b005b61029e61047e565b61027e610489565b6102b8610498565b60405161026d9190611e76565b6102b86102d3366004611d3a565b6104aa565b61029e6102e6366004611d52565b6104bf565b6102606104e6565b61029e6104f6565b61029e610508565b61029e610311366004611d52565b6105f1565b61027e610613565b61027e610622565b61029e610631565b61029e6104fe565b61029e610344366004611d3a565b610639565b61027e610642565b61029e610651565b61027e610659565b61027e610668565b61027e610677565b61027e61037f366004611d81565b610686565b610260610392366004611d52565b6106a5565b6102b86106ce565b6102b86106d3565b6102606106e5565b61027e6106f5565b6102b86103c5366004611d3a565b610704565b6102b861071b565b6102b861072d565b61029e6103e8366004611d52565b61073f565b61027e610749565b61027e610758565b61027e610767565b6102b8610776565b61029e610788565b61029e610790565b61027e61081b565b61026061082a565b60006001600160e01b03198216635a05180f60e01b1480610452575061045282610859565b92915050565b600a546001600160a01b031681565b6104708161087e565b5061047a816109f3565b5050565b610486610b76565b50565b6003546001600160a01b031681565b6000805160206120d383398151915281565b60009081526020819052604090206001015490565b6104c98282610cbc565b60008281526001602052604090206104e19082610844565b505050565b600e54600160b01b900460ff1681565b6104fe610ce0565b610506610f3b565b565b610520600080516020612133833981519152336106a5565b8061053e575061053e6000805160206120f3833981519152336106a5565b8061055c575061055c6000805160206120d3833981519152336106a5565b6105815760405162461bcd60e51b815260040161057890611f4e565b60405180910390fd5b600e60009054906101000a90046001600160a01b03166001600160a01b031663329a8cfa6040518163ffffffff1660e01b8152600401600060405180830381600087803b1580156105d157600080fd5b505af11580156105e5573d6000803e3d6000fd5b50505050610506610651565b6105fb82826112b7565b60008281526001602052604090206104e190826112f9565b600e546001600160a01b031681565b6007546001600160a01b031681565b610506610ce0565b61047a8161130e565b600b546001600160a01b031681565b610506611544565b600c546001600160a01b031681565b6008546001600160a01b031681565b6004546001600160a01b031681565b600082815260016020526040812061069e9083611680565b9392505050565b6000918252602082815260408084206001600160a01b0393909316845291905290205460ff1690565b600081565b60008051602061213383398151915281565b600e54600160a01b900460ff1681565b6005546001600160a01b031681565b60008181526001602052604081206104529061168c565b60008051602061215383398151915281565b60008051602061211383398151915281565b6105fb8282611697565b6009546001600160a01b031681565b600d546001600160a01b031681565b6002546001600160a01b031681565b6000805160206120f383398151915281565b6105066116b6565b6107a760008051602061213383398151915261130e565b506107bf6000805160206120f383398151915261130e565b506107d76000805160206120d383398151915261130e565b506107ef60008051602061211383398151915261130e565b5061080760008051602061215383398151915261130e565b50610812600061130e565b50610506611544565b6006546001600160a01b031681565b600e54600160a81b900460ff1681565b61047a82826117ed565b600061069e836001600160a01b038416611872565b60006001600160e01b03198216637965db0b60e01b14806104525750610452826118bc565b60405163ca15c87360e01b81526000908190309063ca15c873906108a6908690600401611e76565b60206040518083038186803b1580156108be57600080fd5b505afa1580156108d2573d6000803e3d6000fd5b505050506040513d601f19601f820116820180604052508101906108f69190611dca565b905060005b818110156109e957604051632404341f60e21b81526000903090639010d07c9061092b9088908690600401611e96565b60206040518083038186803b15801561094357600080fd5b505afa158015610957573d6000803e3d6000fd5b505050506040513d601f19601f8201168201806040525081019061097b9190611cfe565b60405163d547741f60e01b8152909150309063d547741f906109a39088908590600401611e7f565b600060405180830381600087803b1580156109bd57600080fd5b505af11580156109d1573d6000803e3d6000fd5b505050505080806109e19061208c565b9150506108fb565b5060019392505050565b600e5460405163ca15c87360e01b815260009182916001600160a01b039091169063ca15c87390610a28908690600401611e76565b60206040518083038186803b158015610a4057600080fd5b505afa158015610a54573d6000803e3d6000fd5b505050506040513d601f19601f82011682018060405250810190610a789190611dca565b905060005b818110156109e957600e54604051632404341f60e21b81526000916001600160a01b031690639010d07c90610ab89088908690600401611e96565b60206040518083038186803b158015610ad057600080fd5b505afa158015610ae4573d6000803e3d6000fd5b505050506040513d601f19601f82011682018060405250810190610b089190611cfe565b604051632f2ff15d60e01b81529091503090632f2ff15d90610b309088908590600401611e7f565b600060405180830381600087803b158015610b4a57600080fd5b505af1158015610b5e573d6000803e3d6000fd5b50505050508080610b6e9061208c565b915050610a7d565b6000610b8f60008051602061213383398151915261087e565b50610ba76000805160206121338339815191526109f3565b610bb057600080fd5b610bc76000805160206120f383398151915261087e565b50610bdf6000805160206120f38339815191526109f3565b610be857600080fd5b610bff6000805160206120d383398151915261087e565b50610c176000805160206120d38339815191526109f3565b610c2057600080fd5b610c3760008051602061211383398151915261087e565b50610c4f6000805160206121138339815191526109f3565b610c5857600080fd5b610c6f60008051602061215383398151915261087e565b50610c876000805160206121538339815191526109f3565b610c9057600080fd5b610c9a600061087e565b50610ca560006109f3565b610cae57600080fd5b610cb6611544565b50600190565b610cc5826104aa565b610cd681610cd16118d5565b6118d9565b6104e183836117ed565b600e60009054906101000a90046001600160a01b03166001600160a01b031663dadf56ac6040518163ffffffff1660e01b815260040160206040518083038186803b158015610d2e57600080fd5b505afa158015610d42573d6000803e3d6000fd5b505050506040513d601f19601f82011682018060405250810190610d669190611cfe565b600980546001600160a01b0319166001600160a01b03928316179055600e546040805163024bebe960e01b81529051919092169163024bebe9916004808301926020929190829003018186803b158015610dbf57600080fd5b505afa158015610dd3573d6000803e3d6000fd5b505050506040513d601f19601f82011682018060405250810190610df79190611cfe565b600a80546001600160a01b0319166001600160a01b03928316179055600e5460408051635b5c251f60e01b815290519190921691635b5c251f916004808301926020929190829003018186803b158015610e5057600080fd5b505afa158015610e64573d6000803e3d6000fd5b505050506040513d601f19601f82011682018060405250810190610e889190611cfe565b600b80546001600160a01b0319166001600160a01b03928316179055600e5460408051637310bf1d60e11b81529051919092169163e6217e3a916004808301926020929190829003018186803b158015610ee157600080fd5b505afa158015610ef5573d6000803e3d6000fd5b505050506040513d601f19601f82011682018060405250810190610f199190611cfe565b600d80546001600160a01b0319166001600160a01b0392909216919091179055565b600e60009054906101000a90046001600160a01b03166001600160a01b03166321d7f0086040518163ffffffff1660e01b815260040160206040518083038186803b158015610f8957600080fd5b505afa158015610f9d573d6000803e3d6000fd5b505050506040513d601f19601f82011682018060405250810190610fc19190611cfe565b600380546001600160a01b0319166001600160a01b03928316179055600e546040805163762ddb5960e01b81529051919092169163762ddb59916004808301926020929190829003018186803b15801561101a57600080fd5b505afa15801561102e573d6000803e3d6000fd5b505050506040513d601f19601f820116820180604052508101906110529190611cfe565b600480546001600160a01b0319166001600160a01b03928316178155600e546040805163bfb7dc9960e01b81529051919093169263bfb7dc999281810192602092909190829003018186803b1580156110aa57600080fd5b505afa1580156110be573d6000803e3d6000fd5b505050506040513d601f19601f820116820180604052508101906110e29190611cfe565b600580546001600160a01b0319166001600160a01b03928316179055600e5460408051633e6111eb60e21b81529051919092169163f98447ac916004808301926020929190829003018186803b15801561113b57600080fd5b505afa15801561114f573d6000803e3d6000fd5b505050506040513d601f19601f820116820180604052508101906111739190611cfe565b600680546001600160a01b0319166001600160a01b03928316179055600e5460408051630fe1ba9f60e21b815290519190921691633f86ea7c916004808301926020929190829003018186803b1580156111cc57600080fd5b505afa1580156111e0573d6000803e3d6000fd5b505050506040513d601f19601f820116820180604052508101906112049190611cfe565b600780546001600160a01b0319166001600160a01b03928316179055600e5460408051636b58477560e01b815290519190921691636b584775916004808301926020929190829003018186803b15801561125d57600080fd5b505afa158015611271573d6000803e3d6000fd5b505050506040513d601f19601f820116820180604052508101906112959190611cfe565b600880546001600160a01b0319166001600160a01b0392909216919091179055565b6112bf6118d5565b6001600160a01b0316816001600160a01b0316146112ef5760405162461bcd60e51b815260040161057890611fa8565b61047a828261193d565b600061069e836001600160a01b0384166119c0565b600e5460405163ca15c87360e01b815260009182916001600160a01b039091169063ca15c87390611343908690600401611e76565b60206040518083038186803b15801561135b57600080fd5b505afa15801561136f573d6000803e3d6000fd5b505050506040513d601f19601f820116820180604052508101906113939190611dca565b60405163ca15c87360e01b8152909150600090309063ca15c873906113bc908790600401611e76565b60206040518083038186803b1580156113d457600080fd5b505afa1580156113e8573d6000803e3d6000fd5b505050506040513d601f19601f8201168201806040525081019061140c9190611dca565b9050600061141a828461202e565b90506000811161143c5760405162461bcd60e51b815260040161057890611f7e565b60005b8181101561153857600e54604051632404341f60e21b81526000916001600160a01b031690639010d07c9061147a908a908690600401611e96565b60206040518083038186803b15801561149257600080fd5b505afa1580156114a6573d6000803e3d6000fd5b505050506040513d601f19601f820116820180604052508101906114ca9190611cfe565b604051632f2ff15d60e01b81529091503090632f2ff15d906114f2908a908590600401611e7f565b600060405180830381600087803b15801561150c57600080fd5b505af1158015611520573d6000803e3d6000fd5b505050505080806115309061208c565b91505061143f565b50600195945050505050565b600e60009054906101000a90046001600160a01b03166001600160a01b031663ff7e88ec6040518163ffffffff1660e01b815260040160206040518083038186803b15801561159257600080fd5b505afa1580156115a6573d6000803e3d6000fd5b505050506040513d601f19601f820116820180604052508101906115ca9190611d1a565b600e8054911515600160a81b0260ff60a81b19909216919091179081905560408051632fb5658560e01b815290516001600160a01b0390921691632fb5658591600480820192602092909190829003018186803b15801561162a57600080fd5b505afa15801561163e573d6000803e3d6000fd5b505050506040513d601f19601f820116820180604052508101906116629190611d1a565b600e8054911515600160b01b0260ff60b01b19909216919091179055565b600061069e8383611ad7565b600061045282611b30565b6116a0826104aa565b6116ac81610cd16118d5565b6104e1838361193d565b600e60009054906101000a90046001600160a01b03166001600160a01b031663a44b93256040518163ffffffff1660e01b815260040160206040518083038186803b15801561170457600080fd5b505afa158015611718573d6000803e3d6000fd5b505050506040513d601f19601f8201168201806040525081019061173c9190611d1a565b61174557600080fd5b600e60009054906101000a90046001600160a01b03166001600160a01b031663ac7cfac36040518163ffffffff1660e01b815260040160206040518083038186803b15801561179357600080fd5b505afa1580156117a7573d6000803e3d6000fd5b505050506040513d601f19601f820116820180604052508101906117cb9190611cfe565b600280546001600160a01b0319166001600160a01b0392909216919091179055565b6117f782826106a5565b61047a576000828152602081815260408083206001600160a01b03851684529091529020805460ff1916600117905561182e6118d5565b6001600160a01b0316816001600160a01b0316837f2f8788117e7eff1d82e926ec794901d17c78024a50270940304540a733656f0d60405160405180910390a45050565b600061187e8383611b34565b6118b457508154600181810184556000848152602080822090930184905584548482528286019093526040902091909155610452565b506000610452565b6001600160e01b031981166301ffc9a760e01b14919050565b3390565b6118e382826106a5565b61047a576118fb816001600160a01b03166014611b4c565b611906836020611b4c565b604051602001611917929190611de2565b60408051601f198184030181529082905262461bcd60e51b825261057891600401611ea4565b61194782826106a5565b1561047a576000828152602081815260408083206001600160a01b03851684529091529020805460ff1916905561197c6118d5565b6001600160a01b0316816001600160a01b0316837ff6391f5c32d9c69d2a47ea670b442974b53935d1edc7fd64eb21e047a839171b60405160405180910390a45050565b60008181526001830160205260408120548015611acd5760006119e460018361202e565b85549091506000906119f89060019061202e565b90506000866000018281548110611a1f57634e487b7160e01b600052603260045260246000fd5b9060005260206000200154905080876000018481548110611a5057634e487b7160e01b600052603260045260246000fd5b600091825260208083209091019290925582815260018901909152604090208490558654879080611a9157634e487b7160e01b600052603160045260246000fd5b60019003818190600052602060002001600090559055866001016000878152602001908152602001600020600090556001945050505050610452565b6000915050610452565b81546000908210611afa5760405162461bcd60e51b815260040161057890611ed7565b826000018281548110611b1d57634e487b7160e01b600052603260045260246000fd5b9060005260206000200154905092915050565b5490565b60009081526001919091016020526040902054151590565b60606000611b5b83600261200f565b611b66906002611ff7565b67ffffffffffffffff811115611b8c57634e487b7160e01b600052604160045260246000fd5b6040519080825280601f01601f191660200182016040528015611bb6576020820181803683370190505b509050600360fc1b81600081518110611bdf57634e487b7160e01b600052603260045260246000fd5b60200101906001600160f81b031916908160001a905350600f60fb1b81600181518110611c1c57634e487b7160e01b600052603260045260246000fd5b60200101906001600160f81b031916908160001a9053506000611c4084600261200f565b611c4b906001611ff7565b90505b6001811115611cdf576f181899199a1a9b1b9c1cb0b131b232b360811b85600f1660108110611c8d57634e487b7160e01b600052603260045260246000fd5b1a60f81b828281518110611cb157634e487b7160e01b600052603260045260246000fd5b60200101906001600160f81b031916908160001a90535060049490941c93611cd881612075565b9050611c4e565b50831561069e5760405162461bcd60e51b815260040161057890611f19565b600060208284031215611d0f578081fd5b815161069e816120bd565b600060208284031215611d2b578081fd5b8151801515811461069e578182fd5b600060208284031215611d4b578081fd5b5035919050565b60008060408385031215611d64578081fd5b823591506020830135611d76816120bd565b809150509250929050565b60008060408385031215611d93578182fd5b50508035926020909101359150565b600060208284031215611db3578081fd5b81356001600160e01b03198116811461069e578182fd5b600060208284031215611ddb578081fd5b5051919050565b60007f416363657373436f6e74726f6c3a206163636f756e742000000000000000000082528351611e1a816017850160208801612045565b7001034b99036b4b9b9b4b733903937b6329607d1b6017918401918201528351611e4b816028840160208801612045565b01602801949350505050565b6001600160a01b0391909116815260200190565b901515815260200190565b90815260200190565b9182526001600160a01b0316602082015260400190565b918252602082015260400190565b6000602082528251806020840152611ec3816040850160208701612045565b601f01601f19169190910160400192915050565b60208082526022908201527f456e756d657261626c655365743a20696e646578206f7574206f6620626f756e604082015261647360f01b606082015260800190565b6020808252818101527f537472696e67733a20686578206c656e67746820696e73756666696369656e74604082015260600190565b6020808252601690820152752cb7ba93b932903737ba103a3432903130b4b634b33360511b604082015260600190565b60208082526010908201526f4e6f7468696e6720746f2073796e632160801b604082015260600190565b6020808252602f908201527f416363657373436f6e74726f6c3a2063616e206f6e6c792072656e6f756e636560408201526e103937b632b9903337b91039b2b63360891b606082015260800190565b6000821982111561200a5761200a6120a7565b500190565b6000816000190483118215151615612029576120296120a7565b500290565b600082821015612040576120406120a7565b500390565b60005b83811015612060578181015183820152602001612048565b8381111561206f576000848401525b50505050565b600081612084576120846120a7565b506000190190565b60006000198214156120a0576120a06120a7565b5060010190565b634e487b7160e01b600052601160045260246000fd5b6001600160a01b038116811461048657600080fdfefa8e4989e1d689f7bc5c4b25b87efb51fecdecb19ba62847e29c759e12a89acd048bc71fa1cb2c119c339cf9cf00a97996a19a9d991ce5fe049f2fa5459e7990f0f4b159a6e2a4815eb3ca3df080bfa70c9270662c59bcaa4479a456220183e60538d24a8b7882d7b2e36af243d4af61c23e86e3daa6cb8c887b53220b2f57207c9d7f6f02908185bffb3f7fc9afb29fd7bf93675af8fd4b655ee05c2cee1e0ea264697066735822122070b28ac3c391ac4bad828b4adac579b4c8dc6c0219448fe91186586cd787dfbc64736f6c63430008000033",
  "immutableReferences": {},
  "source": "    pragma solidity ^0.8.0;\n\n    import \"./AddressManagerReciever.sol\";\n\n    import \"@openzeppelin/contracts/access/AccessControlEnumerable.sol\";\n   \n    contract SmartConsensusMachine is AccessControlEnumerable, AddressManagerReciever {\n       \n        bytes32 public constant THE_COURT_ROLE = keccak256(\"THE_COURT_ROLE\");\n        bytes32 public constant GAVELS_BAILIFF = keccak256(\"GAVELS_BAILIFF\");\n        bytes32 public constant JURY_BAILIFF = keccak256(\"JURY_BAILIFF\");\n        bytes32 public constant MINI_BAILIFF_ROLE = keccak256(\"MINI_BAILIFF_ROLE\");\n        bytes32 public constant JERK_ROLE = keccak256(\"JERK_ROLE\");\n\n        bool public jerkSanctions = false;\n\n        //To generate Consensus (false by default)\n        bool public GavelVote = false;\n        bool public JuryVote = false;\n\n        bool private isSetUp = false;\n\n        constructor(address _AddressManagerAddress) AddressManagerReciever(_AddressManagerAddress) {\n\n            updateAllAddresses();\n            _syncVotes(); \n            _setupRole(DEFAULT_ADMIN_ROLE, TheCourtAddress);\n            _setupRole(THE_COURT_ROLE, TheCourtAddress);\n            _setupRole(GAVELS_BAILIFF, GavelDAOAgent);\n            _setupRole(JURY_BAILIFF, JuryDAOAgent);\n            _setupRole(MINI_BAILIFF_ROLE, MiniBailiff);\n            _setupRole(JERK_ROLE, address(0));\n        }\n\n\n    /////////////////////////////////////////////////////////////////////////////////////////////////\n    /////////////////////////////////////////////////////////////////////////////////////////////////\n    /// @dev                                                                                     ////\n    /// Permission Modifiers                                                                     ////\n    /////////////////////////////////////////////////////////////////////////////////////////////////\n    /////////////////////////////////////////////////////////////////////////////////////////////////\n\n        modifier BAILIFF {\n            require(hasRole(THE_COURT_ROLE, msg.sender)\n                    || hasRole(GAVELS_BAILIFF, msg.sender)\n                    || hasRole(JURY_BAILIFF, msg.sender),\n                    \"You're not the bailiff\");\n            _;\n        }\n\n        modifier MINI_BAILIFF {\n            require(hasRole(THE_COURT_ROLE, msg.sender)\n                    || hasRole(GAVELS_BAILIFF, msg.sender)\n                    || hasRole(JURY_BAILIFF, msg.sender)\n                    || hasRole(MINI_BAILIFF_ROLE, msg.sender),\n                    \"You're not the bailiff\");\n            _;\n        }\n\n        modifier NOT_JERK {\n            if (jerkSanctions == true) {\n                require(!hasRole(JERK_ROLE, msg.sender));\n            }\n            _;\n        }\n\n        modifier GAVELS {\n            require(hasRole(GAVELS_BAILIFF, msg.sender)\n                    || hasRole(THE_COURT_ROLE, msg.sender)\n                    , \"You're not the Gavels\");\n            _;\n        }\n\n        modifier JURY {\n            require(hasRole(JURY_BAILIFF, msg.sender)\n                    || hasRole(THE_COURT_ROLE, msg.sender), \"You're not the Jury\");\n            _;\n        }\n\n        // Requires a YES vote from both DAOs\n        modifier THE_COURT {\n            require(hasRole(GAVELS_BAILIFF, msg.sender)\n                    || hasRole(JURY_BAILIFF, msg.sender)\n                    || hasRole(THE_COURT_ROLE, msg.sender));\n            require((GavelVote == JuryVote == true)\n                    || hasRole(THE_COURT_ROLE, msg.sender)\n                    , \"Court Must Agree\");\n            _;\n        }\n\n\n    /////////////////////////////////////////////////////////////////////////////////////////////////\n    /////////////////////////////////////////////////////////////////////////////////////////////////\n    /// @dev                                                                                     ////\n    /// Consensus Machine                                                                        ////\n    /////////////////////////////////////////////////////////////////////////////////////////////////\n    /////////////////////////////////////////////////////////////////////////////////////////////////\n\n        function _syncVotes() internal {\n            GavelVote = addressManager.GavelVote();\n            JuryVote = addressManager.JuryVote();      \n        }\n\n        function syncVotes() public {\n            _syncVotes();      \n        }\n\n        function resetVote() public BAILIFF { \n            addressManager.resetVote();\n            syncVotes();\n        }\n\n    /////////////////////////////////////////////////////////////////////////////////////////////////\n    /////////////////////////////////////////////////////////////////////////////////////////////////\n    /// @dev UPDATE ROLES                                                                        ////\n    /// @dev                                                                                     ////\n    /////////////////////////////////////////////////////////////////////////////////////////////////\n    /////////////////////////////////////////////////////////////////////////////////////////////////\n\n\n        function _updateRole(bytes32 ROLE_TO_GRANT) internal returns(bool) {\n            // UPDATE ROLES\n            uint numberOfRoleHodlers = addressManager.getRoleMemberCount(ROLE_TO_GRANT);\n            uint index = 0;\n            for (index = 0; index < numberOfRoleHodlers; index++) {\n                address roleHolder = addressManager.getRoleMember(ROLE_TO_GRANT, index);\n                this.grantRole(ROLE_TO_GRANT, roleHolder);\n            }\n            return true;\n        }\n\n        function _clearRole(bytes32 ROLE_TO_CLEAR) internal returns(bool) {\n            // Clear Roles\n            uint numberOfRoleHodlers = this.getRoleMemberCount(ROLE_TO_CLEAR);\n            uint index = 0;\n            for (index = 0; index < numberOfRoleHodlers; index++) {\n                address roleHolder = this.getRoleMember(ROLE_TO_CLEAR, index);\n                this.revokeRole(ROLE_TO_CLEAR, roleHolder);\n            }\n            return true;\n        }\n\n\n        function _updateAllRoles() internal returns(bool) {\n            // Clear Bailiff Role\n            _clearRole(THE_COURT_ROLE);\n            require(_updateRole(THE_COURT_ROLE));\n\n            _clearRole(GAVELS_BAILIFF);\n            require(_updateRole(GAVELS_BAILIFF));\n\n            _clearRole(JURY_BAILIFF);\n            require(_updateRole(JURY_BAILIFF));\n\n            _clearRole(MINI_BAILIFF_ROLE);\n            require(_updateRole(MINI_BAILIFF_ROLE));\n\n            _clearRole(JERK_ROLE);\n            require(_updateRole(JERK_ROLE));\n\n            _clearRole(DEFAULT_ADMIN_ROLE);\n            require(_updateRole(DEFAULT_ADMIN_ROLE));\n\n            _syncVotes(); \n\n            return true;\n        }\n\n        function _syncSingleRole(bytes32 ROLE_TO_SYNC) internal returns(bool) {\n            // SYNC ROLES\n            uint numberOfAllRoleHodlers = addressManager.getRoleMemberCount(ROLE_TO_SYNC);\n            uint numberOfCurrentRoleHodlers = this.getRoleMemberCount(ROLE_TO_SYNC);\n            uint numberOfNewRoleHodlers = numberOfAllRoleHodlers - numberOfCurrentRoleHodlers;\n            \n            require(numberOfNewRoleHodlers > 0, \"Nothing to sync!\");\n            \n            uint index = 0;\n            for (index = 0; index < numberOfNewRoleHodlers; index++) {\n                address roleHolder = addressManager.getRoleMember(ROLE_TO_SYNC, index);\n                this.grantRole(ROLE_TO_SYNC, roleHolder);\n            }\n            return true;\n\n        }\n\n       \n\n        function updateAllRoles() public {\n            _updateAllRoles();\n        }\n\n        function updateSingleRole(bytes32 ROLE_TO_UPDATE) public {\n            _clearRole(ROLE_TO_UPDATE);\n            _updateRole(ROLE_TO_UPDATE);\n        }\n\n        function syncSingleRole(bytes32 ROLE_TO_SYNC) public {\n            _syncSingleRole(ROLE_TO_SYNC);\n\n        }\n\n        function syncAllRoles() public {\n            _syncSingleRole(THE_COURT_ROLE);\n            _syncSingleRole(GAVELS_BAILIFF);\n            _syncSingleRole(JURY_BAILIFF);\n            _syncSingleRole(MINI_BAILIFF_ROLE);\n            _syncSingleRole(JERK_ROLE);\n            _syncSingleRole(DEFAULT_ADMIN_ROLE);\n            _syncVotes(); \n        }\n\n\n\n    /////////////////////////////////////////////////////////////////////////////////////////////////\n    /////////////////////////////////////////////////////////////////////////////////////////////////\n    /// @dev  END                                                                                ////\n    /////////////////////////////////////////////////////////////////////////////////////////////////\n    /////////////////////////////////////////////////////////////////////////////////////////////////\n    }\n\n\n    /////////////////////////////////////////////////////////////////////////////////////////////////\n    /////////////////////////////////////////////////////////////////////////////////////////////////\n    /// @dev                                                                                     ////\n    /// @dev                                                                                     ////\n    /// @dev                                                                                     ////\n    /////////////////////////////////////////////////////////////////////////////////////////////////\n    /////////////////////////////////////////////////////////////////////////////////////////////////\n\n    /////////////////////////////////////////////////////////////////////////////////////////////////\n    /////////////////////////////////////////////////////////////////////////////////////////////////\n    /// @dev                                                                                     ////\n    /// @dev                                                                                     ////\n    /////////////////////////////////////////////////////////////////////////////////////////////////\n    /////////////////////////////////////////////////////////////////////////////////////////////////",
  "sourcePath": "/home/n/Desktop/v3_fronternd/PinkSlips_FrontEnd_ROUGH/contracts/src/SmartConsensusMachine.sol",
  "compiler": {
    "name": "solc",
    "version": "0.8.0+commit.c7dfd78e.Emscripten.clang"
  },
  "schemaVersion": "3.4.1",
  "updatedAt": "2021-07-05T08:05:53.830Z",
  "devdoc": {
    "kind": "dev",
    "methods": {
      "getRoleAdmin(bytes32)": {
        "details": "Returns the admin role that controls `role`. See {grantRole} and {revokeRole}. To change a role's admin, use {_setRoleAdmin}."
      },
      "getRoleMember(bytes32,uint256)": {
        "details": "Returns one of the accounts that have `role`. `index` must be a value between 0 and {getRoleMemberCount}, non-inclusive. Role bearers are not sorted in any particular way, and their ordering may change at any point. WARNING: When using {getRoleMember} and {getRoleMemberCount}, make sure you perform all queries on the same block. See the following https://forum.openzeppelin.com/t/iterating-over-elements-on-enumerableset-in-openzeppelin-contracts/2296[forum post] for more information."
      },
      "getRoleMemberCount(bytes32)": {
        "details": "Returns the number of accounts that have `role`. Can be used together with {getRoleMember} to enumerate all bearers of a role."
      },
      "grantRole(bytes32,address)": {
        "details": "Overload {grantRole} to track enumerable memberships"
      },
      "hasRole(bytes32,address)": {
        "details": "Returns `true` if `account` has been granted `role`."
      },
      "renounceRole(bytes32,address)": {
        "details": "Overload {renounceRole} to track enumerable memberships"
      },
      "revokeRole(bytes32,address)": {
        "details": "Overload {revokeRole} to track enumerable memberships"
      },
      "supportsInterface(bytes4)": {
        "details": "See {IERC165-supportsInterface}."
      }
    },
    "version": 1
  },
  "userdoc": {
    "kind": "user",
    "methods": {},
    "version": 1
  }
}