{
  "contractName": "SmartConsensusMachine",
  "abi": [
    {
      "inputs": [
        {
          "internalType": "address",
          "name": "_AddressManagerAddress",
          "type": "address"
        }
      ],
      "stateMutability": "nonpayable",
      "type": "constructor"
    },
    {
      "anonymous": false,
      "inputs": [
        {
          "indexed": true,
          "internalType": "bytes32",
          "name": "role",
          "type": "bytes32"
        },
        {
          "indexed": true,
          "internalType": "bytes32",
          "name": "previousAdminRole",
          "type": "bytes32"
        },
        {
          "indexed": true,
          "internalType": "bytes32",
          "name": "newAdminRole",
          "type": "bytes32"
        }
      ],
      "name": "RoleAdminChanged",
      "type": "event"
    },
    {
      "anonymous": false,
      "inputs": [
        {
          "indexed": true,
          "internalType": "bytes32",
          "name": "role",
          "type": "bytes32"
        },
        {
          "indexed": true,
          "internalType": "address",
          "name": "account",
          "type": "address"
        },
        {
          "indexed": true,
          "internalType": "address",
          "name": "sender",
          "type": "address"
        }
      ],
      "name": "RoleGranted",
      "type": "event"
    },
    {
      "anonymous": false,
      "inputs": [
        {
          "indexed": true,
          "internalType": "bytes32",
          "name": "role",
          "type": "bytes32"
        },
        {
          "indexed": true,
          "internalType": "address",
          "name": "account",
          "type": "address"
        },
        {
          "indexed": true,
          "internalType": "address",
          "name": "sender",
          "type": "address"
        }
      ],
      "name": "RoleRevoked",
      "type": "event"
    },
    {
      "inputs": [],
      "name": "AddressManagerAddress",
      "outputs": [
        {
          "internalType": "address",
          "name": "",
          "type": "address"
        }
      ],
      "stateMutability": "view",
      "type": "function"
    },
    {
      "inputs": [],
      "name": "ChadBadgeAddress",
      "outputs": [
        {
          "internalType": "address",
          "name": "",
          "type": "address"
        }
      ],
      "stateMutability": "view",
      "type": "function"
    },
    {
      "inputs": [],
      "name": "ColoredIDAddress",
      "outputs": [
        {
          "internalType": "address",
          "name": "",
          "type": "address"
        }
      ],
      "stateMutability": "view",
      "type": "function"
    },
    {
      "inputs": [],
      "name": "CourtClerk",
      "outputs": [
        {
          "internalType": "address",
          "name": "",
          "type": "address"
        }
      ],
      "stateMutability": "view",
      "type": "function"
    },
    {
      "inputs": [],
      "name": "DEFAULT_ADMIN_ROLE",
      "outputs": [
        {
          "internalType": "bytes32",
          "name": "",
          "type": "bytes32"
        }
      ],
      "stateMutability": "view",
      "type": "function"
    },
    {
      "inputs": [],
      "name": "GAVELS_BAILIFF",
      "outputs": [
        {
          "internalType": "bytes32",
          "name": "",
          "type": "bytes32"
        }
      ],
      "stateMutability": "view",
      "type": "function"
    },
    {
      "inputs": [],
      "name": "GavelDAOAgent",
      "outputs": [
        {
          "internalType": "address",
          "name": "",
          "type": "address"
        }
      ],
      "stateMutability": "view",
      "type": "function"
    },
    {
      "inputs": [],
      "name": "GavelTokenAddress",
      "outputs": [
        {
          "internalType": "address",
          "name": "",
          "type": "address"
        }
      ],
      "stateMutability": "view",
      "type": "function"
    },
    {
      "inputs": [],
      "name": "GavelVote",
      "outputs": [
        {
          "internalType": "bool",
          "name": "",
          "type": "bool"
        }
      ],
      "stateMutability": "view",
      "type": "function"
    },
    {
      "inputs": [],
      "name": "GoldStarAddress",
      "outputs": [
        {
          "internalType": "address",
          "name": "",
          "type": "address"
        }
      ],
      "stateMutability": "view",
      "type": "function"
    },
    {
      "inputs": [],
      "name": "JERK_ROLE",
      "outputs": [
        {
          "internalType": "bytes32",
          "name": "",
          "type": "bytes32"
        }
      ],
      "stateMutability": "view",
      "type": "function"
    },
    {
      "inputs": [],
      "name": "JURY_BAILIFF",
      "outputs": [
        {
          "internalType": "bytes32",
          "name": "",
          "type": "bytes32"
        }
      ],
      "stateMutability": "view",
      "type": "function"
    },
    {
      "inputs": [],
      "name": "JuryDAOAgent",
      "outputs": [
        {
          "internalType": "address",
          "name": "",
          "type": "address"
        }
      ],
      "stateMutability": "view",
      "type": "function"
    },
    {
      "inputs": [],
      "name": "JuryPoolAddress",
      "outputs": [
        {
          "internalType": "address",
          "name": "",
          "type": "address"
        }
      ],
      "stateMutability": "view",
      "type": "function"
    },
    {
      "inputs": [],
      "name": "JuryVote",
      "outputs": [
        {
          "internalType": "bool",
          "name": "",
          "type": "bool"
        }
      ],
      "stateMutability": "view",
      "type": "function"
    },
    {
      "inputs": [],
      "name": "MINI_BAILIFF_ROLE",
      "outputs": [
        {
          "internalType": "bytes32",
          "name": "",
          "type": "bytes32"
        }
      ],
      "stateMutability": "view",
      "type": "function"
    },
    {
      "inputs": [],
      "name": "MiniBailiff",
      "outputs": [
        {
          "internalType": "address",
          "name": "",
          "type": "address"
        }
      ],
      "stateMutability": "view",
      "type": "function"
    },
    {
      "inputs": [],
      "name": "PinkSlipAddress",
      "outputs": [
        {
          "internalType": "address",
          "name": "",
          "type": "address"
        }
      ],
      "stateMutability": "view",
      "type": "function"
    },
    {
      "inputs": [],
      "name": "RedPenTokenAddress",
      "outputs": [
        {
          "internalType": "address",
          "name": "",
          "type": "address"
        }
      ],
      "stateMutability": "view",
      "type": "function"
    },
    {
      "inputs": [],
      "name": "THE_COURT_ROLE",
      "outputs": [
        {
          "internalType": "bytes32",
          "name": "",
          "type": "bytes32"
        }
      ],
      "stateMutability": "view",
      "type": "function"
    },
    {
      "inputs": [],
      "name": "TheCourtAddress",
      "outputs": [
        {
          "internalType": "address",
          "name": "",
          "type": "address"
        }
      ],
      "stateMutability": "view",
      "type": "function"
    },
    {
      "inputs": [],
      "name": "TreasuryAddress",
      "outputs": [
        {
          "internalType": "address",
          "name": "",
          "type": "address"
        }
      ],
      "stateMutability": "view",
      "type": "function"
    },
    {
      "inputs": [],
      "name": "addressManager",
      "outputs": [
        {
          "internalType": "contract AddressManager",
          "name": "",
          "type": "address"
        }
      ],
      "stateMutability": "view",
      "type": "function"
    },
    {
      "inputs": [
        {
          "internalType": "bytes32",
          "name": "role",
          "type": "bytes32"
        }
      ],
      "name": "getRoleAdmin",
      "outputs": [
        {
          "internalType": "bytes32",
          "name": "",
          "type": "bytes32"
        }
      ],
      "stateMutability": "view",
      "type": "function"
    },
    {
      "inputs": [
        {
          "internalType": "bytes32",
          "name": "role",
          "type": "bytes32"
        },
        {
          "internalType": "uint256",
          "name": "index",
          "type": "uint256"
        }
      ],
      "name": "getRoleMember",
      "outputs": [
        {
          "internalType": "address",
          "name": "",
          "type": "address"
        }
      ],
      "stateMutability": "view",
      "type": "function"
    },
    {
      "inputs": [
        {
          "internalType": "bytes32",
          "name": "role",
          "type": "bytes32"
        }
      ],
      "name": "getRoleMemberCount",
      "outputs": [
        {
          "internalType": "uint256",
          "name": "",
          "type": "uint256"
        }
      ],
      "stateMutability": "view",
      "type": "function"
    },
    {
      "inputs": [
        {
          "internalType": "bytes32",
          "name": "role",
          "type": "bytes32"
        },
        {
          "internalType": "address",
          "name": "account",
          "type": "address"
        }
      ],
      "name": "grantRole",
      "outputs": [],
      "stateMutability": "nonpayable",
      "type": "function"
    },
    {
      "inputs": [
        {
          "internalType": "bytes32",
          "name": "role",
          "type": "bytes32"
        },
        {
          "internalType": "address",
          "name": "account",
          "type": "address"
        }
      ],
      "name": "hasRole",
      "outputs": [
        {
          "internalType": "bool",
          "name": "",
          "type": "bool"
        }
      ],
      "stateMutability": "view",
      "type": "function"
    },
    {
      "inputs": [],
      "name": "jerkSanctions",
      "outputs": [
        {
          "internalType": "bool",
          "name": "",
          "type": "bool"
        }
      ],
      "stateMutability": "view",
      "type": "function"
    },
    {
      "inputs": [
        {
          "internalType": "bytes32",
          "name": "role",
          "type": "bytes32"
        },
        {
          "internalType": "address",
          "name": "account",
          "type": "address"
        }
      ],
      "name": "renounceRole",
      "outputs": [],
      "stateMutability": "nonpayable",
      "type": "function"
    },
    {
      "inputs": [
        {
          "internalType": "bytes32",
          "name": "role",
          "type": "bytes32"
        },
        {
          "internalType": "address",
          "name": "account",
          "type": "address"
        }
      ],
      "name": "revokeRole",
      "outputs": [],
      "stateMutability": "nonpayable",
      "type": "function"
    },
    {
      "inputs": [
        {
          "internalType": "bytes4",
          "name": "interfaceId",
          "type": "bytes4"
        }
      ],
      "name": "supportsInterface",
      "outputs": [
        {
          "internalType": "bool",
          "name": "",
          "type": "bool"
        }
      ],
      "stateMutability": "view",
      "type": "function"
    },
    {
      "inputs": [],
      "name": "updateAddressManager",
      "outputs": [],
      "stateMutability": "nonpayable",
      "type": "function"
    },
    {
      "inputs": [],
      "name": "updateAllAddresses",
      "outputs": [],
      "stateMutability": "nonpayable",
      "type": "function"
    },
    {
      "inputs": [],
      "name": "updateDAOAddresses",
      "outputs": [],
      "stateMutability": "nonpayable",
      "type": "function"
    },
    {
      "inputs": [],
      "name": "updateTokenAddresses",
      "outputs": [],
      "stateMutability": "nonpayable",
      "type": "function"
    },
    {
      "inputs": [],
      "name": "syncVotes",
      "outputs": [],
      "stateMutability": "nonpayable",
      "type": "function"
    },
    {
      "inputs": [],
      "name": "resetVote",
      "outputs": [],
      "stateMutability": "nonpayable",
      "type": "function"
    },
    {
      "inputs": [],
      "name": "updateAllRoles",
      "outputs": [],
      "stateMutability": "nonpayable",
      "type": "function"
    },
    {
      "inputs": [
        {
          "internalType": "bytes32",
          "name": "ROLE_TO_UPDATE",
          "type": "bytes32"
        }
      ],
      "name": "updateSingleRole",
      "outputs": [],
      "stateMutability": "nonpayable",
      "type": "function"
    },
    {
      "inputs": [
        {
          "internalType": "bytes32",
          "name": "ROLE_TO_SYNC",
          "type": "bytes32"
        }
      ],
      "name": "syncSingleRole",
      "outputs": [],
      "stateMutability": "nonpayable",
      "type": "function"
    },
    {
      "inputs": [],
      "name": "syncAllRoles",
      "outputs": [],
      "stateMutability": "nonpayable",
      "type": "function"
    }
  ],
  "bytecode": "0x60806040526000805460ff191690556011805463ffffffff60a01b191690553480156200002b57600080fd5b5060405162002f6c38038062002f6c8339810160408190526200004e9162000b96565b600380546001600160a01b0383166001600160a01b0319918216811790925560118054909116909117905562000083620001bf565b6200008d620001d5565b600f54620000a7906000906001600160a01b031662000320565b600f54620000e0907f0538d24a8b7882d7b2e36af243d4af61c23e86e3daa6cb8c887b53220b2f5720906001600160a01b031662000320565b600c5462000119907f048bc71fa1cb2c119c339cf9cf00a97996a19a9d991ce5fe049f2fa5459e7990906001600160a01b031662000320565b600d5462000152907ffa8e4989e1d689f7bc5c4b25b87efb51fecdecb19ba62847e29c759e12a89acd906001600160a01b031662000320565b6010546200018b907ff0f4b159a6e2a4815eb3ca3df080bfa70c9270662c59bcaa4479a456220183e6906001600160a01b031662000320565b620001b87f7c9d7f6f02908185bffb3f7fc9afb29fd7bf93675af8fd4b655ee05c2cee1e0e600062000320565b5062000bec565b620001c962000363565b620001d362000663565b565b601160009054906101000a90046001600160a01b03166001600160a01b031663ff7e88ec6040518163ffffffff1660e01b815260040160206040518083038186803b1580156200022457600080fd5b505afa15801562000239573d6000803e3d6000fd5b505050506040513d601f19601f820116820180604052508101906200025f919062000bc8565b601160156101000a81548160ff021916908315150217905550601160009054906101000a90046001600160a01b03166001600160a01b0316632fb565856040518163ffffffff1660e01b815260040160206040518083038186803b158015620002c757600080fd5b505afa158015620002dc573d6000803e3d6000fd5b505050506040513d601f19601f8201168201806040525081019062000302919062000bc8565b60118054911515600160b01b0260ff60b01b19909216919091179055565b62000337828262000a8c60201b620009101760201c565b60008281526002602090815260409091206200035e9183906200091e62000a9c821b17901c565b505050565b601160009054906101000a90046001600160a01b03166001600160a01b031663dadf56ac6040518163ffffffff1660e01b815260040160206040518083038186803b158015620003b257600080fd5b505afa158015620003c7573d6000803e3d6000fd5b505050506040513d601f19601f82011682018060405250810190620003ed919062000b96565b600c80546001600160a01b0319166001600160a01b039283161790556011546040805163024bebe960e01b81529051919092169163024bebe9916004808301926020929190829003018186803b1580156200044757600080fd5b505afa1580156200045c573d6000803e3d6000fd5b505050506040513d601f19601f8201168201806040525081019062000482919062000b96565b600d80546001600160a01b0319166001600160a01b0392831617905560115460408051635b5c251f60e01b815290519190921691635b5c251f916004808301926020929190829003018186803b158015620004dc57600080fd5b505afa158015620004f1573d6000803e3d6000fd5b505050506040513d601f19601f8201168201806040525081019062000517919062000b96565b600e80546001600160a01b0319166001600160a01b0392831617905560115460408051637310bf1d60e11b81529051919092169163e6217e3a916004808301926020929190829003018186803b1580156200057157600080fd5b505afa15801562000586573d6000803e3d6000fd5b505050506040513d601f19601f82011682018060405250810190620005ac919062000b96565b601080546001600160a01b0319166001600160a01b039283161790556011546040805163d88127a160e01b81529051919092169163d88127a1916004808301926020929190829003018186803b1580156200060657600080fd5b505afa1580156200061b573d6000803e3d6000fd5b505050506040513d601f19601f8201168201806040525081019062000641919062000b96565b600b80546001600160a01b0319166001600160a01b0392909216919091179055565b601160009054906101000a90046001600160a01b03166001600160a01b03166321d7f0086040518163ffffffff1660e01b815260040160206040518083038186803b158015620006b257600080fd5b505afa158015620006c7573d6000803e3d6000fd5b505050506040513d601f19601f82011682018060405250810190620006ed919062000b96565b600480546001600160a01b0319166001600160a01b039283161781556011546040805163762ddb5960e01b81529051919093169263762ddb599281810192602092909190829003018186803b1580156200074657600080fd5b505afa1580156200075b573d6000803e3d6000fd5b505050506040513d601f19601f8201168201806040525081019062000781919062000b96565b600580546001600160a01b0319166001600160a01b039283161790556011546040805163bfb7dc9960e01b81529051919092169163bfb7dc99916004808301926020929190829003018186803b158015620007db57600080fd5b505afa158015620007f0573d6000803e3d6000fd5b505050506040513d601f19601f8201168201806040525081019062000816919062000b96565b600680546001600160a01b0319166001600160a01b0392831617905560115460408051633e6111eb60e21b81529051919092169163f98447ac916004808301926020929190829003018186803b1580156200087057600080fd5b505afa15801562000885573d6000803e3d6000fd5b505050506040513d601f19601f82011682018060405250810190620008ab919062000b96565b600780546001600160a01b0319166001600160a01b0392831617905560115460408051630fe1ba9f60e21b815290519190921691633f86ea7c916004808301926020929190829003018186803b1580156200090557600080fd5b505afa1580156200091a573d6000803e3d6000fd5b505050506040513d601f19601f8201168201806040525081019062000940919062000b96565b600880546001600160a01b0319166001600160a01b0392831617905560115460408051632b90024160e11b8152905191909216916357200482916004808301926020929190829003018186803b1580156200099a57600080fd5b505afa158015620009af573d6000803e3d6000fd5b505050506040513d601f19601f82011682018060405250810190620009d5919062000b96565b600980546001600160a01b0319166001600160a01b0392831617905560115460408051636b58477560e01b815290519190921691636b584775916004808301926020929190829003018186803b15801562000a2f57600080fd5b505afa15801562000a44573d6000803e3d6000fd5b505050506040513d601f19601f8201168201806040525081019062000a6a919062000b96565b600a80546001600160a01b0319166001600160a01b0392909216919091179055565b62000a98828262000abc565b5050565b600062000ab3836001600160a01b03841662000b44565b90505b92915050565b60008281526001602090815260408083206001600160a01b038516845290915290205460ff1662000a985760008281526001602081815260408084206001600160a01b0386168086529252808420805460ff19169093179092559051339285917f2f8788117e7eff1d82e926ec794901d17c78024a50270940304540a733656f0d9190a45050565b600081815260018301602052604081205462000b8d5750815460018181018455600084815260208082209093018490558454848252828601909352604090209190915562000ab6565b50600062000ab6565b60006020828403121562000ba957600080fd5b81516001600160a01b038116811462000bc157600080fd5b9392505050565b60006020828403121562000bdb57600080fd5b8151801515811462000bc157600080fd5b6123708062000bfc6000396000f3fe608060405234801561001057600080fd5b506004361061025e5760003560e01c80636b58477511610146578063cf4ece15116100c3578063e78c266c11610087578063e78c266c1461051a578063e9a532301461052d578063f1132b3014610542578063f7d92d861461054a578063f98447ac14610552578063ff7e88ec1461056557600080fd5b8063cf4ece15146104b9578063d547741f146104ce578063d88127a1146104e1578063dadf56ac146104f4578063e6217e3a1461050757600080fd5b8063a32c5e591161010a578063a32c5e5914610455578063a78e746f1461046a578063bfb7dc991461047e578063ca15c87314610491578063cce84392146104a457600080fd5b80636b58477514610401578063762ddb59146104145780639010d07c1461042757806391d148541461043a578063a217fddf1461044d57600080fd5b8063329a8cfa116101df5780634d84c6d8116101a35780634d84c6d8146103a557806357200482146103ad57806357f276ff146103c05780635b5c251f146103d35780635db531a1146103e65780635f413466146103ee57600080fd5b8063329a8cfa1461035c57806336568abe146103645780633ab76e9f146103775780633f86ea7c1461038a57806349b5e1051461039d57600080fd5b80632436329d116102265780632436329d146102e6578063248a9ca3146103095780632f2ff15d1461032d5780632fb5658514610340578063326a55e01461035457600080fd5b806301ffc9a714610263578063024bebe91461028b578063130f6320146102b657806317314d5a146102cb57806321d7f008146102d3575b600080fd5b610276610271366004612092565b610579565b60405190151581526020015b60405180910390f35b600d5461029e906001600160a01b031681565b6040516001600160a01b039091168152602001610282565b6102c96102c4366004612027565b6105a4565b005b6102c9610616565b60045461029e906001600160a01b031681565b6102fb60008051602061229b83398151915281565b604051908152602001610282565b6102fb610317366004612027565b6000908152600160208190526040909120015490565b6102c961033b366004612040565b610677565b60115461027690600160b01b900460ff1681565b6102c961069e565b6102c96106ae565b6102c9610372366004612040565b6107b7565b60115461029e906001600160a01b031681565b60085461029e906001600160a01b031681565b6102c96107d9565b6102c96106a6565b60095461029e906001600160a01b031681565b6102c96103ce366004612027565b6107e1565b600e5461029e906001600160a01b031681565b6102c96107f5565b600f5461029e906001600160a01b031681565b600a5461029e906001600160a01b031681565b60055461029e906001600160a01b031681565b61029e610435366004612070565b6107fd565b610276610448366004612040565b61081c565b6102fb600081565b6102fb6000805160206122fb83398151915281565b60115461027690600160a01b900460ff1681565b60065461029e906001600160a01b031681565b6102fb61049f366004612027565b610847565b6102fb60008051602061231b83398151915281565b6102fb6000805160206122db83398151915281565b6102c96104dc366004612040565b61085e565b600b5461029e906001600160a01b031681565b600c5461029e906001600160a01b031681565b60105461029e906001600160a01b031681565b60035461029e906001600160a01b031681565b6102fb6000805160206122bb83398151915281565b6102c9610868565b6102c9610870565b60075461029e906001600160a01b031681565b60115461027690600160a81b900460ff1681565b60006001600160e01b03198216635a05180f60e01b148061059e575061059e82610933565b92915050565b6105ae6001610968565b506105b881610a23565b506105c281610b9e565b506105cd6000610968565b6106135760405162461bcd60e51b81526020600482015260126024820152711cd8599d195e481b9bdd08199b1a5c1c195960721b60448201526064015b60405180910390fd5b50565b6106206001610968565b50610629610d27565b506106346000610968565b6106755760405162461bcd60e51b81526020600482015260126024820152711cd8599d195e481b9bdd08199b1a5c1c195960721b604482015260640161060a565b565b6106818282610e6d565b6000828152600260205260409020610699908261091e565b505050565b6106a6610ea7565b610675611193565b6106c66000805160206122fb8339815191523361081c565b806106e457506106e46000805160206122bb8339815191523361081c565b80610702575061070260008051602061229b8339815191523361081c565b6107475760405162461bcd60e51b81526020600482015260166024820152752cb7ba93b932903737ba103a3432903130b4b634b33360511b604482015260640161060a565b601160009054906101000a90046001600160a01b03166001600160a01b031663329a8cfa6040518163ffffffff1660e01b8152600401600060405180830381600087803b15801561079757600080fd5b505af11580156107ab573d6000803e3d6000fd5b505050506106756107f5565b6107c182826115a0565b6000828152600260205260409020610699908261161a565b610675610ea7565b6107eb6001610968565b506105c28161162f565b61067561188a565b600082815260026020526040812061081590836119cd565b9392505050565b60009182526001602090815260408084206001600160a01b0393909316845291905290205460ff1690565b600081815260026020526040812061059e906119d9565b6107c182826119e3565b610675611a1d565b61087a6001610968565b506108926000805160206122fb83398151915261162f565b506108aa6000805160206122bb83398151915261162f565b506108c260008051602061229b83398151915261162f565b506108da6000805160206122db83398151915261162f565b506108f260008051602061231b83398151915261162f565b506108fd600061162f565b5061090661188a565b6106346000610968565b61091a8282611b54565b5050565b6000610815836001600160a01b038416611bbf565b60006001600160e01b03198216637965db0b60e01b148061059e57506301ffc9a760e01b6001600160e01b031983161461059e565b6000805460ff1682151581151514156109c35760405162461bcd60e51b815260206004820152601960248201527f416c72656164792053657420746f20746861742076616c756500000000000000604482015260640161060a565b6000805484151560ff19909116811790915560ff1615158115151415610a1a5760405162461bcd60e51b815260206004820152600c60248201526b29b0b33a32bc9022b93937b960a11b604482015260640161060a565b50600192915050565b60405163ca15c87360e01b8152600481018290526000908190309063ca15c8739060240160206040518083038186803b158015610a5f57600080fd5b505afa158015610a73573d6000803e3d6000fd5b505050506040513d601f19601f82011682018060405250810190610a9791906120bc565b905060005b81811015610b9457604051632404341f60e21b815260048101859052602481018290526000903090639010d07c9060440160206040518083038186803b158015610ae557600080fd5b505afa158015610af9573d6000803e3d6000fd5b505050506040513d601f19601f82011682018060405250810190610b1d9190611fe8565b60405163d547741f60e01b8152600481018790526001600160a01b0382166024820152909150309063d547741f90604401600060405180830381600087803b158015610b6857600080fd5b505af1158015610b7c573d6000803e3d6000fd5b50505050508080610b8c90612212565b915050610a9c565b5060019392505050565b60115460405163ca15c87360e01b81526004810183905260009182916001600160a01b039091169063ca15c8739060240160206040518083038186803b158015610be757600080fd5b505afa158015610bfb573d6000803e3d6000fd5b505050506040513d601f19601f82011682018060405250810190610c1f91906120bc565b905060005b81811015610b9457601154604051632404341f60e21b815260048101869052602481018390526000916001600160a01b031690639010d07c9060440160206040518083038186803b158015610c7857600080fd5b505afa158015610c8c573d6000803e3d6000fd5b505050506040513d601f19601f82011682018060405250810190610cb09190611fe8565b604051632f2ff15d60e01b8152600481018790526001600160a01b03821660248201529091503090632f2ff15d90604401600060405180830381600087803b158015610cfb57600080fd5b505af1158015610d0f573d6000803e3d6000fd5b50505050508080610d1f90612212565b915050610c24565b6000610d406000805160206122fb833981519152610a23565b50610d586000805160206122fb833981519152610b9e565b610d6157600080fd5b610d786000805160206122bb833981519152610a23565b50610d906000805160206122bb833981519152610b9e565b610d9957600080fd5b610db060008051602061229b833981519152610a23565b50610dc860008051602061229b833981519152610b9e565b610dd157600080fd5b610de86000805160206122db833981519152610a23565b50610e006000805160206122db833981519152610b9e565b610e0957600080fd5b610e2060008051602061231b833981519152610a23565b50610e3860008051602061231b833981519152610b9e565b610e4157600080fd5b610e4b6000610a23565b50610e566000610b9e565b610e5f57600080fd5b610e6761188a565b50600190565b600082815260016020819052604082200154905460ff1615610e93576106998383611b54565b610e9d8133611c0e565b6106998383611b54565b601160009054906101000a90046001600160a01b03166001600160a01b031663dadf56ac6040518163ffffffff1660e01b815260040160206040518083038186803b158015610ef557600080fd5b505afa158015610f09573d6000803e3d6000fd5b505050506040513d601f19601f82011682018060405250810190610f2d9190611fe8565b600c80546001600160a01b0319166001600160a01b039283161790556011546040805163024bebe960e01b81529051919092169163024bebe9916004808301926020929190829003018186803b158015610f8657600080fd5b505afa158015610f9a573d6000803e3d6000fd5b505050506040513d601f19601f82011682018060405250810190610fbe9190611fe8565b600d80546001600160a01b0319166001600160a01b0392831617905560115460408051635b5c251f60e01b815290519190921691635b5c251f916004808301926020929190829003018186803b15801561101757600080fd5b505afa15801561102b573d6000803e3d6000fd5b505050506040513d601f19601f8201168201806040525081019061104f9190611fe8565b600e80546001600160a01b0319166001600160a01b0392831617905560115460408051637310bf1d60e11b81529051919092169163e6217e3a916004808301926020929190829003018186803b1580156110a857600080fd5b505afa1580156110bc573d6000803e3d6000fd5b505050506040513d601f19601f820116820180604052508101906110e09190611fe8565b601080546001600160a01b0319166001600160a01b039283161790556011546040805163d88127a160e01b81529051919092169163d88127a1916004808301926020929190829003018186803b15801561113957600080fd5b505afa15801561114d573d6000803e3d6000fd5b505050506040513d601f19601f820116820180604052508101906111719190611fe8565b600b80546001600160a01b0319166001600160a01b0392909216919091179055565b601160009054906101000a90046001600160a01b03166001600160a01b03166321d7f0086040518163ffffffff1660e01b815260040160206040518083038186803b1580156111e157600080fd5b505afa1580156111f5573d6000803e3d6000fd5b505050506040513d601f19601f820116820180604052508101906112199190611fe8565b600480546001600160a01b0319166001600160a01b039283161781556011546040805163762ddb5960e01b81529051919093169263762ddb599281810192602092909190829003018186803b15801561127157600080fd5b505afa158015611285573d6000803e3d6000fd5b505050506040513d601f19601f820116820180604052508101906112a99190611fe8565b600580546001600160a01b0319166001600160a01b039283161790556011546040805163bfb7dc9960e01b81529051919092169163bfb7dc99916004808301926020929190829003018186803b15801561130257600080fd5b505afa158015611316573d6000803e3d6000fd5b505050506040513d601f19601f8201168201806040525081019061133a9190611fe8565b600680546001600160a01b0319166001600160a01b0392831617905560115460408051633e6111eb60e21b81529051919092169163f98447ac916004808301926020929190829003018186803b15801561139357600080fd5b505afa1580156113a7573d6000803e3d6000fd5b505050506040513d601f19601f820116820180604052508101906113cb9190611fe8565b600780546001600160a01b0319166001600160a01b0392831617905560115460408051630fe1ba9f60e21b815290519190921691633f86ea7c916004808301926020929190829003018186803b15801561142457600080fd5b505afa158015611438573d6000803e3d6000fd5b505050506040513d601f19601f8201168201806040525081019061145c9190611fe8565b600880546001600160a01b0319166001600160a01b0392831617905560115460408051632b90024160e11b8152905191909216916357200482916004808301926020929190829003018186803b1580156114b557600080fd5b505afa1580156114c9573d6000803e3d6000fd5b505050506040513d601f19601f820116820180604052508101906114ed9190611fe8565b600980546001600160a01b0319166001600160a01b0392831617905560115460408051636b58477560e01b815290519190921691636b584775916004808301926020929190829003018186803b15801561154657600080fd5b505afa15801561155a573d6000803e3d6000fd5b505050506040513d601f19601f8201168201806040525081019061157e9190611fe8565b600a80546001600160a01b0319166001600160a01b0392909216919091179055565b6001600160a01b03811633146116105760405162461bcd60e51b815260206004820152602f60248201527f416363657373436f6e74726f6c3a2063616e206f6e6c792072656e6f756e636560448201526e103937b632b9903337b91039b2b63360891b606482015260840161060a565b61091a8282611c72565b6000610815836001600160a01b038416611cd9565b60115460405163ca15c87360e01b81526004810183905260009182916001600160a01b039091169063ca15c8739060240160206040518083038186803b15801561167857600080fd5b505afa15801561168c573d6000803e3d6000fd5b505050506040513d601f19601f820116820180604052508101906116b091906120bc565b60405163ca15c87360e01b815260048101859052909150600090309063ca15c8739060240160206040518083038186803b1580156116ed57600080fd5b505afa158015611701573d6000803e3d6000fd5b505050506040513d601f19601f8201168201806040525081019061172591906120bc565b9050600061173382846121b4565b9050600081116117785760405162461bcd60e51b815260206004820152601060248201526f4e6f7468696e6720746f2073796e632160801b604482015260640161060a565b60005b8181101561187e57601154604051632404341f60e21b815260048101889052602481018390526000916001600160a01b031690639010d07c9060440160206040518083038186803b1580156117cf57600080fd5b505afa1580156117e3573d6000803e3d6000fd5b505050506040513d601f19601f820116820180604052508101906118079190611fe8565b604051632f2ff15d60e01b8152600481018990526001600160a01b03821660248201529091503090632f2ff15d90604401600060405180830381600087803b15801561185257600080fd5b505af1158015611866573d6000803e3d6000fd5b5050505050808061187690612212565b91505061177b565b50600195945050505050565b601160009054906101000a90046001600160a01b03166001600160a01b031663ff7e88ec6040518163ffffffff1660e01b815260040160206040518083038186803b1580156118d857600080fd5b505afa1580156118ec573d6000803e3d6000fd5b505050506040513d601f19601f820116820180604052508101906119109190612005565b601160156101000a81548160ff021916908315150217905550601160009054906101000a90046001600160a01b03166001600160a01b0316632fb565856040518163ffffffff1660e01b815260040160206040518083038186803b15801561197757600080fd5b505afa15801561198b573d6000803e3d6000fd5b505050506040513d601f19601f820116820180604052508101906119af9190612005565b60118054911515600160b01b0260ff60b01b19909216919091179055565b60006108158383611dc6565b600061059e825490565b600082815260016020819052604082200154905460ff1615611a09576106998383611c72565b611a138133611c0e565b6106998383611c72565b601160009054906101000a90046001600160a01b03166001600160a01b031663a44b93256040518163ffffffff1660e01b815260040160206040518083038186803b158015611a6b57600080fd5b505afa158015611a7f573d6000803e3d6000fd5b505050506040513d601f19601f82011682018060405250810190611aa39190612005565b611aac57600080fd5b601160009054906101000a90046001600160a01b03166001600160a01b031663ac7cfac36040518163ffffffff1660e01b815260040160206040518083038186803b158015611afa57600080fd5b505afa158015611b0e573d6000803e3d6000fd5b505050506040513d601f19601f82011682018060405250810190611b329190611fe8565b600380546001600160a01b0319166001600160a01b0392909216919091179055565b611b5e828261081c565b61091a5760008281526001602081815260408084206001600160a01b0386168086529252808420805460ff19169093179092559051339285917f2f8788117e7eff1d82e926ec794901d17c78024a50270940304540a733656f0d9190a45050565b6000818152600183016020526040812054611c065750815460018181018455600084815260208082209093018490558454848252828601909352604090209190915561059e565b50600061059e565b611c18828261081c565b61091a57611c30816001600160a01b03166014611e4c565b611c3b836020611e4c565b604051602001611c4c9291906120d5565b60408051601f198184030181529082905262461bcd60e51b825261060a9160040161214a565b611c7c828261081c565b1561091a5760008281526001602090815260408083206001600160a01b0385168085529252808320805460ff1916905551339285917ff6391f5c32d9c69d2a47ea670b442974b53935d1edc7fd64eb21e047a839171b9190a45050565b60008181526001830160205260408120548015611dbc576000611cfd6001836121b4565b8554909150600090611d11906001906121b4565b90506000866000018281548110611d2a57611d2a612259565b9060005260206000200154905080876000018481548110611d4d57611d4d612259565b600091825260208083209091019290925582815260018901909152604090208490558654879080611d8057611d80612243565b6001900381819060005260206000200160009055905586600101600087815260200190815260200160002060009055600194505050505061059e565b600091505061059e565b81546000908210611e245760405162461bcd60e51b815260206004820152602260248201527f456e756d657261626c655365743a20696e646578206f7574206f6620626f756e604482015261647360f01b606482015260840161060a565b826000018281548110611e3957611e39612259565b9060005260206000200154905092915050565b60606000611e5b836002612195565b611e6690600261217d565b67ffffffffffffffff811115611e7e57611e7e61226f565b6040519080825280601f01601f191660200182016040528015611ea8576020820181803683370190505b509050600360fc1b81600081518110611ec357611ec3612259565b60200101906001600160f81b031916908160001a905350600f60fb1b81600181518110611ef257611ef2612259565b60200101906001600160f81b031916908160001a9053506000611f16846002612195565b611f2190600161217d565b90505b6001811115611f99576f181899199a1a9b1b9c1cb0b131b232b360811b85600f1660108110611f5557611f55612259565b1a60f81b828281518110611f6b57611f6b612259565b60200101906001600160f81b031916908160001a90535060049490941c93611f92816121fb565b9050611f24565b5083156108155760405162461bcd60e51b815260206004820181905260248201527f537472696e67733a20686578206c656e67746820696e73756666696369656e74604482015260640161060a565b600060208284031215611ffa57600080fd5b815161081581612285565b60006020828403121561201757600080fd5b8151801515811461081557600080fd5b60006020828403121561203957600080fd5b5035919050565b6000806040838503121561205357600080fd5b82359150602083013561206581612285565b809150509250929050565b6000806040838503121561208357600080fd5b50508035926020909101359150565b6000602082840312156120a457600080fd5b81356001600160e01b03198116811461081557600080fd5b6000602082840312156120ce57600080fd5b5051919050565b7f416363657373436f6e74726f6c3a206163636f756e742000000000000000000081526000835161210d8160178501602088016121cb565b7001034b99036b4b9b9b4b733903937b6329607d1b601791840191820152835161213e8160288401602088016121cb565b01602801949350505050565b60208152600082518060208401526121698160408501602087016121cb565b601f01601f19169190910160400192915050565b600082198211156121905761219061222d565b500190565b60008160001904831182151516156121af576121af61222d565b500290565b6000828210156121c6576121c661222d565b500390565b60005b838110156121e65781810151838201526020016121ce565b838111156121f5576000848401525b50505050565b60008161220a5761220a61222d565b506000190190565b60006000198214156122265761222661222d565b5060010190565b634e487b7160e01b600052601160045260246000fd5b634e487b7160e01b600052603160045260246000fd5b634e487b7160e01b600052603260045260246000fd5b634e487b7160e01b600052604160045260246000fd5b6001600160a01b038116811461061357600080fdfefa8e4989e1d689f7bc5c4b25b87efb51fecdecb19ba62847e29c759e12a89acd048bc71fa1cb2c119c339cf9cf00a97996a19a9d991ce5fe049f2fa5459e7990f0f4b159a6e2a4815eb3ca3df080bfa70c9270662c59bcaa4479a456220183e60538d24a8b7882d7b2e36af243d4af61c23e86e3daa6cb8c887b53220b2f57207c9d7f6f02908185bffb3f7fc9afb29fd7bf93675af8fd4b655ee05c2cee1e0ea2646970667358221220be7498182f40775a7a7e0f3681f9c07383a96fa61a3ca046368dc14dfeceaa5e64736f6c63430008070033",
  "immutableReferences": {},
  "source": "    pragma solidity ^0.8.0;\n\n    import \"./AddressManagerReciever.sol\";\n\n    import \"./forked/AccessControlEnumerable.sol\";\n   \n    contract SmartConsensusMachine is AccessControlEnumerable, AddressManagerReciever {\n       \n        bytes32 public constant THE_COURT_ROLE = keccak256(\"THE_COURT_ROLE\");\n        bytes32 public constant GAVELS_BAILIFF = keccak256(\"GAVELS_BAILIFF\");\n        bytes32 public constant JURY_BAILIFF = keccak256(\"JURY_BAILIFF\");\n        bytes32 public constant MINI_BAILIFF_ROLE = keccak256(\"MINI_BAILIFF_ROLE\");\n        bytes32 public constant JERK_ROLE = keccak256(\"JERK_ROLE\");\n\n        bool public jerkSanctions = false;\n\n        //To generate Consensus (false by default)\n        bool public GavelVote = false;\n        bool public JuryVote = false;\n\n        bool private isSetUp = false;\n\n        constructor(address _AddressManagerAddress) AddressManagerReciever(_AddressManagerAddress) {\n\n            updateAllAddresses();\n            _syncVotes(); \n            _setupRole(DEFAULT_ADMIN_ROLE, TheCourtAddress);\n            _setupRole(THE_COURT_ROLE, TheCourtAddress);\n            _setupRole(GAVELS_BAILIFF, GavelDAOAgent);\n            _setupRole(JURY_BAILIFF, JuryDAOAgent);\n            _setupRole(MINI_BAILIFF_ROLE, MiniBailiff);\n            _setupRole(JERK_ROLE, address(0));\n        }\n\n\n    /////////////////////////////////////////////////////////////////////////////////////////////////\n    /////////////////////////////////////////////////////////////////////////////////////////////////\n    /// @dev                                                                                     ////\n    /// Permission Modifiers                                                                     ////\n    /////////////////////////////////////////////////////////////////////////////////////////////////\n    /////////////////////////////////////////////////////////////////////////////////////////////////\n\n        modifier BAILIFF {\n            require(hasRole(THE_COURT_ROLE, msg.sender)\n                    || hasRole(GAVELS_BAILIFF, msg.sender)\n                    || hasRole(JURY_BAILIFF, msg.sender),\n                    \"You're not the bailiff\");\n            _;\n        }\n\n        modifier MINI_BAILIFF {\n            require(hasRole(THE_COURT_ROLE, msg.sender)\n                    || hasRole(GAVELS_BAILIFF, msg.sender)\n                    || hasRole(JURY_BAILIFF, msg.sender)\n                    || hasRole(MINI_BAILIFF_ROLE, msg.sender),\n                    \"You're not the bailiff\");\n            _;\n        }\n\n        modifier NOT_JERK {\n            if (jerkSanctions == true) {\n                require(!hasRole(JERK_ROLE, msg.sender));\n            }\n            _;\n        }\n\n        modifier GAVELS {\n            require(hasRole(GAVELS_BAILIFF, msg.sender)\n                    || hasRole(THE_COURT_ROLE, msg.sender)\n                    , \"You're not the Gavels\");\n            _;\n        }\n\n        modifier JURY {\n            require(hasRole(JURY_BAILIFF, msg.sender)\n                    || hasRole(THE_COURT_ROLE, msg.sender), \"You're not the Jury\");\n            _;\n        }\n\n        // Requires a YES vote from both DAOs\n        modifier THE_COURT {\n            require(hasRole(GAVELS_BAILIFF, msg.sender)\n                    || hasRole(JURY_BAILIFF, msg.sender)\n                    || hasRole(THE_COURT_ROLE, msg.sender));\n            require((GavelVote == JuryVote == true)\n                    || hasRole(THE_COURT_ROLE, msg.sender)\n                    , \"Court Must Agree\");\n            _;\n        }\n\n\n    /////////////////////////////////////////////////////////////////////////////////////////////////\n    /////////////////////////////////////////////////////////////////////////////////////////////////\n    /// @dev                                                                                     ////\n    /// Consensus Machine                                                                        ////\n    /////////////////////////////////////////////////////////////////////////////////////////////////\n    /////////////////////////////////////////////////////////////////////////////////////////////////\n\n        function _syncVotes() internal {\n            GavelVote = addressManager.GavelVote();\n            JuryVote = addressManager.JuryVote();      \n        }\n\n        function syncVotes() public {\n            _syncVotes();      \n        }\n\n        function resetVote() public BAILIFF { \n            addressManager.resetVote();\n            syncVotes();\n        }\n\n    /////////////////////////////////////////////////////////////////////////////////////////////////\n    /////////////////////////////////////////////////////////////////////////////////////////////////\n    /// @dev UPDATE ROLES                                                                        ////\n    /// @dev                                                                                     ////\n    /////////////////////////////////////////////////////////////////////////////////////////////////\n    /////////////////////////////////////////////////////////////////////////////////////////////////\n\n\n        function _updateRole(bytes32 ROLE_TO_GRANT) internal returns(bool) {\n            // UPDATE ROLES\n            uint numberOfRoleHodlers = addressManager.getRoleMemberCount(ROLE_TO_GRANT);\n            uint index = 0;\n            for (index = 0; index < numberOfRoleHodlers; index++) {\n                address roleHolder = addressManager.getRoleMember(ROLE_TO_GRANT, index);\n                this.grantRole(ROLE_TO_GRANT, roleHolder);\n            }\n            return true;\n        }\n\n        function _clearRole(bytes32 ROLE_TO_CLEAR) internal returns(bool) {\n            // Clear Roles\n            uint numberOfRoleHodlers = this.getRoleMemberCount(ROLE_TO_CLEAR);\n            uint index = 0;\n            for (index = 0; index < numberOfRoleHodlers; index++) {\n                address roleHolder = this.getRoleMember(ROLE_TO_CLEAR, index);\n                this.revokeRole(ROLE_TO_CLEAR, roleHolder);\n            }\n            return true;\n        }\n\n\n        function _updateAllRoles() internal returns(bool) {\n            // Clear Bailiff Role\n            _clearRole(THE_COURT_ROLE);\n            require(_updateRole(THE_COURT_ROLE));\n\n            _clearRole(GAVELS_BAILIFF);\n            require(_updateRole(GAVELS_BAILIFF));\n\n            _clearRole(JURY_BAILIFF);\n            require(_updateRole(JURY_BAILIFF));\n\n            _clearRole(MINI_BAILIFF_ROLE);\n            require(_updateRole(MINI_BAILIFF_ROLE));\n\n            _clearRole(JERK_ROLE);\n            require(_updateRole(JERK_ROLE));\n\n            _clearRole(DEFAULT_ADMIN_ROLE);\n            require(_updateRole(DEFAULT_ADMIN_ROLE));\n\n            _syncVotes(); \n\n            return true;\n        }\n\n        function _syncSingleRole(bytes32 ROLE_TO_SYNC) internal returns(bool) {\n            // SYNC ROLES\n            uint numberOfAllRoleHodlers = addressManager.getRoleMemberCount(ROLE_TO_SYNC);\n            uint numberOfCurrentRoleHodlers = this.getRoleMemberCount(ROLE_TO_SYNC);\n            uint numberOfNewRoleHodlers = numberOfAllRoleHodlers - numberOfCurrentRoleHodlers;\n            \n            require(numberOfNewRoleHodlers > 0, \"Nothing to sync!\");\n            \n            uint index = 0;\n            for (index = 0; index < numberOfNewRoleHodlers; index++) {\n                address roleHolder = addressManager.getRoleMember(ROLE_TO_SYNC, index);\n                this.grantRole(ROLE_TO_SYNC, roleHolder);\n            }\n            return true;\n\n        }\n\n       \n\n        function updateAllRoles() public {\n            _flipSaftey(true);\n            _updateAllRoles();\n            require(_flipSaftey(false), \"saftey not flipped\");\n        }\n\n        function updateSingleRole(bytes32 ROLE_TO_UPDATE) public {\n            _flipSaftey(true);\n            _clearRole(ROLE_TO_UPDATE);\n            _updateRole(ROLE_TO_UPDATE);\n            require(_flipSaftey(false), \"saftey not flipped\");\n        }\n\n        function syncSingleRole(bytes32 ROLE_TO_SYNC) public {\n            _flipSaftey(true);\n            _syncSingleRole(ROLE_TO_SYNC);\n            require(_flipSaftey(false), \"saftey not flipped\");\n        }\n\n        function syncAllRoles() public {\n            _flipSaftey(true);\n            _syncSingleRole(THE_COURT_ROLE);\n            _syncSingleRole(GAVELS_BAILIFF);\n            _syncSingleRole(JURY_BAILIFF);\n            _syncSingleRole(MINI_BAILIFF_ROLE);\n            _syncSingleRole(JERK_ROLE);\n            _syncSingleRole(DEFAULT_ADMIN_ROLE);\n            _syncVotes();\n            require(_flipSaftey(false), \"saftey not flipped\");\n        }\n\n\n    /////////////////////////////////////////////////////////////////////////////////////////////////\n    /////////////////////////////////////////////////////////////////////////////////////////////////\n    /// @dev  END                                                                                ////\n    /////////////////////////////////////////////////////////////////////////////////////////////////\n    /////////////////////////////////////////////////////////////////////////////////////////////////\n    }\n\n\n    /////////////////////////////////////////////////////////////////////////////////////////////////\n    /////////////////////////////////////////////////////////////////////////////////////////////////\n    /// @dev                                                                                     ////\n    /// @dev                                                                                     ////\n    /// @dev                                                                                     ////\n    /////////////////////////////////////////////////////////////////////////////////////////////////\n    /////////////////////////////////////////////////////////////////////////////////////////////////\n\n    /////////////////////////////////////////////////////////////////////////////////////////////////\n    /////////////////////////////////////////////////////////////////////////////////////////////////\n    /// @dev                                                                                     ////\n    /// @dev                                                                                     ////\n    /////////////////////////////////////////////////////////////////////////////////////////////////\n    /////////////////////////////////////////////////////////////////////////////////////////////////",
  "sourcePath": "/home/n/Desktop/PinkSlips_FrontEnd_REFORMAT/contracts/src/SmartConsensusMachine.sol",
  "compiler": {
    "name": "solc",
    "version": "0.8.7+commit.e28d00a7.Emscripten.clang"
  },
  "schemaVersion": "3.4.1",
  "updatedAt": "2021-08-19T03:42:00.138Z",
  "devdoc": {
    "kind": "dev",
    "methods": {
      "getRoleAdmin(bytes32)": {
        "details": "Returns the admin role that controls `role`. See {grantRole} and {revokeRole}. To change a role's admin, use {_setRoleAdmin}."
      },
      "getRoleMember(bytes32,uint256)": {
        "details": "Returns one of the accounts that have `role`. `index` must be a value between 0 and {getRoleMemberCount}, non-inclusive. Role bearers are not sorted in any particular way, and their ordering may change at any point. WARNING: When using {getRoleMember} and {getRoleMemberCount}, make sure you perform all queries on the same block. See the following https://forum.openzeppelin.com/t/iterating-over-elements-on-enumerableset-in-openzeppelin-contracts/2296[forum post] for more information."
      },
      "getRoleMemberCount(bytes32)": {
        "details": "Returns the number of accounts that have `role`. Can be used together with {getRoleMember} to enumerate all bearers of a role."
      },
      "grantRole(bytes32,address)": {
        "details": "Overload {grantRole} to track enumerable memberships"
      },
      "hasRole(bytes32,address)": {
        "details": "Returns `true` if `account` has been granted `role`."
      },
      "renounceRole(bytes32,address)": {
        "details": "Overload {renounceRole} to track enumerable memberships"
      },
      "revokeRole(bytes32,address)": {
        "details": "Overload {revokeRole} to track enumerable memberships"
      },
      "supportsInterface(bytes4)": {
        "details": "See {IERC165-supportsInterface}."
      }
    },
    "version": 1
  },
  "userdoc": {
    "kind": "user",
    "methods": {},
    "version": 1
  }
}