{
  "contractName": "UserSendable",
  "abi": [
    {
      "inputs": [
        {
          "internalType": "string",
          "name": "_badgeName",
          "type": "string"
        },
        {
          "internalType": "string",
          "name": "_badgeSymbol",
          "type": "string"
        },
        {
          "internalType": "address",
          "name": "_AddressManagerAddress",
          "type": "address"
        }
      ],
      "stateMutability": "nonpayable",
      "type": "constructor"
    },
    {
      "anonymous": false,
      "inputs": [
        {
          "indexed": true,
          "internalType": "address",
          "name": "owner",
          "type": "address"
        },
        {
          "indexed": true,
          "internalType": "address",
          "name": "approved",
          "type": "address"
        },
        {
          "indexed": true,
          "internalType": "uint256",
          "name": "tokenId",
          "type": "uint256"
        }
      ],
      "name": "Approval",
      "type": "event"
    },
    {
      "anonymous": false,
      "inputs": [
        {
          "indexed": true,
          "internalType": "address",
          "name": "owner",
          "type": "address"
        },
        {
          "indexed": true,
          "internalType": "address",
          "name": "operator",
          "type": "address"
        },
        {
          "indexed": false,
          "internalType": "bool",
          "name": "approved",
          "type": "bool"
        }
      ],
      "name": "ApprovalForAll",
      "type": "event"
    },
    {
      "anonymous": false,
      "inputs": [
        {
          "indexed": false,
          "internalType": "address",
          "name": "account",
          "type": "address"
        }
      ],
      "name": "Paused",
      "type": "event"
    },
    {
      "anonymous": false,
      "inputs": [
        {
          "indexed": true,
          "internalType": "bytes32",
          "name": "role",
          "type": "bytes32"
        },
        {
          "indexed": true,
          "internalType": "bytes32",
          "name": "previousAdminRole",
          "type": "bytes32"
        },
        {
          "indexed": true,
          "internalType": "bytes32",
          "name": "newAdminRole",
          "type": "bytes32"
        }
      ],
      "name": "RoleAdminChanged",
      "type": "event"
    },
    {
      "anonymous": false,
      "inputs": [
        {
          "indexed": true,
          "internalType": "bytes32",
          "name": "role",
          "type": "bytes32"
        },
        {
          "indexed": true,
          "internalType": "address",
          "name": "account",
          "type": "address"
        },
        {
          "indexed": true,
          "internalType": "address",
          "name": "sender",
          "type": "address"
        }
      ],
      "name": "RoleGranted",
      "type": "event"
    },
    {
      "anonymous": false,
      "inputs": [
        {
          "indexed": true,
          "internalType": "bytes32",
          "name": "role",
          "type": "bytes32"
        },
        {
          "indexed": true,
          "internalType": "address",
          "name": "account",
          "type": "address"
        },
        {
          "indexed": true,
          "internalType": "address",
          "name": "sender",
          "type": "address"
        }
      ],
      "name": "RoleRevoked",
      "type": "event"
    },
    {
      "anonymous": false,
      "inputs": [
        {
          "indexed": true,
          "internalType": "address",
          "name": "from",
          "type": "address"
        },
        {
          "indexed": true,
          "internalType": "address",
          "name": "to",
          "type": "address"
        },
        {
          "indexed": true,
          "internalType": "uint256",
          "name": "tokenId",
          "type": "uint256"
        }
      ],
      "name": "Transfer",
      "type": "event"
    },
    {
      "anonymous": false,
      "inputs": [
        {
          "indexed": false,
          "internalType": "address",
          "name": "account",
          "type": "address"
        }
      ],
      "name": "Unpaused",
      "type": "event"
    },
    {
      "inputs": [],
      "name": "AddressManagerAddress",
      "outputs": [
        {
          "internalType": "address",
          "name": "",
          "type": "address"
        }
      ],
      "stateMutability": "view",
      "type": "function"
    },
    {
      "inputs": [
        {
          "internalType": "uint256",
          "name": "",
          "type": "uint256"
        }
      ],
      "name": "BadgeInfo",
      "outputs": [
        {
          "internalType": "address",
          "name": "gifter",
          "type": "address"
        },
        {
          "internalType": "string",
          "name": "reason",
          "type": "string"
        }
      ],
      "stateMutability": "view",
      "type": "function"
    },
    {
      "inputs": [
        {
          "internalType": "address",
          "name": "",
          "type": "address"
        },
        {
          "internalType": "uint256",
          "name": "",
          "type": "uint256"
        }
      ],
      "name": "BadgesSent",
      "outputs": [
        {
          "internalType": "uint256",
          "name": "",
          "type": "uint256"
        }
      ],
      "stateMutability": "view",
      "type": "function"
    },
    {
      "inputs": [],
      "name": "ChadBadgeAddress",
      "outputs": [
        {
          "internalType": "address",
          "name": "",
          "type": "address"
        }
      ],
      "stateMutability": "view",
      "type": "function"
    },
    {
      "inputs": [],
      "name": "ColoredIDAddress",
      "outputs": [
        {
          "internalType": "address",
          "name": "",
          "type": "address"
        }
      ],
      "stateMutability": "view",
      "type": "function"
    },
    {
      "inputs": [],
      "name": "CourtClerk",
      "outputs": [
        {
          "internalType": "address",
          "name": "",
          "type": "address"
        }
      ],
      "stateMutability": "view",
      "type": "function"
    },
    {
      "inputs": [],
      "name": "DEFAULT_ADMIN_ROLE",
      "outputs": [
        {
          "internalType": "bytes32",
          "name": "",
          "type": "bytes32"
        }
      ],
      "stateMutability": "view",
      "type": "function"
    },
    {
      "inputs": [],
      "name": "GAVELS_BAILIFF",
      "outputs": [
        {
          "internalType": "bytes32",
          "name": "",
          "type": "bytes32"
        }
      ],
      "stateMutability": "view",
      "type": "function"
    },
    {
      "inputs": [],
      "name": "GavelDAOAgent",
      "outputs": [
        {
          "internalType": "address",
          "name": "",
          "type": "address"
        }
      ],
      "stateMutability": "view",
      "type": "function"
    },
    {
      "inputs": [],
      "name": "GavelTokenAddress",
      "outputs": [
        {
          "internalType": "address",
          "name": "",
          "type": "address"
        }
      ],
      "stateMutability": "view",
      "type": "function"
    },
    {
      "inputs": [],
      "name": "GavelVote",
      "outputs": [
        {
          "internalType": "bool",
          "name": "",
          "type": "bool"
        }
      ],
      "stateMutability": "view",
      "type": "function"
    },
    {
      "inputs": [],
      "name": "GoldStarAddress",
      "outputs": [
        {
          "internalType": "address",
          "name": "",
          "type": "address"
        }
      ],
      "stateMutability": "view",
      "type": "function"
    },
    {
      "inputs": [],
      "name": "JERK_ROLE",
      "outputs": [
        {
          "internalType": "bytes32",
          "name": "",
          "type": "bytes32"
        }
      ],
      "stateMutability": "view",
      "type": "function"
    },
    {
      "inputs": [],
      "name": "JURY_BAILIFF",
      "outputs": [
        {
          "internalType": "bytes32",
          "name": "",
          "type": "bytes32"
        }
      ],
      "stateMutability": "view",
      "type": "function"
    },
    {
      "inputs": [],
      "name": "JuryDAOAgent",
      "outputs": [
        {
          "internalType": "address",
          "name": "",
          "type": "address"
        }
      ],
      "stateMutability": "view",
      "type": "function"
    },
    {
      "inputs": [],
      "name": "JuryPoolAddress",
      "outputs": [
        {
          "internalType": "address",
          "name": "",
          "type": "address"
        }
      ],
      "stateMutability": "view",
      "type": "function"
    },
    {
      "inputs": [],
      "name": "JuryVote",
      "outputs": [
        {
          "internalType": "bool",
          "name": "",
          "type": "bool"
        }
      ],
      "stateMutability": "view",
      "type": "function"
    },
    {
      "inputs": [],
      "name": "MINI_BAILIFF_ROLE",
      "outputs": [
        {
          "internalType": "bytes32",
          "name": "",
          "type": "bytes32"
        }
      ],
      "stateMutability": "view",
      "type": "function"
    },
    {
      "inputs": [],
      "name": "MiniBailiff",
      "outputs": [
        {
          "internalType": "address",
          "name": "",
          "type": "address"
        }
      ],
      "stateMutability": "view",
      "type": "function"
    },
    {
      "inputs": [],
      "name": "PinkSlipAddress",
      "outputs": [
        {
          "internalType": "address",
          "name": "",
          "type": "address"
        }
      ],
      "stateMutability": "view",
      "type": "function"
    },
    {
      "inputs": [],
      "name": "RedPenTokenAddress",
      "outputs": [
        {
          "internalType": "address",
          "name": "",
          "type": "address"
        }
      ],
      "stateMutability": "view",
      "type": "function"
    },
    {
      "inputs": [],
      "name": "THE_COURT_ROLE",
      "outputs": [
        {
          "internalType": "bytes32",
          "name": "",
          "type": "bytes32"
        }
      ],
      "stateMutability": "view",
      "type": "function"
    },
    {
      "inputs": [],
      "name": "TheCourtAddress",
      "outputs": [
        {
          "internalType": "address",
          "name": "",
          "type": "address"
        }
      ],
      "stateMutability": "view",
      "type": "function"
    },
    {
      "inputs": [],
      "name": "TreasuryAddress",
      "outputs": [
        {
          "internalType": "address",
          "name": "",
          "type": "address"
        }
      ],
      "stateMutability": "view",
      "type": "function"
    },
    {
      "inputs": [],
      "name": "addressManager",
      "outputs": [
        {
          "internalType": "contract AddressManager",
          "name": "",
          "type": "address"
        }
      ],
      "stateMutability": "view",
      "type": "function"
    },
    {
      "inputs": [
        {
          "internalType": "address",
          "name": "to",
          "type": "address"
        },
        {
          "internalType": "uint256",
          "name": "tokenId",
          "type": "uint256"
        }
      ],
      "name": "approve",
      "outputs": [],
      "stateMutability": "nonpayable",
      "type": "function"
    },
    {
      "inputs": [],
      "name": "badgeColor",
      "outputs": [
        {
          "internalType": "string",
          "name": "",
          "type": "string"
        }
      ],
      "stateMutability": "view",
      "type": "function"
    },
    {
      "inputs": [],
      "name": "badgeName",
      "outputs": [
        {
          "internalType": "string",
          "name": "",
          "type": "string"
        }
      ],
      "stateMutability": "view",
      "type": "function"
    },
    {
      "inputs": [
        {
          "internalType": "address",
          "name": "owner",
          "type": "address"
        }
      ],
      "name": "balanceOf",
      "outputs": [
        {
          "internalType": "uint256",
          "name": "",
          "type": "uint256"
        }
      ],
      "stateMutability": "view",
      "type": "function"
    },
    {
      "inputs": [],
      "name": "baseURI_",
      "outputs": [
        {
          "internalType": "string",
          "name": "",
          "type": "string"
        }
      ],
      "stateMutability": "view",
      "type": "function"
    },
    {
      "inputs": [
        {
          "internalType": "uint256",
          "name": "valueMustBe69",
          "type": "uint256"
        }
      ],
      "name": "destroyAndLockContract",
      "outputs": [
        {
          "internalType": "bool",
          "name": "",
          "type": "bool"
        }
      ],
      "stateMutability": "nonpayable",
      "type": "function"
    },
    {
      "inputs": [
        {
          "internalType": "uint256",
          "name": "tokenId",
          "type": "uint256"
        }
      ],
      "name": "getApproved",
      "outputs": [
        {
          "internalType": "address",
          "name": "",
          "type": "address"
        }
      ],
      "stateMutability": "view",
      "type": "function"
    },
    {
      "inputs": [
        {
          "internalType": "uint256",
          "name": "_tokenId",
          "type": "uint256"
        }
      ],
      "name": "getBadgeReason",
      "outputs": [
        {
          "internalType": "string",
          "name": "_theReason",
          "type": "string"
        }
      ],
      "stateMutability": "view",
      "type": "function"
    },
    {
      "inputs": [
        {
          "internalType": "uint256",
          "name": "_tokenId",
          "type": "uint256"
        }
      ],
      "name": "getBadgeSender",
      "outputs": [
        {
          "internalType": "address",
          "name": "_theGifter",
          "type": "address"
        }
      ],
      "stateMutability": "view",
      "type": "function"
    },
    {
      "inputs": [
        {
          "internalType": "address",
          "name": "_gifter",
          "type": "address"
        }
      ],
      "name": "getBadgesSent",
      "outputs": [
        {
          "internalType": "uint256[]",
          "name": "_BadgesSent",
          "type": "uint256[]"
        }
      ],
      "stateMutability": "view",
      "type": "function"
    },
    {
      "inputs": [
        {
          "internalType": "bytes32",
          "name": "role",
          "type": "bytes32"
        }
      ],
      "name": "getRoleAdmin",
      "outputs": [
        {
          "internalType": "bytes32",
          "name": "",
          "type": "bytes32"
        }
      ],
      "stateMutability": "view",
      "type": "function"
    },
    {
      "inputs": [
        {
          "internalType": "bytes32",
          "name": "role",
          "type": "bytes32"
        },
        {
          "internalType": "uint256",
          "name": "index",
          "type": "uint256"
        }
      ],
      "name": "getRoleMember",
      "outputs": [
        {
          "internalType": "address",
          "name": "",
          "type": "address"
        }
      ],
      "stateMutability": "view",
      "type": "function"
    },
    {
      "inputs": [
        {
          "internalType": "bytes32",
          "name": "role",
          "type": "bytes32"
        }
      ],
      "name": "getRoleMemberCount",
      "outputs": [
        {
          "internalType": "uint256",
          "name": "",
          "type": "uint256"
        }
      ],
      "stateMutability": "view",
      "type": "function"
    },
    {
      "inputs": [
        {
          "internalType": "bytes32",
          "name": "role",
          "type": "bytes32"
        },
        {
          "internalType": "address",
          "name": "account",
          "type": "address"
        }
      ],
      "name": "grantRole",
      "outputs": [],
      "stateMutability": "nonpayable",
      "type": "function"
    },
    {
      "inputs": [
        {
          "internalType": "bytes32",
          "name": "role",
          "type": "bytes32"
        },
        {
          "internalType": "address",
          "name": "account",
          "type": "address"
        }
      ],
      "name": "hasRole",
      "outputs": [
        {
          "internalType": "bool",
          "name": "",
          "type": "bool"
        }
      ],
      "stateMutability": "view",
      "type": "function"
    },
    {
      "inputs": [
        {
          "internalType": "address",
          "name": "owner",
          "type": "address"
        },
        {
          "internalType": "address",
          "name": "operator",
          "type": "address"
        }
      ],
      "name": "isApprovedForAll",
      "outputs": [
        {
          "internalType": "bool",
          "name": "",
          "type": "bool"
        }
      ],
      "stateMutability": "view",
      "type": "function"
    },
    {
      "inputs": [
        {
          "internalType": "address",
          "name": "addressToCheck",
          "type": "address"
        },
        {
          "internalType": "uint256",
          "name": "badgeTokenID",
          "type": "uint256"
        }
      ],
      "name": "isBadgeSender",
      "outputs": [
        {
          "internalType": "bool",
          "name": "",
          "type": "bool"
        }
      ],
      "stateMutability": "view",
      "type": "function"
    },
    {
      "inputs": [],
      "name": "isForeverLocked",
      "outputs": [
        {
          "internalType": "bool",
          "name": "",
          "type": "bool"
        }
      ],
      "stateMutability": "view",
      "type": "function"
    },
    {
      "inputs": [],
      "name": "jerkSanctions",
      "outputs": [
        {
          "internalType": "bool",
          "name": "",
          "type": "bool"
        }
      ],
      "stateMutability": "view",
      "type": "function"
    },
    {
      "inputs": [],
      "name": "mintingCost",
      "outputs": [
        {
          "internalType": "uint256",
          "name": "",
          "type": "uint256"
        }
      ],
      "stateMutability": "view",
      "type": "function"
    },
    {
      "inputs": [],
      "name": "mintingCostFloor",
      "outputs": [
        {
          "internalType": "uint256",
          "name": "",
          "type": "uint256"
        }
      ],
      "stateMutability": "view",
      "type": "function"
    },
    {
      "inputs": [],
      "name": "name",
      "outputs": [
        {
          "internalType": "string",
          "name": "",
          "type": "string"
        }
      ],
      "stateMutability": "view",
      "type": "function"
    },
    {
      "inputs": [],
      "name": "nextTokenId",
      "outputs": [
        {
          "internalType": "uint256",
          "name": "_nextTokenId",
          "type": "uint256"
        }
      ],
      "stateMutability": "view",
      "type": "function"
    },
    {
      "inputs": [
        {
          "internalType": "uint256",
          "name": "tokenId",
          "type": "uint256"
        }
      ],
      "name": "ownerOf",
      "outputs": [
        {
          "internalType": "address",
          "name": "",
          "type": "address"
        }
      ],
      "stateMutability": "view",
      "type": "function"
    },
    {
      "inputs": [],
      "name": "pause",
      "outputs": [],
      "stateMutability": "nonpayable",
      "type": "function"
    },
    {
      "inputs": [],
      "name": "paused",
      "outputs": [
        {
          "internalType": "bool",
          "name": "",
          "type": "bool"
        }
      ],
      "stateMutability": "view",
      "type": "function"
    },
    {
      "inputs": [],
      "name": "redPens",
      "outputs": [
        {
          "internalType": "contract ERC20",
          "name": "",
          "type": "address"
        }
      ],
      "stateMutability": "view",
      "type": "function"
    },
    {
      "inputs": [
        {
          "internalType": "bool",
          "name": "thisIsNotReversible",
          "type": "bool"
        }
      ],
      "name": "refreshBadges",
      "outputs": [
        {
          "internalType": "bool",
          "name": "",
          "type": "bool"
        }
      ],
      "stateMutability": "nonpayable",
      "type": "function"
    },
    {
      "inputs": [
        {
          "internalType": "bytes32",
          "name": "role",
          "type": "bytes32"
        },
        {
          "internalType": "address",
          "name": "account",
          "type": "address"
        }
      ],
      "name": "renounceRole",
      "outputs": [],
      "stateMutability": "nonpayable",
      "type": "function"
    },
    {
      "inputs": [],
      "name": "resetVote",
      "outputs": [],
      "stateMutability": "nonpayable",
      "type": "function"
    },
    {
      "inputs": [
        {
          "internalType": "uint256",
          "name": "tokenId",
          "type": "uint256"
        }
      ],
      "name": "revokeBadge",
      "outputs": [],
      "stateMutability": "nonpayable",
      "type": "function"
    },
    {
      "inputs": [
        {
          "internalType": "bytes32",
          "name": "role",
          "type": "bytes32"
        },
        {
          "internalType": "address",
          "name": "account",
          "type": "address"
        }
      ],
      "name": "revokeRole",
      "outputs": [],
      "stateMutability": "nonpayable",
      "type": "function"
    },
    {
      "inputs": [
        {
          "internalType": "address",
          "name": "from",
          "type": "address"
        },
        {
          "internalType": "address",
          "name": "to",
          "type": "address"
        },
        {
          "internalType": "uint256",
          "name": "tokenId",
          "type": "uint256"
        }
      ],
      "name": "safeTransferFrom",
      "outputs": [],
      "stateMutability": "nonpayable",
      "type": "function"
    },
    {
      "inputs": [
        {
          "internalType": "address",
          "name": "from",
          "type": "address"
        },
        {
          "internalType": "address",
          "name": "to",
          "type": "address"
        },
        {
          "internalType": "uint256",
          "name": "tokenId",
          "type": "uint256"
        },
        {
          "internalType": "bytes",
          "name": "_data",
          "type": "bytes"
        }
      ],
      "name": "safeTransferFrom",
      "outputs": [],
      "stateMutability": "nonpayable",
      "type": "function"
    },
    {
      "inputs": [
        {
          "internalType": "address",
          "name": "operator",
          "type": "address"
        },
        {
          "internalType": "bool",
          "name": "approved",
          "type": "bool"
        }
      ],
      "name": "setApprovalForAll",
      "outputs": [],
      "stateMutability": "nonpayable",
      "type": "function"
    },
    {
      "inputs": [
        {
          "internalType": "string",
          "name": "_baseURIString",
          "type": "string"
        }
      ],
      "name": "setBaseURI",
      "outputs": [
        {
          "internalType": "bool",
          "name": "",
          "type": "bool"
        }
      ],
      "stateMutability": "nonpayable",
      "type": "function"
    },
    {
      "inputs": [
        {
          "internalType": "bytes4",
          "name": "interfaceId",
          "type": "bytes4"
        }
      ],
      "name": "supportsInterface",
      "outputs": [
        {
          "internalType": "bool",
          "name": "",
          "type": "bool"
        }
      ],
      "stateMutability": "view",
      "type": "function"
    },
    {
      "inputs": [],
      "name": "symbol",
      "outputs": [
        {
          "internalType": "string",
          "name": "",
          "type": "string"
        }
      ],
      "stateMutability": "view",
      "type": "function"
    },
    {
      "inputs": [],
      "name": "syncAllRoles",
      "outputs": [],
      "stateMutability": "nonpayable",
      "type": "function"
    },
    {
      "inputs": [
        {
          "internalType": "bytes32",
          "name": "ROLE_TO_SYNC",
          "type": "bytes32"
        }
      ],
      "name": "syncSingleRole",
      "outputs": [],
      "stateMutability": "nonpayable",
      "type": "function"
    },
    {
      "inputs": [],
      "name": "syncVotes",
      "outputs": [],
      "stateMutability": "nonpayable",
      "type": "function"
    },
    {
      "inputs": [
        {
          "internalType": "uint256",
          "name": "index",
          "type": "uint256"
        }
      ],
      "name": "tokenByIndex",
      "outputs": [
        {
          "internalType": "uint256",
          "name": "",
          "type": "uint256"
        }
      ],
      "stateMutability": "view",
      "type": "function"
    },
    {
      "inputs": [
        {
          "internalType": "address",
          "name": "owner",
          "type": "address"
        },
        {
          "internalType": "uint256",
          "name": "index",
          "type": "uint256"
        }
      ],
      "name": "tokenOfOwnerByIndex",
      "outputs": [
        {
          "internalType": "uint256",
          "name": "",
          "type": "uint256"
        }
      ],
      "stateMutability": "view",
      "type": "function"
    },
    {
      "inputs": [
        {
          "internalType": "uint256",
          "name": "_tokenId",
          "type": "uint256"
        }
      ],
      "name": "tokenURI",
      "outputs": [
        {
          "internalType": "string",
          "name": "_URI",
          "type": "string"
        }
      ],
      "stateMutability": "view",
      "type": "function"
    },
    {
      "inputs": [],
      "name": "totalSupply",
      "outputs": [
        {
          "internalType": "uint256",
          "name": "",
          "type": "uint256"
        }
      ],
      "stateMutability": "view",
      "type": "function"
    },
    {
      "inputs": [
        {
          "internalType": "address",
          "name": "from",
          "type": "address"
        },
        {
          "internalType": "address",
          "name": "to",
          "type": "address"
        },
        {
          "internalType": "uint256",
          "name": "tokenId",
          "type": "uint256"
        }
      ],
      "name": "transferFrom",
      "outputs": [],
      "stateMutability": "nonpayable",
      "type": "function"
    },
    {
      "inputs": [],
      "name": "unpause",
      "outputs": [],
      "stateMutability": "nonpayable",
      "type": "function"
    },
    {
      "inputs": [],
      "name": "updateAddressManager",
      "outputs": [],
      "stateMutability": "nonpayable",
      "type": "function"
    },
    {
      "inputs": [],
      "name": "updateAllAddresses",
      "outputs": [],
      "stateMutability": "nonpayable",
      "type": "function"
    },
    {
      "inputs": [],
      "name": "updateAllRoles",
      "outputs": [],
      "stateMutability": "nonpayable",
      "type": "function"
    },
    {
      "inputs": [],
      "name": "updateDAOAddresses",
      "outputs": [],
      "stateMutability": "nonpayable",
      "type": "function"
    },
    {
      "inputs": [
        {
          "internalType": "bytes32",
          "name": "ROLE_TO_UPDATE",
          "type": "bytes32"
        }
      ],
      "name": "updateSingleRole",
      "outputs": [],
      "stateMutability": "nonpayable",
      "type": "function"
    },
    {
      "inputs": [],
      "name": "updateTokenAddresses",
      "outputs": [],
      "stateMutability": "nonpayable",
      "type": "function"
    },
    {
      "inputs": [
        {
          "internalType": "address",
          "name": "receivingAddress",
          "type": "address"
        },
        {
          "internalType": "string",
          "name": "_reason",
          "type": "string"
        }
      ],
      "name": "issueBadge",
      "outputs": [
        {
          "internalType": "uint256",
          "name": "newId",
          "type": "uint256"
        }
      ],
      "stateMutability": "nonpayable",
      "type": "function"
    },
    {
      "inputs": [
        {
          "internalType": "address",
          "name": "receivingAddress",
          "type": "address"
        },
        {
          "internalType": "string",
          "name": "_reason",
          "type": "string"
        },
        {
          "internalType": "string",
          "name": "_tokenURI",
          "type": "string"
        }
      ],
      "name": "issueBadge",
      "outputs": [
        {
          "internalType": "uint256",
          "name": "newId",
          "type": "uint256"
        }
      ],
      "stateMutability": "nonpayable",
      "type": "function"
    },
    {
      "inputs": [
        {
          "internalType": "uint256",
          "name": "costInWei",
          "type": "uint256"
        }
      ],
      "name": "setMintingCost",
      "outputs": [
        {
          "internalType": "bool",
          "name": "",
          "type": "bool"
        }
      ],
      "stateMutability": "nonpayable",
      "type": "function"
    },
    {
      "inputs": [
        {
          "internalType": "uint256",
          "name": "costFloorInWei",
          "type": "uint256"
        }
      ],
      "name": "setMintingCostFloor",
      "outputs": [
        {
          "internalType": "bool",
          "name": "",
          "type": "bool"
        }
      ],
      "stateMutability": "nonpayable",
      "type": "function"
    },
    {
      "inputs": [],
      "name": "updatePaymentToken",
      "outputs": [],
      "stateMutability": "nonpayable",
      "type": "function"
    }
  ],
  "bytecode": "0x6000805460ff1990811682556011805463ffffffff60a01b19169055601e91909155601f80549091169055636970667360e01b60a0908152601d60f91b60a452602f60f81b60a581905260a6526007608081905260a7604052620000669160229162000cab565b506729a2241af62c000060255567016345785d8a0000602655600554602780546001600160a01b0319166001600160a01b03909216919091179055348015620000ae57600080fd5b5060405162005f1638038062005f16833981016040819052620000d19162000e6e565b600380546001600160a01b0383166001600160a01b031991821681179092556011805490911690911790558282828282826200010c620002d4565b62000116620002ea565b600f5462000130906000906001600160a01b031662000435565b600f5462000169907f0538d24a8b7882d7b2e36af243d4af61c23e86e3daa6cb8c887b53220b2f5720906001600160a01b031662000435565b600c54620001a2907f048bc71fa1cb2c119c339cf9cf00a97996a19a9d991ce5fe049f2fa5459e7990906001600160a01b031662000435565b600d54620001db907ffa8e4989e1d689f7bc5c4b25b87efb51fecdecb19ba62847e29c759e12a89acd906001600160a01b031662000435565b60105462000214907ff0f4b159a6e2a4815eb3ca3df080bfa70c9270662c59bcaa4479a456220183e6906001600160a01b031662000435565b620002417f7c9d7f6f02908185bffb3f7fc9afb29fd7bf93675af8fd4b655ee05c2cee1e0e600062000435565b5081516200025790601290602085019062000cab565b5080516200026d90601390602084019062000cab565b50506018805460ff191690555081516200028e906020908185019062000cab565b508251620002a490602190602086019062000cab565b5050600554602780546001600160a01b0319166001600160a01b039092169190911790555062000f3d9350505050565b620002de62000478565b620002e862000778565b565b601160009054906101000a90046001600160a01b03166001600160a01b031663ff7e88ec6040518163ffffffff1660e01b815260040160206040518083038186803b1580156200033957600080fd5b505afa1580156200034e573d6000803e3d6000fd5b505050506040513d601f19601f8201168201806040525081019062000374919062000e43565b601160156101000a81548160ff021916908315150217905550601160009054906101000a90046001600160a01b03166001600160a01b0316632fb565856040518163ffffffff1660e01b815260040160206040518083038186803b158015620003dc57600080fd5b505afa158015620003f1573d6000803e3d6000fd5b505050506040513d601f19601f8201168201806040525081019062000417919062000e43565b60118054911515600160b01b0260ff60b01b19909216919091179055565b6200044c828262000ba160201b62001ddc1760201c565b60008281526002602090815260409091206200047391839062001de662000bb1821b17901c565b505050565b601160009054906101000a90046001600160a01b03166001600160a01b031663dadf56ac6040518163ffffffff1660e01b815260040160206040518083038186803b158015620004c757600080fd5b505afa158015620004dc573d6000803e3d6000fd5b505050506040513d601f19601f8201168201806040525081019062000502919062000e25565b600c80546001600160a01b0319166001600160a01b039283161790556011546040805163024bebe960e01b81529051919092169163024bebe9916004808301926020929190829003018186803b1580156200055c57600080fd5b505afa15801562000571573d6000803e3d6000fd5b505050506040513d601f19601f8201168201806040525081019062000597919062000e25565b600d80546001600160a01b0319166001600160a01b0392831617905560115460408051635b5c251f60e01b815290519190921691635b5c251f916004808301926020929190829003018186803b158015620005f157600080fd5b505afa15801562000606573d6000803e3d6000fd5b505050506040513d601f19601f820116820180604052508101906200062c919062000e25565b600e80546001600160a01b0319166001600160a01b0392831617905560115460408051637310bf1d60e11b81529051919092169163e6217e3a916004808301926020929190829003018186803b1580156200068657600080fd5b505afa1580156200069b573d6000803e3d6000fd5b505050506040513d601f19601f82011682018060405250810190620006c1919062000e25565b601080546001600160a01b0319166001600160a01b039283161790556011546040805163d88127a160e01b81529051919092169163d88127a1916004808301926020929190829003018186803b1580156200071b57600080fd5b505afa15801562000730573d6000803e3d6000fd5b505050506040513d601f19601f8201168201806040525081019062000756919062000e25565b600b80546001600160a01b0319166001600160a01b0392909216919091179055565b601160009054906101000a90046001600160a01b03166001600160a01b03166321d7f0086040518163ffffffff1660e01b815260040160206040518083038186803b158015620007c757600080fd5b505afa158015620007dc573d6000803e3d6000fd5b505050506040513d601f19601f8201168201806040525081019062000802919062000e25565b600480546001600160a01b0319166001600160a01b039283161781556011546040805163762ddb5960e01b81529051919093169263762ddb599281810192602092909190829003018186803b1580156200085b57600080fd5b505afa15801562000870573d6000803e3d6000fd5b505050506040513d601f19601f8201168201806040525081019062000896919062000e25565b600580546001600160a01b0319166001600160a01b039283161790556011546040805163bfb7dc9960e01b81529051919092169163bfb7dc99916004808301926020929190829003018186803b158015620008f057600080fd5b505afa15801562000905573d6000803e3d6000fd5b505050506040513d601f19601f820116820180604052508101906200092b919062000e25565b600680546001600160a01b0319166001600160a01b0392831617905560115460408051633e6111eb60e21b81529051919092169163f98447ac916004808301926020929190829003018186803b1580156200098557600080fd5b505afa1580156200099a573d6000803e3d6000fd5b505050506040513d601f19601f82011682018060405250810190620009c0919062000e25565b600780546001600160a01b0319166001600160a01b0392831617905560115460408051630fe1ba9f60e21b815290519190921691633f86ea7c916004808301926020929190829003018186803b15801562000a1a57600080fd5b505afa15801562000a2f573d6000803e3d6000fd5b505050506040513d601f19601f8201168201806040525081019062000a55919062000e25565b600880546001600160a01b0319166001600160a01b0392831617905560115460408051632b90024160e11b8152905191909216916357200482916004808301926020929190829003018186803b15801562000aaf57600080fd5b505afa15801562000ac4573d6000803e3d6000fd5b505050506040513d601f19601f8201168201806040525081019062000aea919062000e25565b600980546001600160a01b0319166001600160a01b0392831617905560115460408051636b58477560e01b815290519190921691636b584775916004808301926020929190829003018186803b15801562000b4457600080fd5b505afa15801562000b59573d6000803e3d6000fd5b505050506040513d601f19601f8201168201806040525081019062000b7f919062000e25565b600a80546001600160a01b0319166001600160a01b0392909216919091179055565b62000bad828262000bd1565b5050565b600062000bc8836001600160a01b03841662000c59565b90505b92915050565b60008281526001602090815260408083206001600160a01b038516845290915290205460ff1662000bad5760008281526001602081815260408084206001600160a01b0386168086529252808420805460ff19169093179092559051339285917f2f8788117e7eff1d82e926ec794901d17c78024a50270940304540a733656f0d9190a45050565b600081815260018301602052604081205462000ca25750815460018181018455600084815260208082209093018490558454848252828601909352604090209190915562000bcb565b50600062000bcb565b82805462000cb99062000eea565b90600052602060002090601f01602090048101928262000cdd576000855562000d28565b82601f1062000cf857805160ff191683800117855562000d28565b8280016001018555821562000d28579182015b8281111562000d2857825182559160200191906001019062000d0b565b5062000d3692915062000d3a565b5090565b5b8082111562000d36576000815560010162000d3b565b80516001600160a01b038116811462000d6957600080fd5b919050565b600082601f83011262000d8057600080fd5b81516001600160401b038082111562000d9d5762000d9d62000f27565b604051601f8301601f19908116603f0116810190828211818310171562000dc85762000dc862000f27565b8160405283815260209250868385880101111562000de557600080fd5b600091505b8382101562000e09578582018301518183018401529082019062000dea565b8382111562000e1b5760008385830101525b9695505050505050565b60006020828403121562000e3857600080fd5b62000bc88262000d51565b60006020828403121562000e5657600080fd5b8151801515811462000e6757600080fd5b9392505050565b60008060006060848603121562000e8457600080fd5b83516001600160401b038082111562000e9c57600080fd5b62000eaa8783880162000d6e565b9450602086015191508082111562000ec157600080fd5b5062000ed08682870162000d6e565b92505062000ee16040850162000d51565b90509250925092565b600181811c9082168062000eff57607f821691505b6020821081141562000f2157634e487b7160e01b600052602260045260246000fd5b50919050565b634e487b7160e01b600052604160045260246000fd5b614fc98062000f4d6000396000f3fe608060405234801561001057600080fd5b50600436106104a15760003560e01c80636c353e341161026d578063c87b56dd11610151578063e78c266c116100ce578063f1132b3011610092578063f1132b3014610a23578063f259a29e14610a2b578063f7d92d8614610a33578063f98447ac14610a3b578063f98db25314610a4e578063ff7e88ec14610a6157600080fd5b8063e78c266c146109cc578063e985e9c5146109df578063e9a53230146109f2578063ebf98abf14610a07578063ee0b4c3514610a1057600080fd5b8063d88127a111610115578063d88127a114610978578063dadf56ac1461098b578063de2cff031461099e578063dea6f9c8146109b1578063e6217e3a146109b957600080fd5b8063c87b56dd14610915578063ca15c87314610928578063cce843921461093b578063cf4ece1514610950578063d547741f1461096557600080fd5b806395d89b41116101ea578063a32c5e59116101ae578063a32c5e5914610892578063a78e746f146108a7578063b88d4fde146108bb578063bfb7dc99146108ce578063c04e17e3146108e1578063c62b28e81461090257600080fd5b806395d89b411461084f57806396ac6bf0146108575780639ac3eaa71461086a578063a217fddf14610877578063a22cb4651461087f57600080fd5b8063765160781161023157806376516078146107fb578063794ccf6c1461080e5780638456cb59146108215780639010d07c1461082957806391d148541461083c57600080fd5b80636c353e341461079c57806370a08231146107a457806373c89822146107b757806375794a3c146107e0578063762ddb59146107e857600080fd5b806336568abe1161039457806357f276ff116103115780635f413466116102d55780635f41346614610728578063610c30091461073b5780636352211e1461074357806363ebc6771461075657806367a14f06146107765780636b5847751461078957600080fd5b806357f276ff146106dc57806359e6f787146106ef5780635b5c251f146107025780635c975abb146107155780635db531a11461072057600080fd5b806349b5e1051161035857806349b5e105146106935780634d84c6d81461069b5780634f6ccce7146106a357806355f804b3146106b657806357200482146106c957600080fd5b806336568abe1461063f5780633ab76e9f146106525780633f4ba83a146106655780633f86ea7c1461066d57806342842e0e1461068057600080fd5b806321d7f008116104225780632f2ff15d116103e65780632f2ff15d146105f55780632f745c59146106085780632fb565851461061b578063326a55e01461062f578063329a8cfa1461063757600080fd5b806321d7f0081461058357806323b872dd146105965780632436329d146105a9578063248a9ca3146105be57806329e63f35146105e257600080fd5b80630ad17f8f116104695780630ad17f8f1461053657806310a83fcb14610557578063130f63201461056057806317314d5a1461057357806318160ddd1461057b57600080fd5b806301ffc9a7146104a6578063024bebe9146104ce57806306fdde03146104f9578063081812fc1461050e578063095ea7b314610521575b600080fd5b6104b96104b4366004614a0d565b610a75565b60405190151581526020015b60405180910390f35b600d546104e1906001600160a01b031681565b6040516001600160a01b0390911681526020016104c5565b610501610a86565b6040516104c59190614c0a565b6104e161051c3660046149ad565b610b18565b61053461052f366004614947565b610ba5565b005b610549610544366004614947565b610cbb565b6040519081526020016104c5565b61054960265481565b61053461056e3660046149ad565b610cec565b610534610d21565b601c54610549565b6004546104e1906001600160a01b031681565b6105346105a4366004614792565b610d4a565b610549600080516020614ef483398151915281565b6105496105cc3660046149ad565b6000908152600160208190526040909120015490565b6104b96105f03660046149ad565b610d7b565b6105346106033660046149c6565b610e5f565b610549610616366004614947565b610e81565b6011546104b990600160b01b900460ff1681565b610534610f17565b610534610f27565b61053461064d3660046149c6565b611007565b6011546104e1906001600160a01b031681565b610534611029565b6008546104e1906001600160a01b031681565b61053461068e366004614792565b6110bb565b6105346110ec565b610534610f1f565b6105496106b13660046149ad565b6110f4565b6104b96106c4366004614a47565b611187565b6009546104e1906001600160a01b031681565b6105346106ea3660046149ad565b611202565b6104b96106fd366004614947565b611216565b600e546104e1906001600160a01b031681565b60185460ff166104b9565b610534611248565b600f546104e1906001600160a01b031681565b610501611250565b6104e16107513660046149ad565b6112de565b61076961076436600461471f565b611355565b6040516104c59190614bc6565b6027546104e1906001600160a01b031681565b600a546104e1906001600160a01b031681565b6105346113c1565b6105496107b236600461471f565b6113ed565b6104e16107c53660046149ad565b6000908152602360205260409020546001600160a01b031690565b601e54610549565b6005546104e1906001600160a01b031681565b6104b9610809366004614973565b611474565b61054961081c366004614881565b61156b565b61053461175e565b6104e16108373660046149eb565b6117e0565b6104b961084a3660046149c6565b6117ff565b61050161182a565b6104b96108653660046149ad565b611839565b601f546104b99060ff1681565b610549600081565b61053461088d366004614853565b611945565b610549600080516020614f5483398151915281565b6011546104b990600160a01b900460ff1681565b6105346108c93660046147d3565b6119c3565b6006546104e1906001600160a01b031681565b6108f46108ef3660046149ad565b6119fb565b6040516104c5929190614ba2565b6105346109103660046149ad565b611aaa565b6105016109233660046149ad565b611afb565b6105496109363660046149ad565b611b06565b610549600080516020614f7483398151915281565b610549600080516020614f3483398151915281565b6105346109733660046149c6565b611b1d565b600b546104e1906001600160a01b031681565b600c546104e1906001600160a01b031681565b6105496109ac3660046148d1565b611b27565b610501611b3c565b6010546104e1906001600160a01b031681565b6003546104e1906001600160a01b031681565b6104b96109ed366004614759565b611b49565b610549600080516020614f1483398151915281565b61054960255481565b6104b9610a1e3660046149ad565b611ba0565b610534611c8c565b610501611c94565b610534611ca1565b6007546104e1906001600160a01b031681565b610501610a5c3660046149ad565b611d41565b6011546104b990600160a81b900460ff1681565b6000610a8082611dfb565b92915050565b606060128054610a9590614de2565b80601f0160208091040260200160405190810160405280929190818152602001828054610ac190614de2565b8015610b0e5780601f10610ae357610100808354040283529160200191610b0e565b820191906000526020600020905b815481529060010190602001808311610af157829003601f168201915b5050505050905090565b6000610b2382611e20565b610b895760405162461bcd60e51b815260206004820152602c60248201527f4552433732313a20617070726f76656420717565727920666f72206e6f6e657860448201526b34b9ba32b73a103a37b5b2b760a11b60648201526084015b60405180910390fd5b506000908152601660205260409020546001600160a01b031690565b6000610bb0826112de565b9050806001600160a01b0316836001600160a01b03161415610c1e5760405162461bcd60e51b815260206004820152602160248201527f4552433732313a20617070726f76616c20746f2063757272656e74206f776e656044820152603960f91b6064820152608401610b80565b336001600160a01b0382161480610c3a5750610c3a8133611b49565b610cac5760405162461bcd60e51b815260206004820152603860248201527f4552433732313a20617070726f76652063616c6c6572206973206e6f74206f7760448201527f6e6572206e6f7220617070726f76656420666f7220616c6c00000000000000006064820152608401610b80565b610cb68383611e3d565b505050565b60246020528160005260406000208181548110610cd757600080fd5b90600052602060002001600091509150505481565b610cf66001611e64565b50610d0081611f16565b50610d0a81612091565b50610d156000611e64565b610d1e57600080fd5b50565b610d2b6001611e64565b50610d3461221a565b50610d3f6000611e64565b610d4857600080fd5b565b610d543382612360565b610d705760405162461bcd60e51b8152600401610b8090614c9f565b610cb6838383612409565b6000610d95600080516020614f54833981519152336117ff565b80610db35750610db3600080516020614f14833981519152336117ff565b80610dd15750610dd1600080516020614ef4833981519152336117ff565b610ded5760405162461bcd60e51b8152600401610b8090614c1d565b6026548210610e4a5760405162461bcd60e51b8152602060048201526024808201527f536f7272792120596f752063616e206f6e6c79206c6f7765722074686520666c6044820152636f6f722160e01b6064820152608401610b80565b610e5682602655600190565b50600192915050565b610e69828261243a565b6000828152600260205260409020610cb69082611de6565b6000610e8c836113ed565b8210610eee5760405162461bcd60e51b815260206004820152602b60248201527f455243373231456e756d657261626c653a206f776e657220696e646578206f7560448201526a74206f6620626f756e647360a81b6064820152608401610b80565b506001600160a01b03919091166000908152601a60209081526040808320938352929052205490565b610f1f612474565b610d48612760565b610f3f600080516020614f54833981519152336117ff565b80610f5d5750610f5d600080516020614f14833981519152336117ff565b80610f7b5750610f7b600080516020614ef4833981519152336117ff565b610f975760405162461bcd60e51b8152600401610b8090614c1d565b601160009054906101000a90046001600160a01b03166001600160a01b031663329a8cfa6040518163ffffffff1660e01b8152600401600060405180830381600087803b158015610fe757600080fd5b505af1158015610ffb573d6000803e3d6000fd5b50505050610d48611248565b6110118282612b6d565b6000828152600260205260409020610cb69082612be7565b611041600080516020614f14833981519152336117ff565b8061105f575061105f600080516020614f54833981519152336117ff565b6110a35760405162461bcd60e51b8152602060048201526015602482015274596f75277265206e6f742074686520476176656c7360581b6044820152606401610b80565b601f5460ff16156110b357600080fd5b610d48612bfc565b6110c53382612360565b6110e15760405162461bcd60e51b8152600401610b8090614c9f565b610cb6838383612c8f565b610d48612474565b60006110ff601c5490565b82106111625760405162461bcd60e51b815260206004820152602c60248201527f455243373231456e756d657261626c653a20676c6f62616c20696e646578206f60448201526b7574206f6620626f756e647360a01b6064820152608401610b80565b601c828154811061117557611175614e8e565b90600052602060002001549050919050565b60006111a1600080516020614f54833981519152336117ff565b806111bf57506111bf600080516020614f14833981519152336117ff565b806111dd57506111dd600080516020614ef4833981519152336117ff565b6111f95760405162461bcd60e51b8152600401610b8090614c1d565b610e5682612caa565b61120c6001611e64565b50610d0a81612cc0565b6000818152602360205260408120546001600160a01b038481169116141561124057506001610a80565b506000610a80565b610d48612f1b565b6021805461125d90614de2565b80601f016020809104026020016040519081016040528092919081815260200182805461128990614de2565b80156112d65780601f106112ab576101008083540402835291602001916112d6565b820191906000526020600020905b8154815290600101906020018083116112b957829003601f168201915b505050505081565b6000818152601460205260408120546001600160a01b031680610a805760405162461bcd60e51b815260206004820152602960248201527f4552433732313a206f776e657220717565727920666f72206e6f6e657869737460448201526832b73a103a37b5b2b760b91b6064820152608401610b80565b6001600160a01b0381166000908152602460209081526040918290208054835181840281018401909452808452606093928301828280156113b557602002820191906000526020600020905b8154815260200190600101908083116113a1575b50505050509050919050565b6113c9612760565b600554602780546001600160a01b0319166001600160a01b03909216919091179055565b60006001600160a01b0382166114585760405162461bcd60e51b815260206004820152602a60248201527f4552433732313a2062616c616e636520717565727920666f7220746865207a65604482015269726f206164647265737360b01b6064820152608401610b80565b506001600160a01b031660009081526015602052604090205490565b600061148e600080516020614f14833981519152336117ff565b806114ac57506114ac600080516020614ef4833981519152336117ff565b806114ca57506114ca600080516020614f54833981519152336117ff565b6114d357600080fd5b601154600160b01b810460ff9081161515600160a81b90920416151514600114806115115750611511600080516020614f54833981519152336117ff565b6115505760405162461bcd60e51b815260206004820152601060248201526f436f757274204d75737420416772656560801b6044820152606401610b80565b6001821515141561156357610e5661305e565b506000919050565b6025546027546040516370a0823160e01b8152306004820152600092859284926001600160a01b03909116906370a082319060240160206040518083038186803b1580156115b857600080fd5b505afa1580156115cc573d6000803e3d6000fd5b505050506040513d601f19601f820116820180604052508101906115f09190614a7c565b6115fa9190614d3d565b6027546025546040516323b872dd60e01b815233600482015230602482015260448101919091529192506001600160a01b0316906323b872dd90606401602060405180830381600087803b15801561165157600080fd5b505af1158015611665573d6000803e3d6000fd5b505050506040513d601f19601f820116820180604052508101906116899190614990565b506027546040516370a0823160e01b815230600482015282916001600160a01b0316906370a082319060240160206040518083038186803b1580156116cd57600080fd5b505afa1580156116e1573d6000803e3d6000fd5b505050506040513d601f19601f820116820180604052508101906117059190614a7c565b1461174b5760405162461bcd60e51b8152602060048201526016602482015275115c9c9bdc88151c985b9cd9995c9a5b99c80854915160521b6044820152606401610b80565b61175585856130a1565b95945050505050565b611776600080516020614f14833981519152336117ff565b806117945750611794600080516020614f54833981519152336117ff565b6117d85760405162461bcd60e51b8152602060048201526015602482015274596f75277265206e6f742074686520476176656c7360581b6044820152606401610b80565b610d48613104565b60008281526002602052604081206117f8908361317f565b9392505050565b60009182526001602090815260408084206001600160a01b0393909316845291905290205460ff1690565b606060138054610a9590614de2565b6000611853600080516020614f14833981519152336117ff565b806118715750611871600080516020614ef4833981519152336117ff565b8061188f575061188f600080516020614f54833981519152336117ff565b61189857600080fd5b601154600160b01b810460ff9081161515600160a81b90920416151514600114806118d657506118d6600080516020614f54833981519152336117ff565b6119155760405162461bcd60e51b815260206004820152601060248201526f436f757274204d75737420416772656560801b6044820152606401610b80565b81604514156115635761192661305e565b5061192f613104565b50601f805460ff19166001908117909155919050565b61195d600080516020614f54833981519152336117ff565b8061197b575061197b600080516020614f14833981519152336117ff565b806119995750611999600080516020614ef4833981519152336117ff565b6119b55760405162461bcd60e51b8152600401610b8090614c9f565b6119bf828261318b565b5050565b6119cd3383612360565b6119e95760405162461bcd60e51b8152600401610b8090614cec565b6119f584848484613250565b50505050565b602360205260009081526040902080546001820180546001600160a01b039092169291611a2790614de2565b80601f0160208091040260200160405190810160405280929190818152602001828054611a5390614de2565b8015611aa05780601f10611a7557610100808354040283529160200191611aa0565b820191906000526020600020905b815481529060010190602001808311611a8357829003601f168201915b5050505050905082565b611ab43382612360565b611af25760405162461bcd60e51b815260206004820152600f60248201526e4e696365205472792c204275636b6f60881b6044820152606401610b80565b610d1e81613283565b6060610a808261328c565b6000818152600260205260408120610a80906133ee565b61101182826133f8565b6000611b34848484613432565b949350505050565b6020805461125d90614de2565b600080611b64600080516020614f54833981519152846117ff565b80611b825750611b82600080516020614f14833981519152846117ff565b80611b345750611b34600080516020614ef4833981519152846117ff565b6000611bba600080516020614ef4833981519152336117ff565b80611bd85750611bd8600080516020614f54833981519152336117ff565b611c1a5760405162461bcd60e51b8152602060048201526013602482015272596f75277265206e6f7420746865204a75727960681b6044820152606401610b80565b602654821015611c805760405162461bcd60e51b815260206004820152602b60248201527f536f7272792120436f7374206d7573742062652067726561746572207468616e60448201526a10181718902932b22832b760a91b6064820152608401610b80565b610e5682602555600190565b610d486134a0565b6022805461125d90614de2565b611cab6001611e64565b50611cc3600080516020614f54833981519152612cc0565b50611cdb600080516020614f14833981519152612cc0565b50611cf3600080516020614ef4833981519152612cc0565b50611d0b600080516020614f34833981519152612cc0565b50611d23600080516020614f74833981519152612cc0565b50611d2e6000612cc0565b50611d37612f1b565b610d3f6000611e64565b6000818152602360205260409020600101805460609190611d6190614de2565b80601f0160208091040260200160405190810160405280929190818152602001828054611d8d90614de2565b80156113b55780601f10611daf576101008083540402835291602001916113b5565b820191906000526020600020905b815481529060010190602001808311611dbd5750939695505050505050565b6119bf82826135d7565b60006117f8836001600160a01b038416613642565b60006001600160e01b0319821663780e9d6360e01b1480610a805750610a8082613689565b6000908152601460205260409020546001600160a01b0316151590565b611e55600080516020614f54833981519152336117ff565b156119bf576119bf82826136c9565b6000805460ff168215158115151415611ebf5760405162461bcd60e51b815260206004820152601960248201527f416c72656164792053657420746f20746861742076616c7565000000000000006044820152606401610b80565b6000805484151560ff19909116811790915560ff1615158115151415610e565760405162461bcd60e51b815260206004820152600c60248201526b29b0b33a32bc9022b93937b960a11b6044820152606401610b80565b60405163ca15c87360e01b8152600481018290526000908190309063ca15c8739060240160206040518083038186803b158015611f5257600080fd5b505afa158015611f66573d6000803e3d6000fd5b505050506040513d601f19601f82011682018060405250810190611f8a9190614a7c565b905060005b8181101561208757604051632404341f60e21b815260048101859052602481018290526000903090639010d07c9060440160206040518083038186803b158015611fd857600080fd5b505afa158015611fec573d6000803e3d6000fd5b505050506040513d601f19601f82011682018060405250810190612010919061473c565b60405163d547741f60e01b8152600481018790526001600160a01b0382166024820152909150309063d547741f90604401600060405180830381600087803b15801561205b57600080fd5b505af115801561206f573d6000803e3d6000fd5b5050505050808061207f90614e1d565b915050611f8f565b5060019392505050565b60115460405163ca15c87360e01b81526004810183905260009182916001600160a01b039091169063ca15c8739060240160206040518083038186803b1580156120da57600080fd5b505afa1580156120ee573d6000803e3d6000fd5b505050506040513d601f19601f820116820180604052508101906121129190614a7c565b905060005b8181101561208757601154604051632404341f60e21b815260048101869052602481018390526000916001600160a01b031690639010d07c9060440160206040518083038186803b15801561216b57600080fd5b505afa15801561217f573d6000803e3d6000fd5b505050506040513d601f19601f820116820180604052508101906121a3919061473c565b604051632f2ff15d60e01b8152600481018790526001600160a01b03821660248201529091503090632f2ff15d90604401600060405180830381600087803b1580156121ee57600080fd5b505af1158015612202573d6000803e3d6000fd5b5050505050808061221290614e1d565b915050612117565b6000612233600080516020614f54833981519152611f16565b5061224b600080516020614f54833981519152612091565b61225457600080fd5b61226b600080516020614f14833981519152611f16565b50612283600080516020614f14833981519152612091565b61228c57600080fd5b6122a3600080516020614ef4833981519152611f16565b506122bb600080516020614ef4833981519152612091565b6122c457600080fd5b6122db600080516020614f34833981519152611f16565b506122f3600080516020614f34833981519152612091565b6122fc57600080fd5b612313600080516020614f74833981519152611f16565b5061232b600080516020614f74833981519152612091565b61233457600080fd5b61233e6000611f16565b506123496000612091565b61235257600080fd5b61235a612f1b565b50600190565b600061236b82611e20565b6123cc5760405162461bcd60e51b815260206004820152602c60248201527f4552433732313a206f70657261746f7220717565727920666f72206e6f6e657860448201526b34b9ba32b73a103a37b5b2b760a11b6064820152608401610b80565b60006123d7836112de565b6000848152602360205260409020549091506001600160a01b0390811690851681148061175557506117558286611b49565b6124133382612360565b61242f5760405162461bcd60e51b8152600401610b8090614cec565b610cb6838383613737565b600082815260016020819052604082200154905460ff161561246057610cb683836135d7565b61246a81336138e2565b610cb683836135d7565b601160009054906101000a90046001600160a01b03166001600160a01b031663dadf56ac6040518163ffffffff1660e01b815260040160206040518083038186803b1580156124c257600080fd5b505afa1580156124d6573d6000803e3d6000fd5b505050506040513d601f19601f820116820180604052508101906124fa919061473c565b600c80546001600160a01b0319166001600160a01b039283161790556011546040805163024bebe960e01b81529051919092169163024bebe9916004808301926020929190829003018186803b15801561255357600080fd5b505afa158015612567573d6000803e3d6000fd5b505050506040513d601f19601f8201168201806040525081019061258b919061473c565b600d80546001600160a01b0319166001600160a01b0392831617905560115460408051635b5c251f60e01b815290519190921691635b5c251f916004808301926020929190829003018186803b1580156125e457600080fd5b505afa1580156125f8573d6000803e3d6000fd5b505050506040513d601f19601f8201168201806040525081019061261c919061473c565b600e80546001600160a01b0319166001600160a01b0392831617905560115460408051637310bf1d60e11b81529051919092169163e6217e3a916004808301926020929190829003018186803b15801561267557600080fd5b505afa158015612689573d6000803e3d6000fd5b505050506040513d601f19601f820116820180604052508101906126ad919061473c565b601080546001600160a01b0319166001600160a01b039283161790556011546040805163d88127a160e01b81529051919092169163d88127a1916004808301926020929190829003018186803b15801561270657600080fd5b505afa15801561271a573d6000803e3d6000fd5b505050506040513d601f19601f8201168201806040525081019061273e919061473c565b600b80546001600160a01b0319166001600160a01b0392909216919091179055565b601160009054906101000a90046001600160a01b03166001600160a01b03166321d7f0086040518163ffffffff1660e01b815260040160206040518083038186803b1580156127ae57600080fd5b505afa1580156127c2573d6000803e3d6000fd5b505050506040513d601f19601f820116820180604052508101906127e6919061473c565b600480546001600160a01b0319166001600160a01b039283161781556011546040805163762ddb5960e01b81529051919093169263762ddb599281810192602092909190829003018186803b15801561283e57600080fd5b505afa158015612852573d6000803e3d6000fd5b505050506040513d601f19601f82011682018060405250810190612876919061473c565b600580546001600160a01b0319166001600160a01b039283161790556011546040805163bfb7dc9960e01b81529051919092169163bfb7dc99916004808301926020929190829003018186803b1580156128cf57600080fd5b505afa1580156128e3573d6000803e3d6000fd5b505050506040513d601f19601f82011682018060405250810190612907919061473c565b600680546001600160a01b0319166001600160a01b0392831617905560115460408051633e6111eb60e21b81529051919092169163f98447ac916004808301926020929190829003018186803b15801561296057600080fd5b505afa158015612974573d6000803e3d6000fd5b505050506040513d601f19601f82011682018060405250810190612998919061473c565b600780546001600160a01b0319166001600160a01b0392831617905560115460408051630fe1ba9f60e21b815290519190921691633f86ea7c916004808301926020929190829003018186803b1580156129f157600080fd5b505afa158015612a05573d6000803e3d6000fd5b505050506040513d601f19601f82011682018060405250810190612a29919061473c565b600880546001600160a01b0319166001600160a01b0392831617905560115460408051632b90024160e11b8152905191909216916357200482916004808301926020929190829003018186803b158015612a8257600080fd5b505afa158015612a96573d6000803e3d6000fd5b505050506040513d601f19601f82011682018060405250810190612aba919061473c565b600980546001600160a01b0319166001600160a01b0392831617905560115460408051636b58477560e01b815290519190921691636b584775916004808301926020929190829003018186803b158015612b1357600080fd5b505afa158015612b27573d6000803e3d6000fd5b505050506040513d601f19601f82011682018060405250810190612b4b919061473c565b600a80546001600160a01b0319166001600160a01b0392909216919091179055565b6001600160a01b0381163314612bdd5760405162461bcd60e51b815260206004820152602f60248201527f416363657373436f6e74726f6c3a2063616e206f6e6c792072656e6f756e636560448201526e103937b632b9903337b91039b2b63360891b6064820152608401610b80565b6119bf8282613946565b60006117f8836001600160a01b0384166139ad565b60185460ff16612c455760405162461bcd60e51b815260206004820152601460248201527314185d5cd8589b194e881b9bdd081c185d5cd95960621b6044820152606401610b80565b6018805460ff191690557f5db9ee0a495bf2e6ff9c91a7834c1ba4fdd244a5e8aa4e537bd38aeae4b073aa335b6040516001600160a01b03909116815260200160405180910390a1565b610cb6838383604051806020016040528060008152506119c3565b8051600090610e569060229060208501906145ba565b60115460405163ca15c87360e01b81526004810183905260009182916001600160a01b039091169063ca15c8739060240160206040518083038186803b158015612d0957600080fd5b505afa158015612d1d573d6000803e3d6000fd5b505050506040513d601f19601f82011682018060405250810190612d419190614a7c565b60405163ca15c87360e01b815260048101859052909150600090309063ca15c8739060240160206040518083038186803b158015612d7e57600080fd5b505afa158015612d92573d6000803e3d6000fd5b505050506040513d601f19601f82011682018060405250810190612db69190614a7c565b90506000612dc48284614d88565b905060008111612e095760405162461bcd60e51b815260206004820152601060248201526f4e6f7468696e6720746f2073796e632160801b6044820152606401610b80565b60005b81811015612f0f57601154604051632404341f60e21b815260048101889052602481018390526000916001600160a01b031690639010d07c9060440160206040518083038186803b158015612e6057600080fd5b505afa158015612e74573d6000803e3d6000fd5b505050506040513d601f19601f82011682018060405250810190612e98919061473c565b604051632f2ff15d60e01b8152600481018990526001600160a01b03821660248201529091503090632f2ff15d90604401600060405180830381600087803b158015612ee357600080fd5b505af1158015612ef7573d6000803e3d6000fd5b50505050508080612f0790614e1d565b915050612e0c565b50600195945050505050565b601160009054906101000a90046001600160a01b03166001600160a01b031663ff7e88ec6040518163ffffffff1660e01b815260040160206040518083038186803b158015612f6957600080fd5b505afa158015612f7d573d6000803e3d6000fd5b505050506040513d601f19601f82011682018060405250810190612fa19190614990565b601160156101000a81548160ff021916908315150217905550601160009054906101000a90046001600160a01b03166001600160a01b0316632fb565856040518163ffffffff1660e01b815260040160206040518083038186803b15801561300857600080fd5b505afa15801561301c573d6000803e3d6000fd5b505050506040513d601f19601f820116820180604052508101906130409190614990565b60118054911515600160b01b0260ff60b01b19909216919091179055565b6000805b601e548110156130955761307581611e20565b156130835761308381613283565b8061308d81614e1d565b915050613062565b50506000601e55600190565b60006001600160a01b03831633148015906130c457506001600160a01b03831615155b6130cd57600080fd5b50601e546130dc338383613a9a565b6130e68382613b09565b6001601e60008282546130f99190614d3d565b909155505092915050565b60185460ff161561314a5760405162461bcd60e51b815260206004820152601060248201526f14185d5cd8589b194e881c185d5cd95960821b6044820152606401610b80565b6018805460ff191660011790557f62e78cea01bee320cd4e420270b5ea74000d11b0c9f74754ebdbfc544b05a258612c723390565b60006117f88383613b23565b6001600160a01b0382163314156131e45760405162461bcd60e51b815260206004820152601960248201527f4552433732313a20617070726f766520746f2063616c6c6572000000000000006044820152606401610b80565b3360008181526017602090815260408083206001600160a01b03871680855290835292819020805460ff191686151590811790915590519081529192917f17307eab39ab6107e8899845ad3d59bd9653f200f220920489ca2b5937696c31910160405180910390a35050565b61325b848484613737565b61326784848484613ba9565b6119f55760405162461bcd60e51b8152600401610b8090614c4d565b610d1e81613cb6565b606061329782611e20565b6132fd5760405162461bcd60e51b815260206004820152603160248201527f45524337323155524953746f726167653a2055524920717565727920666f72206044820152703737b732bc34b9ba32b73a103a37b5b2b760791b6064820152608401610b80565b6000828152601960205260408120805461331690614de2565b80601f016020809104026020016040519081016040528092919081815260200182805461334290614de2565b801561338f5780601f106133645761010080835404028352916020019161338f565b820191906000526020600020905b81548152906001019060200180831161337257829003601f168201915b5050505050905060006133a0613cf6565b90508051600014156133b3575092915050565b8151156133e55780826040516020016133cd929190614ac1565b60405160208183030381529060405292505050919050565b611b3484613d05565b6000610a80825490565b600082815260016020819052604082200154905460ff161561341e57610cb68383613946565b61342881336138e2565b610cb68383613946565b60006001600160a01b038416331480159061345557506001600160a01b03841615155b61345e57600080fd5b50601e5461346d338483613a9a565b6134778482613b09565b6134818183613dcf565b6001601e60008282546134949190614d3d565b90915550509392505050565b601160009054906101000a90046001600160a01b03166001600160a01b031663a44b93256040518163ffffffff1660e01b815260040160206040518083038186803b1580156134ee57600080fd5b505afa158015613502573d6000803e3d6000fd5b505050506040513d601f19601f820116820180604052508101906135269190614990565b61352f57600080fd5b601160009054906101000a90046001600160a01b03166001600160a01b031663ac7cfac36040518163ffffffff1660e01b815260040160206040518083038186803b15801561357d57600080fd5b505afa158015613591573d6000803e3d6000fd5b505050506040513d601f19601f820116820180604052508101906135b5919061473c565b600380546001600160a01b0319166001600160a01b0392909216919091179055565b6135e182826117ff565b6119bf5760008281526001602081815260408084206001600160a01b0386168086529252808420805460ff19169093179092559051339285917f2f8788117e7eff1d82e926ec794901d17c78024a50270940304540a733656f0d9190a45050565b600081815260018301602052604081205461124057508154600181810184556000848152602080822090930184905584548482528286019093526040902091909155610a80565b60006001600160e01b031982166380ac58cd60e01b14806136ba57506001600160e01b03198216635b5e139f60e01b145b80610a805750610a8082613e5a565b600081815260166020526040902080546001600160a01b0319166001600160a01b03841690811790915581906136fe826112de565b6001600160a01b03167f8c5be1e5ebec7d5bd14f71427d1e84f3dd0314c0f7b2291e5b200ac8c7c3b92560405160405180910390a45050565b826001600160a01b031661374a826112de565b6001600160a01b0316146137b25760405162461bcd60e51b815260206004820152602960248201527f4552433732313a207472616e73666572206f6620746f6b656e2074686174206960448201526839903737ba1037bbb760b91b6064820152608401610b80565b6001600160a01b0382166138145760405162461bcd60e51b8152602060048201526024808201527f4552433732313a207472616e7366657220746f20746865207a65726f206164646044820152637265737360e01b6064820152608401610b80565b61381f838383613e7f565b61382a600082611e3d565b6001600160a01b0383166000908152601560205260408120805460019290613853908490614d88565b90915550506001600160a01b0382166000908152601560205260408120805460019290613881908490614d3d565b909155505060008181526014602052604080822080546001600160a01b0319166001600160a01b0386811691821790925591518493918716917fddf252ad1be2c89b69c2b068fc378daa952ba7f163c4a11628f55a4df523b3ef91a4505050565b6138ec82826117ff565b6119bf57613904816001600160a01b03166014613e8a565b61390f836020613e8a565b604051602001613920929190614af0565b60408051601f198184030181529082905262461bcd60e51b8252610b8091600401614c0a565b61395082826117ff565b156119bf5760008281526001602090815260408083206001600160a01b0385168085529252808320805460ff1916905551339285917ff6391f5c32d9c69d2a47ea670b442974b53935d1edc7fd64eb21e047a839171b9190a45050565b60008181526001830160205260408120548015613a905760006139d1600183614d88565b85549091506000906139e590600190614d88565b905060008660000182815481106139fe576139fe614e8e565b9060005260206000200154905080876000018481548110613a2157613a21614e8e565b600091825260208083209091019290925582815260018901909152604090208490558654879080613a5457613a54614e78565b60019003818190600052602060002001600090559055866001016000878152602001908152602001600020600090556001945050505050610a80565b6000915050610a80565b600081815260236020908152604090912080546001600160a01b0319166001600160a01b0386161781558351613ad8926001909201918501906145ba565b506001600160a01b039092166000908152602460209081526040822080546001810182559083529120019190915550565b6119bf828260405180602001604052806000815250614026565b81546000908210613b815760405162461bcd60e51b815260206004820152602260248201527f456e756d657261626c655365743a20696e646578206f7574206f6620626f756e604482015261647360f01b6064820152608401610b80565b826000018281548110613b9657613b96614e8e565b9060005260206000200154905092915050565b60006001600160a01b0384163b15613cab57604051630a85bd0160e11b81526001600160a01b0385169063150b7a0290613bed903390899088908890600401614b65565b602060405180830381600087803b158015613c0757600080fd5b505af1925050508015613c37575060408051601f3d908101601f19168201909252613c3491810190614a2a565b60015b613c91573d808015613c65576040519150601f19603f3d011682016040523d82523d6000602084013e613c6a565b606091505b508051613c895760405162461bcd60e51b8152600401610b8090614c4d565b805181602001fd5b6001600160e01b031916630a85bd0160e11b149050611b34565b506001949350505050565b613cbf81614059565b60008181526019602052604090208054613cd890614de2565b159050610d1e576000818152601960205260408120610d1e9161463e565b606060228054610a9590614de2565b6060613d1082611e20565b613d745760405162461bcd60e51b815260206004820152602f60248201527f4552433732314d657461646174613a2055524920717565727920666f72206e6f60448201526e3732bc34b9ba32b73a103a37b5b2b760891b6064820152608401610b80565b6000613d7e613cf6565b90506000815111613d9e57604051806020016040528060008152506117f8565b80613da884614100565b604051602001613db9929190614ac1565b6040516020818303038152906040529392505050565b613dd882611e20565b613e3b5760405162461bcd60e51b815260206004820152602e60248201527f45524337323155524953746f726167653a2055524920736574206f66206e6f6e60448201526d32bc34b9ba32b73a103a37b5b2b760911b6064820152608401610b80565b60008281526019602090815260409091208251610cb6928401906145ba565b60006001600160e01b03198216635a05180f60e01b1480610a805750610a80826141fe565b610cb6838383614233565b60606000613e99836002614d69565b613ea4906002614d3d565b67ffffffffffffffff811115613ebc57613ebc614ea4565b6040519080825280601f01601f191660200182016040528015613ee6576020820181803683370190505b509050600360fc1b81600081518110613f0157613f01614e8e565b60200101906001600160f81b031916908160001a905350600f60fb1b81600181518110613f3057613f30614e8e565b60200101906001600160f81b031916908160001a9053506000613f54846002614d69565b613f5f906001614d3d565b90505b6001811115613fd7576f181899199a1a9b1b9c1cb0b131b232b360811b85600f1660108110613f9357613f93614e8e565b1a60f81b828281518110613fa957613fa9614e8e565b60200101906001600160f81b031916908160001a90535060049490941c93613fd081614dcb565b9050613f62565b5083156117f85760405162461bcd60e51b815260206004820181905260248201527f537472696e67733a20686578206c656e67746820696e73756666696369656e746044820152606401610b80565b61403083836142eb565b61403d6000848484613ba9565b610cb65760405162461bcd60e51b8152600401610b8090614c4d565b6000614064826112de565b905061407281600084613e7f565b61407d600083611e3d565b6001600160a01b03811660009081526015602052604081208054600192906140a6908490614d88565b909155505060008281526014602052604080822080546001600160a01b0319169055518391906001600160a01b038416907fddf252ad1be2c89b69c2b068fc378daa952ba7f163c4a11628f55a4df523b3ef908390a45050565b6060816141245750506040805180820190915260018152600360fc1b602082015290565b8160005b811561414e578061413881614e1d565b91506141479050600a83614d55565b9150614128565b60008167ffffffffffffffff81111561416957614169614ea4565b6040519080825280601f01601f191660200182016040528015614193576020820181803683370190505b5090505b8415611b34576141a8600183614d88565b91506141b5600a86614e38565b6141c0906030614d3d565b60f81b8183815181106141d5576141d5614e8e565b60200101906001600160f81b031916908160001a9053506141f7600a86614d55565b9450614197565b60006001600160e01b03198216637965db0b60e01b1480610a8057506301ffc9a760e01b6001600160e01b0319831614610a80565b6001600160a01b03831661428e5761428981601c80546000838152601d60205260408120829055600182018355919091527f0e4562a10381dec21b205ed72637e6b1b523bdd0e4d4d50af5cd23dd4500a2110155565b6142b1565b816001600160a01b0316836001600160a01b0316146142b1576142b1838261442a565b6001600160a01b0382166142c857610cb6816144c7565b826001600160a01b0316826001600160a01b031614610cb657610cb68282614576565b6001600160a01b0382166143415760405162461bcd60e51b815260206004820181905260248201527f4552433732313a206d696e7420746f20746865207a65726f20616464726573736044820152606401610b80565b61434a81611e20565b156143975760405162461bcd60e51b815260206004820152601c60248201527f4552433732313a20746f6b656e20616c7265616479206d696e746564000000006044820152606401610b80565b6143a360008383613e7f565b6001600160a01b03821660009081526015602052604081208054600192906143cc908490614d3d565b909155505060008181526014602052604080822080546001600160a01b0319166001600160a01b03861690811790915590518392907fddf252ad1be2c89b69c2b068fc378daa952ba7f163c4a11628f55a4df523b3ef908290a45050565b60006001614437846113ed565b6144419190614d88565b6000838152601b6020526040902054909150808214614494576001600160a01b0384166000908152601a602090815260408083208584528252808320548484528184208190558352601b90915290208190555b506000918252601b602090815260408084208490556001600160a01b039094168352601a81528383209183525290812055565b601c546000906144d990600190614d88565b6000838152601d6020526040812054601c805493945090928490811061450157614501614e8e565b9060005260206000200154905080601c838154811061452257614522614e8e565b6000918252602080832090910192909255828152601d9091526040808220849055858252812055601c80548061455a5761455a614e78565b6001900381819060005260206000200160009055905550505050565b6000614581836113ed565b6001600160a01b039093166000908152601a602090815260408083208684528252808320859055938252601b9052919091209190915550565b8280546145c690614de2565b90600052602060002090601f0160209004810192826145e8576000855561462e565b82601f1061460157805160ff191683800117855561462e565b8280016001018555821561462e579182015b8281111561462e578251825591602001919060010190614613565b5061463a929150614674565b5090565b50805461464a90614de2565b6000825580601f1061465a575050565b601f016020900490600052602060002090810190610d1e91905b5b8082111561463a5760008155600101614675565b600067ffffffffffffffff808411156146a4576146a4614ea4565b604051601f8501601f19908116603f011681019082821181831017156146cc576146cc614ea4565b816040528093508581528686860111156146e557600080fd5b858560208301376000602087830101525050509392505050565b600082601f83011261471057600080fd5b6117f883833560208501614689565b60006020828403121561473157600080fd5b81356117f881614eba565b60006020828403121561474e57600080fd5b81516117f881614eba565b6000806040838503121561476c57600080fd5b823561477781614eba565b9150602083013561478781614eba565b809150509250929050565b6000806000606084860312156147a757600080fd5b83356147b281614eba565b925060208401356147c281614eba565b929592945050506040919091013590565b600080600080608085870312156147e957600080fd5b84356147f481614eba565b9350602085013561480481614eba565b925060408501359150606085013567ffffffffffffffff81111561482757600080fd5b8501601f8101871361483857600080fd5b61484787823560208401614689565b91505092959194509250565b6000806040838503121561486657600080fd5b823561487181614eba565b9150602083013561478781614ecf565b6000806040838503121561489457600080fd5b823561489f81614eba565b9150602083013567ffffffffffffffff8111156148bb57600080fd5b6148c7858286016146ff565b9150509250929050565b6000806000606084860312156148e657600080fd5b83356148f181614eba565b9250602084013567ffffffffffffffff8082111561490e57600080fd5b61491a878388016146ff565b9350604086013591508082111561493057600080fd5b5061493d868287016146ff565b9150509250925092565b6000806040838503121561495a57600080fd5b823561496581614eba565b946020939093013593505050565b60006020828403121561498557600080fd5b81356117f881614ecf565b6000602082840312156149a257600080fd5b81516117f881614ecf565b6000602082840312156149bf57600080fd5b5035919050565b600080604083850312156149d957600080fd5b82359150602083013561478781614eba565b600080604083850312156149fe57600080fd5b50508035926020909101359150565b600060208284031215614a1f57600080fd5b81356117f881614edd565b600060208284031215614a3c57600080fd5b81516117f881614edd565b600060208284031215614a5957600080fd5b813567ffffffffffffffff811115614a7057600080fd5b611b34848285016146ff565b600060208284031215614a8e57600080fd5b5051919050565b60008151808452614aad816020860160208601614d9f565b601f01601f19169290920160200192915050565b60008351614ad3818460208801614d9f565b835190830190614ae7818360208801614d9f565b01949350505050565b7f416363657373436f6e74726f6c3a206163636f756e7420000000000000000000815260008351614b28816017850160208801614d9f565b7001034b99036b4b9b9b4b733903937b6329607d1b6017918401918201528351614b59816028840160208801614d9f565b01602801949350505050565b6001600160a01b0385811682528416602082015260408101839052608060608201819052600090614b9890830184614a95565b9695505050505050565b6001600160a01b0383168152604060208201819052600090611b3490830184614a95565b6020808252825182820181905260009190848201906040850190845b81811015614bfe57835183529284019291840191600101614be2565b50909695505050505050565b6020815260006117f86020830184614a95565b6020808252601690820152752cb7ba93b932903737ba103a3432903130b4b634b33360511b604082015260600190565b60208082526032908201527f4552433732313a207472616e7366657220746f206e6f6e20455243373231526560408201527131b2b4bb32b91034b6b83632b6b2b73a32b960711b606082015260800190565b6020808252602d908201527f596f7520646f206e6f742068617665207065726d697373696f6e20746f206d6f60408201526c7665207468697320626164676560981b606082015260800190565b60208082526031908201527f4552433732313a207472616e736665722063616c6c6572206973206e6f74206f6040820152701ddb995c881b9bdc88185c1c1c9bdd9959607a1b606082015260800190565b60008219821115614d5057614d50614e4c565b500190565b600082614d6457614d64614e62565b500490565b6000816000190483118215151615614d8357614d83614e4c565b500290565b600082821015614d9a57614d9a614e4c565b500390565b60005b83811015614dba578181015183820152602001614da2565b838111156119f55750506000910152565b600081614dda57614dda614e4c565b506000190190565b600181811c90821680614df657607f821691505b60208210811415614e1757634e487b7160e01b600052602260045260246000fd5b50919050565b6000600019821415614e3157614e31614e4c565b5060010190565b600082614e4757614e47614e62565b500690565b634e487b7160e01b600052601160045260246000fd5b634e487b7160e01b600052601260045260246000fd5b634e487b7160e01b600052603160045260246000fd5b634e487b7160e01b600052603260045260246000fd5b634e487b7160e01b600052604160045260246000fd5b6001600160a01b0381168114610d1e57600080fd5b8015158114610d1e57600080fd5b6001600160e01b031981168114610d1e57600080fdfefa8e4989e1d689f7bc5c4b25b87efb51fecdecb19ba62847e29c759e12a89acd048bc71fa1cb2c119c339cf9cf00a97996a19a9d991ce5fe049f2fa5459e7990f0f4b159a6e2a4815eb3ca3df080bfa70c9270662c59bcaa4479a456220183e60538d24a8b7882d7b2e36af243d4af61c23e86e3daa6cb8c887b53220b2f57207c9d7f6f02908185bffb3f7fc9afb29fd7bf93675af8fd4b655ee05c2cee1e0ea264697066735822122047b6f2cef3d17ef09e4740a7648227fb3931a500c270ab8c9cc6433696116f1a64736f6c63430008070033",
  "immutableReferences": {},
  "source": "// SPDX-License-Identifier: MIT\n\npragma solidity ^0.8.0;\n\nimport \"@openzeppelin/contracts/token/ERC20/ERC20.sol\";\n\nimport \"./GenericBadge.sol\";\n\n/**\n * @dev ERC721 token with pausable token transfers, minting and burning.\n *\n * Useful for scenarios such as preventing trades until the end of an evaluation\n * period, or having an emergency switch for freezing all token transfers in the\n * event of a large bug.\n */\ncontract UserSendable is GenericBadge {\n\n    // Set Default Minting Costs to 3 Red Pens.\n    uint256 public mintingCost = 3 * 10 ** 18;\n\n    // Set Default Minting Cost Floor to 1 Red Pens\n    uint256 public mintingCostFloor = 1 * 10 ** 17;\n\n\n    ERC20 public redPens = ERC20(RedPenTokenAddress);\n \n    constructor(string memory _badgeName, string memory _badgeSymbol, address _AddressManagerAddress)\n        GenericBadge(_badgeName, _badgeSymbol, _AddressManagerAddress)\n    {\n\n        redPens = ERC20(RedPenTokenAddress);\n\n    }      \n\n\n    modifier PAY_WITH_PENS(address receivingAddress) virtual {      \n\n        uint256 expectedContractBalance;\n\n        expectedContractBalance = redPens.balanceOf(address(this)) + mintingCost;\n        redPens.transferFrom(msg.sender, address(this), mintingCost);\n      \n        require(redPens.balanceOf(address(this)) == expectedContractBalance, \"Error Transfering !RED\");\n        \n        _;\n    }\n\n    function issueBadge(address receivingAddress, string memory _reason) public virtual override\n        PAY_WITH_PENS(receivingAddress) \n        returns(uint newId) {\n        newId = _issueBadge(receivingAddress, _reason);\n        return newId;     \n    }\n\n     /////////////////////////////////////////////////////////////////////////////////////////////////\n    /////////////////////////////////////////////////////////////////////////////////////////////////\n    /// @dev                                                                                     ////\n    /// Set Minting Costs                                                                        ////\n    /////////////////////////////////////////////////////////////////////////////////////////////////\n    /////////////////////////////////////////////////////////////////////////////////////////////////\n\n    function setMintingCost(uint256 costInWei) public JURY returns (bool){\n        require(costInWei >= mintingCostFloor, \"Sorry! Cost must be greater than 0.1 RedPen\");\n        _setMintingCost(costInWei);\n        return true;\n    }\n\n    function _setMintingCost(uint256 costInWei) internal returns (bool) {\n        mintingCost = costInWei;\n        return true;\n    }\n\n    function setMintingCostFloor(uint256 costFloorInWei) public BAILIFF returns (bool){\n\n        require(costFloorInWei < mintingCostFloor, \"Sorry! You can only lower the floor!\");\n        _setMintingCostFloor(costFloorInWei);\n        return true;\n    }\n\n    function _setMintingCostFloor(uint256 costInWei) internal returns (bool) {\n        mintingCostFloor = costInWei;\n        return true;\n    }\n\n    function updatePaymentToken() public {\n        _updateTokenAddresses();\n        redPens = ERC20(RedPenTokenAddress);\n    }\n\n     /////////////////////////////////////////////////////////////////////////////////////////////////\n    /////////////////////////////////////////////////////////////////////////////////////////////////\n    /// @dev                                                                                     ////\n    /// Transfer rules                                                                           ////\n    /////////////////////////////////////////////////////////////////////////////////////////////////\n    /////////////////////////////////////////////////////////////////////////////////////////////////\n    \n    function _isApprovedOrOwner(address spender, uint256 tokenId)\n        internal view virtual\n        override(GenericBadge)\n        returns (bool)\n    {\n        require(_exists(tokenId), \"ERC721: operator query for nonexistent token\");\n        address owner = ownerOf(tokenId);\n        address gifter = BadgeInfo[tokenId].gifter;\n        return (spender == gifter || isApprovedForAll(owner, spender));\n    }\n\n}",
  "sourcePath": "/home/n/Desktop/PinkSlips_FrontEnd_REFORMAT/contracts/src/ERC721/UserSendable.sol",
  "compiler": {
    "name": "solc",
    "version": "0.8.7+commit.e28d00a7.Emscripten.clang"
  },
  "schemaVersion": "3.4.1",
  "updatedAt": "2021-08-12T06:23:42.146Z",
  "devdoc": {
    "details": "ERC721 token with pausable token transfers, minting and burning. Useful for scenarios such as preventing trades until the end of an evaluation period, or having an emergency switch for freezing all token transfers in the event of a large bug.",
    "kind": "dev",
    "methods": {
      "approve(address,uint256)": {
        "details": "See {IERC721-approve}."
      },
      "balanceOf(address)": {
        "details": "See {IERC721-balanceOf}."
      },
      "getApproved(uint256)": {
        "details": "See {IERC721-getApproved}."
      },
      "getRoleAdmin(bytes32)": {
        "details": "Returns the admin role that controls `role`. See {grantRole} and {revokeRole}. To change a role's admin, use {_setRoleAdmin}."
      },
      "getRoleMember(bytes32,uint256)": {
        "details": "Returns one of the accounts that have `role`. `index` must be a value between 0 and {getRoleMemberCount}, non-inclusive. Role bearers are not sorted in any particular way, and their ordering may change at any point. WARNING: When using {getRoleMember} and {getRoleMemberCount}, make sure you perform all queries on the same block. See the following https://forum.openzeppelin.com/t/iterating-over-elements-on-enumerableset-in-openzeppelin-contracts/2296[forum post] for more information."
      },
      "getRoleMemberCount(bytes32)": {
        "details": "Returns the number of accounts that have `role`. Can be used together with {getRoleMember} to enumerate all bearers of a role."
      },
      "grantRole(bytes32,address)": {
        "details": "Overload {grantRole} to track enumerable memberships"
      },
      "hasRole(bytes32,address)": {
        "details": "Returns `true` if `account` has been granted `role`."
      },
      "isApprovedForAll(address,address)": {
        "details": "See {IERC721-isApprovedForAll}."
      },
      "issueBadge(address,string)": {
        "details": "//// Issuance Desk                                                                            ////"
      },
      "name()": {
        "details": "See {IERC721Metadata-name}."
      },
      "ownerOf(uint256)": {
        "details": "See {IERC721-ownerOf}."
      },
      "pause()": {
        "details": "//// Maintanence\\\\\\\\\\\\\\\\\\\\\\\\\\\\\\\\\\\\\\\\\\\\\\\\\\\\\\                                                   ////"
      },
      "paused()": {
        "details": "Returns true if the contract is paused, and false otherwise."
      },
      "renounceRole(bytes32,address)": {
        "details": "Overload {renounceRole} to track enumerable memberships"
      },
      "revokeRole(bytes32,address)": {
        "details": "Overload {revokeRole} to track enumerable memberships"
      },
      "safeTransferFrom(address,address,uint256)": {
        "details": "See {IERC721-safeTransferFrom}."
      },
      "safeTransferFrom(address,address,uint256,bytes)": {
        "details": "See {IERC721-safeTransferFrom}."
      },
      "setApprovalForAll(address,bool)": {
        "details": "See {IERC721-setApprovalForAll}."
      },
      "setMintingCost(uint256)": {
        "details": "//// Set Minting Costs                                                                        ////"
      },
      "symbol()": {
        "details": "See {IERC721Metadata-symbol}."
      },
      "tokenByIndex(uint256)": {
        "details": "See {IERC721Enumerable-tokenByIndex}."
      },
      "tokenOfOwnerByIndex(address,uint256)": {
        "details": "See {IERC721Enumerable-tokenOfOwnerByIndex}."
      },
      "totalSupply()": {
        "details": "See {IERC721Enumerable-totalSupply}."
      },
      "transferFrom(address,address,uint256)": {
        "details": "See {IERC721-transferFrom}."
      }
    },
    "version": 1
  },
  "userdoc": {
    "kind": "user",
    "methods": {},
    "version": 1
  }
}