{
  "contractName": "UserSendable",
  "abi": [
    {
      "inputs": [
        {
          "internalType": "string",
          "name": "_badgeName",
          "type": "string"
        },
        {
          "internalType": "string",
          "name": "_badgeSymbol",
          "type": "string"
        },
        {
          "internalType": "address",
          "name": "_AddressManagerAddress",
          "type": "address"
        }
      ],
      "stateMutability": "nonpayable",
      "type": "constructor"
    },
    {
      "anonymous": false,
      "inputs": [
        {
          "indexed": true,
          "internalType": "address",
          "name": "owner",
          "type": "address"
        },
        {
          "indexed": true,
          "internalType": "address",
          "name": "approved",
          "type": "address"
        },
        {
          "indexed": true,
          "internalType": "uint256",
          "name": "tokenId",
          "type": "uint256"
        }
      ],
      "name": "Approval",
      "type": "event"
    },
    {
      "anonymous": false,
      "inputs": [
        {
          "indexed": true,
          "internalType": "address",
          "name": "owner",
          "type": "address"
        },
        {
          "indexed": true,
          "internalType": "address",
          "name": "operator",
          "type": "address"
        },
        {
          "indexed": false,
          "internalType": "bool",
          "name": "approved",
          "type": "bool"
        }
      ],
      "name": "ApprovalForAll",
      "type": "event"
    },
    {
      "anonymous": false,
      "inputs": [
        {
          "indexed": false,
          "internalType": "address",
          "name": "account",
          "type": "address"
        }
      ],
      "name": "Paused",
      "type": "event"
    },
    {
      "anonymous": false,
      "inputs": [
        {
          "indexed": true,
          "internalType": "bytes32",
          "name": "role",
          "type": "bytes32"
        },
        {
          "indexed": true,
          "internalType": "bytes32",
          "name": "previousAdminRole",
          "type": "bytes32"
        },
        {
          "indexed": true,
          "internalType": "bytes32",
          "name": "newAdminRole",
          "type": "bytes32"
        }
      ],
      "name": "RoleAdminChanged",
      "type": "event"
    },
    {
      "anonymous": false,
      "inputs": [
        {
          "indexed": true,
          "internalType": "bytes32",
          "name": "role",
          "type": "bytes32"
        },
        {
          "indexed": true,
          "internalType": "address",
          "name": "account",
          "type": "address"
        },
        {
          "indexed": true,
          "internalType": "address",
          "name": "sender",
          "type": "address"
        }
      ],
      "name": "RoleGranted",
      "type": "event"
    },
    {
      "anonymous": false,
      "inputs": [
        {
          "indexed": true,
          "internalType": "bytes32",
          "name": "role",
          "type": "bytes32"
        },
        {
          "indexed": true,
          "internalType": "address",
          "name": "account",
          "type": "address"
        },
        {
          "indexed": true,
          "internalType": "address",
          "name": "sender",
          "type": "address"
        }
      ],
      "name": "RoleRevoked",
      "type": "event"
    },
    {
      "anonymous": false,
      "inputs": [
        {
          "indexed": true,
          "internalType": "address",
          "name": "from",
          "type": "address"
        },
        {
          "indexed": true,
          "internalType": "address",
          "name": "to",
          "type": "address"
        },
        {
          "indexed": true,
          "internalType": "uint256",
          "name": "tokenId",
          "type": "uint256"
        }
      ],
      "name": "Transfer",
      "type": "event"
    },
    {
      "anonymous": false,
      "inputs": [
        {
          "indexed": false,
          "internalType": "address",
          "name": "account",
          "type": "address"
        }
      ],
      "name": "Unpaused",
      "type": "event"
    },
    {
      "inputs": [],
      "name": "AddressManagerAddress",
      "outputs": [
        {
          "internalType": "address",
          "name": "",
          "type": "address"
        }
      ],
      "stateMutability": "view",
      "type": "function"
    },
    {
      "inputs": [
        {
          "internalType": "uint256",
          "name": "",
          "type": "uint256"
        }
      ],
      "name": "BadgeInfo",
      "outputs": [
        {
          "internalType": "address",
          "name": "gifter",
          "type": "address"
        },
        {
          "internalType": "string",
          "name": "reason",
          "type": "string"
        }
      ],
      "stateMutability": "view",
      "type": "function"
    },
    {
      "inputs": [
        {
          "internalType": "address",
          "name": "",
          "type": "address"
        },
        {
          "internalType": "uint256",
          "name": "",
          "type": "uint256"
        }
      ],
      "name": "BadgesSent",
      "outputs": [
        {
          "internalType": "uint256",
          "name": "",
          "type": "uint256"
        }
      ],
      "stateMutability": "view",
      "type": "function"
    },
    {
      "inputs": [],
      "name": "ChadBadgeAddress",
      "outputs": [
        {
          "internalType": "address",
          "name": "",
          "type": "address"
        }
      ],
      "stateMutability": "view",
      "type": "function"
    },
    {
      "inputs": [],
      "name": "DEFAULT_ADMIN_ROLE",
      "outputs": [
        {
          "internalType": "bytes32",
          "name": "",
          "type": "bytes32"
        }
      ],
      "stateMutability": "view",
      "type": "function"
    },
    {
      "inputs": [],
      "name": "GAVELS_BAILIFF",
      "outputs": [
        {
          "internalType": "bytes32",
          "name": "",
          "type": "bytes32"
        }
      ],
      "stateMutability": "view",
      "type": "function"
    },
    {
      "inputs": [],
      "name": "GavelDAOAgent",
      "outputs": [
        {
          "internalType": "address",
          "name": "",
          "type": "address"
        }
      ],
      "stateMutability": "view",
      "type": "function"
    },
    {
      "inputs": [],
      "name": "GavelTokenAddress",
      "outputs": [
        {
          "internalType": "address",
          "name": "",
          "type": "address"
        }
      ],
      "stateMutability": "view",
      "type": "function"
    },
    {
      "inputs": [],
      "name": "GavelVote",
      "outputs": [
        {
          "internalType": "bool",
          "name": "",
          "type": "bool"
        }
      ],
      "stateMutability": "view",
      "type": "function"
    },
    {
      "inputs": [],
      "name": "GoldStarAddress",
      "outputs": [
        {
          "internalType": "address",
          "name": "",
          "type": "address"
        }
      ],
      "stateMutability": "view",
      "type": "function"
    },
    {
      "inputs": [],
      "name": "JERK_ROLE",
      "outputs": [
        {
          "internalType": "bytes32",
          "name": "",
          "type": "bytes32"
        }
      ],
      "stateMutability": "view",
      "type": "function"
    },
    {
      "inputs": [],
      "name": "JURY_BAILIFF",
      "outputs": [
        {
          "internalType": "bytes32",
          "name": "",
          "type": "bytes32"
        }
      ],
      "stateMutability": "view",
      "type": "function"
    },
    {
      "inputs": [],
      "name": "JuryDAOAgent",
      "outputs": [
        {
          "internalType": "address",
          "name": "",
          "type": "address"
        }
      ],
      "stateMutability": "view",
      "type": "function"
    },
    {
      "inputs": [],
      "name": "JuryPoolAddress",
      "outputs": [
        {
          "internalType": "address",
          "name": "",
          "type": "address"
        }
      ],
      "stateMutability": "view",
      "type": "function"
    },
    {
      "inputs": [],
      "name": "JuryVote",
      "outputs": [
        {
          "internalType": "bool",
          "name": "",
          "type": "bool"
        }
      ],
      "stateMutability": "view",
      "type": "function"
    },
    {
      "inputs": [],
      "name": "MINI_BAILIFF_ROLE",
      "outputs": [
        {
          "internalType": "bytes32",
          "name": "",
          "type": "bytes32"
        }
      ],
      "stateMutability": "view",
      "type": "function"
    },
    {
      "inputs": [],
      "name": "MiniBailiff",
      "outputs": [
        {
          "internalType": "address",
          "name": "",
          "type": "address"
        }
      ],
      "stateMutability": "view",
      "type": "function"
    },
    {
      "inputs": [],
      "name": "PinkSlipAddress",
      "outputs": [
        {
          "internalType": "address",
          "name": "",
          "type": "address"
        }
      ],
      "stateMutability": "view",
      "type": "function"
    },
    {
      "inputs": [],
      "name": "RedPenTokenAddress",
      "outputs": [
        {
          "internalType": "address",
          "name": "",
          "type": "address"
        }
      ],
      "stateMutability": "view",
      "type": "function"
    },
    {
      "inputs": [],
      "name": "THE_COURT_ROLE",
      "outputs": [
        {
          "internalType": "bytes32",
          "name": "",
          "type": "bytes32"
        }
      ],
      "stateMutability": "view",
      "type": "function"
    },
    {
      "inputs": [],
      "name": "TheCourtAddress",
      "outputs": [
        {
          "internalType": "address",
          "name": "",
          "type": "address"
        }
      ],
      "stateMutability": "view",
      "type": "function"
    },
    {
      "inputs": [],
      "name": "TreasuryAddress",
      "outputs": [
        {
          "internalType": "address",
          "name": "",
          "type": "address"
        }
      ],
      "stateMutability": "view",
      "type": "function"
    },
    {
      "inputs": [],
      "name": "addressManager",
      "outputs": [
        {
          "internalType": "contract AddressManager",
          "name": "",
          "type": "address"
        }
      ],
      "stateMutability": "view",
      "type": "function"
    },
    {
      "inputs": [
        {
          "internalType": "address",
          "name": "to",
          "type": "address"
        },
        {
          "internalType": "uint256",
          "name": "tokenId",
          "type": "uint256"
        }
      ],
      "name": "approve",
      "outputs": [],
      "stateMutability": "nonpayable",
      "type": "function"
    },
    {
      "inputs": [],
      "name": "badgeColor",
      "outputs": [
        {
          "internalType": "string",
          "name": "",
          "type": "string"
        }
      ],
      "stateMutability": "view",
      "type": "function"
    },
    {
      "inputs": [],
      "name": "badgeName",
      "outputs": [
        {
          "internalType": "string",
          "name": "",
          "type": "string"
        }
      ],
      "stateMutability": "view",
      "type": "function"
    },
    {
      "inputs": [
        {
          "internalType": "address",
          "name": "owner",
          "type": "address"
        }
      ],
      "name": "balanceOf",
      "outputs": [
        {
          "internalType": "uint256",
          "name": "",
          "type": "uint256"
        }
      ],
      "stateMutability": "view",
      "type": "function"
    },
    {
      "inputs": [
        {
          "internalType": "uint256",
          "name": "valueMustBe69",
          "type": "uint256"
        }
      ],
      "name": "destroyAndLockContract",
      "outputs": [
        {
          "internalType": "bool",
          "name": "",
          "type": "bool"
        }
      ],
      "stateMutability": "nonpayable",
      "type": "function"
    },
    {
      "inputs": [
        {
          "internalType": "uint256",
          "name": "tokenId",
          "type": "uint256"
        }
      ],
      "name": "getApproved",
      "outputs": [
        {
          "internalType": "address",
          "name": "",
          "type": "address"
        }
      ],
      "stateMutability": "view",
      "type": "function"
    },
    {
      "inputs": [
        {
          "internalType": "uint256",
          "name": "_tokenId",
          "type": "uint256"
        }
      ],
      "name": "getBadgeReason",
      "outputs": [
        {
          "internalType": "string",
          "name": "_theReason",
          "type": "string"
        }
      ],
      "stateMutability": "view",
      "type": "function"
    },
    {
      "inputs": [
        {
          "internalType": "uint256",
          "name": "_tokenId",
          "type": "uint256"
        }
      ],
      "name": "getBadgeSender",
      "outputs": [
        {
          "internalType": "address",
          "name": "_theGifter",
          "type": "address"
        }
      ],
      "stateMutability": "view",
      "type": "function"
    },
    {
      "inputs": [
        {
          "internalType": "address",
          "name": "_gifter",
          "type": "address"
        }
      ],
      "name": "getBadgesSent",
      "outputs": [
        {
          "internalType": "uint256[]",
          "name": "_BadgesSent",
          "type": "uint256[]"
        }
      ],
      "stateMutability": "view",
      "type": "function"
    },
    {
      "inputs": [
        {
          "internalType": "bytes32",
          "name": "role",
          "type": "bytes32"
        }
      ],
      "name": "getRoleAdmin",
      "outputs": [
        {
          "internalType": "bytes32",
          "name": "",
          "type": "bytes32"
        }
      ],
      "stateMutability": "view",
      "type": "function"
    },
    {
      "inputs": [
        {
          "internalType": "bytes32",
          "name": "role",
          "type": "bytes32"
        },
        {
          "internalType": "uint256",
          "name": "index",
          "type": "uint256"
        }
      ],
      "name": "getRoleMember",
      "outputs": [
        {
          "internalType": "address",
          "name": "",
          "type": "address"
        }
      ],
      "stateMutability": "view",
      "type": "function"
    },
    {
      "inputs": [
        {
          "internalType": "bytes32",
          "name": "role",
          "type": "bytes32"
        }
      ],
      "name": "getRoleMemberCount",
      "outputs": [
        {
          "internalType": "uint256",
          "name": "",
          "type": "uint256"
        }
      ],
      "stateMutability": "view",
      "type": "function"
    },
    {
      "inputs": [
        {
          "internalType": "bytes32",
          "name": "role",
          "type": "bytes32"
        },
        {
          "internalType": "address",
          "name": "account",
          "type": "address"
        }
      ],
      "name": "grantRole",
      "outputs": [],
      "stateMutability": "nonpayable",
      "type": "function"
    },
    {
      "inputs": [
        {
          "internalType": "bytes32",
          "name": "role",
          "type": "bytes32"
        },
        {
          "internalType": "address",
          "name": "account",
          "type": "address"
        }
      ],
      "name": "hasRole",
      "outputs": [
        {
          "internalType": "bool",
          "name": "",
          "type": "bool"
        }
      ],
      "stateMutability": "view",
      "type": "function"
    },
    {
      "inputs": [
        {
          "internalType": "address",
          "name": "owner",
          "type": "address"
        },
        {
          "internalType": "address",
          "name": "operator",
          "type": "address"
        }
      ],
      "name": "isApprovedForAll",
      "outputs": [
        {
          "internalType": "bool",
          "name": "",
          "type": "bool"
        }
      ],
      "stateMutability": "view",
      "type": "function"
    },
    {
      "inputs": [
        {
          "internalType": "address",
          "name": "addressToCheck",
          "type": "address"
        },
        {
          "internalType": "uint256",
          "name": "badgeTokenID",
          "type": "uint256"
        }
      ],
      "name": "isBadgeSender",
      "outputs": [
        {
          "internalType": "bool",
          "name": "",
          "type": "bool"
        }
      ],
      "stateMutability": "view",
      "type": "function"
    },
    {
      "inputs": [],
      "name": "isForeverLocked",
      "outputs": [
        {
          "internalType": "bool",
          "name": "",
          "type": "bool"
        }
      ],
      "stateMutability": "view",
      "type": "function"
    },
    {
      "inputs": [],
      "name": "jerkSanctions",
      "outputs": [
        {
          "internalType": "bool",
          "name": "",
          "type": "bool"
        }
      ],
      "stateMutability": "view",
      "type": "function"
    },
    {
      "inputs": [],
      "name": "mintingCost",
      "outputs": [
        {
          "internalType": "uint256",
          "name": "",
          "type": "uint256"
        }
      ],
      "stateMutability": "view",
      "type": "function"
    },
    {
      "inputs": [],
      "name": "mintingCostFloor",
      "outputs": [
        {
          "internalType": "uint256",
          "name": "",
          "type": "uint256"
        }
      ],
      "stateMutability": "view",
      "type": "function"
    },
    {
      "inputs": [],
      "name": "name",
      "outputs": [
        {
          "internalType": "string",
          "name": "",
          "type": "string"
        }
      ],
      "stateMutability": "view",
      "type": "function"
    },
    {
      "inputs": [
        {
          "internalType": "uint256",
          "name": "tokenId",
          "type": "uint256"
        }
      ],
      "name": "ownerOf",
      "outputs": [
        {
          "internalType": "address",
          "name": "",
          "type": "address"
        }
      ],
      "stateMutability": "view",
      "type": "function"
    },
    {
      "inputs": [],
      "name": "pause",
      "outputs": [],
      "stateMutability": "nonpayable",
      "type": "function"
    },
    {
      "inputs": [],
      "name": "paused",
      "outputs": [
        {
          "internalType": "bool",
          "name": "",
          "type": "bool"
        }
      ],
      "stateMutability": "view",
      "type": "function"
    },
    {
      "inputs": [],
      "name": "redPens",
      "outputs": [
        {
          "internalType": "contract ERC20",
          "name": "",
          "type": "address"
        }
      ],
      "stateMutability": "view",
      "type": "function"
    },
    {
      "inputs": [
        {
          "internalType": "bool",
          "name": "thisIsNotReversible",
          "type": "bool"
        }
      ],
      "name": "refreshBadges",
      "outputs": [
        {
          "internalType": "bool",
          "name": "",
          "type": "bool"
        }
      ],
      "stateMutability": "nonpayable",
      "type": "function"
    },
    {
      "inputs": [
        {
          "internalType": "bytes32",
          "name": "role",
          "type": "bytes32"
        },
        {
          "internalType": "address",
          "name": "account",
          "type": "address"
        }
      ],
      "name": "renounceRole",
      "outputs": [],
      "stateMutability": "nonpayable",
      "type": "function"
    },
    {
      "inputs": [],
      "name": "resetVote",
      "outputs": [],
      "stateMutability": "nonpayable",
      "type": "function"
    },
    {
      "inputs": [
        {
          "internalType": "uint256",
          "name": "tokenId",
          "type": "uint256"
        }
      ],
      "name": "revokeBadge",
      "outputs": [],
      "stateMutability": "nonpayable",
      "type": "function"
    },
    {
      "inputs": [
        {
          "internalType": "bytes32",
          "name": "role",
          "type": "bytes32"
        },
        {
          "internalType": "address",
          "name": "account",
          "type": "address"
        }
      ],
      "name": "revokeRole",
      "outputs": [],
      "stateMutability": "nonpayable",
      "type": "function"
    },
    {
      "inputs": [
        {
          "internalType": "address",
          "name": "from",
          "type": "address"
        },
        {
          "internalType": "address",
          "name": "to",
          "type": "address"
        },
        {
          "internalType": "uint256",
          "name": "tokenId",
          "type": "uint256"
        }
      ],
      "name": "safeTransferFrom",
      "outputs": [],
      "stateMutability": "nonpayable",
      "type": "function"
    },
    {
      "inputs": [
        {
          "internalType": "address",
          "name": "from",
          "type": "address"
        },
        {
          "internalType": "address",
          "name": "to",
          "type": "address"
        },
        {
          "internalType": "uint256",
          "name": "tokenId",
          "type": "uint256"
        },
        {
          "internalType": "bytes",
          "name": "_data",
          "type": "bytes"
        }
      ],
      "name": "safeTransferFrom",
      "outputs": [],
      "stateMutability": "nonpayable",
      "type": "function"
    },
    {
      "inputs": [
        {
          "internalType": "address",
          "name": "operator",
          "type": "address"
        },
        {
          "internalType": "bool",
          "name": "approved",
          "type": "bool"
        }
      ],
      "name": "setApprovalForAll",
      "outputs": [],
      "stateMutability": "nonpayable",
      "type": "function"
    },
    {
      "inputs": [
        {
          "internalType": "bytes4",
          "name": "interfaceId",
          "type": "bytes4"
        }
      ],
      "name": "supportsInterface",
      "outputs": [
        {
          "internalType": "bool",
          "name": "",
          "type": "bool"
        }
      ],
      "stateMutability": "view",
      "type": "function"
    },
    {
      "inputs": [],
      "name": "symbol",
      "outputs": [
        {
          "internalType": "string",
          "name": "",
          "type": "string"
        }
      ],
      "stateMutability": "view",
      "type": "function"
    },
    {
      "inputs": [],
      "name": "syncAllRoles",
      "outputs": [],
      "stateMutability": "nonpayable",
      "type": "function"
    },
    {
      "inputs": [
        {
          "internalType": "bytes32",
          "name": "ROLE_TO_SYNC",
          "type": "bytes32"
        }
      ],
      "name": "syncSingleRole",
      "outputs": [],
      "stateMutability": "nonpayable",
      "type": "function"
    },
    {
      "inputs": [],
      "name": "syncVotes",
      "outputs": [],
      "stateMutability": "nonpayable",
      "type": "function"
    },
    {
      "inputs": [
        {
          "internalType": "uint256",
          "name": "index",
          "type": "uint256"
        }
      ],
      "name": "tokenByIndex",
      "outputs": [
        {
          "internalType": "uint256",
          "name": "",
          "type": "uint256"
        }
      ],
      "stateMutability": "view",
      "type": "function"
    },
    {
      "inputs": [
        {
          "internalType": "address",
          "name": "owner",
          "type": "address"
        },
        {
          "internalType": "uint256",
          "name": "index",
          "type": "uint256"
        }
      ],
      "name": "tokenOfOwnerByIndex",
      "outputs": [
        {
          "internalType": "uint256",
          "name": "",
          "type": "uint256"
        }
      ],
      "stateMutability": "view",
      "type": "function"
    },
    {
      "inputs": [
        {
          "internalType": "uint256",
          "name": "tokenId",
          "type": "uint256"
        }
      ],
      "name": "tokenURI",
      "outputs": [
        {
          "internalType": "string",
          "name": "",
          "type": "string"
        }
      ],
      "stateMutability": "view",
      "type": "function"
    },
    {
      "inputs": [],
      "name": "totalSupply",
      "outputs": [
        {
          "internalType": "uint256",
          "name": "",
          "type": "uint256"
        }
      ],
      "stateMutability": "view",
      "type": "function"
    },
    {
      "inputs": [
        {
          "internalType": "address",
          "name": "from",
          "type": "address"
        },
        {
          "internalType": "address",
          "name": "to",
          "type": "address"
        },
        {
          "internalType": "uint256",
          "name": "tokenId",
          "type": "uint256"
        }
      ],
      "name": "transferFrom",
      "outputs": [],
      "stateMutability": "nonpayable",
      "type": "function"
    },
    {
      "inputs": [],
      "name": "unpause",
      "outputs": [],
      "stateMutability": "nonpayable",
      "type": "function"
    },
    {
      "inputs": [],
      "name": "updateAddressManager",
      "outputs": [],
      "stateMutability": "nonpayable",
      "type": "function"
    },
    {
      "inputs": [],
      "name": "updateAllAddresses",
      "outputs": [],
      "stateMutability": "nonpayable",
      "type": "function"
    },
    {
      "inputs": [],
      "name": "updateAllRoles",
      "outputs": [],
      "stateMutability": "nonpayable",
      "type": "function"
    },
    {
      "inputs": [],
      "name": "updateDAOAddresses",
      "outputs": [],
      "stateMutability": "nonpayable",
      "type": "function"
    },
    {
      "inputs": [
        {
          "internalType": "bytes32",
          "name": "ROLE_TO_UPDATE",
          "type": "bytes32"
        }
      ],
      "name": "updateSingleRole",
      "outputs": [],
      "stateMutability": "nonpayable",
      "type": "function"
    },
    {
      "inputs": [],
      "name": "updateTokenAddresses",
      "outputs": [],
      "stateMutability": "nonpayable",
      "type": "function"
    },
    {
      "inputs": [
        {
          "internalType": "address",
          "name": "receivingAddress",
          "type": "address"
        },
        {
          "internalType": "string",
          "name": "_reason",
          "type": "string"
        }
      ],
      "name": "issueBadge",
      "outputs": [
        {
          "internalType": "uint256",
          "name": "newId",
          "type": "uint256"
        }
      ],
      "stateMutability": "nonpayable",
      "type": "function"
    },
    {
      "inputs": [
        {
          "internalType": "uint256",
          "name": "costInWei",
          "type": "uint256"
        }
      ],
      "name": "setMintingCost",
      "outputs": [
        {
          "internalType": "bool",
          "name": "",
          "type": "bool"
        }
      ],
      "stateMutability": "nonpayable",
      "type": "function"
    },
    {
      "inputs": [
        {
          "internalType": "uint256",
          "name": "costFloorInWei",
          "type": "uint256"
        }
      ],
      "name": "setMintingCostFloor",
      "outputs": [
        {
          "internalType": "bool",
          "name": "",
          "type": "bool"
        }
      ],
      "stateMutability": "nonpayable",
      "type": "function"
    },
    {
      "inputs": [],
      "name": "updatePaymentToken",
      "outputs": [],
      "stateMutability": "nonpayable",
      "type": "function"
    }
  ],
  "bytecode": "0x60806040526000805460ff199081168255600f805463ffffffff60a01b19169055601b91909155601c805490911690556729a2241af62c000060215567016345785d8a0000602255600554602380546001600160a01b0319166001600160a01b039092169190911790553480156200007657600080fd5b506040516200580b3803806200580b833981016040819052620000999162000d0d565b600380546001600160a01b0383166001600160a01b03199182168117909255600f80549091169091179055828282828282620000d46200029d565b620000de620002b3565b600d54620000f8906000906001600160a01b0316620003fe565b600d5462000131907f0538d24a8b7882d7b2e36af243d4af61c23e86e3daa6cb8c887b53220b2f5720906001600160a01b0316620003fe565b600a546200016a907f048bc71fa1cb2c119c339cf9cf00a97996a19a9d991ce5fe049f2fa5459e7990906001600160a01b0316620003fe565b600b54620001a3907ffa8e4989e1d689f7bc5c4b25b87efb51fecdecb19ba62847e29c759e12a89acd906001600160a01b0316620003fe565b600e54620001dc907ff0f4b159a6e2a4815eb3ca3df080bfa70c9270662c59bcaa4479a456220183e6906001600160a01b0316620003fe565b620002097f7c9d7f6f02908185bffb3f7fc9afb29fd7bf93675af8fd4b655ee05c2cee1e0e6000620003fe565b5081516200021f90601090602085019062000b4a565b5080516200023590601190602084019062000b4a565b50506016805460ff191690555081516200025790601d90602085019062000b4a565b5082516200026d90601e90602086019062000b4a565b5050600554602380546001600160a01b0319166001600160a01b039092169190911790555062000ddc9350505050565b620002a762000441565b620002b1620006ac565b565b600f60009054906101000a90046001600160a01b03166001600160a01b031663ff7e88ec6040518163ffffffff1660e01b815260040160206040518083038186803b1580156200030257600080fd5b505afa15801562000317573d6000803e3d6000fd5b505050506040513d601f19601f820116820180604052508101906200033d919062000ce2565b600f60156101000a81548160ff021916908315150217905550600f60009054906101000a90046001600160a01b03166001600160a01b0316632fb565856040518163ffffffff1660e01b815260040160206040518083038186803b158015620003a557600080fd5b505afa158015620003ba573d6000803e3d6000fd5b505050506040513d601f19601f82011682018060405250810190620003e0919062000ce2565b600f8054911515600160b01b0260ff60b01b19909216919091179055565b62000415828262000a4060201b62001de11760201c565b60008281526002602090815260409091206200043c91839062001deb62000a50821b17901c565b505050565b600f60009054906101000a90046001600160a01b03166001600160a01b031663dadf56ac6040518163ffffffff1660e01b815260040160206040518083038186803b1580156200049057600080fd5b505afa158015620004a5573d6000803e3d6000fd5b505050506040513d601f19601f82011682018060405250810190620004cb919062000cc4565b600a80546001600160a01b0319166001600160a01b03928316179055600f546040805163024bebe960e01b81529051919092169163024bebe9916004808301926020929190829003018186803b1580156200052557600080fd5b505afa1580156200053a573d6000803e3d6000fd5b505050506040513d601f19601f8201168201806040525081019062000560919062000cc4565b600b80546001600160a01b0319166001600160a01b03928316179055600f5460408051635b5c251f60e01b815290519190921691635b5c251f916004808301926020929190829003018186803b158015620005ba57600080fd5b505afa158015620005cf573d6000803e3d6000fd5b505050506040513d601f19601f82011682018060405250810190620005f5919062000cc4565b600c80546001600160a01b0319166001600160a01b03928316179055600f5460408051637310bf1d60e11b81529051919092169163e6217e3a916004808301926020929190829003018186803b1580156200064f57600080fd5b505afa15801562000664573d6000803e3d6000fd5b505050506040513d601f19601f820116820180604052508101906200068a919062000cc4565b600e80546001600160a01b0319166001600160a01b0392909216919091179055565b600f60009054906101000a90046001600160a01b03166001600160a01b03166321d7f0086040518163ffffffff1660e01b815260040160206040518083038186803b158015620006fb57600080fd5b505afa15801562000710573d6000803e3d6000fd5b505050506040513d601f19601f8201168201806040525081019062000736919062000cc4565b600480546001600160a01b0319166001600160a01b03928316178155600f546040805163762ddb5960e01b81529051919093169263762ddb599281810192602092909190829003018186803b1580156200078f57600080fd5b505afa158015620007a4573d6000803e3d6000fd5b505050506040513d601f19601f82011682018060405250810190620007ca919062000cc4565b600580546001600160a01b0319166001600160a01b03928316179055600f546040805163bfb7dc9960e01b81529051919092169163bfb7dc99916004808301926020929190829003018186803b1580156200082457600080fd5b505afa15801562000839573d6000803e3d6000fd5b505050506040513d601f19601f820116820180604052508101906200085f919062000cc4565b600680546001600160a01b0319166001600160a01b03928316179055600f5460408051633e6111eb60e21b81529051919092169163f98447ac916004808301926020929190829003018186803b158015620008b957600080fd5b505afa158015620008ce573d6000803e3d6000fd5b505050506040513d601f19601f82011682018060405250810190620008f4919062000cc4565b600780546001600160a01b0319166001600160a01b03928316179055600f5460408051630fe1ba9f60e21b815290519190921691633f86ea7c916004808301926020929190829003018186803b1580156200094e57600080fd5b505afa15801562000963573d6000803e3d6000fd5b505050506040513d601f19601f8201168201806040525081019062000989919062000cc4565b600880546001600160a01b0319166001600160a01b03928316179055600f5460408051636b58477560e01b815290519190921691636b584775916004808301926020929190829003018186803b158015620009e357600080fd5b505afa158015620009f8573d6000803e3d6000fd5b505050506040513d601f19601f8201168201806040525081019062000a1e919062000cc4565b600980546001600160a01b0319166001600160a01b0392909216919091179055565b62000a4c828262000a70565b5050565b600062000a67836001600160a01b03841662000af8565b90505b92915050565b60008281526001602090815260408083206001600160a01b038516845290915290205460ff1662000a4c5760008281526001602081815260408084206001600160a01b0386168086529252808420805460ff19169093179092559051339285917f2f8788117e7eff1d82e926ec794901d17c78024a50270940304540a733656f0d9190a45050565b600081815260018301602052604081205462000b415750815460018181018455600084815260208082209093018490558454848252828601909352604090209190915562000a6a565b50600062000a6a565b82805462000b589062000d89565b90600052602060002090601f01602090048101928262000b7c576000855562000bc7565b82601f1062000b9757805160ff191683800117855562000bc7565b8280016001018555821562000bc7579182015b8281111562000bc757825182559160200191906001019062000baa565b5062000bd592915062000bd9565b5090565b5b8082111562000bd5576000815560010162000bda565b80516001600160a01b038116811462000c0857600080fd5b919050565b600082601f83011262000c1f57600080fd5b81516001600160401b038082111562000c3c5762000c3c62000dc6565b604051601f8301601f19908116603f0116810190828211818310171562000c675762000c6762000dc6565b8160405283815260209250868385880101111562000c8457600080fd5b600091505b8382101562000ca8578582018301518183018401529082019062000c89565b8382111562000cba5760008385830101525b9695505050505050565b60006020828403121562000cd757600080fd5b62000a678262000bf0565b60006020828403121562000cf557600080fd5b8151801515811462000d0657600080fd5b9392505050565b60008060006060848603121562000d2357600080fd5b83516001600160401b038082111562000d3b57600080fd5b62000d498783880162000c0d565b9450602086015191508082111562000d6057600080fd5b5062000d6f8682870162000c0d565b92505062000d806040850162000bf0565b90509250925092565b600181811c9082168062000d9e57607f821691505b6020821081141562000dc057634e487b7160e01b600052602260045260246000fd5b50919050565b634e487b7160e01b600052604160045260246000fd5b614a1f8062000dec6000396000f3fe608060405234801561001057600080fd5b506004361061045f5760003560e01c80636b5847751161024c578063c04e17e311610146578063e78c266c116100c3578063f1132b3011610087578063f1132b301461098d578063f7d92d8614610995578063f98447ac1461099d578063f98db253146109b0578063ff7e88ec146109c357600080fd5b8063e78c266c14610936578063e985e9c514610949578063e9a532301461095c578063ebf98abf14610971578063ee0b4c351461097a57600080fd5b8063cf4ece151161010a578063cf4ece15146108e0578063d547741f146108f5578063dadf56ac14610908578063dea6f9c81461091b578063e6217e3a1461092357600080fd5b8063c04e17e314610871578063c62b28e814610892578063c87b56dd146108a5578063ca15c873146108b8578063cce84392146108cb57600080fd5b806391d14854116101d4578063a22cb46511610198578063a22cb4651461080f578063a32c5e5914610822578063a78e746f14610837578063b88d4fde1461084b578063bfb7dc991461085e57600080fd5b806391d14854146107cc57806395d89b41146107df57806396ac6bf0146107e75780639ac3eaa7146107fa578063a217fddf1461080757600080fd5b8063762ddb591161021b578063762ddb5914610778578063765160781461078b578063794ccf6c1461079e5780638456cb59146107b15780639010d07c146107b957600080fd5b80636b584775146107215780636c353e341461073457806370a082311461073c57806373c898221461074f57600080fd5b8063329a8cfa1161035d57806357f276ff116102e55780635f413466116102a95780635f413466146106c0578063610c3009146106d35780636352211e146106db57806363ebc677146106ee57806367a14f061461070e57600080fd5b806357f276ff1461067457806359e6f787146106875780635b5c251f1461069a5780635c975abb146106ad5780635db531a1146106b857600080fd5b80633f86ea7c1161032c5780633f86ea7c1461062b57806342842e0e1461063e57806349b5e105146106515780634d84c6d8146106595780634f6ccce71461066157600080fd5b8063329a8cfa146105f557806336568abe146105fd5780633ab76e9f146106105780633f4ba83a1461062357600080fd5b806318160ddd116103eb57806329e63f35116103af57806329e63f35146105a05780632f2ff15d146105b35780632f745c59146105c65780632fb56585146105d9578063326a55e0146105ed57600080fd5b806318160ddd1461053957806321d7f0081461054157806323b872dd146105545780632436329d14610567578063248a9ca31461057c57600080fd5b8063095ea7b311610432578063095ea7b3146104df5780630ad17f8f146104f457806310a83fcb14610515578063130f63201461051e57806317314d5a1461053157600080fd5b806301ffc9a714610464578063024bebe91461048c57806306fdde03146104b7578063081812fc146104cc575b600080fd5b6104776104723660046144c8565b6109d7565b60405190151581526020015b60405180910390f35b600b5461049f906001600160a01b031681565b6040516001600160a01b039091168152602001610483565b6104bf6109e8565b6040516104839190614690565b61049f6104da366004614468565b610a7a565b6104f26104ed366004614402565b610b14565b005b610507610502366004614402565b610c2a565b604051908152602001610483565b61050760225481565b6104f261052c366004614468565b610c5a565b6104f2610c8f565b601954610507565b60045461049f906001600160a01b031681565b6104f26105623660046142af565b610cb8565b61050760008051602061494a83398151915281565b61050761058a366004614468565b6000908152600160208190526040909120015490565b6104776105ae366004614468565b610ce9565b6104f26105c1366004614481565b610df6565b6105076105d4366004614402565b610e18565b600f5461047790600160b01b900460ff1681565b6104f2610eae565b6104f2610ebe565b6104f261060b366004614481565b610fc7565b600f5461049f906001600160a01b031681565b6104f2610fe9565b60085461049f906001600160a01b031681565b6104f261064c3660046142af565b61107b565b6104f26110ac565b6104f2610eb6565b61050761066f366004614468565b6110b4565b6104f2610682366004614468565b611147565b610477610695366004614402565b61115b565b600c5461049f906001600160a01b031681565b60165460ff16610477565b6104f261118d565b600d5461049f906001600160a01b031681565b6104bf611195565b61049f6106e9366004614468565b611223565b6107016106fc36600461423c565b61129a565b604051610483919061464c565b60235461049f906001600160a01b031681565b60095461049f906001600160a01b031681565b6104f2611304565b61050761074a36600461423c565b611330565b61049f61075d366004614468565b6000908152601f60205260409020546001600160a01b031690565b60055461049f906001600160a01b031681565b61047761079936600461442e565b6113b7565b6105076107ac36600461439e565b6114ae565b6104f26116a1565b61049f6107c73660046144a6565b611723565b6104776107da366004614481565b611742565b6104bf61176d565b6104776107f5366004614468565b61177c565b601c546104779060ff1681565b610507600081565b6104f261081d366004614370565b611888565b6105076000805160206149aa83398151915281565b600f5461047790600160a01b900460ff1681565b6104f26108593660046142f0565b611906565b60065461049f906001600160a01b031681565b61088461087f366004614468565b61193e565b604051610483929190614628565b6104f26108a0366004614468565b6119ed565b6104bf6108b3366004614468565b611a3e565b6105076108c6366004614468565b611b25565b6105076000805160206149ca83398151915281565b61050760008051602061498a83398151915281565b6104f2610903366004614481565b611b3c565b600a5461049f906001600160a01b031681565b6104bf611b46565b600e5461049f906001600160a01b031681565b60035461049f906001600160a01b031681565b610477610957366004614276565b611b53565b61050760008051602061496a83398151915281565b61050760215481565b610477610988366004614468565b611bb2565b6104f2611c9e565b6104f2611ca6565b60075461049f906001600160a01b031681565b6104bf6109be366004614468565b611d46565b600f5461047790600160a81b900460ff1681565b60006109e282611e00565b92915050565b6060601080546109f790614838565b80601f0160208091040260200160405190810160405280929190818152602001828054610a2390614838565b8015610a705780601f10610a4557610100808354040283529160200191610a70565b820191906000526020600020905b815481529060010190602001808311610a5357829003601f168201915b5050505050905090565b6000818152601260205260408120546001600160a01b0316610af85760405162461bcd60e51b815260206004820152602c60248201527f4552433732313a20617070726f76656420717565727920666f72206e6f6e657860448201526b34b9ba32b73a103a37b5b2b760a11b60648201526084015b60405180910390fd5b506000908152601460205260409020546001600160a01b031690565b6000610b1f82611223565b9050806001600160a01b0316836001600160a01b03161415610b8d5760405162461bcd60e51b815260206004820152602160248201527f4552433732313a20617070726f76616c20746f2063757272656e74206f776e656044820152603960f91b6064820152608401610aef565b336001600160a01b0382161480610ba95750610ba98133611b53565b610c1b5760405162461bcd60e51b815260206004820152603860248201527f4552433732313a20617070726f76652063616c6c6572206973206e6f74206f7760448201527f6e6572206e6f7220617070726f76656420666f7220616c6c00000000000000006064820152608401610aef565b610c258383611e25565b505050565b602080528160005260406000208181548110610c4557600080fd5b90600052602060002001600091509150505481565b610c646001611e4c565b50610c6e81611efe565b50610c7881612079565b50610c836000611e4c565b610c8c57600080fd5b50565b610c996001611e4c565b50610ca2612202565b50610cad6000611e4c565b610cb657600080fd5b565b610cc23382612348565b610cde5760405162461bcd60e51b8152600401610aef906146f5565b610c25838383612413565b6000610d036000805160206149aa83398151915233611742565b80610d215750610d2160008051602061496a83398151915233611742565b80610d3f5750610d3f60008051602061494a83398151915233611742565b610d845760405162461bcd60e51b81526020600482015260166024820152752cb7ba93b932903737ba103a3432903130b4b634b33360511b6044820152606401610aef565b6022548210610de15760405162461bcd60e51b8152602060048201526024808201527f536f7272792120596f752063616e206f6e6c79206c6f7765722074686520666c6044820152636f6f722160e01b6064820152608401610aef565b610ded82602255600190565b50600192915050565b610e008282612444565b6000828152600260205260409020610c259082611deb565b6000610e2383611330565b8210610e855760405162461bcd60e51b815260206004820152602b60248201527f455243373231456e756d657261626c653a206f776e657220696e646578206f7560448201526a74206f6620626f756e647360a81b6064820152608401610aef565b506001600160a01b03919091166000908152601760209081526040808320938352929052205490565b610eb661247e565b610cb66126d9565b610ed66000805160206149aa83398151915233611742565b80610ef45750610ef460008051602061496a83398151915233611742565b80610f125750610f1260008051602061494a83398151915233611742565b610f575760405162461bcd60e51b81526020600482015260166024820152752cb7ba93b932903737ba103a3432903130b4b634b33360511b6044820152606401610aef565b600f60009054906101000a90046001600160a01b03166001600160a01b031663329a8cfa6040518163ffffffff1660e01b8152600401600060405180830381600087803b158015610fa757600080fd5b505af1158015610fbb573d6000803e3d6000fd5b50505050610cb661118d565b610fd18282612a55565b6000828152600260205260409020610c259082612acf565b61100160008051602061496a83398151915233611742565b8061101f575061101f6000805160206149aa83398151915233611742565b6110635760405162461bcd60e51b8152602060048201526015602482015274596f75277265206e6f742074686520476176656c7360581b6044820152606401610aef565b601c5460ff161561107357600080fd5b610cb6612ae4565b6110853382612348565b6110a15760405162461bcd60e51b8152600401610aef906146f5565b610c25838383612b77565b610cb661247e565b60006110bf60195490565b82106111225760405162461bcd60e51b815260206004820152602c60248201527f455243373231456e756d657261626c653a20676c6f62616c20696e646578206f60448201526b7574206f6620626f756e647360a01b6064820152608401610aef565b60198281548110611135576111356148e4565b90600052602060002001549050919050565b6111516001611e4c565b50610c7881612b92565b6000818152601f60205260408120546001600160a01b0384811691161415611185575060016109e2565b5060006109e2565b610cb6612ded565b601e80546111a290614838565b80601f01602080910402602001604051908101604052809291908181526020018280546111ce90614838565b801561121b5780601f106111f05761010080835404028352916020019161121b565b820191906000526020600020905b8154815290600101906020018083116111fe57829003601f168201915b505050505081565b6000818152601260205260408120546001600160a01b0316806109e25760405162461bcd60e51b815260206004820152602960248201527f4552433732313a206f776e657220717565727920666f72206e6f6e657869737460448201526832b73a103a37b5b2b760b91b6064820152608401610aef565b6001600160a01b038116600090815260208080526040918290208054835181840281018401909452808452606093928301828280156112f857602002820191906000526020600020905b8154815260200190600101908083116112e4575b50505050509050919050565b61130c6126d9565b600554602380546001600160a01b0319166001600160a01b03909216919091179055565b60006001600160a01b03821661139b5760405162461bcd60e51b815260206004820152602a60248201527f4552433732313a2062616c616e636520717565727920666f7220746865207a65604482015269726f206164647265737360b01b6064820152608401610aef565b506001600160a01b031660009081526013602052604090205490565b60006113d160008051602061496a83398151915233611742565b806113ef57506113ef60008051602061494a83398151915233611742565b8061140d575061140d6000805160206149aa83398151915233611742565b61141657600080fd5b600f54600160b01b810460ff9081161515600160a81b909204161515146001148061145457506114546000805160206149aa83398151915233611742565b6114935760405162461bcd60e51b815260206004820152601060248201526f436f757274204d75737420416772656560801b6044820152606401610aef565b600182151514156114a657610ded612f30565b506000919050565b6021546023546040516370a0823160e01b8152306004820152600092859284926001600160a01b03909116906370a082319060240160206040518083038186803b1580156114fb57600080fd5b505afa15801561150f573d6000803e3d6000fd5b505050506040513d601f19601f820116820180604052508101906115339190614502565b61153d9190614793565b6023546021546040516323b872dd60e01b815233600482015230602482015260448101919091529192506001600160a01b0316906323b872dd90606401602060405180830381600087803b15801561159457600080fd5b505af11580156115a8573d6000803e3d6000fd5b505050506040513d601f19601f820116820180604052508101906115cc919061444b565b506023546040516370a0823160e01b815230600482015282916001600160a01b0316906370a082319060240160206040518083038186803b15801561161057600080fd5b505afa158015611624573d6000803e3d6000fd5b505050506040513d601f19601f820116820180604052508101906116489190614502565b1461168e5760405162461bcd60e51b8152602060048201526016602482015275115c9c9bdc88151c985b9cd9995c9a5b99c80854915160521b6044820152606401610aef565b6116988585612f82565b95945050505050565b6116b960008051602061496a83398151915233611742565b806116d757506116d76000805160206149aa83398151915233611742565b61171b5760405162461bcd60e51b8152602060048201526015602482015274596f75277265206e6f742074686520476176656c7360581b6044820152606401610aef565b610cb6612fe7565b600082815260026020526040812061173b9083613062565b9392505050565b60009182526001602090815260408084206001600160a01b0393909316845291905290205460ff1690565b6060601180546109f790614838565b600061179660008051602061496a83398151915233611742565b806117b457506117b460008051602061494a83398151915233611742565b806117d257506117d26000805160206149aa83398151915233611742565b6117db57600080fd5b600f54600160b01b810460ff9081161515600160a81b909204161515146001148061181957506118196000805160206149aa83398151915233611742565b6118585760405162461bcd60e51b815260206004820152601060248201526f436f757274204d75737420416772656560801b6044820152606401610aef565b81604514156114a657611869612f30565b50611872612fe7565b50601c805460ff19166001908117909155919050565b6118a06000805160206149aa83398151915233611742565b806118be57506118be60008051602061496a83398151915233611742565b806118dc57506118dc60008051602061494a83398151915233611742565b6118f85760405162461bcd60e51b8152600401610aef906146f5565b611902828261306e565b5050565b6119103383612348565b61192c5760405162461bcd60e51b8152600401610aef90614742565b61193884848484613133565b50505050565b601f60205260009081526040902080546001820180546001600160a01b03909216929161196a90614838565b80601f016020809104026020016040519081016040528092919081815260200182805461199690614838565b80156119e35780601f106119b8576101008083540402835291602001916119e3565b820191906000526020600020905b8154815290600101906020018083116119c657829003601f168201915b5050505050905082565b6119f73382612348565b611a355760405162461bcd60e51b815260206004820152600f60248201526e4e696365205472792c204275636b6f60881b6044820152606401610aef565b610c8c81613166565b6000818152601260205260409020546060906001600160a01b0316611abd5760405162461bcd60e51b815260206004820152602f60248201527f4552433732314d657461646174613a2055524920717565727920666f72206e6f60448201526e3732bc34b9ba32b73a103a37b5b2b760891b6064820152608401610aef565b6000611ad460408051602081019091526000815290565b90506000815111611af4576040518060200160405280600081525061173b565b80611afe8461320d565b604051602001611b0f929190614547565b6040516020818303038152906040529392505050565b60008181526002602052604081206109e29061330b565b610fd18282613315565b601d80546111a290614838565b600080611b6e6000805160206149aa83398151915284611742565b80611b8c5750611b8c60008051602061496a83398151915284611742565b80611baa5750611baa60008051602061494a83398151915284611742565b949350505050565b6000611bcc60008051602061494a83398151915233611742565b80611bea5750611bea6000805160206149aa83398151915233611742565b611c2c5760405162461bcd60e51b8152602060048201526013602482015272596f75277265206e6f7420746865204a75727960681b6044820152606401610aef565b602254821015611c925760405162461bcd60e51b815260206004820152602b60248201527f536f7272792120436f7374206d7573742062652067726561746572207468616e60448201526a10181718902932b22832b760a91b6064820152608401610aef565b610ded82602155600190565b610cb661334f565b611cb06001611e4c565b50611cc86000805160206149aa833981519152612b92565b50611ce060008051602061496a833981519152612b92565b50611cf860008051602061494a833981519152612b92565b50611d1060008051602061498a833981519152612b92565b50611d286000805160206149ca833981519152612b92565b50611d336000612b92565b50611d3c612ded565b610cad6000611e4c565b6000818152601f60205260409020600101805460609190611d6690614838565b80601f0160208091040260200160405190810160405280929190818152602001828054611d9290614838565b80156112f85780601f10611db4576101008083540402835291602001916112f8565b820191906000526020600020905b815481529060010190602001808311611dc25750939695505050505050565b6119028282613486565b600061173b836001600160a01b0384166134f1565b60006001600160e01b0319821663780e9d6360e01b14806109e257506109e282613538565b611e3d6000805160206149aa83398151915233611742565b15611902576119028282613578565b6000805460ff168215158115151415611ea75760405162461bcd60e51b815260206004820152601960248201527f416c72656164792053657420746f20746861742076616c7565000000000000006044820152606401610aef565b6000805484151560ff19909116811790915560ff1615158115151415610ded5760405162461bcd60e51b815260206004820152600c60248201526b29b0b33a32bc9022b93937b960a11b6044820152606401610aef565b60405163ca15c87360e01b8152600481018290526000908190309063ca15c8739060240160206040518083038186803b158015611f3a57600080fd5b505afa158015611f4e573d6000803e3d6000fd5b505050506040513d601f19601f82011682018060405250810190611f729190614502565b905060005b8181101561206f57604051632404341f60e21b815260048101859052602481018290526000903090639010d07c9060440160206040518083038186803b158015611fc057600080fd5b505afa158015611fd4573d6000803e3d6000fd5b505050506040513d601f19601f82011682018060405250810190611ff89190614259565b60405163d547741f60e01b8152600481018790526001600160a01b0382166024820152909150309063d547741f90604401600060405180830381600087803b15801561204357600080fd5b505af1158015612057573d6000803e3d6000fd5b5050505050808061206790614873565b915050611f77565b5060019392505050565b600f5460405163ca15c87360e01b81526004810183905260009182916001600160a01b039091169063ca15c8739060240160206040518083038186803b1580156120c257600080fd5b505afa1580156120d6573d6000803e3d6000fd5b505050506040513d601f19601f820116820180604052508101906120fa9190614502565b905060005b8181101561206f57600f54604051632404341f60e21b815260048101869052602481018390526000916001600160a01b031690639010d07c9060440160206040518083038186803b15801561215357600080fd5b505afa158015612167573d6000803e3d6000fd5b505050506040513d601f19601f8201168201806040525081019061218b9190614259565b604051632f2ff15d60e01b8152600481018790526001600160a01b03821660248201529091503090632f2ff15d90604401600060405180830381600087803b1580156121d657600080fd5b505af11580156121ea573d6000803e3d6000fd5b505050505080806121fa90614873565b9150506120ff565b600061221b6000805160206149aa833981519152611efe565b506122336000805160206149aa833981519152612079565b61223c57600080fd5b61225360008051602061496a833981519152611efe565b5061226b60008051602061496a833981519152612079565b61227457600080fd5b61228b60008051602061494a833981519152611efe565b506122a360008051602061494a833981519152612079565b6122ac57600080fd5b6122c360008051602061498a833981519152611efe565b506122db60008051602061498a833981519152612079565b6122e457600080fd5b6122fb6000805160206149ca833981519152611efe565b506123136000805160206149ca833981519152612079565b61231c57600080fd5b6123266000611efe565b506123316000612079565b61233a57600080fd5b612342612ded565b50600190565b6000818152601260205260408120546001600160a01b03166123c15760405162461bcd60e51b815260206004820152602c60248201527f4552433732313a206f70657261746f7220717565727920666f72206e6f6e657860448201526b34b9ba32b73a103a37b5b2b760a11b6064820152608401610aef565b60006123cc83611223565b6000848152601f60205260409020549091506001600160a01b039081169085168114806124035750600b546001600160a01b031633145b8061169857506116988286611b53565b61241d3382612348565b6124395760405162461bcd60e51b8152600401610aef90614742565b610c258383836135e6565b600082815260016020819052604082200154905460ff161561246a57610c258383613486565b6124748133613791565b610c258383613486565b600f60009054906101000a90046001600160a01b03166001600160a01b031663dadf56ac6040518163ffffffff1660e01b815260040160206040518083038186803b1580156124cc57600080fd5b505afa1580156124e0573d6000803e3d6000fd5b505050506040513d601f19601f820116820180604052508101906125049190614259565b600a80546001600160a01b0319166001600160a01b03928316179055600f546040805163024bebe960e01b81529051919092169163024bebe9916004808301926020929190829003018186803b15801561255d57600080fd5b505afa158015612571573d6000803e3d6000fd5b505050506040513d601f19601f820116820180604052508101906125959190614259565b600b80546001600160a01b0319166001600160a01b03928316179055600f5460408051635b5c251f60e01b815290519190921691635b5c251f916004808301926020929190829003018186803b1580156125ee57600080fd5b505afa158015612602573d6000803e3d6000fd5b505050506040513d601f19601f820116820180604052508101906126269190614259565b600c80546001600160a01b0319166001600160a01b03928316179055600f5460408051637310bf1d60e11b81529051919092169163e6217e3a916004808301926020929190829003018186803b15801561267f57600080fd5b505afa158015612693573d6000803e3d6000fd5b505050506040513d601f19601f820116820180604052508101906126b79190614259565b600e80546001600160a01b0319166001600160a01b0392909216919091179055565b600f60009054906101000a90046001600160a01b03166001600160a01b03166321d7f0086040518163ffffffff1660e01b815260040160206040518083038186803b15801561272757600080fd5b505afa15801561273b573d6000803e3d6000fd5b505050506040513d601f19601f8201168201806040525081019061275f9190614259565b600480546001600160a01b0319166001600160a01b03928316178155600f546040805163762ddb5960e01b81529051919093169263762ddb599281810192602092909190829003018186803b1580156127b757600080fd5b505afa1580156127cb573d6000803e3d6000fd5b505050506040513d601f19601f820116820180604052508101906127ef9190614259565b600580546001600160a01b0319166001600160a01b03928316179055600f546040805163bfb7dc9960e01b81529051919092169163bfb7dc99916004808301926020929190829003018186803b15801561284857600080fd5b505afa15801561285c573d6000803e3d6000fd5b505050506040513d601f19601f820116820180604052508101906128809190614259565b600680546001600160a01b0319166001600160a01b03928316179055600f5460408051633e6111eb60e21b81529051919092169163f98447ac916004808301926020929190829003018186803b1580156128d957600080fd5b505afa1580156128ed573d6000803e3d6000fd5b505050506040513d601f19601f820116820180604052508101906129119190614259565b600780546001600160a01b0319166001600160a01b03928316179055600f5460408051630fe1ba9f60e21b815290519190921691633f86ea7c916004808301926020929190829003018186803b15801561296a57600080fd5b505afa15801561297e573d6000803e3d6000fd5b505050506040513d601f19601f820116820180604052508101906129a29190614259565b600880546001600160a01b0319166001600160a01b03928316179055600f5460408051636b58477560e01b815290519190921691636b584775916004808301926020929190829003018186803b1580156129fb57600080fd5b505afa158015612a0f573d6000803e3d6000fd5b505050506040513d601f19601f82011682018060405250810190612a339190614259565b600980546001600160a01b0319166001600160a01b0392909216919091179055565b6001600160a01b0381163314612ac55760405162461bcd60e51b815260206004820152602f60248201527f416363657373436f6e74726f6c3a2063616e206f6e6c792072656e6f756e636560448201526e103937b632b9903337b91039b2b63360891b6064820152608401610aef565b61190282826137f5565b600061173b836001600160a01b03841661385c565b60165460ff16612b2d5760405162461bcd60e51b815260206004820152601460248201527314185d5cd8589b194e881b9bdd081c185d5cd95960621b6044820152606401610aef565b6016805460ff191690557f5db9ee0a495bf2e6ff9c91a7834c1ba4fdd244a5e8aa4e537bd38aeae4b073aa335b6040516001600160a01b03909116815260200160405180910390a1565b610c2583838360405180602001604052806000815250611906565b600f5460405163ca15c87360e01b81526004810183905260009182916001600160a01b039091169063ca15c8739060240160206040518083038186803b158015612bdb57600080fd5b505afa158015612bef573d6000803e3d6000fd5b505050506040513d601f19601f82011682018060405250810190612c139190614502565b60405163ca15c87360e01b815260048101859052909150600090309063ca15c8739060240160206040518083038186803b158015612c5057600080fd5b505afa158015612c64573d6000803e3d6000fd5b505050506040513d601f19601f82011682018060405250810190612c889190614502565b90506000612c9682846147de565b905060008111612cdb5760405162461bcd60e51b815260206004820152601060248201526f4e6f7468696e6720746f2073796e632160801b6044820152606401610aef565b60005b81811015612de157600f54604051632404341f60e21b815260048101889052602481018390526000916001600160a01b031690639010d07c9060440160206040518083038186803b158015612d3257600080fd5b505afa158015612d46573d6000803e3d6000fd5b505050506040513d601f19601f82011682018060405250810190612d6a9190614259565b604051632f2ff15d60e01b8152600481018990526001600160a01b03821660248201529091503090632f2ff15d90604401600060405180830381600087803b158015612db557600080fd5b505af1158015612dc9573d6000803e3d6000fd5b50505050508080612dd990614873565b915050612cde565b50600195945050505050565b600f60009054906101000a90046001600160a01b03166001600160a01b031663ff7e88ec6040518163ffffffff1660e01b815260040160206040518083038186803b158015612e3b57600080fd5b505afa158015612e4f573d6000803e3d6000fd5b505050506040513d601f19601f82011682018060405250810190612e73919061444b565b600f60156101000a81548160ff021916908315150217905550600f60009054906101000a90046001600160a01b03166001600160a01b0316632fb565856040518163ffffffff1660e01b815260040160206040518083038186803b158015612eda57600080fd5b505afa158015612eee573d6000803e3d6000fd5b505050506040513d601f19601f82011682018060405250810190612f12919061444b565b600f8054911515600160b01b0260ff60b01b19909216919091179055565b6000805b601b54811015612f76576000818152601260205260409020546001600160a01b031615612f6457612f6481613166565b80612f6e81614873565b915050612f34565b50506000601b55600190565b60006001600160a01b0383163314801590612fa557506001600160a01b03831615155b612fae57600080fd5b50601b54612fbd338383613949565b612fc983601b546139b6565b6001601b6000828254612fdc9190614793565b909155505092915050565b60165460ff161561302d5760405162461bcd60e51b815260206004820152601060248201526f14185d5cd8589b194e881c185d5cd95960821b6044820152606401610aef565b6016805460ff191660011790557f62e78cea01bee320cd4e420270b5ea74000d11b0c9f74754ebdbfc544b05a258612b5a3390565b600061173b83836139d0565b6001600160a01b0382163314156130c75760405162461bcd60e51b815260206004820152601960248201527f4552433732313a20617070726f766520746f2063616c6c6572000000000000006044820152606401610aef565b3360008181526015602090815260408083206001600160a01b03871680855290835292819020805460ff191686151590811790915590519081529192917f17307eab39ab6107e8899845ad3d59bd9653f200f220920489ca2b5937696c31910160405180910390a35050565b61313e8484846135e6565b61314a84848484613a56565b6119385760405162461bcd60e51b8152600401610aef906146a3565b600061317182611223565b905061317f81600084613b63565b61318a600083611e25565b6001600160a01b03811660009081526013602052604081208054600192906131b39084906147de565b909155505060008281526012602052604080822080546001600160a01b0319169055518391906001600160a01b038416907fddf252ad1be2c89b69c2b068fc378daa952ba7f163c4a11628f55a4df523b3ef908390a45050565b6060816132315750506040805180820190915260018152600360fc1b602082015290565b8160005b811561325b578061324581614873565b91506132549050600a836147ab565b9150613235565b60008167ffffffffffffffff811115613276576132766148fa565b6040519080825280601f01601f1916602001820160405280156132a0576020820181803683370190505b5090505b8415611baa576132b56001836147de565b91506132c2600a8661488e565b6132cd906030614793565b60f81b8183815181106132e2576132e26148e4565b60200101906001600160f81b031916908160001a905350613304600a866147ab565b94506132a4565b60006109e2825490565b600082815260016020819052604082200154905460ff161561333b57610c2583836137f5565b6133458133613791565b610c2583836137f5565b600f60009054906101000a90046001600160a01b03166001600160a01b031663a44b93256040518163ffffffff1660e01b815260040160206040518083038186803b15801561339d57600080fd5b505afa1580156133b1573d6000803e3d6000fd5b505050506040513d601f19601f820116820180604052508101906133d5919061444b565b6133de57600080fd5b600f60009054906101000a90046001600160a01b03166001600160a01b031663ac7cfac36040518163ffffffff1660e01b815260040160206040518083038186803b15801561342c57600080fd5b505afa158015613440573d6000803e3d6000fd5b505050506040513d601f19601f820116820180604052508101906134649190614259565b600380546001600160a01b0319166001600160a01b0392909216919091179055565b6134908282611742565b6119025760008281526001602081815260408084206001600160a01b0386168086529252808420805460ff19169093179092559051339285917f2f8788117e7eff1d82e926ec794901d17c78024a50270940304540a733656f0d9190a45050565b6000818152600183016020526040812054611185575081546001818101845560008481526020808220909301849055845484825282860190935260409020919091556109e2565b60006001600160e01b031982166380ac58cd60e01b148061356957506001600160e01b03198216635b5e139f60e01b145b806109e257506109e282613b6e565b600081815260146020526040902080546001600160a01b0319166001600160a01b03841690811790915581906135ad82611223565b6001600160a01b03167f8c5be1e5ebec7d5bd14f71427d1e84f3dd0314c0f7b2291e5b200ac8c7c3b92560405160405180910390a45050565b826001600160a01b03166135f982611223565b6001600160a01b0316146136615760405162461bcd60e51b815260206004820152602960248201527f4552433732313a207472616e73666572206f6620746f6b656e2074686174206960448201526839903737ba1037bbb760b91b6064820152608401610aef565b6001600160a01b0382166136c35760405162461bcd60e51b8152602060048201526024808201527f4552433732313a207472616e7366657220746f20746865207a65726f206164646044820152637265737360e01b6064820152608401610aef565b6136ce838383613b63565b6136d9600082611e25565b6001600160a01b03831660009081526013602052604081208054600192906137029084906147de565b90915550506001600160a01b0382166000908152601360205260408120805460019290613730908490614793565b909155505060008181526012602052604080822080546001600160a01b0319166001600160a01b0386811691821790925591518493918716917fddf252ad1be2c89b69c2b068fc378daa952ba7f163c4a11628f55a4df523b3ef91a4505050565b61379b8282611742565b611902576137b3816001600160a01b03166014613b93565b6137be836020613b93565b6040516020016137cf929190614576565b60408051601f198184030181529082905262461bcd60e51b8252610aef91600401614690565b6137ff8282611742565b156119025760008281526001602090815260408083206001600160a01b0385168085529252808320805460ff1916905551339285917ff6391f5c32d9c69d2a47ea670b442974b53935d1edc7fd64eb21e047a839171b9190a45050565b6000818152600183016020526040812054801561393f5760006138806001836147de565b8554909150600090613894906001906147de565b905060008660000182815481106138ad576138ad6148e4565b90600052602060002001549050808760000184815481106138d0576138d06148e4565b600091825260208083209091019290925582815260018901909152604090208490558654879080613903576139036148ce565b600190038181906000526020600020016000905590558660010160008781526020019081526020016000206000905560019450505050506109e2565b60009150506109e2565b6000818152601f6020908152604090912080546001600160a01b0319166001600160a01b03861617815583516139879260019092019185019061412d565b506001600160a01b03909216600090815260208080526040822080546001810182559083529120019190915550565b611902828260405180602001604052806000815250613d2f565b81546000908210613a2e5760405162461bcd60e51b815260206004820152602260248201527f456e756d657261626c655365743a20696e646578206f7574206f6620626f756e604482015261647360f01b6064820152608401610aef565b826000018281548110613a4357613a436148e4565b9060005260206000200154905092915050565b60006001600160a01b0384163b15613b5857604051630a85bd0160e11b81526001600160a01b0385169063150b7a0290613a9a9033908990889088906004016145eb565b602060405180830381600087803b158015613ab457600080fd5b505af1925050508015613ae4575060408051601f3d908101601f19168201909252613ae1918101906144e5565b60015b613b3e573d808015613b12576040519150601f19603f3d011682016040523d82523d6000602084013e613b17565b606091505b508051613b365760405162461bcd60e51b8152600401610aef906146a3565b805181602001fd5b6001600160e01b031916630a85bd0160e11b149050611baa565b506001949350505050565b610c25838383613d62565b60006001600160e01b03198216635a05180f60e01b14806109e257506109e282613e1a565b60606000613ba28360026147bf565b613bad906002614793565b67ffffffffffffffff811115613bc557613bc56148fa565b6040519080825280601f01601f191660200182016040528015613bef576020820181803683370190505b509050600360fc1b81600081518110613c0a57613c0a6148e4565b60200101906001600160f81b031916908160001a905350600f60fb1b81600181518110613c3957613c396148e4565b60200101906001600160f81b031916908160001a9053506000613c5d8460026147bf565b613c68906001614793565b90505b6001811115613ce0576f181899199a1a9b1b9c1cb0b131b232b360811b85600f1660108110613c9c57613c9c6148e4565b1a60f81b828281518110613cb257613cb26148e4565b60200101906001600160f81b031916908160001a90535060049490941c93613cd981614821565b9050613c6b565b50831561173b5760405162461bcd60e51b815260206004820181905260248201527f537472696e67733a20686578206c656e67746820696e73756666696369656e746044820152606401610aef565b613d398383613e4f565b613d466000848484613a56565b610c255760405162461bcd60e51b8152600401610aef906146a3565b6001600160a01b038316613dbd57613db881601980546000838152601a60205260408120829055600182018355919091527f944998273e477b495144fb8794c914197f3ccb46be2900f4698fd0ef743c96950155565b613de0565b816001600160a01b0316836001600160a01b031614613de057613de08382613f9d565b6001600160a01b038216613df757610c258161403a565b826001600160a01b0316826001600160a01b031614610c2557610c2582826140e9565b60006001600160e01b03198216637965db0b60e01b14806109e257506301ffc9a760e01b6001600160e01b03198316146109e2565b6001600160a01b038216613ea55760405162461bcd60e51b815260206004820181905260248201527f4552433732313a206d696e7420746f20746865207a65726f20616464726573736044820152606401610aef565b6000818152601260205260409020546001600160a01b031615613f0a5760405162461bcd60e51b815260206004820152601c60248201527f4552433732313a20746f6b656e20616c7265616479206d696e746564000000006044820152606401610aef565b613f1660008383613b63565b6001600160a01b0382166000908152601360205260408120805460019290613f3f908490614793565b909155505060008181526012602052604080822080546001600160a01b0319166001600160a01b03861690811790915590518392907fddf252ad1be2c89b69c2b068fc378daa952ba7f163c4a11628f55a4df523b3ef908290a45050565b60006001613faa84611330565b613fb491906147de565b600083815260186020526040902054909150808214614007576001600160a01b03841660009081526017602090815260408083208584528252808320548484528184208190558352601890915290208190555b5060009182526018602090815260408084208490556001600160a01b039094168352601781528383209183525290812055565b60195460009061404c906001906147de565b6000838152601a602052604081205460198054939450909284908110614074576140746148e4565b906000526020600020015490508060198381548110614095576140956148e4565b6000918252602080832090910192909255828152601a909152604080822084905585825281205560198054806140cd576140cd6148ce565b6001900381819060005260206000200160009055905550505050565b60006140f483611330565b6001600160a01b039093166000908152601760209081526040808320868452825280832085905593825260189052919091209190915550565b82805461413990614838565b90600052602060002090601f01602090048101928261415b57600085556141a1565b82601f1061417457805160ff19168380011785556141a1565b828001600101855582156141a1579182015b828111156141a1578251825591602001919060010190614186565b506141ad9291506141b1565b5090565b5b808211156141ad57600081556001016141b2565b600067ffffffffffffffff808411156141e1576141e16148fa565b604051601f8501601f19908116603f01168101908282118183101715614209576142096148fa565b8160405280935085815286868601111561422257600080fd5b858560208301376000602087830101525050509392505050565b60006020828403121561424e57600080fd5b813561173b81614910565b60006020828403121561426b57600080fd5b815161173b81614910565b6000806040838503121561428957600080fd5b823561429481614910565b915060208301356142a481614910565b809150509250929050565b6000806000606084860312156142c457600080fd5b83356142cf81614910565b925060208401356142df81614910565b929592945050506040919091013590565b6000806000806080858703121561430657600080fd5b843561431181614910565b9350602085013561432181614910565b925060408501359150606085013567ffffffffffffffff81111561434457600080fd5b8501601f8101871361435557600080fd5b614364878235602084016141c6565b91505092959194509250565b6000806040838503121561438357600080fd5b823561438e81614910565b915060208301356142a481614925565b600080604083850312156143b157600080fd5b82356143bc81614910565b9150602083013567ffffffffffffffff8111156143d857600080fd5b8301601f810185136143e957600080fd5b6143f8858235602084016141c6565b9150509250929050565b6000806040838503121561441557600080fd5b823561442081614910565b946020939093013593505050565b60006020828403121561444057600080fd5b813561173b81614925565b60006020828403121561445d57600080fd5b815161173b81614925565b60006020828403121561447a57600080fd5b5035919050565b6000806040838503121561449457600080fd5b8235915060208301356142a481614910565b600080604083850312156144b957600080fd5b50508035926020909101359150565b6000602082840312156144da57600080fd5b813561173b81614933565b6000602082840312156144f757600080fd5b815161173b81614933565b60006020828403121561451457600080fd5b5051919050565b600081518084526145338160208601602086016147f5565b601f01601f19169290920160200192915050565b600083516145598184602088016147f5565b83519083019061456d8183602088016147f5565b01949350505050565b7f416363657373436f6e74726f6c3a206163636f756e74200000000000000000008152600083516145ae8160178501602088016147f5565b7001034b99036b4b9b9b4b733903937b6329607d1b60179184019182015283516145df8160288401602088016147f5565b01602801949350505050565b6001600160a01b038581168252841660208201526040810183905260806060820181905260009061461e9083018461451b565b9695505050505050565b6001600160a01b0383168152604060208201819052600090611baa9083018461451b565b6020808252825182820181905260009190848201906040850190845b8181101561468457835183529284019291840191600101614668565b50909695505050505050565b60208152600061173b602083018461451b565b60208082526032908201527f4552433732313a207472616e7366657220746f206e6f6e20455243373231526560408201527131b2b4bb32b91034b6b83632b6b2b73a32b960711b606082015260800190565b6020808252602d908201527f596f7520646f206e6f742068617665207065726d697373696f6e20746f206d6f60408201526c7665207468697320626164676560981b606082015260800190565b60208082526031908201527f4552433732313a207472616e736665722063616c6c6572206973206e6f74206f6040820152701ddb995c881b9bdc88185c1c1c9bdd9959607a1b606082015260800190565b600082198211156147a6576147a66148a2565b500190565b6000826147ba576147ba6148b8565b500490565b60008160001904831182151516156147d9576147d96148a2565b500290565b6000828210156147f0576147f06148a2565b500390565b60005b838110156148105781810151838201526020016147f8565b838111156119385750506000910152565b600081614830576148306148a2565b506000190190565b600181811c9082168061484c57607f821691505b6020821081141561486d57634e487b7160e01b600052602260045260246000fd5b50919050565b6000600019821415614887576148876148a2565b5060010190565b60008261489d5761489d6148b8565b500690565b634e487b7160e01b600052601160045260246000fd5b634e487b7160e01b600052601260045260246000fd5b634e487b7160e01b600052603160045260246000fd5b634e487b7160e01b600052603260045260246000fd5b634e487b7160e01b600052604160045260246000fd5b6001600160a01b0381168114610c8c57600080fd5b8015158114610c8c57600080fd5b6001600160e01b031981168114610c8c57600080fdfefa8e4989e1d689f7bc5c4b25b87efb51fecdecb19ba62847e29c759e12a89acd048bc71fa1cb2c119c339cf9cf00a97996a19a9d991ce5fe049f2fa5459e7990f0f4b159a6e2a4815eb3ca3df080bfa70c9270662c59bcaa4479a456220183e60538d24a8b7882d7b2e36af243d4af61c23e86e3daa6cb8c887b53220b2f57207c9d7f6f02908185bffb3f7fc9afb29fd7bf93675af8fd4b655ee05c2cee1e0ea26469706673582212206b8f06968fa5c86a9d874bab2ebc74a673f1614080b69d602aba9e6c58d576c364736f6c63430008060033",
  "immutableReferences": {},
  "source": "// SPDX-License-Identifier: MIT\n\npragma solidity ^0.8.0;\n\nimport \"@openzeppelin/contracts/token/ERC20/ERC20.sol\";\n\nimport \"./GenericBadge.sol\";\n\n/**\n * @dev ERC721 token with pausable token transfers, minting and burning.\n *\n * Useful for scenarios such as preventing trades until the end of an evaluation\n * period, or having an emergency switch for freezing all token transfers in the\n * event of a large bug.\n */\ncontract UserSendable is GenericBadge {\n\n    // Set Default Minting Costs to 3 Red Pens.\n    uint256 public mintingCost = 3 * 10 ** 18;\n\n    // Set Default Minting Cost Floor to 1 Red Pens\n    uint256 public mintingCostFloor = 1 * 10 ** 17;\n\n\n    ERC20 public redPens = ERC20(RedPenTokenAddress);\n \n    constructor(string memory _badgeName, string memory _badgeSymbol, address _AddressManagerAddress)\n        GenericBadge(_badgeName, _badgeSymbol, _AddressManagerAddress)\n    {\n\n        redPens = ERC20(RedPenTokenAddress);\n\n    }      \n\n\n    modifier PAY_WITH_PENS(address receivingAddress) virtual {      \n\n        uint256 expectedContractBalance;\n\n        expectedContractBalance = redPens.balanceOf(address(this)) + mintingCost;\n        redPens.transferFrom(msg.sender, address(this), mintingCost);\n      \n        require(redPens.balanceOf(address(this)) == expectedContractBalance, \"Error Transfering !RED\");\n        \n        _;\n    }\n\n    function issueBadge(address receivingAddress, string memory _reason) public virtual override\n        PAY_WITH_PENS(receivingAddress) \n        returns(uint newId) {\n        newId = _issueBadge(receivingAddress, _reason);\n        return newId;     \n    }\n\n     /////////////////////////////////////////////////////////////////////////////////////////////////\n    /////////////////////////////////////////////////////////////////////////////////////////////////\n    /// @dev                                                                                     ////\n    /// Set Minting Costs                                                                        ////\n    /////////////////////////////////////////////////////////////////////////////////////////////////\n    /////////////////////////////////////////////////////////////////////////////////////////////////\n\n    function setMintingCost(uint256 costInWei) public JURY returns (bool){\n        require(costInWei >= mintingCostFloor, \"Sorry! Cost must be greater than 0.1 RedPen\");\n        _setMintingCost(costInWei);\n        return true;\n    }\n\n    function _setMintingCost(uint256 costInWei) internal returns (bool) {\n        mintingCost = costInWei;\n        return true;\n    }\n\n    function setMintingCostFloor(uint256 costFloorInWei) public BAILIFF returns (bool){\n\n        require(costFloorInWei < mintingCostFloor, \"Sorry! You can only lower the floor!\");\n        _setMintingCostFloor(costFloorInWei);\n        return true;\n    }\n\n    function _setMintingCostFloor(uint256 costInWei) internal returns (bool) {\n        mintingCostFloor = costInWei;\n        return true;\n    }\n\n    function updatePaymentToken() public {\n        _updateTokenAddresses();\n        redPens = ERC20(RedPenTokenAddress);\n    }\n\n     /////////////////////////////////////////////////////////////////////////////////////////////////\n    /////////////////////////////////////////////////////////////////////////////////////////////////\n    /// @dev                                                                                     ////\n    /// Transfer rules                                                                           ////\n    /////////////////////////////////////////////////////////////////////////////////////////////////\n    /////////////////////////////////////////////////////////////////////////////////////////////////\n    \n    function _isApprovedOrOwner(address spender, uint256 tokenId)\n        internal view virtual\n        override(GenericBadge)\n        returns (bool)\n    {\n        require(_exists(tokenId), \"ERC721: operator query for nonexistent token\");\n        address owner = ownerOf(tokenId);\n        address gifter = BadgeInfo[tokenId].gifter;\n        return (spender == gifter || msg.sender == JuryDAOAgent || isApprovedForAll(owner, spender));\n    }\n\n}",
  "sourcePath": "/home/n/Desktop/PinkSlips_FrontEnd_REFORMAT (copy)/contracts/src/ERC721/UserSendable.sol",
  "compiler": {
    "name": "solc",
    "version": "0.8.6+commit.11564f7e.Emscripten.clang"
  },
  "schemaVersion": "3.4.1",
  "updatedAt": "2021-08-08T02:58:40.460Z",
  "devdoc": {
    "details": "ERC721 token with pausable token transfers, minting and burning. Useful for scenarios such as preventing trades until the end of an evaluation period, or having an emergency switch for freezing all token transfers in the event of a large bug.",
    "kind": "dev",
    "methods": {
      "approve(address,uint256)": {
        "details": "See {IERC721-approve}."
      },
      "balanceOf(address)": {
        "details": "See {IERC721-balanceOf}."
      },
      "getApproved(uint256)": {
        "details": "See {IERC721-getApproved}."
      },
      "getRoleAdmin(bytes32)": {
        "details": "Returns the admin role that controls `role`. See {grantRole} and {revokeRole}. To change a role's admin, use {_setRoleAdmin}."
      },
      "getRoleMember(bytes32,uint256)": {
        "details": "Returns one of the accounts that have `role`. `index` must be a value between 0 and {getRoleMemberCount}, non-inclusive. Role bearers are not sorted in any particular way, and their ordering may change at any point. WARNING: When using {getRoleMember} and {getRoleMemberCount}, make sure you perform all queries on the same block. See the following https://forum.openzeppelin.com/t/iterating-over-elements-on-enumerableset-in-openzeppelin-contracts/2296[forum post] for more information."
      },
      "getRoleMemberCount(bytes32)": {
        "details": "Returns the number of accounts that have `role`. Can be used together with {getRoleMember} to enumerate all bearers of a role."
      },
      "grantRole(bytes32,address)": {
        "details": "Overload {grantRole} to track enumerable memberships"
      },
      "hasRole(bytes32,address)": {
        "details": "Returns `true` if `account` has been granted `role`."
      },
      "isApprovedForAll(address,address)": {
        "details": "See {IERC721-isApprovedForAll}."
      },
      "issueBadge(address,string)": {
        "details": "//// Issuance Desk                                                                            ////"
      },
      "name()": {
        "details": "See {IERC721Metadata-name}."
      },
      "ownerOf(uint256)": {
        "details": "See {IERC721-ownerOf}."
      },
      "pause()": {
        "details": "//// Maintanence\\\\\\\\\\\\\\\\\\\\\\\\\\\\\\\\\\\\\\\\\\\\\\\\\\\\\\                                                   ////"
      },
      "paused()": {
        "details": "Returns true if the contract is paused, and false otherwise."
      },
      "renounceRole(bytes32,address)": {
        "details": "Overload {renounceRole} to track enumerable memberships"
      },
      "revokeRole(bytes32,address)": {
        "details": "Overload {revokeRole} to track enumerable memberships"
      },
      "safeTransferFrom(address,address,uint256)": {
        "details": "See {IERC721-safeTransferFrom}."
      },
      "safeTransferFrom(address,address,uint256,bytes)": {
        "details": "See {IERC721-safeTransferFrom}."
      },
      "setApprovalForAll(address,bool)": {
        "details": "See {IERC721-setApprovalForAll}."
      },
      "setMintingCost(uint256)": {
        "details": "//// Set Minting Costs                                                                        ////"
      },
      "symbol()": {
        "details": "See {IERC721Metadata-symbol}."
      },
      "tokenByIndex(uint256)": {
        "details": "See {IERC721Enumerable-tokenByIndex}."
      },
      "tokenOfOwnerByIndex(address,uint256)": {
        "details": "See {IERC721Enumerable-tokenOfOwnerByIndex}."
      },
      "tokenURI(uint256)": {
        "details": "See {IERC721Metadata-tokenURI}."
      },
      "totalSupply()": {
        "details": "See {IERC721Enumerable-totalSupply}."
      },
      "transferFrom(address,address,uint256)": {
        "details": "See {IERC721-transferFrom}."
      }
    },
    "version": 1
  },
  "userdoc": {
    "kind": "user",
    "methods": {},
    "version": 1
  }
}