{
  "contractName": "VendingMachine",
  "abi": [
    {
      "inputs": [
        {
          "internalType": "address",
          "name": "redPensAddress",
          "type": "address"
        }
      ],
      "stateMutability": "nonpayable",
      "type": "constructor"
    },
    {
      "anonymous": false,
      "inputs": [
        {
          "indexed": true,
          "internalType": "address",
          "name": "dst",
          "type": "address"
        },
        {
          "indexed": false,
          "internalType": "uint256",
          "name": "amount",
          "type": "uint256"
        }
      ],
      "name": "Deposit",
      "type": "event"
    },
    {
      "anonymous": false,
      "inputs": [
        {
          "indexed": true,
          "internalType": "address",
          "name": "src",
          "type": "address"
        },
        {
          "indexed": false,
          "internalType": "uint256",
          "name": "amount",
          "type": "uint256"
        }
      ],
      "name": "Dispersed",
      "type": "event"
    },
    {
      "inputs": [],
      "name": "inStock",
      "outputs": [
        {
          "internalType": "uint256",
          "name": "",
          "type": "uint256"
        }
      ],
      "stateMutability": "view",
      "type": "function",
      "constant": true
    },
    {
      "inputs": [],
      "name": "penToNativeRatio",
      "outputs": [
        {
          "internalType": "uint256",
          "name": "",
          "type": "uint256"
        }
      ],
      "stateMutability": "view",
      "type": "function",
      "constant": true
    },
    {
      "inputs": [],
      "name": "redPens",
      "outputs": [
        {
          "internalType": "contract ERC20",
          "name": "",
          "type": "address"
        }
      ],
      "stateMutability": "view",
      "type": "function",
      "constant": true
    },
    {
      "stateMutability": "payable",
      "type": "receive",
      "payable": true
    },
    {
      "inputs": [],
      "name": "initiateStock",
      "outputs": [],
      "stateMutability": "nonpayable",
      "type": "function"
    },
    {
      "inputs": [],
      "name": "deposit",
      "outputs": [],
      "stateMutability": "payable",
      "type": "function",
      "payable": true
    }
  ],
  "bytecode": "0x60806040526000805460ff60a01b19168155600155670de0b6b3a7640000600255600a60035534801561003157600080fd5b5060405161055838038061055883398101604081905261005091610075565b600080546001600160a01b0319166001600160a01b03929092169190911790556100a3565b600060208284031215610086578081fd5b81516001600160a01b038116811461009c578182fd5b9392505050565b6104a6806100b26000396000f3fe60806040526004361061004e5760003560e01c80630a861c601461006257806367a14f061461008d578063c1f7618e146100af578063d0e30db0146100c4578063d6877e61146100cc5761005d565b3661005d5761005b6100e1565b005b600080fd5b34801561006e57600080fd5b5061007761014a565b60405161008491906103fa565b60405180910390f35b34801561009957600080fd5b506100a2610150565b60405161008491906103cd565b3480156100bb57600080fd5b5061005b61015f565b61005b6100e1565b3480156100d857600080fd5b50610077610227565b3360009081526004602052604081208054349290610100908490610403565b909155505060405133907fe1fffcc4923d04b559f4d29a8bfc6cda04eb5b0d3c460751c2402c5c5cc9109c906101379034906103fa565b60405180910390a261014761022d565b50565b60015481565b6000546001600160a01b031681565b600054600160a01b900460ff161561017657600080fd5b6000546040516370a0823160e01b81526101fd916001600160a01b0316906370a08231906101a89030906004016103cd565b60206040518083038186803b1580156101c057600080fd5b505afa1580156101d4573d6000803e3d6000fd5b505050506040513d601f19601f820116820180604052508101906101f891906103b5565b610378565b600181905561020f906103e89061041b565b6003556000805460ff60a01b1916600160a01b179055565b60035481565b3360009081526004602052604081205460035461024a908261043b565b33600090815260046020526040812055905060005460405163a9059cbb60e01b81526001600160a01b039091169063a9059cbb9061028e90339085906004016103e1565b602060405180830381600087803b1580156102a857600080fd5b505af11580156102bc573d6000803e3d6000fd5b505050506040513d601f19601f820116820180604052508101906102e0919061038e565b506000546040516370a0823160e01b8152610313916001600160a01b0316906370a08231906101a89030906004016103cd565b6001819055610325906103e89061041b565b60035560405133907f9d996ae749d879a4249021ae32eae7603984b6ca0c92d11d3902d378cceb17e49061035a9084906103fa565b60405180910390a25050336000908152600460205260409020541590565b600060025482610388919061041b565b92915050565b60006020828403121561039f578081fd5b815180151581146103ae578182fd5b9392505050565b6000602082840312156103c6578081fd5b5051919050565b6001600160a01b0391909116815260200190565b6001600160a01b03929092168252602082015260400190565b90815260200190565b600082198211156104165761041661045a565b500190565b60008261043657634e487b7160e01b81526012600452602481fd5b500490565b60008160001904831182151516156104555761045561045a565b500290565b634e487b7160e01b600052601160045260246000fdfea2646970667358221220f54fec1cb04e8bdab242349304af98d0a97150e9dd0fc5df49c381e334608d6464736f6c63430008000033",
  "immutableReferences": {},
  "source": "pragma solidity ^0.8.0;\n\nimport \"@openzeppelin/contracts/token/ERC20/ERC20.sol\";\n\ncontract VendingMachine {\n    \n    ERC20 public redPens;\n    \n    bool private hasBeenInitated = false;\n    \n    uint256 public inStock = 0;\n    uint256 private decimals = 10 ** 18;\n    uint public penToNativeRatio = 10;\n\n    event  Deposit(address indexed dst, uint amount);\n    event  Dispersed(address indexed src, uint amount);\n\n    mapping (address => uint) private pendingBalance;\n\n    constructor (address redPensAddress) {\n        redPens = ERC20(redPensAddress);\n    }\n\n    // This vending machine can only be used once.\n    function initiateStock() public {\n        require(!hasBeenInitated);\n        inStock = _fromWei(redPens.balanceOf(address(this)));\n        penToNativeRatio = inStock / 1000;\n        hasBeenInitated = true;\n    }\n\n    function _fromWei(uint256 amount) internal view returns (uint256 fromWeiAmount) {\n        fromWeiAmount = amount / decimals;\n    }\n\n    receive() external payable  {\n        deposit();\n    }\n    function deposit() public payable {\n        pendingBalance[msg.sender] += msg.value;\n        Deposit(msg.sender, msg.value);\n        _vend();\n    }\n    function _vend() internal returns (bool) {\n        \n        uint256 amount = pendingBalance[msg.sender];\n        require(amount >= 0);\n        amount = amount * penToNativeRatio;\n        pendingBalance[msg.sender] = 0;\n        require(pendingBalance[msg.sender] == 0);  \n        redPens.transfer(msg.sender, amount);\n        inStock = _fromWei(redPens.balanceOf(address(this)));\n        penToNativeRatio = inStock / 1000;\n        Dispersed(msg.sender, amount);\n        return pendingBalance[msg.sender] == 0;\n    }\n\n    function _transfer(address to, uint amount) internal returns (bool) {\n        pendingBalance[msg.sender] -= amount;\n        return redPens.transferFrom(address(this), to, amount);\n    }\n\n}\n",
  "sourcePath": "/home/n/Desktop/PinkSlips_FrontEnd_REFORMAT/contracts/govTokens/VendingMachine.sol",
  "compiler": {
    "name": "solc",
    "version": "0.8.0+commit.c7dfd78e.Emscripten.clang"
  },
  "schemaVersion": "3.4.1",
  "updatedAt": "2021-07-30T04:29:29.910Z",
  "networkType": "ethereum",
  "devdoc": {
    "kind": "dev",
    "methods": {},
    "version": 1
  },
  "userdoc": {
    "kind": "user",
    "methods": {},
    "version": 1
  }
}