{
  "contractName": "VendingMachine",
  "abi": [
    {
      "inputs": [
        {
          "internalType": "address",
          "name": "redPensAddress",
          "type": "address"
        },
        {
          "internalType": "address",
          "name": "_treasuryAddress",
          "type": "address"
        }
      ],
      "stateMutability": "nonpayable",
      "type": "constructor"
    },
    {
      "anonymous": false,
      "inputs": [
        {
          "indexed": true,
          "internalType": "address",
          "name": "dst",
          "type": "address"
        },
        {
          "indexed": false,
          "internalType": "uint256",
          "name": "amount",
          "type": "uint256"
        }
      ],
      "name": "Deposit",
      "type": "event"
    },
    {
      "anonymous": false,
      "inputs": [
        {
          "indexed": true,
          "internalType": "address",
          "name": "src",
          "type": "address"
        },
        {
          "indexed": false,
          "internalType": "uint256",
          "name": "amount",
          "type": "uint256"
        }
      ],
      "name": "Dispersed",
      "type": "event"
    },
    {
      "inputs": [],
      "name": "inStock",
      "outputs": [
        {
          "internalType": "uint256",
          "name": "",
          "type": "uint256"
        }
      ],
      "stateMutability": "view",
      "type": "function",
      "constant": true
    },
    {
      "inputs": [],
      "name": "penToNativeRatio",
      "outputs": [
        {
          "internalType": "uint256",
          "name": "",
          "type": "uint256"
        }
      ],
      "stateMutability": "view",
      "type": "function",
      "constant": true
    },
    {
      "inputs": [],
      "name": "redPens",
      "outputs": [
        {
          "internalType": "contract ERC20Burnable",
          "name": "",
          "type": "address"
        }
      ],
      "stateMutability": "view",
      "type": "function",
      "constant": true
    },
    {
      "inputs": [],
      "name": "treasuryAddress",
      "outputs": [
        {
          "internalType": "address",
          "name": "",
          "type": "address"
        }
      ],
      "stateMutability": "view",
      "type": "function",
      "constant": true
    },
    {
      "stateMutability": "payable",
      "type": "receive",
      "payable": true
    },
    {
      "inputs": [],
      "name": "initiateStock",
      "outputs": [],
      "stateMutability": "nonpayable",
      "type": "function"
    },
    {
      "inputs": [],
      "name": "deposit",
      "outputs": [],
      "stateMutability": "payable",
      "type": "function",
      "payable": true
    },
    {
      "inputs": [
        {
          "internalType": "uint256",
          "name": "_value",
          "type": "uint256"
        }
      ],
      "name": "simulateVend",
      "outputs": [
        {
          "internalType": "uint256",
          "name": "_amount",
          "type": "uint256"
        }
      ],
      "stateMutability": "view",
      "type": "function",
      "constant": true
    },
    {
      "inputs": [],
      "name": "sendPensToTreasury",
      "outputs": [
        {
          "internalType": "bool",
          "name": "",
          "type": "bool"
        }
      ],
      "stateMutability": "nonpayable",
      "type": "function"
    },
    {
      "inputs": [],
      "name": "coinCollect",
      "outputs": [
        {
          "internalType": "bool",
          "name": "",
          "type": "bool"
        }
      ],
      "stateMutability": "nonpayable",
      "type": "function"
    }
  ],
  "bytecode": "0x60806040526001805460ff60a01b191690556000600255670de0b6b3a7640000600355600a60045534801561003357600080fd5b506040516107753803806107758339810160408190526100529161009f565b600080546001600160a01b039384166001600160a01b031991821617909155600180549290931691161790556100d2565b80516001600160a01b038116811461009a57600080fd5b919050565b600080604083850312156100b257600080fd5b6100bb83610083565b91506100c960208401610083565b90509250929050565b610694806100e16000396000f3fe60806040526004361061008a5760003560e01c8063856ad99a11610059578063856ad99a14610139578063c1f7618e14610159578063c5f956af1461016e578063d0e30db01461018e578063d6877e611461019657600080fd5b80630a861c601461009e578063233ce3fb146100c757806333d2a516146100ec57806367a14f061461010157600080fd5b36610099576100976101ac565b005b600080fd5b3480156100aa57600080fd5b506100b460025481565b6040519081526020015b60405180910390f35b3480156100d357600080fd5b506100dc610207565b60405190151581526020016100be565b3480156100f857600080fd5b506100dc6102e8565b34801561010d57600080fd5b50600054610121906001600160a01b031681565b6040516001600160a01b0390911681526020016100be565b34801561014557600080fd5b506100b46101543660046105be565b61032f565b34801561016557600080fd5b50610097610343565b34801561017a57600080fd5b50600154610121906001600160a01b031681565b6100976101ac565b3480156101a257600080fd5b506100b460045481565b33600081815260056020908152604091829020349081905591519182527fe1fffcc4923d04b559f4d29a8bfc6cda04eb5b0d3c460751c2402c5c5cc9109c910160405180910390a26101fc610407565b61020557600080fd5b565b600080546040516370a0823160e01b815230600482015282916001600160a01b0316906370a082319060240160206040518083038186803b15801561024b57600080fd5b505afa15801561025f573d6000803e3d6000fd5b505050506040513d601f19601f8201168201806040525081019061028391906105d7565b60015490915061029c906001600160a01b0316826104d3565b6102e05760405162461bcd60e51b81526020600482015260116024820152704572726f72205472616e73666572696e6760781b604482015260640160405180910390fd5b600191505090565b60015460405160009147916001600160a01b039091169082156108fc0290839085818181858888f19350505050158015610326573d6000803e3d6000fd5b50600191505090565b8060045461033d9082610612565b92915050565b600154600160a01b900460ff161561035a57600080fd5b6000546040516370a0823160e01b81523060048201526103dd916001600160a01b0316906370a08231906024015b60206040518083038186803b1580156103a057600080fd5b505afa1580156103b4573d6000803e3d6000fd5b505050506040513d601f19601f820116820180604052508101906103d891906105d7565b61058c565b60028190556103ef906103e8906105f0565b6004556001805460ff60a01b1916600160a01b179055565b336000908152600560205260408120546004546104249082610612565b33600090815260056020526040812055905061044033826104d3565b506000546040516370a0823160e01b8152306004820152610473916001600160a01b0316906370a0823190602401610388565b6002819055610485906103e8906105f0565b60045560405181815233907f9d996ae749d879a4249021ae32eae7603984b6ca0c92d11d3902d378cceb17e49060200160405180910390a25050336000908152600560205260409020541590565b336000908152600560205260408120805483919083906104f4908490610631565b90915550506000546040516323b872dd60e01b81523060048201526001600160a01b03858116602483015260448201859052909116906323b872dd90606401602060405180830381600087803b15801561054d57600080fd5b505af1158015610561573d6000803e3d6000fd5b505050506040513d601f19601f82011682018060405250810190610585919061059c565b9392505050565b60006003548261033d91906105f0565b6000602082840312156105ae57600080fd5b8151801515811461058557600080fd5b6000602082840312156105d057600080fd5b5035919050565b6000602082840312156105e957600080fd5b5051919050565b60008261060d57634e487b7160e01b600052601260045260246000fd5b500490565b600081600019048311821515161561062c5761062c610648565b500290565b60008282101561064357610643610648565b500390565b634e487b7160e01b600052601160045260246000fdfea264697066735822122046960483660f76df2b9089aa53e960a8b7d8fa5d831b984468464bb12092ce5e64736f6c63430008070033",
  "immutableReferences": {},
  "source": "pragma solidity ^0.8.0;\n\nimport \"@openzeppelin/contracts/token/ERC20/ERC20.sol\";\nimport \"@openzeppelin/contracts/token/ERC20/extensions/ERC20Burnable.sol\";\n\ncontract VendingMachine {\n    \n    ERC20Burnable public redPens;\n    \n    address public treasuryAddress;\n    bool private hasBeenInitated = false;\n    \n    uint256 public inStock = 0;\n    uint256 private decimals = 10 ** 18;\n    uint public penToNativeRatio = 10;\n\n    event  Deposit(address indexed dst, uint amount);\n    event  Dispersed(address indexed src, uint amount);\n\n    mapping (address => uint) private pendingBalance;\n\n    constructor (address redPensAddress, address _treasuryAddress) {\n        redPens = ERC20Burnable(redPensAddress);\n        treasuryAddress = _treasuryAddress;\n    }\n\n    // This vending machine can only be used once.\n    function initiateStock() public {\n        require(!hasBeenInitated);\n        inStock = _fromWei(redPens.balanceOf(address(this)));\n        penToNativeRatio = inStock / 1000;\n        hasBeenInitated = true;\n    }\n\n    function _fromWei(uint256 amount) internal view returns (uint256 fromWeiAmount) {\n        fromWeiAmount = amount / decimals;\n    }\n\n    receive() external payable  {\n        deposit();\n    }\n    function deposit() public payable {\n        pendingBalance[msg.sender] = msg.value;\n        emit Deposit(msg.sender, msg.value);\n        require(_vend());\n    }\n    function _vend() internal returns (bool) {\n        \n        uint256 amount = pendingBalance[msg.sender];\n        require(amount >= 0);\n\n        amount = amount * penToNativeRatio;\n        pendingBalance[msg.sender] = 0;\n\n        require(pendingBalance[msg.sender] == 0);  \n        _transfer(msg.sender, amount);\n\n        inStock = _fromWei(redPens.balanceOf(address(this)));\n        penToNativeRatio = inStock / 1000;\n\n        emit Dispersed(msg.sender, amount);\n\n        return (pendingBalance[msg.sender] == 0);\n    }\n\n    function simulateVend(uint _value) public view returns (uint _amount) {\n        \n        _amount = _value;\n        require(_amount >= 0);\n        _amount = _amount * penToNativeRatio;\n\n        return (_amount);\n    }\n\n    function _transfer(address to, uint amount) internal returns (bool) {\n        pendingBalance[msg.sender] -= amount;\n        return redPens.transferFrom(address(this), to, amount);\n    }\n\n    function sendPensToTreasury() public returns (bool) {\n        uint balance = redPens.balanceOf(address(this));\n        require(_transfer(treasuryAddress, balance), \"Error Transfering\");\n        return true;\n    }\n\n    function coinCollect() public returns (bool) {\n        uint balance = address(this).balance;\n        payable(treasuryAddress).transfer(balance);\n        return true;\n    }\n\n}\n",
  "sourcePath": "/home/n/Desktop/PinkSlips_FrontEnd_REFORMAT/contracts/govTokens/VendingMachine.sol",
  "compiler": {
    "name": "solc",
    "version": "0.8.7+commit.e28d00a7.Emscripten.clang"
  },
  "schemaVersion": "3.4.1",
  "updatedAt": "2021-08-18T01:04:55.769Z",
  "networkType": "ethereum",
  "devdoc": {
    "kind": "dev",
    "methods": {},
    "version": 1
  },
  "userdoc": {
    "kind": "user",
    "methods": {},
    "version": 1
  }
}