{
  "contractName": "VendingMachine",
  "abi": [
    {
      "inputs": [
        {
          "internalType": "address",
          "name": "redPensAddress",
          "type": "address"
        }
      ],
      "stateMutability": "nonpayable",
      "type": "constructor"
    },
    {
      "anonymous": false,
      "inputs": [
        {
          "indexed": true,
          "internalType": "address",
          "name": "dst",
          "type": "address"
        },
        {
          "indexed": false,
          "internalType": "uint256",
          "name": "amount",
          "type": "uint256"
        }
      ],
      "name": "Deposit",
      "type": "event"
    },
    {
      "anonymous": false,
      "inputs": [
        {
          "indexed": true,
          "internalType": "address",
          "name": "src",
          "type": "address"
        },
        {
          "indexed": false,
          "internalType": "uint256",
          "name": "amount",
          "type": "uint256"
        }
      ],
      "name": "Dispersed",
      "type": "event"
    },
    {
      "inputs": [],
      "name": "inStock",
      "outputs": [
        {
          "internalType": "uint256",
          "name": "",
          "type": "uint256"
        }
      ],
      "stateMutability": "view",
      "type": "function",
      "constant": true
    },
    {
      "inputs": [],
      "name": "penToNativeRatio",
      "outputs": [
        {
          "internalType": "uint256",
          "name": "",
          "type": "uint256"
        }
      ],
      "stateMutability": "view",
      "type": "function",
      "constant": true
    },
    {
      "inputs": [],
      "name": "redPens",
      "outputs": [
        {
          "internalType": "contract ERC20",
          "name": "",
          "type": "address"
        }
      ],
      "stateMutability": "view",
      "type": "function",
      "constant": true
    },
    {
      "stateMutability": "payable",
      "type": "receive",
      "payable": true
    },
    {
      "inputs": [],
      "name": "initiateStock",
      "outputs": [],
      "stateMutability": "nonpayable",
      "type": "function"
    },
    {
      "inputs": [],
      "name": "deposit",
      "outputs": [],
      "stateMutability": "payable",
      "type": "function",
      "payable": true
    }
  ],
  "bytecode": "0x60806040526000805460ff60a01b19168155600155670de0b6b3a7640000600255600a60035534801561003157600080fd5b5060405161051538038061051583398101604081905261005091610075565b600080546001600160a01b0319166001600160a01b03929092169190911790556100a5565b60006020828403121561008757600080fd5b81516001600160a01b038116811461009e57600080fd5b9392505050565b610461806100b46000396000f3fe60806040526004361061004e5760003560e01c80630a861c601461006257806367a14f061461008b578063c1f7618e146100c3578063d0e30db0146100d8578063d6877e61146100e057600080fd5b3661005d5761005b6100f6565b005b600080fd5b34801561006e57600080fd5b5061007860015481565b6040519081526020015b60405180910390f35b34801561009757600080fd5b506000546100ab906001600160a01b031681565b6040516001600160a01b039091168152602001610082565b3480156100cf57600080fd5b5061005b61015a565b61005b6100f6565b3480156100ec57600080fd5b5061007860035481565b33600090815260046020526040812080543492906101159084906103bc565b909155505060405134815233907fe1fffcc4923d04b559f4d29a8bfc6cda04eb5b0d3c460751c2402c5c5cc9109c9060200160405180910390a261015761021e565b50565b600054600160a01b900460ff161561017157600080fd5b6000546040516370a0823160e01b81523060048201526101f4916001600160a01b0316906370a08231906024015b60206040518083038186803b1580156101b757600080fd5b505afa1580156101cb573d6000803e3d6000fd5b505050506040513d601f19601f820116820180604052508101906101ef91906103a3565b610364565b6001819055610206906103e8906103d4565b6003556000805460ff60a01b1916600160a01b179055565b3360009081526004602052604081205460035461023b90826103f6565b33600090815260046020526040812055905060005460405163a9059cbb60e01b8152336004820152602481018390526001600160a01b039091169063a9059cbb90604401602060405180830381600087803b15801561029957600080fd5b505af11580156102ad573d6000803e3d6000fd5b505050506040513d601f19601f820116820180604052508101906102d1919061037a565b506000546040516370a0823160e01b8152306004820152610304916001600160a01b0316906370a082319060240161019f565b6001819055610316906103e8906103d4565b60035560405181815233907f9d996ae749d879a4249021ae32eae7603984b6ca0c92d11d3902d378cceb17e49060200160405180910390a25050336000908152600460205260409020541590565b60006002548261037491906103d4565b92915050565b60006020828403121561038c57600080fd5b8151801515811461039c57600080fd5b9392505050565b6000602082840312156103b557600080fd5b5051919050565b600082198211156103cf576103cf610415565b500190565b6000826103f157634e487b7160e01b600052601260045260246000fd5b500490565b600081600019048311821515161561041057610410610415565b500290565b634e487b7160e01b600052601160045260246000fdfea2646970667358221220e2529e9bb4ed363bc20c5c67bc9b129eda951ac37997ff0ee64dff572ac2708c64736f6c63430008060033",
  "immutableReferences": {},
  "source": "pragma solidity ^0.8.0;\n\nimport \"@openzeppelin/contracts/token/ERC20/ERC20.sol\";\n\ncontract VendingMachine {\n    \n    ERC20 public redPens;\n    \n    bool private hasBeenInitated = false;\n    \n    uint256 public inStock = 0;\n    uint256 private decimals = 10 ** 18;\n    uint public penToNativeRatio = 10;\n\n    event  Deposit(address indexed dst, uint amount);\n    event  Dispersed(address indexed src, uint amount);\n\n    mapping (address => uint) private pendingBalance;\n\n    constructor (address redPensAddress) {\n        redPens = ERC20(redPensAddress);\n    }\n\n    // This vending machine can only be used once.\n    function initiateStock() public {\n        require(!hasBeenInitated);\n        inStock = _fromWei(redPens.balanceOf(address(this)));\n        penToNativeRatio = inStock / 1000;\n        hasBeenInitated = true;\n    }\n\n    function _fromWei(uint256 amount) internal view returns (uint256 fromWeiAmount) {\n        fromWeiAmount = amount / decimals;\n    }\n\n    receive() external payable  {\n        deposit();\n    }\n    function deposit() public payable {\n        pendingBalance[msg.sender] += msg.value;\n        emit Deposit(msg.sender, msg.value);\n        _vend();\n    }\n    function _vend() internal returns (bool) {\n        \n        uint256 amount = pendingBalance[msg.sender];\n        require(amount >= 0);\n        amount = amount * penToNativeRatio;\n        pendingBalance[msg.sender] = 0;\n        require(pendingBalance[msg.sender] == 0);  \n        redPens.transfer(msg.sender, amount);\n        inStock = _fromWei(redPens.balanceOf(address(this)));\n        penToNativeRatio = inStock / 1000;\n        emit Dispersed(msg.sender, amount);\n        return pendingBalance[msg.sender] == 0;\n    }\n\n    function _transfer(address to, uint amount) internal returns (bool) {\n        pendingBalance[msg.sender] -= amount;\n        return redPens.transferFrom(address(this), to, amount);\n    }\n\n}\n",
  "sourcePath": "/home/n/Desktop/PinkSlips_FrontEnd_REFORMAT (copy)/contracts/govTokens/VendingMachine.sol",
  "compiler": {
    "name": "solc",
    "version": "0.8.6+commit.11564f7e.Emscripten.clang"
  },
  "schemaVersion": "3.4.1",
  "updatedAt": "2021-08-08T03:03:57.649Z",
  "networkType": "ethereum",
  "devdoc": {
    "kind": "dev",
    "methods": {},
    "version": 1
  },
  "userdoc": {
    "kind": "user",
    "methods": {},
    "version": 1
  }
}